{
  "_format": "hh-sol-artifact-1",
  "contractName": "PJKBurner",
  "sourceName": "contracts/pjkburner.sol",
  "abi": [
    {
      "anonymous": false,
      "inputs": [
        {
          "indexed": true,
          "internalType": "address",
          "name": "user",
          "type": "address"
        },
        {
          "indexed": false,
          "internalType": "uint256",
          "name": "amount",
          "type": "uint256"
        }
      ],
      "name": "PJKBurned",
      "type": "event"
    },
    {
      "inputs": [],
      "name": "BURN_ADDRESS",
      "outputs": [
        {
          "internalType": "address",
          "name": "",
          "type": "address"
        }
      ],
      "stateMutability": "view",
      "type": "function"
    },
    {
      "inputs": [
        {
          "internalType": "uint256",
          "name": "amount",
          "type": "uint256"
        }
      ],
      "name": "burnPJK",
      "outputs": [],
      "stateMutability": "nonpayable",
      "type": "function"
    },
    {
      "inputs": [],
      "name": "pjkToken",
      "outputs": [
        {
          "internalType": "contract IERC20",
          "name": "",
          "type": "address"
        }
      ],
      "stateMutability": "view",
      "type": "function"
    }
  ],
  "bytecode": "0x6080604052600080546001600160a01b03191673fc0e40e7d6aba1079409966bcacb2273f048da5f17905534801561003657600080fd5b50610202806100466000396000f3fe608060405234801561001057600080fd5b50600436106100415760003560e01c806327d0c8ee146100465780634a6c313814610075578063fccc28131461008a575b600080fd5b600054610059906001600160a01b031681565b6040516001600160a01b03909116815260200160405180910390f35b61008861008336600461018a565b610093565b005b61005961dead81565b6000546040516323b872dd60e01b815233600482015261dead6024820152604481018390526001600160a01b03909116906323b872dd906064016020604051808303816000875af11580156100ec573d6000803e3d6000fd5b505050506040513d601f19601f8201168201806040525081019061011091906101a3565b6101525760405162461bcd60e51b815260206004820152600f60248201526e141292c8189d5c9b8819985a5b1959608a1b604482015260640160405180910390fd5b60405181815233907fab0fcf7ff81c51c36b5d639d6132316aec26d36f659c6eb36cbeb4af4ae8fa889060200160405180910390a250565b60006020828403121561019c57600080fd5b5035919050565b6000602082840312156101b557600080fd5b815180151581146101c557600080fd5b939250505056fea26469706673582212206858b7cb33654fa71fc711a9ddc10a479a24344f658040314ee285d6bf63123064736f6c63430008170033",
  "linkReferences": {},
  "deployedLinkReferences": {}
}