{
  "abi": [
    {
      "anonymous": false,
      "inputs": [
        {
          "indexed": false,
          "internalType": "uint256",
          "name": "tokenId",
          "type": "uint256"
        },
        {
          "indexed": false,
          "internalType": "address",
          "name": "l1Recipient",
          "type": "address"
        }
      ],
      "name": "BridgeOutCompleted",
      "type": "event"
    },
    {
      "inputs": [
        {
          "internalType": "uint256",
          "name": "tokenId",
          "type": "uint256"
        },
        {
          "internalType": "address",
          "name": "l1Recipient",
          "type": "address"
        }
      ],
      "name": "completeBridgeOut",
      "outputs": [],
      "stateMutability": "nonpayable",
      "type": "function"
    }
  ],
  "devdoc": {
    "kind": "dev",
    "methods": {},
    "version": 1
  },
  "evm": {
    "assembly": "    /* \"DummyL1Bridge.sol\":58:366  contract DummyL1Bridge {... */\n  mstore(0x40, 0x80)\n  callvalue\n  dup1\n  iszero\n  tag_1\n  jumpi\n  0x00\n  dup1\n  revert\ntag_1:\n  pop\n  dataSize(sub_0)\n  dup1\n  dataOffset(sub_0)\n  0x00\n  codecopy\n  0x00\n  return\nstop\n\nsub_0: assembly {\n        /* \"DummyL1Bridge.sol\":58:366  contract DummyL1Bridge {... */\n      mstore(0x40, 0x80)\n      callvalue\n      dup1\n      iszero\n      tag_1\n      jumpi\n      0x00\n      dup1\n      revert\n    tag_1:\n      pop\n      jumpi(tag_2, lt(calldatasize, 0x04))\n      shr(0xe0, calldataload(0x00))\n      dup1\n      0x086877f2\n      eq\n      tag_3\n      jumpi\n    tag_2:\n      0x00\n      dup1\n      revert\n        /* \"DummyL1Bridge.sol\":156:364  function completeBridgeOut(uint256 tokenId, address l1Recipient) external {... */\n    tag_3:\n      tag_4\n      tag_5\n      calldatasize\n      0x04\n      tag_6\n      jump\t// in\n    tag_5:\n      tag_7\n      jump\t// in\n    tag_4:\n      stop\n    tag_7:\n        /* \"DummyL1Bridge.sol\":317:357  BridgeOutCompleted(tokenId, l1Recipient) */\n      0x40\n      dup1\n      mload\n        /* \"#utility.yul\":570:595   */\n      dup4\n      dup2\n      mstore\n        /* \"#utility.yul\":643:685   */\n      0xffffffffffffffffffffffffffffffffffffffff\n        /* \"#utility.yul\":631:686   */\n      dup4\n      and\n        /* \"#utility.yul\":626:628   */\n      0x20\n        /* \"#utility.yul\":611:629   */\n      dup3\n      add\n        /* \"#utility.yul\":604:687   */\n      mstore\n        /* \"DummyL1Bridge.sol\":317:357  BridgeOutCompleted(tokenId, l1Recipient) */\n      0x32c699a6ec2834abca955774b4926afe50a18ad25e78aaa83f18e5d5525d7f5f\n      swap2\n        /* \"#utility.yul\":543:561   */\n      add\n        /* \"DummyL1Bridge.sol\":317:357  BridgeOutCompleted(tokenId, l1Recipient) */\n      mload(0x40)\n      dup1\n      swap2\n      sub\n      swap1\n      log1\n        /* \"DummyL1Bridge.sol\":156:364  function completeBridgeOut(uint256 tokenId, address l1Recipient) external {... */\n      pop\n      pop\n      jump\t// out\n        /* \"#utility.yul\":14:391   */\n    tag_6:\n        /* \"#utility.yul\":82:88   */\n      0x00\n        /* \"#utility.yul\":90:96   */\n      dup1\n        /* \"#utility.yul\":143:145   */\n      0x40\n        /* \"#utility.yul\":131:140   */\n      dup4\n        /* \"#utility.yul\":122:129   */\n      dup6\n        /* \"#utility.yul\":118:141   */\n      sub\n        /* \"#utility.yul\":114:146   */\n      slt\n        /* \"#utility.yul\":111:163   */\n      iszero\n      tag_13\n      jumpi\n        /* \"#utility.yul\":159:160   */\n      0x00\n        /* \"#utility.yul\":156:157   */\n      dup1\n        /* \"#utility.yul\":149:161   */\n      revert\n        /* \"#utility.yul\":111:163   */\n    tag_13:\n        /* \"#utility.yul\":195:204   */\n      dup3\n        /* \"#utility.yul\":182:205   */\n      calldataload\n        /* \"#utility.yul\":172:205   */\n      swap2\n      pop\n        /* \"#utility.yul\":255:257   */\n      0x20\n        /* \"#utility.yul\":244:253   */\n      dup4\n        /* \"#utility.yul\":240:258   */\n      add\n        /* \"#utility.yul\":227:259   */\n      calldataload\n        /* \"#utility.yul\":299:341   */\n      0xffffffffffffffffffffffffffffffffffffffff\n        /* \"#utility.yul\":292:297   */\n      dup2\n        /* \"#utility.yul\":288:342   */\n      and\n        /* \"#utility.yul\":281:286   */\n      dup2\n        /* \"#utility.yul\":278:343   */\n      eq\n        /* \"#utility.yul\":268:361   */\n      tag_14\n      jumpi\n        /* \"#utility.yul\":357:358   */\n      0x00\n        /* \"#utility.yul\":354:355   */\n      dup1\n        /* \"#utility.yul\":347:359   */\n      revert\n        /* \"#utility.yul\":268:361   */\n    tag_14:\n        /* \"#utility.yul\":380:385   */\n      dup1\n        /* \"#utility.yul\":370:385   */\n      swap2\n      pop\n      pop\n        /* \"#utility.yul\":14:391   */\n      swap3\n      pop\n      swap3\n      swap1\n      pop\n      jump\t// out\n\n    auxdata: 0xa2646970667358221220d15dcff710405d38638f5a2ae717122b3a332e2617b95aaf31752b074c344d1f64736f6c63430008190033\n}\n",
    "bytecode": {
      "linkReferences": {},
      "object": "6080604052348015600e575f80fd5b506101078061001c5f395ff3fe6080604052348015600e575f80fd5b50600436106026575f3560e01c8063086877f214602a575b5f80fd5b60396035366004608d565b603b565b005b6040805183815273ffffffffffffffffffffffffffffffffffffffff831660208201527f32c699a6ec2834abca955774b4926afe50a18ad25e78aaa83f18e5d5525d7f5f910160405180910390a15050565b5f8060408385031215609d575f80fd5b82359150602083013573ffffffffffffffffffffffffffffffffffffffff8116811460c6575f80fd5b80915050925092905056fea2646970667358221220d15dcff710405d38638f5a2ae717122b3a332e2617b95aaf31752b074c344d1f64736f6c63430008190033",
      "opcodes": "PUSH1 0x80 PUSH1 0x40 MSTORE CALLVALUE DUP1 ISZERO PUSH1 0xE JUMPI PUSH0 DUP1 REVERT JUMPDEST POP PUSH2 0x107 DUP1 PUSH2 0x1C PUSH0 CODECOPY PUSH0 RETURN INVALID PUSH1 0x80 PUSH1 0x40 MSTORE CALLVALUE DUP1 ISZERO PUSH1 0xE JUMPI PUSH0 DUP1 REVERT JUMPDEST POP PUSH1 0x4 CALLDATASIZE LT PUSH1 0x26 JUMPI PUSH0 CALLDATALOAD PUSH1 0xE0 SHR DUP1 PUSH4 0x86877F2 EQ PUSH1 0x2A JUMPI JUMPDEST PUSH0 DUP1 REVERT JUMPDEST PUSH1 0x39 PUSH1 0x35 CALLDATASIZE PUSH1 0x4 PUSH1 0x8D JUMP JUMPDEST PUSH1 0x3B JUMP JUMPDEST STOP JUMPDEST PUSH1 0x40 DUP1 MLOAD DUP4 DUP2 MSTORE PUSH20 0xFFFFFFFFFFFFFFFFFFFFFFFFFFFFFFFFFFFFFFFF DUP4 AND PUSH1 0x20 DUP3 ADD MSTORE PUSH32 0x32C699A6EC2834ABCA955774B4926AFE50A18AD25E78AAA83F18E5D5525D7F5F SWAP2 ADD PUSH1 0x40 MLOAD DUP1 SWAP2 SUB SWAP1 LOG1 POP POP JUMP JUMPDEST PUSH0 DUP1 PUSH1 0x40 DUP4 DUP6 SUB SLT ISZERO PUSH1 0x9D JUMPI PUSH0 DUP1 REVERT JUMPDEST DUP3 CALLDATALOAD SWAP2 POP PUSH1 0x20 DUP4 ADD CALLDATALOAD PUSH20 0xFFFFFFFFFFFFFFFFFFFFFFFFFFFFFFFFFFFFFFFF DUP2 AND DUP2 EQ PUSH1 0xC6 JUMPI PUSH0 DUP1 REVERT JUMPDEST DUP1 SWAP2 POP POP SWAP3 POP SWAP3 SWAP1 POP JUMP INVALID LOG2 PUSH5 0x6970667358 0x22 SLT KECCAK256 0xD1 TSTORE 0xCF 0xF7 LT BLOCKHASH TSTORE CODESIZE PUSH4 0x8F5A2AE7 OR SLT 0x2B GASPRICE CALLER 0x2E 0x26 OR 0xB9 GAS 0xAF BALANCE PUSH22 0x2B074C344D1F64736F6C634300081900330000000000 "
    },
    "gasEstimates": {
      "creation": {
        "codeDepositCost": "52600",
        "executionCost": "103",
        "totalCost": "52703"
      },
      "external": {
        "completeBridgeOut(uint256,address)": "1603"
      }
    },
    "methodIdentifiers": {
      "completeBridgeOut(uint256,address)": "086877f2"
    }
  },
  "storageLayout": {
    "storage": [],
    "types": null
  },
  "userdoc": {
    "kind": "user",
    "methods": {},
    "version": 1
  }
}