{
  "_format": "hh-sol-artifact-1",
  "contractName": "ProducerProtocolOptimism",
  "sourceName": "contracts/ProducerProtocolOptimism.sol",
  "abi": [
    {
      "inputs": [
        {
          "internalType": "address",
          "name": "_crossDomainMessenger",
          "type": "address"
        },
        {
          "internalType": "address",
          "name": "_l1Contract",
          "type": "address"
        }
      ],
      "stateMutability": "nonpayable",
      "type": "constructor"
    },
    {
      "inputs": [],
      "name": "ApprovalCallerNotOwnerNorApproved",
      "type": "error"
    },
    {
      "inputs": [],
      "name": "ApprovalQueryForNonexistentToken",
      "type": "error"
    },
    {
      "inputs": [],
      "name": "ApprovalToCurrentOwner",
      "type": "error"
    },
    {
      "inputs": [],
      "name": "ApproveToCaller",
      "type": "error"
    },
    {
      "inputs": [],
      "name": "BalanceQueryForZeroAddress",
      "type": "error"
    },
    {
      "inputs": [
        {
          "internalType": "uint256",
          "name": "index",
          "type": "uint256"
        }
      ],
      "name": "BatchMintInvalidBatchId",
      "type": "error"
    },
    {
      "inputs": [
        {
          "internalType": "uint256",
          "name": "tokenId",
          "type": "uint256"
        }
      ],
      "name": "BatchMintInvalidTokenId",
      "type": "error"
    },
    {
      "inputs": [
        {
          "internalType": "uint256",
          "name": "batchId",
          "type": "uint256"
        }
      ],
      "name": "BatchMintMetadataFrozen",
      "type": "error"
    },
    {
      "inputs": [],
      "name": "ContractMetadataUnauthorized",
      "type": "error"
    },
    {
      "inputs": [],
      "name": "InvalidQueryRange",
      "type": "error"
    },
    {
      "inputs": [],
      "name": "MintToZeroAddress",
      "type": "error"
    },
    {
      "inputs": [],
      "name": "MintZeroQuantity",
      "type": "error"
    },
    {
      "inputs": [],
      "name": "OwnableUnauthorized",
      "type": "error"
    },
    {
      "inputs": [],
      "name": "OwnerQueryForNonexistentToken",
      "type": "error"
    },
    {
      "inputs": [
        {
          "internalType": "uint256",
          "name": "max",
          "type": "uint256"
        },
        {
          "internalType": "uint256",
          "name": "actual",
          "type": "uint256"
        }
      ],
      "name": "RoyaltyExceededMaxFeeBps",
      "type": "error"
    },
    {
      "inputs": [
        {
          "internalType": "address",
          "name": "recipient",
          "type": "address"
        }
      ],
      "name": "RoyaltyInvalidRecipient",
      "type": "error"
    },
    {
      "inputs": [],
      "name": "RoyaltyUnauthorized",
      "type": "error"
    },
    {
      "inputs": [],
      "name": "TransferCallerNotOwnerNorApproved",
      "type": "error"
    },
    {
      "inputs": [],
      "name": "TransferFromIncorrectOwner",
      "type": "error"
    },
    {
      "inputs": [],
      "name": "TransferToNonERC721ReceiverImplementer",
      "type": "error"
    },
    {
      "inputs": [],
      "name": "TransferToZeroAddress",
      "type": "error"
    },
    {
      "inputs": [],
      "name": "URIQueryForNonexistentToken",
      "type": "error"
    },
    {
      "anonymous": false,
      "inputs": [
        {
          "indexed": true,
          "internalType": "address",
          "name": "owner",
          "type": "address"
        },
        {
          "indexed": true,
          "internalType": "address",
          "name": "approved",
          "type": "address"
        },
        {
          "indexed": true,
          "internalType": "uint256",
          "name": "tokenId",
          "type": "uint256"
        }
      ],
      "name": "Approval",
      "type": "event"
    },
    {
      "anonymous": false,
      "inputs": [
        {
          "indexed": true,
          "internalType": "address",
          "name": "owner",
          "type": "address"
        },
        {
          "indexed": true,
          "internalType": "address",
          "name": "operator",
          "type": "address"
        },
        {
          "indexed": false,
          "internalType": "bool",
          "name": "approved",
          "type": "bool"
        }
      ],
      "name": "ApprovalForAll",
      "type": "event"
    },
    {
      "anonymous": false,
      "inputs": [
        {
          "indexed": false,
          "internalType": "uint256",
          "name": "_fromTokenId",
          "type": "uint256"
        },
        {
          "indexed": false,
          "internalType": "uint256",
          "name": "_toTokenId",
          "type": "uint256"
        }
      ],
      "name": "BatchMetadataUpdate",
      "type": "event"
    },
    {
      "anonymous": false,
      "inputs": [
        {
          "indexed": false,
          "internalType": "string",
          "name": "prevURI",
          "type": "string"
        },
        {
          "indexed": false,
          "internalType": "string",
          "name": "newURI",
          "type": "string"
        }
      ],
      "name": "ContractURIUpdated",
      "type": "event"
    },
    {
      "anonymous": false,
      "inputs": [
        {
          "indexed": true,
          "internalType": "address",
          "name": "newRoyaltyRecipient",
          "type": "address"
        },
        {
          "indexed": false,
          "internalType": "uint256",
          "name": "newRoyaltyBps",
          "type": "uint256"
        }
      ],
      "name": "DefaultRoyalty",
      "type": "event"
    },
    {
      "anonymous": false,
      "inputs": [],
      "name": "MetadataFrozen",
      "type": "event"
    },
    {
      "anonymous": false,
      "inputs": [
        {
          "indexed": true,
          "internalType": "address",
          "name": "prevOwner",
          "type": "address"
        },
        {
          "indexed": true,
          "internalType": "address",
          "name": "newOwner",
          "type": "address"
        }
      ],
      "name": "OwnerUpdated",
      "type": "event"
    },
    {
      "anonymous": false,
      "inputs": [
        {
          "indexed": true,
          "internalType": "uint256",
          "name": "tokenId",
          "type": "uint256"
        },
        {
          "indexed": true,
          "internalType": "address",
          "name": "royaltyRecipient",
          "type": "address"
        },
        {
          "indexed": false,
          "internalType": "uint256",
          "name": "royaltyBps",
          "type": "uint256"
        }
      ],
      "name": "RoyaltyForToken",
      "type": "event"
    },
    {
      "anonymous": false,
      "inputs": [
        {
          "indexed": true,
          "internalType": "uint256",
          "name": "tokenId",
          "type": "uint256"
        },
        {
          "indexed": true,
          "internalType": "address",
          "name": "recipient",
          "type": "address"
        }
      ],
      "name": "TokenBridgedIn",
      "type": "event"
    },
    {
      "anonymous": false,
      "inputs": [
        {
          "indexed": true,
          "internalType": "uint256",
          "name": "tokenId",
          "type": "uint256"
        },
        {
          "indexed": true,
          "internalType": "address",
          "name": "l1Recipient",
          "type": "address"
        }
      ],
      "name": "TokenBridgedOut",
      "type": "event"
    },
    {
      "anonymous": false,
      "inputs": [
        {
          "indexed": true,
          "internalType": "address",
          "name": "from",
          "type": "address"
        },
        {
          "indexed": true,
          "internalType": "address",
          "name": "to",
          "type": "address"
        },
        {
          "indexed": true,
          "internalType": "uint256",
          "name": "tokenId",
          "type": "uint256"
        }
      ],
      "name": "Transfer",
      "type": "event"
    },
    {
      "inputs": [],
      "name": "L1_GAS_LIMIT",
      "outputs": [
        {
          "internalType": "uint32",
          "name": "",
          "type": "uint32"
        }
      ],
      "stateMutability": "view",
      "type": "function"
    },
    {
      "inputs": [
        {
          "internalType": "address",
          "name": "recipient",
          "type": "address"
        }
      ],
      "name": "adminMint",
      "outputs": [],
      "stateMutability": "nonpayable",
      "type": "function"
    },
    {
      "inputs": [
        {
          "internalType": "address",
          "name": "to",
          "type": "address"
        },
        {
          "internalType": "uint256",
          "name": "tokenId",
          "type": "uint256"
        }
      ],
      "name": "approve",
      "outputs": [],
      "stateMutability": "nonpayable",
      "type": "function"
    },
    {
      "inputs": [
        {
          "internalType": "address",
          "name": "owner",
          "type": "address"
        }
      ],
      "name": "balanceOf",
      "outputs": [
        {
          "internalType": "uint256",
          "name": "",
          "type": "uint256"
        }
      ],
      "stateMutability": "view",
      "type": "function"
    },
    {
      "inputs": [
        {
          "internalType": "uint256",
          "name": "",
          "type": "uint256"
        }
      ],
      "name": "batchFrozen",
      "outputs": [
        {
          "internalType": "bool",
          "name": "",
          "type": "bool"
        }
      ],
      "stateMutability": "view",
      "type": "function"
    },
    {
      "inputs": [
        {
          "internalType": "address",
          "name": "_to",
          "type": "address"
        },
        {
          "internalType": "uint256",
          "name": "_quantity",
          "type": "uint256"
        },
        {
          "internalType": "string",
          "name": "_baseURI",
          "type": "string"
        },
        {
          "internalType": "bytes",
          "name": "_data",
          "type": "bytes"
        }
      ],
      "name": "batchMintTo",
      "outputs": [],
      "stateMutability": "nonpayable",
      "type": "function"
    },
    {
      "inputs": [
        {
          "internalType": "uint256",
          "name": "tokenId",
          "type": "uint256"
        },
        {
          "internalType": "address",
          "name": "recipient",
          "type": "address"
        }
      ],
      "name": "bridgeMint",
      "outputs": [],
      "stateMutability": "nonpayable",
      "type": "function"
    },
    {
      "inputs": [
        {
          "internalType": "uint256",
          "name": "tokenId",
          "type": "uint256"
        },
        {
          "internalType": "address",
          "name": "l1Recipient",
          "type": "address"
        }
      ],
      "name": "bridgeOut",
      "outputs": [],
      "stateMutability": "nonpayable",
      "type": "function"
    },
    {
      "inputs": [
        {
          "internalType": "uint256",
          "name": "_tokenId",
          "type": "uint256"
        }
      ],
      "name": "burn",
      "outputs": [],
      "stateMutability": "nonpayable",
      "type": "function"
    },
    {
      "inputs": [],
      "name": "contractURI",
      "outputs": [
        {
          "internalType": "string",
          "name": "",
          "type": "string"
        }
      ],
      "stateMutability": "view",
      "type": "function"
    },
    {
      "inputs": [],
      "name": "crossDomainMessenger",
      "outputs": [
        {
          "internalType": "address",
          "name": "",
          "type": "address"
        }
      ],
      "stateMutability": "view",
      "type": "function"
    },
    {
      "inputs": [
        {
          "internalType": "uint256",
          "name": "tokenId",
          "type": "uint256"
        }
      ],
      "name": "explicitOwnershipOf",
      "outputs": [
        {
          "components": [
            {
              "internalType": "address",
              "name": "addr",
              "type": "address"
            },
            {
              "internalType": "uint64",
              "name": "startTimestamp",
              "type": "uint64"
            },
            {
              "internalType": "bool",
              "name": "burned",
              "type": "bool"
            }
          ],
          "internalType": "struct IERC721A.TokenOwnership",
          "name": "",
          "type": "tuple"
        }
      ],
      "stateMutability": "view",
      "type": "function"
    },
    {
      "inputs": [
        {
          "internalType": "uint256[]",
          "name": "tokenIds",
          "type": "uint256[]"
        }
      ],
      "name": "explicitOwnershipsOf",
      "outputs": [
        {
          "components": [
            {
              "internalType": "address",
              "name": "addr",
              "type": "address"
            },
            {
              "internalType": "uint64",
              "name": "startTimestamp",
              "type": "uint64"
            },
            {
              "internalType": "bool",
              "name": "burned",
              "type": "bool"
            }
          ],
          "internalType": "struct IERC721A.TokenOwnership[]",
          "name": "",
          "type": "tuple[]"
        }
      ],
      "stateMutability": "view",
      "type": "function"
    },
    {
      "inputs": [
        {
          "internalType": "uint256",
          "name": "tokenId",
          "type": "uint256"
        }
      ],
      "name": "getApproved",
      "outputs": [
        {
          "internalType": "address",
          "name": "",
          "type": "address"
        }
      ],
      "stateMutability": "view",
      "type": "function"
    },
    {
      "inputs": [],
      "name": "getBaseURICount",
      "outputs": [
        {
          "internalType": "uint256",
          "name": "",
          "type": "uint256"
        }
      ],
      "stateMutability": "view",
      "type": "function"
    },
    {
      "inputs": [
        {
          "internalType": "uint256",
          "name": "_index",
          "type": "uint256"
        }
      ],
      "name": "getBatchIdAtIndex",
      "outputs": [
        {
          "internalType": "uint256",
          "name": "",
          "type": "uint256"
        }
      ],
      "stateMutability": "view",
      "type": "function"
    },
    {
      "inputs": [],
      "name": "getDefaultRoyaltyInfo",
      "outputs": [
        {
          "internalType": "address",
          "name": "",
          "type": "address"
        },
        {
          "internalType": "uint16",
          "name": "",
          "type": "uint16"
        }
      ],
      "stateMutability": "view",
      "type": "function"
    },
    {
      "inputs": [
        {
          "internalType": "uint256",
          "name": "_tokenId",
          "type": "uint256"
        }
      ],
      "name": "getRoyaltyInfoForToken",
      "outputs": [
        {
          "internalType": "address",
          "name": "",
          "type": "address"
        },
        {
          "internalType": "uint16",
          "name": "",
          "type": "uint16"
        }
      ],
      "stateMutability": "view",
      "type": "function"
    },
    {
      "inputs": [
        {
          "internalType": "address",
          "name": "owner",
          "type": "address"
        },
        {
          "internalType": "address",
          "name": "operator",
          "type": "address"
        }
      ],
      "name": "isApprovedForAll",
      "outputs": [
        {
          "internalType": "bool",
          "name": "",
          "type": "bool"
        }
      ],
      "stateMutability": "view",
      "type": "function"
    },
    {
      "inputs": [
        {
          "internalType": "address",
          "name": "_operator",
          "type": "address"
        },
        {
          "internalType": "uint256",
          "name": "_tokenId",
          "type": "uint256"
        }
      ],
      "name": "isApprovedOrOwner",
      "outputs": [
        {
          "internalType": "bool",
          "name": "isApprovedOrOwnerOf",
          "type": "bool"
        }
      ],
      "stateMutability": "view",
      "type": "function"
    },
    {
      "inputs": [],
      "name": "l1Contract",
      "outputs": [
        {
          "internalType": "address",
          "name": "",
          "type": "address"
        }
      ],
      "stateMutability": "view",
      "type": "function"
    },
    {
      "inputs": [
        {
          "internalType": "address",
          "name": "_to",
          "type": "address"
        },
        {
          "internalType": "string",
          "name": "_tokenURI",
          "type": "string"
        }
      ],
      "name": "mintTo",
      "outputs": [],
      "stateMutability": "nonpayable",
      "type": "function"
    },
    {
      "inputs": [
        {
          "internalType": "bytes[]",
          "name": "data",
          "type": "bytes[]"
        }
      ],
      "name": "multicall",
      "outputs": [
        {
          "internalType": "bytes[]",
          "name": "results",
          "type": "bytes[]"
        }
      ],
      "stateMutability": "nonpayable",
      "type": "function"
    },
    {
      "inputs": [],
      "name": "name",
      "outputs": [
        {
          "internalType": "string",
          "name": "",
          "type": "string"
        }
      ],
      "stateMutability": "view",
      "type": "function"
    },
    {
      "inputs": [],
      "name": "nextTokenId",
      "outputs": [
        {
          "internalType": "uint256",
          "name": "",
          "type": "uint256"
        }
      ],
      "stateMutability": "view",
      "type": "function"
    },
    {
      "inputs": [],
      "name": "nextTokenIdToMint",
      "outputs": [
        {
          "internalType": "uint256",
          "name": "",
          "type": "uint256"
        }
      ],
      "stateMutability": "view",
      "type": "function"
    },
    {
      "inputs": [],
      "name": "owner",
      "outputs": [
        {
          "internalType": "address",
          "name": "",
          "type": "address"
        }
      ],
      "stateMutability": "view",
      "type": "function"
    },
    {
      "inputs": [
        {
          "internalType": "uint256",
          "name": "tokenId",
          "type": "uint256"
        }
      ],
      "name": "ownerOf",
      "outputs": [
        {
          "internalType": "address",
          "name": "",
          "type": "address"
        }
      ],
      "stateMutability": "view",
      "type": "function"
    },
    {
      "inputs": [
        {
          "internalType": "uint256",
          "name": "tokenId",
          "type": "uint256"
        },
        {
          "internalType": "uint256",
          "name": "salePrice",
          "type": "uint256"
        }
      ],
      "name": "royaltyInfo",
      "outputs": [
        {
          "internalType": "address",
          "name": "receiver",
          "type": "address"
        },
        {
          "internalType": "uint256",
          "name": "royaltyAmount",
          "type": "uint256"
        }
      ],
      "stateMutability": "view",
      "type": "function"
    },
    {
      "inputs": [
        {
          "internalType": "address",
          "name": "from",
          "type": "address"
        },
        {
          "internalType": "address",
          "name": "to",
          "type": "address"
        },
        {
          "internalType": "uint256",
          "name": "tokenId",
          "type": "uint256"
        }
      ],
      "name": "safeTransferFrom",
      "outputs": [],
      "stateMutability": "nonpayable",
      "type": "function"
    },
    {
      "inputs": [
        {
          "internalType": "address",
          "name": "from",
          "type": "address"
        },
        {
          "internalType": "address",
          "name": "to",
          "type": "address"
        },
        {
          "internalType": "uint256",
          "name": "tokenId",
          "type": "uint256"
        },
        {
          "internalType": "bytes",
          "name": "_data",
          "type": "bytes"
        }
      ],
      "name": "safeTransferFrom",
      "outputs": [],
      "stateMutability": "nonpayable",
      "type": "function"
    },
    {
      "inputs": [
        {
          "internalType": "address",
          "name": "operator",
          "type": "address"
        },
        {
          "internalType": "bool",
          "name": "approved",
          "type": "bool"
        }
      ],
      "name": "setApprovalForAll",
      "outputs": [],
      "stateMutability": "nonpayable",
      "type": "function"
    },
    {
      "inputs": [
        {
          "internalType": "string",
          "name": "_uri",
          "type": "string"
        }
      ],
      "name": "setContractURI",
      "outputs": [],
      "stateMutability": "nonpayable",
      "type": "function"
    },
    {
      "inputs": [
        {
          "internalType": "address",
          "name": "_royaltyRecipient",
          "type": "address"
        },
        {
          "internalType": "uint256",
          "name": "_royaltyBps",
          "type": "uint256"
        }
      ],
      "name": "setDefaultRoyaltyInfo",
      "outputs": [],
      "stateMutability": "nonpayable",
      "type": "function"
    },
    {
      "inputs": [
        {
          "internalType": "address",
          "name": "_newOwner",
          "type": "address"
        }
      ],
      "name": "setOwner",
      "outputs": [],
      "stateMutability": "nonpayable",
      "type": "function"
    },
    {
      "inputs": [
        {
          "internalType": "uint256",
          "name": "_tokenId",
          "type": "uint256"
        },
        {
          "internalType": "address",
          "name": "_recipient",
          "type": "address"
        },
        {
          "internalType": "uint256",
          "name": "_bps",
          "type": "uint256"
        }
      ],
      "name": "setRoyaltyInfoForToken",
      "outputs": [],
      "stateMutability": "nonpayable",
      "type": "function"
    },
    {
      "inputs": [
        {
          "internalType": "bytes4",
          "name": "interfaceId",
          "type": "bytes4"
        }
      ],
      "name": "supportsInterface",
      "outputs": [
        {
          "internalType": "bool",
          "name": "",
          "type": "bool"
        }
      ],
      "stateMutability": "view",
      "type": "function"
    },
    {
      "inputs": [],
      "name": "symbol",
      "outputs": [
        {
          "internalType": "string",
          "name": "",
          "type": "string"
        }
      ],
      "stateMutability": "view",
      "type": "function"
    },
    {
      "inputs": [
        {
          "internalType": "uint256",
          "name": "_tokenId",
          "type": "uint256"
        }
      ],
      "name": "tokenURI",
      "outputs": [
        {
          "internalType": "string",
          "name": "",
          "type": "string"
        }
      ],
      "stateMutability": "view",
      "type": "function"
    },
    {
      "inputs": [
        {
          "internalType": "address",
          "name": "owner",
          "type": "address"
        }
      ],
      "name": "tokensOfOwner",
      "outputs": [
        {
          "internalType": "uint256[]",
          "name": "",
          "type": "uint256[]"
        }
      ],
      "stateMutability": "view",
      "type": "function"
    },
    {
      "inputs": [
        {
          "internalType": "address",
          "name": "owner",
          "type": "address"
        },
        {
          "internalType": "uint256",
          "name": "start",
          "type": "uint256"
        },
        {
          "internalType": "uint256",
          "name": "stop",
          "type": "uint256"
        }
      ],
      "name": "tokensOfOwnerIn",
      "outputs": [
        {
          "internalType": "uint256[]",
          "name": "",
          "type": "uint256[]"
        }
      ],
      "stateMutability": "view",
      "type": "function"
    },
    {
      "inputs": [],
      "name": "totalSupply",
      "outputs": [
        {
          "internalType": "uint256",
          "name": "",
          "type": "uint256"
        }
      ],
      "stateMutability": "view",
      "type": "function"
    },
    {
      "inputs": [
        {
          "internalType": "address",
          "name": "from",
          "type": "address"
        },
        {
          "internalType": "address",
          "name": "to",
          "type": "address"
        },
        {
          "internalType": "uint256",
          "name": "tokenId",
          "type": "uint256"
        }
      ],
      "name": "transferFrom",
      "outputs": [],
      "stateMutability": "nonpayable",
      "type": "function"
    }
  ],
  "bytecode": "0x60c06040523480156200001157600080fd5b5060405162006330380380620063308339818101604052810190620000379190620003cc565b336040518060400160405280601181526020017f50726f64756365722050726f746f636f6c0000000000000000000000000000008152506040518060400160405280600281526020017f505000000000000000000000000000000000000000000000000000000000000081525060008083838160029081620000ba91906200068d565b508060039081620000cc91906200068d565b50620000dd6200019760201b60201c565b6000819055505050620000f6856200019c60201b60201c565b6200011a82826fffffffffffffffffffffffffffffffff166200026260201b60201c565b50505050508173ffffffffffffffffffffffffffffffffffffffff1660808173ffffffffffffffffffffffffffffffffffffffff16815250508073ffffffffffffffffffffffffffffffffffffffff1660a08173ffffffffffffffffffffffffffffffffffffffff16815250506001601081905550505062000812565b600090565b6000600960009054906101000a900473ffffffffffffffffffffffffffffffffffffffff16905081600960006101000a81548173ffffffffffffffffffffffffffffffffffffffff021916908373ffffffffffffffffffffffffffffffffffffffff1602179055508173ffffffffffffffffffffffffffffffffffffffff168173ffffffffffffffffffffffffffffffffffffffff167f8292fce18fa69edf4db7b94ea2e58241df0ae57f97e0a6c9b29067028bf92d7660405160405180910390a35050565b612710811115620002b057612710816040517f52498568000000000000000000000000000000000000000000000000000000008152600401620002a7929190620007c8565b60405180910390fd5b81600a60006101000a81548173ffffffffffffffffffffffffffffffffffffffff021916908373ffffffffffffffffffffffffffffffffffffffff16021790555080600a60146101000a81548161ffff021916908361ffff1602179055508173ffffffffffffffffffffffffffffffffffffffff167f90d7ec04bcb8978719414f82e52e4cb651db41d0e6f8cea6118c2191e6183adb82604051620003569190620007f5565b60405180910390a25050565b600080fd5b600073ffffffffffffffffffffffffffffffffffffffff82169050919050565b6000620003948262000367565b9050919050565b620003a68162000387565b8114620003b257600080fd5b50565b600081519050620003c6816200039b565b92915050565b60008060408385031215620003e657620003e562000362565b5b6000620003f685828601620003b5565b92505060206200040985828601620003b5565b9150509250929050565b600081519050919050565b7f4e487b7100000000000000000000000000000000000000000000000000000000600052604160045260246000fd5b7f4e487b7100000000000000000000000000000000000000000000000000000000600052602260045260246000fd5b600060028204905060018216806200049557607f821691505b602082108103620004ab57620004aa6200044d565b5b50919050565b60008190508160005260206000209050919050565b60006020601f8301049050919050565b600082821b905092915050565b600060088302620005157fffffffffffffffffffffffffffffffffffffffffffffffffffffffffffffffff82620004d6565b620005218683620004d6565b95508019841693508086168417925050509392505050565b6000819050919050565b6000819050919050565b60006200056e62000568620005628462000539565b62000543565b62000539565b9050919050565b6000819050919050565b6200058a836200054d565b620005a2620005998262000575565b848454620004e3565b825550505050565b600090565b620005b9620005aa565b620005c68184846200057f565b505050565b5b81811015620005ee57620005e2600082620005af565b600181019050620005cc565b5050565b601f8211156200063d576200060781620004b1565b6200061284620004c6565b8101602085101562000622578190505b6200063a6200063185620004c6565b830182620005cb565b50505b505050565b600082821c905092915050565b6000620006626000198460080262000642565b1980831691505092915050565b60006200067d83836200064f565b9150826002028217905092915050565b620006988262000413565b67ffffffffffffffff811115620006b457620006b36200041e565b5b620006c082546200047c565b620006cd828285620005f2565b600060209050601f831160018114620007055760008415620006f0578287015190505b620006fc85826200066f565b8655506200076c565b601f1984166200071586620004b1565b60005b828110156200073f5784890151825560018201915060208501945060208101905062000718565b868310156200075f57848901516200075b601f8916826200064f565b8355505b6001600288020188555050505b505050505050565b6000819050919050565b60006200079f62000799620007938462000774565b62000543565b62000539565b9050919050565b620007b1816200077e565b82525050565b620007c28162000539565b82525050565b6000604082019050620007df6000830185620007a6565b620007ee6020830184620007b7565b9392505050565b60006020820190506200080c6000830184620007b7565b92915050565b60805160a051615ad56200085b60003960008181610cf00152818161126f01526113f9015260008181610c6201528181610d27015281816113bd01526123c30152615ad56000f3fe608060405234801561001057600080fd5b50600436106102685760003560e01c80636e71473b116101515780639bcf7a15116100c3578063b9b3f69111610087578063b9b3f69114610792578063c23dc68f146107b0578063c87b56dd146107e0578063e8a3d48514610810578063e985e9c51461082e578063f43b36131461085e57610268565b80639bcf7a15146106ef578063a22cb4651461070b578063ac9650d814610727578063b24f2d3914610757578063b88d4fde1461077657610268565b80638462151c116101155780638462151c1461061b5780638da5cb5b1461064b578063938e3d7b1461066957806395d89b41146106855780639769dc0e146106a357806399a2557a146106bf57610268565b80636e71473b1461056557806370a0823114610581578063754a81d9146105b157806375794a3c146105cd57806383040532146105eb57610268565b80632a55205a116101ea5780634cc157df116101ae5780634cc157df1461047c5780635bbb2177146104ad578063600dd5ea146104dd5780636352211e146104f957806363b45e2d14610529578063663ab59d1461054757610268565b80632a55205a146103c55780633b1475a7146103f657806342842e0e1461041457806342966c6814610430578063430c20811461044c57610268565b806313af40351161023157806313af40351461032357806318160ddd1461033f5780631b8276711461035d57806323b872dd146103795780632419f51b1461039557610268565b806275a3171461026d57806301ffc9a71461028957806306fdde03146102b9578063081812fc146102d7578063095ea7b314610307575b600080fd5b610287600480360381019061028291906141b4565b61087c565b005b6102a3600480360381019061029e9190614268565b6108f3565b6040516102b091906142b0565b60405180910390f35b6102c16109ed565b6040516102ce919061434a565b60405180910390f35b6102f160048036038101906102ec91906143a2565b610a7f565b6040516102fe91906143de565b60405180910390f35b610321600480360381019061031c91906143f9565b610afb565b005b61033d60048036038101906103389190614439565b610bff565b005b610347610c49565b6040516103549190614475565b60405180910390f35b61037760048036038101906103729190614490565b610c60565b005b610393600480360381019061038e91906144d0565b610ea5565b005b6103af60048036038101906103aa91906143a2565b610eb5565b6040516103bc9190614475565b60405180910390f35b6103df60048036038101906103da9190614523565b610f28565b6040516103ed929190614563565b60405180910390f35b6103fe610f66565b60405161040b9190614475565b60405180910390f35b61042e600480360381019061042991906144d0565b610f6f565b005b61044a600480360381019061044591906143a2565b610f8f565b005b610466600480360381019061046191906143f9565b610f9d565b60405161047391906142b0565b60405180910390f35b610496600480360381019061049191906143a2565b611032565b6040516104a49291906145a9565b60405180910390f35b6104c760048036038101906104c2919061469a565b61113d565b6040516104d49190614815565b60405180910390f35b6104f760048036038101906104f291906143f9565b6111fe565b005b610513600480360381019061050e91906143a2565b61124a565b60405161052091906143de565b60405180910390f35b610531611260565b60405161053e9190614475565b60405180910390f35b61054f61126d565b60405161055c91906143de565b60405180910390f35b61057f600480360381019061057a9190614490565b611291565b005b61059b60048036038101906105969190614439565b611472565b6040516105a89190614475565b60405180910390f35b6105cb60048036038101906105c691906148d8565b611541565b005b6105d56115ad565b6040516105e29190614475565b60405180910390f35b610605600480360381019061060091906143a2565b6115b3565b60405161061291906142b0565b60405180910390f35b61063560048036038101906106309190614439565b6115d3565b6040516106429190614a35565b60405180910390f35b6106536117ce565b60405161066091906143de565b60405180910390f35b610683600480360381019061067e9190614a57565b6117f8565b005b61068d611842565b60405161069a919061434a565b60405180910390f35b6106bd60048036038101906106b89190614439565b6118d4565b005b6106d960048036038101906106d49190614aa0565b611982565b6040516106e69190614a35565b60405180910390f35b61070960048036038101906107049190614af3565b611c41565b005b61072560048036038101906107209190614b72565b611c8f565b005b610741600480360381019061073c9190614c0d565b611e06565b60405161074e9190614d71565b60405180910390f35b61075f611fce565b60405161076d9291906145a9565b60405180910390f35b610790600480360381019061078b9190614d93565b61200d565b005b61079a612085565b6040516107a79190614e35565b60405180910390f35b6107ca60048036038101906107c591906143a2565b61208c565b6040516107d79190614e92565b60405180910390f35b6107fa60048036038101906107f591906143a2565b6121a9565b604051610807919061434a565b60405180910390f35b61081861229f565b604051610825919061434a565b60405180910390f35b61084860048036038101906108439190614ead565b61232d565b60405161085591906142b0565b60405180910390f35b6108666123c1565b60405161087391906143de565b60405180910390f35b6108846123e5565b6108c3576040517f08c379a00000000000000000000000000000000000000000000000000000000081526004016108ba90614f39565b60405180910390fd5b6108d46108ce610f66565b82612422565b6108ef826001604051806020016040528060008152506124a9565b5050565b60006301ffc9a760e01b827bffffffffffffffffffffffffffffffffffffffffffffffffffffffff1916148061094e57506380ac58cd60e01b827bffffffffffffffffffffffffffffffffffffffffffffffffffffffff1916145b8061097e5750635b5e139f60e01b827bffffffffffffffffffffffffffffffffffffffffffffffffffffffff1916145b806109e657507f2a55205a000000000000000000000000000000000000000000000000000000007bffffffffffffffffffffffffffffffffffffffffffffffffffffffff1916827bffffffffffffffffffffffffffffffffffffffffffffffffffffffff1916145b9050919050565b6060600280546109fc90614f88565b80601f0160208091040260200160405190810160405280929190818152602001828054610a2890614f88565b8015610a755780601f10610a4a57610100808354040283529160200191610a75565b820191906000526020600020905b815481529060010190602001808311610a5857829003601f168201915b5050505050905090565b6000610a8a82612869565b610ac0576040517fcf4700e400000000000000000000000000000000000000000000000000000000815260040160405180910390fd5b6006600083815260200190815260200160002060009054906101000a900473ffffffffffffffffffffffffffffffffffffffff169050919050565b6000610b068261124a565b90508073ffffffffffffffffffffffffffffffffffffffff168373ffffffffffffffffffffffffffffffffffffffff1603610b6d576040517f943f7b8c00000000000000000000000000000000000000000000000000000000815260040160405180910390fd5b8073ffffffffffffffffffffffffffffffffffffffff16610b8c6128b7565b73ffffffffffffffffffffffffffffffffffffffff1614610bef57610bb881610bb36128b7565b61232d565b610bee576040517fcfb3b94200000000000000000000000000000000000000000000000000000000815260040160405180910390fd5b5b610bfa8383836128bf565b505050565b610c07612971565b610c3d576040517f2d99739600000000000000000000000000000000000000000000000000000000815260040160405180910390fd5b610c46816129ae565b50565b6000610c53612a74565b6001546000540303905090565b7f000000000000000000000000000000000000000000000000000000000000000073ffffffffffffffffffffffffffffffffffffffff163373ffffffffffffffffffffffffffffffffffffffff1614610cee576040517f08c379a0000000000000000000000000000000000000000000000000000000008152600401610ce590615005565b60405180910390fd5b7f000000000000000000000000000000000000000000000000000000000000000073ffffffffffffffffffffffffffffffffffffffff167f000000000000000000000000000000000000000000000000000000000000000073ffffffffffffffffffffffffffffffffffffffff1663674df7126040518163ffffffff1660e01b8152600401602060405180830381865afa158015610d90573d6000803e3d6000fd5b505050506040513d601f19601f82011682018060405250810190610db4919061503a565b73ffffffffffffffffffffffffffffffffffffffff1614610e0a576040517f08c379a0000000000000000000000000000000000000000000000000000000008152600401610e01906150b3565b60405180910390fd5b610e1382612869565b15610e53576040517f08c379a0000000000000000000000000000000000000000000000000000000008152600401610e4a9061511f565b60405180910390fd5b610e5d8183612a79565b8073ffffffffffffffffffffffffffffffffffffffff16827fe7800c6d4262c7daa24e0ef4ec42df968eaeb6cdebd0e70a05ab4852742788d660405160405180910390a35050565b610eb0838383612a97565b505050565b6000610ebf611260565b8210610f0257816040517f0f2624ee000000000000000000000000000000000000000000000000000000008152600401610ef99190614475565b60405180910390fd5b600c8281548110610f1657610f1561513f565b5b90600052602060002001549050919050565b600080600080610f3786611032565b61ffff16915091508193506127108186610f51919061519d565b610f5b919061520e565b925050509250929050565b60008054905090565b610f8a8383836040518060200160405280600081525061200d565b505050565b610f9a816001612f4b565b50565b600080610fa98361124a565b90508073ffffffffffffffffffffffffffffffffffffffff168473ffffffffffffffffffffffffffffffffffffffff161480610feb5750610fea818561232d565b5b8061102957508373ffffffffffffffffffffffffffffffffffffffff1661101184610a7f565b73ffffffffffffffffffffffffffffffffffffffff16145b91505092915050565b6000806000600b60008581526020019081526020016000206040518060400160405290816000820160009054906101000a900473ffffffffffffffffffffffffffffffffffffffff1673ffffffffffffffffffffffffffffffffffffffff1673ffffffffffffffffffffffffffffffffffffffff1681526020016001820154815250509050600073ffffffffffffffffffffffffffffffffffffffff16816000015173ffffffffffffffffffffffffffffffffffffffff16146110fe5780600001518160200151611133565b600a60009054906101000a900473ffffffffffffffffffffffffffffffffffffffff16600a60149054906101000a900461ffff165b9250925050915091565b606060008251905060008167ffffffffffffffff81111561116157611160614089565b5b60405190808252806020026020018201604052801561119a57816020015b611187613fb9565b81526020019060019003908161117f5790505b50905060005b8281146111f3576111ca8582815181106111bd576111bc61513f565b5b602002602001015161208c565b8282815181106111dd576111dc61513f565b5b60200260200101819052508060010190506111a0565b508092505050919050565b61120661333a565b61123c576040517fdf5c6b0200000000000000000000000000000000000000000000000000000000815260040160405180910390fd5b6112468282613377565b5050565b600061125582613472565b600001519050919050565b6000600c80549050905090565b7f000000000000000000000000000000000000000000000000000000000000000081565b61129b3383610f9d565b6112da576040517f08c379a00000000000000000000000000000000000000000000000000000000081526004016112d19061528b565b60405180910390fd5b6112e3826136fd565b8073ffffffffffffffffffffffffffffffffffffffff16827fd5df47bfe7b82577bf15be85e7a913251185a6f2d19b35211f8e2c060c995f0560405160405180910390a36000828260405160240161133c9291906152ab565b6040516020818303038152906040527f086877f2000000000000000000000000000000000000000000000000000000007bffffffffffffffffffffffffffffffffffffffffffffffffffffffff19166020820180517bffffffffffffffffffffffffffffffffffffffffffffffffffffffff838183161783525050505090507f000000000000000000000000000000000000000000000000000000000000000073ffffffffffffffffffffffffffffffffffffffff16633dbb202b7f000000000000000000000000000000000000000000000000000000000000000083620f42406040518463ffffffff1660e01b815260040161143b9392919061531e565b600060405180830381600087803b15801561145557600080fd5b505af1158015611469573d6000803e3d6000fd5b50505050505050565b60008073ffffffffffffffffffffffffffffffffffffffff168273ffffffffffffffffffffffffffffffffffffffff16036114d9576040517f8f4eb60400000000000000000000000000000000000000000000000000000000815260040160405180910390fd5b600560008373ffffffffffffffffffffffffffffffffffffffff1673ffffffffffffffffffffffffffffffffffffffff16815260200190815260200160002060000160009054906101000a900467ffffffffffffffff1667ffffffffffffffff169050919050565b6115496123e5565b611588576040517f08c379a000000000000000000000000000000000000000000000000000000000815260040161157f90614f39565b60405180910390fd5b61159a611593610f66565b848461370b565b50506115a78484836124a9565b50505050565b60105481565b600e6020528060005260406000206000915054906101000a900460ff1681565b606060008060006115e385611472565b905060008167ffffffffffffffff81111561160157611600614089565b5b60405190808252806020026020018201604052801561162f5781602001602082028036833780820191505090505b50905061163a613fb9565b6000611644612a74565b90505b8386146117c057600460008281526020019081526020016000206040518060600160405290816000820160009054906101000a900473ffffffffffffffffffffffffffffffffffffffff1673ffffffffffffffffffffffffffffffffffffffff1673ffffffffffffffffffffffffffffffffffffffff1681526020016000820160149054906101000a900467ffffffffffffffff1667ffffffffffffffff1667ffffffffffffffff16815260200160008201601c9054906101000a900460ff161515151581525050915081604001516117b557600073ffffffffffffffffffffffffffffffffffffffff16826000015173ffffffffffffffffffffffffffffffffffffffff161461175a57816000015194505b8773ffffffffffffffffffffffffffffffffffffffff168573ffffffffffffffffffffffffffffffffffffffff16036117b457808387806001019850815181106117a7576117a661513f565b5b6020026020010181815250505b5b806001019050611647565b508195505050505050919050565b6000600960009054906101000a900473ffffffffffffffffffffffffffffffffffffffff16905090565b611800613771565b611836576040517f9f7f092500000000000000000000000000000000000000000000000000000000815260040160405180910390fd5b61183f816137ae565b50565b60606003805461185190614f88565b80601f016020809104026020016040519081016040528092919081815260200182805461187d90614f88565b80156118ca5780601f1061189f576101008083540402835291602001916118ca565b820191906000526020600020905b8154815290600101906020018083116118ad57829003601f168201915b5050505050905090565b600960009054906101000a900473ffffffffffffffffffffffffffffffffffffffff1673ffffffffffffffffffffffffffffffffffffffff163373ffffffffffffffffffffffffffffffffffffffff161461195b576040517f2d99739600000000000000000000000000000000000000000000000000000000815260040160405180910390fd5b61196781601054612a79565b6010600081548092919061197a9061535c565b919050555050565b60608183106119bd576040517f32c1995a00000000000000000000000000000000000000000000000000000000815260040160405180910390fd5b60008060005490506119cd612a74565b8510156119df576119dc612a74565b94505b808411156119eb578093505b60006119f687611472565b905084861015611a19576000868603905081811015611a13578091505b50611a1e565b600090505b60008167ffffffffffffffff811115611a3a57611a39614089565b5b604051908082528060200260200182016040528015611a685781602001602082028036833780820191505090505b50905060008203611a7f5780945050505050611c3a565b6000611a8a8861208c565b905060008160400151611a9f57816000015190505b60008990505b888114158015611ab55750848714155b15611c2c57600460008281526020019081526020016000206040518060600160405290816000820160009054906101000a900473ffffffffffffffffffffffffffffffffffffffff1673ffffffffffffffffffffffffffffffffffffffff1673ffffffffffffffffffffffffffffffffffffffff1681526020016000820160149054906101000a900467ffffffffffffffff1667ffffffffffffffff1667ffffffffffffffff16815260200160008201601c9054906101000a900460ff16151515158152505092508260400151611c2157600073ffffffffffffffffffffffffffffffffffffffff16836000015173ffffffffffffffffffffffffffffffffffffffff1614611bc657826000015191505b8a73ffffffffffffffffffffffffffffffffffffffff168273ffffffffffffffffffffffffffffffffffffffff1603611c205780848880600101995081518110611c1357611c1261513f565b5b6020026020010181815250505b5b806001019050611aa5565b508583528296505050505050505b9392505050565b611c4961333a565b611c7f576040517fdf5c6b0200000000000000000000000000000000000000000000000000000000815260040160405180910390fd5b611c8a83838361388a565b505050565b611c976128b7565b73ffffffffffffffffffffffffffffffffffffffff168273ffffffffffffffffffffffffffffffffffffffff1603611cfb576040517fb06307db00000000000000000000000000000000000000000000000000000000815260040160405180910390fd5b8060076000611d086128b7565b73ffffffffffffffffffffffffffffffffffffffff1673ffffffffffffffffffffffffffffffffffffffff16815260200190815260200160002060008473ffffffffffffffffffffffffffffffffffffffff1673ffffffffffffffffffffffffffffffffffffffff16815260200190815260200160002060006101000a81548160ff0219169083151502179055508173ffffffffffffffffffffffffffffffffffffffff16611db56128b7565b73ffffffffffffffffffffffffffffffffffffffff167f17307eab39ab6107e8899845ad3d59bd9653f200f220920489ca2b5937696c3183604051611dfa91906142b0565b60405180910390a35050565b60608282905067ffffffffffffffff811115611e2557611e24614089565b5b604051908082528060200260200182016040528015611e5857816020015b6060815260200190600190039081611e435790505b5090506000611e656128b7565b905060008173ffffffffffffffffffffffffffffffffffffffff163373ffffffffffffffffffffffffffffffffffffffff161415905060005b85859050811015611fc5578115611f2257611eff30878784818110611ec657611ec561513f565b5b9050602002810190611ed891906153b3565b86604051602001611eeb9392919061548e565b6040516020818303038152906040526139bb565b848281518110611f1257611f1161513f565b5b6020026020010181905250611fb2565b611f9330878784818110611f3957611f3861513f565b5b9050602002810190611f4b91906153b3565b8080601f016020809104026020016040519081016040528093929190818152602001838380828437600081840152601f19601f820116905080830192505050505050506139bb565b848281518110611fa657611fa561513f565b5b60200260200101819052505b8080611fbd9061535c565b915050611e9e565b50505092915050565b600080600a60009054906101000a900473ffffffffffffffffffffffffffffffffffffffff16600a60149054906101000a900461ffff16915091509091565b612018848484612a97565b6120378373ffffffffffffffffffffffffffffffffffffffff166139e8565b1561207f5761204884848484613a0b565b61207e576040517fd1a57ed600000000000000000000000000000000000000000000000000000000815260040160405180910390fd5b5b50505050565b620f424081565b612094613fb9565b61209c613fb9565b6120a4612a74565b8310806120b357506000548310155b156120c157809150506121a4565b600460008481526020019081526020016000206040518060600160405290816000820160009054906101000a900473ffffffffffffffffffffffffffffffffffffffff1673ffffffffffffffffffffffffffffffffffffffff1673ffffffffffffffffffffffffffffffffffffffff1681526020016000820160149054906101000a900467ffffffffffffffff1667ffffffffffffffff1667ffffffffffffffff16815260200160008201601c9054906101000a900460ff161515151581525050905080604001511561219757809150506121a4565b6121a083613472565b9150505b919050565b60606000600f600084815260200190815260200160002080546121cb90614f88565b80601f01602080910402602001604051908101604052809291908181526020018280546121f790614f88565b80156122445780601f1061221957610100808354040283529160200191612244565b820191906000526020600020905b81548152906001019060200180831161222757829003601f168201915b5050505050905060008151111561225e578091505061229a565b600061226984613b5b565b90508061227585613d02565b6040516020016122869291906154f4565b604051602081830303815290604052925050505b919050565b600880546122ac90614f88565b80601f01602080910402602001604051908101604052809291908181526020018280546122d890614f88565b80156123255780601f106122fa57610100808354040283529160200191612325565b820191906000526020600020905b81548152906001019060200180831161230857829003601f168201915b505050505081565b6000600760008473ffffffffffffffffffffffffffffffffffffffff1673ffffffffffffffffffffffffffffffffffffffff16815260200190815260200160002060008373ffffffffffffffffffffffffffffffffffffffff1673ffffffffffffffffffffffffffffffffffffffff16815260200190815260200160002060009054906101000a900460ff16905092915050565b7f000000000000000000000000000000000000000000000000000000000000000081565b60006123ef6117ce565b73ffffffffffffffffffffffffffffffffffffffff163373ffffffffffffffffffffffffffffffffffffffff1614905090565b6000600f6000848152602001908152602001600020805461244290614f88565b905014612484576040517f08c379a000000000000000000000000000000000000000000000000000000000815260040161247b90615564565b60405180910390fd5b80600f600084815260200190815260200160002090816124a49190615730565b505050565b600080549050600073ffffffffffffffffffffffffffffffffffffffff168473ffffffffffffffffffffffffffffffffffffffff1603612515576040517f2e07630000000000000000000000000000000000000000000000000000000000815260040160405180910390fd5b6000830361254f576040517fb562e8dd00000000000000000000000000000000000000000000000000000000815260040160405180910390fd5b61255c6000858386613e62565b82600560008673ffffffffffffffffffffffffffffffffffffffff1673ffffffffffffffffffffffffffffffffffffffff16815260200190815260200160002060000160008282829054906101000a900467ffffffffffffffff160192506101000a81548167ffffffffffffffff021916908367ffffffffffffffff16021790555082600560008673ffffffffffffffffffffffffffffffffffffffff1673ffffffffffffffffffffffffffffffffffffffff16815260200190815260200160002060000160088282829054906101000a900467ffffffffffffffff160192506101000a81548167ffffffffffffffff021916908367ffffffffffffffff160217905550836004600083815260200190815260200160002060000160006101000a81548173ffffffffffffffffffffffffffffffffffffffff021916908373ffffffffffffffffffffffffffffffffffffffff160217905550426004600083815260200190815260200160002060000160146101000a81548167ffffffffffffffff021916908367ffffffffffffffff16021790555060008190506000848201905061271d8673ffffffffffffffffffffffffffffffffffffffff166139e8565b156127e2575b818673ffffffffffffffffffffffffffffffffffffffff16600073ffffffffffffffffffffffffffffffffffffffff167fddf252ad1be2c89b69c2b068fc378daa952ba7f163c4a11628f55a4df523b3ef60405160405180910390a46127926000878480600101955087613a0b565b6127c8576040517fd1a57ed600000000000000000000000000000000000000000000000000000000815260040160405180910390fd5b8082106127235782600054146127dd57600080fd5b61284d565b5b818060010192508673ffffffffffffffffffffffffffffffffffffffff16600073ffffffffffffffffffffffffffffffffffffffff167fddf252ad1be2c89b69c2b068fc378daa952ba7f163c4a11628f55a4df523b3ef60405160405180910390a48082106127e3575b8160008190555050506128636000858386613e68565b50505050565b600081612874612a74565b11158015612883575060005482105b80156128b0575060046000838152602001908152602001600020600001601c9054906101000a900460ff16155b9050919050565b600033905090565b826006600084815260200190815260200160002060006101000a81548173ffffffffffffffffffffffffffffffffffffffff021916908373ffffffffffffffffffffffffffffffffffffffff160217905550818373ffffffffffffffffffffffffffffffffffffffff168273ffffffffffffffffffffffffffffffffffffffff167f8c5be1e5ebec7d5bd14f71427d1e84f3dd0314c0f7b2291e5b200ac8c7c3b92560405160405180910390a4505050565b600061297b6117ce565b73ffffffffffffffffffffffffffffffffffffffff163373ffffffffffffffffffffffffffffffffffffffff1614905090565b6000600960009054906101000a900473ffffffffffffffffffffffffffffffffffffffff16905081600960006101000a81548173ffffffffffffffffffffffffffffffffffffffff021916908373ffffffffffffffffffffffffffffffffffffffff1602179055508173ffffffffffffffffffffffffffffffffffffffff168173ffffffffffffffffffffffffffffffffffffffff167f8292fce18fa69edf4db7b94ea2e58241df0ae57f97e0a6c9b29067028bf92d7660405160405180910390a35050565b600090565b612a938282604051806020016040528060008152506124a9565b5050565b6000612aa282613472565b90508373ffffffffffffffffffffffffffffffffffffffff16816000015173ffffffffffffffffffffffffffffffffffffffff1614612b0d576040517fa114810000000000000000000000000000000000000000000000000000000000815260040160405180910390fd5b60008473ffffffffffffffffffffffffffffffffffffffff16612b2e6128b7565b73ffffffffffffffffffffffffffffffffffffffff161480612b5d5750612b5c85612b576128b7565b61232d565b5b80612ba25750612b6b6128b7565b73ffffffffffffffffffffffffffffffffffffffff16612b8a84610a7f565b73ffffffffffffffffffffffffffffffffffffffff16145b905080612bdb576040517f59c896be00000000000000000000000000000000000000000000000000000000815260040160405180910390fd5b600073ffffffffffffffffffffffffffffffffffffffff168473ffffffffffffffffffffffffffffffffffffffff1603612c41576040517fea553b3400000000000000000000000000000000000000000000000000000000815260040160405180910390fd5b612c4e8585856001613e62565b612c5a600084876128bf565b6001600560008773ffffffffffffffffffffffffffffffffffffffff1673ffffffffffffffffffffffffffffffffffffffff16815260200190815260200160002060000160008282829054906101000a900467ffffffffffffffff160392506101000a81548167ffffffffffffffff021916908367ffffffffffffffff1602179055506001600560008673ffffffffffffffffffffffffffffffffffffffff1673ffffffffffffffffffffffffffffffffffffffff16815260200190815260200160002060000160008282829054906101000a900467ffffffffffffffff160192506101000a81548167ffffffffffffffff021916908367ffffffffffffffff1602179055506000600460008581526020019081526020016000209050848160000160006101000a81548173ffffffffffffffffffffffffffffffffffffffff021916908373ffffffffffffffffffffffffffffffffffffffff160217905550428160000160146101000a81548167ffffffffffffffff021916908367ffffffffffffffff16021790555060006001850190506000600460008381526020019081526020016000209050600073ffffffffffffffffffffffffffffffffffffffff168160000160009054906101000a900473ffffffffffffffffffffffffffffffffffffffff1673ffffffffffffffffffffffffffffffffffffffff1603612ed9576000548214612ed857878160000160006101000a81548173ffffffffffffffffffffffffffffffffffffffff021916908373ffffffffffffffffffffffffffffffffffffffff16021790555084602001518160000160146101000a81548167ffffffffffffffff021916908367ffffffffffffffff1602179055505b5b505050828473ffffffffffffffffffffffffffffffffffffffff168673ffffffffffffffffffffffffffffffffffffffff167fddf252ad1be2c89b69c2b068fc378daa952ba7f163c4a11628f55a4df523b3ef60405160405180910390a4612f448585856001613e68565b5050505050565b6000612f5683613472565b905060008160000151905082156130375760008173ffffffffffffffffffffffffffffffffffffffff16612f886128b7565b73ffffffffffffffffffffffffffffffffffffffff161480612fb75750612fb682612fb16128b7565b61232d565b5b80612ffc5750612fc56128b7565b73ffffffffffffffffffffffffffffffffffffffff16612fe486610a7f565b73ffffffffffffffffffffffffffffffffffffffff16145b905080613035576040517f59c896be00000000000000000000000000000000000000000000000000000000815260040160405180910390fd5b505b613045816000866001613e62565b613051600085836128bf565b6000600560008373ffffffffffffffffffffffffffffffffffffffff1673ffffffffffffffffffffffffffffffffffffffff168152602001908152602001600020905060018160000160008282829054906101000a900467ffffffffffffffff160392506101000a81548167ffffffffffffffff021916908367ffffffffffffffff16021790555060018160000160108282829054906101000a900467ffffffffffffffff160192506101000a81548167ffffffffffffffff021916908367ffffffffffffffff1602179055506000600460008781526020019081526020016000209050828160000160006101000a81548173ffffffffffffffffffffffffffffffffffffffff021916908373ffffffffffffffffffffffffffffffffffffffff160217905550428160000160146101000a81548167ffffffffffffffff021916908367ffffffffffffffff160217905550600181600001601c6101000a81548160ff02191690831515021790555060006001870190506000600460008381526020019081526020016000209050600073ffffffffffffffffffffffffffffffffffffffff168160000160009054906101000a900473ffffffffffffffffffffffffffffffffffffffff1673ffffffffffffffffffffffffffffffffffffffff16036132b45760005482146132b357848160000160006101000a81548173ffffffffffffffffffffffffffffffffffffffff021916908373ffffffffffffffffffffffffffffffffffffffff16021790555085602001518160000160146101000a81548167ffffffffffffffff021916908367ffffffffffffffff1602179055505b5b5050505083600073ffffffffffffffffffffffffffffffffffffffff168273ffffffffffffffffffffffffffffffffffffffff167fddf252ad1be2c89b69c2b068fc378daa952ba7f163c4a11628f55a4df523b3ef60405160405180910390a4613322816000866001613e68565b60016000815480929190600101919050555050505050565b60006133446117ce565b73ffffffffffffffffffffffffffffffffffffffff163373ffffffffffffffffffffffffffffffffffffffff1614905090565b6127108111156133c257612710816040517f524985680000000000000000000000000000000000000000000000000000000081526004016133b992919061583d565b60405180910390fd5b81600a60006101000a81548173ffffffffffffffffffffffffffffffffffffffff021916908373ffffffffffffffffffffffffffffffffffffffff16021790555080600a60146101000a81548161ffff021916908361ffff1602179055508173ffffffffffffffffffffffffffffffffffffffff167f90d7ec04bcb8978719414f82e52e4cb651db41d0e6f8cea6118c2191e6183adb826040516134669190614475565b60405180910390a25050565b61347a613fb9565b600082905080613488612a74565b116136c6576000548110156136c5576000600460008381526020019081526020016000206040518060600160405290816000820160009054906101000a900473ffffffffffffffffffffffffffffffffffffffff1673ffffffffffffffffffffffffffffffffffffffff1673ffffffffffffffffffffffffffffffffffffffff1681526020016000820160149054906101000a900467ffffffffffffffff1667ffffffffffffffff1667ffffffffffffffff16815260200160008201601c9054906101000a900460ff161515151581525050905080604001516136c357600073ffffffffffffffffffffffffffffffffffffffff16816000015173ffffffffffffffffffffffffffffffffffffffff16146135a75780925050506136f8565b5b6001156136c257818060019003925050600460008381526020019081526020016000206040518060600160405290816000820160009054906101000a900473ffffffffffffffffffffffffffffffffffffffff1673ffffffffffffffffffffffffffffffffffffffff1673ffffffffffffffffffffffffffffffffffffffff1681526020016000820160149054906101000a900467ffffffffffffffff1667ffffffffffffffff1667ffffffffffffffff16815260200160008201601c9054906101000a900460ff1615151515815250509050600073ffffffffffffffffffffffffffffffffffffffff16816000015173ffffffffffffffffffffffffffffffffffffffff16146136bd5780925050506136f8565b6135a8565b5b505b5b6040517fdf2d9b4200000000000000000000000000000000000000000000000000000000815260040160405180910390fd5b919050565b613708816000612f4b565b50565b600080838561371a9190615866565b9050809150600c81908060018154018082558091505060019003906000526020600020016000909190919091505582600d600083815260200190815260200160002090816137689190615730565b50935093915050565b600061377b6117ce565b73ffffffffffffffffffffffffffffffffffffffff163373ffffffffffffffffffffffffffffffffffffffff1614905090565b6000600880546137bd90614f88565b80601f01602080910402602001604051908101604052809291908181526020018280546137e990614f88565b80156138365780601f1061380b57610100808354040283529160200191613836565b820191906000526020600020905b81548152906001019060200180831161381957829003601f168201915b50505050509050816008908161384c9190615730565b507fc9c7c3fe08b88b4df9d4d47ef47d2c43d55c025a0ba88ca442580ed9e7348a16818360405161387e92919061589a565b60405180910390a15050565b6127108111156138d557612710816040517f524985680000000000000000000000000000000000000000000000000000000081526004016138cc92919061583d565b60405180910390fd5b60405180604001604052808373ffffffffffffffffffffffffffffffffffffffff16815260200182815250600b600085815260200190815260200160002060008201518160000160006101000a81548173ffffffffffffffffffffffffffffffffffffffff021916908373ffffffffffffffffffffffffffffffffffffffff160217905550602082015181600101559050508173ffffffffffffffffffffffffffffffffffffffff16837f7365cf4122f072a3365c20d54eff9b38d73c096c28e1892ec8f5b0e403a0f12d836040516139ae9190614475565b60405180910390a3505050565b60606139e08383604051806060016040528060278152602001615a7960279139613e6e565b905092915050565b6000808273ffffffffffffffffffffffffffffffffffffffff163b119050919050565b60008373ffffffffffffffffffffffffffffffffffffffff1663150b7a02613a316128b7565b8786866040518563ffffffff1660e01b8152600401613a5394939291906158d1565b6020604051808303816000875af1925050508015613a8f57506040513d601f19601f82011682018060405250810190613a8c9190615932565b60015b613b08573d8060008114613abf576040519150601f19603f3d011682016040523d82523d6000602084013e613ac4565b606091505b506000815103613b00576040517fd1a57ed600000000000000000000000000000000000000000000000000000000815260040160405180910390fd5b805181602001fd5b63150b7a0260e01b7bffffffffffffffffffffffffffffffffffffffffffffffffffffffff1916817bffffffffffffffffffffffffffffffffffffffffffffffffffffffff191614915050949350505050565b60606000613b67611260565b90506000600c805480602002602001604051908101604052809291908181526020018280548015613bb757602002820191906000526020600020905b815481526020019060010190808311613ba3575b5050505050905060005b82811015613cbf57818181518110613bdc57613bdb61513f565b5b6020026020010151851015613cab57600d6000838381518110613c0257613c0161513f565b5b602002602001015181526020019081526020016000208054613c2390614f88565b80601f0160208091040260200160405190810160405280929190818152602001828054613c4f90614f88565b8015613c9c5780601f10613c7157610100808354040283529160200191613c9c565b820191906000526020600020905b815481529060010190602001808311613c7f57829003601f168201915b50505050509350505050613cfd565b600181613cb89190615866565b9050613bc1565b50836040517f25e5fda4000000000000000000000000000000000000000000000000000000008152600401613cf49190614475565b60405180910390fd5b919050565b606060008203613d49576040518060400160405280600181526020017f30000000000000000000000000000000000000000000000000000000000000008152509050613e5d565b600082905060005b60008214613d7b578080613d649061535c565b915050600a82613d74919061520e565b9150613d51565b60008167ffffffffffffffff811115613d9757613d96614089565b5b6040519080825280601f01601f191660200182016040528015613dc95781602001600182028036833780820191505090505b5090505b60008514613e5657600182613de2919061595f565b9150600a85613df19190615993565b6030613dfd9190615866565b60f81b818381518110613e1357613e1261513f565b5b60200101907effffffffffffffffffffffffffffffffffffffffffffffffffffffffffffff1916908160001a905350600a85613e4f919061520e565b9450613dcd565b8093505050505b919050565b50505050565b50505050565b60606000808573ffffffffffffffffffffffffffffffffffffffff1685604051613e9891906159f5565b600060405180830381855af49150503d8060008114613ed3576040519150601f19603f3d011682016040523d82523d6000602084013e613ed8565b606091505b5091509150613ee986838387613ef4565b925050509392505050565b60608315613f56576000835103613f4e57613f0e856139e8565b613f4d576040517f08c379a0000000000000000000000000000000000000000000000000000000008152600401613f4490615a58565b60405180910390fd5b5b829050613f61565b613f608383613f69565b5b949350505050565b600082511115613f7c5781518083602001fd5b806040517f08c379a0000000000000000000000000000000000000000000000000000000008152600401613fb0919061434a565b60405180910390fd5b6040518060600160405280600073ffffffffffffffffffffffffffffffffffffffff168152602001600067ffffffffffffffff1681526020016000151581525090565b6000604051905090565b600080fd5b600080fd5b600073ffffffffffffffffffffffffffffffffffffffff82169050919050565b600061403b82614010565b9050919050565b61404b81614030565b811461405657600080fd5b50565b60008135905061406881614042565b92915050565b600080fd5b600080fd5b6000601f19601f8301169050919050565b7f4e487b7100000000000000000000000000000000000000000000000000000000600052604160045260246000fd5b6140c182614078565b810181811067ffffffffffffffff821117156140e0576140df614089565b5b80604052505050565b60006140f3613ffc565b90506140ff82826140b8565b919050565b600067ffffffffffffffff82111561411f5761411e614089565b5b61412882614078565b9050602081019050919050565b82818337600083830152505050565b600061415761415284614104565b6140e9565b90508281526020810184848401111561417357614172614073565b5b61417e848285614135565b509392505050565b600082601f83011261419b5761419a61406e565b5b81356141ab848260208601614144565b91505092915050565b600080604083850312156141cb576141ca614006565b5b60006141d985828601614059565b925050602083013567ffffffffffffffff8111156141fa576141f961400b565b5b61420685828601614186565b9150509250929050565b60007fffffffff0000000000000000000000000000000000000000000000000000000082169050919050565b61424581614210565b811461425057600080fd5b50565b6000813590506142628161423c565b92915050565b60006020828403121561427e5761427d614006565b5b600061428c84828501614253565b91505092915050565b60008115159050919050565b6142aa81614295565b82525050565b60006020820190506142c560008301846142a1565b92915050565b600081519050919050565b600082825260208201905092915050565b60005b838110156143055780820151818401526020810190506142ea565b60008484015250505050565b600061431c826142cb565b61432681856142d6565b93506143368185602086016142e7565b61433f81614078565b840191505092915050565b600060208201905081810360008301526143648184614311565b905092915050565b6000819050919050565b61437f8161436c565b811461438a57600080fd5b50565b60008135905061439c81614376565b92915050565b6000602082840312156143b8576143b7614006565b5b60006143c68482850161438d565b91505092915050565b6143d881614030565b82525050565b60006020820190506143f360008301846143cf565b92915050565b600080604083850312156144105761440f614006565b5b600061441e85828601614059565b925050602061442f8582860161438d565b9150509250929050565b60006020828403121561444f5761444e614006565b5b600061445d84828501614059565b91505092915050565b61446f8161436c565b82525050565b600060208201905061448a6000830184614466565b92915050565b600080604083850312156144a7576144a6614006565b5b60006144b58582860161438d565b92505060206144c685828601614059565b9150509250929050565b6000806000606084860312156144e9576144e8614006565b5b60006144f786828701614059565b935050602061450886828701614059565b92505060406145198682870161438d565b9150509250925092565b6000806040838503121561453a57614539614006565b5b60006145488582860161438d565b92505060206145598582860161438d565b9150509250929050565b600060408201905061457860008301856143cf565b6145856020830184614466565b9392505050565b600061ffff82169050919050565b6145a38161458c565b82525050565b60006040820190506145be60008301856143cf565b6145cb602083018461459a565b9392505050565b600067ffffffffffffffff8211156145ed576145ec614089565b5b602082029050602081019050919050565b600080fd5b6000614616614611846145d2565b6140e9565b90508083825260208201905060208402830185811115614639576146386145fe565b5b835b81811015614662578061464e888261438d565b84526020840193505060208101905061463b565b5050509392505050565b600082601f8301126146815761468061406e565b5b8135614691848260208601614603565b91505092915050565b6000602082840312156146b0576146af614006565b5b600082013567ffffffffffffffff8111156146ce576146cd61400b565b5b6146da8482850161466c565b91505092915050565b600081519050919050565b600082825260208201905092915050565b6000819050602082019050919050565b61471881614030565b82525050565b600067ffffffffffffffff82169050919050565b61473b8161471e565b82525050565b61474a81614295565b82525050565b606082016000820151614766600085018261470f565b5060208201516147796020850182614732565b50604082015161478c6040850182614741565b50505050565b600061479e8383614750565b60608301905092915050565b6000602082019050919050565b60006147c2826146e3565b6147cc81856146ee565b93506147d7836146ff565b8060005b838110156148085781516147ef8882614792565b97506147fa836147aa565b9250506001810190506147db565b5085935050505092915050565b6000602082019050818103600083015261482f81846147b7565b905092915050565b600067ffffffffffffffff82111561485257614851614089565b5b61485b82614078565b9050602081019050919050565b600061487b61487684614837565b6140e9565b90508281526020810184848401111561489757614896614073565b5b6148a2848285614135565b509392505050565b600082601f8301126148bf576148be61406e565b5b81356148cf848260208601614868565b91505092915050565b600080600080608085870312156148f2576148f1614006565b5b600061490087828801614059565b94505060206149118782880161438d565b935050604085013567ffffffffffffffff8111156149325761493161400b565b5b61493e87828801614186565b925050606085013567ffffffffffffffff81111561495f5761495e61400b565b5b61496b878288016148aa565b91505092959194509250565b600081519050919050565b600082825260208201905092915050565b6000819050602082019050919050565b6149ac8161436c565b82525050565b60006149be83836149a3565b60208301905092915050565b6000602082019050919050565b60006149e282614977565b6149ec8185614982565b93506149f783614993565b8060005b83811015614a28578151614a0f88826149b2565b9750614a1a836149ca565b9250506001810190506149fb565b5085935050505092915050565b60006020820190508181036000830152614a4f81846149d7565b905092915050565b600060208284031215614a6d57614a6c614006565b5b600082013567ffffffffffffffff811115614a8b57614a8a61400b565b5b614a9784828501614186565b91505092915050565b600080600060608486031215614ab957614ab8614006565b5b6000614ac786828701614059565b9350506020614ad88682870161438d565b9250506040614ae98682870161438d565b9150509250925092565b600080600060608486031215614b0c57614b0b614006565b5b6000614b1a8682870161438d565b9350506020614b2b86828701614059565b9250506040614b3c8682870161438d565b9150509250925092565b614b4f81614295565b8114614b5a57600080fd5b50565b600081359050614b6c81614b46565b92915050565b60008060408385031215614b8957614b88614006565b5b6000614b9785828601614059565b9250506020614ba885828601614b5d565b9150509250929050565b600080fd5b60008083601f840112614bcd57614bcc61406e565b5b8235905067ffffffffffffffff811115614bea57614be9614bb2565b5b602083019150836020820283011115614c0657614c056145fe565b5b9250929050565b60008060208385031215614c2457614c23614006565b5b600083013567ffffffffffffffff811115614c4257614c4161400b565b5b614c4e85828601614bb7565b92509250509250929050565b600081519050919050565b600082825260208201905092915050565b6000819050602082019050919050565b600081519050919050565b600082825260208201905092915050565b6000614cad82614c86565b614cb78185614c91565b9350614cc78185602086016142e7565b614cd081614078565b840191505092915050565b6000614ce78383614ca2565b905092915050565b6000602082019050919050565b6000614d0782614c5a565b614d118185614c65565b935083602082028501614d2385614c76565b8060005b85811015614d5f5784840389528151614d408582614cdb565b9450614d4b83614cef565b925060208a01995050600181019050614d27565b50829750879550505050505092915050565b60006020820190508181036000830152614d8b8184614cfc565b905092915050565b60008060008060808587031215614dad57614dac614006565b5b6000614dbb87828801614059565b9450506020614dcc87828801614059565b9350506040614ddd8782880161438d565b925050606085013567ffffffffffffffff811115614dfe57614dfd61400b565b5b614e0a878288016148aa565b91505092959194509250565b600063ffffffff82169050919050565b614e2f81614e16565b82525050565b6000602082019050614e4a6000830184614e26565b92915050565b606082016000820151614e66600085018261470f565b506020820151614e796020850182614732565b506040820151614e8c6040850182614741565b50505050565b6000606082019050614ea76000830184614e50565b92915050565b60008060408385031215614ec457614ec3614006565b5b6000614ed285828601614059565b9250506020614ee385828601614059565b9150509250929050565b7f4e6f7420617574686f72697a656420746f206d696e742e000000000000000000600082015250565b6000614f236017836142d6565b9150614f2e82614eed565b602082019050919050565b60006020820190508181036000830152614f5281614f16565b9050919050565b7f4e487b7100000000000000000000000000000000000000000000000000000000600052602260045260246000fd5b60006002820490506001821680614fa057607f821691505b602082108103614fb357614fb2614f59565b5b50919050565b7f556e617574686f72697a6564206d657373656e67657200000000000000000000600082015250565b6000614fef6016836142d6565b9150614ffa82614fb9565b602082019050919050565b6000602082019050818103600083015261501e81614fe2565b9050919050565b60008151905061503481614042565b92915050565b6000602082840312156150505761504f614006565b5b600061505e84828501615025565b91505092915050565b7f496e76616c6964204c312073656e646572000000000000000000000000000000600082015250565b600061509d6011836142d6565b91506150a882615067565b602082019050919050565b600060208201905081810360008301526150cc81615090565b9050919050565b7f546f6b656e20616c726561647920657869737473000000000000000000000000600082015250565b60006151096014836142d6565b9150615114826150d3565b602082019050919050565b60006020820190508181036000830152615138816150fc565b9050919050565b7f4e487b7100000000000000000000000000000000000000000000000000000000600052603260045260246000fd5b7f4e487b7100000000000000000000000000000000000000000000000000000000600052601160045260246000fd5b60006151a88261436c565b91506151b38361436c565b92508282026151c18161436c565b915082820484148315176151d8576151d761516e565b5b5092915050565b7f4e487b7100000000000000000000000000000000000000000000000000000000600052601260045260246000fd5b60006152198261436c565b91506152248361436c565b925082615234576152336151df565b5b828204905092915050565b7f4e6f74206f776e6572206f7220617070726f7665640000000000000000000000600082015250565b60006152756015836142d6565b91506152808261523f565b602082019050919050565b600060208201905081810360008301526152a481615268565b9050919050565b60006040820190506152c06000830185614466565b6152cd60208301846143cf565b9392505050565b600082825260208201905092915050565b60006152f082614c86565b6152fa81856152d4565b935061530a8185602086016142e7565b61531381614078565b840191505092915050565b600060608201905061533360008301866143cf565b818103602083015261534581856152e5565b90506153546040830184614e26565b949350505050565b60006153678261436c565b91507fffffffffffffffffffffffffffffffffffffffffffffffffffffffffffffffff82036153995761539861516e565b5b600182019050919050565b600080fd5b600080fd5b600080fd5b600080833560016020038436030381126153d0576153cf6153a4565b5b80840192508235915067ffffffffffffffff8211156153f2576153f16153a9565b5b60208301925060018202360383131561540e5761540d6153ae565b5b509250929050565b600081905092915050565b600061542d8385615416565b935061543a838584614135565b82840190509392505050565b60008160601b9050919050565b600061545e82615446565b9050919050565b600061547082615453565b9050919050565b61548861548382614030565b615465565b82525050565b600061549b828587615421565b91506154a78284615477565b601482019150819050949350505050565b600081905092915050565b60006154ce826142cb565b6154d881856154b8565b93506154e88185602086016142e7565b80840191505092915050565b600061550082856154c3565b915061550c82846154c3565b91508190509392505050565b7f55524920616c7265616479207365740000000000000000000000000000000000600082015250565b600061554e600f836142d6565b915061555982615518565b602082019050919050565b6000602082019050818103600083015261557d81615541565b9050919050565b60008190508160005260206000209050919050565b60006020601f8301049050919050565b600082821b905092915050565b6000600883026155e67fffffffffffffffffffffffffffffffffffffffffffffffffffffffffffffffff826155a9565b6155f086836155a9565b95508019841693508086168417925050509392505050565b6000819050919050565b600061562d6156286156238461436c565b615608565b61436c565b9050919050565b6000819050919050565b61564783615612565b61565b61565382615634565b8484546155b6565b825550505050565b600090565b615670615663565b61567b81848461563e565b505050565b5b8181101561569f57615694600082615668565b600181019050615681565b5050565b601f8211156156e4576156b581615584565b6156be84615599565b810160208510156156cd578190505b6156e16156d985615599565b830182615680565b50505b505050565b600082821c905092915050565b6000615707600019846008026156e9565b1980831691505092915050565b600061572083836156f6565b9150826002028217905092915050565b615739826142cb565b67ffffffffffffffff81111561575257615751614089565b5b61575c8254614f88565b6157678282856156a3565b600060209050601f83116001811461579a5760008415615788578287015190505b6157928582615714565b8655506157fa565b601f1984166157a886615584565b60005b828110156157d0578489015182556001820191506020850194506020810190506157ab565b868310156157ed57848901516157e9601f8916826156f6565b8355505b6001600288020188555050505b505050505050565b6000819050919050565b600061582761582261581d84615802565b615608565b61436c565b9050919050565b6158378161580c565b82525050565b6000604082019050615852600083018561582e565b61585f6020830184614466565b9392505050565b60006158718261436c565b915061587c8361436c565b92508282019050808211156158945761589361516e565b5b92915050565b600060408201905081810360008301526158b48185614311565b905081810360208301526158c88184614311565b90509392505050565b60006080820190506158e660008301876143cf565b6158f360208301866143cf565b6159006040830185614466565b818103606083015261591281846152e5565b905095945050505050565b60008151905061592c8161423c565b92915050565b60006020828403121561594857615947614006565b5b60006159568482850161591d565b91505092915050565b600061596a8261436c565b91506159758361436c565b925082820390508181111561598d5761598c61516e565b5b92915050565b600061599e8261436c565b91506159a98361436c565b9250826159b9576159b86151df565b5b828206905092915050565b60006159cf82614c86565b6159d98185615416565b93506159e98185602086016142e7565b80840191505092915050565b6000615a0182846159c4565b915081905092915050565b7f416464726573733a2063616c6c20746f206e6f6e2d636f6e7472616374000000600082015250565b6000615a42601d836142d6565b9150615a4d82615a0c565b602082019050919050565b60006020820190508181036000830152615a7181615a35565b905091905056fe416464726573733a206c6f772d6c6576656c2064656c65676174652063616c6c206661696c6564a26469706673582212207eb3348edff2fd8945535be99b9bfc3c004e6019ca3dfa8b10aa7d3796a5c5f064736f6c63430008110033",
  "linkReferences": {},
  "deployedLinkReferences": {}
}