{
  "_format": "hh-sol-artifact-1",
  "contractName": "Multicall",
  "sourceName": "@thirdweb-dev/contracts/extension/Multicall.sol",
  "abi": [
    {
      "inputs": [
        {
          "internalType": "bytes[]",
          "name": "data",
          "type": "bytes[]"
        }
      ],
      "name": "multicall",
      "outputs": [
        {
          "internalType": "bytes[]",
          "name": "results",
          "type": "bytes[]"
        }
      ],
      "stateMutability": "nonpayable",
      "type": "function"
    }
  ],
  "bytecode": "0x608060405234801561001057600080fd5b50610568806100206000396000f3fe608060405234801561001057600080fd5b506004361061002b5760003560e01c8063ac9650d814610030575b600080fd5b61004361003e366004610313565b610059565b60405161005091906103d8565b60405180910390f35b60608167ffffffffffffffff8111156100745761007461043c565b6040519080825280602002602001820160405280156100a757816020015b60608152602001906001900390816100925790505b509050336000805b848110156101b657811561012e5761010c308787848181106100d3576100d3610452565b90506020028101906100e59190610468565b866040516020016100f8939291906104b6565b6040516020818303038152906040526101bf565b84828151811061011e5761011e610452565b60200260200101819052506101ae565b6101903087878481811061014457610144610452565b90506020028101906101569190610468565b8080601f0160208091040260200160405190810160405280939291908181526020018383808284376000920191909152506101bf92505050565b8482815181106101a2576101a2610452565b60200260200101819052505b6001016100af565b50505092915050565b60606101e4838360405180606001604052806027815260200161050c602791396101eb565b9392505050565b6060600080856001600160a01b03168560405161020891906104dc565b600060405180830381855af49150503d8060008114610243576040519150601f19603f3d011682016040523d82523d6000602084013e610248565b606091505b509150915061025986838387610263565b9695505050505050565b606083156102d75782516000036102d0576001600160a01b0385163b6102d05760405162461bcd60e51b815260206004820152601d60248201527f416464726573733a2063616c6c20746f206e6f6e2d636f6e747261637400000060448201526064015b60405180910390fd5b50816102e1565b6102e183836102e9565b949350505050565b8151156102f95781518083602001fd5b8060405162461bcd60e51b81526004016102c791906104f8565b6000806020838503121561032657600080fd5b823567ffffffffffffffff8082111561033e57600080fd5b818501915085601f83011261035257600080fd5b81358181111561036157600080fd5b8660208260051b850101111561037657600080fd5b60209290920196919550909350505050565b60005b838110156103a357818101518382015260200161038b565b50506000910152565b600081518084526103c4816020860160208601610388565b601f01601f19169290920160200192915050565b600060208083016020845280855180835260408601915060408160051b87010192506020870160005b8281101561042f57603f1988860301845261041d8583516103ac565b94509285019290850190600101610401565b5092979650505050505050565b634e487b7160e01b600052604160045260246000fd5b634e487b7160e01b600052603260045260246000fd5b6000808335601e1984360301811261047f57600080fd5b83018035915067ffffffffffffffff82111561049a57600080fd5b6020019150368190038213156104af57600080fd5b9250929050565b8284823760609190911b6bffffffffffffffffffffffff19169101908152601401919050565b600082516104ee818460208701610388565b9190910192915050565b6020815260006101e460208301846103ac56fe416464726573733a206c6f772d6c6576656c2064656c65676174652063616c6c206661696c6564a2646970667358221220ead2aece1e3ce0cc21cb75fd9ef7cf8e2b24c4f66436f2a1c3767ab64ad6cf4764736f6c63430008170033",
  "linkReferences": {},
  "deployedLinkReferences": {}
}