{
  "abi": [
    {
      "inputs": [
        {
          "internalType": "address",
          "name": "_initialOwner",
          "type": "address"
        }
      ],
      "stateMutability": "nonpayable",
      "type": "constructor"
    },
    {
      "inputs": [],
      "name": "ContractMetadataUnauthorized",
      "type": "error"
    },
    {
      "inputs": [],
      "name": "OwnableUnauthorized",
      "type": "error"
    },
    {
      "anonymous": false,
      "inputs": [
        {
          "indexed": true,
          "internalType": "address",
          "name": "owner",
          "type": "address"
        },
        {
          "indexed": true,
          "internalType": "address",
          "name": "spender",
          "type": "address"
        },
        {
          "indexed": false,
          "internalType": "uint256",
          "name": "value",
          "type": "uint256"
        }
      ],
      "name": "Approval",
      "type": "event"
    },
    {
      "anonymous": false,
      "inputs": [
        {
          "indexed": false,
          "internalType": "string",
          "name": "prevURI",
          "type": "string"
        },
        {
          "indexed": false,
          "internalType": "string",
          "name": "newURI",
          "type": "string"
        }
      ],
      "name": "ContractURIUpdated",
      "type": "event"
    },
    {
      "anonymous": false,
      "inputs": [
        {
          "indexed": true,
          "internalType": "bytes32",
          "name": "projectId",
          "type": "bytes32"
        },
        {
          "indexed": true,
          "internalType": "address",
          "name": "contributor",
          "type": "address"
        },
        {
          "indexed": false,
          "internalType": "enum Mojo.Role",
          "name": "role",
          "type": "uint8"
        },
        {
          "indexed": false,
          "internalType": "uint256",
          "name": "percentage",
          "type": "uint256"
        }
      ],
      "name": "ContributionRecorded",
      "type": "event"
    },
    {
      "anonymous": false,
      "inputs": [
        {
          "indexed": true,
          "internalType": "address",
          "name": "prevOwner",
          "type": "address"
        },
        {
          "indexed": true,
          "internalType": "address",
          "name": "newOwner",
          "type": "address"
        }
      ],
      "name": "OwnerUpdated",
      "type": "event"
    },
    {
      "anonymous": false,
      "inputs": [
        {
          "indexed": true,
          "internalType": "address",
          "name": "burner",
          "type": "address"
        },
        {
          "indexed": false,
          "internalType": "uint256",
          "name": "amount",
          "type": "uint256"
        }
      ],
      "name": "TokensBurned",
      "type": "event"
    },
    {
      "anonymous": false,
      "inputs": [
        {
          "indexed": true,
          "internalType": "address",
          "name": "mintedTo",
          "type": "address"
        },
        {
          "indexed": false,
          "internalType": "uint256",
          "name": "quantityMinted",
          "type": "uint256"
        }
      ],
      "name": "TokensMinted",
      "type": "event"
    },
    {
      "anonymous": false,
      "inputs": [
        {
          "indexed": true,
          "internalType": "address",
          "name": "from",
          "type": "address"
        },
        {
          "indexed": true,
          "internalType": "address",
          "name": "to",
          "type": "address"
        },
        {
          "indexed": false,
          "internalType": "uint256",
          "name": "value",
          "type": "uint256"
        }
      ],
      "name": "Transfer",
      "type": "event"
    },
    {
      "inputs": [],
      "name": "DOMAIN_SEPARATOR",
      "outputs": [
        {
          "internalType": "bytes32",
          "name": "",
          "type": "bytes32"
        }
      ],
      "stateMutability": "view",
      "type": "function"
    },
    {
      "inputs": [],
      "name": "TOTAL_SUPPLY",
      "outputs": [
        {
          "internalType": "uint256",
          "name": "",
          "type": "uint256"
        }
      ],
      "stateMutability": "view",
      "type": "function"
    },
    {
      "inputs": [
        {
          "internalType": "address",
          "name": "to",
          "type": "address"
        },
        {
          "internalType": "uint256",
          "name": "amount",
          "type": "uint256"
        },
        {
          "internalType": "bytes32",
          "name": "projectId",
          "type": "bytes32"
        },
        {
          "internalType": "enum Mojo.Role",
          "name": "role",
          "type": "uint8"
        },
        {
          "internalType": "uint256",
          "name": "percentage",
          "type": "uint256"
        }
      ],
      "name": "allocateContribution",
      "outputs": [],
      "stateMutability": "nonpayable",
      "type": "function"
    },
    {
      "inputs": [
        {
          "internalType": "address",
          "name": "owner",
          "type": "address"
        },
        {
          "internalType": "address",
          "name": "spender",
          "type": "address"
        }
      ],
      "name": "allowance",
      "outputs": [
        {
          "internalType": "uint256",
          "name": "",
          "type": "uint256"
        }
      ],
      "stateMutability": "view",
      "type": "function"
    },
    {
      "inputs": [
        {
          "internalType": "address",
          "name": "spender",
          "type": "address"
        },
        {
          "internalType": "uint256",
          "name": "amount",
          "type": "uint256"
        }
      ],
      "name": "approve",
      "outputs": [
        {
          "internalType": "bool",
          "name": "",
          "type": "bool"
        }
      ],
      "stateMutability": "nonpayable",
      "type": "function"
    },
    {
      "inputs": [
        {
          "internalType": "address",
          "name": "account",
          "type": "address"
        }
      ],
      "name": "balanceOf",
      "outputs": [
        {
          "internalType": "uint256",
          "name": "",
          "type": "uint256"
        }
      ],
      "stateMutability": "view",
      "type": "function"
    },
    {
      "inputs": [
        {
          "internalType": "uint256",
          "name": "amount",
          "type": "uint256"
        }
      ],
      "name": "burn",
      "outputs": [],
      "stateMutability": "nonpayable",
      "type": "function"
    },
    {
      "inputs": [
        {
          "internalType": "address",
          "name": "_account",
          "type": "address"
        },
        {
          "internalType": "uint256",
          "name": "_amount",
          "type": "uint256"
        }
      ],
      "name": "burnFrom",
      "outputs": [],
      "stateMutability": "nonpayable",
      "type": "function"
    },
    {
      "inputs": [],
      "name": "contractURI",
      "outputs": [
        {
          "internalType": "string",
          "name": "",
          "type": "string"
        }
      ],
      "stateMutability": "view",
      "type": "function"
    },
    {
      "inputs": [],
      "name": "decimals",
      "outputs": [
        {
          "internalType": "uint8",
          "name": "",
          "type": "uint8"
        }
      ],
      "stateMutability": "view",
      "type": "function"
    },
    {
      "inputs": [
        {
          "internalType": "address",
          "name": "spender",
          "type": "address"
        },
        {
          "internalType": "uint256",
          "name": "subtractedValue",
          "type": "uint256"
        }
      ],
      "name": "decreaseAllowance",
      "outputs": [
        {
          "internalType": "bool",
          "name": "",
          "type": "bool"
        }
      ],
      "stateMutability": "nonpayable",
      "type": "function"
    },
    {
      "inputs": [
        {
          "internalType": "address",
          "name": "spender",
          "type": "address"
        },
        {
          "internalType": "uint256",
          "name": "addedValue",
          "type": "uint256"
        }
      ],
      "name": "increaseAllowance",
      "outputs": [
        {
          "internalType": "bool",
          "name": "",
          "type": "bool"
        }
      ],
      "stateMutability": "nonpayable",
      "type": "function"
    },
    {
      "inputs": [
        {
          "internalType": "address",
          "name": "_to",
          "type": "address"
        },
        {
          "internalType": "uint256",
          "name": "_amount",
          "type": "uint256"
        }
      ],
      "name": "mintTo",
      "outputs": [],
      "stateMutability": "nonpayable",
      "type": "function"
    },
    {
      "inputs": [
        {
          "internalType": "bytes[]",
          "name": "data",
          "type": "bytes[]"
        }
      ],
      "name": "multicall",
      "outputs": [
        {
          "internalType": "bytes[]",
          "name": "results",
          "type": "bytes[]"
        }
      ],
      "stateMutability": "nonpayable",
      "type": "function"
    },
    {
      "inputs": [],
      "name": "name",
      "outputs": [
        {
          "internalType": "string",
          "name": "",
          "type": "string"
        }
      ],
      "stateMutability": "view",
      "type": "function"
    },
    {
      "inputs": [
        {
          "internalType": "address",
          "name": "owner",
          "type": "address"
        }
      ],
      "name": "nonces",
      "outputs": [
        {
          "internalType": "uint256",
          "name": "",
          "type": "uint256"
        }
      ],
      "stateMutability": "view",
      "type": "function"
    },
    {
      "inputs": [],
      "name": "owner",
      "outputs": [
        {
          "internalType": "address",
          "name": "",
          "type": "address"
        }
      ],
      "stateMutability": "view",
      "type": "function"
    },
    {
      "inputs": [
        {
          "internalType": "address",
          "name": "owner",
          "type": "address"
        },
        {
          "internalType": "address",
          "name": "spender",
          "type": "address"
        },
        {
          "internalType": "uint256",
          "name": "value",
          "type": "uint256"
        },
        {
          "internalType": "uint256",
          "name": "deadline",
          "type": "uint256"
        },
        {
          "internalType": "uint8",
          "name": "v",
          "type": "uint8"
        },
        {
          "internalType": "bytes32",
          "name": "r",
          "type": "bytes32"
        },
        {
          "internalType": "bytes32",
          "name": "s",
          "type": "bytes32"
        }
      ],
      "name": "permit",
      "outputs": [],
      "stateMutability": "nonpayable",
      "type": "function"
    },
    {
      "inputs": [
        {
          "internalType": "bytes32",
          "name": "",
          "type": "bytes32"
        },
        {
          "internalType": "uint256",
          "name": "",
          "type": "uint256"
        }
      ],
      "name": "projectContributions",
      "outputs": [
        {
          "internalType": "address",
          "name": "contributor",
          "type": "address"
        },
        {
          "internalType": "enum Mojo.Role",
          "name": "role",
          "type": "uint8"
        },
        {
          "internalType": "uint256",
          "name": "percentage",
          "type": "uint256"
        },
        {
          "internalType": "uint256",
          "name": "timestamp",
          "type": "uint256"
        }
      ],
      "stateMutability": "view",
      "type": "function"
    },
    {
      "inputs": [
        {
          "internalType": "string",
          "name": "_uri",
          "type": "string"
        }
      ],
      "name": "setContractURI",
      "outputs": [],
      "stateMutability": "nonpayable",
      "type": "function"
    },
    {
      "inputs": [
        {
          "internalType": "address",
          "name": "_newOwner",
          "type": "address"
        }
      ],
      "name": "setOwner",
      "outputs": [],
      "stateMutability": "nonpayable",
      "type": "function"
    },
    {
      "inputs": [],
      "name": "symbol",
      "outputs": [
        {
          "internalType": "string",
          "name": "",
          "type": "string"
        }
      ],
      "stateMutability": "view",
      "type": "function"
    },
    {
      "inputs": [],
      "name": "totalSupply",
      "outputs": [
        {
          "internalType": "uint256",
          "name": "",
          "type": "uint256"
        }
      ],
      "stateMutability": "view",
      "type": "function"
    },
    {
      "inputs": [
        {
          "internalType": "address",
          "name": "to",
          "type": "address"
        },
        {
          "internalType": "uint256",
          "name": "amount",
          "type": "uint256"
        }
      ],
      "name": "transfer",
      "outputs": [
        {
          "internalType": "bool",
          "name": "",
          "type": "bool"
        }
      ],
      "stateMutability": "nonpayable",
      "type": "function"
    },
    {
      "inputs": [
        {
          "internalType": "address",
          "name": "from",
          "type": "address"
        },
        {
          "internalType": "address",
          "name": "to",
          "type": "address"
        },
        {
          "internalType": "uint256",
          "name": "amount",
          "type": "uint256"
        }
      ],
      "name": "transferFrom",
      "outputs": [
        {
          "internalType": "bool",
          "name": "",
          "type": "bool"
        }
      ],
      "stateMutability": "nonpayable",
      "type": "function"
    }
  ],
  "devdoc": {
    "errors": {
      "ContractMetadataUnauthorized()": [
        {
          "details": "The sender is not authorized to perform the action"
        }
      ],
      "OwnableUnauthorized()": [
        {
          "details": "The sender is not authorized to perform the action"
        }
      ]
    },
    "events": {
      "ContractURIUpdated(string,string)": {
        "details": "Emitted when the contract URI is updated."
      },
      "OwnerUpdated(address,address)": {
        "details": "Emitted when a new Owner is set."
      },
      "TokensMinted(address,uint256)": {
        "details": "Emitted when tokens are minted with `mintTo`"
      }
    },
    "kind": "dev",
    "methods": {
      "DOMAIN_SEPARATOR()": {
        "details": "See {IERC20Permit-DOMAIN_SEPARATOR}."
      },
      "allocateContribution(address,uint256,bytes32,uint8,uint256)": {
        "params": {
          "amount": "The amount to allocate.",
          "percentage": "The percentage allocation for this contribution.",
          "projectId": "The unique identifier for the project.",
          "role": "The contributor's role (Artist or Fan).",
          "to": "The address receiving tokens."
        }
      },
      "allowance(address,address)": {
        "details": "See {IERC20-allowance}."
      },
      "approve(address,uint256)": {
        "details": "See {IERC20-approve}. NOTE: If `amount` is the maximum `uint256`, the allowance is not updated on `transferFrom`. This is semantically equivalent to an infinite approval. Requirements: - `spender` cannot be the zero address."
      },
      "balanceOf(address)": {
        "details": "See {IERC20-balanceOf}."
      },
      "burn(uint256)": {
        "params": {
          "amount": "The amount of tokens to burn."
        }
      },
      "burnFrom(address,uint256)": {
        "details": "`_account` should own the `_amount` of tokens.",
        "params": {
          "_account": "The account to burn tokens from.",
          "_amount": "The number of tokens to burn."
        }
      },
      "decimals()": {
        "details": "Returns the number of decimals used to get its user representation. For example, if `decimals` equals `2`, a balance of `505` tokens should be displayed to a user as `5.05` (`505 / 10 ** 2`). Tokens usually opt for a value of 18, imitating the relationship between Ether and Wei. This is the value {ERC20} uses, unless this function is overridden; NOTE: This information is only used for _display_ purposes: it in no way affects any of the arithmetic of the contract, including {IERC20-balanceOf} and {IERC20-transfer}."
      },
      "decreaseAllowance(address,uint256)": {
        "details": "Atomically decreases the allowance granted to `spender` by the caller. This is an alternative to {approve} that can be used as a mitigation for problems described in {IERC20-approve}. Emits an {Approval} event indicating the updated allowance. Requirements: - `spender` cannot be the zero address. - `spender` must have allowance for the caller of at least `subtractedValue`."
      },
      "increaseAllowance(address,uint256)": {
        "details": "Atomically increases the allowance granted to `spender` by the caller. This is an alternative to {approve} that can be used as a mitigation for problems described in {IERC20-approve}. Emits an {Approval} event indicating the updated allowance. Requirements: - `spender` cannot be the zero address."
      },
      "mintTo(address,uint256)": {
        "details": "The logic in the `_canMint` function determines whether the caller is authorized to mint tokens.",
        "params": {
          "_amount": "Quantity of tokens to mint.",
          "_to": "The recipient of the tokens to mint."
        }
      },
      "multicall(bytes[])": {
        "details": "Receives and executes a batch of function calls on this contract.",
        "params": {
          "data": "The bytes data that makes up the batch of function calls to execute."
        },
        "returns": {
          "results": "The bytes data that makes up the result of the batch of function calls executed."
        }
      },
      "name()": {
        "details": "Returns the name of the token."
      },
      "nonces(address)": {
        "details": "See {IERC20Permit-nonces}."
      },
      "permit(address,address,uint256,uint256,uint8,bytes32,bytes32)": {
        "details": "See {IERC20Permit-permit}."
      },
      "setContractURI(string)": {
        "details": "Caller should be authorized to setup contractURI, e.g. contract admin.                  See {_canSetContractURI}.                  Emits {ContractURIUpdated Event}.",
        "params": {
          "_uri": "keccak256 hash of the role. e.g. keccak256(\"TRANSFER_ROLE\")"
        }
      },
      "setOwner(address)": {
        "params": {
          "_newOwner": "The address to set as the new owner of the contract."
        }
      },
      "symbol()": {
        "details": "Returns the symbol of the token, usually a shorter version of the name."
      },
      "totalSupply()": {
        "details": "See {IERC20-totalSupply}."
      },
      "transfer(address,uint256)": {
        "details": "See {IERC20-transfer}. Requirements: - `to` cannot be the zero address. - the caller must have a balance of at least `amount`."
      },
      "transferFrom(address,address,uint256)": {
        "details": "See {IERC20-transferFrom}. Emits an {Approval} event indicating the updated allowance. This is not required by the EIP. See the note at the beginning of {ERC20}. NOTE: Does not update the allowance if the current allowance is the maximum `uint256`. Requirements: - `from` and `to` cannot be the zero address. - `from` must have a balance of at least `amount`. - the caller must have allowance for ``from``'s tokens of at least `amount`."
      }
    },
    "version": 1
  },
  "evm": {
    "assembly": "    /* \"mojo.sol\":112:2152  contract Mojo is ERC20Base {... */\n  mstore(0x40, 0x0100)\n    /* \"@thirdweb-dev/contracts/external-deps/openzeppelin/token/ERC20/extensions/ERC20Permit.sol\":1443:1538   */\n  0x6e71edae12b1b97f4d1f60370fef10105fa2faae0126114a169c64845d6126c9\n    /* \"@thirdweb-dev/contracts/external-deps/openzeppelin/token/ERC20/extensions/ERC20Permit.sol\":1390:1538   */\n  0xe0\n  mstore\n    /* \"mojo.sol\":665:804  constructor(address _initialOwner)... */\n  callvalue\n  dup1\n  iszero\n  tag_1\n  jumpi\n  0x00\n  dup1\n  revert\ntag_1:\n  pop\n  mload(0x40)\n  sub(codesize, bytecodeSize)\n  dup1\n  bytecodeSize\n  dup4\n  codecopy\n  dup2\n  add\n  0x40\n  dup2\n  swap1\n  mstore\n  tag_2\n  swap2\n  tag_3\n  jump\t// in\ntag_2:\n    /* \"mojo.sol\":718:731  _initialOwner */\n  dup1\n    /* \"@thirdweb-dev/contracts/base/ERC20Base.sol\":1312:1462   */\n  mload(0x40)\n  dup1\n  0x40\n  add\n  0x40\n  mstore\n  dup1\n  0x04\n  dup2\n  mstore\n  0x20\n  add\n  shl(0xe0, 0x4d6f6a6f)\n  dup2\n  mstore\n  pop\n  mload(0x40)\n  dup1\n  0x40\n  add\n  0x40\n  mstore\n  dup1\n  0x04\n  dup2\n  mstore\n  0x20\n  add\n  shl(0xe0, 0x4d4f4a4f)\n  dup2\n  mstore\n  pop\n    /* \"@thirdweb-dev/contracts/base/ERC20Base.sol\":1403:1408   */\n  dup2\n    /* \"@thirdweb-dev/contracts/base/ERC20Base.sol\":1410:1417   */\n  dup2\n    /* \"@thirdweb-dev/contracts/external-deps/openzeppelin/token/ERC20/extensions/ERC20Permit.sol\":1832:1837   */\n  dup2\n    /* \"@thirdweb-dev/contracts/external-deps/openzeppelin/token/ERC20/extensions/ERC20Permit.sol\":1839:1846   */\n  dup2\n    /* \"@thirdweb-dev/contracts/external-deps/openzeppelin/token/ERC20/ERC20.sol\":2089:2094   */\n  dup2\n    /* \"@thirdweb-dev/contracts/external-deps/openzeppelin/token/ERC20/ERC20.sol\":2081:2086   */\n  0x05\n    /* \"@thirdweb-dev/contracts/external-deps/openzeppelin/token/ERC20/ERC20.sol\":2081:2094   */\n  swap1\n  dup2\n  tag_9\n  swap2\n  swap1\n  tag_10\n  jump\t// in\ntag_9:\n  pop\n    /* \"@thirdweb-dev/contracts/external-deps/openzeppelin/token/ERC20/ERC20.sol\":2104:2111   */\n  0x06\n    /* \"@thirdweb-dev/contracts/external-deps/openzeppelin/token/ERC20/ERC20.sol\":2104:2121   */\n  tag_11\n    /* \"@thirdweb-dev/contracts/external-deps/openzeppelin/token/ERC20/ERC20.sol\":2114:2121   */\n  dup3\n    /* \"@thirdweb-dev/contracts/external-deps/openzeppelin/token/ERC20/ERC20.sol\":2104:2111   */\n  dup3\n    /* \"@thirdweb-dev/contracts/external-deps/openzeppelin/token/ERC20/ERC20.sol\":2104:2121   */\n  tag_10\n  jump\t// in\ntag_11:\n  pop\n  pop\n    /* \"@thirdweb-dev/contracts/external-deps/openzeppelin/token/ERC20/extensions/ERC20Permit.sol\":1877:1890   */\n  chainid\n    /* \"@thirdweb-dev/contracts/external-deps/openzeppelin/token/ERC20/extensions/ERC20Permit.sol\":1858:1890   */\n  0xa0\n  mstore\n  pop\n    /* \"@thirdweb-dev/contracts/external-deps/openzeppelin/token/ERC20/extensions/ERC20Permit.sol\":1923:1927   */\n  address\n    /* \"@thirdweb-dev/contracts/external-deps/openzeppelin/token/ERC20/extensions/ERC20Permit.sol\":1900:1928   */\n  0xc0\n  mstore\n    /* \"@thirdweb-dev/contracts/external-deps/openzeppelin/token/ERC20/extensions/ERC20Permit.sol\":1965:1988   */\n  tag_13\n    /* \"@thirdweb-dev/contracts/external-deps/openzeppelin/token/ERC20/extensions/ERC20Permit.sol\":1965:1986   */\n  tag_14\n    /* \"@thirdweb-dev/contracts/external-deps/openzeppelin/token/ERC20/extensions/ERC20Permit.sol\":1965:1988   */\n  jump\t// in\ntag_13:\n    /* \"@thirdweb-dev/contracts/external-deps/openzeppelin/token/ERC20/extensions/ERC20Permit.sol\":1938:1988   */\n  0x80\n  mstore\n  pop\n    /* \"@thirdweb-dev/contracts/base/ERC20Base.sol\":1429:1455   */\n  tag_16\n  swap1\n  pop\n    /* \"@thirdweb-dev/contracts/base/ERC20Base.sol\":1441:1454   */\n  dup4\n    /* \"@thirdweb-dev/contracts/base/ERC20Base.sol\":1429:1440   */\n  tag_17\n    /* \"@thirdweb-dev/contracts/base/ERC20Base.sol\":1429:1455   */\n  jump\t// in\ntag_16:\n    /* \"@thirdweb-dev/contracts/base/ERC20Base.sol\":1312:1462   */\n  pop\n  pop\n  pop\n    /* \"mojo.sol\":763:797  _mint(_initialOwner, TOTAL_SUPPLY) */\n  tag_19\n    /* \"mojo.sol\":769:782  _initialOwner */\n  dup2\n    /* \"mojo.sol\":184:200  1_000_000 * 1e18 */\n  0xd3c21bcecceda1000000\n    /* \"mojo.sol\":763:768  _mint */\n  shl(0x20, tag_20)\n    /* \"mojo.sol\":763:797  _mint(_initialOwner, TOTAL_SUPPLY) */\n  0x20\n  shr\n  jump\t// in\ntag_19:\n    /* \"mojo.sol\":665:804  constructor(address _initialOwner)... */\n  pop\n    /* \"mojo.sol\":112:2152  contract Mojo is ERC20Base {... */\n  jump(tag_54)\n    /* \"@thirdweb-dev/contracts/external-deps/openzeppelin/token/ERC20/extensions/ERC20Permit.sol\":3296:3734   */\ntag_14:\n    /* \"@thirdweb-dev/contracts/external-deps/openzeppelin/token/ERC20/extensions/ERC20Permit.sol\":3351:3358   */\n  0x00\n    /* \"@thirdweb-dev/contracts/external-deps/openzeppelin/token/ERC20/extensions/ERC20Permit.sol\":3448:3543   */\n  0x8b73c3c69bb8fe3d512ecc4cf759cc79239f7b179b0ffacaa9a75d522b39400f\n    /* \"@thirdweb-dev/contracts/external-deps/openzeppelin/token/ERC20/extensions/ERC20Permit.sol\":3581:3587   */\n  tag_23\n    /* \"@thirdweb-dev/contracts/external-deps/openzeppelin/token/ERC20/extensions/ERC20Permit.sol\":3581:3585   */\n  tag_24\n    /* \"@thirdweb-dev/contracts/external-deps/openzeppelin/token/ERC20/extensions/ERC20Permit.sol\":3581:3587   */\n  jump\t// in\ntag_23:\n    /* \"@thirdweb-dev/contracts/external-deps/openzeppelin/token/ERC20/extensions/ERC20Permit.sol\":3565:3589   */\n  dup1\n  mload\n  0x20\n  swap2\n  dup3\n  add\n  keccak256\n    /* \"@thirdweb-dev/contracts/external-deps/openzeppelin/token/ERC20/extensions/ERC20Permit.sol\":3416:3713   */\n  0x40\n  dup1\n  mload\n  swap3\n  dup4\n  add\n    /* \"#utility.yul\":3255:3280   */\n  swap4\n  swap1\n  swap4\n  mstore\n    /* \"#utility.yul\":3296:3314   */\n  swap2\n  dup2\n  add\n    /* \"#utility.yul\":3289:3323   */\n  swap2\n  swap1\n  swap2\n  mstore\n    /* \"@thirdweb-dev/contracts/external-deps/openzeppelin/token/ERC20/extensions/ERC20Permit.sol\":3611:3625   */\n  0xc89efdaa54c0f20c7adf612882df0950f5a951637e0307cdcb4c672f298b8bc6\n    /* \"#utility.yul\":3339:3357   */\n  0x60\n  dup3\n  add\n    /* \"#utility.yul\":3332:3366   */\n  mstore\n    /* \"@thirdweb-dev/contracts/external-deps/openzeppelin/token/ERC20/extensions/ERC20Permit.sol\":3647:3660   */\n  chainid\n    /* \"#utility.yul\":3382:3400   */\n  0x80\n  dup3\n  add\n    /* \"#utility.yul\":3375:3409   */\n  mstore\n    /* \"@thirdweb-dev/contracts/external-deps/openzeppelin/token/ERC20/extensions/ERC20Permit.sol\":3690:3694   */\n  address\n    /* \"#utility.yul\":3425:3444   */\n  0xa0\n  dup3\n  add\n    /* \"#utility.yul\":3418:3479   */\n  mstore\n    /* \"#utility.yul\":3227:3246   */\n  0xc0\n  add\n    /* \"@thirdweb-dev/contracts/external-deps/openzeppelin/token/ERC20/extensions/ERC20Permit.sol\":3416:3713   */\n  mload(0x40)\n  0x20\n  dup2\n  dup4\n  sub\n  sub\n  dup2\n  mstore\n  swap1\n  0x40\n  mstore\n    /* \"@thirdweb-dev/contracts/external-deps/openzeppelin/token/ERC20/extensions/ERC20Permit.sol\":3389:3727   */\n  dup1\n  mload\n  swap1\n  0x20\n  add\n  keccak256\n    /* \"@thirdweb-dev/contracts/external-deps/openzeppelin/token/ERC20/extensions/ERC20Permit.sol\":3370:3727   */\n  swap1\n  pop\n    /* \"@thirdweb-dev/contracts/external-deps/openzeppelin/token/ERC20/extensions/ERC20Permit.sol\":3296:3734   */\n  swap1\n  jump\t// out\n    /* \"@thirdweb-dev/contracts/extension/Ownable.sol\":1527:1699   */\ntag_17:\n    /* \"@thirdweb-dev/contracts/extension/Ownable.sol\":1607:1613   */\n  0x01\n  dup1\n  sload\n  sub(shl(0xa0, 0x01), 0x01)\n    /* \"@thirdweb-dev/contracts/extension/Ownable.sol\":1623:1641   */\n  dup4\n  dup2\n  and\n  not(sub(shl(0xa0, 0x01), 0x01))\n  dup4\n  and\n  dup2\n  or\n  swap1\n  swap4\n  sstore\n    /* \"@thirdweb-dev/contracts/extension/Ownable.sol\":1657:1692   */\n  mload(0x40)\n    /* \"@thirdweb-dev/contracts/extension/Ownable.sol\":1607:1613   */\n  swap2\n  and\n  swap2\n    /* \"@thirdweb-dev/contracts/extension/Ownable.sol\":1623:1641   */\n  swap1\n    /* \"@thirdweb-dev/contracts/extension/Ownable.sol\":1607:1613   */\n  dup3\n  swap1\n    /* \"@thirdweb-dev/contracts/extension/Ownable.sol\":1657:1692   */\n  0x8292fce18fa69edf4db7b94ea2e58241df0ae57f97e0a6c9b29067028bf92d76\n  swap1\n    /* \"@thirdweb-dev/contracts/extension/Ownable.sol\":1586:1604   */\n  0x00\n  swap1\n    /* \"@thirdweb-dev/contracts/extension/Ownable.sol\":1657:1692   */\n  log3\n    /* \"@thirdweb-dev/contracts/extension/Ownable.sol\":1576:1699   */\n  pop\n    /* \"@thirdweb-dev/contracts/extension/Ownable.sol\":1527:1699   */\n  pop\n  jump\t// out\n    /* \"@thirdweb-dev/contracts/external-deps/openzeppelin/token/ERC20/ERC20.sol\":8392:8781   */\ntag_20:\n  sub(shl(0xa0, 0x01), 0x01)\n    /* \"@thirdweb-dev/contracts/external-deps/openzeppelin/token/ERC20/ERC20.sol\":8475:8496   */\n  dup3\n  and\n    /* \"@thirdweb-dev/contracts/external-deps/openzeppelin/token/ERC20/ERC20.sol\":8467:8532   */\n  tag_29\n  jumpi\n  mload(0x40)\n  shl(0xe5, 0x461bcd)\n  dup2\n  mstore\n    /* \"#utility.yul\":3692:3694   */\n  0x20\n    /* \"@thirdweb-dev/contracts/external-deps/openzeppelin/token/ERC20/ERC20.sol\":8467:8532   */\n  0x04\n  dup3\n  add\n    /* \"#utility.yul\":3674:3695   */\n  mstore\n    /* \"#utility.yul\":3731:3733   */\n  0x1f\n    /* \"#utility.yul\":3711:3729   */\n  0x24\n  dup3\n  add\n    /* \"#utility.yul\":3704:3734   */\n  mstore\n    /* \"#utility.yul\":3770:3803   */\n  0x45524332303a206d696e7420746f20746865207a65726f206164647265737300\n    /* \"#utility.yul\":3750:3768   */\n  0x44\n  dup3\n  add\n    /* \"#utility.yul\":3743:3804   */\n  mstore\n    /* \"#utility.yul\":3821:3839   */\n  0x64\n  add\n    /* \"@thirdweb-dev/contracts/external-deps/openzeppelin/token/ERC20/ERC20.sol\":8467:8532   */\n  mload(0x40)\n  dup1\n  swap2\n  sub\n  swap1\n  revert\ntag_29:\n    /* \"@thirdweb-dev/contracts/external-deps/openzeppelin/token/ERC20/ERC20.sol\":8619:8625   */\n  dup1\n    /* \"@thirdweb-dev/contracts/external-deps/openzeppelin/token/ERC20/ERC20.sol\":8603:8615   */\n  0x04\n  0x00\n    /* \"@thirdweb-dev/contracts/external-deps/openzeppelin/token/ERC20/ERC20.sol\":8603:8625   */\n  dup3\n  dup3\n  sload\n  tag_34\n  swap2\n  swap1\n  tag_35\n  jump\t// in\ntag_34:\n  swap1\n  swap2\n  sstore\n  pop\n  pop\n  sub(shl(0xa0, 0x01), 0x01)\n    /* \"@thirdweb-dev/contracts/external-deps/openzeppelin/token/ERC20/ERC20.sol\":8635:8653   */\n  dup3\n  and\n  0x00\n  swap1\n  dup2\n  mstore\n    /* \"@thirdweb-dev/contracts/external-deps/openzeppelin/token/ERC20/ERC20.sol\":8635:8644   */\n  0x02\n    /* \"@thirdweb-dev/contracts/external-deps/openzeppelin/token/ERC20/ERC20.sol\":8635:8653   */\n  0x20\n  mstore\n  0x40\n  dup2\n  keccak256\n    /* \"@thirdweb-dev/contracts/external-deps/openzeppelin/token/ERC20/ERC20.sol\":8635:8663   */\n  dup1\n  sload\n    /* \"@thirdweb-dev/contracts/external-deps/openzeppelin/token/ERC20/ERC20.sol\":8657:8663   */\n  dup4\n  swap3\n    /* \"@thirdweb-dev/contracts/external-deps/openzeppelin/token/ERC20/ERC20.sol\":8635:8653   */\n  swap1\n    /* \"@thirdweb-dev/contracts/external-deps/openzeppelin/token/ERC20/ERC20.sol\":8635:8663   */\n  tag_36\n  swap1\n    /* \"@thirdweb-dev/contracts/external-deps/openzeppelin/token/ERC20/ERC20.sol\":8657:8663   */\n  dup5\n  swap1\n    /* \"@thirdweb-dev/contracts/external-deps/openzeppelin/token/ERC20/ERC20.sol\":8635:8663   */\n  tag_35\n  jump\t// in\ntag_36:\n  swap1\n  swap2\n  sstore\n  pop\n  pop\n    /* \"@thirdweb-dev/contracts/external-deps/openzeppelin/token/ERC20/ERC20.sol\":8678:8715   */\n  mload(0x40)\n    /* \"#utility.yul\":4223:4248   */\n  dup2\n  dup2\n  mstore\n  sub(shl(0xa0, 0x01), 0x01)\n    /* \"@thirdweb-dev/contracts/external-deps/openzeppelin/token/ERC20/ERC20.sol\":8678:8715   */\n  dup4\n  and\n  swap1\n    /* \"@thirdweb-dev/contracts/external-deps/openzeppelin/token/ERC20/ERC20.sol\":8695:8696   */\n  0x00\n  swap1\n    /* \"@thirdweb-dev/contracts/external-deps/openzeppelin/token/ERC20/ERC20.sol\":8678:8715   */\n  0xddf252ad1be2c89b69c2b068fc378daa952ba7f163c4a11628f55a4df523b3ef\n  swap1\n    /* \"#utility.yul\":4211:4213   */\n  0x20\n    /* \"#utility.yul\":4196:4214   */\n  add\n    /* \"@thirdweb-dev/contracts/external-deps/openzeppelin/token/ERC20/ERC20.sol\":8678:8715   */\n  mload(0x40)\n  dup1\n  swap2\n  sub\n  swap1\n  log3\n    /* \"@thirdweb-dev/contracts/external-deps/openzeppelin/token/ERC20/ERC20.sol\":8392:8781   */\n  pop\n  pop\n  jump\t// out\n    /* \"@thirdweb-dev/contracts/external-deps/openzeppelin/token/ERC20/ERC20.sol\":2193:2291   */\ntag_24:\n    /* \"@thirdweb-dev/contracts/external-deps/openzeppelin/token/ERC20/ERC20.sol\":2247:2260   */\n  0x60\n    /* \"@thirdweb-dev/contracts/external-deps/openzeppelin/token/ERC20/ERC20.sol\":2279:2284   */\n  0x05\n    /* \"@thirdweb-dev/contracts/external-deps/openzeppelin/token/ERC20/ERC20.sol\":2272:2284   */\n  dup1\n  sload\n  tag_42\n  swap1\n  tag_43\n  jump\t// in\ntag_42:\n  dup1\n  0x1f\n  add\n  0x20\n  dup1\n  swap2\n  div\n  mul\n  0x20\n  add\n  mload(0x40)\n  swap1\n  dup2\n  add\n  0x40\n  mstore\n  dup1\n  swap3\n  swap2\n  swap1\n  dup2\n  dup2\n  mstore\n  0x20\n  add\n  dup3\n  dup1\n  sload\n  tag_44\n  swap1\n  tag_43\n  jump\t// in\ntag_44:\n  dup1\n  iszero\n  tag_45\n  jumpi\n  dup1\n  0x1f\n  lt\n  tag_46\n  jumpi\n  0x0100\n  dup1\n  dup4\n  sload\n  div\n  mul\n  dup4\n  mstore\n  swap2\n  0x20\n  add\n  swap2\n  jump(tag_45)\ntag_46:\n  dup3\n  add\n  swap2\n  swap1\n  0x00\n  mstore\n  keccak256(0x00, 0x20)\n  swap1\ntag_47:\n  dup2\n  sload\n  dup2\n  mstore\n  swap1\n  0x01\n  add\n  swap1\n  0x20\n  add\n  dup1\n  dup4\n  gt\n  tag_47\n  jumpi\n  dup3\n  swap1\n  sub\n  0x1f\n  and\n  dup3\n  add\n  swap2\ntag_45:\n  pop\n  pop\n  pop\n  pop\n  pop\n  swap1\n  pop\n    /* \"@thirdweb-dev/contracts/external-deps/openzeppelin/token/ERC20/ERC20.sol\":2193:2291   */\n  swap1\n  jump\t// out\n    /* \"@thirdweb-dev/contracts/external-deps/openzeppelin/token/ERC20/ERC20.sol\":11712:11803   */\ntag_33:\n  pop\n  pop\n  pop\n  jump\t// out\n    /* \"#utility.yul\":14:304   */\ntag_3:\n    /* \"#utility.yul\":84:90   */\n  0x00\n    /* \"#utility.yul\":137:139   */\n  0x20\n    /* \"#utility.yul\":125:134   */\n  dup3\n    /* \"#utility.yul\":116:123   */\n  dup5\n    /* \"#utility.yul\":112:135   */\n  sub\n    /* \"#utility.yul\":108:140   */\n  slt\n    /* \"#utility.yul\":105:157   */\n  iszero\n  tag_56\n  jumpi\n    /* \"#utility.yul\":153:154   */\n  0x00\n    /* \"#utility.yul\":150:151   */\n  dup1\n    /* \"#utility.yul\":143:155   */\n  revert\n    /* \"#utility.yul\":105:157   */\ntag_56:\n    /* \"#utility.yul\":179:195   */\n  dup2\n  mload\n  sub(shl(0xa0, 0x01), 0x01)\n    /* \"#utility.yul\":224:255   */\n  dup2\n  and\n    /* \"#utility.yul\":214:256   */\n  dup2\n  eq\n    /* \"#utility.yul\":204:274   */\n  tag_57\n  jumpi\n    /* \"#utility.yul\":270:271   */\n  0x00\n    /* \"#utility.yul\":267:268   */\n  dup1\n    /* \"#utility.yul\":260:272   */\n  revert\n    /* \"#utility.yul\":204:274   */\ntag_57:\n    /* \"#utility.yul\":293:298   */\n  swap4\n    /* \"#utility.yul\":14:304   */\n  swap3\n  pop\n  pop\n  pop\n  jump\t// out\n    /* \"#utility.yul\":309:436   */\ntag_50:\n    /* \"#utility.yul\":370:380   */\n  0x4e487b71\n    /* \"#utility.yul\":365:368   */\n  0xe0\n    /* \"#utility.yul\":361:381   */\n  shl\n    /* \"#utility.yul\":358:359   */\n  0x00\n    /* \"#utility.yul\":351:382   */\n  mstore\n    /* \"#utility.yul\":401:405   */\n  0x41\n    /* \"#utility.yul\":398:399   */\n  0x04\n    /* \"#utility.yul\":391:406   */\n  mstore\n    /* \"#utility.yul\":425:429   */\n  0x24\n    /* \"#utility.yul\":422:423   */\n  0x00\n    /* \"#utility.yul\":415:430   */\n  revert\n    /* \"#utility.yul\":441:821   */\ntag_43:\n    /* \"#utility.yul\":520:521   */\n  0x01\n    /* \"#utility.yul\":516:528   */\n  dup2\n  dup2\n  shr\n  swap1\n    /* \"#utility.yul\":563:575   */\n  dup3\n  and\n  dup1\n    /* \"#utility.yul\":584:645   */\n  tag_60\n  jumpi\n    /* \"#utility.yul\":638:642   */\n  0x7f\n    /* \"#utility.yul\":630:636   */\n  dup3\n    /* \"#utility.yul\":626:643   */\n  and\n    /* \"#utility.yul\":616:643   */\n  swap2\n  pop\n    /* \"#utility.yul\":584:645   */\ntag_60:\n    /* \"#utility.yul\":691:693   */\n  0x20\n    /* \"#utility.yul\":683:689   */\n  dup3\n    /* \"#utility.yul\":680:694   */\n  lt\n    /* \"#utility.yul\":660:678   */\n  dup2\n    /* \"#utility.yul\":657:695   */\n  sub\n    /* \"#utility.yul\":654:815   */\n  tag_61\n  jumpi\n    /* \"#utility.yul\":737:747   */\n  0x4e487b71\n    /* \"#utility.yul\":732:735   */\n  0xe0\n    /* \"#utility.yul\":728:748   */\n  shl\n    /* \"#utility.yul\":725:726   */\n  0x00\n    /* \"#utility.yul\":718:749   */\n  mstore\n    /* \"#utility.yul\":772:776   */\n  0x22\n    /* \"#utility.yul\":769:770   */\n  0x04\n    /* \"#utility.yul\":762:777   */\n  mstore\n    /* \"#utility.yul\":800:804   */\n  0x24\n    /* \"#utility.yul\":797:798   */\n  0x00\n    /* \"#utility.yul\":790:805   */\n  revert\n    /* \"#utility.yul\":654:815   */\ntag_61:\n  pop\n    /* \"#utility.yul\":441:821   */\n  swap2\n  swap1\n  pop\n  jump\t// out\n    /* \"#utility.yul\":952:1470   */\ntag_52:\n    /* \"#utility.yul\":1054:1056   */\n  0x1f\n    /* \"#utility.yul\":1049:1052   */\n  dup3\n    /* \"#utility.yul\":1046:1057   */\n  gt\n    /* \"#utility.yul\":1043:1464   */\n  iszero\n  tag_33\n  jumpi\n    /* \"#utility.yul\":1090:1095   */\n  dup1\n    /* \"#utility.yul\":1087:1088   */\n  0x00\n    /* \"#utility.yul\":1080:1096   */\n  mstore\n    /* \"#utility.yul\":1134:1138   */\n  0x20\n    /* \"#utility.yul\":1131:1132   */\n  0x00\n    /* \"#utility.yul\":1121:1139   */\n  keccak256\n    /* \"#utility.yul\":1204:1206   */\n  0x1f\n    /* \"#utility.yul\":1192:1202   */\n  dup5\n    /* \"#utility.yul\":1188:1207   */\n  add\n    /* \"#utility.yul\":1185:1186   */\n  0x05\n    /* \"#utility.yul\":1181:1208   */\n  shr\n    /* \"#utility.yul\":1175:1179   */\n  dup2\n    /* \"#utility.yul\":1171:1209   */\n  add\n    /* \"#utility.yul\":1240:1244   */\n  0x20\n    /* \"#utility.yul\":1228:1238   */\n  dup6\n    /* \"#utility.yul\":1225:1245   */\n  lt\n    /* \"#utility.yul\":1222:1269   */\n  iszero\n  tag_65\n  jumpi\n  pop\n    /* \"#utility.yul\":1263:1267   */\n  dup1\n    /* \"#utility.yul\":1222:1269   */\ntag_65:\n    /* \"#utility.yul\":1318:1320   */\n  0x1f\n    /* \"#utility.yul\":1313:1316   */\n  dup5\n    /* \"#utility.yul\":1309:1321   */\n  add\n    /* \"#utility.yul\":1306:1307   */\n  0x05\n    /* \"#utility.yul\":1302:1322   */\n  shr\n    /* \"#utility.yul\":1296:1300   */\n  dup3\n    /* \"#utility.yul\":1292:1323   */\n  add\n    /* \"#utility.yul\":1282:1323   */\n  swap2\n  pop\n    /* \"#utility.yul\":1373:1454   */\ntag_66:\n    /* \"#utility.yul\":1391:1393   */\n  dup2\n    /* \"#utility.yul\":1384:1389   */\n  dup2\n    /* \"#utility.yul\":1381:1394   */\n  lt\n    /* \"#utility.yul\":1373:1454   */\n  iszero\n  tag_68\n  jumpi\n    /* \"#utility.yul\":1450:1451   */\n  0x00\n    /* \"#utility.yul\":1436:1452   */\n  dup2\n  sstore\n    /* \"#utility.yul\":1417:1418   */\n  0x01\n    /* \"#utility.yul\":1406:1419   */\n  add\n    /* \"#utility.yul\":1373:1454   */\n  jump(tag_66)\ntag_68:\n    /* \"#utility.yul\":1377:1380   */\n  pop\n  pop\n    /* \"#utility.yul\":952:1470   */\n  pop\n  pop\n  pop\n  jump\t// out\n    /* \"#utility.yul\":1646:2991   */\ntag_10:\n    /* \"#utility.yul\":1766:1776   */\n  dup2\n  mload\n  sub(shl(0x40, 0x01), 0x01)\n    /* \"#utility.yul\":1788:1818   */\n  dup2\n  gt\n    /* \"#utility.yul\":1785:1841   */\n  iszero\n  tag_72\n  jumpi\n    /* \"#utility.yul\":1821:1839   */\n  tag_72\n  tag_50\n  jump\t// in\ntag_72:\n    /* \"#utility.yul\":1850:1947   */\n  tag_73\n    /* \"#utility.yul\":1940:1946   */\n  dup2\n    /* \"#utility.yul\":1900:1938   */\n  tag_74\n    /* \"#utility.yul\":1932:1936   */\n  dup5\n    /* \"#utility.yul\":1926:1937   */\n  sload\n    /* \"#utility.yul\":1900:1938   */\n  tag_43\n  jump\t// in\ntag_74:\n    /* \"#utility.yul\":1894:1898   */\n  dup5\n    /* \"#utility.yul\":1850:1947   */\n  tag_52\n  jump\t// in\ntag_73:\n    /* \"#utility.yul\":2002:2006   */\n  0x20\n  dup1\n    /* \"#utility.yul\":2059:2061   */\n  0x1f\n    /* \"#utility.yul\":2048:2062   */\n  dup4\n  gt\n    /* \"#utility.yul\":2076:2077   */\n  0x01\n    /* \"#utility.yul\":2071:2734   */\n  dup2\n  eq\n  tag_76\n  jumpi\n    /* \"#utility.yul\":2778:2779   */\n  0x00\n    /* \"#utility.yul\":2795:2801   */\n  dup5\n    /* \"#utility.yul\":2792:2881   */\n  iszero\n  tag_77\n  jumpi\n  pop\n    /* \"#utility.yul\":2847:2866   */\n  dup6\n  dup4\n  add\n    /* \"#utility.yul\":2841:2867   */\n  mload\n    /* \"#utility.yul\":2792:2881   */\ntag_77:\n  not(0x00)\n    /* \"#utility.yul\":1603:1604   */\n  0x03\n    /* \"#utility.yul\":1599:1610   */\n  dup7\n  swap1\n  shl\n    /* \"#utility.yul\":1595:1619   */\n  shr\n    /* \"#utility.yul\":1591:1620   */\n  not\n    /* \"#utility.yul\":1581:1621   */\n  and\n    /* \"#utility.yul\":1627:1628   */\n  0x01\n    /* \"#utility.yul\":1623:1634   */\n  dup6\n  swap1\n  shl\n    /* \"#utility.yul\":1578:1635   */\n  or\n    /* \"#utility.yul\":2894:2975   */\n  dup6\n  sstore\n    /* \"#utility.yul\":2041:2985   */\n  jump(tag_75)\n    /* \"#utility.yul\":2071:2734   */\ntag_76:\n    /* \"#utility.yul\":899:900   */\n  0x00\n    /* \"#utility.yul\":892:906   */\n  dup6\n  dup2\n  mstore\n    /* \"#utility.yul\":936:940   */\n  0x20\n    /* \"#utility.yul\":923:941   */\n  dup2\n  keccak256\n  not(0x1f)\n    /* \"#utility.yul\":2107:2127   */\n  dup7\n  and\n  swap2\n    /* \"#utility.yul\":2225:2461   */\ntag_80:\n    /* \"#utility.yul\":2239:2246   */\n  dup3\n    /* \"#utility.yul\":2236:2237   */\n  dup2\n    /* \"#utility.yul\":2233:2247   */\n  lt\n    /* \"#utility.yul\":2225:2461   */\n  iszero\n  tag_82\n  jumpi\n    /* \"#utility.yul\":2328:2347   */\n  dup9\n  dup7\n  add\n    /* \"#utility.yul\":2322:2348   */\n  mload\n    /* \"#utility.yul\":2307:2349   */\n  dup3\n  sstore\n    /* \"#utility.yul\":2420:2447   */\n  swap5\n  dup5\n  add\n  swap5\n    /* \"#utility.yul\":2388:2389   */\n  0x01\n    /* \"#utility.yul\":2376:2390   */\n  swap1\n  swap2\n  add\n  swap1\n    /* \"#utility.yul\":2255:2274   */\n  dup5\n  add\n    /* \"#utility.yul\":2225:2461   */\n  jump(tag_80)\ntag_82:\n    /* \"#utility.yul\":2229:2232   */\n  pop\n    /* \"#utility.yul\":2489:2495   */\n  dup6\n    /* \"#utility.yul\":2480:2487   */\n  dup3\n    /* \"#utility.yul\":2477:2496   */\n  lt\n    /* \"#utility.yul\":2474:2675   */\n  iszero\n  tag_83\n  jumpi\n    /* \"#utility.yul\":2550:2569   */\n  dup8\n  dup6\n  add\n    /* \"#utility.yul\":2544:2570   */\n  mload\n  not(0x00)\n    /* \"#utility.yul\":2633:2634   */\n  0x03\n    /* \"#utility.yul\":2629:2643   */\n  dup9\n  swap1\n  shl\n    /* \"#utility.yul\":2645:2648   */\n  0xf8\n    /* \"#utility.yul\":2625:2649   */\n  and\n    /* \"#utility.yul\":2621:2658   */\n  shr\n    /* \"#utility.yul\":2617:2659   */\n  not\n    /* \"#utility.yul\":2602:2660   */\n  and\n    /* \"#utility.yul\":2587:2661   */\n  dup2\n  sstore\n    /* \"#utility.yul\":2474:2675   */\ntag_83:\n  pop\n  pop\n    /* \"#utility.yul\":2721:2722   */\n  0x01\n    /* \"#utility.yul\":2712:2718   */\n  dup5\n    /* \"#utility.yul\":2709:2710   */\n  0x01\n    /* \"#utility.yul\":2705:2719   */\n  shl\n    /* \"#utility.yul\":2701:2723   */\n  add\n    /* \"#utility.yul\":2695:2699   */\n  dup6\n    /* \"#utility.yul\":2688:2724   */\n  sstore\n    /* \"#utility.yul\":2041:2985   */\ntag_75:\n  pop\n  pop\n  pop\n  pop\n    /* \"#utility.yul\":1646:2991   */\n  pop\n  pop\n  jump\t// out\n    /* \"#utility.yul\":3850:4072   */\ntag_35:\n    /* \"#utility.yul\":3915:3924   */\n  dup1\n  dup3\n  add\n    /* \"#utility.yul\":3936:3946   */\n  dup1\n  dup3\n  gt\n    /* \"#utility.yul\":3933:4066   */\n  iszero\n  tag_87\n  jumpi\n    /* \"#utility.yul\":3988:3998   */\n  0x4e487b71\n    /* \"#utility.yul\":3983:3986   */\n  0xe0\n    /* \"#utility.yul\":3979:3999   */\n  shl\n    /* \"#utility.yul\":3976:3977   */\n  0x00\n    /* \"#utility.yul\":3969:4000   */\n  mstore\n    /* \"#utility.yul\":4023:4027   */\n  0x11\n    /* \"#utility.yul\":4020:4021   */\n  0x04\n    /* \"#utility.yul\":4013:4028   */\n  mstore\n    /* \"#utility.yul\":4051:4055   */\n  0x24\n    /* \"#utility.yul\":4048:4049   */\n  0x00\n    /* \"#utility.yul\":4041:4056   */\n  revert\n    /* \"#utility.yul\":3933:4066   */\ntag_87:\n    /* \"#utility.yul\":3850:4072   */\n  swap3\n  swap2\n  pop\n  pop\n  jump\t// out\n    /* \"#utility.yul\":4077:4254   */\ntag_54:\n    /* \"mojo.sol\":112:2152  contract Mojo is ERC20Base {... */\n  mload(0x80)\n  mload(0xa0)\n  mload(0xc0)\n  mload(0xe0)\n  codecopy(0x00, dataOffset(sub_0), dataSize(sub_0))\n  0x00\n  assignImmutable(\"0xe5cebca563767d70f633da2b5b354dc23c2b3d28637e3f1469cc9441475de40d\")\n  0x00\n  assignImmutable(\"0x54758c028b85a29b810358f916546f05b201fd5463ac41bc2b8aa89dccb9a17e\")\n  0x00\n  assignImmutable(\"0xf5f3a8308cc1a17c1101ab48e73f9d56dd827783c3950d9a69d723f6c5abb92b\")\n  0x00\n  assignImmutable(\"0x8d68abe93aa5e3a6c49db5f4daad05fac091659a50917d94a8af7b042cfd7ba8\")\n  return(0x00, dataSize(sub_0))\nstop\n\nsub_0: assembly {\n        /* \"mojo.sol\":112:2152  contract Mojo is ERC20Base {... */\n      mstore(0x40, 0x80)\n      callvalue\n      dup1\n      iszero\n      tag_1\n      jumpi\n      0x00\n      dup1\n      revert\n    tag_1:\n      pop\n      jumpi(tag_2, lt(calldatasize, 0x04))\n      shr(0xe0, calldataload(0x00))\n      dup1\n      0x79cc6790\n      gt\n      tag_28\n      jumpi\n      dup1\n      0xa457c2d7\n      gt\n      tag_29\n      jumpi\n      dup1\n      0xd505accf\n      gt\n      tag_30\n      jumpi\n      dup1\n      0xd505accf\n      eq\n      tag_24\n      jumpi\n      dup1\n      0xd9cdee0d\n      eq\n      tag_25\n      jumpi\n      dup1\n      0xdd62ed3e\n      eq\n      tag_26\n      jumpi\n      dup1\n      0xe8a3d485\n      eq\n      tag_27\n      jumpi\n      0x00\n      dup1\n      revert\n    tag_30:\n      dup1\n      0xa457c2d7\n      eq\n      tag_21\n      jumpi\n      dup1\n      0xa9059cbb\n      eq\n      tag_22\n      jumpi\n      dup1\n      0xac9650d8\n      eq\n      tag_23\n      jumpi\n      0x00\n      dup1\n      revert\n    tag_29:\n      dup1\n      0x902d55a5\n      gt\n      tag_31\n      jumpi\n      dup1\n      0x902d55a5\n      eq\n      tag_18\n      jumpi\n      dup1\n      0x938e3d7b\n      eq\n      tag_19\n      jumpi\n      dup1\n      0x95d89b41\n      eq\n      tag_20\n      jumpi\n      0x00\n      dup1\n      revert\n    tag_31:\n      dup1\n      0x79cc6790\n      eq\n      tag_15\n      jumpi\n      dup1\n      0x7ecebe00\n      eq\n      tag_16\n      jumpi\n      dup1\n      0x8da5cb5b\n      eq\n      tag_17\n      jumpi\n      0x00\n      dup1\n      revert\n    tag_28:\n      dup1\n      0x3644e515\n      gt\n      tag_32\n      jumpi\n      dup1\n      0x449a52f8\n      gt\n      tag_33\n      jumpi\n      dup1\n      0x449a52f8\n      eq\n      tag_12\n      jumpi\n      dup1\n      0x70a08231\n      eq\n      tag_13\n      jumpi\n      dup1\n      0x7261fa29\n      eq\n      tag_14\n      jumpi\n      0x00\n      dup1\n      revert\n    tag_33:\n      dup1\n      0x3644e515\n      eq\n      tag_9\n      jumpi\n      dup1\n      0x39509351\n      eq\n      tag_10\n      jumpi\n      dup1\n      0x42966c68\n      eq\n      tag_11\n      jumpi\n      0x00\n      dup1\n      revert\n    tag_32:\n      dup1\n      0x18160ddd\n      gt\n      tag_34\n      jumpi\n      dup1\n      0x18160ddd\n      eq\n      tag_6\n      jumpi\n      dup1\n      0x23b872dd\n      eq\n      tag_7\n      jumpi\n      dup1\n      0x313ce567\n      eq\n      tag_8\n      jumpi\n      0x00\n      dup1\n      revert\n    tag_34:\n      dup1\n      0x06fdde03\n      eq\n      tag_3\n      jumpi\n      dup1\n      0x095ea7b3\n      eq\n      tag_4\n      jumpi\n      dup1\n      0x13af4035\n      eq\n      tag_5\n      jumpi\n    tag_2:\n      0x00\n      dup1\n      revert\n        /* \"@thirdweb-dev/contracts/external-deps/openzeppelin/token/ERC20/ERC20.sol\":2193:2291   */\n    tag_3:\n      tag_35\n      tag_36\n      jump\t// in\n    tag_35:\n      mload(0x40)\n      tag_37\n      swap2\n      swap1\n      tag_38\n      jump\t// in\n    tag_37:\n      mload(0x40)\n      dup1\n      swap2\n      sub\n      swap1\n      return\n        /* \"@thirdweb-dev/contracts/external-deps/openzeppelin/token/ERC20/ERC20.sol\":4470:4667   */\n    tag_4:\n      tag_39\n      tag_40\n      calldatasize\n      0x04\n      tag_41\n      jump\t// in\n    tag_40:\n      tag_42\n      jump\t// in\n    tag_39:\n      mload(0x40)\n        /* \"#utility.yul\":1158:1172   */\n      swap1\n      iszero\n        /* \"#utility.yul\":1151:1173   */\n      iszero\n        /* \"#utility.yul\":1133:1174   */\n      dup2\n      mstore\n        /* \"#utility.yul\":1121:1123   */\n      0x20\n        /* \"#utility.yul\":1106:1124   */\n      add\n        /* \"@thirdweb-dev/contracts/external-deps/openzeppelin/token/ERC20/ERC20.sol\":4470:4667   */\n      tag_37\n        /* \"#utility.yul\":993:1180   */\n      jump\n        /* \"@thirdweb-dev/contracts/extension/Ownable.sol\":1235:1412   */\n    tag_5:\n      tag_45\n      tag_46\n      calldatasize\n      0x04\n      tag_47\n      jump\t// in\n    tag_46:\n      tag_48\n      jump\t// in\n    tag_45:\n      stop\n        /* \"@thirdweb-dev/contracts/external-deps/openzeppelin/token/ERC20/ERC20.sol\":3281:3387   */\n    tag_6:\n        /* \"@thirdweb-dev/contracts/external-deps/openzeppelin/token/ERC20/ERC20.sol\":3368:3380   */\n      sload(0x04)\n        /* \"@thirdweb-dev/contracts/external-deps/openzeppelin/token/ERC20/ERC20.sol\":3281:3387   */\n    tag_49:\n      mload(0x40)\n        /* \"#utility.yul\":1522:1547   */\n      swap1\n      dup2\n      mstore\n        /* \"#utility.yul\":1510:1512   */\n      0x20\n        /* \"#utility.yul\":1495:1513   */\n      add\n        /* \"@thirdweb-dev/contracts/external-deps/openzeppelin/token/ERC20/ERC20.sol\":3281:3387   */\n      tag_37\n        /* \"#utility.yul\":1376:1553   */\n      jump\n        /* \"@thirdweb-dev/contracts/external-deps/openzeppelin/token/ERC20/ERC20.sol\":5229:5485   */\n    tag_7:\n      tag_39\n      tag_54\n      calldatasize\n      0x04\n      tag_55\n      jump\t// in\n    tag_54:\n      tag_56\n      jump\t// in\n        /* \"@thirdweb-dev/contracts/external-deps/openzeppelin/token/ERC20/ERC20.sol\":3130:3221   */\n    tag_8:\n      mload(0x40)\n        /* \"@thirdweb-dev/contracts/external-deps/openzeppelin/token/ERC20/ERC20.sol\":3212:3214   */\n      0x12\n        /* \"#utility.yul\":2033:2069   */\n      dup2\n      mstore\n        /* \"#utility.yul\":2021:2023   */\n      0x20\n        /* \"#utility.yul\":2006:2024   */\n      add\n        /* \"@thirdweb-dev/contracts/external-deps/openzeppelin/token/ERC20/ERC20.sol\":3130:3221   */\n      tag_37\n        /* \"#utility.yul\":1891:2075   */\n      jump\n        /* \"@thirdweb-dev/contracts/external-deps/openzeppelin/token/ERC20/extensions/ERC20Permit.sol\":3018:3290   */\n    tag_9:\n      tag_49\n      tag_63\n      jump\t// in\n        /* \"@thirdweb-dev/contracts/external-deps/openzeppelin/token/ERC20/ERC20.sol\":5880:6116   */\n    tag_10:\n      tag_39\n      tag_67\n      calldatasize\n      0x04\n      tag_41\n      jump\t// in\n    tag_67:\n      tag_68\n      jump\t// in\n        /* \"mojo.sol\":2013:2150  function burn(uint256 amount) external override {... */\n    tag_11:\n      tag_45\n      tag_71\n      calldatasize\n      0x04\n      tag_72\n      jump\t// in\n    tag_71:\n      tag_73\n      jump\t// in\n        /* \"@thirdweb-dev/contracts/base/ERC20Base.sol\":1989:2198   */\n    tag_12:\n      tag_45\n      tag_75\n      calldatasize\n      0x04\n      tag_41\n      jump\t// in\n    tag_75:\n      tag_76\n      jump\t// in\n        /* \"@thirdweb-dev/contracts/external-deps/openzeppelin/token/ERC20/ERC20.sol\":3445:3570   */\n    tag_13:\n      tag_49\n      tag_78\n      calldatasize\n      0x04\n      tag_47\n      jump\t// in\n    tag_78:\n      sub(shl(0xa0, 0x01), 0x01)\n        /* \"@thirdweb-dev/contracts/external-deps/openzeppelin/token/ERC20/ERC20.sol\":3545:3563   */\n      and\n        /* \"@thirdweb-dev/contracts/external-deps/openzeppelin/token/ERC20/ERC20.sol\":3519:3526   */\n      0x00\n        /* \"@thirdweb-dev/contracts/external-deps/openzeppelin/token/ERC20/ERC20.sol\":3545:3563   */\n      swap1\n      dup2\n      mstore\n        /* \"@thirdweb-dev/contracts/external-deps/openzeppelin/token/ERC20/ERC20.sol\":3545:3554   */\n      0x02\n        /* \"@thirdweb-dev/contracts/external-deps/openzeppelin/token/ERC20/ERC20.sol\":3545:3563   */\n      0x20\n      mstore\n      0x40\n      swap1\n      keccak256\n      sload\n      swap1\n        /* \"@thirdweb-dev/contracts/external-deps/openzeppelin/token/ERC20/ERC20.sol\":3445:3570   */\n      jump\n        /* \"mojo.sol\":374:436  mapping(bytes32 => Contribution[]) public projectContributions */\n    tag_14:\n      tag_81\n      tag_82\n      calldatasize\n      0x04\n      tag_83\n      jump\t// in\n    tag_82:\n      tag_84\n      jump\t// in\n    tag_81:\n      mload(0x40)\n      tag_37\n      swap5\n      swap4\n      swap3\n      swap2\n      swap1\n      tag_86\n      jump\t// in\n        /* \"@thirdweb-dev/contracts/base/ERC20Base.sol\":2882:3312   */\n    tag_15:\n      tag_45\n      tag_88\n      calldatasize\n      0x04\n      tag_41\n      jump\t// in\n    tag_88:\n      tag_89\n      jump\t// in\n        /* \"@thirdweb-dev/contracts/external-deps/openzeppelin/token/ERC20/extensions/ERC20Permit.sol\":2768:2894   */\n    tag_16:\n      tag_49\n      tag_91\n      calldatasize\n      0x04\n      tag_47\n      jump\t// in\n    tag_91:\n      tag_92\n      jump\t// in\n        /* \"@thirdweb-dev/contracts/extension/Ownable.sol\":973:1059   */\n    tag_17:\n        /* \"@thirdweb-dev/contracts/extension/Ownable.sol\":1046:1052   */\n      sload(0x01)\n        /* \"@thirdweb-dev/contracts/extension/Ownable.sol\":973:1059   */\n      mload(0x40)\n      sub(shl(0xa0, 0x01), 0x01)\n        /* \"@thirdweb-dev/contracts/extension/Ownable.sol\":1046:1052   */\n      swap1\n      swap2\n      and\n        /* \"#utility.yul\":3680:3754   */\n      dup2\n      mstore\n        /* \"#utility.yul\":3668:3670   */\n      0x20\n        /* \"#utility.yul\":3653:3671   */\n      add\n        /* \"@thirdweb-dev/contracts/extension/Ownable.sol\":973:1059   */\n      tag_37\n        /* \"#utility.yul\":3534:3760   */\n      jump\n        /* \"mojo.sol\":145:200  uint256 public constant TOTAL_SUPPLY = 1_000_000 * 1e18 */\n    tag_18:\n      tag_49\n        /* \"mojo.sol\":184:200  1_000_000 * 1e18 */\n      0xd3c21bcecceda1000000\n        /* \"mojo.sol\":145:200  uint256 public constant TOTAL_SUPPLY = 1_000_000 * 1e18 */\n      dup2\n      jump\n        /* \"@thirdweb-dev/contracts/extension/ContractMetadata.sol\":1110:1311   */\n    tag_19:\n      tag_45\n      tag_102\n      calldatasize\n      0x04\n      tag_103\n      jump\t// in\n    tag_102:\n      tag_104\n      jump\t// in\n        /* \"@thirdweb-dev/contracts/external-deps/openzeppelin/token/ERC20/ERC20.sol\":2404:2506   */\n    tag_20:\n      tag_35\n      tag_106\n      jump\t// in\n        /* \"@thirdweb-dev/contracts/external-deps/openzeppelin/token/ERC20/ERC20.sol\":6603:7032   */\n    tag_21:\n      tag_39\n      tag_109\n      calldatasize\n      0x04\n      tag_41\n      jump\t// in\n    tag_109:\n      tag_110\n      jump\t// in\n        /* \"@thirdweb-dev/contracts/external-deps/openzeppelin/token/ERC20/ERC20.sol\":3766:3955   */\n    tag_22:\n      tag_39\n      tag_113\n      calldatasize\n      0x04\n      tag_41\n      jump\t// in\n    tag_113:\n      tag_114\n      jump\t// in\n        /* \"@thirdweb-dev/contracts/extension/Multicall.sol\":696:1263   */\n    tag_23:\n      tag_116\n      tag_117\n      calldatasize\n      0x04\n      tag_118\n      jump\t// in\n    tag_117:\n      tag_119\n      jump\t// in\n    tag_116:\n      mload(0x40)\n      tag_37\n      swap2\n      swap1\n      tag_121\n      jump\t// in\n        /* \"@thirdweb-dev/contracts/external-deps/openzeppelin/token/ERC20/extensions/ERC20Permit.sol\":2056:2707   */\n    tag_24:\n      tag_45\n      tag_123\n      calldatasize\n      0x04\n      tag_124\n      jump\t// in\n    tag_123:\n      tag_125\n      jump\t// in\n        /* \"mojo.sol\":1213:1882  function allocateContribution(... */\n    tag_25:\n      tag_45\n      tag_127\n      calldatasize\n      0x04\n      tag_128\n      jump\t// in\n    tag_127:\n      tag_129\n      jump\t// in\n        /* \"@thirdweb-dev/contracts/external-deps/openzeppelin/token/ERC20/ERC20.sol\":4013:4162   */\n    tag_26:\n      tag_49\n      tag_131\n      calldatasize\n      0x04\n      tag_132\n      jump\t// in\n    tag_131:\n      sub(shl(0xa0, 0x01), 0x01)\n        /* \"@thirdweb-dev/contracts/external-deps/openzeppelin/token/ERC20/ERC20.sol\":4128:4146   */\n      swap2\n      dup3\n      and\n        /* \"@thirdweb-dev/contracts/external-deps/openzeppelin/token/ERC20/ERC20.sol\":4102:4109   */\n      0x00\n        /* \"@thirdweb-dev/contracts/external-deps/openzeppelin/token/ERC20/ERC20.sol\":4128:4146   */\n      swap1\n      dup2\n      mstore\n        /* \"@thirdweb-dev/contracts/external-deps/openzeppelin/token/ERC20/ERC20.sol\":4128:4139   */\n      0x03\n        /* \"@thirdweb-dev/contracts/external-deps/openzeppelin/token/ERC20/ERC20.sol\":4128:4146   */\n      0x20\n      swap1\n      dup2\n      mstore\n      0x40\n      dup1\n      dup4\n      keccak256\n        /* \"@thirdweb-dev/contracts/external-deps/openzeppelin/token/ERC20/ERC20.sol\":4128:4155   */\n      swap4\n      swap1\n      swap5\n      and\n      dup3\n      mstore\n      swap2\n      swap1\n      swap2\n      mstore\n      keccak256\n      sload\n      swap1\n        /* \"@thirdweb-dev/contracts/external-deps/openzeppelin/token/ERC20/ERC20.sol\":4013:4162   */\n      jump\n        /* \"@thirdweb-dev/contracts/extension/ContractMetadata.sol\":672:706   */\n    tag_27:\n      tag_35\n      tag_136\n      jump\t// in\n        /* \"@thirdweb-dev/contracts/external-deps/openzeppelin/token/ERC20/ERC20.sol\":2193:2291   */\n    tag_36:\n        /* \"@thirdweb-dev/contracts/external-deps/openzeppelin/token/ERC20/ERC20.sol\":2247:2260   */\n      0x60\n        /* \"@thirdweb-dev/contracts/external-deps/openzeppelin/token/ERC20/ERC20.sol\":2279:2284   */\n      0x05\n        /* \"@thirdweb-dev/contracts/external-deps/openzeppelin/token/ERC20/ERC20.sol\":2272:2284   */\n      dup1\n      sload\n      tag_139\n      swap1\n      tag_140\n      jump\t// in\n    tag_139:\n      dup1\n      0x1f\n      add\n      0x20\n      dup1\n      swap2\n      div\n      mul\n      0x20\n      add\n      mload(0x40)\n      swap1\n      dup2\n      add\n      0x40\n      mstore\n      dup1\n      swap3\n      swap2\n      swap1\n      dup2\n      dup2\n      mstore\n      0x20\n      add\n      dup3\n      dup1\n      sload\n      tag_141\n      swap1\n      tag_140\n      jump\t// in\n    tag_141:\n      dup1\n      iszero\n      tag_142\n      jumpi\n      dup1\n      0x1f\n      lt\n      tag_143\n      jumpi\n      0x0100\n      dup1\n      dup4\n      sload\n      div\n      mul\n      dup4\n      mstore\n      swap2\n      0x20\n      add\n      swap2\n      jump(tag_142)\n    tag_143:\n      dup3\n      add\n      swap2\n      swap1\n      0x00\n      mstore\n      keccak256(0x00, 0x20)\n      swap1\n    tag_144:\n      dup2\n      sload\n      dup2\n      mstore\n      swap1\n      0x01\n      add\n      swap1\n      0x20\n      add\n      dup1\n      dup4\n      gt\n      tag_144\n      jumpi\n      dup3\n      swap1\n      sub\n      0x1f\n      and\n      dup3\n      add\n      swap2\n    tag_142:\n      pop\n      pop\n      pop\n      pop\n      pop\n      swap1\n      pop\n        /* \"@thirdweb-dev/contracts/external-deps/openzeppelin/token/ERC20/ERC20.sol\":2193:2291   */\n      swap1\n      jump\t// out\n        /* \"@thirdweb-dev/contracts/external-deps/openzeppelin/token/ERC20/ERC20.sol\":4470:4667   */\n    tag_42:\n        /* \"@thirdweb-dev/contracts/external-deps/openzeppelin/token/ERC20/ERC20.sol\":4553:4557   */\n      0x00\n        /* \"@thirdweb-dev/contracts/base/ERC20Base.sol\":4478:4488   */\n      caller\n        /* \"@thirdweb-dev/contracts/external-deps/openzeppelin/token/ERC20/ERC20.sol\":4607:4639   */\n      tag_148\n        /* \"@thirdweb-dev/contracts/base/ERC20Base.sol\":4478:4488   */\n      dup2\n        /* \"@thirdweb-dev/contracts/external-deps/openzeppelin/token/ERC20/ERC20.sol\":4623:4630   */\n      dup6\n        /* \"@thirdweb-dev/contracts/external-deps/openzeppelin/token/ERC20/ERC20.sol\":4632:4638   */\n      dup6\n        /* \"@thirdweb-dev/contracts/external-deps/openzeppelin/token/ERC20/ERC20.sol\":4607:4615   */\n      tag_149\n        /* \"@thirdweb-dev/contracts/external-deps/openzeppelin/token/ERC20/ERC20.sol\":4607:4639   */\n      jump\t// in\n    tag_148:\n        /* \"@thirdweb-dev/contracts/external-deps/openzeppelin/token/ERC20/ERC20.sol\":4656:4660   */\n      0x01\n        /* \"@thirdweb-dev/contracts/external-deps/openzeppelin/token/ERC20/ERC20.sol\":4649:4660   */\n      swap2\n      pop\n      pop\n        /* \"@thirdweb-dev/contracts/external-deps/openzeppelin/token/ERC20/ERC20.sol\":4470:4667   */\n    tag_145:\n      swap3\n      swap2\n      pop\n      pop\n      jump\t// out\n        /* \"@thirdweb-dev/contracts/extension/Ownable.sol\":1235:1412   */\n    tag_48:\n        /* \"@thirdweb-dev/contracts/extension/Ownable.sol\":1305:1319   */\n      tag_151\n        /* \"@thirdweb-dev/contracts/extension/Ownable.sol\":1305:1317   */\n      tag_152\n        /* \"@thirdweb-dev/contracts/extension/Ownable.sol\":1305:1319   */\n      jump\t// in\n    tag_151:\n        /* \"@thirdweb-dev/contracts/extension/Ownable.sol\":1300:1374   */\n      tag_153\n      jumpi\n        /* \"@thirdweb-dev/contracts/extension/Ownable.sol\":1342:1363   */\n      mload(0x40)\n      shl(0xe1, 0x16ccb9cb)\n      dup2\n      mstore\n      0x04\n      add\n      mload(0x40)\n      dup1\n      swap2\n      sub\n      swap1\n      revert\n        /* \"@thirdweb-dev/contracts/extension/Ownable.sol\":1300:1374   */\n    tag_153:\n        /* \"@thirdweb-dev/contracts/extension/Ownable.sol\":1383:1405   */\n      tag_154\n        /* \"@thirdweb-dev/contracts/extension/Ownable.sol\":1395:1404   */\n      dup2\n        /* \"@thirdweb-dev/contracts/extension/Ownable.sol\":1383:1394   */\n      tag_155\n        /* \"@thirdweb-dev/contracts/extension/Ownable.sol\":1383:1405   */\n      jump\t// in\n    tag_154:\n        /* \"@thirdweb-dev/contracts/extension/Ownable.sol\":1235:1412   */\n      pop\n      jump\t// out\n        /* \"@thirdweb-dev/contracts/external-deps/openzeppelin/token/ERC20/ERC20.sol\":5229:5485   */\n    tag_56:\n        /* \"@thirdweb-dev/contracts/external-deps/openzeppelin/token/ERC20/ERC20.sol\":5326:5330   */\n      0x00\n        /* \"@thirdweb-dev/contracts/base/ERC20Base.sol\":4478:4488   */\n      caller\n        /* \"@thirdweb-dev/contracts/external-deps/openzeppelin/token/ERC20/ERC20.sol\":5382:5420   */\n      tag_159\n        /* \"@thirdweb-dev/contracts/external-deps/openzeppelin/token/ERC20/ERC20.sol\":5398:5402   */\n      dup6\n        /* \"@thirdweb-dev/contracts/base/ERC20Base.sol\":4478:4488   */\n      dup3\n        /* \"@thirdweb-dev/contracts/external-deps/openzeppelin/token/ERC20/ERC20.sol\":5413:5419   */\n      dup6\n        /* \"@thirdweb-dev/contracts/external-deps/openzeppelin/token/ERC20/ERC20.sol\":5382:5397   */\n      tag_160\n        /* \"@thirdweb-dev/contracts/external-deps/openzeppelin/token/ERC20/ERC20.sol\":5382:5420   */\n      jump\t// in\n    tag_159:\n        /* \"@thirdweb-dev/contracts/external-deps/openzeppelin/token/ERC20/ERC20.sol\":5430:5457   */\n      tag_161\n        /* \"@thirdweb-dev/contracts/external-deps/openzeppelin/token/ERC20/ERC20.sol\":5440:5444   */\n      dup6\n        /* \"@thirdweb-dev/contracts/external-deps/openzeppelin/token/ERC20/ERC20.sol\":5446:5448   */\n      dup6\n        /* \"@thirdweb-dev/contracts/external-deps/openzeppelin/token/ERC20/ERC20.sol\":5450:5456   */\n      dup6\n        /* \"@thirdweb-dev/contracts/external-deps/openzeppelin/token/ERC20/ERC20.sol\":5430:5439   */\n      tag_162\n        /* \"@thirdweb-dev/contracts/external-deps/openzeppelin/token/ERC20/ERC20.sol\":5430:5457   */\n      jump\t// in\n    tag_161:\n      pop\n        /* \"@thirdweb-dev/contracts/external-deps/openzeppelin/token/ERC20/ERC20.sol\":5474:5478   */\n      0x01\n      swap5\n        /* \"@thirdweb-dev/contracts/external-deps/openzeppelin/token/ERC20/ERC20.sol\":5229:5485   */\n      swap4\n      pop\n      pop\n      pop\n      pop\n      jump\t// out\n        /* \"@thirdweb-dev/contracts/external-deps/openzeppelin/token/ERC20/extensions/ERC20Permit.sol\":3018:3290   */\n    tag_63:\n        /* \"@thirdweb-dev/contracts/external-deps/openzeppelin/token/ERC20/extensions/ERC20Permit.sol\":3076:3083   */\n      0x00\n        /* \"@thirdweb-dev/contracts/external-deps/openzeppelin/token/ERC20/extensions/ERC20Permit.sol\":3107:3111   */\n      address\n      sub(shl(0xa0, 0x01), 0x01)\n        /* \"@thirdweb-dev/contracts/external-deps/openzeppelin/token/ERC20/extensions/ERC20Permit.sol\":3116:3128   */\n      immutable(\"0x54758c028b85a29b810358f916546f05b201fd5463ac41bc2b8aa89dccb9a17e\")\n        /* \"@thirdweb-dev/contracts/external-deps/openzeppelin/token/ERC20/extensions/ERC20Permit.sol\":3099:3128   */\n      and\n      eq\n        /* \"@thirdweb-dev/contracts/external-deps/openzeppelin/token/ERC20/extensions/ERC20Permit.sol\":3099:3165   */\n      dup1\n      iszero\n      tag_165\n      jumpi\n      pop\n        /* \"@thirdweb-dev/contracts/external-deps/openzeppelin/token/ERC20/extensions/ERC20Permit.sol\":3149:3165   */\n      immutable(\"0xf5f3a8308cc1a17c1101ab48e73f9d56dd827783c3950d9a69d723f6c5abb92b\")\n        /* \"@thirdweb-dev/contracts/external-deps/openzeppelin/token/ERC20/extensions/ERC20Permit.sol\":3132:3145   */\n      chainid\n        /* \"@thirdweb-dev/contracts/external-deps/openzeppelin/token/ERC20/extensions/ERC20Permit.sol\":3132:3165   */\n      eq\n        /* \"@thirdweb-dev/contracts/external-deps/openzeppelin/token/ERC20/extensions/ERC20Permit.sol\":3099:3165   */\n    tag_165:\n        /* \"@thirdweb-dev/contracts/external-deps/openzeppelin/token/ERC20/extensions/ERC20Permit.sol\":3095:3284   */\n      iszero\n      tag_166\n      jumpi\n      pop\n        /* \"@thirdweb-dev/contracts/external-deps/openzeppelin/token/ERC20/extensions/ERC20Permit.sol\":3188:3212   */\n      immutable(\"0x8d68abe93aa5e3a6c49db5f4daad05fac091659a50917d94a8af7b042cfd7ba8\")\n      swap1\n        /* \"@thirdweb-dev/contracts/external-deps/openzeppelin/token/ERC20/extensions/ERC20Permit.sol\":3018:3290   */\n      jump\t// out\n        /* \"@thirdweb-dev/contracts/external-deps/openzeppelin/token/ERC20/extensions/ERC20Permit.sol\":3095:3284   */\n    tag_166:\n        /* \"@thirdweb-dev/contracts/external-deps/openzeppelin/token/ERC20/extensions/ERC20Permit.sol\":3250:3273   */\n      tag_168\n        /* \"@thirdweb-dev/contracts/external-deps/openzeppelin/token/ERC20/extensions/ERC20Permit.sol\":3250:3271   */\n      tag_169\n        /* \"@thirdweb-dev/contracts/external-deps/openzeppelin/token/ERC20/extensions/ERC20Permit.sol\":3250:3273   */\n      jump\t// in\n    tag_168:\n        /* \"@thirdweb-dev/contracts/external-deps/openzeppelin/token/ERC20/extensions/ERC20Permit.sol\":3243:3273   */\n      swap1\n      pop\n        /* \"@thirdweb-dev/contracts/external-deps/openzeppelin/token/ERC20/extensions/ERC20Permit.sol\":3018:3290   */\n      swap1\n      jump\t// out\n        /* \"@thirdweb-dev/contracts/external-deps/openzeppelin/token/ERC20/ERC20.sol\":5880:6116   */\n    tag_68:\n        /* \"@thirdweb-dev/contracts/base/ERC20Base.sol\":4478:4488   */\n      caller\n        /* \"@thirdweb-dev/contracts/external-deps/openzeppelin/token/ERC20/ERC20.sol\":5968:5972   */\n      0x00\n        /* \"@thirdweb-dev/contracts/external-deps/openzeppelin/token/ERC20/ERC20.sol\":6047:6065   */\n      dup2\n      dup2\n      mstore\n        /* \"@thirdweb-dev/contracts/external-deps/openzeppelin/token/ERC20/ERC20.sol\":6047:6058   */\n      0x03\n        /* \"@thirdweb-dev/contracts/external-deps/openzeppelin/token/ERC20/ERC20.sol\":6047:6065   */\n      0x20\n      swap1\n      dup2\n      mstore\n      0x40\n      dup1\n      dup4\n      keccak256\n      sub(shl(0xa0, 0x01), 0x01)\n        /* \"@thirdweb-dev/contracts/external-deps/openzeppelin/token/ERC20/ERC20.sol\":6047:6074   */\n      dup8\n      and\n      dup5\n      mstore\n      swap1\n      swap2\n      mstore\n      dup2\n      keccak256\n      sload\n        /* \"@thirdweb-dev/contracts/external-deps/openzeppelin/token/ERC20/ERC20.sol\":5968:5972   */\n      swap1\n      swap2\n        /* \"@thirdweb-dev/contracts/base/ERC20Base.sol\":4478:4488   */\n      swap1\n        /* \"@thirdweb-dev/contracts/external-deps/openzeppelin/token/ERC20/ERC20.sol\":6022:6088   */\n      tag_148\n      swap1\n        /* \"@thirdweb-dev/contracts/base/ERC20Base.sol\":4478:4488   */\n      dup3\n      swap1\n        /* \"@thirdweb-dev/contracts/external-deps/openzeppelin/token/ERC20/ERC20.sol\":6047:6074   */\n      dup7\n      swap1\n        /* \"@thirdweb-dev/contracts/external-deps/openzeppelin/token/ERC20/ERC20.sol\":6047:6087   */\n      tag_173\n      swap1\n        /* \"@thirdweb-dev/contracts/external-deps/openzeppelin/token/ERC20/ERC20.sol\":6077:6087   */\n      dup8\n      swap1\n        /* \"@thirdweb-dev/contracts/external-deps/openzeppelin/token/ERC20/ERC20.sol\":6047:6087   */\n      tag_174\n      jump\t// in\n    tag_173:\n        /* \"@thirdweb-dev/contracts/external-deps/openzeppelin/token/ERC20/ERC20.sol\":6022:6030   */\n      tag_149\n        /* \"@thirdweb-dev/contracts/external-deps/openzeppelin/token/ERC20/ERC20.sol\":6022:6088   */\n      jump\t// in\n        /* \"mojo.sol\":2013:2150  function burn(uint256 amount) external override {... */\n    tag_73:\n        /* \"mojo.sol\":2071:2096  _burn(msg.sender, amount) */\n      tag_176\n        /* \"mojo.sol\":2077:2087  msg.sender */\n      caller\n        /* \"mojo.sol\":2089:2095  amount */\n      dup3\n        /* \"mojo.sol\":2071:2076  _burn */\n      tag_177\n        /* \"mojo.sol\":2071:2096  _burn(msg.sender, amount) */\n      jump\t// in\n    tag_176:\n        /* \"mojo.sol\":2111:2143  TokensBurned(msg.sender, amount) */\n      mload(0x40)\n        /* \"#utility.yul\":1522:1547   */\n      dup2\n      dup2\n      mstore\n        /* \"mojo.sol\":2124:2134  msg.sender */\n      caller\n      swap1\n        /* \"mojo.sol\":2111:2143  TokensBurned(msg.sender, amount) */\n      0xfd38818f5291bf0bb3a2a48aadc06ba8757865d1dabd804585338aab3009dcb6\n      swap1\n        /* \"#utility.yul\":1510:1512   */\n      0x20\n        /* \"#utility.yul\":1495:1513   */\n      add\n        /* \"mojo.sol\":2111:2143  TokensBurned(msg.sender, amount) */\n      mload(0x40)\n      dup1\n      swap2\n      sub\n      swap1\n      log2\n        /* \"mojo.sol\":2013:2150  function burn(uint256 amount) external override {... */\n      pop\n      jump\t// out\n        /* \"@thirdweb-dev/contracts/base/ERC20Base.sol\":1989:2198   */\n    tag_76:\n        /* \"@thirdweb-dev/contracts/base/ERC20Base.sol\":2068:2078   */\n      tag_180\n        /* \"@thirdweb-dev/contracts/base/ERC20Base.sol\":2068:2076   */\n      tag_152\n        /* \"@thirdweb-dev/contracts/base/ERC20Base.sol\":2068:2078   */\n      jump\t// in\n    tag_180:\n        /* \"@thirdweb-dev/contracts/base/ERC20Base.sol\":2060:2106   */\n      tag_182\n      jumpi\n      mload(0x40)\n      shl(0xe5, 0x461bcd)\n      dup2\n      mstore\n        /* \"#utility.yul\":8622:8624   */\n      0x20\n        /* \"@thirdweb-dev/contracts/base/ERC20Base.sol\":2060:2106   */\n      0x04\n      dup3\n      add\n        /* \"#utility.yul\":8604:8625   */\n      mstore\n        /* \"#utility.yul\":8661:8663   */\n      0x17\n        /* \"#utility.yul\":8641:8659   */\n      0x24\n      dup3\n      add\n        /* \"#utility.yul\":8634:8664   */\n      mstore\n        /* \"#utility.yul\":8700:8725   */\n      0x4e6f7420617574686f72697a656420746f206d696e742e000000000000000000\n        /* \"#utility.yul\":8680:8698   */\n      0x44\n      dup3\n      add\n        /* \"#utility.yul\":8673:8726   */\n      mstore\n        /* \"#utility.yul\":8743:8761   */\n      0x64\n      add\n        /* \"@thirdweb-dev/contracts/base/ERC20Base.sol\":2060:2106   */\n    tag_183:\n      mload(0x40)\n      dup1\n      swap2\n      sub\n      swap1\n      revert\n    tag_182:\n        /* \"@thirdweb-dev/contracts/base/ERC20Base.sol\":2124:2131   */\n      dup1\n        /* \"@thirdweb-dev/contracts/base/ERC20Base.sol\":2135:2136   */\n      0x00\n        /* \"@thirdweb-dev/contracts/base/ERC20Base.sol\":2124:2136   */\n      sub\n        /* \"@thirdweb-dev/contracts/base/ERC20Base.sol\":2116:2161   */\n      tag_185\n      jumpi\n      mload(0x40)\n      shl(0xe5, 0x461bcd)\n      dup2\n      mstore\n        /* \"#utility.yul\":8974:8976   */\n      0x20\n        /* \"@thirdweb-dev/contracts/base/ERC20Base.sol\":2116:2161   */\n      0x04\n      dup3\n      add\n        /* \"#utility.yul\":8956:8977   */\n      mstore\n        /* \"#utility.yul\":9013:9015   */\n      0x14\n        /* \"#utility.yul\":8993:9011   */\n      0x24\n      dup3\n      add\n        /* \"#utility.yul\":8986:9016   */\n      mstore\n        /* \"#utility.yul\":9052:9074   */\n      0x4d696e74696e67207a65726f20746f6b656e732e000000000000000000000000\n        /* \"#utility.yul\":9032:9050   */\n      0x44\n      dup3\n      add\n        /* \"#utility.yul\":9025:9075   */\n      mstore\n        /* \"#utility.yul\":9092:9110   */\n      0x64\n      add\n        /* \"@thirdweb-dev/contracts/base/ERC20Base.sol\":2116:2161   */\n      tag_183\n        /* \"#utility.yul\":8772:9116   */\n      jump\n        /* \"@thirdweb-dev/contracts/base/ERC20Base.sol\":2116:2161   */\n    tag_185:\n        /* \"@thirdweb-dev/contracts/base/ERC20Base.sol\":2172:2191   */\n      tag_188\n        /* \"@thirdweb-dev/contracts/base/ERC20Base.sol\":2178:2181   */\n      dup3\n        /* \"@thirdweb-dev/contracts/base/ERC20Base.sol\":2183:2190   */\n      dup3\n        /* \"@thirdweb-dev/contracts/base/ERC20Base.sol\":2172:2177   */\n      tag_189\n        /* \"@thirdweb-dev/contracts/base/ERC20Base.sol\":2172:2191   */\n      jump\t// in\n    tag_188:\n        /* \"@thirdweb-dev/contracts/base/ERC20Base.sol\":1989:2198   */\n      pop\n      pop\n      jump\t// out\n        /* \"mojo.sol\":374:436  mapping(bytes32 => Contribution[]) public projectContributions */\n    tag_84:\n      mstore(0x20, 0x08)\n      dup2\n      0x00\n      mstore\n      keccak256(0x00, 0x40)\n      dup2\n      dup2\n      sload\n      dup2\n      lt\n      tag_191\n      jumpi\n      0x00\n      dup1\n      revert\n    tag_191:\n      0x00\n      swap2\n      dup3\n      mstore\n      0x20\n      swap1\n      swap2\n      keccak256\n      0x03\n      swap1\n      swap2\n      mul\n      add\n      dup1\n      sload\n      0x01\n      dup3\n      add\n      sload\n      0x02\n      swap1\n      swap3\n      add\n      sload\n      sub(shl(0xa0, 0x01), 0x01)\n      dup3\n      and\n      swap5\n      pop\n      shl(0xa0, 0x01)\n      swap1\n      swap2\n      div\n      0xff\n      and\n      swap3\n      pop\n      dup5\n      jump\t// out\n        /* \"@thirdweb-dev/contracts/base/ERC20Base.sol\":2882:3312   */\n    tag_89:\n        /* \"@thirdweb-dev/contracts/base/ERC20Base.sol\":2979:2989   */\n      tag_194\n        /* \"@thirdweb-dev/contracts/base/ERC20Base.sol\":2979:2987   */\n      tag_152\n        /* \"@thirdweb-dev/contracts/base/ERC20Base.sol\":2979:2989   */\n      jump\t// in\n    tag_194:\n        /* \"@thirdweb-dev/contracts/base/ERC20Base.sol\":2971:3017   */\n      tag_196\n      jumpi\n      mload(0x40)\n      shl(0xe5, 0x461bcd)\n      dup2\n      mstore\n        /* \"#utility.yul\":9323:9325   */\n      0x20\n        /* \"@thirdweb-dev/contracts/base/ERC20Base.sol\":2971:3017   */\n      0x04\n      dup3\n      add\n        /* \"#utility.yul\":9305:9326   */\n      mstore\n        /* \"#utility.yul\":9362:9364   */\n      0x17\n        /* \"#utility.yul\":9342:9360   */\n      0x24\n      dup3\n      add\n        /* \"#utility.yul\":9335:9365   */\n      mstore\n        /* \"#utility.yul\":9401:9426   */\n      0x4e6f7420617574686f72697a656420746f206275726e2e000000000000000000\n        /* \"#utility.yul\":9381:9399   */\n      0x44\n      dup3\n      add\n        /* \"#utility.yul\":9374:9427   */\n      mstore\n        /* \"#utility.yul\":9444:9462   */\n      0x64\n      add\n        /* \"@thirdweb-dev/contracts/base/ERC20Base.sol\":2971:3017   */\n      tag_183\n        /* \"#utility.yul\":9121:9468   */\n      jump\n        /* \"@thirdweb-dev/contracts/base/ERC20Base.sol\":2971:3017   */\n    tag_196:\n        /* \"@thirdweb-dev/contracts/base/ERC20Base.sol\":3058:3065   */\n      dup1\n        /* \"@thirdweb-dev/contracts/base/ERC20Base.sol\":3035:3054   */\n      tag_199\n        /* \"@thirdweb-dev/contracts/base/ERC20Base.sol\":3045:3053   */\n      dup4\n      sub(shl(0xa0, 0x01), 0x01)\n        /* \"@thirdweb-dev/contracts/external-deps/openzeppelin/token/ERC20/ERC20.sol\":3545:3563   */\n      and\n        /* \"@thirdweb-dev/contracts/external-deps/openzeppelin/token/ERC20/ERC20.sol\":3519:3526   */\n      0x00\n        /* \"@thirdweb-dev/contracts/external-deps/openzeppelin/token/ERC20/ERC20.sol\":3545:3563   */\n      swap1\n      dup2\n      mstore\n        /* \"@thirdweb-dev/contracts/external-deps/openzeppelin/token/ERC20/ERC20.sol\":3545:3554   */\n      0x02\n        /* \"@thirdweb-dev/contracts/external-deps/openzeppelin/token/ERC20/ERC20.sol\":3545:3563   */\n      0x20\n      mstore\n      0x40\n      swap1\n      keccak256\n      sload\n      swap1\n        /* \"@thirdweb-dev/contracts/external-deps/openzeppelin/token/ERC20/ERC20.sol\":3445:3570   */\n      jump\n        /* \"@thirdweb-dev/contracts/base/ERC20Base.sol\":3035:3054   */\n    tag_199:\n        /* \"@thirdweb-dev/contracts/base/ERC20Base.sol\":3035:3065   */\n      lt\n      iszero\n        /* \"@thirdweb-dev/contracts/base/ERC20Base.sol\":3027:3088   */\n      tag_200\n      jumpi\n      mload(0x40)\n      shl(0xe5, 0x461bcd)\n      dup2\n      mstore\n        /* \"#utility.yul\":9675:9677   */\n      0x20\n        /* \"@thirdweb-dev/contracts/base/ERC20Base.sol\":3027:3088   */\n      0x04\n      dup3\n      add\n        /* \"#utility.yul\":9657:9678   */\n      mstore\n        /* \"#utility.yul\":9714:9716   */\n      0x12\n        /* \"#utility.yul\":9694:9712   */\n      0x24\n      dup3\n      add\n        /* \"#utility.yul\":9687:9717   */\n      mstore\n        /* \"#utility.yul\":9753:9773   */\n      0x6e6f7420656e6f7567682062616c616e63650000000000000000000000000000\n        /* \"#utility.yul\":9733:9751   */\n      0x44\n      dup3\n      add\n        /* \"#utility.yul\":9726:9774   */\n      mstore\n        /* \"#utility.yul\":9791:9809   */\n      0x64\n      add\n        /* \"@thirdweb-dev/contracts/base/ERC20Base.sol\":3027:3088   */\n      tag_183\n        /* \"#utility.yul\":9473:9815   */\n      jump\n        /* \"@thirdweb-dev/contracts/base/ERC20Base.sol\":3027:3088   */\n    tag_200:\n      sub(shl(0xa0, 0x01), 0x01)\n        /* \"@thirdweb-dev/contracts/external-deps/openzeppelin/token/ERC20/ERC20.sol\":4128:4146   */\n      dup3\n      and\n        /* \"@thirdweb-dev/contracts/base/ERC20Base.sol\":3098:3124   */\n      0x00\n        /* \"@thirdweb-dev/contracts/external-deps/openzeppelin/token/ERC20/ERC20.sol\":4128:4146   */\n      swap1\n      dup2\n      mstore\n        /* \"@thirdweb-dev/contracts/external-deps/openzeppelin/token/ERC20/ERC20.sol\":4128:4139   */\n      0x03\n        /* \"@thirdweb-dev/contracts/external-deps/openzeppelin/token/ERC20/ERC20.sol\":4128:4146   */\n      0x20\n      swap1\n      dup2\n      mstore\n      0x40\n      dup1\n      dup4\n      keccak256\n        /* \"@thirdweb-dev/contracts/base/ERC20Base.sol\":3147:3157   */\n      caller\n        /* \"@thirdweb-dev/contracts/external-deps/openzeppelin/token/ERC20/ERC20.sol\":4128:4155   */\n      dup5\n      mstore\n      swap1\n      swap2\n      mstore\n      dup2\n      keccak256\n      sload\n        /* \"@thirdweb-dev/contracts/base/ERC20Base.sol\":3127:3168   */\n      tag_204\n      swap1\n        /* \"@thirdweb-dev/contracts/base/ERC20Base.sol\":3161:3168   */\n      dup4\n      swap1\n        /* \"@thirdweb-dev/contracts/base/ERC20Base.sol\":3127:3168   */\n      tag_205\n      jump\t// in\n    tag_204:\n        /* \"@thirdweb-dev/contracts/base/ERC20Base.sol\":3098:3168   */\n      swap1\n      pop\n        /* \"@thirdweb-dev/contracts/base/ERC20Base.sol\":3178:3211   */\n      tag_206\n        /* \"@thirdweb-dev/contracts/base/ERC20Base.sol\":3187:3195   */\n      dup4\n        /* \"@thirdweb-dev/contracts/base/ERC20Base.sol\":3197:3207   */\n      caller\n        /* \"@thirdweb-dev/contracts/base/ERC20Base.sol\":3209:3210   */\n      0x00\n        /* \"@thirdweb-dev/contracts/base/ERC20Base.sol\":3178:3186   */\n      tag_149\n        /* \"@thirdweb-dev/contracts/base/ERC20Base.sol\":3178:3211   */\n      jump\t// in\n    tag_206:\n        /* \"@thirdweb-dev/contracts/base/ERC20Base.sol\":3221:3271   */\n      tag_207\n        /* \"@thirdweb-dev/contracts/base/ERC20Base.sol\":3230:3238   */\n      dup4\n        /* \"@thirdweb-dev/contracts/base/ERC20Base.sol\":3240:3250   */\n      caller\n        /* \"@thirdweb-dev/contracts/base/ERC20Base.sol\":3252:3270   */\n      dup4\n        /* \"@thirdweb-dev/contracts/base/ERC20Base.sol\":3221:3229   */\n      tag_149\n        /* \"@thirdweb-dev/contracts/base/ERC20Base.sol\":3221:3271   */\n      jump\t// in\n    tag_207:\n        /* \"@thirdweb-dev/contracts/base/ERC20Base.sol\":3281:3305   */\n      tag_208\n        /* \"@thirdweb-dev/contracts/base/ERC20Base.sol\":3287:3295   */\n      dup4\n        /* \"@thirdweb-dev/contracts/base/ERC20Base.sol\":3297:3304   */\n      dup4\n        /* \"@thirdweb-dev/contracts/base/ERC20Base.sol\":3281:3286   */\n      tag_177\n        /* \"@thirdweb-dev/contracts/base/ERC20Base.sol\":3281:3305   */\n      jump\t// in\n    tag_208:\n        /* \"@thirdweb-dev/contracts/base/ERC20Base.sol\":2961:3312   */\n      pop\n        /* \"@thirdweb-dev/contracts/base/ERC20Base.sol\":2882:3312   */\n      pop\n      pop\n      jump\t// out\n        /* \"@thirdweb-dev/contracts/external-deps/openzeppelin/token/ERC20/extensions/ERC20Permit.sol\":2768:2894   */\n    tag_92:\n      sub(shl(0xa0, 0x01), 0x01)\n        /* \"@thirdweb-dev/contracts/external-deps/openzeppelin/token/ERC20/extensions/ERC20Permit.sol\":2863:2877   */\n      dup2\n      and\n        /* \"@thirdweb-dev/contracts/external-deps/openzeppelin/token/ERC20/extensions/ERC20Permit.sol\":2837:2844   */\n      0x00\n        /* \"@thirdweb-dev/contracts/external-deps/openzeppelin/token/ERC20/extensions/ERC20Permit.sol\":2863:2877   */\n      swap1\n      dup2\n      mstore\n        /* \"@thirdweb-dev/contracts/external-deps/openzeppelin/token/ERC20/extensions/ERC20Permit.sol\":2863:2870   */\n      0x07\n        /* \"@thirdweb-dev/contracts/external-deps/openzeppelin/token/ERC20/extensions/ERC20Permit.sol\":2863:2877   */\n      0x20\n      mstore\n      0x40\n      dup2\n      keccak256\n        /* \"@thirdweb-dev/contracts/external-deps/openzeppelin/utils/Counters.sol\":918:932   */\n      sload\n        /* \"@thirdweb-dev/contracts/external-deps/openzeppelin/token/ERC20/extensions/ERC20Permit.sol\":2863:2887   */\n      tag_145\n        /* \"@thirdweb-dev/contracts/external-deps/openzeppelin/utils/Counters.sol\":827:939   */\n      jump\n        /* \"@thirdweb-dev/contracts/extension/ContractMetadata.sol\":1110:1311   */\n    tag_104:\n        /* \"@thirdweb-dev/contracts/extension/ContractMetadata.sol\":1187:1207   */\n      tag_214\n        /* \"@thirdweb-dev/contracts/extension/ContractMetadata.sol\":1187:1205   */\n      tag_152\n        /* \"@thirdweb-dev/contracts/extension/ContractMetadata.sol\":1187:1207   */\n      jump\t// in\n    tag_214:\n        /* \"@thirdweb-dev/contracts/extension/ContractMetadata.sol\":1182:1271   */\n      tag_216\n      jumpi\n        /* \"@thirdweb-dev/contracts/extension/ContractMetadata.sol\":1230:1260   */\n      mload(0x40)\n      shl(0xe0, 0x9f7f0925)\n      dup2\n      mstore\n      0x04\n      add\n      mload(0x40)\n      dup1\n      swap2\n      sub\n      swap1\n      revert\n        /* \"@thirdweb-dev/contracts/extension/ContractMetadata.sol\":1182:1271   */\n    tag_216:\n        /* \"@thirdweb-dev/contracts/extension/ContractMetadata.sol\":1281:1304   */\n      tag_154\n        /* \"@thirdweb-dev/contracts/extension/ContractMetadata.sol\":1299:1303   */\n      dup2\n        /* \"@thirdweb-dev/contracts/extension/ContractMetadata.sol\":1281:1298   */\n      tag_218\n        /* \"@thirdweb-dev/contracts/extension/ContractMetadata.sol\":1281:1304   */\n      jump\t// in\n        /* \"@thirdweb-dev/contracts/external-deps/openzeppelin/token/ERC20/ERC20.sol\":2404:2506   */\n    tag_106:\n        /* \"@thirdweb-dev/contracts/external-deps/openzeppelin/token/ERC20/ERC20.sol\":2460:2473   */\n      0x60\n        /* \"@thirdweb-dev/contracts/external-deps/openzeppelin/token/ERC20/ERC20.sol\":2492:2499   */\n      0x06\n        /* \"@thirdweb-dev/contracts/external-deps/openzeppelin/token/ERC20/ERC20.sol\":2485:2499   */\n      dup1\n      sload\n      tag_139\n      swap1\n      tag_140\n      jump\t// in\n        /* \"@thirdweb-dev/contracts/external-deps/openzeppelin/token/ERC20/ERC20.sol\":6603:7032   */\n    tag_110:\n        /* \"@thirdweb-dev/contracts/base/ERC20Base.sol\":4478:4488   */\n      caller\n        /* \"@thirdweb-dev/contracts/external-deps/openzeppelin/token/ERC20/ERC20.sol\":6696:6700   */\n      0x00\n        /* \"@thirdweb-dev/contracts/external-deps/openzeppelin/token/ERC20/ERC20.sol\":6777:6795   */\n      dup2\n      dup2\n      mstore\n        /* \"@thirdweb-dev/contracts/external-deps/openzeppelin/token/ERC20/ERC20.sol\":6777:6788   */\n      0x03\n        /* \"@thirdweb-dev/contracts/external-deps/openzeppelin/token/ERC20/ERC20.sol\":6777:6795   */\n      0x20\n      swap1\n      dup2\n      mstore\n      0x40\n      dup1\n      dup4\n      keccak256\n      sub(shl(0xa0, 0x01), 0x01)\n        /* \"@thirdweb-dev/contracts/external-deps/openzeppelin/token/ERC20/ERC20.sol\":6777:6804   */\n      dup8\n      and\n      dup5\n      mstore\n      swap1\n      swap2\n      mstore\n      dup2\n      keccak256\n      sload\n        /* \"@thirdweb-dev/contracts/external-deps/openzeppelin/token/ERC20/ERC20.sol\":6696:6700   */\n      swap1\n      swap2\n        /* \"@thirdweb-dev/contracts/base/ERC20Base.sol\":4478:4488   */\n      swap1\n        /* \"@thirdweb-dev/contracts/external-deps/openzeppelin/token/ERC20/ERC20.sol\":6822:6857   */\n      dup4\n      dup2\n      lt\n      iszero\n        /* \"@thirdweb-dev/contracts/external-deps/openzeppelin/token/ERC20/ERC20.sol\":6814:6899   */\n      tag_227\n      jumpi\n      mload(0x40)\n      shl(0xe5, 0x461bcd)\n      dup2\n      mstore\n        /* \"#utility.yul\":10155:10157   */\n      0x20\n        /* \"@thirdweb-dev/contracts/external-deps/openzeppelin/token/ERC20/ERC20.sol\":6814:6899   */\n      0x04\n      dup3\n      add\n        /* \"#utility.yul\":10137:10158   */\n      mstore\n        /* \"#utility.yul\":10194:10196   */\n      0x25\n        /* \"#utility.yul\":10174:10192   */\n      0x24\n      dup3\n      add\n        /* \"#utility.yul\":10167:10197   */\n      mstore\n        /* \"#utility.yul\":10233:10267   */\n      0x45524332303a2064656372656173656420616c6c6f77616e63652062656c6f77\n        /* \"#utility.yul\":10213:10231   */\n      0x44\n      dup3\n      add\n        /* \"#utility.yul\":10206:10268   */\n      mstore\n        /* \"#utility.yul\":10304:10311   */\n      0x207a65726f000000000000000000000000000000000000000000000000000000\n        /* \"#utility.yul\":10284:10302   */\n      0x64\n      dup3\n      add\n        /* \"#utility.yul\":10277:10312   */\n      mstore\n        /* \"#utility.yul\":10329:10348   */\n      0x84\n      add\n        /* \"@thirdweb-dev/contracts/external-deps/openzeppelin/token/ERC20/ERC20.sol\":6814:6899   */\n      tag_183\n        /* \"#utility.yul\":9953:10354   */\n      jump\n        /* \"@thirdweb-dev/contracts/external-deps/openzeppelin/token/ERC20/ERC20.sol\":6814:6899   */\n    tag_227:\n        /* \"@thirdweb-dev/contracts/external-deps/openzeppelin/token/ERC20/ERC20.sol\":6933:6993   */\n      tag_161\n        /* \"@thirdweb-dev/contracts/external-deps/openzeppelin/token/ERC20/ERC20.sol\":6942:6947   */\n      dup3\n        /* \"@thirdweb-dev/contracts/external-deps/openzeppelin/token/ERC20/ERC20.sol\":6949:6956   */\n      dup7\n        /* \"@thirdweb-dev/contracts/external-deps/openzeppelin/token/ERC20/ERC20.sol\":6977:6992   */\n      dup7\n        /* \"@thirdweb-dev/contracts/external-deps/openzeppelin/token/ERC20/ERC20.sol\":6958:6974   */\n      dup5\n        /* \"@thirdweb-dev/contracts/external-deps/openzeppelin/token/ERC20/ERC20.sol\":6958:6992   */\n      sub\n        /* \"@thirdweb-dev/contracts/external-deps/openzeppelin/token/ERC20/ERC20.sol\":6933:6941   */\n      tag_149\n        /* \"@thirdweb-dev/contracts/external-deps/openzeppelin/token/ERC20/ERC20.sol\":6933:6993   */\n      jump\t// in\n        /* \"@thirdweb-dev/contracts/external-deps/openzeppelin/token/ERC20/ERC20.sol\":3766:3955   */\n    tag_114:\n        /* \"@thirdweb-dev/contracts/external-deps/openzeppelin/token/ERC20/ERC20.sol\":3845:3849   */\n      0x00\n        /* \"@thirdweb-dev/contracts/base/ERC20Base.sol\":4478:4488   */\n      caller\n        /* \"@thirdweb-dev/contracts/external-deps/openzeppelin/token/ERC20/ERC20.sol\":3899:3927   */\n      tag_148\n        /* \"@thirdweb-dev/contracts/base/ERC20Base.sol\":4478:4488   */\n      dup2\n        /* \"@thirdweb-dev/contracts/external-deps/openzeppelin/token/ERC20/ERC20.sol\":3916:3918   */\n      dup6\n        /* \"@thirdweb-dev/contracts/external-deps/openzeppelin/token/ERC20/ERC20.sol\":3920:3926   */\n      dup6\n        /* \"@thirdweb-dev/contracts/external-deps/openzeppelin/token/ERC20/ERC20.sol\":3899:3908   */\n      tag_162\n        /* \"@thirdweb-dev/contracts/external-deps/openzeppelin/token/ERC20/ERC20.sol\":3899:3927   */\n      jump\t// in\n        /* \"@thirdweb-dev/contracts/extension/Multicall.sol\":696:1263   */\n    tag_119:\n        /* \"@thirdweb-dev/contracts/extension/Multicall.sol\":756:778   */\n      0x60\n        /* \"@thirdweb-dev/contracts/extension/Multicall.sol\":812:816   */\n      dup2\n        /* \"@thirdweb-dev/contracts/extension/Multicall.sol\":800:824   */\n      0xffffffffffffffff\n      dup2\n      gt\n      iszero\n      tag_236\n      jumpi\n      tag_236\n      tag_237\n      jump\t// in\n    tag_236:\n      mload(0x40)\n      swap1\n      dup1\n      dup3\n      mstore\n      dup1\n      0x20\n      mul\n      0x20\n      add\n      dup3\n      add\n      0x40\n      mstore\n      dup1\n      iszero\n      tag_238\n      jumpi\n      dup2\n      0x20\n      add\n    tag_239:\n      0x60\n      dup2\n      mstore\n      0x20\n      add\n      swap1\n      0x01\n      swap1\n      sub\n      swap1\n      dup2\n      tag_239\n      jumpi\n      swap1\n      pop\n    tag_238:\n      pop\n        /* \"@thirdweb-dev/contracts/extension/Multicall.sol\":790:824   */\n      swap1\n      pop\n        /* \"@thirdweb-dev/contracts/base/ERC20Base.sol\":4478:4488   */\n      caller\n        /* \"@thirdweb-dev/contracts/extension/Multicall.sol\":834:848   */\n      0x00\n      dup1\n        /* \"@thirdweb-dev/contracts/extension/Multicall.sol\":922:1233   */\n    tag_241:\n        /* \"@thirdweb-dev/contracts/extension/Multicall.sol\":942:957   */\n      dup5\n      dup2\n      lt\n        /* \"@thirdweb-dev/contracts/extension/Multicall.sol\":922:1233   */\n      iszero\n      tag_242\n      jumpi\n        /* \"@thirdweb-dev/contracts/extension/Multicall.sol\":982:993   */\n      dup2\n        /* \"@thirdweb-dev/contracts/extension/Multicall.sol\":978:1223   */\n      iszero\n      tag_244\n      jumpi\n        /* \"@thirdweb-dev/contracts/extension/Multicall.sol\":1026:1104   */\n      tag_245\n        /* \"@thirdweb-dev/contracts/extension/Multicall.sol\":1063:1067   */\n      address\n        /* \"@thirdweb-dev/contracts/extension/Multicall.sol\":1087:1091   */\n      dup8\n      dup8\n        /* \"@thirdweb-dev/contracts/extension/Multicall.sol\":1092:1093   */\n      dup5\n        /* \"@thirdweb-dev/contracts/extension/Multicall.sol\":1087:1094   */\n      dup2\n      dup2\n      lt\n      tag_247\n      jumpi\n      tag_247\n      tag_248\n      jump\t// in\n    tag_247:\n      swap1\n      pop\n      0x20\n      mul\n      dup2\n      add\n      swap1\n      tag_249\n      swap2\n      swap1\n      tag_250\n      jump\t// in\n    tag_249:\n        /* \"@thirdweb-dev/contracts/extension/Multicall.sol\":1096:1102   */\n      dup7\n        /* \"@thirdweb-dev/contracts/extension/Multicall.sol\":1070:1103   */\n      add(0x20, mload(0x40))\n      tag_251\n      swap4\n      swap3\n      swap2\n      swap1\n      tag_252\n      jump\t// in\n    tag_251:\n      mload(0x40)\n      0x20\n      dup2\n      dup4\n      sub\n      sub\n      dup2\n      mstore\n      swap1\n      0x40\n      mstore\n        /* \"@thirdweb-dev/contracts/extension/Multicall.sol\":1026:1054   */\n      tag_253\n        /* \"@thirdweb-dev/contracts/extension/Multicall.sol\":1026:1104   */\n      jump\t// in\n    tag_245:\n        /* \"@thirdweb-dev/contracts/extension/Multicall.sol\":1013:1020   */\n      dup5\n        /* \"@thirdweb-dev/contracts/extension/Multicall.sol\":1021:1022   */\n      dup3\n        /* \"@thirdweb-dev/contracts/extension/Multicall.sol\":1013:1023   */\n      dup2\n      mload\n      dup2\n      lt\n      tag_255\n      jumpi\n      tag_255\n      tag_248\n      jump\t// in\n    tag_255:\n      0x20\n      mul\n      0x20\n      add\n      add\n        /* \"@thirdweb-dev/contracts/extension/Multicall.sol\":1013:1104   */\n      dup2\n      swap1\n      mstore\n      pop\n        /* \"@thirdweb-dev/contracts/extension/Multicall.sol\":978:1223   */\n      jump(tag_256)\n    tag_244:\n        /* \"@thirdweb-dev/contracts/extension/Multicall.sol\":1156:1208   */\n      tag_257\n        /* \"@thirdweb-dev/contracts/extension/Multicall.sol\":1193:1197   */\n      address\n        /* \"@thirdweb-dev/contracts/extension/Multicall.sol\":1200:1204   */\n      dup8\n      dup8\n        /* \"@thirdweb-dev/contracts/extension/Multicall.sol\":1205:1206   */\n      dup5\n        /* \"@thirdweb-dev/contracts/extension/Multicall.sol\":1200:1207   */\n      dup2\n      dup2\n      lt\n      tag_259\n      jumpi\n      tag_259\n      tag_248\n      jump\t// in\n    tag_259:\n      swap1\n      pop\n      0x20\n      mul\n      dup2\n      add\n      swap1\n      tag_260\n      swap2\n      swap1\n      tag_250\n      jump\t// in\n    tag_260:\n        /* \"@thirdweb-dev/contracts/extension/Multicall.sol\":1156:1208   */\n      dup1\n      dup1\n      0x1f\n      add\n      0x20\n      dup1\n      swap2\n      div\n      mul\n      0x20\n      add\n      mload(0x40)\n      swap1\n      dup2\n      add\n      0x40\n      mstore\n      dup1\n      swap4\n      swap3\n      swap2\n      swap1\n      dup2\n      dup2\n      mstore\n      0x20\n      add\n      dup4\n      dup4\n      dup1\n      dup3\n      dup5\n      calldatacopy\n      0x00\n      swap3\n      add\n      swap2\n      swap1\n      swap2\n      mstore\n      pop\n        /* \"@thirdweb-dev/contracts/extension/Multicall.sol\":1156:1184   */\n      tag_253\n      swap3\n      pop\n      pop\n      pop\n        /* \"@thirdweb-dev/contracts/extension/Multicall.sol\":1156:1208   */\n      jump\t// in\n    tag_257:\n        /* \"@thirdweb-dev/contracts/extension/Multicall.sol\":1143:1150   */\n      dup5\n        /* \"@thirdweb-dev/contracts/extension/Multicall.sol\":1151:1152   */\n      dup3\n        /* \"@thirdweb-dev/contracts/extension/Multicall.sol\":1143:1153   */\n      dup2\n      mload\n      dup2\n      lt\n      tag_262\n      jumpi\n      tag_262\n      tag_248\n      jump\t// in\n    tag_262:\n      0x20\n      mul\n      0x20\n      add\n      add\n        /* \"@thirdweb-dev/contracts/extension/Multicall.sol\":1143:1208   */\n      dup2\n      swap1\n      mstore\n      pop\n        /* \"@thirdweb-dev/contracts/extension/Multicall.sol\":978:1223   */\n    tag_256:\n        /* \"@thirdweb-dev/contracts/extension/Multicall.sol\":959:962   */\n      0x01\n      add\n        /* \"@thirdweb-dev/contracts/extension/Multicall.sol\":922:1233   */\n      jump(tag_241)\n    tag_242:\n      pop\n        /* \"@thirdweb-dev/contracts/extension/Multicall.sol\":1242:1256   */\n      pop\n      pop\n        /* \"@thirdweb-dev/contracts/extension/Multicall.sol\":696:1263   */\n      swap3\n      swap2\n      pop\n      pop\n      jump\t// out\n        /* \"@thirdweb-dev/contracts/external-deps/openzeppelin/token/ERC20/extensions/ERC20Permit.sol\":2056:2707   */\n    tag_125:\n        /* \"@thirdweb-dev/contracts/external-deps/openzeppelin/token/ERC20/extensions/ERC20Permit.sol\":2291:2299   */\n      dup4\n        /* \"@thirdweb-dev/contracts/external-deps/openzeppelin/token/ERC20/extensions/ERC20Permit.sol\":2272:2287   */\n      timestamp\n        /* \"@thirdweb-dev/contracts/external-deps/openzeppelin/token/ERC20/extensions/ERC20Permit.sol\":2272:2299   */\n      gt\n      iszero\n        /* \"@thirdweb-dev/contracts/external-deps/openzeppelin/token/ERC20/extensions/ERC20Permit.sol\":2264:2333   */\n      tag_264\n      jumpi\n      mload(0x40)\n      shl(0xe5, 0x461bcd)\n      dup2\n      mstore\n        /* \"#utility.yul\":11584:11586   */\n      0x20\n        /* \"@thirdweb-dev/contracts/external-deps/openzeppelin/token/ERC20/extensions/ERC20Permit.sol\":2264:2333   */\n      0x04\n      dup3\n      add\n        /* \"#utility.yul\":11566:11587   */\n      mstore\n        /* \"#utility.yul\":11623:11625   */\n      0x1d\n        /* \"#utility.yul\":11603:11621   */\n      0x24\n      dup3\n      add\n        /* \"#utility.yul\":11596:11626   */\n      mstore\n        /* \"#utility.yul\":11662:11693   */\n      0x45524332305065726d69743a206578706972656420646561646c696e65000000\n        /* \"#utility.yul\":11642:11660   */\n      0x44\n      dup3\n      add\n        /* \"#utility.yul\":11635:11694   */\n      mstore\n        /* \"#utility.yul\":11711:11729   */\n      0x64\n      add\n        /* \"@thirdweb-dev/contracts/external-deps/openzeppelin/token/ERC20/extensions/ERC20Permit.sol\":2264:2333   */\n      tag_183\n        /* \"#utility.yul\":11382:11735   */\n      jump\n        /* \"@thirdweb-dev/contracts/external-deps/openzeppelin/token/ERC20/extensions/ERC20Permit.sol\":2264:2333   */\n    tag_264:\n        /* \"@thirdweb-dev/contracts/external-deps/openzeppelin/token/ERC20/extensions/ERC20Permit.sol\":2344:2362   */\n      0x00\n        /* \"@thirdweb-dev/contracts/external-deps/openzeppelin/token/ERC20/extensions/ERC20Permit.sol\":2386:2402   */\n      immutable(\"0xe5cebca563767d70f633da2b5b354dc23c2b3d28637e3f1469cc9441475de40d\")\n        /* \"@thirdweb-dev/contracts/external-deps/openzeppelin/token/ERC20/extensions/ERC20Permit.sol\":2404:2409   */\n      dup9\n        /* \"@thirdweb-dev/contracts/external-deps/openzeppelin/token/ERC20/extensions/ERC20Permit.sol\":2411:2418   */\n      dup9\n        /* \"@thirdweb-dev/contracts/external-deps/openzeppelin/token/ERC20/extensions/ERC20Permit.sol\":2420:2425   */\n      dup9\n        /* \"@thirdweb-dev/contracts/external-deps/openzeppelin/token/ERC20/extensions/ERC20Permit.sol\":2427:2443   */\n      tag_267\n        /* \"@thirdweb-dev/contracts/external-deps/openzeppelin/token/ERC20/extensions/ERC20Permit.sol\":2437:2442   */\n      dup13\n        /* \"@thirdweb-dev/contracts/external-deps/openzeppelin/token/ERC20/extensions/ERC20Permit.sol\":2427:2436   */\n      tag_268\n        /* \"@thirdweb-dev/contracts/external-deps/openzeppelin/token/ERC20/extensions/ERC20Permit.sol\":2427:2443   */\n      jump\t// in\n    tag_267:\n        /* \"@thirdweb-dev/contracts/external-deps/openzeppelin/token/ERC20/extensions/ERC20Permit.sol\":2375:2454   */\n      0x40\n      dup1\n      mload\n      0x20\n      dup2\n      add\n        /* \"#utility.yul\":12027:12052   */\n      swap7\n      swap1\n      swap7\n      mstore\n      sub(shl(0xa0, 0x01), 0x01)\n        /* \"#utility.yul\":12149:12164   */\n      swap5\n      dup6\n      and\n        /* \"#utility.yul\":12129:12147   */\n      swap1\n      dup7\n      add\n        /* \"#utility.yul\":12122:12165   */\n      mstore\n        /* \"#utility.yul\":12201:12216   */\n      swap3\n      swap1\n      swap2\n      and\n        /* \"#utility.yul\":12181:12199   */\n      0x60\n      dup5\n      add\n        /* \"#utility.yul\":12174:12217   */\n      mstore\n        /* \"#utility.yul\":12233:12251   */\n      0x80\n      dup4\n      add\n        /* \"#utility.yul\":12226:12260   */\n      mstore\n        /* \"#utility.yul\":12276:12295   */\n      0xa0\n      dup3\n      add\n        /* \"#utility.yul\":12269:12304   */\n      mstore\n        /* \"#utility.yul\":12320:12339   */\n      0xc0\n      dup2\n      add\n        /* \"#utility.yul\":12313:12348   */\n      dup7\n      swap1\n      mstore\n        /* \"#utility.yul\":11999:12018   */\n      0xe0\n      add\n        /* \"@thirdweb-dev/contracts/external-deps/openzeppelin/token/ERC20/extensions/ERC20Permit.sol\":2375:2454   */\n      mload(0x40)\n      0x20\n      dup2\n      dup4\n      sub\n      sub\n      dup2\n      mstore\n      swap1\n      0x40\n      mstore\n        /* \"@thirdweb-dev/contracts/external-deps/openzeppelin/token/ERC20/extensions/ERC20Permit.sol\":2365:2455   */\n      dup1\n      mload\n      swap1\n      0x20\n      add\n      keccak256\n        /* \"@thirdweb-dev/contracts/external-deps/openzeppelin/token/ERC20/extensions/ERC20Permit.sol\":2344:2455   */\n      swap1\n      pop\n        /* \"@thirdweb-dev/contracts/external-deps/openzeppelin/token/ERC20/extensions/ERC20Permit.sol\":2466:2478   */\n      0x00\n        /* \"@thirdweb-dev/contracts/external-deps/openzeppelin/token/ERC20/extensions/ERC20Permit.sol\":2481:2534   */\n      tag_271\n        /* \"@thirdweb-dev/contracts/external-deps/openzeppelin/token/ERC20/extensions/ERC20Permit.sol\":2503:2521   */\n      tag_272\n        /* \"@thirdweb-dev/contracts/external-deps/openzeppelin/token/ERC20/extensions/ERC20Permit.sol\":2503:2519   */\n      tag_63\n        /* \"@thirdweb-dev/contracts/external-deps/openzeppelin/token/ERC20/extensions/ERC20Permit.sol\":2503:2521   */\n      jump\t// in\n    tag_272:\n        /* \"@thirdweb-dev/contracts/external-deps/openzeppelin/token/ERC20/extensions/ERC20Permit.sol\":2523:2533   */\n      dup4\n        /* \"@thirdweb-dev/contracts/external-deps/openzeppelin/utils/cryptography/ECDSA.sol\":8549:8553   */\n      0x40\n        /* \"@thirdweb-dev/contracts/external-deps/openzeppelin/utils/cryptography/ECDSA.sol\":8543:8554   */\n      mload\n      shl(0xf0, 0x1901)\n        /* \"@thirdweb-dev/contracts/external-deps/openzeppelin/utils/cryptography/ECDSA.sol\":8567:8590   */\n      dup2\n      mstore\n        /* \"@thirdweb-dev/contracts/external-deps/openzeppelin/utils/cryptography/ECDSA.sol\":8619:8623   */\n      0x02\n        /* \"@thirdweb-dev/contracts/external-deps/openzeppelin/utils/cryptography/ECDSA.sol\":8610:8624   */\n      dup2\n      add\n        /* \"@thirdweb-dev/contracts/external-deps/openzeppelin/utils/cryptography/ECDSA.sol\":8603:8642   */\n      swap3\n      swap1\n      swap3\n      mstore\n        /* \"@thirdweb-dev/contracts/external-deps/openzeppelin/utils/cryptography/ECDSA.sol\":8671:8675   */\n      0x22\n        /* \"@thirdweb-dev/contracts/external-deps/openzeppelin/utils/cryptography/ECDSA.sol\":8662:8676   */\n      dup3\n      add\n        /* \"@thirdweb-dev/contracts/external-deps/openzeppelin/utils/cryptography/ECDSA.sol\":8655:8689   */\n      mstore\n        /* \"@thirdweb-dev/contracts/external-deps/openzeppelin/utils/cryptography/ECDSA.sol\":8725:8729   */\n      0x42\n        /* \"@thirdweb-dev/contracts/external-deps/openzeppelin/utils/cryptography/ECDSA.sol\":8710:8730   */\n      swap1\n      keccak256\n      swap1\n        /* \"@thirdweb-dev/contracts/external-deps/openzeppelin/utils/cryptography/ECDSA.sol\":8349:8746   */\n      jump\n        /* \"@thirdweb-dev/contracts/external-deps/openzeppelin/token/ERC20/extensions/ERC20Permit.sol\":2481:2534   */\n    tag_271:\n        /* \"@thirdweb-dev/contracts/external-deps/openzeppelin/token/ERC20/extensions/ERC20Permit.sol\":2466:2534   */\n      swap1\n      pop\n        /* \"@thirdweb-dev/contracts/external-deps/openzeppelin/token/ERC20/extensions/ERC20Permit.sol\":2545:2559   */\n      0x00\n        /* \"@thirdweb-dev/contracts/external-deps/openzeppelin/token/ERC20/extensions/ERC20Permit.sol\":2562:2590   */\n      tag_274\n        /* \"@thirdweb-dev/contracts/external-deps/openzeppelin/token/ERC20/extensions/ERC20Permit.sol\":2576:2580   */\n      dup3\n        /* \"@thirdweb-dev/contracts/external-deps/openzeppelin/token/ERC20/extensions/ERC20Permit.sol\":2582:2583   */\n      dup8\n        /* \"@thirdweb-dev/contracts/external-deps/openzeppelin/token/ERC20/extensions/ERC20Permit.sol\":2585:2586   */\n      dup8\n        /* \"@thirdweb-dev/contracts/external-deps/openzeppelin/token/ERC20/extensions/ERC20Permit.sol\":2588:2589   */\n      dup8\n        /* \"@thirdweb-dev/contracts/external-deps/openzeppelin/token/ERC20/extensions/ERC20Permit.sol\":2562:2575   */\n      tag_275\n        /* \"@thirdweb-dev/contracts/external-deps/openzeppelin/token/ERC20/extensions/ERC20Permit.sol\":2562:2590   */\n      jump\t// in\n    tag_274:\n        /* \"@thirdweb-dev/contracts/external-deps/openzeppelin/token/ERC20/extensions/ERC20Permit.sol\":2545:2590   */\n      swap1\n      pop\n        /* \"@thirdweb-dev/contracts/external-deps/openzeppelin/token/ERC20/extensions/ERC20Permit.sol\":2618:2623   */\n      dup10\n      sub(shl(0xa0, 0x01), 0x01)\n        /* \"@thirdweb-dev/contracts/external-deps/openzeppelin/token/ERC20/extensions/ERC20Permit.sol\":2608:2623   */\n      and\n        /* \"@thirdweb-dev/contracts/external-deps/openzeppelin/token/ERC20/extensions/ERC20Permit.sol\":2608:2614   */\n      dup2\n      sub(shl(0xa0, 0x01), 0x01)\n        /* \"@thirdweb-dev/contracts/external-deps/openzeppelin/token/ERC20/extensions/ERC20Permit.sol\":2608:2623   */\n      and\n      eq\n        /* \"@thirdweb-dev/contracts/external-deps/openzeppelin/token/ERC20/extensions/ERC20Permit.sol\":2600:2658   */\n      tag_276\n      jumpi\n      mload(0x40)\n      shl(0xe5, 0x461bcd)\n      dup2\n      mstore\n        /* \"#utility.yul\":12561:12563   */\n      0x20\n        /* \"@thirdweb-dev/contracts/external-deps/openzeppelin/token/ERC20/extensions/ERC20Permit.sol\":2600:2658   */\n      0x04\n      dup3\n      add\n        /* \"#utility.yul\":12543:12564   */\n      mstore\n        /* \"#utility.yul\":12600:12602   */\n      0x1e\n        /* \"#utility.yul\":12580:12598   */\n      0x24\n      dup3\n      add\n        /* \"#utility.yul\":12573:12603   */\n      mstore\n        /* \"#utility.yul\":12639:12671   */\n      0x45524332305065726d69743a20696e76616c6964207369676e61747572650000\n        /* \"#utility.yul\":12619:12637   */\n      0x44\n      dup3\n      add\n        /* \"#utility.yul\":12612:12672   */\n      mstore\n        /* \"#utility.yul\":12689:12707   */\n      0x64\n      add\n        /* \"@thirdweb-dev/contracts/external-deps/openzeppelin/token/ERC20/extensions/ERC20Permit.sol\":2600:2658   */\n      tag_183\n        /* \"#utility.yul\":12359:12713   */\n      jump\n        /* \"@thirdweb-dev/contracts/external-deps/openzeppelin/token/ERC20/extensions/ERC20Permit.sol\":2600:2658   */\n    tag_276:\n        /* \"@thirdweb-dev/contracts/external-deps/openzeppelin/token/ERC20/extensions/ERC20Permit.sol\":2669:2700   */\n      tag_279\n        /* \"@thirdweb-dev/contracts/external-deps/openzeppelin/token/ERC20/extensions/ERC20Permit.sol\":2678:2683   */\n      dup11\n        /* \"@thirdweb-dev/contracts/external-deps/openzeppelin/token/ERC20/extensions/ERC20Permit.sol\":2685:2692   */\n      dup11\n        /* \"@thirdweb-dev/contracts/external-deps/openzeppelin/token/ERC20/extensions/ERC20Permit.sol\":2694:2699   */\n      dup11\n        /* \"@thirdweb-dev/contracts/external-deps/openzeppelin/token/ERC20/extensions/ERC20Permit.sol\":2669:2677   */\n      tag_149\n        /* \"@thirdweb-dev/contracts/external-deps/openzeppelin/token/ERC20/extensions/ERC20Permit.sol\":2669:2700   */\n      jump\t// in\n    tag_279:\n        /* \"@thirdweb-dev/contracts/external-deps/openzeppelin/token/ERC20/extensions/ERC20Permit.sol\":2254:2707   */\n      pop\n      pop\n      pop\n        /* \"@thirdweb-dev/contracts/external-deps/openzeppelin/token/ERC20/extensions/ERC20Permit.sol\":2056:2707   */\n      pop\n      pop\n      pop\n      pop\n      pop\n      pop\n      pop\n      jump\t// out\n        /* \"mojo.sol\":1213:1882  function allocateContribution(... */\n    tag_129:\n        /* \"@thirdweb-dev/contracts/extension/Ownable.sol\":822:828   */\n      and(sub(shl(0xa0, 0x01), 0x01), sload(0x01))\n        /* \"@thirdweb-dev/contracts/extension/Ownable.sol\":808:818   */\n      caller\n        /* \"@thirdweb-dev/contracts/extension/Ownable.sol\":808:828   */\n      eq\n        /* \"@thirdweb-dev/contracts/extension/Ownable.sol\":804:883   */\n      tag_281\n      jumpi\n        /* \"@thirdweb-dev/contracts/extension/Ownable.sol\":851:872   */\n      mload(0x40)\n      shl(0xe1, 0x16ccb9cb)\n      dup2\n      mstore\n      0x04\n      add\n      mload(0x40)\n      dup1\n      swap2\n      sub\n      swap1\n      revert\n        /* \"@thirdweb-dev/contracts/extension/Ownable.sol\":804:883   */\n    tag_281:\n      sub(shl(0xa0, 0x01), 0x01)\n        /* \"mojo.sol\":1404:1420  to != address(0) */\n      dup6\n      and\n        /* \"mojo.sol\":1396:1442  require(to != address(0), \"Invalid recipient\") */\n      tag_283\n      jumpi\n      mload(0x40)\n      shl(0xe5, 0x461bcd)\n      dup2\n      mstore\n        /* \"#utility.yul\":12920:12922   */\n      0x20\n        /* \"mojo.sol\":1396:1442  require(to != address(0), \"Invalid recipient\") */\n      0x04\n      dup3\n      add\n        /* \"#utility.yul\":12902:12923   */\n      mstore\n        /* \"#utility.yul\":12959:12961   */\n      0x11\n        /* \"#utility.yul\":12939:12957   */\n      0x24\n      dup3\n      add\n        /* \"#utility.yul\":12932:12962   */\n      mstore\n        /* \"#utility.yul\":12998:13017   */\n      0x496e76616c696420726563697069656e74000000000000000000000000000000\n        /* \"#utility.yul\":12978:12996   */\n      0x44\n      dup3\n      add\n        /* \"#utility.yul\":12971:13018   */\n      mstore\n        /* \"#utility.yul\":13035:13053   */\n      0x64\n      add\n        /* \"mojo.sol\":1396:1442  require(to != address(0), \"Invalid recipient\") */\n      tag_183\n        /* \"#utility.yul\":12718:13059   */\n      jump\n        /* \"mojo.sol\":1396:1442  require(to != address(0), \"Invalid recipient\") */\n    tag_283:\n        /* \"mojo.sol\":1482:1488  amount */\n      dup4\n        /* \"mojo.sol\":1460:1478  balanceOf(owner()) */\n      tag_286\n        /* \"mojo.sol\":1470:1477  owner() */\n      tag_78\n        /* \"@thirdweb-dev/contracts/extension/Ownable.sol\":1046:1052   */\n      and(sub(shl(0xa0, 0x01), 0x01), sload(0x01))\n      swap1\n        /* \"@thirdweb-dev/contracts/extension/Ownable.sol\":973:1059   */\n      jump\n        /* \"mojo.sol\":1460:1478  balanceOf(owner()) */\n    tag_286:\n        /* \"mojo.sol\":1460:1488  balanceOf(owner()) >= amount */\n      lt\n      iszero\n        /* \"mojo.sol\":1452:1521  require(balanceOf(owner()) >= amount, \"Insufficient treasury tokens\") */\n      tag_288\n      jumpi\n      mload(0x40)\n      shl(0xe5, 0x461bcd)\n      dup2\n      mstore\n        /* \"#utility.yul\":13266:13268   */\n      0x20\n        /* \"mojo.sol\":1452:1521  require(balanceOf(owner()) >= amount, \"Insufficient treasury tokens\") */\n      0x04\n      dup3\n      add\n        /* \"#utility.yul\":13248:13269   */\n      mstore\n        /* \"#utility.yul\":13305:13307   */\n      0x1c\n        /* \"#utility.yul\":13285:13303   */\n      0x24\n      dup3\n      add\n        /* \"#utility.yul\":13278:13308   */\n      mstore\n        /* \"#utility.yul\":13344:13374   */\n      0x496e73756666696369656e7420747265617375727920746f6b656e7300000000\n        /* \"#utility.yul\":13324:13342   */\n      0x44\n      dup3\n      add\n        /* \"#utility.yul\":13317:13375   */\n      mstore\n        /* \"#utility.yul\":13392:13410   */\n      0x64\n      add\n        /* \"mojo.sol\":1452:1521  require(balanceOf(owner()) >= amount, \"Insufficient treasury tokens\") */\n      tag_183\n        /* \"#utility.yul\":13064:13416   */\n      jump\n        /* \"mojo.sol\":1452:1521  require(balanceOf(owner()) >= amount, \"Insufficient treasury tokens\") */\n    tag_288:\n        /* \"mojo.sol\":1532:1562  _transfer(owner(), to, amount) */\n      tag_291\n        /* \"mojo.sol\":1542:1549  owner() */\n      tag_292\n        /* \"@thirdweb-dev/contracts/extension/Ownable.sol\":1046:1052   */\n      and(sub(shl(0xa0, 0x01), 0x01), sload(0x01))\n      swap1\n        /* \"@thirdweb-dev/contracts/extension/Ownable.sol\":973:1059   */\n      jump\n        /* \"mojo.sol\":1542:1549  owner() */\n    tag_292:\n        /* \"mojo.sol\":1551:1553  to */\n      dup7\n        /* \"mojo.sol\":1555:1561  amount */\n      dup7\n        /* \"mojo.sol\":1532:1541  _transfer */\n      tag_162\n        /* \"mojo.sol\":1532:1562  _transfer(owner(), to, amount) */\n      jump\t// in\n    tag_291:\n        /* \"mojo.sol\":1573:1593  projectContributions */\n      0x08\n        /* \"mojo.sol\":1573:1604  projectContributions[projectId] */\n      0x00\n        /* \"mojo.sol\":1594:1603  projectId */\n      dup5\n        /* \"mojo.sol\":1573:1604  projectContributions[projectId] */\n      dup2\n      mstore\n      0x20\n      add\n      swap1\n      dup2\n      mstore\n      0x20\n      add\n      0x00\n      keccak256\n        /* \"mojo.sol\":1623:1796  Contribution({... */\n      mload(0x40)\n      dup1\n      0x80\n      add\n      0x40\n      mstore\n      dup1\n        /* \"mojo.sol\":1667:1669  to */\n      dup8\n      sub(shl(0xa0, 0x01), 0x01)\n        /* \"mojo.sol\":1623:1796  Contribution({... */\n      and\n      dup2\n      mstore\n      0x20\n      add\n        /* \"mojo.sol\":1693:1697  role */\n      dup5\n        /* \"mojo.sol\":1623:1796  Contribution({... */\n      0x01\n      dup2\n      gt\n      iszero\n      tag_294\n      jumpi\n      tag_294\n      tag_295\n      jump\t// in\n    tag_294:\n      dup2\n      mstore\n      0x20\n      dup1\n      dup3\n      add\n      dup6\n      swap1\n      mstore\n        /* \"mojo.sol\":1766:1781  block.timestamp */\n      timestamp\n        /* \"mojo.sol\":1623:1796  Contribution({... */\n      0x40\n      swap1\n      swap3\n      add\n      swap2\n      swap1\n      swap2\n      mstore\n        /* \"mojo.sol\":1573:1806  projectContributions[projectId].push(... */\n      dup3\n      sload\n      0x01\n      dup2\n      dup2\n      add\n      dup6\n      sstore\n      0x00\n      swap5\n      dup6\n      mstore\n      swap4\n      dup3\n      swap1\n      keccak256\n      dup4\n      mload\n      0x03\n      swap1\n      swap3\n      mul\n      add\n      dup1\n      sload\n      sub(shl(0xa0, 0x01), 0x01)\n      swap1\n      swap3\n      and\n      not(0xffffffffffffffffffffffffffffffffffffffff)\n      dup4\n      and\n      dup2\n      or\n      dup3\n      sstore\n      swap3\n      dup5\n      add\n      mload\n      swap4\n      swap5\n      swap1\n      swap4\n      swap3\n      dup5\n      swap3\n      0xffffffffffffffffffffff000000000000000000000000000000000000000000\n      and\n      or\n      swap1\n      shl(0xa0, 0x01)\n      swap1\n      dup5\n      swap1\n      dup2\n      gt\n      iszero\n      tag_298\n      jumpi\n      tag_298\n      tag_295\n      jump\t// in\n    tag_298:\n      mul\n      or\n      swap1\n      sstore\n      pop\n      0x40\n      dup3\n      add\n      mload\n      dup2\n      0x01\n      add\n      sstore\n      0x60\n      dup3\n      add\n      mload\n      dup2\n      0x02\n      add\n      sstore\n      pop\n      pop\n        /* \"mojo.sol\":1854:1856  to */\n      dup5\n      sub(shl(0xa0, 0x01), 0x01)\n        /* \"mojo.sol\":1822:1875  ContributionRecorded(projectId, to, role, percentage) */\n      and\n        /* \"mojo.sol\":1843:1852  projectId */\n      dup4\n        /* \"mojo.sol\":1822:1875  ContributionRecorded(projectId, to, role, percentage) */\n      0xe61fff04519ec4968ac0495e2e80af6a9c688db045b5c00ab20ee392e0aa7383\n        /* \"mojo.sol\":1858:1862  role */\n      dup5\n        /* \"mojo.sol\":1864:1874  percentage */\n      dup5\n        /* \"mojo.sol\":1822:1875  ContributionRecorded(projectId, to, role, percentage) */\n      mload(0x40)\n      tag_299\n      swap3\n      swap2\n      swap1\n      tag_300\n      jump\t// in\n    tag_299:\n      mload(0x40)\n      dup1\n      swap2\n      sub\n      swap1\n      log3\n        /* \"mojo.sol\":1213:1882  function allocateContribution(... */\n      pop\n      pop\n      pop\n      pop\n      pop\n      jump\t// out\n        /* \"@thirdweb-dev/contracts/extension/ContractMetadata.sol\":672:706   */\n    tag_136:\n      0x00\n      dup1\n      sload\n      tag_302\n      swap1\n      tag_140\n      jump\t// in\n    tag_302:\n      dup1\n      0x1f\n      add\n      0x20\n      dup1\n      swap2\n      div\n      mul\n      0x20\n      add\n      mload(0x40)\n      swap1\n      dup2\n      add\n      0x40\n      mstore\n      dup1\n      swap3\n      swap2\n      swap1\n      dup2\n      dup2\n      mstore\n      0x20\n      add\n      dup3\n      dup1\n      sload\n      tag_303\n      swap1\n      tag_140\n      jump\t// in\n    tag_303:\n      dup1\n      iszero\n      tag_304\n      jumpi\n      dup1\n      0x1f\n      lt\n      tag_305\n      jumpi\n      0x0100\n      dup1\n      dup4\n      sload\n      div\n      mul\n      dup4\n      mstore\n      swap2\n      0x20\n      add\n      swap2\n      jump(tag_304)\n    tag_305:\n      dup3\n      add\n      swap2\n      swap1\n      0x00\n      mstore\n      keccak256(0x00, 0x20)\n      swap1\n    tag_306:\n      dup2\n      sload\n      dup2\n      mstore\n      swap1\n      0x01\n      add\n      swap1\n      0x20\n      add\n      dup1\n      dup4\n      gt\n      tag_306\n      jumpi\n      dup3\n      swap1\n      sub\n      0x1f\n      and\n      dup3\n      add\n      swap2\n    tag_304:\n      pop\n      pop\n      pop\n      pop\n      pop\n      dup2\n      jump\t// out\n        /* \"@thirdweb-dev/contracts/external-deps/openzeppelin/token/ERC20/ERC20.sol\":10100:10440   */\n    tag_149:\n      sub(shl(0xa0, 0x01), 0x01)\n        /* \"@thirdweb-dev/contracts/external-deps/openzeppelin/token/ERC20/ERC20.sol\":10201:10220   */\n      dup4\n      and\n        /* \"@thirdweb-dev/contracts/external-deps/openzeppelin/token/ERC20/ERC20.sol\":10193:10261   */\n      tag_309\n      jumpi\n      mload(0x40)\n      shl(0xe5, 0x461bcd)\n      dup2\n      mstore\n        /* \"#utility.yul\":13896:13898   */\n      0x20\n        /* \"@thirdweb-dev/contracts/external-deps/openzeppelin/token/ERC20/ERC20.sol\":10193:10261   */\n      0x04\n      dup3\n      add\n        /* \"#utility.yul\":13878:13899   */\n      mstore\n        /* \"#utility.yul\":13935:13937   */\n      0x24\n        /* \"#utility.yul\":13915:13933   */\n      dup1\n      dup3\n      add\n        /* \"#utility.yul\":13908:13938   */\n      mstore\n        /* \"#utility.yul\":13974:14008   */\n      0x45524332303a20617070726f76652066726f6d20746865207a65726f20616464\n        /* \"#utility.yul\":13954:13972   */\n      0x44\n      dup3\n      add\n        /* \"#utility.yul\":13947:14009   */\n      mstore\n      shl(0xe0, 0x72657373)\n        /* \"#utility.yul\":14025:14043   */\n      0x64\n      dup3\n      add\n        /* \"#utility.yul\":14018:14052   */\n      mstore\n        /* \"#utility.yul\":14069:14088   */\n      0x84\n      add\n        /* \"@thirdweb-dev/contracts/external-deps/openzeppelin/token/ERC20/ERC20.sol\":10193:10261   */\n      tag_183\n        /* \"#utility.yul\":13694:14094   */\n      jump\n        /* \"@thirdweb-dev/contracts/external-deps/openzeppelin/token/ERC20/ERC20.sol\":10193:10261   */\n    tag_309:\n      sub(shl(0xa0, 0x01), 0x01)\n        /* \"@thirdweb-dev/contracts/external-deps/openzeppelin/token/ERC20/ERC20.sol\":10279:10300   */\n      dup3\n      and\n        /* \"@thirdweb-dev/contracts/external-deps/openzeppelin/token/ERC20/ERC20.sol\":10271:10339   */\n      tag_312\n      jumpi\n      mload(0x40)\n      shl(0xe5, 0x461bcd)\n      dup2\n      mstore\n        /* \"#utility.yul\":14301:14303   */\n      0x20\n        /* \"@thirdweb-dev/contracts/external-deps/openzeppelin/token/ERC20/ERC20.sol\":10271:10339   */\n      0x04\n      dup3\n      add\n        /* \"#utility.yul\":14283:14304   */\n      mstore\n        /* \"#utility.yul\":14340:14342   */\n      0x22\n        /* \"#utility.yul\":14320:14338   */\n      0x24\n      dup3\n      add\n        /* \"#utility.yul\":14313:14343   */\n      mstore\n        /* \"#utility.yul\":14379:14413   */\n      0x45524332303a20617070726f766520746f20746865207a65726f206164647265\n        /* \"#utility.yul\":14359:14377   */\n      0x44\n      dup3\n      add\n        /* \"#utility.yul\":14352:14414   */\n      mstore\n      shl(0xf0, 0x7373)\n        /* \"#utility.yul\":14430:14448   */\n      0x64\n      dup3\n      add\n        /* \"#utility.yul\":14423:14455   */\n      mstore\n        /* \"#utility.yul\":14472:14491   */\n      0x84\n      add\n        /* \"@thirdweb-dev/contracts/external-deps/openzeppelin/token/ERC20/ERC20.sol\":10271:10339   */\n      tag_183\n        /* \"#utility.yul\":14099:14497   */\n      jump\n        /* \"@thirdweb-dev/contracts/external-deps/openzeppelin/token/ERC20/ERC20.sol\":10271:10339   */\n    tag_312:\n      sub(shl(0xa0, 0x01), 0x01)\n        /* \"@thirdweb-dev/contracts/external-deps/openzeppelin/token/ERC20/ERC20.sol\":10350:10368   */\n      dup4\n      dup2\n      and\n      0x00\n      dup2\n      dup2\n      mstore\n        /* \"@thirdweb-dev/contracts/external-deps/openzeppelin/token/ERC20/ERC20.sol\":10350:10361   */\n      0x03\n        /* \"@thirdweb-dev/contracts/external-deps/openzeppelin/token/ERC20/ERC20.sol\":10350:10368   */\n      0x20\n      swap1\n      dup2\n      mstore\n      0x40\n      dup1\n      dup4\n      keccak256\n        /* \"@thirdweb-dev/contracts/external-deps/openzeppelin/token/ERC20/ERC20.sol\":10350:10377   */\n      swap5\n      dup8\n      and\n      dup1\n      dup5\n      mstore\n      swap5\n      dup3\n      mstore\n      swap2\n      dup3\n      swap1\n      keccak256\n        /* \"@thirdweb-dev/contracts/external-deps/openzeppelin/token/ERC20/ERC20.sol\":10350:10386   */\n      dup6\n      swap1\n      sstore\n        /* \"@thirdweb-dev/contracts/external-deps/openzeppelin/token/ERC20/ERC20.sol\":10401:10433   */\n      swap1\n      mload\n        /* \"#utility.yul\":1522:1547   */\n      dup5\n      dup2\n      mstore\n        /* \"@thirdweb-dev/contracts/external-deps/openzeppelin/token/ERC20/ERC20.sol\":10401:10433   */\n      0x8c5be1e5ebec7d5bd14f71427d1e84f3dd0314c0f7b2291e5b200ac8c7c3b925\n      swap2\n        /* \"#utility.yul\":1495:1513   */\n      add\n        /* \"@thirdweb-dev/contracts/external-deps/openzeppelin/token/ERC20/ERC20.sol\":10401:10433   */\n      mload(0x40)\n      dup1\n      swap2\n      sub\n      swap1\n      log3\n        /* \"@thirdweb-dev/contracts/external-deps/openzeppelin/token/ERC20/ERC20.sol\":10100:10440   */\n      pop\n      pop\n      pop\n      jump\t// out\n        /* \"@thirdweb-dev/contracts/base/ERC20Base.sol\":4190:4305   */\n    tag_152:\n        /* \"@thirdweb-dev/contracts/base/ERC20Base.sol\":4254:4258   */\n      0x00\n        /* \"@thirdweb-dev/contracts/base/ERC20Base.sol\":4291:4298   */\n      tag_317\n        /* \"@thirdweb-dev/contracts/extension/Ownable.sol\":1046:1052   */\n      and(sub(shl(0xa0, 0x01), 0x01), sload(0x01))\n      swap1\n        /* \"@thirdweb-dev/contracts/extension/Ownable.sol\":973:1059   */\n      jump\n        /* \"@thirdweb-dev/contracts/base/ERC20Base.sol\":4291:4298   */\n    tag_317:\n      sub(shl(0xa0, 0x01), 0x01)\n        /* \"@thirdweb-dev/contracts/base/ERC20Base.sol\":4277:4298   */\n      and\n        /* \"@thirdweb-dev/contracts/base/ERC20Base.sol\":4277:4287   */\n      caller\n      sub(shl(0xa0, 0x01), 0x01)\n        /* \"@thirdweb-dev/contracts/base/ERC20Base.sol\":4277:4298   */\n      and\n      eq\n        /* \"@thirdweb-dev/contracts/base/ERC20Base.sol\":4270:4298   */\n      swap1\n      pop\n        /* \"@thirdweb-dev/contracts/base/ERC20Base.sol\":4190:4305   */\n      swap1\n      jump\t// out\n        /* \"@thirdweb-dev/contracts/extension/Ownable.sol\":1527:1699   */\n    tag_155:\n        /* \"@thirdweb-dev/contracts/extension/Ownable.sol\":1607:1613   */\n      0x01\n      dup1\n      sload\n      sub(shl(0xa0, 0x01), 0x01)\n        /* \"@thirdweb-dev/contracts/extension/Ownable.sol\":1623:1641   */\n      dup4\n      dup2\n      and\n      not(0xffffffffffffffffffffffffffffffffffffffff)\n      dup4\n      and\n      dup2\n      or\n      swap1\n      swap4\n      sstore\n        /* \"@thirdweb-dev/contracts/extension/Ownable.sol\":1657:1692   */\n      mload(0x40)\n        /* \"@thirdweb-dev/contracts/extension/Ownable.sol\":1607:1613   */\n      swap2\n      and\n      swap2\n        /* \"@thirdweb-dev/contracts/extension/Ownable.sol\":1623:1641   */\n      swap1\n        /* \"@thirdweb-dev/contracts/extension/Ownable.sol\":1607:1613   */\n      dup3\n      swap1\n        /* \"@thirdweb-dev/contracts/extension/Ownable.sol\":1657:1692   */\n      0x8292fce18fa69edf4db7b94ea2e58241df0ae57f97e0a6c9b29067028bf92d76\n      swap1\n        /* \"@thirdweb-dev/contracts/extension/Ownable.sol\":1586:1604   */\n      0x00\n      swap1\n        /* \"@thirdweb-dev/contracts/extension/Ownable.sol\":1657:1692   */\n      log3\n        /* \"@thirdweb-dev/contracts/extension/Ownable.sol\":1576:1699   */\n      pop\n        /* \"@thirdweb-dev/contracts/extension/Ownable.sol\":1527:1699   */\n      pop\n      jump\t// out\n        /* \"@thirdweb-dev/contracts/external-deps/openzeppelin/token/ERC20/ERC20.sol\":10717:11128   */\n    tag_160:\n      sub(shl(0xa0, 0x01), 0x01)\n        /* \"@thirdweb-dev/contracts/external-deps/openzeppelin/token/ERC20/ERC20.sol\":4128:4146   */\n      dup4\n      dup2\n      and\n        /* \"@thirdweb-dev/contracts/external-deps/openzeppelin/token/ERC20/ERC20.sol\":10817:10841   */\n      0x00\n        /* \"@thirdweb-dev/contracts/external-deps/openzeppelin/token/ERC20/ERC20.sol\":4128:4146   */\n      swap1\n      dup2\n      mstore\n        /* \"@thirdweb-dev/contracts/external-deps/openzeppelin/token/ERC20/ERC20.sol\":4128:4139   */\n      0x03\n        /* \"@thirdweb-dev/contracts/external-deps/openzeppelin/token/ERC20/ERC20.sol\":4128:4146   */\n      0x20\n      swap1\n      dup2\n      mstore\n      0x40\n      dup1\n      dup4\n      keccak256\n        /* \"@thirdweb-dev/contracts/external-deps/openzeppelin/token/ERC20/ERC20.sol\":4128:4155   */\n      swap4\n      dup7\n      and\n      dup4\n      mstore\n      swap3\n      swap1\n      mstore\n      keccak256\n      sload\n      not(0x00)\n        /* \"@thirdweb-dev/contracts/external-deps/openzeppelin/token/ERC20/ERC20.sol\":10883:10920   */\n      dup2\n      eq\n        /* \"@thirdweb-dev/contracts/external-deps/openzeppelin/token/ERC20/ERC20.sol\":10879:11122   */\n      tag_325\n      jumpi\n        /* \"@thirdweb-dev/contracts/external-deps/openzeppelin/token/ERC20/ERC20.sol\":10964:10970   */\n      dup2\n        /* \"@thirdweb-dev/contracts/external-deps/openzeppelin/token/ERC20/ERC20.sol\":10944:10960   */\n      dup2\n        /* \"@thirdweb-dev/contracts/external-deps/openzeppelin/token/ERC20/ERC20.sol\":10944:10970   */\n      lt\n      iszero\n        /* \"@thirdweb-dev/contracts/external-deps/openzeppelin/token/ERC20/ERC20.sol\":10936:11004   */\n      tag_322\n      jumpi\n      mload(0x40)\n      shl(0xe5, 0x461bcd)\n      dup2\n      mstore\n        /* \"#utility.yul\":14704:14706   */\n      0x20\n        /* \"@thirdweb-dev/contracts/external-deps/openzeppelin/token/ERC20/ERC20.sol\":10936:11004   */\n      0x04\n      dup3\n      add\n        /* \"#utility.yul\":14686:14707   */\n      mstore\n        /* \"#utility.yul\":14743:14745   */\n      0x1d\n        /* \"#utility.yul\":14723:14741   */\n      0x24\n      dup3\n      add\n        /* \"#utility.yul\":14716:14746   */\n      mstore\n        /* \"#utility.yul\":14782:14813   */\n      0x45524332303a20696e73756666696369656e7420616c6c6f77616e6365000000\n        /* \"#utility.yul\":14762:14780   */\n      0x44\n      dup3\n      add\n        /* \"#utility.yul\":14755:14814   */\n      mstore\n        /* \"#utility.yul\":14831:14849   */\n      0x64\n      add\n        /* \"@thirdweb-dev/contracts/external-deps/openzeppelin/token/ERC20/ERC20.sol\":10936:11004   */\n      tag_183\n        /* \"#utility.yul\":14502:14855   */\n      jump\n        /* \"@thirdweb-dev/contracts/external-deps/openzeppelin/token/ERC20/ERC20.sol\":10936:11004   */\n    tag_322:\n        /* \"@thirdweb-dev/contracts/external-deps/openzeppelin/token/ERC20/ERC20.sol\":11046:11097   */\n      tag_325\n        /* \"@thirdweb-dev/contracts/external-deps/openzeppelin/token/ERC20/ERC20.sol\":11055:11060   */\n      dup5\n        /* \"@thirdweb-dev/contracts/external-deps/openzeppelin/token/ERC20/ERC20.sol\":11062:11069   */\n      dup5\n        /* \"@thirdweb-dev/contracts/external-deps/openzeppelin/token/ERC20/ERC20.sol\":11090:11096   */\n      dup5\n        /* \"@thirdweb-dev/contracts/external-deps/openzeppelin/token/ERC20/ERC20.sol\":11071:11087   */\n      dup5\n        /* \"@thirdweb-dev/contracts/external-deps/openzeppelin/token/ERC20/ERC20.sol\":11071:11096   */\n      sub\n        /* \"@thirdweb-dev/contracts/external-deps/openzeppelin/token/ERC20/ERC20.sol\":11046:11054   */\n      tag_149\n        /* \"@thirdweb-dev/contracts/external-deps/openzeppelin/token/ERC20/ERC20.sol\":11046:11097   */\n      jump\t// in\n    tag_325:\n        /* \"@thirdweb-dev/contracts/external-deps/openzeppelin/token/ERC20/ERC20.sol\":10807:11128   */\n      pop\n        /* \"@thirdweb-dev/contracts/external-deps/openzeppelin/token/ERC20/ERC20.sol\":10717:11128   */\n      pop\n      pop\n      pop\n      jump\t// out\n        /* \"@thirdweb-dev/contracts/external-deps/openzeppelin/token/ERC20/ERC20.sol\":7495:8116   */\n    tag_162:\n      sub(shl(0xa0, 0x01), 0x01)\n        /* \"@thirdweb-dev/contracts/external-deps/openzeppelin/token/ERC20/ERC20.sol\":7591:7609   */\n      dup4\n      and\n        /* \"@thirdweb-dev/contracts/external-deps/openzeppelin/token/ERC20/ERC20.sol\":7583:7651   */\n      tag_327\n      jumpi\n      mload(0x40)\n      shl(0xe5, 0x461bcd)\n      dup2\n      mstore\n        /* \"#utility.yul\":15062:15064   */\n      0x20\n        /* \"@thirdweb-dev/contracts/external-deps/openzeppelin/token/ERC20/ERC20.sol\":7583:7651   */\n      0x04\n      dup3\n      add\n        /* \"#utility.yul\":15044:15065   */\n      mstore\n        /* \"#utility.yul\":15101:15103   */\n      0x25\n        /* \"#utility.yul\":15081:15099   */\n      0x24\n      dup3\n      add\n        /* \"#utility.yul\":15074:15104   */\n      mstore\n        /* \"#utility.yul\":15140:15174   */\n      0x45524332303a207472616e736665722066726f6d20746865207a65726f206164\n        /* \"#utility.yul\":15120:15138   */\n      0x44\n      dup3\n      add\n        /* \"#utility.yul\":15113:15175   */\n      mstore\n        /* \"#utility.yul\":15211:15218   */\n      0x6472657373000000000000000000000000000000000000000000000000000000\n        /* \"#utility.yul\":15191:15209   */\n      0x64\n      dup3\n      add\n        /* \"#utility.yul\":15184:15219   */\n      mstore\n        /* \"#utility.yul\":15236:15255   */\n      0x84\n      add\n        /* \"@thirdweb-dev/contracts/external-deps/openzeppelin/token/ERC20/ERC20.sol\":7583:7651   */\n      tag_183\n        /* \"#utility.yul\":14860:15261   */\n      jump\n        /* \"@thirdweb-dev/contracts/external-deps/openzeppelin/token/ERC20/ERC20.sol\":7583:7651   */\n    tag_327:\n      sub(shl(0xa0, 0x01), 0x01)\n        /* \"@thirdweb-dev/contracts/external-deps/openzeppelin/token/ERC20/ERC20.sol\":7669:7685   */\n      dup3\n      and\n        /* \"@thirdweb-dev/contracts/external-deps/openzeppelin/token/ERC20/ERC20.sol\":7661:7725   */\n      tag_330\n      jumpi\n      mload(0x40)\n      shl(0xe5, 0x461bcd)\n      dup2\n      mstore\n        /* \"#utility.yul\":15468:15470   */\n      0x20\n        /* \"@thirdweb-dev/contracts/external-deps/openzeppelin/token/ERC20/ERC20.sol\":7661:7725   */\n      0x04\n      dup3\n      add\n        /* \"#utility.yul\":15450:15471   */\n      mstore\n        /* \"#utility.yul\":15507:15509   */\n      0x23\n        /* \"#utility.yul\":15487:15505   */\n      0x24\n      dup3\n      add\n        /* \"#utility.yul\":15480:15510   */\n      mstore\n        /* \"#utility.yul\":15546:15580   */\n      0x45524332303a207472616e7366657220746f20746865207a65726f2061646472\n        /* \"#utility.yul\":15526:15544   */\n      0x44\n      dup3\n      add\n        /* \"#utility.yul\":15519:15581   */\n      mstore\n      shl(0xe8, 0x657373)\n        /* \"#utility.yul\":15597:15615   */\n      0x64\n      dup3\n      add\n        /* \"#utility.yul\":15590:15623   */\n      mstore\n        /* \"#utility.yul\":15640:15659   */\n      0x84\n      add\n        /* \"@thirdweb-dev/contracts/external-deps/openzeppelin/token/ERC20/ERC20.sol\":7661:7725   */\n      tag_183\n        /* \"#utility.yul\":15266:15665   */\n      jump\n        /* \"@thirdweb-dev/contracts/external-deps/openzeppelin/token/ERC20/ERC20.sol\":7661:7725   */\n    tag_330:\n      sub(shl(0xa0, 0x01), 0x01)\n        /* \"@thirdweb-dev/contracts/external-deps/openzeppelin/token/ERC20/ERC20.sol\":7807:7822   */\n      dup4\n      and\n        /* \"@thirdweb-dev/contracts/external-deps/openzeppelin/token/ERC20/ERC20.sol\":7785:7804   */\n      0x00\n        /* \"@thirdweb-dev/contracts/external-deps/openzeppelin/token/ERC20/ERC20.sol\":7807:7822   */\n      swap1\n      dup2\n      mstore\n        /* \"@thirdweb-dev/contracts/external-deps/openzeppelin/token/ERC20/ERC20.sol\":7807:7816   */\n      0x02\n        /* \"@thirdweb-dev/contracts/external-deps/openzeppelin/token/ERC20/ERC20.sol\":7807:7822   */\n      0x20\n      mstore\n      0x40\n      swap1\n      keccak256\n      sload\n        /* \"@thirdweb-dev/contracts/external-deps/openzeppelin/token/ERC20/ERC20.sol\":7840:7861   */\n      dup2\n      dup2\n      lt\n      iszero\n        /* \"@thirdweb-dev/contracts/external-deps/openzeppelin/token/ERC20/ERC20.sol\":7832:7904   */\n      tag_335\n      jumpi\n      mload(0x40)\n      shl(0xe5, 0x461bcd)\n      dup2\n      mstore\n        /* \"#utility.yul\":15872:15874   */\n      0x20\n        /* \"@thirdweb-dev/contracts/external-deps/openzeppelin/token/ERC20/ERC20.sol\":7832:7904   */\n      0x04\n      dup3\n      add\n        /* \"#utility.yul\":15854:15875   */\n      mstore\n        /* \"#utility.yul\":15911:15913   */\n      0x26\n        /* \"#utility.yul\":15891:15909   */\n      0x24\n      dup3\n      add\n        /* \"#utility.yul\":15884:15914   */\n      mstore\n        /* \"#utility.yul\":15950:15984   */\n      0x45524332303a207472616e7366657220616d6f756e7420657863656564732062\n        /* \"#utility.yul\":15930:15948   */\n      0x44\n      dup3\n      add\n        /* \"#utility.yul\":15923:15985   */\n      mstore\n        /* \"#utility.yul\":16021:16029   */\n      0x616c616e63650000000000000000000000000000000000000000000000000000\n        /* \"#utility.yul\":16001:16019   */\n      0x64\n      dup3\n      add\n        /* \"#utility.yul\":15994:16030   */\n      mstore\n        /* \"#utility.yul\":16047:16066   */\n      0x84\n      add\n        /* \"@thirdweb-dev/contracts/external-deps/openzeppelin/token/ERC20/ERC20.sol\":7832:7904   */\n      tag_183\n        /* \"#utility.yul\":15670:16072   */\n      jump\n        /* \"@thirdweb-dev/contracts/external-deps/openzeppelin/token/ERC20/ERC20.sol\":7832:7904   */\n    tag_335:\n      sub(shl(0xa0, 0x01), 0x01)\n        /* \"@thirdweb-dev/contracts/external-deps/openzeppelin/token/ERC20/ERC20.sol\":7938:7953   */\n      dup1\n      dup6\n      and\n      0x00\n      swap1\n      dup2\n      mstore\n        /* \"@thirdweb-dev/contracts/external-deps/openzeppelin/token/ERC20/ERC20.sol\":7938:7947   */\n      0x02\n        /* \"@thirdweb-dev/contracts/external-deps/openzeppelin/token/ERC20/ERC20.sol\":7938:7953   */\n      0x20\n      mstore\n      0x40\n      dup1\n      dup3\n      keccak256\n        /* \"@thirdweb-dev/contracts/external-deps/openzeppelin/token/ERC20/ERC20.sol\":7956:7976   */\n      dup6\n      dup6\n      sub\n        /* \"@thirdweb-dev/contracts/external-deps/openzeppelin/token/ERC20/ERC20.sol\":7938:7976   */\n      swap1\n      sstore\n        /* \"@thirdweb-dev/contracts/external-deps/openzeppelin/token/ERC20/ERC20.sol\":7996:8009   */\n      swap2\n      dup6\n      and\n      dup2\n      mstore\n      swap1\n      dup2\n      keccak256\n        /* \"@thirdweb-dev/contracts/external-deps/openzeppelin/token/ERC20/ERC20.sol\":7996:8019   */\n      dup1\n      sload\n        /* \"@thirdweb-dev/contracts/external-deps/openzeppelin/token/ERC20/ERC20.sol\":7970:7976   */\n      dup5\n      swap3\n        /* \"@thirdweb-dev/contracts/external-deps/openzeppelin/token/ERC20/ERC20.sol\":7938:7953   */\n      swap1\n        /* \"@thirdweb-dev/contracts/external-deps/openzeppelin/token/ERC20/ERC20.sol\":7996:8019   */\n      tag_338\n      swap1\n        /* \"@thirdweb-dev/contracts/external-deps/openzeppelin/token/ERC20/ERC20.sol\":7970:7976   */\n      dup5\n      swap1\n        /* \"@thirdweb-dev/contracts/external-deps/openzeppelin/token/ERC20/ERC20.sol\":7996:8019   */\n      tag_174\n      jump\t// in\n    tag_338:\n      swap3\n      pop\n      pop\n      dup2\n      swap1\n      sstore\n      pop\n        /* \"@thirdweb-dev/contracts/external-deps/openzeppelin/token/ERC20/ERC20.sol\":8050:8052   */\n      dup3\n      sub(shl(0xa0, 0x01), 0x01)\n        /* \"@thirdweb-dev/contracts/external-deps/openzeppelin/token/ERC20/ERC20.sol\":8035:8061   */\n      and\n        /* \"@thirdweb-dev/contracts/external-deps/openzeppelin/token/ERC20/ERC20.sol\":8044:8048   */\n      dup5\n      sub(shl(0xa0, 0x01), 0x01)\n        /* \"@thirdweb-dev/contracts/external-deps/openzeppelin/token/ERC20/ERC20.sol\":8035:8061   */\n      and\n      0xddf252ad1be2c89b69c2b068fc378daa952ba7f163c4a11628f55a4df523b3ef\n        /* \"@thirdweb-dev/contracts/external-deps/openzeppelin/token/ERC20/ERC20.sol\":8054:8060   */\n      dup5\n        /* \"@thirdweb-dev/contracts/external-deps/openzeppelin/token/ERC20/ERC20.sol\":8035:8061   */\n      mload(0x40)\n      tag_339\n      swap2\n        /* \"#utility.yul\":1522:1547   */\n      dup2\n      mstore\n        /* \"#utility.yul\":1510:1512   */\n      0x20\n        /* \"#utility.yul\":1495:1513   */\n      add\n      swap1\n        /* \"#utility.yul\":1376:1553   */\n      jump\n        /* \"@thirdweb-dev/contracts/external-deps/openzeppelin/token/ERC20/ERC20.sol\":8035:8061   */\n    tag_339:\n      mload(0x40)\n      dup1\n      swap2\n      sub\n      swap1\n      log3\n        /* \"@thirdweb-dev/contracts/external-deps/openzeppelin/token/ERC20/ERC20.sol\":8072:8109   */\n      tag_325\n        /* \"@thirdweb-dev/contracts/base/ERC20Base.sol\":2882:3312   */\n      jump\n        /* \"@thirdweb-dev/contracts/external-deps/openzeppelin/token/ERC20/extensions/ERC20Permit.sol\":3296:3734   */\n    tag_169:\n        /* \"@thirdweb-dev/contracts/external-deps/openzeppelin/token/ERC20/extensions/ERC20Permit.sol\":3351:3358   */\n      0x00\n        /* \"@thirdweb-dev/contracts/external-deps/openzeppelin/token/ERC20/extensions/ERC20Permit.sol\":3448:3543   */\n      0x8b73c3c69bb8fe3d512ecc4cf759cc79239f7b179b0ffacaa9a75d522b39400f\n        /* \"@thirdweb-dev/contracts/external-deps/openzeppelin/token/ERC20/extensions/ERC20Permit.sol\":3581:3587   */\n      tag_343\n        /* \"@thirdweb-dev/contracts/external-deps/openzeppelin/token/ERC20/extensions/ERC20Permit.sol\":3581:3585   */\n      tag_36\n        /* \"@thirdweb-dev/contracts/external-deps/openzeppelin/token/ERC20/extensions/ERC20Permit.sol\":3581:3587   */\n      jump\t// in\n    tag_343:\n        /* \"@thirdweb-dev/contracts/external-deps/openzeppelin/token/ERC20/extensions/ERC20Permit.sol\":3565:3589   */\n      dup1\n      mload\n      0x20\n      swap2\n      dup3\n      add\n      keccak256\n        /* \"@thirdweb-dev/contracts/external-deps/openzeppelin/token/ERC20/extensions/ERC20Permit.sol\":3416:3713   */\n      0x40\n      dup1\n      mload\n      swap3\n      dup4\n      add\n        /* \"#utility.yul\":16336:16361   */\n      swap4\n      swap1\n      swap4\n      mstore\n        /* \"#utility.yul\":16377:16395   */\n      swap2\n      dup2\n      add\n        /* \"#utility.yul\":16370:16404   */\n      swap2\n      swap1\n      swap2\n      mstore\n        /* \"@thirdweb-dev/contracts/external-deps/openzeppelin/token/ERC20/extensions/ERC20Permit.sol\":3611:3625   */\n      0xc89efdaa54c0f20c7adf612882df0950f5a951637e0307cdcb4c672f298b8bc6\n        /* \"#utility.yul\":16420:16438   */\n      0x60\n      dup3\n      add\n        /* \"#utility.yul\":16413:16447   */\n      mstore\n        /* \"@thirdweb-dev/contracts/external-deps/openzeppelin/token/ERC20/extensions/ERC20Permit.sol\":3647:3660   */\n      chainid\n        /* \"#utility.yul\":16463:16481   */\n      0x80\n      dup3\n      add\n        /* \"#utility.yul\":16456:16490   */\n      mstore\n        /* \"@thirdweb-dev/contracts/external-deps/openzeppelin/token/ERC20/extensions/ERC20Permit.sol\":3690:3694   */\n      address\n        /* \"#utility.yul\":16506:16525   */\n      0xa0\n      dup3\n      add\n        /* \"#utility.yul\":16499:16583   */\n      mstore\n        /* \"#utility.yul\":16308:16327   */\n      0xc0\n      add\n        /* \"@thirdweb-dev/contracts/external-deps/openzeppelin/token/ERC20/extensions/ERC20Permit.sol\":3416:3713   */\n      mload(0x40)\n      0x20\n      dup2\n      dup4\n      sub\n      sub\n      dup2\n      mstore\n      swap1\n      0x40\n      mstore\n        /* \"@thirdweb-dev/contracts/external-deps/openzeppelin/token/ERC20/extensions/ERC20Permit.sol\":3389:3727   */\n      dup1\n      mload\n      swap1\n      0x20\n      add\n      keccak256\n        /* \"@thirdweb-dev/contracts/external-deps/openzeppelin/token/ERC20/extensions/ERC20Permit.sol\":3370:3727   */\n      swap1\n      pop\n        /* \"@thirdweb-dev/contracts/external-deps/openzeppelin/token/ERC20/extensions/ERC20Permit.sol\":3296:3734   */\n      swap1\n      jump\t// out\n        /* \"@thirdweb-dev/contracts/external-deps/openzeppelin/token/ERC20/ERC20.sol\":9101:9677   */\n    tag_177:\n      sub(shl(0xa0, 0x01), 0x01)\n        /* \"@thirdweb-dev/contracts/external-deps/openzeppelin/token/ERC20/ERC20.sol\":9184:9205   */\n      dup3\n      and\n        /* \"@thirdweb-dev/contracts/external-deps/openzeppelin/token/ERC20/ERC20.sol\":9176:9243   */\n      tag_347\n      jumpi\n      mload(0x40)\n      shl(0xe5, 0x461bcd)\n      dup2\n      mstore\n        /* \"#utility.yul\":16796:16798   */\n      0x20\n        /* \"@thirdweb-dev/contracts/external-deps/openzeppelin/token/ERC20/ERC20.sol\":9176:9243   */\n      0x04\n      dup3\n      add\n        /* \"#utility.yul\":16778:16799   */\n      mstore\n        /* \"#utility.yul\":16835:16837   */\n      0x21\n        /* \"#utility.yul\":16815:16833   */\n      0x24\n      dup3\n      add\n        /* \"#utility.yul\":16808:16838   */\n      mstore\n        /* \"#utility.yul\":16874:16908   */\n      0x45524332303a206275726e2066726f6d20746865207a65726f20616464726573\n        /* \"#utility.yul\":16854:16872   */\n      0x44\n      dup3\n      add\n        /* \"#utility.yul\":16847:16909   */\n      mstore\n      shl(0xf8, 0x73)\n        /* \"#utility.yul\":16925:16943   */\n      0x64\n      dup3\n      add\n        /* \"#utility.yul\":16918:16949   */\n      mstore\n        /* \"#utility.yul\":16966:16985   */\n      0x84\n      add\n        /* \"@thirdweb-dev/contracts/external-deps/openzeppelin/token/ERC20/ERC20.sol\":9176:9243   */\n      tag_183\n        /* \"#utility.yul\":16594:16991   */\n      jump\n        /* \"@thirdweb-dev/contracts/external-deps/openzeppelin/token/ERC20/ERC20.sol\":9176:9243   */\n    tag_347:\n      sub(shl(0xa0, 0x01), 0x01)\n        /* \"@thirdweb-dev/contracts/external-deps/openzeppelin/token/ERC20/ERC20.sol\":9339:9357   */\n      dup3\n      and\n        /* \"@thirdweb-dev/contracts/external-deps/openzeppelin/token/ERC20/ERC20.sol\":9314:9336   */\n      0x00\n        /* \"@thirdweb-dev/contracts/external-deps/openzeppelin/token/ERC20/ERC20.sol\":9339:9357   */\n      swap1\n      dup2\n      mstore\n        /* \"@thirdweb-dev/contracts/external-deps/openzeppelin/token/ERC20/ERC20.sol\":9339:9348   */\n      0x02\n        /* \"@thirdweb-dev/contracts/external-deps/openzeppelin/token/ERC20/ERC20.sol\":9339:9357   */\n      0x20\n      mstore\n      0x40\n      swap1\n      keccak256\n      sload\n        /* \"@thirdweb-dev/contracts/external-deps/openzeppelin/token/ERC20/ERC20.sol\":9375:9399   */\n      dup2\n      dup2\n      lt\n      iszero\n        /* \"@thirdweb-dev/contracts/external-deps/openzeppelin/token/ERC20/ERC20.sol\":9367:9438   */\n      tag_351\n      jumpi\n      mload(0x40)\n      shl(0xe5, 0x461bcd)\n      dup2\n      mstore\n        /* \"#utility.yul\":17198:17200   */\n      0x20\n        /* \"@thirdweb-dev/contracts/external-deps/openzeppelin/token/ERC20/ERC20.sol\":9367:9438   */\n      0x04\n      dup3\n      add\n        /* \"#utility.yul\":17180:17201   */\n      mstore\n        /* \"#utility.yul\":17237:17239   */\n      0x22\n        /* \"#utility.yul\":17217:17235   */\n      0x24\n      dup3\n      add\n        /* \"#utility.yul\":17210:17240   */\n      mstore\n        /* \"#utility.yul\":17276:17310   */\n      0x45524332303a206275726e20616d6f756e7420657863656564732062616c616e\n        /* \"#utility.yul\":17256:17274   */\n      0x44\n      dup3\n      add\n        /* \"#utility.yul\":17249:17311   */\n      mstore\n      shl(0xf0, 0x6365)\n        /* \"#utility.yul\":17327:17345   */\n      0x64\n      dup3\n      add\n        /* \"#utility.yul\":17320:17352   */\n      mstore\n        /* \"#utility.yul\":17369:17388   */\n      0x84\n      add\n        /* \"@thirdweb-dev/contracts/external-deps/openzeppelin/token/ERC20/ERC20.sol\":9367:9438   */\n      tag_183\n        /* \"#utility.yul\":16996:17394   */\n      jump\n        /* \"@thirdweb-dev/contracts/external-deps/openzeppelin/token/ERC20/ERC20.sol\":9367:9438   */\n    tag_351:\n      sub(shl(0xa0, 0x01), 0x01)\n        /* \"@thirdweb-dev/contracts/external-deps/openzeppelin/token/ERC20/ERC20.sol\":9472:9490   */\n      dup4\n      and\n      0x00\n      swap1\n      dup2\n      mstore\n        /* \"@thirdweb-dev/contracts/external-deps/openzeppelin/token/ERC20/ERC20.sol\":9472:9481   */\n      0x02\n        /* \"@thirdweb-dev/contracts/external-deps/openzeppelin/token/ERC20/ERC20.sol\":9472:9490   */\n      0x20\n      mstore\n      0x40\n      dup2\n      keccak256\n        /* \"@thirdweb-dev/contracts/external-deps/openzeppelin/token/ERC20/ERC20.sol\":9493:9516   */\n      dup4\n      dup4\n      sub\n        /* \"@thirdweb-dev/contracts/external-deps/openzeppelin/token/ERC20/ERC20.sol\":9472:9516   */\n      swap1\n      sstore\n        /* \"@thirdweb-dev/contracts/external-deps/openzeppelin/token/ERC20/ERC20.sol\":9536:9548   */\n      0x04\n        /* \"@thirdweb-dev/contracts/external-deps/openzeppelin/token/ERC20/ERC20.sol\":9536:9558   */\n      dup1\n      sload\n        /* \"@thirdweb-dev/contracts/external-deps/openzeppelin/token/ERC20/ERC20.sol\":9510:9516   */\n      dup5\n      swap3\n        /* \"@thirdweb-dev/contracts/external-deps/openzeppelin/token/ERC20/ERC20.sol\":9472:9490   */\n      swap1\n        /* \"@thirdweb-dev/contracts/external-deps/openzeppelin/token/ERC20/ERC20.sol\":9536:9558   */\n      tag_354\n      swap1\n        /* \"@thirdweb-dev/contracts/external-deps/openzeppelin/token/ERC20/ERC20.sol\":9510:9516   */\n      dup5\n      swap1\n        /* \"@thirdweb-dev/contracts/external-deps/openzeppelin/token/ERC20/ERC20.sol\":9536:9558   */\n      tag_205\n      jump\t// in\n    tag_354:\n      swap1\n      swap2\n      sstore\n      pop\n      pop\n        /* \"@thirdweb-dev/contracts/external-deps/openzeppelin/token/ERC20/ERC20.sol\":9574:9611   */\n      mload(0x40)\n        /* \"#utility.yul\":1522:1547   */\n      dup3\n      dup2\n      mstore\n        /* \"@thirdweb-dev/contracts/external-deps/openzeppelin/token/ERC20/ERC20.sol\":9600:9601   */\n      0x00\n      swap1\n      sub(shl(0xa0, 0x01), 0x01)\n        /* \"@thirdweb-dev/contracts/external-deps/openzeppelin/token/ERC20/ERC20.sol\":9574:9611   */\n      dup6\n      and\n      swap1\n      0xddf252ad1be2c89b69c2b068fc378daa952ba7f163c4a11628f55a4df523b3ef\n      swap1\n        /* \"#utility.yul\":1510:1512   */\n      0x20\n        /* \"#utility.yul\":1495:1513   */\n      add\n        /* \"@thirdweb-dev/contracts/external-deps/openzeppelin/token/ERC20/ERC20.sol\":9574:9611   */\n      mload(0x40)\n      dup1\n      swap2\n      sub\n      swap1\n      log3\n        /* \"@thirdweb-dev/contracts/base/ERC20Base.sol\":2961:3312   */\n      pop\n        /* \"@thirdweb-dev/contracts/base/ERC20Base.sol\":2882:3312   */\n      pop\n      pop\n      jump\t// out\n        /* \"@thirdweb-dev/contracts/external-deps/openzeppelin/token/ERC20/ERC20.sol\":8392:8781   */\n    tag_189:\n      sub(shl(0xa0, 0x01), 0x01)\n        /* \"@thirdweb-dev/contracts/external-deps/openzeppelin/token/ERC20/ERC20.sol\":8475:8496   */\n      dup3\n      and\n        /* \"@thirdweb-dev/contracts/external-deps/openzeppelin/token/ERC20/ERC20.sol\":8467:8532   */\n      tag_360\n      jumpi\n      mload(0x40)\n      shl(0xe5, 0x461bcd)\n      dup2\n      mstore\n        /* \"#utility.yul\":17601:17603   */\n      0x20\n        /* \"@thirdweb-dev/contracts/external-deps/openzeppelin/token/ERC20/ERC20.sol\":8467:8532   */\n      0x04\n      dup3\n      add\n        /* \"#utility.yul\":17583:17604   */\n      mstore\n        /* \"#utility.yul\":17640:17642   */\n      0x1f\n        /* \"#utility.yul\":17620:17638   */\n      0x24\n      dup3\n      add\n        /* \"#utility.yul\":17613:17643   */\n      mstore\n        /* \"#utility.yul\":17679:17712   */\n      0x45524332303a206d696e7420746f20746865207a65726f206164647265737300\n        /* \"#utility.yul\":17659:17677   */\n      0x44\n      dup3\n      add\n        /* \"#utility.yul\":17652:17713   */\n      mstore\n        /* \"#utility.yul\":17730:17748   */\n      0x64\n      add\n        /* \"@thirdweb-dev/contracts/external-deps/openzeppelin/token/ERC20/ERC20.sol\":8467:8532   */\n      tag_183\n        /* \"#utility.yul\":17399:17754   */\n      jump\n        /* \"@thirdweb-dev/contracts/external-deps/openzeppelin/token/ERC20/ERC20.sol\":8467:8532   */\n    tag_360:\n        /* \"@thirdweb-dev/contracts/external-deps/openzeppelin/token/ERC20/ERC20.sol\":8619:8625   */\n      dup1\n        /* \"@thirdweb-dev/contracts/external-deps/openzeppelin/token/ERC20/ERC20.sol\":8603:8615   */\n      0x04\n      0x00\n        /* \"@thirdweb-dev/contracts/external-deps/openzeppelin/token/ERC20/ERC20.sol\":8603:8625   */\n      dup3\n      dup3\n      sload\n      tag_364\n      swap2\n      swap1\n      tag_174\n      jump\t// in\n    tag_364:\n      swap1\n      swap2\n      sstore\n      pop\n      pop\n      sub(shl(0xa0, 0x01), 0x01)\n        /* \"@thirdweb-dev/contracts/external-deps/openzeppelin/token/ERC20/ERC20.sol\":8635:8653   */\n      dup3\n      and\n      0x00\n      swap1\n      dup2\n      mstore\n        /* \"@thirdweb-dev/contracts/external-deps/openzeppelin/token/ERC20/ERC20.sol\":8635:8644   */\n      0x02\n        /* \"@thirdweb-dev/contracts/external-deps/openzeppelin/token/ERC20/ERC20.sol\":8635:8653   */\n      0x20\n      mstore\n      0x40\n      dup2\n      keccak256\n        /* \"@thirdweb-dev/contracts/external-deps/openzeppelin/token/ERC20/ERC20.sol\":8635:8663   */\n      dup1\n      sload\n        /* \"@thirdweb-dev/contracts/external-deps/openzeppelin/token/ERC20/ERC20.sol\":8657:8663   */\n      dup4\n      swap3\n        /* \"@thirdweb-dev/contracts/external-deps/openzeppelin/token/ERC20/ERC20.sol\":8635:8653   */\n      swap1\n        /* \"@thirdweb-dev/contracts/external-deps/openzeppelin/token/ERC20/ERC20.sol\":8635:8663   */\n      tag_365\n      swap1\n        /* \"@thirdweb-dev/contracts/external-deps/openzeppelin/token/ERC20/ERC20.sol\":8657:8663   */\n      dup5\n      swap1\n        /* \"@thirdweb-dev/contracts/external-deps/openzeppelin/token/ERC20/ERC20.sol\":8635:8663   */\n      tag_174\n      jump\t// in\n    tag_365:\n      swap1\n      swap2\n      sstore\n      pop\n      pop\n        /* \"@thirdweb-dev/contracts/external-deps/openzeppelin/token/ERC20/ERC20.sol\":8678:8715   */\n      mload(0x40)\n        /* \"#utility.yul\":1522:1547   */\n      dup2\n      dup2\n      mstore\n      sub(shl(0xa0, 0x01), 0x01)\n        /* \"@thirdweb-dev/contracts/external-deps/openzeppelin/token/ERC20/ERC20.sol\":8678:8715   */\n      dup4\n      and\n      swap1\n        /* \"@thirdweb-dev/contracts/external-deps/openzeppelin/token/ERC20/ERC20.sol\":8695:8696   */\n      0x00\n      swap1\n        /* \"@thirdweb-dev/contracts/external-deps/openzeppelin/token/ERC20/ERC20.sol\":8678:8715   */\n      0xddf252ad1be2c89b69c2b068fc378daa952ba7f163c4a11628f55a4df523b3ef\n      swap1\n        /* \"#utility.yul\":1510:1512   */\n      0x20\n        /* \"#utility.yul\":1495:1513   */\n      add\n        /* \"@thirdweb-dev/contracts/external-deps/openzeppelin/token/ERC20/ERC20.sol\":8678:8715   */\n      mload(0x40)\n      dup1\n      swap2\n      sub\n      swap1\n      log3\n        /* \"@thirdweb-dev/contracts/base/ERC20Base.sol\":1989:2198   */\n      pop\n      pop\n      jump\t// out\n        /* \"@thirdweb-dev/contracts/extension/ContractMetadata.sol\":1393:1578   */\n    tag_218:\n        /* \"@thirdweb-dev/contracts/extension/ContractMetadata.sol\":1459:1480   */\n      0x00\n        /* \"@thirdweb-dev/contracts/extension/ContractMetadata.sol\":1483:1494   */\n      dup1\n        /* \"@thirdweb-dev/contracts/extension/ContractMetadata.sol\":1459:1494   */\n      dup1\n      sload\n      tag_374\n      swap1\n      tag_140\n      jump\t// in\n    tag_374:\n      dup1\n      0x1f\n      add\n      0x20\n      dup1\n      swap2\n      div\n      mul\n      0x20\n      add\n      mload(0x40)\n      swap1\n      dup2\n      add\n      0x40\n      mstore\n      dup1\n      swap3\n      swap2\n      swap1\n      dup2\n      dup2\n      mstore\n      0x20\n      add\n      dup3\n      dup1\n      sload\n      tag_375\n      swap1\n      tag_140\n      jump\t// in\n    tag_375:\n      dup1\n      iszero\n      tag_376\n      jumpi\n      dup1\n      0x1f\n      lt\n      tag_377\n      jumpi\n      0x0100\n      dup1\n      dup4\n      sload\n      div\n      mul\n      dup4\n      mstore\n      swap2\n      0x20\n      add\n      swap2\n      jump(tag_376)\n    tag_377:\n      dup3\n      add\n      swap2\n      swap1\n      0x00\n      mstore\n      keccak256(0x00, 0x20)\n      swap1\n    tag_378:\n      dup2\n      sload\n      dup2\n      mstore\n      swap1\n      0x01\n      add\n      swap1\n      0x20\n      add\n      dup1\n      dup4\n      gt\n      tag_378\n      jumpi\n      dup3\n      swap1\n      sub\n      0x1f\n      and\n      dup3\n      add\n      swap2\n    tag_376:\n      pop\n      pop\n      pop\n      pop\n      pop\n      swap1\n      pop\n        /* \"@thirdweb-dev/contracts/extension/ContractMetadata.sol\":1518:1522   */\n      dup2\n        /* \"@thirdweb-dev/contracts/extension/ContractMetadata.sol\":1504:1515   */\n      0x00\n        /* \"@thirdweb-dev/contracts/extension/ContractMetadata.sol\":1504:1522   */\n      swap1\n      dup2\n      tag_379\n      swap2\n      swap1\n      tag_380\n      jump\t// in\n    tag_379:\n      pop\n        /* \"@thirdweb-dev/contracts/extension/ContractMetadata.sol\":1538:1571   */\n      0xc9c7c3fe08b88b4df9d4d47ef47d2c43d55c025a0ba88ca442580ed9e7348a16\n        /* \"@thirdweb-dev/contracts/extension/ContractMetadata.sol\":1557:1564   */\n      dup2\n        /* \"@thirdweb-dev/contracts/extension/ContractMetadata.sol\":1566:1570   */\n      dup4\n        /* \"@thirdweb-dev/contracts/extension/ContractMetadata.sol\":1538:1571   */\n      mload(0x40)\n      tag_381\n      swap3\n      swap2\n      swap1\n      tag_382\n      jump\t// in\n    tag_381:\n      mload(0x40)\n      dup1\n      swap2\n      sub\n      swap1\n      log1\n        /* \"@thirdweb-dev/contracts/extension/ContractMetadata.sol\":1449:1578   */\n      pop\n        /* \"@thirdweb-dev/contracts/extension/ContractMetadata.sol\":1393:1578   */\n      pop\n      jump\t// out\n        /* \"@thirdweb-dev/contracts/lib/Address.sol\":6671:6869   */\n    tag_253:\n        /* \"@thirdweb-dev/contracts/lib/Address.sol\":6754:6766   */\n      0x60\n        /* \"@thirdweb-dev/contracts/lib/Address.sol\":6785:6862   */\n      tag_384\n        /* \"@thirdweb-dev/contracts/lib/Address.sol\":6806:6812   */\n      dup4\n        /* \"@thirdweb-dev/contracts/lib/Address.sol\":6814:6818   */\n      dup4\n        /* \"@thirdweb-dev/contracts/lib/Address.sol\":6785:6862   */\n      mload(0x40)\n      dup1\n      0x60\n      add\n      0x40\n      mstore\n      dup1\n      0x27\n      dup2\n      mstore\n      0x20\n      add\n      data_9fdcd12e4b726339b32a442b0a448365d5d85c96b2d2cff917b4f66c63110398\n      0x27\n      swap2\n      codecopy\n        /* \"@thirdweb-dev/contracts/lib/Address.sol\":6785:6805   */\n      tag_385\n        /* \"@thirdweb-dev/contracts/lib/Address.sol\":6785:6862   */\n      jump\t// in\n    tag_384:\n        /* \"@thirdweb-dev/contracts/lib/Address.sol\":6778:6862   */\n      swap4\n        /* \"@thirdweb-dev/contracts/lib/Address.sol\":6671:6869   */\n      swap3\n      pop\n      pop\n      pop\n      jump\t// out\n        /* \"@thirdweb-dev/contracts/external-deps/openzeppelin/token/ERC20/extensions/ERC20Permit.sol\":3865:4068   */\n    tag_268:\n      sub(shl(0xa0, 0x01), 0x01)\n        /* \"@thirdweb-dev/contracts/external-deps/openzeppelin/token/ERC20/extensions/ERC20Permit.sol\":3985:3999   */\n      dup2\n      and\n        /* \"@thirdweb-dev/contracts/external-deps/openzeppelin/token/ERC20/extensions/ERC20Permit.sol\":3925:3940   */\n      0x00\n        /* \"@thirdweb-dev/contracts/external-deps/openzeppelin/token/ERC20/extensions/ERC20Permit.sol\":3985:3999   */\n      swap1\n      dup2\n      mstore\n        /* \"@thirdweb-dev/contracts/external-deps/openzeppelin/token/ERC20/extensions/ERC20Permit.sol\":3985:3992   */\n      0x07\n        /* \"@thirdweb-dev/contracts/external-deps/openzeppelin/token/ERC20/extensions/ERC20Permit.sol\":3985:3999   */\n      0x20\n      mstore\n      0x40\n      swap1\n      keccak256\n        /* \"@thirdweb-dev/contracts/external-deps/openzeppelin/utils/Counters.sol\":918:932   */\n      dup1\n      sload\n        /* \"@thirdweb-dev/contracts/external-deps/openzeppelin/utils/Counters.sol\":1050:1051   */\n      0x01\n        /* \"@thirdweb-dev/contracts/external-deps/openzeppelin/utils/Counters.sol\":1032:1051   */\n      dup2\n      add\n      dup3\n      sstore\n        /* \"@thirdweb-dev/contracts/external-deps/openzeppelin/utils/Counters.sol\":918:932   */\n      swap1\n        /* \"@thirdweb-dev/contracts/external-deps/openzeppelin/token/ERC20/extensions/ERC20Permit.sol\":4044:4061   */\n    tag_388:\n        /* \"@thirdweb-dev/contracts/external-deps/openzeppelin/token/ERC20/extensions/ERC20Permit.sol\":3942:4068   */\n      pop\n        /* \"@thirdweb-dev/contracts/external-deps/openzeppelin/token/ERC20/extensions/ERC20Permit.sol\":3865:4068   */\n      swap2\n      swap1\n      pop\n      jump\t// out\n        /* \"@thirdweb-dev/contracts/external-deps/openzeppelin/utils/cryptography/ECDSA.sol\":6611:6843   */\n    tag_275:\n        /* \"@thirdweb-dev/contracts/external-deps/openzeppelin/utils/cryptography/ECDSA.sol\":6696:6703   */\n      0x00\n        /* \"@thirdweb-dev/contracts/external-deps/openzeppelin/utils/cryptography/ECDSA.sol\":6716:6733   */\n      dup1\n        /* \"@thirdweb-dev/contracts/external-deps/openzeppelin/utils/cryptography/ECDSA.sol\":6735:6753   */\n      0x00\n        /* \"@thirdweb-dev/contracts/external-deps/openzeppelin/utils/cryptography/ECDSA.sol\":6757:6782   */\n      tag_392\n        /* \"@thirdweb-dev/contracts/external-deps/openzeppelin/utils/cryptography/ECDSA.sol\":6768:6772   */\n      dup8\n        /* \"@thirdweb-dev/contracts/external-deps/openzeppelin/utils/cryptography/ECDSA.sol\":6774:6775   */\n      dup8\n        /* \"@thirdweb-dev/contracts/external-deps/openzeppelin/utils/cryptography/ECDSA.sol\":6777:6778   */\n      dup8\n        /* \"@thirdweb-dev/contracts/external-deps/openzeppelin/utils/cryptography/ECDSA.sol\":6780:6781   */\n      dup8\n        /* \"@thirdweb-dev/contracts/external-deps/openzeppelin/utils/cryptography/ECDSA.sol\":6757:6767   */\n      tag_393\n        /* \"@thirdweb-dev/contracts/external-deps/openzeppelin/utils/cryptography/ECDSA.sol\":6757:6782   */\n      jump\t// in\n    tag_392:\n        /* \"@thirdweb-dev/contracts/external-deps/openzeppelin/utils/cryptography/ECDSA.sol\":6715:6782   */\n      swap2\n      pop\n      swap2\n      pop\n        /* \"@thirdweb-dev/contracts/external-deps/openzeppelin/utils/cryptography/ECDSA.sol\":6792:6810   */\n      tag_394\n        /* \"@thirdweb-dev/contracts/external-deps/openzeppelin/utils/cryptography/ECDSA.sol\":6804:6809   */\n      dup2\n        /* \"@thirdweb-dev/contracts/external-deps/openzeppelin/utils/cryptography/ECDSA.sol\":6792:6803   */\n      tag_395\n        /* \"@thirdweb-dev/contracts/external-deps/openzeppelin/utils/cryptography/ECDSA.sol\":6792:6810   */\n      jump\t// in\n    tag_394:\n      pop\n        /* \"@thirdweb-dev/contracts/external-deps/openzeppelin/utils/cryptography/ECDSA.sol\":6827:6836   */\n      swap1\n      pop\n        /* \"@thirdweb-dev/contracts/external-deps/openzeppelin/utils/cryptography/ECDSA.sol\":6611:6843   */\n    tag_391:\n      swap5\n      swap4\n      pop\n      pop\n      pop\n      pop\n      jump\t// out\n        /* \"@thirdweb-dev/contracts/lib/Address.sol\":7055:7380   */\n    tag_385:\n        /* \"@thirdweb-dev/contracts/lib/Address.sol\":7196:7208   */\n      0x60\n        /* \"@thirdweb-dev/contracts/lib/Address.sol\":7221:7233   */\n      0x00\n        /* \"@thirdweb-dev/contracts/lib/Address.sol\":7235:7258   */\n      dup1\n        /* \"@thirdweb-dev/contracts/lib/Address.sol\":7262:7268   */\n      dup6\n      sub(shl(0xa0, 0x01), 0x01)\n        /* \"@thirdweb-dev/contracts/lib/Address.sol\":7262:7281   */\n      and\n        /* \"@thirdweb-dev/contracts/lib/Address.sol\":7282:7286   */\n      dup6\n        /* \"@thirdweb-dev/contracts/lib/Address.sol\":7262:7287   */\n      mload(0x40)\n      tag_399\n      swap2\n      swap1\n      tag_400\n      jump\t// in\n    tag_399:\n      0x00\n      mload(0x40)\n      dup1\n      dup4\n      sub\n      dup2\n      dup6\n      gas\n      delegatecall\n      swap2\n      pop\n      pop\n      returndatasize\n      dup1\n      0x00\n      dup2\n      eq\n      tag_403\n      jumpi\n      mload(0x40)\n      swap2\n      pop\n      and(add(returndatasize, 0x3f), not(0x1f))\n      dup3\n      add\n      0x40\n      mstore\n      returndatasize\n      dup3\n      mstore\n      returndatasize\n      0x00\n      0x20\n      dup5\n      add\n      returndatacopy\n      jump(tag_402)\n    tag_403:\n      0x60\n      swap2\n      pop\n    tag_402:\n      pop\n        /* \"@thirdweb-dev/contracts/lib/Address.sol\":7220:7287   */\n      swap2\n      pop\n      swap2\n      pop\n        /* \"@thirdweb-dev/contracts/lib/Address.sol\":7304:7373   */\n      tag_404\n        /* \"@thirdweb-dev/contracts/lib/Address.sol\":7331:7337   */\n      dup7\n        /* \"@thirdweb-dev/contracts/lib/Address.sol\":7339:7346   */\n      dup4\n        /* \"@thirdweb-dev/contracts/lib/Address.sol\":7348:7358   */\n      dup4\n        /* \"@thirdweb-dev/contracts/lib/Address.sol\":7360:7372   */\n      dup8\n        /* \"@thirdweb-dev/contracts/lib/Address.sol\":7304:7330   */\n      tag_405\n        /* \"@thirdweb-dev/contracts/lib/Address.sol\":7304:7373   */\n      jump\t// in\n    tag_404:\n        /* \"@thirdweb-dev/contracts/lib/Address.sol\":7297:7373   */\n      swap7\n        /* \"@thirdweb-dev/contracts/lib/Address.sol\":7055:7380   */\n      swap6\n      pop\n      pop\n      pop\n      pop\n      pop\n      pop\n      jump\t// out\n        /* \"@thirdweb-dev/contracts/external-deps/openzeppelin/utils/cryptography/ECDSA.sol\":5022:6478   */\n    tag_393:\n        /* \"@thirdweb-dev/contracts/external-deps/openzeppelin/utils/cryptography/ECDSA.sol\":5110:5117   */\n      0x00\n      dup1\n        /* \"@thirdweb-dev/contracts/external-deps/openzeppelin/utils/cryptography/ECDSA.sol\":6034:6100   */\n      0x7fffffffffffffffffffffffffffffff5d576e7357a4501ddfe92f46681b20a0\n        /* \"@thirdweb-dev/contracts/external-deps/openzeppelin/utils/cryptography/ECDSA.sol\":6021:6100   */\n      dup4\n      gt\n        /* \"@thirdweb-dev/contracts/external-deps/openzeppelin/utils/cryptography/ECDSA.sol\":6017:6178   */\n      iszero\n      tag_408\n      jumpi\n      pop\n        /* \"@thirdweb-dev/contracts/external-deps/openzeppelin/utils/cryptography/ECDSA.sol\":6132:6133   */\n      0x00\n      swap1\n      pop\n        /* \"@thirdweb-dev/contracts/external-deps/openzeppelin/utils/cryptography/ECDSA.sol\":6136:6166   */\n      0x03\n        /* \"@thirdweb-dev/contracts/external-deps/openzeppelin/utils/cryptography/ECDSA.sol\":6116:6167   */\n      jump(tag_407)\n        /* \"@thirdweb-dev/contracts/external-deps/openzeppelin/utils/cryptography/ECDSA.sol\":6017:6178   */\n    tag_408:\n        /* \"@thirdweb-dev/contracts/external-deps/openzeppelin/utils/cryptography/ECDSA.sol\":6289:6313   */\n      0x40\n      dup1\n      mload\n        /* \"@thirdweb-dev/contracts/external-deps/openzeppelin/utils/cryptography/ECDSA.sol\":6272:6286   */\n      0x00\n        /* \"@thirdweb-dev/contracts/external-deps/openzeppelin/utils/cryptography/ECDSA.sol\":6289:6313   */\n      dup1\n      dup3\n      mstore\n      0x20\n      dup3\n      add\n      dup1\n      dup5\n      mstore\n        /* \"#utility.yul\":20850:20875   */\n      dup10\n      swap1\n      mstore\n        /* \"#utility.yul\":20923:20927   */\n      0xff\n        /* \"#utility.yul\":20911:20928   */\n      dup9\n      and\n        /* \"#utility.yul\":20891:20909   */\n      swap3\n      dup3\n      add\n        /* \"#utility.yul\":20884:20929   */\n      swap3\n      swap1\n      swap3\n      mstore\n        /* \"#utility.yul\":20945:20963   */\n      0x60\n      dup2\n      add\n        /* \"#utility.yul\":20938:20972   */\n      dup7\n      swap1\n      mstore\n        /* \"#utility.yul\":20988:21006   */\n      0x80\n      dup2\n      add\n        /* \"#utility.yul\":20981:21015   */\n      dup6\n      swap1\n      mstore\n        /* \"@thirdweb-dev/contracts/external-deps/openzeppelin/utils/cryptography/ECDSA.sol\":6289:6313   */\n      0x01\n      swap1\n        /* \"#utility.yul\":20822:20841   */\n      0xa0\n      add\n        /* \"@thirdweb-dev/contracts/external-deps/openzeppelin/utils/cryptography/ECDSA.sol\":6289:6313   */\n      0x20\n      mload(0x40)\n      0x20\n      dup2\n      sub\n      swap1\n      dup1\n      dup5\n      sub\n      swap1\n      dup6\n      gas\n      staticcall\n      iszero\n      dup1\n      iszero\n      tag_412\n      jumpi\n      returndatasize\n      0x00\n      dup1\n      returndatacopy\n      revert(0x00, returndatasize)\n    tag_412:\n      pop\n      pop\n      mload(add(not(0x1f), mload(0x40)))\n      swap2\n      pop\n      pop\n      sub(shl(0xa0, 0x01), 0x01)\n        /* \"@thirdweb-dev/contracts/external-deps/openzeppelin/utils/cryptography/ECDSA.sol\":6327:6347   */\n      dup2\n      and\n        /* \"@thirdweb-dev/contracts/external-deps/openzeppelin/utils/cryptography/ECDSA.sol\":6323:6424   */\n      tag_413\n      jumpi\n        /* \"@thirdweb-dev/contracts/external-deps/openzeppelin/utils/cryptography/ECDSA.sol\":6379:6380   */\n      0x00\n        /* \"@thirdweb-dev/contracts/external-deps/openzeppelin/utils/cryptography/ECDSA.sol\":6383:6412   */\n      0x01\n        /* \"@thirdweb-dev/contracts/external-deps/openzeppelin/utils/cryptography/ECDSA.sol\":6363:6413   */\n      swap3\n      pop\n      swap3\n      pop\n      pop\n      jump(tag_407)\n        /* \"@thirdweb-dev/contracts/external-deps/openzeppelin/utils/cryptography/ECDSA.sol\":6323:6424   */\n    tag_413:\n        /* \"@thirdweb-dev/contracts/external-deps/openzeppelin/utils/cryptography/ECDSA.sol\":6442:6448   */\n      swap2\n      pop\n        /* \"@thirdweb-dev/contracts/external-deps/openzeppelin/utils/cryptography/ECDSA.sol\":6450:6470   */\n      0x00\n      swap1\n      pop\n        /* \"@thirdweb-dev/contracts/external-deps/openzeppelin/utils/cryptography/ECDSA.sol\":5022:6478   */\n    tag_407:\n      swap5\n      pop\n      swap5\n      swap3\n      pop\n      pop\n      pop\n      jump\t// out\n        /* \"@thirdweb-dev/contracts/external-deps/openzeppelin/utils/cryptography/ECDSA.sol\":583:1094   */\n    tag_395:\n        /* \"@thirdweb-dev/contracts/external-deps/openzeppelin/utils/cryptography/ECDSA.sol\":660:680   */\n      0x00\n        /* \"@thirdweb-dev/contracts/external-deps/openzeppelin/utils/cryptography/ECDSA.sol\":651:656   */\n      dup2\n        /* \"@thirdweb-dev/contracts/external-deps/openzeppelin/utils/cryptography/ECDSA.sol\":651:680   */\n      0x04\n      dup2\n      gt\n      iszero\n      tag_418\n      jumpi\n      tag_418\n      tag_295\n      jump\t// in\n    tag_418:\n      sub\n        /* \"@thirdweb-dev/contracts/external-deps/openzeppelin/utils/cryptography/ECDSA.sol\":647:1088   */\n      tag_419\n      jumpi\n        /* \"@thirdweb-dev/contracts/external-deps/openzeppelin/utils/cryptography/ECDSA.sol\":583:1094   */\n      pop\n      jump\t// out\n        /* \"@thirdweb-dev/contracts/external-deps/openzeppelin/utils/cryptography/ECDSA.sol\":647:1088   */\n    tag_419:\n        /* \"@thirdweb-dev/contracts/external-deps/openzeppelin/utils/cryptography/ECDSA.sol\":756:785   */\n      0x01\n        /* \"@thirdweb-dev/contracts/external-deps/openzeppelin/utils/cryptography/ECDSA.sol\":747:752   */\n      dup2\n        /* \"@thirdweb-dev/contracts/external-deps/openzeppelin/utils/cryptography/ECDSA.sol\":747:785   */\n      0x04\n      dup2\n      gt\n      iszero\n      tag_424\n      jumpi\n      tag_424\n      tag_295\n      jump\t// in\n    tag_424:\n      sub\n        /* \"@thirdweb-dev/contracts/external-deps/openzeppelin/utils/cryptography/ECDSA.sol\":743:1088   */\n      tag_425\n      jumpi\n        /* \"@thirdweb-dev/contracts/external-deps/openzeppelin/utils/cryptography/ECDSA.sol\":801:835   */\n      mload(0x40)\n      shl(0xe5, 0x461bcd)\n      dup2\n      mstore\n        /* \"#utility.yul\":21228:21230   */\n      0x20\n        /* \"@thirdweb-dev/contracts/external-deps/openzeppelin/utils/cryptography/ECDSA.sol\":801:835   */\n      0x04\n      dup3\n      add\n        /* \"#utility.yul\":21210:21231   */\n      mstore\n        /* \"#utility.yul\":21267:21269   */\n      0x18\n        /* \"#utility.yul\":21247:21265   */\n      0x24\n      dup3\n      add\n        /* \"#utility.yul\":21240:21270   */\n      mstore\n        /* \"#utility.yul\":21306:21332   */\n      0x45434453413a20696e76616c6964207369676e61747572650000000000000000\n        /* \"#utility.yul\":21286:21304   */\n      0x44\n      dup3\n      add\n        /* \"#utility.yul\":21279:21333   */\n      mstore\n        /* \"#utility.yul\":21350:21368   */\n      0x64\n      add\n        /* \"@thirdweb-dev/contracts/external-deps/openzeppelin/utils/cryptography/ECDSA.sol\":801:835   */\n      tag_183\n        /* \"#utility.yul\":21026:21374   */\n      jump\n        /* \"@thirdweb-dev/contracts/external-deps/openzeppelin/utils/cryptography/ECDSA.sol\":743:1088   */\n    tag_425:\n        /* \"@thirdweb-dev/contracts/external-deps/openzeppelin/utils/cryptography/ECDSA.sol\":865:900   */\n      0x02\n        /* \"@thirdweb-dev/contracts/external-deps/openzeppelin/utils/cryptography/ECDSA.sol\":856:861   */\n      dup2\n        /* \"@thirdweb-dev/contracts/external-deps/openzeppelin/utils/cryptography/ECDSA.sol\":856:900   */\n      0x04\n      dup2\n      gt\n      iszero\n      tag_432\n      jumpi\n      tag_432\n      tag_295\n      jump\t// in\n    tag_432:\n      sub\n        /* \"@thirdweb-dev/contracts/external-deps/openzeppelin/utils/cryptography/ECDSA.sol\":852:1088   */\n      tag_433\n      jumpi\n        /* \"@thirdweb-dev/contracts/external-deps/openzeppelin/utils/cryptography/ECDSA.sol\":916:957   */\n      mload(0x40)\n      shl(0xe5, 0x461bcd)\n      dup2\n      mstore\n        /* \"#utility.yul\":21581:21583   */\n      0x20\n        /* \"@thirdweb-dev/contracts/external-deps/openzeppelin/utils/cryptography/ECDSA.sol\":916:957   */\n      0x04\n      dup3\n      add\n        /* \"#utility.yul\":21563:21584   */\n      mstore\n        /* \"#utility.yul\":21620:21622   */\n      0x1f\n        /* \"#utility.yul\":21600:21618   */\n      0x24\n      dup3\n      add\n        /* \"#utility.yul\":21593:21623   */\n      mstore\n        /* \"#utility.yul\":21659:21692   */\n      0x45434453413a20696e76616c6964207369676e6174757265206c656e67746800\n        /* \"#utility.yul\":21639:21657   */\n      0x44\n      dup3\n      add\n        /* \"#utility.yul\":21632:21693   */\n      mstore\n        /* \"#utility.yul\":21710:21728   */\n      0x64\n      add\n        /* \"@thirdweb-dev/contracts/external-deps/openzeppelin/utils/cryptography/ECDSA.sol\":916:957   */\n      tag_183\n        /* \"#utility.yul\":21379:21734   */\n      jump\n        /* \"@thirdweb-dev/contracts/external-deps/openzeppelin/utils/cryptography/ECDSA.sol\":852:1088   */\n    tag_433:\n        /* \"@thirdweb-dev/contracts/external-deps/openzeppelin/utils/cryptography/ECDSA.sol\":987:1017   */\n      0x03\n        /* \"@thirdweb-dev/contracts/external-deps/openzeppelin/utils/cryptography/ECDSA.sol\":978:983   */\n      dup2\n        /* \"@thirdweb-dev/contracts/external-deps/openzeppelin/utils/cryptography/ECDSA.sol\":978:1017   */\n      0x04\n      dup2\n      gt\n      iszero\n      tag_440\n      jumpi\n      tag_440\n      tag_295\n      jump\t// in\n    tag_440:\n      sub\n        /* \"@thirdweb-dev/contracts/external-deps/openzeppelin/utils/cryptography/ECDSA.sol\":974:1088   */\n      tag_154\n      jumpi\n        /* \"@thirdweb-dev/contracts/external-deps/openzeppelin/utils/cryptography/ECDSA.sol\":1033:1077   */\n      mload(0x40)\n      shl(0xe5, 0x461bcd)\n      dup2\n      mstore\n        /* \"#utility.yul\":21941:21943   */\n      0x20\n        /* \"@thirdweb-dev/contracts/external-deps/openzeppelin/utils/cryptography/ECDSA.sol\":1033:1077   */\n      0x04\n      dup3\n      add\n        /* \"#utility.yul\":21923:21944   */\n      mstore\n        /* \"#utility.yul\":21980:21982   */\n      0x22\n        /* \"#utility.yul\":21960:21978   */\n      0x24\n      dup3\n      add\n        /* \"#utility.yul\":21953:21983   */\n      mstore\n        /* \"#utility.yul\":22019:22053   */\n      0x45434453413a20696e76616c6964207369676e6174757265202773272076616c\n        /* \"#utility.yul\":21999:22017   */\n      0x44\n      dup3\n      add\n        /* \"#utility.yul\":21992:22054   */\n      mstore\n      shl(0xf0, 0x7565)\n        /* \"#utility.yul\":22070:22088   */\n      0x64\n      dup3\n      add\n        /* \"#utility.yul\":22063:22095   */\n      mstore\n        /* \"#utility.yul\":22112:22131   */\n      0x84\n      add\n        /* \"@thirdweb-dev/contracts/external-deps/openzeppelin/utils/cryptography/ECDSA.sol\":1033:1077   */\n      tag_183\n        /* \"#utility.yul\":21739:22137   */\n      jump\n        /* \"@thirdweb-dev/contracts/lib/Address.sol\":7668:8296   */\n    tag_405:\n        /* \"@thirdweb-dev/contracts/lib/Address.sol\":7848:7860   */\n      0x60\n        /* \"@thirdweb-dev/contracts/lib/Address.sol\":7876:7883   */\n      dup4\n        /* \"@thirdweb-dev/contracts/lib/Address.sol\":7872:8290   */\n      iszero\n      tag_445\n      jumpi\n        /* \"@thirdweb-dev/contracts/lib/Address.sol\":7903:7913   */\n      dup3\n        /* \"@thirdweb-dev/contracts/lib/Address.sol\":7903:7920   */\n      mload\n        /* \"@thirdweb-dev/contracts/lib/Address.sol\":7924:7925   */\n      0x00\n        /* \"@thirdweb-dev/contracts/lib/Address.sol\":7903:7925   */\n      sub\n        /* \"@thirdweb-dev/contracts/lib/Address.sol\":7899:8185   */\n      tag_449\n      jumpi\n      sub(shl(0xa0, 0x01), 0x01)\n        /* \"@thirdweb-dev/contracts/lib/Address.sol\":1695:1714   */\n      dup6\n      and\n      extcodesize\n        /* \"@thirdweb-dev/contracts/lib/Address.sol\":8110:8170   */\n      tag_449\n      jumpi\n      mload(0x40)\n      shl(0xe5, 0x461bcd)\n      dup2\n      mstore\n        /* \"#utility.yul\":22344:22346   */\n      0x20\n        /* \"@thirdweb-dev/contracts/lib/Address.sol\":8110:8170   */\n      0x04\n      dup3\n      add\n        /* \"#utility.yul\":22326:22347   */\n      mstore\n        /* \"#utility.yul\":22383:22385   */\n      0x1d\n        /* \"#utility.yul\":22363:22381   */\n      0x24\n      dup3\n      add\n        /* \"#utility.yul\":22356:22386   */\n      mstore\n        /* \"#utility.yul\":22422:22453   */\n      0x416464726573733a2063616c6c20746f206e6f6e2d636f6e7472616374000000\n        /* \"#utility.yul\":22402:22420   */\n      0x44\n      dup3\n      add\n        /* \"#utility.yul\":22395:22454   */\n      mstore\n        /* \"#utility.yul\":22471:22489   */\n      0x64\n      add\n        /* \"@thirdweb-dev/contracts/lib/Address.sol\":8110:8170   */\n      tag_183\n        /* \"#utility.yul\":22142:22495   */\n      jump\n        /* \"@thirdweb-dev/contracts/lib/Address.sol\":8110:8170   */\n    tag_449:\n      pop\n        /* \"@thirdweb-dev/contracts/lib/Address.sol\":8205:8215   */\n      dup2\n        /* \"@thirdweb-dev/contracts/lib/Address.sol\":8198:8215   */\n      jump(tag_391)\n        /* \"@thirdweb-dev/contracts/lib/Address.sol\":7872:8290   */\n    tag_445:\n        /* \"@thirdweb-dev/contracts/lib/Address.sol\":8246:8279   */\n      tag_391\n        /* \"@thirdweb-dev/contracts/lib/Address.sol\":8254:8264   */\n      dup4\n        /* \"@thirdweb-dev/contracts/lib/Address.sol\":8266:8278   */\n      dup4\n        /* \"@thirdweb-dev/contracts/lib/Address.sol\":8977:8994   */\n      dup2\n      mload\n        /* \"@thirdweb-dev/contracts/lib/Address.sol\":8977:8998   */\n      iszero\n        /* \"@thirdweb-dev/contracts/lib/Address.sol\":8973:9352   */\n      tag_457\n      jumpi\n        /* \"@thirdweb-dev/contracts/lib/Address.sol\":9205:9215   */\n      dup2\n        /* \"@thirdweb-dev/contracts/lib/Address.sol\":9199:9216   */\n      mload\n        /* \"@thirdweb-dev/contracts/lib/Address.sol\":9261:9276   */\n      dup1\n        /* \"@thirdweb-dev/contracts/lib/Address.sol\":9248:9258   */\n      dup4\n        /* \"@thirdweb-dev/contracts/lib/Address.sol\":9244:9246   */\n      0x20\n        /* \"@thirdweb-dev/contracts/lib/Address.sol\":9240:9259   */\n      add\n        /* \"@thirdweb-dev/contracts/lib/Address.sol\":9233:9277   */\n      revert\n        /* \"@thirdweb-dev/contracts/lib/Address.sol\":8973:9352   */\n    tag_457:\n        /* \"@thirdweb-dev/contracts/lib/Address.sol\":9328:9340   */\n      dup1\n        /* \"@thirdweb-dev/contracts/lib/Address.sol\":9321:9341   */\n      mload(0x40)\n      shl(0xe5, 0x461bcd)\n      dup2\n      mstore\n      0x04\n      add\n      tag_183\n      swap2\n      swap1\n      tag_38\n      jump\t// in\n        /* \"#utility.yul\":14:303   */\n    tag_460:\n        /* \"#utility.yul\":56:59   */\n      0x00\n        /* \"#utility.yul\":94:99   */\n      dup2\n        /* \"#utility.yul\":88:100   */\n      mload\n        /* \"#utility.yul\":121:127   */\n      dup1\n        /* \"#utility.yul\":116:119   */\n      dup5\n        /* \"#utility.yul\":109:128   */\n      mstore\n        /* \"#utility.yul\":177:183   */\n      dup1\n        /* \"#utility.yul\":170:174   */\n      0x20\n        /* \"#utility.yul\":163:168   */\n      dup5\n        /* \"#utility.yul\":159:175   */\n      add\n        /* \"#utility.yul\":152:156   */\n      0x20\n        /* \"#utility.yul\":147:150   */\n      dup7\n        /* \"#utility.yul\":143:157   */\n      add\n        /* \"#utility.yul\":137:184   */\n      mcopy\n        /* \"#utility.yul\":229:230   */\n      0x00\n        /* \"#utility.yul\":222:226   */\n      0x20\n        /* \"#utility.yul\":213:219   */\n      dup3\n        /* \"#utility.yul\":208:211   */\n      dup7\n        /* \"#utility.yul\":204:220   */\n      add\n        /* \"#utility.yul\":200:227   */\n      add\n        /* \"#utility.yul\":193:231   */\n      mstore\n        /* \"#utility.yul\":292:296   */\n      0x20\n        /* \"#utility.yul\":285:287   */\n      0x1f\n        /* \"#utility.yul\":281:288   */\n      not\n        /* \"#utility.yul\":276:278   */\n      0x1f\n        /* \"#utility.yul\":268:274   */\n      dup4\n        /* \"#utility.yul\":264:279   */\n      add\n        /* \"#utility.yul\":260:289   */\n      and\n        /* \"#utility.yul\":255:258   */\n      dup6\n        /* \"#utility.yul\":251:290   */\n      add\n        /* \"#utility.yul\":247:297   */\n      add\n        /* \"#utility.yul\":240:297   */\n      swap2\n      pop\n      pop\n        /* \"#utility.yul\":14:303   */\n      swap3\n      swap2\n      pop\n      pop\n      jump\t// out\n        /* \"#utility.yul\":308:528   */\n    tag_38:\n        /* \"#utility.yul\":457:459   */\n      0x20\n        /* \"#utility.yul\":446:455   */\n      dup2\n        /* \"#utility.yul\":439:460   */\n      mstore\n        /* \"#utility.yul\":420:424   */\n      0x00\n        /* \"#utility.yul\":477:522   */\n      tag_384\n        /* \"#utility.yul\":518:520   */\n      0x20\n        /* \"#utility.yul\":507:516   */\n      dup4\n        /* \"#utility.yul\":503:521   */\n      add\n        /* \"#utility.yul\":495:501   */\n      dup5\n        /* \"#utility.yul\":477:522   */\n      tag_460\n      jump\t// in\n        /* \"#utility.yul\":533:729   */\n    tag_461:\n        /* \"#utility.yul\":601:621   */\n      dup1\n      calldataload\n      sub(shl(0xa0, 0x01), 0x01)\n        /* \"#utility.yul\":650:704   */\n      dup2\n      and\n        /* \"#utility.yul\":640:705   */\n      dup2\n      eq\n        /* \"#utility.yul\":630:723   */\n      tag_472\n      jumpi\n        /* \"#utility.yul\":719:720   */\n      0x00\n        /* \"#utility.yul\":716:717   */\n      dup1\n        /* \"#utility.yul\":709:721   */\n      revert\n        /* \"#utility.yul\":630:723   */\n    tag_472:\n        /* \"#utility.yul\":533:729   */\n      swap2\n      swap1\n      pop\n      jump\t// out\n        /* \"#utility.yul\":734:988   */\n    tag_41:\n        /* \"#utility.yul\":802:808   */\n      0x00\n        /* \"#utility.yul\":810:816   */\n      dup1\n        /* \"#utility.yul\":863:865   */\n      0x40\n        /* \"#utility.yul\":851:860   */\n      dup4\n        /* \"#utility.yul\":842:849   */\n      dup6\n        /* \"#utility.yul\":838:861   */\n      sub\n        /* \"#utility.yul\":834:866   */\n      slt\n        /* \"#utility.yul\":831:883   */\n      iszero\n      tag_474\n      jumpi\n        /* \"#utility.yul\":879:880   */\n      0x00\n        /* \"#utility.yul\":876:877   */\n      dup1\n        /* \"#utility.yul\":869:881   */\n      revert\n        /* \"#utility.yul\":831:883   */\n    tag_474:\n        /* \"#utility.yul\":902:931   */\n      tag_475\n        /* \"#utility.yul\":921:930   */\n      dup4\n        /* \"#utility.yul\":902:931   */\n      tag_461\n      jump\t// in\n    tag_475:\n        /* \"#utility.yul\":892:931   */\n      swap5\n        /* \"#utility.yul\":978:980   */\n      0x20\n        /* \"#utility.yul\":963:981   */\n      swap4\n      swap1\n      swap4\n      add\n        /* \"#utility.yul\":950:982   */\n      calldataload\n      swap4\n      pop\n      pop\n      pop\n        /* \"#utility.yul\":734:988   */\n      jump\t// out\n        /* \"#utility.yul\":1185:1371   */\n    tag_47:\n        /* \"#utility.yul\":1244:1250   */\n      0x00\n        /* \"#utility.yul\":1297:1299   */\n      0x20\n        /* \"#utility.yul\":1285:1294   */\n      dup3\n        /* \"#utility.yul\":1276:1283   */\n      dup5\n        /* \"#utility.yul\":1272:1295   */\n      sub\n        /* \"#utility.yul\":1268:1300   */\n      slt\n        /* \"#utility.yul\":1265:1317   */\n      iszero\n      tag_478\n      jumpi\n        /* \"#utility.yul\":1313:1314   */\n      0x00\n        /* \"#utility.yul\":1310:1311   */\n      dup1\n        /* \"#utility.yul\":1303:1315   */\n      revert\n        /* \"#utility.yul\":1265:1317   */\n    tag_478:\n        /* \"#utility.yul\":1336:1365   */\n      tag_384\n        /* \"#utility.yul\":1355:1364   */\n      dup3\n        /* \"#utility.yul\":1336:1365   */\n      tag_461\n      jump\t// in\n        /* \"#utility.yul\":1558:1886   */\n    tag_55:\n        /* \"#utility.yul\":1635:1641   */\n      0x00\n        /* \"#utility.yul\":1643:1649   */\n      dup1\n        /* \"#utility.yul\":1651:1657   */\n      0x00\n        /* \"#utility.yul\":1704:1706   */\n      0x60\n        /* \"#utility.yul\":1692:1701   */\n      dup5\n        /* \"#utility.yul\":1683:1690   */\n      dup7\n        /* \"#utility.yul\":1679:1702   */\n      sub\n        /* \"#utility.yul\":1675:1707   */\n      slt\n        /* \"#utility.yul\":1672:1724   */\n      iszero\n      tag_482\n      jumpi\n        /* \"#utility.yul\":1720:1721   */\n      0x00\n        /* \"#utility.yul\":1717:1718   */\n      dup1\n        /* \"#utility.yul\":1710:1722   */\n      revert\n        /* \"#utility.yul\":1672:1724   */\n    tag_482:\n        /* \"#utility.yul\":1743:1772   */\n      tag_483\n        /* \"#utility.yul\":1762:1771   */\n      dup5\n        /* \"#utility.yul\":1743:1772   */\n      tag_461\n      jump\t// in\n    tag_483:\n        /* \"#utility.yul\":1733:1772   */\n      swap3\n      pop\n        /* \"#utility.yul\":1791:1829   */\n      tag_484\n        /* \"#utility.yul\":1825:1827   */\n      0x20\n        /* \"#utility.yul\":1814:1823   */\n      dup6\n        /* \"#utility.yul\":1810:1828   */\n      add\n        /* \"#utility.yul\":1791:1829   */\n      tag_461\n      jump\t// in\n    tag_484:\n        /* \"#utility.yul\":1781:1829   */\n      swap2\n      pop\n        /* \"#utility.yul\":1876:1878   */\n      0x40\n        /* \"#utility.yul\":1865:1874   */\n      dup5\n        /* \"#utility.yul\":1861:1879   */\n      add\n        /* \"#utility.yul\":1848:1880   */\n      calldataload\n        /* \"#utility.yul\":1838:1880   */\n      swap1\n      pop\n        /* \"#utility.yul\":1558:1886   */\n      swap3\n      pop\n      swap3\n      pop\n      swap3\n      jump\t// out\n        /* \"#utility.yul\":2262:2442   */\n    tag_72:\n        /* \"#utility.yul\":2321:2327   */\n      0x00\n        /* \"#utility.yul\":2374:2376   */\n      0x20\n        /* \"#utility.yul\":2362:2371   */\n      dup3\n        /* \"#utility.yul\":2353:2360   */\n      dup5\n        /* \"#utility.yul\":2349:2372   */\n      sub\n        /* \"#utility.yul\":2345:2377   */\n      slt\n        /* \"#utility.yul\":2342:2394   */\n      iszero\n      tag_488\n      jumpi\n        /* \"#utility.yul\":2390:2391   */\n      0x00\n        /* \"#utility.yul\":2387:2388   */\n      dup1\n        /* \"#utility.yul\":2380:2392   */\n      revert\n        /* \"#utility.yul\":2342:2394   */\n    tag_488:\n      pop\n        /* \"#utility.yul\":2413:2436   */\n      calldataload\n      swap2\n        /* \"#utility.yul\":2262:2442   */\n      swap1\n      pop\n      jump\t// out\n        /* \"#utility.yul\":2447:2695   */\n    tag_83:\n        /* \"#utility.yul\":2515:2521   */\n      0x00\n        /* \"#utility.yul\":2523:2529   */\n      dup1\n        /* \"#utility.yul\":2576:2578   */\n      0x40\n        /* \"#utility.yul\":2564:2573   */\n      dup4\n        /* \"#utility.yul\":2555:2562   */\n      dup6\n        /* \"#utility.yul\":2551:2574   */\n      sub\n        /* \"#utility.yul\":2547:2579   */\n      slt\n        /* \"#utility.yul\":2544:2596   */\n      iszero\n      tag_490\n      jumpi\n        /* \"#utility.yul\":2592:2593   */\n      0x00\n        /* \"#utility.yul\":2589:2590   */\n      dup1\n        /* \"#utility.yul\":2582:2594   */\n      revert\n        /* \"#utility.yul\":2544:2596   */\n    tag_490:\n      pop\n      pop\n        /* \"#utility.yul\":2615:2638   */\n      dup1\n      calldataload\n      swap3\n        /* \"#utility.yul\":2685:2687   */\n      0x20\n        /* \"#utility.yul\":2670:2688   */\n      swap1\n      swap2\n      add\n        /* \"#utility.yul\":2657:2689   */\n      calldataload\n      swap2\n      pop\n        /* \"#utility.yul\":2447:2695   */\n      jump\t// out\n        /* \"#utility.yul\":2700:2827   */\n    tag_295:\n        /* \"#utility.yul\":2761:2771   */\n      0x4e487b71\n        /* \"#utility.yul\":2756:2759   */\n      0xe0\n        /* \"#utility.yul\":2752:2772   */\n      shl\n        /* \"#utility.yul\":2749:2750   */\n      0x00\n        /* \"#utility.yul\":2742:2773   */\n      mstore\n        /* \"#utility.yul\":2792:2796   */\n      0x21\n        /* \"#utility.yul\":2789:2790   */\n      0x04\n        /* \"#utility.yul\":2782:2797   */\n      mstore\n        /* \"#utility.yul\":2816:2820   */\n      0x24\n        /* \"#utility.yul\":2813:2814   */\n      0x00\n        /* \"#utility.yul\":2806:2821   */\n      revert\n        /* \"#utility.yul\":2832:3064   */\n    tag_462:\n        /* \"#utility.yul\":2908:2909   */\n      0x02\n        /* \"#utility.yul\":2901:2906   */\n      dup2\n        /* \"#utility.yul\":2898:2910   */\n      lt\n        /* \"#utility.yul\":2888:3031   */\n      tag_493\n      jumpi\n        /* \"#utility.yul\":2953:2963   */\n      0x4e487b71\n        /* \"#utility.yul\":2948:2951   */\n      0xe0\n        /* \"#utility.yul\":2944:2964   */\n      shl\n        /* \"#utility.yul\":2941:2942   */\n      0x00\n        /* \"#utility.yul\":2934:2965   */\n      mstore\n        /* \"#utility.yul\":2988:2992   */\n      0x21\n        /* \"#utility.yul\":2985:2986   */\n      0x04\n        /* \"#utility.yul\":2978:2993   */\n      mstore\n        /* \"#utility.yul\":3016:3020   */\n      0x24\n        /* \"#utility.yul\":3013:3014   */\n      0x00\n        /* \"#utility.yul\":3006:3021   */\n      revert\n        /* \"#utility.yul\":2888:3031   */\n    tag_493:\n        /* \"#utility.yul\":3040:3058   */\n      swap1\n      mstore\n        /* \"#utility.yul\":2832:3064   */\n      jump\t// out\n        /* \"#utility.yul\":3069:3529   */\n    tag_86:\n      sub(shl(0xa0, 0x01), 0x01)\n        /* \"#utility.yul\":3324:3379   */\n      dup6\n      and\n        /* \"#utility.yul\":3306:3380   */\n      dup2\n      mstore\n        /* \"#utility.yul\":3293:3296   */\n      0x80\n        /* \"#utility.yul\":3278:3297   */\n      dup2\n      add\n        /* \"#utility.yul\":3389:3437   */\n      tag_495\n        /* \"#utility.yul\":3433:3435   */\n      0x20\n        /* \"#utility.yul\":3418:3436   */\n      dup4\n      add\n        /* \"#utility.yul\":3410:3416   */\n      dup7\n        /* \"#utility.yul\":3389:3437   */\n      tag_462\n      jump\t// in\n    tag_495:\n        /* \"#utility.yul\":3468:3470   */\n      0x40\n        /* \"#utility.yul\":3453:3471   */\n      dup3\n      add\n        /* \"#utility.yul\":3446:3480   */\n      swap4\n      swap1\n      swap4\n      mstore\n        /* \"#utility.yul\":3511:3513   */\n      0x60\n        /* \"#utility.yul\":3496:3514   */\n      add\n        /* \"#utility.yul\":3489:3523   */\n      mstore\n        /* \"#utility.yul\":3069:3529   */\n      swap3\n      swap2\n      pop\n      pop\n      jump\t// out\n        /* \"#utility.yul\":3765:3892   */\n    tag_237:\n        /* \"#utility.yul\":3826:3836   */\n      0x4e487b71\n        /* \"#utility.yul\":3821:3824   */\n      0xe0\n        /* \"#utility.yul\":3817:3837   */\n      shl\n        /* \"#utility.yul\":3814:3815   */\n      0x00\n        /* \"#utility.yul\":3807:3838   */\n      mstore\n        /* \"#utility.yul\":3857:3861   */\n      0x41\n        /* \"#utility.yul\":3854:3855   */\n      0x04\n        /* \"#utility.yul\":3847:3862   */\n      mstore\n        /* \"#utility.yul\":3881:3885   */\n      0x24\n        /* \"#utility.yul\":3878:3879   */\n      0x00\n        /* \"#utility.yul\":3871:3886   */\n      revert\n        /* \"#utility.yul\":3897:4819   */\n    tag_103:\n        /* \"#utility.yul\":3966:3972   */\n      0x00\n        /* \"#utility.yul\":4019:4021   */\n      0x20\n        /* \"#utility.yul\":4007:4016   */\n      dup3\n        /* \"#utility.yul\":3998:4005   */\n      dup5\n        /* \"#utility.yul\":3994:4017   */\n      sub\n        /* \"#utility.yul\":3990:4022   */\n      slt\n        /* \"#utility.yul\":3987:4039   */\n      iszero\n      tag_499\n      jumpi\n        /* \"#utility.yul\":4035:4036   */\n      0x00\n        /* \"#utility.yul\":4032:4033   */\n      dup1\n        /* \"#utility.yul\":4025:4037   */\n      revert\n        /* \"#utility.yul\":3987:4039   */\n    tag_499:\n        /* \"#utility.yul\":4075:4084   */\n      dup2\n        /* \"#utility.yul\":4062:4085   */\n      calldataload\n        /* \"#utility.yul\":4104:4122   */\n      0xffffffffffffffff\n        /* \"#utility.yul\":4145:4147   */\n      dup1\n        /* \"#utility.yul\":4137:4143   */\n      dup3\n        /* \"#utility.yul\":4134:4148   */\n      gt\n        /* \"#utility.yul\":4131:4165   */\n      iszero\n      tag_500\n      jumpi\n        /* \"#utility.yul\":4161:4162   */\n      0x00\n        /* \"#utility.yul\":4158:4159   */\n      dup1\n        /* \"#utility.yul\":4151:4163   */\n      revert\n        /* \"#utility.yul\":4131:4165   */\n    tag_500:\n        /* \"#utility.yul\":4199:4205   */\n      dup2\n        /* \"#utility.yul\":4188:4197   */\n      dup5\n        /* \"#utility.yul\":4184:4206   */\n      add\n        /* \"#utility.yul\":4174:4206   */\n      swap2\n      pop\n        /* \"#utility.yul\":4244:4251   */\n      dup5\n        /* \"#utility.yul\":4237:4241   */\n      0x1f\n        /* \"#utility.yul\":4233:4235   */\n      dup4\n        /* \"#utility.yul\":4229:4242   */\n      add\n        /* \"#utility.yul\":4225:4252   */\n      slt\n        /* \"#utility.yul\":4215:4270   */\n      tag_501\n      jumpi\n        /* \"#utility.yul\":4266:4267   */\n      0x00\n        /* \"#utility.yul\":4263:4264   */\n      dup1\n        /* \"#utility.yul\":4256:4268   */\n      revert\n        /* \"#utility.yul\":4215:4270   */\n    tag_501:\n        /* \"#utility.yul\":4302:4304   */\n      dup2\n        /* \"#utility.yul\":4289:4305   */\n      calldataload\n        /* \"#utility.yul\":4324:4326   */\n      dup2\n        /* \"#utility.yul\":4320:4322   */\n      dup2\n        /* \"#utility.yul\":4317:4327   */\n      gt\n        /* \"#utility.yul\":4314:4350   */\n      iszero\n      tag_503\n      jumpi\n        /* \"#utility.yul\":4330:4348   */\n      tag_503\n      tag_237\n      jump\t// in\n    tag_503:\n        /* \"#utility.yul\":4405:4407   */\n      0x40\n        /* \"#utility.yul\":4399:4408   */\n      mload\n        /* \"#utility.yul\":4373:4375   */\n      0x1f\n        /* \"#utility.yul\":4459:4472   */\n      dup3\n      add\n      not(0x1f)\n        /* \"#utility.yul\":4455:4477   */\n      swap1\n      dup2\n      and\n        /* \"#utility.yul\":4479:4481   */\n      0x3f\n        /* \"#utility.yul\":4451:4482   */\n      add\n        /* \"#utility.yul\":4447:4487   */\n      and\n        /* \"#utility.yul\":4435:4488   */\n      dup2\n      add\n      swap1\n        /* \"#utility.yul\":4503:4521   */\n      dup4\n      dup3\n      gt\n        /* \"#utility.yul\":4523:4545   */\n      dup2\n      dup4\n      lt\n        /* \"#utility.yul\":4500:4546   */\n      or\n        /* \"#utility.yul\":4497:4569   */\n      iszero\n      tag_505\n      jumpi\n        /* \"#utility.yul\":4549:4567   */\n      tag_505\n      tag_237\n      jump\t// in\n    tag_505:\n        /* \"#utility.yul\":4589:4599   */\n      dup2\n        /* \"#utility.yul\":4585:4587   */\n      0x40\n        /* \"#utility.yul\":4578:4600   */\n      mstore\n        /* \"#utility.yul\":4624:4626   */\n      dup3\n        /* \"#utility.yul\":4616:4622   */\n      dup2\n        /* \"#utility.yul\":4609:4627   */\n      mstore\n        /* \"#utility.yul\":4664:4671   */\n      dup8\n        /* \"#utility.yul\":4659:4661   */\n      0x20\n        /* \"#utility.yul\":4654:4656   */\n      dup5\n        /* \"#utility.yul\":4650:4652   */\n      dup8\n        /* \"#utility.yul\":4646:4657   */\n      add\n        /* \"#utility.yul\":4642:4662   */\n      add\n        /* \"#utility.yul\":4639:4672   */\n      gt\n        /* \"#utility.yul\":4636:4689   */\n      iszero\n      tag_506\n      jumpi\n        /* \"#utility.yul\":4685:4686   */\n      0x00\n        /* \"#utility.yul\":4682:4683   */\n      dup1\n        /* \"#utility.yul\":4675:4687   */\n      revert\n        /* \"#utility.yul\":4636:4689   */\n    tag_506:\n        /* \"#utility.yul\":4741:4743   */\n      dup3\n        /* \"#utility.yul\":4736:4738   */\n      0x20\n        /* \"#utility.yul\":4732:4734   */\n      dup7\n        /* \"#utility.yul\":4728:4739   */\n      add\n        /* \"#utility.yul\":4723:4725   */\n      0x20\n        /* \"#utility.yul\":4715:4721   */\n      dup4\n        /* \"#utility.yul\":4711:4726   */\n      add\n        /* \"#utility.yul\":4698:4744   */\n      calldatacopy\n        /* \"#utility.yul\":4786:4787   */\n      0x00\n        /* \"#utility.yul\":4764:4779   */\n      swap3\n      dup2\n      add\n        /* \"#utility.yul\":4781:4783   */\n      0x20\n        /* \"#utility.yul\":4760:4784   */\n      add\n        /* \"#utility.yul\":4753:4788   */\n      swap3\n      swap1\n      swap3\n      mstore\n      pop\n        /* \"#utility.yul\":4768:4774   */\n      swap6\n        /* \"#utility.yul\":3897:4819   */\n      swap5\n      pop\n      pop\n      pop\n      pop\n      pop\n      jump\t// out\n        /* \"#utility.yul\":4824:5450   */\n    tag_118:\n        /* \"#utility.yul\":4921:4927   */\n      0x00\n        /* \"#utility.yul\":4929:4935   */\n      dup1\n        /* \"#utility.yul\":4982:4984   */\n      0x20\n        /* \"#utility.yul\":4970:4979   */\n      dup4\n        /* \"#utility.yul\":4961:4968   */\n      dup6\n        /* \"#utility.yul\":4957:4980   */\n      sub\n        /* \"#utility.yul\":4953:4985   */\n      slt\n        /* \"#utility.yul\":4950:5002   */\n      iszero\n      tag_508\n      jumpi\n        /* \"#utility.yul\":4998:4999   */\n      0x00\n        /* \"#utility.yul\":4995:4996   */\n      dup1\n        /* \"#utility.yul\":4988:5000   */\n      revert\n        /* \"#utility.yul\":4950:5002   */\n    tag_508:\n        /* \"#utility.yul\":5038:5047   */\n      dup3\n        /* \"#utility.yul\":5025:5048   */\n      calldataload\n        /* \"#utility.yul\":5067:5085   */\n      0xffffffffffffffff\n        /* \"#utility.yul\":5108:5110   */\n      dup1\n        /* \"#utility.yul\":5100:5106   */\n      dup3\n        /* \"#utility.yul\":5097:5111   */\n      gt\n        /* \"#utility.yul\":5094:5128   */\n      iszero\n      tag_509\n      jumpi\n        /* \"#utility.yul\":5124:5125   */\n      0x00\n        /* \"#utility.yul\":5121:5122   */\n      dup1\n        /* \"#utility.yul\":5114:5126   */\n      revert\n        /* \"#utility.yul\":5094:5128   */\n    tag_509:\n        /* \"#utility.yul\":5162:5168   */\n      dup2\n        /* \"#utility.yul\":5151:5160   */\n      dup6\n        /* \"#utility.yul\":5147:5169   */\n      add\n        /* \"#utility.yul\":5137:5169   */\n      swap2\n      pop\n        /* \"#utility.yul\":5207:5214   */\n      dup6\n        /* \"#utility.yul\":5200:5204   */\n      0x1f\n        /* \"#utility.yul\":5196:5198   */\n      dup4\n        /* \"#utility.yul\":5192:5205   */\n      add\n        /* \"#utility.yul\":5188:5215   */\n      slt\n        /* \"#utility.yul\":5178:5233   */\n      tag_510\n      jumpi\n        /* \"#utility.yul\":5229:5230   */\n      0x00\n        /* \"#utility.yul\":5226:5227   */\n      dup1\n        /* \"#utility.yul\":5219:5231   */\n      revert\n        /* \"#utility.yul\":5178:5233   */\n    tag_510:\n        /* \"#utility.yul\":5269:5271   */\n      dup2\n        /* \"#utility.yul\":5256:5272   */\n      calldataload\n        /* \"#utility.yul\":5295:5297   */\n      dup2\n        /* \"#utility.yul\":5287:5293   */\n      dup2\n        /* \"#utility.yul\":5284:5298   */\n      gt\n        /* \"#utility.yul\":5281:5315   */\n      iszero\n      tag_511\n      jumpi\n        /* \"#utility.yul\":5311:5312   */\n      0x00\n        /* \"#utility.yul\":5308:5309   */\n      dup1\n        /* \"#utility.yul\":5301:5313   */\n      revert\n        /* \"#utility.yul\":5281:5315   */\n    tag_511:\n        /* \"#utility.yul\":5364:5371   */\n      dup7\n        /* \"#utility.yul\":5359:5361   */\n      0x20\n        /* \"#utility.yul\":5349:5355   */\n      dup3\n        /* \"#utility.yul\":5346:5347   */\n      0x05\n        /* \"#utility.yul\":5342:5356   */\n      shl\n        /* \"#utility.yul\":5338:5340   */\n      dup6\n        /* \"#utility.yul\":5334:5357   */\n      add\n        /* \"#utility.yul\":5330:5362   */\n      add\n        /* \"#utility.yul\":5327:5372   */\n      gt\n        /* \"#utility.yul\":5324:5389   */\n      iszero\n      tag_512\n      jumpi\n        /* \"#utility.yul\":5385:5386   */\n      0x00\n        /* \"#utility.yul\":5382:5383   */\n      dup1\n        /* \"#utility.yul\":5375:5387   */\n      revert\n        /* \"#utility.yul\":5324:5389   */\n    tag_512:\n        /* \"#utility.yul\":5416:5418   */\n      0x20\n        /* \"#utility.yul\":5408:5419   */\n      swap3\n      swap1\n      swap3\n      add\n      swap7\n        /* \"#utility.yul\":5438:5444   */\n      swap2\n      swap6\n      pop\n        /* \"#utility.yul\":4824:5450   */\n      swap1\n      swap4\n      pop\n      pop\n      pop\n      pop\n      jump\t// out\n        /* \"#utility.yul\":5455:6256   */\n    tag_121:\n        /* \"#utility.yul\":5615:5619   */\n      0x00\n        /* \"#utility.yul\":5644:5646   */\n      0x20\n        /* \"#utility.yul\":5684:5686   */\n      dup1\n        /* \"#utility.yul\":5673:5682   */\n      dup4\n        /* \"#utility.yul\":5669:5687   */\n      add\n        /* \"#utility.yul\":5714:5716   */\n      0x20\n        /* \"#utility.yul\":5703:5712   */\n      dup5\n        /* \"#utility.yul\":5696:5717   */\n      mstore\n        /* \"#utility.yul\":5737:5743   */\n      dup1\n        /* \"#utility.yul\":5772:5778   */\n      dup6\n        /* \"#utility.yul\":5766:5779   */\n      mload\n        /* \"#utility.yul\":5803:5809   */\n      dup1\n        /* \"#utility.yul\":5795:5801   */\n      dup4\n        /* \"#utility.yul\":5788:5810   */\n      mstore\n        /* \"#utility.yul\":5841:5843   */\n      0x40\n        /* \"#utility.yul\":5830:5839   */\n      dup7\n        /* \"#utility.yul\":5826:5844   */\n      add\n        /* \"#utility.yul\":5819:5844   */\n      swap2\n      pop\n        /* \"#utility.yul\":5903:5905   */\n      0x40\n        /* \"#utility.yul\":5893:5899   */\n      dup2\n        /* \"#utility.yul\":5890:5891   */\n      0x05\n        /* \"#utility.yul\":5886:5900   */\n      shl\n        /* \"#utility.yul\":5875:5884   */\n      dup8\n        /* \"#utility.yul\":5871:5901   */\n      add\n        /* \"#utility.yul\":5867:5906   */\n      add\n        /* \"#utility.yul\":5853:5906   */\n      swap3\n      pop\n        /* \"#utility.yul\":5941:5943   */\n      0x20\n        /* \"#utility.yul\":5933:5939   */\n      dup8\n        /* \"#utility.yul\":5929:5944   */\n      add\n        /* \"#utility.yul\":5962:5963   */\n      0x00\n        /* \"#utility.yul\":5972:6227   */\n    tag_514:\n        /* \"#utility.yul\":5986:5992   */\n      dup3\n        /* \"#utility.yul\":5983:5984   */\n      dup2\n        /* \"#utility.yul\":5980:5993   */\n      lt\n        /* \"#utility.yul\":5972:6227   */\n      iszero\n      tag_516\n      jumpi\n        /* \"#utility.yul\":6079:6081   */\n      0x3f\n        /* \"#utility.yul\":6075:6082   */\n      not\n        /* \"#utility.yul\":6063:6072   */\n      dup9\n        /* \"#utility.yul\":6055:6061   */\n      dup7\n        /* \"#utility.yul\":6051:6073   */\n      sub\n        /* \"#utility.yul\":6047:6083   */\n      add\n        /* \"#utility.yul\":6042:6045   */\n      dup5\n        /* \"#utility.yul\":6035:6084   */\n      mstore\n        /* \"#utility.yul\":6107:6147   */\n      tag_517\n        /* \"#utility.yul\":6140:6146   */\n      dup6\n        /* \"#utility.yul\":6131:6137   */\n      dup4\n        /* \"#utility.yul\":6125:6138   */\n      mload\n        /* \"#utility.yul\":6107:6147   */\n      tag_460\n      jump\t// in\n    tag_517:\n        /* \"#utility.yul\":6097:6147   */\n      swap5\n      pop\n        /* \"#utility.yul\":6205:6217   */\n      swap3\n      dup6\n      add\n      swap3\n        /* \"#utility.yul\":6170:6185   */\n      swap1\n      dup6\n      add\n      swap1\n        /* \"#utility.yul\":6008:6009   */\n      0x01\n        /* \"#utility.yul\":6001:6010   */\n      add\n        /* \"#utility.yul\":5972:6227   */\n      jump(tag_514)\n    tag_516:\n      pop\n        /* \"#utility.yul\":6244:6250   */\n      swap3\n      swap8\n        /* \"#utility.yul\":5455:6256   */\n      swap7\n      pop\n      pop\n      pop\n      pop\n      pop\n      pop\n      pop\n      jump\t// out\n        /* \"#utility.yul\":6261:6954   */\n    tag_124:\n        /* \"#utility.yul\":6372:6378   */\n      0x00\n        /* \"#utility.yul\":6380:6386   */\n      dup1\n        /* \"#utility.yul\":6388:6394   */\n      0x00\n        /* \"#utility.yul\":6396:6402   */\n      dup1\n        /* \"#utility.yul\":6404:6410   */\n      0x00\n        /* \"#utility.yul\":6412:6418   */\n      dup1\n        /* \"#utility.yul\":6420:6426   */\n      0x00\n        /* \"#utility.yul\":6473:6476   */\n      0xe0\n        /* \"#utility.yul\":6461:6470   */\n      dup9\n        /* \"#utility.yul\":6452:6459   */\n      dup11\n        /* \"#utility.yul\":6448:6471   */\n      sub\n        /* \"#utility.yul\":6444:6477   */\n      slt\n        /* \"#utility.yul\":6441:6494   */\n      iszero\n      tag_519\n      jumpi\n        /* \"#utility.yul\":6490:6491   */\n      0x00\n        /* \"#utility.yul\":6487:6488   */\n      dup1\n        /* \"#utility.yul\":6480:6492   */\n      revert\n        /* \"#utility.yul\":6441:6494   */\n    tag_519:\n        /* \"#utility.yul\":6513:6542   */\n      tag_520\n        /* \"#utility.yul\":6532:6541   */\n      dup9\n        /* \"#utility.yul\":6513:6542   */\n      tag_461\n      jump\t// in\n    tag_520:\n        /* \"#utility.yul\":6503:6542   */\n      swap7\n      pop\n        /* \"#utility.yul\":6561:6599   */\n      tag_521\n        /* \"#utility.yul\":6595:6597   */\n      0x20\n        /* \"#utility.yul\":6584:6593   */\n      dup10\n        /* \"#utility.yul\":6580:6598   */\n      add\n        /* \"#utility.yul\":6561:6599   */\n      tag_461\n      jump\t// in\n    tag_521:\n        /* \"#utility.yul\":6551:6599   */\n      swap6\n      pop\n        /* \"#utility.yul\":6646:6648   */\n      0x40\n        /* \"#utility.yul\":6635:6644   */\n      dup9\n        /* \"#utility.yul\":6631:6649   */\n      add\n        /* \"#utility.yul\":6618:6650   */\n      calldataload\n        /* \"#utility.yul\":6608:6650   */\n      swap5\n      pop\n        /* \"#utility.yul\":6697:6699   */\n      0x60\n        /* \"#utility.yul\":6686:6695   */\n      dup9\n        /* \"#utility.yul\":6682:6700   */\n      add\n        /* \"#utility.yul\":6669:6701   */\n      calldataload\n        /* \"#utility.yul\":6659:6701   */\n      swap4\n      pop\n        /* \"#utility.yul\":6751:6754   */\n      0x80\n        /* \"#utility.yul\":6740:6749   */\n      dup9\n        /* \"#utility.yul\":6736:6755   */\n      add\n        /* \"#utility.yul\":6723:6756   */\n      calldataload\n        /* \"#utility.yul\":6796:6800   */\n      0xff\n        /* \"#utility.yul\":6789:6794   */\n      dup2\n        /* \"#utility.yul\":6785:6801   */\n      and\n        /* \"#utility.yul\":6778:6783   */\n      dup2\n        /* \"#utility.yul\":6775:6802   */\n      eq\n        /* \"#utility.yul\":6765:6820   */\n      tag_522\n      jumpi\n        /* \"#utility.yul\":6816:6817   */\n      0x00\n        /* \"#utility.yul\":6813:6814   */\n      dup1\n        /* \"#utility.yul\":6806:6818   */\n      revert\n        /* \"#utility.yul\":6765:6820   */\n    tag_522:\n        /* \"#utility.yul\":6261:6954   */\n      swap7\n      swap10\n      swap6\n      swap9\n      pop\n      swap4\n      swap7\n      swap3\n      swap6\n        /* \"#utility.yul\":6839:6844   */\n      swap5\n        /* \"#utility.yul\":6891:6894   */\n      0xa0\n        /* \"#utility.yul\":6876:6895   */\n      dup5\n      add\n        /* \"#utility.yul\":6863:6896   */\n      calldataload\n      swap5\n      pop\n        /* \"#utility.yul\":6943:6946   */\n      0xc0\n        /* \"#utility.yul\":6928:6947   */\n      swap1\n      swap4\n      add\n        /* \"#utility.yul\":6915:6948   */\n      calldataload\n      swap3\n        /* \"#utility.yul\":6261:6954   */\n      swap2\n      pop\n      pop\n      jump\t// out\n        /* \"#utility.yul\":6959:7503   */\n    tag_128:\n        /* \"#utility.yul\":7062:7068   */\n      0x00\n        /* \"#utility.yul\":7070:7076   */\n      dup1\n        /* \"#utility.yul\":7078:7084   */\n      0x00\n        /* \"#utility.yul\":7086:7092   */\n      dup1\n        /* \"#utility.yul\":7094:7100   */\n      0x00\n        /* \"#utility.yul\":7147:7150   */\n      0xa0\n        /* \"#utility.yul\":7135:7144   */\n      dup7\n        /* \"#utility.yul\":7126:7133   */\n      dup9\n        /* \"#utility.yul\":7122:7145   */\n      sub\n        /* \"#utility.yul\":7118:7151   */\n      slt\n        /* \"#utility.yul\":7115:7168   */\n      iszero\n      tag_524\n      jumpi\n        /* \"#utility.yul\":7164:7165   */\n      0x00\n        /* \"#utility.yul\":7161:7162   */\n      dup1\n        /* \"#utility.yul\":7154:7166   */\n      revert\n        /* \"#utility.yul\":7115:7168   */\n    tag_524:\n        /* \"#utility.yul\":7187:7216   */\n      tag_525\n        /* \"#utility.yul\":7206:7215   */\n      dup7\n        /* \"#utility.yul\":7187:7216   */\n      tag_461\n      jump\t// in\n    tag_525:\n        /* \"#utility.yul\":7177:7216   */\n      swap5\n      pop\n        /* \"#utility.yul\":7263:7265   */\n      0x20\n        /* \"#utility.yul\":7252:7261   */\n      dup7\n        /* \"#utility.yul\":7248:7266   */\n      add\n        /* \"#utility.yul\":7235:7267   */\n      calldataload\n        /* \"#utility.yul\":7225:7267   */\n      swap4\n      pop\n        /* \"#utility.yul\":7314:7316   */\n      0x40\n        /* \"#utility.yul\":7303:7312   */\n      dup7\n        /* \"#utility.yul\":7299:7317   */\n      add\n        /* \"#utility.yul\":7286:7318   */\n      calldataload\n        /* \"#utility.yul\":7276:7318   */\n      swap3\n      pop\n        /* \"#utility.yul\":7368:7370   */\n      0x60\n        /* \"#utility.yul\":7357:7366   */\n      dup7\n        /* \"#utility.yul\":7353:7371   */\n      add\n        /* \"#utility.yul\":7340:7372   */\n      calldataload\n        /* \"#utility.yul\":7401:7402   */\n      0x02\n        /* \"#utility.yul\":7394:7399   */\n      dup2\n        /* \"#utility.yul\":7391:7403   */\n      lt\n        /* \"#utility.yul\":7381:7421   */\n      tag_526\n      jumpi\n        /* \"#utility.yul\":7417:7418   */\n      0x00\n        /* \"#utility.yul\":7414:7415   */\n      dup1\n        /* \"#utility.yul\":7407:7419   */\n      revert\n        /* \"#utility.yul\":7381:7421   */\n    tag_526:\n        /* \"#utility.yul\":6959:7503   */\n      swap5\n      swap8\n      swap4\n      swap7\n      pop\n      swap2\n      swap5\n        /* \"#utility.yul\":7492:7495   */\n      0x80\n        /* \"#utility.yul\":7477:7496   */\n      add\n        /* \"#utility.yul\":7464:7497   */\n      calldataload\n      swap3\n        /* \"#utility.yul\":6959:7503   */\n      swap2\n      pop\n      pop\n      jump\t// out\n        /* \"#utility.yul\":7508:7768   */\n    tag_132:\n        /* \"#utility.yul\":7576:7582   */\n      0x00\n        /* \"#utility.yul\":7584:7590   */\n      dup1\n        /* \"#utility.yul\":7637:7639   */\n      0x40\n        /* \"#utility.yul\":7625:7634   */\n      dup4\n        /* \"#utility.yul\":7616:7623   */\n      dup6\n        /* \"#utility.yul\":7612:7635   */\n      sub\n        /* \"#utility.yul\":7608:7640   */\n      slt\n        /* \"#utility.yul\":7605:7657   */\n      iszero\n      tag_528\n      jumpi\n        /* \"#utility.yul\":7653:7654   */\n      0x00\n        /* \"#utility.yul\":7650:7651   */\n      dup1\n        /* \"#utility.yul\":7643:7655   */\n      revert\n        /* \"#utility.yul\":7605:7657   */\n    tag_528:\n        /* \"#utility.yul\":7676:7705   */\n      tag_529\n        /* \"#utility.yul\":7695:7704   */\n      dup4\n        /* \"#utility.yul\":7676:7705   */\n      tag_461\n      jump\t// in\n    tag_529:\n        /* \"#utility.yul\":7666:7705   */\n      swap2\n      pop\n        /* \"#utility.yul\":7724:7762   */\n      tag_530\n        /* \"#utility.yul\":7758:7760   */\n      0x20\n        /* \"#utility.yul\":7747:7756   */\n      dup5\n        /* \"#utility.yul\":7743:7761   */\n      add\n        /* \"#utility.yul\":7724:7762   */\n      tag_461\n      jump\t// in\n    tag_530:\n        /* \"#utility.yul\":7714:7762   */\n      swap1\n      pop\n        /* \"#utility.yul\":7508:7768   */\n      swap3\n      pop\n      swap3\n      swap1\n      pop\n      jump\t// out\n        /* \"#utility.yul\":7773:8153   */\n    tag_140:\n        /* \"#utility.yul\":7852:7853   */\n      0x01\n        /* \"#utility.yul\":7848:7860   */\n      dup2\n      dup2\n      shr\n      swap1\n        /* \"#utility.yul\":7895:7907   */\n      dup3\n      and\n      dup1\n        /* \"#utility.yul\":7916:7977   */\n      tag_532\n      jumpi\n        /* \"#utility.yul\":7970:7974   */\n      0x7f\n        /* \"#utility.yul\":7962:7968   */\n      dup3\n        /* \"#utility.yul\":7958:7975   */\n      and\n        /* \"#utility.yul\":7948:7975   */\n      swap2\n      pop\n        /* \"#utility.yul\":7916:7977   */\n    tag_532:\n        /* \"#utility.yul\":8023:8025   */\n      0x20\n        /* \"#utility.yul\":8015:8021   */\n      dup3\n        /* \"#utility.yul\":8012:8026   */\n      lt\n        /* \"#utility.yul\":7992:8010   */\n      dup2\n        /* \"#utility.yul\":7989:8027   */\n      sub\n        /* \"#utility.yul\":7986:8147   */\n      tag_388\n      jumpi\n        /* \"#utility.yul\":8069:8079   */\n      0x4e487b71\n        /* \"#utility.yul\":8064:8067   */\n      0xe0\n        /* \"#utility.yul\":8060:8080   */\n      shl\n        /* \"#utility.yul\":8057:8058   */\n      0x00\n        /* \"#utility.yul\":8050:8081   */\n      mstore\n        /* \"#utility.yul\":8104:8108   */\n      0x22\n        /* \"#utility.yul\":8101:8102   */\n      0x04\n        /* \"#utility.yul\":8094:8109   */\n      mstore\n        /* \"#utility.yul\":8132:8136   */\n      0x24\n        /* \"#utility.yul\":8129:8130   */\n      0x00\n        /* \"#utility.yul\":8122:8137   */\n      revert\n        /* \"#utility.yul\":8158:8285   */\n    tag_463:\n        /* \"#utility.yul\":8219:8229   */\n      0x4e487b71\n        /* \"#utility.yul\":8214:8217   */\n      0xe0\n        /* \"#utility.yul\":8210:8230   */\n      shl\n        /* \"#utility.yul\":8207:8208   */\n      0x00\n        /* \"#utility.yul\":8200:8231   */\n      mstore\n        /* \"#utility.yul\":8250:8254   */\n      0x11\n        /* \"#utility.yul\":8247:8248   */\n      0x04\n        /* \"#utility.yul\":8240:8255   */\n      mstore\n        /* \"#utility.yul\":8274:8278   */\n      0x24\n        /* \"#utility.yul\":8271:8272   */\n      0x00\n        /* \"#utility.yul\":8264:8279   */\n      revert\n        /* \"#utility.yul\":8290:8415   */\n    tag_174:\n        /* \"#utility.yul\":8355:8364   */\n      dup1\n      dup3\n      add\n        /* \"#utility.yul\":8376:8386   */\n      dup1\n      dup3\n      gt\n        /* \"#utility.yul\":8373:8409   */\n      iszero\n      tag_145\n      jumpi\n        /* \"#utility.yul\":8389:8407   */\n      tag_145\n      tag_463\n      jump\t// in\n        /* \"#utility.yul\":9820:9948   */\n    tag_205:\n        /* \"#utility.yul\":9887:9896   */\n      dup2\n      dup2\n      sub\n        /* \"#utility.yul\":9908:9919   */\n      dup2\n      dup2\n      gt\n        /* \"#utility.yul\":9905:9942   */\n      iszero\n      tag_145\n      jumpi\n        /* \"#utility.yul\":9922:9940   */\n      tag_145\n      tag_463\n      jump\t// in\n        /* \"#utility.yul\":10359:10486   */\n    tag_248:\n        /* \"#utility.yul\":10420:10430   */\n      0x4e487b71\n        /* \"#utility.yul\":10415:10418   */\n      0xe0\n        /* \"#utility.yul\":10411:10431   */\n      shl\n        /* \"#utility.yul\":10408:10409   */\n      0x00\n        /* \"#utility.yul\":10401:10432   */\n      mstore\n        /* \"#utility.yul\":10451:10455   */\n      0x32\n        /* \"#utility.yul\":10448:10449   */\n      0x04\n        /* \"#utility.yul\":10441:10456   */\n      mstore\n        /* \"#utility.yul\":10475:10479   */\n      0x24\n        /* \"#utility.yul\":10472:10473   */\n      0x00\n        /* \"#utility.yul\":10465:10480   */\n      revert\n        /* \"#utility.yul\":10491:11012   */\n    tag_250:\n        /* \"#utility.yul\":10568:10572   */\n      0x00\n        /* \"#utility.yul\":10574:10580   */\n      dup1\n        /* \"#utility.yul\":10634:10645   */\n      dup4\n        /* \"#utility.yul\":10621:10646   */\n      calldataload\n        /* \"#utility.yul\":10728:10730   */\n      0x1e\n        /* \"#utility.yul\":10724:10731   */\n      not\n        /* \"#utility.yul\":10713:10721   */\n      dup5\n        /* \"#utility.yul\":10697:10711   */\n      calldatasize\n        /* \"#utility.yul\":10693:10722   */\n      sub\n        /* \"#utility.yul\":10689:10732   */\n      add\n        /* \"#utility.yul\":10669:10687   */\n      dup2\n        /* \"#utility.yul\":10665:10733   */\n      slt\n        /* \"#utility.yul\":10655:10751   */\n      tag_548\n      jumpi\n        /* \"#utility.yul\":10747:10748   */\n      0x00\n        /* \"#utility.yul\":10744:10745   */\n      dup1\n        /* \"#utility.yul\":10737:10749   */\n      revert\n        /* \"#utility.yul\":10655:10751   */\n    tag_548:\n        /* \"#utility.yul\":10774:10807   */\n      dup4\n      add\n        /* \"#utility.yul\":10826:10846   */\n      dup1\n      calldataload\n      swap2\n      pop\n        /* \"#utility.yul\":10869:10887   */\n      0xffffffffffffffff\n        /* \"#utility.yul\":10858:10888   */\n      dup3\n      gt\n        /* \"#utility.yul\":10855:10905   */\n      iszero\n      tag_549\n      jumpi\n        /* \"#utility.yul\":10901:10902   */\n      0x00\n        /* \"#utility.yul\":10898:10899   */\n      dup1\n        /* \"#utility.yul\":10891:10903   */\n      revert\n        /* \"#utility.yul\":10855:10905   */\n    tag_549:\n        /* \"#utility.yul\":10934:10938   */\n      0x20\n        /* \"#utility.yul\":10922:10939   */\n      add\n      swap2\n      pop\n        /* \"#utility.yul\":10965:10979   */\n      calldatasize\n        /* \"#utility.yul\":10961:10988   */\n      dup2\n      swap1\n      sub\n        /* \"#utility.yul\":10951:10989   */\n      dup3\n      sgt\n        /* \"#utility.yul\":10948:11006   */\n      iszero\n      tag_550\n      jumpi\n        /* \"#utility.yul\":11002:11003   */\n      0x00\n        /* \"#utility.yul\":10999:11000   */\n      dup1\n        /* \"#utility.yul\":10992:11004   */\n      revert\n        /* \"#utility.yul\":10948:11006   */\n    tag_550:\n        /* \"#utility.yul\":10491:11012   */\n      swap3\n      pop\n      swap3\n      swap1\n      pop\n      jump\t// out\n        /* \"#utility.yul\":11017:11377   */\n    tag_252:\n        /* \"#utility.yul\":11228:11234   */\n      dup3\n        /* \"#utility.yul\":11220:11226   */\n      dup5\n        /* \"#utility.yul\":11215:11218   */\n      dup3\n        /* \"#utility.yul\":11202:11235   */\n      calldatacopy\n        /* \"#utility.yul\":11298:11300   */\n      0x60\n        /* \"#utility.yul\":11294:11309   */\n      swap2\n      swap1\n      swap2\n      shl\n      not(0xffffffffffffffffffffffff)\n        /* \"#utility.yul\":11290:11343   */\n      and\n        /* \"#utility.yul\":11254:11270   */\n      swap2\n      add\n        /* \"#utility.yul\":11279:11344   */\n      swap1\n      dup2\n      mstore\n        /* \"#utility.yul\":11368:11370   */\n      0x14\n        /* \"#utility.yul\":11360:11371   */\n      add\n      swap2\n        /* \"#utility.yul\":11017:11377   */\n      swap1\n      pop\n      jump\t// out\n        /* \"#utility.yul\":13421:13689   */\n    tag_300:\n        /* \"#utility.yul\":13589:13591   */\n      0x40\n        /* \"#utility.yul\":13574:13592   */\n      dup2\n      add\n        /* \"#utility.yul\":13601:13640   */\n      tag_558\n        /* \"#utility.yul\":13578:13587   */\n      dup3\n        /* \"#utility.yul\":13622:13628   */\n      dup6\n        /* \"#utility.yul\":13601:13640   */\n      tag_462\n      jump\t// in\n    tag_558:\n        /* \"#utility.yul\":13676:13682   */\n      dup3\n        /* \"#utility.yul\":13671:13673   */\n      0x20\n        /* \"#utility.yul\":13660:13669   */\n      dup4\n        /* \"#utility.yul\":13656:13674   */\n      add\n        /* \"#utility.yul\":13649:13683   */\n      mstore\n        /* \"#utility.yul\":13421:13689   */\n      swap4\n      swap3\n      pop\n      pop\n      pop\n      jump\t// out\n        /* \"#utility.yul\":17885:18403   */\n    tag_465:\n        /* \"#utility.yul\":17987:17989   */\n      0x1f\n        /* \"#utility.yul\":17982:17985   */\n      dup3\n        /* \"#utility.yul\":17979:17990   */\n      gt\n        /* \"#utility.yul\":17976:18397   */\n      iszero\n      tag_208\n      jumpi\n        /* \"#utility.yul\":18023:18028   */\n      dup1\n        /* \"#utility.yul\":18020:18021   */\n      0x00\n        /* \"#utility.yul\":18013:18029   */\n      mstore\n        /* \"#utility.yul\":18067:18071   */\n      0x20\n        /* \"#utility.yul\":18064:18065   */\n      0x00\n        /* \"#utility.yul\":18054:18072   */\n      keccak256\n        /* \"#utility.yul\":18137:18139   */\n      0x1f\n        /* \"#utility.yul\":18125:18135   */\n      dup5\n        /* \"#utility.yul\":18121:18140   */\n      add\n        /* \"#utility.yul\":18118:18119   */\n      0x05\n        /* \"#utility.yul\":18114:18141   */\n      shr\n        /* \"#utility.yul\":18108:18112   */\n      dup2\n        /* \"#utility.yul\":18104:18142   */\n      add\n        /* \"#utility.yul\":18173:18177   */\n      0x20\n        /* \"#utility.yul\":18161:18171   */\n      dup6\n        /* \"#utility.yul\":18158:18178   */\n      lt\n        /* \"#utility.yul\":18155:18202   */\n      iszero\n      tag_572\n      jumpi\n      pop\n        /* \"#utility.yul\":18196:18200   */\n      dup1\n        /* \"#utility.yul\":18155:18202   */\n    tag_572:\n        /* \"#utility.yul\":18251:18253   */\n      0x1f\n        /* \"#utility.yul\":18246:18249   */\n      dup5\n        /* \"#utility.yul\":18242:18254   */\n      add\n        /* \"#utility.yul\":18239:18240   */\n      0x05\n        /* \"#utility.yul\":18235:18255   */\n      shr\n        /* \"#utility.yul\":18229:18233   */\n      dup3\n        /* \"#utility.yul\":18225:18256   */\n      add\n        /* \"#utility.yul\":18215:18256   */\n      swap2\n      pop\n        /* \"#utility.yul\":18306:18387   */\n    tag_573:\n        /* \"#utility.yul\":18324:18326   */\n      dup2\n        /* \"#utility.yul\":18317:18322   */\n      dup2\n        /* \"#utility.yul\":18314:18327   */\n      lt\n        /* \"#utility.yul\":18306:18387   */\n      iszero\n      tag_575\n      jumpi\n        /* \"#utility.yul\":18383:18384   */\n      0x00\n        /* \"#utility.yul\":18369:18385   */\n      dup2\n      sstore\n        /* \"#utility.yul\":18350:18351   */\n      0x01\n        /* \"#utility.yul\":18339:18352   */\n      add\n        /* \"#utility.yul\":18306:18387   */\n      jump(tag_573)\n    tag_575:\n        /* \"#utility.yul\":18310:18313   */\n      pop\n      pop\n        /* \"#utility.yul\":17885:18403   */\n      pop\n      pop\n      pop\n      jump\t// out\n        /* \"#utility.yul\":18579:19924   */\n    tag_380:\n        /* \"#utility.yul\":18705:18708   */\n      dup2\n        /* \"#utility.yul\":18699:18709   */\n      mload\n        /* \"#utility.yul\":18732:18750   */\n      0xffffffffffffffff\n        /* \"#utility.yul\":18724:18730   */\n      dup2\n        /* \"#utility.yul\":18721:18751   */\n      gt\n        /* \"#utility.yul\":18718:18774   */\n      iszero\n      tag_579\n      jumpi\n        /* \"#utility.yul\":18754:18772   */\n      tag_579\n      tag_237\n      jump\t// in\n    tag_579:\n        /* \"#utility.yul\":18783:18880   */\n      tag_580\n        /* \"#utility.yul\":18873:18879   */\n      dup2\n        /* \"#utility.yul\":18833:18871   */\n      tag_581\n        /* \"#utility.yul\":18865:18869   */\n      dup5\n        /* \"#utility.yul\":18859:18870   */\n      sload\n        /* \"#utility.yul\":18833:18871   */\n      tag_140\n      jump\t// in\n    tag_581:\n        /* \"#utility.yul\":18827:18831   */\n      dup5\n        /* \"#utility.yul\":18783:18880   */\n      tag_465\n      jump\t// in\n    tag_580:\n        /* \"#utility.yul\":18935:18939   */\n      0x20\n      dup1\n        /* \"#utility.yul\":18992:18994   */\n      0x1f\n        /* \"#utility.yul\":18981:18995   */\n      dup4\n      gt\n        /* \"#utility.yul\":19009:19010   */\n      0x01\n        /* \"#utility.yul\":19004:19667   */\n      dup2\n      eq\n      tag_583\n      jumpi\n        /* \"#utility.yul\":19711:19712   */\n      0x00\n        /* \"#utility.yul\":19728:19734   */\n      dup5\n        /* \"#utility.yul\":19725:19814   */\n      iszero\n      tag_584\n      jumpi\n      pop\n        /* \"#utility.yul\":19780:19799   */\n      dup6\n      dup4\n      add\n        /* \"#utility.yul\":19774:19800   */\n      mload\n        /* \"#utility.yul\":19725:19814   */\n    tag_584:\n      not(0x00)\n        /* \"#utility.yul\":18536:18537   */\n      0x03\n        /* \"#utility.yul\":18532:18543   */\n      dup7\n      swap1\n      shl\n        /* \"#utility.yul\":18528:18552   */\n      shr\n        /* \"#utility.yul\":18524:18553   */\n      not\n        /* \"#utility.yul\":18514:18554   */\n      and\n        /* \"#utility.yul\":18560:18561   */\n      0x01\n        /* \"#utility.yul\":18556:18567   */\n      dup6\n      swap1\n      shl\n        /* \"#utility.yul\":18511:18568   */\n      or\n        /* \"#utility.yul\":19827:19908   */\n      dup6\n      sstore\n        /* \"#utility.yul\":18974:19918   */\n      jump(tag_582)\n        /* \"#utility.yul\":19004:19667   */\n    tag_583:\n        /* \"#utility.yul\":17832:17833   */\n      0x00\n        /* \"#utility.yul\":17825:17839   */\n      dup6\n      dup2\n      mstore\n        /* \"#utility.yul\":17869:17873   */\n      0x20\n        /* \"#utility.yul\":17856:17874   */\n      dup2\n      keccak256\n      not(0x1f)\n        /* \"#utility.yul\":19040:19060   */\n      dup7\n      and\n      swap2\n        /* \"#utility.yul\":19158:19394   */\n    tag_587:\n        /* \"#utility.yul\":19172:19179   */\n      dup3\n        /* \"#utility.yul\":19169:19170   */\n      dup2\n        /* \"#utility.yul\":19166:19180   */\n      lt\n        /* \"#utility.yul\":19158:19394   */\n      iszero\n      tag_589\n      jumpi\n        /* \"#utility.yul\":19261:19280   */\n      dup9\n      dup7\n      add\n        /* \"#utility.yul\":19255:19281   */\n      mload\n        /* \"#utility.yul\":19240:19282   */\n      dup3\n      sstore\n        /* \"#utility.yul\":19353:19380   */\n      swap5\n      dup5\n      add\n      swap5\n        /* \"#utility.yul\":19321:19322   */\n      0x01\n        /* \"#utility.yul\":19309:19323   */\n      swap1\n      swap2\n      add\n      swap1\n        /* \"#utility.yul\":19188:19207   */\n      dup5\n      add\n        /* \"#utility.yul\":19158:19394   */\n      jump(tag_587)\n    tag_589:\n        /* \"#utility.yul\":19162:19165   */\n      pop\n        /* \"#utility.yul\":19422:19428   */\n      dup6\n        /* \"#utility.yul\":19413:19420   */\n      dup3\n        /* \"#utility.yul\":19410:19429   */\n      lt\n        /* \"#utility.yul\":19407:19608   */\n      iszero\n      tag_590\n      jumpi\n        /* \"#utility.yul\":19483:19502   */\n      dup8\n      dup6\n      add\n        /* \"#utility.yul\":19477:19503   */\n      mload\n      not(0x00)\n        /* \"#utility.yul\":19566:19567   */\n      0x03\n        /* \"#utility.yul\":19562:19576   */\n      dup9\n      swap1\n      shl\n        /* \"#utility.yul\":19578:19581   */\n      0xf8\n        /* \"#utility.yul\":19558:19582   */\n      and\n        /* \"#utility.yul\":19554:19591   */\n      shr\n        /* \"#utility.yul\":19550:19592   */\n      not\n        /* \"#utility.yul\":19535:19593   */\n      and\n        /* \"#utility.yul\":19520:19594   */\n      dup2\n      sstore\n        /* \"#utility.yul\":19407:19608   */\n    tag_590:\n      pop\n      pop\n        /* \"#utility.yul\":19654:19655   */\n      0x01\n        /* \"#utility.yul\":19645:19651   */\n      dup5\n        /* \"#utility.yul\":19642:19643   */\n      0x01\n        /* \"#utility.yul\":19638:19652   */\n      shl\n        /* \"#utility.yul\":19634:19656   */\n      add\n        /* \"#utility.yul\":19628:19632   */\n      dup6\n        /* \"#utility.yul\":19621:19657   */\n      sstore\n        /* \"#utility.yul\":18974:19918   */\n    tag_582:\n      pop\n      pop\n      pop\n      pop\n        /* \"#utility.yul\":18579:19924   */\n      pop\n      pop\n      jump\t// out\n        /* \"#utility.yul\":19929:20312   */\n    tag_382:\n        /* \"#utility.yul\":20126:20128   */\n      0x40\n        /* \"#utility.yul\":20115:20124   */\n      dup2\n        /* \"#utility.yul\":20108:20129   */\n      mstore\n        /* \"#utility.yul\":20089:20093   */\n      0x00\n        /* \"#utility.yul\":20152:20197   */\n      tag_592\n        /* \"#utility.yul\":20193:20195   */\n      0x40\n        /* \"#utility.yul\":20182:20191   */\n      dup4\n        /* \"#utility.yul\":20178:20196   */\n      add\n        /* \"#utility.yul\":20170:20176   */\n      dup6\n        /* \"#utility.yul\":20152:20197   */\n      tag_460\n      jump\t// in\n    tag_592:\n        /* \"#utility.yul\":20245:20254   */\n      dup3\n        /* \"#utility.yul\":20237:20243   */\n      dup2\n        /* \"#utility.yul\":20233:20255   */\n      sub\n        /* \"#utility.yul\":20228:20230   */\n      0x20\n        /* \"#utility.yul\":20217:20226   */\n      dup5\n        /* \"#utility.yul\":20213:20231   */\n      add\n        /* \"#utility.yul\":20206:20256   */\n      mstore\n        /* \"#utility.yul\":20273:20306   */\n      tag_593\n        /* \"#utility.yul\":20299:20305   */\n      dup2\n        /* \"#utility.yul\":20291:20297   */\n      dup6\n        /* \"#utility.yul\":20273:20306   */\n      tag_460\n      jump\t// in\n    tag_593:\n        /* \"#utility.yul\":20265:20306   */\n      swap6\n        /* \"#utility.yul\":19929:20312   */\n      swap5\n      pop\n      pop\n      pop\n      pop\n      pop\n      jump\t// out\n        /* \"#utility.yul\":20317:20618   */\n    tag_400:\n        /* \"#utility.yul\":20446:20449   */\n      0x00\n        /* \"#utility.yul\":20484:20490   */\n      dup3\n        /* \"#utility.yul\":20478:20491   */\n      mload\n        /* \"#utility.yul\":20530:20536   */\n      dup1\n        /* \"#utility.yul\":20523:20527   */\n      0x20\n        /* \"#utility.yul\":20515:20521   */\n      dup6\n        /* \"#utility.yul\":20511:20528   */\n      add\n        /* \"#utility.yul\":20506:20509   */\n      dup5\n        /* \"#utility.yul\":20500:20537   */\n      mcopy\n        /* \"#utility.yul\":20592:20593   */\n      0x00\n        /* \"#utility.yul\":20556:20572   */\n      swap3\n      add\n        /* \"#utility.yul\":20581:20594   */\n      swap2\n      dup3\n      mstore\n      pop\n        /* \"#utility.yul\":20556:20572   */\n      swap2\n        /* \"#utility.yul\":20317:20618   */\n      swap1\n      pop\n      jump\t// out\n    stop\n    data_9fdcd12e4b726339b32a442b0a448365d5d85c96b2d2cff917b4f66c63110398 416464726573733a206c6f772d6c6576656c2064656c65676174652063616c6c206661696c6564\n\n    auxdata: 0xa2646970667358221220490663bd300fa8d3427b4ad87a7d57e86b9aad465b3520e5931c305233372b9864736f6c63430008190033\n}\n",
    "bytecode": {
      "linkReferences": {},
      "object": "6101006040527f6e71edae12b1b97f4d1f60370fef10105fa2faae0126114a169c64845d6126c960e052348015610034575f80fd5b506040516125de3803806125de8339810160408190526100539161034d565b80604051806040016040528060048152602001634d6f6a6f60e01b815250604051806040016040528060048152602001634d4f4a4f60e01b8152508181818181600590816100a19190610411565b5060066100ae8282610411565b50504660a052503060c0526100c16100f3565b608052506100d0905083610187565b5050506100ed8169d3c21bcecceda10000006101d860201b60201c565b506104f5565b5f7f8b73c3c69bb8fe3d512ecc4cf759cc79239f7b179b0ffacaa9a75d522b39400f61011d6102b8565b80516020918201206040805192830193909352918101919091527fc89efdaa54c0f20c7adf612882df0950f5a951637e0307cdcb4c672f298b8bc660608201524660808201523060a082015260c00160405160208183030381529060405280519060200120905090565b600180546001600160a01b038381166001600160a01b0319831681179093556040519116919082907f8292fce18fa69edf4db7b94ea2e58241df0ae57f97e0a6c9b29067028bf92d76905f90a35050565b6001600160a01b0382166102325760405162461bcd60e51b815260206004820152601f60248201527f45524332303a206d696e7420746f20746865207a65726f206164647265737300604482015260640160405180910390fd5b8060045f82825461024391906104d0565b90915550506001600160a01b0382165f908152600260205260408120805483929061026f9084906104d0565b90915550506040518181526001600160a01b038316905f907fddf252ad1be2c89b69c2b068fc378daa952ba7f163c4a11628f55a4df523b3ef9060200160405180910390a35050565b6060600580546102c79061038e565b80601f01602080910402602001604051908101604052809291908181526020018280546102f39061038e565b801561033e5780601f106103155761010080835404028352916020019161033e565b820191905f5260205f20905b81548152906001019060200180831161032157829003601f168201915b5050505050905090565b505050565b5f6020828403121561035d575f80fd5b81516001600160a01b0381168114610373575f80fd5b9392505050565b634e487b7160e01b5f52604160045260245ffd5b600181811c908216806103a257607f821691505b6020821081036103c057634e487b7160e01b5f52602260045260245ffd5b50919050565b601f82111561034857805f5260205f20601f840160051c810160208510156103eb5750805b601f840160051c820191505b8181101561040a575f81556001016103f7565b5050505050565b81516001600160401b0381111561042a5761042a61037a565b61043e81610438845461038e565b846103c6565b602080601f831160018114610471575f841561045a5750858301515b5f19600386901b1c1916600185901b1785556104c8565b5f85815260208120601f198616915b8281101561049f57888601518255948401946001909101908401610480565b50858210156104bc57878501515f19600388901b60f8161c191681555b505060018460011b0185555b505050505050565b808201808211156104ef57634e487b7160e01b5f52601160045260245ffd5b92915050565b60805160a05160c05160e0516120b66105285f395f610abd01525f6104d601525f61050001525f61052a01526120b65ff3fe608060405234801561000f575f80fd5b506004361061019a575f3560e01c806379cc6790116100e8578063a457c2d711610093578063d505accf1161006e578063d505accf14610367578063d9cdee0d1461037a578063dd62ed3e1461038d578063e8a3d485146103c5575f80fd5b8063a457c2d714610321578063a9059cbb14610334578063ac9650d814610347575f80fd5b8063902d55a5116100c3578063902d55a5146102f5578063938e3d7b1461030657806395d89b4114610319575f80fd5b806379cc6790146102b45780637ecebe00146102c75780638da5cb5b146102da575f80fd5b80633644e51511610148578063449a52f811610123578063449a52f81461025657806370a08231146102695780637261fa2914610291575f80fd5b80633644e51514610228578063395093511461023057806342966c6814610243575f80fd5b806318160ddd1161017857806318160ddd146101f457806323b872dd14610206578063313ce56714610219575f80fd5b806306fdde031461019e578063095ea7b3146101bc57806313af4035146101df575b5f80fd5b6101a66103cd565b6040516101b39190611a42565b60405180910390f35b6101cf6101ca366004611a6f565b61045d565b60405190151581526020016101b3565b6101f26101ed366004611a97565b610476565b005b6004545b6040519081526020016101b3565b6101cf610214366004611ab0565b6104a7565b604051601281526020016101b3565b6101f86104ca565b6101cf61023e366004611a6f565b610559565b6101f2610251366004611ae9565b610597565b6101f2610264366004611a6f565b6105d9565b6101f8610277366004611a97565b6001600160a01b03165f9081526002602052604090205490565b6102a461029f366004611b00565b61068f565b6040516101b39493929190611b54565b6101f26102c2366004611a6f565b6106e0565b6101f86102d5366004611a97565b6107f6565b6001546040516001600160a01b0390911681526020016101b3565b6101f869d3c21bcecceda100000081565b6101f2610314366004611b97565b610813565b6101a6610841565b6101cf61032f366004611a6f565b610850565b6101cf610342366004611a6f565b6108f9565b61035a610355366004611c42565b610906565b6040516101b39190611cb1565b6101f2610375366004611d13565b610a6a565b6101f2610388366004611d80565b610bed565b6101f861039b366004611dcf565b6001600160a01b039182165f90815260036020908152604080832093909416825291909152205490565b6101a6610e2d565b6060600580546103dc90611e00565b80601f016020809104026020016040519081016040528092919081815260200182805461040890611e00565b80156104535780601f1061042a57610100808354040283529160200191610453565b820191905f5260205f20905b81548152906001019060200180831161043657829003601f168201915b5050505050905090565b5f3361046a818585610eb8565b60019150505b92915050565b61047e610fdb565b61049b576040516316ccb9cb60e11b815260040160405180910390fd5b6104a481611007565b50565b5f336104b4858285611065565b6104bf8585856110f5565b506001949350505050565b5f306001600160a01b037f00000000000000000000000000000000000000000000000000000000000000001614801561052257507f000000000000000000000000000000000000000000000000000000000000000046145b1561054c57507f000000000000000000000000000000000000000000000000000000000000000090565b6105546112f0565b905090565b335f8181526003602090815260408083206001600160a01b038716845290915281205490919061046a9082908690610592908790611e46565b610eb8565b6105a13382611384565b60405181815233907ffd38818f5291bf0bb3a2a48aadc06ba8757865d1dabd804585338aab3009dcb69060200160405180910390a250565b6105e1610fdb565b6106325760405162461bcd60e51b815260206004820152601760248201527f4e6f7420617574686f72697a656420746f206d696e742e00000000000000000060448201526064015b60405180910390fd5b805f036106815760405162461bcd60e51b815260206004820152601460248201527f4d696e74696e67207a65726f20746f6b656e732e0000000000000000000000006044820152606401610629565b61068b82826114cf565b5050565b6008602052815f5260405f2081815481106106a8575f80fd5b5f9182526020909120600390910201805460018201546002909201546001600160a01b0382169450600160a01b90910460ff16925084565b6106e8610fdb565b6107345760405162461bcd60e51b815260206004820152601760248201527f4e6f7420617574686f72697a656420746f206275726e2e0000000000000000006044820152606401610629565b80610753836001600160a01b03165f9081526002602052604090205490565b10156107a15760405162461bcd60e51b815260206004820152601260248201527f6e6f7420656e6f7567682062616c616e636500000000000000000000000000006044820152606401610629565b6001600160a01b0382165f9081526003602090815260408083203384529091528120546107cf908390611e59565b90506107dc83335f610eb8565b6107e7833383610eb8565b6107f18383611384565b505050565b6001600160a01b0381165f90815260076020526040812054610470565b61081b610fdb565b61083857604051639f7f092560e01b815260040160405180910390fd5b6104a4816115ab565b6060600680546103dc90611e00565b335f8181526003602090815260408083206001600160a01b0387168452909152812054909190838110156108ec5760405162461bcd60e51b815260206004820152602560248201527f45524332303a2064656372656173656420616c6c6f77616e63652062656c6f7760448201527f207a65726f0000000000000000000000000000000000000000000000000000006064820152608401610629565b6104bf8286868403610eb8565b5f3361046a8185856110f5565b60608167ffffffffffffffff81111561092157610921611b83565b60405190808252806020026020018201604052801561095457816020015b606081526020019060019003908161093f5790505b509050335f805b84811015610a615781156109da576109b83087878481811061097f5761097f611e6c565b90506020028101906109919190611e80565b866040516020016109a493929190611eca565b604051602081830303815290604052611682565b8482815181106109ca576109ca611e6c565b6020026020010181905250610a59565b610a3b308787848181106109f0576109f0611e6c565b9050602002810190610a029190611e80565b8080601f0160208091040260200160405190810160405280939291908181526020018383808284375f9201919091525061168292505050565b848281518110610a4d57610a4d611e6c565b60200260200101819052505b60010161095b565b50505092915050565b83421115610aba5760405162461bcd60e51b815260206004820152601d60248201527f45524332305065726d69743a206578706972656420646561646c696e650000006044820152606401610629565b5f7f0000000000000000000000000000000000000000000000000000000000000000888888610ae88c6116ae565b6040805160208101969096526001600160a01b0394851690860152929091166060840152608083015260a082015260c0810186905260e0016040516020818303038152906040528051906020012090505f610b64610b446104ca565b8360405161190160f01b8152600281019290925260228201526042902090565b90505f610b73828787876116d5565b9050896001600160a01b0316816001600160a01b031614610bd65760405162461bcd60e51b815260206004820152601e60248201527f45524332305065726d69743a20696e76616c6964207369676e617475726500006044820152606401610629565b610be18a8a8a610eb8565b50505050505050505050565b6001546001600160a01b03163314610c18576040516316ccb9cb60e11b815260040160405180910390fd5b6001600160a01b038516610c6e5760405162461bcd60e51b815260206004820152601160248201527f496e76616c696420726563697069656e740000000000000000000000000000006044820152606401610629565b83610c846102776001546001600160a01b031690565b1015610cd25760405162461bcd60e51b815260206004820152601c60248201527f496e73756666696369656e7420747265617375727920746f6b656e73000000006044820152606401610629565b610cee610ce76001546001600160a01b031690565b86866110f5565b60085f8481526020019081526020015f206040518060800160405280876001600160a01b03168152602001846001811115610d2b57610d2b611b20565b81526020808201859052426040909201919091528254600181810185555f94855293829020835160039092020180546001600160a01b0390921673ffffffffffffffffffffffffffffffffffffffff1983168117825592840151939490939284927fffffffffffffffffffffff000000000000000000000000000000000000000000161790600160a01b908490811115610dc757610dc7611b20565b021790555060408201518160010155606082015181600201555050846001600160a01b0316837fe61fff04519ec4968ac0495e2e80af6a9c688db045b5c00ab20ee392e0aa73838484604051610e1e929190611ef0565b60405180910390a35050505050565b5f8054610e3990611e00565b80601f0160208091040260200160405190810160405280929190818152602001828054610e6590611e00565b8015610eb05780601f10610e8757610100808354040283529160200191610eb0565b820191905f5260205f20905b815481529060010190602001808311610e9357829003601f168201915b505050505081565b6001600160a01b038316610f1a5760405162461bcd60e51b8152602060048201526024808201527f45524332303a20617070726f76652066726f6d20746865207a65726f206164646044820152637265737360e01b6064820152608401610629565b6001600160a01b038216610f7b5760405162461bcd60e51b815260206004820152602260248201527f45524332303a20617070726f766520746f20746865207a65726f206164647265604482015261737360f01b6064820152608401610629565b6001600160a01b038381165f8181526003602090815260408083209487168084529482529182902085905590518481527f8c5be1e5ebec7d5bd14f71427d1e84f3dd0314c0f7b2291e5b200ac8c7c3b925910160405180910390a3505050565b5f610fee6001546001600160a01b031690565b6001600160a01b0316336001600160a01b031614905090565b600180546001600160a01b0383811673ffffffffffffffffffffffffffffffffffffffff19831681179093556040519116919082907f8292fce18fa69edf4db7b94ea2e58241df0ae57f97e0a6c9b29067028bf92d76905f90a35050565b6001600160a01b038381165f908152600360209081526040808320938616835292905220545f1981146110ef57818110156110e25760405162461bcd60e51b815260206004820152601d60248201527f45524332303a20696e73756666696369656e7420616c6c6f77616e63650000006044820152606401610629565b6110ef8484848403610eb8565b50505050565b6001600160a01b0383166111715760405162461bcd60e51b815260206004820152602560248201527f45524332303a207472616e736665722066726f6d20746865207a65726f20616460448201527f64726573730000000000000000000000000000000000000000000000000000006064820152608401610629565b6001600160a01b0382166111d35760405162461bcd60e51b815260206004820152602360248201527f45524332303a207472616e7366657220746f20746865207a65726f206164647260448201526265737360e81b6064820152608401610629565b6001600160a01b0383165f90815260026020526040902054818110156112615760405162461bcd60e51b815260206004820152602660248201527f45524332303a207472616e7366657220616d6f756e742065786365656473206260448201527f616c616e636500000000000000000000000000000000000000000000000000006064820152608401610629565b6001600160a01b038085165f90815260026020526040808220858503905591851681529081208054849290611297908490611e46565b92505081905550826001600160a01b0316846001600160a01b03167fddf252ad1be2c89b69c2b068fc378daa952ba7f163c4a11628f55a4df523b3ef846040516112e391815260200190565b60405180910390a36110ef565b5f7f8b73c3c69bb8fe3d512ecc4cf759cc79239f7b179b0ffacaa9a75d522b39400f61131a6103cd565b80516020918201206040805192830193909352918101919091527fc89efdaa54c0f20c7adf612882df0950f5a951637e0307cdcb4c672f298b8bc660608201524660808201523060a082015260c00160405160208183030381529060405280519060200120905090565b6001600160a01b0382166113e45760405162461bcd60e51b815260206004820152602160248201527f45524332303a206275726e2066726f6d20746865207a65726f206164647265736044820152607360f81b6064820152608401610629565b6001600160a01b0382165f90815260026020526040902054818110156114575760405162461bcd60e51b815260206004820152602260248201527f45524332303a206275726e20616d6f756e7420657863656564732062616c616e604482015261636560f01b6064820152608401610629565b6001600160a01b0383165f908152600260205260408120838303905560048054849290611485908490611e59565b90915550506040518281525f906001600160a01b038516907fddf252ad1be2c89b69c2b068fc378daa952ba7f163c4a11628f55a4df523b3ef9060200160405180910390a3505050565b6001600160a01b0382166115255760405162461bcd60e51b815260206004820152601f60248201527f45524332303a206d696e7420746f20746865207a65726f2061646472657373006044820152606401610629565b8060045f8282546115369190611e46565b90915550506001600160a01b0382165f9081526002602052604081208054839290611562908490611e46565b90915550506040518181526001600160a01b038316905f907fddf252ad1be2c89b69c2b068fc378daa952ba7f163c4a11628f55a4df523b3ef9060200160405180910390a35050565b5f8080546115b890611e00565b80601f01602080910402602001604051908101604052809291908181526020018280546115e490611e00565b801561162f5780601f106116065761010080835404028352916020019161162f565b820191905f5260205f20905b81548152906001019060200180831161161257829003601f168201915b50505050509050815f90816116449190611f56565b507fc9c7c3fe08b88b4df9d4d47ef47d2c43d55c025a0ba88ca442580ed9e7348a168183604051611676929190612016565b60405180910390a15050565b60606116a7838360405180606001604052806027815260200161205a602791396116fd565b9392505050565b6001600160a01b0381165f9081526007602052604090208054600181018255905b50919050565b5f805f6116e487878787611771565b915091506116f18161182e565b5090505b949350505050565b60605f80856001600160a01b0316856040516117199190612043565b5f60405180830381855af49150503d805f8114611751576040519150601f19603f3d011682016040523d82523d5f602084013e611756565b606091505b509150915061176786838387611977565b9695505050505050565b5f807f7fffffffffffffffffffffffffffffff5d576e7357a4501ddfe92f46681b20a08311156117a657505f90506003611825565b604080515f8082526020820180845289905260ff881692820192909252606081018690526080810185905260019060a0016020604051602081039080840390855afa1580156117f7573d5f803e3d5ffd5b5050604051601f1901519150506001600160a01b03811661181f575f60019250925050611825565b91505f90505b94509492505050565b5f81600481111561184157611841611b20565b036118495750565b600181600481111561185d5761185d611b20565b036118aa5760405162461bcd60e51b815260206004820152601860248201527f45434453413a20696e76616c6964207369676e617475726500000000000000006044820152606401610629565b60028160048111156118be576118be611b20565b0361190b5760405162461bcd60e51b815260206004820152601f60248201527f45434453413a20696e76616c6964207369676e6174757265206c656e677468006044820152606401610629565b600381600481111561191f5761191f611b20565b036104a45760405162461bcd60e51b815260206004820152602260248201527f45434453413a20696e76616c6964207369676e6174757265202773272076616c604482015261756560f01b6064820152608401610629565b606083156119e55782515f036119de576001600160a01b0385163b6119de5760405162461bcd60e51b815260206004820152601d60248201527f416464726573733a2063616c6c20746f206e6f6e2d636f6e74726163740000006044820152606401610629565b50816116f5565b6116f583838151156119fa5781518083602001fd5b8060405162461bcd60e51b81526004016106299190611a42565b5f81518084528060208401602086015e5f602082860101526020601f19601f83011685010191505092915050565b602081525f6116a76020830184611a14565b80356001600160a01b0381168114611a6a575f80fd5b919050565b5f8060408385031215611a80575f80fd5b611a8983611a54565b946020939093013593505050565b5f60208284031215611aa7575f80fd5b6116a782611a54565b5f805f60608486031215611ac2575f80fd5b611acb84611a54565b9250611ad960208501611a54565b9150604084013590509250925092565b5f60208284031215611af9575f80fd5b5035919050565b5f8060408385031215611b11575f80fd5b50508035926020909101359150565b634e487b7160e01b5f52602160045260245ffd5b60028110611b5057634e487b7160e01b5f52602160045260245ffd5b9052565b6001600160a01b038516815260808101611b716020830186611b34565b60408201939093526060015292915050565b634e487b7160e01b5f52604160045260245ffd5b5f60208284031215611ba7575f80fd5b813567ffffffffffffffff80821115611bbe575f80fd5b818401915084601f830112611bd1575f80fd5b813581811115611be357611be3611b83565b604051601f8201601f19908116603f01168101908382118183101715611c0b57611c0b611b83565b81604052828152876020848701011115611c23575f80fd5b826020860160208301375f928101602001929092525095945050505050565b5f8060208385031215611c53575f80fd5b823567ffffffffffffffff80821115611c6a575f80fd5b818501915085601f830112611c7d575f80fd5b813581811115611c8b575f80fd5b8660208260051b8501011115611c9f575f80fd5b60209290920196919550909350505050565b5f60208083016020845280855180835260408601915060408160051b8701019250602087015f5b82811015611d0657603f19888603018452611cf4858351611a14565b94509285019290850190600101611cd8565b5092979650505050505050565b5f805f805f805f60e0888a031215611d29575f80fd5b611d3288611a54565b9650611d4060208901611a54565b95506040880135945060608801359350608088013560ff81168114611d63575f80fd5b9699959850939692959460a0840135945060c09093013592915050565b5f805f805f60a08688031215611d94575f80fd5b611d9d86611a54565b94506020860135935060408601359250606086013560028110611dbe575f80fd5b949793965091946080013592915050565b5f8060408385031215611de0575f80fd5b611de983611a54565b9150611df760208401611a54565b90509250929050565b600181811c90821680611e1457607f821691505b6020821081036116cf57634e487b7160e01b5f52602260045260245ffd5b634e487b7160e01b5f52601160045260245ffd5b8082018082111561047057610470611e32565b8181038181111561047057610470611e32565b634e487b7160e01b5f52603260045260245ffd5b5f808335601e19843603018112611e95575f80fd5b83018035915067ffffffffffffffff821115611eaf575f80fd5b602001915036819003821315611ec3575f80fd5b9250929050565b8284823760609190911b6bffffffffffffffffffffffff19169101908152601401919050565b60408101611efe8285611b34565b8260208301529392505050565b601f8211156107f157805f5260205f20601f840160051c81016020851015611f305750805b601f840160051c820191505b81811015611f4f575f8155600101611f3c565b5050505050565b815167ffffffffffffffff811115611f7057611f70611b83565b611f8481611f7e8454611e00565b84611f0b565b602080601f831160018114611fb7575f8415611fa05750858301515b5f19600386901b1c1916600185901b17855561200e565b5f85815260208120601f198616915b82811015611fe557888601518255948401946001909101908401611fc6565b508582101561200257878501515f19600388901b60f8161c191681555b505060018460011b0185555b505050505050565b604081525f6120286040830185611a14565b828103602084015261203a8185611a14565b95945050505050565b5f82518060208501845e5f92019182525091905056fe416464726573733a206c6f772d6c6576656c2064656c65676174652063616c6c206661696c6564a2646970667358221220490663bd300fa8d3427b4ad87a7d57e86b9aad465b3520e5931c305233372b9864736f6c63430008190033",
      "opcodes": "PUSH2 0x100 PUSH1 0x40 MSTORE PUSH32 0x6E71EDAE12B1B97F4D1F60370FEF10105FA2FAAE0126114A169C64845D6126C9 PUSH1 0xE0 MSTORE CALLVALUE DUP1 ISZERO PUSH2 0x34 JUMPI PUSH0 DUP1 REVERT JUMPDEST POP PUSH1 0x40 MLOAD PUSH2 0x25DE CODESIZE SUB DUP1 PUSH2 0x25DE DUP4 CODECOPY DUP2 ADD PUSH1 0x40 DUP2 SWAP1 MSTORE PUSH2 0x53 SWAP2 PUSH2 0x34D JUMP JUMPDEST DUP1 PUSH1 0x40 MLOAD DUP1 PUSH1 0x40 ADD PUSH1 0x40 MSTORE DUP1 PUSH1 0x4 DUP2 MSTORE PUSH1 0x20 ADD PUSH4 0x4D6F6A6F PUSH1 0xE0 SHL DUP2 MSTORE POP PUSH1 0x40 MLOAD DUP1 PUSH1 0x40 ADD PUSH1 0x40 MSTORE DUP1 PUSH1 0x4 DUP2 MSTORE PUSH1 0x20 ADD PUSH4 0x4D4F4A4F PUSH1 0xE0 SHL DUP2 MSTORE POP DUP2 DUP2 DUP2 DUP2 DUP2 PUSH1 0x5 SWAP1 DUP2 PUSH2 0xA1 SWAP2 SWAP1 PUSH2 0x411 JUMP JUMPDEST POP PUSH1 0x6 PUSH2 0xAE DUP3 DUP3 PUSH2 0x411 JUMP JUMPDEST POP POP CHAINID PUSH1 0xA0 MSTORE POP ADDRESS PUSH1 0xC0 MSTORE PUSH2 0xC1 PUSH2 0xF3 JUMP JUMPDEST PUSH1 0x80 MSTORE POP PUSH2 0xD0 SWAP1 POP DUP4 PUSH2 0x187 JUMP JUMPDEST POP POP POP PUSH2 0xED DUP2 PUSH10 0xD3C21BCECCEDA1000000 PUSH2 0x1D8 PUSH1 0x20 SHL PUSH1 0x20 SHR JUMP JUMPDEST POP PUSH2 0x4F5 JUMP JUMPDEST PUSH0 PUSH32 0x8B73C3C69BB8FE3D512ECC4CF759CC79239F7B179B0FFACAA9A75D522B39400F PUSH2 0x11D PUSH2 0x2B8 JUMP JUMPDEST DUP1 MLOAD PUSH1 0x20 SWAP2 DUP3 ADD KECCAK256 PUSH1 0x40 DUP1 MLOAD SWAP3 DUP4 ADD SWAP4 SWAP1 SWAP4 MSTORE SWAP2 DUP2 ADD SWAP2 SWAP1 SWAP2 MSTORE PUSH32 0xC89EFDAA54C0F20C7ADF612882DF0950F5A951637E0307CDCB4C672F298B8BC6 PUSH1 0x60 DUP3 ADD MSTORE CHAINID PUSH1 0x80 DUP3 ADD MSTORE ADDRESS PUSH1 0xA0 DUP3 ADD MSTORE PUSH1 0xC0 ADD PUSH1 0x40 MLOAD PUSH1 0x20 DUP2 DUP4 SUB SUB DUP2 MSTORE SWAP1 PUSH1 0x40 MSTORE DUP1 MLOAD SWAP1 PUSH1 0x20 ADD KECCAK256 SWAP1 POP SWAP1 JUMP JUMPDEST PUSH1 0x1 DUP1 SLOAD PUSH1 0x1 PUSH1 0x1 PUSH1 0xA0 SHL SUB DUP4 DUP2 AND PUSH1 0x1 PUSH1 0x1 PUSH1 0xA0 SHL SUB NOT DUP4 AND DUP2 OR SWAP1 SWAP4 SSTORE PUSH1 0x40 MLOAD SWAP2 AND SWAP2 SWAP1 DUP3 SWAP1 PUSH32 0x8292FCE18FA69EDF4DB7B94EA2E58241DF0AE57F97E0A6C9B29067028BF92D76 SWAP1 PUSH0 SWAP1 LOG3 POP POP JUMP JUMPDEST PUSH1 0x1 PUSH1 0x1 PUSH1 0xA0 SHL SUB DUP3 AND PUSH2 0x232 JUMPI PUSH1 0x40 MLOAD PUSH3 0x461BCD PUSH1 0xE5 SHL DUP2 MSTORE PUSH1 0x20 PUSH1 0x4 DUP3 ADD MSTORE PUSH1 0x1F PUSH1 0x24 DUP3 ADD MSTORE PUSH32 0x45524332303A206D696E7420746F20746865207A65726F206164647265737300 PUSH1 0x44 DUP3 ADD MSTORE PUSH1 0x64 ADD PUSH1 0x40 MLOAD DUP1 SWAP2 SUB SWAP1 REVERT JUMPDEST DUP1 PUSH1 0x4 PUSH0 DUP3 DUP3 SLOAD PUSH2 0x243 SWAP2 SWAP1 PUSH2 0x4D0 JUMP JUMPDEST SWAP1 SWAP2 SSTORE POP POP PUSH1 0x1 PUSH1 0x1 PUSH1 0xA0 SHL SUB DUP3 AND PUSH0 SWAP1 DUP2 MSTORE PUSH1 0x2 PUSH1 0x20 MSTORE PUSH1 0x40 DUP2 KECCAK256 DUP1 SLOAD DUP4 SWAP3 SWAP1 PUSH2 0x26F SWAP1 DUP5 SWAP1 PUSH2 0x4D0 JUMP JUMPDEST SWAP1 SWAP2 SSTORE POP POP PUSH1 0x40 MLOAD DUP2 DUP2 MSTORE PUSH1 0x1 PUSH1 0x1 PUSH1 0xA0 SHL SUB DUP4 AND SWAP1 PUSH0 SWAP1 PUSH32 0xDDF252AD1BE2C89B69C2B068FC378DAA952BA7F163C4A11628F55A4DF523B3EF SWAP1 PUSH1 0x20 ADD PUSH1 0x40 MLOAD DUP1 SWAP2 SUB SWAP1 LOG3 POP POP JUMP JUMPDEST PUSH1 0x60 PUSH1 0x5 DUP1 SLOAD PUSH2 0x2C7 SWAP1 PUSH2 0x38E JUMP JUMPDEST DUP1 PUSH1 0x1F ADD PUSH1 0x20 DUP1 SWAP2 DIV MUL PUSH1 0x20 ADD PUSH1 0x40 MLOAD SWAP1 DUP2 ADD PUSH1 0x40 MSTORE DUP1 SWAP3 SWAP2 SWAP1 DUP2 DUP2 MSTORE PUSH1 0x20 ADD DUP3 DUP1 SLOAD PUSH2 0x2F3 SWAP1 PUSH2 0x38E JUMP JUMPDEST DUP1 ISZERO PUSH2 0x33E JUMPI DUP1 PUSH1 0x1F LT PUSH2 0x315 JUMPI PUSH2 0x100 DUP1 DUP4 SLOAD DIV MUL DUP4 MSTORE SWAP2 PUSH1 0x20 ADD SWAP2 PUSH2 0x33E JUMP JUMPDEST DUP3 ADD SWAP2 SWAP1 PUSH0 MSTORE PUSH1 0x20 PUSH0 KECCAK256 SWAP1 JUMPDEST DUP2 SLOAD DUP2 MSTORE SWAP1 PUSH1 0x1 ADD SWAP1 PUSH1 0x20 ADD DUP1 DUP4 GT PUSH2 0x321 JUMPI DUP3 SWAP1 SUB PUSH1 0x1F AND DUP3 ADD SWAP2 JUMPDEST POP POP POP POP POP SWAP1 POP SWAP1 JUMP JUMPDEST POP POP POP JUMP JUMPDEST PUSH0 PUSH1 0x20 DUP3 DUP5 SUB SLT ISZERO PUSH2 0x35D JUMPI PUSH0 DUP1 REVERT JUMPDEST DUP2 MLOAD PUSH1 0x1 PUSH1 0x1 PUSH1 0xA0 SHL SUB DUP2 AND DUP2 EQ PUSH2 0x373 JUMPI PUSH0 DUP1 REVERT JUMPDEST SWAP4 SWAP3 POP POP POP JUMP JUMPDEST PUSH4 0x4E487B71 PUSH1 0xE0 SHL PUSH0 MSTORE PUSH1 0x41 PUSH1 0x4 MSTORE PUSH1 0x24 PUSH0 REVERT JUMPDEST PUSH1 0x1 DUP2 DUP2 SHR SWAP1 DUP3 AND DUP1 PUSH2 0x3A2 JUMPI PUSH1 0x7F DUP3 AND SWAP2 POP JUMPDEST PUSH1 0x20 DUP3 LT DUP2 SUB PUSH2 0x3C0 JUMPI PUSH4 0x4E487B71 PUSH1 0xE0 SHL PUSH0 MSTORE PUSH1 0x22 PUSH1 0x4 MSTORE PUSH1 0x24 PUSH0 REVERT JUMPDEST POP SWAP2 SWAP1 POP JUMP JUMPDEST PUSH1 0x1F DUP3 GT ISZERO PUSH2 0x348 JUMPI DUP1 PUSH0 MSTORE PUSH1 0x20 PUSH0 KECCAK256 PUSH1 0x1F DUP5 ADD PUSH1 0x5 SHR DUP2 ADD PUSH1 0x20 DUP6 LT ISZERO PUSH2 0x3EB JUMPI POP DUP1 JUMPDEST PUSH1 0x1F DUP5 ADD PUSH1 0x5 SHR DUP3 ADD SWAP2 POP JUMPDEST DUP2 DUP2 LT ISZERO PUSH2 0x40A JUMPI PUSH0 DUP2 SSTORE PUSH1 0x1 ADD PUSH2 0x3F7 JUMP JUMPDEST POP POP POP POP POP JUMP JUMPDEST DUP2 MLOAD PUSH1 0x1 PUSH1 0x1 PUSH1 0x40 SHL SUB DUP2 GT ISZERO PUSH2 0x42A JUMPI PUSH2 0x42A PUSH2 0x37A JUMP JUMPDEST PUSH2 0x43E DUP2 PUSH2 0x438 DUP5 SLOAD PUSH2 0x38E JUMP JUMPDEST DUP5 PUSH2 0x3C6 JUMP JUMPDEST PUSH1 0x20 DUP1 PUSH1 0x1F DUP4 GT PUSH1 0x1 DUP2 EQ PUSH2 0x471 JUMPI PUSH0 DUP5 ISZERO PUSH2 0x45A JUMPI POP DUP6 DUP4 ADD MLOAD JUMPDEST PUSH0 NOT PUSH1 0x3 DUP7 SWAP1 SHL SHR NOT AND PUSH1 0x1 DUP6 SWAP1 SHL OR DUP6 SSTORE PUSH2 0x4C8 JUMP JUMPDEST PUSH0 DUP6 DUP2 MSTORE PUSH1 0x20 DUP2 KECCAK256 PUSH1 0x1F NOT DUP7 AND SWAP2 JUMPDEST DUP3 DUP2 LT ISZERO PUSH2 0x49F JUMPI DUP9 DUP7 ADD MLOAD DUP3 SSTORE SWAP5 DUP5 ADD SWAP5 PUSH1 0x1 SWAP1 SWAP2 ADD SWAP1 DUP5 ADD PUSH2 0x480 JUMP JUMPDEST POP DUP6 DUP3 LT ISZERO PUSH2 0x4BC JUMPI DUP8 DUP6 ADD MLOAD PUSH0 NOT PUSH1 0x3 DUP9 SWAP1 SHL PUSH1 0xF8 AND SHR NOT AND DUP2 SSTORE JUMPDEST POP POP PUSH1 0x1 DUP5 PUSH1 0x1 SHL ADD DUP6 SSTORE JUMPDEST POP POP POP POP POP POP JUMP JUMPDEST DUP1 DUP3 ADD DUP1 DUP3 GT ISZERO PUSH2 0x4EF JUMPI PUSH4 0x4E487B71 PUSH1 0xE0 SHL PUSH0 MSTORE PUSH1 0x11 PUSH1 0x4 MSTORE PUSH1 0x24 PUSH0 REVERT JUMPDEST SWAP3 SWAP2 POP POP JUMP JUMPDEST PUSH1 0x80 MLOAD PUSH1 0xA0 MLOAD PUSH1 0xC0 MLOAD PUSH1 0xE0 MLOAD PUSH2 0x20B6 PUSH2 0x528 PUSH0 CODECOPY PUSH0 PUSH2 0xABD ADD MSTORE PUSH0 PUSH2 0x4D6 ADD MSTORE PUSH0 PUSH2 0x500 ADD MSTORE PUSH0 PUSH2 0x52A ADD MSTORE PUSH2 0x20B6 PUSH0 RETURN INVALID PUSH1 0x80 PUSH1 0x40 MSTORE CALLVALUE DUP1 ISZERO PUSH2 0xF JUMPI PUSH0 DUP1 REVERT JUMPDEST POP PUSH1 0x4 CALLDATASIZE LT PUSH2 0x19A JUMPI PUSH0 CALLDATALOAD PUSH1 0xE0 SHR DUP1 PUSH4 0x79CC6790 GT PUSH2 0xE8 JUMPI DUP1 PUSH4 0xA457C2D7 GT PUSH2 0x93 JUMPI DUP1 PUSH4 0xD505ACCF GT PUSH2 0x6E JUMPI DUP1 PUSH4 0xD505ACCF EQ PUSH2 0x367 JUMPI DUP1 PUSH4 0xD9CDEE0D EQ PUSH2 0x37A JUMPI DUP1 PUSH4 0xDD62ED3E EQ PUSH2 0x38D JUMPI DUP1 PUSH4 0xE8A3D485 EQ PUSH2 0x3C5 JUMPI PUSH0 DUP1 REVERT JUMPDEST DUP1 PUSH4 0xA457C2D7 EQ PUSH2 0x321 JUMPI DUP1 PUSH4 0xA9059CBB EQ PUSH2 0x334 JUMPI DUP1 PUSH4 0xAC9650D8 EQ PUSH2 0x347 JUMPI PUSH0 DUP1 REVERT JUMPDEST DUP1 PUSH4 0x902D55A5 GT PUSH2 0xC3 JUMPI DUP1 PUSH4 0x902D55A5 EQ PUSH2 0x2F5 JUMPI DUP1 PUSH4 0x938E3D7B EQ PUSH2 0x306 JUMPI DUP1 PUSH4 0x95D89B41 EQ PUSH2 0x319 JUMPI PUSH0 DUP1 REVERT JUMPDEST DUP1 PUSH4 0x79CC6790 EQ PUSH2 0x2B4 JUMPI DUP1 PUSH4 0x7ECEBE00 EQ PUSH2 0x2C7 JUMPI DUP1 PUSH4 0x8DA5CB5B EQ PUSH2 0x2DA JUMPI PUSH0 DUP1 REVERT JUMPDEST DUP1 PUSH4 0x3644E515 GT PUSH2 0x148 JUMPI DUP1 PUSH4 0x449A52F8 GT PUSH2 0x123 JUMPI DUP1 PUSH4 0x449A52F8 EQ PUSH2 0x256 JUMPI DUP1 PUSH4 0x70A08231 EQ PUSH2 0x269 JUMPI DUP1 PUSH4 0x7261FA29 EQ PUSH2 0x291 JUMPI PUSH0 DUP1 REVERT JUMPDEST DUP1 PUSH4 0x3644E515 EQ PUSH2 0x228 JUMPI DUP1 PUSH4 0x39509351 EQ PUSH2 0x230 JUMPI DUP1 PUSH4 0x42966C68 EQ PUSH2 0x243 JUMPI PUSH0 DUP1 REVERT JUMPDEST DUP1 PUSH4 0x18160DDD GT PUSH2 0x178 JUMPI DUP1 PUSH4 0x18160DDD EQ PUSH2 0x1F4 JUMPI DUP1 PUSH4 0x23B872DD EQ PUSH2 0x206 JUMPI DUP1 PUSH4 0x313CE567 EQ PUSH2 0x219 JUMPI PUSH0 DUP1 REVERT JUMPDEST DUP1 PUSH4 0x6FDDE03 EQ PUSH2 0x19E JUMPI DUP1 PUSH4 0x95EA7B3 EQ PUSH2 0x1BC JUMPI DUP1 PUSH4 0x13AF4035 EQ PUSH2 0x1DF JUMPI JUMPDEST PUSH0 DUP1 REVERT JUMPDEST PUSH2 0x1A6 PUSH2 0x3CD JUMP JUMPDEST PUSH1 0x40 MLOAD PUSH2 0x1B3 SWAP2 SWAP1 PUSH2 0x1A42 JUMP JUMPDEST PUSH1 0x40 MLOAD DUP1 SWAP2 SUB SWAP1 RETURN JUMPDEST PUSH2 0x1CF PUSH2 0x1CA CALLDATASIZE PUSH1 0x4 PUSH2 0x1A6F JUMP JUMPDEST PUSH2 0x45D JUMP JUMPDEST PUSH1 0x40 MLOAD SWAP1 ISZERO ISZERO DUP2 MSTORE PUSH1 0x20 ADD PUSH2 0x1B3 JUMP JUMPDEST PUSH2 0x1F2 PUSH2 0x1ED CALLDATASIZE PUSH1 0x4 PUSH2 0x1A97 JUMP JUMPDEST PUSH2 0x476 JUMP JUMPDEST STOP JUMPDEST PUSH1 0x4 SLOAD JUMPDEST PUSH1 0x40 MLOAD SWAP1 DUP2 MSTORE PUSH1 0x20 ADD PUSH2 0x1B3 JUMP JUMPDEST PUSH2 0x1CF PUSH2 0x214 CALLDATASIZE PUSH1 0x4 PUSH2 0x1AB0 JUMP JUMPDEST PUSH2 0x4A7 JUMP JUMPDEST PUSH1 0x40 MLOAD PUSH1 0x12 DUP2 MSTORE PUSH1 0x20 ADD PUSH2 0x1B3 JUMP JUMPDEST PUSH2 0x1F8 PUSH2 0x4CA JUMP JUMPDEST PUSH2 0x1CF PUSH2 0x23E CALLDATASIZE PUSH1 0x4 PUSH2 0x1A6F JUMP JUMPDEST PUSH2 0x559 JUMP JUMPDEST PUSH2 0x1F2 PUSH2 0x251 CALLDATASIZE PUSH1 0x4 PUSH2 0x1AE9 JUMP JUMPDEST PUSH2 0x597 JUMP JUMPDEST PUSH2 0x1F2 PUSH2 0x264 CALLDATASIZE PUSH1 0x4 PUSH2 0x1A6F JUMP JUMPDEST PUSH2 0x5D9 JUMP JUMPDEST PUSH2 0x1F8 PUSH2 0x277 CALLDATASIZE PUSH1 0x4 PUSH2 0x1A97 JUMP JUMPDEST PUSH1 0x1 PUSH1 0x1 PUSH1 0xA0 SHL SUB AND PUSH0 SWAP1 DUP2 MSTORE PUSH1 0x2 PUSH1 0x20 MSTORE PUSH1 0x40 SWAP1 KECCAK256 SLOAD SWAP1 JUMP JUMPDEST PUSH2 0x2A4 PUSH2 0x29F CALLDATASIZE PUSH1 0x4 PUSH2 0x1B00 JUMP JUMPDEST PUSH2 0x68F JUMP JUMPDEST PUSH1 0x40 MLOAD PUSH2 0x1B3 SWAP5 SWAP4 SWAP3 SWAP2 SWAP1 PUSH2 0x1B54 JUMP JUMPDEST PUSH2 0x1F2 PUSH2 0x2C2 CALLDATASIZE PUSH1 0x4 PUSH2 0x1A6F JUMP JUMPDEST PUSH2 0x6E0 JUMP JUMPDEST PUSH2 0x1F8 PUSH2 0x2D5 CALLDATASIZE PUSH1 0x4 PUSH2 0x1A97 JUMP JUMPDEST PUSH2 0x7F6 JUMP JUMPDEST PUSH1 0x1 SLOAD PUSH1 0x40 MLOAD PUSH1 0x1 PUSH1 0x1 PUSH1 0xA0 SHL SUB SWAP1 SWAP2 AND DUP2 MSTORE PUSH1 0x20 ADD PUSH2 0x1B3 JUMP JUMPDEST PUSH2 0x1F8 PUSH10 0xD3C21BCECCEDA1000000 DUP2 JUMP JUMPDEST PUSH2 0x1F2 PUSH2 0x314 CALLDATASIZE PUSH1 0x4 PUSH2 0x1B97 JUMP JUMPDEST PUSH2 0x813 JUMP JUMPDEST PUSH2 0x1A6 PUSH2 0x841 JUMP JUMPDEST PUSH2 0x1CF PUSH2 0x32F CALLDATASIZE PUSH1 0x4 PUSH2 0x1A6F JUMP JUMPDEST PUSH2 0x850 JUMP JUMPDEST PUSH2 0x1CF PUSH2 0x342 CALLDATASIZE PUSH1 0x4 PUSH2 0x1A6F JUMP JUMPDEST PUSH2 0x8F9 JUMP JUMPDEST PUSH2 0x35A PUSH2 0x355 CALLDATASIZE PUSH1 0x4 PUSH2 0x1C42 JUMP JUMPDEST PUSH2 0x906 JUMP JUMPDEST PUSH1 0x40 MLOAD PUSH2 0x1B3 SWAP2 SWAP1 PUSH2 0x1CB1 JUMP JUMPDEST PUSH2 0x1F2 PUSH2 0x375 CALLDATASIZE PUSH1 0x4 PUSH2 0x1D13 JUMP JUMPDEST PUSH2 0xA6A JUMP JUMPDEST PUSH2 0x1F2 PUSH2 0x388 CALLDATASIZE PUSH1 0x4 PUSH2 0x1D80 JUMP JUMPDEST PUSH2 0xBED JUMP JUMPDEST PUSH2 0x1F8 PUSH2 0x39B CALLDATASIZE PUSH1 0x4 PUSH2 0x1DCF JUMP JUMPDEST PUSH1 0x1 PUSH1 0x1 PUSH1 0xA0 SHL SUB SWAP2 DUP3 AND PUSH0 SWAP1 DUP2 MSTORE PUSH1 0x3 PUSH1 0x20 SWAP1 DUP2 MSTORE PUSH1 0x40 DUP1 DUP4 KECCAK256 SWAP4 SWAP1 SWAP5 AND DUP3 MSTORE SWAP2 SWAP1 SWAP2 MSTORE KECCAK256 SLOAD SWAP1 JUMP JUMPDEST PUSH2 0x1A6 PUSH2 0xE2D JUMP JUMPDEST PUSH1 0x60 PUSH1 0x5 DUP1 SLOAD PUSH2 0x3DC SWAP1 PUSH2 0x1E00 JUMP JUMPDEST DUP1 PUSH1 0x1F ADD PUSH1 0x20 DUP1 SWAP2 DIV MUL PUSH1 0x20 ADD PUSH1 0x40 MLOAD SWAP1 DUP2 ADD PUSH1 0x40 MSTORE DUP1 SWAP3 SWAP2 SWAP1 DUP2 DUP2 MSTORE PUSH1 0x20 ADD DUP3 DUP1 SLOAD PUSH2 0x408 SWAP1 PUSH2 0x1E00 JUMP JUMPDEST DUP1 ISZERO PUSH2 0x453 JUMPI DUP1 PUSH1 0x1F LT PUSH2 0x42A JUMPI PUSH2 0x100 DUP1 DUP4 SLOAD DIV MUL DUP4 MSTORE SWAP2 PUSH1 0x20 ADD SWAP2 PUSH2 0x453 JUMP JUMPDEST DUP3 ADD SWAP2 SWAP1 PUSH0 MSTORE PUSH1 0x20 PUSH0 KECCAK256 SWAP1 JUMPDEST DUP2 SLOAD DUP2 MSTORE SWAP1 PUSH1 0x1 ADD SWAP1 PUSH1 0x20 ADD DUP1 DUP4 GT PUSH2 0x436 JUMPI DUP3 SWAP1 SUB PUSH1 0x1F AND DUP3 ADD SWAP2 JUMPDEST POP POP POP POP POP SWAP1 POP SWAP1 JUMP JUMPDEST PUSH0 CALLER PUSH2 0x46A DUP2 DUP6 DUP6 PUSH2 0xEB8 JUMP JUMPDEST PUSH1 0x1 SWAP2 POP POP JUMPDEST SWAP3 SWAP2 POP POP JUMP JUMPDEST PUSH2 0x47E PUSH2 0xFDB JUMP JUMPDEST PUSH2 0x49B JUMPI PUSH1 0x40 MLOAD PUSH4 0x16CCB9CB PUSH1 0xE1 SHL DUP2 MSTORE PUSH1 0x4 ADD PUSH1 0x40 MLOAD DUP1 SWAP2 SUB SWAP1 REVERT JUMPDEST PUSH2 0x4A4 DUP2 PUSH2 0x1007 JUMP JUMPDEST POP JUMP JUMPDEST PUSH0 CALLER PUSH2 0x4B4 DUP6 DUP3 DUP6 PUSH2 0x1065 JUMP JUMPDEST PUSH2 0x4BF DUP6 DUP6 DUP6 PUSH2 0x10F5 JUMP JUMPDEST POP PUSH1 0x1 SWAP5 SWAP4 POP POP POP POP JUMP JUMPDEST PUSH0 ADDRESS PUSH1 0x1 PUSH1 0x1 PUSH1 0xA0 SHL SUB PUSH32 0x0 AND EQ DUP1 ISZERO PUSH2 0x522 JUMPI POP PUSH32 0x0 CHAINID EQ JUMPDEST ISZERO PUSH2 0x54C JUMPI POP PUSH32 0x0 SWAP1 JUMP JUMPDEST PUSH2 0x554 PUSH2 0x12F0 JUMP JUMPDEST SWAP1 POP SWAP1 JUMP JUMPDEST CALLER PUSH0 DUP2 DUP2 MSTORE PUSH1 0x3 PUSH1 0x20 SWAP1 DUP2 MSTORE PUSH1 0x40 DUP1 DUP4 KECCAK256 PUSH1 0x1 PUSH1 0x1 PUSH1 0xA0 SHL SUB DUP8 AND DUP5 MSTORE SWAP1 SWAP2 MSTORE DUP2 KECCAK256 SLOAD SWAP1 SWAP2 SWAP1 PUSH2 0x46A SWAP1 DUP3 SWAP1 DUP7 SWAP1 PUSH2 0x592 SWAP1 DUP8 SWAP1 PUSH2 0x1E46 JUMP JUMPDEST PUSH2 0xEB8 JUMP JUMPDEST PUSH2 0x5A1 CALLER DUP3 PUSH2 0x1384 JUMP JUMPDEST PUSH1 0x40 MLOAD DUP2 DUP2 MSTORE CALLER SWAP1 PUSH32 0xFD38818F5291BF0BB3A2A48AADC06BA8757865D1DABD804585338AAB3009DCB6 SWAP1 PUSH1 0x20 ADD PUSH1 0x40 MLOAD DUP1 SWAP2 SUB SWAP1 LOG2 POP JUMP JUMPDEST PUSH2 0x5E1 PUSH2 0xFDB JUMP JUMPDEST PUSH2 0x632 JUMPI PUSH1 0x40 MLOAD PUSH3 0x461BCD PUSH1 0xE5 SHL DUP2 MSTORE PUSH1 0x20 PUSH1 0x4 DUP3 ADD MSTORE PUSH1 0x17 PUSH1 0x24 DUP3 ADD MSTORE PUSH32 0x4E6F7420617574686F72697A656420746F206D696E742E000000000000000000 PUSH1 0x44 DUP3 ADD MSTORE PUSH1 0x64 ADD JUMPDEST PUSH1 0x40 MLOAD DUP1 SWAP2 SUB SWAP1 REVERT JUMPDEST DUP1 PUSH0 SUB PUSH2 0x681 JUMPI PUSH1 0x40 MLOAD PUSH3 0x461BCD PUSH1 0xE5 SHL DUP2 MSTORE PUSH1 0x20 PUSH1 0x4 DUP3 ADD MSTORE PUSH1 0x14 PUSH1 0x24 DUP3 ADD MSTORE PUSH32 0x4D696E74696E67207A65726F20746F6B656E732E000000000000000000000000 PUSH1 0x44 DUP3 ADD MSTORE PUSH1 0x64 ADD PUSH2 0x629 JUMP JUMPDEST PUSH2 0x68B DUP3 DUP3 PUSH2 0x14CF JUMP JUMPDEST POP POP JUMP JUMPDEST PUSH1 0x8 PUSH1 0x20 MSTORE DUP2 PUSH0 MSTORE PUSH1 0x40 PUSH0 KECCAK256 DUP2 DUP2 SLOAD DUP2 LT PUSH2 0x6A8 JUMPI PUSH0 DUP1 REVERT JUMPDEST PUSH0 SWAP2 DUP3 MSTORE PUSH1 0x20 SWAP1 SWAP2 KECCAK256 PUSH1 0x3 SWAP1 SWAP2 MUL ADD DUP1 SLOAD PUSH1 0x1 DUP3 ADD SLOAD PUSH1 0x2 SWAP1 SWAP3 ADD SLOAD PUSH1 0x1 PUSH1 0x1 PUSH1 0xA0 SHL SUB DUP3 AND SWAP5 POP PUSH1 0x1 PUSH1 0xA0 SHL SWAP1 SWAP2 DIV PUSH1 0xFF AND SWAP3 POP DUP5 JUMP JUMPDEST PUSH2 0x6E8 PUSH2 0xFDB JUMP JUMPDEST PUSH2 0x734 JUMPI PUSH1 0x40 MLOAD PUSH3 0x461BCD PUSH1 0xE5 SHL DUP2 MSTORE PUSH1 0x20 PUSH1 0x4 DUP3 ADD MSTORE PUSH1 0x17 PUSH1 0x24 DUP3 ADD MSTORE PUSH32 0x4E6F7420617574686F72697A656420746F206275726E2E000000000000000000 PUSH1 0x44 DUP3 ADD MSTORE PUSH1 0x64 ADD PUSH2 0x629 JUMP JUMPDEST DUP1 PUSH2 0x753 DUP4 PUSH1 0x1 PUSH1 0x1 PUSH1 0xA0 SHL SUB AND PUSH0 SWAP1 DUP2 MSTORE PUSH1 0x2 PUSH1 0x20 MSTORE PUSH1 0x40 SWAP1 KECCAK256 SLOAD SWAP1 JUMP JUMPDEST LT ISZERO PUSH2 0x7A1 JUMPI PUSH1 0x40 MLOAD PUSH3 0x461BCD PUSH1 0xE5 SHL DUP2 MSTORE PUSH1 0x20 PUSH1 0x4 DUP3 ADD MSTORE PUSH1 0x12 PUSH1 0x24 DUP3 ADD MSTORE PUSH32 0x6E6F7420656E6F7567682062616C616E63650000000000000000000000000000 PUSH1 0x44 DUP3 ADD MSTORE PUSH1 0x64 ADD PUSH2 0x629 JUMP JUMPDEST PUSH1 0x1 PUSH1 0x1 PUSH1 0xA0 SHL SUB DUP3 AND PUSH0 SWAP1 DUP2 MSTORE PUSH1 0x3 PUSH1 0x20 SWAP1 DUP2 MSTORE PUSH1 0x40 DUP1 DUP4 KECCAK256 CALLER DUP5 MSTORE SWAP1 SWAP2 MSTORE DUP2 KECCAK256 SLOAD PUSH2 0x7CF SWAP1 DUP4 SWAP1 PUSH2 0x1E59 JUMP JUMPDEST SWAP1 POP PUSH2 0x7DC DUP4 CALLER PUSH0 PUSH2 0xEB8 JUMP JUMPDEST PUSH2 0x7E7 DUP4 CALLER DUP4 PUSH2 0xEB8 JUMP JUMPDEST PUSH2 0x7F1 DUP4 DUP4 PUSH2 0x1384 JUMP JUMPDEST POP POP POP JUMP JUMPDEST PUSH1 0x1 PUSH1 0x1 PUSH1 0xA0 SHL SUB DUP2 AND PUSH0 SWAP1 DUP2 MSTORE PUSH1 0x7 PUSH1 0x20 MSTORE PUSH1 0x40 DUP2 KECCAK256 SLOAD PUSH2 0x470 JUMP JUMPDEST PUSH2 0x81B PUSH2 0xFDB JUMP JUMPDEST PUSH2 0x838 JUMPI PUSH1 0x40 MLOAD PUSH4 0x9F7F0925 PUSH1 0xE0 SHL DUP2 MSTORE PUSH1 0x4 ADD PUSH1 0x40 MLOAD DUP1 SWAP2 SUB SWAP1 REVERT JUMPDEST PUSH2 0x4A4 DUP2 PUSH2 0x15AB JUMP JUMPDEST PUSH1 0x60 PUSH1 0x6 DUP1 SLOAD PUSH2 0x3DC SWAP1 PUSH2 0x1E00 JUMP JUMPDEST CALLER PUSH0 DUP2 DUP2 MSTORE PUSH1 0x3 PUSH1 0x20 SWAP1 DUP2 MSTORE PUSH1 0x40 DUP1 DUP4 KECCAK256 PUSH1 0x1 PUSH1 0x1 PUSH1 0xA0 SHL SUB DUP8 AND DUP5 MSTORE SWAP1 SWAP2 MSTORE DUP2 KECCAK256 SLOAD SWAP1 SWAP2 SWAP1 DUP4 DUP2 LT ISZERO PUSH2 0x8EC JUMPI PUSH1 0x40 MLOAD PUSH3 0x461BCD PUSH1 0xE5 SHL DUP2 MSTORE PUSH1 0x20 PUSH1 0x4 DUP3 ADD MSTORE PUSH1 0x25 PUSH1 0x24 DUP3 ADD MSTORE PUSH32 0x45524332303A2064656372656173656420616C6C6F77616E63652062656C6F77 PUSH1 0x44 DUP3 ADD MSTORE PUSH32 0x207A65726F000000000000000000000000000000000000000000000000000000 PUSH1 0x64 DUP3 ADD MSTORE PUSH1 0x84 ADD PUSH2 0x629 JUMP JUMPDEST PUSH2 0x4BF DUP3 DUP7 DUP7 DUP5 SUB PUSH2 0xEB8 JUMP JUMPDEST PUSH0 CALLER PUSH2 0x46A DUP2 DUP6 DUP6 PUSH2 0x10F5 JUMP JUMPDEST PUSH1 0x60 DUP2 PUSH8 0xFFFFFFFFFFFFFFFF DUP2 GT ISZERO PUSH2 0x921 JUMPI PUSH2 0x921 PUSH2 0x1B83 JUMP JUMPDEST PUSH1 0x40 MLOAD SWAP1 DUP1 DUP3 MSTORE DUP1 PUSH1 0x20 MUL PUSH1 0x20 ADD DUP3 ADD PUSH1 0x40 MSTORE DUP1 ISZERO PUSH2 0x954 JUMPI DUP2 PUSH1 0x20 ADD JUMPDEST PUSH1 0x60 DUP2 MSTORE PUSH1 0x20 ADD SWAP1 PUSH1 0x1 SWAP1 SUB SWAP1 DUP2 PUSH2 0x93F JUMPI SWAP1 POP JUMPDEST POP SWAP1 POP CALLER PUSH0 DUP1 JUMPDEST DUP5 DUP2 LT ISZERO PUSH2 0xA61 JUMPI DUP2 ISZERO PUSH2 0x9DA JUMPI PUSH2 0x9B8 ADDRESS DUP8 DUP8 DUP5 DUP2 DUP2 LT PUSH2 0x97F JUMPI PUSH2 0x97F PUSH2 0x1E6C JUMP JUMPDEST SWAP1 POP PUSH1 0x20 MUL DUP2 ADD SWAP1 PUSH2 0x991 SWAP2 SWAP1 PUSH2 0x1E80 JUMP JUMPDEST DUP7 PUSH1 0x40 MLOAD PUSH1 0x20 ADD PUSH2 0x9A4 SWAP4 SWAP3 SWAP2 SWAP1 PUSH2 0x1ECA JUMP JUMPDEST PUSH1 0x40 MLOAD PUSH1 0x20 DUP2 DUP4 SUB SUB DUP2 MSTORE SWAP1 PUSH1 0x40 MSTORE PUSH2 0x1682 JUMP JUMPDEST DUP5 DUP3 DUP2 MLOAD DUP2 LT PUSH2 0x9CA JUMPI PUSH2 0x9CA PUSH2 0x1E6C JUMP JUMPDEST PUSH1 0x20 MUL PUSH1 0x20 ADD ADD DUP2 SWAP1 MSTORE POP PUSH2 0xA59 JUMP JUMPDEST PUSH2 0xA3B ADDRESS DUP8 DUP8 DUP5 DUP2 DUP2 LT PUSH2 0x9F0 JUMPI PUSH2 0x9F0 PUSH2 0x1E6C JUMP JUMPDEST SWAP1 POP PUSH1 0x20 MUL DUP2 ADD SWAP1 PUSH2 0xA02 SWAP2 SWAP1 PUSH2 0x1E80 JUMP JUMPDEST DUP1 DUP1 PUSH1 0x1F ADD PUSH1 0x20 DUP1 SWAP2 DIV MUL PUSH1 0x20 ADD PUSH1 0x40 MLOAD SWAP1 DUP2 ADD PUSH1 0x40 MSTORE DUP1 SWAP4 SWAP3 SWAP2 SWAP1 DUP2 DUP2 MSTORE PUSH1 0x20 ADD DUP4 DUP4 DUP1 DUP3 DUP5 CALLDATACOPY PUSH0 SWAP3 ADD SWAP2 SWAP1 SWAP2 MSTORE POP PUSH2 0x1682 SWAP3 POP POP POP JUMP JUMPDEST DUP5 DUP3 DUP2 MLOAD DUP2 LT PUSH2 0xA4D JUMPI PUSH2 0xA4D PUSH2 0x1E6C JUMP JUMPDEST PUSH1 0x20 MUL PUSH1 0x20 ADD ADD DUP2 SWAP1 MSTORE POP JUMPDEST PUSH1 0x1 ADD PUSH2 0x95B JUMP JUMPDEST POP POP POP SWAP3 SWAP2 POP POP JUMP JUMPDEST DUP4 TIMESTAMP GT ISZERO PUSH2 0xABA JUMPI PUSH1 0x40 MLOAD PUSH3 0x461BCD PUSH1 0xE5 SHL DUP2 MSTORE PUSH1 0x20 PUSH1 0x4 DUP3 ADD MSTORE PUSH1 0x1D PUSH1 0x24 DUP3 ADD MSTORE PUSH32 0x45524332305065726D69743A206578706972656420646561646C696E65000000 PUSH1 0x44 DUP3 ADD MSTORE PUSH1 0x64 ADD PUSH2 0x629 JUMP JUMPDEST PUSH0 PUSH32 0x0 DUP9 DUP9 DUP9 PUSH2 0xAE8 DUP13 PUSH2 0x16AE JUMP JUMPDEST PUSH1 0x40 DUP1 MLOAD PUSH1 0x20 DUP2 ADD SWAP7 SWAP1 SWAP7 MSTORE PUSH1 0x1 PUSH1 0x1 PUSH1 0xA0 SHL SUB SWAP5 DUP6 AND SWAP1 DUP7 ADD MSTORE SWAP3 SWAP1 SWAP2 AND PUSH1 0x60 DUP5 ADD MSTORE PUSH1 0x80 DUP4 ADD MSTORE PUSH1 0xA0 DUP3 ADD MSTORE PUSH1 0xC0 DUP2 ADD DUP7 SWAP1 MSTORE PUSH1 0xE0 ADD PUSH1 0x40 MLOAD PUSH1 0x20 DUP2 DUP4 SUB SUB DUP2 MSTORE SWAP1 PUSH1 0x40 MSTORE DUP1 MLOAD SWAP1 PUSH1 0x20 ADD KECCAK256 SWAP1 POP PUSH0 PUSH2 0xB64 PUSH2 0xB44 PUSH2 0x4CA JUMP JUMPDEST DUP4 PUSH1 0x40 MLOAD PUSH2 0x1901 PUSH1 0xF0 SHL DUP2 MSTORE PUSH1 0x2 DUP2 ADD SWAP3 SWAP1 SWAP3 MSTORE PUSH1 0x22 DUP3 ADD MSTORE PUSH1 0x42 SWAP1 KECCAK256 SWAP1 JUMP JUMPDEST SWAP1 POP PUSH0 PUSH2 0xB73 DUP3 DUP8 DUP8 DUP8 PUSH2 0x16D5 JUMP JUMPDEST SWAP1 POP DUP10 PUSH1 0x1 PUSH1 0x1 PUSH1 0xA0 SHL SUB AND DUP2 PUSH1 0x1 PUSH1 0x1 PUSH1 0xA0 SHL SUB AND EQ PUSH2 0xBD6 JUMPI PUSH1 0x40 MLOAD PUSH3 0x461BCD PUSH1 0xE5 SHL DUP2 MSTORE PUSH1 0x20 PUSH1 0x4 DUP3 ADD MSTORE PUSH1 0x1E PUSH1 0x24 DUP3 ADD MSTORE PUSH32 0x45524332305065726D69743A20696E76616C6964207369676E61747572650000 PUSH1 0x44 DUP3 ADD MSTORE PUSH1 0x64 ADD PUSH2 0x629 JUMP JUMPDEST PUSH2 0xBE1 DUP11 DUP11 DUP11 PUSH2 0xEB8 JUMP JUMPDEST POP POP POP POP POP POP POP POP POP POP JUMP JUMPDEST PUSH1 0x1 SLOAD PUSH1 0x1 PUSH1 0x1 PUSH1 0xA0 SHL SUB AND CALLER EQ PUSH2 0xC18 JUMPI PUSH1 0x40 MLOAD PUSH4 0x16CCB9CB PUSH1 0xE1 SHL DUP2 MSTORE PUSH1 0x4 ADD PUSH1 0x40 MLOAD DUP1 SWAP2 SUB SWAP1 REVERT JUMPDEST PUSH1 0x1 PUSH1 0x1 PUSH1 0xA0 SHL SUB DUP6 AND PUSH2 0xC6E JUMPI PUSH1 0x40 MLOAD PUSH3 0x461BCD PUSH1 0xE5 SHL DUP2 MSTORE PUSH1 0x20 PUSH1 0x4 DUP3 ADD MSTORE PUSH1 0x11 PUSH1 0x24 DUP3 ADD MSTORE PUSH32 0x496E76616C696420726563697069656E74000000000000000000000000000000 PUSH1 0x44 DUP3 ADD MSTORE PUSH1 0x64 ADD PUSH2 0x629 JUMP JUMPDEST DUP4 PUSH2 0xC84 PUSH2 0x277 PUSH1 0x1 SLOAD PUSH1 0x1 PUSH1 0x1 PUSH1 0xA0 SHL SUB AND SWAP1 JUMP JUMPDEST LT ISZERO PUSH2 0xCD2 JUMPI PUSH1 0x40 MLOAD PUSH3 0x461BCD PUSH1 0xE5 SHL DUP2 MSTORE PUSH1 0x20 PUSH1 0x4 DUP3 ADD MSTORE PUSH1 0x1C PUSH1 0x24 DUP3 ADD MSTORE PUSH32 0x496E73756666696369656E7420747265617375727920746F6B656E7300000000 PUSH1 0x44 DUP3 ADD MSTORE PUSH1 0x64 ADD PUSH2 0x629 JUMP JUMPDEST PUSH2 0xCEE PUSH2 0xCE7 PUSH1 0x1 SLOAD PUSH1 0x1 PUSH1 0x1 PUSH1 0xA0 SHL SUB AND SWAP1 JUMP JUMPDEST DUP7 DUP7 PUSH2 0x10F5 JUMP JUMPDEST PUSH1 0x8 PUSH0 DUP5 DUP2 MSTORE PUSH1 0x20 ADD SWAP1 DUP2 MSTORE PUSH1 0x20 ADD PUSH0 KECCAK256 PUSH1 0x40 MLOAD DUP1 PUSH1 0x80 ADD PUSH1 0x40 MSTORE DUP1 DUP8 PUSH1 0x1 PUSH1 0x1 PUSH1 0xA0 SHL SUB AND DUP2 MSTORE PUSH1 0x20 ADD DUP5 PUSH1 0x1 DUP2 GT ISZERO PUSH2 0xD2B JUMPI PUSH2 0xD2B PUSH2 0x1B20 JUMP JUMPDEST DUP2 MSTORE PUSH1 0x20 DUP1 DUP3 ADD DUP6 SWAP1 MSTORE TIMESTAMP PUSH1 0x40 SWAP1 SWAP3 ADD SWAP2 SWAP1 SWAP2 MSTORE DUP3 SLOAD PUSH1 0x1 DUP2 DUP2 ADD DUP6 SSTORE PUSH0 SWAP5 DUP6 MSTORE SWAP4 DUP3 SWAP1 KECCAK256 DUP4 MLOAD PUSH1 0x3 SWAP1 SWAP3 MUL ADD DUP1 SLOAD PUSH1 0x1 PUSH1 0x1 PUSH1 0xA0 SHL SUB SWAP1 SWAP3 AND PUSH20 0xFFFFFFFFFFFFFFFFFFFFFFFFFFFFFFFFFFFFFFFF NOT DUP4 AND DUP2 OR DUP3 SSTORE SWAP3 DUP5 ADD MLOAD SWAP4 SWAP5 SWAP1 SWAP4 SWAP3 DUP5 SWAP3 PUSH32 0xFFFFFFFFFFFFFFFFFFFFFF000000000000000000000000000000000000000000 AND OR SWAP1 PUSH1 0x1 PUSH1 0xA0 SHL SWAP1 DUP5 SWAP1 DUP2 GT ISZERO PUSH2 0xDC7 JUMPI PUSH2 0xDC7 PUSH2 0x1B20 JUMP JUMPDEST MUL OR SWAP1 SSTORE POP PUSH1 0x40 DUP3 ADD MLOAD DUP2 PUSH1 0x1 ADD SSTORE PUSH1 0x60 DUP3 ADD MLOAD DUP2 PUSH1 0x2 ADD SSTORE POP POP DUP5 PUSH1 0x1 PUSH1 0x1 PUSH1 0xA0 SHL SUB AND DUP4 PUSH32 0xE61FFF04519EC4968AC0495E2E80AF6A9C688DB045B5C00AB20EE392E0AA7383 DUP5 DUP5 PUSH1 0x40 MLOAD PUSH2 0xE1E SWAP3 SWAP2 SWAP1 PUSH2 0x1EF0 JUMP JUMPDEST PUSH1 0x40 MLOAD DUP1 SWAP2 SUB SWAP1 LOG3 POP POP POP POP POP JUMP JUMPDEST PUSH0 DUP1 SLOAD PUSH2 0xE39 SWAP1 PUSH2 0x1E00 JUMP JUMPDEST DUP1 PUSH1 0x1F ADD PUSH1 0x20 DUP1 SWAP2 DIV MUL PUSH1 0x20 ADD PUSH1 0x40 MLOAD SWAP1 DUP2 ADD PUSH1 0x40 MSTORE DUP1 SWAP3 SWAP2 SWAP1 DUP2 DUP2 MSTORE PUSH1 0x20 ADD DUP3 DUP1 SLOAD PUSH2 0xE65 SWAP1 PUSH2 0x1E00 JUMP JUMPDEST DUP1 ISZERO PUSH2 0xEB0 JUMPI DUP1 PUSH1 0x1F LT PUSH2 0xE87 JUMPI PUSH2 0x100 DUP1 DUP4 SLOAD DIV MUL DUP4 MSTORE SWAP2 PUSH1 0x20 ADD SWAP2 PUSH2 0xEB0 JUMP JUMPDEST DUP3 ADD SWAP2 SWAP1 PUSH0 MSTORE PUSH1 0x20 PUSH0 KECCAK256 SWAP1 JUMPDEST DUP2 SLOAD DUP2 MSTORE SWAP1 PUSH1 0x1 ADD SWAP1 PUSH1 0x20 ADD DUP1 DUP4 GT PUSH2 0xE93 JUMPI DUP3 SWAP1 SUB PUSH1 0x1F AND DUP3 ADD SWAP2 JUMPDEST POP POP POP POP POP DUP2 JUMP JUMPDEST PUSH1 0x1 PUSH1 0x1 PUSH1 0xA0 SHL SUB DUP4 AND PUSH2 0xF1A JUMPI PUSH1 0x40 MLOAD PUSH3 0x461BCD PUSH1 0xE5 SHL DUP2 MSTORE PUSH1 0x20 PUSH1 0x4 DUP3 ADD MSTORE PUSH1 0x24 DUP1 DUP3 ADD MSTORE PUSH32 0x45524332303A20617070726F76652066726F6D20746865207A65726F20616464 PUSH1 0x44 DUP3 ADD MSTORE PUSH4 0x72657373 PUSH1 0xE0 SHL PUSH1 0x64 DUP3 ADD MSTORE PUSH1 0x84 ADD PUSH2 0x629 JUMP JUMPDEST PUSH1 0x1 PUSH1 0x1 PUSH1 0xA0 SHL SUB DUP3 AND PUSH2 0xF7B JUMPI PUSH1 0x40 MLOAD PUSH3 0x461BCD PUSH1 0xE5 SHL DUP2 MSTORE PUSH1 0x20 PUSH1 0x4 DUP3 ADD MSTORE PUSH1 0x22 PUSH1 0x24 DUP3 ADD MSTORE PUSH32 0x45524332303A20617070726F766520746F20746865207A65726F206164647265 PUSH1 0x44 DUP3 ADD MSTORE PUSH2 0x7373 PUSH1 0xF0 SHL PUSH1 0x64 DUP3 ADD MSTORE PUSH1 0x84 ADD PUSH2 0x629 JUMP JUMPDEST PUSH1 0x1 PUSH1 0x1 PUSH1 0xA0 SHL SUB DUP4 DUP2 AND PUSH0 DUP2 DUP2 MSTORE PUSH1 0x3 PUSH1 0x20 SWAP1 DUP2 MSTORE PUSH1 0x40 DUP1 DUP4 KECCAK256 SWAP5 DUP8 AND DUP1 DUP5 MSTORE SWAP5 DUP3 MSTORE SWAP2 DUP3 SWAP1 KECCAK256 DUP6 SWAP1 SSTORE SWAP1 MLOAD DUP5 DUP2 MSTORE PUSH32 0x8C5BE1E5EBEC7D5BD14F71427D1E84F3DD0314C0F7B2291E5B200AC8C7C3B925 SWAP2 ADD PUSH1 0x40 MLOAD DUP1 SWAP2 SUB SWAP1 LOG3 POP POP POP JUMP JUMPDEST PUSH0 PUSH2 0xFEE PUSH1 0x1 SLOAD PUSH1 0x1 PUSH1 0x1 PUSH1 0xA0 SHL SUB AND SWAP1 JUMP JUMPDEST PUSH1 0x1 PUSH1 0x1 PUSH1 0xA0 SHL SUB AND CALLER PUSH1 0x1 PUSH1 0x1 PUSH1 0xA0 SHL SUB AND EQ SWAP1 POP SWAP1 JUMP JUMPDEST PUSH1 0x1 DUP1 SLOAD PUSH1 0x1 PUSH1 0x1 PUSH1 0xA0 SHL SUB DUP4 DUP2 AND PUSH20 0xFFFFFFFFFFFFFFFFFFFFFFFFFFFFFFFFFFFFFFFF NOT DUP4 AND DUP2 OR SWAP1 SWAP4 SSTORE PUSH1 0x40 MLOAD SWAP2 AND SWAP2 SWAP1 DUP3 SWAP1 PUSH32 0x8292FCE18FA69EDF4DB7B94EA2E58241DF0AE57F97E0A6C9B29067028BF92D76 SWAP1 PUSH0 SWAP1 LOG3 POP POP JUMP JUMPDEST PUSH1 0x1 PUSH1 0x1 PUSH1 0xA0 SHL SUB DUP4 DUP2 AND PUSH0 SWAP1 DUP2 MSTORE PUSH1 0x3 PUSH1 0x20 SWAP1 DUP2 MSTORE PUSH1 0x40 DUP1 DUP4 KECCAK256 SWAP4 DUP7 AND DUP4 MSTORE SWAP3 SWAP1 MSTORE KECCAK256 SLOAD PUSH0 NOT DUP2 EQ PUSH2 0x10EF JUMPI DUP2 DUP2 LT ISZERO PUSH2 0x10E2 JUMPI PUSH1 0x40 MLOAD PUSH3 0x461BCD PUSH1 0xE5 SHL DUP2 MSTORE PUSH1 0x20 PUSH1 0x4 DUP3 ADD MSTORE PUSH1 0x1D PUSH1 0x24 DUP3 ADD MSTORE PUSH32 0x45524332303A20696E73756666696369656E7420616C6C6F77616E6365000000 PUSH1 0x44 DUP3 ADD MSTORE PUSH1 0x64 ADD PUSH2 0x629 JUMP JUMPDEST PUSH2 0x10EF DUP5 DUP5 DUP5 DUP5 SUB PUSH2 0xEB8 JUMP JUMPDEST POP POP POP POP JUMP JUMPDEST PUSH1 0x1 PUSH1 0x1 PUSH1 0xA0 SHL SUB DUP4 AND PUSH2 0x1171 JUMPI PUSH1 0x40 MLOAD PUSH3 0x461BCD PUSH1 0xE5 SHL DUP2 MSTORE PUSH1 0x20 PUSH1 0x4 DUP3 ADD MSTORE PUSH1 0x25 PUSH1 0x24 DUP3 ADD MSTORE PUSH32 0x45524332303A207472616E736665722066726F6D20746865207A65726F206164 PUSH1 0x44 DUP3 ADD MSTORE PUSH32 0x6472657373000000000000000000000000000000000000000000000000000000 PUSH1 0x64 DUP3 ADD MSTORE PUSH1 0x84 ADD PUSH2 0x629 JUMP JUMPDEST PUSH1 0x1 PUSH1 0x1 PUSH1 0xA0 SHL SUB DUP3 AND PUSH2 0x11D3 JUMPI PUSH1 0x40 MLOAD PUSH3 0x461BCD PUSH1 0xE5 SHL DUP2 MSTORE PUSH1 0x20 PUSH1 0x4 DUP3 ADD MSTORE PUSH1 0x23 PUSH1 0x24 DUP3 ADD MSTORE PUSH32 0x45524332303A207472616E7366657220746F20746865207A65726F2061646472 PUSH1 0x44 DUP3 ADD MSTORE PUSH3 0x657373 PUSH1 0xE8 SHL PUSH1 0x64 DUP3 ADD MSTORE PUSH1 0x84 ADD PUSH2 0x629 JUMP JUMPDEST PUSH1 0x1 PUSH1 0x1 PUSH1 0xA0 SHL SUB DUP4 AND PUSH0 SWAP1 DUP2 MSTORE PUSH1 0x2 PUSH1 0x20 MSTORE PUSH1 0x40 SWAP1 KECCAK256 SLOAD DUP2 DUP2 LT ISZERO PUSH2 0x1261 JUMPI PUSH1 0x40 MLOAD PUSH3 0x461BCD PUSH1 0xE5 SHL DUP2 MSTORE PUSH1 0x20 PUSH1 0x4 DUP3 ADD MSTORE PUSH1 0x26 PUSH1 0x24 DUP3 ADD MSTORE PUSH32 0x45524332303A207472616E7366657220616D6F756E7420657863656564732062 PUSH1 0x44 DUP3 ADD MSTORE PUSH32 0x616C616E63650000000000000000000000000000000000000000000000000000 PUSH1 0x64 DUP3 ADD MSTORE PUSH1 0x84 ADD PUSH2 0x629 JUMP JUMPDEST PUSH1 0x1 PUSH1 0x1 PUSH1 0xA0 SHL SUB DUP1 DUP6 AND PUSH0 SWAP1 DUP2 MSTORE PUSH1 0x2 PUSH1 0x20 MSTORE PUSH1 0x40 DUP1 DUP3 KECCAK256 DUP6 DUP6 SUB SWAP1 SSTORE SWAP2 DUP6 AND DUP2 MSTORE SWAP1 DUP2 KECCAK256 DUP1 SLOAD DUP5 SWAP3 SWAP1 PUSH2 0x1297 SWAP1 DUP5 SWAP1 PUSH2 0x1E46 JUMP JUMPDEST SWAP3 POP POP DUP2 SWAP1 SSTORE POP DUP3 PUSH1 0x1 PUSH1 0x1 PUSH1 0xA0 SHL SUB AND DUP5 PUSH1 0x1 PUSH1 0x1 PUSH1 0xA0 SHL SUB AND PUSH32 0xDDF252AD1BE2C89B69C2B068FC378DAA952BA7F163C4A11628F55A4DF523B3EF DUP5 PUSH1 0x40 MLOAD PUSH2 0x12E3 SWAP2 DUP2 MSTORE PUSH1 0x20 ADD SWAP1 JUMP JUMPDEST PUSH1 0x40 MLOAD DUP1 SWAP2 SUB SWAP1 LOG3 PUSH2 0x10EF JUMP JUMPDEST PUSH0 PUSH32 0x8B73C3C69BB8FE3D512ECC4CF759CC79239F7B179B0FFACAA9A75D522B39400F PUSH2 0x131A PUSH2 0x3CD JUMP JUMPDEST DUP1 MLOAD PUSH1 0x20 SWAP2 DUP3 ADD KECCAK256 PUSH1 0x40 DUP1 MLOAD SWAP3 DUP4 ADD SWAP4 SWAP1 SWAP4 MSTORE SWAP2 DUP2 ADD SWAP2 SWAP1 SWAP2 MSTORE PUSH32 0xC89EFDAA54C0F20C7ADF612882DF0950F5A951637E0307CDCB4C672F298B8BC6 PUSH1 0x60 DUP3 ADD MSTORE CHAINID PUSH1 0x80 DUP3 ADD MSTORE ADDRESS PUSH1 0xA0 DUP3 ADD MSTORE PUSH1 0xC0 ADD PUSH1 0x40 MLOAD PUSH1 0x20 DUP2 DUP4 SUB SUB DUP2 MSTORE SWAP1 PUSH1 0x40 MSTORE DUP1 MLOAD SWAP1 PUSH1 0x20 ADD KECCAK256 SWAP1 POP SWAP1 JUMP JUMPDEST PUSH1 0x1 PUSH1 0x1 PUSH1 0xA0 SHL SUB DUP3 AND PUSH2 0x13E4 JUMPI PUSH1 0x40 MLOAD PUSH3 0x461BCD PUSH1 0xE5 SHL DUP2 MSTORE PUSH1 0x20 PUSH1 0x4 DUP3 ADD MSTORE PUSH1 0x21 PUSH1 0x24 DUP3 ADD MSTORE PUSH32 0x45524332303A206275726E2066726F6D20746865207A65726F20616464726573 PUSH1 0x44 DUP3 ADD MSTORE PUSH1 0x73 PUSH1 0xF8 SHL PUSH1 0x64 DUP3 ADD MSTORE PUSH1 0x84 ADD PUSH2 0x629 JUMP JUMPDEST PUSH1 0x1 PUSH1 0x1 PUSH1 0xA0 SHL SUB DUP3 AND PUSH0 SWAP1 DUP2 MSTORE PUSH1 0x2 PUSH1 0x20 MSTORE PUSH1 0x40 SWAP1 KECCAK256 SLOAD DUP2 DUP2 LT ISZERO PUSH2 0x1457 JUMPI PUSH1 0x40 MLOAD PUSH3 0x461BCD PUSH1 0xE5 SHL DUP2 MSTORE PUSH1 0x20 PUSH1 0x4 DUP3 ADD MSTORE PUSH1 0x22 PUSH1 0x24 DUP3 ADD MSTORE PUSH32 0x45524332303A206275726E20616D6F756E7420657863656564732062616C616E PUSH1 0x44 DUP3 ADD MSTORE PUSH2 0x6365 PUSH1 0xF0 SHL PUSH1 0x64 DUP3 ADD MSTORE PUSH1 0x84 ADD PUSH2 0x629 JUMP JUMPDEST PUSH1 0x1 PUSH1 0x1 PUSH1 0xA0 SHL SUB DUP4 AND PUSH0 SWAP1 DUP2 MSTORE PUSH1 0x2 PUSH1 0x20 MSTORE PUSH1 0x40 DUP2 KECCAK256 DUP4 DUP4 SUB SWAP1 SSTORE PUSH1 0x4 DUP1 SLOAD DUP5 SWAP3 SWAP1 PUSH2 0x1485 SWAP1 DUP5 SWAP1 PUSH2 0x1E59 JUMP JUMPDEST SWAP1 SWAP2 SSTORE POP POP PUSH1 0x40 MLOAD DUP3 DUP2 MSTORE PUSH0 SWAP1 PUSH1 0x1 PUSH1 0x1 PUSH1 0xA0 SHL SUB DUP6 AND SWAP1 PUSH32 0xDDF252AD1BE2C89B69C2B068FC378DAA952BA7F163C4A11628F55A4DF523B3EF SWAP1 PUSH1 0x20 ADD PUSH1 0x40 MLOAD DUP1 SWAP2 SUB SWAP1 LOG3 POP POP POP JUMP JUMPDEST PUSH1 0x1 PUSH1 0x1 PUSH1 0xA0 SHL SUB DUP3 AND PUSH2 0x1525 JUMPI PUSH1 0x40 MLOAD PUSH3 0x461BCD PUSH1 0xE5 SHL DUP2 MSTORE PUSH1 0x20 PUSH1 0x4 DUP3 ADD MSTORE PUSH1 0x1F PUSH1 0x24 DUP3 ADD MSTORE PUSH32 0x45524332303A206D696E7420746F20746865207A65726F206164647265737300 PUSH1 0x44 DUP3 ADD MSTORE PUSH1 0x64 ADD PUSH2 0x629 JUMP JUMPDEST DUP1 PUSH1 0x4 PUSH0 DUP3 DUP3 SLOAD PUSH2 0x1536 SWAP2 SWAP1 PUSH2 0x1E46 JUMP JUMPDEST SWAP1 SWAP2 SSTORE POP POP PUSH1 0x1 PUSH1 0x1 PUSH1 0xA0 SHL SUB DUP3 AND PUSH0 SWAP1 DUP2 MSTORE PUSH1 0x2 PUSH1 0x20 MSTORE PUSH1 0x40 DUP2 KECCAK256 DUP1 SLOAD DUP4 SWAP3 SWAP1 PUSH2 0x1562 SWAP1 DUP5 SWAP1 PUSH2 0x1E46 JUMP JUMPDEST SWAP1 SWAP2 SSTORE POP POP PUSH1 0x40 MLOAD DUP2 DUP2 MSTORE PUSH1 0x1 PUSH1 0x1 PUSH1 0xA0 SHL SUB DUP4 AND SWAP1 PUSH0 SWAP1 PUSH32 0xDDF252AD1BE2C89B69C2B068FC378DAA952BA7F163C4A11628F55A4DF523B3EF SWAP1 PUSH1 0x20 ADD PUSH1 0x40 MLOAD DUP1 SWAP2 SUB SWAP1 LOG3 POP POP JUMP JUMPDEST PUSH0 DUP1 DUP1 SLOAD PUSH2 0x15B8 SWAP1 PUSH2 0x1E00 JUMP JUMPDEST DUP1 PUSH1 0x1F ADD PUSH1 0x20 DUP1 SWAP2 DIV MUL PUSH1 0x20 ADD PUSH1 0x40 MLOAD SWAP1 DUP2 ADD PUSH1 0x40 MSTORE DUP1 SWAP3 SWAP2 SWAP1 DUP2 DUP2 MSTORE PUSH1 0x20 ADD DUP3 DUP1 SLOAD PUSH2 0x15E4 SWAP1 PUSH2 0x1E00 JUMP JUMPDEST DUP1 ISZERO PUSH2 0x162F JUMPI DUP1 PUSH1 0x1F LT PUSH2 0x1606 JUMPI PUSH2 0x100 DUP1 DUP4 SLOAD DIV MUL DUP4 MSTORE SWAP2 PUSH1 0x20 ADD SWAP2 PUSH2 0x162F JUMP JUMPDEST DUP3 ADD SWAP2 SWAP1 PUSH0 MSTORE PUSH1 0x20 PUSH0 KECCAK256 SWAP1 JUMPDEST DUP2 SLOAD DUP2 MSTORE SWAP1 PUSH1 0x1 ADD SWAP1 PUSH1 0x20 ADD DUP1 DUP4 GT PUSH2 0x1612 JUMPI DUP3 SWAP1 SUB PUSH1 0x1F AND DUP3 ADD SWAP2 JUMPDEST POP POP POP POP POP SWAP1 POP DUP2 PUSH0 SWAP1 DUP2 PUSH2 0x1644 SWAP2 SWAP1 PUSH2 0x1F56 JUMP JUMPDEST POP PUSH32 0xC9C7C3FE08B88B4DF9D4D47EF47D2C43D55C025A0BA88CA442580ED9E7348A16 DUP2 DUP4 PUSH1 0x40 MLOAD PUSH2 0x1676 SWAP3 SWAP2 SWAP1 PUSH2 0x2016 JUMP JUMPDEST PUSH1 0x40 MLOAD DUP1 SWAP2 SUB SWAP1 LOG1 POP POP JUMP JUMPDEST PUSH1 0x60 PUSH2 0x16A7 DUP4 DUP4 PUSH1 0x40 MLOAD DUP1 PUSH1 0x60 ADD PUSH1 0x40 MSTORE DUP1 PUSH1 0x27 DUP2 MSTORE PUSH1 0x20 ADD PUSH2 0x205A PUSH1 0x27 SWAP2 CODECOPY PUSH2 0x16FD JUMP JUMPDEST SWAP4 SWAP3 POP POP POP JUMP JUMPDEST PUSH1 0x1 PUSH1 0x1 PUSH1 0xA0 SHL SUB DUP2 AND PUSH0 SWAP1 DUP2 MSTORE PUSH1 0x7 PUSH1 0x20 MSTORE PUSH1 0x40 SWAP1 KECCAK256 DUP1 SLOAD PUSH1 0x1 DUP2 ADD DUP3 SSTORE SWAP1 JUMPDEST POP SWAP2 SWAP1 POP JUMP JUMPDEST PUSH0 DUP1 PUSH0 PUSH2 0x16E4 DUP8 DUP8 DUP8 DUP8 PUSH2 0x1771 JUMP JUMPDEST SWAP2 POP SWAP2 POP PUSH2 0x16F1 DUP2 PUSH2 0x182E JUMP JUMPDEST POP SWAP1 POP JUMPDEST SWAP5 SWAP4 POP POP POP POP JUMP JUMPDEST PUSH1 0x60 PUSH0 DUP1 DUP6 PUSH1 0x1 PUSH1 0x1 PUSH1 0xA0 SHL SUB AND DUP6 PUSH1 0x40 MLOAD PUSH2 0x1719 SWAP2 SWAP1 PUSH2 0x2043 JUMP JUMPDEST PUSH0 PUSH1 0x40 MLOAD DUP1 DUP4 SUB DUP2 DUP6 GAS DELEGATECALL SWAP2 POP POP RETURNDATASIZE DUP1 PUSH0 DUP2 EQ PUSH2 0x1751 JUMPI PUSH1 0x40 MLOAD SWAP2 POP PUSH1 0x1F NOT PUSH1 0x3F RETURNDATASIZE ADD AND DUP3 ADD PUSH1 0x40 MSTORE RETURNDATASIZE DUP3 MSTORE RETURNDATASIZE PUSH0 PUSH1 0x20 DUP5 ADD RETURNDATACOPY PUSH2 0x1756 JUMP JUMPDEST PUSH1 0x60 SWAP2 POP JUMPDEST POP SWAP2 POP SWAP2 POP PUSH2 0x1767 DUP7 DUP4 DUP4 DUP8 PUSH2 0x1977 JUMP JUMPDEST SWAP7 SWAP6 POP POP POP POP POP POP JUMP JUMPDEST PUSH0 DUP1 PUSH32 0x7FFFFFFFFFFFFFFFFFFFFFFFFFFFFFFF5D576E7357A4501DDFE92F46681B20A0 DUP4 GT ISZERO PUSH2 0x17A6 JUMPI POP PUSH0 SWAP1 POP PUSH1 0x3 PUSH2 0x1825 JUMP JUMPDEST PUSH1 0x40 DUP1 MLOAD PUSH0 DUP1 DUP3 MSTORE PUSH1 0x20 DUP3 ADD DUP1 DUP5 MSTORE DUP10 SWAP1 MSTORE PUSH1 0xFF DUP9 AND SWAP3 DUP3 ADD SWAP3 SWAP1 SWAP3 MSTORE PUSH1 0x60 DUP2 ADD DUP7 SWAP1 MSTORE PUSH1 0x80 DUP2 ADD DUP6 SWAP1 MSTORE PUSH1 0x1 SWAP1 PUSH1 0xA0 ADD PUSH1 0x20 PUSH1 0x40 MLOAD PUSH1 0x20 DUP2 SUB SWAP1 DUP1 DUP5 SUB SWAP1 DUP6 GAS STATICCALL ISZERO DUP1 ISZERO PUSH2 0x17F7 JUMPI RETURNDATASIZE PUSH0 DUP1 RETURNDATACOPY RETURNDATASIZE PUSH0 REVERT JUMPDEST POP POP PUSH1 0x40 MLOAD PUSH1 0x1F NOT ADD MLOAD SWAP2 POP POP PUSH1 0x1 PUSH1 0x1 PUSH1 0xA0 SHL SUB DUP2 AND PUSH2 0x181F JUMPI PUSH0 PUSH1 0x1 SWAP3 POP SWAP3 POP POP PUSH2 0x1825 JUMP JUMPDEST SWAP2 POP PUSH0 SWAP1 POP JUMPDEST SWAP5 POP SWAP5 SWAP3 POP POP POP JUMP JUMPDEST PUSH0 DUP2 PUSH1 0x4 DUP2 GT ISZERO PUSH2 0x1841 JUMPI PUSH2 0x1841 PUSH2 0x1B20 JUMP JUMPDEST SUB PUSH2 0x1849 JUMPI POP JUMP JUMPDEST PUSH1 0x1 DUP2 PUSH1 0x4 DUP2 GT ISZERO PUSH2 0x185D JUMPI PUSH2 0x185D PUSH2 0x1B20 JUMP JUMPDEST SUB PUSH2 0x18AA JUMPI PUSH1 0x40 MLOAD PUSH3 0x461BCD PUSH1 0xE5 SHL DUP2 MSTORE PUSH1 0x20 PUSH1 0x4 DUP3 ADD MSTORE PUSH1 0x18 PUSH1 0x24 DUP3 ADD MSTORE PUSH32 0x45434453413A20696E76616C6964207369676E61747572650000000000000000 PUSH1 0x44 DUP3 ADD MSTORE PUSH1 0x64 ADD PUSH2 0x629 JUMP JUMPDEST PUSH1 0x2 DUP2 PUSH1 0x4 DUP2 GT ISZERO PUSH2 0x18BE JUMPI PUSH2 0x18BE PUSH2 0x1B20 JUMP JUMPDEST SUB PUSH2 0x190B JUMPI PUSH1 0x40 MLOAD PUSH3 0x461BCD PUSH1 0xE5 SHL DUP2 MSTORE PUSH1 0x20 PUSH1 0x4 DUP3 ADD MSTORE PUSH1 0x1F PUSH1 0x24 DUP3 ADD MSTORE PUSH32 0x45434453413A20696E76616C6964207369676E6174757265206C656E67746800 PUSH1 0x44 DUP3 ADD MSTORE PUSH1 0x64 ADD PUSH2 0x629 JUMP JUMPDEST PUSH1 0x3 DUP2 PUSH1 0x4 DUP2 GT ISZERO PUSH2 0x191F JUMPI PUSH2 0x191F PUSH2 0x1B20 JUMP JUMPDEST SUB PUSH2 0x4A4 JUMPI PUSH1 0x40 MLOAD PUSH3 0x461BCD PUSH1 0xE5 SHL DUP2 MSTORE PUSH1 0x20 PUSH1 0x4 DUP3 ADD MSTORE PUSH1 0x22 PUSH1 0x24 DUP3 ADD MSTORE PUSH32 0x45434453413A20696E76616C6964207369676E6174757265202773272076616C PUSH1 0x44 DUP3 ADD MSTORE PUSH2 0x7565 PUSH1 0xF0 SHL PUSH1 0x64 DUP3 ADD MSTORE PUSH1 0x84 ADD PUSH2 0x629 JUMP JUMPDEST PUSH1 0x60 DUP4 ISZERO PUSH2 0x19E5 JUMPI DUP3 MLOAD PUSH0 SUB PUSH2 0x19DE JUMPI PUSH1 0x1 PUSH1 0x1 PUSH1 0xA0 SHL SUB DUP6 AND EXTCODESIZE PUSH2 0x19DE JUMPI PUSH1 0x40 MLOAD PUSH3 0x461BCD PUSH1 0xE5 SHL DUP2 MSTORE PUSH1 0x20 PUSH1 0x4 DUP3 ADD MSTORE PUSH1 0x1D PUSH1 0x24 DUP3 ADD MSTORE PUSH32 0x416464726573733A2063616C6C20746F206E6F6E2D636F6E7472616374000000 PUSH1 0x44 DUP3 ADD MSTORE PUSH1 0x64 ADD PUSH2 0x629 JUMP JUMPDEST POP DUP2 PUSH2 0x16F5 JUMP JUMPDEST PUSH2 0x16F5 DUP4 DUP4 DUP2 MLOAD ISZERO PUSH2 0x19FA JUMPI DUP2 MLOAD DUP1 DUP4 PUSH1 0x20 ADD REVERT JUMPDEST DUP1 PUSH1 0x40 MLOAD PUSH3 0x461BCD PUSH1 0xE5 SHL DUP2 MSTORE PUSH1 0x4 ADD PUSH2 0x629 SWAP2 SWAP1 PUSH2 0x1A42 JUMP JUMPDEST PUSH0 DUP2 MLOAD DUP1 DUP5 MSTORE DUP1 PUSH1 0x20 DUP5 ADD PUSH1 0x20 DUP7 ADD MCOPY PUSH0 PUSH1 0x20 DUP3 DUP7 ADD ADD MSTORE PUSH1 0x20 PUSH1 0x1F NOT PUSH1 0x1F DUP4 ADD AND DUP6 ADD ADD SWAP2 POP POP SWAP3 SWAP2 POP POP JUMP JUMPDEST PUSH1 0x20 DUP2 MSTORE PUSH0 PUSH2 0x16A7 PUSH1 0x20 DUP4 ADD DUP5 PUSH2 0x1A14 JUMP JUMPDEST DUP1 CALLDATALOAD PUSH1 0x1 PUSH1 0x1 PUSH1 0xA0 SHL SUB DUP2 AND DUP2 EQ PUSH2 0x1A6A JUMPI PUSH0 DUP1 REVERT JUMPDEST SWAP2 SWAP1 POP JUMP JUMPDEST PUSH0 DUP1 PUSH1 0x40 DUP4 DUP6 SUB SLT ISZERO PUSH2 0x1A80 JUMPI PUSH0 DUP1 REVERT JUMPDEST PUSH2 0x1A89 DUP4 PUSH2 0x1A54 JUMP JUMPDEST SWAP5 PUSH1 0x20 SWAP4 SWAP1 SWAP4 ADD CALLDATALOAD SWAP4 POP POP POP JUMP JUMPDEST PUSH0 PUSH1 0x20 DUP3 DUP5 SUB SLT ISZERO PUSH2 0x1AA7 JUMPI PUSH0 DUP1 REVERT JUMPDEST PUSH2 0x16A7 DUP3 PUSH2 0x1A54 JUMP JUMPDEST PUSH0 DUP1 PUSH0 PUSH1 0x60 DUP5 DUP7 SUB SLT ISZERO PUSH2 0x1AC2 JUMPI PUSH0 DUP1 REVERT JUMPDEST PUSH2 0x1ACB DUP5 PUSH2 0x1A54 JUMP JUMPDEST SWAP3 POP PUSH2 0x1AD9 PUSH1 0x20 DUP6 ADD PUSH2 0x1A54 JUMP JUMPDEST SWAP2 POP PUSH1 0x40 DUP5 ADD CALLDATALOAD SWAP1 POP SWAP3 POP SWAP3 POP SWAP3 JUMP JUMPDEST PUSH0 PUSH1 0x20 DUP3 DUP5 SUB SLT ISZERO PUSH2 0x1AF9 JUMPI PUSH0 DUP1 REVERT JUMPDEST POP CALLDATALOAD SWAP2 SWAP1 POP JUMP JUMPDEST PUSH0 DUP1 PUSH1 0x40 DUP4 DUP6 SUB SLT ISZERO PUSH2 0x1B11 JUMPI PUSH0 DUP1 REVERT JUMPDEST POP POP DUP1 CALLDATALOAD SWAP3 PUSH1 0x20 SWAP1 SWAP2 ADD CALLDATALOAD SWAP2 POP JUMP JUMPDEST PUSH4 0x4E487B71 PUSH1 0xE0 SHL PUSH0 MSTORE PUSH1 0x21 PUSH1 0x4 MSTORE PUSH1 0x24 PUSH0 REVERT JUMPDEST PUSH1 0x2 DUP2 LT PUSH2 0x1B50 JUMPI PUSH4 0x4E487B71 PUSH1 0xE0 SHL PUSH0 MSTORE PUSH1 0x21 PUSH1 0x4 MSTORE PUSH1 0x24 PUSH0 REVERT JUMPDEST SWAP1 MSTORE JUMP JUMPDEST PUSH1 0x1 PUSH1 0x1 PUSH1 0xA0 SHL SUB DUP6 AND DUP2 MSTORE PUSH1 0x80 DUP2 ADD PUSH2 0x1B71 PUSH1 0x20 DUP4 ADD DUP7 PUSH2 0x1B34 JUMP JUMPDEST PUSH1 0x40 DUP3 ADD SWAP4 SWAP1 SWAP4 MSTORE PUSH1 0x60 ADD MSTORE SWAP3 SWAP2 POP POP JUMP JUMPDEST PUSH4 0x4E487B71 PUSH1 0xE0 SHL PUSH0 MSTORE PUSH1 0x41 PUSH1 0x4 MSTORE PUSH1 0x24 PUSH0 REVERT JUMPDEST PUSH0 PUSH1 0x20 DUP3 DUP5 SUB SLT ISZERO PUSH2 0x1BA7 JUMPI PUSH0 DUP1 REVERT JUMPDEST DUP2 CALLDATALOAD PUSH8 0xFFFFFFFFFFFFFFFF DUP1 DUP3 GT ISZERO PUSH2 0x1BBE JUMPI PUSH0 DUP1 REVERT JUMPDEST DUP2 DUP5 ADD SWAP2 POP DUP5 PUSH1 0x1F DUP4 ADD SLT PUSH2 0x1BD1 JUMPI PUSH0 DUP1 REVERT JUMPDEST DUP2 CALLDATALOAD DUP2 DUP2 GT ISZERO PUSH2 0x1BE3 JUMPI PUSH2 0x1BE3 PUSH2 0x1B83 JUMP JUMPDEST PUSH1 0x40 MLOAD PUSH1 0x1F DUP3 ADD PUSH1 0x1F NOT SWAP1 DUP2 AND PUSH1 0x3F ADD AND DUP2 ADD SWAP1 DUP4 DUP3 GT DUP2 DUP4 LT OR ISZERO PUSH2 0x1C0B JUMPI PUSH2 0x1C0B PUSH2 0x1B83 JUMP JUMPDEST DUP2 PUSH1 0x40 MSTORE DUP3 DUP2 MSTORE DUP8 PUSH1 0x20 DUP5 DUP8 ADD ADD GT ISZERO PUSH2 0x1C23 JUMPI PUSH0 DUP1 REVERT JUMPDEST DUP3 PUSH1 0x20 DUP7 ADD PUSH1 0x20 DUP4 ADD CALLDATACOPY PUSH0 SWAP3 DUP2 ADD PUSH1 0x20 ADD SWAP3 SWAP1 SWAP3 MSTORE POP SWAP6 SWAP5 POP POP POP POP POP JUMP JUMPDEST PUSH0 DUP1 PUSH1 0x20 DUP4 DUP6 SUB SLT ISZERO PUSH2 0x1C53 JUMPI PUSH0 DUP1 REVERT JUMPDEST DUP3 CALLDATALOAD PUSH8 0xFFFFFFFFFFFFFFFF DUP1 DUP3 GT ISZERO PUSH2 0x1C6A JUMPI PUSH0 DUP1 REVERT JUMPDEST DUP2 DUP6 ADD SWAP2 POP DUP6 PUSH1 0x1F DUP4 ADD SLT PUSH2 0x1C7D JUMPI PUSH0 DUP1 REVERT JUMPDEST DUP2 CALLDATALOAD DUP2 DUP2 GT ISZERO PUSH2 0x1C8B JUMPI PUSH0 DUP1 REVERT JUMPDEST DUP7 PUSH1 0x20 DUP3 PUSH1 0x5 SHL DUP6 ADD ADD GT ISZERO PUSH2 0x1C9F JUMPI PUSH0 DUP1 REVERT JUMPDEST PUSH1 0x20 SWAP3 SWAP1 SWAP3 ADD SWAP7 SWAP2 SWAP6 POP SWAP1 SWAP4 POP POP POP POP JUMP JUMPDEST PUSH0 PUSH1 0x20 DUP1 DUP4 ADD PUSH1 0x20 DUP5 MSTORE DUP1 DUP6 MLOAD DUP1 DUP4 MSTORE PUSH1 0x40 DUP7 ADD SWAP2 POP PUSH1 0x40 DUP2 PUSH1 0x5 SHL DUP8 ADD ADD SWAP3 POP PUSH1 0x20 DUP8 ADD PUSH0 JUMPDEST DUP3 DUP2 LT ISZERO PUSH2 0x1D06 JUMPI PUSH1 0x3F NOT DUP9 DUP7 SUB ADD DUP5 MSTORE PUSH2 0x1CF4 DUP6 DUP4 MLOAD PUSH2 0x1A14 JUMP JUMPDEST SWAP5 POP SWAP3 DUP6 ADD SWAP3 SWAP1 DUP6 ADD SWAP1 PUSH1 0x1 ADD PUSH2 0x1CD8 JUMP JUMPDEST POP SWAP3 SWAP8 SWAP7 POP POP POP POP POP POP POP JUMP JUMPDEST PUSH0 DUP1 PUSH0 DUP1 PUSH0 DUP1 PUSH0 PUSH1 0xE0 DUP9 DUP11 SUB SLT ISZERO PUSH2 0x1D29 JUMPI PUSH0 DUP1 REVERT JUMPDEST PUSH2 0x1D32 DUP9 PUSH2 0x1A54 JUMP JUMPDEST SWAP7 POP PUSH2 0x1D40 PUSH1 0x20 DUP10 ADD PUSH2 0x1A54 JUMP JUMPDEST SWAP6 POP PUSH1 0x40 DUP9 ADD CALLDATALOAD SWAP5 POP PUSH1 0x60 DUP9 ADD CALLDATALOAD SWAP4 POP PUSH1 0x80 DUP9 ADD CALLDATALOAD PUSH1 0xFF DUP2 AND DUP2 EQ PUSH2 0x1D63 JUMPI PUSH0 DUP1 REVERT JUMPDEST SWAP7 SWAP10 SWAP6 SWAP9 POP SWAP4 SWAP7 SWAP3 SWAP6 SWAP5 PUSH1 0xA0 DUP5 ADD CALLDATALOAD SWAP5 POP PUSH1 0xC0 SWAP1 SWAP4 ADD CALLDATALOAD SWAP3 SWAP2 POP POP JUMP JUMPDEST PUSH0 DUP1 PUSH0 DUP1 PUSH0 PUSH1 0xA0 DUP7 DUP9 SUB SLT ISZERO PUSH2 0x1D94 JUMPI PUSH0 DUP1 REVERT JUMPDEST PUSH2 0x1D9D DUP7 PUSH2 0x1A54 JUMP JUMPDEST SWAP5 POP PUSH1 0x20 DUP7 ADD CALLDATALOAD SWAP4 POP PUSH1 0x40 DUP7 ADD CALLDATALOAD SWAP3 POP PUSH1 0x60 DUP7 ADD CALLDATALOAD PUSH1 0x2 DUP2 LT PUSH2 0x1DBE JUMPI PUSH0 DUP1 REVERT JUMPDEST SWAP5 SWAP8 SWAP4 SWAP7 POP SWAP2 SWAP5 PUSH1 0x80 ADD CALLDATALOAD SWAP3 SWAP2 POP POP JUMP JUMPDEST PUSH0 DUP1 PUSH1 0x40 DUP4 DUP6 SUB SLT ISZERO PUSH2 0x1DE0 JUMPI PUSH0 DUP1 REVERT JUMPDEST PUSH2 0x1DE9 DUP4 PUSH2 0x1A54 JUMP JUMPDEST SWAP2 POP PUSH2 0x1DF7 PUSH1 0x20 DUP5 ADD PUSH2 0x1A54 JUMP JUMPDEST SWAP1 POP SWAP3 POP SWAP3 SWAP1 POP JUMP JUMPDEST PUSH1 0x1 DUP2 DUP2 SHR SWAP1 DUP3 AND DUP1 PUSH2 0x1E14 JUMPI PUSH1 0x7F DUP3 AND SWAP2 POP JUMPDEST PUSH1 0x20 DUP3 LT DUP2 SUB PUSH2 0x16CF JUMPI PUSH4 0x4E487B71 PUSH1 0xE0 SHL PUSH0 MSTORE PUSH1 0x22 PUSH1 0x4 MSTORE PUSH1 0x24 PUSH0 REVERT JUMPDEST PUSH4 0x4E487B71 PUSH1 0xE0 SHL PUSH0 MSTORE PUSH1 0x11 PUSH1 0x4 MSTORE PUSH1 0x24 PUSH0 REVERT JUMPDEST DUP1 DUP3 ADD DUP1 DUP3 GT ISZERO PUSH2 0x470 JUMPI PUSH2 0x470 PUSH2 0x1E32 JUMP JUMPDEST DUP2 DUP2 SUB DUP2 DUP2 GT ISZERO PUSH2 0x470 JUMPI PUSH2 0x470 PUSH2 0x1E32 JUMP JUMPDEST PUSH4 0x4E487B71 PUSH1 0xE0 SHL PUSH0 MSTORE PUSH1 0x32 PUSH1 0x4 MSTORE PUSH1 0x24 PUSH0 REVERT JUMPDEST PUSH0 DUP1 DUP4 CALLDATALOAD PUSH1 0x1E NOT DUP5 CALLDATASIZE SUB ADD DUP2 SLT PUSH2 0x1E95 JUMPI PUSH0 DUP1 REVERT JUMPDEST DUP4 ADD DUP1 CALLDATALOAD SWAP2 POP PUSH8 0xFFFFFFFFFFFFFFFF DUP3 GT ISZERO PUSH2 0x1EAF JUMPI PUSH0 DUP1 REVERT JUMPDEST PUSH1 0x20 ADD SWAP2 POP CALLDATASIZE DUP2 SWAP1 SUB DUP3 SGT ISZERO PUSH2 0x1EC3 JUMPI PUSH0 DUP1 REVERT JUMPDEST SWAP3 POP SWAP3 SWAP1 POP JUMP JUMPDEST DUP3 DUP5 DUP3 CALLDATACOPY PUSH1 0x60 SWAP2 SWAP1 SWAP2 SHL PUSH12 0xFFFFFFFFFFFFFFFFFFFFFFFF NOT AND SWAP2 ADD SWAP1 DUP2 MSTORE PUSH1 0x14 ADD SWAP2 SWAP1 POP JUMP JUMPDEST PUSH1 0x40 DUP2 ADD PUSH2 0x1EFE DUP3 DUP6 PUSH2 0x1B34 JUMP JUMPDEST DUP3 PUSH1 0x20 DUP4 ADD MSTORE SWAP4 SWAP3 POP POP POP JUMP JUMPDEST PUSH1 0x1F DUP3 GT ISZERO PUSH2 0x7F1 JUMPI DUP1 PUSH0 MSTORE PUSH1 0x20 PUSH0 KECCAK256 PUSH1 0x1F DUP5 ADD PUSH1 0x5 SHR DUP2 ADD PUSH1 0x20 DUP6 LT ISZERO PUSH2 0x1F30 JUMPI POP DUP1 JUMPDEST PUSH1 0x1F DUP5 ADD PUSH1 0x5 SHR DUP3 ADD SWAP2 POP JUMPDEST DUP2 DUP2 LT ISZERO PUSH2 0x1F4F JUMPI PUSH0 DUP2 SSTORE PUSH1 0x1 ADD PUSH2 0x1F3C JUMP JUMPDEST POP POP POP POP POP JUMP JUMPDEST DUP2 MLOAD PUSH8 0xFFFFFFFFFFFFFFFF DUP2 GT ISZERO PUSH2 0x1F70 JUMPI PUSH2 0x1F70 PUSH2 0x1B83 JUMP JUMPDEST PUSH2 0x1F84 DUP2 PUSH2 0x1F7E DUP5 SLOAD PUSH2 0x1E00 JUMP JUMPDEST DUP5 PUSH2 0x1F0B JUMP JUMPDEST PUSH1 0x20 DUP1 PUSH1 0x1F DUP4 GT PUSH1 0x1 DUP2 EQ PUSH2 0x1FB7 JUMPI PUSH0 DUP5 ISZERO PUSH2 0x1FA0 JUMPI POP DUP6 DUP4 ADD MLOAD JUMPDEST PUSH0 NOT PUSH1 0x3 DUP7 SWAP1 SHL SHR NOT AND PUSH1 0x1 DUP6 SWAP1 SHL OR DUP6 SSTORE PUSH2 0x200E JUMP JUMPDEST PUSH0 DUP6 DUP2 MSTORE PUSH1 0x20 DUP2 KECCAK256 PUSH1 0x1F NOT DUP7 AND SWAP2 JUMPDEST DUP3 DUP2 LT ISZERO PUSH2 0x1FE5 JUMPI DUP9 DUP7 ADD MLOAD DUP3 SSTORE SWAP5 DUP5 ADD SWAP5 PUSH1 0x1 SWAP1 SWAP2 ADD SWAP1 DUP5 ADD PUSH2 0x1FC6 JUMP JUMPDEST POP DUP6 DUP3 LT ISZERO PUSH2 0x2002 JUMPI DUP8 DUP6 ADD MLOAD PUSH0 NOT PUSH1 0x3 DUP9 SWAP1 SHL PUSH1 0xF8 AND SHR NOT AND DUP2 SSTORE JUMPDEST POP POP PUSH1 0x1 DUP5 PUSH1 0x1 SHL ADD DUP6 SSTORE JUMPDEST POP POP POP POP POP POP JUMP JUMPDEST PUSH1 0x40 DUP2 MSTORE PUSH0 PUSH2 0x2028 PUSH1 0x40 DUP4 ADD DUP6 PUSH2 0x1A14 JUMP JUMPDEST DUP3 DUP2 SUB PUSH1 0x20 DUP5 ADD MSTORE PUSH2 0x203A DUP2 DUP6 PUSH2 0x1A14 JUMP JUMPDEST SWAP6 SWAP5 POP POP POP POP POP JUMP JUMPDEST PUSH0 DUP3 MLOAD DUP1 PUSH1 0x20 DUP6 ADD DUP5 MCOPY PUSH0 SWAP3 ADD SWAP2 DUP3 MSTORE POP SWAP2 SWAP1 POP JUMP INVALID COINBASE PUSH5 0x6472657373 GASPRICE KECCAK256 PUSH13 0x6F772D6C6576656C2064656C65 PUSH8 0x6174652063616C6C KECCAK256 PUSH7 0x61696C6564A264 PUSH10 0x70667358221220490663 0xBD ADDRESS 0xF 0xA8 0xD3 TIMESTAMP PUSH28 0x4AD87A7D57E86B9AAD465B3520E5931C305233372B9864736F6C6343 STOP ADDMOD NOT STOP CALLER "
    },
    "gasEstimates": {
      "creation": {
        "codeDepositCost": "1674800",
        "executionCost": "infinite",
        "totalCost": "infinite"
      },
      "external": {
        "DOMAIN_SEPARATOR()": "infinite",
        "TOTAL_SUPPLY()": "239",
        "allocateContribution(address,uint256,bytes32,uint8,uint256)": "177352",
        "allowance(address,address)": "infinite",
        "approve(address,uint256)": "24670",
        "balanceOf(address)": "2601",
        "burn(uint256)": "52367",
        "burnFrom(address,uint256)": "infinite",
        "contractURI()": "infinite",
        "decimals()": "266",
        "decreaseAllowance(address,uint256)": "26941",
        "increaseAllowance(address,uint256)": "infinite",
        "mintTo(address,uint256)": "infinite",
        "multicall(bytes[])": "infinite",
        "name()": "infinite",
        "nonces(address)": "2636",
        "owner()": "2390",
        "permit(address,address,uint256,uint256,uint8,bytes32,bytes32)": "infinite",
        "projectContributions(bytes32,uint256)": "9197",
        "setContractURI(string)": "infinite",
        "setOwner(address)": "28438",
        "symbol()": "infinite",
        "totalSupply()": "2326",
        "transfer(address,uint256)": "infinite",
        "transferFrom(address,address,uint256)": "infinite"
      }
    },
    "methodIdentifiers": {
      "DOMAIN_SEPARATOR()": "3644e515",
      "TOTAL_SUPPLY()": "902d55a5",
      "allocateContribution(address,uint256,bytes32,uint8,uint256)": "d9cdee0d",
      "allowance(address,address)": "dd62ed3e",
      "approve(address,uint256)": "095ea7b3",
      "balanceOf(address)": "70a08231",
      "burn(uint256)": "42966c68",
      "burnFrom(address,uint256)": "79cc6790",
      "contractURI()": "e8a3d485",
      "decimals()": "313ce567",
      "decreaseAllowance(address,uint256)": "a457c2d7",
      "increaseAllowance(address,uint256)": "39509351",
      "mintTo(address,uint256)": "449a52f8",
      "multicall(bytes[])": "ac9650d8",
      "name()": "06fdde03",
      "nonces(address)": "7ecebe00",
      "owner()": "8da5cb5b",
      "permit(address,address,uint256,uint256,uint8,bytes32,bytes32)": "d505accf",
      "projectContributions(bytes32,uint256)": "7261fa29",
      "setContractURI(string)": "938e3d7b",
      "setOwner(address)": "13af4035",
      "symbol()": "95d89b41",
      "totalSupply()": "18160ddd",
      "transfer(address,uint256)": "a9059cbb",
      "transferFrom(address,address,uint256)": "23b872dd"
    }
  },
  "storageLayout": {
    "storage": [
      {
        "astId": 1982,
        "contract": "mojo.sol:Mojo",
        "label": "contractURI",
        "offset": 0,
        "slot": "0",
        "type": "t_string_storage"
      },
      {
        "astId": 2144,
        "contract": "mojo.sol:Mojo",
        "label": "_owner",
        "offset": 0,
        "slot": "1",
        "type": "t_address"
      },
      {
        "astId": 6289,
        "contract": "mojo.sol:Mojo",
        "label": "_balances",
        "offset": 0,
        "slot": "2",
        "type": "t_mapping(t_address,t_uint256)"
      },
      {
        "astId": 6295,
        "contract": "mojo.sol:Mojo",
        "label": "_allowances",
        "offset": 0,
        "slot": "3",
        "type": "t_mapping(t_address,t_mapping(t_address,t_uint256))"
      },
      {
        "astId": 6297,
        "contract": "mojo.sol:Mojo",
        "label": "_totalSupply",
        "offset": 0,
        "slot": "4",
        "type": "t_uint256"
      },
      {
        "astId": 6299,
        "contract": "mojo.sol:Mojo",
        "label": "_name",
        "offset": 0,
        "slot": "5",
        "type": "t_string_storage"
      },
      {
        "astId": 6301,
        "contract": "mojo.sol:Mojo",
        "label": "_symbol",
        "offset": 0,
        "slot": "6",
        "type": "t_string_storage"
      },
      {
        "astId": 3154,
        "contract": "mojo.sol:Mojo",
        "label": "_nonces",
        "offset": 0,
        "slot": "7",
        "type": "t_mapping(t_address,t_struct(Counter)6867_storage)"
      },
      {
        "astId": 256,
        "contract": "mojo.sol:Mojo",
        "label": "projectContributions",
        "offset": 0,
        "slot": "8",
        "type": "t_mapping(t_bytes32,t_array(t_struct(Contribution)250_storage)dyn_storage)"
      }
    ],
    "types": {
      "t_address": {
        "encoding": "inplace",
        "label": "address",
        "numberOfBytes": "20"
      },
      "t_array(t_struct(Contribution)250_storage)dyn_storage": {
        "base": "t_struct(Contribution)250_storage",
        "encoding": "dynamic_array",
        "label": "struct Mojo.Contribution[]",
        "numberOfBytes": "32"
      },
      "t_bytes32": {
        "encoding": "inplace",
        "label": "bytes32",
        "numberOfBytes": "32"
      },
      "t_enum(Role)240": {
        "encoding": "inplace",
        "label": "enum Mojo.Role",
        "numberOfBytes": "1"
      },
      "t_mapping(t_address,t_mapping(t_address,t_uint256))": {
        "encoding": "mapping",
        "key": "t_address",
        "label": "mapping(address => mapping(address => uint256))",
        "numberOfBytes": "32",
        "value": "t_mapping(t_address,t_uint256)"
      },
      "t_mapping(t_address,t_struct(Counter)6867_storage)": {
        "encoding": "mapping",
        "key": "t_address",
        "label": "mapping(address => struct Counters.Counter)",
        "numberOfBytes": "32",
        "value": "t_struct(Counter)6867_storage"
      },
      "t_mapping(t_address,t_uint256)": {
        "encoding": "mapping",
        "key": "t_address",
        "label": "mapping(address => uint256)",
        "numberOfBytes": "32",
        "value": "t_uint256"
      },
      "t_mapping(t_bytes32,t_array(t_struct(Contribution)250_storage)dyn_storage)": {
        "encoding": "mapping",
        "key": "t_bytes32",
        "label": "mapping(bytes32 => struct Mojo.Contribution[])",
        "numberOfBytes": "32",
        "value": "t_array(t_struct(Contribution)250_storage)dyn_storage"
      },
      "t_string_storage": {
        "encoding": "bytes",
        "label": "string",
        "numberOfBytes": "32"
      },
      "t_struct(Contribution)250_storage": {
        "encoding": "inplace",
        "label": "struct Mojo.Contribution",
        "members": [
          {
            "astId": 242,
            "contract": "mojo.sol:Mojo",
            "label": "contributor",
            "offset": 0,
            "slot": "0",
            "type": "t_address"
          },
          {
            "astId": 245,
            "contract": "mojo.sol:Mojo",
            "label": "role",
            "offset": 20,
            "slot": "0",
            "type": "t_enum(Role)240"
          },
          {
            "astId": 247,
            "contract": "mojo.sol:Mojo",
            "label": "percentage",
            "offset": 0,
            "slot": "1",
            "type": "t_uint256"
          },
          {
            "astId": 249,
            "contract": "mojo.sol:Mojo",
            "label": "timestamp",
            "offset": 0,
            "slot": "2",
            "type": "t_uint256"
          }
        ],
        "numberOfBytes": "96"
      },
      "t_struct(Counter)6867_storage": {
        "encoding": "inplace",
        "label": "struct Counters.Counter",
        "members": [
          {
            "astId": 6866,
            "contract": "mojo.sol:Mojo",
            "label": "_value",
            "offset": 0,
            "slot": "0",
            "type": "t_uint256"
          }
        ],
        "numberOfBytes": "32"
      },
      "t_uint256": {
        "encoding": "inplace",
        "label": "uint256",
        "numberOfBytes": "32"
      }
    }
  },
  "userdoc": {
    "kind": "user",
    "methods": {
      "allocateContribution(address,uint256,bytes32,uint8,uint256)": {
        "notice": "Allocates tokens from the treasury to a contributor and records their contribution."
      },
      "burn(uint256)": {
        "notice": "Allows token holders to burn their tokens."
      },
      "burnFrom(address,uint256)": {
        "notice": "Lets an owner burn a given amount of an account's tokens."
      },
      "contractURI()": {
        "notice": "Returns the contract metadata URI."
      },
      "mintTo(address,uint256)": {
        "notice": "Lets an authorized address mint tokens to a recipient."
      },
      "multicall(bytes[])": {
        "notice": "Receives and executes a batch of function calls on this contract."
      },
      "owner()": {
        "notice": "Returns the owner of the contract."
      },
      "setContractURI(string)": {
        "notice": "Lets a contract admin set the URI for contract-level metadata."
      },
      "setOwner(address)": {
        "notice": "Lets an authorized wallet set a new owner for the contract."
      }
    },
    "version": 1
  }
}