{
  "abi": [
    {
      "inputs": [
        {
          "internalType": "address",
          "name": "_mojoToken",
          "type": "address"
        }
      ],
      "stateMutability": "nonpayable",
      "type": "constructor"
    },
    {
      "anonymous": false,
      "inputs": [
        {
          "indexed": true,
          "internalType": "address",
          "name": "user",
          "type": "address"
        },
        {
          "indexed": false,
          "internalType": "uint256",
          "name": "pjkAmount",
          "type": "uint256"
        },
        {
          "indexed": false,
          "internalType": "uint256",
          "name": "mojoAmount",
          "type": "uint256"
        }
      ],
      "name": "SwapCompleted",
      "type": "event"
    },
    {
      "anonymous": false,
      "inputs": [
        {
          "indexed": true,
          "internalType": "address",
          "name": "user",
          "type": "address"
        },
        {
          "indexed": false,
          "internalType": "uint256",
          "name": "pjkAmount",
          "type": "uint256"
        }
      ],
      "name": "SwapRequested",
      "type": "event"
    },
    {
      "inputs": [
        {
          "internalType": "address",
          "name": "user",
          "type": "address"
        },
        {
          "internalType": "uint256",
          "name": "pjkAmount",
          "type": "uint256"
        }
      ],
      "name": "completeSwap",
      "outputs": [],
      "stateMutability": "nonpayable",
      "type": "function"
    },
    {
      "inputs": [],
      "name": "mojoToken",
      "outputs": [
        {
          "internalType": "contract Mojo",
          "name": "",
          "type": "address"
        }
      ],
      "stateMutability": "view",
      "type": "function"
    },
    {
      "inputs": [],
      "name": "owner",
      "outputs": [
        {
          "internalType": "address",
          "name": "",
          "type": "address"
        }
      ],
      "stateMutability": "view",
      "type": "function"
    },
    {
      "inputs": [
        {
          "internalType": "address",
          "name": "",
          "type": "address"
        }
      ],
      "name": "pendingSwaps",
      "outputs": [
        {
          "internalType": "uint256",
          "name": "",
          "type": "uint256"
        }
      ],
      "stateMutability": "view",
      "type": "function"
    },
    {
      "inputs": [
        {
          "internalType": "uint256",
          "name": "pjkAmount",
          "type": "uint256"
        }
      ],
      "name": "requestSwap",
      "outputs": [],
      "stateMutability": "nonpayable",
      "type": "function"
    }
  ],
  "devdoc": {
    "kind": "dev",
    "methods": {
      "requestSwap(uint256)": {
        "params": {
          "pjkAmount": "Amount burned, verified off-chain or via bridge."
        }
      }
    },
    "title": "MojoSwap",
    "version": 1
  },
  "evm": {
    "assembly": "    /* \"mojoswap.sol\":183:1513  contract MojoSwap {... */\n  mstore(0x40, 0x80)\n    /* \"mojoswap.sol\":552:657  constructor(address _mojoToken) {... */\n  callvalue\n  dup1\n  iszero\n  tag_1\n  jumpi\n  0x00\n  dup1\n  revert\ntag_1:\n  pop\n  mload(0x40)\n  sub(codesize, bytecodeSize)\n  dup1\n  bytecodeSize\n  dup4\n  codecopy\n  dup2\n  add\n  0x40\n  dup2\n  swap1\n  mstore\n  tag_2\n  swap2\n  tag_3\n  jump\t// in\ntag_2:\n    /* \"mojoswap.sol\":594:603  mojoToken */\n  0x00\n    /* \"mojoswap.sol\":594:622  mojoToken = Mojo(_mojoToken) */\n  dup1\n  sload\n  sub(shl(0xa0, 0x01), 0x01)\n  swap1\n  swap3\n  and\n  not(sub(shl(0xa0, 0x01), 0x01))\n  swap3\n  dup4\n  and\n  or\n  swap1\n  sstore\n  0x01\n    /* \"mojoswap.sol\":632:650  owner = msg.sender */\n  dup1\n  sload\n  swap1\n  swap2\n  and\n    /* \"mojoswap.sol\":640:650  msg.sender */\n  caller\n    /* \"mojoswap.sol\":632:650  owner = msg.sender */\n  or\n  swap1\n  sstore\n    /* \"mojoswap.sol\":183:1513  contract MojoSwap {... */\n  jump(tag_7)\n    /* \"#utility.yul\":14:304   */\ntag_3:\n    /* \"#utility.yul\":84:90   */\n  0x00\n    /* \"#utility.yul\":137:139   */\n  0x20\n    /* \"#utility.yul\":125:134   */\n  dup3\n    /* \"#utility.yul\":116:123   */\n  dup5\n    /* \"#utility.yul\":112:135   */\n  sub\n    /* \"#utility.yul\":108:140   */\n  slt\n    /* \"#utility.yul\":105:157   */\n  iszero\n  tag_9\n  jumpi\n    /* \"#utility.yul\":153:154   */\n  0x00\n    /* \"#utility.yul\":150:151   */\n  dup1\n    /* \"#utility.yul\":143:155   */\n  revert\n    /* \"#utility.yul\":105:157   */\ntag_9:\n    /* \"#utility.yul\":179:195   */\n  dup2\n  mload\n  sub(shl(0xa0, 0x01), 0x01)\n    /* \"#utility.yul\":224:255   */\n  dup2\n  and\n    /* \"#utility.yul\":214:256   */\n  dup2\n  eq\n    /* \"#utility.yul\":204:274   */\n  tag_10\n  jumpi\n    /* \"#utility.yul\":270:271   */\n  0x00\n    /* \"#utility.yul\":267:268   */\n  dup1\n    /* \"#utility.yul\":260:272   */\n  revert\n    /* \"#utility.yul\":204:274   */\ntag_10:\n    /* \"#utility.yul\":293:298   */\n  swap4\n    /* \"#utility.yul\":14:304   */\n  swap3\n  pop\n  pop\n  pop\n  jump\t// out\ntag_7:\n    /* \"mojoswap.sol\":183:1513  contract MojoSwap {... */\n  dataSize(sub_0)\n  dup1\n  dataOffset(sub_0)\n  0x00\n  codecopy\n  0x00\n  return\nstop\n\nsub_0: assembly {\n        /* \"mojoswap.sol\":183:1513  contract MojoSwap {... */\n      mstore(0x40, 0x80)\n      callvalue\n      dup1\n      iszero\n      tag_1\n      jumpi\n      0x00\n      dup1\n      revert\n    tag_1:\n      pop\n      jumpi(tag_2, lt(calldatasize, 0x04))\n      shr(0xe0, calldataload(0x00))\n      dup1\n      0x8da5cb5b\n      gt\n      tag_8\n      jumpi\n      dup1\n      0x8da5cb5b\n      eq\n      tag_5\n      jumpi\n      dup1\n      0xd2174a6e\n      eq\n      tag_6\n      jumpi\n      dup1\n      0xd56fb4a9\n      eq\n      tag_7\n      jumpi\n      0x00\n      dup1\n      revert\n    tag_8:\n      dup1\n      0x2217d483\n      eq\n      tag_3\n      jumpi\n      dup1\n      0x466ad01c\n      eq\n      tag_4\n      jumpi\n    tag_2:\n      0x00\n      dup1\n      revert\n        /* \"mojoswap.sol\":819:973  function requestSwap(uint256 pjkAmount) external {... */\n    tag_3:\n      tag_9\n      tag_10\n      calldatasize\n      0x04\n      tag_11\n      jump\t// in\n    tag_10:\n      tag_12\n      jump\t// in\n    tag_9:\n      stop\n        /* \"mojoswap.sol\":1084:1415  function completeSwap(address user, uint256 pjkAmount) external onlyOwner {... */\n    tag_4:\n      tag_9\n      tag_14\n      calldatasize\n      0x04\n      tag_15\n      jump\t// in\n    tag_14:\n      tag_16\n      jump\t// in\n        /* \"mojoswap.sol\":234:254  address public owner */\n    tag_5:\n      sload(0x01)\n      tag_17\n      swap1\n      sub(shl(0xa0, 0x01), 0x01)\n      and\n      dup2\n      jump\n    tag_17:\n      mload(0x40)\n      sub(shl(0xa0, 0x01), 0x01)\n        /* \"#utility.yul\":823:878   */\n      swap1\n      swap2\n      and\n        /* \"#utility.yul\":805:879   */\n      dup2\n      mstore\n        /* \"#utility.yul\":793:795   */\n      0x20\n        /* \"#utility.yul\":778:796   */\n      add\n        /* \"mojoswap.sol\":234:254  address public owner */\n    tag_19:\n      mload(0x40)\n      dup1\n      swap2\n      sub\n      swap1\n      return\n        /* \"mojoswap.sol\":345:392  mapping(address => uint256) public pendingSwaps */\n    tag_6:\n      tag_21\n      tag_22\n      calldatasize\n      0x04\n      tag_23\n      jump\t// in\n    tag_22:\n      mstore(0x20, 0x02)\n      0x00\n      swap1\n      dup2\n      mstore\n      0x40\n      swap1\n      keccak256\n      sload\n      dup2\n      jump\n    tag_21:\n      mload(0x40)\n        /* \"#utility.yul\":1227:1252   */\n      swap1\n      dup2\n      mstore\n        /* \"#utility.yul\":1215:1217   */\n      0x20\n        /* \"#utility.yul\":1200:1218   */\n      add\n        /* \"mojoswap.sol\":345:392  mapping(address => uint256) public pendingSwaps */\n      tag_19\n        /* \"#utility.yul\":1081:1258   */\n      jump\n        /* \"mojoswap.sol\":207:228  Mojo public mojoToken */\n    tag_7:\n      sload(0x00)\n      tag_17\n      swap1\n      sub(shl(0xa0, 0x01), 0x01)\n      and\n      dup2\n      jump\n        /* \"mojoswap.sol\":819:973  function requestSwap(uint256 pjkAmount) external {... */\n    tag_12:\n        /* \"mojoswap.sol\":891:901  msg.sender */\n      caller\n        /* \"mojoswap.sol\":878:902  pendingSwaps[msg.sender] */\n      0x00\n      swap1\n      dup2\n      mstore\n        /* \"mojoswap.sol\":878:890  pendingSwaps */\n      0x02\n        /* \"mojoswap.sol\":878:902  pendingSwaps[msg.sender] */\n      0x20\n      mstore\n      0x40\n      dup2\n      keccak256\n        /* \"mojoswap.sol\":878:915  pendingSwaps[msg.sender] += pjkAmount */\n      dup1\n      sload\n        /* \"mojoswap.sol\":906:915  pjkAmount */\n      dup4\n      swap3\n        /* \"mojoswap.sol\":878:902  pendingSwaps[msg.sender] */\n      swap1\n        /* \"mojoswap.sol\":878:915  pendingSwaps[msg.sender] += pjkAmount */\n      tag_32\n      swap1\n        /* \"mojoswap.sol\":906:915  pjkAmount */\n      dup5\n      swap1\n        /* \"mojoswap.sol\":878:915  pendingSwaps[msg.sender] += pjkAmount */\n      tag_33\n      jump\t// in\n    tag_32:\n      swap1\n      swap2\n      sstore\n      pop\n      pop\n        /* \"mojoswap.sol\":930:966  SwapRequested(msg.sender, pjkAmount) */\n      mload(0x40)\n        /* \"#utility.yul\":1227:1252   */\n      dup2\n      dup2\n      mstore\n        /* \"mojoswap.sol\":944:954  msg.sender */\n      caller\n      swap1\n        /* \"mojoswap.sol\":930:966  SwapRequested(msg.sender, pjkAmount) */\n      0x6205ae3c63f3c2bef4746c34cd7df37c947b27bb74af5b30a55e095d9869e59b\n      swap1\n        /* \"#utility.yul\":1215:1217   */\n      0x20\n        /* \"#utility.yul\":1200:1218   */\n      add\n        /* \"mojoswap.sol\":930:966  SwapRequested(msg.sender, pjkAmount) */\n      mload(0x40)\n      dup1\n      swap2\n      sub\n      swap1\n      log2\n        /* \"mojoswap.sol\":819:973  function requestSwap(uint256 pjkAmount) external {... */\n      pop\n      jump\t// out\n        /* \"mojoswap.sol\":1084:1415  function completeSwap(address user, uint256 pjkAmount) external onlyOwner {... */\n    tag_16:\n        /* \"mojoswap.sol\":1474:1479  owner */\n      and(sub(shl(0xa0, 0x01), 0x01), sload(0x01))\n        /* \"mojoswap.sol\":1460:1470  msg.sender */\n      caller\n        /* \"mojoswap.sol\":1460:1479  msg.sender == owner */\n      eq\n        /* \"mojoswap.sol\":1452:1493  require(msg.sender == owner, \"Not owner\") */\n      tag_36\n      jumpi\n      mload(0x40)\n      shl(0xe5, 0x461bcd)\n      dup2\n      mstore\n        /* \"#utility.yul\":1970:1972   */\n      0x20\n        /* \"mojoswap.sol\":1452:1493  require(msg.sender == owner, \"Not owner\") */\n      0x04\n      dup3\n      add\n        /* \"#utility.yul\":1952:1973   */\n      mstore\n        /* \"#utility.yul\":2009:2010   */\n      0x09\n        /* \"#utility.yul\":1989:2007   */\n      0x24\n      dup3\n      add\n        /* \"#utility.yul\":1982:2011   */\n      mstore\n        /* \"#utility.yul\":2047:2058   */\n      0x4e6f74206f776e65720000000000000000000000000000000000000000000000\n        /* \"#utility.yul\":2027:2045   */\n      0x44\n      dup3\n      add\n        /* \"#utility.yul\":2020:2059   */\n      mstore\n        /* \"#utility.yul\":2076:2094   */\n      0x64\n      add\n        /* \"mojoswap.sol\":1452:1493  require(msg.sender == owner, \"Not owner\") */\n    tag_37:\n      mload(0x40)\n      dup1\n      swap2\n      sub\n      swap1\n      revert\n    tag_36:\n      sub(shl(0xa0, 0x01), 0x01)\n        /* \"mojoswap.sol\":1176:1194  pendingSwaps[user] */\n      dup3\n      and\n      0x00\n      swap1\n      dup2\n      mstore\n        /* \"mojoswap.sol\":1176:1188  pendingSwaps */\n      0x02\n        /* \"mojoswap.sol\":1176:1194  pendingSwaps[user] */\n      0x20\n      mstore\n      0x40\n      swap1\n      keccak256\n      sload\n        /* \"mojoswap.sol\":1176:1207  pendingSwaps[user] >= pjkAmount */\n      dup2\n      gt\n      iszero\n        /* \"mojoswap.sol\":1168:1239  require(pendingSwaps[user] >= pjkAmount, \"Insufficient pending amount\") */\n      tag_40\n      jumpi\n      mload(0x40)\n      shl(0xe5, 0x461bcd)\n      dup2\n      mstore\n        /* \"#utility.yul\":2307:2309   */\n      0x20\n        /* \"mojoswap.sol\":1168:1239  require(pendingSwaps[user] >= pjkAmount, \"Insufficient pending amount\") */\n      0x04\n      dup3\n      add\n        /* \"#utility.yul\":2289:2310   */\n      mstore\n        /* \"#utility.yul\":2346:2348   */\n      0x1b\n        /* \"#utility.yul\":2326:2344   */\n      0x24\n      dup3\n      add\n        /* \"#utility.yul\":2319:2349   */\n      mstore\n        /* \"#utility.yul\":2385:2414   */\n      0x496e73756666696369656e742070656e64696e6720616d6f756e740000000000\n        /* \"#utility.yul\":2365:2383   */\n      0x44\n      dup3\n      add\n        /* \"#utility.yul\":2358:2415   */\n      mstore\n        /* \"#utility.yul\":2432:2450   */\n      0x64\n      add\n        /* \"mojoswap.sol\":1168:1239  require(pendingSwaps[user] >= pjkAmount, \"Insufficient pending amount\") */\n      tag_37\n        /* \"#utility.yul\":2105:2456   */\n      jump\n        /* \"mojoswap.sol\":1168:1239  require(pendingSwaps[user] >= pjkAmount, \"Insufficient pending amount\") */\n    tag_40:\n      sub(shl(0xa0, 0x01), 0x01)\n        /* \"mojoswap.sol\":1249:1267  pendingSwaps[user] */\n      dup3\n      and\n      0x00\n      swap1\n      dup2\n      mstore\n        /* \"mojoswap.sol\":1249:1261  pendingSwaps */\n      0x02\n        /* \"mojoswap.sol\":1249:1267  pendingSwaps[user] */\n      0x20\n      mstore\n      0x40\n      dup2\n      keccak256\n        /* \"mojoswap.sol\":1249:1280  pendingSwaps[user] -= pjkAmount */\n      dup1\n      sload\n        /* \"mojoswap.sol\":1271:1280  pjkAmount */\n      dup4\n      swap3\n        /* \"mojoswap.sol\":1249:1267  pendingSwaps[user] */\n      swap1\n        /* \"mojoswap.sol\":1249:1280  pendingSwaps[user] -= pjkAmount */\n      tag_43\n      swap1\n        /* \"mojoswap.sol\":1271:1280  pjkAmount */\n      dup5\n      swap1\n        /* \"mojoswap.sol\":1249:1280  pendingSwaps[user] -= pjkAmount */\n      tag_44\n      jump\t// in\n    tag_43:\n      swap1\n      swap2\n      sstore\n      pop\n      pop\n        /* \"mojoswap.sol\":1290:1299  mojoToken */\n      sload(0x00)\n        /* \"mojoswap.sol\":1290:1328  mojoToken.mintForSwap(user, pjkAmount) */\n      mload(0x40)\n      shl(0xe0, 0x0b8b29e5)\n      dup2\n      mstore\n      sub(shl(0xa0, 0x01), 0x01)\n        /* \"#utility.yul\":2786:2841   */\n      dup5\n      dup2\n      and\n        /* \"mojoswap.sol\":1290:1328  mojoToken.mintForSwap(user, pjkAmount) */\n      0x04\n      dup4\n      add\n        /* \"#utility.yul\":2768:2842   */\n      mstore\n        /* \"#utility.yul\":2858:2876   */\n      0x24\n      dup3\n      add\n        /* \"#utility.yul\":2851:2885   */\n      dup5\n      swap1\n      mstore\n        /* \"mojoswap.sol\":1290:1299  mojoToken */\n      swap1\n      swap2\n      and\n      swap1\n        /* \"mojoswap.sol\":1290:1311  mojoToken.mintForSwap */\n      0x0b8b29e5\n      swap1\n        /* \"#utility.yul\":2741:2759   */\n      0x44\n      add\n        /* \"mojoswap.sol\":1290:1328  mojoToken.mintForSwap(user, pjkAmount) */\n      0x00\n      mload(0x40)\n      dup1\n      dup4\n      sub\n      dup2\n      0x00\n      dup8\n      dup1\n      extcodesize\n      iszero\n      dup1\n      iszero\n      tag_47\n      jumpi\n      0x00\n      dup1\n      revert\n    tag_47:\n      pop\n      gas\n      call\n      iszero\n      dup1\n      iszero\n      tag_49\n      jumpi\n      returndatasize\n      0x00\n      dup1\n      returndatacopy\n      revert(0x00, returndatasize)\n    tag_49:\n      pop\n      pop\n      pop\n      pop\n        /* \"mojoswap.sol\":1357:1361  user */\n      dup2\n      sub(shl(0xa0, 0x01), 0x01)\n        /* \"mojoswap.sol\":1343:1408  SwapCompleted(user, pjkAmount, pjkAmount * mojoToken.swapRatio()) */\n      and\n      0x68c14902a77c0b779e8d12c5eadac21e74962f4e4efaa8a01582d13b3945ae7f\n        /* \"mojoswap.sol\":1363:1372  pjkAmount */\n      dup3\n        /* \"mojoswap.sol\":1386:1395  mojoToken */\n      0x00\n      dup1\n      sload\n      swap1\n      0x0100\n      exp\n      swap1\n      div\n      sub(shl(0xa0, 0x01), 0x01)\n      and\n      sub(shl(0xa0, 0x01), 0x01)\n        /* \"mojoswap.sol\":1386:1405  mojoToken.swapRatio */\n      and\n      0x0e0bfb49\n        /* \"mojoswap.sol\":1386:1407  mojoToken.swapRatio() */\n      mload(0x40)\n      dup2\n      0xffffffff\n      and\n      0xe0\n      shl\n      dup2\n      mstore\n      0x04\n      add\n      0x20\n      mload(0x40)\n      dup1\n      dup4\n      sub\n      dup2\n      dup7\n      gas\n      staticcall\n      iszero\n      dup1\n      iszero\n      tag_51\n      jumpi\n      returndatasize\n      0x00\n      dup1\n      returndatacopy\n      revert(0x00, returndatasize)\n    tag_51:\n      pop\n      pop\n      pop\n      pop\n      mload(0x40)\n      returndatasize\n      not(0x1f)\n      0x1f\n      dup3\n      add\n      and\n      dup3\n      add\n      dup1\n      0x40\n      mstore\n      pop\n      dup2\n      add\n      swap1\n      tag_52\n      swap2\n      swap1\n      tag_53\n      jump\t// in\n    tag_52:\n        /* \"mojoswap.sol\":1374:1407  pjkAmount * mojoToken.swapRatio() */\n      tag_54\n      swap1\n        /* \"mojoswap.sol\":1374:1383  pjkAmount */\n      dup6\n        /* \"mojoswap.sol\":1374:1407  pjkAmount * mojoToken.swapRatio() */\n      tag_55\n      jump\t// in\n    tag_54:\n        /* \"mojoswap.sol\":1343:1408  SwapCompleted(user, pjkAmount, pjkAmount * mojoToken.swapRatio()) */\n      0x40\n      dup1\n      mload\n        /* \"#utility.yul\":3432:3457   */\n      swap3\n      dup4\n      mstore\n        /* \"#utility.yul\":3488:3490   */\n      0x20\n        /* \"#utility.yul\":3473:3491   */\n      dup4\n      add\n        /* \"#utility.yul\":3466:3500   */\n      swap2\n      swap1\n      swap2\n      mstore\n        /* \"#utility.yul\":3405:3423   */\n      add\n        /* \"mojoswap.sol\":1343:1408  SwapCompleted(user, pjkAmount, pjkAmount * mojoToken.swapRatio()) */\n      mload(0x40)\n      dup1\n      swap2\n      sub\n      swap1\n      log2\n        /* \"mojoswap.sol\":1084:1415  function completeSwap(address user, uint256 pjkAmount) external onlyOwner {... */\n      pop\n      pop\n      jump\t// out\n        /* \"#utility.yul\":14:194   */\n    tag_11:\n        /* \"#utility.yul\":73:79   */\n      0x00\n        /* \"#utility.yul\":126:128   */\n      0x20\n        /* \"#utility.yul\":114:123   */\n      dup3\n        /* \"#utility.yul\":105:112   */\n      dup5\n        /* \"#utility.yul\":101:124   */\n      sub\n        /* \"#utility.yul\":97:129   */\n      slt\n        /* \"#utility.yul\":94:146   */\n      iszero\n      tag_62\n      jumpi\n        /* \"#utility.yul\":142:143   */\n      0x00\n        /* \"#utility.yul\":139:140   */\n      dup1\n        /* \"#utility.yul\":132:144   */\n      revert\n        /* \"#utility.yul\":94:146   */\n    tag_62:\n      pop\n        /* \"#utility.yul\":165:188   */\n      calldataload\n      swap2\n        /* \"#utility.yul\":14:194   */\n      swap1\n      pop\n      jump\t// out\n        /* \"#utility.yul\":199:395   */\n    tag_58:\n        /* \"#utility.yul\":267:287   */\n      dup1\n      calldataload\n      sub(shl(0xa0, 0x01), 0x01)\n        /* \"#utility.yul\":316:370   */\n      dup2\n      and\n        /* \"#utility.yul\":306:371   */\n      dup2\n      eq\n        /* \"#utility.yul\":296:389   */\n      tag_64\n      jumpi\n        /* \"#utility.yul\":385:386   */\n      0x00\n        /* \"#utility.yul\":382:383   */\n      dup1\n        /* \"#utility.yul\":375:387   */\n      revert\n        /* \"#utility.yul\":296:389   */\n    tag_64:\n        /* \"#utility.yul\":199:395   */\n      swap2\n      swap1\n      pop\n      jump\t// out\n        /* \"#utility.yul\":400:654   */\n    tag_15:\n        /* \"#utility.yul\":468:474   */\n      0x00\n        /* \"#utility.yul\":476:482   */\n      dup1\n        /* \"#utility.yul\":529:531   */\n      0x40\n        /* \"#utility.yul\":517:526   */\n      dup4\n        /* \"#utility.yul\":508:515   */\n      dup6\n        /* \"#utility.yul\":504:527   */\n      sub\n        /* \"#utility.yul\":500:532   */\n      slt\n        /* \"#utility.yul\":497:549   */\n      iszero\n      tag_66\n      jumpi\n        /* \"#utility.yul\":545:546   */\n      0x00\n        /* \"#utility.yul\":542:543   */\n      dup1\n        /* \"#utility.yul\":535:547   */\n      revert\n        /* \"#utility.yul\":497:549   */\n    tag_66:\n        /* \"#utility.yul\":568:597   */\n      tag_67\n        /* \"#utility.yul\":587:596   */\n      dup4\n        /* \"#utility.yul\":568:597   */\n      tag_58\n      jump\t// in\n    tag_67:\n        /* \"#utility.yul\":558:597   */\n      swap5\n        /* \"#utility.yul\":644:646   */\n      0x20\n        /* \"#utility.yul\":629:647   */\n      swap4\n      swap1\n      swap4\n      add\n        /* \"#utility.yul\":616:648   */\n      calldataload\n      swap4\n      pop\n      pop\n      pop\n        /* \"#utility.yul\":400:654   */\n      jump\t// out\n        /* \"#utility.yul\":890:1076   */\n    tag_23:\n        /* \"#utility.yul\":949:955   */\n      0x00\n        /* \"#utility.yul\":1002:1004   */\n      0x20\n        /* \"#utility.yul\":990:999   */\n      dup3\n        /* \"#utility.yul\":981:988   */\n      dup5\n        /* \"#utility.yul\":977:1000   */\n      sub\n        /* \"#utility.yul\":973:1005   */\n      slt\n        /* \"#utility.yul\":970:1022   */\n      iszero\n      tag_70\n      jumpi\n        /* \"#utility.yul\":1018:1019   */\n      0x00\n        /* \"#utility.yul\":1015:1016   */\n      dup1\n        /* \"#utility.yul\":1008:1020   */\n      revert\n        /* \"#utility.yul\":970:1022   */\n    tag_70:\n        /* \"#utility.yul\":1041:1070   */\n      tag_71\n        /* \"#utility.yul\":1060:1069   */\n      dup3\n        /* \"#utility.yul\":1041:1070   */\n      tag_58\n      jump\t// in\n    tag_71:\n        /* \"#utility.yul\":1031:1070   */\n      swap4\n        /* \"#utility.yul\":890:1076   */\n      swap3\n      pop\n      pop\n      pop\n      jump\t// out\n        /* \"#utility.yul\":1506:1633   */\n    tag_59:\n        /* \"#utility.yul\":1567:1577   */\n      0x4e487b71\n        /* \"#utility.yul\":1562:1565   */\n      0xe0\n        /* \"#utility.yul\":1558:1578   */\n      shl\n        /* \"#utility.yul\":1555:1556   */\n      0x00\n        /* \"#utility.yul\":1548:1579   */\n      mstore\n        /* \"#utility.yul\":1598:1602   */\n      0x11\n        /* \"#utility.yul\":1595:1596   */\n      0x04\n        /* \"#utility.yul\":1588:1603   */\n      mstore\n        /* \"#utility.yul\":1622:1626   */\n      0x24\n        /* \"#utility.yul\":1619:1620   */\n      0x00\n        /* \"#utility.yul\":1612:1627   */\n      revert\n        /* \"#utility.yul\":1638:1763   */\n    tag_33:\n        /* \"#utility.yul\":1703:1712   */\n      dup1\n      dup3\n      add\n        /* \"#utility.yul\":1724:1734   */\n      dup1\n      dup3\n      gt\n        /* \"#utility.yul\":1721:1757   */\n      iszero\n      tag_77\n      jumpi\n        /* \"#utility.yul\":1737:1755   */\n      tag_77\n      tag_59\n      jump\t// in\n    tag_77:\n        /* \"#utility.yul\":1638:1763   */\n      swap3\n      swap2\n      pop\n      pop\n      jump\t// out\n        /* \"#utility.yul\":2461:2589   */\n    tag_44:\n        /* \"#utility.yul\":2528:2537   */\n      dup2\n      dup2\n      sub\n        /* \"#utility.yul\":2549:2560   */\n      dup2\n      dup2\n      gt\n        /* \"#utility.yul\":2546:2583   */\n      iszero\n      tag_77\n      jumpi\n        /* \"#utility.yul\":2563:2581   */\n      tag_77\n      tag_59\n      jump\t// in\n        /* \"#utility.yul\":2896:3080   */\n    tag_53:\n        /* \"#utility.yul\":2966:2972   */\n      0x00\n        /* \"#utility.yul\":3019:3021   */\n      0x20\n        /* \"#utility.yul\":3007:3016   */\n      dup3\n        /* \"#utility.yul\":2998:3005   */\n      dup5\n        /* \"#utility.yul\":2994:3017   */\n      sub\n        /* \"#utility.yul\":2990:3022   */\n      slt\n        /* \"#utility.yul\":2987:3039   */\n      iszero\n      tag_85\n      jumpi\n        /* \"#utility.yul\":3035:3036   */\n      0x00\n        /* \"#utility.yul\":3032:3033   */\n      dup1\n        /* \"#utility.yul\":3025:3037   */\n      revert\n        /* \"#utility.yul\":2987:3039   */\n    tag_85:\n      pop\n        /* \"#utility.yul\":3058:3074   */\n      mload\n      swap2\n        /* \"#utility.yul\":2896:3080   */\n      swap1\n      pop\n      jump\t// out\n        /* \"#utility.yul\":3085:3253   */\n    tag_55:\n        /* \"#utility.yul\":3158:3167   */\n      dup1\n      dup3\n      mul\n        /* \"#utility.yul\":3189:3198   */\n      dup2\n      iszero\n        /* \"#utility.yul\":3206:3221   */\n      dup3\n      dup3\n      div\n        /* \"#utility.yul\":3200:3222   */\n      dup5\n      eq\n        /* \"#utility.yul\":3186:3223   */\n      or\n        /* \"#utility.yul\":3176:3247   */\n      tag_77\n      jumpi\n        /* \"#utility.yul\":3227:3245   */\n      tag_77\n      tag_59\n      jump\t// in\n\n    auxdata: 0xa26469706673582212207ee97450b8672d8749de8325e18da3555dde71b008ffff5210dd77cd81a679d664736f6c63430008190033\n}\n",
    "bytecode": {
      "linkReferences": {},
      "object": "6080604052348015600e575f80fd5b5060405161051d38038061051d833981016040819052602b916057565b5f80546001600160a01b039092166001600160a01b031992831617905560018054909116331790556082565b5f602082840312156066575f80fd5b81516001600160a01b0381168114607b575f80fd5b9392505050565b61048e8061008f5f395ff3fe608060405234801561000f575f80fd5b5060043610610064575f3560e01c80638da5cb5b1161004d5780638da5cb5b14610090578063d2174a6e146100c0578063d56fb4a9146100ed575f80fd5b80632217d48314610068578063466ad01c1461007d575b5f80fd5b61007b610076366004610370565b6100ff565b005b61007b61008b3660046103a2565b61015a565b6001546100a3906001600160a01b031681565b6040516001600160a01b0390911681526020015b60405180910390f35b6100df6100ce3660046103ca565b60026020525f908152604090205481565b6040519081526020016100b7565b5f546100a3906001600160a01b031681565b335f908152600260205260408120805483929061011d9084906103fe565b909155505060405181815233907f6205ae3c63f3c2bef4746c34cd7df37c947b27bb74af5b30a55e095d9869e59b9060200160405180910390a250565b6001546001600160a01b031633146101b95760405162461bcd60e51b815260206004820152600960248201527f4e6f74206f776e6572000000000000000000000000000000000000000000000060448201526064015b60405180910390fd5b6001600160a01b0382165f908152600260205260409020548111156102205760405162461bcd60e51b815260206004820152601b60248201527f496e73756666696369656e742070656e64696e6720616d6f756e74000000000060448201526064016101b0565b6001600160a01b0382165f9081526002602052604081208054839290610247908490610417565b90915550505f54604051630b8b29e560e01b81526001600160a01b0384811660048301526024820184905290911690630b8b29e5906044015f604051808303815f87803b158015610296575f80fd5b505af11580156102a8573d5f803e3d5ffd5b50505050816001600160a01b03167f68c14902a77c0b779e8d12c5eadac21e74962f4e4efaa8a01582d13b3945ae7f825f8054906101000a90046001600160a01b03166001600160a01b0316630e0bfb496040518163ffffffff1660e01b8152600401602060405180830381865afa158015610326573d5f803e3d5ffd5b505050506040513d601f19601f8201168201806040525081019061034a919061042a565b6103549085610441565b6040805192835260208301919091520160405180910390a25050565b5f60208284031215610380575f80fd5b5035919050565b80356001600160a01b038116811461039d575f80fd5b919050565b5f80604083850312156103b3575f80fd5b6103bc83610387565b946020939093013593505050565b5f602082840312156103da575f80fd5b6103e382610387565b9392505050565b634e487b7160e01b5f52601160045260245ffd5b80820180821115610411576104116103ea565b92915050565b81810381811115610411576104116103ea565b5f6020828403121561043a575f80fd5b5051919050565b8082028115828204841417610411576104116103ea56fea26469706673582212207ee97450b8672d8749de8325e18da3555dde71b008ffff5210dd77cd81a679d664736f6c63430008190033",
      "opcodes": "PUSH1 0x80 PUSH1 0x40 MSTORE CALLVALUE DUP1 ISZERO PUSH1 0xE JUMPI PUSH0 DUP1 REVERT JUMPDEST POP PUSH1 0x40 MLOAD PUSH2 0x51D CODESIZE SUB DUP1 PUSH2 0x51D DUP4 CODECOPY DUP2 ADD PUSH1 0x40 DUP2 SWAP1 MSTORE PUSH1 0x2B SWAP2 PUSH1 0x57 JUMP JUMPDEST PUSH0 DUP1 SLOAD PUSH1 0x1 PUSH1 0x1 PUSH1 0xA0 SHL SUB SWAP1 SWAP3 AND PUSH1 0x1 PUSH1 0x1 PUSH1 0xA0 SHL SUB NOT SWAP3 DUP4 AND OR SWAP1 SSTORE PUSH1 0x1 DUP1 SLOAD SWAP1 SWAP2 AND CALLER OR SWAP1 SSTORE PUSH1 0x82 JUMP JUMPDEST PUSH0 PUSH1 0x20 DUP3 DUP5 SUB SLT ISZERO PUSH1 0x66 JUMPI PUSH0 DUP1 REVERT JUMPDEST DUP2 MLOAD PUSH1 0x1 PUSH1 0x1 PUSH1 0xA0 SHL SUB DUP2 AND DUP2 EQ PUSH1 0x7B JUMPI PUSH0 DUP1 REVERT JUMPDEST SWAP4 SWAP3 POP POP POP JUMP JUMPDEST PUSH2 0x48E DUP1 PUSH2 0x8F PUSH0 CODECOPY PUSH0 RETURN INVALID PUSH1 0x80 PUSH1 0x40 MSTORE CALLVALUE DUP1 ISZERO PUSH2 0xF JUMPI PUSH0 DUP1 REVERT JUMPDEST POP PUSH1 0x4 CALLDATASIZE LT PUSH2 0x64 JUMPI PUSH0 CALLDATALOAD PUSH1 0xE0 SHR DUP1 PUSH4 0x8DA5CB5B GT PUSH2 0x4D JUMPI DUP1 PUSH4 0x8DA5CB5B EQ PUSH2 0x90 JUMPI DUP1 PUSH4 0xD2174A6E EQ PUSH2 0xC0 JUMPI DUP1 PUSH4 0xD56FB4A9 EQ PUSH2 0xED JUMPI PUSH0 DUP1 REVERT JUMPDEST DUP1 PUSH4 0x2217D483 EQ PUSH2 0x68 JUMPI DUP1 PUSH4 0x466AD01C EQ PUSH2 0x7D JUMPI JUMPDEST PUSH0 DUP1 REVERT JUMPDEST PUSH2 0x7B PUSH2 0x76 CALLDATASIZE PUSH1 0x4 PUSH2 0x370 JUMP JUMPDEST PUSH2 0xFF JUMP JUMPDEST STOP JUMPDEST PUSH2 0x7B PUSH2 0x8B CALLDATASIZE PUSH1 0x4 PUSH2 0x3A2 JUMP JUMPDEST PUSH2 0x15A JUMP JUMPDEST PUSH1 0x1 SLOAD PUSH2 0xA3 SWAP1 PUSH1 0x1 PUSH1 0x1 PUSH1 0xA0 SHL SUB AND DUP2 JUMP JUMPDEST PUSH1 0x40 MLOAD PUSH1 0x1 PUSH1 0x1 PUSH1 0xA0 SHL SUB SWAP1 SWAP2 AND DUP2 MSTORE PUSH1 0x20 ADD JUMPDEST PUSH1 0x40 MLOAD DUP1 SWAP2 SUB SWAP1 RETURN JUMPDEST PUSH2 0xDF PUSH2 0xCE CALLDATASIZE PUSH1 0x4 PUSH2 0x3CA JUMP JUMPDEST PUSH1 0x2 PUSH1 0x20 MSTORE PUSH0 SWAP1 DUP2 MSTORE PUSH1 0x40 SWAP1 KECCAK256 SLOAD DUP2 JUMP JUMPDEST PUSH1 0x40 MLOAD SWAP1 DUP2 MSTORE PUSH1 0x20 ADD PUSH2 0xB7 JUMP JUMPDEST PUSH0 SLOAD PUSH2 0xA3 SWAP1 PUSH1 0x1 PUSH1 0x1 PUSH1 0xA0 SHL SUB AND DUP2 JUMP JUMPDEST CALLER PUSH0 SWAP1 DUP2 MSTORE PUSH1 0x2 PUSH1 0x20 MSTORE PUSH1 0x40 DUP2 KECCAK256 DUP1 SLOAD DUP4 SWAP3 SWAP1 PUSH2 0x11D SWAP1 DUP5 SWAP1 PUSH2 0x3FE JUMP JUMPDEST SWAP1 SWAP2 SSTORE POP POP PUSH1 0x40 MLOAD DUP2 DUP2 MSTORE CALLER SWAP1 PUSH32 0x6205AE3C63F3C2BEF4746C34CD7DF37C947B27BB74AF5B30A55E095D9869E59B SWAP1 PUSH1 0x20 ADD PUSH1 0x40 MLOAD DUP1 SWAP2 SUB SWAP1 LOG2 POP JUMP JUMPDEST PUSH1 0x1 SLOAD PUSH1 0x1 PUSH1 0x1 PUSH1 0xA0 SHL SUB AND CALLER EQ PUSH2 0x1B9 JUMPI PUSH1 0x40 MLOAD PUSH3 0x461BCD PUSH1 0xE5 SHL DUP2 MSTORE PUSH1 0x20 PUSH1 0x4 DUP3 ADD MSTORE PUSH1 0x9 PUSH1 0x24 DUP3 ADD MSTORE PUSH32 0x4E6F74206F776E65720000000000000000000000000000000000000000000000 PUSH1 0x44 DUP3 ADD MSTORE PUSH1 0x64 ADD JUMPDEST PUSH1 0x40 MLOAD DUP1 SWAP2 SUB SWAP1 REVERT JUMPDEST PUSH1 0x1 PUSH1 0x1 PUSH1 0xA0 SHL SUB DUP3 AND PUSH0 SWAP1 DUP2 MSTORE PUSH1 0x2 PUSH1 0x20 MSTORE PUSH1 0x40 SWAP1 KECCAK256 SLOAD DUP2 GT ISZERO PUSH2 0x220 JUMPI PUSH1 0x40 MLOAD PUSH3 0x461BCD PUSH1 0xE5 SHL DUP2 MSTORE PUSH1 0x20 PUSH1 0x4 DUP3 ADD MSTORE PUSH1 0x1B PUSH1 0x24 DUP3 ADD MSTORE PUSH32 0x496E73756666696369656E742070656E64696E6720616D6F756E740000000000 PUSH1 0x44 DUP3 ADD MSTORE PUSH1 0x64 ADD PUSH2 0x1B0 JUMP JUMPDEST PUSH1 0x1 PUSH1 0x1 PUSH1 0xA0 SHL SUB DUP3 AND PUSH0 SWAP1 DUP2 MSTORE PUSH1 0x2 PUSH1 0x20 MSTORE PUSH1 0x40 DUP2 KECCAK256 DUP1 SLOAD DUP4 SWAP3 SWAP1 PUSH2 0x247 SWAP1 DUP5 SWAP1 PUSH2 0x417 JUMP JUMPDEST SWAP1 SWAP2 SSTORE POP POP PUSH0 SLOAD PUSH1 0x40 MLOAD PUSH4 0xB8B29E5 PUSH1 0xE0 SHL DUP2 MSTORE PUSH1 0x1 PUSH1 0x1 PUSH1 0xA0 SHL SUB DUP5 DUP2 AND PUSH1 0x4 DUP4 ADD MSTORE PUSH1 0x24 DUP3 ADD DUP5 SWAP1 MSTORE SWAP1 SWAP2 AND SWAP1 PUSH4 0xB8B29E5 SWAP1 PUSH1 0x44 ADD PUSH0 PUSH1 0x40 MLOAD DUP1 DUP4 SUB DUP2 PUSH0 DUP8 DUP1 EXTCODESIZE ISZERO DUP1 ISZERO PUSH2 0x296 JUMPI PUSH0 DUP1 REVERT JUMPDEST POP GAS CALL ISZERO DUP1 ISZERO PUSH2 0x2A8 JUMPI RETURNDATASIZE PUSH0 DUP1 RETURNDATACOPY RETURNDATASIZE PUSH0 REVERT JUMPDEST POP POP POP POP DUP2 PUSH1 0x1 PUSH1 0x1 PUSH1 0xA0 SHL SUB AND PUSH32 0x68C14902A77C0B779E8D12C5EADAC21E74962F4E4EFAA8A01582D13B3945AE7F DUP3 PUSH0 DUP1 SLOAD SWAP1 PUSH2 0x100 EXP SWAP1 DIV PUSH1 0x1 PUSH1 0x1 PUSH1 0xA0 SHL SUB AND PUSH1 0x1 PUSH1 0x1 PUSH1 0xA0 SHL SUB AND PUSH4 0xE0BFB49 PUSH1 0x40 MLOAD DUP2 PUSH4 0xFFFFFFFF AND PUSH1 0xE0 SHL DUP2 MSTORE PUSH1 0x4 ADD PUSH1 0x20 PUSH1 0x40 MLOAD DUP1 DUP4 SUB DUP2 DUP7 GAS STATICCALL ISZERO DUP1 ISZERO PUSH2 0x326 JUMPI RETURNDATASIZE PUSH0 DUP1 RETURNDATACOPY RETURNDATASIZE PUSH0 REVERT JUMPDEST POP POP POP POP PUSH1 0x40 MLOAD RETURNDATASIZE PUSH1 0x1F NOT PUSH1 0x1F DUP3 ADD AND DUP3 ADD DUP1 PUSH1 0x40 MSTORE POP DUP2 ADD SWAP1 PUSH2 0x34A SWAP2 SWAP1 PUSH2 0x42A JUMP JUMPDEST PUSH2 0x354 SWAP1 DUP6 PUSH2 0x441 JUMP JUMPDEST PUSH1 0x40 DUP1 MLOAD SWAP3 DUP4 MSTORE PUSH1 0x20 DUP4 ADD SWAP2 SWAP1 SWAP2 MSTORE ADD PUSH1 0x40 MLOAD DUP1 SWAP2 SUB SWAP1 LOG2 POP POP JUMP JUMPDEST PUSH0 PUSH1 0x20 DUP3 DUP5 SUB SLT ISZERO PUSH2 0x380 JUMPI PUSH0 DUP1 REVERT JUMPDEST POP CALLDATALOAD SWAP2 SWAP1 POP JUMP JUMPDEST DUP1 CALLDATALOAD PUSH1 0x1 PUSH1 0x1 PUSH1 0xA0 SHL SUB DUP2 AND DUP2 EQ PUSH2 0x39D JUMPI PUSH0 DUP1 REVERT JUMPDEST SWAP2 SWAP1 POP JUMP JUMPDEST PUSH0 DUP1 PUSH1 0x40 DUP4 DUP6 SUB SLT ISZERO PUSH2 0x3B3 JUMPI PUSH0 DUP1 REVERT JUMPDEST PUSH2 0x3BC DUP4 PUSH2 0x387 JUMP JUMPDEST SWAP5 PUSH1 0x20 SWAP4 SWAP1 SWAP4 ADD CALLDATALOAD SWAP4 POP POP POP JUMP JUMPDEST PUSH0 PUSH1 0x20 DUP3 DUP5 SUB SLT ISZERO PUSH2 0x3DA JUMPI PUSH0 DUP1 REVERT JUMPDEST PUSH2 0x3E3 DUP3 PUSH2 0x387 JUMP JUMPDEST SWAP4 SWAP3 POP POP POP JUMP JUMPDEST PUSH4 0x4E487B71 PUSH1 0xE0 SHL PUSH0 MSTORE PUSH1 0x11 PUSH1 0x4 MSTORE PUSH1 0x24 PUSH0 REVERT JUMPDEST DUP1 DUP3 ADD DUP1 DUP3 GT ISZERO PUSH2 0x411 JUMPI PUSH2 0x411 PUSH2 0x3EA JUMP JUMPDEST SWAP3 SWAP2 POP POP JUMP JUMPDEST DUP2 DUP2 SUB DUP2 DUP2 GT ISZERO PUSH2 0x411 JUMPI PUSH2 0x411 PUSH2 0x3EA JUMP JUMPDEST PUSH0 PUSH1 0x20 DUP3 DUP5 SUB SLT ISZERO PUSH2 0x43A JUMPI PUSH0 DUP1 REVERT JUMPDEST POP MLOAD SWAP2 SWAP1 POP JUMP JUMPDEST DUP1 DUP3 MUL DUP2 ISZERO DUP3 DUP3 DIV DUP5 EQ OR PUSH2 0x411 JUMPI PUSH2 0x411 PUSH2 0x3EA JUMP INVALID LOG2 PUSH5 0x6970667358 0x22 SLT KECCAK256 PUSH31 0xE97450B8672D8749DE8325E18DA3555DDE71B008FFFF5210DD77CD81A679D6 PUSH5 0x736F6C6343 STOP ADDMOD NOT STOP CALLER "
    },
    "gasEstimates": {
      "creation": {
        "codeDepositCost": "233200",
        "executionCost": "infinite",
        "totalCost": "infinite"
      },
      "external": {
        "completeSwap(address,uint256)": "infinite",
        "mojoToken()": "2368",
        "owner()": "2325",
        "pendingSwaps(address)": "2538",
        "requestSwap(uint256)": "26029"
      }
    },
    "methodIdentifiers": {
      "completeSwap(address,uint256)": "466ad01c",
      "mojoToken()": "d56fb4a9",
      "owner()": "8da5cb5b",
      "pendingSwaps(address)": "d2174a6e",
      "requestSwap(uint256)": "2217d483"
    }
  },
  "storageLayout": {
    "storage": [
      {
        "astId": 244,
        "contract": "mojoswap.sol:MojoSwap",
        "label": "mojoToken",
        "offset": 0,
        "slot": "0",
        "type": "t_contract(Mojo)237"
      },
      {
        "astId": 246,
        "contract": "mojoswap.sol:MojoSwap",
        "label": "owner",
        "offset": 0,
        "slot": "1",
        "type": "t_address"
      },
      {
        "astId": 250,
        "contract": "mojoswap.sol:MojoSwap",
        "label": "pendingSwaps",
        "offset": 0,
        "slot": "2",
        "type": "t_mapping(t_address,t_uint256)"
      }
    ],
    "types": {
      "t_address": {
        "encoding": "inplace",
        "label": "address",
        "numberOfBytes": "20"
      },
      "t_contract(Mojo)237": {
        "encoding": "inplace",
        "label": "contract Mojo",
        "numberOfBytes": "20"
      },
      "t_mapping(t_address,t_uint256)": {
        "encoding": "mapping",
        "key": "t_address",
        "label": "mapping(address => uint256)",
        "numberOfBytes": "32",
        "value": "t_uint256"
      },
      "t_uint256": {
        "encoding": "inplace",
        "label": "uint256",
        "numberOfBytes": "32"
      }
    }
  },
  "userdoc": {
    "kind": "user",
    "methods": {
      "completeSwap(address,uint256)": {
        "notice": "Complete swap by minting Mojo (owner or oracle calls after verification)."
      },
      "requestSwap(uint256)": {
        "notice": "Request swap (called after burning PJK on Polygon)."
      }
    },
    "notice": "Handles PJK burn events from Polygon and mints Mojo on Optimism.",
    "version": 1
  }
}