{
  "_format": "hh-sol-artifact-1",
  "contractName": "Mojo",
  "sourceName": "contracts/mojo.sol",
  "abi": [
    {
      "inputs": [
        {
          "internalType": "address",
          "name": "_initialOwner",
          "type": "address"
        }
      ],
      "stateMutability": "nonpayable",
      "type": "constructor"
    },
    {
      "inputs": [],
      "name": "ContractMetadataUnauthorized",
      "type": "error"
    },
    {
      "inputs": [],
      "name": "OwnableUnauthorized",
      "type": "error"
    },
    {
      "anonymous": false,
      "inputs": [
        {
          "indexed": true,
          "internalType": "address",
          "name": "owner",
          "type": "address"
        },
        {
          "indexed": true,
          "internalType": "address",
          "name": "spender",
          "type": "address"
        },
        {
          "indexed": false,
          "internalType": "uint256",
          "name": "value",
          "type": "uint256"
        }
      ],
      "name": "Approval",
      "type": "event"
    },
    {
      "anonymous": false,
      "inputs": [
        {
          "indexed": false,
          "internalType": "string",
          "name": "prevURI",
          "type": "string"
        },
        {
          "indexed": false,
          "internalType": "string",
          "name": "newURI",
          "type": "string"
        }
      ],
      "name": "ContractURIUpdated",
      "type": "event"
    },
    {
      "anonymous": false,
      "inputs": [
        {
          "indexed": true,
          "internalType": "bytes32",
          "name": "projectId",
          "type": "bytes32"
        },
        {
          "indexed": true,
          "internalType": "address",
          "name": "contributor",
          "type": "address"
        },
        {
          "indexed": false,
          "internalType": "enum Mojo.Role",
          "name": "role",
          "type": "uint8"
        },
        {
          "indexed": false,
          "internalType": "uint256",
          "name": "percentage",
          "type": "uint256"
        }
      ],
      "name": "ContributionRecorded",
      "type": "event"
    },
    {
      "anonymous": false,
      "inputs": [
        {
          "indexed": true,
          "internalType": "address",
          "name": "prevOwner",
          "type": "address"
        },
        {
          "indexed": true,
          "internalType": "address",
          "name": "newOwner",
          "type": "address"
        }
      ],
      "name": "OwnerUpdated",
      "type": "event"
    },
    {
      "anonymous": false,
      "inputs": [
        {
          "indexed": true,
          "internalType": "address",
          "name": "burner",
          "type": "address"
        },
        {
          "indexed": false,
          "internalType": "uint256",
          "name": "amount",
          "type": "uint256"
        }
      ],
      "name": "TokensBurned",
      "type": "event"
    },
    {
      "anonymous": false,
      "inputs": [
        {
          "indexed": true,
          "internalType": "address",
          "name": "mintedTo",
          "type": "address"
        },
        {
          "indexed": false,
          "internalType": "uint256",
          "name": "quantityMinted",
          "type": "uint256"
        }
      ],
      "name": "TokensMinted",
      "type": "event"
    },
    {
      "anonymous": false,
      "inputs": [
        {
          "indexed": true,
          "internalType": "address",
          "name": "from",
          "type": "address"
        },
        {
          "indexed": true,
          "internalType": "address",
          "name": "to",
          "type": "address"
        },
        {
          "indexed": false,
          "internalType": "uint256",
          "name": "value",
          "type": "uint256"
        }
      ],
      "name": "Transfer",
      "type": "event"
    },
    {
      "inputs": [],
      "name": "DESIGNATOR",
      "outputs": [
        {
          "internalType": "string",
          "name": "",
          "type": "string"
        }
      ],
      "stateMutability": "view",
      "type": "function"
    },
    {
      "inputs": [],
      "name": "DOMAIN_SEPARATOR",
      "outputs": [
        {
          "internalType": "bytes32",
          "name": "",
          "type": "bytes32"
        }
      ],
      "stateMutability": "view",
      "type": "function"
    },
    {
      "inputs": [],
      "name": "TOTAL_SUPPLY",
      "outputs": [
        {
          "internalType": "uint256",
          "name": "",
          "type": "uint256"
        }
      ],
      "stateMutability": "view",
      "type": "function"
    },
    {
      "inputs": [
        {
          "internalType": "address",
          "name": "to",
          "type": "address"
        },
        {
          "internalType": "uint256",
          "name": "amount",
          "type": "uint256"
        },
        {
          "internalType": "bytes32",
          "name": "projectId",
          "type": "bytes32"
        },
        {
          "internalType": "enum Mojo.Role",
          "name": "role",
          "type": "uint8"
        },
        {
          "internalType": "uint256",
          "name": "percentage",
          "type": "uint256"
        }
      ],
      "name": "allocateContribution",
      "outputs": [],
      "stateMutability": "nonpayable",
      "type": "function"
    },
    {
      "inputs": [
        {
          "internalType": "address",
          "name": "owner",
          "type": "address"
        },
        {
          "internalType": "address",
          "name": "spender",
          "type": "address"
        }
      ],
      "name": "allowance",
      "outputs": [
        {
          "internalType": "uint256",
          "name": "",
          "type": "uint256"
        }
      ],
      "stateMutability": "view",
      "type": "function"
    },
    {
      "inputs": [
        {
          "internalType": "address",
          "name": "spender",
          "type": "address"
        },
        {
          "internalType": "uint256",
          "name": "amount",
          "type": "uint256"
        }
      ],
      "name": "approve",
      "outputs": [
        {
          "internalType": "bool",
          "name": "",
          "type": "bool"
        }
      ],
      "stateMutability": "nonpayable",
      "type": "function"
    },
    {
      "inputs": [
        {
          "internalType": "address",
          "name": "account",
          "type": "address"
        }
      ],
      "name": "balanceOf",
      "outputs": [
        {
          "internalType": "uint256",
          "name": "",
          "type": "uint256"
        }
      ],
      "stateMutability": "view",
      "type": "function"
    },
    {
      "inputs": [
        {
          "internalType": "uint256",
          "name": "amount",
          "type": "uint256"
        }
      ],
      "name": "burn",
      "outputs": [],
      "stateMutability": "nonpayable",
      "type": "function"
    },
    {
      "inputs": [
        {
          "internalType": "address",
          "name": "_account",
          "type": "address"
        },
        {
          "internalType": "uint256",
          "name": "_amount",
          "type": "uint256"
        }
      ],
      "name": "burnFrom",
      "outputs": [],
      "stateMutability": "nonpayable",
      "type": "function"
    },
    {
      "inputs": [],
      "name": "contractURI",
      "outputs": [
        {
          "internalType": "string",
          "name": "",
          "type": "string"
        }
      ],
      "stateMutability": "view",
      "type": "function"
    },
    {
      "inputs": [],
      "name": "decimals",
      "outputs": [
        {
          "internalType": "uint8",
          "name": "",
          "type": "uint8"
        }
      ],
      "stateMutability": "view",
      "type": "function"
    },
    {
      "inputs": [
        {
          "internalType": "address",
          "name": "spender",
          "type": "address"
        },
        {
          "internalType": "uint256",
          "name": "subtractedValue",
          "type": "uint256"
        }
      ],
      "name": "decreaseAllowance",
      "outputs": [
        {
          "internalType": "bool",
          "name": "",
          "type": "bool"
        }
      ],
      "stateMutability": "nonpayable",
      "type": "function"
    },
    {
      "inputs": [
        {
          "internalType": "address",
          "name": "spender",
          "type": "address"
        },
        {
          "internalType": "uint256",
          "name": "addedValue",
          "type": "uint256"
        }
      ],
      "name": "increaseAllowance",
      "outputs": [
        {
          "internalType": "bool",
          "name": "",
          "type": "bool"
        }
      ],
      "stateMutability": "nonpayable",
      "type": "function"
    },
    {
      "inputs": [
        {
          "internalType": "address",
          "name": "_to",
          "type": "address"
        },
        {
          "internalType": "uint256",
          "name": "_amount",
          "type": "uint256"
        }
      ],
      "name": "mintTo",
      "outputs": [],
      "stateMutability": "nonpayable",
      "type": "function"
    },
    {
      "inputs": [
        {
          "internalType": "bytes[]",
          "name": "data",
          "type": "bytes[]"
        }
      ],
      "name": "multicall",
      "outputs": [
        {
          "internalType": "bytes[]",
          "name": "results",
          "type": "bytes[]"
        }
      ],
      "stateMutability": "nonpayable",
      "type": "function"
    },
    {
      "inputs": [],
      "name": "name",
      "outputs": [
        {
          "internalType": "string",
          "name": "",
          "type": "string"
        }
      ],
      "stateMutability": "view",
      "type": "function"
    },
    {
      "inputs": [
        {
          "internalType": "address",
          "name": "owner",
          "type": "address"
        }
      ],
      "name": "nonces",
      "outputs": [
        {
          "internalType": "uint256",
          "name": "",
          "type": "uint256"
        }
      ],
      "stateMutability": "view",
      "type": "function"
    },
    {
      "inputs": [],
      "name": "owner",
      "outputs": [
        {
          "internalType": "address",
          "name": "",
          "type": "address"
        }
      ],
      "stateMutability": "view",
      "type": "function"
    },
    {
      "inputs": [
        {
          "internalType": "address",
          "name": "owner",
          "type": "address"
        },
        {
          "internalType": "address",
          "name": "spender",
          "type": "address"
        },
        {
          "internalType": "uint256",
          "name": "value",
          "type": "uint256"
        },
        {
          "internalType": "uint256",
          "name": "deadline",
          "type": "uint256"
        },
        {
          "internalType": "uint8",
          "name": "v",
          "type": "uint8"
        },
        {
          "internalType": "bytes32",
          "name": "r",
          "type": "bytes32"
        },
        {
          "internalType": "bytes32",
          "name": "s",
          "type": "bytes32"
        }
      ],
      "name": "permit",
      "outputs": [],
      "stateMutability": "nonpayable",
      "type": "function"
    },
    {
      "inputs": [
        {
          "internalType": "bytes32",
          "name": "",
          "type": "bytes32"
        },
        {
          "internalType": "uint256",
          "name": "",
          "type": "uint256"
        }
      ],
      "name": "projectContributions",
      "outputs": [
        {
          "internalType": "address",
          "name": "contributor",
          "type": "address"
        },
        {
          "internalType": "enum Mojo.Role",
          "name": "role",
          "type": "uint8"
        },
        {
          "internalType": "uint256",
          "name": "percentage",
          "type": "uint256"
        },
        {
          "internalType": "uint256",
          "name": "timestamp",
          "type": "uint256"
        }
      ],
      "stateMutability": "view",
      "type": "function"
    },
    {
      "inputs": [
        {
          "internalType": "string",
          "name": "_uri",
          "type": "string"
        }
      ],
      "name": "setContractURI",
      "outputs": [],
      "stateMutability": "nonpayable",
      "type": "function"
    },
    {
      "inputs": [
        {
          "internalType": "address",
          "name": "_newOwner",
          "type": "address"
        }
      ],
      "name": "setOwner",
      "outputs": [],
      "stateMutability": "nonpayable",
      "type": "function"
    },
    {
      "inputs": [],
      "name": "symbol",
      "outputs": [
        {
          "internalType": "string",
          "name": "",
          "type": "string"
        }
      ],
      "stateMutability": "view",
      "type": "function"
    },
    {
      "inputs": [],
      "name": "totalSupply",
      "outputs": [
        {
          "internalType": "uint256",
          "name": "",
          "type": "uint256"
        }
      ],
      "stateMutability": "view",
      "type": "function"
    },
    {
      "inputs": [
        {
          "internalType": "address",
          "name": "to",
          "type": "address"
        },
        {
          "internalType": "uint256",
          "name": "amount",
          "type": "uint256"
        }
      ],
      "name": "transfer",
      "outputs": [
        {
          "internalType": "bool",
          "name": "",
          "type": "bool"
        }
      ],
      "stateMutability": "nonpayable",
      "type": "function"
    },
    {
      "inputs": [
        {
          "internalType": "address",
          "name": "from",
          "type": "address"
        },
        {
          "internalType": "address",
          "name": "to",
          "type": "address"
        },
        {
          "internalType": "uint256",
          "name": "amount",
          "type": "uint256"
        }
      ],
      "name": "transferFrom",
      "outputs": [
        {
          "internalType": "bool",
          "name": "",
          "type": "bool"
        }
      ],
      "stateMutability": "nonpayable",
      "type": "function"
    }
  ],
  "bytecode": "0x6101006040527f6e71edae12b1b97f4d1f60370fef10105fa2faae0126114a169c64845d6126c960e0908152503480156200003957600080fd5b50604051620049f1380380620049f183398181016040528101906200005f91906200055d565b806040518060400160405280600481526020017f4d6f6a6f000000000000000000000000000000000000000000000000000000008152506040518060400160405280600481526020017f4d4f4a4f00000000000000000000000000000000000000000000000000000000815250818181818160059081620000e1919062000809565b508060069081620000f3919062000809565b5050504660a081815250503073ffffffffffffffffffffffffffffffffffffffff1660c08173ffffffffffffffffffffffffffffffffffffffff1681525050620001426200018260201b60201c565b6080818152505050506200015c836200021060201b60201c565b5050506200017b8169d3c21bcecceda1000000620002d660201b60201c565b5062000a94565b60007f8b73c3c69bb8fe3d512ecc4cf759cc79239f7b179b0ffacaa9a75d522b39400f620001b56200044f60201b60201c565b805190602001207fc89efdaa54c0f20c7adf612882df0950f5a951637e0307cdcb4c672f298b8bc64630604051602001620001f59594939291906200092d565b60405160208183030381529060405280519060200120905090565b6000600160009054906101000a900473ffffffffffffffffffffffffffffffffffffffff16905081600160006101000a81548173ffffffffffffffffffffffffffffffffffffffff021916908373ffffffffffffffffffffffffffffffffffffffff1602179055508173ffffffffffffffffffffffffffffffffffffffff168173ffffffffffffffffffffffffffffffffffffffff167f8292fce18fa69edf4db7b94ea2e58241df0ae57f97e0a6c9b29067028bf92d7660405160405180910390a35050565b600073ffffffffffffffffffffffffffffffffffffffff168273ffffffffffffffffffffffffffffffffffffffff160362000348576040517f08c379a00000000000000000000000000000000000000000000000000000000081526004016200033f90620009eb565b60405180910390fd5b6200035c60008383620004e960201b60201c565b806004600082825462000370919062000a3c565b9250508190555080600260008473ffffffffffffffffffffffffffffffffffffffff1673ffffffffffffffffffffffffffffffffffffffff1681526020019081526020016000206000828254620003c8919062000a3c565b925050819055508173ffffffffffffffffffffffffffffffffffffffff16600073ffffffffffffffffffffffffffffffffffffffff167fddf252ad1be2c89b69c2b068fc378daa952ba7f163c4a11628f55a4df523b3ef836040516200042f919062000a77565b60405180910390a36200044b60008383620004ee60201b60201c565b5050565b6060600580546200046090620005f8565b80601f01602080910402602001604051908101604052809291908181526020018280546200048e90620005f8565b8015620004df5780601f10620004b357610100808354040283529160200191620004df565b820191906000526020600020905b815481529060010190602001808311620004c157829003601f168201915b5050505050905090565b505050565b505050565b600080fd5b600073ffffffffffffffffffffffffffffffffffffffff82169050919050565b60006200052582620004f8565b9050919050565b620005378162000518565b81146200054357600080fd5b50565b60008151905062000557816200052c565b92915050565b600060208284031215620005765762000575620004f3565b5b6000620005868482850162000546565b91505092915050565b600081519050919050565b7f4e487b7100000000000000000000000000000000000000000000000000000000600052604160045260246000fd5b7f4e487b7100000000000000000000000000000000000000000000000000000000600052602260045260246000fd5b600060028204905060018216806200061157607f821691505b602082108103620006275762000626620005c9565b5b50919050565b60008190508160005260206000209050919050565b60006020601f8301049050919050565b600082821b905092915050565b600060088302620006917fffffffffffffffffffffffffffffffffffffffffffffffffffffffffffffffff8262000652565b6200069d868362000652565b95508019841693508086168417925050509392505050565b6000819050919050565b6000819050919050565b6000620006ea620006e4620006de84620006b5565b620006bf565b620006b5565b9050919050565b6000819050919050565b6200070683620006c9565b6200071e6200071582620006f1565b8484546200065f565b825550505050565b600090565b6200073562000726565b62000742818484620006fb565b505050565b5b818110156200076a576200075e6000826200072b565b60018101905062000748565b5050565b601f821115620007b95762000783816200062d565b6200078e8462000642565b810160208510156200079e578190505b620007b6620007ad8562000642565b83018262000747565b50505b505050565b600082821c905092915050565b6000620007de60001984600802620007be565b1980831691505092915050565b6000620007f98383620007cb565b9150826002028217905092915050565b62000814826200058f565b67ffffffffffffffff81111562000830576200082f6200059a565b5b6200083c8254620005f8565b620008498282856200076e565b600060209050601f8311600181146200088157600084156200086c578287015190505b620008788582620007eb565b865550620008e8565b601f19841662000891866200062d565b60005b82811015620008bb5784890151825560018201915060208501945060208101905062000894565b86831015620008db5784890151620008d7601f891682620007cb565b8355505b6001600288020188555050505b505050505050565b6000819050919050565b6200090581620008f0565b82525050565b6200091681620006b5565b82525050565b620009278162000518565b82525050565b600060a082019050620009446000830188620008fa565b620009536020830187620008fa565b620009626040830186620008fa565b6200097160608301856200090b565b6200098060808301846200091c565b9695505050505050565b600082825260208201905092915050565b7f45524332303a206d696e7420746f20746865207a65726f206164647265737300600082015250565b6000620009d3601f836200098a565b9150620009e0826200099b565b602082019050919050565b6000602082019050818103600083015262000a0681620009c4565b9050919050565b7f4e487b7100000000000000000000000000000000000000000000000000000000600052601160045260246000fd5b600062000a4982620006b5565b915062000a5683620006b5565b925082820190508082111562000a715762000a7062000a0d565b5b92915050565b600060208201905062000a8e60008301846200090b565b92915050565b60805160a05160c05160e051613f2362000ace6000396000610f2a0152600061068d015260006106e30152600061070c0152613f236000f3fe608060405234801561001057600080fd5b506004361061018e5760003560e01c806379cc6790116100de578063a457c2d711610097578063d505accf11610071578063d505accf146104c2578063d9cdee0d146104de578063dd62ed3e146104fa578063e8a3d4851461052a5761018e565b8063a457c2d714610432578063a9059cbb14610462578063ac9650d8146104925761018e565b806379cc6790146103705780637ecebe001461038c5780638da5cb5b146103bc578063902d55a5146103da578063938e3d7b146103f857806395d89b41146104145761018e565b80633644e5151161014b578063449a52f811610125578063449a52f8146102d357806370a08231146102ef5780637261fa291461031f5780637606329b146103525761018e565b80633644e51514610269578063395093511461028757806342966c68146102b75761018e565b806306fdde0314610193578063095ea7b3146101b157806313af4035146101e157806318160ddd146101fd57806323b872dd1461021b578063313ce5671461024b575b600080fd5b61019b610548565b6040516101a891906124a1565b60405180910390f35b6101cb60048036038101906101c6919061256b565b6105da565b6040516101d891906125c6565b60405180910390f35b6101fb60048036038101906101f691906125e1565b6105fd565b005b610205610647565b604051610212919061261d565b60405180910390f35b61023560048036038101906102309190612638565b610651565b60405161024291906125c6565b60405180910390f35b610253610680565b60405161026091906126a7565b60405180910390f35b610271610689565b60405161027e91906126db565b60405180910390f35b6102a1600480360381019061029c919061256b565b610740565b6040516102ae91906125c6565b60405180910390f35b6102d160048036038101906102cc91906126f6565b6107ea565b005b6102ed60048036038101906102e8919061256b565b610845565b005b610309600480360381019061030491906125e1565b6108dd565b604051610316919061261d565b60405180910390f35b6103396004803603810190610334919061274f565b610926565b6040516103499493929190612815565b60405180910390f35b61035a6109a0565b60405161036791906124a1565b60405180910390f35b61038a6004803603810190610385919061256b565b6109d9565b005b6103a660048036038101906103a191906125e1565b610aaa565b6040516103b3919061261d565b60405180910390f35b6103c4610afa565b6040516103d1919061285a565b60405180910390f35b6103e2610b24565b6040516103ef919061261d565b60405180910390f35b610412600480360381019061040d91906129aa565b610b32565b005b61041c610b7c565b60405161042991906124a1565b60405180910390f35b61044c6004803603810190610447919061256b565b610c0e565b60405161045991906125c6565b60405180910390f35b61047c6004803603810190610477919061256b565b610cf8565b60405161048991906125c6565b60405180910390f35b6104ac60048036038101906104a79190612a53565b610d1b565b6040516104b99190612bb7565b60405180910390f35b6104dc60048036038101906104d79190612c05565b610ee3565b005b6104f860048036038101906104f39190612ccc565b61102d565b005b610514600480360381019061050f9190612d47565b6112f1565b604051610521919061261d565b60405180910390f35b610532611378565b60405161053f91906124a1565b60405180910390f35b60606005805461055790612db6565b80601f016020809104026020016040519081016040528092919081815260200182805461058390612db6565b80156105d05780601f106105a5576101008083540402835291602001916105d0565b820191906000526020600020905b8154815290600101906020018083116105b357829003601f168201915b5050505050905090565b6000806105e5611406565b90506105f281858561140e565b600191505092915050565b6106056115d7565b61063b576040517f2d99739600000000000000000000000000000000000000000000000000000000815260040160405180910390fd5b61064481611614565b50565b6000600454905090565b60008061065c611406565b90506106698582856116da565b610674858585611766565b60019150509392505050565b60006012905090565b60007f000000000000000000000000000000000000000000000000000000000000000073ffffffffffffffffffffffffffffffffffffffff163073ffffffffffffffffffffffffffffffffffffffff1614801561070557507f000000000000000000000000000000000000000000000000000000000000000046145b15610732577f0000000000000000000000000000000000000000000000000000000000000000905061073d565b61073a6119e8565b90505b90565b60008061074b611406565b90506107df818585600360008673ffffffffffffffffffffffffffffffffffffffff1673ffffffffffffffffffffffffffffffffffffffff16815260200190815260200160002060008973ffffffffffffffffffffffffffffffffffffffff1673ffffffffffffffffffffffffffffffffffffffff168152602001908152602001600020546107da9190612e16565b61140e565b600191505092915050565b6107f43382611a6c565b3373ffffffffffffffffffffffffffffffffffffffff167ffd38818f5291bf0bb3a2a48aadc06ba8757865d1dabd804585338aab3009dcb68260405161083a919061261d565b60405180910390a250565b61084d611c44565b61088c576040517f08c379a000000000000000000000000000000000000000000000000000000000815260040161088390612e96565b60405180910390fd5b600081036108cf576040517f08c379a00000000000000000000000000000000000000000000000000000000081526004016108c690612f02565b60405180910390fd5b6108d98282611c81565b5050565b6000600260008373ffffffffffffffffffffffffffffffffffffffff1673ffffffffffffffffffffffffffffffffffffffff168152602001908152602001600020549050919050565b6008602052816000526040600020818154811061094257600080fd5b9060005260206000209060030201600091509150508060000160009054906101000a900473ffffffffffffffffffffffffffffffffffffffff16908060000160149054906101000a900460ff16908060010154908060020154905084565b6040518060400160405280601981526020017f50726f647563657250726f746f636f6c4d61696e546f6b656e0000000000000081525081565b6109e1611de1565b610a20576040517f08c379a0000000000000000000000000000000000000000000000000000000008152600401610a1790612f6e565b60405180910390fd5b80610a2a836108dd565b1015610a6b576040517f08c379a0000000000000000000000000000000000000000000000000000000008152600401610a6290612fda565b60405180910390fd5b600081610a7884336112f1565b610a829190612ffa565b9050610a908333600061140e565b610a9b83338361140e565b610aa58383611a6c565b505050565b6000610af3600760008473ffffffffffffffffffffffffffffffffffffffff1673ffffffffffffffffffffffffffffffffffffffff168152602001908152602001600020611e1e565b9050919050565b6000600160009054906101000a900473ffffffffffffffffffffffffffffffffffffffff16905090565b69d3c21bcecceda100000081565b610b3a611e2c565b610b70576040517f9f7f092500000000000000000000000000000000000000000000000000000000815260040160405180910390fd5b610b7981611e69565b50565b606060068054610b8b90612db6565b80601f0160208091040260200160405190810160405280929190818152602001828054610bb790612db6565b8015610c045780601f10610bd957610100808354040283529160200191610c04565b820191906000526020600020905b815481529060010190602001808311610be757829003601f168201915b5050505050905090565b600080610c19611406565b90506000600360008373ffffffffffffffffffffffffffffffffffffffff1673ffffffffffffffffffffffffffffffffffffffff16815260200190815260200160002060008673ffffffffffffffffffffffffffffffffffffffff1673ffffffffffffffffffffffffffffffffffffffff16815260200190815260200160002054905083811015610cdf576040517f08c379a0000000000000000000000000000000000000000000000000000000008152600401610cd6906130a0565b60405180910390fd5b610cec828686840361140e565b60019250505092915050565b600080610d03611406565b9050610d10818585611766565b600191505092915050565b60608282905067ffffffffffffffff811115610d3a57610d3961287f565b5b604051908082528060200260200182016040528015610d6d57816020015b6060815260200190600190039081610d585790505b5090506000610d7a611406565b905060008173ffffffffffffffffffffffffffffffffffffffff163373ffffffffffffffffffffffffffffffffffffffff161415905060005b85859050811015610eda578115610e3757610e1430878784818110610ddb57610dda6130c0565b5b9050602002810190610ded91906130fe565b86604051602001610e00939291906131d9565b604051602081830303815290604052611f44565b848281518110610e2757610e266130c0565b5b6020026020010181905250610ec7565b610ea830878784818110610e4e57610e4d6130c0565b5b9050602002810190610e6091906130fe565b8080601f016020809104026020016040519081016040528093929190818152602001838380828437600081840152601f19601f82011690508083019250505050505050611f44565b848281518110610ebb57610eba6130c0565b5b60200260200101819052505b8080610ed290613203565b915050610db3565b50505092915050565b83421115610f26576040517f08c379a0000000000000000000000000000000000000000000000000000000008152600401610f1d90613297565b60405180910390fd5b60007f0000000000000000000000000000000000000000000000000000000000000000888888610f558c611f71565b89604051602001610f6b969594939291906132b7565b6040516020818303038152906040528051906020012090506000610f96610f90610689565b83611fcf565b90506000610fa682878787612010565b90508973ffffffffffffffffffffffffffffffffffffffff168173ffffffffffffffffffffffffffffffffffffffff1614611016576040517f08c379a000000000000000000000000000000000000000000000000000000000815260040161100d90613364565b60405180910390fd5b6110218a8a8a61140e565b50505050505050505050565b600160009054906101000a900473ffffffffffffffffffffffffffffffffffffffff1673ffffffffffffffffffffffffffffffffffffffff163373ffffffffffffffffffffffffffffffffffffffff16146110b4576040517f2d99739600000000000000000000000000000000000000000000000000000000815260040160405180910390fd5b600073ffffffffffffffffffffffffffffffffffffffff168573ffffffffffffffffffffffffffffffffffffffff1603611123576040517f08c379a000000000000000000000000000000000000000000000000000000000815260040161111a906133d0565b60405180910390fd5b8361113461112f610afa565b6108dd565b1015611175576040517f08c379a000000000000000000000000000000000000000000000000000000000815260040161116c9061343c565b60405180910390fd5b611187611180610afa565b8686611766565b6008600084815260200190815260200160002060405180608001604052808773ffffffffffffffffffffffffffffffffffffffff1681526020018460018111156111d4576111d361279e565b5b815260200183815260200142815250908060018154018082558091505060019003906000526020600020906003020160009091909190915060008201518160000160006101000a81548173ffffffffffffffffffffffffffffffffffffffff021916908373ffffffffffffffffffffffffffffffffffffffff16021790555060208201518160000160146101000a81548160ff0219169083600181111561127e5761127d61279e565b5b0217905550604082015181600101556060820151816002015550508473ffffffffffffffffffffffffffffffffffffffff16837fe61fff04519ec4968ac0495e2e80af6a9c688db045b5c00ab20ee392e0aa738384846040516112e292919061345c565b60405180910390a35050505050565b6000600360008473ffffffffffffffffffffffffffffffffffffffff1673ffffffffffffffffffffffffffffffffffffffff16815260200190815260200160002060008373ffffffffffffffffffffffffffffffffffffffff1673ffffffffffffffffffffffffffffffffffffffff16815260200190815260200160002054905092915050565b6000805461138590612db6565b80601f01602080910402602001604051908101604052809291908181526020018280546113b190612db6565b80156113fe5780601f106113d3576101008083540402835291602001916113fe565b820191906000526020600020905b8154815290600101906020018083116113e157829003601f168201915b505050505081565b600033905090565b600073ffffffffffffffffffffffffffffffffffffffff168373ffffffffffffffffffffffffffffffffffffffff160361147d576040517f08c379a0000000000000000000000000000000000000000000000000000000008152600401611474906134f7565b60405180910390fd5b600073ffffffffffffffffffffffffffffffffffffffff168273ffffffffffffffffffffffffffffffffffffffff16036114ec576040517f08c379a00000000000000000000000000000000000000000000000000000000081526004016114e390613589565b60405180910390fd5b80600360008573ffffffffffffffffffffffffffffffffffffffff1673ffffffffffffffffffffffffffffffffffffffff16815260200190815260200160002060008473ffffffffffffffffffffffffffffffffffffffff1673ffffffffffffffffffffffffffffffffffffffff168152602001908152602001600020819055508173ffffffffffffffffffffffffffffffffffffffff168373ffffffffffffffffffffffffffffffffffffffff167f8c5be1e5ebec7d5bd14f71427d1e84f3dd0314c0f7b2291e5b200ac8c7c3b925836040516115ca919061261d565b60405180910390a3505050565b60006115e1610afa565b73ffffffffffffffffffffffffffffffffffffffff163373ffffffffffffffffffffffffffffffffffffffff1614905090565b6000600160009054906101000a900473ffffffffffffffffffffffffffffffffffffffff16905081600160006101000a81548173ffffffffffffffffffffffffffffffffffffffff021916908373ffffffffffffffffffffffffffffffffffffffff1602179055508173ffffffffffffffffffffffffffffffffffffffff168173ffffffffffffffffffffffffffffffffffffffff167f8292fce18fa69edf4db7b94ea2e58241df0ae57f97e0a6c9b29067028bf92d7660405160405180910390a35050565b60006116e684846112f1565b90507fffffffffffffffffffffffffffffffffffffffffffffffffffffffffffffffff81146117605781811015611752576040517f08c379a0000000000000000000000000000000000000000000000000000000008152600401611749906135f5565b60405180910390fd5b61175f848484840361140e565b5b50505050565b600073ffffffffffffffffffffffffffffffffffffffff168373ffffffffffffffffffffffffffffffffffffffff16036117d5576040517f08c379a00000000000000000000000000000000000000000000000000000000081526004016117cc90613687565b60405180910390fd5b600073ffffffffffffffffffffffffffffffffffffffff168273ffffffffffffffffffffffffffffffffffffffff1603611844576040517f08c379a000000000000000000000000000000000000000000000000000000000815260040161183b90613719565b60405180910390fd5b61184f83838361203b565b6000600260008573ffffffffffffffffffffffffffffffffffffffff1673ffffffffffffffffffffffffffffffffffffffff168152602001908152602001600020549050818110156118d6576040517f08c379a00000000000000000000000000000000000000000000000000000000081526004016118cd906137ab565b60405180910390fd5b818103600260008673ffffffffffffffffffffffffffffffffffffffff1673ffffffffffffffffffffffffffffffffffffffff1681526020019081526020016000208190555081600260008573ffffffffffffffffffffffffffffffffffffffff1673ffffffffffffffffffffffffffffffffffffffff168152602001908152602001600020600082825461196b9190612e16565b925050819055508273ffffffffffffffffffffffffffffffffffffffff168473ffffffffffffffffffffffffffffffffffffffff167fddf252ad1be2c89b69c2b068fc378daa952ba7f163c4a11628f55a4df523b3ef846040516119cf919061261d565b60405180910390a36119e2848484612040565b50505050565b60007f8b73c3c69bb8fe3d512ecc4cf759cc79239f7b179b0ffacaa9a75d522b39400f611a13610548565b805190602001207fc89efdaa54c0f20c7adf612882df0950f5a951637e0307cdcb4c672f298b8bc64630604051602001611a519594939291906137cb565b60405160208183030381529060405280519060200120905090565b600073ffffffffffffffffffffffffffffffffffffffff168273ffffffffffffffffffffffffffffffffffffffff1603611adb576040517f08c379a0000000000000000000000000000000000000000000000000000000008152600401611ad290613890565b60405180910390fd5b611ae78260008361203b565b6000600260008473ffffffffffffffffffffffffffffffffffffffff1673ffffffffffffffffffffffffffffffffffffffff16815260200190815260200160002054905081811015611b6e576040517f08c379a0000000000000000000000000000000000000000000000000000000008152600401611b6590613922565b60405180910390fd5b818103600260008573ffffffffffffffffffffffffffffffffffffffff1673ffffffffffffffffffffffffffffffffffffffff168152602001908152602001600020819055508160046000828254611bc69190612ffa565b92505081905550600073ffffffffffffffffffffffffffffffffffffffff168373ffffffffffffffffffffffffffffffffffffffff167fddf252ad1be2c89b69c2b068fc378daa952ba7f163c4a11628f55a4df523b3ef84604051611c2b919061261d565b60405180910390a3611c3f83600084612040565b505050565b6000611c4e610afa565b73ffffffffffffffffffffffffffffffffffffffff163373ffffffffffffffffffffffffffffffffffffffff1614905090565b600073ffffffffffffffffffffffffffffffffffffffff168273ffffffffffffffffffffffffffffffffffffffff1603611cf0576040517f08c379a0000000000000000000000000000000000000000000000000000000008152600401611ce79061398e565b60405180910390fd5b611cfc6000838361203b565b8060046000828254611d0e9190612e16565b9250508190555080600260008473ffffffffffffffffffffffffffffffffffffffff1673ffffffffffffffffffffffffffffffffffffffff1681526020019081526020016000206000828254611d649190612e16565b925050819055508173ffffffffffffffffffffffffffffffffffffffff16600073ffffffffffffffffffffffffffffffffffffffff167fddf252ad1be2c89b69c2b068fc378daa952ba7f163c4a11628f55a4df523b3ef83604051611dc9919061261d565b60405180910390a3611ddd60008383612040565b5050565b6000611deb610afa565b73ffffffffffffffffffffffffffffffffffffffff163373ffffffffffffffffffffffffffffffffffffffff1614905090565b600081600001549050919050565b6000611e36610afa565b73ffffffffffffffffffffffffffffffffffffffff163373ffffffffffffffffffffffffffffffffffffffff1614905090565b6000808054611e7790612db6565b80601f0160208091040260200160405190810160405280929190818152602001828054611ea390612db6565b8015611ef05780601f10611ec557610100808354040283529160200191611ef0565b820191906000526020600020905b815481529060010190602001808311611ed357829003601f168201915b505050505090508160009081611f069190613b5a565b507fc9c7c3fe08b88b4df9d4d47ef47d2c43d55c025a0ba88ca442580ed9e7348a168183604051611f38929190613c2c565b60405180910390a15050565b6060611f698383604051806060016040528060278152602001613ec760279139612045565b905092915050565b600080600760008473ffffffffffffffffffffffffffffffffffffffff1673ffffffffffffffffffffffffffffffffffffffff1681526020019081526020016000209050611fbe81611e1e565b9150611fc9816120cb565b50919050565b60006040517f190100000000000000000000000000000000000000000000000000000000000081528360028201528260228201526042812091505092915050565b6000806000612021878787876120e1565b9150915061202e816121c3565b8192505050949350505050565b505050565b505050565b60606000808573ffffffffffffffffffffffffffffffffffffffff168560405161206f9190613c94565b600060405180830381855af49150503d80600081146120aa576040519150601f19603f3d011682016040523d82523d6000602084013e6120af565b606091505b50915091506120c086838387612329565b925050509392505050565b6001816000016000828254019250508190555050565b6000807f7fffffffffffffffffffffffffffffff5d576e7357a4501ddfe92f46681b20a08360001c111561211c5760006003915091506121ba565b6000600187878787604051600081526020016040526040516121419493929190613cab565b6020604051602081039080840390855afa158015612163573d6000803e3d6000fd5b505050602060405103519050600073ffffffffffffffffffffffffffffffffffffffff168173ffffffffffffffffffffffffffffffffffffffff16036121b1576000600192509250506121ba565b80600092509250505b94509492505050565b600060048111156121d7576121d661279e565b5b8160048111156121ea576121e961279e565b5b031561232657600160048111156122045761220361279e565b5b8160048111156122175761221661279e565b5b03612257576040517f08c379a000000000000000000000000000000000000000000000000000000000815260040161224e90613d3c565b60405180910390fd5b6002600481111561226b5761226a61279e565b5b81600481111561227e5761227d61279e565b5b036122be576040517f08c379a00000000000000000000000000000000000000000000000000000000081526004016122b590613da8565b60405180910390fd5b600360048111156122d2576122d161279e565b5b8160048111156122e5576122e461279e565b5b03612325576040517f08c379a000000000000000000000000000000000000000000000000000000000815260040161231c90613e3a565b60405180910390fd5b5b50565b6060831561238b576000835103612383576123438561239e565b612382576040517f08c379a000000000000000000000000000000000000000000000000000000000815260040161237990613ea6565b60405180910390fd5b5b829050612396565b61239583836123c1565b5b949350505050565b6000808273ffffffffffffffffffffffffffffffffffffffff163b119050919050565b6000825111156123d45781518083602001fd5b806040517f08c379a000000000000000000000000000000000000000000000000000000000815260040161240891906124a1565b60405180910390fd5b600081519050919050565b600082825260208201905092915050565b60005b8381101561244b578082015181840152602081019050612430565b60008484015250505050565b6000601f19601f8301169050919050565b600061247382612411565b61247d818561241c565b935061248d81856020860161242d565b61249681612457565b840191505092915050565b600060208201905081810360008301526124bb8184612468565b905092915050565b6000604051905090565b600080fd5b600080fd5b600073ffffffffffffffffffffffffffffffffffffffff82169050919050565b6000612502826124d7565b9050919050565b612512816124f7565b811461251d57600080fd5b50565b60008135905061252f81612509565b92915050565b6000819050919050565b61254881612535565b811461255357600080fd5b50565b6000813590506125658161253f565b92915050565b60008060408385031215612582576125816124cd565b5b600061259085828601612520565b92505060206125a185828601612556565b9150509250929050565b60008115159050919050565b6125c0816125ab565b82525050565b60006020820190506125db60008301846125b7565b92915050565b6000602082840312156125f7576125f66124cd565b5b600061260584828501612520565b91505092915050565b61261781612535565b82525050565b6000602082019050612632600083018461260e565b92915050565b600080600060608486031215612651576126506124cd565b5b600061265f86828701612520565b935050602061267086828701612520565b925050604061268186828701612556565b9150509250925092565b600060ff82169050919050565b6126a18161268b565b82525050565b60006020820190506126bc6000830184612698565b92915050565b6000819050919050565b6126d5816126c2565b82525050565b60006020820190506126f060008301846126cc565b92915050565b60006020828403121561270c5761270b6124cd565b5b600061271a84828501612556565b91505092915050565b61272c816126c2565b811461273757600080fd5b50565b60008135905061274981612723565b92915050565b60008060408385031215612766576127656124cd565b5b60006127748582860161273a565b925050602061278585828601612556565b9150509250929050565b612798816124f7565b82525050565b7f4e487b7100000000000000000000000000000000000000000000000000000000600052602160045260246000fd5b600281106127de576127dd61279e565b5b50565b60008190506127ef826127cd565b919050565b60006127ff826127e1565b9050919050565b61280f816127f4565b82525050565b600060808201905061282a600083018761278f565b6128376020830186612806565b612844604083018561260e565b612851606083018461260e565b95945050505050565b600060208201905061286f600083018461278f565b92915050565b600080fd5b600080fd5b7f4e487b7100000000000000000000000000000000000000000000000000000000600052604160045260246000fd5b6128b782612457565b810181811067ffffffffffffffff821117156128d6576128d561287f565b5b80604052505050565b60006128e96124c3565b90506128f582826128ae565b919050565b600067ffffffffffffffff8211156129155761291461287f565b5b61291e82612457565b9050602081019050919050565b82818337600083830152505050565b600061294d612948846128fa565b6128df565b9050828152602081018484840111156129695761296861287a565b5b61297484828561292b565b509392505050565b600082601f83011261299157612990612875565b5b81356129a184826020860161293a565b91505092915050565b6000602082840312156129c0576129bf6124cd565b5b600082013567ffffffffffffffff8111156129de576129dd6124d2565b5b6129ea8482850161297c565b91505092915050565b600080fd5b600080fd5b60008083601f840112612a1357612a12612875565b5b8235905067ffffffffffffffff811115612a3057612a2f6129f3565b5b602083019150836020820283011115612a4c57612a4b6129f8565b5b9250929050565b60008060208385031215612a6a57612a696124cd565b5b600083013567ffffffffffffffff811115612a8857612a876124d2565b5b612a94858286016129fd565b92509250509250929050565b600081519050919050565b600082825260208201905092915050565b6000819050602082019050919050565b600081519050919050565b600082825260208201905092915050565b6000612af382612acc565b612afd8185612ad7565b9350612b0d81856020860161242d565b612b1681612457565b840191505092915050565b6000612b2d8383612ae8565b905092915050565b6000602082019050919050565b6000612b4d82612aa0565b612b578185612aab565b935083602082028501612b6985612abc565b8060005b85811015612ba55784840389528151612b868582612b21565b9450612b9183612b35565b925060208a01995050600181019050612b6d565b50829750879550505050505092915050565b60006020820190508181036000830152612bd18184612b42565b905092915050565b612be28161268b565b8114612bed57600080fd5b50565b600081359050612bff81612bd9565b92915050565b600080600080600080600060e0888a031215612c2457612c236124cd565b5b6000612c328a828b01612520565b9750506020612c438a828b01612520565b9650506040612c548a828b01612556565b9550506060612c658a828b01612556565b9450506080612c768a828b01612bf0565b93505060a0612c878a828b0161273a565b92505060c0612c988a828b0161273a565b91505092959891949750929550565b60028110612cb457600080fd5b50565b600081359050612cc681612ca7565b92915050565b600080600080600060a08688031215612ce857612ce76124cd565b5b6000612cf688828901612520565b9550506020612d0788828901612556565b9450506040612d188882890161273a565b9350506060612d2988828901612cb7565b9250506080612d3a88828901612556565b9150509295509295909350565b60008060408385031215612d5e57612d5d6124cd565b5b6000612d6c85828601612520565b9250506020612d7d85828601612520565b9150509250929050565b7f4e487b7100000000000000000000000000000000000000000000000000000000600052602260045260246000fd5b60006002820490506001821680612dce57607f821691505b602082108103612de157612de0612d87565b5b50919050565b7f4e487b7100000000000000000000000000000000000000000000000000000000600052601160045260246000fd5b6000612e2182612535565b9150612e2c83612535565b9250828201905080821115612e4457612e43612de7565b5b92915050565b7f4e6f7420617574686f72697a656420746f206d696e742e000000000000000000600082015250565b6000612e8060178361241c565b9150612e8b82612e4a565b602082019050919050565b60006020820190508181036000830152612eaf81612e73565b9050919050565b7f4d696e74696e67207a65726f20746f6b656e732e000000000000000000000000600082015250565b6000612eec60148361241c565b9150612ef782612eb6565b602082019050919050565b60006020820190508181036000830152612f1b81612edf565b9050919050565b7f4e6f7420617574686f72697a656420746f206275726e2e000000000000000000600082015250565b6000612f5860178361241c565b9150612f6382612f22565b602082019050919050565b60006020820190508181036000830152612f8781612f4b565b9050919050565b7f6e6f7420656e6f7567682062616c616e63650000000000000000000000000000600082015250565b6000612fc460128361241c565b9150612fcf82612f8e565b602082019050919050565b60006020820190508181036000830152612ff381612fb7565b9050919050565b600061300582612535565b915061301083612535565b925082820390508181111561302857613027612de7565b5b92915050565b7f45524332303a2064656372656173656420616c6c6f77616e63652062656c6f7760008201527f207a65726f000000000000000000000000000000000000000000000000000000602082015250565b600061308a60258361241c565b91506130958261302e565b604082019050919050565b600060208201905081810360008301526130b98161307d565b9050919050565b7f4e487b7100000000000000000000000000000000000000000000000000000000600052603260045260246000fd5b600080fd5b600080fd5b600080fd5b6000808335600160200384360303811261311b5761311a6130ef565b5b80840192508235915067ffffffffffffffff82111561313d5761313c6130f4565b5b602083019250600182023603831315613159576131586130f9565b5b509250929050565b600081905092915050565b60006131788385613161565b935061318583858461292b565b82840190509392505050565b60008160601b9050919050565b60006131a982613191565b9050919050565b60006131bb8261319e565b9050919050565b6131d36131ce826124f7565b6131b0565b82525050565b60006131e682858761316c565b91506131f282846131c2565b601482019150819050949350505050565b600061320e82612535565b91507fffffffffffffffffffffffffffffffffffffffffffffffffffffffffffffffff82036132405761323f612de7565b5b600182019050919050565b7f45524332305065726d69743a206578706972656420646561646c696e65000000600082015250565b6000613281601d8361241c565b915061328c8261324b565b602082019050919050565b600060208201905081810360008301526132b081613274565b9050919050565b600060c0820190506132cc60008301896126cc565b6132d9602083018861278f565b6132e6604083018761278f565b6132f3606083018661260e565b613300608083018561260e565b61330d60a083018461260e565b979650505050505050565b7f45524332305065726d69743a20696e76616c6964207369676e61747572650000600082015250565b600061334e601e8361241c565b915061335982613318565b602082019050919050565b6000602082019050818103600083015261337d81613341565b9050919050565b7f496e76616c696420726563697069656e74000000000000000000000000000000600082015250565b60006133ba60118361241c565b91506133c582613384565b602082019050919050565b600060208201905081810360008301526133e9816133ad565b9050919050565b7f496e73756666696369656e7420747265617375727920746f6b656e7300000000600082015250565b6000613426601c8361241c565b9150613431826133f0565b602082019050919050565b6000602082019050818103600083015261345581613419565b9050919050565b60006040820190506134716000830185612806565b61347e602083018461260e565b9392505050565b7f45524332303a20617070726f76652066726f6d20746865207a65726f2061646460008201527f7265737300000000000000000000000000000000000000000000000000000000602082015250565b60006134e160248361241c565b91506134ec82613485565b604082019050919050565b60006020820190508181036000830152613510816134d4565b9050919050565b7f45524332303a20617070726f766520746f20746865207a65726f20616464726560008201527f7373000000000000000000000000000000000000000000000000000000000000602082015250565b600061357360228361241c565b915061357e82613517565b604082019050919050565b600060208201905081810360008301526135a281613566565b9050919050565b7f45524332303a20696e73756666696369656e7420616c6c6f77616e6365000000600082015250565b60006135df601d8361241c565b91506135ea826135a9565b602082019050919050565b6000602082019050818103600083015261360e816135d2565b9050919050565b7f45524332303a207472616e736665722066726f6d20746865207a65726f20616460008201527f6472657373000000000000000000000000000000000000000000000000000000602082015250565b600061367160258361241c565b915061367c82613615565b604082019050919050565b600060208201905081810360008301526136a081613664565b9050919050565b7f45524332303a207472616e7366657220746f20746865207a65726f206164647260008201527f6573730000000000000000000000000000000000000000000000000000000000602082015250565b600061370360238361241c565b915061370e826136a7565b604082019050919050565b60006020820190508181036000830152613732816136f6565b9050919050565b7f45524332303a207472616e7366657220616d6f756e742065786365656473206260008201527f616c616e63650000000000000000000000000000000000000000000000000000602082015250565b600061379560268361241c565b91506137a082613739565b604082019050919050565b600060208201905081810360008301526137c481613788565b9050919050565b600060a0820190506137e060008301886126cc565b6137ed60208301876126cc565b6137fa60408301866126cc565b613807606083018561260e565b613814608083018461278f565b9695505050505050565b7f45524332303a206275726e2066726f6d20746865207a65726f2061646472657360008201527f7300000000000000000000000000000000000000000000000000000000000000602082015250565b600061387a60218361241c565b91506138858261381e565b604082019050919050565b600060208201905081810360008301526138a98161386d565b9050919050565b7f45524332303a206275726e20616d6f756e7420657863656564732062616c616e60008201527f6365000000000000000000000000000000000000000000000000000000000000602082015250565b600061390c60228361241c565b9150613917826138b0565b604082019050919050565b6000602082019050818103600083015261393b816138ff565b9050919050565b7f45524332303a206d696e7420746f20746865207a65726f206164647265737300600082015250565b6000613978601f8361241c565b915061398382613942565b602082019050919050565b600060208201905081810360008301526139a78161396b565b9050919050565b60008190508160005260206000209050919050565b60006020601f8301049050919050565b600082821b905092915050565b600060088302613a107fffffffffffffffffffffffffffffffffffffffffffffffffffffffffffffffff826139d3565b613a1a86836139d3565b95508019841693508086168417925050509392505050565b6000819050919050565b6000613a57613a52613a4d84612535565b613a32565b612535565b9050919050565b6000819050919050565b613a7183613a3c565b613a85613a7d82613a5e565b8484546139e0565b825550505050565b600090565b613a9a613a8d565b613aa5818484613a68565b505050565b5b81811015613ac957613abe600082613a92565b600181019050613aab565b5050565b601f821115613b0e57613adf816139ae565b613ae8846139c3565b81016020851015613af7578190505b613b0b613b03856139c3565b830182613aaa565b50505b505050565b600082821c905092915050565b6000613b3160001984600802613b13565b1980831691505092915050565b6000613b4a8383613b20565b9150826002028217905092915050565b613b6382612411565b67ffffffffffffffff811115613b7c57613b7b61287f565b5b613b868254612db6565b613b91828285613acd565b600060209050601f831160018114613bc45760008415613bb2578287015190505b613bbc8582613b3e565b865550613c24565b601f198416613bd2866139ae565b60005b82811015613bfa57848901518255600182019150602085019450602081019050613bd5565b86831015613c175784890151613c13601f891682613b20565b8355505b6001600288020188555050505b505050505050565b60006040820190508181036000830152613c468185612468565b90508181036020830152613c5a8184612468565b90509392505050565b6000613c6e82612acc565b613c788185613161565b9350613c8881856020860161242d565b80840191505092915050565b6000613ca08284613c63565b915081905092915050565b6000608082019050613cc060008301876126cc565b613ccd6020830186612698565b613cda60408301856126cc565b613ce760608301846126cc565b95945050505050565b7f45434453413a20696e76616c6964207369676e61747572650000000000000000600082015250565b6000613d2660188361241c565b9150613d3182613cf0565b602082019050919050565b60006020820190508181036000830152613d5581613d19565b9050919050565b7f45434453413a20696e76616c6964207369676e6174757265206c656e67746800600082015250565b6000613d92601f8361241c565b9150613d9d82613d5c565b602082019050919050565b60006020820190508181036000830152613dc181613d85565b9050919050565b7f45434453413a20696e76616c6964207369676e6174757265202773272076616c60008201527f7565000000000000000000000000000000000000000000000000000000000000602082015250565b6000613e2460228361241c565b9150613e2f82613dc8565b604082019050919050565b60006020820190508181036000830152613e5381613e17565b9050919050565b7f416464726573733a2063616c6c20746f206e6f6e2d636f6e7472616374000000600082015250565b6000613e90601d8361241c565b9150613e9b82613e5a565b602082019050919050565b60006020820190508181036000830152613ebf81613e83565b905091905056fe416464726573733a206c6f772d6c6576656c2064656c65676174652063616c6c206661696c6564a2646970667358221220584cd2078e683c651eee3d7dd25f8b86a5e882d26d2b612fe03b926bcee8197a64736f6c63430008110033",
  "linkReferences": {},
  "deployedLinkReferences": {}
}