{
  "_format": "hh-sol-artifact-1",
  "contractName": "Mojo",
  "sourceName": "contracts/mojo.sol",
  "abi": [
    {
      "inputs": [
        {
          "internalType": "address",
          "name": "_initialOwner",
          "type": "address"
        }
      ],
      "stateMutability": "nonpayable",
      "type": "constructor"
    },
    {
      "inputs": [],
      "name": "ContractMetadataUnauthorized",
      "type": "error"
    },
    {
      "inputs": [],
      "name": "OwnableUnauthorized",
      "type": "error"
    },
    {
      "anonymous": false,
      "inputs": [
        {
          "indexed": true,
          "internalType": "address",
          "name": "owner",
          "type": "address"
        },
        {
          "indexed": true,
          "internalType": "address",
          "name": "spender",
          "type": "address"
        },
        {
          "indexed": false,
          "internalType": "uint256",
          "name": "value",
          "type": "uint256"
        }
      ],
      "name": "Approval",
      "type": "event"
    },
    {
      "anonymous": false,
      "inputs": [
        {
          "indexed": false,
          "internalType": "string",
          "name": "prevURI",
          "type": "string"
        },
        {
          "indexed": false,
          "internalType": "string",
          "name": "newURI",
          "type": "string"
        }
      ],
      "name": "ContractURIUpdated",
      "type": "event"
    },
    {
      "anonymous": false,
      "inputs": [
        {
          "indexed": true,
          "internalType": "bytes32",
          "name": "projectId",
          "type": "bytes32"
        },
        {
          "indexed": true,
          "internalType": "address",
          "name": "contributor",
          "type": "address"
        },
        {
          "indexed": false,
          "internalType": "enum Mojo.Role",
          "name": "role",
          "type": "uint8"
        },
        {
          "indexed": false,
          "internalType": "uint256",
          "name": "percentage",
          "type": "uint256"
        }
      ],
      "name": "ContributionRecorded",
      "type": "event"
    },
    {
      "anonymous": false,
      "inputs": [
        {
          "indexed": true,
          "internalType": "address",
          "name": "prevOwner",
          "type": "address"
        },
        {
          "indexed": true,
          "internalType": "address",
          "name": "newOwner",
          "type": "address"
        }
      ],
      "name": "OwnerUpdated",
      "type": "event"
    },
    {
      "anonymous": false,
      "inputs": [
        {
          "indexed": true,
          "internalType": "address",
          "name": "burner",
          "type": "address"
        },
        {
          "indexed": false,
          "internalType": "uint256",
          "name": "amount",
          "type": "uint256"
        }
      ],
      "name": "TokensBurned",
      "type": "event"
    },
    {
      "anonymous": false,
      "inputs": [
        {
          "indexed": true,
          "internalType": "address",
          "name": "mintedTo",
          "type": "address"
        },
        {
          "indexed": false,
          "internalType": "uint256",
          "name": "quantityMinted",
          "type": "uint256"
        }
      ],
      "name": "TokensMinted",
      "type": "event"
    },
    {
      "anonymous": false,
      "inputs": [
        {
          "indexed": true,
          "internalType": "address",
          "name": "from",
          "type": "address"
        },
        {
          "indexed": true,
          "internalType": "address",
          "name": "to",
          "type": "address"
        },
        {
          "indexed": false,
          "internalType": "uint256",
          "name": "value",
          "type": "uint256"
        }
      ],
      "name": "Transfer",
      "type": "event"
    },
    {
      "inputs": [],
      "name": "DOMAIN_SEPARATOR",
      "outputs": [
        {
          "internalType": "bytes32",
          "name": "",
          "type": "bytes32"
        }
      ],
      "stateMutability": "view",
      "type": "function"
    },
    {
      "inputs": [],
      "name": "TOTAL_SUPPLY",
      "outputs": [
        {
          "internalType": "uint256",
          "name": "",
          "type": "uint256"
        }
      ],
      "stateMutability": "view",
      "type": "function"
    },
    {
      "inputs": [
        {
          "internalType": "address",
          "name": "to",
          "type": "address"
        },
        {
          "internalType": "uint256",
          "name": "amount",
          "type": "uint256"
        },
        {
          "internalType": "bytes32",
          "name": "projectId",
          "type": "bytes32"
        },
        {
          "internalType": "enum Mojo.Role",
          "name": "role",
          "type": "uint8"
        },
        {
          "internalType": "uint256",
          "name": "percentage",
          "type": "uint256"
        }
      ],
      "name": "allocateContribution",
      "outputs": [],
      "stateMutability": "nonpayable",
      "type": "function"
    },
    {
      "inputs": [
        {
          "internalType": "address",
          "name": "owner",
          "type": "address"
        },
        {
          "internalType": "address",
          "name": "spender",
          "type": "address"
        }
      ],
      "name": "allowance",
      "outputs": [
        {
          "internalType": "uint256",
          "name": "",
          "type": "uint256"
        }
      ],
      "stateMutability": "view",
      "type": "function"
    },
    {
      "inputs": [
        {
          "internalType": "address",
          "name": "spender",
          "type": "address"
        },
        {
          "internalType": "uint256",
          "name": "amount",
          "type": "uint256"
        }
      ],
      "name": "approve",
      "outputs": [
        {
          "internalType": "bool",
          "name": "",
          "type": "bool"
        }
      ],
      "stateMutability": "nonpayable",
      "type": "function"
    },
    {
      "inputs": [
        {
          "internalType": "address",
          "name": "account",
          "type": "address"
        }
      ],
      "name": "balanceOf",
      "outputs": [
        {
          "internalType": "uint256",
          "name": "",
          "type": "uint256"
        }
      ],
      "stateMutability": "view",
      "type": "function"
    },
    {
      "inputs": [
        {
          "internalType": "uint256",
          "name": "amount",
          "type": "uint256"
        }
      ],
      "name": "burn",
      "outputs": [],
      "stateMutability": "nonpayable",
      "type": "function"
    },
    {
      "inputs": [
        {
          "internalType": "address",
          "name": "_account",
          "type": "address"
        },
        {
          "internalType": "uint256",
          "name": "_amount",
          "type": "uint256"
        }
      ],
      "name": "burnFrom",
      "outputs": [],
      "stateMutability": "nonpayable",
      "type": "function"
    },
    {
      "inputs": [],
      "name": "contractURI",
      "outputs": [
        {
          "internalType": "string",
          "name": "",
          "type": "string"
        }
      ],
      "stateMutability": "view",
      "type": "function"
    },
    {
      "inputs": [],
      "name": "decimals",
      "outputs": [
        {
          "internalType": "uint8",
          "name": "",
          "type": "uint8"
        }
      ],
      "stateMutability": "view",
      "type": "function"
    },
    {
      "inputs": [
        {
          "internalType": "address",
          "name": "spender",
          "type": "address"
        },
        {
          "internalType": "uint256",
          "name": "subtractedValue",
          "type": "uint256"
        }
      ],
      "name": "decreaseAllowance",
      "outputs": [
        {
          "internalType": "bool",
          "name": "",
          "type": "bool"
        }
      ],
      "stateMutability": "nonpayable",
      "type": "function"
    },
    {
      "inputs": [
        {
          "internalType": "address",
          "name": "spender",
          "type": "address"
        },
        {
          "internalType": "uint256",
          "name": "addedValue",
          "type": "uint256"
        }
      ],
      "name": "increaseAllowance",
      "outputs": [
        {
          "internalType": "bool",
          "name": "",
          "type": "bool"
        }
      ],
      "stateMutability": "nonpayable",
      "type": "function"
    },
    {
      "inputs": [
        {
          "internalType": "address",
          "name": "_to",
          "type": "address"
        },
        {
          "internalType": "uint256",
          "name": "_amount",
          "type": "uint256"
        }
      ],
      "name": "mintTo",
      "outputs": [],
      "stateMutability": "nonpayable",
      "type": "function"
    },
    {
      "inputs": [
        {
          "internalType": "bytes[]",
          "name": "data",
          "type": "bytes[]"
        }
      ],
      "name": "multicall",
      "outputs": [
        {
          "internalType": "bytes[]",
          "name": "results",
          "type": "bytes[]"
        }
      ],
      "stateMutability": "nonpayable",
      "type": "function"
    },
    {
      "inputs": [],
      "name": "name",
      "outputs": [
        {
          "internalType": "string",
          "name": "",
          "type": "string"
        }
      ],
      "stateMutability": "view",
      "type": "function"
    },
    {
      "inputs": [
        {
          "internalType": "address",
          "name": "owner",
          "type": "address"
        }
      ],
      "name": "nonces",
      "outputs": [
        {
          "internalType": "uint256",
          "name": "",
          "type": "uint256"
        }
      ],
      "stateMutability": "view",
      "type": "function"
    },
    {
      "inputs": [],
      "name": "owner",
      "outputs": [
        {
          "internalType": "address",
          "name": "",
          "type": "address"
        }
      ],
      "stateMutability": "view",
      "type": "function"
    },
    {
      "inputs": [
        {
          "internalType": "address",
          "name": "owner",
          "type": "address"
        },
        {
          "internalType": "address",
          "name": "spender",
          "type": "address"
        },
        {
          "internalType": "uint256",
          "name": "value",
          "type": "uint256"
        },
        {
          "internalType": "uint256",
          "name": "deadline",
          "type": "uint256"
        },
        {
          "internalType": "uint8",
          "name": "v",
          "type": "uint8"
        },
        {
          "internalType": "bytes32",
          "name": "r",
          "type": "bytes32"
        },
        {
          "internalType": "bytes32",
          "name": "s",
          "type": "bytes32"
        }
      ],
      "name": "permit",
      "outputs": [],
      "stateMutability": "nonpayable",
      "type": "function"
    },
    {
      "inputs": [
        {
          "internalType": "bytes32",
          "name": "",
          "type": "bytes32"
        },
        {
          "internalType": "uint256",
          "name": "",
          "type": "uint256"
        }
      ],
      "name": "projectContributions",
      "outputs": [
        {
          "internalType": "address",
          "name": "contributor",
          "type": "address"
        },
        {
          "internalType": "enum Mojo.Role",
          "name": "role",
          "type": "uint8"
        },
        {
          "internalType": "uint256",
          "name": "percentage",
          "type": "uint256"
        },
        {
          "internalType": "uint256",
          "name": "timestamp",
          "type": "uint256"
        }
      ],
      "stateMutability": "view",
      "type": "function"
    },
    {
      "inputs": [
        {
          "internalType": "string",
          "name": "_uri",
          "type": "string"
        }
      ],
      "name": "setContractURI",
      "outputs": [],
      "stateMutability": "nonpayable",
      "type": "function"
    },
    {
      "inputs": [
        {
          "internalType": "address",
          "name": "_newOwner",
          "type": "address"
        }
      ],
      "name": "setOwner",
      "outputs": [],
      "stateMutability": "nonpayable",
      "type": "function"
    },
    {
      "inputs": [],
      "name": "symbol",
      "outputs": [
        {
          "internalType": "string",
          "name": "",
          "type": "string"
        }
      ],
      "stateMutability": "view",
      "type": "function"
    },
    {
      "inputs": [],
      "name": "totalSupply",
      "outputs": [
        {
          "internalType": "uint256",
          "name": "",
          "type": "uint256"
        }
      ],
      "stateMutability": "view",
      "type": "function"
    },
    {
      "inputs": [
        {
          "internalType": "address",
          "name": "to",
          "type": "address"
        },
        {
          "internalType": "uint256",
          "name": "amount",
          "type": "uint256"
        }
      ],
      "name": "transfer",
      "outputs": [
        {
          "internalType": "bool",
          "name": "",
          "type": "bool"
        }
      ],
      "stateMutability": "nonpayable",
      "type": "function"
    },
    {
      "inputs": [
        {
          "internalType": "address",
          "name": "from",
          "type": "address"
        },
        {
          "internalType": "address",
          "name": "to",
          "type": "address"
        },
        {
          "internalType": "uint256",
          "name": "amount",
          "type": "uint256"
        }
      ],
      "name": "transferFrom",
      "outputs": [
        {
          "internalType": "bool",
          "name": "",
          "type": "bool"
        }
      ],
      "stateMutability": "nonpayable",
      "type": "function"
    }
  ],
  "bytecode": "0x6101006040527f6e71edae12b1b97f4d1f60370fef10105fa2faae0126114a169c64845d6126c960e0908152503480156200003957600080fd5b506040516200497f3803806200497f83398181016040528101906200005f91906200055d565b806040518060400160405280600481526020017f4d6f6a6f000000000000000000000000000000000000000000000000000000008152506040518060400160405280600481526020017f4d4f4a4f00000000000000000000000000000000000000000000000000000000815250818181818160059081620000e1919062000809565b508060069081620000f3919062000809565b5050504660a081815250503073ffffffffffffffffffffffffffffffffffffffff1660c08173ffffffffffffffffffffffffffffffffffffffff1681525050620001426200018260201b60201c565b6080818152505050506200015c836200021060201b60201c565b5050506200017b8169d3c21bcecceda1000000620002d660201b60201c565b5062000a94565b60007f8b73c3c69bb8fe3d512ecc4cf759cc79239f7b179b0ffacaa9a75d522b39400f620001b56200044f60201b60201c565b805190602001207fc89efdaa54c0f20c7adf612882df0950f5a951637e0307cdcb4c672f298b8bc64630604051602001620001f59594939291906200092d565b60405160208183030381529060405280519060200120905090565b6000600160009054906101000a900473ffffffffffffffffffffffffffffffffffffffff16905081600160006101000a81548173ffffffffffffffffffffffffffffffffffffffff021916908373ffffffffffffffffffffffffffffffffffffffff1602179055508173ffffffffffffffffffffffffffffffffffffffff168173ffffffffffffffffffffffffffffffffffffffff167f8292fce18fa69edf4db7b94ea2e58241df0ae57f97e0a6c9b29067028bf92d7660405160405180910390a35050565b600073ffffffffffffffffffffffffffffffffffffffff168273ffffffffffffffffffffffffffffffffffffffff160362000348576040517f08c379a00000000000000000000000000000000000000000000000000000000081526004016200033f90620009eb565b60405180910390fd5b6200035c60008383620004e960201b60201c565b806004600082825462000370919062000a3c565b9250508190555080600260008473ffffffffffffffffffffffffffffffffffffffff1673ffffffffffffffffffffffffffffffffffffffff1681526020019081526020016000206000828254620003c8919062000a3c565b925050819055508173ffffffffffffffffffffffffffffffffffffffff16600073ffffffffffffffffffffffffffffffffffffffff167fddf252ad1be2c89b69c2b068fc378daa952ba7f163c4a11628f55a4df523b3ef836040516200042f919062000a77565b60405180910390a36200044b60008383620004ee60201b60201c565b5050565b6060600580546200046090620005f8565b80601f01602080910402602001604051908101604052809291908181526020018280546200048e90620005f8565b8015620004df5780601f10620004b357610100808354040283529160200191620004df565b820191906000526020600020905b815481529060010190602001808311620004c157829003601f168201915b5050505050905090565b505050565b505050565b600080fd5b600073ffffffffffffffffffffffffffffffffffffffff82169050919050565b60006200052582620004f8565b9050919050565b620005378162000518565b81146200054357600080fd5b50565b60008151905062000557816200052c565b92915050565b600060208284031215620005765762000575620004f3565b5b6000620005868482850162000546565b91505092915050565b600081519050919050565b7f4e487b7100000000000000000000000000000000000000000000000000000000600052604160045260246000fd5b7f4e487b7100000000000000000000000000000000000000000000000000000000600052602260045260246000fd5b600060028204905060018216806200061157607f821691505b602082108103620006275762000626620005c9565b5b50919050565b60008190508160005260206000209050919050565b60006020601f8301049050919050565b600082821b905092915050565b600060088302620006917fffffffffffffffffffffffffffffffffffffffffffffffffffffffffffffffff8262000652565b6200069d868362000652565b95508019841693508086168417925050509392505050565b6000819050919050565b6000819050919050565b6000620006ea620006e4620006de84620006b5565b620006bf565b620006b5565b9050919050565b6000819050919050565b6200070683620006c9565b6200071e6200071582620006f1565b8484546200065f565b825550505050565b600090565b6200073562000726565b62000742818484620006fb565b505050565b5b818110156200076a576200075e6000826200072b565b60018101905062000748565b5050565b601f821115620007b95762000783816200062d565b6200078e8462000642565b810160208510156200079e578190505b620007b6620007ad8562000642565b83018262000747565b50505b505050565b600082821c905092915050565b6000620007de60001984600802620007be565b1980831691505092915050565b6000620007f98383620007cb565b9150826002028217905092915050565b62000814826200058f565b67ffffffffffffffff81111562000830576200082f6200059a565b5b6200083c8254620005f8565b620008498282856200076e565b600060209050601f8311600181146200088157600084156200086c578287015190505b620008788582620007eb565b865550620008e8565b601f19841662000891866200062d565b60005b82811015620008bb5784890151825560018201915060208501945060208101905062000894565b86831015620008db5784890151620008d7601f891682620007cb565b8355505b6001600288020188555050505b505050505050565b6000819050919050565b6200090581620008f0565b82525050565b6200091681620006b5565b82525050565b620009278162000518565b82525050565b600060a082019050620009446000830188620008fa565b620009536020830187620008fa565b620009626040830186620008fa565b6200097160608301856200090b565b6200098060808301846200091c565b9695505050505050565b600082825260208201905092915050565b7f45524332303a206d696e7420746f20746865207a65726f206164647265737300600082015250565b6000620009d3601f836200098a565b9150620009e0826200099b565b602082019050919050565b6000602082019050818103600083015262000a0681620009c4565b9050919050565b7f4e487b7100000000000000000000000000000000000000000000000000000000600052601160045260246000fd5b600062000a4982620006b5565b915062000a5683620006b5565b925082820190508082111562000a715762000a7062000a0d565b5b92915050565b600060208201905062000a8e60008301846200090b565b92915050565b60805160a05160c05160e051613eb162000ace6000396000610eb801526000610654015260006106aa015260006106d30152613eb16000f3fe608060405234801561001057600080fd5b50600436106101735760003560e01c806379cc6790116100de578063a457c2d711610097578063d505accf11610071578063d505accf14610489578063d9cdee0d146104a5578063dd62ed3e146104c1578063e8a3d485146104f157610173565b8063a457c2d7146103f9578063a9059cbb14610429578063ac9650d81461045957610173565b806379cc6790146103375780637ecebe00146103535780638da5cb5b14610383578063902d55a5146103a1578063938e3d7b146103bf57806395d89b41146103db57610173565b80633644e515116101305780633644e5151461024e578063395093511461026c57806342966c681461029c578063449a52f8146102b857806370a08231146102d45780637261fa291461030457610173565b806306fdde0314610178578063095ea7b31461019657806313af4035146101c657806318160ddd146101e257806323b872dd14610200578063313ce56714610230575b600080fd5b61018061050f565b60405161018d919061242f565b60405180910390f35b6101b060048036038101906101ab91906124f9565b6105a1565b6040516101bd9190612554565b60405180910390f35b6101e060048036038101906101db919061256f565b6105c4565b005b6101ea61060e565b6040516101f791906125ab565b60405180910390f35b61021a600480360381019061021591906125c6565b610618565b6040516102279190612554565b60405180910390f35b610238610647565b6040516102459190612635565b60405180910390f35b610256610650565b6040516102639190612669565b60405180910390f35b610286600480360381019061028191906124f9565b610707565b6040516102939190612554565b60405180910390f35b6102b660048036038101906102b19190612684565b6107b1565b005b6102d260048036038101906102cd91906124f9565b61080c565b005b6102ee60048036038101906102e9919061256f565b6108a4565b6040516102fb91906125ab565b60405180910390f35b61031e600480360381019061031991906126dd565b6108ed565b60405161032e94939291906127a3565b60405180910390f35b610351600480360381019061034c91906124f9565b610967565b005b61036d6004803603810190610368919061256f565b610a38565b60405161037a91906125ab565b60405180910390f35b61038b610a88565b60405161039891906127e8565b60405180910390f35b6103a9610ab2565b6040516103b691906125ab565b60405180910390f35b6103d960048036038101906103d49190612938565b610ac0565b005b6103e3610b0a565b6040516103f0919061242f565b60405180910390f35b610413600480360381019061040e91906124f9565b610b9c565b6040516104209190612554565b60405180910390f35b610443600480360381019061043e91906124f9565b610c86565b6040516104509190612554565b60405180910390f35b610473600480360381019061046e91906129e1565b610ca9565b6040516104809190612b45565b60405180910390f35b6104a3600480360381019061049e9190612b93565b610e71565b005b6104bf60048036038101906104ba9190612c5a565b610fbb565b005b6104db60048036038101906104d69190612cd5565b61127f565b6040516104e891906125ab565b60405180910390f35b6104f9611306565b604051610506919061242f565b60405180910390f35b60606005805461051e90612d44565b80601f016020809104026020016040519081016040528092919081815260200182805461054a90612d44565b80156105975780601f1061056c57610100808354040283529160200191610597565b820191906000526020600020905b81548152906001019060200180831161057a57829003601f168201915b5050505050905090565b6000806105ac611394565b90506105b981858561139c565b600191505092915050565b6105cc611565565b610602576040517f2d99739600000000000000000000000000000000000000000000000000000000815260040160405180910390fd5b61060b816115a2565b50565b6000600454905090565b600080610623611394565b9050610630858285611668565b61063b8585856116f4565b60019150509392505050565b60006012905090565b60007f000000000000000000000000000000000000000000000000000000000000000073ffffffffffffffffffffffffffffffffffffffff163073ffffffffffffffffffffffffffffffffffffffff161480156106cc57507f000000000000000000000000000000000000000000000000000000000000000046145b156106f9577f00000000000000000000000000000000000000000000000000000000000000009050610704565b610701611976565b90505b90565b600080610712611394565b90506107a6818585600360008673ffffffffffffffffffffffffffffffffffffffff1673ffffffffffffffffffffffffffffffffffffffff16815260200190815260200160002060008973ffffffffffffffffffffffffffffffffffffffff1673ffffffffffffffffffffffffffffffffffffffff168152602001908152602001600020546107a19190612da4565b61139c565b600191505092915050565b6107bb33826119fa565b3373ffffffffffffffffffffffffffffffffffffffff167ffd38818f5291bf0bb3a2a48aadc06ba8757865d1dabd804585338aab3009dcb68260405161080191906125ab565b60405180910390a250565b610814611bd2565b610853576040517f08c379a000000000000000000000000000000000000000000000000000000000815260040161084a90612e24565b60405180910390fd5b60008103610896576040517f08c379a000000000000000000000000000000000000000000000000000000000815260040161088d90612e90565b60405180910390fd5b6108a08282611c0f565b5050565b6000600260008373ffffffffffffffffffffffffffffffffffffffff1673ffffffffffffffffffffffffffffffffffffffff168152602001908152602001600020549050919050565b6008602052816000526040600020818154811061090957600080fd5b9060005260206000209060030201600091509150508060000160009054906101000a900473ffffffffffffffffffffffffffffffffffffffff16908060000160149054906101000a900460ff16908060010154908060020154905084565b61096f611d6f565b6109ae576040517f08c379a00000000000000000000000000000000000000000000000000000000081526004016109a590612efc565b60405180910390fd5b806109b8836108a4565b10156109f9576040517f08c379a00000000000000000000000000000000000000000000000000000000081526004016109f090612f68565b60405180910390fd5b600081610a06843361127f565b610a109190612f88565b9050610a1e8333600061139c565b610a2983338361139c565b610a3383836119fa565b505050565b6000610a81600760008473ffffffffffffffffffffffffffffffffffffffff1673ffffffffffffffffffffffffffffffffffffffff168152602001908152602001600020611dac565b9050919050565b6000600160009054906101000a900473ffffffffffffffffffffffffffffffffffffffff16905090565b69d3c21bcecceda100000081565b610ac8611dba565b610afe576040517f9f7f092500000000000000000000000000000000000000000000000000000000815260040160405180910390fd5b610b0781611df7565b50565b606060068054610b1990612d44565b80601f0160208091040260200160405190810160405280929190818152602001828054610b4590612d44565b8015610b925780601f10610b6757610100808354040283529160200191610b92565b820191906000526020600020905b815481529060010190602001808311610b7557829003601f168201915b5050505050905090565b600080610ba7611394565b90506000600360008373ffffffffffffffffffffffffffffffffffffffff1673ffffffffffffffffffffffffffffffffffffffff16815260200190815260200160002060008673ffffffffffffffffffffffffffffffffffffffff1673ffffffffffffffffffffffffffffffffffffffff16815260200190815260200160002054905083811015610c6d576040517f08c379a0000000000000000000000000000000000000000000000000000000008152600401610c649061302e565b60405180910390fd5b610c7a828686840361139c565b60019250505092915050565b600080610c91611394565b9050610c9e8185856116f4565b600191505092915050565b60608282905067ffffffffffffffff811115610cc857610cc761280d565b5b604051908082528060200260200182016040528015610cfb57816020015b6060815260200190600190039081610ce65790505b5090506000610d08611394565b905060008173ffffffffffffffffffffffffffffffffffffffff163373ffffffffffffffffffffffffffffffffffffffff161415905060005b85859050811015610e68578115610dc557610da230878784818110610d6957610d6861304e565b5b9050602002810190610d7b919061308c565b86604051602001610d8e93929190613167565b604051602081830303815290604052611ed2565b848281518110610db557610db461304e565b5b6020026020010181905250610e55565b610e3630878784818110610ddc57610ddb61304e565b5b9050602002810190610dee919061308c565b8080601f016020809104026020016040519081016040528093929190818152602001838380828437600081840152601f19601f82011690508083019250505050505050611ed2565b848281518110610e4957610e4861304e565b5b60200260200101819052505b8080610e6090613191565b915050610d41565b50505092915050565b83421115610eb4576040517f08c379a0000000000000000000000000000000000000000000000000000000008152600401610eab90613225565b60405180910390fd5b60007f0000000000000000000000000000000000000000000000000000000000000000888888610ee38c611eff565b89604051602001610ef996959493929190613245565b6040516020818303038152906040528051906020012090506000610f24610f1e610650565b83611f5d565b90506000610f3482878787611f9e565b90508973ffffffffffffffffffffffffffffffffffffffff168173ffffffffffffffffffffffffffffffffffffffff1614610fa4576040517f08c379a0000000000000000000000000000000000000000000000000000000008152600401610f9b906132f2565b60405180910390fd5b610faf8a8a8a61139c565b50505050505050505050565b600160009054906101000a900473ffffffffffffffffffffffffffffffffffffffff1673ffffffffffffffffffffffffffffffffffffffff163373ffffffffffffffffffffffffffffffffffffffff1614611042576040517f2d99739600000000000000000000000000000000000000000000000000000000815260040160405180910390fd5b600073ffffffffffffffffffffffffffffffffffffffff168573ffffffffffffffffffffffffffffffffffffffff16036110b1576040517f08c379a00000000000000000000000000000000000000000000000000000000081526004016110a89061335e565b60405180910390fd5b836110c26110bd610a88565b6108a4565b1015611103576040517f08c379a00000000000000000000000000000000000000000000000000000000081526004016110fa906133ca565b60405180910390fd5b61111561110e610a88565b86866116f4565b6008600084815260200190815260200160002060405180608001604052808773ffffffffffffffffffffffffffffffffffffffff1681526020018460018111156111625761116161272c565b5b815260200183815260200142815250908060018154018082558091505060019003906000526020600020906003020160009091909190915060008201518160000160006101000a81548173ffffffffffffffffffffffffffffffffffffffff021916908373ffffffffffffffffffffffffffffffffffffffff16021790555060208201518160000160146101000a81548160ff0219169083600181111561120c5761120b61272c565b5b0217905550604082015181600101556060820151816002015550508473ffffffffffffffffffffffffffffffffffffffff16837fe61fff04519ec4968ac0495e2e80af6a9c688db045b5c00ab20ee392e0aa738384846040516112709291906133ea565b60405180910390a35050505050565b6000600360008473ffffffffffffffffffffffffffffffffffffffff1673ffffffffffffffffffffffffffffffffffffffff16815260200190815260200160002060008373ffffffffffffffffffffffffffffffffffffffff1673ffffffffffffffffffffffffffffffffffffffff16815260200190815260200160002054905092915050565b6000805461131390612d44565b80601f016020809104026020016040519081016040528092919081815260200182805461133f90612d44565b801561138c5780601f106113615761010080835404028352916020019161138c565b820191906000526020600020905b81548152906001019060200180831161136f57829003601f168201915b505050505081565b600033905090565b600073ffffffffffffffffffffffffffffffffffffffff168373ffffffffffffffffffffffffffffffffffffffff160361140b576040517f08c379a000000000000000000000000000000000000000000000000000000000815260040161140290613485565b60405180910390fd5b600073ffffffffffffffffffffffffffffffffffffffff168273ffffffffffffffffffffffffffffffffffffffff160361147a576040517f08c379a000000000000000000000000000000000000000000000000000000000815260040161147190613517565b60405180910390fd5b80600360008573ffffffffffffffffffffffffffffffffffffffff1673ffffffffffffffffffffffffffffffffffffffff16815260200190815260200160002060008473ffffffffffffffffffffffffffffffffffffffff1673ffffffffffffffffffffffffffffffffffffffff168152602001908152602001600020819055508173ffffffffffffffffffffffffffffffffffffffff168373ffffffffffffffffffffffffffffffffffffffff167f8c5be1e5ebec7d5bd14f71427d1e84f3dd0314c0f7b2291e5b200ac8c7c3b9258360405161155891906125ab565b60405180910390a3505050565b600061156f610a88565b73ffffffffffffffffffffffffffffffffffffffff163373ffffffffffffffffffffffffffffffffffffffff1614905090565b6000600160009054906101000a900473ffffffffffffffffffffffffffffffffffffffff16905081600160006101000a81548173ffffffffffffffffffffffffffffffffffffffff021916908373ffffffffffffffffffffffffffffffffffffffff1602179055508173ffffffffffffffffffffffffffffffffffffffff168173ffffffffffffffffffffffffffffffffffffffff167f8292fce18fa69edf4db7b94ea2e58241df0ae57f97e0a6c9b29067028bf92d7660405160405180910390a35050565b6000611674848461127f565b90507fffffffffffffffffffffffffffffffffffffffffffffffffffffffffffffffff81146116ee57818110156116e0576040517f08c379a00000000000000000000000000000000000000000000000000000000081526004016116d790613583565b60405180910390fd5b6116ed848484840361139c565b5b50505050565b600073ffffffffffffffffffffffffffffffffffffffff168373ffffffffffffffffffffffffffffffffffffffff1603611763576040517f08c379a000000000000000000000000000000000000000000000000000000000815260040161175a90613615565b60405180910390fd5b600073ffffffffffffffffffffffffffffffffffffffff168273ffffffffffffffffffffffffffffffffffffffff16036117d2576040517f08c379a00000000000000000000000000000000000000000000000000000000081526004016117c9906136a7565b60405180910390fd5b6117dd838383611fc9565b6000600260008573ffffffffffffffffffffffffffffffffffffffff1673ffffffffffffffffffffffffffffffffffffffff16815260200190815260200160002054905081811015611864576040517f08c379a000000000000000000000000000000000000000000000000000000000815260040161185b90613739565b60405180910390fd5b818103600260008673ffffffffffffffffffffffffffffffffffffffff1673ffffffffffffffffffffffffffffffffffffffff1681526020019081526020016000208190555081600260008573ffffffffffffffffffffffffffffffffffffffff1673ffffffffffffffffffffffffffffffffffffffff16815260200190815260200160002060008282546118f99190612da4565b925050819055508273ffffffffffffffffffffffffffffffffffffffff168473ffffffffffffffffffffffffffffffffffffffff167fddf252ad1be2c89b69c2b068fc378daa952ba7f163c4a11628f55a4df523b3ef8460405161195d91906125ab565b60405180910390a3611970848484611fce565b50505050565b60007f8b73c3c69bb8fe3d512ecc4cf759cc79239f7b179b0ffacaa9a75d522b39400f6119a161050f565b805190602001207fc89efdaa54c0f20c7adf612882df0950f5a951637e0307cdcb4c672f298b8bc646306040516020016119df959493929190613759565b60405160208183030381529060405280519060200120905090565b600073ffffffffffffffffffffffffffffffffffffffff168273ffffffffffffffffffffffffffffffffffffffff1603611a69576040517f08c379a0000000000000000000000000000000000000000000000000000000008152600401611a609061381e565b60405180910390fd5b611a7582600083611fc9565b6000600260008473ffffffffffffffffffffffffffffffffffffffff1673ffffffffffffffffffffffffffffffffffffffff16815260200190815260200160002054905081811015611afc576040517f08c379a0000000000000000000000000000000000000000000000000000000008152600401611af3906138b0565b60405180910390fd5b818103600260008573ffffffffffffffffffffffffffffffffffffffff1673ffffffffffffffffffffffffffffffffffffffff168152602001908152602001600020819055508160046000828254611b549190612f88565b92505081905550600073ffffffffffffffffffffffffffffffffffffffff168373ffffffffffffffffffffffffffffffffffffffff167fddf252ad1be2c89b69c2b068fc378daa952ba7f163c4a11628f55a4df523b3ef84604051611bb991906125ab565b60405180910390a3611bcd83600084611fce565b505050565b6000611bdc610a88565b73ffffffffffffffffffffffffffffffffffffffff163373ffffffffffffffffffffffffffffffffffffffff1614905090565b600073ffffffffffffffffffffffffffffffffffffffff168273ffffffffffffffffffffffffffffffffffffffff1603611c7e576040517f08c379a0000000000000000000000000000000000000000000000000000000008152600401611c759061391c565b60405180910390fd5b611c8a60008383611fc9565b8060046000828254611c9c9190612da4565b9250508190555080600260008473ffffffffffffffffffffffffffffffffffffffff1673ffffffffffffffffffffffffffffffffffffffff1681526020019081526020016000206000828254611cf29190612da4565b925050819055508173ffffffffffffffffffffffffffffffffffffffff16600073ffffffffffffffffffffffffffffffffffffffff167fddf252ad1be2c89b69c2b068fc378daa952ba7f163c4a11628f55a4df523b3ef83604051611d5791906125ab565b60405180910390a3611d6b60008383611fce565b5050565b6000611d79610a88565b73ffffffffffffffffffffffffffffffffffffffff163373ffffffffffffffffffffffffffffffffffffffff1614905090565b600081600001549050919050565b6000611dc4610a88565b73ffffffffffffffffffffffffffffffffffffffff163373ffffffffffffffffffffffffffffffffffffffff1614905090565b6000808054611e0590612d44565b80601f0160208091040260200160405190810160405280929190818152602001828054611e3190612d44565b8015611e7e5780601f10611e5357610100808354040283529160200191611e7e565b820191906000526020600020905b815481529060010190602001808311611e6157829003601f168201915b505050505090508160009081611e949190613ae8565b507fc9c7c3fe08b88b4df9d4d47ef47d2c43d55c025a0ba88ca442580ed9e7348a168183604051611ec6929190613bba565b60405180910390a15050565b6060611ef78383604051806060016040528060278152602001613e5560279139611fd3565b905092915050565b600080600760008473ffffffffffffffffffffffffffffffffffffffff1673ffffffffffffffffffffffffffffffffffffffff1681526020019081526020016000209050611f4c81611dac565b9150611f5781612059565b50919050565b60006040517f190100000000000000000000000000000000000000000000000000000000000081528360028201528260228201526042812091505092915050565b6000806000611faf8787878761206f565b91509150611fbc81612151565b8192505050949350505050565b505050565b505050565b60606000808573ffffffffffffffffffffffffffffffffffffffff1685604051611ffd9190613c22565b600060405180830381855af49150503d8060008114612038576040519150601f19603f3d011682016040523d82523d6000602084013e61203d565b606091505b509150915061204e868383876122b7565b925050509392505050565b6001816000016000828254019250508190555050565b6000807f7fffffffffffffffffffffffffffffff5d576e7357a4501ddfe92f46681b20a08360001c11156120aa576000600391509150612148565b6000600187878787604051600081526020016040526040516120cf9493929190613c39565b6020604051602081039080840390855afa1580156120f1573d6000803e3d6000fd5b505050602060405103519050600073ffffffffffffffffffffffffffffffffffffffff168173ffffffffffffffffffffffffffffffffffffffff160361213f57600060019250925050612148565b80600092509250505b94509492505050565b600060048111156121655761216461272c565b5b8160048111156121785761217761272c565b5b03156122b457600160048111156121925761219161272c565b5b8160048111156121a5576121a461272c565b5b036121e5576040517f08c379a00000000000000000000000000000000000000000000000000000000081526004016121dc90613cca565b60405180910390fd5b600260048111156121f9576121f861272c565b5b81600481111561220c5761220b61272c565b5b0361224c576040517f08c379a000000000000000000000000000000000000000000000000000000000815260040161224390613d36565b60405180910390fd5b600360048111156122605761225f61272c565b5b8160048111156122735761227261272c565b5b036122b3576040517f08c379a00000000000000000000000000000000000000000000000000000000081526004016122aa90613dc8565b60405180910390fd5b5b50565b60608315612319576000835103612311576122d18561232c565b612310576040517f08c379a000000000000000000000000000000000000000000000000000000000815260040161230790613e34565b60405180910390fd5b5b829050612324565b612323838361234f565b5b949350505050565b6000808273ffffffffffffffffffffffffffffffffffffffff163b119050919050565b6000825111156123625781518083602001fd5b806040517f08c379a0000000000000000000000000000000000000000000000000000000008152600401612396919061242f565b60405180910390fd5b600081519050919050565b600082825260208201905092915050565b60005b838110156123d95780820151818401526020810190506123be565b60008484015250505050565b6000601f19601f8301169050919050565b60006124018261239f565b61240b81856123aa565b935061241b8185602086016123bb565b612424816123e5565b840191505092915050565b6000602082019050818103600083015261244981846123f6565b905092915050565b6000604051905090565b600080fd5b600080fd5b600073ffffffffffffffffffffffffffffffffffffffff82169050919050565b600061249082612465565b9050919050565b6124a081612485565b81146124ab57600080fd5b50565b6000813590506124bd81612497565b92915050565b6000819050919050565b6124d6816124c3565b81146124e157600080fd5b50565b6000813590506124f3816124cd565b92915050565b600080604083850312156125105761250f61245b565b5b600061251e858286016124ae565b925050602061252f858286016124e4565b9150509250929050565b60008115159050919050565b61254e81612539565b82525050565b60006020820190506125696000830184612545565b92915050565b6000602082840312156125855761258461245b565b5b6000612593848285016124ae565b91505092915050565b6125a5816124c3565b82525050565b60006020820190506125c0600083018461259c565b92915050565b6000806000606084860312156125df576125de61245b565b5b60006125ed868287016124ae565b93505060206125fe868287016124ae565b925050604061260f868287016124e4565b9150509250925092565b600060ff82169050919050565b61262f81612619565b82525050565b600060208201905061264a6000830184612626565b92915050565b6000819050919050565b61266381612650565b82525050565b600060208201905061267e600083018461265a565b92915050565b60006020828403121561269a5761269961245b565b5b60006126a8848285016124e4565b91505092915050565b6126ba81612650565b81146126c557600080fd5b50565b6000813590506126d7816126b1565b92915050565b600080604083850312156126f4576126f361245b565b5b6000612702858286016126c8565b9250506020612713858286016124e4565b9150509250929050565b61272681612485565b82525050565b7f4e487b7100000000000000000000000000000000000000000000000000000000600052602160045260246000fd5b6002811061276c5761276b61272c565b5b50565b600081905061277d8261275b565b919050565b600061278d8261276f565b9050919050565b61279d81612782565b82525050565b60006080820190506127b8600083018761271d565b6127c56020830186612794565b6127d2604083018561259c565b6127df606083018461259c565b95945050505050565b60006020820190506127fd600083018461271d565b92915050565b600080fd5b600080fd5b7f4e487b7100000000000000000000000000000000000000000000000000000000600052604160045260246000fd5b612845826123e5565b810181811067ffffffffffffffff821117156128645761286361280d565b5b80604052505050565b6000612877612451565b9050612883828261283c565b919050565b600067ffffffffffffffff8211156128a3576128a261280d565b5b6128ac826123e5565b9050602081019050919050565b82818337600083830152505050565b60006128db6128d684612888565b61286d565b9050828152602081018484840111156128f7576128f6612808565b5b6129028482856128b9565b509392505050565b600082601f83011261291f5761291e612803565b5b813561292f8482602086016128c8565b91505092915050565b60006020828403121561294e5761294d61245b565b5b600082013567ffffffffffffffff81111561296c5761296b612460565b5b6129788482850161290a565b91505092915050565b600080fd5b600080fd5b60008083601f8401126129a1576129a0612803565b5b8235905067ffffffffffffffff8111156129be576129bd612981565b5b6020830191508360208202830111156129da576129d9612986565b5b9250929050565b600080602083850312156129f8576129f761245b565b5b600083013567ffffffffffffffff811115612a1657612a15612460565b5b612a228582860161298b565b92509250509250929050565b600081519050919050565b600082825260208201905092915050565b6000819050602082019050919050565b600081519050919050565b600082825260208201905092915050565b6000612a8182612a5a565b612a8b8185612a65565b9350612a9b8185602086016123bb565b612aa4816123e5565b840191505092915050565b6000612abb8383612a76565b905092915050565b6000602082019050919050565b6000612adb82612a2e565b612ae58185612a39565b935083602082028501612af785612a4a565b8060005b85811015612b335784840389528151612b148582612aaf565b9450612b1f83612ac3565b925060208a01995050600181019050612afb565b50829750879550505050505092915050565b60006020820190508181036000830152612b5f8184612ad0565b905092915050565b612b7081612619565b8114612b7b57600080fd5b50565b600081359050612b8d81612b67565b92915050565b600080600080600080600060e0888a031215612bb257612bb161245b565b5b6000612bc08a828b016124ae565b9750506020612bd18a828b016124ae565b9650506040612be28a828b016124e4565b9550506060612bf38a828b016124e4565b9450506080612c048a828b01612b7e565b93505060a0612c158a828b016126c8565b92505060c0612c268a828b016126c8565b91505092959891949750929550565b60028110612c4257600080fd5b50565b600081359050612c5481612c35565b92915050565b600080600080600060a08688031215612c7657612c7561245b565b5b6000612c84888289016124ae565b9550506020612c95888289016124e4565b9450506040612ca6888289016126c8565b9350506060612cb788828901612c45565b9250506080612cc8888289016124e4565b9150509295509295909350565b60008060408385031215612cec57612ceb61245b565b5b6000612cfa858286016124ae565b9250506020612d0b858286016124ae565b9150509250929050565b7f4e487b7100000000000000000000000000000000000000000000000000000000600052602260045260246000fd5b60006002820490506001821680612d5c57607f821691505b602082108103612d6f57612d6e612d15565b5b50919050565b7f4e487b7100000000000000000000000000000000000000000000000000000000600052601160045260246000fd5b6000612daf826124c3565b9150612dba836124c3565b9250828201905080821115612dd257612dd1612d75565b5b92915050565b7f4e6f7420617574686f72697a656420746f206d696e742e000000000000000000600082015250565b6000612e0e6017836123aa565b9150612e1982612dd8565b602082019050919050565b60006020820190508181036000830152612e3d81612e01565b9050919050565b7f4d696e74696e67207a65726f20746f6b656e732e000000000000000000000000600082015250565b6000612e7a6014836123aa565b9150612e8582612e44565b602082019050919050565b60006020820190508181036000830152612ea981612e6d565b9050919050565b7f4e6f7420617574686f72697a656420746f206275726e2e000000000000000000600082015250565b6000612ee66017836123aa565b9150612ef182612eb0565b602082019050919050565b60006020820190508181036000830152612f1581612ed9565b9050919050565b7f6e6f7420656e6f7567682062616c616e63650000000000000000000000000000600082015250565b6000612f526012836123aa565b9150612f5d82612f1c565b602082019050919050565b60006020820190508181036000830152612f8181612f45565b9050919050565b6000612f93826124c3565b9150612f9e836124c3565b9250828203905081811115612fb657612fb5612d75565b5b92915050565b7f45524332303a2064656372656173656420616c6c6f77616e63652062656c6f7760008201527f207a65726f000000000000000000000000000000000000000000000000000000602082015250565b60006130186025836123aa565b915061302382612fbc565b604082019050919050565b600060208201905081810360008301526130478161300b565b9050919050565b7f4e487b7100000000000000000000000000000000000000000000000000000000600052603260045260246000fd5b600080fd5b600080fd5b600080fd5b600080833560016020038436030381126130a9576130a861307d565b5b80840192508235915067ffffffffffffffff8211156130cb576130ca613082565b5b6020830192506001820236038313156130e7576130e6613087565b5b509250929050565b600081905092915050565b600061310683856130ef565b93506131138385846128b9565b82840190509392505050565b60008160601b9050919050565b60006131378261311f565b9050919050565b60006131498261312c565b9050919050565b61316161315c82612485565b61313e565b82525050565b60006131748285876130fa565b91506131808284613150565b601482019150819050949350505050565b600061319c826124c3565b91507fffffffffffffffffffffffffffffffffffffffffffffffffffffffffffffffff82036131ce576131cd612d75565b5b600182019050919050565b7f45524332305065726d69743a206578706972656420646561646c696e65000000600082015250565b600061320f601d836123aa565b915061321a826131d9565b602082019050919050565b6000602082019050818103600083015261323e81613202565b9050919050565b600060c08201905061325a600083018961265a565b613267602083018861271d565b613274604083018761271d565b613281606083018661259c565b61328e608083018561259c565b61329b60a083018461259c565b979650505050505050565b7f45524332305065726d69743a20696e76616c6964207369676e61747572650000600082015250565b60006132dc601e836123aa565b91506132e7826132a6565b602082019050919050565b6000602082019050818103600083015261330b816132cf565b9050919050565b7f496e76616c696420726563697069656e74000000000000000000000000000000600082015250565b60006133486011836123aa565b915061335382613312565b602082019050919050565b600060208201905081810360008301526133778161333b565b9050919050565b7f496e73756666696369656e7420747265617375727920746f6b656e7300000000600082015250565b60006133b4601c836123aa565b91506133bf8261337e565b602082019050919050565b600060208201905081810360008301526133e3816133a7565b9050919050565b60006040820190506133ff6000830185612794565b61340c602083018461259c565b9392505050565b7f45524332303a20617070726f76652066726f6d20746865207a65726f2061646460008201527f7265737300000000000000000000000000000000000000000000000000000000602082015250565b600061346f6024836123aa565b915061347a82613413565b604082019050919050565b6000602082019050818103600083015261349e81613462565b9050919050565b7f45524332303a20617070726f766520746f20746865207a65726f20616464726560008201527f7373000000000000000000000000000000000000000000000000000000000000602082015250565b60006135016022836123aa565b915061350c826134a5565b604082019050919050565b60006020820190508181036000830152613530816134f4565b9050919050565b7f45524332303a20696e73756666696369656e7420616c6c6f77616e6365000000600082015250565b600061356d601d836123aa565b915061357882613537565b602082019050919050565b6000602082019050818103600083015261359c81613560565b9050919050565b7f45524332303a207472616e736665722066726f6d20746865207a65726f20616460008201527f6472657373000000000000000000000000000000000000000000000000000000602082015250565b60006135ff6025836123aa565b915061360a826135a3565b604082019050919050565b6000602082019050818103600083015261362e816135f2565b9050919050565b7f45524332303a207472616e7366657220746f20746865207a65726f206164647260008201527f6573730000000000000000000000000000000000000000000000000000000000602082015250565b60006136916023836123aa565b915061369c82613635565b604082019050919050565b600060208201905081810360008301526136c081613684565b9050919050565b7f45524332303a207472616e7366657220616d6f756e742065786365656473206260008201527f616c616e63650000000000000000000000000000000000000000000000000000602082015250565b60006137236026836123aa565b915061372e826136c7565b604082019050919050565b6000602082019050818103600083015261375281613716565b9050919050565b600060a08201905061376e600083018861265a565b61377b602083018761265a565b613788604083018661265a565b613795606083018561259c565b6137a2608083018461271d565b9695505050505050565b7f45524332303a206275726e2066726f6d20746865207a65726f2061646472657360008201527f7300000000000000000000000000000000000000000000000000000000000000602082015250565b60006138086021836123aa565b9150613813826137ac565b604082019050919050565b60006020820190508181036000830152613837816137fb565b9050919050565b7f45524332303a206275726e20616d6f756e7420657863656564732062616c616e60008201527f6365000000000000000000000000000000000000000000000000000000000000602082015250565b600061389a6022836123aa565b91506138a58261383e565b604082019050919050565b600060208201905081810360008301526138c98161388d565b9050919050565b7f45524332303a206d696e7420746f20746865207a65726f206164647265737300600082015250565b6000613906601f836123aa565b9150613911826138d0565b602082019050919050565b60006020820190508181036000830152613935816138f9565b9050919050565b60008190508160005260206000209050919050565b60006020601f8301049050919050565b600082821b905092915050565b60006008830261399e7fffffffffffffffffffffffffffffffffffffffffffffffffffffffffffffffff82613961565b6139a88683613961565b95508019841693508086168417925050509392505050565b6000819050919050565b60006139e56139e06139db846124c3565b6139c0565b6124c3565b9050919050565b6000819050919050565b6139ff836139ca565b613a13613a0b826139ec565b84845461396e565b825550505050565b600090565b613a28613a1b565b613a338184846139f6565b505050565b5b81811015613a5757613a4c600082613a20565b600181019050613a39565b5050565b601f821115613a9c57613a6d8161393c565b613a7684613951565b81016020851015613a85578190505b613a99613a9185613951565b830182613a38565b50505b505050565b600082821c905092915050565b6000613abf60001984600802613aa1565b1980831691505092915050565b6000613ad88383613aae565b9150826002028217905092915050565b613af18261239f565b67ffffffffffffffff811115613b0a57613b0961280d565b5b613b148254612d44565b613b1f828285613a5b565b600060209050601f831160018114613b525760008415613b40578287015190505b613b4a8582613acc565b865550613bb2565b601f198416613b608661393c565b60005b82811015613b8857848901518255600182019150602085019450602081019050613b63565b86831015613ba55784890151613ba1601f891682613aae565b8355505b6001600288020188555050505b505050505050565b60006040820190508181036000830152613bd481856123f6565b90508181036020830152613be881846123f6565b90509392505050565b6000613bfc82612a5a565b613c0681856130ef565b9350613c168185602086016123bb565b80840191505092915050565b6000613c2e8284613bf1565b915081905092915050565b6000608082019050613c4e600083018761265a565b613c5b6020830186612626565b613c68604083018561265a565b613c75606083018461265a565b95945050505050565b7f45434453413a20696e76616c6964207369676e61747572650000000000000000600082015250565b6000613cb46018836123aa565b9150613cbf82613c7e565b602082019050919050565b60006020820190508181036000830152613ce381613ca7565b9050919050565b7f45434453413a20696e76616c6964207369676e6174757265206c656e67746800600082015250565b6000613d20601f836123aa565b9150613d2b82613cea565b602082019050919050565b60006020820190508181036000830152613d4f81613d13565b9050919050565b7f45434453413a20696e76616c6964207369676e6174757265202773272076616c60008201527f7565000000000000000000000000000000000000000000000000000000000000602082015250565b6000613db26022836123aa565b9150613dbd82613d56565b604082019050919050565b60006020820190508181036000830152613de181613da5565b9050919050565b7f416464726573733a2063616c6c20746f206e6f6e2d636f6e7472616374000000600082015250565b6000613e1e601d836123aa565b9150613e2982613de8565b602082019050919050565b60006020820190508181036000830152613e4d81613e11565b905091905056fe416464726573733a206c6f772d6c6576656c2064656c65676174652063616c6c206661696c6564a26469706673582212206c91723cf1db9fb681a6ce977d8a43e2d09379f774d93d88d846bc5e2063523164736f6c63430008110033",
  "linkReferences": {},
  "deployedLinkReferences": {}
}