{
  "_format": "hh-sol-artifact-1",
  "contractName": "MojoSwap",
  "sourceName": "contracts/mojoswap.sol",
  "abi": [
    {
      "inputs": [],
      "stateMutability": "nonpayable",
      "type": "constructor"
    },
    {
      "anonymous": false,
      "inputs": [
        {
          "indexed": true,
          "internalType": "address",
          "name": "user",
          "type": "address"
        },
        {
          "indexed": false,
          "internalType": "uint256",
          "name": "pjkAmount",
          "type": "uint256"
        },
        {
          "indexed": false,
          "internalType": "uint256",
          "name": "mojoAmount",
          "type": "uint256"
        }
      ],
      "name": "SwapCompleted",
      "type": "event"
    },
    {
      "anonymous": false,
      "inputs": [
        {
          "indexed": true,
          "internalType": "address",
          "name": "user",
          "type": "address"
        },
        {
          "indexed": false,
          "internalType": "uint256",
          "name": "pjkAmount",
          "type": "uint256"
        }
      ],
      "name": "SwapRequested",
      "type": "event"
    },
    {
      "inputs": [
        {
          "internalType": "address",
          "name": "user",
          "type": "address"
        },
        {
          "internalType": "uint256",
          "name": "pjkAmount",
          "type": "uint256"
        }
      ],
      "name": "completeSwap",
      "outputs": [],
      "stateMutability": "nonpayable",
      "type": "function"
    },
    {
      "inputs": [],
      "name": "mojoToken",
      "outputs": [
        {
          "internalType": "contract Mojo",
          "name": "",
          "type": "address"
        }
      ],
      "stateMutability": "view",
      "type": "function"
    },
    {
      "inputs": [],
      "name": "owner",
      "outputs": [
        {
          "internalType": "address",
          "name": "",
          "type": "address"
        }
      ],
      "stateMutability": "view",
      "type": "function"
    },
    {
      "inputs": [
        {
          "internalType": "address",
          "name": "",
          "type": "address"
        }
      ],
      "name": "pendingSwaps",
      "outputs": [
        {
          "internalType": "uint256",
          "name": "",
          "type": "uint256"
        }
      ],
      "stateMutability": "view",
      "type": "function"
    },
    {
      "inputs": [],
      "name": "pjkBurner",
      "outputs": [
        {
          "internalType": "contract IPGKBurner",
          "name": "",
          "type": "address"
        }
      ],
      "stateMutability": "view",
      "type": "function"
    },
    {
      "inputs": [
        {
          "internalType": "uint256",
          "name": "pjkAmount",
          "type": "uint256"
        }
      ],
      "name": "requestSwap",
      "outputs": [],
      "stateMutability": "nonpayable",
      "type": "function"
    }
  ],
  "bytecode": "0x6080604052600080546001600160a01b031990811673f9e7d3cd71ee60c7a3a64fa7fcb81e610ce1daa5179091556001805490911673ff197b807f60c2985938c0fe920d89e1c80a1af317905534801561005857600080fd5b50600280546001600160a01b031916331790556105868061007a6000396000f3fe608060405234801561001057600080fd5b50600436106100625760003560e01c80632217d48314610067578063466ad01c1461007c578063869e2aca1461008f5780638da5cb5b146100bf578063d2174a6e146100d2578063d56fb4a914610100575b600080fd5b61007a61007536600461043b565b610113565b005b61007a61008a366004610470565b610233565b6001546100a2906001600160a01b031681565b6040516001600160a01b0390911681526020015b60405180910390f35b6002546100a2906001600160a01b031681565b6100f26100e036600461049a565b60036020526000908152604090205481565b6040519081526020016100b6565b6000546100a2906001600160a01b031681565b6001546040516362a35a8b60e01b8152336004820152602481018390526001600160a01b03909116906362a35a8b90604401602060405180830381865afa158015610162573d6000803e3d6000fd5b505050506040513d601f19601f8201168201806040525081019061018691906104bc565b6101d75760405162461bcd60e51b815260206004820152601860248201527f4275726e20766572696669636174696f6e206661696c6564000000000000000060448201526064015b60405180910390fd5b33600090815260036020526040812080548392906101f69084906104f4565b909155505060405181815233907f6205ae3c63f3c2bef4746c34cd7df37c947b27bb74af5b30a55e095d9869e59b9060200160405180910390a250565b6002546001600160a01b031633146102795760405162461bcd60e51b81526020600482015260096024820152682737ba1037bbb732b960b91b60448201526064016101ce565b6001600160a01b0382166000908152600360205260409020548111156102e15760405162461bcd60e51b815260206004820152601b60248201527f496e73756666696369656e742070656e64696e6720616d6f756e74000000000060448201526064016101ce565b6001600160a01b0382166000908152600360205260408120805483929061030990849061050d565b9091555050600054604051630b8b29e560e01b81526001600160a01b0384811660048301526024820184905290911690630b8b29e590604401600060405180830381600087803b15801561035c57600080fd5b505af1158015610370573d6000803e3d6000fd5b50505050816001600160a01b03167f68c14902a77c0b779e8d12c5eadac21e74962f4e4efaa8a01582d13b3945ae7f8260008054906101000a90046001600160a01b03166001600160a01b0316630e0bfb496040518163ffffffff1660e01b8152600401602060405180830381865afa1580156103f1573d6000803e3d6000fd5b505050506040513d601f19601f820116820180604052508101906104159190610520565b61041f9085610539565b6040805192835260208301919091520160405180910390a25050565b60006020828403121561044d57600080fd5b5035919050565b80356001600160a01b038116811461046b57600080fd5b919050565b6000806040838503121561048357600080fd5b61048c83610454565b946020939093013593505050565b6000602082840312156104ac57600080fd5b6104b582610454565b9392505050565b6000602082840312156104ce57600080fd5b815180151581146104b557600080fd5b634e487b7160e01b600052601160045260246000fd5b80820180821115610507576105076104de565b92915050565b81810381811115610507576105076104de565b60006020828403121561053257600080fd5b5051919050565b8082028115828204841417610507576105076104de56fea2646970667358221220809eaa25b0f235c80f7385bc6a7078f34d189a24af0706641f207615e6a107e564736f6c63430008170033",
  "linkReferences": {},
  "deployedLinkReferences": {}
}