{
  "_format": "hh-sol-artifact-1",
  "contractName": "ERC20Base",
  "sourceName": "@thirdweb-dev/contracts/base/ERC20Base.sol",
  "abi": [
    {
      "inputs": [
        {
          "internalType": "address",
          "name": "_defaultAdmin",
          "type": "address"
        },
        {
          "internalType": "string",
          "name": "_name",
          "type": "string"
        },
        {
          "internalType": "string",
          "name": "_symbol",
          "type": "string"
        }
      ],
      "stateMutability": "nonpayable",
      "type": "constructor"
    },
    {
      "inputs": [],
      "name": "ContractMetadataUnauthorized",
      "type": "error"
    },
    {
      "inputs": [],
      "name": "OwnableUnauthorized",
      "type": "error"
    },
    {
      "anonymous": false,
      "inputs": [
        {
          "indexed": true,
          "internalType": "address",
          "name": "owner",
          "type": "address"
        },
        {
          "indexed": true,
          "internalType": "address",
          "name": "spender",
          "type": "address"
        },
        {
          "indexed": false,
          "internalType": "uint256",
          "name": "value",
          "type": "uint256"
        }
      ],
      "name": "Approval",
      "type": "event"
    },
    {
      "anonymous": false,
      "inputs": [
        {
          "indexed": false,
          "internalType": "string",
          "name": "prevURI",
          "type": "string"
        },
        {
          "indexed": false,
          "internalType": "string",
          "name": "newURI",
          "type": "string"
        }
      ],
      "name": "ContractURIUpdated",
      "type": "event"
    },
    {
      "anonymous": false,
      "inputs": [
        {
          "indexed": true,
          "internalType": "address",
          "name": "prevOwner",
          "type": "address"
        },
        {
          "indexed": true,
          "internalType": "address",
          "name": "newOwner",
          "type": "address"
        }
      ],
      "name": "OwnerUpdated",
      "type": "event"
    },
    {
      "anonymous": false,
      "inputs": [
        {
          "indexed": true,
          "internalType": "address",
          "name": "mintedTo",
          "type": "address"
        },
        {
          "indexed": false,
          "internalType": "uint256",
          "name": "quantityMinted",
          "type": "uint256"
        }
      ],
      "name": "TokensMinted",
      "type": "event"
    },
    {
      "anonymous": false,
      "inputs": [
        {
          "indexed": true,
          "internalType": "address",
          "name": "from",
          "type": "address"
        },
        {
          "indexed": true,
          "internalType": "address",
          "name": "to",
          "type": "address"
        },
        {
          "indexed": false,
          "internalType": "uint256",
          "name": "value",
          "type": "uint256"
        }
      ],
      "name": "Transfer",
      "type": "event"
    },
    {
      "inputs": [],
      "name": "DOMAIN_SEPARATOR",
      "outputs": [
        {
          "internalType": "bytes32",
          "name": "",
          "type": "bytes32"
        }
      ],
      "stateMutability": "view",
      "type": "function"
    },
    {
      "inputs": [
        {
          "internalType": "address",
          "name": "owner",
          "type": "address"
        },
        {
          "internalType": "address",
          "name": "spender",
          "type": "address"
        }
      ],
      "name": "allowance",
      "outputs": [
        {
          "internalType": "uint256",
          "name": "",
          "type": "uint256"
        }
      ],
      "stateMutability": "view",
      "type": "function"
    },
    {
      "inputs": [
        {
          "internalType": "address",
          "name": "spender",
          "type": "address"
        },
        {
          "internalType": "uint256",
          "name": "amount",
          "type": "uint256"
        }
      ],
      "name": "approve",
      "outputs": [
        {
          "internalType": "bool",
          "name": "",
          "type": "bool"
        }
      ],
      "stateMutability": "nonpayable",
      "type": "function"
    },
    {
      "inputs": [
        {
          "internalType": "address",
          "name": "account",
          "type": "address"
        }
      ],
      "name": "balanceOf",
      "outputs": [
        {
          "internalType": "uint256",
          "name": "",
          "type": "uint256"
        }
      ],
      "stateMutability": "view",
      "type": "function"
    },
    {
      "inputs": [
        {
          "internalType": "uint256",
          "name": "_amount",
          "type": "uint256"
        }
      ],
      "name": "burn",
      "outputs": [],
      "stateMutability": "nonpayable",
      "type": "function"
    },
    {
      "inputs": [
        {
          "internalType": "address",
          "name": "_account",
          "type": "address"
        },
        {
          "internalType": "uint256",
          "name": "_amount",
          "type": "uint256"
        }
      ],
      "name": "burnFrom",
      "outputs": [],
      "stateMutability": "nonpayable",
      "type": "function"
    },
    {
      "inputs": [],
      "name": "contractURI",
      "outputs": [
        {
          "internalType": "string",
          "name": "",
          "type": "string"
        }
      ],
      "stateMutability": "view",
      "type": "function"
    },
    {
      "inputs": [],
      "name": "decimals",
      "outputs": [
        {
          "internalType": "uint8",
          "name": "",
          "type": "uint8"
        }
      ],
      "stateMutability": "view",
      "type": "function"
    },
    {
      "inputs": [
        {
          "internalType": "address",
          "name": "spender",
          "type": "address"
        },
        {
          "internalType": "uint256",
          "name": "subtractedValue",
          "type": "uint256"
        }
      ],
      "name": "decreaseAllowance",
      "outputs": [
        {
          "internalType": "bool",
          "name": "",
          "type": "bool"
        }
      ],
      "stateMutability": "nonpayable",
      "type": "function"
    },
    {
      "inputs": [
        {
          "internalType": "address",
          "name": "spender",
          "type": "address"
        },
        {
          "internalType": "uint256",
          "name": "addedValue",
          "type": "uint256"
        }
      ],
      "name": "increaseAllowance",
      "outputs": [
        {
          "internalType": "bool",
          "name": "",
          "type": "bool"
        }
      ],
      "stateMutability": "nonpayable",
      "type": "function"
    },
    {
      "inputs": [
        {
          "internalType": "address",
          "name": "_to",
          "type": "address"
        },
        {
          "internalType": "uint256",
          "name": "_amount",
          "type": "uint256"
        }
      ],
      "name": "mintTo",
      "outputs": [],
      "stateMutability": "nonpayable",
      "type": "function"
    },
    {
      "inputs": [
        {
          "internalType": "bytes[]",
          "name": "data",
          "type": "bytes[]"
        }
      ],
      "name": "multicall",
      "outputs": [
        {
          "internalType": "bytes[]",
          "name": "results",
          "type": "bytes[]"
        }
      ],
      "stateMutability": "nonpayable",
      "type": "function"
    },
    {
      "inputs": [],
      "name": "name",
      "outputs": [
        {
          "internalType": "string",
          "name": "",
          "type": "string"
        }
      ],
      "stateMutability": "view",
      "type": "function"
    },
    {
      "inputs": [
        {
          "internalType": "address",
          "name": "owner",
          "type": "address"
        }
      ],
      "name": "nonces",
      "outputs": [
        {
          "internalType": "uint256",
          "name": "",
          "type": "uint256"
        }
      ],
      "stateMutability": "view",
      "type": "function"
    },
    {
      "inputs": [],
      "name": "owner",
      "outputs": [
        {
          "internalType": "address",
          "name": "",
          "type": "address"
        }
      ],
      "stateMutability": "view",
      "type": "function"
    },
    {
      "inputs": [
        {
          "internalType": "address",
          "name": "owner",
          "type": "address"
        },
        {
          "internalType": "address",
          "name": "spender",
          "type": "address"
        },
        {
          "internalType": "uint256",
          "name": "value",
          "type": "uint256"
        },
        {
          "internalType": "uint256",
          "name": "deadline",
          "type": "uint256"
        },
        {
          "internalType": "uint8",
          "name": "v",
          "type": "uint8"
        },
        {
          "internalType": "bytes32",
          "name": "r",
          "type": "bytes32"
        },
        {
          "internalType": "bytes32",
          "name": "s",
          "type": "bytes32"
        }
      ],
      "name": "permit",
      "outputs": [],
      "stateMutability": "nonpayable",
      "type": "function"
    },
    {
      "inputs": [
        {
          "internalType": "string",
          "name": "_uri",
          "type": "string"
        }
      ],
      "name": "setContractURI",
      "outputs": [],
      "stateMutability": "nonpayable",
      "type": "function"
    },
    {
      "inputs": [
        {
          "internalType": "address",
          "name": "_newOwner",
          "type": "address"
        }
      ],
      "name": "setOwner",
      "outputs": [],
      "stateMutability": "nonpayable",
      "type": "function"
    },
    {
      "inputs": [],
      "name": "symbol",
      "outputs": [
        {
          "internalType": "string",
          "name": "",
          "type": "string"
        }
      ],
      "stateMutability": "view",
      "type": "function"
    },
    {
      "inputs": [],
      "name": "totalSupply",
      "outputs": [
        {
          "internalType": "uint256",
          "name": "",
          "type": "uint256"
        }
      ],
      "stateMutability": "view",
      "type": "function"
    },
    {
      "inputs": [
        {
          "internalType": "address",
          "name": "to",
          "type": "address"
        },
        {
          "internalType": "uint256",
          "name": "amount",
          "type": "uint256"
        }
      ],
      "name": "transfer",
      "outputs": [
        {
          "internalType": "bool",
          "name": "",
          "type": "bool"
        }
      ],
      "stateMutability": "nonpayable",
      "type": "function"
    },
    {
      "inputs": [
        {
          "internalType": "address",
          "name": "from",
          "type": "address"
        },
        {
          "internalType": "address",
          "name": "to",
          "type": "address"
        },
        {
          "internalType": "uint256",
          "name": "amount",
          "type": "uint256"
        }
      ],
      "name": "transferFrom",
      "outputs": [
        {
          "internalType": "bool",
          "name": "",
          "type": "bool"
        }
      ],
      "stateMutability": "nonpayable",
      "type": "function"
    }
  ],
  "bytecode": "0x6101006040527f6e71edae12b1b97f4d1f60370fef10105fa2faae0126114a169c64845d6126c960e0523480156200003657600080fd5b50604051620021e2380380620021e28339810160408190526200005991620002f4565b8181818160056200006b83826200040f565b5060066200007a82826200040f565b50504660a052503060c0526200008f620000a9565b60805250620000a090508362000140565b505050620004db565b60007f8b73c3c69bb8fe3d512ecc4cf759cc79239f7b179b0ffacaa9a75d522b39400f620000d662000192565b80516020918201206040805192830193909352918101919091527fc89efdaa54c0f20c7adf612882df0950f5a951637e0307cdcb4c672f298b8bc660608201524660808201523060a082015260c00160405160208183030381529060405280519060200120905090565b600180546001600160a01b038381166001600160a01b0319831681179093556040519116919082907f8292fce18fa69edf4db7b94ea2e58241df0ae57f97e0a6c9b29067028bf92d7690600090a35050565b606060058054620001a3906200037e565b80601f0160208091040260200160405190810160405280929190818152602001828054620001d1906200037e565b8015620002225780601f10620001f65761010080835404028352916020019162000222565b820191906000526020600020905b8154815290600101906020018083116200020457829003601f168201915b5050505050905090565b634e487b7160e01b600052604160045260246000fd5b600082601f8301126200025457600080fd5b81516001600160401b03808211156200027157620002716200022c565b604051601f8301601f19908116603f011681019082821181831017156200029c576200029c6200022c565b8160405283815260209250866020858801011115620002ba57600080fd5b600091505b83821015620002de5785820183015181830184015290820190620002bf565b6000602085830101528094505050505092915050565b6000806000606084860312156200030a57600080fd5b83516001600160a01b03811681146200032257600080fd5b60208501519093506001600160401b03808211156200034057600080fd5b6200034e8783880162000242565b935060408601519150808211156200036557600080fd5b50620003748682870162000242565b9150509250925092565b600181811c908216806200039357607f821691505b602082108103620003b457634e487b7160e01b600052602260045260246000fd5b50919050565b601f8211156200040a576000816000526020600020601f850160051c81016020861015620003e55750805b601f850160051c820191505b818110156200040657828155600101620003f1565b5050505b505050565b81516001600160401b038111156200042b576200042b6200022c565b62000443816200043c84546200037e565b84620003ba565b602080601f8311600181146200047b5760008415620004625750858301515b600019600386901b1c1916600185901b17855562000406565b600085815260208120601f198616915b82811015620004ac578886015182559484019460019091019084016200048b565b5085821015620004cb5787850151600019600388901b60f8161c191681555b5050505050600190811b01905550565b60805160a05160c05160e051611ccd62000515600039600061099201526000610419015260006104430152600061046d0152611ccd6000f3fe608060405234801561001057600080fd5b50600436106101425760003560e01c806379cc6790116100b8578063a457c2d71161007c578063a457c2d714610297578063a9059cbb146102aa578063ac9650d8146102bd578063d505accf146102dd578063dd62ed3e146102f0578063e8a3d4851461030357600080fd5b806379cc67901461023b5780637ecebe001461024e5780638da5cb5b14610261578063938e3d7b1461027c57806395d89b411461028f57600080fd5b8063313ce5671161010a578063313ce567146101c25780633644e515146101d157806339509351146101d957806342966c68146101ec578063449a52f8146101ff57806370a082311461021257600080fd5b806306fdde0314610147578063095ea7b31461016557806313af40351461018857806318160ddd1461019d57806323b872dd146101af575b600080fd5b61014f61030b565b60405161015c91906116f7565b60405180910390f35b610178610173366004611726565b61039d565b604051901515815260200161015c565b61019b610196366004611750565b6103b7565b005b6004545b60405190815260200161015c565b6101786101bd36600461176b565b6103e8565b6040516012815260200161015c565b6101a161040c565b6101786101e7366004611726565b61049c565b61019b6101fa3660046117a7565b6104db565b61019b61020d366004611726565b61053e565b6101a1610220366004611750565b6001600160a01b031660009081526002602052604090205490565b61019b610249366004611726565b6105e7565b6101a161025c366004611750565b6106dd565b6001546040516001600160a01b03909116815260200161015c565b61019b61028a3660046117d6565b6106fb565b61014f610729565b6101786102a5366004611726565b610738565b6101786102b8366004611726565b6107ca565b6102d06102cb366004611887565b6107d8565b60405161015c91906118fc565b61019b6102eb366004611960565b61093e565b6101a16102fe3660046119d3565b610ac4565b61014f610aef565b60606005805461031a90611a06565b80601f016020809104026020016040519081016040528092919081815260200182805461034690611a06565b80156103935780601f1061036857610100808354040283529160200191610393565b820191906000526020600020905b81548152906001019060200180831161037657829003601f168201915b5050505050905090565b6000336103ab818585610b7d565b60019150505b92915050565b6103bf610ca1565b6103dc576040516316ccb9cb60e11b815260040160405180910390fd5b6103e581610cce565b50565b6000336103f6858285610d20565b610401858585610d9a565b506001949350505050565b6000306001600160a01b037f00000000000000000000000000000000000000000000000000000000000000001614801561046557507f000000000000000000000000000000000000000000000000000000000000000046145b1561048f57507f000000000000000000000000000000000000000000000000000000000000000090565b610497610f68565b905090565b3360008181526003602090815260408083206001600160a01b03871684529091528120549091906103ab90829086906104d6908790611a50565b610b7d565b336000908152600260205260409020548111156105345760405162461bcd60e51b81526020600482015260126024820152716e6f7420656e6f7567682062616c616e636560701b60448201526064015b60405180910390fd5b6103e53382610ffd565b610546610ca1565b6105925760405162461bcd60e51b815260206004820152601760248201527f4e6f7420617574686f72697a656420746f206d696e742e000000000000000000604482015260640161052b565b806000036105d95760405162461bcd60e51b815260206004820152601460248201527326b4b73a34b733903d32b937903a37b5b2b7399760611b604482015260640161052b565b6105e3828261114b565b5050565b6105ef610ca1565b61063b5760405162461bcd60e51b815260206004820152601760248201527f4e6f7420617574686f72697a656420746f206275726e2e000000000000000000604482015260640161052b565b8061065b836001600160a01b031660009081526002602052604090205490565b101561069e5760405162461bcd60e51b81526020600482015260126024820152716e6f7420656e6f7567682062616c616e636560701b604482015260640161052b565b6000816106ab8433610ac4565b6106b59190611a63565b90506106c383336000610b7d565b6106ce833383610b7d565b6106d88383610ffd565b505050565b6001600160a01b0381166000908152600760205260408120546103b1565b610703610ca1565b61072057604051639f7f092560e01b815260040160405180910390fd5b6103e58161122a565b60606006805461031a90611a06565b3360008181526003602090815260408083206001600160a01b0387168452909152812054909190838110156107bd5760405162461bcd60e51b815260206004820152602560248201527f45524332303a2064656372656173656420616c6c6f77616e63652062656c6f77604482015264207a65726f60d81b606482015260840161052b565b6104018286868403610b7d565b6000336103ab818585610d9a565b60608167ffffffffffffffff8111156107f3576107f36117c0565b60405190808252806020026020018201604052801561082657816020015b60608152602001906001900390816108115790505b509050336000805b848110156109355781156108ad5761088b3087878481811061085257610852611a76565b90506020028101906108649190611a8c565b8660405160200161087793929190611ada565b604051602081830303815290604052611305565b84828151811061089d5761089d611a76565b602002602001018190525061092d565b61090f308787848181106108c3576108c3611a76565b90506020028101906108d59190611a8c565b8080601f01602080910402602001604051908101604052809392919081815260200183838082843760009201919091525061130592505050565b84828151811061092157610921611a76565b60200260200101819052505b60010161082e565b50505092915050565b8342111561098e5760405162461bcd60e51b815260206004820152601d60248201527f45524332305065726d69743a206578706972656420646561646c696e65000000604482015260640161052b565b60007f00000000000000000000000000000000000000000000000000000000000000008888886109bd8c611331565b6040805160208101969096526001600160a01b0394851690860152929091166060840152608083015260a082015260c0810186905260e0016040516020818303038152906040528051906020012090506000610a3a610a1a61040c565b8360405161190160f01b8152600281019290925260228201526042902090565b90506000610a4a82878787611359565b9050896001600160a01b0316816001600160a01b031614610aad5760405162461bcd60e51b815260206004820152601e60248201527f45524332305065726d69743a20696e76616c6964207369676e61747572650000604482015260640161052b565b610ab88a8a8a610b7d565b50505050505050505050565b6001600160a01b03918216600090815260036020908152604080832093909416825291909152205490565b60008054610afc90611a06565b80601f0160208091040260200160405190810160405280929190818152602001828054610b2890611a06565b8015610b755780601f10610b4a57610100808354040283529160200191610b75565b820191906000526020600020905b815481529060010190602001808311610b5857829003601f168201915b505050505081565b6001600160a01b038316610bdf5760405162461bcd60e51b8152602060048201526024808201527f45524332303a20617070726f76652066726f6d20746865207a65726f206164646044820152637265737360e01b606482015260840161052b565b6001600160a01b038216610c405760405162461bcd60e51b815260206004820152602260248201527f45524332303a20617070726f766520746f20746865207a65726f206164647265604482015261737360f01b606482015260840161052b565b6001600160a01b0383811660008181526003602090815260408083209487168084529482529182902085905590518481527f8c5be1e5ebec7d5bd14f71427d1e84f3dd0314c0f7b2291e5b200ac8c7c3b925910160405180910390a3505050565b6000610cb56001546001600160a01b031690565b6001600160a01b0316336001600160a01b031614905090565b600180546001600160a01b038381166001600160a01b0319831681179093556040519116919082907f8292fce18fa69edf4db7b94ea2e58241df0ae57f97e0a6c9b29067028bf92d7690600090a35050565b6000610d2c8484610ac4565b90506000198114610d945781811015610d875760405162461bcd60e51b815260206004820152601d60248201527f45524332303a20696e73756666696369656e7420616c6c6f77616e6365000000604482015260640161052b565b610d948484848403610b7d565b50505050565b6001600160a01b038316610dfe5760405162461bcd60e51b815260206004820152602560248201527f45524332303a207472616e736665722066726f6d20746865207a65726f206164604482015264647265737360d81b606482015260840161052b565b6001600160a01b038216610e605760405162461bcd60e51b815260206004820152602360248201527f45524332303a207472616e7366657220746f20746865207a65726f206164647260448201526265737360e81b606482015260840161052b565b6001600160a01b03831660009081526002602052604090205481811015610ed85760405162461bcd60e51b815260206004820152602660248201527f45524332303a207472616e7366657220616d6f756e7420657863656564732062604482015265616c616e636560d01b606482015260840161052b565b6001600160a01b03808516600090815260026020526040808220858503905591851681529081208054849290610f0f908490611a50565b92505081905550826001600160a01b0316846001600160a01b03167fddf252ad1be2c89b69c2b068fc378daa952ba7f163c4a11628f55a4df523b3ef84604051610f5b91815260200190565b60405180910390a3610d94565b60007f8b73c3c69bb8fe3d512ecc4cf759cc79239f7b179b0ffacaa9a75d522b39400f610f9361030b565b80516020918201206040805192830193909352918101919091527fc89efdaa54c0f20c7adf612882df0950f5a951637e0307cdcb4c672f298b8bc660608201524660808201523060a082015260c00160405160208183030381529060405280519060200120905090565b6001600160a01b03821661105d5760405162461bcd60e51b815260206004820152602160248201527f45524332303a206275726e2066726f6d20746865207a65726f206164647265736044820152607360f81b606482015260840161052b565b6001600160a01b038216600090815260026020526040902054818110156110d15760405162461bcd60e51b815260206004820152602260248201527f45524332303a206275726e20616d6f756e7420657863656564732062616c616e604482015261636560f01b606482015260840161052b565b6001600160a01b0383166000908152600260205260408120838303905560048054849290611100908490611a63565b90915550506040518281526000906001600160a01b038516907fddf252ad1be2c89b69c2b068fc378daa952ba7f163c4a11628f55a4df523b3ef9060200160405180910390a3505050565b6001600160a01b0382166111a15760405162461bcd60e51b815260206004820152601f60248201527f45524332303a206d696e7420746f20746865207a65726f206164647265737300604482015260640161052b565b80600460008282546111b39190611a50565b90915550506001600160a01b038216600090815260026020526040812080548392906111e0908490611a50565b90915550506040518181526001600160a01b038316906000907fddf252ad1be2c89b69c2b068fc378daa952ba7f163c4a11628f55a4df523b3ef9060200160405180910390a35050565b600080805461123890611a06565b80601f016020809104026020016040519081016040528092919081815260200182805461126490611a06565b80156112b15780601f10611286576101008083540402835291602001916112b1565b820191906000526020600020905b81548152906001019060200180831161129457829003601f168201915b5050505050905081600090816112c79190611b50565b507fc9c7c3fe08b88b4df9d4d47ef47d2c43d55c025a0ba88ca442580ed9e7348a1681836040516112f9929190611c10565b60405180910390a15050565b606061132a8383604051806060016040528060278152602001611c7160279139611383565b9392505050565b6001600160a01b03811660009081526007602052604090208054600181018255905b50919050565b600080600061136a878787876113fb565b91509150611377816114bf565b5090505b949350505050565b6060600080856001600160a01b0316856040516113a09190611c3e565b600060405180830381855af49150503d80600081146113db576040519150601f19603f3d011682016040523d82523d6000602084013e6113e0565b606091505b50915091506113f186838387611609565b9695505050505050565b6000807f7fffffffffffffffffffffffffffffff5d576e7357a4501ddfe92f46681b20a083111561143257506000905060036114b6565b6040805160008082526020820180845289905260ff881692820192909252606081018690526080810185905260019060a0016020604051602081039080840390855afa158015611486573d6000803e3d6000fd5b5050604051601f1901519150506001600160a01b0381166114af576000600192509250506114b6565b9150600090505b94509492505050565b60008160048111156114d3576114d3611c5a565b036114db5750565b60018160048111156114ef576114ef611c5a565b0361153c5760405162461bcd60e51b815260206004820152601860248201527f45434453413a20696e76616c6964207369676e61747572650000000000000000604482015260640161052b565b600281600481111561155057611550611c5a565b0361159d5760405162461bcd60e51b815260206004820152601f60248201527f45434453413a20696e76616c6964207369676e6174757265206c656e67746800604482015260640161052b565b60038160048111156115b1576115b1611c5a565b036103e55760405162461bcd60e51b815260206004820152602260248201527f45434453413a20696e76616c6964207369676e6174757265202773272076616c604482015261756560f01b606482015260840161052b565b60608315611678578251600003611671576001600160a01b0385163b6116715760405162461bcd60e51b815260206004820152601d60248201527f416464726573733a2063616c6c20746f206e6f6e2d636f6e7472616374000000604482015260640161052b565b508161137b565b61137b838381511561168d5781518083602001fd5b8060405162461bcd60e51b815260040161052b91906116f7565b60005b838110156116c25781810151838201526020016116aa565b50506000910152565b600081518084526116e38160208601602086016116a7565b601f01601f19169290920160200192915050565b60208152600061132a60208301846116cb565b80356001600160a01b038116811461172157600080fd5b919050565b6000806040838503121561173957600080fd5b6117428361170a565b946020939093013593505050565b60006020828403121561176257600080fd5b61132a8261170a565b60008060006060848603121561178057600080fd5b6117898461170a565b92506117976020850161170a565b9150604084013590509250925092565b6000602082840312156117b957600080fd5b5035919050565b634e487b7160e01b600052604160045260246000fd5b6000602082840312156117e857600080fd5b813567ffffffffffffffff8082111561180057600080fd5b818401915084601f83011261181457600080fd5b813581811115611826576118266117c0565b604051601f8201601f19908116603f0116810190838211818310171561184e5761184e6117c0565b8160405282815287602084870101111561186757600080fd5b826020860160208301376000928101602001929092525095945050505050565b6000806020838503121561189a57600080fd5b823567ffffffffffffffff808211156118b257600080fd5b818501915085601f8301126118c657600080fd5b8135818111156118d557600080fd5b8660208260051b85010111156118ea57600080fd5b60209290920196919550909350505050565b600060208083016020845280855180835260408601915060408160051b87010192506020870160005b8281101561195357603f198886030184526119418583516116cb565b94509285019290850190600101611925565b5092979650505050505050565b600080600080600080600060e0888a03121561197b57600080fd5b6119848861170a565b96506119926020890161170a565b95506040880135945060608801359350608088013560ff811681146119b657600080fd5b9699959850939692959460a0840135945060c09093013592915050565b600080604083850312156119e657600080fd5b6119ef8361170a565b91506119fd6020840161170a565b90509250929050565b600181811c90821680611a1a57607f821691505b60208210810361135357634e487b7160e01b600052602260045260246000fd5b634e487b7160e01b600052601160045260246000fd5b808201808211156103b1576103b1611a3a565b818103818111156103b1576103b1611a3a565b634e487b7160e01b600052603260045260246000fd5b6000808335601e19843603018112611aa357600080fd5b83018035915067ffffffffffffffff821115611abe57600080fd5b602001915036819003821315611ad357600080fd5b9250929050565b8284823760609190911b6bffffffffffffffffffffffff19169101908152601401919050565b601f8211156106d8576000816000526020600020601f850160051c81016020861015611b295750805b601f850160051c820191505b81811015611b4857828155600101611b35565b505050505050565b815167ffffffffffffffff811115611b6a57611b6a6117c0565b611b7e81611b788454611a06565b84611b00565b602080601f831160018114611bb35760008415611b9b5750858301515b600019600386901b1c1916600185901b178555611b48565b600085815260208120601f198616915b82811015611be257888601518255948401946001909101908401611bc3565b5085821015611c005787850151600019600388901b60f8161c191681555b5050505050600190811b01905550565b604081526000611c2360408301856116cb565b8281036020840152611c3581856116cb565b95945050505050565b60008251611c508184602087016116a7565b9190910192915050565b634e487b7160e01b600052602160045260246000fdfe416464726573733a206c6f772d6c6576656c2064656c65676174652063616c6c206661696c6564a2646970667358221220e94949c7c53c0feae1b5f7e7eb7f878196cb7682df2a5ceda8d4be4f7626d86464736f6c63430008170033",
  "linkReferences": {},
  "deployedLinkReferences": {}
}