{
  "abi": [
    {
      "inputs": [
        {
          "internalType": "string",
          "name": "_name",
          "type": "string"
        },
        {
          "internalType": "string",
          "name": "_symbol",
          "type": "string"
        },
        {
          "internalType": "address",
          "name": "_initialOwner",
          "type": "address"
        }
      ],
      "stateMutability": "nonpayable",
      "type": "constructor"
    },
    {
      "inputs": [],
      "name": "ContractMetadataUnauthorized",
      "type": "error"
    },
    {
      "inputs": [],
      "name": "OwnableUnauthorized",
      "type": "error"
    },
    {
      "anonymous": false,
      "inputs": [
        {
          "indexed": true,
          "internalType": "address",
          "name": "owner",
          "type": "address"
        },
        {
          "indexed": true,
          "internalType": "address",
          "name": "spender",
          "type": "address"
        },
        {
          "indexed": false,
          "internalType": "uint256",
          "name": "value",
          "type": "uint256"
        }
      ],
      "name": "Approval",
      "type": "event"
    },
    {
      "anonymous": false,
      "inputs": [
        {
          "indexed": true,
          "internalType": "bytes32",
          "name": "projectId",
          "type": "bytes32"
        },
        {
          "indexed": true,
          "internalType": "address",
          "name": "artist",
          "type": "address"
        },
        {
          "indexed": false,
          "internalType": "uint256",
          "name": "percentage",
          "type": "uint256"
        }
      ],
      "name": "ArtistContribution",
      "type": "event"
    },
    {
      "anonymous": false,
      "inputs": [
        {
          "indexed": false,
          "internalType": "string",
          "name": "prevURI",
          "type": "string"
        },
        {
          "indexed": false,
          "internalType": "string",
          "name": "newURI",
          "type": "string"
        }
      ],
      "name": "ContractURIUpdated",
      "type": "event"
    },
    {
      "anonymous": false,
      "inputs": [
        {
          "indexed": true,
          "internalType": "bytes32",
          "name": "projectId",
          "type": "bytes32"
        },
        {
          "indexed": true,
          "internalType": "address",
          "name": "fan",
          "type": "address"
        },
        {
          "indexed": false,
          "internalType": "uint256",
          "name": "percentage",
          "type": "uint256"
        }
      ],
      "name": "FanContribution",
      "type": "event"
    },
    {
      "anonymous": false,
      "inputs": [
        {
          "indexed": true,
          "internalType": "address",
          "name": "prevOwner",
          "type": "address"
        },
        {
          "indexed": true,
          "internalType": "address",
          "name": "newOwner",
          "type": "address"
        }
      ],
      "name": "OwnerUpdated",
      "type": "event"
    },
    {
      "anonymous": false,
      "inputs": [
        {
          "indexed": true,
          "internalType": "address",
          "name": "mintedTo",
          "type": "address"
        },
        {
          "indexed": false,
          "internalType": "uint256",
          "name": "quantityMinted",
          "type": "uint256"
        }
      ],
      "name": "TokensMinted",
      "type": "event"
    },
    {
      "anonymous": false,
      "inputs": [
        {
          "indexed": true,
          "internalType": "address",
          "name": "from",
          "type": "address"
        },
        {
          "indexed": true,
          "internalType": "address",
          "name": "to",
          "type": "address"
        },
        {
          "indexed": false,
          "internalType": "uint256",
          "name": "value",
          "type": "uint256"
        }
      ],
      "name": "Transfer",
      "type": "event"
    },
    {
      "inputs": [],
      "name": "DOMAIN_SEPARATOR",
      "outputs": [
        {
          "internalType": "bytes32",
          "name": "",
          "type": "bytes32"
        }
      ],
      "stateMutability": "view",
      "type": "function"
    },
    {
      "inputs": [
        {
          "internalType": "address",
          "name": "owner",
          "type": "address"
        },
        {
          "internalType": "address",
          "name": "spender",
          "type": "address"
        }
      ],
      "name": "allowance",
      "outputs": [
        {
          "internalType": "uint256",
          "name": "",
          "type": "uint256"
        }
      ],
      "stateMutability": "view",
      "type": "function"
    },
    {
      "inputs": [
        {
          "internalType": "address",
          "name": "spender",
          "type": "address"
        },
        {
          "internalType": "uint256",
          "name": "amount",
          "type": "uint256"
        }
      ],
      "name": "approve",
      "outputs": [
        {
          "internalType": "bool",
          "name": "",
          "type": "bool"
        }
      ],
      "stateMutability": "nonpayable",
      "type": "function"
    },
    {
      "inputs": [
        {
          "internalType": "address",
          "name": "account",
          "type": "address"
        }
      ],
      "name": "balanceOf",
      "outputs": [
        {
          "internalType": "uint256",
          "name": "",
          "type": "uint256"
        }
      ],
      "stateMutability": "view",
      "type": "function"
    },
    {
      "inputs": [
        {
          "internalType": "uint256",
          "name": "_amount",
          "type": "uint256"
        }
      ],
      "name": "burn",
      "outputs": [],
      "stateMutability": "nonpayable",
      "type": "function"
    },
    {
      "inputs": [
        {
          "internalType": "address",
          "name": "_account",
          "type": "address"
        },
        {
          "internalType": "uint256",
          "name": "_amount",
          "type": "uint256"
        }
      ],
      "name": "burnFrom",
      "outputs": [],
      "stateMutability": "nonpayable",
      "type": "function"
    },
    {
      "inputs": [],
      "name": "contractURI",
      "outputs": [
        {
          "internalType": "string",
          "name": "",
          "type": "string"
        }
      ],
      "stateMutability": "view",
      "type": "function"
    },
    {
      "inputs": [],
      "name": "decimals",
      "outputs": [
        {
          "internalType": "uint8",
          "name": "",
          "type": "uint8"
        }
      ],
      "stateMutability": "view",
      "type": "function"
    },
    {
      "inputs": [
        {
          "internalType": "address",
          "name": "spender",
          "type": "address"
        },
        {
          "internalType": "uint256",
          "name": "subtractedValue",
          "type": "uint256"
        }
      ],
      "name": "decreaseAllowance",
      "outputs": [
        {
          "internalType": "bool",
          "name": "",
          "type": "bool"
        }
      ],
      "stateMutability": "nonpayable",
      "type": "function"
    },
    {
      "inputs": [
        {
          "internalType": "bytes32",
          "name": "projectId",
          "type": "bytes32"
        }
      ],
      "name": "getProjectContributions",
      "outputs": [
        {
          "components": [
            {
              "internalType": "address",
              "name": "contributor",
              "type": "address"
            },
            {
              "internalType": "uint256",
              "name": "artistPercentage",
              "type": "uint256"
            },
            {
              "internalType": "uint256",
              "name": "fanPercentage",
              "type": "uint256"
            },
            {
              "internalType": "uint256",
              "name": "timestamp",
              "type": "uint256"
            }
          ],
          "internalType": "struct ProducerProtocolToken.Contribution[]",
          "name": "",
          "type": "tuple[]"
        }
      ],
      "stateMutability": "view",
      "type": "function"
    },
    {
      "inputs": [
        {
          "internalType": "address",
          "name": "spender",
          "type": "address"
        },
        {
          "internalType": "uint256",
          "name": "addedValue",
          "type": "uint256"
        }
      ],
      "name": "increaseAllowance",
      "outputs": [
        {
          "internalType": "bool",
          "name": "",
          "type": "bool"
        }
      ],
      "stateMutability": "nonpayable",
      "type": "function"
    },
    {
      "inputs": [
        {
          "internalType": "address",
          "name": "to",
          "type": "address"
        },
        {
          "internalType": "uint256",
          "name": "amount",
          "type": "uint256"
        },
        {
          "internalType": "bytes32",
          "name": "projectId",
          "type": "bytes32"
        },
        {
          "internalType": "uint256",
          "name": "percentage",
          "type": "uint256"
        }
      ],
      "name": "mintArtistTokens",
      "outputs": [],
      "stateMutability": "nonpayable",
      "type": "function"
    },
    {
      "inputs": [
        {
          "internalType": "address",
          "name": "to",
          "type": "address"
        },
        {
          "internalType": "uint256",
          "name": "amount",
          "type": "uint256"
        },
        {
          "internalType": "bytes32",
          "name": "projectId",
          "type": "bytes32"
        },
        {
          "internalType": "uint256",
          "name": "percentage",
          "type": "uint256"
        }
      ],
      "name": "mintFanTokens",
      "outputs": [],
      "stateMutability": "nonpayable",
      "type": "function"
    },
    {
      "inputs": [
        {
          "internalType": "address",
          "name": "_to",
          "type": "address"
        },
        {
          "internalType": "uint256",
          "name": "_amount",
          "type": "uint256"
        }
      ],
      "name": "mintTo",
      "outputs": [],
      "stateMutability": "nonpayable",
      "type": "function"
    },
    {
      "inputs": [
        {
          "internalType": "bytes[]",
          "name": "data",
          "type": "bytes[]"
        }
      ],
      "name": "multicall",
      "outputs": [
        {
          "internalType": "bytes[]",
          "name": "results",
          "type": "bytes[]"
        }
      ],
      "stateMutability": "nonpayable",
      "type": "function"
    },
    {
      "inputs": [],
      "name": "name",
      "outputs": [
        {
          "internalType": "string",
          "name": "",
          "type": "string"
        }
      ],
      "stateMutability": "view",
      "type": "function"
    },
    {
      "inputs": [
        {
          "internalType": "address",
          "name": "owner",
          "type": "address"
        }
      ],
      "name": "nonces",
      "outputs": [
        {
          "internalType": "uint256",
          "name": "",
          "type": "uint256"
        }
      ],
      "stateMutability": "view",
      "type": "function"
    },
    {
      "inputs": [],
      "name": "owner",
      "outputs": [
        {
          "internalType": "address",
          "name": "",
          "type": "address"
        }
      ],
      "stateMutability": "view",
      "type": "function"
    },
    {
      "inputs": [
        {
          "internalType": "address",
          "name": "owner",
          "type": "address"
        },
        {
          "internalType": "address",
          "name": "spender",
          "type": "address"
        },
        {
          "internalType": "uint256",
          "name": "value",
          "type": "uint256"
        },
        {
          "internalType": "uint256",
          "name": "deadline",
          "type": "uint256"
        },
        {
          "internalType": "uint8",
          "name": "v",
          "type": "uint8"
        },
        {
          "internalType": "bytes32",
          "name": "r",
          "type": "bytes32"
        },
        {
          "internalType": "bytes32",
          "name": "s",
          "type": "bytes32"
        }
      ],
      "name": "permit",
      "outputs": [],
      "stateMutability": "nonpayable",
      "type": "function"
    },
    {
      "inputs": [
        {
          "internalType": "bytes32",
          "name": "",
          "type": "bytes32"
        },
        {
          "internalType": "uint256",
          "name": "",
          "type": "uint256"
        }
      ],
      "name": "projectContributions",
      "outputs": [
        {
          "internalType": "address",
          "name": "contributor",
          "type": "address"
        },
        {
          "internalType": "uint256",
          "name": "artistPercentage",
          "type": "uint256"
        },
        {
          "internalType": "uint256",
          "name": "fanPercentage",
          "type": "uint256"
        },
        {
          "internalType": "uint256",
          "name": "timestamp",
          "type": "uint256"
        }
      ],
      "stateMutability": "view",
      "type": "function"
    },
    {
      "inputs": [
        {
          "internalType": "string",
          "name": "_uri",
          "type": "string"
        }
      ],
      "name": "setContractURI",
      "outputs": [],
      "stateMutability": "nonpayable",
      "type": "function"
    },
    {
      "inputs": [
        {
          "internalType": "address",
          "name": "_newOwner",
          "type": "address"
        }
      ],
      "name": "setOwner",
      "outputs": [],
      "stateMutability": "nonpayable",
      "type": "function"
    },
    {
      "inputs": [],
      "name": "symbol",
      "outputs": [
        {
          "internalType": "string",
          "name": "",
          "type": "string"
        }
      ],
      "stateMutability": "view",
      "type": "function"
    },
    {
      "inputs": [],
      "name": "totalSupply",
      "outputs": [
        {
          "internalType": "uint256",
          "name": "",
          "type": "uint256"
        }
      ],
      "stateMutability": "view",
      "type": "function"
    },
    {
      "inputs": [
        {
          "internalType": "address",
          "name": "to",
          "type": "address"
        },
        {
          "internalType": "uint256",
          "name": "amount",
          "type": "uint256"
        }
      ],
      "name": "transfer",
      "outputs": [
        {
          "internalType": "bool",
          "name": "",
          "type": "bool"
        }
      ],
      "stateMutability": "nonpayable",
      "type": "function"
    },
    {
      "inputs": [
        {
          "internalType": "address",
          "name": "from",
          "type": "address"
        },
        {
          "internalType": "address",
          "name": "to",
          "type": "address"
        },
        {
          "internalType": "uint256",
          "name": "amount",
          "type": "uint256"
        }
      ],
      "name": "transferFrom",
      "outputs": [
        {
          "internalType": "bool",
          "name": "",
          "type": "bool"
        }
      ],
      "stateMutability": "nonpayable",
      "type": "function"
    }
  ],
  "devdoc": {
    "errors": {
      "ContractMetadataUnauthorized()": [
        {
          "details": "The sender is not authorized to perform the action"
        }
      ],
      "OwnableUnauthorized()": [
        {
          "details": "The sender is not authorized to perform the action"
        }
      ]
    },
    "events": {
      "ContractURIUpdated(string,string)": {
        "details": "Emitted when the contract URI is updated."
      },
      "OwnerUpdated(address,address)": {
        "details": "Emitted when a new Owner is set."
      },
      "TokensMinted(address,uint256)": {
        "details": "Emitted when tokens are minted with `mintTo`"
      }
    },
    "kind": "dev",
    "methods": {
      "DOMAIN_SEPARATOR()": {
        "details": "See {IERC20Permit-DOMAIN_SEPARATOR}."
      },
      "allowance(address,address)": {
        "details": "See {IERC20-allowance}."
      },
      "approve(address,uint256)": {
        "details": "See {IERC20-approve}. NOTE: If `amount` is the maximum `uint256`, the allowance is not updated on `transferFrom`. This is semantically equivalent to an infinite approval. Requirements: - `spender` cannot be the zero address."
      },
      "balanceOf(address)": {
        "details": "See {IERC20-balanceOf}."
      },
      "burn(uint256)": {
        "details": "Caller should own the `_amount` of tokens.",
        "params": {
          "_amount": "The number of tokens to burn."
        }
      },
      "burnFrom(address,uint256)": {
        "details": "`_account` should own the `_amount` of tokens.",
        "params": {
          "_account": "The account to burn tokens from.",
          "_amount": "The number of tokens to burn."
        }
      },
      "decimals()": {
        "details": "Returns the number of decimals used to get its user representation. For example, if `decimals` equals `2`, a balance of `505` tokens should be displayed to a user as `5.05` (`505 / 10 ** 2`). Tokens usually opt for a value of 18, imitating the relationship between Ether and Wei. This is the value {ERC20} uses, unless this function is overridden; NOTE: This information is only used for _display_ purposes: it in no way affects any of the arithmetic of the contract, including {IERC20-balanceOf} and {IERC20-transfer}."
      },
      "decreaseAllowance(address,uint256)": {
        "details": "Atomically decreases the allowance granted to `spender` by the caller. This is an alternative to {approve} that can be used as a mitigation for problems described in {IERC20-approve}. Emits an {Approval} event indicating the updated allowance. Requirements: - `spender` cannot be the zero address. - `spender` must have allowance for the caller of at least `subtractedValue`."
      },
      "increaseAllowance(address,uint256)": {
        "details": "Atomically increases the allowance granted to `spender` by the caller. This is an alternative to {approve} that can be used as a mitigation for problems described in {IERC20-approve}. Emits an {Approval} event indicating the updated allowance. Requirements: - `spender` cannot be the zero address."
      },
      "mintTo(address,uint256)": {
        "details": "The logic in the `_canMint` function determines whether the caller is authorized to mint tokens.",
        "params": {
          "_amount": "Quantity of tokens to mint.",
          "_to": "The recipient of the tokens to mint."
        }
      },
      "multicall(bytes[])": {
        "details": "Receives and executes a batch of function calls on this contract.",
        "params": {
          "data": "The bytes data that makes up the batch of function calls to execute."
        },
        "returns": {
          "results": "The bytes data that makes up the result of the batch of function calls executed."
        }
      },
      "name()": {
        "details": "Returns the name of the token."
      },
      "nonces(address)": {
        "details": "See {IERC20Permit-nonces}."
      },
      "permit(address,address,uint256,uint256,uint8,bytes32,bytes32)": {
        "details": "See {IERC20Permit-permit}."
      },
      "setContractURI(string)": {
        "details": "Caller should be authorized to setup contractURI, e.g. contract admin.                  See {_canSetContractURI}.                  Emits {ContractURIUpdated Event}.",
        "params": {
          "_uri": "keccak256 hash of the role. e.g. keccak256(\"TRANSFER_ROLE\")"
        }
      },
      "setOwner(address)": {
        "params": {
          "_newOwner": "The address to set as the new owner of the contract."
        }
      },
      "symbol()": {
        "details": "Returns the symbol of the token, usually a shorter version of the name."
      },
      "totalSupply()": {
        "details": "See {IERC20-totalSupply}."
      },
      "transfer(address,uint256)": {
        "details": "See {IERC20-transfer}. Requirements: - `to` cannot be the zero address. - the caller must have a balance of at least `amount`."
      },
      "transferFrom(address,address,uint256)": {
        "details": "See {IERC20-transferFrom}. Emits an {Approval} event indicating the updated allowance. This is not required by the EIP. See the note at the beginning of {ERC20}. NOTE: Does not update the allowance if the current allowance is the maximum `uint256`. Requirements: - `from` and `to` cannot be the zero address. - `from` must have a balance of at least `amount`. - the caller must have allowance for ``from``'s tokens of at least `amount`."
      }
    },
    "version": 1
  },
  "evm": {
    "assembly": "    /* \"ProducerProtocolToken.sol\":112:2472  contract ProducerProtocolToken is ERC20Base {... */\n  mstore(0x40, 0x0100)\n    /* \"@thirdweb-dev/contracts/external-deps/openzeppelin/token/ERC20/extensions/ERC20Permit.sol\":1443:1538   */\n  0x6e71edae12b1b97f4d1f60370fef10105fa2faae0126114a169c64845d6126c9\n    /* \"@thirdweb-dev/contracts/external-deps/openzeppelin/token/ERC20/extensions/ERC20Permit.sol\":1390:1538   */\n  0xe0\n  mstore\n    /* \"ProducerProtocolToken.sol\":582:734  constructor(... */\n  callvalue\n  dup1\n  iszero\n  tag_1\n  jumpi\n  0x00\n  dup1\n  revert\ntag_1:\n  pop\n  mload(0x40)\n  sub(codesize, bytecodeSize)\n  dup1\n  bytecodeSize\n  dup4\n  codecopy\n  dup2\n  add\n  0x40\n  dup2\n  swap1\n  mstore\n  tag_2\n  swap2\n  tag_3\n  jump\t// in\ntag_2:\n    /* \"ProducerProtocolToken.sol\":701:714  _initialOwner */\n  dup1\n    /* \"ProducerProtocolToken.sol\":716:721  _name */\n  dup4\n    /* \"ProducerProtocolToken.sol\":723:730  _symbol */\n  dup4\n    /* \"ProducerProtocolToken.sol\":716:721  _name */\n  dup2\n    /* \"ProducerProtocolToken.sol\":723:730  _symbol */\n  dup2\n    /* \"ProducerProtocolToken.sol\":716:721  _name */\n  dup2\n    /* \"ProducerProtocolToken.sol\":723:730  _symbol */\n  dup2\n    /* \"@thirdweb-dev/contracts/external-deps/openzeppelin/token/ERC20/ERC20.sol\":2081:2086   */\n  0x05\n    /* \"@thirdweb-dev/contracts/external-deps/openzeppelin/token/ERC20/ERC20.sol\":2081:2094   */\n  tag_9\n    /* \"ProducerProtocolToken.sol\":716:721  _name */\n  dup4\n    /* \"@thirdweb-dev/contracts/external-deps/openzeppelin/token/ERC20/ERC20.sol\":2081:2086   */\n  dup3\n    /* \"@thirdweb-dev/contracts/external-deps/openzeppelin/token/ERC20/ERC20.sol\":2081:2094   */\n  tag_10\n  jump\t// in\ntag_9:\n  pop\n    /* \"@thirdweb-dev/contracts/external-deps/openzeppelin/token/ERC20/ERC20.sol\":2104:2111   */\n  0x06\n    /* \"@thirdweb-dev/contracts/external-deps/openzeppelin/token/ERC20/ERC20.sol\":2104:2121   */\n  tag_11\n    /* \"@thirdweb-dev/contracts/external-deps/openzeppelin/token/ERC20/ERC20.sol\":2114:2121   */\n  dup3\n    /* \"@thirdweb-dev/contracts/external-deps/openzeppelin/token/ERC20/ERC20.sol\":2104:2111   */\n  dup3\n    /* \"@thirdweb-dev/contracts/external-deps/openzeppelin/token/ERC20/ERC20.sol\":2104:2121   */\n  tag_10\n  jump\t// in\ntag_11:\n  pop\n  pop\n    /* \"@thirdweb-dev/contracts/external-deps/openzeppelin/token/ERC20/extensions/ERC20Permit.sol\":1877:1890   */\n  chainid\n    /* \"@thirdweb-dev/contracts/external-deps/openzeppelin/token/ERC20/extensions/ERC20Permit.sol\":1858:1890   */\n  0xa0\n  mstore\n  pop\n    /* \"@thirdweb-dev/contracts/external-deps/openzeppelin/token/ERC20/extensions/ERC20Permit.sol\":1923:1927   */\n  address\n    /* \"@thirdweb-dev/contracts/external-deps/openzeppelin/token/ERC20/extensions/ERC20Permit.sol\":1900:1928   */\n  0xc0\n  mstore\n    /* \"@thirdweb-dev/contracts/external-deps/openzeppelin/token/ERC20/extensions/ERC20Permit.sol\":1965:1988   */\n  tag_13\n    /* \"@thirdweb-dev/contracts/external-deps/openzeppelin/token/ERC20/extensions/ERC20Permit.sol\":1965:1986   */\n  tag_14\n    /* \"@thirdweb-dev/contracts/external-deps/openzeppelin/token/ERC20/extensions/ERC20Permit.sol\":1965:1988   */\n  jump\t// in\ntag_13:\n    /* \"@thirdweb-dev/contracts/external-deps/openzeppelin/token/ERC20/extensions/ERC20Permit.sol\":1938:1988   */\n  0x80\n  mstore\n  pop\n    /* \"@thirdweb-dev/contracts/base/ERC20Base.sol\":1429:1455   */\n  tag_16\n  swap1\n  pop\n    /* \"@thirdweb-dev/contracts/base/ERC20Base.sol\":1441:1454   */\n  dup4\n    /* \"@thirdweb-dev/contracts/base/ERC20Base.sol\":1429:1440   */\n  tag_17\n    /* \"@thirdweb-dev/contracts/base/ERC20Base.sol\":1429:1455   */\n  jump\t// in\ntag_16:\n    /* \"@thirdweb-dev/contracts/base/ERC20Base.sol\":1312:1462   */\n  pop\n  pop\n  pop\n    /* \"ProducerProtocolToken.sol\":582:734  constructor(... */\n  pop\n  pop\n  pop\n    /* \"ProducerProtocolToken.sol\":112:2472  contract ProducerProtocolToken is ERC20Base {... */\n  jump(tag_38)\n    /* \"@thirdweb-dev/contracts/external-deps/openzeppelin/token/ERC20/extensions/ERC20Permit.sol\":3296:3734   */\ntag_14:\n    /* \"@thirdweb-dev/contracts/external-deps/openzeppelin/token/ERC20/extensions/ERC20Permit.sol\":3351:3358   */\n  0x00\n    /* \"@thirdweb-dev/contracts/external-deps/openzeppelin/token/ERC20/extensions/ERC20Permit.sol\":3448:3543   */\n  0x8b73c3c69bb8fe3d512ecc4cf759cc79239f7b179b0ffacaa9a75d522b39400f\n    /* \"@thirdweb-dev/contracts/external-deps/openzeppelin/token/ERC20/extensions/ERC20Permit.sol\":3581:3587   */\n  tag_21\n    /* \"@thirdweb-dev/contracts/external-deps/openzeppelin/token/ERC20/extensions/ERC20Permit.sol\":3581:3585   */\n  tag_22\n    /* \"@thirdweb-dev/contracts/external-deps/openzeppelin/token/ERC20/extensions/ERC20Permit.sol\":3581:3587   */\n  jump\t// in\ntag_21:\n    /* \"@thirdweb-dev/contracts/external-deps/openzeppelin/token/ERC20/extensions/ERC20Permit.sol\":3565:3589   */\n  dup1\n  mload\n  0x20\n  swap2\n  dup3\n  add\n  keccak256\n    /* \"@thirdweb-dev/contracts/external-deps/openzeppelin/token/ERC20/extensions/ERC20Permit.sol\":3416:3713   */\n  0x40\n  dup1\n  mload\n  swap3\n  dup4\n  add\n    /* \"#utility.yul\":4415:4440   */\n  swap4\n  swap1\n  swap4\n  mstore\n    /* \"#utility.yul\":4456:4474   */\n  swap2\n  dup2\n  add\n    /* \"#utility.yul\":4449:4483   */\n  swap2\n  swap1\n  swap2\n  mstore\n    /* \"@thirdweb-dev/contracts/external-deps/openzeppelin/token/ERC20/extensions/ERC20Permit.sol\":3611:3625   */\n  0xc89efdaa54c0f20c7adf612882df0950f5a951637e0307cdcb4c672f298b8bc6\n    /* \"#utility.yul\":4499:4517   */\n  0x60\n  dup3\n  add\n    /* \"#utility.yul\":4492:4526   */\n  mstore\n    /* \"@thirdweb-dev/contracts/external-deps/openzeppelin/token/ERC20/extensions/ERC20Permit.sol\":3647:3660   */\n  chainid\n    /* \"#utility.yul\":4542:4560   */\n  0x80\n  dup3\n  add\n    /* \"#utility.yul\":4535:4569   */\n  mstore\n    /* \"@thirdweb-dev/contracts/external-deps/openzeppelin/token/ERC20/extensions/ERC20Permit.sol\":3690:3694   */\n  address\n    /* \"#utility.yul\":4585:4604   */\n  0xa0\n  dup3\n  add\n    /* \"#utility.yul\":4578:4639   */\n  mstore\n    /* \"#utility.yul\":4387:4406   */\n  0xc0\n  add\n    /* \"@thirdweb-dev/contracts/external-deps/openzeppelin/token/ERC20/extensions/ERC20Permit.sol\":3416:3713   */\n  mload(0x40)\n  0x20\n  dup2\n  dup4\n  sub\n  sub\n  dup2\n  mstore\n  swap1\n  0x40\n  mstore\n    /* \"@thirdweb-dev/contracts/external-deps/openzeppelin/token/ERC20/extensions/ERC20Permit.sol\":3389:3727   */\n  dup1\n  mload\n  swap1\n  0x20\n  add\n  keccak256\n    /* \"@thirdweb-dev/contracts/external-deps/openzeppelin/token/ERC20/extensions/ERC20Permit.sol\":3370:3727   */\n  swap1\n  pop\n    /* \"@thirdweb-dev/contracts/external-deps/openzeppelin/token/ERC20/extensions/ERC20Permit.sol\":3296:3734   */\n  swap1\n  jump\t// out\n    /* \"@thirdweb-dev/contracts/extension/Ownable.sol\":1527:1699   */\ntag_17:\n    /* \"@thirdweb-dev/contracts/extension/Ownable.sol\":1607:1613   */\n  0x01\n  dup1\n  sload\n  sub(shl(0xa0, 0x01), 0x01)\n    /* \"@thirdweb-dev/contracts/extension/Ownable.sol\":1623:1641   */\n  dup4\n  dup2\n  and\n  not(sub(shl(0xa0, 0x01), 0x01))\n  dup4\n  and\n  dup2\n  or\n  swap1\n  swap4\n  sstore\n    /* \"@thirdweb-dev/contracts/extension/Ownable.sol\":1657:1692   */\n  mload(0x40)\n    /* \"@thirdweb-dev/contracts/extension/Ownable.sol\":1607:1613   */\n  swap2\n  and\n  swap2\n    /* \"@thirdweb-dev/contracts/extension/Ownable.sol\":1623:1641   */\n  swap1\n    /* \"@thirdweb-dev/contracts/extension/Ownable.sol\":1607:1613   */\n  dup3\n  swap1\n    /* \"@thirdweb-dev/contracts/extension/Ownable.sol\":1657:1692   */\n  0x8292fce18fa69edf4db7b94ea2e58241df0ae57f97e0a6c9b29067028bf92d76\n  swap1\n    /* \"@thirdweb-dev/contracts/extension/Ownable.sol\":1586:1604   */\n  0x00\n  swap1\n    /* \"@thirdweb-dev/contracts/extension/Ownable.sol\":1657:1692   */\n  log3\n    /* \"@thirdweb-dev/contracts/extension/Ownable.sol\":1576:1699   */\n  pop\n    /* \"@thirdweb-dev/contracts/extension/Ownable.sol\":1527:1699   */\n  pop\n  jump\t// out\n    /* \"@thirdweb-dev/contracts/external-deps/openzeppelin/token/ERC20/ERC20.sol\":2193:2291   */\ntag_22:\n    /* \"@thirdweb-dev/contracts/external-deps/openzeppelin/token/ERC20/ERC20.sol\":2247:2260   */\n  0x60\n    /* \"@thirdweb-dev/contracts/external-deps/openzeppelin/token/ERC20/ERC20.sol\":2279:2284   */\n  0x05\n    /* \"@thirdweb-dev/contracts/external-deps/openzeppelin/token/ERC20/ERC20.sol\":2272:2284   */\n  dup1\n  sload\n  tag_27\n  swap1\n  tag_28\n  jump\t// in\ntag_27:\n  dup1\n  0x1f\n  add\n  0x20\n  dup1\n  swap2\n  div\n  mul\n  0x20\n  add\n  mload(0x40)\n  swap1\n  dup2\n  add\n  0x40\n  mstore\n  dup1\n  swap3\n  swap2\n  swap1\n  dup2\n  dup2\n  mstore\n  0x20\n  add\n  dup3\n  dup1\n  sload\n  tag_29\n  swap1\n  tag_28\n  jump\t// in\ntag_29:\n  dup1\n  iszero\n  tag_30\n  jumpi\n  dup1\n  0x1f\n  lt\n  tag_31\n  jumpi\n  0x0100\n  dup1\n  dup4\n  sload\n  div\n  mul\n  dup4\n  mstore\n  swap2\n  0x20\n  add\n  swap2\n  jump(tag_30)\ntag_31:\n  dup3\n  add\n  swap2\n  swap1\n  0x00\n  mstore\n  keccak256(0x00, 0x20)\n  swap1\ntag_32:\n  dup2\n  sload\n  dup2\n  mstore\n  swap1\n  0x01\n  add\n  swap1\n  0x20\n  add\n  dup1\n  dup4\n  gt\n  tag_32\n  jumpi\n  dup3\n  swap1\n  sub\n  0x1f\n  and\n  dup3\n  add\n  swap2\ntag_30:\n  pop\n  pop\n  pop\n  pop\n  pop\n  swap1\n  pop\n    /* \"@thirdweb-dev/contracts/external-deps/openzeppelin/token/ERC20/ERC20.sol\":2193:2291   */\n  swap1\n  jump\t// out\n    /* \"#utility.yul\":14:141   */\ntag_33:\n    /* \"#utility.yul\":75:85   */\n  0x4e487b71\n    /* \"#utility.yul\":70:73   */\n  0xe0\n    /* \"#utility.yul\":66:86   */\n  shl\n    /* \"#utility.yul\":63:64   */\n  0x00\n    /* \"#utility.yul\":56:87   */\n  mstore\n    /* \"#utility.yul\":106:110   */\n  0x41\n    /* \"#utility.yul\":103:104   */\n  0x04\n    /* \"#utility.yul\":96:111   */\n  mstore\n    /* \"#utility.yul\":130:134   */\n  0x24\n    /* \"#utility.yul\":127:128   */\n  0x00\n    /* \"#utility.yul\":120:135   */\n  revert\n    /* \"#utility.yul\":146:862   */\ntag_34:\n    /* \"#utility.yul\":200:205   */\n  0x00\n    /* \"#utility.yul\":253:256   */\n  dup3\n    /* \"#utility.yul\":246:250   */\n  0x1f\n    /* \"#utility.yul\":238:244   */\n  dup4\n    /* \"#utility.yul\":234:251   */\n  add\n    /* \"#utility.yul\":230:257   */\n  slt\n    /* \"#utility.yul\":220:275   */\n  tag_41\n  jumpi\n    /* \"#utility.yul\":271:272   */\n  0x00\n    /* \"#utility.yul\":268:269   */\n  dup1\n    /* \"#utility.yul\":261:273   */\n  revert\n    /* \"#utility.yul\":220:275   */\ntag_41:\n    /* \"#utility.yul\":294:307   */\n  dup2\n  mload\n  sub(shl(0x40, 0x01), 0x01)\n    /* \"#utility.yul\":356:366   */\n  dup1\n  dup3\n  gt\n    /* \"#utility.yul\":353:389   */\n  iszero\n  tag_43\n  jumpi\n    /* \"#utility.yul\":369:387   */\n  tag_43\n  tag_33\n  jump\t// in\ntag_43:\n    /* \"#utility.yul\":444:446   */\n  0x40\n    /* \"#utility.yul\":438:447   */\n  mload\n    /* \"#utility.yul\":412:414   */\n  0x1f\n    /* \"#utility.yul\":498:511   */\n  dup4\n  add\n  not(0x1f)\n    /* \"#utility.yul\":494:516   */\n  swap1\n  dup2\n  and\n    /* \"#utility.yul\":518:520   */\n  0x3f\n    /* \"#utility.yul\":490:521   */\n  add\n    /* \"#utility.yul\":486:526   */\n  and\n    /* \"#utility.yul\":474:527   */\n  dup2\n  add\n  swap1\n    /* \"#utility.yul\":542:560   */\n  dup3\n  dup3\n  gt\n    /* \"#utility.yul\":562:584   */\n  dup2\n  dup4\n  lt\n    /* \"#utility.yul\":539:585   */\n  or\n    /* \"#utility.yul\":536:608   */\n  iszero\n  tag_45\n  jumpi\n    /* \"#utility.yul\":588:606   */\n  tag_45\n  tag_33\n  jump\t// in\ntag_45:\n    /* \"#utility.yul\":628:638   */\n  dup2\n    /* \"#utility.yul\":624:626   */\n  0x40\n    /* \"#utility.yul\":617:639   */\n  mstore\n    /* \"#utility.yul\":663:665   */\n  dup4\n    /* \"#utility.yul\":655:661   */\n  dup2\n    /* \"#utility.yul\":648:666   */\n  mstore\n    /* \"#utility.yul\":709:712   */\n  dup7\n    /* \"#utility.yul\":702:706   */\n  0x20\n    /* \"#utility.yul\":697:699   */\n  dup6\n    /* \"#utility.yul\":689:695   */\n  dup9\n    /* \"#utility.yul\":685:700   */\n  add\n    /* \"#utility.yul\":681:707   */\n  add\n    /* \"#utility.yul\":678:713   */\n  gt\n    /* \"#utility.yul\":675:730   */\n  iszero\n  tag_46\n  jumpi\n    /* \"#utility.yul\":726:727   */\n  0x00\n    /* \"#utility.yul\":723:724   */\n  dup1\n    /* \"#utility.yul\":716:728   */\n  revert\n    /* \"#utility.yul\":675:730   */\ntag_46:\n    /* \"#utility.yul\":783:785   */\n  dup4\n    /* \"#utility.yul\":776:780   */\n  0x20\n    /* \"#utility.yul\":768:774   */\n  dup8\n    /* \"#utility.yul\":764:781   */\n  add\n    /* \"#utility.yul\":757:761   */\n  0x20\n    /* \"#utility.yul\":749:755   */\n  dup4\n    /* \"#utility.yul\":745:762   */\n  add\n    /* \"#utility.yul\":739:786   */\n  mcopy\n    /* \"#utility.yul\":830:831   */\n  0x00\n    /* \"#utility.yul\":823:827   */\n  0x20\n    /* \"#utility.yul\":818:820   */\n  dup6\n    /* \"#utility.yul\":810:816   */\n  dup4\n    /* \"#utility.yul\":806:821   */\n  add\n    /* \"#utility.yul\":802:828   */\n  add\n    /* \"#utility.yul\":795:832   */\n  mstore\n    /* \"#utility.yul\":850:856   */\n  dup1\n    /* \"#utility.yul\":841:856   */\n  swap5\n  pop\n  pop\n  pop\n  pop\n  pop\n    /* \"#utility.yul\":146:862   */\n  swap3\n  swap2\n  pop\n  pop\n  jump\t// out\n    /* \"#utility.yul\":867:1596   */\ntag_3:\n    /* \"#utility.yul\":975:981   */\n  0x00\n    /* \"#utility.yul\":983:989   */\n  dup1\n    /* \"#utility.yul\":991:997   */\n  0x00\n    /* \"#utility.yul\":1044:1046   */\n  0x60\n    /* \"#utility.yul\":1032:1041   */\n  dup5\n    /* \"#utility.yul\":1023:1030   */\n  dup7\n    /* \"#utility.yul\":1019:1042   */\n  sub\n    /* \"#utility.yul\":1015:1047   */\n  slt\n    /* \"#utility.yul\":1012:1064   */\n  iszero\n  tag_48\n  jumpi\n    /* \"#utility.yul\":1060:1061   */\n  0x00\n    /* \"#utility.yul\":1057:1058   */\n  dup1\n    /* \"#utility.yul\":1050:1062   */\n  revert\n    /* \"#utility.yul\":1012:1064   */\ntag_48:\n    /* \"#utility.yul\":1087:1103   */\n  dup4\n  mload\n  sub(shl(0x40, 0x01), 0x01)\n    /* \"#utility.yul\":1152:1166   */\n  dup1\n  dup3\n  gt\n    /* \"#utility.yul\":1149:1183   */\n  iszero\n  tag_49\n  jumpi\n    /* \"#utility.yul\":1179:1180   */\n  0x00\n    /* \"#utility.yul\":1176:1177   */\n  dup1\n    /* \"#utility.yul\":1169:1181   */\n  revert\n    /* \"#utility.yul\":1149:1183   */\ntag_49:\n    /* \"#utility.yul\":1202:1263   */\n  tag_50\n    /* \"#utility.yul\":1255:1262   */\n  dup8\n    /* \"#utility.yul\":1246:1252   */\n  dup4\n    /* \"#utility.yul\":1235:1244   */\n  dup9\n    /* \"#utility.yul\":1231:1253   */\n  add\n    /* \"#utility.yul\":1202:1263   */\n  tag_34\n  jump\t// in\ntag_50:\n    /* \"#utility.yul\":1192:1263   */\n  swap5\n  pop\n    /* \"#utility.yul\":1309:1311   */\n  0x20\n    /* \"#utility.yul\":1298:1307   */\n  dup7\n    /* \"#utility.yul\":1294:1312   */\n  add\n    /* \"#utility.yul\":1288:1313   */\n  mload\n    /* \"#utility.yul\":1272:1313   */\n  swap2\n  pop\n    /* \"#utility.yul\":1338:1340   */\n  dup1\n    /* \"#utility.yul\":1328:1336   */\n  dup3\n    /* \"#utility.yul\":1325:1341   */\n  gt\n    /* \"#utility.yul\":1322:1358   */\n  iszero\n  tag_51\n  jumpi\n    /* \"#utility.yul\":1354:1355   */\n  0x00\n    /* \"#utility.yul\":1351:1352   */\n  dup1\n    /* \"#utility.yul\":1344:1356   */\n  revert\n    /* \"#utility.yul\":1322:1358   */\ntag_51:\n  pop\n    /* \"#utility.yul\":1377:1440   */\n  tag_52\n    /* \"#utility.yul\":1432:1439   */\n  dup7\n    /* \"#utility.yul\":1421:1429   */\n  dup3\n    /* \"#utility.yul\":1410:1419   */\n  dup8\n    /* \"#utility.yul\":1406:1430   */\n  add\n    /* \"#utility.yul\":1377:1440   */\n  tag_34\n  jump\t// in\ntag_52:\n    /* \"#utility.yul\":1483:1485   */\n  0x40\n    /* \"#utility.yul\":1468:1486   */\n  dup7\n  add\n    /* \"#utility.yul\":1462:1487   */\n  mload\n    /* \"#utility.yul\":1367:1440   */\n  swap1\n  swap4\n  pop\n    /* \"#utility.yul\":1462:1487   */\n  swap1\n  pop\n  sub(shl(0xa0, 0x01), 0x01)\n    /* \"#utility.yul\":1516:1547   */\n  dup2\n  and\n    /* \"#utility.yul\":1506:1548   */\n  dup2\n  eq\n    /* \"#utility.yul\":1496:1566   */\n  tag_53\n  jumpi\n    /* \"#utility.yul\":1562:1563   */\n  0x00\n    /* \"#utility.yul\":1559:1560   */\n  dup1\n    /* \"#utility.yul\":1552:1564   */\n  revert\n    /* \"#utility.yul\":1496:1566   */\ntag_53:\n    /* \"#utility.yul\":1585:1590   */\n  dup1\n    /* \"#utility.yul\":1575:1590   */\n  swap2\n  pop\n  pop\n    /* \"#utility.yul\":867:1596   */\n  swap3\n  pop\n  swap3\n  pop\n  swap3\n  jump\t// out\n    /* \"#utility.yul\":1601:1981   */\ntag_28:\n    /* \"#utility.yul\":1680:1681   */\n  0x01\n    /* \"#utility.yul\":1676:1688   */\n  dup2\n  dup2\n  shr\n  swap1\n    /* \"#utility.yul\":1723:1735   */\n  dup3\n  and\n  dup1\n    /* \"#utility.yul\":1744:1805   */\n  tag_55\n  jumpi\n    /* \"#utility.yul\":1798:1802   */\n  0x7f\n    /* \"#utility.yul\":1790:1796   */\n  dup3\n    /* \"#utility.yul\":1786:1803   */\n  and\n    /* \"#utility.yul\":1776:1803   */\n  swap2\n  pop\n    /* \"#utility.yul\":1744:1805   */\ntag_55:\n    /* \"#utility.yul\":1851:1853   */\n  0x20\n    /* \"#utility.yul\":1843:1849   */\n  dup3\n    /* \"#utility.yul\":1840:1854   */\n  lt\n    /* \"#utility.yul\":1820:1838   */\n  dup2\n    /* \"#utility.yul\":1817:1855   */\n  sub\n    /* \"#utility.yul\":1814:1975   */\n  tag_56\n  jumpi\n    /* \"#utility.yul\":1897:1907   */\n  0x4e487b71\n    /* \"#utility.yul\":1892:1895   */\n  0xe0\n    /* \"#utility.yul\":1888:1908   */\n  shl\n    /* \"#utility.yul\":1885:1886   */\n  0x00\n    /* \"#utility.yul\":1878:1909   */\n  mstore\n    /* \"#utility.yul\":1932:1936   */\n  0x22\n    /* \"#utility.yul\":1929:1930   */\n  0x04\n    /* \"#utility.yul\":1922:1937   */\n  mstore\n    /* \"#utility.yul\":1960:1964   */\n  0x24\n    /* \"#utility.yul\":1957:1958   */\n  0x00\n    /* \"#utility.yul\":1950:1965   */\n  revert\n    /* \"#utility.yul\":1814:1975   */\ntag_56:\n  pop\n    /* \"#utility.yul\":1601:1981   */\n  swap2\n  swap1\n  pop\n  jump\t// out\n    /* \"#utility.yul\":2112:2630   */\ntag_36:\n    /* \"#utility.yul\":2214:2216   */\n  0x1f\n    /* \"#utility.yul\":2209:2212   */\n  dup3\n    /* \"#utility.yul\":2206:2217   */\n  gt\n    /* \"#utility.yul\":2203:2624   */\n  iszero\n  tag_59\n  jumpi\n    /* \"#utility.yul\":2250:2255   */\n  dup1\n    /* \"#utility.yul\":2247:2248   */\n  0x00\n    /* \"#utility.yul\":2240:2256   */\n  mstore\n    /* \"#utility.yul\":2294:2298   */\n  0x20\n    /* \"#utility.yul\":2291:2292   */\n  0x00\n    /* \"#utility.yul\":2281:2299   */\n  keccak256\n    /* \"#utility.yul\":2364:2366   */\n  0x1f\n    /* \"#utility.yul\":2352:2362   */\n  dup5\n    /* \"#utility.yul\":2348:2367   */\n  add\n    /* \"#utility.yul\":2345:2346   */\n  0x05\n    /* \"#utility.yul\":2341:2368   */\n  shr\n    /* \"#utility.yul\":2335:2339   */\n  dup2\n    /* \"#utility.yul\":2331:2369   */\n  add\n    /* \"#utility.yul\":2400:2404   */\n  0x20\n    /* \"#utility.yul\":2388:2398   */\n  dup6\n    /* \"#utility.yul\":2385:2405   */\n  lt\n    /* \"#utility.yul\":2382:2429   */\n  iszero\n  tag_60\n  jumpi\n  pop\n    /* \"#utility.yul\":2423:2427   */\n  dup1\n    /* \"#utility.yul\":2382:2429   */\ntag_60:\n    /* \"#utility.yul\":2478:2480   */\n  0x1f\n    /* \"#utility.yul\":2473:2476   */\n  dup5\n    /* \"#utility.yul\":2469:2481   */\n  add\n    /* \"#utility.yul\":2466:2467   */\n  0x05\n    /* \"#utility.yul\":2462:2482   */\n  shr\n    /* \"#utility.yul\":2456:2460   */\n  dup3\n    /* \"#utility.yul\":2452:2483   */\n  add\n    /* \"#utility.yul\":2442:2483   */\n  swap2\n  pop\n    /* \"#utility.yul\":2533:2614   */\ntag_61:\n    /* \"#utility.yul\":2551:2553   */\n  dup2\n    /* \"#utility.yul\":2544:2549   */\n  dup2\n    /* \"#utility.yul\":2541:2554   */\n  lt\n    /* \"#utility.yul\":2533:2614   */\n  iszero\n  tag_63\n  jumpi\n    /* \"#utility.yul\":2610:2611   */\n  0x00\n    /* \"#utility.yul\":2596:2612   */\n  dup2\n  sstore\n    /* \"#utility.yul\":2577:2578   */\n  0x01\n    /* \"#utility.yul\":2566:2579   */\n  add\n    /* \"#utility.yul\":2533:2614   */\n  jump(tag_61)\ntag_63:\n    /* \"#utility.yul\":2537:2540   */\n  pop\n  pop\n    /* \"#utility.yul\":2203:2624   */\ntag_59:\n    /* \"#utility.yul\":2112:2630   */\n  pop\n  pop\n  pop\n  jump\t// out\n    /* \"#utility.yul\":2806:4151   */\ntag_10:\n    /* \"#utility.yul\":2926:2936   */\n  dup2\n  mload\n  sub(shl(0x40, 0x01), 0x01)\n    /* \"#utility.yul\":2948:2978   */\n  dup2\n  gt\n    /* \"#utility.yul\":2945:3001   */\n  iszero\n  tag_67\n  jumpi\n    /* \"#utility.yul\":2981:2999   */\n  tag_67\n  tag_33\n  jump\t// in\ntag_67:\n    /* \"#utility.yul\":3010:3107   */\n  tag_68\n    /* \"#utility.yul\":3100:3106   */\n  dup2\n    /* \"#utility.yul\":3060:3098   */\n  tag_69\n    /* \"#utility.yul\":3092:3096   */\n  dup5\n    /* \"#utility.yul\":3086:3097   */\n  sload\n    /* \"#utility.yul\":3060:3098   */\n  tag_28\n  jump\t// in\ntag_69:\n    /* \"#utility.yul\":3054:3058   */\n  dup5\n    /* \"#utility.yul\":3010:3107   */\n  tag_36\n  jump\t// in\ntag_68:\n    /* \"#utility.yul\":3162:3166   */\n  0x20\n  dup1\n    /* \"#utility.yul\":3219:3221   */\n  0x1f\n    /* \"#utility.yul\":3208:3222   */\n  dup4\n  gt\n    /* \"#utility.yul\":3236:3237   */\n  0x01\n    /* \"#utility.yul\":3231:3894   */\n  dup2\n  eq\n  tag_71\n  jumpi\n    /* \"#utility.yul\":3938:3939   */\n  0x00\n    /* \"#utility.yul\":3955:3961   */\n  dup5\n    /* \"#utility.yul\":3952:4041   */\n  iszero\n  tag_72\n  jumpi\n  pop\n    /* \"#utility.yul\":4007:4026   */\n  dup6\n  dup4\n  add\n    /* \"#utility.yul\":4001:4027   */\n  mload\n    /* \"#utility.yul\":3952:4041   */\ntag_72:\n  not(0x00)\n    /* \"#utility.yul\":2763:2764   */\n  0x03\n    /* \"#utility.yul\":2759:2770   */\n  dup7\n  swap1\n  shl\n    /* \"#utility.yul\":2755:2779   */\n  shr\n    /* \"#utility.yul\":2751:2780   */\n  not\n    /* \"#utility.yul\":2741:2781   */\n  and\n    /* \"#utility.yul\":2787:2788   */\n  0x01\n    /* \"#utility.yul\":2783:2794   */\n  dup6\n  swap1\n  shl\n    /* \"#utility.yul\":2738:2795   */\n  or\n    /* \"#utility.yul\":4054:4135   */\n  dup6\n  sstore\n    /* \"#utility.yul\":3201:4145   */\n  jump(tag_70)\n    /* \"#utility.yul\":3231:3894   */\ntag_71:\n    /* \"#utility.yul\":2059:2060   */\n  0x00\n    /* \"#utility.yul\":2052:2066   */\n  dup6\n  dup2\n  mstore\n    /* \"#utility.yul\":2096:2100   */\n  0x20\n    /* \"#utility.yul\":2083:2101   */\n  dup2\n  keccak256\n  not(0x1f)\n    /* \"#utility.yul\":3267:3287   */\n  dup7\n  and\n  swap2\n    /* \"#utility.yul\":3385:3621   */\ntag_75:\n    /* \"#utility.yul\":3399:3406   */\n  dup3\n    /* \"#utility.yul\":3396:3397   */\n  dup2\n    /* \"#utility.yul\":3393:3407   */\n  lt\n    /* \"#utility.yul\":3385:3621   */\n  iszero\n  tag_77\n  jumpi\n    /* \"#utility.yul\":3488:3507   */\n  dup9\n  dup7\n  add\n    /* \"#utility.yul\":3482:3508   */\n  mload\n    /* \"#utility.yul\":3467:3509   */\n  dup3\n  sstore\n    /* \"#utility.yul\":3580:3607   */\n  swap5\n  dup5\n  add\n  swap5\n    /* \"#utility.yul\":3548:3549   */\n  0x01\n    /* \"#utility.yul\":3536:3550   */\n  swap1\n  swap2\n  add\n  swap1\n    /* \"#utility.yul\":3415:3434   */\n  dup5\n  add\n    /* \"#utility.yul\":3385:3621   */\n  jump(tag_75)\ntag_77:\n    /* \"#utility.yul\":3389:3392   */\n  pop\n    /* \"#utility.yul\":3649:3655   */\n  dup6\n    /* \"#utility.yul\":3640:3647   */\n  dup3\n    /* \"#utility.yul\":3637:3656   */\n  lt\n    /* \"#utility.yul\":3634:3835   */\n  iszero\n  tag_78\n  jumpi\n    /* \"#utility.yul\":3710:3729   */\n  dup8\n  dup6\n  add\n    /* \"#utility.yul\":3704:3730   */\n  mload\n  not(0x00)\n    /* \"#utility.yul\":3793:3794   */\n  0x03\n    /* \"#utility.yul\":3789:3803   */\n  dup9\n  swap1\n  shl\n    /* \"#utility.yul\":3805:3808   */\n  0xf8\n    /* \"#utility.yul\":3785:3809   */\n  and\n    /* \"#utility.yul\":3781:3818   */\n  shr\n    /* \"#utility.yul\":3777:3819   */\n  not\n    /* \"#utility.yul\":3762:3820   */\n  and\n    /* \"#utility.yul\":3747:3821   */\n  dup2\n  sstore\n    /* \"#utility.yul\":3634:3835   */\ntag_78:\n  pop\n  pop\n    /* \"#utility.yul\":3881:3882   */\n  0x01\n    /* \"#utility.yul\":3872:3878   */\n  dup5\n    /* \"#utility.yul\":3869:3870   */\n  0x01\n    /* \"#utility.yul\":3865:3879   */\n  shl\n    /* \"#utility.yul\":3861:3883   */\n  add\n    /* \"#utility.yul\":3855:3859   */\n  dup6\n    /* \"#utility.yul\":3848:3884   */\n  sstore\n    /* \"#utility.yul\":3201:4145   */\ntag_70:\n  pop\n  pop\n  pop\n  pop\n    /* \"#utility.yul\":2806:4151   */\n  pop\n  pop\n  jump\t// out\n    /* \"#utility.yul\":4156:4645   */\ntag_38:\n    /* \"ProducerProtocolToken.sol\":112:2472  contract ProducerProtocolToken is ERC20Base {... */\n  mload(0x80)\n  mload(0xa0)\n  mload(0xc0)\n  mload(0xe0)\n  codecopy(0x00, dataOffset(sub_0), dataSize(sub_0))\n  0x00\n  assignImmutable(\"0x3cc897d409b554ced5aa06307a8e07be5c0c9d98455bbc5f1d0e2d36fd6ad03d\")\n  0x00\n  assignImmutable(\"0xe699a24dbc75eeaed81a8bf4b3cb0a2b31e2feaa7617ebf93abe15d5ab1d7460\")\n  0x00\n  assignImmutable(\"0x60e163d9cdafcec6e73fe4c9b57891ca6fd6dae3d26e9c32ad2e79edbe939c66\")\n  0x00\n  assignImmutable(\"0xa2a5186d10804c36f9f6240b945d303e91c4048ffbaf23b2f3c37ff278b9ee67\")\n  return(0x00, dataSize(sub_0))\nstop\n\nsub_0: assembly {\n        /* \"ProducerProtocolToken.sol\":112:2472  contract ProducerProtocolToken is ERC20Base {... */\n      mstore(0x40, 0x80)\n      callvalue\n      dup1\n      iszero\n      tag_1\n      jumpi\n      0x00\n      dup1\n      revert\n    tag_1:\n      pop\n      jumpi(tag_2, lt(calldatasize, 0x04))\n      shr(0xe0, calldataload(0x00))\n      dup1\n      0x7261fa29\n      gt\n      tag_29\n      jumpi\n      dup1\n      0xa457c2d7\n      gt\n      tag_30\n      jumpi\n      dup1\n      0xd505accf\n      gt\n      tag_31\n      jumpi\n      dup1\n      0xd505accf\n      eq\n      tag_25\n      jumpi\n      dup1\n      0xdd62ed3e\n      eq\n      tag_26\n      jumpi\n      dup1\n      0xe8a3d485\n      eq\n      tag_27\n      jumpi\n      dup1\n      0xe9e90ab6\n      eq\n      tag_28\n      jumpi\n      0x00\n      dup1\n      revert\n    tag_31:\n      dup1\n      0xa457c2d7\n      eq\n      tag_22\n      jumpi\n      dup1\n      0xa9059cbb\n      eq\n      tag_23\n      jumpi\n      dup1\n      0xac9650d8\n      eq\n      tag_24\n      jumpi\n      0x00\n      dup1\n      revert\n    tag_30:\n      dup1\n      0x8da5cb5b\n      gt\n      tag_32\n      jumpi\n      dup1\n      0x8da5cb5b\n      eq\n      tag_19\n      jumpi\n      dup1\n      0x938e3d7b\n      eq\n      tag_20\n      jumpi\n      dup1\n      0x95d89b41\n      eq\n      tag_21\n      jumpi\n      0x00\n      dup1\n      revert\n    tag_32:\n      dup1\n      0x7261fa29\n      eq\n      tag_16\n      jumpi\n      dup1\n      0x79cc6790\n      eq\n      tag_17\n      jumpi\n      dup1\n      0x7ecebe00\n      eq\n      tag_18\n      jumpi\n      0x00\n      dup1\n      revert\n    tag_29:\n      dup1\n      0x313ce567\n      gt\n      tag_33\n      jumpi\n      dup1\n      0x42966c68\n      gt\n      tag_34\n      jumpi\n      dup1\n      0x42966c68\n      eq\n      tag_12\n      jumpi\n      dup1\n      0x449a52f8\n      eq\n      tag_13\n      jumpi\n      dup1\n      0x6192bd3f\n      eq\n      tag_14\n      jumpi\n      dup1\n      0x70a08231\n      eq\n      tag_15\n      jumpi\n      0x00\n      dup1\n      revert\n    tag_34:\n      dup1\n      0x313ce567\n      eq\n      tag_9\n      jumpi\n      dup1\n      0x3644e515\n      eq\n      tag_10\n      jumpi\n      dup1\n      0x39509351\n      eq\n      tag_11\n      jumpi\n      0x00\n      dup1\n      revert\n    tag_33:\n      dup1\n      0x13af4035\n      gt\n      tag_35\n      jumpi\n      dup1\n      0x13af4035\n      eq\n      tag_6\n      jumpi\n      dup1\n      0x18160ddd\n      eq\n      tag_7\n      jumpi\n      dup1\n      0x23b872dd\n      eq\n      tag_8\n      jumpi\n      0x00\n      dup1\n      revert\n    tag_35:\n      dup1\n      0x06fdde03\n      eq\n      tag_3\n      jumpi\n      dup1\n      0x0952430e\n      eq\n      tag_4\n      jumpi\n      dup1\n      0x095ea7b3\n      eq\n      tag_5\n      jumpi\n    tag_2:\n      0x00\n      dup1\n      revert\n        /* \"@thirdweb-dev/contracts/external-deps/openzeppelin/token/ERC20/ERC20.sol\":2193:2291   */\n    tag_3:\n      tag_36\n      tag_37\n      jump\t// in\n    tag_36:\n      mload(0x40)\n      tag_38\n      swap2\n      swap1\n      tag_39\n      jump\t// in\n    tag_38:\n      mload(0x40)\n      dup1\n      swap2\n      sub\n      swap1\n      return\n        /* \"ProducerProtocolToken.sol\":2289:2470  function getProjectContributions(bytes32 projectId)... */\n    tag_4:\n      tag_40\n      tag_41\n      calldatasize\n      0x04\n      tag_42\n      jump\t// in\n    tag_41:\n      tag_43\n      jump\t// in\n    tag_40:\n      mload(0x40)\n      tag_38\n      swap2\n      swap1\n      tag_45\n      jump\t// in\n        /* \"@thirdweb-dev/contracts/external-deps/openzeppelin/token/ERC20/ERC20.sol\":4470:4667   */\n    tag_5:\n      tag_46\n      tag_47\n      calldatasize\n      0x04\n      tag_48\n      jump\t// in\n    tag_47:\n      tag_49\n      jump\t// in\n    tag_46:\n      mload(0x40)\n        /* \"#utility.yul\":2328:2342   */\n      swap1\n      iszero\n        /* \"#utility.yul\":2321:2343   */\n      iszero\n        /* \"#utility.yul\":2303:2344   */\n      dup2\n      mstore\n        /* \"#utility.yul\":2291:2293   */\n      0x20\n        /* \"#utility.yul\":2276:2294   */\n      add\n        /* \"@thirdweb-dev/contracts/external-deps/openzeppelin/token/ERC20/ERC20.sol\":4470:4667   */\n      tag_38\n        /* \"#utility.yul\":2163:2350   */\n      jump\n        /* \"@thirdweb-dev/contracts/extension/Ownable.sol\":1235:1412   */\n    tag_6:\n      tag_52\n      tag_53\n      calldatasize\n      0x04\n      tag_54\n      jump\t// in\n    tag_53:\n      tag_55\n      jump\t// in\n    tag_52:\n      stop\n        /* \"@thirdweb-dev/contracts/external-deps/openzeppelin/token/ERC20/ERC20.sol\":3281:3387   */\n    tag_7:\n        /* \"@thirdweb-dev/contracts/external-deps/openzeppelin/token/ERC20/ERC20.sol\":3368:3380   */\n      sload(0x04)\n        /* \"@thirdweb-dev/contracts/external-deps/openzeppelin/token/ERC20/ERC20.sol\":3281:3387   */\n    tag_56:\n      mload(0x40)\n        /* \"#utility.yul\":2692:2717   */\n      swap1\n      dup2\n      mstore\n        /* \"#utility.yul\":2680:2682   */\n      0x20\n        /* \"#utility.yul\":2665:2683   */\n      add\n        /* \"@thirdweb-dev/contracts/external-deps/openzeppelin/token/ERC20/ERC20.sol\":3281:3387   */\n      tag_38\n        /* \"#utility.yul\":2546:2723   */\n      jump\n        /* \"@thirdweb-dev/contracts/external-deps/openzeppelin/token/ERC20/ERC20.sol\":5229:5485   */\n    tag_8:\n      tag_46\n      tag_61\n      calldatasize\n      0x04\n      tag_62\n      jump\t// in\n    tag_61:\n      tag_63\n      jump\t// in\n        /* \"@thirdweb-dev/contracts/external-deps/openzeppelin/token/ERC20/ERC20.sol\":3130:3221   */\n    tag_9:\n      mload(0x40)\n        /* \"@thirdweb-dev/contracts/external-deps/openzeppelin/token/ERC20/ERC20.sol\":3212:3214   */\n      0x12\n        /* \"#utility.yul\":3203:3239   */\n      dup2\n      mstore\n        /* \"#utility.yul\":3191:3193   */\n      0x20\n        /* \"#utility.yul\":3176:3194   */\n      add\n        /* \"@thirdweb-dev/contracts/external-deps/openzeppelin/token/ERC20/ERC20.sol\":3130:3221   */\n      tag_38\n        /* \"#utility.yul\":3061:3245   */\n      jump\n        /* \"@thirdweb-dev/contracts/external-deps/openzeppelin/token/ERC20/extensions/ERC20Permit.sol\":3018:3290   */\n    tag_10:\n      tag_56\n      tag_70\n      jump\t// in\n        /* \"@thirdweb-dev/contracts/external-deps/openzeppelin/token/ERC20/ERC20.sol\":5880:6116   */\n    tag_11:\n      tag_46\n      tag_74\n      calldatasize\n      0x04\n      tag_48\n      jump\t// in\n    tag_74:\n      tag_75\n      jump\t// in\n        /* \"@thirdweb-dev/contracts/base/ERC20Base.sol\":2421:2585   */\n    tag_12:\n      tag_52\n      tag_78\n      calldatasize\n      0x04\n      tag_42\n      jump\t// in\n    tag_78:\n      tag_80\n      jump\t// in\n        /* \"@thirdweb-dev/contracts/base/ERC20Base.sol\":1989:2198   */\n    tag_13:\n      tag_52\n      tag_82\n      calldatasize\n      0x04\n      tag_48\n      jump\t// in\n    tag_82:\n      tag_83\n      jump\t// in\n        /* \"ProducerProtocolToken.sol\":740:1513  function mintArtistTokens(... */\n    tag_14:\n      tag_52\n      tag_85\n      calldatasize\n      0x04\n      tag_86\n      jump\t// in\n    tag_85:\n      tag_87\n      jump\t// in\n        /* \"@thirdweb-dev/contracts/external-deps/openzeppelin/token/ERC20/ERC20.sol\":3445:3570   */\n    tag_15:\n      tag_56\n      tag_89\n      calldatasize\n      0x04\n      tag_54\n      jump\t// in\n    tag_89:\n      sub(shl(0xa0, 0x01), 0x01)\n        /* \"@thirdweb-dev/contracts/external-deps/openzeppelin/token/ERC20/ERC20.sol\":3545:3563   */\n      and\n        /* \"@thirdweb-dev/contracts/external-deps/openzeppelin/token/ERC20/ERC20.sol\":3519:3526   */\n      0x00\n        /* \"@thirdweb-dev/contracts/external-deps/openzeppelin/token/ERC20/ERC20.sol\":3545:3563   */\n      swap1\n      dup2\n      mstore\n        /* \"@thirdweb-dev/contracts/external-deps/openzeppelin/token/ERC20/ERC20.sol\":3545:3554   */\n      0x02\n        /* \"@thirdweb-dev/contracts/external-deps/openzeppelin/token/ERC20/ERC20.sol\":3545:3563   */\n      0x20\n      mstore\n      0x40\n      swap1\n      keccak256\n      sload\n      swap1\n        /* \"@thirdweb-dev/contracts/external-deps/openzeppelin/token/ERC20/ERC20.sol\":3445:3570   */\n      jump\n        /* \"ProducerProtocolToken.sol\":316:378  mapping(bytes32 => Contribution[]) public projectContributions */\n    tag_16:\n      tag_92\n      tag_93\n      calldatasize\n      0x04\n      tag_94\n      jump\t// in\n    tag_93:\n      tag_95\n      jump\t// in\n    tag_92:\n      0x40\n      dup1\n      mload\n      sub(shl(0xa0, 0x01), 0x01)\n        /* \"#utility.yul\":4515:4570   */\n      swap1\n      swap6\n      and\n        /* \"#utility.yul\":4497:4571   */\n      dup6\n      mstore\n        /* \"#utility.yul\":4602:4604   */\n      0x20\n        /* \"#utility.yul\":4587:4605   */\n      dup6\n      add\n        /* \"#utility.yul\":4580:4614   */\n      swap4\n      swap1\n      swap4\n      mstore\n        /* \"#utility.yul\":4630:4648   */\n      swap2\n      dup4\n      add\n        /* \"#utility.yul\":4623:4657   */\n      mstore\n        /* \"#utility.yul\":4688:4690   */\n      0x60\n        /* \"#utility.yul\":4673:4691   */\n      dup3\n      add\n        /* \"#utility.yul\":4666:4700   */\n      mstore\n        /* \"#utility.yul\":4484:4487   */\n      0x80\n        /* \"#utility.yul\":4469:4488   */\n      add\n        /* \"ProducerProtocolToken.sol\":316:378  mapping(bytes32 => Contribution[]) public projectContributions */\n      tag_38\n        /* \"#utility.yul\":4266:4706   */\n      jump\n        /* \"@thirdweb-dev/contracts/base/ERC20Base.sol\":2882:3312   */\n    tag_17:\n      tag_52\n      tag_99\n      calldatasize\n      0x04\n      tag_48\n      jump\t// in\n    tag_99:\n      tag_100\n      jump\t// in\n        /* \"@thirdweb-dev/contracts/external-deps/openzeppelin/token/ERC20/extensions/ERC20Permit.sol\":2768:2894   */\n    tag_18:\n      tag_56\n      tag_102\n      calldatasize\n      0x04\n      tag_54\n      jump\t// in\n    tag_102:\n      tag_103\n      jump\t// in\n        /* \"@thirdweb-dev/contracts/extension/Ownable.sol\":973:1059   */\n    tag_19:\n        /* \"@thirdweb-dev/contracts/extension/Ownable.sol\":1046:1052   */\n      sload(0x01)\n        /* \"@thirdweb-dev/contracts/extension/Ownable.sol\":973:1059   */\n      mload(0x40)\n      sub(shl(0xa0, 0x01), 0x01)\n        /* \"@thirdweb-dev/contracts/extension/Ownable.sol\":1046:1052   */\n      swap1\n      swap2\n      and\n        /* \"#utility.yul\":4857:4931   */\n      dup2\n      mstore\n        /* \"#utility.yul\":4845:4847   */\n      0x20\n        /* \"#utility.yul\":4830:4848   */\n      add\n        /* \"@thirdweb-dev/contracts/extension/Ownable.sol\":973:1059   */\n      tag_38\n        /* \"#utility.yul\":4711:4937   */\n      jump\n        /* \"@thirdweb-dev/contracts/extension/ContractMetadata.sol\":1110:1311   */\n    tag_20:\n      tag_52\n      tag_110\n      calldatasize\n      0x04\n      tag_111\n      jump\t// in\n    tag_110:\n      tag_112\n      jump\t// in\n        /* \"@thirdweb-dev/contracts/external-deps/openzeppelin/token/ERC20/ERC20.sol\":2404:2506   */\n    tag_21:\n      tag_36\n      tag_114\n      jump\t// in\n        /* \"@thirdweb-dev/contracts/external-deps/openzeppelin/token/ERC20/ERC20.sol\":6603:7032   */\n    tag_22:\n      tag_46\n      tag_117\n      calldatasize\n      0x04\n      tag_48\n      jump\t// in\n    tag_117:\n      tag_118\n      jump\t// in\n        /* \"@thirdweb-dev/contracts/external-deps/openzeppelin/token/ERC20/ERC20.sol\":3766:3955   */\n    tag_23:\n      tag_46\n      tag_121\n      calldatasize\n      0x04\n      tag_48\n      jump\t// in\n    tag_121:\n      tag_122\n      jump\t// in\n        /* \"@thirdweb-dev/contracts/extension/Multicall.sol\":696:1263   */\n    tag_24:\n      tag_124\n      tag_125\n      calldatasize\n      0x04\n      tag_126\n      jump\t// in\n    tag_125:\n      tag_127\n      jump\t// in\n    tag_124:\n      mload(0x40)\n      tag_38\n      swap2\n      swap1\n      tag_129\n      jump\t// in\n        /* \"@thirdweb-dev/contracts/external-deps/openzeppelin/token/ERC20/extensions/ERC20Permit.sol\":2056:2707   */\n    tag_25:\n      tag_52\n      tag_131\n      calldatasize\n      0x04\n      tag_132\n      jump\t// in\n    tag_131:\n      tag_133\n      jump\t// in\n        /* \"@thirdweb-dev/contracts/external-deps/openzeppelin/token/ERC20/ERC20.sol\":4013:4162   */\n    tag_26:\n      tag_56\n      tag_135\n      calldatasize\n      0x04\n      tag_136\n      jump\t// in\n    tag_135:\n      sub(shl(0xa0, 0x01), 0x01)\n        /* \"@thirdweb-dev/contracts/external-deps/openzeppelin/token/ERC20/ERC20.sol\":4128:4146   */\n      swap2\n      dup3\n      and\n        /* \"@thirdweb-dev/contracts/external-deps/openzeppelin/token/ERC20/ERC20.sol\":4102:4109   */\n      0x00\n        /* \"@thirdweb-dev/contracts/external-deps/openzeppelin/token/ERC20/ERC20.sol\":4128:4146   */\n      swap1\n      dup2\n      mstore\n        /* \"@thirdweb-dev/contracts/external-deps/openzeppelin/token/ERC20/ERC20.sol\":4128:4139   */\n      0x03\n        /* \"@thirdweb-dev/contracts/external-deps/openzeppelin/token/ERC20/ERC20.sol\":4128:4146   */\n      0x20\n      swap1\n      dup2\n      mstore\n      0x40\n      dup1\n      dup4\n      keccak256\n        /* \"@thirdweb-dev/contracts/external-deps/openzeppelin/token/ERC20/ERC20.sol\":4128:4155   */\n      swap4\n      swap1\n      swap5\n      and\n      dup3\n      mstore\n      swap2\n      swap1\n      swap2\n      mstore\n      keccak256\n      sload\n      swap1\n        /* \"@thirdweb-dev/contracts/external-deps/openzeppelin/token/ERC20/ERC20.sol\":4013:4162   */\n      jump\n        /* \"@thirdweb-dev/contracts/extension/ContractMetadata.sol\":672:706   */\n    tag_27:\n      tag_36\n      tag_140\n      jump\t// in\n        /* \"ProducerProtocolToken.sol\":1519:2283  function mintFanTokens(... */\n    tag_28:\n      tag_52\n      tag_143\n      calldatasize\n      0x04\n      tag_86\n      jump\t// in\n    tag_143:\n      tag_144\n      jump\t// in\n        /* \"@thirdweb-dev/contracts/external-deps/openzeppelin/token/ERC20/ERC20.sol\":2193:2291   */\n    tag_37:\n        /* \"@thirdweb-dev/contracts/external-deps/openzeppelin/token/ERC20/ERC20.sol\":2247:2260   */\n      0x60\n        /* \"@thirdweb-dev/contracts/external-deps/openzeppelin/token/ERC20/ERC20.sol\":2279:2284   */\n      0x05\n        /* \"@thirdweb-dev/contracts/external-deps/openzeppelin/token/ERC20/ERC20.sol\":2272:2284   */\n      dup1\n      sload\n      tag_146\n      swap1\n      tag_147\n      jump\t// in\n    tag_146:\n      dup1\n      0x1f\n      add\n      0x20\n      dup1\n      swap2\n      div\n      mul\n      0x20\n      add\n      mload(0x40)\n      swap1\n      dup2\n      add\n      0x40\n      mstore\n      dup1\n      swap3\n      swap2\n      swap1\n      dup2\n      dup2\n      mstore\n      0x20\n      add\n      dup3\n      dup1\n      sload\n      tag_148\n      swap1\n      tag_147\n      jump\t// in\n    tag_148:\n      dup1\n      iszero\n      tag_149\n      jumpi\n      dup1\n      0x1f\n      lt\n      tag_150\n      jumpi\n      0x0100\n      dup1\n      dup4\n      sload\n      div\n      mul\n      dup4\n      mstore\n      swap2\n      0x20\n      add\n      swap2\n      jump(tag_149)\n    tag_150:\n      dup3\n      add\n      swap2\n      swap1\n      0x00\n      mstore\n      keccak256(0x00, 0x20)\n      swap1\n    tag_151:\n      dup2\n      sload\n      dup2\n      mstore\n      swap1\n      0x01\n      add\n      swap1\n      0x20\n      add\n      dup1\n      dup4\n      gt\n      tag_151\n      jumpi\n      dup3\n      swap1\n      sub\n      0x1f\n      and\n      dup3\n      add\n      swap2\n    tag_149:\n      pop\n      pop\n      pop\n      pop\n      pop\n      swap1\n      pop\n        /* \"@thirdweb-dev/contracts/external-deps/openzeppelin/token/ERC20/ERC20.sol\":2193:2291   */\n      swap1\n      jump\t// out\n        /* \"ProducerProtocolToken.sol\":2289:2470  function getProjectContributions(bytes32 projectId)... */\n    tag_43:\n        /* \"ProducerProtocolToken.sol\":2388:2409  Contribution[] memory */\n      0x60\n        /* \"ProducerProtocolToken.sol\":2432:2452  projectContributions */\n      0x08\n        /* \"ProducerProtocolToken.sol\":2432:2463  projectContributions[projectId] */\n      0x00\n        /* \"ProducerProtocolToken.sol\":2453:2462  projectId */\n      dup4\n        /* \"ProducerProtocolToken.sol\":2432:2463  projectContributions[projectId] */\n      dup2\n      mstore\n      0x20\n      add\n      swap1\n      dup2\n      mstore\n      0x20\n      add\n      0x00\n      keccak256\n        /* \"ProducerProtocolToken.sol\":2425:2463  return projectContributions[projectId] */\n      dup1\n      sload\n      dup1\n      0x20\n      mul\n      0x20\n      add\n      mload(0x40)\n      swap1\n      dup2\n      add\n      0x40\n      mstore\n      dup1\n      swap3\n      swap2\n      swap1\n      dup2\n      dup2\n      mstore\n      0x20\n      add\n      0x00\n      swap1\n    tag_153:\n      dup3\n      dup3\n      lt\n      iszero\n      tag_154\n      jumpi\n      0x00\n      dup5\n      dup2\n      mstore\n      0x20\n      swap1\n      dup2\n      swap1\n      keccak256\n      0x40\n      dup1\n      mload\n      0x80\n      dup2\n      add\n      dup3\n      mstore\n      0x04\n      dup7\n      mul\n      swap1\n      swap3\n      add\n      dup1\n      sload\n      sub(shl(0xa0, 0x01), 0x01)\n      and\n      dup4\n      mstore\n      0x01\n      dup1\n      dup3\n      add\n      sload\n      dup5\n      dup7\n      add\n      mstore\n      0x02\n      dup3\n      add\n      sload\n      swap3\n      dup5\n      add\n      swap3\n      swap1\n      swap3\n      mstore\n      0x03\n      add\n      sload\n      0x60\n      dup4\n      add\n      mstore\n      swap1\n      dup4\n      mstore\n      swap1\n      swap3\n      add\n      swap2\n      add\n      jump(tag_153)\n    tag_154:\n      pop\n      pop\n      pop\n      pop\n      swap1\n      pop\n        /* \"ProducerProtocolToken.sol\":2289:2470  function getProjectContributions(bytes32 projectId)... */\n      swap2\n      swap1\n      pop\n      jump\t// out\n        /* \"@thirdweb-dev/contracts/external-deps/openzeppelin/token/ERC20/ERC20.sol\":4470:4667   */\n    tag_49:\n        /* \"@thirdweb-dev/contracts/external-deps/openzeppelin/token/ERC20/ERC20.sol\":4553:4557   */\n      0x00\n        /* \"@thirdweb-dev/contracts/base/ERC20Base.sol\":4478:4488   */\n      caller\n        /* \"@thirdweb-dev/contracts/external-deps/openzeppelin/token/ERC20/ERC20.sol\":4607:4639   */\n      tag_159\n        /* \"@thirdweb-dev/contracts/base/ERC20Base.sol\":4478:4488   */\n      dup2\n        /* \"@thirdweb-dev/contracts/external-deps/openzeppelin/token/ERC20/ERC20.sol\":4623:4630   */\n      dup6\n        /* \"@thirdweb-dev/contracts/external-deps/openzeppelin/token/ERC20/ERC20.sol\":4632:4638   */\n      dup6\n        /* \"@thirdweb-dev/contracts/external-deps/openzeppelin/token/ERC20/ERC20.sol\":4607:4615   */\n      tag_160\n        /* \"@thirdweb-dev/contracts/external-deps/openzeppelin/token/ERC20/ERC20.sol\":4607:4639   */\n      jump\t// in\n    tag_159:\n        /* \"@thirdweb-dev/contracts/external-deps/openzeppelin/token/ERC20/ERC20.sol\":4656:4660   */\n      0x01\n        /* \"@thirdweb-dev/contracts/external-deps/openzeppelin/token/ERC20/ERC20.sol\":4649:4660   */\n      swap2\n      pop\n      pop\n        /* \"@thirdweb-dev/contracts/external-deps/openzeppelin/token/ERC20/ERC20.sol\":4470:4667   */\n    tag_156:\n      swap3\n      swap2\n      pop\n      pop\n      jump\t// out\n        /* \"@thirdweb-dev/contracts/extension/Ownable.sol\":1235:1412   */\n    tag_55:\n        /* \"@thirdweb-dev/contracts/extension/Ownable.sol\":1305:1319   */\n      tag_162\n        /* \"@thirdweb-dev/contracts/extension/Ownable.sol\":1305:1317   */\n      tag_163\n        /* \"@thirdweb-dev/contracts/extension/Ownable.sol\":1305:1319   */\n      jump\t// in\n    tag_162:\n        /* \"@thirdweb-dev/contracts/extension/Ownable.sol\":1300:1374   */\n      tag_164\n      jumpi\n        /* \"@thirdweb-dev/contracts/extension/Ownable.sol\":1342:1363   */\n      mload(0x40)\n      shl(0xe1, 0x16ccb9cb)\n      dup2\n      mstore\n      0x04\n      add\n      mload(0x40)\n      dup1\n      swap2\n      sub\n      swap1\n      revert\n        /* \"@thirdweb-dev/contracts/extension/Ownable.sol\":1300:1374   */\n    tag_164:\n        /* \"@thirdweb-dev/contracts/extension/Ownable.sol\":1383:1405   */\n      tag_165\n        /* \"@thirdweb-dev/contracts/extension/Ownable.sol\":1395:1404   */\n      dup2\n        /* \"@thirdweb-dev/contracts/extension/Ownable.sol\":1383:1394   */\n      tag_166\n        /* \"@thirdweb-dev/contracts/extension/Ownable.sol\":1383:1405   */\n      jump\t// in\n    tag_165:\n        /* \"@thirdweb-dev/contracts/extension/Ownable.sol\":1235:1412   */\n      pop\n      jump\t// out\n        /* \"@thirdweb-dev/contracts/external-deps/openzeppelin/token/ERC20/ERC20.sol\":5229:5485   */\n    tag_63:\n        /* \"@thirdweb-dev/contracts/external-deps/openzeppelin/token/ERC20/ERC20.sol\":5326:5330   */\n      0x00\n        /* \"@thirdweb-dev/contracts/base/ERC20Base.sol\":4478:4488   */\n      caller\n        /* \"@thirdweb-dev/contracts/external-deps/openzeppelin/token/ERC20/ERC20.sol\":5382:5420   */\n      tag_170\n        /* \"@thirdweb-dev/contracts/external-deps/openzeppelin/token/ERC20/ERC20.sol\":5398:5402   */\n      dup6\n        /* \"@thirdweb-dev/contracts/base/ERC20Base.sol\":4478:4488   */\n      dup3\n        /* \"@thirdweb-dev/contracts/external-deps/openzeppelin/token/ERC20/ERC20.sol\":5413:5419   */\n      dup6\n        /* \"@thirdweb-dev/contracts/external-deps/openzeppelin/token/ERC20/ERC20.sol\":5382:5397   */\n      tag_171\n        /* \"@thirdweb-dev/contracts/external-deps/openzeppelin/token/ERC20/ERC20.sol\":5382:5420   */\n      jump\t// in\n    tag_170:\n        /* \"@thirdweb-dev/contracts/external-deps/openzeppelin/token/ERC20/ERC20.sol\":5430:5457   */\n      tag_172\n        /* \"@thirdweb-dev/contracts/external-deps/openzeppelin/token/ERC20/ERC20.sol\":5440:5444   */\n      dup6\n        /* \"@thirdweb-dev/contracts/external-deps/openzeppelin/token/ERC20/ERC20.sol\":5446:5448   */\n      dup6\n        /* \"@thirdweb-dev/contracts/external-deps/openzeppelin/token/ERC20/ERC20.sol\":5450:5456   */\n      dup6\n        /* \"@thirdweb-dev/contracts/external-deps/openzeppelin/token/ERC20/ERC20.sol\":5430:5439   */\n      tag_173\n        /* \"@thirdweb-dev/contracts/external-deps/openzeppelin/token/ERC20/ERC20.sol\":5430:5457   */\n      jump\t// in\n    tag_172:\n      pop\n        /* \"@thirdweb-dev/contracts/external-deps/openzeppelin/token/ERC20/ERC20.sol\":5474:5478   */\n      0x01\n      swap5\n        /* \"@thirdweb-dev/contracts/external-deps/openzeppelin/token/ERC20/ERC20.sol\":5229:5485   */\n      swap4\n      pop\n      pop\n      pop\n      pop\n      jump\t// out\n        /* \"@thirdweb-dev/contracts/external-deps/openzeppelin/token/ERC20/extensions/ERC20Permit.sol\":3018:3290   */\n    tag_70:\n        /* \"@thirdweb-dev/contracts/external-deps/openzeppelin/token/ERC20/extensions/ERC20Permit.sol\":3076:3083   */\n      0x00\n        /* \"@thirdweb-dev/contracts/external-deps/openzeppelin/token/ERC20/extensions/ERC20Permit.sol\":3107:3111   */\n      address\n      sub(shl(0xa0, 0x01), 0x01)\n        /* \"@thirdweb-dev/contracts/external-deps/openzeppelin/token/ERC20/extensions/ERC20Permit.sol\":3116:3128   */\n      immutable(\"0xe699a24dbc75eeaed81a8bf4b3cb0a2b31e2feaa7617ebf93abe15d5ab1d7460\")\n        /* \"@thirdweb-dev/contracts/external-deps/openzeppelin/token/ERC20/extensions/ERC20Permit.sol\":3099:3128   */\n      and\n      eq\n        /* \"@thirdweb-dev/contracts/external-deps/openzeppelin/token/ERC20/extensions/ERC20Permit.sol\":3099:3165   */\n      dup1\n      iszero\n      tag_176\n      jumpi\n      pop\n        /* \"@thirdweb-dev/contracts/external-deps/openzeppelin/token/ERC20/extensions/ERC20Permit.sol\":3149:3165   */\n      immutable(\"0x60e163d9cdafcec6e73fe4c9b57891ca6fd6dae3d26e9c32ad2e79edbe939c66\")\n        /* \"@thirdweb-dev/contracts/external-deps/openzeppelin/token/ERC20/extensions/ERC20Permit.sol\":3132:3145   */\n      chainid\n        /* \"@thirdweb-dev/contracts/external-deps/openzeppelin/token/ERC20/extensions/ERC20Permit.sol\":3132:3165   */\n      eq\n        /* \"@thirdweb-dev/contracts/external-deps/openzeppelin/token/ERC20/extensions/ERC20Permit.sol\":3099:3165   */\n    tag_176:\n        /* \"@thirdweb-dev/contracts/external-deps/openzeppelin/token/ERC20/extensions/ERC20Permit.sol\":3095:3284   */\n      iszero\n      tag_177\n      jumpi\n      pop\n        /* \"@thirdweb-dev/contracts/external-deps/openzeppelin/token/ERC20/extensions/ERC20Permit.sol\":3188:3212   */\n      immutable(\"0xa2a5186d10804c36f9f6240b945d303e91c4048ffbaf23b2f3c37ff278b9ee67\")\n      swap1\n        /* \"@thirdweb-dev/contracts/external-deps/openzeppelin/token/ERC20/extensions/ERC20Permit.sol\":3018:3290   */\n      jump\t// out\n        /* \"@thirdweb-dev/contracts/external-deps/openzeppelin/token/ERC20/extensions/ERC20Permit.sol\":3095:3284   */\n    tag_177:\n        /* \"@thirdweb-dev/contracts/external-deps/openzeppelin/token/ERC20/extensions/ERC20Permit.sol\":3250:3273   */\n      tag_179\n        /* \"@thirdweb-dev/contracts/external-deps/openzeppelin/token/ERC20/extensions/ERC20Permit.sol\":3250:3271   */\n      tag_180\n        /* \"@thirdweb-dev/contracts/external-deps/openzeppelin/token/ERC20/extensions/ERC20Permit.sol\":3250:3273   */\n      jump\t// in\n    tag_179:\n        /* \"@thirdweb-dev/contracts/external-deps/openzeppelin/token/ERC20/extensions/ERC20Permit.sol\":3243:3273   */\n      swap1\n      pop\n        /* \"@thirdweb-dev/contracts/external-deps/openzeppelin/token/ERC20/extensions/ERC20Permit.sol\":3018:3290   */\n      swap1\n      jump\t// out\n        /* \"@thirdweb-dev/contracts/external-deps/openzeppelin/token/ERC20/ERC20.sol\":5880:6116   */\n    tag_75:\n        /* \"@thirdweb-dev/contracts/base/ERC20Base.sol\":4478:4488   */\n      caller\n        /* \"@thirdweb-dev/contracts/external-deps/openzeppelin/token/ERC20/ERC20.sol\":5968:5972   */\n      0x00\n        /* \"@thirdweb-dev/contracts/external-deps/openzeppelin/token/ERC20/ERC20.sol\":6047:6065   */\n      dup2\n      dup2\n      mstore\n        /* \"@thirdweb-dev/contracts/external-deps/openzeppelin/token/ERC20/ERC20.sol\":6047:6058   */\n      0x03\n        /* \"@thirdweb-dev/contracts/external-deps/openzeppelin/token/ERC20/ERC20.sol\":6047:6065   */\n      0x20\n      swap1\n      dup2\n      mstore\n      0x40\n      dup1\n      dup4\n      keccak256\n      sub(shl(0xa0, 0x01), 0x01)\n        /* \"@thirdweb-dev/contracts/external-deps/openzeppelin/token/ERC20/ERC20.sol\":6047:6074   */\n      dup8\n      and\n      dup5\n      mstore\n      swap1\n      swap2\n      mstore\n      dup2\n      keccak256\n      sload\n        /* \"@thirdweb-dev/contracts/external-deps/openzeppelin/token/ERC20/ERC20.sol\":5968:5972   */\n      swap1\n      swap2\n        /* \"@thirdweb-dev/contracts/base/ERC20Base.sol\":4478:4488   */\n      swap1\n        /* \"@thirdweb-dev/contracts/external-deps/openzeppelin/token/ERC20/ERC20.sol\":6022:6088   */\n      tag_159\n      swap1\n        /* \"@thirdweb-dev/contracts/base/ERC20Base.sol\":4478:4488   */\n      dup3\n      swap1\n        /* \"@thirdweb-dev/contracts/external-deps/openzeppelin/token/ERC20/ERC20.sol\":6047:6074   */\n      dup7\n      swap1\n        /* \"@thirdweb-dev/contracts/external-deps/openzeppelin/token/ERC20/ERC20.sol\":6047:6087   */\n      tag_184\n      swap1\n        /* \"@thirdweb-dev/contracts/external-deps/openzeppelin/token/ERC20/ERC20.sol\":6077:6087   */\n      dup8\n      swap1\n        /* \"@thirdweb-dev/contracts/external-deps/openzeppelin/token/ERC20/ERC20.sol\":6047:6087   */\n      tag_185\n      jump\t// in\n    tag_184:\n        /* \"@thirdweb-dev/contracts/external-deps/openzeppelin/token/ERC20/ERC20.sol\":6022:6030   */\n      tag_160\n        /* \"@thirdweb-dev/contracts/external-deps/openzeppelin/token/ERC20/ERC20.sol\":6022:6088   */\n      jump\t// in\n        /* \"@thirdweb-dev/contracts/base/ERC20Base.sol\":2421:2585   */\n    tag_80:\n        /* \"@thirdweb-dev/contracts/base/ERC20Base.sol\":2497:2507   */\n      caller\n        /* \"@thirdweb-dev/contracts/external-deps/openzeppelin/token/ERC20/ERC20.sol\":3519:3526   */\n      0x00\n        /* \"@thirdweb-dev/contracts/external-deps/openzeppelin/token/ERC20/ERC20.sol\":3545:3563   */\n      swap1\n      dup2\n      mstore\n        /* \"@thirdweb-dev/contracts/external-deps/openzeppelin/token/ERC20/ERC20.sol\":3545:3554   */\n      0x02\n        /* \"@thirdweb-dev/contracts/external-deps/openzeppelin/token/ERC20/ERC20.sol\":3545:3563   */\n      0x20\n      mstore\n      0x40\n      swap1\n      keccak256\n      sload\n        /* \"@thirdweb-dev/contracts/base/ERC20Base.sol\":2512:2519   */\n      dup2\n      gt\n        /* \"@thirdweb-dev/contracts/base/ERC20Base.sol\":2487:2519   */\n      iszero\n        /* \"@thirdweb-dev/contracts/base/ERC20Base.sol\":2479:2542   */\n      tag_188\n      jumpi\n      mload(0x40)\n      shl(0xe5, 0x461bcd)\n      dup2\n      mstore\n        /* \"#utility.yul\":9250:9252   */\n      0x20\n        /* \"@thirdweb-dev/contracts/base/ERC20Base.sol\":2479:2542   */\n      0x04\n      dup3\n      add\n        /* \"#utility.yul\":9232:9253   */\n      mstore\n        /* \"#utility.yul\":9289:9291   */\n      0x12\n        /* \"#utility.yul\":9269:9287   */\n      0x24\n      dup3\n      add\n        /* \"#utility.yul\":9262:9292   */\n      mstore\n        /* \"#utility.yul\":9328:9348   */\n      0x6e6f7420656e6f7567682062616c616e63650000000000000000000000000000\n        /* \"#utility.yul\":9308:9326   */\n      0x44\n      dup3\n      add\n        /* \"#utility.yul\":9301:9349   */\n      mstore\n        /* \"#utility.yul\":9366:9384   */\n      0x64\n      add\n        /* \"@thirdweb-dev/contracts/base/ERC20Base.sol\":2479:2542   */\n    tag_189:\n      mload(0x40)\n      dup1\n      swap2\n      sub\n      swap1\n      revert\n    tag_188:\n        /* \"@thirdweb-dev/contracts/base/ERC20Base.sol\":2552:2578   */\n      tag_165\n        /* \"@thirdweb-dev/contracts/base/ERC20Base.sol\":2558:2568   */\n      caller\n        /* \"@thirdweb-dev/contracts/base/ERC20Base.sol\":2570:2577   */\n      dup3\n        /* \"@thirdweb-dev/contracts/base/ERC20Base.sol\":2552:2557   */\n      tag_192\n        /* \"@thirdweb-dev/contracts/base/ERC20Base.sol\":2552:2578   */\n      jump\t// in\n        /* \"@thirdweb-dev/contracts/base/ERC20Base.sol\":1989:2198   */\n    tag_83:\n        /* \"@thirdweb-dev/contracts/base/ERC20Base.sol\":2068:2078   */\n      tag_194\n        /* \"@thirdweb-dev/contracts/base/ERC20Base.sol\":2068:2076   */\n      tag_163\n        /* \"@thirdweb-dev/contracts/base/ERC20Base.sol\":2068:2078   */\n      jump\t// in\n    tag_194:\n        /* \"@thirdweb-dev/contracts/base/ERC20Base.sol\":2060:2106   */\n      tag_196\n      jumpi\n      mload(0x40)\n      shl(0xe5, 0x461bcd)\n      dup2\n      mstore\n        /* \"#utility.yul\":9597:9599   */\n      0x20\n        /* \"@thirdweb-dev/contracts/base/ERC20Base.sol\":2060:2106   */\n      0x04\n      dup3\n      add\n        /* \"#utility.yul\":9579:9600   */\n      mstore\n        /* \"#utility.yul\":9636:9638   */\n      0x17\n        /* \"#utility.yul\":9616:9634   */\n      0x24\n      dup3\n      add\n        /* \"#utility.yul\":9609:9639   */\n      mstore\n        /* \"#utility.yul\":9675:9700   */\n      0x4e6f7420617574686f72697a656420746f206d696e742e000000000000000000\n        /* \"#utility.yul\":9655:9673   */\n      0x44\n      dup3\n      add\n        /* \"#utility.yul\":9648:9701   */\n      mstore\n        /* \"#utility.yul\":9718:9736   */\n      0x64\n      add\n        /* \"@thirdweb-dev/contracts/base/ERC20Base.sol\":2060:2106   */\n      tag_189\n        /* \"#utility.yul\":9395:9742   */\n      jump\n        /* \"@thirdweb-dev/contracts/base/ERC20Base.sol\":2060:2106   */\n    tag_196:\n        /* \"@thirdweb-dev/contracts/base/ERC20Base.sol\":2124:2131   */\n      dup1\n        /* \"@thirdweb-dev/contracts/base/ERC20Base.sol\":2135:2136   */\n      0x00\n        /* \"@thirdweb-dev/contracts/base/ERC20Base.sol\":2124:2136   */\n      sub\n        /* \"@thirdweb-dev/contracts/base/ERC20Base.sol\":2116:2161   */\n      tag_199\n      jumpi\n      mload(0x40)\n      shl(0xe5, 0x461bcd)\n      dup2\n      mstore\n        /* \"#utility.yul\":9949:9951   */\n      0x20\n        /* \"@thirdweb-dev/contracts/base/ERC20Base.sol\":2116:2161   */\n      0x04\n      dup3\n      add\n        /* \"#utility.yul\":9931:9952   */\n      mstore\n        /* \"#utility.yul\":9988:9990   */\n      0x14\n        /* \"#utility.yul\":9968:9986   */\n      0x24\n      dup3\n      add\n        /* \"#utility.yul\":9961:9991   */\n      mstore\n        /* \"#utility.yul\":10027:10049   */\n      0x4d696e74696e67207a65726f20746f6b656e732e000000000000000000000000\n        /* \"#utility.yul\":10007:10025   */\n      0x44\n      dup3\n      add\n        /* \"#utility.yul\":10000:10050   */\n      mstore\n        /* \"#utility.yul\":10067:10085   */\n      0x64\n      add\n        /* \"@thirdweb-dev/contracts/base/ERC20Base.sol\":2116:2161   */\n      tag_189\n        /* \"#utility.yul\":9747:10091   */\n      jump\n        /* \"@thirdweb-dev/contracts/base/ERC20Base.sol\":2116:2161   */\n    tag_199:\n        /* \"@thirdweb-dev/contracts/base/ERC20Base.sol\":2172:2191   */\n      tag_202\n        /* \"@thirdweb-dev/contracts/base/ERC20Base.sol\":2178:2181   */\n      dup3\n        /* \"@thirdweb-dev/contracts/base/ERC20Base.sol\":2183:2190   */\n      dup3\n        /* \"@thirdweb-dev/contracts/base/ERC20Base.sol\":2172:2177   */\n      tag_203\n        /* \"@thirdweb-dev/contracts/base/ERC20Base.sol\":2172:2191   */\n      jump\t// in\n    tag_202:\n        /* \"@thirdweb-dev/contracts/base/ERC20Base.sol\":1989:2198   */\n      pop\n      pop\n      jump\t// out\n        /* \"ProducerProtocolToken.sol\":740:1513  function mintArtistTokens(... */\n    tag_87:\n        /* \"@thirdweb-dev/contracts/extension/Ownable.sol\":1046:1052   */\n      and(sub(shl(0xa0, 0x01), 0x01), sload(0x01))\n        /* \"ProducerProtocolToken.sol\":898:908  msg.sender */\n      caller\n        /* \"ProducerProtocolToken.sol\":898:919  msg.sender == owner() */\n      eq\n        /* \"ProducerProtocolToken.sol\":890:947  require(msg.sender == owner(), \"Caller is not the owner\") */\n      tag_206\n      jumpi\n      mload(0x40)\n      shl(0xe5, 0x461bcd)\n      dup2\n      mstore\n        /* \"#utility.yul\":10298:10300   */\n      0x20\n        /* \"ProducerProtocolToken.sol\":890:947  require(msg.sender == owner(), \"Caller is not the owner\") */\n      0x04\n      dup3\n      add\n        /* \"#utility.yul\":10280:10301   */\n      mstore\n        /* \"#utility.yul\":10337:10339   */\n      0x17\n        /* \"#utility.yul\":10317:10335   */\n      0x24\n      dup3\n      add\n        /* \"#utility.yul\":10310:10340   */\n      mstore\n        /* \"#utility.yul\":10376:10401   */\n      0x43616c6c6572206973206e6f7420746865206f776e6572000000000000000000\n        /* \"#utility.yul\":10356:10374   */\n      0x44\n      dup3\n      add\n        /* \"#utility.yul\":10349:10402   */\n      mstore\n        /* \"#utility.yul\":10419:10437   */\n      0x64\n      add\n        /* \"ProducerProtocolToken.sol\":890:947  require(msg.sender == owner(), \"Caller is not the owner\") */\n      tag_189\n        /* \"#utility.yul\":10096:10443   */\n      jump\n        /* \"ProducerProtocolToken.sol\":890:947  require(msg.sender == owner(), \"Caller is not the owner\") */\n    tag_206:\n      sub(shl(0xa0, 0x01), 0x01)\n        /* \"ProducerProtocolToken.sol\":965:981  to != address(0) */\n      dup5\n      and\n        /* \"ProducerProtocolToken.sol\":957:1013  require(to != address(0), \"Cannot mint to zero address\") */\n      tag_209\n      jumpi\n      mload(0x40)\n      shl(0xe5, 0x461bcd)\n      dup2\n      mstore\n        /* \"#utility.yul\":10650:10652   */\n      0x20\n        /* \"ProducerProtocolToken.sol\":957:1013  require(to != address(0), \"Cannot mint to zero address\") */\n      0x04\n      dup3\n      add\n        /* \"#utility.yul\":10632:10653   */\n      mstore\n        /* \"#utility.yul\":10689:10691   */\n      0x1b\n        /* \"#utility.yul\":10669:10687   */\n      0x24\n      dup3\n      add\n        /* \"#utility.yul\":10662:10692   */\n      mstore\n        /* \"#utility.yul\":10728:10757   */\n      0x43616e6e6f74206d696e7420746f207a65726f20616464726573730000000000\n        /* \"#utility.yul\":10708:10726   */\n      0x44\n      dup3\n      add\n        /* \"#utility.yul\":10701:10758   */\n      mstore\n        /* \"#utility.yul\":10775:10793   */\n      0x64\n      add\n        /* \"ProducerProtocolToken.sol\":957:1013  require(to != address(0), \"Cannot mint to zero address\") */\n      tag_189\n        /* \"#utility.yul\":10448:10799   */\n      jump\n        /* \"ProducerProtocolToken.sol\":957:1013  require(to != address(0), \"Cannot mint to zero address\") */\n    tag_209:\n        /* \"ProducerProtocolToken.sol\":1040:1041  0 */\n      0x00\n        /* \"ProducerProtocolToken.sol\":1031:1037  amount */\n      dup4\n        /* \"ProducerProtocolToken.sol\":1031:1041  amount > 0 */\n      gt\n        /* \"ProducerProtocolToken.sol\":1023:1078  require(amount > 0, \"Amount must be greater than zero\") */\n      tag_212\n      jumpi\n      mload(0x40)\n      shl(0xe5, 0x461bcd)\n      dup2\n      mstore\n        /* \"#utility.yul\":11006:11008   */\n      0x20\n        /* \"ProducerProtocolToken.sol\":1023:1078  require(amount > 0, \"Amount must be greater than zero\") */\n      0x04\n      dup3\n      add\n        /* \"#utility.yul\":10988:11009   */\n      dup2\n      swap1\n      mstore\n        /* \"#utility.yul\":11025:11043   */\n      0x24\n      dup3\n      add\n        /* \"#utility.yul\":11018:11048   */\n      mstore\n        /* \"#utility.yul\":11084:11118   */\n      0x416d6f756e74206d7573742062652067726561746572207468616e207a65726f\n        /* \"#utility.yul\":11064:11082   */\n      0x44\n      dup3\n      add\n        /* \"#utility.yul\":11057:11119   */\n      mstore\n        /* \"#utility.yul\":11136:11154   */\n      0x64\n      add\n        /* \"ProducerProtocolToken.sol\":1023:1078  require(amount > 0, \"Amount must be greater than zero\") */\n      tag_189\n        /* \"#utility.yul\":10804:11160   */\n      jump\n        /* \"ProducerProtocolToken.sol\":1023:1078  require(amount > 0, \"Amount must be greater than zero\") */\n    tag_212:\n        /* \"ProducerProtocolToken.sol\":1110:1113  100 */\n      0x64\n        /* \"ProducerProtocolToken.sol\":1096:1106  percentage */\n      dup2\n        /* \"ProducerProtocolToken.sol\":1096:1113  percentage <= 100 */\n      gt\n      iszero\n        /* \"ProducerProtocolToken.sol\":1088:1161  require(percentage <= 100, \"Artist percentage must be between 0 and 100\") */\n      tag_215\n      jumpi\n      mload(0x40)\n      shl(0xe5, 0x461bcd)\n      dup2\n      mstore\n        /* \"#utility.yul\":11367:11369   */\n      0x20\n        /* \"ProducerProtocolToken.sol\":1088:1161  require(percentage <= 100, \"Artist percentage must be between 0 and 100\") */\n      0x04\n      dup3\n      add\n        /* \"#utility.yul\":11349:11370   */\n      mstore\n        /* \"#utility.yul\":11406:11408   */\n      0x2b\n        /* \"#utility.yul\":11386:11404   */\n      0x24\n      dup3\n      add\n        /* \"#utility.yul\":11379:11409   */\n      mstore\n        /* \"#utility.yul\":11445:11479   */\n      0x4172746973742070657263656e74616765206d75737420626520626574776565\n        /* \"#utility.yul\":11425:11443   */\n      0x44\n      dup3\n      add\n        /* \"#utility.yul\":11418:11480   */\n      mstore\n        /* \"#utility.yul\":11516:11529   */\n      0x6e203020616e6420313030000000000000000000000000000000000000000000\n        /* \"#utility.yul\":11496:11514   */\n      0x64\n      dup3\n      add\n        /* \"#utility.yul\":11489:11530   */\n      mstore\n        /* \"#utility.yul\":11547:11566   */\n      0x84\n      add\n        /* \"ProducerProtocolToken.sol\":1088:1161  require(percentage <= 100, \"Artist percentage must be between 0 and 100\") */\n      tag_189\n        /* \"#utility.yul\":11165:11572   */\n      jump\n        /* \"ProducerProtocolToken.sol\":1088:1161  require(percentage <= 100, \"Artist percentage must be between 0 and 100\") */\n    tag_215:\n        /* \"ProducerProtocolToken.sol\":1172:1189  _mint(to, amount) */\n      tag_218\n        /* \"ProducerProtocolToken.sol\":1178:1180  to */\n      dup5\n        /* \"ProducerProtocolToken.sol\":1182:1188  amount */\n      dup5\n        /* \"ProducerProtocolToken.sol\":1172:1177  _mint */\n      tag_203\n        /* \"ProducerProtocolToken.sol\":1172:1189  _mint(to, amount) */\n      jump\t// in\n    tag_218:\n        /* \"ProducerProtocolToken.sol\":1200:1231  projectContributions[projectId] */\n      0x00\n      dup3\n      dup2\n      mstore\n        /* \"ProducerProtocolToken.sol\":1200:1220  projectContributions */\n      0x08\n        /* \"ProducerProtocolToken.sol\":1200:1231  projectContributions[projectId] */\n      0x20\n      swap1\n      dup2\n      mstore\n      0x40\n      dup1\n      dup4\n      keccak256\n        /* \"ProducerProtocolToken.sol\":1250:1435  Contribution({... */\n      dup2\n      mload\n      0x80\n      dup2\n      add\n      dup4\n      mstore\n      sub(shl(0xa0, 0x01), 0x01)\n      dup10\n      dup2\n      and\n      dup1\n      dup4\n      mstore\n      dup3\n      dup7\n      add\n      dup9\n      dup2\n      mstore\n      dup4\n      dup7\n      add\n      dup9\n      dup2\n      mstore\n        /* \"ProducerProtocolToken.sol\":1405:1420  block.timestamp */\n      timestamp\n        /* \"ProducerProtocolToken.sol\":1250:1435  Contribution({... */\n      0x60\n      dup7\n      add\n      swap1\n      dup2\n      mstore\n        /* \"ProducerProtocolToken.sol\":1200:1445  projectContributions[projectId].push(... */\n      dup7\n      sload\n      0x01\n      dup1\n      dup3\n      add\n      dup10\n      sstore\n      swap8\n      dup12\n      mstore\n      swap10\n      dup10\n      swap1\n      keccak256\n      swap6\n      mload\n      0x04\n      swap1\n      swap11\n      mul\n      swap1\n      swap6\n      add\n      dup1\n      sload\n      not(0xffffffffffffffffffffffffffffffffffffffff)\n      and\n      swap10\n      swap1\n      swap5\n      and\n      swap9\n      swap1\n      swap9\n      or\n      dup4\n      sstore\n      mload\n      swap4\n      dup3\n      add\n      swap4\n      swap1\n      swap4\n      sstore\n      swap5\n      mload\n      0x02\n      dup7\n      add\n      sstore\n      mload\n      0x03\n      swap1\n      swap5\n      add\n      swap4\n      swap1\n      swap4\n      sstore\n        /* \"ProducerProtocolToken.sol\":1461:1506  ArtistContribution(projectId, to, percentage) */\n      mload\n        /* \"#utility.yul\":2692:2717   */\n      dup4\n      dup2\n      mstore\n        /* \"ProducerProtocolToken.sol\":1200:1231  projectContributions[projectId] */\n      dup5\n      swap2\n        /* \"ProducerProtocolToken.sol\":1461:1506  ArtistContribution(projectId, to, percentage) */\n      0x75e67a6a544582800fdaf0b824693bdc4bdefdf817f7a2528a74ee7443b627c1\n      swap2\n        /* \"#utility.yul\":2665:2683   */\n      add\n        /* \"ProducerProtocolToken.sol\":1461:1506  ArtistContribution(projectId, to, percentage) */\n    tag_220:\n      mload(0x40)\n      dup1\n      swap2\n      sub\n      swap1\n      log3\n        /* \"ProducerProtocolToken.sol\":740:1513  function mintArtistTokens(... */\n      pop\n      pop\n      pop\n      pop\n      jump\t// out\n        /* \"ProducerProtocolToken.sol\":316:378  mapping(bytes32 => Contribution[]) public projectContributions */\n    tag_95:\n      mstore(0x20, 0x08)\n      dup2\n      0x00\n      mstore\n      keccak256(0x00, 0x40)\n      dup2\n      dup2\n      sload\n      dup2\n      lt\n      tag_222\n      jumpi\n      0x00\n      dup1\n      revert\n    tag_222:\n      0x00\n      swap2\n      dup3\n      mstore\n      0x20\n      swap1\n      swap2\n      keccak256\n      0x04\n      swap1\n      swap2\n      mul\n      add\n      dup1\n      sload\n      0x01\n      dup3\n      add\n      sload\n      0x02\n      dup4\n      add\n      sload\n      0x03\n      swap1\n      swap4\n      add\n      sload\n      sub(shl(0xa0, 0x01), 0x01)\n      swap1\n      swap3\n      and\n      swap5\n      pop\n      swap3\n      pop\n      dup5\n      jump\t// out\n        /* \"@thirdweb-dev/contracts/base/ERC20Base.sol\":2882:3312   */\n    tag_100:\n        /* \"@thirdweb-dev/contracts/base/ERC20Base.sol\":2979:2989   */\n      tag_225\n        /* \"@thirdweb-dev/contracts/base/ERC20Base.sol\":2979:2987   */\n      tag_163\n        /* \"@thirdweb-dev/contracts/base/ERC20Base.sol\":2979:2989   */\n      jump\t// in\n    tag_225:\n        /* \"@thirdweb-dev/contracts/base/ERC20Base.sol\":2971:3017   */\n      tag_227\n      jumpi\n      mload(0x40)\n      shl(0xe5, 0x461bcd)\n      dup2\n      mstore\n        /* \"#utility.yul\":11779:11781   */\n      0x20\n        /* \"@thirdweb-dev/contracts/base/ERC20Base.sol\":2971:3017   */\n      0x04\n      dup3\n      add\n        /* \"#utility.yul\":11761:11782   */\n      mstore\n        /* \"#utility.yul\":11818:11820   */\n      0x17\n        /* \"#utility.yul\":11798:11816   */\n      0x24\n      dup3\n      add\n        /* \"#utility.yul\":11791:11821   */\n      mstore\n        /* \"#utility.yul\":11857:11882   */\n      0x4e6f7420617574686f72697a656420746f206275726e2e000000000000000000\n        /* \"#utility.yul\":11837:11855   */\n      0x44\n      dup3\n      add\n        /* \"#utility.yul\":11830:11883   */\n      mstore\n        /* \"#utility.yul\":11900:11918   */\n      0x64\n      add\n        /* \"@thirdweb-dev/contracts/base/ERC20Base.sol\":2971:3017   */\n      tag_189\n        /* \"#utility.yul\":11577:11924   */\n      jump\n        /* \"@thirdweb-dev/contracts/base/ERC20Base.sol\":2971:3017   */\n    tag_227:\n        /* \"@thirdweb-dev/contracts/base/ERC20Base.sol\":3058:3065   */\n      dup1\n        /* \"@thirdweb-dev/contracts/base/ERC20Base.sol\":3035:3054   */\n      tag_230\n        /* \"@thirdweb-dev/contracts/base/ERC20Base.sol\":3045:3053   */\n      dup4\n      sub(shl(0xa0, 0x01), 0x01)\n        /* \"@thirdweb-dev/contracts/external-deps/openzeppelin/token/ERC20/ERC20.sol\":3545:3563   */\n      and\n        /* \"@thirdweb-dev/contracts/external-deps/openzeppelin/token/ERC20/ERC20.sol\":3519:3526   */\n      0x00\n        /* \"@thirdweb-dev/contracts/external-deps/openzeppelin/token/ERC20/ERC20.sol\":3545:3563   */\n      swap1\n      dup2\n      mstore\n        /* \"@thirdweb-dev/contracts/external-deps/openzeppelin/token/ERC20/ERC20.sol\":3545:3554   */\n      0x02\n        /* \"@thirdweb-dev/contracts/external-deps/openzeppelin/token/ERC20/ERC20.sol\":3545:3563   */\n      0x20\n      mstore\n      0x40\n      swap1\n      keccak256\n      sload\n      swap1\n        /* \"@thirdweb-dev/contracts/external-deps/openzeppelin/token/ERC20/ERC20.sol\":3445:3570   */\n      jump\n        /* \"@thirdweb-dev/contracts/base/ERC20Base.sol\":3035:3054   */\n    tag_230:\n        /* \"@thirdweb-dev/contracts/base/ERC20Base.sol\":3035:3065   */\n      lt\n      iszero\n        /* \"@thirdweb-dev/contracts/base/ERC20Base.sol\":3027:3088   */\n      tag_231\n      jumpi\n      mload(0x40)\n      shl(0xe5, 0x461bcd)\n      dup2\n      mstore\n        /* \"#utility.yul\":9250:9252   */\n      0x20\n        /* \"@thirdweb-dev/contracts/base/ERC20Base.sol\":3027:3088   */\n      0x04\n      dup3\n      add\n        /* \"#utility.yul\":9232:9253   */\n      mstore\n        /* \"#utility.yul\":9289:9291   */\n      0x12\n        /* \"#utility.yul\":9269:9287   */\n      0x24\n      dup3\n      add\n        /* \"#utility.yul\":9262:9292   */\n      mstore\n        /* \"#utility.yul\":9328:9348   */\n      0x6e6f7420656e6f7567682062616c616e63650000000000000000000000000000\n        /* \"#utility.yul\":9308:9326   */\n      0x44\n      dup3\n      add\n        /* \"#utility.yul\":9301:9349   */\n      mstore\n        /* \"#utility.yul\":9366:9384   */\n      0x64\n      add\n        /* \"@thirdweb-dev/contracts/base/ERC20Base.sol\":3027:3088   */\n      tag_189\n        /* \"#utility.yul\":9048:9390   */\n      jump\n        /* \"@thirdweb-dev/contracts/base/ERC20Base.sol\":3027:3088   */\n    tag_231:\n      sub(shl(0xa0, 0x01), 0x01)\n        /* \"@thirdweb-dev/contracts/external-deps/openzeppelin/token/ERC20/ERC20.sol\":4128:4146   */\n      dup3\n      and\n        /* \"@thirdweb-dev/contracts/base/ERC20Base.sol\":3098:3124   */\n      0x00\n        /* \"@thirdweb-dev/contracts/external-deps/openzeppelin/token/ERC20/ERC20.sol\":4128:4146   */\n      swap1\n      dup2\n      mstore\n        /* \"@thirdweb-dev/contracts/external-deps/openzeppelin/token/ERC20/ERC20.sol\":4128:4139   */\n      0x03\n        /* \"@thirdweb-dev/contracts/external-deps/openzeppelin/token/ERC20/ERC20.sol\":4128:4146   */\n      0x20\n      swap1\n      dup2\n      mstore\n      0x40\n      dup1\n      dup4\n      keccak256\n        /* \"@thirdweb-dev/contracts/base/ERC20Base.sol\":3147:3157   */\n      caller\n        /* \"@thirdweb-dev/contracts/external-deps/openzeppelin/token/ERC20/ERC20.sol\":4128:4155   */\n      dup5\n      mstore\n      swap1\n      swap2\n      mstore\n      dup2\n      keccak256\n      sload\n        /* \"@thirdweb-dev/contracts/base/ERC20Base.sol\":3127:3168   */\n      tag_234\n      swap1\n        /* \"@thirdweb-dev/contracts/base/ERC20Base.sol\":3161:3168   */\n      dup4\n      swap1\n        /* \"@thirdweb-dev/contracts/base/ERC20Base.sol\":3127:3168   */\n      tag_235\n      jump\t// in\n    tag_234:\n        /* \"@thirdweb-dev/contracts/base/ERC20Base.sol\":3098:3168   */\n      swap1\n      pop\n        /* \"@thirdweb-dev/contracts/base/ERC20Base.sol\":3178:3211   */\n      tag_236\n        /* \"@thirdweb-dev/contracts/base/ERC20Base.sol\":3187:3195   */\n      dup4\n        /* \"@thirdweb-dev/contracts/base/ERC20Base.sol\":3197:3207   */\n      caller\n        /* \"@thirdweb-dev/contracts/base/ERC20Base.sol\":3209:3210   */\n      0x00\n        /* \"@thirdweb-dev/contracts/base/ERC20Base.sol\":3178:3186   */\n      tag_160\n        /* \"@thirdweb-dev/contracts/base/ERC20Base.sol\":3178:3211   */\n      jump\t// in\n    tag_236:\n        /* \"@thirdweb-dev/contracts/base/ERC20Base.sol\":3221:3271   */\n      tag_237\n        /* \"@thirdweb-dev/contracts/base/ERC20Base.sol\":3230:3238   */\n      dup4\n        /* \"@thirdweb-dev/contracts/base/ERC20Base.sol\":3240:3250   */\n      caller\n        /* \"@thirdweb-dev/contracts/base/ERC20Base.sol\":3252:3270   */\n      dup4\n        /* \"@thirdweb-dev/contracts/base/ERC20Base.sol\":3221:3229   */\n      tag_160\n        /* \"@thirdweb-dev/contracts/base/ERC20Base.sol\":3221:3271   */\n      jump\t// in\n    tag_237:\n        /* \"@thirdweb-dev/contracts/base/ERC20Base.sol\":3281:3305   */\n      tag_238\n        /* \"@thirdweb-dev/contracts/base/ERC20Base.sol\":3287:3295   */\n      dup4\n        /* \"@thirdweb-dev/contracts/base/ERC20Base.sol\":3297:3304   */\n      dup4\n        /* \"@thirdweb-dev/contracts/base/ERC20Base.sol\":3281:3286   */\n      tag_192\n        /* \"@thirdweb-dev/contracts/base/ERC20Base.sol\":3281:3305   */\n      jump\t// in\n    tag_238:\n        /* \"@thirdweb-dev/contracts/base/ERC20Base.sol\":2961:3312   */\n      pop\n        /* \"@thirdweb-dev/contracts/base/ERC20Base.sol\":2882:3312   */\n      pop\n      pop\n      jump\t// out\n        /* \"@thirdweb-dev/contracts/external-deps/openzeppelin/token/ERC20/extensions/ERC20Permit.sol\":2768:2894   */\n    tag_103:\n      sub(shl(0xa0, 0x01), 0x01)\n        /* \"@thirdweb-dev/contracts/external-deps/openzeppelin/token/ERC20/extensions/ERC20Permit.sol\":2863:2877   */\n      dup2\n      and\n        /* \"@thirdweb-dev/contracts/external-deps/openzeppelin/token/ERC20/extensions/ERC20Permit.sol\":2837:2844   */\n      0x00\n        /* \"@thirdweb-dev/contracts/external-deps/openzeppelin/token/ERC20/extensions/ERC20Permit.sol\":2863:2877   */\n      swap1\n      dup2\n      mstore\n        /* \"@thirdweb-dev/contracts/external-deps/openzeppelin/token/ERC20/extensions/ERC20Permit.sol\":2863:2870   */\n      0x07\n        /* \"@thirdweb-dev/contracts/external-deps/openzeppelin/token/ERC20/extensions/ERC20Permit.sol\":2863:2877   */\n      0x20\n      mstore\n      0x40\n      dup2\n      keccak256\n        /* \"@thirdweb-dev/contracts/external-deps/openzeppelin/utils/Counters.sol\":918:932   */\n      sload\n        /* \"@thirdweb-dev/contracts/external-deps/openzeppelin/token/ERC20/extensions/ERC20Permit.sol\":2863:2887   */\n      tag_156\n        /* \"@thirdweb-dev/contracts/external-deps/openzeppelin/utils/Counters.sol\":827:939   */\n      jump\n        /* \"@thirdweb-dev/contracts/extension/ContractMetadata.sol\":1110:1311   */\n    tag_112:\n        /* \"@thirdweb-dev/contracts/extension/ContractMetadata.sol\":1187:1207   */\n      tag_244\n        /* \"@thirdweb-dev/contracts/extension/ContractMetadata.sol\":1187:1205   */\n      tag_163\n        /* \"@thirdweb-dev/contracts/extension/ContractMetadata.sol\":1187:1207   */\n      jump\t// in\n    tag_244:\n        /* \"@thirdweb-dev/contracts/extension/ContractMetadata.sol\":1182:1271   */\n      tag_246\n      jumpi\n        /* \"@thirdweb-dev/contracts/extension/ContractMetadata.sol\":1230:1260   */\n      mload(0x40)\n      shl(0xe0, 0x9f7f0925)\n      dup2\n      mstore\n      0x04\n      add\n      mload(0x40)\n      dup1\n      swap2\n      sub\n      swap1\n      revert\n        /* \"@thirdweb-dev/contracts/extension/ContractMetadata.sol\":1182:1271   */\n    tag_246:\n        /* \"@thirdweb-dev/contracts/extension/ContractMetadata.sol\":1281:1304   */\n      tag_165\n        /* \"@thirdweb-dev/contracts/extension/ContractMetadata.sol\":1299:1303   */\n      dup2\n        /* \"@thirdweb-dev/contracts/extension/ContractMetadata.sol\":1281:1298   */\n      tag_248\n        /* \"@thirdweb-dev/contracts/extension/ContractMetadata.sol\":1281:1304   */\n      jump\t// in\n        /* \"@thirdweb-dev/contracts/external-deps/openzeppelin/token/ERC20/ERC20.sol\":2404:2506   */\n    tag_114:\n        /* \"@thirdweb-dev/contracts/external-deps/openzeppelin/token/ERC20/ERC20.sol\":2460:2473   */\n      0x60\n        /* \"@thirdweb-dev/contracts/external-deps/openzeppelin/token/ERC20/ERC20.sol\":2492:2499   */\n      0x06\n        /* \"@thirdweb-dev/contracts/external-deps/openzeppelin/token/ERC20/ERC20.sol\":2485:2499   */\n      dup1\n      sload\n      tag_146\n      swap1\n      tag_147\n      jump\t// in\n        /* \"@thirdweb-dev/contracts/external-deps/openzeppelin/token/ERC20/ERC20.sol\":6603:7032   */\n    tag_118:\n        /* \"@thirdweb-dev/contracts/base/ERC20Base.sol\":4478:4488   */\n      caller\n        /* \"@thirdweb-dev/contracts/external-deps/openzeppelin/token/ERC20/ERC20.sol\":6696:6700   */\n      0x00\n        /* \"@thirdweb-dev/contracts/external-deps/openzeppelin/token/ERC20/ERC20.sol\":6777:6795   */\n      dup2\n      dup2\n      mstore\n        /* \"@thirdweb-dev/contracts/external-deps/openzeppelin/token/ERC20/ERC20.sol\":6777:6788   */\n      0x03\n        /* \"@thirdweb-dev/contracts/external-deps/openzeppelin/token/ERC20/ERC20.sol\":6777:6795   */\n      0x20\n      swap1\n      dup2\n      mstore\n      0x40\n      dup1\n      dup4\n      keccak256\n      sub(shl(0xa0, 0x01), 0x01)\n        /* \"@thirdweb-dev/contracts/external-deps/openzeppelin/token/ERC20/ERC20.sol\":6777:6804   */\n      dup8\n      and\n      dup5\n      mstore\n      swap1\n      swap2\n      mstore\n      dup2\n      keccak256\n      sload\n        /* \"@thirdweb-dev/contracts/external-deps/openzeppelin/token/ERC20/ERC20.sol\":6696:6700   */\n      swap1\n      swap2\n        /* \"@thirdweb-dev/contracts/base/ERC20Base.sol\":4478:4488   */\n      swap1\n        /* \"@thirdweb-dev/contracts/external-deps/openzeppelin/token/ERC20/ERC20.sol\":6822:6857   */\n      dup4\n      dup2\n      lt\n      iszero\n        /* \"@thirdweb-dev/contracts/external-deps/openzeppelin/token/ERC20/ERC20.sol\":6814:6899   */\n      tag_257\n      jumpi\n      mload(0x40)\n      shl(0xe5, 0x461bcd)\n      dup2\n      mstore\n        /* \"#utility.yul\":12264:12266   */\n      0x20\n        /* \"@thirdweb-dev/contracts/external-deps/openzeppelin/token/ERC20/ERC20.sol\":6814:6899   */\n      0x04\n      dup3\n      add\n        /* \"#utility.yul\":12246:12267   */\n      mstore\n        /* \"#utility.yul\":12303:12305   */\n      0x25\n        /* \"#utility.yul\":12283:12301   */\n      0x24\n      dup3\n      add\n        /* \"#utility.yul\":12276:12306   */\n      mstore\n        /* \"#utility.yul\":12342:12376   */\n      0x45524332303a2064656372656173656420616c6c6f77616e63652062656c6f77\n        /* \"#utility.yul\":12322:12340   */\n      0x44\n      dup3\n      add\n        /* \"#utility.yul\":12315:12377   */\n      mstore\n        /* \"#utility.yul\":12413:12420   */\n      0x207a65726f000000000000000000000000000000000000000000000000000000\n        /* \"#utility.yul\":12393:12411   */\n      0x64\n      dup3\n      add\n        /* \"#utility.yul\":12386:12421   */\n      mstore\n        /* \"#utility.yul\":12438:12457   */\n      0x84\n      add\n        /* \"@thirdweb-dev/contracts/external-deps/openzeppelin/token/ERC20/ERC20.sol\":6814:6899   */\n      tag_189\n        /* \"#utility.yul\":12062:12463   */\n      jump\n        /* \"@thirdweb-dev/contracts/external-deps/openzeppelin/token/ERC20/ERC20.sol\":6814:6899   */\n    tag_257:\n        /* \"@thirdweb-dev/contracts/external-deps/openzeppelin/token/ERC20/ERC20.sol\":6933:6993   */\n      tag_172\n        /* \"@thirdweb-dev/contracts/external-deps/openzeppelin/token/ERC20/ERC20.sol\":6942:6947   */\n      dup3\n        /* \"@thirdweb-dev/contracts/external-deps/openzeppelin/token/ERC20/ERC20.sol\":6949:6956   */\n      dup7\n        /* \"@thirdweb-dev/contracts/external-deps/openzeppelin/token/ERC20/ERC20.sol\":6977:6992   */\n      dup7\n        /* \"@thirdweb-dev/contracts/external-deps/openzeppelin/token/ERC20/ERC20.sol\":6958:6974   */\n      dup5\n        /* \"@thirdweb-dev/contracts/external-deps/openzeppelin/token/ERC20/ERC20.sol\":6958:6992   */\n      sub\n        /* \"@thirdweb-dev/contracts/external-deps/openzeppelin/token/ERC20/ERC20.sol\":6933:6941   */\n      tag_160\n        /* \"@thirdweb-dev/contracts/external-deps/openzeppelin/token/ERC20/ERC20.sol\":6933:6993   */\n      jump\t// in\n        /* \"@thirdweb-dev/contracts/external-deps/openzeppelin/token/ERC20/ERC20.sol\":3766:3955   */\n    tag_122:\n        /* \"@thirdweb-dev/contracts/external-deps/openzeppelin/token/ERC20/ERC20.sol\":3845:3849   */\n      0x00\n        /* \"@thirdweb-dev/contracts/base/ERC20Base.sol\":4478:4488   */\n      caller\n        /* \"@thirdweb-dev/contracts/external-deps/openzeppelin/token/ERC20/ERC20.sol\":3899:3927   */\n      tag_159\n        /* \"@thirdweb-dev/contracts/base/ERC20Base.sol\":4478:4488   */\n      dup2\n        /* \"@thirdweb-dev/contracts/external-deps/openzeppelin/token/ERC20/ERC20.sol\":3916:3918   */\n      dup6\n        /* \"@thirdweb-dev/contracts/external-deps/openzeppelin/token/ERC20/ERC20.sol\":3920:3926   */\n      dup6\n        /* \"@thirdweb-dev/contracts/external-deps/openzeppelin/token/ERC20/ERC20.sol\":3899:3908   */\n      tag_173\n        /* \"@thirdweb-dev/contracts/external-deps/openzeppelin/token/ERC20/ERC20.sol\":3899:3927   */\n      jump\t// in\n        /* \"@thirdweb-dev/contracts/extension/Multicall.sol\":696:1263   */\n    tag_127:\n        /* \"@thirdweb-dev/contracts/extension/Multicall.sol\":756:778   */\n      0x60\n        /* \"@thirdweb-dev/contracts/extension/Multicall.sol\":812:816   */\n      dup2\n        /* \"@thirdweb-dev/contracts/extension/Multicall.sol\":800:824   */\n      0xffffffffffffffff\n      dup2\n      gt\n      iszero\n      tag_266\n      jumpi\n      tag_266\n      tag_267\n      jump\t// in\n    tag_266:\n      mload(0x40)\n      swap1\n      dup1\n      dup3\n      mstore\n      dup1\n      0x20\n      mul\n      0x20\n      add\n      dup3\n      add\n      0x40\n      mstore\n      dup1\n      iszero\n      tag_268\n      jumpi\n      dup2\n      0x20\n      add\n    tag_269:\n      0x60\n      dup2\n      mstore\n      0x20\n      add\n      swap1\n      0x01\n      swap1\n      sub\n      swap1\n      dup2\n      tag_269\n      jumpi\n      swap1\n      pop\n    tag_268:\n      pop\n        /* \"@thirdweb-dev/contracts/extension/Multicall.sol\":790:824   */\n      swap1\n      pop\n        /* \"@thirdweb-dev/contracts/base/ERC20Base.sol\":4478:4488   */\n      caller\n        /* \"@thirdweb-dev/contracts/extension/Multicall.sol\":834:848   */\n      0x00\n      dup1\n        /* \"@thirdweb-dev/contracts/extension/Multicall.sol\":922:1233   */\n    tag_271:\n        /* \"@thirdweb-dev/contracts/extension/Multicall.sol\":942:957   */\n      dup5\n      dup2\n      lt\n        /* \"@thirdweb-dev/contracts/extension/Multicall.sol\":922:1233   */\n      iszero\n      tag_272\n      jumpi\n        /* \"@thirdweb-dev/contracts/extension/Multicall.sol\":982:993   */\n      dup2\n        /* \"@thirdweb-dev/contracts/extension/Multicall.sol\":978:1223   */\n      iszero\n      tag_274\n      jumpi\n        /* \"@thirdweb-dev/contracts/extension/Multicall.sol\":1026:1104   */\n      tag_275\n        /* \"@thirdweb-dev/contracts/extension/Multicall.sol\":1063:1067   */\n      address\n        /* \"@thirdweb-dev/contracts/extension/Multicall.sol\":1087:1091   */\n      dup8\n      dup8\n        /* \"@thirdweb-dev/contracts/extension/Multicall.sol\":1092:1093   */\n      dup5\n        /* \"@thirdweb-dev/contracts/extension/Multicall.sol\":1087:1094   */\n      dup2\n      dup2\n      lt\n      tag_277\n      jumpi\n      tag_277\n      tag_278\n      jump\t// in\n    tag_277:\n      swap1\n      pop\n      0x20\n      mul\n      dup2\n      add\n      swap1\n      tag_279\n      swap2\n      swap1\n      tag_280\n      jump\t// in\n    tag_279:\n        /* \"@thirdweb-dev/contracts/extension/Multicall.sol\":1096:1102   */\n      dup7\n        /* \"@thirdweb-dev/contracts/extension/Multicall.sol\":1070:1103   */\n      add(0x20, mload(0x40))\n      tag_281\n      swap4\n      swap3\n      swap2\n      swap1\n      tag_282\n      jump\t// in\n    tag_281:\n      mload(0x40)\n      0x20\n      dup2\n      dup4\n      sub\n      sub\n      dup2\n      mstore\n      swap1\n      0x40\n      mstore\n        /* \"@thirdweb-dev/contracts/extension/Multicall.sol\":1026:1054   */\n      tag_283\n        /* \"@thirdweb-dev/contracts/extension/Multicall.sol\":1026:1104   */\n      jump\t// in\n    tag_275:\n        /* \"@thirdweb-dev/contracts/extension/Multicall.sol\":1013:1020   */\n      dup5\n        /* \"@thirdweb-dev/contracts/extension/Multicall.sol\":1021:1022   */\n      dup3\n        /* \"@thirdweb-dev/contracts/extension/Multicall.sol\":1013:1023   */\n      dup2\n      mload\n      dup2\n      lt\n      tag_285\n      jumpi\n      tag_285\n      tag_278\n      jump\t// in\n    tag_285:\n      0x20\n      mul\n      0x20\n      add\n      add\n        /* \"@thirdweb-dev/contracts/extension/Multicall.sol\":1013:1104   */\n      dup2\n      swap1\n      mstore\n      pop\n        /* \"@thirdweb-dev/contracts/extension/Multicall.sol\":978:1223   */\n      jump(tag_286)\n    tag_274:\n        /* \"@thirdweb-dev/contracts/extension/Multicall.sol\":1156:1208   */\n      tag_287\n        /* \"@thirdweb-dev/contracts/extension/Multicall.sol\":1193:1197   */\n      address\n        /* \"@thirdweb-dev/contracts/extension/Multicall.sol\":1200:1204   */\n      dup8\n      dup8\n        /* \"@thirdweb-dev/contracts/extension/Multicall.sol\":1205:1206   */\n      dup5\n        /* \"@thirdweb-dev/contracts/extension/Multicall.sol\":1200:1207   */\n      dup2\n      dup2\n      lt\n      tag_289\n      jumpi\n      tag_289\n      tag_278\n      jump\t// in\n    tag_289:\n      swap1\n      pop\n      0x20\n      mul\n      dup2\n      add\n      swap1\n      tag_290\n      swap2\n      swap1\n      tag_280\n      jump\t// in\n    tag_290:\n        /* \"@thirdweb-dev/contracts/extension/Multicall.sol\":1156:1208   */\n      dup1\n      dup1\n      0x1f\n      add\n      0x20\n      dup1\n      swap2\n      div\n      mul\n      0x20\n      add\n      mload(0x40)\n      swap1\n      dup2\n      add\n      0x40\n      mstore\n      dup1\n      swap4\n      swap3\n      swap2\n      swap1\n      dup2\n      dup2\n      mstore\n      0x20\n      add\n      dup4\n      dup4\n      dup1\n      dup3\n      dup5\n      calldatacopy\n      0x00\n      swap3\n      add\n      swap2\n      swap1\n      swap2\n      mstore\n      pop\n        /* \"@thirdweb-dev/contracts/extension/Multicall.sol\":1156:1184   */\n      tag_283\n      swap3\n      pop\n      pop\n      pop\n        /* \"@thirdweb-dev/contracts/extension/Multicall.sol\":1156:1208   */\n      jump\t// in\n    tag_287:\n        /* \"@thirdweb-dev/contracts/extension/Multicall.sol\":1143:1150   */\n      dup5\n        /* \"@thirdweb-dev/contracts/extension/Multicall.sol\":1151:1152   */\n      dup3\n        /* \"@thirdweb-dev/contracts/extension/Multicall.sol\":1143:1153   */\n      dup2\n      mload\n      dup2\n      lt\n      tag_292\n      jumpi\n      tag_292\n      tag_278\n      jump\t// in\n    tag_292:\n      0x20\n      mul\n      0x20\n      add\n      add\n        /* \"@thirdweb-dev/contracts/extension/Multicall.sol\":1143:1208   */\n      dup2\n      swap1\n      mstore\n      pop\n        /* \"@thirdweb-dev/contracts/extension/Multicall.sol\":978:1223   */\n    tag_286:\n        /* \"@thirdweb-dev/contracts/extension/Multicall.sol\":959:962   */\n      0x01\n      add\n        /* \"@thirdweb-dev/contracts/extension/Multicall.sol\":922:1233   */\n      jump(tag_271)\n    tag_272:\n      pop\n        /* \"@thirdweb-dev/contracts/extension/Multicall.sol\":1242:1256   */\n      pop\n      pop\n        /* \"@thirdweb-dev/contracts/extension/Multicall.sol\":696:1263   */\n      swap3\n      swap2\n      pop\n      pop\n      jump\t// out\n        /* \"@thirdweb-dev/contracts/external-deps/openzeppelin/token/ERC20/extensions/ERC20Permit.sol\":2056:2707   */\n    tag_133:\n        /* \"@thirdweb-dev/contracts/external-deps/openzeppelin/token/ERC20/extensions/ERC20Permit.sol\":2291:2299   */\n      dup4\n        /* \"@thirdweb-dev/contracts/external-deps/openzeppelin/token/ERC20/extensions/ERC20Permit.sol\":2272:2287   */\n      timestamp\n        /* \"@thirdweb-dev/contracts/external-deps/openzeppelin/token/ERC20/extensions/ERC20Permit.sol\":2272:2299   */\n      gt\n      iszero\n        /* \"@thirdweb-dev/contracts/external-deps/openzeppelin/token/ERC20/extensions/ERC20Permit.sol\":2264:2333   */\n      tag_294\n      jumpi\n      mload(0x40)\n      shl(0xe5, 0x461bcd)\n      dup2\n      mstore\n        /* \"#utility.yul\":13693:13695   */\n      0x20\n        /* \"@thirdweb-dev/contracts/external-deps/openzeppelin/token/ERC20/extensions/ERC20Permit.sol\":2264:2333   */\n      0x04\n      dup3\n      add\n        /* \"#utility.yul\":13675:13696   */\n      mstore\n        /* \"#utility.yul\":13732:13734   */\n      0x1d\n        /* \"#utility.yul\":13712:13730   */\n      0x24\n      dup3\n      add\n        /* \"#utility.yul\":13705:13735   */\n      mstore\n        /* \"#utility.yul\":13771:13802   */\n      0x45524332305065726d69743a206578706972656420646561646c696e65000000\n        /* \"#utility.yul\":13751:13769   */\n      0x44\n      dup3\n      add\n        /* \"#utility.yul\":13744:13803   */\n      mstore\n        /* \"#utility.yul\":13820:13838   */\n      0x64\n      add\n        /* \"@thirdweb-dev/contracts/external-deps/openzeppelin/token/ERC20/extensions/ERC20Permit.sol\":2264:2333   */\n      tag_189\n        /* \"#utility.yul\":13491:13844   */\n      jump\n        /* \"@thirdweb-dev/contracts/external-deps/openzeppelin/token/ERC20/extensions/ERC20Permit.sol\":2264:2333   */\n    tag_294:\n        /* \"@thirdweb-dev/contracts/external-deps/openzeppelin/token/ERC20/extensions/ERC20Permit.sol\":2344:2362   */\n      0x00\n        /* \"@thirdweb-dev/contracts/external-deps/openzeppelin/token/ERC20/extensions/ERC20Permit.sol\":2386:2402   */\n      immutable(\"0x3cc897d409b554ced5aa06307a8e07be5c0c9d98455bbc5f1d0e2d36fd6ad03d\")\n        /* \"@thirdweb-dev/contracts/external-deps/openzeppelin/token/ERC20/extensions/ERC20Permit.sol\":2404:2409   */\n      dup9\n        /* \"@thirdweb-dev/contracts/external-deps/openzeppelin/token/ERC20/extensions/ERC20Permit.sol\":2411:2418   */\n      dup9\n        /* \"@thirdweb-dev/contracts/external-deps/openzeppelin/token/ERC20/extensions/ERC20Permit.sol\":2420:2425   */\n      dup9\n        /* \"@thirdweb-dev/contracts/external-deps/openzeppelin/token/ERC20/extensions/ERC20Permit.sol\":2427:2443   */\n      tag_297\n        /* \"@thirdweb-dev/contracts/external-deps/openzeppelin/token/ERC20/extensions/ERC20Permit.sol\":2437:2442   */\n      dup13\n        /* \"@thirdweb-dev/contracts/external-deps/openzeppelin/token/ERC20/extensions/ERC20Permit.sol\":2427:2436   */\n      tag_298\n        /* \"@thirdweb-dev/contracts/external-deps/openzeppelin/token/ERC20/extensions/ERC20Permit.sol\":2427:2443   */\n      jump\t// in\n    tag_297:\n        /* \"@thirdweb-dev/contracts/external-deps/openzeppelin/token/ERC20/extensions/ERC20Permit.sol\":2375:2454   */\n      0x40\n      dup1\n      mload\n      0x20\n      dup2\n      add\n        /* \"#utility.yul\":14136:14161   */\n      swap7\n      swap1\n      swap7\n      mstore\n      sub(shl(0xa0, 0x01), 0x01)\n        /* \"#utility.yul\":14258:14273   */\n      swap5\n      dup6\n      and\n        /* \"#utility.yul\":14238:14256   */\n      swap1\n      dup7\n      add\n        /* \"#utility.yul\":14231:14274   */\n      mstore\n        /* \"#utility.yul\":14310:14325   */\n      swap3\n      swap1\n      swap2\n      and\n        /* \"#utility.yul\":14290:14308   */\n      0x60\n      dup5\n      add\n        /* \"#utility.yul\":14283:14326   */\n      mstore\n        /* \"#utility.yul\":14342:14360   */\n      0x80\n      dup4\n      add\n        /* \"#utility.yul\":14335:14369   */\n      mstore\n        /* \"#utility.yul\":14385:14404   */\n      0xa0\n      dup3\n      add\n        /* \"#utility.yul\":14378:14413   */\n      mstore\n        /* \"#utility.yul\":14429:14448   */\n      0xc0\n      dup2\n      add\n        /* \"#utility.yul\":14422:14457   */\n      dup7\n      swap1\n      mstore\n        /* \"#utility.yul\":14108:14127   */\n      0xe0\n      add\n        /* \"@thirdweb-dev/contracts/external-deps/openzeppelin/token/ERC20/extensions/ERC20Permit.sol\":2375:2454   */\n      mload(0x40)\n      0x20\n      dup2\n      dup4\n      sub\n      sub\n      dup2\n      mstore\n      swap1\n      0x40\n      mstore\n        /* \"@thirdweb-dev/contracts/external-deps/openzeppelin/token/ERC20/extensions/ERC20Permit.sol\":2365:2455   */\n      dup1\n      mload\n      swap1\n      0x20\n      add\n      keccak256\n        /* \"@thirdweb-dev/contracts/external-deps/openzeppelin/token/ERC20/extensions/ERC20Permit.sol\":2344:2455   */\n      swap1\n      pop\n        /* \"@thirdweb-dev/contracts/external-deps/openzeppelin/token/ERC20/extensions/ERC20Permit.sol\":2466:2478   */\n      0x00\n        /* \"@thirdweb-dev/contracts/external-deps/openzeppelin/token/ERC20/extensions/ERC20Permit.sol\":2481:2534   */\n      tag_301\n        /* \"@thirdweb-dev/contracts/external-deps/openzeppelin/token/ERC20/extensions/ERC20Permit.sol\":2503:2521   */\n      tag_302\n        /* \"@thirdweb-dev/contracts/external-deps/openzeppelin/token/ERC20/extensions/ERC20Permit.sol\":2503:2519   */\n      tag_70\n        /* \"@thirdweb-dev/contracts/external-deps/openzeppelin/token/ERC20/extensions/ERC20Permit.sol\":2503:2521   */\n      jump\t// in\n    tag_302:\n        /* \"@thirdweb-dev/contracts/external-deps/openzeppelin/token/ERC20/extensions/ERC20Permit.sol\":2523:2533   */\n      dup4\n        /* \"@thirdweb-dev/contracts/external-deps/openzeppelin/utils/cryptography/ECDSA.sol\":8549:8553   */\n      0x40\n        /* \"@thirdweb-dev/contracts/external-deps/openzeppelin/utils/cryptography/ECDSA.sol\":8543:8554   */\n      mload\n      shl(0xf0, 0x1901)\n        /* \"@thirdweb-dev/contracts/external-deps/openzeppelin/utils/cryptography/ECDSA.sol\":8567:8590   */\n      dup2\n      mstore\n        /* \"@thirdweb-dev/contracts/external-deps/openzeppelin/utils/cryptography/ECDSA.sol\":8619:8623   */\n      0x02\n        /* \"@thirdweb-dev/contracts/external-deps/openzeppelin/utils/cryptography/ECDSA.sol\":8610:8624   */\n      dup2\n      add\n        /* \"@thirdweb-dev/contracts/external-deps/openzeppelin/utils/cryptography/ECDSA.sol\":8603:8642   */\n      swap3\n      swap1\n      swap3\n      mstore\n        /* \"@thirdweb-dev/contracts/external-deps/openzeppelin/utils/cryptography/ECDSA.sol\":8671:8675   */\n      0x22\n        /* \"@thirdweb-dev/contracts/external-deps/openzeppelin/utils/cryptography/ECDSA.sol\":8662:8676   */\n      dup3\n      add\n        /* \"@thirdweb-dev/contracts/external-deps/openzeppelin/utils/cryptography/ECDSA.sol\":8655:8689   */\n      mstore\n        /* \"@thirdweb-dev/contracts/external-deps/openzeppelin/utils/cryptography/ECDSA.sol\":8725:8729   */\n      0x42\n        /* \"@thirdweb-dev/contracts/external-deps/openzeppelin/utils/cryptography/ECDSA.sol\":8710:8730   */\n      swap1\n      keccak256\n      swap1\n        /* \"@thirdweb-dev/contracts/external-deps/openzeppelin/utils/cryptography/ECDSA.sol\":8349:8746   */\n      jump\n        /* \"@thirdweb-dev/contracts/external-deps/openzeppelin/token/ERC20/extensions/ERC20Permit.sol\":2481:2534   */\n    tag_301:\n        /* \"@thirdweb-dev/contracts/external-deps/openzeppelin/token/ERC20/extensions/ERC20Permit.sol\":2466:2534   */\n      swap1\n      pop\n        /* \"@thirdweb-dev/contracts/external-deps/openzeppelin/token/ERC20/extensions/ERC20Permit.sol\":2545:2559   */\n      0x00\n        /* \"@thirdweb-dev/contracts/external-deps/openzeppelin/token/ERC20/extensions/ERC20Permit.sol\":2562:2590   */\n      tag_304\n        /* \"@thirdweb-dev/contracts/external-deps/openzeppelin/token/ERC20/extensions/ERC20Permit.sol\":2576:2580   */\n      dup3\n        /* \"@thirdweb-dev/contracts/external-deps/openzeppelin/token/ERC20/extensions/ERC20Permit.sol\":2582:2583   */\n      dup8\n        /* \"@thirdweb-dev/contracts/external-deps/openzeppelin/token/ERC20/extensions/ERC20Permit.sol\":2585:2586   */\n      dup8\n        /* \"@thirdweb-dev/contracts/external-deps/openzeppelin/token/ERC20/extensions/ERC20Permit.sol\":2588:2589   */\n      dup8\n        /* \"@thirdweb-dev/contracts/external-deps/openzeppelin/token/ERC20/extensions/ERC20Permit.sol\":2562:2575   */\n      tag_305\n        /* \"@thirdweb-dev/contracts/external-deps/openzeppelin/token/ERC20/extensions/ERC20Permit.sol\":2562:2590   */\n      jump\t// in\n    tag_304:\n        /* \"@thirdweb-dev/contracts/external-deps/openzeppelin/token/ERC20/extensions/ERC20Permit.sol\":2545:2590   */\n      swap1\n      pop\n        /* \"@thirdweb-dev/contracts/external-deps/openzeppelin/token/ERC20/extensions/ERC20Permit.sol\":2618:2623   */\n      dup10\n      sub(shl(0xa0, 0x01), 0x01)\n        /* \"@thirdweb-dev/contracts/external-deps/openzeppelin/token/ERC20/extensions/ERC20Permit.sol\":2608:2623   */\n      and\n        /* \"@thirdweb-dev/contracts/external-deps/openzeppelin/token/ERC20/extensions/ERC20Permit.sol\":2608:2614   */\n      dup2\n      sub(shl(0xa0, 0x01), 0x01)\n        /* \"@thirdweb-dev/contracts/external-deps/openzeppelin/token/ERC20/extensions/ERC20Permit.sol\":2608:2623   */\n      and\n      eq\n        /* \"@thirdweb-dev/contracts/external-deps/openzeppelin/token/ERC20/extensions/ERC20Permit.sol\":2600:2658   */\n      tag_306\n      jumpi\n      mload(0x40)\n      shl(0xe5, 0x461bcd)\n      dup2\n      mstore\n        /* \"#utility.yul\":14670:14672   */\n      0x20\n        /* \"@thirdweb-dev/contracts/external-deps/openzeppelin/token/ERC20/extensions/ERC20Permit.sol\":2600:2658   */\n      0x04\n      dup3\n      add\n        /* \"#utility.yul\":14652:14673   */\n      mstore\n        /* \"#utility.yul\":14709:14711   */\n      0x1e\n        /* \"#utility.yul\":14689:14707   */\n      0x24\n      dup3\n      add\n        /* \"#utility.yul\":14682:14712   */\n      mstore\n        /* \"#utility.yul\":14748:14780   */\n      0x45524332305065726d69743a20696e76616c6964207369676e61747572650000\n        /* \"#utility.yul\":14728:14746   */\n      0x44\n      dup3\n      add\n        /* \"#utility.yul\":14721:14781   */\n      mstore\n        /* \"#utility.yul\":14798:14816   */\n      0x64\n      add\n        /* \"@thirdweb-dev/contracts/external-deps/openzeppelin/token/ERC20/extensions/ERC20Permit.sol\":2600:2658   */\n      tag_189\n        /* \"#utility.yul\":14468:14822   */\n      jump\n        /* \"@thirdweb-dev/contracts/external-deps/openzeppelin/token/ERC20/extensions/ERC20Permit.sol\":2600:2658   */\n    tag_306:\n        /* \"@thirdweb-dev/contracts/external-deps/openzeppelin/token/ERC20/extensions/ERC20Permit.sol\":2669:2700   */\n      tag_309\n        /* \"@thirdweb-dev/contracts/external-deps/openzeppelin/token/ERC20/extensions/ERC20Permit.sol\":2678:2683   */\n      dup11\n        /* \"@thirdweb-dev/contracts/external-deps/openzeppelin/token/ERC20/extensions/ERC20Permit.sol\":2685:2692   */\n      dup11\n        /* \"@thirdweb-dev/contracts/external-deps/openzeppelin/token/ERC20/extensions/ERC20Permit.sol\":2694:2699   */\n      dup11\n        /* \"@thirdweb-dev/contracts/external-deps/openzeppelin/token/ERC20/extensions/ERC20Permit.sol\":2669:2677   */\n      tag_160\n        /* \"@thirdweb-dev/contracts/external-deps/openzeppelin/token/ERC20/extensions/ERC20Permit.sol\":2669:2700   */\n      jump\t// in\n    tag_309:\n        /* \"@thirdweb-dev/contracts/external-deps/openzeppelin/token/ERC20/extensions/ERC20Permit.sol\":2254:2707   */\n      pop\n      pop\n      pop\n        /* \"@thirdweb-dev/contracts/external-deps/openzeppelin/token/ERC20/extensions/ERC20Permit.sol\":2056:2707   */\n      pop\n      pop\n      pop\n      pop\n      pop\n      pop\n      pop\n      jump\t// out\n        /* \"@thirdweb-dev/contracts/extension/ContractMetadata.sol\":672:706   */\n    tag_140:\n      0x00\n      dup1\n      sload\n      tag_311\n      swap1\n      tag_147\n      jump\t// in\n    tag_311:\n      dup1\n      0x1f\n      add\n      0x20\n      dup1\n      swap2\n      div\n      mul\n      0x20\n      add\n      mload(0x40)\n      swap1\n      dup2\n      add\n      0x40\n      mstore\n      dup1\n      swap3\n      swap2\n      swap1\n      dup2\n      dup2\n      mstore\n      0x20\n      add\n      dup3\n      dup1\n      sload\n      tag_312\n      swap1\n      tag_147\n      jump\t// in\n    tag_312:\n      dup1\n      iszero\n      tag_313\n      jumpi\n      dup1\n      0x1f\n      lt\n      tag_314\n      jumpi\n      0x0100\n      dup1\n      dup4\n      sload\n      div\n      mul\n      dup4\n      mstore\n      swap2\n      0x20\n      add\n      swap2\n      jump(tag_313)\n    tag_314:\n      dup3\n      add\n      swap2\n      swap1\n      0x00\n      mstore\n      keccak256(0x00, 0x20)\n      swap1\n    tag_315:\n      dup2\n      sload\n      dup2\n      mstore\n      swap1\n      0x01\n      add\n      swap1\n      0x20\n      add\n      dup1\n      dup4\n      gt\n      tag_315\n      jumpi\n      dup3\n      swap1\n      sub\n      0x1f\n      and\n      dup3\n      add\n      swap2\n    tag_313:\n      pop\n      pop\n      pop\n      pop\n      pop\n      dup2\n      jump\t// out\n        /* \"ProducerProtocolToken.sol\":1519:2283  function mintFanTokens(... */\n    tag_144:\n        /* \"@thirdweb-dev/contracts/extension/Ownable.sol\":1046:1052   */\n      and(sub(shl(0xa0, 0x01), 0x01), sload(0x01))\n        /* \"ProducerProtocolToken.sol\":1674:1684  msg.sender */\n      caller\n        /* \"ProducerProtocolToken.sol\":1674:1695  msg.sender == owner() */\n      eq\n        /* \"ProducerProtocolToken.sol\":1666:1723  require(msg.sender == owner(), \"Caller is not the owner\") */\n      tag_318\n      jumpi\n      mload(0x40)\n      shl(0xe5, 0x461bcd)\n      dup2\n      mstore\n        /* \"#utility.yul\":10298:10300   */\n      0x20\n        /* \"ProducerProtocolToken.sol\":1666:1723  require(msg.sender == owner(), \"Caller is not the owner\") */\n      0x04\n      dup3\n      add\n        /* \"#utility.yul\":10280:10301   */\n      mstore\n        /* \"#utility.yul\":10337:10339   */\n      0x17\n        /* \"#utility.yul\":10317:10335   */\n      0x24\n      dup3\n      add\n        /* \"#utility.yul\":10310:10340   */\n      mstore\n        /* \"#utility.yul\":10376:10401   */\n      0x43616c6c6572206973206e6f7420746865206f776e6572000000000000000000\n        /* \"#utility.yul\":10356:10374   */\n      0x44\n      dup3\n      add\n        /* \"#utility.yul\":10349:10402   */\n      mstore\n        /* \"#utility.yul\":10419:10437   */\n      0x64\n      add\n        /* \"ProducerProtocolToken.sol\":1666:1723  require(msg.sender == owner(), \"Caller is not the owner\") */\n      tag_189\n        /* \"#utility.yul\":10096:10443   */\n      jump\n        /* \"ProducerProtocolToken.sol\":1666:1723  require(msg.sender == owner(), \"Caller is not the owner\") */\n    tag_318:\n      sub(shl(0xa0, 0x01), 0x01)\n        /* \"ProducerProtocolToken.sol\":1741:1757  to != address(0) */\n      dup5\n      and\n        /* \"ProducerProtocolToken.sol\":1733:1789  require(to != address(0), \"Cannot mint to zero address\") */\n      tag_320\n      jumpi\n      mload(0x40)\n      shl(0xe5, 0x461bcd)\n      dup2\n      mstore\n        /* \"#utility.yul\":10650:10652   */\n      0x20\n        /* \"ProducerProtocolToken.sol\":1733:1789  require(to != address(0), \"Cannot mint to zero address\") */\n      0x04\n      dup3\n      add\n        /* \"#utility.yul\":10632:10653   */\n      mstore\n        /* \"#utility.yul\":10689:10691   */\n      0x1b\n        /* \"#utility.yul\":10669:10687   */\n      0x24\n      dup3\n      add\n        /* \"#utility.yul\":10662:10692   */\n      mstore\n        /* \"#utility.yul\":10728:10757   */\n      0x43616e6e6f74206d696e7420746f207a65726f20616464726573730000000000\n        /* \"#utility.yul\":10708:10726   */\n      0x44\n      dup3\n      add\n        /* \"#utility.yul\":10701:10758   */\n      mstore\n        /* \"#utility.yul\":10775:10793   */\n      0x64\n      add\n        /* \"ProducerProtocolToken.sol\":1733:1789  require(to != address(0), \"Cannot mint to zero address\") */\n      tag_189\n        /* \"#utility.yul\":10448:10799   */\n      jump\n        /* \"ProducerProtocolToken.sol\":1733:1789  require(to != address(0), \"Cannot mint to zero address\") */\n    tag_320:\n        /* \"ProducerProtocolToken.sol\":1816:1817  0 */\n      0x00\n        /* \"ProducerProtocolToken.sol\":1807:1813  amount */\n      dup4\n        /* \"ProducerProtocolToken.sol\":1807:1817  amount > 0 */\n      gt\n        /* \"ProducerProtocolToken.sol\":1799:1854  require(amount > 0, \"Amount must be greater than zero\") */\n      tag_322\n      jumpi\n      mload(0x40)\n      shl(0xe5, 0x461bcd)\n      dup2\n      mstore\n        /* \"#utility.yul\":11006:11008   */\n      0x20\n        /* \"ProducerProtocolToken.sol\":1799:1854  require(amount > 0, \"Amount must be greater than zero\") */\n      0x04\n      dup3\n      add\n        /* \"#utility.yul\":10988:11009   */\n      dup2\n      swap1\n      mstore\n        /* \"#utility.yul\":11025:11043   */\n      0x24\n      dup3\n      add\n        /* \"#utility.yul\":11018:11048   */\n      mstore\n        /* \"#utility.yul\":11084:11118   */\n      0x416d6f756e74206d7573742062652067726561746572207468616e207a65726f\n        /* \"#utility.yul\":11064:11082   */\n      0x44\n      dup3\n      add\n        /* \"#utility.yul\":11057:11119   */\n      mstore\n        /* \"#utility.yul\":11136:11154   */\n      0x64\n      add\n        /* \"ProducerProtocolToken.sol\":1799:1854  require(amount > 0, \"Amount must be greater than zero\") */\n      tag_189\n        /* \"#utility.yul\":10804:11160   */\n      jump\n        /* \"ProducerProtocolToken.sol\":1799:1854  require(amount > 0, \"Amount must be greater than zero\") */\n    tag_322:\n        /* \"ProducerProtocolToken.sol\":1886:1889  100 */\n      0x64\n        /* \"ProducerProtocolToken.sol\":1872:1882  percentage */\n      dup2\n        /* \"ProducerProtocolToken.sol\":1872:1889  percentage <= 100 */\n      gt\n      iszero\n        /* \"ProducerProtocolToken.sol\":1864:1934  require(percentage <= 100, \"Fan percentage must be between 0 and 100\") */\n      tag_324\n      jumpi\n      mload(0x40)\n      shl(0xe5, 0x461bcd)\n      dup2\n      mstore\n        /* \"#utility.yul\":15029:15031   */\n      0x20\n        /* \"ProducerProtocolToken.sol\":1864:1934  require(percentage <= 100, \"Fan percentage must be between 0 and 100\") */\n      0x04\n      dup3\n      add\n        /* \"#utility.yul\":15011:15032   */\n      mstore\n        /* \"#utility.yul\":15068:15070   */\n      0x28\n        /* \"#utility.yul\":15048:15066   */\n      0x24\n      dup3\n      add\n        /* \"#utility.yul\":15041:15071   */\n      mstore\n        /* \"#utility.yul\":15107:15141   */\n      0x46616e2070657263656e74616765206d757374206265206265747765656e2030\n        /* \"#utility.yul\":15087:15105   */\n      0x44\n      dup3\n      add\n        /* \"#utility.yul\":15080:15142   */\n      mstore\n        /* \"#utility.yul\":15178:15188   */\n      0x20616e6420313030000000000000000000000000000000000000000000000000\n        /* \"#utility.yul\":15158:15176   */\n      0x64\n      dup3\n      add\n        /* \"#utility.yul\":15151:15189   */\n      mstore\n        /* \"#utility.yul\":15206:15225   */\n      0x84\n      add\n        /* \"ProducerProtocolToken.sol\":1864:1934  require(percentage <= 100, \"Fan percentage must be between 0 and 100\") */\n      tag_189\n        /* \"#utility.yul\":14827:15231   */\n      jump\n        /* \"ProducerProtocolToken.sol\":1864:1934  require(percentage <= 100, \"Fan percentage must be between 0 and 100\") */\n    tag_324:\n        /* \"ProducerProtocolToken.sol\":1945:1962  _mint(to, amount) */\n      tag_327\n        /* \"ProducerProtocolToken.sol\":1951:1953  to */\n      dup5\n        /* \"ProducerProtocolToken.sol\":1955:1961  amount */\n      dup5\n        /* \"ProducerProtocolToken.sol\":1945:1950  _mint */\n      tag_203\n        /* \"ProducerProtocolToken.sol\":1945:1962  _mint(to, amount) */\n      jump\t// in\n    tag_327:\n        /* \"ProducerProtocolToken.sol\":1973:2004  projectContributions[projectId] */\n      0x00\n      dup3\n      dup2\n      mstore\n        /* \"ProducerProtocolToken.sol\":1973:1993  projectContributions */\n      0x08\n        /* \"ProducerProtocolToken.sol\":1973:2004  projectContributions[projectId] */\n      0x20\n      swap1\n      dup2\n      mstore\n      0x40\n      dup1\n      dup4\n      keccak256\n        /* \"ProducerProtocolToken.sol\":2023:2208  Contribution({... */\n      dup2\n      mload\n      0x80\n      dup2\n      add\n      dup4\n      mstore\n      sub(shl(0xa0, 0x01), 0x01)\n      dup10\n      dup2\n      and\n      dup1\n      dup4\n      mstore\n      dup3\n      dup7\n      add\n      dup8\n      dup2\n      mstore\n      dup4\n      dup7\n      add\n      dup10\n      dup2\n      mstore\n        /* \"ProducerProtocolToken.sol\":2178:2193  block.timestamp */\n      timestamp\n        /* \"ProducerProtocolToken.sol\":2023:2208  Contribution({... */\n      0x60\n      dup7\n      add\n      swap1\n      dup2\n      mstore\n        /* \"ProducerProtocolToken.sol\":1973:2218  projectContributions[projectId].push(... */\n      dup7\n      sload\n      0x01\n      dup1\n      dup3\n      add\n      dup10\n      sstore\n      swap8\n      dup12\n      mstore\n      swap10\n      dup10\n      swap1\n      keccak256\n      swap6\n      mload\n      0x04\n      swap1\n      swap11\n      mul\n      swap1\n      swap6\n      add\n      dup1\n      sload\n      not(0xffffffffffffffffffffffffffffffffffffffff)\n      and\n      swap10\n      swap1\n      swap5\n      and\n      swap9\n      swap1\n      swap9\n      or\n      dup4\n      sstore\n      mload\n      swap4\n      dup3\n      add\n      swap4\n      swap1\n      swap4\n      sstore\n      swap5\n      mload\n      0x02\n      dup7\n      add\n      sstore\n      mload\n      0x03\n      swap1\n      swap5\n      add\n      swap4\n      swap1\n      swap4\n      sstore\n        /* \"ProducerProtocolToken.sol\":2234:2276  FanContribution(projectId, to, percentage) */\n      mload\n        /* \"#utility.yul\":2692:2717   */\n      dup4\n      dup2\n      mstore\n        /* \"ProducerProtocolToken.sol\":1973:2004  projectContributions[projectId] */\n      dup5\n      swap2\n        /* \"ProducerProtocolToken.sol\":2234:2276  FanContribution(projectId, to, percentage) */\n      0x1856352762786cd7e9a26008bb6570b1f0c3a04be39c9f60df7ac6d231be40ff\n      swap2\n        /* \"#utility.yul\":2665:2683   */\n      add\n        /* \"ProducerProtocolToken.sol\":2234:2276  FanContribution(projectId, to, percentage) */\n      tag_220\n        /* \"#utility.yul\":2546:2723   */\n      jump\n        /* \"@thirdweb-dev/contracts/external-deps/openzeppelin/token/ERC20/ERC20.sol\":10100:10440   */\n    tag_160:\n      sub(shl(0xa0, 0x01), 0x01)\n        /* \"@thirdweb-dev/contracts/external-deps/openzeppelin/token/ERC20/ERC20.sol\":10201:10220   */\n      dup4\n      and\n        /* \"@thirdweb-dev/contracts/external-deps/openzeppelin/token/ERC20/ERC20.sol\":10193:10261   */\n      tag_332\n      jumpi\n      mload(0x40)\n      shl(0xe5, 0x461bcd)\n      dup2\n      mstore\n        /* \"#utility.yul\":15438:15440   */\n      0x20\n        /* \"@thirdweb-dev/contracts/external-deps/openzeppelin/token/ERC20/ERC20.sol\":10193:10261   */\n      0x04\n      dup3\n      add\n        /* \"#utility.yul\":15420:15441   */\n      mstore\n        /* \"#utility.yul\":15477:15479   */\n      0x24\n        /* \"#utility.yul\":15457:15475   */\n      dup1\n      dup3\n      add\n        /* \"#utility.yul\":15450:15480   */\n      mstore\n        /* \"#utility.yul\":15516:15550   */\n      0x45524332303a20617070726f76652066726f6d20746865207a65726f20616464\n        /* \"#utility.yul\":15496:15514   */\n      0x44\n      dup3\n      add\n        /* \"#utility.yul\":15489:15551   */\n      mstore\n      shl(0xe0, 0x72657373)\n        /* \"#utility.yul\":15567:15585   */\n      0x64\n      dup3\n      add\n        /* \"#utility.yul\":15560:15594   */\n      mstore\n        /* \"#utility.yul\":15611:15630   */\n      0x84\n      add\n        /* \"@thirdweb-dev/contracts/external-deps/openzeppelin/token/ERC20/ERC20.sol\":10193:10261   */\n      tag_189\n        /* \"#utility.yul\":15236:15636   */\n      jump\n        /* \"@thirdweb-dev/contracts/external-deps/openzeppelin/token/ERC20/ERC20.sol\":10193:10261   */\n    tag_332:\n      sub(shl(0xa0, 0x01), 0x01)\n        /* \"@thirdweb-dev/contracts/external-deps/openzeppelin/token/ERC20/ERC20.sol\":10279:10300   */\n      dup3\n      and\n        /* \"@thirdweb-dev/contracts/external-deps/openzeppelin/token/ERC20/ERC20.sol\":10271:10339   */\n      tag_335\n      jumpi\n      mload(0x40)\n      shl(0xe5, 0x461bcd)\n      dup2\n      mstore\n        /* \"#utility.yul\":15843:15845   */\n      0x20\n        /* \"@thirdweb-dev/contracts/external-deps/openzeppelin/token/ERC20/ERC20.sol\":10271:10339   */\n      0x04\n      dup3\n      add\n        /* \"#utility.yul\":15825:15846   */\n      mstore\n        /* \"#utility.yul\":15882:15884   */\n      0x22\n        /* \"#utility.yul\":15862:15880   */\n      0x24\n      dup3\n      add\n        /* \"#utility.yul\":15855:15885   */\n      mstore\n        /* \"#utility.yul\":15921:15955   */\n      0x45524332303a20617070726f766520746f20746865207a65726f206164647265\n        /* \"#utility.yul\":15901:15919   */\n      0x44\n      dup3\n      add\n        /* \"#utility.yul\":15894:15956   */\n      mstore\n      shl(0xf0, 0x7373)\n        /* \"#utility.yul\":15972:15990   */\n      0x64\n      dup3\n      add\n        /* \"#utility.yul\":15965:15997   */\n      mstore\n        /* \"#utility.yul\":16014:16033   */\n      0x84\n      add\n        /* \"@thirdweb-dev/contracts/external-deps/openzeppelin/token/ERC20/ERC20.sol\":10271:10339   */\n      tag_189\n        /* \"#utility.yul\":15641:16039   */\n      jump\n        /* \"@thirdweb-dev/contracts/external-deps/openzeppelin/token/ERC20/ERC20.sol\":10271:10339   */\n    tag_335:\n      sub(shl(0xa0, 0x01), 0x01)\n        /* \"@thirdweb-dev/contracts/external-deps/openzeppelin/token/ERC20/ERC20.sol\":10350:10368   */\n      dup4\n      dup2\n      and\n      0x00\n      dup2\n      dup2\n      mstore\n        /* \"@thirdweb-dev/contracts/external-deps/openzeppelin/token/ERC20/ERC20.sol\":10350:10361   */\n      0x03\n        /* \"@thirdweb-dev/contracts/external-deps/openzeppelin/token/ERC20/ERC20.sol\":10350:10368   */\n      0x20\n      swap1\n      dup2\n      mstore\n      0x40\n      dup1\n      dup4\n      keccak256\n        /* \"@thirdweb-dev/contracts/external-deps/openzeppelin/token/ERC20/ERC20.sol\":10350:10377   */\n      swap5\n      dup8\n      and\n      dup1\n      dup5\n      mstore\n      swap5\n      dup3\n      mstore\n      swap2\n      dup3\n      swap1\n      keccak256\n        /* \"@thirdweb-dev/contracts/external-deps/openzeppelin/token/ERC20/ERC20.sol\":10350:10386   */\n      dup6\n      swap1\n      sstore\n        /* \"@thirdweb-dev/contracts/external-deps/openzeppelin/token/ERC20/ERC20.sol\":10401:10433   */\n      swap1\n      mload\n        /* \"#utility.yul\":2692:2717   */\n      dup5\n      dup2\n      mstore\n        /* \"@thirdweb-dev/contracts/external-deps/openzeppelin/token/ERC20/ERC20.sol\":10401:10433   */\n      0x8c5be1e5ebec7d5bd14f71427d1e84f3dd0314c0f7b2291e5b200ac8c7c3b925\n      swap2\n        /* \"#utility.yul\":2665:2683   */\n      add\n        /* \"@thirdweb-dev/contracts/external-deps/openzeppelin/token/ERC20/ERC20.sol\":10401:10433   */\n      mload(0x40)\n      dup1\n      swap2\n      sub\n      swap1\n      log3\n        /* \"@thirdweb-dev/contracts/external-deps/openzeppelin/token/ERC20/ERC20.sol\":10100:10440   */\n      pop\n      pop\n      pop\n      jump\t// out\n        /* \"@thirdweb-dev/contracts/base/ERC20Base.sol\":4190:4305   */\n    tag_163:\n        /* \"@thirdweb-dev/contracts/base/ERC20Base.sol\":4254:4258   */\n      0x00\n        /* \"@thirdweb-dev/contracts/base/ERC20Base.sol\":4291:4298   */\n      tag_340\n        /* \"@thirdweb-dev/contracts/extension/Ownable.sol\":1046:1052   */\n      and(sub(shl(0xa0, 0x01), 0x01), sload(0x01))\n      swap1\n        /* \"@thirdweb-dev/contracts/extension/Ownable.sol\":973:1059   */\n      jump\n        /* \"@thirdweb-dev/contracts/base/ERC20Base.sol\":4291:4298   */\n    tag_340:\n      sub(shl(0xa0, 0x01), 0x01)\n        /* \"@thirdweb-dev/contracts/base/ERC20Base.sol\":4277:4298   */\n      and\n        /* \"@thirdweb-dev/contracts/base/ERC20Base.sol\":4277:4287   */\n      caller\n      sub(shl(0xa0, 0x01), 0x01)\n        /* \"@thirdweb-dev/contracts/base/ERC20Base.sol\":4277:4298   */\n      and\n      eq\n        /* \"@thirdweb-dev/contracts/base/ERC20Base.sol\":4270:4298   */\n      swap1\n      pop\n        /* \"@thirdweb-dev/contracts/base/ERC20Base.sol\":4190:4305   */\n      swap1\n      jump\t// out\n        /* \"@thirdweb-dev/contracts/extension/Ownable.sol\":1527:1699   */\n    tag_166:\n        /* \"@thirdweb-dev/contracts/extension/Ownable.sol\":1607:1613   */\n      0x01\n      dup1\n      sload\n      sub(shl(0xa0, 0x01), 0x01)\n        /* \"@thirdweb-dev/contracts/extension/Ownable.sol\":1623:1641   */\n      dup4\n      dup2\n      and\n      not(0xffffffffffffffffffffffffffffffffffffffff)\n      dup4\n      and\n      dup2\n      or\n      swap1\n      swap4\n      sstore\n        /* \"@thirdweb-dev/contracts/extension/Ownable.sol\":1657:1692   */\n      mload(0x40)\n        /* \"@thirdweb-dev/contracts/extension/Ownable.sol\":1607:1613   */\n      swap2\n      and\n      swap2\n        /* \"@thirdweb-dev/contracts/extension/Ownable.sol\":1623:1641   */\n      swap1\n        /* \"@thirdweb-dev/contracts/extension/Ownable.sol\":1607:1613   */\n      dup3\n      swap1\n        /* \"@thirdweb-dev/contracts/extension/Ownable.sol\":1657:1692   */\n      0x8292fce18fa69edf4db7b94ea2e58241df0ae57f97e0a6c9b29067028bf92d76\n      swap1\n        /* \"@thirdweb-dev/contracts/extension/Ownable.sol\":1586:1604   */\n      0x00\n      swap1\n        /* \"@thirdweb-dev/contracts/extension/Ownable.sol\":1657:1692   */\n      log3\n        /* \"@thirdweb-dev/contracts/extension/Ownable.sol\":1576:1699   */\n      pop\n        /* \"@thirdweb-dev/contracts/extension/Ownable.sol\":1527:1699   */\n      pop\n      jump\t// out\n        /* \"@thirdweb-dev/contracts/external-deps/openzeppelin/token/ERC20/ERC20.sol\":10717:11128   */\n    tag_171:\n      sub(shl(0xa0, 0x01), 0x01)\n        /* \"@thirdweb-dev/contracts/external-deps/openzeppelin/token/ERC20/ERC20.sol\":4128:4146   */\n      dup4\n      dup2\n      and\n        /* \"@thirdweb-dev/contracts/external-deps/openzeppelin/token/ERC20/ERC20.sol\":10817:10841   */\n      0x00\n        /* \"@thirdweb-dev/contracts/external-deps/openzeppelin/token/ERC20/ERC20.sol\":4128:4146   */\n      swap1\n      dup2\n      mstore\n        /* \"@thirdweb-dev/contracts/external-deps/openzeppelin/token/ERC20/ERC20.sol\":4128:4139   */\n      0x03\n        /* \"@thirdweb-dev/contracts/external-deps/openzeppelin/token/ERC20/ERC20.sol\":4128:4146   */\n      0x20\n      swap1\n      dup2\n      mstore\n      0x40\n      dup1\n      dup4\n      keccak256\n        /* \"@thirdweb-dev/contracts/external-deps/openzeppelin/token/ERC20/ERC20.sol\":4128:4155   */\n      swap4\n      dup7\n      and\n      dup4\n      mstore\n      swap3\n      swap1\n      mstore\n      keccak256\n      sload\n      not(0x00)\n        /* \"@thirdweb-dev/contracts/external-deps/openzeppelin/token/ERC20/ERC20.sol\":10883:10920   */\n      dup2\n      eq\n        /* \"@thirdweb-dev/contracts/external-deps/openzeppelin/token/ERC20/ERC20.sol\":10879:11122   */\n      tag_348\n      jumpi\n        /* \"@thirdweb-dev/contracts/external-deps/openzeppelin/token/ERC20/ERC20.sol\":10964:10970   */\n      dup2\n        /* \"@thirdweb-dev/contracts/external-deps/openzeppelin/token/ERC20/ERC20.sol\":10944:10960   */\n      dup2\n        /* \"@thirdweb-dev/contracts/external-deps/openzeppelin/token/ERC20/ERC20.sol\":10944:10970   */\n      lt\n      iszero\n        /* \"@thirdweb-dev/contracts/external-deps/openzeppelin/token/ERC20/ERC20.sol\":10936:11004   */\n      tag_345\n      jumpi\n      mload(0x40)\n      shl(0xe5, 0x461bcd)\n      dup2\n      mstore\n        /* \"#utility.yul\":16246:16248   */\n      0x20\n        /* \"@thirdweb-dev/contracts/external-deps/openzeppelin/token/ERC20/ERC20.sol\":10936:11004   */\n      0x04\n      dup3\n      add\n        /* \"#utility.yul\":16228:16249   */\n      mstore\n        /* \"#utility.yul\":16285:16287   */\n      0x1d\n        /* \"#utility.yul\":16265:16283   */\n      0x24\n      dup3\n      add\n        /* \"#utility.yul\":16258:16288   */\n      mstore\n        /* \"#utility.yul\":16324:16355   */\n      0x45524332303a20696e73756666696369656e7420616c6c6f77616e6365000000\n        /* \"#utility.yul\":16304:16322   */\n      0x44\n      dup3\n      add\n        /* \"#utility.yul\":16297:16356   */\n      mstore\n        /* \"#utility.yul\":16373:16391   */\n      0x64\n      add\n        /* \"@thirdweb-dev/contracts/external-deps/openzeppelin/token/ERC20/ERC20.sol\":10936:11004   */\n      tag_189\n        /* \"#utility.yul\":16044:16397   */\n      jump\n        /* \"@thirdweb-dev/contracts/external-deps/openzeppelin/token/ERC20/ERC20.sol\":10936:11004   */\n    tag_345:\n        /* \"@thirdweb-dev/contracts/external-deps/openzeppelin/token/ERC20/ERC20.sol\":11046:11097   */\n      tag_348\n        /* \"@thirdweb-dev/contracts/external-deps/openzeppelin/token/ERC20/ERC20.sol\":11055:11060   */\n      dup5\n        /* \"@thirdweb-dev/contracts/external-deps/openzeppelin/token/ERC20/ERC20.sol\":11062:11069   */\n      dup5\n        /* \"@thirdweb-dev/contracts/external-deps/openzeppelin/token/ERC20/ERC20.sol\":11090:11096   */\n      dup5\n        /* \"@thirdweb-dev/contracts/external-deps/openzeppelin/token/ERC20/ERC20.sol\":11071:11087   */\n      dup5\n        /* \"@thirdweb-dev/contracts/external-deps/openzeppelin/token/ERC20/ERC20.sol\":11071:11096   */\n      sub\n        /* \"@thirdweb-dev/contracts/external-deps/openzeppelin/token/ERC20/ERC20.sol\":11046:11054   */\n      tag_160\n        /* \"@thirdweb-dev/contracts/external-deps/openzeppelin/token/ERC20/ERC20.sol\":11046:11097   */\n      jump\t// in\n    tag_348:\n        /* \"@thirdweb-dev/contracts/external-deps/openzeppelin/token/ERC20/ERC20.sol\":10807:11128   */\n      pop\n        /* \"@thirdweb-dev/contracts/external-deps/openzeppelin/token/ERC20/ERC20.sol\":10717:11128   */\n      pop\n      pop\n      pop\n      jump\t// out\n        /* \"@thirdweb-dev/contracts/external-deps/openzeppelin/token/ERC20/ERC20.sol\":7495:8116   */\n    tag_173:\n      sub(shl(0xa0, 0x01), 0x01)\n        /* \"@thirdweb-dev/contracts/external-deps/openzeppelin/token/ERC20/ERC20.sol\":7591:7609   */\n      dup4\n      and\n        /* \"@thirdweb-dev/contracts/external-deps/openzeppelin/token/ERC20/ERC20.sol\":7583:7651   */\n      tag_350\n      jumpi\n      mload(0x40)\n      shl(0xe5, 0x461bcd)\n      dup2\n      mstore\n        /* \"#utility.yul\":16604:16606   */\n      0x20\n        /* \"@thirdweb-dev/contracts/external-deps/openzeppelin/token/ERC20/ERC20.sol\":7583:7651   */\n      0x04\n      dup3\n      add\n        /* \"#utility.yul\":16586:16607   */\n      mstore\n        /* \"#utility.yul\":16643:16645   */\n      0x25\n        /* \"#utility.yul\":16623:16641   */\n      0x24\n      dup3\n      add\n        /* \"#utility.yul\":16616:16646   */\n      mstore\n        /* \"#utility.yul\":16682:16716   */\n      0x45524332303a207472616e736665722066726f6d20746865207a65726f206164\n        /* \"#utility.yul\":16662:16680   */\n      0x44\n      dup3\n      add\n        /* \"#utility.yul\":16655:16717   */\n      mstore\n        /* \"#utility.yul\":16753:16760   */\n      0x6472657373000000000000000000000000000000000000000000000000000000\n        /* \"#utility.yul\":16733:16751   */\n      0x64\n      dup3\n      add\n        /* \"#utility.yul\":16726:16761   */\n      mstore\n        /* \"#utility.yul\":16778:16797   */\n      0x84\n      add\n        /* \"@thirdweb-dev/contracts/external-deps/openzeppelin/token/ERC20/ERC20.sol\":7583:7651   */\n      tag_189\n        /* \"#utility.yul\":16402:16803   */\n      jump\n        /* \"@thirdweb-dev/contracts/external-deps/openzeppelin/token/ERC20/ERC20.sol\":7583:7651   */\n    tag_350:\n      sub(shl(0xa0, 0x01), 0x01)\n        /* \"@thirdweb-dev/contracts/external-deps/openzeppelin/token/ERC20/ERC20.sol\":7669:7685   */\n      dup3\n      and\n        /* \"@thirdweb-dev/contracts/external-deps/openzeppelin/token/ERC20/ERC20.sol\":7661:7725   */\n      tag_353\n      jumpi\n      mload(0x40)\n      shl(0xe5, 0x461bcd)\n      dup2\n      mstore\n        /* \"#utility.yul\":17010:17012   */\n      0x20\n        /* \"@thirdweb-dev/contracts/external-deps/openzeppelin/token/ERC20/ERC20.sol\":7661:7725   */\n      0x04\n      dup3\n      add\n        /* \"#utility.yul\":16992:17013   */\n      mstore\n        /* \"#utility.yul\":17049:17051   */\n      0x23\n        /* \"#utility.yul\":17029:17047   */\n      0x24\n      dup3\n      add\n        /* \"#utility.yul\":17022:17052   */\n      mstore\n        /* \"#utility.yul\":17088:17122   */\n      0x45524332303a207472616e7366657220746f20746865207a65726f2061646472\n        /* \"#utility.yul\":17068:17086   */\n      0x44\n      dup3\n      add\n        /* \"#utility.yul\":17061:17123   */\n      mstore\n      shl(0xe8, 0x657373)\n        /* \"#utility.yul\":17139:17157   */\n      0x64\n      dup3\n      add\n        /* \"#utility.yul\":17132:17165   */\n      mstore\n        /* \"#utility.yul\":17182:17201   */\n      0x84\n      add\n        /* \"@thirdweb-dev/contracts/external-deps/openzeppelin/token/ERC20/ERC20.sol\":7661:7725   */\n      tag_189\n        /* \"#utility.yul\":16808:17207   */\n      jump\n        /* \"@thirdweb-dev/contracts/external-deps/openzeppelin/token/ERC20/ERC20.sol\":7661:7725   */\n    tag_353:\n      sub(shl(0xa0, 0x01), 0x01)\n        /* \"@thirdweb-dev/contracts/external-deps/openzeppelin/token/ERC20/ERC20.sol\":7807:7822   */\n      dup4\n      and\n        /* \"@thirdweb-dev/contracts/external-deps/openzeppelin/token/ERC20/ERC20.sol\":7785:7804   */\n      0x00\n        /* \"@thirdweb-dev/contracts/external-deps/openzeppelin/token/ERC20/ERC20.sol\":7807:7822   */\n      swap1\n      dup2\n      mstore\n        /* \"@thirdweb-dev/contracts/external-deps/openzeppelin/token/ERC20/ERC20.sol\":7807:7816   */\n      0x02\n        /* \"@thirdweb-dev/contracts/external-deps/openzeppelin/token/ERC20/ERC20.sol\":7807:7822   */\n      0x20\n      mstore\n      0x40\n      swap1\n      keccak256\n      sload\n        /* \"@thirdweb-dev/contracts/external-deps/openzeppelin/token/ERC20/ERC20.sol\":7840:7861   */\n      dup2\n      dup2\n      lt\n      iszero\n        /* \"@thirdweb-dev/contracts/external-deps/openzeppelin/token/ERC20/ERC20.sol\":7832:7904   */\n      tag_358\n      jumpi\n      mload(0x40)\n      shl(0xe5, 0x461bcd)\n      dup2\n      mstore\n        /* \"#utility.yul\":17414:17416   */\n      0x20\n        /* \"@thirdweb-dev/contracts/external-deps/openzeppelin/token/ERC20/ERC20.sol\":7832:7904   */\n      0x04\n      dup3\n      add\n        /* \"#utility.yul\":17396:17417   */\n      mstore\n        /* \"#utility.yul\":17453:17455   */\n      0x26\n        /* \"#utility.yul\":17433:17451   */\n      0x24\n      dup3\n      add\n        /* \"#utility.yul\":17426:17456   */\n      mstore\n        /* \"#utility.yul\":17492:17526   */\n      0x45524332303a207472616e7366657220616d6f756e7420657863656564732062\n        /* \"#utility.yul\":17472:17490   */\n      0x44\n      dup3\n      add\n        /* \"#utility.yul\":17465:17527   */\n      mstore\n        /* \"#utility.yul\":17563:17571   */\n      0x616c616e63650000000000000000000000000000000000000000000000000000\n        /* \"#utility.yul\":17543:17561   */\n      0x64\n      dup3\n      add\n        /* \"#utility.yul\":17536:17572   */\n      mstore\n        /* \"#utility.yul\":17589:17608   */\n      0x84\n      add\n        /* \"@thirdweb-dev/contracts/external-deps/openzeppelin/token/ERC20/ERC20.sol\":7832:7904   */\n      tag_189\n        /* \"#utility.yul\":17212:17614   */\n      jump\n        /* \"@thirdweb-dev/contracts/external-deps/openzeppelin/token/ERC20/ERC20.sol\":7832:7904   */\n    tag_358:\n      sub(shl(0xa0, 0x01), 0x01)\n        /* \"@thirdweb-dev/contracts/external-deps/openzeppelin/token/ERC20/ERC20.sol\":7938:7953   */\n      dup1\n      dup6\n      and\n      0x00\n      swap1\n      dup2\n      mstore\n        /* \"@thirdweb-dev/contracts/external-deps/openzeppelin/token/ERC20/ERC20.sol\":7938:7947   */\n      0x02\n        /* \"@thirdweb-dev/contracts/external-deps/openzeppelin/token/ERC20/ERC20.sol\":7938:7953   */\n      0x20\n      mstore\n      0x40\n      dup1\n      dup3\n      keccak256\n        /* \"@thirdweb-dev/contracts/external-deps/openzeppelin/token/ERC20/ERC20.sol\":7956:7976   */\n      dup6\n      dup6\n      sub\n        /* \"@thirdweb-dev/contracts/external-deps/openzeppelin/token/ERC20/ERC20.sol\":7938:7976   */\n      swap1\n      sstore\n        /* \"@thirdweb-dev/contracts/external-deps/openzeppelin/token/ERC20/ERC20.sol\":7996:8009   */\n      swap2\n      dup6\n      and\n      dup2\n      mstore\n      swap1\n      dup2\n      keccak256\n        /* \"@thirdweb-dev/contracts/external-deps/openzeppelin/token/ERC20/ERC20.sol\":7996:8019   */\n      dup1\n      sload\n        /* \"@thirdweb-dev/contracts/external-deps/openzeppelin/token/ERC20/ERC20.sol\":7970:7976   */\n      dup5\n      swap3\n        /* \"@thirdweb-dev/contracts/external-deps/openzeppelin/token/ERC20/ERC20.sol\":7938:7953   */\n      swap1\n        /* \"@thirdweb-dev/contracts/external-deps/openzeppelin/token/ERC20/ERC20.sol\":7996:8019   */\n      tag_361\n      swap1\n        /* \"@thirdweb-dev/contracts/external-deps/openzeppelin/token/ERC20/ERC20.sol\":7970:7976   */\n      dup5\n      swap1\n        /* \"@thirdweb-dev/contracts/external-deps/openzeppelin/token/ERC20/ERC20.sol\":7996:8019   */\n      tag_185\n      jump\t// in\n    tag_361:\n      swap3\n      pop\n      pop\n      dup2\n      swap1\n      sstore\n      pop\n        /* \"@thirdweb-dev/contracts/external-deps/openzeppelin/token/ERC20/ERC20.sol\":8050:8052   */\n      dup3\n      sub(shl(0xa0, 0x01), 0x01)\n        /* \"@thirdweb-dev/contracts/external-deps/openzeppelin/token/ERC20/ERC20.sol\":8035:8061   */\n      and\n        /* \"@thirdweb-dev/contracts/external-deps/openzeppelin/token/ERC20/ERC20.sol\":8044:8048   */\n      dup5\n      sub(shl(0xa0, 0x01), 0x01)\n        /* \"@thirdweb-dev/contracts/external-deps/openzeppelin/token/ERC20/ERC20.sol\":8035:8061   */\n      and\n      0xddf252ad1be2c89b69c2b068fc378daa952ba7f163c4a11628f55a4df523b3ef\n        /* \"@thirdweb-dev/contracts/external-deps/openzeppelin/token/ERC20/ERC20.sol\":8054:8060   */\n      dup5\n        /* \"@thirdweb-dev/contracts/external-deps/openzeppelin/token/ERC20/ERC20.sol\":8035:8061   */\n      mload(0x40)\n      tag_362\n      swap2\n        /* \"#utility.yul\":2692:2717   */\n      dup2\n      mstore\n        /* \"#utility.yul\":2680:2682   */\n      0x20\n        /* \"#utility.yul\":2665:2683   */\n      add\n      swap1\n        /* \"#utility.yul\":2546:2723   */\n      jump\n        /* \"@thirdweb-dev/contracts/external-deps/openzeppelin/token/ERC20/ERC20.sol\":8035:8061   */\n    tag_362:\n      mload(0x40)\n      dup1\n      swap2\n      sub\n      swap1\n      log3\n        /* \"@thirdweb-dev/contracts/external-deps/openzeppelin/token/ERC20/ERC20.sol\":8072:8109   */\n      tag_348\n        /* \"@thirdweb-dev/contracts/base/ERC20Base.sol\":2882:3312   */\n      jump\n        /* \"@thirdweb-dev/contracts/external-deps/openzeppelin/token/ERC20/extensions/ERC20Permit.sol\":3296:3734   */\n    tag_180:\n        /* \"@thirdweb-dev/contracts/external-deps/openzeppelin/token/ERC20/extensions/ERC20Permit.sol\":3351:3358   */\n      0x00\n        /* \"@thirdweb-dev/contracts/external-deps/openzeppelin/token/ERC20/extensions/ERC20Permit.sol\":3448:3543   */\n      0x8b73c3c69bb8fe3d512ecc4cf759cc79239f7b179b0ffacaa9a75d522b39400f\n        /* \"@thirdweb-dev/contracts/external-deps/openzeppelin/token/ERC20/extensions/ERC20Permit.sol\":3581:3587   */\n      tag_366\n        /* \"@thirdweb-dev/contracts/external-deps/openzeppelin/token/ERC20/extensions/ERC20Permit.sol\":3581:3585   */\n      tag_37\n        /* \"@thirdweb-dev/contracts/external-deps/openzeppelin/token/ERC20/extensions/ERC20Permit.sol\":3581:3587   */\n      jump\t// in\n    tag_366:\n        /* \"@thirdweb-dev/contracts/external-deps/openzeppelin/token/ERC20/extensions/ERC20Permit.sol\":3565:3589   */\n      dup1\n      mload\n      0x20\n      swap2\n      dup3\n      add\n      keccak256\n        /* \"@thirdweb-dev/contracts/external-deps/openzeppelin/token/ERC20/extensions/ERC20Permit.sol\":3416:3713   */\n      0x40\n      dup1\n      mload\n      swap3\n      dup4\n      add\n        /* \"#utility.yul\":17878:17903   */\n      swap4\n      swap1\n      swap4\n      mstore\n        /* \"#utility.yul\":17919:17937   */\n      swap2\n      dup2\n      add\n        /* \"#utility.yul\":17912:17946   */\n      swap2\n      swap1\n      swap2\n      mstore\n        /* \"@thirdweb-dev/contracts/external-deps/openzeppelin/token/ERC20/extensions/ERC20Permit.sol\":3611:3625   */\n      0xc89efdaa54c0f20c7adf612882df0950f5a951637e0307cdcb4c672f298b8bc6\n        /* \"#utility.yul\":17962:17980   */\n      0x60\n      dup3\n      add\n        /* \"#utility.yul\":17955:17989   */\n      mstore\n        /* \"@thirdweb-dev/contracts/external-deps/openzeppelin/token/ERC20/extensions/ERC20Permit.sol\":3647:3660   */\n      chainid\n        /* \"#utility.yul\":18005:18023   */\n      0x80\n      dup3\n      add\n        /* \"#utility.yul\":17998:18032   */\n      mstore\n        /* \"@thirdweb-dev/contracts/external-deps/openzeppelin/token/ERC20/extensions/ERC20Permit.sol\":3690:3694   */\n      address\n        /* \"#utility.yul\":18048:18067   */\n      0xa0\n      dup3\n      add\n        /* \"#utility.yul\":18041:18125   */\n      mstore\n        /* \"#utility.yul\":17850:17869   */\n      0xc0\n      add\n        /* \"@thirdweb-dev/contracts/external-deps/openzeppelin/token/ERC20/extensions/ERC20Permit.sol\":3416:3713   */\n      mload(0x40)\n      0x20\n      dup2\n      dup4\n      sub\n      sub\n      dup2\n      mstore\n      swap1\n      0x40\n      mstore\n        /* \"@thirdweb-dev/contracts/external-deps/openzeppelin/token/ERC20/extensions/ERC20Permit.sol\":3389:3727   */\n      dup1\n      mload\n      swap1\n      0x20\n      add\n      keccak256\n        /* \"@thirdweb-dev/contracts/external-deps/openzeppelin/token/ERC20/extensions/ERC20Permit.sol\":3370:3727   */\n      swap1\n      pop\n        /* \"@thirdweb-dev/contracts/external-deps/openzeppelin/token/ERC20/extensions/ERC20Permit.sol\":3296:3734   */\n      swap1\n      jump\t// out\n        /* \"@thirdweb-dev/contracts/external-deps/openzeppelin/token/ERC20/ERC20.sol\":9101:9677   */\n    tag_192:\n      sub(shl(0xa0, 0x01), 0x01)\n        /* \"@thirdweb-dev/contracts/external-deps/openzeppelin/token/ERC20/ERC20.sol\":9184:9205   */\n      dup3\n      and\n        /* \"@thirdweb-dev/contracts/external-deps/openzeppelin/token/ERC20/ERC20.sol\":9176:9243   */\n      tag_370\n      jumpi\n      mload(0x40)\n      shl(0xe5, 0x461bcd)\n      dup2\n      mstore\n        /* \"#utility.yul\":18338:18340   */\n      0x20\n        /* \"@thirdweb-dev/contracts/external-deps/openzeppelin/token/ERC20/ERC20.sol\":9176:9243   */\n      0x04\n      dup3\n      add\n        /* \"#utility.yul\":18320:18341   */\n      mstore\n        /* \"#utility.yul\":18377:18379   */\n      0x21\n        /* \"#utility.yul\":18357:18375   */\n      0x24\n      dup3\n      add\n        /* \"#utility.yul\":18350:18380   */\n      mstore\n        /* \"#utility.yul\":18416:18450   */\n      0x45524332303a206275726e2066726f6d20746865207a65726f20616464726573\n        /* \"#utility.yul\":18396:18414   */\n      0x44\n      dup3\n      add\n        /* \"#utility.yul\":18389:18451   */\n      mstore\n      shl(0xf8, 0x73)\n        /* \"#utility.yul\":18467:18485   */\n      0x64\n      dup3\n      add\n        /* \"#utility.yul\":18460:18491   */\n      mstore\n        /* \"#utility.yul\":18508:18527   */\n      0x84\n      add\n        /* \"@thirdweb-dev/contracts/external-deps/openzeppelin/token/ERC20/ERC20.sol\":9176:9243   */\n      tag_189\n        /* \"#utility.yul\":18136:18533   */\n      jump\n        /* \"@thirdweb-dev/contracts/external-deps/openzeppelin/token/ERC20/ERC20.sol\":9176:9243   */\n    tag_370:\n      sub(shl(0xa0, 0x01), 0x01)\n        /* \"@thirdweb-dev/contracts/external-deps/openzeppelin/token/ERC20/ERC20.sol\":9339:9357   */\n      dup3\n      and\n        /* \"@thirdweb-dev/contracts/external-deps/openzeppelin/token/ERC20/ERC20.sol\":9314:9336   */\n      0x00\n        /* \"@thirdweb-dev/contracts/external-deps/openzeppelin/token/ERC20/ERC20.sol\":9339:9357   */\n      swap1\n      dup2\n      mstore\n        /* \"@thirdweb-dev/contracts/external-deps/openzeppelin/token/ERC20/ERC20.sol\":9339:9348   */\n      0x02\n        /* \"@thirdweb-dev/contracts/external-deps/openzeppelin/token/ERC20/ERC20.sol\":9339:9357   */\n      0x20\n      mstore\n      0x40\n      swap1\n      keccak256\n      sload\n        /* \"@thirdweb-dev/contracts/external-deps/openzeppelin/token/ERC20/ERC20.sol\":9375:9399   */\n      dup2\n      dup2\n      lt\n      iszero\n        /* \"@thirdweb-dev/contracts/external-deps/openzeppelin/token/ERC20/ERC20.sol\":9367:9438   */\n      tag_374\n      jumpi\n      mload(0x40)\n      shl(0xe5, 0x461bcd)\n      dup2\n      mstore\n        /* \"#utility.yul\":18740:18742   */\n      0x20\n        /* \"@thirdweb-dev/contracts/external-deps/openzeppelin/token/ERC20/ERC20.sol\":9367:9438   */\n      0x04\n      dup3\n      add\n        /* \"#utility.yul\":18722:18743   */\n      mstore\n        /* \"#utility.yul\":18779:18781   */\n      0x22\n        /* \"#utility.yul\":18759:18777   */\n      0x24\n      dup3\n      add\n        /* \"#utility.yul\":18752:18782   */\n      mstore\n        /* \"#utility.yul\":18818:18852   */\n      0x45524332303a206275726e20616d6f756e7420657863656564732062616c616e\n        /* \"#utility.yul\":18798:18816   */\n      0x44\n      dup3\n      add\n        /* \"#utility.yul\":18791:18853   */\n      mstore\n      shl(0xf0, 0x6365)\n        /* \"#utility.yul\":18869:18887   */\n      0x64\n      dup3\n      add\n        /* \"#utility.yul\":18862:18894   */\n      mstore\n        /* \"#utility.yul\":18911:18930   */\n      0x84\n      add\n        /* \"@thirdweb-dev/contracts/external-deps/openzeppelin/token/ERC20/ERC20.sol\":9367:9438   */\n      tag_189\n        /* \"#utility.yul\":18538:18936   */\n      jump\n        /* \"@thirdweb-dev/contracts/external-deps/openzeppelin/token/ERC20/ERC20.sol\":9367:9438   */\n    tag_374:\n      sub(shl(0xa0, 0x01), 0x01)\n        /* \"@thirdweb-dev/contracts/external-deps/openzeppelin/token/ERC20/ERC20.sol\":9472:9490   */\n      dup4\n      and\n      0x00\n      swap1\n      dup2\n      mstore\n        /* \"@thirdweb-dev/contracts/external-deps/openzeppelin/token/ERC20/ERC20.sol\":9472:9481   */\n      0x02\n        /* \"@thirdweb-dev/contracts/external-deps/openzeppelin/token/ERC20/ERC20.sol\":9472:9490   */\n      0x20\n      mstore\n      0x40\n      dup2\n      keccak256\n        /* \"@thirdweb-dev/contracts/external-deps/openzeppelin/token/ERC20/ERC20.sol\":9493:9516   */\n      dup4\n      dup4\n      sub\n        /* \"@thirdweb-dev/contracts/external-deps/openzeppelin/token/ERC20/ERC20.sol\":9472:9516   */\n      swap1\n      sstore\n        /* \"@thirdweb-dev/contracts/external-deps/openzeppelin/token/ERC20/ERC20.sol\":9536:9548   */\n      0x04\n        /* \"@thirdweb-dev/contracts/external-deps/openzeppelin/token/ERC20/ERC20.sol\":9536:9558   */\n      dup1\n      sload\n        /* \"@thirdweb-dev/contracts/external-deps/openzeppelin/token/ERC20/ERC20.sol\":9510:9516   */\n      dup5\n      swap3\n        /* \"@thirdweb-dev/contracts/external-deps/openzeppelin/token/ERC20/ERC20.sol\":9472:9490   */\n      swap1\n        /* \"@thirdweb-dev/contracts/external-deps/openzeppelin/token/ERC20/ERC20.sol\":9536:9558   */\n      tag_377\n      swap1\n        /* \"@thirdweb-dev/contracts/external-deps/openzeppelin/token/ERC20/ERC20.sol\":9510:9516   */\n      dup5\n      swap1\n        /* \"@thirdweb-dev/contracts/external-deps/openzeppelin/token/ERC20/ERC20.sol\":9536:9558   */\n      tag_235\n      jump\t// in\n    tag_377:\n      swap1\n      swap2\n      sstore\n      pop\n      pop\n        /* \"@thirdweb-dev/contracts/external-deps/openzeppelin/token/ERC20/ERC20.sol\":9574:9611   */\n      mload(0x40)\n        /* \"#utility.yul\":2692:2717   */\n      dup3\n      dup2\n      mstore\n        /* \"@thirdweb-dev/contracts/external-deps/openzeppelin/token/ERC20/ERC20.sol\":9600:9601   */\n      0x00\n      swap1\n      sub(shl(0xa0, 0x01), 0x01)\n        /* \"@thirdweb-dev/contracts/external-deps/openzeppelin/token/ERC20/ERC20.sol\":9574:9611   */\n      dup6\n      and\n      swap1\n      0xddf252ad1be2c89b69c2b068fc378daa952ba7f163c4a11628f55a4df523b3ef\n      swap1\n        /* \"#utility.yul\":2680:2682   */\n      0x20\n        /* \"#utility.yul\":2665:2683   */\n      add\n        /* \"@thirdweb-dev/contracts/external-deps/openzeppelin/token/ERC20/ERC20.sol\":9574:9611   */\n      mload(0x40)\n      dup1\n      swap2\n      sub\n      swap1\n      log3\n        /* \"@thirdweb-dev/contracts/base/ERC20Base.sol\":2961:3312   */\n      pop\n        /* \"@thirdweb-dev/contracts/base/ERC20Base.sol\":2882:3312   */\n      pop\n      pop\n      jump\t// out\n        /* \"@thirdweb-dev/contracts/external-deps/openzeppelin/token/ERC20/ERC20.sol\":8392:8781   */\n    tag_203:\n      sub(shl(0xa0, 0x01), 0x01)\n        /* \"@thirdweb-dev/contracts/external-deps/openzeppelin/token/ERC20/ERC20.sol\":8475:8496   */\n      dup3\n      and\n        /* \"@thirdweb-dev/contracts/external-deps/openzeppelin/token/ERC20/ERC20.sol\":8467:8532   */\n      tag_383\n      jumpi\n      mload(0x40)\n      shl(0xe5, 0x461bcd)\n      dup2\n      mstore\n        /* \"#utility.yul\":19143:19145   */\n      0x20\n        /* \"@thirdweb-dev/contracts/external-deps/openzeppelin/token/ERC20/ERC20.sol\":8467:8532   */\n      0x04\n      dup3\n      add\n        /* \"#utility.yul\":19125:19146   */\n      mstore\n        /* \"#utility.yul\":19182:19184   */\n      0x1f\n        /* \"#utility.yul\":19162:19180   */\n      0x24\n      dup3\n      add\n        /* \"#utility.yul\":19155:19185   */\n      mstore\n        /* \"#utility.yul\":19221:19254   */\n      0x45524332303a206d696e7420746f20746865207a65726f206164647265737300\n        /* \"#utility.yul\":19201:19219   */\n      0x44\n      dup3\n      add\n        /* \"#utility.yul\":19194:19255   */\n      mstore\n        /* \"#utility.yul\":19272:19290   */\n      0x64\n      add\n        /* \"@thirdweb-dev/contracts/external-deps/openzeppelin/token/ERC20/ERC20.sol\":8467:8532   */\n      tag_189\n        /* \"#utility.yul\":18941:19296   */\n      jump\n        /* \"@thirdweb-dev/contracts/external-deps/openzeppelin/token/ERC20/ERC20.sol\":8467:8532   */\n    tag_383:\n        /* \"@thirdweb-dev/contracts/external-deps/openzeppelin/token/ERC20/ERC20.sol\":8619:8625   */\n      dup1\n        /* \"@thirdweb-dev/contracts/external-deps/openzeppelin/token/ERC20/ERC20.sol\":8603:8615   */\n      0x04\n      0x00\n        /* \"@thirdweb-dev/contracts/external-deps/openzeppelin/token/ERC20/ERC20.sol\":8603:8625   */\n      dup3\n      dup3\n      sload\n      tag_387\n      swap2\n      swap1\n      tag_185\n      jump\t// in\n    tag_387:\n      swap1\n      swap2\n      sstore\n      pop\n      pop\n      sub(shl(0xa0, 0x01), 0x01)\n        /* \"@thirdweb-dev/contracts/external-deps/openzeppelin/token/ERC20/ERC20.sol\":8635:8653   */\n      dup3\n      and\n      0x00\n      swap1\n      dup2\n      mstore\n        /* \"@thirdweb-dev/contracts/external-deps/openzeppelin/token/ERC20/ERC20.sol\":8635:8644   */\n      0x02\n        /* \"@thirdweb-dev/contracts/external-deps/openzeppelin/token/ERC20/ERC20.sol\":8635:8653   */\n      0x20\n      mstore\n      0x40\n      dup2\n      keccak256\n        /* \"@thirdweb-dev/contracts/external-deps/openzeppelin/token/ERC20/ERC20.sol\":8635:8663   */\n      dup1\n      sload\n        /* \"@thirdweb-dev/contracts/external-deps/openzeppelin/token/ERC20/ERC20.sol\":8657:8663   */\n      dup4\n      swap3\n        /* \"@thirdweb-dev/contracts/external-deps/openzeppelin/token/ERC20/ERC20.sol\":8635:8653   */\n      swap1\n        /* \"@thirdweb-dev/contracts/external-deps/openzeppelin/token/ERC20/ERC20.sol\":8635:8663   */\n      tag_388\n      swap1\n        /* \"@thirdweb-dev/contracts/external-deps/openzeppelin/token/ERC20/ERC20.sol\":8657:8663   */\n      dup5\n      swap1\n        /* \"@thirdweb-dev/contracts/external-deps/openzeppelin/token/ERC20/ERC20.sol\":8635:8663   */\n      tag_185\n      jump\t// in\n    tag_388:\n      swap1\n      swap2\n      sstore\n      pop\n      pop\n        /* \"@thirdweb-dev/contracts/external-deps/openzeppelin/token/ERC20/ERC20.sol\":8678:8715   */\n      mload(0x40)\n        /* \"#utility.yul\":2692:2717   */\n      dup2\n      dup2\n      mstore\n      sub(shl(0xa0, 0x01), 0x01)\n        /* \"@thirdweb-dev/contracts/external-deps/openzeppelin/token/ERC20/ERC20.sol\":8678:8715   */\n      dup4\n      and\n      swap1\n        /* \"@thirdweb-dev/contracts/external-deps/openzeppelin/token/ERC20/ERC20.sol\":8695:8696   */\n      0x00\n      swap1\n        /* \"@thirdweb-dev/contracts/external-deps/openzeppelin/token/ERC20/ERC20.sol\":8678:8715   */\n      0xddf252ad1be2c89b69c2b068fc378daa952ba7f163c4a11628f55a4df523b3ef\n      swap1\n        /* \"#utility.yul\":2680:2682   */\n      0x20\n        /* \"#utility.yul\":2665:2683   */\n      add\n        /* \"@thirdweb-dev/contracts/external-deps/openzeppelin/token/ERC20/ERC20.sol\":8678:8715   */\n      mload(0x40)\n      dup1\n      swap2\n      sub\n      swap1\n      log3\n        /* \"@thirdweb-dev/contracts/base/ERC20Base.sol\":1989:2198   */\n      pop\n      pop\n      jump\t// out\n        /* \"@thirdweb-dev/contracts/extension/ContractMetadata.sol\":1393:1578   */\n    tag_248:\n        /* \"@thirdweb-dev/contracts/extension/ContractMetadata.sol\":1459:1480   */\n      0x00\n        /* \"@thirdweb-dev/contracts/extension/ContractMetadata.sol\":1483:1494   */\n      dup1\n        /* \"@thirdweb-dev/contracts/extension/ContractMetadata.sol\":1459:1494   */\n      dup1\n      sload\n      tag_397\n      swap1\n      tag_147\n      jump\t// in\n    tag_397:\n      dup1\n      0x1f\n      add\n      0x20\n      dup1\n      swap2\n      div\n      mul\n      0x20\n      add\n      mload(0x40)\n      swap1\n      dup2\n      add\n      0x40\n      mstore\n      dup1\n      swap3\n      swap2\n      swap1\n      dup2\n      dup2\n      mstore\n      0x20\n      add\n      dup3\n      dup1\n      sload\n      tag_398\n      swap1\n      tag_147\n      jump\t// in\n    tag_398:\n      dup1\n      iszero\n      tag_399\n      jumpi\n      dup1\n      0x1f\n      lt\n      tag_400\n      jumpi\n      0x0100\n      dup1\n      dup4\n      sload\n      div\n      mul\n      dup4\n      mstore\n      swap2\n      0x20\n      add\n      swap2\n      jump(tag_399)\n    tag_400:\n      dup3\n      add\n      swap2\n      swap1\n      0x00\n      mstore\n      keccak256(0x00, 0x20)\n      swap1\n    tag_401:\n      dup2\n      sload\n      dup2\n      mstore\n      swap1\n      0x01\n      add\n      swap1\n      0x20\n      add\n      dup1\n      dup4\n      gt\n      tag_401\n      jumpi\n      dup3\n      swap1\n      sub\n      0x1f\n      and\n      dup3\n      add\n      swap2\n    tag_399:\n      pop\n      pop\n      pop\n      pop\n      pop\n      swap1\n      pop\n        /* \"@thirdweb-dev/contracts/extension/ContractMetadata.sol\":1518:1522   */\n      dup2\n        /* \"@thirdweb-dev/contracts/extension/ContractMetadata.sol\":1504:1515   */\n      0x00\n        /* \"@thirdweb-dev/contracts/extension/ContractMetadata.sol\":1504:1522   */\n      swap1\n      dup2\n      tag_402\n      swap2\n      swap1\n      tag_403\n      jump\t// in\n    tag_402:\n      pop\n        /* \"@thirdweb-dev/contracts/extension/ContractMetadata.sol\":1538:1571   */\n      0xc9c7c3fe08b88b4df9d4d47ef47d2c43d55c025a0ba88ca442580ed9e7348a16\n        /* \"@thirdweb-dev/contracts/extension/ContractMetadata.sol\":1557:1564   */\n      dup2\n        /* \"@thirdweb-dev/contracts/extension/ContractMetadata.sol\":1566:1570   */\n      dup4\n        /* \"@thirdweb-dev/contracts/extension/ContractMetadata.sol\":1538:1571   */\n      mload(0x40)\n      tag_404\n      swap3\n      swap2\n      swap1\n      tag_405\n      jump\t// in\n    tag_404:\n      mload(0x40)\n      dup1\n      swap2\n      sub\n      swap1\n      log1\n        /* \"@thirdweb-dev/contracts/extension/ContractMetadata.sol\":1449:1578   */\n      pop\n        /* \"@thirdweb-dev/contracts/extension/ContractMetadata.sol\":1393:1578   */\n      pop\n      jump\t// out\n        /* \"@thirdweb-dev/contracts/lib/Address.sol\":6671:6869   */\n    tag_283:\n        /* \"@thirdweb-dev/contracts/lib/Address.sol\":6754:6766   */\n      0x60\n        /* \"@thirdweb-dev/contracts/lib/Address.sol\":6785:6862   */\n      tag_407\n        /* \"@thirdweb-dev/contracts/lib/Address.sol\":6806:6812   */\n      dup4\n        /* \"@thirdweb-dev/contracts/lib/Address.sol\":6814:6818   */\n      dup4\n        /* \"@thirdweb-dev/contracts/lib/Address.sol\":6785:6862   */\n      mload(0x40)\n      dup1\n      0x60\n      add\n      0x40\n      mstore\n      dup1\n      0x27\n      dup2\n      mstore\n      0x20\n      add\n      data_9fdcd12e4b726339b32a442b0a448365d5d85c96b2d2cff917b4f66c63110398\n      0x27\n      swap2\n      codecopy\n        /* \"@thirdweb-dev/contracts/lib/Address.sol\":6785:6805   */\n      tag_408\n        /* \"@thirdweb-dev/contracts/lib/Address.sol\":6785:6862   */\n      jump\t// in\n    tag_407:\n        /* \"@thirdweb-dev/contracts/lib/Address.sol\":6778:6862   */\n      swap4\n        /* \"@thirdweb-dev/contracts/lib/Address.sol\":6671:6869   */\n      swap3\n      pop\n      pop\n      pop\n      jump\t// out\n        /* \"@thirdweb-dev/contracts/external-deps/openzeppelin/token/ERC20/extensions/ERC20Permit.sol\":3865:4068   */\n    tag_298:\n      sub(shl(0xa0, 0x01), 0x01)\n        /* \"@thirdweb-dev/contracts/external-deps/openzeppelin/token/ERC20/extensions/ERC20Permit.sol\":3985:3999   */\n      dup2\n      and\n        /* \"@thirdweb-dev/contracts/external-deps/openzeppelin/token/ERC20/extensions/ERC20Permit.sol\":3925:3940   */\n      0x00\n        /* \"@thirdweb-dev/contracts/external-deps/openzeppelin/token/ERC20/extensions/ERC20Permit.sol\":3985:3999   */\n      swap1\n      dup2\n      mstore\n        /* \"@thirdweb-dev/contracts/external-deps/openzeppelin/token/ERC20/extensions/ERC20Permit.sol\":3985:3992   */\n      0x07\n        /* \"@thirdweb-dev/contracts/external-deps/openzeppelin/token/ERC20/extensions/ERC20Permit.sol\":3985:3999   */\n      0x20\n      mstore\n      0x40\n      swap1\n      keccak256\n        /* \"@thirdweb-dev/contracts/external-deps/openzeppelin/utils/Counters.sol\":918:932   */\n      dup1\n      sload\n        /* \"@thirdweb-dev/contracts/external-deps/openzeppelin/utils/Counters.sol\":1050:1051   */\n      0x01\n        /* \"@thirdweb-dev/contracts/external-deps/openzeppelin/utils/Counters.sol\":1032:1051   */\n      dup2\n      add\n      dup3\n      sstore\n        /* \"@thirdweb-dev/contracts/external-deps/openzeppelin/utils/Counters.sol\":918:932   */\n      swap1\n        /* \"@thirdweb-dev/contracts/external-deps/openzeppelin/token/ERC20/extensions/ERC20Permit.sol\":4044:4061   */\n    tag_411:\n        /* \"@thirdweb-dev/contracts/external-deps/openzeppelin/token/ERC20/extensions/ERC20Permit.sol\":3942:4068   */\n      pop\n        /* \"@thirdweb-dev/contracts/external-deps/openzeppelin/token/ERC20/extensions/ERC20Permit.sol\":3865:4068   */\n      swap2\n      swap1\n      pop\n      jump\t// out\n        /* \"@thirdweb-dev/contracts/external-deps/openzeppelin/utils/cryptography/ECDSA.sol\":6611:6843   */\n    tag_305:\n        /* \"@thirdweb-dev/contracts/external-deps/openzeppelin/utils/cryptography/ECDSA.sol\":6696:6703   */\n      0x00\n        /* \"@thirdweb-dev/contracts/external-deps/openzeppelin/utils/cryptography/ECDSA.sol\":6716:6733   */\n      dup1\n        /* \"@thirdweb-dev/contracts/external-deps/openzeppelin/utils/cryptography/ECDSA.sol\":6735:6753   */\n      0x00\n        /* \"@thirdweb-dev/contracts/external-deps/openzeppelin/utils/cryptography/ECDSA.sol\":6757:6782   */\n      tag_415\n        /* \"@thirdweb-dev/contracts/external-deps/openzeppelin/utils/cryptography/ECDSA.sol\":6768:6772   */\n      dup8\n        /* \"@thirdweb-dev/contracts/external-deps/openzeppelin/utils/cryptography/ECDSA.sol\":6774:6775   */\n      dup8\n        /* \"@thirdweb-dev/contracts/external-deps/openzeppelin/utils/cryptography/ECDSA.sol\":6777:6778   */\n      dup8\n        /* \"@thirdweb-dev/contracts/external-deps/openzeppelin/utils/cryptography/ECDSA.sol\":6780:6781   */\n      dup8\n        /* \"@thirdweb-dev/contracts/external-deps/openzeppelin/utils/cryptography/ECDSA.sol\":6757:6767   */\n      tag_416\n        /* \"@thirdweb-dev/contracts/external-deps/openzeppelin/utils/cryptography/ECDSA.sol\":6757:6782   */\n      jump\t// in\n    tag_415:\n        /* \"@thirdweb-dev/contracts/external-deps/openzeppelin/utils/cryptography/ECDSA.sol\":6715:6782   */\n      swap2\n      pop\n      swap2\n      pop\n        /* \"@thirdweb-dev/contracts/external-deps/openzeppelin/utils/cryptography/ECDSA.sol\":6792:6810   */\n      tag_417\n        /* \"@thirdweb-dev/contracts/external-deps/openzeppelin/utils/cryptography/ECDSA.sol\":6804:6809   */\n      dup2\n        /* \"@thirdweb-dev/contracts/external-deps/openzeppelin/utils/cryptography/ECDSA.sol\":6792:6803   */\n      tag_418\n        /* \"@thirdweb-dev/contracts/external-deps/openzeppelin/utils/cryptography/ECDSA.sol\":6792:6810   */\n      jump\t// in\n    tag_417:\n      pop\n        /* \"@thirdweb-dev/contracts/external-deps/openzeppelin/utils/cryptography/ECDSA.sol\":6827:6836   */\n      swap1\n      pop\n        /* \"@thirdweb-dev/contracts/external-deps/openzeppelin/utils/cryptography/ECDSA.sol\":6611:6843   */\n    tag_414:\n      swap5\n      swap4\n      pop\n      pop\n      pop\n      pop\n      jump\t// out\n        /* \"@thirdweb-dev/contracts/lib/Address.sol\":7055:7380   */\n    tag_408:\n        /* \"@thirdweb-dev/contracts/lib/Address.sol\":7196:7208   */\n      0x60\n        /* \"@thirdweb-dev/contracts/lib/Address.sol\":7221:7233   */\n      0x00\n        /* \"@thirdweb-dev/contracts/lib/Address.sol\":7235:7258   */\n      dup1\n        /* \"@thirdweb-dev/contracts/lib/Address.sol\":7262:7268   */\n      dup6\n      sub(shl(0xa0, 0x01), 0x01)\n        /* \"@thirdweb-dev/contracts/lib/Address.sol\":7262:7281   */\n      and\n        /* \"@thirdweb-dev/contracts/lib/Address.sol\":7282:7286   */\n      dup6\n        /* \"@thirdweb-dev/contracts/lib/Address.sol\":7262:7287   */\n      mload(0x40)\n      tag_422\n      swap2\n      swap1\n      tag_423\n      jump\t// in\n    tag_422:\n      0x00\n      mload(0x40)\n      dup1\n      dup4\n      sub\n      dup2\n      dup6\n      gas\n      delegatecall\n      swap2\n      pop\n      pop\n      returndatasize\n      dup1\n      0x00\n      dup2\n      eq\n      tag_426\n      jumpi\n      mload(0x40)\n      swap2\n      pop\n      and(add(returndatasize, 0x3f), not(0x1f))\n      dup3\n      add\n      0x40\n      mstore\n      returndatasize\n      dup3\n      mstore\n      returndatasize\n      0x00\n      0x20\n      dup5\n      add\n      returndatacopy\n      jump(tag_425)\n    tag_426:\n      0x60\n      swap2\n      pop\n    tag_425:\n      pop\n        /* \"@thirdweb-dev/contracts/lib/Address.sol\":7220:7287   */\n      swap2\n      pop\n      swap2\n      pop\n        /* \"@thirdweb-dev/contracts/lib/Address.sol\":7304:7373   */\n      tag_427\n        /* \"@thirdweb-dev/contracts/lib/Address.sol\":7331:7337   */\n      dup7\n        /* \"@thirdweb-dev/contracts/lib/Address.sol\":7339:7346   */\n      dup4\n        /* \"@thirdweb-dev/contracts/lib/Address.sol\":7348:7358   */\n      dup4\n        /* \"@thirdweb-dev/contracts/lib/Address.sol\":7360:7372   */\n      dup8\n        /* \"@thirdweb-dev/contracts/lib/Address.sol\":7304:7330   */\n      tag_428\n        /* \"@thirdweb-dev/contracts/lib/Address.sol\":7304:7373   */\n      jump\t// in\n    tag_427:\n        /* \"@thirdweb-dev/contracts/lib/Address.sol\":7297:7373   */\n      swap7\n        /* \"@thirdweb-dev/contracts/lib/Address.sol\":7055:7380   */\n      swap6\n      pop\n      pop\n      pop\n      pop\n      pop\n      pop\n      jump\t// out\n        /* \"@thirdweb-dev/contracts/external-deps/openzeppelin/utils/cryptography/ECDSA.sol\":5022:6478   */\n    tag_416:\n        /* \"@thirdweb-dev/contracts/external-deps/openzeppelin/utils/cryptography/ECDSA.sol\":5110:5117   */\n      0x00\n      dup1\n        /* \"@thirdweb-dev/contracts/external-deps/openzeppelin/utils/cryptography/ECDSA.sol\":6034:6100   */\n      0x7fffffffffffffffffffffffffffffff5d576e7357a4501ddfe92f46681b20a0\n        /* \"@thirdweb-dev/contracts/external-deps/openzeppelin/utils/cryptography/ECDSA.sol\":6021:6100   */\n      dup4\n      gt\n        /* \"@thirdweb-dev/contracts/external-deps/openzeppelin/utils/cryptography/ECDSA.sol\":6017:6178   */\n      iszero\n      tag_431\n      jumpi\n      pop\n        /* \"@thirdweb-dev/contracts/external-deps/openzeppelin/utils/cryptography/ECDSA.sol\":6132:6133   */\n      0x00\n      swap1\n      pop\n        /* \"@thirdweb-dev/contracts/external-deps/openzeppelin/utils/cryptography/ECDSA.sol\":6136:6166   */\n      0x03\n        /* \"@thirdweb-dev/contracts/external-deps/openzeppelin/utils/cryptography/ECDSA.sol\":6116:6167   */\n      jump(tag_430)\n        /* \"@thirdweb-dev/contracts/external-deps/openzeppelin/utils/cryptography/ECDSA.sol\":6017:6178   */\n    tag_431:\n        /* \"@thirdweb-dev/contracts/external-deps/openzeppelin/utils/cryptography/ECDSA.sol\":6289:6313   */\n      0x40\n      dup1\n      mload\n        /* \"@thirdweb-dev/contracts/external-deps/openzeppelin/utils/cryptography/ECDSA.sol\":6272:6286   */\n      0x00\n        /* \"@thirdweb-dev/contracts/external-deps/openzeppelin/utils/cryptography/ECDSA.sol\":6289:6313   */\n      dup1\n      dup3\n      mstore\n      0x20\n      dup3\n      add\n      dup1\n      dup5\n      mstore\n        /* \"#utility.yul\":22392:22417   */\n      dup10\n      swap1\n      mstore\n        /* \"#utility.yul\":22465:22469   */\n      0xff\n        /* \"#utility.yul\":22453:22470   */\n      dup9\n      and\n        /* \"#utility.yul\":22433:22451   */\n      swap3\n      dup3\n      add\n        /* \"#utility.yul\":22426:22471   */\n      swap3\n      swap1\n      swap3\n      mstore\n        /* \"#utility.yul\":22487:22505   */\n      0x60\n      dup2\n      add\n        /* \"#utility.yul\":22480:22514   */\n      dup7\n      swap1\n      mstore\n        /* \"#utility.yul\":22530:22548   */\n      0x80\n      dup2\n      add\n        /* \"#utility.yul\":22523:22557   */\n      dup6\n      swap1\n      mstore\n        /* \"@thirdweb-dev/contracts/external-deps/openzeppelin/utils/cryptography/ECDSA.sol\":6289:6313   */\n      0x01\n      swap1\n        /* \"#utility.yul\":22364:22383   */\n      0xa0\n      add\n        /* \"@thirdweb-dev/contracts/external-deps/openzeppelin/utils/cryptography/ECDSA.sol\":6289:6313   */\n      0x20\n      mload(0x40)\n      0x20\n      dup2\n      sub\n      swap1\n      dup1\n      dup5\n      sub\n      swap1\n      dup6\n      gas\n      staticcall\n      iszero\n      dup1\n      iszero\n      tag_435\n      jumpi\n      returndatasize\n      0x00\n      dup1\n      returndatacopy\n      revert(0x00, returndatasize)\n    tag_435:\n      pop\n      pop\n      mload(add(not(0x1f), mload(0x40)))\n      swap2\n      pop\n      pop\n      sub(shl(0xa0, 0x01), 0x01)\n        /* \"@thirdweb-dev/contracts/external-deps/openzeppelin/utils/cryptography/ECDSA.sol\":6327:6347   */\n      dup2\n      and\n        /* \"@thirdweb-dev/contracts/external-deps/openzeppelin/utils/cryptography/ECDSA.sol\":6323:6424   */\n      tag_436\n      jumpi\n        /* \"@thirdweb-dev/contracts/external-deps/openzeppelin/utils/cryptography/ECDSA.sol\":6379:6380   */\n      0x00\n        /* \"@thirdweb-dev/contracts/external-deps/openzeppelin/utils/cryptography/ECDSA.sol\":6383:6412   */\n      0x01\n        /* \"@thirdweb-dev/contracts/external-deps/openzeppelin/utils/cryptography/ECDSA.sol\":6363:6413   */\n      swap3\n      pop\n      swap3\n      pop\n      pop\n      jump(tag_430)\n        /* \"@thirdweb-dev/contracts/external-deps/openzeppelin/utils/cryptography/ECDSA.sol\":6323:6424   */\n    tag_436:\n        /* \"@thirdweb-dev/contracts/external-deps/openzeppelin/utils/cryptography/ECDSA.sol\":6442:6448   */\n      swap2\n      pop\n        /* \"@thirdweb-dev/contracts/external-deps/openzeppelin/utils/cryptography/ECDSA.sol\":6450:6470   */\n      0x00\n      swap1\n      pop\n        /* \"@thirdweb-dev/contracts/external-deps/openzeppelin/utils/cryptography/ECDSA.sol\":5022:6478   */\n    tag_430:\n      swap5\n      pop\n      swap5\n      swap3\n      pop\n      pop\n      pop\n      jump\t// out\n        /* \"@thirdweb-dev/contracts/external-deps/openzeppelin/utils/cryptography/ECDSA.sol\":583:1094   */\n    tag_418:\n        /* \"@thirdweb-dev/contracts/external-deps/openzeppelin/utils/cryptography/ECDSA.sol\":660:680   */\n      0x00\n        /* \"@thirdweb-dev/contracts/external-deps/openzeppelin/utils/cryptography/ECDSA.sol\":651:656   */\n      dup2\n        /* \"@thirdweb-dev/contracts/external-deps/openzeppelin/utils/cryptography/ECDSA.sol\":651:680   */\n      0x04\n      dup2\n      gt\n      iszero\n      tag_442\n      jumpi\n      tag_442\n      tag_440\n      jump\t// in\n    tag_442:\n      sub\n        /* \"@thirdweb-dev/contracts/external-deps/openzeppelin/utils/cryptography/ECDSA.sol\":647:1088   */\n      tag_443\n      jumpi\n        /* \"@thirdweb-dev/contracts/external-deps/openzeppelin/utils/cryptography/ECDSA.sol\":583:1094   */\n      pop\n      jump\t// out\n        /* \"@thirdweb-dev/contracts/external-deps/openzeppelin/utils/cryptography/ECDSA.sol\":647:1088   */\n    tag_443:\n        /* \"@thirdweb-dev/contracts/external-deps/openzeppelin/utils/cryptography/ECDSA.sol\":756:785   */\n      0x01\n        /* \"@thirdweb-dev/contracts/external-deps/openzeppelin/utils/cryptography/ECDSA.sol\":747:752   */\n      dup2\n        /* \"@thirdweb-dev/contracts/external-deps/openzeppelin/utils/cryptography/ECDSA.sol\":747:785   */\n      0x04\n      dup2\n      gt\n      iszero\n      tag_448\n      jumpi\n      tag_448\n      tag_440\n      jump\t// in\n    tag_448:\n      sub\n        /* \"@thirdweb-dev/contracts/external-deps/openzeppelin/utils/cryptography/ECDSA.sol\":743:1088   */\n      tag_449\n      jumpi\n        /* \"@thirdweb-dev/contracts/external-deps/openzeppelin/utils/cryptography/ECDSA.sol\":801:835   */\n      mload(0x40)\n      shl(0xe5, 0x461bcd)\n      dup2\n      mstore\n        /* \"#utility.yul\":22902:22904   */\n      0x20\n        /* \"@thirdweb-dev/contracts/external-deps/openzeppelin/utils/cryptography/ECDSA.sol\":801:835   */\n      0x04\n      dup3\n      add\n        /* \"#utility.yul\":22884:22905   */\n      mstore\n        /* \"#utility.yul\":22941:22943   */\n      0x18\n        /* \"#utility.yul\":22921:22939   */\n      0x24\n      dup3\n      add\n        /* \"#utility.yul\":22914:22944   */\n      mstore\n        /* \"#utility.yul\":22980:23006   */\n      0x45434453413a20696e76616c6964207369676e61747572650000000000000000\n        /* \"#utility.yul\":22960:22978   */\n      0x44\n      dup3\n      add\n        /* \"#utility.yul\":22953:23007   */\n      mstore\n        /* \"#utility.yul\":23024:23042   */\n      0x64\n      add\n        /* \"@thirdweb-dev/contracts/external-deps/openzeppelin/utils/cryptography/ECDSA.sol\":801:835   */\n      tag_189\n        /* \"#utility.yul\":22700:23048   */\n      jump\n        /* \"@thirdweb-dev/contracts/external-deps/openzeppelin/utils/cryptography/ECDSA.sol\":743:1088   */\n    tag_449:\n        /* \"@thirdweb-dev/contracts/external-deps/openzeppelin/utils/cryptography/ECDSA.sol\":865:900   */\n      0x02\n        /* \"@thirdweb-dev/contracts/external-deps/openzeppelin/utils/cryptography/ECDSA.sol\":856:861   */\n      dup2\n        /* \"@thirdweb-dev/contracts/external-deps/openzeppelin/utils/cryptography/ECDSA.sol\":856:900   */\n      0x04\n      dup2\n      gt\n      iszero\n      tag_456\n      jumpi\n      tag_456\n      tag_440\n      jump\t// in\n    tag_456:\n      sub\n        /* \"@thirdweb-dev/contracts/external-deps/openzeppelin/utils/cryptography/ECDSA.sol\":852:1088   */\n      tag_457\n      jumpi\n        /* \"@thirdweb-dev/contracts/external-deps/openzeppelin/utils/cryptography/ECDSA.sol\":916:957   */\n      mload(0x40)\n      shl(0xe5, 0x461bcd)\n      dup2\n      mstore\n        /* \"#utility.yul\":23255:23257   */\n      0x20\n        /* \"@thirdweb-dev/contracts/external-deps/openzeppelin/utils/cryptography/ECDSA.sol\":916:957   */\n      0x04\n      dup3\n      add\n        /* \"#utility.yul\":23237:23258   */\n      mstore\n        /* \"#utility.yul\":23294:23296   */\n      0x1f\n        /* \"#utility.yul\":23274:23292   */\n      0x24\n      dup3\n      add\n        /* \"#utility.yul\":23267:23297   */\n      mstore\n        /* \"#utility.yul\":23333:23366   */\n      0x45434453413a20696e76616c6964207369676e6174757265206c656e67746800\n        /* \"#utility.yul\":23313:23331   */\n      0x44\n      dup3\n      add\n        /* \"#utility.yul\":23306:23367   */\n      mstore\n        /* \"#utility.yul\":23384:23402   */\n      0x64\n      add\n        /* \"@thirdweb-dev/contracts/external-deps/openzeppelin/utils/cryptography/ECDSA.sol\":916:957   */\n      tag_189\n        /* \"#utility.yul\":23053:23408   */\n      jump\n        /* \"@thirdweb-dev/contracts/external-deps/openzeppelin/utils/cryptography/ECDSA.sol\":852:1088   */\n    tag_457:\n        /* \"@thirdweb-dev/contracts/external-deps/openzeppelin/utils/cryptography/ECDSA.sol\":987:1017   */\n      0x03\n        /* \"@thirdweb-dev/contracts/external-deps/openzeppelin/utils/cryptography/ECDSA.sol\":978:983   */\n      dup2\n        /* \"@thirdweb-dev/contracts/external-deps/openzeppelin/utils/cryptography/ECDSA.sol\":978:1017   */\n      0x04\n      dup2\n      gt\n      iszero\n      tag_464\n      jumpi\n      tag_464\n      tag_440\n      jump\t// in\n    tag_464:\n      sub\n        /* \"@thirdweb-dev/contracts/external-deps/openzeppelin/utils/cryptography/ECDSA.sol\":974:1088   */\n      tag_165\n      jumpi\n        /* \"@thirdweb-dev/contracts/external-deps/openzeppelin/utils/cryptography/ECDSA.sol\":1033:1077   */\n      mload(0x40)\n      shl(0xe5, 0x461bcd)\n      dup2\n      mstore\n        /* \"#utility.yul\":23615:23617   */\n      0x20\n        /* \"@thirdweb-dev/contracts/external-deps/openzeppelin/utils/cryptography/ECDSA.sol\":1033:1077   */\n      0x04\n      dup3\n      add\n        /* \"#utility.yul\":23597:23618   */\n      mstore\n        /* \"#utility.yul\":23654:23656   */\n      0x22\n        /* \"#utility.yul\":23634:23652   */\n      0x24\n      dup3\n      add\n        /* \"#utility.yul\":23627:23657   */\n      mstore\n        /* \"#utility.yul\":23693:23727   */\n      0x45434453413a20696e76616c6964207369676e6174757265202773272076616c\n        /* \"#utility.yul\":23673:23691   */\n      0x44\n      dup3\n      add\n        /* \"#utility.yul\":23666:23728   */\n      mstore\n      shl(0xf0, 0x7565)\n        /* \"#utility.yul\":23744:23762   */\n      0x64\n      dup3\n      add\n        /* \"#utility.yul\":23737:23769   */\n      mstore\n        /* \"#utility.yul\":23786:23805   */\n      0x84\n      add\n        /* \"@thirdweb-dev/contracts/external-deps/openzeppelin/utils/cryptography/ECDSA.sol\":1033:1077   */\n      tag_189\n        /* \"#utility.yul\":23413:23811   */\n      jump\n        /* \"@thirdweb-dev/contracts/lib/Address.sol\":7668:8296   */\n    tag_428:\n        /* \"@thirdweb-dev/contracts/lib/Address.sol\":7848:7860   */\n      0x60\n        /* \"@thirdweb-dev/contracts/lib/Address.sol\":7876:7883   */\n      dup4\n        /* \"@thirdweb-dev/contracts/lib/Address.sol\":7872:8290   */\n      iszero\n      tag_469\n      jumpi\n        /* \"@thirdweb-dev/contracts/lib/Address.sol\":7903:7913   */\n      dup3\n        /* \"@thirdweb-dev/contracts/lib/Address.sol\":7903:7920   */\n      mload\n        /* \"@thirdweb-dev/contracts/lib/Address.sol\":7924:7925   */\n      0x00\n        /* \"@thirdweb-dev/contracts/lib/Address.sol\":7903:7925   */\n      sub\n        /* \"@thirdweb-dev/contracts/lib/Address.sol\":7899:8185   */\n      tag_473\n      jumpi\n      sub(shl(0xa0, 0x01), 0x01)\n        /* \"@thirdweb-dev/contracts/lib/Address.sol\":1695:1714   */\n      dup6\n      and\n      extcodesize\n        /* \"@thirdweb-dev/contracts/lib/Address.sol\":8110:8170   */\n      tag_473\n      jumpi\n      mload(0x40)\n      shl(0xe5, 0x461bcd)\n      dup2\n      mstore\n        /* \"#utility.yul\":24018:24020   */\n      0x20\n        /* \"@thirdweb-dev/contracts/lib/Address.sol\":8110:8170   */\n      0x04\n      dup3\n      add\n        /* \"#utility.yul\":24000:24021   */\n      mstore\n        /* \"#utility.yul\":24057:24059   */\n      0x1d\n        /* \"#utility.yul\":24037:24055   */\n      0x24\n      dup3\n      add\n        /* \"#utility.yul\":24030:24060   */\n      mstore\n        /* \"#utility.yul\":24096:24127   */\n      0x416464726573733a2063616c6c20746f206e6f6e2d636f6e7472616374000000\n        /* \"#utility.yul\":24076:24094   */\n      0x44\n      dup3\n      add\n        /* \"#utility.yul\":24069:24128   */\n      mstore\n        /* \"#utility.yul\":24145:24163   */\n      0x64\n      add\n        /* \"@thirdweb-dev/contracts/lib/Address.sol\":8110:8170   */\n      tag_189\n        /* \"#utility.yul\":23816:24169   */\n      jump\n        /* \"@thirdweb-dev/contracts/lib/Address.sol\":8110:8170   */\n    tag_473:\n      pop\n        /* \"@thirdweb-dev/contracts/lib/Address.sol\":8205:8215   */\n      dup2\n        /* \"@thirdweb-dev/contracts/lib/Address.sol\":8198:8215   */\n      jump(tag_414)\n        /* \"@thirdweb-dev/contracts/lib/Address.sol\":7872:8290   */\n    tag_469:\n        /* \"@thirdweb-dev/contracts/lib/Address.sol\":8246:8279   */\n      tag_414\n        /* \"@thirdweb-dev/contracts/lib/Address.sol\":8254:8264   */\n      dup4\n        /* \"@thirdweb-dev/contracts/lib/Address.sol\":8266:8278   */\n      dup4\n        /* \"@thirdweb-dev/contracts/lib/Address.sol\":8977:8994   */\n      dup2\n      mload\n        /* \"@thirdweb-dev/contracts/lib/Address.sol\":8977:8998   */\n      iszero\n        /* \"@thirdweb-dev/contracts/lib/Address.sol\":8973:9352   */\n      tag_481\n      jumpi\n        /* \"@thirdweb-dev/contracts/lib/Address.sol\":9205:9215   */\n      dup2\n        /* \"@thirdweb-dev/contracts/lib/Address.sol\":9199:9216   */\n      mload\n        /* \"@thirdweb-dev/contracts/lib/Address.sol\":9261:9276   */\n      dup1\n        /* \"@thirdweb-dev/contracts/lib/Address.sol\":9248:9258   */\n      dup4\n        /* \"@thirdweb-dev/contracts/lib/Address.sol\":9244:9246   */\n      0x20\n        /* \"@thirdweb-dev/contracts/lib/Address.sol\":9240:9259   */\n      add\n        /* \"@thirdweb-dev/contracts/lib/Address.sol\":9233:9277   */\n      revert\n        /* \"@thirdweb-dev/contracts/lib/Address.sol\":8973:9352   */\n    tag_481:\n        /* \"@thirdweb-dev/contracts/lib/Address.sol\":9328:9340   */\n      dup1\n        /* \"@thirdweb-dev/contracts/lib/Address.sol\":9321:9341   */\n      mload(0x40)\n      shl(0xe5, 0x461bcd)\n      dup2\n      mstore\n      0x04\n      add\n      tag_189\n      swap2\n      swap1\n      tag_39\n      jump\t// in\n        /* \"#utility.yul\":14:303   */\n    tag_484:\n        /* \"#utility.yul\":56:59   */\n      0x00\n        /* \"#utility.yul\":94:99   */\n      dup2\n        /* \"#utility.yul\":88:100   */\n      mload\n        /* \"#utility.yul\":121:127   */\n      dup1\n        /* \"#utility.yul\":116:119   */\n      dup5\n        /* \"#utility.yul\":109:128   */\n      mstore\n        /* \"#utility.yul\":177:183   */\n      dup1\n        /* \"#utility.yul\":170:174   */\n      0x20\n        /* \"#utility.yul\":163:168   */\n      dup5\n        /* \"#utility.yul\":159:175   */\n      add\n        /* \"#utility.yul\":152:156   */\n      0x20\n        /* \"#utility.yul\":147:150   */\n      dup7\n        /* \"#utility.yul\":143:157   */\n      add\n        /* \"#utility.yul\":137:184   */\n      mcopy\n        /* \"#utility.yul\":229:230   */\n      0x00\n        /* \"#utility.yul\":222:226   */\n      0x20\n        /* \"#utility.yul\":213:219   */\n      dup3\n        /* \"#utility.yul\":208:211   */\n      dup7\n        /* \"#utility.yul\":204:220   */\n      add\n        /* \"#utility.yul\":200:227   */\n      add\n        /* \"#utility.yul\":193:231   */\n      mstore\n        /* \"#utility.yul\":292:296   */\n      0x20\n        /* \"#utility.yul\":285:287   */\n      0x1f\n        /* \"#utility.yul\":281:288   */\n      not\n        /* \"#utility.yul\":276:278   */\n      0x1f\n        /* \"#utility.yul\":268:274   */\n      dup4\n        /* \"#utility.yul\":264:279   */\n      add\n        /* \"#utility.yul\":260:289   */\n      and\n        /* \"#utility.yul\":255:258   */\n      dup6\n        /* \"#utility.yul\":251:290   */\n      add\n        /* \"#utility.yul\":247:297   */\n      add\n        /* \"#utility.yul\":240:297   */\n      swap2\n      pop\n      pop\n        /* \"#utility.yul\":14:303   */\n      swap3\n      swap2\n      pop\n      pop\n      jump\t// out\n        /* \"#utility.yul\":308:528   */\n    tag_39:\n        /* \"#utility.yul\":457:459   */\n      0x20\n        /* \"#utility.yul\":446:455   */\n      dup2\n        /* \"#utility.yul\":439:460   */\n      mstore\n        /* \"#utility.yul\":420:424   */\n      0x00\n        /* \"#utility.yul\":477:522   */\n      tag_407\n        /* \"#utility.yul\":518:520   */\n      0x20\n        /* \"#utility.yul\":507:516   */\n      dup4\n        /* \"#utility.yul\":503:521   */\n      add\n        /* \"#utility.yul\":495:501   */\n      dup5\n        /* \"#utility.yul\":477:522   */\n      tag_484\n      jump\t// in\n        /* \"#utility.yul\":533:713   */\n    tag_42:\n        /* \"#utility.yul\":592:598   */\n      0x00\n        /* \"#utility.yul\":645:647   */\n      0x20\n        /* \"#utility.yul\":633:642   */\n      dup3\n        /* \"#utility.yul\":624:631   */\n      dup5\n        /* \"#utility.yul\":620:643   */\n      sub\n        /* \"#utility.yul\":616:648   */\n      slt\n        /* \"#utility.yul\":613:665   */\n      iszero\n      tag_495\n      jumpi\n        /* \"#utility.yul\":661:662   */\n      0x00\n        /* \"#utility.yul\":658:659   */\n      dup1\n        /* \"#utility.yul\":651:663   */\n      revert\n        /* \"#utility.yul\":613:665   */\n    tag_495:\n      pop\n        /* \"#utility.yul\":684:707   */\n      calldataload\n      swap2\n        /* \"#utility.yul\":533:713   */\n      swap1\n      pop\n      jump\t// out\n        /* \"#utility.yul\":718:1698   */\n    tag_45:\n        /* \"#utility.yul\":947:949   */\n      0x20\n        /* \"#utility.yul\":999:1020   */\n      dup1\n      dup3\n      mstore\n        /* \"#utility.yul\":1069:1082   */\n      dup3\n      mload\n        /* \"#utility.yul\":972:990   */\n      dup3\n      dup3\n      add\n        /* \"#utility.yul\":1091:1113   */\n      dup2\n      swap1\n      mstore\n        /* \"#utility.yul\":918:922   */\n      0x00\n      swap2\n        /* \"#utility.yul\":947:949   */\n      swap1\n        /* \"#utility.yul\":1132:1134   */\n      0x40\n      swap1\n        /* \"#utility.yul\":1150:1168   */\n      dup2\n      dup6\n      add\n      swap1\n        /* \"#utility.yul\":1191:1206   */\n      dup7\n      dup5\n      add\n        /* \"#utility.yul\":918:922   */\n      dup6\n        /* \"#utility.yul\":1234:1672   */\n    tag_497:\n        /* \"#utility.yul\":1248:1254   */\n      dup3\n        /* \"#utility.yul\":1245:1246   */\n      dup2\n        /* \"#utility.yul\":1242:1255   */\n      lt\n        /* \"#utility.yul\":1234:1672   */\n      iszero\n      tag_499\n      jumpi\n        /* \"#utility.yul\":1307:1320   */\n      dup2\n      mload\n        /* \"#utility.yul\":1349:1358   */\n      dup1\n      mload\n      sub(shl(0xa0, 0x01), 0x01)\n        /* \"#utility.yul\":1345:1403   */\n      and\n        /* \"#utility.yul\":1333:1404   */\n      dup6\n      mstore\n        /* \"#utility.yul\":1444:1455   */\n      dup7\n      dup2\n      add\n        /* \"#utility.yul\":1438:1456   */\n      mload\n        /* \"#utility.yul\":1424:1436   */\n      dup8\n      dup7\n      add\n        /* \"#utility.yul\":1417:1457   */\n      mstore\n        /* \"#utility.yul\":1497:1508   */\n      dup6\n      dup2\n      add\n        /* \"#utility.yul\":1491:1509   */\n      mload\n        /* \"#utility.yul\":1477:1489   */\n      dup7\n      dup7\n      add\n        /* \"#utility.yul\":1470:1510   */\n      mstore\n        /* \"#utility.yul\":1533:1537   */\n      0x60\n        /* \"#utility.yul\":1577:1588   */\n      swap1\n      dup2\n      add\n        /* \"#utility.yul\":1571:1589   */\n      mload\n        /* \"#utility.yul\":1557:1569   */\n      swap1\n      dup6\n      add\n        /* \"#utility.yul\":1550:1590   */\n      mstore\n        /* \"#utility.yul\":1619:1623   */\n      0x80\n        /* \"#utility.yul\":1610:1624   */\n      swap1\n      swap4\n      add\n      swap3\n        /* \"#utility.yul\":1647:1662   */\n      swap1\n      dup6\n      add\n      swap1\n        /* \"#utility.yul\":1270:1271   */\n      0x01\n        /* \"#utility.yul\":1263:1272   */\n      add\n        /* \"#utility.yul\":1234:1672   */\n      jump(tag_497)\n    tag_499:\n      pop\n        /* \"#utility.yul\":1689:1692   */\n      swap2\n      swap8\n        /* \"#utility.yul\":718:1698   */\n      swap7\n      pop\n      pop\n      pop\n      pop\n      pop\n      pop\n      pop\n      jump\t// out\n        /* \"#utility.yul\":1703:1899   */\n    tag_485:\n        /* \"#utility.yul\":1771:1791   */\n      dup1\n      calldataload\n      sub(shl(0xa0, 0x01), 0x01)\n        /* \"#utility.yul\":1820:1874   */\n      dup2\n      and\n        /* \"#utility.yul\":1810:1875   */\n      dup2\n      eq\n        /* \"#utility.yul\":1800:1893   */\n      tag_501\n      jumpi\n        /* \"#utility.yul\":1889:1890   */\n      0x00\n        /* \"#utility.yul\":1886:1887   */\n      dup1\n        /* \"#utility.yul\":1879:1891   */\n      revert\n        /* \"#utility.yul\":1800:1893   */\n    tag_501:\n        /* \"#utility.yul\":1703:1899   */\n      swap2\n      swap1\n      pop\n      jump\t// out\n        /* \"#utility.yul\":1904:2158   */\n    tag_48:\n        /* \"#utility.yul\":1972:1978   */\n      0x00\n        /* \"#utility.yul\":1980:1986   */\n      dup1\n        /* \"#utility.yul\":2033:2035   */\n      0x40\n        /* \"#utility.yul\":2021:2030   */\n      dup4\n        /* \"#utility.yul\":2012:2019   */\n      dup6\n        /* \"#utility.yul\":2008:2031   */\n      sub\n        /* \"#utility.yul\":2004:2036   */\n      slt\n        /* \"#utility.yul\":2001:2053   */\n      iszero\n      tag_503\n      jumpi\n        /* \"#utility.yul\":2049:2050   */\n      0x00\n        /* \"#utility.yul\":2046:2047   */\n      dup1\n        /* \"#utility.yul\":2039:2051   */\n      revert\n        /* \"#utility.yul\":2001:2053   */\n    tag_503:\n        /* \"#utility.yul\":2072:2101   */\n      tag_504\n        /* \"#utility.yul\":2091:2100   */\n      dup4\n        /* \"#utility.yul\":2072:2101   */\n      tag_485\n      jump\t// in\n    tag_504:\n        /* \"#utility.yul\":2062:2101   */\n      swap5\n        /* \"#utility.yul\":2148:2150   */\n      0x20\n        /* \"#utility.yul\":2133:2151   */\n      swap4\n      swap1\n      swap4\n      add\n        /* \"#utility.yul\":2120:2152   */\n      calldataload\n      swap4\n      pop\n      pop\n      pop\n        /* \"#utility.yul\":1904:2158   */\n      jump\t// out\n        /* \"#utility.yul\":2355:2541   */\n    tag_54:\n        /* \"#utility.yul\":2414:2420   */\n      0x00\n        /* \"#utility.yul\":2467:2469   */\n      0x20\n        /* \"#utility.yul\":2455:2464   */\n      dup3\n        /* \"#utility.yul\":2446:2453   */\n      dup5\n        /* \"#utility.yul\":2442:2465   */\n      sub\n        /* \"#utility.yul\":2438:2470   */\n      slt\n        /* \"#utility.yul\":2435:2487   */\n      iszero\n      tag_507\n      jumpi\n        /* \"#utility.yul\":2483:2484   */\n      0x00\n        /* \"#utility.yul\":2480:2481   */\n      dup1\n        /* \"#utility.yul\":2473:2485   */\n      revert\n        /* \"#utility.yul\":2435:2487   */\n    tag_507:\n        /* \"#utility.yul\":2506:2535   */\n      tag_407\n        /* \"#utility.yul\":2525:2534   */\n      dup3\n        /* \"#utility.yul\":2506:2535   */\n      tag_485\n      jump\t// in\n        /* \"#utility.yul\":2728:3056   */\n    tag_62:\n        /* \"#utility.yul\":2805:2811   */\n      0x00\n        /* \"#utility.yul\":2813:2819   */\n      dup1\n        /* \"#utility.yul\":2821:2827   */\n      0x00\n        /* \"#utility.yul\":2874:2876   */\n      0x60\n        /* \"#utility.yul\":2862:2871   */\n      dup5\n        /* \"#utility.yul\":2853:2860   */\n      dup7\n        /* \"#utility.yul\":2849:2872   */\n      sub\n        /* \"#utility.yul\":2845:2877   */\n      slt\n        /* \"#utility.yul\":2842:2894   */\n      iszero\n      tag_511\n      jumpi\n        /* \"#utility.yul\":2890:2891   */\n      0x00\n        /* \"#utility.yul\":2887:2888   */\n      dup1\n        /* \"#utility.yul\":2880:2892   */\n      revert\n        /* \"#utility.yul\":2842:2894   */\n    tag_511:\n        /* \"#utility.yul\":2913:2942   */\n      tag_512\n        /* \"#utility.yul\":2932:2941   */\n      dup5\n        /* \"#utility.yul\":2913:2942   */\n      tag_485\n      jump\t// in\n    tag_512:\n        /* \"#utility.yul\":2903:2942   */\n      swap3\n      pop\n        /* \"#utility.yul\":2961:2999   */\n      tag_513\n        /* \"#utility.yul\":2995:2997   */\n      0x20\n        /* \"#utility.yul\":2984:2993   */\n      dup6\n        /* \"#utility.yul\":2980:2998   */\n      add\n        /* \"#utility.yul\":2961:2999   */\n      tag_485\n      jump\t// in\n    tag_513:\n        /* \"#utility.yul\":2951:2999   */\n      swap2\n      pop\n        /* \"#utility.yul\":3046:3048   */\n      0x40\n        /* \"#utility.yul\":3035:3044   */\n      dup5\n        /* \"#utility.yul\":3031:3049   */\n      add\n        /* \"#utility.yul\":3018:3050   */\n      calldataload\n        /* \"#utility.yul\":3008:3050   */\n      swap1\n      pop\n        /* \"#utility.yul\":2728:3056   */\n      swap3\n      pop\n      swap3\n      pop\n      swap3\n      jump\t// out\n        /* \"#utility.yul\":3617:4008   */\n    tag_86:\n        /* \"#utility.yul\":3703:3709   */\n      0x00\n        /* \"#utility.yul\":3711:3717   */\n      dup1\n        /* \"#utility.yul\":3719:3725   */\n      0x00\n        /* \"#utility.yul\":3727:3733   */\n      dup1\n        /* \"#utility.yul\":3780:3783   */\n      0x80\n        /* \"#utility.yul\":3768:3777   */\n      dup6\n        /* \"#utility.yul\":3759:3766   */\n      dup8\n        /* \"#utility.yul\":3755:3778   */\n      sub\n        /* \"#utility.yul\":3751:3784   */\n      slt\n        /* \"#utility.yul\":3748:3801   */\n      iszero\n      tag_519\n      jumpi\n        /* \"#utility.yul\":3797:3798   */\n      0x00\n        /* \"#utility.yul\":3794:3795   */\n      dup1\n        /* \"#utility.yul\":3787:3799   */\n      revert\n        /* \"#utility.yul\":3748:3801   */\n    tag_519:\n        /* \"#utility.yul\":3820:3849   */\n      tag_520\n        /* \"#utility.yul\":3839:3848   */\n      dup6\n        /* \"#utility.yul\":3820:3849   */\n      tag_485\n      jump\t// in\n    tag_520:\n        /* \"#utility.yul\":3810:3849   */\n      swap7\n        /* \"#utility.yul\":3896:3898   */\n      0x20\n        /* \"#utility.yul\":3881:3899   */\n      dup7\n      add\n        /* \"#utility.yul\":3868:3900   */\n      calldataload\n      swap7\n      pop\n        /* \"#utility.yul\":3947:3949   */\n      0x40\n        /* \"#utility.yul\":3932:3950   */\n      dup7\n      add\n        /* \"#utility.yul\":3919:3951   */\n      calldataload\n      swap6\n        /* \"#utility.yul\":3998:4000   */\n      0x60\n        /* \"#utility.yul\":3983:4001   */\n      add\n        /* \"#utility.yul\":3970:4002   */\n      calldataload\n      swap5\n      pop\n        /* \"#utility.yul\":3617:4008   */\n      swap3\n      pop\n      pop\n      pop\n      jump\t// out\n        /* \"#utility.yul\":4013:4261   */\n    tag_94:\n        /* \"#utility.yul\":4081:4087   */\n      0x00\n        /* \"#utility.yul\":4089:4095   */\n      dup1\n        /* \"#utility.yul\":4142:4144   */\n      0x40\n        /* \"#utility.yul\":4130:4139   */\n      dup4\n        /* \"#utility.yul\":4121:4128   */\n      dup6\n        /* \"#utility.yul\":4117:4140   */\n      sub\n        /* \"#utility.yul\":4113:4145   */\n      slt\n        /* \"#utility.yul\":4110:4162   */\n      iszero\n      tag_522\n      jumpi\n        /* \"#utility.yul\":4158:4159   */\n      0x00\n        /* \"#utility.yul\":4155:4156   */\n      dup1\n        /* \"#utility.yul\":4148:4160   */\n      revert\n        /* \"#utility.yul\":4110:4162   */\n    tag_522:\n      pop\n      pop\n        /* \"#utility.yul\":4181:4204   */\n      dup1\n      calldataload\n      swap3\n        /* \"#utility.yul\":4251:4253   */\n      0x20\n        /* \"#utility.yul\":4236:4254   */\n      swap1\n      swap2\n      add\n        /* \"#utility.yul\":4223:4255   */\n      calldataload\n      swap2\n      pop\n        /* \"#utility.yul\":4013:4261   */\n      jump\t// out\n        /* \"#utility.yul\":4942:5069   */\n    tag_267:\n        /* \"#utility.yul\":5003:5013   */\n      0x4e487b71\n        /* \"#utility.yul\":4998:5001   */\n      0xe0\n        /* \"#utility.yul\":4994:5014   */\n      shl\n        /* \"#utility.yul\":4991:4992   */\n      0x00\n        /* \"#utility.yul\":4984:5015   */\n      mstore\n        /* \"#utility.yul\":5034:5038   */\n      0x41\n        /* \"#utility.yul\":5031:5032   */\n      0x04\n        /* \"#utility.yul\":5024:5039   */\n      mstore\n        /* \"#utility.yul\":5058:5062   */\n      0x24\n        /* \"#utility.yul\":5055:5056   */\n      0x00\n        /* \"#utility.yul\":5048:5063   */\n      revert\n        /* \"#utility.yul\":5074:5996   */\n    tag_111:\n        /* \"#utility.yul\":5143:5149   */\n      0x00\n        /* \"#utility.yul\":5196:5198   */\n      0x20\n        /* \"#utility.yul\":5184:5193   */\n      dup3\n        /* \"#utility.yul\":5175:5182   */\n      dup5\n        /* \"#utility.yul\":5171:5194   */\n      sub\n        /* \"#utility.yul\":5167:5199   */\n      slt\n        /* \"#utility.yul\":5164:5216   */\n      iszero\n      tag_527\n      jumpi\n        /* \"#utility.yul\":5212:5213   */\n      0x00\n        /* \"#utility.yul\":5209:5210   */\n      dup1\n        /* \"#utility.yul\":5202:5214   */\n      revert\n        /* \"#utility.yul\":5164:5216   */\n    tag_527:\n        /* \"#utility.yul\":5252:5261   */\n      dup2\n        /* \"#utility.yul\":5239:5262   */\n      calldataload\n        /* \"#utility.yul\":5281:5299   */\n      0xffffffffffffffff\n        /* \"#utility.yul\":5322:5324   */\n      dup1\n        /* \"#utility.yul\":5314:5320   */\n      dup3\n        /* \"#utility.yul\":5311:5325   */\n      gt\n        /* \"#utility.yul\":5308:5342   */\n      iszero\n      tag_528\n      jumpi\n        /* \"#utility.yul\":5338:5339   */\n      0x00\n        /* \"#utility.yul\":5335:5336   */\n      dup1\n        /* \"#utility.yul\":5328:5340   */\n      revert\n        /* \"#utility.yul\":5308:5342   */\n    tag_528:\n        /* \"#utility.yul\":5376:5382   */\n      dup2\n        /* \"#utility.yul\":5365:5374   */\n      dup5\n        /* \"#utility.yul\":5361:5383   */\n      add\n        /* \"#utility.yul\":5351:5383   */\n      swap2\n      pop\n        /* \"#utility.yul\":5421:5428   */\n      dup5\n        /* \"#utility.yul\":5414:5418   */\n      0x1f\n        /* \"#utility.yul\":5410:5412   */\n      dup4\n        /* \"#utility.yul\":5406:5419   */\n      add\n        /* \"#utility.yul\":5402:5429   */\n      slt\n        /* \"#utility.yul\":5392:5447   */\n      tag_529\n      jumpi\n        /* \"#utility.yul\":5443:5444   */\n      0x00\n        /* \"#utility.yul\":5440:5441   */\n      dup1\n        /* \"#utility.yul\":5433:5445   */\n      revert\n        /* \"#utility.yul\":5392:5447   */\n    tag_529:\n        /* \"#utility.yul\":5479:5481   */\n      dup2\n        /* \"#utility.yul\":5466:5482   */\n      calldataload\n        /* \"#utility.yul\":5501:5503   */\n      dup2\n        /* \"#utility.yul\":5497:5499   */\n      dup2\n        /* \"#utility.yul\":5494:5504   */\n      gt\n        /* \"#utility.yul\":5491:5527   */\n      iszero\n      tag_531\n      jumpi\n        /* \"#utility.yul\":5507:5525   */\n      tag_531\n      tag_267\n      jump\t// in\n    tag_531:\n        /* \"#utility.yul\":5582:5584   */\n      0x40\n        /* \"#utility.yul\":5576:5585   */\n      mload\n        /* \"#utility.yul\":5550:5552   */\n      0x1f\n        /* \"#utility.yul\":5636:5649   */\n      dup3\n      add\n      not(0x1f)\n        /* \"#utility.yul\":5632:5654   */\n      swap1\n      dup2\n      and\n        /* \"#utility.yul\":5656:5658   */\n      0x3f\n        /* \"#utility.yul\":5628:5659   */\n      add\n        /* \"#utility.yul\":5624:5664   */\n      and\n        /* \"#utility.yul\":5612:5665   */\n      dup2\n      add\n      swap1\n        /* \"#utility.yul\":5680:5698   */\n      dup4\n      dup3\n      gt\n        /* \"#utility.yul\":5700:5722   */\n      dup2\n      dup4\n      lt\n        /* \"#utility.yul\":5677:5723   */\n      or\n        /* \"#utility.yul\":5674:5746   */\n      iszero\n      tag_533\n      jumpi\n        /* \"#utility.yul\":5726:5744   */\n      tag_533\n      tag_267\n      jump\t// in\n    tag_533:\n        /* \"#utility.yul\":5766:5776   */\n      dup2\n        /* \"#utility.yul\":5762:5764   */\n      0x40\n        /* \"#utility.yul\":5755:5777   */\n      mstore\n        /* \"#utility.yul\":5801:5803   */\n      dup3\n        /* \"#utility.yul\":5793:5799   */\n      dup2\n        /* \"#utility.yul\":5786:5804   */\n      mstore\n        /* \"#utility.yul\":5841:5848   */\n      dup8\n        /* \"#utility.yul\":5836:5838   */\n      0x20\n        /* \"#utility.yul\":5831:5833   */\n      dup5\n        /* \"#utility.yul\":5827:5829   */\n      dup8\n        /* \"#utility.yul\":5823:5834   */\n      add\n        /* \"#utility.yul\":5819:5839   */\n      add\n        /* \"#utility.yul\":5816:5849   */\n      gt\n        /* \"#utility.yul\":5813:5866   */\n      iszero\n      tag_534\n      jumpi\n        /* \"#utility.yul\":5862:5863   */\n      0x00\n        /* \"#utility.yul\":5859:5860   */\n      dup1\n        /* \"#utility.yul\":5852:5864   */\n      revert\n        /* \"#utility.yul\":5813:5866   */\n    tag_534:\n        /* \"#utility.yul\":5918:5920   */\n      dup3\n        /* \"#utility.yul\":5913:5915   */\n      0x20\n        /* \"#utility.yul\":5909:5911   */\n      dup7\n        /* \"#utility.yul\":5905:5916   */\n      add\n        /* \"#utility.yul\":5900:5902   */\n      0x20\n        /* \"#utility.yul\":5892:5898   */\n      dup4\n        /* \"#utility.yul\":5888:5903   */\n      add\n        /* \"#utility.yul\":5875:5921   */\n      calldatacopy\n        /* \"#utility.yul\":5963:5964   */\n      0x00\n        /* \"#utility.yul\":5941:5956   */\n      swap3\n      dup2\n      add\n        /* \"#utility.yul\":5958:5960   */\n      0x20\n        /* \"#utility.yul\":5937:5961   */\n      add\n        /* \"#utility.yul\":5930:5965   */\n      swap3\n      swap1\n      swap3\n      mstore\n      pop\n        /* \"#utility.yul\":5945:5951   */\n      swap6\n        /* \"#utility.yul\":5074:5996   */\n      swap5\n      pop\n      pop\n      pop\n      pop\n      pop\n      jump\t// out\n        /* \"#utility.yul\":6001:6627   */\n    tag_126:\n        /* \"#utility.yul\":6098:6104   */\n      0x00\n        /* \"#utility.yul\":6106:6112   */\n      dup1\n        /* \"#utility.yul\":6159:6161   */\n      0x20\n        /* \"#utility.yul\":6147:6156   */\n      dup4\n        /* \"#utility.yul\":6138:6145   */\n      dup6\n        /* \"#utility.yul\":6134:6157   */\n      sub\n        /* \"#utility.yul\":6130:6162   */\n      slt\n        /* \"#utility.yul\":6127:6179   */\n      iszero\n      tag_536\n      jumpi\n        /* \"#utility.yul\":6175:6176   */\n      0x00\n        /* \"#utility.yul\":6172:6173   */\n      dup1\n        /* \"#utility.yul\":6165:6177   */\n      revert\n        /* \"#utility.yul\":6127:6179   */\n    tag_536:\n        /* \"#utility.yul\":6215:6224   */\n      dup3\n        /* \"#utility.yul\":6202:6225   */\n      calldataload\n        /* \"#utility.yul\":6244:6262   */\n      0xffffffffffffffff\n        /* \"#utility.yul\":6285:6287   */\n      dup1\n        /* \"#utility.yul\":6277:6283   */\n      dup3\n        /* \"#utility.yul\":6274:6288   */\n      gt\n        /* \"#utility.yul\":6271:6305   */\n      iszero\n      tag_537\n      jumpi\n        /* \"#utility.yul\":6301:6302   */\n      0x00\n        /* \"#utility.yul\":6298:6299   */\n      dup1\n        /* \"#utility.yul\":6291:6303   */\n      revert\n        /* \"#utility.yul\":6271:6305   */\n    tag_537:\n        /* \"#utility.yul\":6339:6345   */\n      dup2\n        /* \"#utility.yul\":6328:6337   */\n      dup6\n        /* \"#utility.yul\":6324:6346   */\n      add\n        /* \"#utility.yul\":6314:6346   */\n      swap2\n      pop\n        /* \"#utility.yul\":6384:6391   */\n      dup6\n        /* \"#utility.yul\":6377:6381   */\n      0x1f\n        /* \"#utility.yul\":6373:6375   */\n      dup4\n        /* \"#utility.yul\":6369:6382   */\n      add\n        /* \"#utility.yul\":6365:6392   */\n      slt\n        /* \"#utility.yul\":6355:6410   */\n      tag_538\n      jumpi\n        /* \"#utility.yul\":6406:6407   */\n      0x00\n        /* \"#utility.yul\":6403:6404   */\n      dup1\n        /* \"#utility.yul\":6396:6408   */\n      revert\n        /* \"#utility.yul\":6355:6410   */\n    tag_538:\n        /* \"#utility.yul\":6446:6448   */\n      dup2\n        /* \"#utility.yul\":6433:6449   */\n      calldataload\n        /* \"#utility.yul\":6472:6474   */\n      dup2\n        /* \"#utility.yul\":6464:6470   */\n      dup2\n        /* \"#utility.yul\":6461:6475   */\n      gt\n        /* \"#utility.yul\":6458:6492   */\n      iszero\n      tag_539\n      jumpi\n        /* \"#utility.yul\":6488:6489   */\n      0x00\n        /* \"#utility.yul\":6485:6486   */\n      dup1\n        /* \"#utility.yul\":6478:6490   */\n      revert\n        /* \"#utility.yul\":6458:6492   */\n    tag_539:\n        /* \"#utility.yul\":6541:6548   */\n      dup7\n        /* \"#utility.yul\":6536:6538   */\n      0x20\n        /* \"#utility.yul\":6526:6532   */\n      dup3\n        /* \"#utility.yul\":6523:6524   */\n      0x05\n        /* \"#utility.yul\":6519:6533   */\n      shl\n        /* \"#utility.yul\":6515:6517   */\n      dup6\n        /* \"#utility.yul\":6511:6534   */\n      add\n        /* \"#utility.yul\":6507:6539   */\n      add\n        /* \"#utility.yul\":6504:6549   */\n      gt\n        /* \"#utility.yul\":6501:6566   */\n      iszero\n      tag_540\n      jumpi\n        /* \"#utility.yul\":6562:6563   */\n      0x00\n        /* \"#utility.yul\":6559:6560   */\n      dup1\n        /* \"#utility.yul\":6552:6564   */\n      revert\n        /* \"#utility.yul\":6501:6566   */\n    tag_540:\n        /* \"#utility.yul\":6593:6595   */\n      0x20\n        /* \"#utility.yul\":6585:6596   */\n      swap3\n      swap1\n      swap3\n      add\n      swap7\n        /* \"#utility.yul\":6615:6621   */\n      swap2\n      swap6\n      pop\n        /* \"#utility.yul\":6001:6627   */\n      swap1\n      swap4\n      pop\n      pop\n      pop\n      pop\n      jump\t// out\n        /* \"#utility.yul\":6632:7433   */\n    tag_129:\n        /* \"#utility.yul\":6792:6796   */\n      0x00\n        /* \"#utility.yul\":6821:6823   */\n      0x20\n        /* \"#utility.yul\":6861:6863   */\n      dup1\n        /* \"#utility.yul\":6850:6859   */\n      dup4\n        /* \"#utility.yul\":6846:6864   */\n      add\n        /* \"#utility.yul\":6891:6893   */\n      0x20\n        /* \"#utility.yul\":6880:6889   */\n      dup5\n        /* \"#utility.yul\":6873:6894   */\n      mstore\n        /* \"#utility.yul\":6914:6920   */\n      dup1\n        /* \"#utility.yul\":6949:6955   */\n      dup6\n        /* \"#utility.yul\":6943:6956   */\n      mload\n        /* \"#utility.yul\":6980:6986   */\n      dup1\n        /* \"#utility.yul\":6972:6978   */\n      dup4\n        /* \"#utility.yul\":6965:6987   */\n      mstore\n        /* \"#utility.yul\":7018:7020   */\n      0x40\n        /* \"#utility.yul\":7007:7016   */\n      dup7\n        /* \"#utility.yul\":7003:7021   */\n      add\n        /* \"#utility.yul\":6996:7021   */\n      swap2\n      pop\n        /* \"#utility.yul\":7080:7082   */\n      0x40\n        /* \"#utility.yul\":7070:7076   */\n      dup2\n        /* \"#utility.yul\":7067:7068   */\n      0x05\n        /* \"#utility.yul\":7063:7077   */\n      shl\n        /* \"#utility.yul\":7052:7061   */\n      dup8\n        /* \"#utility.yul\":7048:7078   */\n      add\n        /* \"#utility.yul\":7044:7083   */\n      add\n        /* \"#utility.yul\":7030:7083   */\n      swap3\n      pop\n        /* \"#utility.yul\":7118:7120   */\n      0x20\n        /* \"#utility.yul\":7110:7116   */\n      dup8\n        /* \"#utility.yul\":7106:7121   */\n      add\n        /* \"#utility.yul\":7139:7140   */\n      0x00\n        /* \"#utility.yul\":7149:7404   */\n    tag_542:\n        /* \"#utility.yul\":7163:7169   */\n      dup3\n        /* \"#utility.yul\":7160:7161   */\n      dup2\n        /* \"#utility.yul\":7157:7170   */\n      lt\n        /* \"#utility.yul\":7149:7404   */\n      iszero\n      tag_544\n      jumpi\n        /* \"#utility.yul\":7256:7258   */\n      0x3f\n        /* \"#utility.yul\":7252:7259   */\n      not\n        /* \"#utility.yul\":7240:7249   */\n      dup9\n        /* \"#utility.yul\":7232:7238   */\n      dup7\n        /* \"#utility.yul\":7228:7250   */\n      sub\n        /* \"#utility.yul\":7224:7260   */\n      add\n        /* \"#utility.yul\":7219:7222   */\n      dup5\n        /* \"#utility.yul\":7212:7261   */\n      mstore\n        /* \"#utility.yul\":7284:7324   */\n      tag_545\n        /* \"#utility.yul\":7317:7323   */\n      dup6\n        /* \"#utility.yul\":7308:7314   */\n      dup4\n        /* \"#utility.yul\":7302:7315   */\n      mload\n        /* \"#utility.yul\":7284:7324   */\n      tag_484\n      jump\t// in\n    tag_545:\n        /* \"#utility.yul\":7274:7324   */\n      swap5\n      pop\n        /* \"#utility.yul\":7382:7394   */\n      swap3\n      dup6\n      add\n      swap3\n        /* \"#utility.yul\":7347:7362   */\n      swap1\n      dup6\n      add\n      swap1\n        /* \"#utility.yul\":7185:7186   */\n      0x01\n        /* \"#utility.yul\":7178:7187   */\n      add\n        /* \"#utility.yul\":7149:7404   */\n      jump(tag_542)\n    tag_544:\n      pop\n        /* \"#utility.yul\":7421:7427   */\n      swap3\n      swap8\n        /* \"#utility.yul\":6632:7433   */\n      swap7\n      pop\n      pop\n      pop\n      pop\n      pop\n      pop\n      pop\n      jump\t// out\n        /* \"#utility.yul\":7438:8131   */\n    tag_132:\n        /* \"#utility.yul\":7549:7555   */\n      0x00\n        /* \"#utility.yul\":7557:7563   */\n      dup1\n        /* \"#utility.yul\":7565:7571   */\n      0x00\n        /* \"#utility.yul\":7573:7579   */\n      dup1\n        /* \"#utility.yul\":7581:7587   */\n      0x00\n        /* \"#utility.yul\":7589:7595   */\n      dup1\n        /* \"#utility.yul\":7597:7603   */\n      0x00\n        /* \"#utility.yul\":7650:7653   */\n      0xe0\n        /* \"#utility.yul\":7638:7647   */\n      dup9\n        /* \"#utility.yul\":7629:7636   */\n      dup11\n        /* \"#utility.yul\":7625:7648   */\n      sub\n        /* \"#utility.yul\":7621:7654   */\n      slt\n        /* \"#utility.yul\":7618:7671   */\n      iszero\n      tag_547\n      jumpi\n        /* \"#utility.yul\":7667:7668   */\n      0x00\n        /* \"#utility.yul\":7664:7665   */\n      dup1\n        /* \"#utility.yul\":7657:7669   */\n      revert\n        /* \"#utility.yul\":7618:7671   */\n    tag_547:\n        /* \"#utility.yul\":7690:7719   */\n      tag_548\n        /* \"#utility.yul\":7709:7718   */\n      dup9\n        /* \"#utility.yul\":7690:7719   */\n      tag_485\n      jump\t// in\n    tag_548:\n        /* \"#utility.yul\":7680:7719   */\n      swap7\n      pop\n        /* \"#utility.yul\":7738:7776   */\n      tag_549\n        /* \"#utility.yul\":7772:7774   */\n      0x20\n        /* \"#utility.yul\":7761:7770   */\n      dup10\n        /* \"#utility.yul\":7757:7775   */\n      add\n        /* \"#utility.yul\":7738:7776   */\n      tag_485\n      jump\t// in\n    tag_549:\n        /* \"#utility.yul\":7728:7776   */\n      swap6\n      pop\n        /* \"#utility.yul\":7823:7825   */\n      0x40\n        /* \"#utility.yul\":7812:7821   */\n      dup9\n        /* \"#utility.yul\":7808:7826   */\n      add\n        /* \"#utility.yul\":7795:7827   */\n      calldataload\n        /* \"#utility.yul\":7785:7827   */\n      swap5\n      pop\n        /* \"#utility.yul\":7874:7876   */\n      0x60\n        /* \"#utility.yul\":7863:7872   */\n      dup9\n        /* \"#utility.yul\":7859:7877   */\n      add\n        /* \"#utility.yul\":7846:7878   */\n      calldataload\n        /* \"#utility.yul\":7836:7878   */\n      swap4\n      pop\n        /* \"#utility.yul\":7928:7931   */\n      0x80\n        /* \"#utility.yul\":7917:7926   */\n      dup9\n        /* \"#utility.yul\":7913:7932   */\n      add\n        /* \"#utility.yul\":7900:7933   */\n      calldataload\n        /* \"#utility.yul\":7973:7977   */\n      0xff\n        /* \"#utility.yul\":7966:7971   */\n      dup2\n        /* \"#utility.yul\":7962:7978   */\n      and\n        /* \"#utility.yul\":7955:7960   */\n      dup2\n        /* \"#utility.yul\":7952:7979   */\n      eq\n        /* \"#utility.yul\":7942:7997   */\n      tag_550\n      jumpi\n        /* \"#utility.yul\":7993:7994   */\n      0x00\n        /* \"#utility.yul\":7990:7991   */\n      dup1\n        /* \"#utility.yul\":7983:7995   */\n      revert\n        /* \"#utility.yul\":7942:7997   */\n    tag_550:\n        /* \"#utility.yul\":7438:8131   */\n      swap7\n      swap10\n      swap6\n      swap9\n      pop\n      swap4\n      swap7\n      swap3\n      swap6\n        /* \"#utility.yul\":8016:8021   */\n      swap5\n        /* \"#utility.yul\":8068:8071   */\n      0xa0\n        /* \"#utility.yul\":8053:8072   */\n      dup5\n      add\n        /* \"#utility.yul\":8040:8073   */\n      calldataload\n      swap5\n      pop\n        /* \"#utility.yul\":8120:8123   */\n      0xc0\n        /* \"#utility.yul\":8105:8124   */\n      swap1\n      swap4\n      add\n        /* \"#utility.yul\":8092:8125   */\n      calldataload\n      swap3\n        /* \"#utility.yul\":7438:8131   */\n      swap2\n      pop\n      pop\n      jump\t// out\n        /* \"#utility.yul\":8136:8396   */\n    tag_136:\n        /* \"#utility.yul\":8204:8210   */\n      0x00\n        /* \"#utility.yul\":8212:8218   */\n      dup1\n        /* \"#utility.yul\":8265:8267   */\n      0x40\n        /* \"#utility.yul\":8253:8262   */\n      dup4\n        /* \"#utility.yul\":8244:8251   */\n      dup6\n        /* \"#utility.yul\":8240:8263   */\n      sub\n        /* \"#utility.yul\":8236:8268   */\n      slt\n        /* \"#utility.yul\":8233:8285   */\n      iszero\n      tag_552\n      jumpi\n        /* \"#utility.yul\":8281:8282   */\n      0x00\n        /* \"#utility.yul\":8278:8279   */\n      dup1\n        /* \"#utility.yul\":8271:8283   */\n      revert\n        /* \"#utility.yul\":8233:8285   */\n    tag_552:\n        /* \"#utility.yul\":8304:8333   */\n      tag_553\n        /* \"#utility.yul\":8323:8332   */\n      dup4\n        /* \"#utility.yul\":8304:8333   */\n      tag_485\n      jump\t// in\n    tag_553:\n        /* \"#utility.yul\":8294:8333   */\n      swap2\n      pop\n        /* \"#utility.yul\":8352:8390   */\n      tag_554\n        /* \"#utility.yul\":8386:8388   */\n      0x20\n        /* \"#utility.yul\":8375:8384   */\n      dup5\n        /* \"#utility.yul\":8371:8389   */\n      add\n        /* \"#utility.yul\":8352:8390   */\n      tag_485\n      jump\t// in\n    tag_554:\n        /* \"#utility.yul\":8342:8390   */\n      swap1\n      pop\n        /* \"#utility.yul\":8136:8396   */\n      swap3\n      pop\n      swap3\n      swap1\n      pop\n      jump\t// out\n        /* \"#utility.yul\":8401:8781   */\n    tag_147:\n        /* \"#utility.yul\":8480:8481   */\n      0x01\n        /* \"#utility.yul\":8476:8488   */\n      dup2\n      dup2\n      shr\n      swap1\n        /* \"#utility.yul\":8523:8535   */\n      dup3\n      and\n      dup1\n        /* \"#utility.yul\":8544:8605   */\n      tag_556\n      jumpi\n        /* \"#utility.yul\":8598:8602   */\n      0x7f\n        /* \"#utility.yul\":8590:8596   */\n      dup3\n        /* \"#utility.yul\":8586:8603   */\n      and\n        /* \"#utility.yul\":8576:8603   */\n      swap2\n      pop\n        /* \"#utility.yul\":8544:8605   */\n    tag_556:\n        /* \"#utility.yul\":8651:8653   */\n      0x20\n        /* \"#utility.yul\":8643:8649   */\n      dup3\n        /* \"#utility.yul\":8640:8654   */\n      lt\n        /* \"#utility.yul\":8620:8638   */\n      dup2\n        /* \"#utility.yul\":8617:8655   */\n      sub\n        /* \"#utility.yul\":8614:8775   */\n      tag_411\n      jumpi\n        /* \"#utility.yul\":8697:8707   */\n      0x4e487b71\n        /* \"#utility.yul\":8692:8695   */\n      0xe0\n        /* \"#utility.yul\":8688:8708   */\n      shl\n        /* \"#utility.yul\":8685:8686   */\n      0x00\n        /* \"#utility.yul\":8678:8709   */\n      mstore\n        /* \"#utility.yul\":8732:8736   */\n      0x22\n        /* \"#utility.yul\":8729:8730   */\n      0x04\n        /* \"#utility.yul\":8722:8737   */\n      mstore\n        /* \"#utility.yul\":8760:8764   */\n      0x24\n        /* \"#utility.yul\":8757:8758   */\n      0x00\n        /* \"#utility.yul\":8750:8765   */\n      revert\n        /* \"#utility.yul\":8786:8913   */\n    tag_486:\n        /* \"#utility.yul\":8847:8857   */\n      0x4e487b71\n        /* \"#utility.yul\":8842:8845   */\n      0xe0\n        /* \"#utility.yul\":8838:8858   */\n      shl\n        /* \"#utility.yul\":8835:8836   */\n      0x00\n        /* \"#utility.yul\":8828:8859   */\n      mstore\n        /* \"#utility.yul\":8878:8882   */\n      0x11\n        /* \"#utility.yul\":8875:8876   */\n      0x04\n        /* \"#utility.yul\":8868:8883   */\n      mstore\n        /* \"#utility.yul\":8902:8906   */\n      0x24\n        /* \"#utility.yul\":8899:8900   */\n      0x00\n        /* \"#utility.yul\":8892:8907   */\n      revert\n        /* \"#utility.yul\":8918:9043   */\n    tag_185:\n        /* \"#utility.yul\":8983:8992   */\n      dup1\n      dup3\n      add\n        /* \"#utility.yul\":9004:9014   */\n      dup1\n      dup3\n      gt\n        /* \"#utility.yul\":9001:9037   */\n      iszero\n      tag_156\n      jumpi\n        /* \"#utility.yul\":9017:9035   */\n      tag_156\n      tag_486\n      jump\t// in\n        /* \"#utility.yul\":11929:12057   */\n    tag_235:\n        /* \"#utility.yul\":11996:12005   */\n      dup2\n      dup2\n      sub\n        /* \"#utility.yul\":12017:12028   */\n      dup2\n      dup2\n      gt\n        /* \"#utility.yul\":12014:12051   */\n      iszero\n      tag_156\n      jumpi\n        /* \"#utility.yul\":12031:12049   */\n      tag_156\n      tag_486\n      jump\t// in\n        /* \"#utility.yul\":12468:12595   */\n    tag_278:\n        /* \"#utility.yul\":12529:12539   */\n      0x4e487b71\n        /* \"#utility.yul\":12524:12527   */\n      0xe0\n        /* \"#utility.yul\":12520:12540   */\n      shl\n        /* \"#utility.yul\":12517:12518   */\n      0x00\n        /* \"#utility.yul\":12510:12541   */\n      mstore\n        /* \"#utility.yul\":12560:12564   */\n      0x32\n        /* \"#utility.yul\":12557:12558   */\n      0x04\n        /* \"#utility.yul\":12550:12565   */\n      mstore\n        /* \"#utility.yul\":12584:12588   */\n      0x24\n        /* \"#utility.yul\":12581:12582   */\n      0x00\n        /* \"#utility.yul\":12574:12589   */\n      revert\n        /* \"#utility.yul\":12600:13121   */\n    tag_280:\n        /* \"#utility.yul\":12677:12681   */\n      0x00\n        /* \"#utility.yul\":12683:12689   */\n      dup1\n        /* \"#utility.yul\":12743:12754   */\n      dup4\n        /* \"#utility.yul\":12730:12755   */\n      calldataload\n        /* \"#utility.yul\":12837:12839   */\n      0x1e\n        /* \"#utility.yul\":12833:12840   */\n      not\n        /* \"#utility.yul\":12822:12830   */\n      dup5\n        /* \"#utility.yul\":12806:12820   */\n      calldatasize\n        /* \"#utility.yul\":12802:12831   */\n      sub\n        /* \"#utility.yul\":12798:12841   */\n      add\n        /* \"#utility.yul\":12778:12796   */\n      dup2\n        /* \"#utility.yul\":12774:12842   */\n      slt\n        /* \"#utility.yul\":12764:12860   */\n      tag_576\n      jumpi\n        /* \"#utility.yul\":12856:12857   */\n      0x00\n        /* \"#utility.yul\":12853:12854   */\n      dup1\n        /* \"#utility.yul\":12846:12858   */\n      revert\n        /* \"#utility.yul\":12764:12860   */\n    tag_576:\n        /* \"#utility.yul\":12883:12916   */\n      dup4\n      add\n        /* \"#utility.yul\":12935:12955   */\n      dup1\n      calldataload\n      swap2\n      pop\n        /* \"#utility.yul\":12978:12996   */\n      0xffffffffffffffff\n        /* \"#utility.yul\":12967:12997   */\n      dup3\n      gt\n        /* \"#utility.yul\":12964:13014   */\n      iszero\n      tag_577\n      jumpi\n        /* \"#utility.yul\":13010:13011   */\n      0x00\n        /* \"#utility.yul\":13007:13008   */\n      dup1\n        /* \"#utility.yul\":13000:13012   */\n      revert\n        /* \"#utility.yul\":12964:13014   */\n    tag_577:\n        /* \"#utility.yul\":13043:13047   */\n      0x20\n        /* \"#utility.yul\":13031:13048   */\n      add\n      swap2\n      pop\n        /* \"#utility.yul\":13074:13088   */\n      calldatasize\n        /* \"#utility.yul\":13070:13097   */\n      dup2\n      swap1\n      sub\n        /* \"#utility.yul\":13060:13098   */\n      dup3\n      sgt\n        /* \"#utility.yul\":13057:13115   */\n      iszero\n      tag_578\n      jumpi\n        /* \"#utility.yul\":13111:13112   */\n      0x00\n        /* \"#utility.yul\":13108:13109   */\n      dup1\n        /* \"#utility.yul\":13101:13113   */\n      revert\n        /* \"#utility.yul\":13057:13115   */\n    tag_578:\n        /* \"#utility.yul\":12600:13121   */\n      swap3\n      pop\n      swap3\n      swap1\n      pop\n      jump\t// out\n        /* \"#utility.yul\":13126:13486   */\n    tag_282:\n        /* \"#utility.yul\":13337:13343   */\n      dup3\n        /* \"#utility.yul\":13329:13335   */\n      dup5\n        /* \"#utility.yul\":13324:13327   */\n      dup3\n        /* \"#utility.yul\":13311:13344   */\n      calldatacopy\n        /* \"#utility.yul\":13407:13409   */\n      0x60\n        /* \"#utility.yul\":13403:13418   */\n      swap2\n      swap1\n      swap2\n      shl\n      not(0xffffffffffffffffffffffff)\n        /* \"#utility.yul\":13399:13452   */\n      and\n        /* \"#utility.yul\":13363:13379   */\n      swap2\n      add\n        /* \"#utility.yul\":13388:13453   */\n      swap1\n      dup2\n      mstore\n        /* \"#utility.yul\":13477:13479   */\n      0x14\n        /* \"#utility.yul\":13469:13480   */\n      add\n      swap2\n        /* \"#utility.yul\":13126:13486   */\n      swap1\n      pop\n      jump\t// out\n        /* \"#utility.yul\":19427:19945   */\n    tag_488:\n        /* \"#utility.yul\":19529:19531   */\n      0x1f\n        /* \"#utility.yul\":19524:19527   */\n      dup3\n        /* \"#utility.yul\":19521:19532   */\n      gt\n        /* \"#utility.yul\":19518:19939   */\n      iszero\n      tag_238\n      jumpi\n        /* \"#utility.yul\":19565:19570   */\n      dup1\n        /* \"#utility.yul\":19562:19563   */\n      0x00\n        /* \"#utility.yul\":19555:19571   */\n      mstore\n        /* \"#utility.yul\":19609:19613   */\n      0x20\n        /* \"#utility.yul\":19606:19607   */\n      0x00\n        /* \"#utility.yul\":19596:19614   */\n      keccak256\n        /* \"#utility.yul\":19679:19681   */\n      0x1f\n        /* \"#utility.yul\":19667:19677   */\n      dup5\n        /* \"#utility.yul\":19663:19682   */\n      add\n        /* \"#utility.yul\":19660:19661   */\n      0x05\n        /* \"#utility.yul\":19656:19683   */\n      shr\n        /* \"#utility.yul\":19650:19654   */\n      dup2\n        /* \"#utility.yul\":19646:19684   */\n      add\n        /* \"#utility.yul\":19715:19719   */\n      0x20\n        /* \"#utility.yul\":19703:19713   */\n      dup6\n        /* \"#utility.yul\":19700:19720   */\n      lt\n        /* \"#utility.yul\":19697:19744   */\n      iszero\n      tag_597\n      jumpi\n      pop\n        /* \"#utility.yul\":19738:19742   */\n      dup1\n        /* \"#utility.yul\":19697:19744   */\n    tag_597:\n        /* \"#utility.yul\":19793:19795   */\n      0x1f\n        /* \"#utility.yul\":19788:19791   */\n      dup5\n        /* \"#utility.yul\":19784:19796   */\n      add\n        /* \"#utility.yul\":19781:19782   */\n      0x05\n        /* \"#utility.yul\":19777:19797   */\n      shr\n        /* \"#utility.yul\":19771:19775   */\n      dup3\n        /* \"#utility.yul\":19767:19798   */\n      add\n        /* \"#utility.yul\":19757:19798   */\n      swap2\n      pop\n        /* \"#utility.yul\":19848:19929   */\n    tag_598:\n        /* \"#utility.yul\":19866:19868   */\n      dup2\n        /* \"#utility.yul\":19859:19864   */\n      dup2\n        /* \"#utility.yul\":19856:19869   */\n      lt\n        /* \"#utility.yul\":19848:19929   */\n      iszero\n      tag_600\n      jumpi\n        /* \"#utility.yul\":19925:19926   */\n      0x00\n        /* \"#utility.yul\":19911:19927   */\n      dup2\n      sstore\n        /* \"#utility.yul\":19892:19893   */\n      0x01\n        /* \"#utility.yul\":19881:19894   */\n      add\n        /* \"#utility.yul\":19848:19929   */\n      jump(tag_598)\n    tag_600:\n        /* \"#utility.yul\":19852:19855   */\n      pop\n      pop\n        /* \"#utility.yul\":19427:19945   */\n      pop\n      pop\n      pop\n      jump\t// out\n        /* \"#utility.yul\":20121:21466   */\n    tag_403:\n        /* \"#utility.yul\":20247:20250   */\n      dup2\n        /* \"#utility.yul\":20241:20251   */\n      mload\n        /* \"#utility.yul\":20274:20292   */\n      0xffffffffffffffff\n        /* \"#utility.yul\":20266:20272   */\n      dup2\n        /* \"#utility.yul\":20263:20293   */\n      gt\n        /* \"#utility.yul\":20260:20316   */\n      iszero\n      tag_604\n      jumpi\n        /* \"#utility.yul\":20296:20314   */\n      tag_604\n      tag_267\n      jump\t// in\n    tag_604:\n        /* \"#utility.yul\":20325:20422   */\n      tag_605\n        /* \"#utility.yul\":20415:20421   */\n      dup2\n        /* \"#utility.yul\":20375:20413   */\n      tag_606\n        /* \"#utility.yul\":20407:20411   */\n      dup5\n        /* \"#utility.yul\":20401:20412   */\n      sload\n        /* \"#utility.yul\":20375:20413   */\n      tag_147\n      jump\t// in\n    tag_606:\n        /* \"#utility.yul\":20369:20373   */\n      dup5\n        /* \"#utility.yul\":20325:20422   */\n      tag_488\n      jump\t// in\n    tag_605:\n        /* \"#utility.yul\":20477:20481   */\n      0x20\n      dup1\n        /* \"#utility.yul\":20534:20536   */\n      0x1f\n        /* \"#utility.yul\":20523:20537   */\n      dup4\n      gt\n        /* \"#utility.yul\":20551:20552   */\n      0x01\n        /* \"#utility.yul\":20546:21209   */\n      dup2\n      eq\n      tag_608\n      jumpi\n        /* \"#utility.yul\":21253:21254   */\n      0x00\n        /* \"#utility.yul\":21270:21276   */\n      dup5\n        /* \"#utility.yul\":21267:21356   */\n      iszero\n      tag_609\n      jumpi\n      pop\n        /* \"#utility.yul\":21322:21341   */\n      dup6\n      dup4\n      add\n        /* \"#utility.yul\":21316:21342   */\n      mload\n        /* \"#utility.yul\":21267:21356   */\n    tag_609:\n      not(0x00)\n        /* \"#utility.yul\":20078:20079   */\n      0x03\n        /* \"#utility.yul\":20074:20085   */\n      dup7\n      swap1\n      shl\n        /* \"#utility.yul\":20070:20094   */\n      shr\n        /* \"#utility.yul\":20066:20095   */\n      not\n        /* \"#utility.yul\":20056:20096   */\n      and\n        /* \"#utility.yul\":20102:20103   */\n      0x01\n        /* \"#utility.yul\":20098:20109   */\n      dup6\n      swap1\n      shl\n        /* \"#utility.yul\":20053:20110   */\n      or\n        /* \"#utility.yul\":21369:21450   */\n      dup6\n      sstore\n        /* \"#utility.yul\":20516:21460   */\n      jump(tag_607)\n        /* \"#utility.yul\":20546:21209   */\n    tag_608:\n        /* \"#utility.yul\":19374:19375   */\n      0x00\n        /* \"#utility.yul\":19367:19381   */\n      dup6\n      dup2\n      mstore\n        /* \"#utility.yul\":19411:19415   */\n      0x20\n        /* \"#utility.yul\":19398:19416   */\n      dup2\n      keccak256\n      not(0x1f)\n        /* \"#utility.yul\":20582:20602   */\n      dup7\n      and\n      swap2\n        /* \"#utility.yul\":20700:20936   */\n    tag_612:\n        /* \"#utility.yul\":20714:20721   */\n      dup3\n        /* \"#utility.yul\":20711:20712   */\n      dup2\n        /* \"#utility.yul\":20708:20722   */\n      lt\n        /* \"#utility.yul\":20700:20936   */\n      iszero\n      tag_614\n      jumpi\n        /* \"#utility.yul\":20803:20822   */\n      dup9\n      dup7\n      add\n        /* \"#utility.yul\":20797:20823   */\n      mload\n        /* \"#utility.yul\":20782:20824   */\n      dup3\n      sstore\n        /* \"#utility.yul\":20895:20922   */\n      swap5\n      dup5\n      add\n      swap5\n        /* \"#utility.yul\":20863:20864   */\n      0x01\n        /* \"#utility.yul\":20851:20865   */\n      swap1\n      swap2\n      add\n      swap1\n        /* \"#utility.yul\":20730:20749   */\n      dup5\n      add\n        /* \"#utility.yul\":20700:20936   */\n      jump(tag_612)\n    tag_614:\n        /* \"#utility.yul\":20704:20707   */\n      pop\n        /* \"#utility.yul\":20964:20970   */\n      dup6\n        /* \"#utility.yul\":20955:20962   */\n      dup3\n        /* \"#utility.yul\":20952:20971   */\n      lt\n        /* \"#utility.yul\":20949:21150   */\n      iszero\n      tag_615\n      jumpi\n        /* \"#utility.yul\":21025:21044   */\n      dup8\n      dup6\n      add\n        /* \"#utility.yul\":21019:21045   */\n      mload\n      not(0x00)\n        /* \"#utility.yul\":21108:21109   */\n      0x03\n        /* \"#utility.yul\":21104:21118   */\n      dup9\n      swap1\n      shl\n        /* \"#utility.yul\":21120:21123   */\n      0xf8\n        /* \"#utility.yul\":21100:21124   */\n      and\n        /* \"#utility.yul\":21096:21133   */\n      shr\n        /* \"#utility.yul\":21092:21134   */\n      not\n        /* \"#utility.yul\":21077:21135   */\n      and\n        /* \"#utility.yul\":21062:21136   */\n      dup2\n      sstore\n        /* \"#utility.yul\":20949:21150   */\n    tag_615:\n      pop\n      pop\n        /* \"#utility.yul\":21196:21197   */\n      0x01\n        /* \"#utility.yul\":21187:21193   */\n      dup5\n        /* \"#utility.yul\":21184:21185   */\n      0x01\n        /* \"#utility.yul\":21180:21194   */\n      shl\n        /* \"#utility.yul\":21176:21198   */\n      add\n        /* \"#utility.yul\":21170:21174   */\n      dup6\n        /* \"#utility.yul\":21163:21199   */\n      sstore\n        /* \"#utility.yul\":20516:21460   */\n    tag_607:\n      pop\n      pop\n      pop\n      pop\n        /* \"#utility.yul\":20121:21466   */\n      pop\n      pop\n      jump\t// out\n        /* \"#utility.yul\":21471:21854   */\n    tag_405:\n        /* \"#utility.yul\":21668:21670   */\n      0x40\n        /* \"#utility.yul\":21657:21666   */\n      dup2\n        /* \"#utility.yul\":21650:21671   */\n      mstore\n        /* \"#utility.yul\":21631:21635   */\n      0x00\n        /* \"#utility.yul\":21694:21739   */\n      tag_617\n        /* \"#utility.yul\":21735:21737   */\n      0x40\n        /* \"#utility.yul\":21724:21733   */\n      dup4\n        /* \"#utility.yul\":21720:21738   */\n      add\n        /* \"#utility.yul\":21712:21718   */\n      dup6\n        /* \"#utility.yul\":21694:21739   */\n      tag_484\n      jump\t// in\n    tag_617:\n        /* \"#utility.yul\":21787:21796   */\n      dup3\n        /* \"#utility.yul\":21779:21785   */\n      dup2\n        /* \"#utility.yul\":21775:21797   */\n      sub\n        /* \"#utility.yul\":21770:21772   */\n      0x20\n        /* \"#utility.yul\":21759:21768   */\n      dup5\n        /* \"#utility.yul\":21755:21773   */\n      add\n        /* \"#utility.yul\":21748:21798   */\n      mstore\n        /* \"#utility.yul\":21815:21848   */\n      tag_618\n        /* \"#utility.yul\":21841:21847   */\n      dup2\n        /* \"#utility.yul\":21833:21839   */\n      dup6\n        /* \"#utility.yul\":21815:21848   */\n      tag_484\n      jump\t// in\n    tag_618:\n        /* \"#utility.yul\":21807:21848   */\n      swap6\n        /* \"#utility.yul\":21471:21854   */\n      swap5\n      pop\n      pop\n      pop\n      pop\n      pop\n      jump\t// out\n        /* \"#utility.yul\":21859:22160   */\n    tag_423:\n        /* \"#utility.yul\":21988:21991   */\n      0x00\n        /* \"#utility.yul\":22026:22032   */\n      dup3\n        /* \"#utility.yul\":22020:22033   */\n      mload\n        /* \"#utility.yul\":22072:22078   */\n      dup1\n        /* \"#utility.yul\":22065:22069   */\n      0x20\n        /* \"#utility.yul\":22057:22063   */\n      dup6\n        /* \"#utility.yul\":22053:22070   */\n      add\n        /* \"#utility.yul\":22048:22051   */\n      dup5\n        /* \"#utility.yul\":22042:22079   */\n      mcopy\n        /* \"#utility.yul\":22134:22135   */\n      0x00\n        /* \"#utility.yul\":22098:22114   */\n      swap3\n      add\n        /* \"#utility.yul\":22123:22136   */\n      swap2\n      dup3\n      mstore\n      pop\n        /* \"#utility.yul\":22098:22114   */\n      swap2\n        /* \"#utility.yul\":21859:22160   */\n      swap1\n      pop\n      jump\t// out\n        /* \"#utility.yul\":22568:22695   */\n    tag_440:\n        /* \"#utility.yul\":22629:22639   */\n      0x4e487b71\n        /* \"#utility.yul\":22624:22627   */\n      0xe0\n        /* \"#utility.yul\":22620:22640   */\n      shl\n        /* \"#utility.yul\":22617:22618   */\n      0x00\n        /* \"#utility.yul\":22610:22641   */\n      mstore\n        /* \"#utility.yul\":22660:22664   */\n      0x21\n        /* \"#utility.yul\":22657:22658   */\n      0x04\n        /* \"#utility.yul\":22650:22665   */\n      mstore\n        /* \"#utility.yul\":22684:22688   */\n      0x24\n        /* \"#utility.yul\":22681:22682   */\n      0x00\n        /* \"#utility.yul\":22674:22689   */\n      revert\n    stop\n    data_9fdcd12e4b726339b32a442b0a448365d5d85c96b2d2cff917b4f66c63110398 416464726573733a206c6f772d6c6576656c2064656c65676174652063616c6c206661696c6564\n\n    auxdata: 0xa264697066735822122007dbc48a2801dfd343722bf34932a553eb0c937195cfb40f1df3568520f3f30864736f6c63430008190033\n}\n",
    "bytecode": {
      "linkReferences": {},
      "object": "6101006040527f6e71edae12b1b97f4d1f60370fef10105fa2faae0126114a169c64845d6126c960e052348015610034575f80fd5b5060405161288c38038061288c833981016040819052610053916102b1565b80838381818181600561006683826103b4565b50600661007382826103b4565b50504660a052503060c0526100866100a0565b60805250610095905083610134565b505050505050610473565b5f7f8b73c3c69bb8fe3d512ecc4cf759cc79239f7b179b0ffacaa9a75d522b39400f6100ca610185565b80516020918201206040805192830193909352918101919091527fc89efdaa54c0f20c7adf612882df0950f5a951637e0307cdcb4c672f298b8bc660608201524660808201523060a082015260c00160405160208183030381529060405280519060200120905090565b600180546001600160a01b038381166001600160a01b0319831681179093556040519116919082907f8292fce18fa69edf4db7b94ea2e58241df0ae57f97e0a6c9b29067028bf92d76905f90a35050565b60606005805461019490610330565b80601f01602080910402602001604051908101604052809291908181526020018280546101c090610330565b801561020b5780601f106101e25761010080835404028352916020019161020b565b820191905f5260205f20905b8154815290600101906020018083116101ee57829003601f168201915b5050505050905090565b634e487b7160e01b5f52604160045260245ffd5b5f82601f830112610238575f80fd5b81516001600160401b038082111561025257610252610215565b604051601f8301601f19908116603f0116810190828211818310171561027a5761027a610215565b81604052838152866020858801011115610292575f80fd5b8360208701602083015e5f602085830101528094505050505092915050565b5f805f606084860312156102c3575f80fd5b83516001600160401b03808211156102d9575f80fd5b6102e587838801610229565b945060208601519150808211156102fa575f80fd5b5061030786828701610229565b604086015190935090506001600160a01b0381168114610325575f80fd5b809150509250925092565b600181811c9082168061034457607f821691505b60208210810361036257634e487b7160e01b5f52602260045260245ffd5b50919050565b601f8211156103af57805f5260205f20601f840160051c8101602085101561038d5750805b601f840160051c820191505b818110156103ac575f8155600101610399565b50505b505050565b81516001600160401b038111156103cd576103cd610215565b6103e1816103db8454610330565b84610368565b602080601f831160018114610414575f84156103fd5750858301515b5f19600386901b1c1916600185901b17855561046b565b5f85815260208120601f198616915b8281101561044257888601518255948401946001909101908401610423565b508582101561045f57878501515f19600388901b60f8161c191681555b505060018460011b0185555b505050505050565b60805160a05160c05160e0516123e66104a65f395f610e0601525f6105b601525f6105e001525f61060a01526123e65ff3fe608060405234801561000f575f80fd5b50600436106101a5575f3560e01c80637261fa29116100e8578063a457c2d711610093578063d505accf1161006e578063d505accf146103ae578063dd62ed3e146103c1578063e8a3d485146103f9578063e9e90ab614610401575f80fd5b8063a457c2d714610368578063a9059cbb1461037b578063ac9650d81461038e575f80fd5b80638da5cb5b116100c35780638da5cb5b14610332578063938e3d7b1461034d57806395d89b4114610360575f80fd5b80637261fa29146102cf57806379cc67901461030c5780637ecebe001461031f575f80fd5b8063313ce5671161015357806342966c681161012e57806342966c681461026e578063449a52f8146102815780636192bd3f1461029457806370a08231146102a7575f80fd5b8063313ce567146102445780633644e51514610253578063395093511461025b575f80fd5b806313af40351161018357806313af40351461020a57806318160ddd1461021f57806323b872dd14610231575f80fd5b806306fdde03146101a95780630952430e146101c7578063095ea7b3146101e7575b5f80fd5b6101b1610414565b6040516101be9190611d89565b60405180910390f35b6101da6101d5366004611d9b565b6104a4565b6040516101be9190611db2565b6101fa6101f5366004611e39565b61053d565b60405190151581526020016101be565b61021d610218366004611e61565b610556565b005b6004545b6040519081526020016101be565b6101fa61023f366004611e7a565b610587565b604051601281526020016101be565b6102236105aa565b6101fa610269366004611e39565b610639565b61021d61027c366004611d9b565b610677565b61021d61028f366004611e39565b6106e4565b61021d6102a2366004611eb3565b610795565b6102236102b5366004611e61565b6001600160a01b03165f9081526002602052604090205490565b6102e26102dd366004611ee9565b6109dd565b604080516001600160a01b03909516855260208501939093529183015260608201526080016101be565b61021d61031a366004611e39565b610a29565b61022361032d366004611e61565b610b3f565b6001546040516001600160a01b0390911681526020016101be565b61021d61035b366004611f1d565b610b5c565b6101b1610b8a565b6101fa610376366004611e39565b610b99565b6101fa610389366004611e39565b610c42565b6103a161039c366004611fc8565b610c4f565b6040516101be9190612037565b61021d6103bc366004612099565b610db3565b6102236103cf366004612106565b6001600160a01b039182165f90815260036020908152604080832093909416825291909152205490565b6101b1610f36565b61021d61040f366004611eb3565b610fc1565b60606005805461042390612137565b80601f016020809104026020016040519081016040528092919081815260200182805461044f90612137565b801561049a5780601f106104715761010080835404028352916020019161049a565b820191905f5260205f20905b81548152906001019060200180831161047d57829003601f168201915b5050505050905090565b606060085f8381526020019081526020015f20805480602002602001604051908101604052809291908181526020015f905b82821015610532575f848152602090819020604080516080810182526004860290920180546001600160a01b031683526001808201548486015260028201549284019290925260030154606083015290835290920191016104d6565b505050509050919050565b5f3361054a8185856111ff565b60019150505b92915050565b61055e611322565b61057b576040516316ccb9cb60e11b815260040160405180910390fd5b6105848161134e565b50565b5f336105948582856113ac565b61059f85858561143c565b506001949350505050565b5f306001600160a01b037f00000000000000000000000000000000000000000000000000000000000000001614801561060257507f000000000000000000000000000000000000000000000000000000000000000046145b1561062c57507f000000000000000000000000000000000000000000000000000000000000000090565b610634611637565b905090565b335f8181526003602090815260408083206001600160a01b038716845290915281205490919061054a908290869061067290879061217d565b6111ff565b335f908152600260205260409020548111156106da5760405162461bcd60e51b815260206004820152601260248201527f6e6f7420656e6f7567682062616c616e6365000000000000000000000000000060448201526064015b60405180910390fd5b61058433826116cb565b6106ec611322565b6107385760405162461bcd60e51b815260206004820152601760248201527f4e6f7420617574686f72697a656420746f206d696e742e00000000000000000060448201526064016106d1565b805f036107875760405162461bcd60e51b815260206004820152601460248201527f4d696e74696e67207a65726f20746f6b656e732e00000000000000000000000060448201526064016106d1565b6107918282611816565b5050565b6001546001600160a01b031633146107ef5760405162461bcd60e51b815260206004820152601760248201527f43616c6c6572206973206e6f7420746865206f776e657200000000000000000060448201526064016106d1565b6001600160a01b0384166108455760405162461bcd60e51b815260206004820152601b60248201527f43616e6e6f74206d696e7420746f207a65726f2061646472657373000000000060448201526064016106d1565b5f83116108945760405162461bcd60e51b815260206004820181905260248201527f416d6f756e74206d7573742062652067726561746572207468616e207a65726f60448201526064016106d1565b606481111561090b5760405162461bcd60e51b815260206004820152602b60248201527f4172746973742070657263656e74616765206d7573742062652062657477656560448201527f6e203020616e642031303000000000000000000000000000000000000000000060648201526084016106d1565b6109158484611816565b5f82815260086020908152604080832081516080810183526001600160a01b038981168083528286018881528386018881524260608601908152865460018082018955978b529989902095516004909a02909501805473ffffffffffffffffffffffffffffffffffffffff191699909416989098178355519382019390935594516002860155516003909401939093555183815284917f75e67a6a544582800fdaf0b824693bdc4bdefdf817f7a2528a74ee7443b627c191015b60405180910390a350505050565b6008602052815f5260405f2081815481106109f6575f80fd5b5f91825260209091206004909102018054600182015460028301546003909301546001600160a01b039092169450925084565b610a31611322565b610a7d5760405162461bcd60e51b815260206004820152601760248201527f4e6f7420617574686f72697a656420746f206275726e2e00000000000000000060448201526064016106d1565b80610a9c836001600160a01b03165f9081526002602052604090205490565b1015610aea5760405162461bcd60e51b815260206004820152601260248201527f6e6f7420656e6f7567682062616c616e6365000000000000000000000000000060448201526064016106d1565b6001600160a01b0382165f908152600360209081526040808320338452909152812054610b18908390612190565b9050610b2583335f6111ff565b610b308333836111ff565b610b3a83836116cb565b505050565b6001600160a01b0381165f90815260076020526040812054610550565b610b64611322565b610b8157604051639f7f092560e01b815260040160405180910390fd5b610584816118f2565b60606006805461042390612137565b335f8181526003602090815260408083206001600160a01b038716845290915281205490919083811015610c355760405162461bcd60e51b815260206004820152602560248201527f45524332303a2064656372656173656420616c6c6f77616e63652062656c6f7760448201527f207a65726f00000000000000000000000000000000000000000000000000000060648201526084016106d1565b61059f82868684036111ff565b5f3361054a81858561143c565b60608167ffffffffffffffff811115610c6a57610c6a611f09565b604051908082528060200260200182016040528015610c9d57816020015b6060815260200190600190039081610c885790505b509050335f805b84811015610daa578115610d2357610d0130878784818110610cc857610cc86121a3565b9050602002810190610cda91906121b7565b86604051602001610ced93929190612201565b6040516020818303038152906040526119c9565b848281518110610d1357610d136121a3565b6020026020010181905250610da2565b610d8430878784818110610d3957610d396121a3565b9050602002810190610d4b91906121b7565b8080601f0160208091040260200160405190810160405280939291908181526020018383808284375f920191909152506119c992505050565b848281518110610d9657610d966121a3565b60200260200101819052505b600101610ca4565b50505092915050565b83421115610e035760405162461bcd60e51b815260206004820152601d60248201527f45524332305065726d69743a206578706972656420646561646c696e6500000060448201526064016106d1565b5f7f0000000000000000000000000000000000000000000000000000000000000000888888610e318c6119f5565b6040805160208101969096526001600160a01b0394851690860152929091166060840152608083015260a082015260c0810186905260e0016040516020818303038152906040528051906020012090505f610ead610e8d6105aa565b8360405161190160f01b8152600281019290925260228201526042902090565b90505f610ebc82878787611a1c565b9050896001600160a01b0316816001600160a01b031614610f1f5760405162461bcd60e51b815260206004820152601e60248201527f45524332305065726d69743a20696e76616c6964207369676e6174757265000060448201526064016106d1565b610f2a8a8a8a6111ff565b50505050505050505050565b5f8054610f4290612137565b80601f0160208091040260200160405190810160405280929190818152602001828054610f6e90612137565b8015610fb95780601f10610f9057610100808354040283529160200191610fb9565b820191905f5260205f20905b815481529060010190602001808311610f9c57829003601f168201915b505050505081565b6001546001600160a01b0316331461101b5760405162461bcd60e51b815260206004820152601760248201527f43616c6c6572206973206e6f7420746865206f776e657200000000000000000060448201526064016106d1565b6001600160a01b0384166110715760405162461bcd60e51b815260206004820152601b60248201527f43616e6e6f74206d696e7420746f207a65726f2061646472657373000000000060448201526064016106d1565b5f83116110c05760405162461bcd60e51b815260206004820181905260248201527f416d6f756e74206d7573742062652067726561746572207468616e207a65726f60448201526064016106d1565b60648111156111375760405162461bcd60e51b815260206004820152602860248201527f46616e2070657263656e74616765206d757374206265206265747765656e203060448201527f20616e642031303000000000000000000000000000000000000000000000000060648201526084016106d1565b6111418484611816565b5f82815260086020908152604080832081516080810183526001600160a01b038981168083528286018781528386018981524260608601908152865460018082018955978b529989902095516004909a02909501805473ffffffffffffffffffffffffffffffffffffffff191699909416989098178355519382019390935594516002860155516003909401939093555183815284917f1856352762786cd7e9a26008bb6570b1f0c3a04be39c9f60df7ac6d231be40ff91016109cf565b6001600160a01b0383166112615760405162461bcd60e51b8152602060048201526024808201527f45524332303a20617070726f76652066726f6d20746865207a65726f206164646044820152637265737360e01b60648201526084016106d1565b6001600160a01b0382166112c25760405162461bcd60e51b815260206004820152602260248201527f45524332303a20617070726f766520746f20746865207a65726f206164647265604482015261737360f01b60648201526084016106d1565b6001600160a01b038381165f8181526003602090815260408083209487168084529482529182902085905590518481527f8c5be1e5ebec7d5bd14f71427d1e84f3dd0314c0f7b2291e5b200ac8c7c3b925910160405180910390a3505050565b5f6113356001546001600160a01b031690565b6001600160a01b0316336001600160a01b031614905090565b600180546001600160a01b0383811673ffffffffffffffffffffffffffffffffffffffff19831681179093556040519116919082907f8292fce18fa69edf4db7b94ea2e58241df0ae57f97e0a6c9b29067028bf92d76905f90a35050565b6001600160a01b038381165f908152600360209081526040808320938616835292905220545f19811461143657818110156114295760405162461bcd60e51b815260206004820152601d60248201527f45524332303a20696e73756666696369656e7420616c6c6f77616e636500000060448201526064016106d1565b61143684848484036111ff565b50505050565b6001600160a01b0383166114b85760405162461bcd60e51b815260206004820152602560248201527f45524332303a207472616e736665722066726f6d20746865207a65726f20616460448201527f647265737300000000000000000000000000000000000000000000000000000060648201526084016106d1565b6001600160a01b03821661151a5760405162461bcd60e51b815260206004820152602360248201527f45524332303a207472616e7366657220746f20746865207a65726f206164647260448201526265737360e81b60648201526084016106d1565b6001600160a01b0383165f90815260026020526040902054818110156115a85760405162461bcd60e51b815260206004820152602660248201527f45524332303a207472616e7366657220616d6f756e742065786365656473206260448201527f616c616e6365000000000000000000000000000000000000000000000000000060648201526084016106d1565b6001600160a01b038085165f908152600260205260408082208585039055918516815290812080548492906115de90849061217d565b92505081905550826001600160a01b0316846001600160a01b03167fddf252ad1be2c89b69c2b068fc378daa952ba7f163c4a11628f55a4df523b3ef8460405161162a91815260200190565b60405180910390a3611436565b5f7f8b73c3c69bb8fe3d512ecc4cf759cc79239f7b179b0ffacaa9a75d522b39400f611661610414565b80516020918201206040805192830193909352918101919091527fc89efdaa54c0f20c7adf612882df0950f5a951637e0307cdcb4c672f298b8bc660608201524660808201523060a082015260c00160405160208183030381529060405280519060200120905090565b6001600160a01b03821661172b5760405162461bcd60e51b815260206004820152602160248201527f45524332303a206275726e2066726f6d20746865207a65726f206164647265736044820152607360f81b60648201526084016106d1565b6001600160a01b0382165f908152600260205260409020548181101561179e5760405162461bcd60e51b815260206004820152602260248201527f45524332303a206275726e20616d6f756e7420657863656564732062616c616e604482015261636560f01b60648201526084016106d1565b6001600160a01b0383165f9081526002602052604081208383039055600480548492906117cc908490612190565b90915550506040518281525f906001600160a01b038516907fddf252ad1be2c89b69c2b068fc378daa952ba7f163c4a11628f55a4df523b3ef9060200160405180910390a3505050565b6001600160a01b03821661186c5760405162461bcd60e51b815260206004820152601f60248201527f45524332303a206d696e7420746f20746865207a65726f20616464726573730060448201526064016106d1565b8060045f82825461187d919061217d565b90915550506001600160a01b0382165f90815260026020526040812080548392906118a990849061217d565b90915550506040518181526001600160a01b038316905f907fddf252ad1be2c89b69c2b068fc378daa952ba7f163c4a11628f55a4df523b3ef9060200160405180910390a35050565b5f8080546118ff90612137565b80601f016020809104026020016040519081016040528092919081815260200182805461192b90612137565b80156119765780601f1061194d57610100808354040283529160200191611976565b820191905f5260205f20905b81548152906001019060200180831161195957829003601f168201915b50505050509050815f908161198b9190612272565b507fc9c7c3fe08b88b4df9d4d47ef47d2c43d55c025a0ba88ca442580ed9e7348a1681836040516119bd929190612332565b60405180910390a15050565b60606119ee838360405180606001604052806027815260200161238a60279139611a44565b9392505050565b6001600160a01b0381165f9081526007602052604090208054600181018255905b50919050565b5f805f611a2b87878787611ab8565b91509150611a3881611b75565b5090505b949350505050565b60605f80856001600160a01b031685604051611a60919061235f565b5f60405180830381855af49150503d805f8114611a98576040519150601f19603f3d011682016040523d82523d5f602084013e611a9d565b606091505b5091509150611aae86838387611cbe565b9695505050505050565b5f807f7fffffffffffffffffffffffffffffff5d576e7357a4501ddfe92f46681b20a0831115611aed57505f90506003611b6c565b604080515f8082526020820180845289905260ff881692820192909252606081018690526080810185905260019060a0016020604051602081039080840390855afa158015611b3e573d5f803e3d5ffd5b5050604051601f1901519150506001600160a01b038116611b66575f60019250925050611b6c565b91505f90505b94509492505050565b5f816004811115611b8857611b88612375565b03611b905750565b6001816004811115611ba457611ba4612375565b03611bf15760405162461bcd60e51b815260206004820152601860248201527f45434453413a20696e76616c6964207369676e6174757265000000000000000060448201526064016106d1565b6002816004811115611c0557611c05612375565b03611c525760405162461bcd60e51b815260206004820152601f60248201527f45434453413a20696e76616c6964207369676e6174757265206c656e6774680060448201526064016106d1565b6003816004811115611c6657611c66612375565b036105845760405162461bcd60e51b815260206004820152602260248201527f45434453413a20696e76616c6964207369676e6174757265202773272076616c604482015261756560f01b60648201526084016106d1565b60608315611d2c5782515f03611d25576001600160a01b0385163b611d255760405162461bcd60e51b815260206004820152601d60248201527f416464726573733a2063616c6c20746f206e6f6e2d636f6e747261637400000060448201526064016106d1565b5081611a3c565b611a3c8383815115611d415781518083602001fd5b8060405162461bcd60e51b81526004016106d19190611d89565b5f81518084528060208401602086015e5f602082860101526020601f19601f83011685010191505092915050565b602081525f6119ee6020830184611d5b565b5f60208284031215611dab575f80fd5b5035919050565b602080825282518282018190525f919060409081850190868401855b82811015611e1157815180516001600160a01b03168552868101518786015285810151868601526060908101519085015260809093019290850190600101611dce565b5091979650505050505050565b80356001600160a01b0381168114611e34575f80fd5b919050565b5f8060408385031215611e4a575f80fd5b611e5383611e1e565b946020939093013593505050565b5f60208284031215611e71575f80fd5b6119ee82611e1e565b5f805f60608486031215611e8c575f80fd5b611e9584611e1e565b9250611ea360208501611e1e565b9150604084013590509250925092565b5f805f8060808587031215611ec6575f80fd5b611ecf85611e1e565b966020860135965060408601359560600135945092505050565b5f8060408385031215611efa575f80fd5b50508035926020909101359150565b634e487b7160e01b5f52604160045260245ffd5b5f60208284031215611f2d575f80fd5b813567ffffffffffffffff80821115611f44575f80fd5b818401915084601f830112611f57575f80fd5b813581811115611f6957611f69611f09565b604051601f8201601f19908116603f01168101908382118183101715611f9157611f91611f09565b81604052828152876020848701011115611fa9575f80fd5b826020860160208301375f928101602001929092525095945050505050565b5f8060208385031215611fd9575f80fd5b823567ffffffffffffffff80821115611ff0575f80fd5b818501915085601f830112612003575f80fd5b813581811115612011575f80fd5b8660208260051b8501011115612025575f80fd5b60209290920196919550909350505050565b5f60208083016020845280855180835260408601915060408160051b8701019250602087015f5b8281101561208c57603f1988860301845261207a858351611d5b565b9450928501929085019060010161205e565b5092979650505050505050565b5f805f805f805f60e0888a0312156120af575f80fd5b6120b888611e1e565b96506120c660208901611e1e565b95506040880135945060608801359350608088013560ff811681146120e9575f80fd5b9699959850939692959460a0840135945060c09093013592915050565b5f8060408385031215612117575f80fd5b61212083611e1e565b915061212e60208401611e1e565b90509250929050565b600181811c9082168061214b57607f821691505b602082108103611a1657634e487b7160e01b5f52602260045260245ffd5b634e487b7160e01b5f52601160045260245ffd5b8082018082111561055057610550612169565b8181038181111561055057610550612169565b634e487b7160e01b5f52603260045260245ffd5b5f808335601e198436030181126121cc575f80fd5b83018035915067ffffffffffffffff8211156121e6575f80fd5b6020019150368190038213156121fa575f80fd5b9250929050565b8284823760609190911b6bffffffffffffffffffffffff19169101908152601401919050565b601f821115610b3a57805f5260205f20601f840160051c8101602085101561224c5750805b601f840160051c820191505b8181101561226b575f8155600101612258565b5050505050565b815167ffffffffffffffff81111561228c5761228c611f09565b6122a08161229a8454612137565b84612227565b602080601f8311600181146122d3575f84156122bc5750858301515b5f19600386901b1c1916600185901b17855561232a565b5f85815260208120601f198616915b82811015612301578886015182559484019460019091019084016122e2565b508582101561231e57878501515f19600388901b60f8161c191681555b505060018460011b0185555b505050505050565b604081525f6123446040830185611d5b565b82810360208401526123568185611d5b565b95945050505050565b5f82518060208501845e5f920191825250919050565b634e487b7160e01b5f52602160045260245ffdfe416464726573733a206c6f772d6c6576656c2064656c65676174652063616c6c206661696c6564a264697066735822122007dbc48a2801dfd343722bf34932a553eb0c937195cfb40f1df3568520f3f30864736f6c63430008190033",
      "opcodes": "PUSH2 0x100 PUSH1 0x40 MSTORE PUSH32 0x6E71EDAE12B1B97F4D1F60370FEF10105FA2FAAE0126114A169C64845D6126C9 PUSH1 0xE0 MSTORE CALLVALUE DUP1 ISZERO PUSH2 0x34 JUMPI PUSH0 DUP1 REVERT JUMPDEST POP PUSH1 0x40 MLOAD PUSH2 0x288C CODESIZE SUB DUP1 PUSH2 0x288C DUP4 CODECOPY DUP2 ADD PUSH1 0x40 DUP2 SWAP1 MSTORE PUSH2 0x53 SWAP2 PUSH2 0x2B1 JUMP JUMPDEST DUP1 DUP4 DUP4 DUP2 DUP2 DUP2 DUP2 PUSH1 0x5 PUSH2 0x66 DUP4 DUP3 PUSH2 0x3B4 JUMP JUMPDEST POP PUSH1 0x6 PUSH2 0x73 DUP3 DUP3 PUSH2 0x3B4 JUMP JUMPDEST POP POP CHAINID PUSH1 0xA0 MSTORE POP ADDRESS PUSH1 0xC0 MSTORE PUSH2 0x86 PUSH2 0xA0 JUMP JUMPDEST PUSH1 0x80 MSTORE POP PUSH2 0x95 SWAP1 POP DUP4 PUSH2 0x134 JUMP JUMPDEST POP POP POP POP POP POP PUSH2 0x473 JUMP JUMPDEST PUSH0 PUSH32 0x8B73C3C69BB8FE3D512ECC4CF759CC79239F7B179B0FFACAA9A75D522B39400F PUSH2 0xCA PUSH2 0x185 JUMP JUMPDEST DUP1 MLOAD PUSH1 0x20 SWAP2 DUP3 ADD KECCAK256 PUSH1 0x40 DUP1 MLOAD SWAP3 DUP4 ADD SWAP4 SWAP1 SWAP4 MSTORE SWAP2 DUP2 ADD SWAP2 SWAP1 SWAP2 MSTORE PUSH32 0xC89EFDAA54C0F20C7ADF612882DF0950F5A951637E0307CDCB4C672F298B8BC6 PUSH1 0x60 DUP3 ADD MSTORE CHAINID PUSH1 0x80 DUP3 ADD MSTORE ADDRESS PUSH1 0xA0 DUP3 ADD MSTORE PUSH1 0xC0 ADD PUSH1 0x40 MLOAD PUSH1 0x20 DUP2 DUP4 SUB SUB DUP2 MSTORE SWAP1 PUSH1 0x40 MSTORE DUP1 MLOAD SWAP1 PUSH1 0x20 ADD KECCAK256 SWAP1 POP SWAP1 JUMP JUMPDEST PUSH1 0x1 DUP1 SLOAD PUSH1 0x1 PUSH1 0x1 PUSH1 0xA0 SHL SUB DUP4 DUP2 AND PUSH1 0x1 PUSH1 0x1 PUSH1 0xA0 SHL SUB NOT DUP4 AND DUP2 OR SWAP1 SWAP4 SSTORE PUSH1 0x40 MLOAD SWAP2 AND SWAP2 SWAP1 DUP3 SWAP1 PUSH32 0x8292FCE18FA69EDF4DB7B94EA2E58241DF0AE57F97E0A6C9B29067028BF92D76 SWAP1 PUSH0 SWAP1 LOG3 POP POP JUMP JUMPDEST PUSH1 0x60 PUSH1 0x5 DUP1 SLOAD PUSH2 0x194 SWAP1 PUSH2 0x330 JUMP JUMPDEST DUP1 PUSH1 0x1F ADD PUSH1 0x20 DUP1 SWAP2 DIV MUL PUSH1 0x20 ADD PUSH1 0x40 MLOAD SWAP1 DUP2 ADD PUSH1 0x40 MSTORE DUP1 SWAP3 SWAP2 SWAP1 DUP2 DUP2 MSTORE PUSH1 0x20 ADD DUP3 DUP1 SLOAD PUSH2 0x1C0 SWAP1 PUSH2 0x330 JUMP JUMPDEST DUP1 ISZERO PUSH2 0x20B JUMPI DUP1 PUSH1 0x1F LT PUSH2 0x1E2 JUMPI PUSH2 0x100 DUP1 DUP4 SLOAD DIV MUL DUP4 MSTORE SWAP2 PUSH1 0x20 ADD SWAP2 PUSH2 0x20B JUMP JUMPDEST DUP3 ADD SWAP2 SWAP1 PUSH0 MSTORE PUSH1 0x20 PUSH0 KECCAK256 SWAP1 JUMPDEST DUP2 SLOAD DUP2 MSTORE SWAP1 PUSH1 0x1 ADD SWAP1 PUSH1 0x20 ADD DUP1 DUP4 GT PUSH2 0x1EE JUMPI DUP3 SWAP1 SUB PUSH1 0x1F AND DUP3 ADD SWAP2 JUMPDEST POP POP POP POP POP SWAP1 POP SWAP1 JUMP JUMPDEST PUSH4 0x4E487B71 PUSH1 0xE0 SHL PUSH0 MSTORE PUSH1 0x41 PUSH1 0x4 MSTORE PUSH1 0x24 PUSH0 REVERT JUMPDEST PUSH0 DUP3 PUSH1 0x1F DUP4 ADD SLT PUSH2 0x238 JUMPI PUSH0 DUP1 REVERT JUMPDEST DUP2 MLOAD PUSH1 0x1 PUSH1 0x1 PUSH1 0x40 SHL SUB DUP1 DUP3 GT ISZERO PUSH2 0x252 JUMPI PUSH2 0x252 PUSH2 0x215 JUMP JUMPDEST PUSH1 0x40 MLOAD PUSH1 0x1F DUP4 ADD PUSH1 0x1F NOT SWAP1 DUP2 AND PUSH1 0x3F ADD AND DUP2 ADD SWAP1 DUP3 DUP3 GT DUP2 DUP4 LT OR ISZERO PUSH2 0x27A JUMPI PUSH2 0x27A PUSH2 0x215 JUMP JUMPDEST DUP2 PUSH1 0x40 MSTORE DUP4 DUP2 MSTORE DUP7 PUSH1 0x20 DUP6 DUP9 ADD ADD GT ISZERO PUSH2 0x292 JUMPI PUSH0 DUP1 REVERT JUMPDEST DUP4 PUSH1 0x20 DUP8 ADD PUSH1 0x20 DUP4 ADD MCOPY PUSH0 PUSH1 0x20 DUP6 DUP4 ADD ADD MSTORE DUP1 SWAP5 POP POP POP POP POP SWAP3 SWAP2 POP POP JUMP JUMPDEST PUSH0 DUP1 PUSH0 PUSH1 0x60 DUP5 DUP7 SUB SLT ISZERO PUSH2 0x2C3 JUMPI PUSH0 DUP1 REVERT JUMPDEST DUP4 MLOAD PUSH1 0x1 PUSH1 0x1 PUSH1 0x40 SHL SUB DUP1 DUP3 GT ISZERO PUSH2 0x2D9 JUMPI PUSH0 DUP1 REVERT JUMPDEST PUSH2 0x2E5 DUP8 DUP4 DUP9 ADD PUSH2 0x229 JUMP JUMPDEST SWAP5 POP PUSH1 0x20 DUP7 ADD MLOAD SWAP2 POP DUP1 DUP3 GT ISZERO PUSH2 0x2FA JUMPI PUSH0 DUP1 REVERT JUMPDEST POP PUSH2 0x307 DUP7 DUP3 DUP8 ADD PUSH2 0x229 JUMP JUMPDEST PUSH1 0x40 DUP7 ADD MLOAD SWAP1 SWAP4 POP SWAP1 POP PUSH1 0x1 PUSH1 0x1 PUSH1 0xA0 SHL SUB DUP2 AND DUP2 EQ PUSH2 0x325 JUMPI PUSH0 DUP1 REVERT JUMPDEST DUP1 SWAP2 POP POP SWAP3 POP SWAP3 POP SWAP3 JUMP JUMPDEST PUSH1 0x1 DUP2 DUP2 SHR SWAP1 DUP3 AND DUP1 PUSH2 0x344 JUMPI PUSH1 0x7F DUP3 AND SWAP2 POP JUMPDEST PUSH1 0x20 DUP3 LT DUP2 SUB PUSH2 0x362 JUMPI PUSH4 0x4E487B71 PUSH1 0xE0 SHL PUSH0 MSTORE PUSH1 0x22 PUSH1 0x4 MSTORE PUSH1 0x24 PUSH0 REVERT JUMPDEST POP SWAP2 SWAP1 POP JUMP JUMPDEST PUSH1 0x1F DUP3 GT ISZERO PUSH2 0x3AF JUMPI DUP1 PUSH0 MSTORE PUSH1 0x20 PUSH0 KECCAK256 PUSH1 0x1F DUP5 ADD PUSH1 0x5 SHR DUP2 ADD PUSH1 0x20 DUP6 LT ISZERO PUSH2 0x38D JUMPI POP DUP1 JUMPDEST PUSH1 0x1F DUP5 ADD PUSH1 0x5 SHR DUP3 ADD SWAP2 POP JUMPDEST DUP2 DUP2 LT ISZERO PUSH2 0x3AC JUMPI PUSH0 DUP2 SSTORE PUSH1 0x1 ADD PUSH2 0x399 JUMP JUMPDEST POP POP JUMPDEST POP POP POP JUMP JUMPDEST DUP2 MLOAD PUSH1 0x1 PUSH1 0x1 PUSH1 0x40 SHL SUB DUP2 GT ISZERO PUSH2 0x3CD JUMPI PUSH2 0x3CD PUSH2 0x215 JUMP JUMPDEST PUSH2 0x3E1 DUP2 PUSH2 0x3DB DUP5 SLOAD PUSH2 0x330 JUMP JUMPDEST DUP5 PUSH2 0x368 JUMP JUMPDEST PUSH1 0x20 DUP1 PUSH1 0x1F DUP4 GT PUSH1 0x1 DUP2 EQ PUSH2 0x414 JUMPI PUSH0 DUP5 ISZERO PUSH2 0x3FD JUMPI POP DUP6 DUP4 ADD MLOAD JUMPDEST PUSH0 NOT PUSH1 0x3 DUP7 SWAP1 SHL SHR NOT AND PUSH1 0x1 DUP6 SWAP1 SHL OR DUP6 SSTORE PUSH2 0x46B JUMP JUMPDEST PUSH0 DUP6 DUP2 MSTORE PUSH1 0x20 DUP2 KECCAK256 PUSH1 0x1F NOT DUP7 AND SWAP2 JUMPDEST DUP3 DUP2 LT ISZERO PUSH2 0x442 JUMPI DUP9 DUP7 ADD MLOAD DUP3 SSTORE SWAP5 DUP5 ADD SWAP5 PUSH1 0x1 SWAP1 SWAP2 ADD SWAP1 DUP5 ADD PUSH2 0x423 JUMP JUMPDEST POP DUP6 DUP3 LT ISZERO PUSH2 0x45F JUMPI DUP8 DUP6 ADD MLOAD PUSH0 NOT PUSH1 0x3 DUP9 SWAP1 SHL PUSH1 0xF8 AND SHR NOT AND DUP2 SSTORE JUMPDEST POP POP PUSH1 0x1 DUP5 PUSH1 0x1 SHL ADD DUP6 SSTORE JUMPDEST POP POP POP POP POP POP JUMP JUMPDEST PUSH1 0x80 MLOAD PUSH1 0xA0 MLOAD PUSH1 0xC0 MLOAD PUSH1 0xE0 MLOAD PUSH2 0x23E6 PUSH2 0x4A6 PUSH0 CODECOPY PUSH0 PUSH2 0xE06 ADD MSTORE PUSH0 PUSH2 0x5B6 ADD MSTORE PUSH0 PUSH2 0x5E0 ADD MSTORE PUSH0 PUSH2 0x60A ADD MSTORE PUSH2 0x23E6 PUSH0 RETURN INVALID PUSH1 0x80 PUSH1 0x40 MSTORE CALLVALUE DUP1 ISZERO PUSH2 0xF JUMPI PUSH0 DUP1 REVERT JUMPDEST POP PUSH1 0x4 CALLDATASIZE LT PUSH2 0x1A5 JUMPI PUSH0 CALLDATALOAD PUSH1 0xE0 SHR DUP1 PUSH4 0x7261FA29 GT PUSH2 0xE8 JUMPI DUP1 PUSH4 0xA457C2D7 GT PUSH2 0x93 JUMPI DUP1 PUSH4 0xD505ACCF GT PUSH2 0x6E JUMPI DUP1 PUSH4 0xD505ACCF EQ PUSH2 0x3AE JUMPI DUP1 PUSH4 0xDD62ED3E EQ PUSH2 0x3C1 JUMPI DUP1 PUSH4 0xE8A3D485 EQ PUSH2 0x3F9 JUMPI DUP1 PUSH4 0xE9E90AB6 EQ PUSH2 0x401 JUMPI PUSH0 DUP1 REVERT JUMPDEST DUP1 PUSH4 0xA457C2D7 EQ PUSH2 0x368 JUMPI DUP1 PUSH4 0xA9059CBB EQ PUSH2 0x37B JUMPI DUP1 PUSH4 0xAC9650D8 EQ PUSH2 0x38E JUMPI PUSH0 DUP1 REVERT JUMPDEST DUP1 PUSH4 0x8DA5CB5B GT PUSH2 0xC3 JUMPI DUP1 PUSH4 0x8DA5CB5B EQ PUSH2 0x332 JUMPI DUP1 PUSH4 0x938E3D7B EQ PUSH2 0x34D JUMPI DUP1 PUSH4 0x95D89B41 EQ PUSH2 0x360 JUMPI PUSH0 DUP1 REVERT JUMPDEST DUP1 PUSH4 0x7261FA29 EQ PUSH2 0x2CF JUMPI DUP1 PUSH4 0x79CC6790 EQ PUSH2 0x30C JUMPI DUP1 PUSH4 0x7ECEBE00 EQ PUSH2 0x31F JUMPI PUSH0 DUP1 REVERT JUMPDEST DUP1 PUSH4 0x313CE567 GT PUSH2 0x153 JUMPI DUP1 PUSH4 0x42966C68 GT PUSH2 0x12E JUMPI DUP1 PUSH4 0x42966C68 EQ PUSH2 0x26E JUMPI DUP1 PUSH4 0x449A52F8 EQ PUSH2 0x281 JUMPI DUP1 PUSH4 0x6192BD3F EQ PUSH2 0x294 JUMPI DUP1 PUSH4 0x70A08231 EQ PUSH2 0x2A7 JUMPI PUSH0 DUP1 REVERT JUMPDEST DUP1 PUSH4 0x313CE567 EQ PUSH2 0x244 JUMPI DUP1 PUSH4 0x3644E515 EQ PUSH2 0x253 JUMPI DUP1 PUSH4 0x39509351 EQ PUSH2 0x25B JUMPI PUSH0 DUP1 REVERT JUMPDEST DUP1 PUSH4 0x13AF4035 GT PUSH2 0x183 JUMPI DUP1 PUSH4 0x13AF4035 EQ PUSH2 0x20A JUMPI DUP1 PUSH4 0x18160DDD EQ PUSH2 0x21F JUMPI DUP1 PUSH4 0x23B872DD EQ PUSH2 0x231 JUMPI PUSH0 DUP1 REVERT JUMPDEST DUP1 PUSH4 0x6FDDE03 EQ PUSH2 0x1A9 JUMPI DUP1 PUSH4 0x952430E EQ PUSH2 0x1C7 JUMPI DUP1 PUSH4 0x95EA7B3 EQ PUSH2 0x1E7 JUMPI JUMPDEST PUSH0 DUP1 REVERT JUMPDEST PUSH2 0x1B1 PUSH2 0x414 JUMP JUMPDEST PUSH1 0x40 MLOAD PUSH2 0x1BE SWAP2 SWAP1 PUSH2 0x1D89 JUMP JUMPDEST PUSH1 0x40 MLOAD DUP1 SWAP2 SUB SWAP1 RETURN JUMPDEST PUSH2 0x1DA PUSH2 0x1D5 CALLDATASIZE PUSH1 0x4 PUSH2 0x1D9B JUMP JUMPDEST PUSH2 0x4A4 JUMP JUMPDEST PUSH1 0x40 MLOAD PUSH2 0x1BE SWAP2 SWAP1 PUSH2 0x1DB2 JUMP JUMPDEST PUSH2 0x1FA PUSH2 0x1F5 CALLDATASIZE PUSH1 0x4 PUSH2 0x1E39 JUMP JUMPDEST PUSH2 0x53D JUMP JUMPDEST PUSH1 0x40 MLOAD SWAP1 ISZERO ISZERO DUP2 MSTORE PUSH1 0x20 ADD PUSH2 0x1BE JUMP JUMPDEST PUSH2 0x21D PUSH2 0x218 CALLDATASIZE PUSH1 0x4 PUSH2 0x1E61 JUMP JUMPDEST PUSH2 0x556 JUMP JUMPDEST STOP JUMPDEST PUSH1 0x4 SLOAD JUMPDEST PUSH1 0x40 MLOAD SWAP1 DUP2 MSTORE PUSH1 0x20 ADD PUSH2 0x1BE JUMP JUMPDEST PUSH2 0x1FA PUSH2 0x23F CALLDATASIZE PUSH1 0x4 PUSH2 0x1E7A JUMP JUMPDEST PUSH2 0x587 JUMP JUMPDEST PUSH1 0x40 MLOAD PUSH1 0x12 DUP2 MSTORE PUSH1 0x20 ADD PUSH2 0x1BE JUMP JUMPDEST PUSH2 0x223 PUSH2 0x5AA JUMP JUMPDEST PUSH2 0x1FA PUSH2 0x269 CALLDATASIZE PUSH1 0x4 PUSH2 0x1E39 JUMP JUMPDEST PUSH2 0x639 JUMP JUMPDEST PUSH2 0x21D PUSH2 0x27C CALLDATASIZE PUSH1 0x4 PUSH2 0x1D9B JUMP JUMPDEST PUSH2 0x677 JUMP JUMPDEST PUSH2 0x21D PUSH2 0x28F CALLDATASIZE PUSH1 0x4 PUSH2 0x1E39 JUMP JUMPDEST PUSH2 0x6E4 JUMP JUMPDEST PUSH2 0x21D PUSH2 0x2A2 CALLDATASIZE PUSH1 0x4 PUSH2 0x1EB3 JUMP JUMPDEST PUSH2 0x795 JUMP JUMPDEST PUSH2 0x223 PUSH2 0x2B5 CALLDATASIZE PUSH1 0x4 PUSH2 0x1E61 JUMP JUMPDEST PUSH1 0x1 PUSH1 0x1 PUSH1 0xA0 SHL SUB AND PUSH0 SWAP1 DUP2 MSTORE PUSH1 0x2 PUSH1 0x20 MSTORE PUSH1 0x40 SWAP1 KECCAK256 SLOAD SWAP1 JUMP JUMPDEST PUSH2 0x2E2 PUSH2 0x2DD CALLDATASIZE PUSH1 0x4 PUSH2 0x1EE9 JUMP JUMPDEST PUSH2 0x9DD JUMP JUMPDEST PUSH1 0x40 DUP1 MLOAD PUSH1 0x1 PUSH1 0x1 PUSH1 0xA0 SHL SUB SWAP1 SWAP6 AND DUP6 MSTORE PUSH1 0x20 DUP6 ADD SWAP4 SWAP1 SWAP4 MSTORE SWAP2 DUP4 ADD MSTORE PUSH1 0x60 DUP3 ADD MSTORE PUSH1 0x80 ADD PUSH2 0x1BE JUMP JUMPDEST PUSH2 0x21D PUSH2 0x31A CALLDATASIZE PUSH1 0x4 PUSH2 0x1E39 JUMP JUMPDEST PUSH2 0xA29 JUMP JUMPDEST PUSH2 0x223 PUSH2 0x32D CALLDATASIZE PUSH1 0x4 PUSH2 0x1E61 JUMP JUMPDEST PUSH2 0xB3F JUMP JUMPDEST PUSH1 0x1 SLOAD PUSH1 0x40 MLOAD PUSH1 0x1 PUSH1 0x1 PUSH1 0xA0 SHL SUB SWAP1 SWAP2 AND DUP2 MSTORE PUSH1 0x20 ADD PUSH2 0x1BE JUMP JUMPDEST PUSH2 0x21D PUSH2 0x35B CALLDATASIZE PUSH1 0x4 PUSH2 0x1F1D JUMP JUMPDEST PUSH2 0xB5C JUMP JUMPDEST PUSH2 0x1B1 PUSH2 0xB8A JUMP JUMPDEST PUSH2 0x1FA PUSH2 0x376 CALLDATASIZE PUSH1 0x4 PUSH2 0x1E39 JUMP JUMPDEST PUSH2 0xB99 JUMP JUMPDEST PUSH2 0x1FA PUSH2 0x389 CALLDATASIZE PUSH1 0x4 PUSH2 0x1E39 JUMP JUMPDEST PUSH2 0xC42 JUMP JUMPDEST PUSH2 0x3A1 PUSH2 0x39C CALLDATASIZE PUSH1 0x4 PUSH2 0x1FC8 JUMP JUMPDEST PUSH2 0xC4F JUMP JUMPDEST PUSH1 0x40 MLOAD PUSH2 0x1BE SWAP2 SWAP1 PUSH2 0x2037 JUMP JUMPDEST PUSH2 0x21D PUSH2 0x3BC CALLDATASIZE PUSH1 0x4 PUSH2 0x2099 JUMP JUMPDEST PUSH2 0xDB3 JUMP JUMPDEST PUSH2 0x223 PUSH2 0x3CF CALLDATASIZE PUSH1 0x4 PUSH2 0x2106 JUMP JUMPDEST PUSH1 0x1 PUSH1 0x1 PUSH1 0xA0 SHL SUB SWAP2 DUP3 AND PUSH0 SWAP1 DUP2 MSTORE PUSH1 0x3 PUSH1 0x20 SWAP1 DUP2 MSTORE PUSH1 0x40 DUP1 DUP4 KECCAK256 SWAP4 SWAP1 SWAP5 AND DUP3 MSTORE SWAP2 SWAP1 SWAP2 MSTORE KECCAK256 SLOAD SWAP1 JUMP JUMPDEST PUSH2 0x1B1 PUSH2 0xF36 JUMP JUMPDEST PUSH2 0x21D PUSH2 0x40F CALLDATASIZE PUSH1 0x4 PUSH2 0x1EB3 JUMP JUMPDEST PUSH2 0xFC1 JUMP JUMPDEST PUSH1 0x60 PUSH1 0x5 DUP1 SLOAD PUSH2 0x423 SWAP1 PUSH2 0x2137 JUMP JUMPDEST DUP1 PUSH1 0x1F ADD PUSH1 0x20 DUP1 SWAP2 DIV MUL PUSH1 0x20 ADD PUSH1 0x40 MLOAD SWAP1 DUP2 ADD PUSH1 0x40 MSTORE DUP1 SWAP3 SWAP2 SWAP1 DUP2 DUP2 MSTORE PUSH1 0x20 ADD DUP3 DUP1 SLOAD PUSH2 0x44F SWAP1 PUSH2 0x2137 JUMP JUMPDEST DUP1 ISZERO PUSH2 0x49A JUMPI DUP1 PUSH1 0x1F LT PUSH2 0x471 JUMPI PUSH2 0x100 DUP1 DUP4 SLOAD DIV MUL DUP4 MSTORE SWAP2 PUSH1 0x20 ADD SWAP2 PUSH2 0x49A JUMP JUMPDEST DUP3 ADD SWAP2 SWAP1 PUSH0 MSTORE PUSH1 0x20 PUSH0 KECCAK256 SWAP1 JUMPDEST DUP2 SLOAD DUP2 MSTORE SWAP1 PUSH1 0x1 ADD SWAP1 PUSH1 0x20 ADD DUP1 DUP4 GT PUSH2 0x47D JUMPI DUP3 SWAP1 SUB PUSH1 0x1F AND DUP3 ADD SWAP2 JUMPDEST POP POP POP POP POP SWAP1 POP SWAP1 JUMP JUMPDEST PUSH1 0x60 PUSH1 0x8 PUSH0 DUP4 DUP2 MSTORE PUSH1 0x20 ADD SWAP1 DUP2 MSTORE PUSH1 0x20 ADD PUSH0 KECCAK256 DUP1 SLOAD DUP1 PUSH1 0x20 MUL PUSH1 0x20 ADD PUSH1 0x40 MLOAD SWAP1 DUP2 ADD PUSH1 0x40 MSTORE DUP1 SWAP3 SWAP2 SWAP1 DUP2 DUP2 MSTORE PUSH1 0x20 ADD PUSH0 SWAP1 JUMPDEST DUP3 DUP3 LT ISZERO PUSH2 0x532 JUMPI PUSH0 DUP5 DUP2 MSTORE PUSH1 0x20 SWAP1 DUP2 SWAP1 KECCAK256 PUSH1 0x40 DUP1 MLOAD PUSH1 0x80 DUP2 ADD DUP3 MSTORE PUSH1 0x4 DUP7 MUL SWAP1 SWAP3 ADD DUP1 SLOAD PUSH1 0x1 PUSH1 0x1 PUSH1 0xA0 SHL SUB AND DUP4 MSTORE PUSH1 0x1 DUP1 DUP3 ADD SLOAD DUP5 DUP7 ADD MSTORE PUSH1 0x2 DUP3 ADD SLOAD SWAP3 DUP5 ADD SWAP3 SWAP1 SWAP3 MSTORE PUSH1 0x3 ADD SLOAD PUSH1 0x60 DUP4 ADD MSTORE SWAP1 DUP4 MSTORE SWAP1 SWAP3 ADD SWAP2 ADD PUSH2 0x4D6 JUMP JUMPDEST POP POP POP POP SWAP1 POP SWAP2 SWAP1 POP JUMP JUMPDEST PUSH0 CALLER PUSH2 0x54A DUP2 DUP6 DUP6 PUSH2 0x11FF JUMP JUMPDEST PUSH1 0x1 SWAP2 POP POP JUMPDEST SWAP3 SWAP2 POP POP JUMP JUMPDEST PUSH2 0x55E PUSH2 0x1322 JUMP JUMPDEST PUSH2 0x57B JUMPI PUSH1 0x40 MLOAD PUSH4 0x16CCB9CB PUSH1 0xE1 SHL DUP2 MSTORE PUSH1 0x4 ADD PUSH1 0x40 MLOAD DUP1 SWAP2 SUB SWAP1 REVERT JUMPDEST PUSH2 0x584 DUP2 PUSH2 0x134E JUMP JUMPDEST POP JUMP JUMPDEST PUSH0 CALLER PUSH2 0x594 DUP6 DUP3 DUP6 PUSH2 0x13AC JUMP JUMPDEST PUSH2 0x59F DUP6 DUP6 DUP6 PUSH2 0x143C JUMP JUMPDEST POP PUSH1 0x1 SWAP5 SWAP4 POP POP POP POP JUMP JUMPDEST PUSH0 ADDRESS PUSH1 0x1 PUSH1 0x1 PUSH1 0xA0 SHL SUB PUSH32 0x0 AND EQ DUP1 ISZERO PUSH2 0x602 JUMPI POP PUSH32 0x0 CHAINID EQ JUMPDEST ISZERO PUSH2 0x62C JUMPI POP PUSH32 0x0 SWAP1 JUMP JUMPDEST PUSH2 0x634 PUSH2 0x1637 JUMP JUMPDEST SWAP1 POP SWAP1 JUMP JUMPDEST CALLER PUSH0 DUP2 DUP2 MSTORE PUSH1 0x3 PUSH1 0x20 SWAP1 DUP2 MSTORE PUSH1 0x40 DUP1 DUP4 KECCAK256 PUSH1 0x1 PUSH1 0x1 PUSH1 0xA0 SHL SUB DUP8 AND DUP5 MSTORE SWAP1 SWAP2 MSTORE DUP2 KECCAK256 SLOAD SWAP1 SWAP2 SWAP1 PUSH2 0x54A SWAP1 DUP3 SWAP1 DUP7 SWAP1 PUSH2 0x672 SWAP1 DUP8 SWAP1 PUSH2 0x217D JUMP JUMPDEST PUSH2 0x11FF JUMP JUMPDEST CALLER PUSH0 SWAP1 DUP2 MSTORE PUSH1 0x2 PUSH1 0x20 MSTORE PUSH1 0x40 SWAP1 KECCAK256 SLOAD DUP2 GT ISZERO PUSH2 0x6DA JUMPI PUSH1 0x40 MLOAD PUSH3 0x461BCD PUSH1 0xE5 SHL DUP2 MSTORE PUSH1 0x20 PUSH1 0x4 DUP3 ADD MSTORE PUSH1 0x12 PUSH1 0x24 DUP3 ADD MSTORE PUSH32 0x6E6F7420656E6F7567682062616C616E63650000000000000000000000000000 PUSH1 0x44 DUP3 ADD MSTORE PUSH1 0x64 ADD JUMPDEST PUSH1 0x40 MLOAD DUP1 SWAP2 SUB SWAP1 REVERT JUMPDEST PUSH2 0x584 CALLER DUP3 PUSH2 0x16CB JUMP JUMPDEST PUSH2 0x6EC PUSH2 0x1322 JUMP JUMPDEST PUSH2 0x738 JUMPI PUSH1 0x40 MLOAD PUSH3 0x461BCD PUSH1 0xE5 SHL DUP2 MSTORE PUSH1 0x20 PUSH1 0x4 DUP3 ADD MSTORE PUSH1 0x17 PUSH1 0x24 DUP3 ADD MSTORE PUSH32 0x4E6F7420617574686F72697A656420746F206D696E742E000000000000000000 PUSH1 0x44 DUP3 ADD MSTORE PUSH1 0x64 ADD PUSH2 0x6D1 JUMP JUMPDEST DUP1 PUSH0 SUB PUSH2 0x787 JUMPI PUSH1 0x40 MLOAD PUSH3 0x461BCD PUSH1 0xE5 SHL DUP2 MSTORE PUSH1 0x20 PUSH1 0x4 DUP3 ADD MSTORE PUSH1 0x14 PUSH1 0x24 DUP3 ADD MSTORE PUSH32 0x4D696E74696E67207A65726F20746F6B656E732E000000000000000000000000 PUSH1 0x44 DUP3 ADD MSTORE PUSH1 0x64 ADD PUSH2 0x6D1 JUMP JUMPDEST PUSH2 0x791 DUP3 DUP3 PUSH2 0x1816 JUMP JUMPDEST POP POP JUMP JUMPDEST PUSH1 0x1 SLOAD PUSH1 0x1 PUSH1 0x1 PUSH1 0xA0 SHL SUB AND CALLER EQ PUSH2 0x7EF JUMPI PUSH1 0x40 MLOAD PUSH3 0x461BCD PUSH1 0xE5 SHL DUP2 MSTORE PUSH1 0x20 PUSH1 0x4 DUP3 ADD MSTORE PUSH1 0x17 PUSH1 0x24 DUP3 ADD MSTORE PUSH32 0x43616C6C6572206973206E6F7420746865206F776E6572000000000000000000 PUSH1 0x44 DUP3 ADD MSTORE PUSH1 0x64 ADD PUSH2 0x6D1 JUMP JUMPDEST PUSH1 0x1 PUSH1 0x1 PUSH1 0xA0 SHL SUB DUP5 AND PUSH2 0x845 JUMPI PUSH1 0x40 MLOAD PUSH3 0x461BCD PUSH1 0xE5 SHL DUP2 MSTORE PUSH1 0x20 PUSH1 0x4 DUP3 ADD MSTORE PUSH1 0x1B PUSH1 0x24 DUP3 ADD MSTORE PUSH32 0x43616E6E6F74206D696E7420746F207A65726F20616464726573730000000000 PUSH1 0x44 DUP3 ADD MSTORE PUSH1 0x64 ADD PUSH2 0x6D1 JUMP JUMPDEST PUSH0 DUP4 GT PUSH2 0x894 JUMPI PUSH1 0x40 MLOAD PUSH3 0x461BCD PUSH1 0xE5 SHL DUP2 MSTORE PUSH1 0x20 PUSH1 0x4 DUP3 ADD DUP2 SWAP1 MSTORE PUSH1 0x24 DUP3 ADD MSTORE PUSH32 0x416D6F756E74206D7573742062652067726561746572207468616E207A65726F PUSH1 0x44 DUP3 ADD MSTORE PUSH1 0x64 ADD PUSH2 0x6D1 JUMP JUMPDEST PUSH1 0x64 DUP2 GT ISZERO PUSH2 0x90B JUMPI PUSH1 0x40 MLOAD PUSH3 0x461BCD PUSH1 0xE5 SHL DUP2 MSTORE PUSH1 0x20 PUSH1 0x4 DUP3 ADD MSTORE PUSH1 0x2B PUSH1 0x24 DUP3 ADD MSTORE PUSH32 0x4172746973742070657263656E74616765206D75737420626520626574776565 PUSH1 0x44 DUP3 ADD MSTORE PUSH32 0x6E203020616E6420313030000000000000000000000000000000000000000000 PUSH1 0x64 DUP3 ADD MSTORE PUSH1 0x84 ADD PUSH2 0x6D1 JUMP JUMPDEST PUSH2 0x915 DUP5 DUP5 PUSH2 0x1816 JUMP JUMPDEST PUSH0 DUP3 DUP2 MSTORE PUSH1 0x8 PUSH1 0x20 SWAP1 DUP2 MSTORE PUSH1 0x40 DUP1 DUP4 KECCAK256 DUP2 MLOAD PUSH1 0x80 DUP2 ADD DUP4 MSTORE PUSH1 0x1 PUSH1 0x1 PUSH1 0xA0 SHL SUB DUP10 DUP2 AND DUP1 DUP4 MSTORE DUP3 DUP7 ADD DUP9 DUP2 MSTORE DUP4 DUP7 ADD DUP9 DUP2 MSTORE TIMESTAMP PUSH1 0x60 DUP7 ADD SWAP1 DUP2 MSTORE DUP7 SLOAD PUSH1 0x1 DUP1 DUP3 ADD DUP10 SSTORE SWAP8 DUP12 MSTORE SWAP10 DUP10 SWAP1 KECCAK256 SWAP6 MLOAD PUSH1 0x4 SWAP1 SWAP11 MUL SWAP1 SWAP6 ADD DUP1 SLOAD PUSH20 0xFFFFFFFFFFFFFFFFFFFFFFFFFFFFFFFFFFFFFFFF NOT AND SWAP10 SWAP1 SWAP5 AND SWAP9 SWAP1 SWAP9 OR DUP4 SSTORE MLOAD SWAP4 DUP3 ADD SWAP4 SWAP1 SWAP4 SSTORE SWAP5 MLOAD PUSH1 0x2 DUP7 ADD SSTORE MLOAD PUSH1 0x3 SWAP1 SWAP5 ADD SWAP4 SWAP1 SWAP4 SSTORE MLOAD DUP4 DUP2 MSTORE DUP5 SWAP2 PUSH32 0x75E67A6A544582800FDAF0B824693BDC4BDEFDF817F7A2528A74EE7443B627C1 SWAP2 ADD JUMPDEST PUSH1 0x40 MLOAD DUP1 SWAP2 SUB SWAP1 LOG3 POP POP POP POP JUMP JUMPDEST PUSH1 0x8 PUSH1 0x20 MSTORE DUP2 PUSH0 MSTORE PUSH1 0x40 PUSH0 KECCAK256 DUP2 DUP2 SLOAD DUP2 LT PUSH2 0x9F6 JUMPI PUSH0 DUP1 REVERT JUMPDEST PUSH0 SWAP2 DUP3 MSTORE PUSH1 0x20 SWAP1 SWAP2 KECCAK256 PUSH1 0x4 SWAP1 SWAP2 MUL ADD DUP1 SLOAD PUSH1 0x1 DUP3 ADD SLOAD PUSH1 0x2 DUP4 ADD SLOAD PUSH1 0x3 SWAP1 SWAP4 ADD SLOAD PUSH1 0x1 PUSH1 0x1 PUSH1 0xA0 SHL SUB SWAP1 SWAP3 AND SWAP5 POP SWAP3 POP DUP5 JUMP JUMPDEST PUSH2 0xA31 PUSH2 0x1322 JUMP JUMPDEST PUSH2 0xA7D JUMPI PUSH1 0x40 MLOAD PUSH3 0x461BCD PUSH1 0xE5 SHL DUP2 MSTORE PUSH1 0x20 PUSH1 0x4 DUP3 ADD MSTORE PUSH1 0x17 PUSH1 0x24 DUP3 ADD MSTORE PUSH32 0x4E6F7420617574686F72697A656420746F206275726E2E000000000000000000 PUSH1 0x44 DUP3 ADD MSTORE PUSH1 0x64 ADD PUSH2 0x6D1 JUMP JUMPDEST DUP1 PUSH2 0xA9C DUP4 PUSH1 0x1 PUSH1 0x1 PUSH1 0xA0 SHL SUB AND PUSH0 SWAP1 DUP2 MSTORE PUSH1 0x2 PUSH1 0x20 MSTORE PUSH1 0x40 SWAP1 KECCAK256 SLOAD SWAP1 JUMP JUMPDEST LT ISZERO PUSH2 0xAEA JUMPI PUSH1 0x40 MLOAD PUSH3 0x461BCD PUSH1 0xE5 SHL DUP2 MSTORE PUSH1 0x20 PUSH1 0x4 DUP3 ADD MSTORE PUSH1 0x12 PUSH1 0x24 DUP3 ADD MSTORE PUSH32 0x6E6F7420656E6F7567682062616C616E63650000000000000000000000000000 PUSH1 0x44 DUP3 ADD MSTORE PUSH1 0x64 ADD PUSH2 0x6D1 JUMP JUMPDEST PUSH1 0x1 PUSH1 0x1 PUSH1 0xA0 SHL SUB DUP3 AND PUSH0 SWAP1 DUP2 MSTORE PUSH1 0x3 PUSH1 0x20 SWAP1 DUP2 MSTORE PUSH1 0x40 DUP1 DUP4 KECCAK256 CALLER DUP5 MSTORE SWAP1 SWAP2 MSTORE DUP2 KECCAK256 SLOAD PUSH2 0xB18 SWAP1 DUP4 SWAP1 PUSH2 0x2190 JUMP JUMPDEST SWAP1 POP PUSH2 0xB25 DUP4 CALLER PUSH0 PUSH2 0x11FF JUMP JUMPDEST PUSH2 0xB30 DUP4 CALLER DUP4 PUSH2 0x11FF JUMP JUMPDEST PUSH2 0xB3A DUP4 DUP4 PUSH2 0x16CB JUMP JUMPDEST POP POP POP JUMP JUMPDEST PUSH1 0x1 PUSH1 0x1 PUSH1 0xA0 SHL SUB DUP2 AND PUSH0 SWAP1 DUP2 MSTORE PUSH1 0x7 PUSH1 0x20 MSTORE PUSH1 0x40 DUP2 KECCAK256 SLOAD PUSH2 0x550 JUMP JUMPDEST PUSH2 0xB64 PUSH2 0x1322 JUMP JUMPDEST PUSH2 0xB81 JUMPI PUSH1 0x40 MLOAD PUSH4 0x9F7F0925 PUSH1 0xE0 SHL DUP2 MSTORE PUSH1 0x4 ADD PUSH1 0x40 MLOAD DUP1 SWAP2 SUB SWAP1 REVERT JUMPDEST PUSH2 0x584 DUP2 PUSH2 0x18F2 JUMP JUMPDEST PUSH1 0x60 PUSH1 0x6 DUP1 SLOAD PUSH2 0x423 SWAP1 PUSH2 0x2137 JUMP JUMPDEST CALLER PUSH0 DUP2 DUP2 MSTORE PUSH1 0x3 PUSH1 0x20 SWAP1 DUP2 MSTORE PUSH1 0x40 DUP1 DUP4 KECCAK256 PUSH1 0x1 PUSH1 0x1 PUSH1 0xA0 SHL SUB DUP8 AND DUP5 MSTORE SWAP1 SWAP2 MSTORE DUP2 KECCAK256 SLOAD SWAP1 SWAP2 SWAP1 DUP4 DUP2 LT ISZERO PUSH2 0xC35 JUMPI PUSH1 0x40 MLOAD PUSH3 0x461BCD PUSH1 0xE5 SHL DUP2 MSTORE PUSH1 0x20 PUSH1 0x4 DUP3 ADD MSTORE PUSH1 0x25 PUSH1 0x24 DUP3 ADD MSTORE PUSH32 0x45524332303A2064656372656173656420616C6C6F77616E63652062656C6F77 PUSH1 0x44 DUP3 ADD MSTORE PUSH32 0x207A65726F000000000000000000000000000000000000000000000000000000 PUSH1 0x64 DUP3 ADD MSTORE PUSH1 0x84 ADD PUSH2 0x6D1 JUMP JUMPDEST PUSH2 0x59F DUP3 DUP7 DUP7 DUP5 SUB PUSH2 0x11FF JUMP JUMPDEST PUSH0 CALLER PUSH2 0x54A DUP2 DUP6 DUP6 PUSH2 0x143C JUMP JUMPDEST PUSH1 0x60 DUP2 PUSH8 0xFFFFFFFFFFFFFFFF DUP2 GT ISZERO PUSH2 0xC6A JUMPI PUSH2 0xC6A PUSH2 0x1F09 JUMP JUMPDEST PUSH1 0x40 MLOAD SWAP1 DUP1 DUP3 MSTORE DUP1 PUSH1 0x20 MUL PUSH1 0x20 ADD DUP3 ADD PUSH1 0x40 MSTORE DUP1 ISZERO PUSH2 0xC9D JUMPI DUP2 PUSH1 0x20 ADD JUMPDEST PUSH1 0x60 DUP2 MSTORE PUSH1 0x20 ADD SWAP1 PUSH1 0x1 SWAP1 SUB SWAP1 DUP2 PUSH2 0xC88 JUMPI SWAP1 POP JUMPDEST POP SWAP1 POP CALLER PUSH0 DUP1 JUMPDEST DUP5 DUP2 LT ISZERO PUSH2 0xDAA JUMPI DUP2 ISZERO PUSH2 0xD23 JUMPI PUSH2 0xD01 ADDRESS DUP8 DUP8 DUP5 DUP2 DUP2 LT PUSH2 0xCC8 JUMPI PUSH2 0xCC8 PUSH2 0x21A3 JUMP JUMPDEST SWAP1 POP PUSH1 0x20 MUL DUP2 ADD SWAP1 PUSH2 0xCDA SWAP2 SWAP1 PUSH2 0x21B7 JUMP JUMPDEST DUP7 PUSH1 0x40 MLOAD PUSH1 0x20 ADD PUSH2 0xCED SWAP4 SWAP3 SWAP2 SWAP1 PUSH2 0x2201 JUMP JUMPDEST PUSH1 0x40 MLOAD PUSH1 0x20 DUP2 DUP4 SUB SUB DUP2 MSTORE SWAP1 PUSH1 0x40 MSTORE PUSH2 0x19C9 JUMP JUMPDEST DUP5 DUP3 DUP2 MLOAD DUP2 LT PUSH2 0xD13 JUMPI PUSH2 0xD13 PUSH2 0x21A3 JUMP JUMPDEST PUSH1 0x20 MUL PUSH1 0x20 ADD ADD DUP2 SWAP1 MSTORE POP PUSH2 0xDA2 JUMP JUMPDEST PUSH2 0xD84 ADDRESS DUP8 DUP8 DUP5 DUP2 DUP2 LT PUSH2 0xD39 JUMPI PUSH2 0xD39 PUSH2 0x21A3 JUMP JUMPDEST SWAP1 POP PUSH1 0x20 MUL DUP2 ADD SWAP1 PUSH2 0xD4B SWAP2 SWAP1 PUSH2 0x21B7 JUMP JUMPDEST DUP1 DUP1 PUSH1 0x1F ADD PUSH1 0x20 DUP1 SWAP2 DIV MUL PUSH1 0x20 ADD PUSH1 0x40 MLOAD SWAP1 DUP2 ADD PUSH1 0x40 MSTORE DUP1 SWAP4 SWAP3 SWAP2 SWAP1 DUP2 DUP2 MSTORE PUSH1 0x20 ADD DUP4 DUP4 DUP1 DUP3 DUP5 CALLDATACOPY PUSH0 SWAP3 ADD SWAP2 SWAP1 SWAP2 MSTORE POP PUSH2 0x19C9 SWAP3 POP POP POP JUMP JUMPDEST DUP5 DUP3 DUP2 MLOAD DUP2 LT PUSH2 0xD96 JUMPI PUSH2 0xD96 PUSH2 0x21A3 JUMP JUMPDEST PUSH1 0x20 MUL PUSH1 0x20 ADD ADD DUP2 SWAP1 MSTORE POP JUMPDEST PUSH1 0x1 ADD PUSH2 0xCA4 JUMP JUMPDEST POP POP POP SWAP3 SWAP2 POP POP JUMP JUMPDEST DUP4 TIMESTAMP GT ISZERO PUSH2 0xE03 JUMPI PUSH1 0x40 MLOAD PUSH3 0x461BCD PUSH1 0xE5 SHL DUP2 MSTORE PUSH1 0x20 PUSH1 0x4 DUP3 ADD MSTORE PUSH1 0x1D PUSH1 0x24 DUP3 ADD MSTORE PUSH32 0x45524332305065726D69743A206578706972656420646561646C696E65000000 PUSH1 0x44 DUP3 ADD MSTORE PUSH1 0x64 ADD PUSH2 0x6D1 JUMP JUMPDEST PUSH0 PUSH32 0x0 DUP9 DUP9 DUP9 PUSH2 0xE31 DUP13 PUSH2 0x19F5 JUMP JUMPDEST PUSH1 0x40 DUP1 MLOAD PUSH1 0x20 DUP2 ADD SWAP7 SWAP1 SWAP7 MSTORE PUSH1 0x1 PUSH1 0x1 PUSH1 0xA0 SHL SUB SWAP5 DUP6 AND SWAP1 DUP7 ADD MSTORE SWAP3 SWAP1 SWAP2 AND PUSH1 0x60 DUP5 ADD MSTORE PUSH1 0x80 DUP4 ADD MSTORE PUSH1 0xA0 DUP3 ADD MSTORE PUSH1 0xC0 DUP2 ADD DUP7 SWAP1 MSTORE PUSH1 0xE0 ADD PUSH1 0x40 MLOAD PUSH1 0x20 DUP2 DUP4 SUB SUB DUP2 MSTORE SWAP1 PUSH1 0x40 MSTORE DUP1 MLOAD SWAP1 PUSH1 0x20 ADD KECCAK256 SWAP1 POP PUSH0 PUSH2 0xEAD PUSH2 0xE8D PUSH2 0x5AA JUMP JUMPDEST DUP4 PUSH1 0x40 MLOAD PUSH2 0x1901 PUSH1 0xF0 SHL DUP2 MSTORE PUSH1 0x2 DUP2 ADD SWAP3 SWAP1 SWAP3 MSTORE PUSH1 0x22 DUP3 ADD MSTORE PUSH1 0x42 SWAP1 KECCAK256 SWAP1 JUMP JUMPDEST SWAP1 POP PUSH0 PUSH2 0xEBC DUP3 DUP8 DUP8 DUP8 PUSH2 0x1A1C JUMP JUMPDEST SWAP1 POP DUP10 PUSH1 0x1 PUSH1 0x1 PUSH1 0xA0 SHL SUB AND DUP2 PUSH1 0x1 PUSH1 0x1 PUSH1 0xA0 SHL SUB AND EQ PUSH2 0xF1F JUMPI PUSH1 0x40 MLOAD PUSH3 0x461BCD PUSH1 0xE5 SHL DUP2 MSTORE PUSH1 0x20 PUSH1 0x4 DUP3 ADD MSTORE PUSH1 0x1E PUSH1 0x24 DUP3 ADD MSTORE PUSH32 0x45524332305065726D69743A20696E76616C6964207369676E61747572650000 PUSH1 0x44 DUP3 ADD MSTORE PUSH1 0x64 ADD PUSH2 0x6D1 JUMP JUMPDEST PUSH2 0xF2A DUP11 DUP11 DUP11 PUSH2 0x11FF JUMP JUMPDEST POP POP POP POP POP POP POP POP POP POP JUMP JUMPDEST PUSH0 DUP1 SLOAD PUSH2 0xF42 SWAP1 PUSH2 0x2137 JUMP JUMPDEST DUP1 PUSH1 0x1F ADD PUSH1 0x20 DUP1 SWAP2 DIV MUL PUSH1 0x20 ADD PUSH1 0x40 MLOAD SWAP1 DUP2 ADD PUSH1 0x40 MSTORE DUP1 SWAP3 SWAP2 SWAP1 DUP2 DUP2 MSTORE PUSH1 0x20 ADD DUP3 DUP1 SLOAD PUSH2 0xF6E SWAP1 PUSH2 0x2137 JUMP JUMPDEST DUP1 ISZERO PUSH2 0xFB9 JUMPI DUP1 PUSH1 0x1F LT PUSH2 0xF90 JUMPI PUSH2 0x100 DUP1 DUP4 SLOAD DIV MUL DUP4 MSTORE SWAP2 PUSH1 0x20 ADD SWAP2 PUSH2 0xFB9 JUMP JUMPDEST DUP3 ADD SWAP2 SWAP1 PUSH0 MSTORE PUSH1 0x20 PUSH0 KECCAK256 SWAP1 JUMPDEST DUP2 SLOAD DUP2 MSTORE SWAP1 PUSH1 0x1 ADD SWAP1 PUSH1 0x20 ADD DUP1 DUP4 GT PUSH2 0xF9C JUMPI DUP3 SWAP1 SUB PUSH1 0x1F AND DUP3 ADD SWAP2 JUMPDEST POP POP POP POP POP DUP2 JUMP JUMPDEST PUSH1 0x1 SLOAD PUSH1 0x1 PUSH1 0x1 PUSH1 0xA0 SHL SUB AND CALLER EQ PUSH2 0x101B JUMPI PUSH1 0x40 MLOAD PUSH3 0x461BCD PUSH1 0xE5 SHL DUP2 MSTORE PUSH1 0x20 PUSH1 0x4 DUP3 ADD MSTORE PUSH1 0x17 PUSH1 0x24 DUP3 ADD MSTORE PUSH32 0x43616C6C6572206973206E6F7420746865206F776E6572000000000000000000 PUSH1 0x44 DUP3 ADD MSTORE PUSH1 0x64 ADD PUSH2 0x6D1 JUMP JUMPDEST PUSH1 0x1 PUSH1 0x1 PUSH1 0xA0 SHL SUB DUP5 AND PUSH2 0x1071 JUMPI PUSH1 0x40 MLOAD PUSH3 0x461BCD PUSH1 0xE5 SHL DUP2 MSTORE PUSH1 0x20 PUSH1 0x4 DUP3 ADD MSTORE PUSH1 0x1B PUSH1 0x24 DUP3 ADD MSTORE PUSH32 0x43616E6E6F74206D696E7420746F207A65726F20616464726573730000000000 PUSH1 0x44 DUP3 ADD MSTORE PUSH1 0x64 ADD PUSH2 0x6D1 JUMP JUMPDEST PUSH0 DUP4 GT PUSH2 0x10C0 JUMPI PUSH1 0x40 MLOAD PUSH3 0x461BCD PUSH1 0xE5 SHL DUP2 MSTORE PUSH1 0x20 PUSH1 0x4 DUP3 ADD DUP2 SWAP1 MSTORE PUSH1 0x24 DUP3 ADD MSTORE PUSH32 0x416D6F756E74206D7573742062652067726561746572207468616E207A65726F PUSH1 0x44 DUP3 ADD MSTORE PUSH1 0x64 ADD PUSH2 0x6D1 JUMP JUMPDEST PUSH1 0x64 DUP2 GT ISZERO PUSH2 0x1137 JUMPI PUSH1 0x40 MLOAD PUSH3 0x461BCD PUSH1 0xE5 SHL DUP2 MSTORE PUSH1 0x20 PUSH1 0x4 DUP3 ADD MSTORE PUSH1 0x28 PUSH1 0x24 DUP3 ADD MSTORE PUSH32 0x46616E2070657263656E74616765206D757374206265206265747765656E2030 PUSH1 0x44 DUP3 ADD MSTORE PUSH32 0x20616E6420313030000000000000000000000000000000000000000000000000 PUSH1 0x64 DUP3 ADD MSTORE PUSH1 0x84 ADD PUSH2 0x6D1 JUMP JUMPDEST PUSH2 0x1141 DUP5 DUP5 PUSH2 0x1816 JUMP JUMPDEST PUSH0 DUP3 DUP2 MSTORE PUSH1 0x8 PUSH1 0x20 SWAP1 DUP2 MSTORE PUSH1 0x40 DUP1 DUP4 KECCAK256 DUP2 MLOAD PUSH1 0x80 DUP2 ADD DUP4 MSTORE PUSH1 0x1 PUSH1 0x1 PUSH1 0xA0 SHL SUB DUP10 DUP2 AND DUP1 DUP4 MSTORE DUP3 DUP7 ADD DUP8 DUP2 MSTORE DUP4 DUP7 ADD DUP10 DUP2 MSTORE TIMESTAMP PUSH1 0x60 DUP7 ADD SWAP1 DUP2 MSTORE DUP7 SLOAD PUSH1 0x1 DUP1 DUP3 ADD DUP10 SSTORE SWAP8 DUP12 MSTORE SWAP10 DUP10 SWAP1 KECCAK256 SWAP6 MLOAD PUSH1 0x4 SWAP1 SWAP11 MUL SWAP1 SWAP6 ADD DUP1 SLOAD PUSH20 0xFFFFFFFFFFFFFFFFFFFFFFFFFFFFFFFFFFFFFFFF NOT AND SWAP10 SWAP1 SWAP5 AND SWAP9 SWAP1 SWAP9 OR DUP4 SSTORE MLOAD SWAP4 DUP3 ADD SWAP4 SWAP1 SWAP4 SSTORE SWAP5 MLOAD PUSH1 0x2 DUP7 ADD SSTORE MLOAD PUSH1 0x3 SWAP1 SWAP5 ADD SWAP4 SWAP1 SWAP4 SSTORE MLOAD DUP4 DUP2 MSTORE DUP5 SWAP2 PUSH32 0x1856352762786CD7E9A26008BB6570B1F0C3A04BE39C9F60DF7AC6D231BE40FF SWAP2 ADD PUSH2 0x9CF JUMP JUMPDEST PUSH1 0x1 PUSH1 0x1 PUSH1 0xA0 SHL SUB DUP4 AND PUSH2 0x1261 JUMPI PUSH1 0x40 MLOAD PUSH3 0x461BCD PUSH1 0xE5 SHL DUP2 MSTORE PUSH1 0x20 PUSH1 0x4 DUP3 ADD MSTORE PUSH1 0x24 DUP1 DUP3 ADD MSTORE PUSH32 0x45524332303A20617070726F76652066726F6D20746865207A65726F20616464 PUSH1 0x44 DUP3 ADD MSTORE PUSH4 0x72657373 PUSH1 0xE0 SHL PUSH1 0x64 DUP3 ADD MSTORE PUSH1 0x84 ADD PUSH2 0x6D1 JUMP JUMPDEST PUSH1 0x1 PUSH1 0x1 PUSH1 0xA0 SHL SUB DUP3 AND PUSH2 0x12C2 JUMPI PUSH1 0x40 MLOAD PUSH3 0x461BCD PUSH1 0xE5 SHL DUP2 MSTORE PUSH1 0x20 PUSH1 0x4 DUP3 ADD MSTORE PUSH1 0x22 PUSH1 0x24 DUP3 ADD MSTORE PUSH32 0x45524332303A20617070726F766520746F20746865207A65726F206164647265 PUSH1 0x44 DUP3 ADD MSTORE PUSH2 0x7373 PUSH1 0xF0 SHL PUSH1 0x64 DUP3 ADD MSTORE PUSH1 0x84 ADD PUSH2 0x6D1 JUMP JUMPDEST PUSH1 0x1 PUSH1 0x1 PUSH1 0xA0 SHL SUB DUP4 DUP2 AND PUSH0 DUP2 DUP2 MSTORE PUSH1 0x3 PUSH1 0x20 SWAP1 DUP2 MSTORE PUSH1 0x40 DUP1 DUP4 KECCAK256 SWAP5 DUP8 AND DUP1 DUP5 MSTORE SWAP5 DUP3 MSTORE SWAP2 DUP3 SWAP1 KECCAK256 DUP6 SWAP1 SSTORE SWAP1 MLOAD DUP5 DUP2 MSTORE PUSH32 0x8C5BE1E5EBEC7D5BD14F71427D1E84F3DD0314C0F7B2291E5B200AC8C7C3B925 SWAP2 ADD PUSH1 0x40 MLOAD DUP1 SWAP2 SUB SWAP1 LOG3 POP POP POP JUMP JUMPDEST PUSH0 PUSH2 0x1335 PUSH1 0x1 SLOAD PUSH1 0x1 PUSH1 0x1 PUSH1 0xA0 SHL SUB AND SWAP1 JUMP JUMPDEST PUSH1 0x1 PUSH1 0x1 PUSH1 0xA0 SHL SUB AND CALLER PUSH1 0x1 PUSH1 0x1 PUSH1 0xA0 SHL SUB AND EQ SWAP1 POP SWAP1 JUMP JUMPDEST PUSH1 0x1 DUP1 SLOAD PUSH1 0x1 PUSH1 0x1 PUSH1 0xA0 SHL SUB DUP4 DUP2 AND PUSH20 0xFFFFFFFFFFFFFFFFFFFFFFFFFFFFFFFFFFFFFFFF NOT DUP4 AND DUP2 OR SWAP1 SWAP4 SSTORE PUSH1 0x40 MLOAD SWAP2 AND SWAP2 SWAP1 DUP3 SWAP1 PUSH32 0x8292FCE18FA69EDF4DB7B94EA2E58241DF0AE57F97E0A6C9B29067028BF92D76 SWAP1 PUSH0 SWAP1 LOG3 POP POP JUMP JUMPDEST PUSH1 0x1 PUSH1 0x1 PUSH1 0xA0 SHL SUB DUP4 DUP2 AND PUSH0 SWAP1 DUP2 MSTORE PUSH1 0x3 PUSH1 0x20 SWAP1 DUP2 MSTORE PUSH1 0x40 DUP1 DUP4 KECCAK256 SWAP4 DUP7 AND DUP4 MSTORE SWAP3 SWAP1 MSTORE KECCAK256 SLOAD PUSH0 NOT DUP2 EQ PUSH2 0x1436 JUMPI DUP2 DUP2 LT ISZERO PUSH2 0x1429 JUMPI PUSH1 0x40 MLOAD PUSH3 0x461BCD PUSH1 0xE5 SHL DUP2 MSTORE PUSH1 0x20 PUSH1 0x4 DUP3 ADD MSTORE PUSH1 0x1D PUSH1 0x24 DUP3 ADD MSTORE PUSH32 0x45524332303A20696E73756666696369656E7420616C6C6F77616E6365000000 PUSH1 0x44 DUP3 ADD MSTORE PUSH1 0x64 ADD PUSH2 0x6D1 JUMP JUMPDEST PUSH2 0x1436 DUP5 DUP5 DUP5 DUP5 SUB PUSH2 0x11FF JUMP JUMPDEST POP POP POP POP JUMP JUMPDEST PUSH1 0x1 PUSH1 0x1 PUSH1 0xA0 SHL SUB DUP4 AND PUSH2 0x14B8 JUMPI PUSH1 0x40 MLOAD PUSH3 0x461BCD PUSH1 0xE5 SHL DUP2 MSTORE PUSH1 0x20 PUSH1 0x4 DUP3 ADD MSTORE PUSH1 0x25 PUSH1 0x24 DUP3 ADD MSTORE PUSH32 0x45524332303A207472616E736665722066726F6D20746865207A65726F206164 PUSH1 0x44 DUP3 ADD MSTORE PUSH32 0x6472657373000000000000000000000000000000000000000000000000000000 PUSH1 0x64 DUP3 ADD MSTORE PUSH1 0x84 ADD PUSH2 0x6D1 JUMP JUMPDEST PUSH1 0x1 PUSH1 0x1 PUSH1 0xA0 SHL SUB DUP3 AND PUSH2 0x151A JUMPI PUSH1 0x40 MLOAD PUSH3 0x461BCD PUSH1 0xE5 SHL DUP2 MSTORE PUSH1 0x20 PUSH1 0x4 DUP3 ADD MSTORE PUSH1 0x23 PUSH1 0x24 DUP3 ADD MSTORE PUSH32 0x45524332303A207472616E7366657220746F20746865207A65726F2061646472 PUSH1 0x44 DUP3 ADD MSTORE PUSH3 0x657373 PUSH1 0xE8 SHL PUSH1 0x64 DUP3 ADD MSTORE PUSH1 0x84 ADD PUSH2 0x6D1 JUMP JUMPDEST PUSH1 0x1 PUSH1 0x1 PUSH1 0xA0 SHL SUB DUP4 AND PUSH0 SWAP1 DUP2 MSTORE PUSH1 0x2 PUSH1 0x20 MSTORE PUSH1 0x40 SWAP1 KECCAK256 SLOAD DUP2 DUP2 LT ISZERO PUSH2 0x15A8 JUMPI PUSH1 0x40 MLOAD PUSH3 0x461BCD PUSH1 0xE5 SHL DUP2 MSTORE PUSH1 0x20 PUSH1 0x4 DUP3 ADD MSTORE PUSH1 0x26 PUSH1 0x24 DUP3 ADD MSTORE PUSH32 0x45524332303A207472616E7366657220616D6F756E7420657863656564732062 PUSH1 0x44 DUP3 ADD MSTORE PUSH32 0x616C616E63650000000000000000000000000000000000000000000000000000 PUSH1 0x64 DUP3 ADD MSTORE PUSH1 0x84 ADD PUSH2 0x6D1 JUMP JUMPDEST PUSH1 0x1 PUSH1 0x1 PUSH1 0xA0 SHL SUB DUP1 DUP6 AND PUSH0 SWAP1 DUP2 MSTORE PUSH1 0x2 PUSH1 0x20 MSTORE PUSH1 0x40 DUP1 DUP3 KECCAK256 DUP6 DUP6 SUB SWAP1 SSTORE SWAP2 DUP6 AND DUP2 MSTORE SWAP1 DUP2 KECCAK256 DUP1 SLOAD DUP5 SWAP3 SWAP1 PUSH2 0x15DE SWAP1 DUP5 SWAP1 PUSH2 0x217D JUMP JUMPDEST SWAP3 POP POP DUP2 SWAP1 SSTORE POP DUP3 PUSH1 0x1 PUSH1 0x1 PUSH1 0xA0 SHL SUB AND DUP5 PUSH1 0x1 PUSH1 0x1 PUSH1 0xA0 SHL SUB AND PUSH32 0xDDF252AD1BE2C89B69C2B068FC378DAA952BA7F163C4A11628F55A4DF523B3EF DUP5 PUSH1 0x40 MLOAD PUSH2 0x162A SWAP2 DUP2 MSTORE PUSH1 0x20 ADD SWAP1 JUMP JUMPDEST PUSH1 0x40 MLOAD DUP1 SWAP2 SUB SWAP1 LOG3 PUSH2 0x1436 JUMP JUMPDEST PUSH0 PUSH32 0x8B73C3C69BB8FE3D512ECC4CF759CC79239F7B179B0FFACAA9A75D522B39400F PUSH2 0x1661 PUSH2 0x414 JUMP JUMPDEST DUP1 MLOAD PUSH1 0x20 SWAP2 DUP3 ADD KECCAK256 PUSH1 0x40 DUP1 MLOAD SWAP3 DUP4 ADD SWAP4 SWAP1 SWAP4 MSTORE SWAP2 DUP2 ADD SWAP2 SWAP1 SWAP2 MSTORE PUSH32 0xC89EFDAA54C0F20C7ADF612882DF0950F5A951637E0307CDCB4C672F298B8BC6 PUSH1 0x60 DUP3 ADD MSTORE CHAINID PUSH1 0x80 DUP3 ADD MSTORE ADDRESS PUSH1 0xA0 DUP3 ADD MSTORE PUSH1 0xC0 ADD PUSH1 0x40 MLOAD PUSH1 0x20 DUP2 DUP4 SUB SUB DUP2 MSTORE SWAP1 PUSH1 0x40 MSTORE DUP1 MLOAD SWAP1 PUSH1 0x20 ADD KECCAK256 SWAP1 POP SWAP1 JUMP JUMPDEST PUSH1 0x1 PUSH1 0x1 PUSH1 0xA0 SHL SUB DUP3 AND PUSH2 0x172B JUMPI PUSH1 0x40 MLOAD PUSH3 0x461BCD PUSH1 0xE5 SHL DUP2 MSTORE PUSH1 0x20 PUSH1 0x4 DUP3 ADD MSTORE PUSH1 0x21 PUSH1 0x24 DUP3 ADD MSTORE PUSH32 0x45524332303A206275726E2066726F6D20746865207A65726F20616464726573 PUSH1 0x44 DUP3 ADD MSTORE PUSH1 0x73 PUSH1 0xF8 SHL PUSH1 0x64 DUP3 ADD MSTORE PUSH1 0x84 ADD PUSH2 0x6D1 JUMP JUMPDEST PUSH1 0x1 PUSH1 0x1 PUSH1 0xA0 SHL SUB DUP3 AND PUSH0 SWAP1 DUP2 MSTORE PUSH1 0x2 PUSH1 0x20 MSTORE PUSH1 0x40 SWAP1 KECCAK256 SLOAD DUP2 DUP2 LT ISZERO PUSH2 0x179E JUMPI PUSH1 0x40 MLOAD PUSH3 0x461BCD PUSH1 0xE5 SHL DUP2 MSTORE PUSH1 0x20 PUSH1 0x4 DUP3 ADD MSTORE PUSH1 0x22 PUSH1 0x24 DUP3 ADD MSTORE PUSH32 0x45524332303A206275726E20616D6F756E7420657863656564732062616C616E PUSH1 0x44 DUP3 ADD MSTORE PUSH2 0x6365 PUSH1 0xF0 SHL PUSH1 0x64 DUP3 ADD MSTORE PUSH1 0x84 ADD PUSH2 0x6D1 JUMP JUMPDEST PUSH1 0x1 PUSH1 0x1 PUSH1 0xA0 SHL SUB DUP4 AND PUSH0 SWAP1 DUP2 MSTORE PUSH1 0x2 PUSH1 0x20 MSTORE PUSH1 0x40 DUP2 KECCAK256 DUP4 DUP4 SUB SWAP1 SSTORE PUSH1 0x4 DUP1 SLOAD DUP5 SWAP3 SWAP1 PUSH2 0x17CC SWAP1 DUP5 SWAP1 PUSH2 0x2190 JUMP JUMPDEST SWAP1 SWAP2 SSTORE POP POP PUSH1 0x40 MLOAD DUP3 DUP2 MSTORE PUSH0 SWAP1 PUSH1 0x1 PUSH1 0x1 PUSH1 0xA0 SHL SUB DUP6 AND SWAP1 PUSH32 0xDDF252AD1BE2C89B69C2B068FC378DAA952BA7F163C4A11628F55A4DF523B3EF SWAP1 PUSH1 0x20 ADD PUSH1 0x40 MLOAD DUP1 SWAP2 SUB SWAP1 LOG3 POP POP POP JUMP JUMPDEST PUSH1 0x1 PUSH1 0x1 PUSH1 0xA0 SHL SUB DUP3 AND PUSH2 0x186C JUMPI PUSH1 0x40 MLOAD PUSH3 0x461BCD PUSH1 0xE5 SHL DUP2 MSTORE PUSH1 0x20 PUSH1 0x4 DUP3 ADD MSTORE PUSH1 0x1F PUSH1 0x24 DUP3 ADD MSTORE PUSH32 0x45524332303A206D696E7420746F20746865207A65726F206164647265737300 PUSH1 0x44 DUP3 ADD MSTORE PUSH1 0x64 ADD PUSH2 0x6D1 JUMP JUMPDEST DUP1 PUSH1 0x4 PUSH0 DUP3 DUP3 SLOAD PUSH2 0x187D SWAP2 SWAP1 PUSH2 0x217D JUMP JUMPDEST SWAP1 SWAP2 SSTORE POP POP PUSH1 0x1 PUSH1 0x1 PUSH1 0xA0 SHL SUB DUP3 AND PUSH0 SWAP1 DUP2 MSTORE PUSH1 0x2 PUSH1 0x20 MSTORE PUSH1 0x40 DUP2 KECCAK256 DUP1 SLOAD DUP4 SWAP3 SWAP1 PUSH2 0x18A9 SWAP1 DUP5 SWAP1 PUSH2 0x217D JUMP JUMPDEST SWAP1 SWAP2 SSTORE POP POP PUSH1 0x40 MLOAD DUP2 DUP2 MSTORE PUSH1 0x1 PUSH1 0x1 PUSH1 0xA0 SHL SUB DUP4 AND SWAP1 PUSH0 SWAP1 PUSH32 0xDDF252AD1BE2C89B69C2B068FC378DAA952BA7F163C4A11628F55A4DF523B3EF SWAP1 PUSH1 0x20 ADD PUSH1 0x40 MLOAD DUP1 SWAP2 SUB SWAP1 LOG3 POP POP JUMP JUMPDEST PUSH0 DUP1 DUP1 SLOAD PUSH2 0x18FF SWAP1 PUSH2 0x2137 JUMP JUMPDEST DUP1 PUSH1 0x1F ADD PUSH1 0x20 DUP1 SWAP2 DIV MUL PUSH1 0x20 ADD PUSH1 0x40 MLOAD SWAP1 DUP2 ADD PUSH1 0x40 MSTORE DUP1 SWAP3 SWAP2 SWAP1 DUP2 DUP2 MSTORE PUSH1 0x20 ADD DUP3 DUP1 SLOAD PUSH2 0x192B SWAP1 PUSH2 0x2137 JUMP JUMPDEST DUP1 ISZERO PUSH2 0x1976 JUMPI DUP1 PUSH1 0x1F LT PUSH2 0x194D JUMPI PUSH2 0x100 DUP1 DUP4 SLOAD DIV MUL DUP4 MSTORE SWAP2 PUSH1 0x20 ADD SWAP2 PUSH2 0x1976 JUMP JUMPDEST DUP3 ADD SWAP2 SWAP1 PUSH0 MSTORE PUSH1 0x20 PUSH0 KECCAK256 SWAP1 JUMPDEST DUP2 SLOAD DUP2 MSTORE SWAP1 PUSH1 0x1 ADD SWAP1 PUSH1 0x20 ADD DUP1 DUP4 GT PUSH2 0x1959 JUMPI DUP3 SWAP1 SUB PUSH1 0x1F AND DUP3 ADD SWAP2 JUMPDEST POP POP POP POP POP SWAP1 POP DUP2 PUSH0 SWAP1 DUP2 PUSH2 0x198B SWAP2 SWAP1 PUSH2 0x2272 JUMP JUMPDEST POP PUSH32 0xC9C7C3FE08B88B4DF9D4D47EF47D2C43D55C025A0BA88CA442580ED9E7348A16 DUP2 DUP4 PUSH1 0x40 MLOAD PUSH2 0x19BD SWAP3 SWAP2 SWAP1 PUSH2 0x2332 JUMP JUMPDEST PUSH1 0x40 MLOAD DUP1 SWAP2 SUB SWAP1 LOG1 POP POP JUMP JUMPDEST PUSH1 0x60 PUSH2 0x19EE DUP4 DUP4 PUSH1 0x40 MLOAD DUP1 PUSH1 0x60 ADD PUSH1 0x40 MSTORE DUP1 PUSH1 0x27 DUP2 MSTORE PUSH1 0x20 ADD PUSH2 0x238A PUSH1 0x27 SWAP2 CODECOPY PUSH2 0x1A44 JUMP JUMPDEST SWAP4 SWAP3 POP POP POP JUMP JUMPDEST PUSH1 0x1 PUSH1 0x1 PUSH1 0xA0 SHL SUB DUP2 AND PUSH0 SWAP1 DUP2 MSTORE PUSH1 0x7 PUSH1 0x20 MSTORE PUSH1 0x40 SWAP1 KECCAK256 DUP1 SLOAD PUSH1 0x1 DUP2 ADD DUP3 SSTORE SWAP1 JUMPDEST POP SWAP2 SWAP1 POP JUMP JUMPDEST PUSH0 DUP1 PUSH0 PUSH2 0x1A2B DUP8 DUP8 DUP8 DUP8 PUSH2 0x1AB8 JUMP JUMPDEST SWAP2 POP SWAP2 POP PUSH2 0x1A38 DUP2 PUSH2 0x1B75 JUMP JUMPDEST POP SWAP1 POP JUMPDEST SWAP5 SWAP4 POP POP POP POP JUMP JUMPDEST PUSH1 0x60 PUSH0 DUP1 DUP6 PUSH1 0x1 PUSH1 0x1 PUSH1 0xA0 SHL SUB AND DUP6 PUSH1 0x40 MLOAD PUSH2 0x1A60 SWAP2 SWAP1 PUSH2 0x235F JUMP JUMPDEST PUSH0 PUSH1 0x40 MLOAD DUP1 DUP4 SUB DUP2 DUP6 GAS DELEGATECALL SWAP2 POP POP RETURNDATASIZE DUP1 PUSH0 DUP2 EQ PUSH2 0x1A98 JUMPI PUSH1 0x40 MLOAD SWAP2 POP PUSH1 0x1F NOT PUSH1 0x3F RETURNDATASIZE ADD AND DUP3 ADD PUSH1 0x40 MSTORE RETURNDATASIZE DUP3 MSTORE RETURNDATASIZE PUSH0 PUSH1 0x20 DUP5 ADD RETURNDATACOPY PUSH2 0x1A9D JUMP JUMPDEST PUSH1 0x60 SWAP2 POP JUMPDEST POP SWAP2 POP SWAP2 POP PUSH2 0x1AAE DUP7 DUP4 DUP4 DUP8 PUSH2 0x1CBE JUMP JUMPDEST SWAP7 SWAP6 POP POP POP POP POP POP JUMP JUMPDEST PUSH0 DUP1 PUSH32 0x7FFFFFFFFFFFFFFFFFFFFFFFFFFFFFFF5D576E7357A4501DDFE92F46681B20A0 DUP4 GT ISZERO PUSH2 0x1AED JUMPI POP PUSH0 SWAP1 POP PUSH1 0x3 PUSH2 0x1B6C JUMP JUMPDEST PUSH1 0x40 DUP1 MLOAD PUSH0 DUP1 DUP3 MSTORE PUSH1 0x20 DUP3 ADD DUP1 DUP5 MSTORE DUP10 SWAP1 MSTORE PUSH1 0xFF DUP9 AND SWAP3 DUP3 ADD SWAP3 SWAP1 SWAP3 MSTORE PUSH1 0x60 DUP2 ADD DUP7 SWAP1 MSTORE PUSH1 0x80 DUP2 ADD DUP6 SWAP1 MSTORE PUSH1 0x1 SWAP1 PUSH1 0xA0 ADD PUSH1 0x20 PUSH1 0x40 MLOAD PUSH1 0x20 DUP2 SUB SWAP1 DUP1 DUP5 SUB SWAP1 DUP6 GAS STATICCALL ISZERO DUP1 ISZERO PUSH2 0x1B3E JUMPI RETURNDATASIZE PUSH0 DUP1 RETURNDATACOPY RETURNDATASIZE PUSH0 REVERT JUMPDEST POP POP PUSH1 0x40 MLOAD PUSH1 0x1F NOT ADD MLOAD SWAP2 POP POP PUSH1 0x1 PUSH1 0x1 PUSH1 0xA0 SHL SUB DUP2 AND PUSH2 0x1B66 JUMPI PUSH0 PUSH1 0x1 SWAP3 POP SWAP3 POP POP PUSH2 0x1B6C JUMP JUMPDEST SWAP2 POP PUSH0 SWAP1 POP JUMPDEST SWAP5 POP SWAP5 SWAP3 POP POP POP JUMP JUMPDEST PUSH0 DUP2 PUSH1 0x4 DUP2 GT ISZERO PUSH2 0x1B88 JUMPI PUSH2 0x1B88 PUSH2 0x2375 JUMP JUMPDEST SUB PUSH2 0x1B90 JUMPI POP JUMP JUMPDEST PUSH1 0x1 DUP2 PUSH1 0x4 DUP2 GT ISZERO PUSH2 0x1BA4 JUMPI PUSH2 0x1BA4 PUSH2 0x2375 JUMP JUMPDEST SUB PUSH2 0x1BF1 JUMPI PUSH1 0x40 MLOAD PUSH3 0x461BCD PUSH1 0xE5 SHL DUP2 MSTORE PUSH1 0x20 PUSH1 0x4 DUP3 ADD MSTORE PUSH1 0x18 PUSH1 0x24 DUP3 ADD MSTORE PUSH32 0x45434453413A20696E76616C6964207369676E61747572650000000000000000 PUSH1 0x44 DUP3 ADD MSTORE PUSH1 0x64 ADD PUSH2 0x6D1 JUMP JUMPDEST PUSH1 0x2 DUP2 PUSH1 0x4 DUP2 GT ISZERO PUSH2 0x1C05 JUMPI PUSH2 0x1C05 PUSH2 0x2375 JUMP JUMPDEST SUB PUSH2 0x1C52 JUMPI PUSH1 0x40 MLOAD PUSH3 0x461BCD PUSH1 0xE5 SHL DUP2 MSTORE PUSH1 0x20 PUSH1 0x4 DUP3 ADD MSTORE PUSH1 0x1F PUSH1 0x24 DUP3 ADD MSTORE PUSH32 0x45434453413A20696E76616C6964207369676E6174757265206C656E67746800 PUSH1 0x44 DUP3 ADD MSTORE PUSH1 0x64 ADD PUSH2 0x6D1 JUMP JUMPDEST PUSH1 0x3 DUP2 PUSH1 0x4 DUP2 GT ISZERO PUSH2 0x1C66 JUMPI PUSH2 0x1C66 PUSH2 0x2375 JUMP JUMPDEST SUB PUSH2 0x584 JUMPI PUSH1 0x40 MLOAD PUSH3 0x461BCD PUSH1 0xE5 SHL DUP2 MSTORE PUSH1 0x20 PUSH1 0x4 DUP3 ADD MSTORE PUSH1 0x22 PUSH1 0x24 DUP3 ADD MSTORE PUSH32 0x45434453413A20696E76616C6964207369676E6174757265202773272076616C PUSH1 0x44 DUP3 ADD MSTORE PUSH2 0x7565 PUSH1 0xF0 SHL PUSH1 0x64 DUP3 ADD MSTORE PUSH1 0x84 ADD PUSH2 0x6D1 JUMP JUMPDEST PUSH1 0x60 DUP4 ISZERO PUSH2 0x1D2C JUMPI DUP3 MLOAD PUSH0 SUB PUSH2 0x1D25 JUMPI PUSH1 0x1 PUSH1 0x1 PUSH1 0xA0 SHL SUB DUP6 AND EXTCODESIZE PUSH2 0x1D25 JUMPI PUSH1 0x40 MLOAD PUSH3 0x461BCD PUSH1 0xE5 SHL DUP2 MSTORE PUSH1 0x20 PUSH1 0x4 DUP3 ADD MSTORE PUSH1 0x1D PUSH1 0x24 DUP3 ADD MSTORE PUSH32 0x416464726573733A2063616C6C20746F206E6F6E2D636F6E7472616374000000 PUSH1 0x44 DUP3 ADD MSTORE PUSH1 0x64 ADD PUSH2 0x6D1 JUMP JUMPDEST POP DUP2 PUSH2 0x1A3C JUMP JUMPDEST PUSH2 0x1A3C DUP4 DUP4 DUP2 MLOAD ISZERO PUSH2 0x1D41 JUMPI DUP2 MLOAD DUP1 DUP4 PUSH1 0x20 ADD REVERT JUMPDEST DUP1 PUSH1 0x40 MLOAD PUSH3 0x461BCD PUSH1 0xE5 SHL DUP2 MSTORE PUSH1 0x4 ADD PUSH2 0x6D1 SWAP2 SWAP1 PUSH2 0x1D89 JUMP JUMPDEST PUSH0 DUP2 MLOAD DUP1 DUP5 MSTORE DUP1 PUSH1 0x20 DUP5 ADD PUSH1 0x20 DUP7 ADD MCOPY PUSH0 PUSH1 0x20 DUP3 DUP7 ADD ADD MSTORE PUSH1 0x20 PUSH1 0x1F NOT PUSH1 0x1F DUP4 ADD AND DUP6 ADD ADD SWAP2 POP POP SWAP3 SWAP2 POP POP JUMP JUMPDEST PUSH1 0x20 DUP2 MSTORE PUSH0 PUSH2 0x19EE PUSH1 0x20 DUP4 ADD DUP5 PUSH2 0x1D5B JUMP JUMPDEST PUSH0 PUSH1 0x20 DUP3 DUP5 SUB SLT ISZERO PUSH2 0x1DAB JUMPI PUSH0 DUP1 REVERT JUMPDEST POP CALLDATALOAD SWAP2 SWAP1 POP JUMP JUMPDEST PUSH1 0x20 DUP1 DUP3 MSTORE DUP3 MLOAD DUP3 DUP3 ADD DUP2 SWAP1 MSTORE PUSH0 SWAP2 SWAP1 PUSH1 0x40 SWAP1 DUP2 DUP6 ADD SWAP1 DUP7 DUP5 ADD DUP6 JUMPDEST DUP3 DUP2 LT ISZERO PUSH2 0x1E11 JUMPI DUP2 MLOAD DUP1 MLOAD PUSH1 0x1 PUSH1 0x1 PUSH1 0xA0 SHL SUB AND DUP6 MSTORE DUP7 DUP2 ADD MLOAD DUP8 DUP7 ADD MSTORE DUP6 DUP2 ADD MLOAD DUP7 DUP7 ADD MSTORE PUSH1 0x60 SWAP1 DUP2 ADD MLOAD SWAP1 DUP6 ADD MSTORE PUSH1 0x80 SWAP1 SWAP4 ADD SWAP3 SWAP1 DUP6 ADD SWAP1 PUSH1 0x1 ADD PUSH2 0x1DCE JUMP JUMPDEST POP SWAP2 SWAP8 SWAP7 POP POP POP POP POP POP POP JUMP JUMPDEST DUP1 CALLDATALOAD PUSH1 0x1 PUSH1 0x1 PUSH1 0xA0 SHL SUB DUP2 AND DUP2 EQ PUSH2 0x1E34 JUMPI PUSH0 DUP1 REVERT JUMPDEST SWAP2 SWAP1 POP JUMP JUMPDEST PUSH0 DUP1 PUSH1 0x40 DUP4 DUP6 SUB SLT ISZERO PUSH2 0x1E4A JUMPI PUSH0 DUP1 REVERT JUMPDEST PUSH2 0x1E53 DUP4 PUSH2 0x1E1E JUMP JUMPDEST SWAP5 PUSH1 0x20 SWAP4 SWAP1 SWAP4 ADD CALLDATALOAD SWAP4 POP POP POP JUMP JUMPDEST PUSH0 PUSH1 0x20 DUP3 DUP5 SUB SLT ISZERO PUSH2 0x1E71 JUMPI PUSH0 DUP1 REVERT JUMPDEST PUSH2 0x19EE DUP3 PUSH2 0x1E1E JUMP JUMPDEST PUSH0 DUP1 PUSH0 PUSH1 0x60 DUP5 DUP7 SUB SLT ISZERO PUSH2 0x1E8C JUMPI PUSH0 DUP1 REVERT JUMPDEST PUSH2 0x1E95 DUP5 PUSH2 0x1E1E JUMP JUMPDEST SWAP3 POP PUSH2 0x1EA3 PUSH1 0x20 DUP6 ADD PUSH2 0x1E1E JUMP JUMPDEST SWAP2 POP PUSH1 0x40 DUP5 ADD CALLDATALOAD SWAP1 POP SWAP3 POP SWAP3 POP SWAP3 JUMP JUMPDEST PUSH0 DUP1 PUSH0 DUP1 PUSH1 0x80 DUP6 DUP8 SUB SLT ISZERO PUSH2 0x1EC6 JUMPI PUSH0 DUP1 REVERT JUMPDEST PUSH2 0x1ECF DUP6 PUSH2 0x1E1E JUMP JUMPDEST SWAP7 PUSH1 0x20 DUP7 ADD CALLDATALOAD SWAP7 POP PUSH1 0x40 DUP7 ADD CALLDATALOAD SWAP6 PUSH1 0x60 ADD CALLDATALOAD SWAP5 POP SWAP3 POP POP POP JUMP JUMPDEST PUSH0 DUP1 PUSH1 0x40 DUP4 DUP6 SUB SLT ISZERO PUSH2 0x1EFA JUMPI PUSH0 DUP1 REVERT JUMPDEST POP POP DUP1 CALLDATALOAD SWAP3 PUSH1 0x20 SWAP1 SWAP2 ADD CALLDATALOAD SWAP2 POP JUMP JUMPDEST PUSH4 0x4E487B71 PUSH1 0xE0 SHL PUSH0 MSTORE PUSH1 0x41 PUSH1 0x4 MSTORE PUSH1 0x24 PUSH0 REVERT JUMPDEST PUSH0 PUSH1 0x20 DUP3 DUP5 SUB SLT ISZERO PUSH2 0x1F2D JUMPI PUSH0 DUP1 REVERT JUMPDEST DUP2 CALLDATALOAD PUSH8 0xFFFFFFFFFFFFFFFF DUP1 DUP3 GT ISZERO PUSH2 0x1F44 JUMPI PUSH0 DUP1 REVERT JUMPDEST DUP2 DUP5 ADD SWAP2 POP DUP5 PUSH1 0x1F DUP4 ADD SLT PUSH2 0x1F57 JUMPI PUSH0 DUP1 REVERT JUMPDEST DUP2 CALLDATALOAD DUP2 DUP2 GT ISZERO PUSH2 0x1F69 JUMPI PUSH2 0x1F69 PUSH2 0x1F09 JUMP JUMPDEST PUSH1 0x40 MLOAD PUSH1 0x1F DUP3 ADD PUSH1 0x1F NOT SWAP1 DUP2 AND PUSH1 0x3F ADD AND DUP2 ADD SWAP1 DUP4 DUP3 GT DUP2 DUP4 LT OR ISZERO PUSH2 0x1F91 JUMPI PUSH2 0x1F91 PUSH2 0x1F09 JUMP JUMPDEST DUP2 PUSH1 0x40 MSTORE DUP3 DUP2 MSTORE DUP8 PUSH1 0x20 DUP5 DUP8 ADD ADD GT ISZERO PUSH2 0x1FA9 JUMPI PUSH0 DUP1 REVERT JUMPDEST DUP3 PUSH1 0x20 DUP7 ADD PUSH1 0x20 DUP4 ADD CALLDATACOPY PUSH0 SWAP3 DUP2 ADD PUSH1 0x20 ADD SWAP3 SWAP1 SWAP3 MSTORE POP SWAP6 SWAP5 POP POP POP POP POP JUMP JUMPDEST PUSH0 DUP1 PUSH1 0x20 DUP4 DUP6 SUB SLT ISZERO PUSH2 0x1FD9 JUMPI PUSH0 DUP1 REVERT JUMPDEST DUP3 CALLDATALOAD PUSH8 0xFFFFFFFFFFFFFFFF DUP1 DUP3 GT ISZERO PUSH2 0x1FF0 JUMPI PUSH0 DUP1 REVERT JUMPDEST DUP2 DUP6 ADD SWAP2 POP DUP6 PUSH1 0x1F DUP4 ADD SLT PUSH2 0x2003 JUMPI PUSH0 DUP1 REVERT JUMPDEST DUP2 CALLDATALOAD DUP2 DUP2 GT ISZERO PUSH2 0x2011 JUMPI PUSH0 DUP1 REVERT JUMPDEST DUP7 PUSH1 0x20 DUP3 PUSH1 0x5 SHL DUP6 ADD ADD GT ISZERO PUSH2 0x2025 JUMPI PUSH0 DUP1 REVERT JUMPDEST PUSH1 0x20 SWAP3 SWAP1 SWAP3 ADD SWAP7 SWAP2 SWAP6 POP SWAP1 SWAP4 POP POP POP POP JUMP JUMPDEST PUSH0 PUSH1 0x20 DUP1 DUP4 ADD PUSH1 0x20 DUP5 MSTORE DUP1 DUP6 MLOAD DUP1 DUP4 MSTORE PUSH1 0x40 DUP7 ADD SWAP2 POP PUSH1 0x40 DUP2 PUSH1 0x5 SHL DUP8 ADD ADD SWAP3 POP PUSH1 0x20 DUP8 ADD PUSH0 JUMPDEST DUP3 DUP2 LT ISZERO PUSH2 0x208C JUMPI PUSH1 0x3F NOT DUP9 DUP7 SUB ADD DUP5 MSTORE PUSH2 0x207A DUP6 DUP4 MLOAD PUSH2 0x1D5B JUMP JUMPDEST SWAP5 POP SWAP3 DUP6 ADD SWAP3 SWAP1 DUP6 ADD SWAP1 PUSH1 0x1 ADD PUSH2 0x205E JUMP JUMPDEST POP SWAP3 SWAP8 SWAP7 POP POP POP POP POP POP POP JUMP JUMPDEST PUSH0 DUP1 PUSH0 DUP1 PUSH0 DUP1 PUSH0 PUSH1 0xE0 DUP9 DUP11 SUB SLT ISZERO PUSH2 0x20AF JUMPI PUSH0 DUP1 REVERT JUMPDEST PUSH2 0x20B8 DUP9 PUSH2 0x1E1E JUMP JUMPDEST SWAP7 POP PUSH2 0x20C6 PUSH1 0x20 DUP10 ADD PUSH2 0x1E1E JUMP JUMPDEST SWAP6 POP PUSH1 0x40 DUP9 ADD CALLDATALOAD SWAP5 POP PUSH1 0x60 DUP9 ADD CALLDATALOAD SWAP4 POP PUSH1 0x80 DUP9 ADD CALLDATALOAD PUSH1 0xFF DUP2 AND DUP2 EQ PUSH2 0x20E9 JUMPI PUSH0 DUP1 REVERT JUMPDEST SWAP7 SWAP10 SWAP6 SWAP9 POP SWAP4 SWAP7 SWAP3 SWAP6 SWAP5 PUSH1 0xA0 DUP5 ADD CALLDATALOAD SWAP5 POP PUSH1 0xC0 SWAP1 SWAP4 ADD CALLDATALOAD SWAP3 SWAP2 POP POP JUMP JUMPDEST PUSH0 DUP1 PUSH1 0x40 DUP4 DUP6 SUB SLT ISZERO PUSH2 0x2117 JUMPI PUSH0 DUP1 REVERT JUMPDEST PUSH2 0x2120 DUP4 PUSH2 0x1E1E JUMP JUMPDEST SWAP2 POP PUSH2 0x212E PUSH1 0x20 DUP5 ADD PUSH2 0x1E1E JUMP JUMPDEST SWAP1 POP SWAP3 POP SWAP3 SWAP1 POP JUMP JUMPDEST PUSH1 0x1 DUP2 DUP2 SHR SWAP1 DUP3 AND DUP1 PUSH2 0x214B JUMPI PUSH1 0x7F DUP3 AND SWAP2 POP JUMPDEST PUSH1 0x20 DUP3 LT DUP2 SUB PUSH2 0x1A16 JUMPI PUSH4 0x4E487B71 PUSH1 0xE0 SHL PUSH0 MSTORE PUSH1 0x22 PUSH1 0x4 MSTORE PUSH1 0x24 PUSH0 REVERT JUMPDEST PUSH4 0x4E487B71 PUSH1 0xE0 SHL PUSH0 MSTORE PUSH1 0x11 PUSH1 0x4 MSTORE PUSH1 0x24 PUSH0 REVERT JUMPDEST DUP1 DUP3 ADD DUP1 DUP3 GT ISZERO PUSH2 0x550 JUMPI PUSH2 0x550 PUSH2 0x2169 JUMP JUMPDEST DUP2 DUP2 SUB DUP2 DUP2 GT ISZERO PUSH2 0x550 JUMPI PUSH2 0x550 PUSH2 0x2169 JUMP JUMPDEST PUSH4 0x4E487B71 PUSH1 0xE0 SHL PUSH0 MSTORE PUSH1 0x32 PUSH1 0x4 MSTORE PUSH1 0x24 PUSH0 REVERT JUMPDEST PUSH0 DUP1 DUP4 CALLDATALOAD PUSH1 0x1E NOT DUP5 CALLDATASIZE SUB ADD DUP2 SLT PUSH2 0x21CC JUMPI PUSH0 DUP1 REVERT JUMPDEST DUP4 ADD DUP1 CALLDATALOAD SWAP2 POP PUSH8 0xFFFFFFFFFFFFFFFF DUP3 GT ISZERO PUSH2 0x21E6 JUMPI PUSH0 DUP1 REVERT JUMPDEST PUSH1 0x20 ADD SWAP2 POP CALLDATASIZE DUP2 SWAP1 SUB DUP3 SGT ISZERO PUSH2 0x21FA JUMPI PUSH0 DUP1 REVERT JUMPDEST SWAP3 POP SWAP3 SWAP1 POP JUMP JUMPDEST DUP3 DUP5 DUP3 CALLDATACOPY PUSH1 0x60 SWAP2 SWAP1 SWAP2 SHL PUSH12 0xFFFFFFFFFFFFFFFFFFFFFFFF NOT AND SWAP2 ADD SWAP1 DUP2 MSTORE PUSH1 0x14 ADD SWAP2 SWAP1 POP JUMP JUMPDEST PUSH1 0x1F DUP3 GT ISZERO PUSH2 0xB3A JUMPI DUP1 PUSH0 MSTORE PUSH1 0x20 PUSH0 KECCAK256 PUSH1 0x1F DUP5 ADD PUSH1 0x5 SHR DUP2 ADD PUSH1 0x20 DUP6 LT ISZERO PUSH2 0x224C JUMPI POP DUP1 JUMPDEST PUSH1 0x1F DUP5 ADD PUSH1 0x5 SHR DUP3 ADD SWAP2 POP JUMPDEST DUP2 DUP2 LT ISZERO PUSH2 0x226B JUMPI PUSH0 DUP2 SSTORE PUSH1 0x1 ADD PUSH2 0x2258 JUMP JUMPDEST POP POP POP POP POP JUMP JUMPDEST DUP2 MLOAD PUSH8 0xFFFFFFFFFFFFFFFF DUP2 GT ISZERO PUSH2 0x228C JUMPI PUSH2 0x228C PUSH2 0x1F09 JUMP JUMPDEST PUSH2 0x22A0 DUP2 PUSH2 0x229A DUP5 SLOAD PUSH2 0x2137 JUMP JUMPDEST DUP5 PUSH2 0x2227 JUMP JUMPDEST PUSH1 0x20 DUP1 PUSH1 0x1F DUP4 GT PUSH1 0x1 DUP2 EQ PUSH2 0x22D3 JUMPI PUSH0 DUP5 ISZERO PUSH2 0x22BC JUMPI POP DUP6 DUP4 ADD MLOAD JUMPDEST PUSH0 NOT PUSH1 0x3 DUP7 SWAP1 SHL SHR NOT AND PUSH1 0x1 DUP6 SWAP1 SHL OR DUP6 SSTORE PUSH2 0x232A JUMP JUMPDEST PUSH0 DUP6 DUP2 MSTORE PUSH1 0x20 DUP2 KECCAK256 PUSH1 0x1F NOT DUP7 AND SWAP2 JUMPDEST DUP3 DUP2 LT ISZERO PUSH2 0x2301 JUMPI DUP9 DUP7 ADD MLOAD DUP3 SSTORE SWAP5 DUP5 ADD SWAP5 PUSH1 0x1 SWAP1 SWAP2 ADD SWAP1 DUP5 ADD PUSH2 0x22E2 JUMP JUMPDEST POP DUP6 DUP3 LT ISZERO PUSH2 0x231E JUMPI DUP8 DUP6 ADD MLOAD PUSH0 NOT PUSH1 0x3 DUP9 SWAP1 SHL PUSH1 0xF8 AND SHR NOT AND DUP2 SSTORE JUMPDEST POP POP PUSH1 0x1 DUP5 PUSH1 0x1 SHL ADD DUP6 SSTORE JUMPDEST POP POP POP POP POP POP JUMP JUMPDEST PUSH1 0x40 DUP2 MSTORE PUSH0 PUSH2 0x2344 PUSH1 0x40 DUP4 ADD DUP6 PUSH2 0x1D5B JUMP JUMPDEST DUP3 DUP2 SUB PUSH1 0x20 DUP5 ADD MSTORE PUSH2 0x2356 DUP2 DUP6 PUSH2 0x1D5B JUMP JUMPDEST SWAP6 SWAP5 POP POP POP POP POP JUMP JUMPDEST PUSH0 DUP3 MLOAD DUP1 PUSH1 0x20 DUP6 ADD DUP5 MCOPY PUSH0 SWAP3 ADD SWAP2 DUP3 MSTORE POP SWAP2 SWAP1 POP JUMP JUMPDEST PUSH4 0x4E487B71 PUSH1 0xE0 SHL PUSH0 MSTORE PUSH1 0x21 PUSH1 0x4 MSTORE PUSH1 0x24 PUSH0 REVERT INVALID COINBASE PUSH5 0x6472657373 GASPRICE KECCAK256 PUSH13 0x6F772D6C6576656C2064656C65 PUSH8 0x6174652063616C6C KECCAK256 PUSH7 0x61696C6564A264 PUSH10 0x7066735822122007DBC4 DUP11 0x28 ADD 0xDF 0xD3 NUMBER PUSH19 0x2BF34932A553EB0C937195CFB40F1DF3568520 RETURN RETURN ADDMOD PUSH5 0x736F6C6343 STOP ADDMOD NOT STOP CALLER "
    },
    "gasEstimates": {
      "creation": {
        "codeDepositCost": "1838000",
        "executionCost": "infinite",
        "totalCost": "infinite"
      },
      "external": {
        "DOMAIN_SEPARATOR()": "infinite",
        "allowance(address,address)": "infinite",
        "approve(address,uint256)": "24692",
        "balanceOf(address)": "2645",
        "burn(uint256)": "53084",
        "burnFrom(address,uint256)": "infinite",
        "contractURI()": "infinite",
        "decimals()": "222",
        "decreaseAllowance(address,uint256)": "26941",
        "getProjectContributions(bytes32)": "infinite",
        "increaseAllowance(address,uint256)": "infinite",
        "mintArtistTokens(address,uint256,bytes32,uint256)": "infinite",
        "mintFanTokens(address,uint256,bytes32,uint256)": "infinite",
        "mintTo(address,uint256)": "infinite",
        "multicall(bytes[])": "infinite",
        "name()": "infinite",
        "nonces(address)": "2658",
        "owner()": "2345",
        "permit(address,address,uint256,uint256,uint8,bytes32,bytes32)": "infinite",
        "projectContributions(bytes32,uint256)": "11156",
        "setContractURI(string)": "infinite",
        "setOwner(address)": "28393",
        "symbol()": "infinite",
        "totalSupply()": "2348",
        "transfer(address,uint256)": "infinite",
        "transferFrom(address,address,uint256)": "infinite"
      }
    },
    "methodIdentifiers": {
      "DOMAIN_SEPARATOR()": "3644e515",
      "allowance(address,address)": "dd62ed3e",
      "approve(address,uint256)": "095ea7b3",
      "balanceOf(address)": "70a08231",
      "burn(uint256)": "42966c68",
      "burnFrom(address,uint256)": "79cc6790",
      "contractURI()": "e8a3d485",
      "decimals()": "313ce567",
      "decreaseAllowance(address,uint256)": "a457c2d7",
      "getProjectContributions(bytes32)": "0952430e",
      "increaseAllowance(address,uint256)": "39509351",
      "mintArtistTokens(address,uint256,bytes32,uint256)": "6192bd3f",
      "mintFanTokens(address,uint256,bytes32,uint256)": "e9e90ab6",
      "mintTo(address,uint256)": "449a52f8",
      "multicall(bytes[])": "ac9650d8",
      "name()": "06fdde03",
      "nonces(address)": "7ecebe00",
      "owner()": "8da5cb5b",
      "permit(address,address,uint256,uint256,uint8,bytes32,bytes32)": "d505accf",
      "projectContributions(bytes32,uint256)": "7261fa29",
      "setContractURI(string)": "938e3d7b",
      "setOwner(address)": "13af4035",
      "symbol()": "95d89b41",
      "totalSupply()": "18160ddd",
      "transfer(address,uint256)": "a9059cbb",
      "transferFrom(address,address,uint256)": "23b872dd"
    }
  },
  "storageLayout": {
    "storage": [
      {
        "astId": 2832,
        "contract": "ProducerProtocolToken.sol:ProducerProtocolToken",
        "label": "contractURI",
        "offset": 0,
        "slot": "0",
        "type": "t_string_storage"
      },
      {
        "astId": 2994,
        "contract": "ProducerProtocolToken.sol:ProducerProtocolToken",
        "label": "_owner",
        "offset": 0,
        "slot": "1",
        "type": "t_address"
      },
      {
        "astId": 4842,
        "contract": "ProducerProtocolToken.sol:ProducerProtocolToken",
        "label": "_balances",
        "offset": 0,
        "slot": "2",
        "type": "t_mapping(t_address,t_uint256)"
      },
      {
        "astId": 4848,
        "contract": "ProducerProtocolToken.sol:ProducerProtocolToken",
        "label": "_allowances",
        "offset": 0,
        "slot": "3",
        "type": "t_mapping(t_address,t_mapping(t_address,t_uint256))"
      },
      {
        "astId": 4850,
        "contract": "ProducerProtocolToken.sol:ProducerProtocolToken",
        "label": "_totalSupply",
        "offset": 0,
        "slot": "4",
        "type": "t_uint256"
      },
      {
        "astId": 4852,
        "contract": "ProducerProtocolToken.sol:ProducerProtocolToken",
        "label": "_name",
        "offset": 0,
        "slot": "5",
        "type": "t_string_storage"
      },
      {
        "astId": 4854,
        "contract": "ProducerProtocolToken.sol:ProducerProtocolToken",
        "label": "_symbol",
        "offset": 0,
        "slot": "6",
        "type": "t_string_storage"
      },
      {
        "astId": 3123,
        "contract": "ProducerProtocolToken.sol:ProducerProtocolToken",
        "label": "_nonces",
        "offset": 0,
        "slot": "7",
        "type": "t_mapping(t_address,t_struct(Counter)5420_storage)"
      },
      {
        "astId": 266,
        "contract": "ProducerProtocolToken.sol:ProducerProtocolToken",
        "label": "projectContributions",
        "offset": 0,
        "slot": "8",
        "type": "t_mapping(t_bytes32,t_array(t_struct(Contribution)260_storage)dyn_storage)"
      }
    ],
    "types": {
      "t_address": {
        "encoding": "inplace",
        "label": "address",
        "numberOfBytes": "20"
      },
      "t_array(t_struct(Contribution)260_storage)dyn_storage": {
        "base": "t_struct(Contribution)260_storage",
        "encoding": "dynamic_array",
        "label": "struct ProducerProtocolToken.Contribution[]",
        "numberOfBytes": "32"
      },
      "t_bytes32": {
        "encoding": "inplace",
        "label": "bytes32",
        "numberOfBytes": "32"
      },
      "t_mapping(t_address,t_mapping(t_address,t_uint256))": {
        "encoding": "mapping",
        "key": "t_address",
        "label": "mapping(address => mapping(address => uint256))",
        "numberOfBytes": "32",
        "value": "t_mapping(t_address,t_uint256)"
      },
      "t_mapping(t_address,t_struct(Counter)5420_storage)": {
        "encoding": "mapping",
        "key": "t_address",
        "label": "mapping(address => struct Counters.Counter)",
        "numberOfBytes": "32",
        "value": "t_struct(Counter)5420_storage"
      },
      "t_mapping(t_address,t_uint256)": {
        "encoding": "mapping",
        "key": "t_address",
        "label": "mapping(address => uint256)",
        "numberOfBytes": "32",
        "value": "t_uint256"
      },
      "t_mapping(t_bytes32,t_array(t_struct(Contribution)260_storage)dyn_storage)": {
        "encoding": "mapping",
        "key": "t_bytes32",
        "label": "mapping(bytes32 => struct ProducerProtocolToken.Contribution[])",
        "numberOfBytes": "32",
        "value": "t_array(t_struct(Contribution)260_storage)dyn_storage"
      },
      "t_string_storage": {
        "encoding": "bytes",
        "label": "string",
        "numberOfBytes": "32"
      },
      "t_struct(Contribution)260_storage": {
        "encoding": "inplace",
        "label": "struct ProducerProtocolToken.Contribution",
        "members": [
          {
            "astId": 253,
            "contract": "ProducerProtocolToken.sol:ProducerProtocolToken",
            "label": "contributor",
            "offset": 0,
            "slot": "0",
            "type": "t_address"
          },
          {
            "astId": 255,
            "contract": "ProducerProtocolToken.sol:ProducerProtocolToken",
            "label": "artistPercentage",
            "offset": 0,
            "slot": "1",
            "type": "t_uint256"
          },
          {
            "astId": 257,
            "contract": "ProducerProtocolToken.sol:ProducerProtocolToken",
            "label": "fanPercentage",
            "offset": 0,
            "slot": "2",
            "type": "t_uint256"
          },
          {
            "astId": 259,
            "contract": "ProducerProtocolToken.sol:ProducerProtocolToken",
            "label": "timestamp",
            "offset": 0,
            "slot": "3",
            "type": "t_uint256"
          }
        ],
        "numberOfBytes": "128"
      },
      "t_struct(Counter)5420_storage": {
        "encoding": "inplace",
        "label": "struct Counters.Counter",
        "members": [
          {
            "astId": 5419,
            "contract": "ProducerProtocolToken.sol:ProducerProtocolToken",
            "label": "_value",
            "offset": 0,
            "slot": "0",
            "type": "t_uint256"
          }
        ],
        "numberOfBytes": "32"
      },
      "t_uint256": {
        "encoding": "inplace",
        "label": "uint256",
        "numberOfBytes": "32"
      }
    }
  },
  "userdoc": {
    "kind": "user",
    "methods": {
      "burn(uint256)": {
        "notice": "Lets an owner a given amount of their tokens."
      },
      "burnFrom(address,uint256)": {
        "notice": "Lets an owner burn a given amount of an account's tokens."
      },
      "contractURI()": {
        "notice": "Returns the contract metadata URI."
      },
      "mintTo(address,uint256)": {
        "notice": "Lets an authorized address mint tokens to a recipient."
      },
      "multicall(bytes[])": {
        "notice": "Receives and executes a batch of function calls on this contract."
      },
      "owner()": {
        "notice": "Returns the owner of the contract."
      },
      "setContractURI(string)": {
        "notice": "Lets a contract admin set the URI for contract-level metadata."
      },
      "setOwner(address)": {
        "notice": "Lets an authorized wallet set a new owner for the contract."
      }
    },
    "version": 1
  }
}