{
  "_format": "hh-sol-artifact-1",
  "contractName": "PJKBurner",
  "sourceName": "contracts/pjkburner.sol",
  "abi": [
    {
      "anonymous": false,
      "inputs": [
        {
          "indexed": true,
          "internalType": "address",
          "name": "user",
          "type": "address"
        },
        {
          "indexed": false,
          "internalType": "uint256",
          "name": "amount",
          "type": "uint256"
        }
      ],
      "name": "PJKBurned",
      "type": "event"
    },
    {
      "inputs": [],
      "name": "BURN_ADDRESS",
      "outputs": [
        {
          "internalType": "address",
          "name": "",
          "type": "address"
        }
      ],
      "stateMutability": "view",
      "type": "function"
    },
    {
      "inputs": [
        {
          "internalType": "uint256",
          "name": "amount",
          "type": "uint256"
        }
      ],
      "name": "burnPJK",
      "outputs": [],
      "stateMutability": "nonpayable",
      "type": "function"
    },
    {
      "inputs": [],
      "name": "pjkToken",
      "outputs": [
        {
          "internalType": "contract IERC20",
          "name": "",
          "type": "address"
        }
      ],
      "stateMutability": "view",
      "type": "function"
    }
  ],
  "bytecode": "0x608060405273fc0e40e7d6aba1079409966bcacb2273f048da5f6000806101000a81548173ffffffffffffffffffffffffffffffffffffffff021916908373ffffffffffffffffffffffffffffffffffffffff16021790555034801561006457600080fd5b506104b1806100746000396000f3fe608060405234801561001057600080fd5b50600436106100415760003560e01c806327d0c8ee146100465780634a6c313814610064578063fccc281314610080575b600080fd5b61004e61009e565b60405161005b9190610279565b60405180910390f35b61007e600480360381019061007991906102cf565b6100c2565b005b6100886101f4565b604051610095919061031d565b60405180910390f35b60008054906101000a900473ffffffffffffffffffffffffffffffffffffffff1681565b60008054906101000a900473ffffffffffffffffffffffffffffffffffffffff1673ffffffffffffffffffffffffffffffffffffffff166323b872dd3361dead846040518463ffffffff1660e01b815260040161012193929190610347565b6020604051808303816000875af1158015610140573d6000803e3d6000fd5b505050506040513d601f19601f8201168201806040525081019061016491906103b6565b6101a3576040517f08c379a000000000000000000000000000000000000000000000000000000000815260040161019a90610440565b60405180910390fd5b3373ffffffffffffffffffffffffffffffffffffffff167fab0fcf7ff81c51c36b5d639d6132316aec26d36f659c6eb36cbeb4af4ae8fa88826040516101e99190610460565b60405180910390a250565b61dead81565b600073ffffffffffffffffffffffffffffffffffffffff82169050919050565b6000819050919050565b600061023f61023a610235846101fa565b61021a565b6101fa565b9050919050565b600061025182610224565b9050919050565b600061026382610246565b9050919050565b61027381610258565b82525050565b600060208201905061028e600083018461026a565b92915050565b600080fd5b6000819050919050565b6102ac81610299565b81146102b757600080fd5b50565b6000813590506102c9816102a3565b92915050565b6000602082840312156102e5576102e4610294565b5b60006102f3848285016102ba565b91505092915050565b6000610307826101fa565b9050919050565b610317816102fc565b82525050565b6000602082019050610332600083018461030e565b92915050565b61034181610299565b82525050565b600060608201905061035c600083018661030e565b610369602083018561030e565b6103766040830184610338565b949350505050565b60008115159050919050565b6103938161037e565b811461039e57600080fd5b50565b6000815190506103b08161038a565b92915050565b6000602082840312156103cc576103cb610294565b5b60006103da848285016103a1565b91505092915050565b600082825260208201905092915050565b7f504a4b206275726e206661696c65640000000000000000000000000000000000600082015250565b600061042a600f836103e3565b9150610435826103f4565b602082019050919050565b600060208201905081810360008301526104598161041d565b9050919050565b60006020820190506104756000830184610338565b9291505056fea264697066735822122006d04207fe450ae46909eeb68f76cbe16989cf64fc4af46e6133894cbe7b068664736f6c63430008110033",
  "linkReferences": {},
  "deployedLinkReferences": {}
}