{
  "abi": [
    {
      "inputs": [],
      "stateMutability": "nonpayable",
      "type": "constructor"
    },
    {
      "anonymous": false,
      "inputs": [
        {
          "indexed": true,
          "internalType": "bytes32",
          "name": "role",
          "type": "bytes32"
        },
        {
          "indexed": true,
          "internalType": "bytes32",
          "name": "previousAdminRole",
          "type": "bytes32"
        },
        {
          "indexed": true,
          "internalType": "bytes32",
          "name": "newAdminRole",
          "type": "bytes32"
        }
      ],
      "name": "RoleAdminChanged",
      "type": "event"
    },
    {
      "anonymous": false,
      "inputs": [
        {
          "indexed": true,
          "internalType": "bytes32",
          "name": "role",
          "type": "bytes32"
        },
        {
          "indexed": true,
          "internalType": "address",
          "name": "account",
          "type": "address"
        },
        {
          "indexed": true,
          "internalType": "address",
          "name": "sender",
          "type": "address"
        }
      ],
      "name": "RoleGranted",
      "type": "event"
    },
    {
      "anonymous": false,
      "inputs": [
        {
          "indexed": true,
          "internalType": "bytes32",
          "name": "role",
          "type": "bytes32"
        },
        {
          "indexed": true,
          "internalType": "address",
          "name": "account",
          "type": "address"
        },
        {
          "indexed": true,
          "internalType": "address",
          "name": "sender",
          "type": "address"
        }
      ],
      "name": "RoleRevoked",
      "type": "event"
    },
    {
      "inputs": [],
      "name": "ADMIN_ROLE",
      "outputs": [
        {
          "internalType": "bytes32",
          "name": "",
          "type": "bytes32"
        }
      ],
      "stateMutability": "view",
      "type": "function"
    },
    {
      "inputs": [],
      "name": "DEFAULT_ADMIN_ROLE",
      "outputs": [
        {
          "internalType": "bytes32",
          "name": "",
          "type": "bytes32"
        }
      ],
      "stateMutability": "view",
      "type": "function"
    },
    {
      "inputs": [
        {
          "internalType": "bytes32",
          "name": "role",
          "type": "bytes32"
        }
      ],
      "name": "getRoleAdmin",
      "outputs": [
        {
          "internalType": "bytes32",
          "name": "",
          "type": "bytes32"
        }
      ],
      "stateMutability": "view",
      "type": "function"
    },
    {
      "inputs": [
        {
          "internalType": "bytes32",
          "name": "role",
          "type": "bytes32"
        },
        {
          "internalType": "address",
          "name": "account",
          "type": "address"
        }
      ],
      "name": "grantRole",
      "outputs": [],
      "stateMutability": "nonpayable",
      "type": "function"
    },
    {
      "inputs": [
        {
          "internalType": "bytes32",
          "name": "role",
          "type": "bytes32"
        },
        {
          "internalType": "address",
          "name": "account",
          "type": "address"
        }
      ],
      "name": "hasRole",
      "outputs": [
        {
          "internalType": "bool",
          "name": "",
          "type": "bool"
        }
      ],
      "stateMutability": "view",
      "type": "function"
    },
    {
      "inputs": [
        {
          "internalType": "bytes32",
          "name": "role",
          "type": "bytes32"
        },
        {
          "internalType": "address",
          "name": "account",
          "type": "address"
        }
      ],
      "name": "renounceRole",
      "outputs": [],
      "stateMutability": "nonpayable",
      "type": "function"
    },
    {
      "inputs": [
        {
          "internalType": "bytes32",
          "name": "role",
          "type": "bytes32"
        },
        {
          "internalType": "address",
          "name": "account",
          "type": "address"
        }
      ],
      "name": "revokeRole",
      "outputs": [],
      "stateMutability": "nonpayable",
      "type": "function"
    },
    {
      "inputs": [
        {
          "internalType": "bytes4",
          "name": "interfaceId",
          "type": "bytes4"
        }
      ],
      "name": "supportsInterface",
      "outputs": [
        {
          "internalType": "bool",
          "name": "",
          "type": "bool"
        }
      ],
      "stateMutability": "view",
      "type": "function"
    }
  ],
  "devdoc": {
    "events": {
      "RoleAdminChanged(bytes32,bytes32,bytes32)": {
        "details": "Emitted when `newAdminRole` is set as ``role``'s admin role, replacing `previousAdminRole` `DEFAULT_ADMIN_ROLE` is the starting admin for all roles, despite {RoleAdminChanged} not being emitted signaling this. _Available since v3.1._"
      },
      "RoleGranted(bytes32,address,address)": {
        "details": "Emitted when `account` is granted `role`. `sender` is the account that originated the contract call, an admin role bearer except when using {AccessControl-_setupRole}."
      },
      "RoleRevoked(bytes32,address,address)": {
        "details": "Emitted when `account` is revoked `role`. `sender` is the account that originated the contract call:   - if using `revokeRole`, it is the admin role bearer   - if using `renounceRole`, it is the role bearer (i.e. `account`)"
      }
    },
    "kind": "dev",
    "methods": {
      "getRoleAdmin(bytes32)": {
        "details": "Returns the admin role that controls `role`. See {grantRole} and {revokeRole}. To change a role's admin, use {_setRoleAdmin}."
      },
      "grantRole(bytes32,address)": {
        "details": "Grants `role` to `account`. If `account` had not been already granted `role`, emits a {RoleGranted} event. Requirements: - the caller must have ``role``'s admin role. May emit a {RoleGranted} event."
      },
      "hasRole(bytes32,address)": {
        "details": "Returns `true` if `account` has been granted `role`."
      },
      "renounceRole(bytes32,address)": {
        "details": "Revokes `role` from the calling account. Roles are often managed via {grantRole} and {revokeRole}: this function's purpose is to provide a mechanism for accounts to lose their privileges if they are compromised (such as when a trusted device is misplaced). If the calling account had been revoked `role`, emits a {RoleRevoked} event. Requirements: - the caller must be `account`. May emit a {RoleRevoked} event."
      },
      "revokeRole(bytes32,address)": {
        "details": "Revokes `role` from `account`. If `account` had been granted `role`, emits a {RoleRevoked} event. Requirements: - the caller must have ``role``'s admin role. May emit a {RoleRevoked} event."
      },
      "supportsInterface(bytes4)": {
        "details": "See {IERC165-supportsInterface}."
      }
    },
    "version": 1
  },
  "evm": {
    "assembly": "    /* \"WPJK.sol\":239:598  contract WPJK is OZAccessControl {... */\n  mstore(0x40, 0x80)\n    /* \"WPJK.sol\":345:532  constructor() {... */\n  callvalue\n  dup1\n  iszero\n  tag_1\n  jumpi\n  0x00\n  dup1\n  revert\ntag_1:\n  pop\n    /* \"WPJK.sol\":439:481  _setupRole(DEFAULT_ADMIN_ROLE, msg.sender) */\n  tag_4\n    /* \"@openzeppelin/contracts/access/AccessControl.sol\":2198:2202   */\n  0x00\n    /* \"WPJK.sol\":470:480  msg.sender */\n  caller\n    /* \"WPJK.sol\":439:449  _setupRole */\n  tag_5\n    /* \"WPJK.sol\":439:481  _setupRole(DEFAULT_ADMIN_ROLE, msg.sender) */\n  jump\t// in\ntag_4:\n    /* \"WPJK.sol\":491:525  _setupRole(ADMIN_ROLE, msg.sender) */\n  tag_6\n    /* \"WPJK.sol\":315:338  keccak256(\"ADMIN_ROLE\") */\n  0xa49807205ce4d355092ef5a8a18f56e8913cf4a201fbe287825b095693c21775\n    /* \"WPJK.sol\":514:524  msg.sender */\n  caller\n    /* \"WPJK.sol\":491:501  _setupRole */\n  tag_5\n    /* \"WPJK.sol\":491:525  _setupRole(ADMIN_ROLE, msg.sender) */\n  jump\t// in\ntag_6:\n    /* \"WPJK.sol\":239:598  contract WPJK is OZAccessControl {... */\n  jump(tag_7)\n    /* \"@openzeppelin/contracts/access/AccessControl.sol\":6937:7047   */\ntag_5:\n    /* \"@openzeppelin/contracts/access/AccessControl.sol\":7015:7040   */\n  tag_9\n    /* \"@openzeppelin/contracts/access/AccessControl.sol\":7026:7030   */\n  dup3\n    /* \"@openzeppelin/contracts/access/AccessControl.sol\":7032:7039   */\n  dup3\n    /* \"@openzeppelin/contracts/access/AccessControl.sol\":7015:7025   */\n  tag_10\n    /* \"@openzeppelin/contracts/access/AccessControl.sol\":7015:7040   */\n  jump\t// in\ntag_9:\n    /* \"@openzeppelin/contracts/access/AccessControl.sol\":6937:7047   */\n  pop\n  pop\n  jump\t// out\n    /* \"@openzeppelin/contracts/access/AccessControl.sol\":7587:7820   */\ntag_10:\n    /* \"@openzeppelin/contracts/access/AccessControl.sol\":3107:3111   */\n  0x00\n    /* \"@openzeppelin/contracts/access/AccessControl.sol\":3130:3142   */\n  dup3\n  dup2\n  mstore\n  0x20\n  dup2\n  dup2\n  mstore\n  0x40\n  dup1\n  dup4\n  keccak256\n  sub(shl(0xa0, 0x01), 0x01)\n    /* \"@openzeppelin/contracts/access/AccessControl.sol\":3130:3159   */\n  dup6\n  and\n  dup5\n  mstore\n  swap1\n  swap2\n  mstore\n  swap1\n  keccak256\n  sload\n  0xff\n  and\n    /* \"@openzeppelin/contracts/access/AccessControl.sol\":7665:7814   */\n  tag_9\n  jumpi\n    /* \"@openzeppelin/contracts/access/AccessControl.sol\":7708:7714   */\n  0x00\n    /* \"@openzeppelin/contracts/access/AccessControl.sol\":7708:7720   */\n  dup3\n  dup2\n  mstore\n  0x20\n  dup2\n  dup2\n  mstore\n  0x40\n  dup1\n  dup4\n  keccak256\n  sub(shl(0xa0, 0x01), 0x01)\n    /* \"@openzeppelin/contracts/access/AccessControl.sol\":7708:7737   */\n  dup6\n  and\n  dup5\n  mstore\n  swap1\n  swap2\n  mstore\n  swap1\n  keccak256\n    /* \"@openzeppelin/contracts/access/AccessControl.sol\":7708:7744   */\n  dup1\n  sload\n  not(0xff)\n  and\n    /* \"@openzeppelin/contracts/access/AccessControl.sol\":7740:7744   */\n  0x01\n    /* \"@openzeppelin/contracts/access/AccessControl.sol\":7708:7744   */\n  or\n  swap1\n  sstore\n    /* \"@openzeppelin/contracts/access/AccessControl.sol\":7790:7802   */\n  tag_15\n    /* \"@openzeppelin/contracts/utils/Context.sol\":734:744   */\n  caller\n  swap1\n    /* \"@openzeppelin/contracts/utils/Context.sol\":655:751   */\n  jump\n    /* \"@openzeppelin/contracts/access/AccessControl.sol\":7790:7802   */\ntag_15:\n  sub(shl(0xa0, 0x01), 0x01)\n    /* \"@openzeppelin/contracts/access/AccessControl.sol\":7763:7803   */\n  and\n    /* \"@openzeppelin/contracts/access/AccessControl.sol\":7781:7788   */\n  dup2\n  sub(shl(0xa0, 0x01), 0x01)\n    /* \"@openzeppelin/contracts/access/AccessControl.sol\":7763:7803   */\n  and\n    /* \"@openzeppelin/contracts/access/AccessControl.sol\":7775:7779   */\n  dup4\n    /* \"@openzeppelin/contracts/access/AccessControl.sol\":7763:7803   */\n  0x2f8788117e7eff1d82e926ec794901d17c78024a50270940304540a733656f0d\n  mload(0x40)\n  mload(0x40)\n  dup1\n  swap2\n  sub\n  swap1\n  log4\n    /* \"@openzeppelin/contracts/access/AccessControl.sol\":7587:7820   */\n  pop\n  pop\n  jump\t// out\n    /* \"WPJK.sol\":239:598  contract WPJK is OZAccessControl {... */\ntag_7:\n  dataSize(sub_0)\n  dup1\n  dataOffset(sub_0)\n  0x00\n  codecopy\n  0x00\n  return\nstop\n\nsub_0: assembly {\n        /* \"WPJK.sol\":239:598  contract WPJK is OZAccessControl {... */\n      mstore(0x40, 0x80)\n      callvalue\n      dup1\n      iszero\n      tag_1\n      jumpi\n      0x00\n      dup1\n      revert\n    tag_1:\n      pop\n      jumpi(tag_2, lt(calldatasize, 0x04))\n      shr(0xe0, calldataload(0x00))\n      dup1\n      0x75b238fc\n      gt\n      tag_11\n      jumpi\n      dup1\n      0x75b238fc\n      eq\n      tag_7\n      jumpi\n      dup1\n      0x91d14854\n      eq\n      tag_8\n      jumpi\n      dup1\n      0xa217fddf\n      eq\n      tag_9\n      jumpi\n      dup1\n      0xd547741f\n      eq\n      tag_10\n      jumpi\n      0x00\n      dup1\n      revert\n    tag_11:\n      dup1\n      0x01ffc9a7\n      eq\n      tag_3\n      jumpi\n      dup1\n      0x248a9ca3\n      eq\n      tag_4\n      jumpi\n      dup1\n      0x2f2ff15d\n      eq\n      tag_5\n      jumpi\n      dup1\n      0x36568abe\n      eq\n      tag_6\n      jumpi\n    tag_2:\n      0x00\n      dup1\n      revert\n        /* \"@openzeppelin/contracts/access/AccessControl.sol\":2732:2934   */\n    tag_3:\n      tag_12\n      tag_13\n      calldatasize\n      0x04\n      tag_14\n      jump\t// in\n    tag_13:\n      tag_15\n      jump\t// in\n    tag_12:\n      mload(0x40)\n        /* \"#utility.yul\":470:484   */\n      swap1\n      iszero\n        /* \"#utility.yul\":463:485   */\n      iszero\n        /* \"#utility.yul\":445:486   */\n      dup2\n      mstore\n        /* \"#utility.yul\":433:435   */\n      0x20\n        /* \"#utility.yul\":418:436   */\n      add\n        /* \"@openzeppelin/contracts/access/AccessControl.sol\":2732:2934   */\n    tag_16:\n      mload(0x40)\n      dup1\n      swap2\n      sub\n      swap1\n      return\n        /* \"@openzeppelin/contracts/access/AccessControl.sol\":4504:4633   */\n    tag_4:\n      tag_18\n      tag_19\n      calldatasize\n      0x04\n      tag_20\n      jump\t// in\n    tag_19:\n        /* \"@openzeppelin/contracts/access/AccessControl.sol\":4578:4585   */\n      0x00\n        /* \"@openzeppelin/contracts/access/AccessControl.sol\":4604:4616   */\n      swap1\n      dup2\n      mstore\n      0x20\n      dup2\n      swap1\n      mstore\n      0x40\n      swap1\n      keccak256\n        /* \"@openzeppelin/contracts/access/AccessControl.sol\":4604:4626   */\n      0x01\n      add\n      sload\n      swap1\n        /* \"@openzeppelin/contracts/access/AccessControl.sol\":4504:4633   */\n      jump\n    tag_18:\n      mload(0x40)\n        /* \"#utility.yul\":828:853   */\n      swap1\n      dup2\n      mstore\n        /* \"#utility.yul\":816:818   */\n      0x20\n        /* \"#utility.yul\":801:819   */\n      add\n        /* \"@openzeppelin/contracts/access/AccessControl.sol\":4504:4633   */\n      tag_16\n        /* \"#utility.yul\":682:859   */\n      jump\n        /* \"@openzeppelin/contracts/access/AccessControl.sol\":4929:5074   */\n    tag_5:\n      tag_24\n      tag_25\n      calldatasize\n      0x04\n      tag_26\n      jump\t// in\n    tag_25:\n      tag_27\n      jump\t// in\n    tag_24:\n      stop\n        /* \"@openzeppelin/contracts/access/AccessControl.sol\":6038:6252   */\n    tag_6:\n      tag_24\n      tag_29\n      calldatasize\n      0x04\n      tag_26\n      jump\t// in\n    tag_29:\n      tag_30\n      jump\t// in\n        /* \"WPJK.sol\":278:338  bytes32 public constant ADMIN_ROLE = keccak256(\"ADMIN_ROLE\") */\n    tag_7:\n      tag_18\n        /* \"WPJK.sol\":315:338  keccak256(\"ADMIN_ROLE\") */\n      0xa49807205ce4d355092ef5a8a18f56e8913cf4a201fbe287825b095693c21775\n        /* \"WPJK.sol\":278:338  bytes32 public constant ADMIN_ROLE = keccak256(\"ADMIN_ROLE\") */\n      dup2\n      jump\n        /* \"@openzeppelin/contracts/access/AccessControl.sol\":3021:3166   */\n    tag_8:\n      tag_12\n      tag_35\n      calldatasize\n      0x04\n      tag_26\n      jump\t// in\n    tag_35:\n        /* \"@openzeppelin/contracts/access/AccessControl.sol\":3107:3111   */\n      0x00\n        /* \"@openzeppelin/contracts/access/AccessControl.sol\":3130:3142   */\n      swap2\n      dup3\n      mstore\n      0x20\n      dup3\n      dup2\n      mstore\n      0x40\n      dup1\n      dup5\n      keccak256\n      sub(shl(0xa0, 0x01), 0x01)\n        /* \"@openzeppelin/contracts/access/AccessControl.sol\":3130:3159   */\n      swap4\n      swap1\n      swap4\n      and\n      dup5\n      mstore\n      swap2\n      swap1\n      mstore\n      swap1\n      keccak256\n      sload\n      0xff\n      and\n      swap1\n        /* \"@openzeppelin/contracts/access/AccessControl.sol\":3021:3166   */\n      jump\n        /* \"@openzeppelin/contracts/access/AccessControl.sol\":2153:2202   */\n    tag_9:\n      tag_18\n        /* \"@openzeppelin/contracts/access/AccessControl.sol\":2198:2202   */\n      0x00\n        /* \"@openzeppelin/contracts/access/AccessControl.sol\":2153:2202   */\n      dup2\n      jump\n        /* \"@openzeppelin/contracts/access/AccessControl.sol\":5354:5501   */\n    tag_10:\n      tag_24\n      tag_42\n      calldatasize\n      0x04\n      tag_26\n      jump\t// in\n    tag_42:\n      tag_43\n      jump\t// in\n        /* \"@openzeppelin/contracts/access/AccessControl.sol\":2732:2934   */\n    tag_15:\n        /* \"@openzeppelin/contracts/access/AccessControl.sol\":2817:2821   */\n      0x00\n      not(sub(shl(0xe0, 0x01), 0x01))\n        /* \"@openzeppelin/contracts/access/AccessControl.sol\":2840:2887   */\n      dup3\n      and\n      shl(0xe0, 0x7965db0b)\n      eq\n      dup1\n        /* \"@openzeppelin/contracts/access/AccessControl.sol\":2840:2927   */\n      tag_46\n      jumpi\n      pop\n      shl(0xe0, 0x01ffc9a7)\n      not(sub(shl(0xe0, 0x01), 0x01))\n        /* \"@openzeppelin/contracts/utils/introspection/ERC165.sol\":937:977   */\n      dup4\n      and\n      eq\n        /* \"@openzeppelin/contracts/access/AccessControl.sol\":2891:2927   */\n    tag_46:\n        /* \"@openzeppelin/contracts/access/AccessControl.sol\":2833:2927   */\n      swap3\n        /* \"@openzeppelin/contracts/access/AccessControl.sol\":2732:2934   */\n      swap2\n      pop\n      pop\n      jump\t// out\n        /* \"@openzeppelin/contracts/access/AccessControl.sol\":4929:5074   */\n    tag_27:\n        /* \"@openzeppelin/contracts/access/AccessControl.sol\":4578:4585   */\n      0x00\n        /* \"@openzeppelin/contracts/access/AccessControl.sol\":4604:4616   */\n      dup3\n      dup2\n      mstore\n      0x20\n      dup2\n      swap1\n      mstore\n      0x40\n      swap1\n      keccak256\n        /* \"@openzeppelin/contracts/access/AccessControl.sol\":4604:4626   */\n      0x01\n      add\n      sload\n        /* \"@openzeppelin/contracts/access/AccessControl.sol\":2631:2647   */\n      tag_51\n        /* \"@openzeppelin/contracts/access/AccessControl.sol\":2642:2646   */\n      dup2\n        /* \"@openzeppelin/contracts/access/AccessControl.sol\":2631:2641   */\n      tag_52\n        /* \"@openzeppelin/contracts/access/AccessControl.sol\":2631:2647   */\n      jump\t// in\n    tag_51:\n        /* \"@openzeppelin/contracts/access/AccessControl.sol\":5042:5067   */\n      tag_54\n        /* \"@openzeppelin/contracts/access/AccessControl.sol\":5053:5057   */\n      dup4\n        /* \"@openzeppelin/contracts/access/AccessControl.sol\":5059:5066   */\n      dup4\n        /* \"@openzeppelin/contracts/access/AccessControl.sol\":5042:5052   */\n      tag_55\n        /* \"@openzeppelin/contracts/access/AccessControl.sol\":5042:5067   */\n      jump\t// in\n    tag_54:\n        /* \"@openzeppelin/contracts/access/AccessControl.sol\":4929:5074   */\n      pop\n      pop\n      pop\n      jump\t// out\n        /* \"@openzeppelin/contracts/access/AccessControl.sol\":6038:6252   */\n    tag_30:\n      sub(shl(0xa0, 0x01), 0x01)\n        /* \"@openzeppelin/contracts/access/AccessControl.sol\":6133:6156   */\n      dup2\n      and\n        /* \"@openzeppelin/contracts/utils/Context.sol\":734:744   */\n      caller\n        /* \"@openzeppelin/contracts/access/AccessControl.sol\":6133:6156   */\n      eq\n        /* \"@openzeppelin/contracts/access/AccessControl.sol\":6125:6208   */\n      tag_59\n      jumpi\n      mload(0x40)\n      shl(0xe5, 0x461bcd)\n      dup2\n      mstore\n        /* \"#utility.yul\":1448:1450   */\n      0x20\n        /* \"@openzeppelin/contracts/access/AccessControl.sol\":6125:6208   */\n      0x04\n      dup3\n      add\n        /* \"#utility.yul\":1430:1451   */\n      mstore\n        /* \"#utility.yul\":1487:1489   */\n      0x2f\n        /* \"#utility.yul\":1467:1485   */\n      0x24\n      dup3\n      add\n        /* \"#utility.yul\":1460:1490   */\n      mstore\n        /* \"#utility.yul\":1526:1560   */\n      0x416363657373436f6e74726f6c3a2063616e206f6e6c792072656e6f756e6365\n        /* \"#utility.yul\":1506:1524   */\n      0x44\n      dup3\n      add\n        /* \"#utility.yul\":1499:1561   */\n      mstore\n        /* \"#utility.yul\":1597:1614   */\n      0x20726f6c657320666f722073656c660000000000000000000000000000000000\n        /* \"#utility.yul\":1577:1595   */\n      0x64\n      dup3\n      add\n        /* \"#utility.yul\":1570:1615   */\n      mstore\n        /* \"#utility.yul\":1632:1651   */\n      0x84\n      add\n        /* \"@openzeppelin/contracts/access/AccessControl.sol\":6125:6208   */\n    tag_60:\n      mload(0x40)\n      dup1\n      swap2\n      sub\n      swap1\n      revert\n    tag_59:\n        /* \"@openzeppelin/contracts/access/AccessControl.sol\":6219:6245   */\n      tag_62\n        /* \"@openzeppelin/contracts/access/AccessControl.sol\":6231:6235   */\n      dup3\n        /* \"@openzeppelin/contracts/access/AccessControl.sol\":6237:6244   */\n      dup3\n        /* \"@openzeppelin/contracts/access/AccessControl.sol\":6219:6230   */\n      tag_63\n        /* \"@openzeppelin/contracts/access/AccessControl.sol\":6219:6245   */\n      jump\t// in\n    tag_62:\n        /* \"@openzeppelin/contracts/access/AccessControl.sol\":6038:6252   */\n      pop\n      pop\n      jump\t// out\n        /* \"@openzeppelin/contracts/access/AccessControl.sol\":5354:5501   */\n    tag_43:\n        /* \"@openzeppelin/contracts/access/AccessControl.sol\":4578:4585   */\n      0x00\n        /* \"@openzeppelin/contracts/access/AccessControl.sol\":4604:4616   */\n      dup3\n      dup2\n      mstore\n      0x20\n      dup2\n      swap1\n      mstore\n      0x40\n      swap1\n      keccak256\n        /* \"@openzeppelin/contracts/access/AccessControl.sol\":4604:4626   */\n      0x01\n      add\n      sload\n        /* \"@openzeppelin/contracts/access/AccessControl.sol\":2631:2647   */\n      tag_67\n        /* \"@openzeppelin/contracts/access/AccessControl.sol\":2642:2646   */\n      dup2\n        /* \"@openzeppelin/contracts/access/AccessControl.sol\":2631:2641   */\n      tag_52\n        /* \"@openzeppelin/contracts/access/AccessControl.sol\":2631:2647   */\n      jump\t// in\n    tag_67:\n        /* \"@openzeppelin/contracts/access/AccessControl.sol\":5468:5494   */\n      tag_54\n        /* \"@openzeppelin/contracts/access/AccessControl.sol\":5480:5484   */\n      dup4\n        /* \"@openzeppelin/contracts/access/AccessControl.sol\":5486:5493   */\n      dup4\n        /* \"@openzeppelin/contracts/access/AccessControl.sol\":5468:5479   */\n      tag_63\n        /* \"@openzeppelin/contracts/access/AccessControl.sol\":5468:5494   */\n      jump\t// in\n        /* \"@openzeppelin/contracts/access/AccessControl.sol\":3460:3563   */\n    tag_52:\n        /* \"@openzeppelin/contracts/access/AccessControl.sol\":3526:3556   */\n      tag_72\n        /* \"@openzeppelin/contracts/access/AccessControl.sol\":3537:3541   */\n      dup2\n        /* \"@openzeppelin/contracts/utils/Context.sol\":734:744   */\n      caller\n        /* \"@openzeppelin/contracts/access/AccessControl.sol\":3526:3536   */\n      tag_74\n        /* \"@openzeppelin/contracts/access/AccessControl.sol\":3526:3556   */\n      jump\t// in\n    tag_72:\n        /* \"@openzeppelin/contracts/access/AccessControl.sol\":3460:3563   */\n      pop\n      jump\t// out\n        /* \"@openzeppelin/contracts/access/AccessControl.sol\":7587:7820   */\n    tag_55:\n        /* \"@openzeppelin/contracts/access/AccessControl.sol\":3107:3111   */\n      0x00\n        /* \"@openzeppelin/contracts/access/AccessControl.sol\":3130:3142   */\n      dup3\n      dup2\n      mstore\n      0x20\n      dup2\n      dup2\n      mstore\n      0x40\n      dup1\n      dup4\n      keccak256\n      sub(shl(0xa0, 0x01), 0x01)\n        /* \"@openzeppelin/contracts/access/AccessControl.sol\":3130:3159   */\n      dup6\n      and\n      dup5\n      mstore\n      swap1\n      swap2\n      mstore\n      swap1\n      keccak256\n      sload\n      0xff\n      and\n        /* \"@openzeppelin/contracts/access/AccessControl.sol\":7665:7814   */\n      tag_62\n      jumpi\n        /* \"@openzeppelin/contracts/access/AccessControl.sol\":7708:7714   */\n      0x00\n        /* \"@openzeppelin/contracts/access/AccessControl.sol\":7708:7720   */\n      dup3\n      dup2\n      mstore\n      0x20\n      dup2\n      dup2\n      mstore\n      0x40\n      dup1\n      dup4\n      keccak256\n      sub(shl(0xa0, 0x01), 0x01)\n        /* \"@openzeppelin/contracts/access/AccessControl.sol\":7708:7737   */\n      dup6\n      and\n      dup5\n      mstore\n      swap1\n      swap2\n      mstore\n      swap1\n      keccak256\n        /* \"@openzeppelin/contracts/access/AccessControl.sol\":7708:7744   */\n      dup1\n      sload\n      not(0xff)\n      and\n        /* \"@openzeppelin/contracts/access/AccessControl.sol\":7740:7744   */\n      0x01\n        /* \"@openzeppelin/contracts/access/AccessControl.sol\":7708:7744   */\n      or\n      swap1\n      sstore\n        /* \"@openzeppelin/contracts/access/AccessControl.sol\":7790:7802   */\n      tag_78\n        /* \"@openzeppelin/contracts/utils/Context.sol\":734:744   */\n      caller\n      swap1\n        /* \"@openzeppelin/contracts/utils/Context.sol\":655:751   */\n      jump\n        /* \"@openzeppelin/contracts/access/AccessControl.sol\":7790:7802   */\n    tag_78:\n      sub(shl(0xa0, 0x01), 0x01)\n        /* \"@openzeppelin/contracts/access/AccessControl.sol\":7763:7803   */\n      and\n        /* \"@openzeppelin/contracts/access/AccessControl.sol\":7781:7788   */\n      dup2\n      sub(shl(0xa0, 0x01), 0x01)\n        /* \"@openzeppelin/contracts/access/AccessControl.sol\":7763:7803   */\n      and\n        /* \"@openzeppelin/contracts/access/AccessControl.sol\":7775:7779   */\n      dup4\n        /* \"@openzeppelin/contracts/access/AccessControl.sol\":7763:7803   */\n      0x2f8788117e7eff1d82e926ec794901d17c78024a50270940304540a733656f0d\n      mload(0x40)\n      mload(0x40)\n      dup1\n      swap2\n      sub\n      swap1\n      log4\n        /* \"@openzeppelin/contracts/access/AccessControl.sol\":7587:7820   */\n      pop\n      pop\n      jump\t// out\n        /* \"@openzeppelin/contracts/access/AccessControl.sol\":7991:8225   */\n    tag_63:\n        /* \"@openzeppelin/contracts/access/AccessControl.sol\":3107:3111   */\n      0x00\n        /* \"@openzeppelin/contracts/access/AccessControl.sol\":3130:3142   */\n      dup3\n      dup2\n      mstore\n      0x20\n      dup2\n      dup2\n      mstore\n      0x40\n      dup1\n      dup4\n      keccak256\n      sub(shl(0xa0, 0x01), 0x01)\n        /* \"@openzeppelin/contracts/access/AccessControl.sol\":3130:3159   */\n      dup6\n      and\n      dup5\n      mstore\n      swap1\n      swap2\n      mstore\n      swap1\n      keccak256\n      sload\n      0xff\n      and\n        /* \"@openzeppelin/contracts/access/AccessControl.sol\":8070:8219   */\n      iszero\n      tag_62\n      jumpi\n        /* \"@openzeppelin/contracts/access/AccessControl.sol\":8144:8149   */\n      0x00\n        /* \"@openzeppelin/contracts/access/AccessControl.sol\":8112:8124   */\n      dup3\n      dup2\n      mstore\n      0x20\n      dup2\n      dup2\n      mstore\n      0x40\n      dup1\n      dup4\n      keccak256\n      sub(shl(0xa0, 0x01), 0x01)\n        /* \"@openzeppelin/contracts/access/AccessControl.sol\":8112:8141   */\n      dup6\n      and\n      dup1\n      dup6\n      mstore\n      swap3\n      mstore\n      dup1\n      dup4\n      keccak256\n        /* \"@openzeppelin/contracts/access/AccessControl.sol\":8112:8149   */\n      dup1\n      sload\n      not(0xff)\n      and\n      swap1\n      sstore\n        /* \"@openzeppelin/contracts/access/AccessControl.sol\":8168:8208   */\n      mload\n        /* \"@openzeppelin/contracts/utils/Context.sol\":734:744   */\n      caller\n      swap3\n        /* \"@openzeppelin/contracts/access/AccessControl.sol\":8112:8124   */\n      dup6\n      swap2\n        /* \"@openzeppelin/contracts/access/AccessControl.sol\":8168:8208   */\n      0xf6391f5c32d9c69d2a47ea670b442974b53935d1edc7fd64eb21e047a839171b\n      swap2\n        /* \"@openzeppelin/contracts/access/AccessControl.sol\":8144:8149   */\n      swap1\n        /* \"@openzeppelin/contracts/access/AccessControl.sol\":8168:8208   */\n      log4\n        /* \"@openzeppelin/contracts/access/AccessControl.sol\":7991:8225   */\n      pop\n      pop\n      jump\t// out\n        /* \"@openzeppelin/contracts/access/AccessControl.sol\":3844:4323   */\n    tag_74:\n        /* \"@openzeppelin/contracts/access/AccessControl.sol\":3107:3111   */\n      0x00\n        /* \"@openzeppelin/contracts/access/AccessControl.sol\":3130:3142   */\n      dup3\n      dup2\n      mstore\n      0x20\n      dup2\n      dup2\n      mstore\n      0x40\n      dup1\n      dup4\n      keccak256\n      sub(shl(0xa0, 0x01), 0x01)\n        /* \"@openzeppelin/contracts/access/AccessControl.sol\":3130:3159   */\n      dup6\n      and\n      dup5\n      mstore\n      swap1\n      swap2\n      mstore\n      swap1\n      keccak256\n      sload\n      0xff\n      and\n        /* \"@openzeppelin/contracts/access/AccessControl.sol\":3927:4317   */\n      tag_62\n      jumpi\n        /* \"@openzeppelin/contracts/access/AccessControl.sol\":4115:4143   */\n      tag_87\n        /* \"@openzeppelin/contracts/access/AccessControl.sol\":4135:4142   */\n      dup2\n        /* \"@openzeppelin/contracts/access/AccessControl.sol\":4115:4134   */\n      tag_88\n        /* \"@openzeppelin/contracts/access/AccessControl.sol\":4115:4143   */\n      jump\t// in\n    tag_87:\n        /* \"@openzeppelin/contracts/access/AccessControl.sol\":4214:4252   */\n      tag_89\n        /* \"@openzeppelin/contracts/access/AccessControl.sol\":4242:4246   */\n      dup4\n        /* \"@openzeppelin/contracts/access/AccessControl.sol\":4249:4251   */\n      0x20\n        /* \"@openzeppelin/contracts/access/AccessControl.sol\":4214:4233   */\n      tag_90\n        /* \"@openzeppelin/contracts/access/AccessControl.sol\":4214:4252   */\n      jump\t// in\n    tag_89:\n        /* \"@openzeppelin/contracts/access/AccessControl.sol\":4022:4274   */\n      add(0x20, mload(0x40))\n      tag_91\n      swap3\n      swap2\n      swap1\n      tag_92\n      jump\t// in\n    tag_91:\n      0x40\n      dup1\n      mload\n      not(0x1f)\n      dup2\n      dup5\n      sub\n      add\n      dup2\n      mstore\n      swap1\n      dup3\n      swap1\n      mstore\n      shl(0xe5, 0x461bcd)\n        /* \"@openzeppelin/contracts/access/AccessControl.sol\":3970:4306   */\n      dup3\n      mstore\n      tag_60\n      swap2\n      0x04\n      add\n      tag_94\n      jump\t// in\n        /* \"@openzeppelin/contracts/utils/Strings.sol\":2407:2556   */\n    tag_88:\n        /* \"@openzeppelin/contracts/utils/Strings.sol\":2465:2478   */\n      0x60\n        /* \"@openzeppelin/contracts/utils/Strings.sol\":2497:2549   */\n      tag_46\n      sub(shl(0xa0, 0x01), 0x01)\n        /* \"@openzeppelin/contracts/utils/Strings.sol\":2509:2531   */\n      dup4\n      and\n        /* \"@openzeppelin/contracts/utils/Strings.sol\":343:345   */\n      0x14\n        /* \"@openzeppelin/contracts/utils/Strings.sol\":1818:2255   */\n    tag_90:\n        /* \"@openzeppelin/contracts/utils/Strings.sol\":1893:1906   */\n      0x60\n        /* \"@openzeppelin/contracts/utils/Strings.sol\":1918:1937   */\n      0x00\n        /* \"@openzeppelin/contracts/utils/Strings.sol\":1950:1960   */\n      tag_98\n        /* \"@openzeppelin/contracts/utils/Strings.sol\":1954:1960   */\n      dup4\n        /* \"@openzeppelin/contracts/utils/Strings.sol\":1950:1951   */\n      0x02\n        /* \"@openzeppelin/contracts/utils/Strings.sol\":1950:1960   */\n      tag_99\n      jump\t// in\n    tag_98:\n        /* \"@openzeppelin/contracts/utils/Strings.sol\":1950:1964   */\n      tag_100\n      swap1\n        /* \"@openzeppelin/contracts/utils/Strings.sol\":1963:1964   */\n      0x02\n        /* \"@openzeppelin/contracts/utils/Strings.sol\":1950:1964   */\n      tag_101\n      jump\t// in\n    tag_100:\n        /* \"@openzeppelin/contracts/utils/Strings.sol\":1940:1965   */\n      0xffffffffffffffff\n      dup2\n      gt\n      iszero\n      tag_103\n      jumpi\n      tag_103\n      tag_104\n      jump\t// in\n    tag_103:\n      mload(0x40)\n      swap1\n      dup1\n      dup3\n      mstore\n      dup1\n      0x1f\n      add\n      not(0x1f)\n      and\n      0x20\n      add\n      dup3\n      add\n      0x40\n      mstore\n      dup1\n      iszero\n      tag_105\n      jumpi\n      0x20\n      dup3\n      add\n      dup2\n      dup1\n      calldatasize\n      dup4\n      calldatacopy\n      add\n      swap1\n      pop\n    tag_105:\n      pop\n        /* \"@openzeppelin/contracts/utils/Strings.sol\":1918:1965   */\n      swap1\n      pop\n      shl(0xfc, 0x03)\n        /* \"@openzeppelin/contracts/utils/Strings.sol\":1975:1981   */\n      dup2\n        /* \"@openzeppelin/contracts/utils/Strings.sol\":1982:1983   */\n      0x00\n        /* \"@openzeppelin/contracts/utils/Strings.sol\":1975:1984   */\n      dup2\n      mload\n      dup2\n      lt\n      tag_107\n      jumpi\n      tag_107\n      tag_108\n      jump\t// in\n    tag_107:\n      0x20\n      add\n      add\n        /* \"@openzeppelin/contracts/utils/Strings.sol\":1975:1990   */\n      swap1\n      not(sub(shl(0xf8, 0x01), 0x01))\n      and\n      swap1\n      dup2\n      0x00\n      byte\n      swap1\n      mstore8\n      pop\n      shl(0xfb, 0x0f)\n        /* \"@openzeppelin/contracts/utils/Strings.sol\":2000:2006   */\n      dup2\n        /* \"@openzeppelin/contracts/utils/Strings.sol\":2007:2008   */\n      0x01\n        /* \"@openzeppelin/contracts/utils/Strings.sol\":2000:2009   */\n      dup2\n      mload\n      dup2\n      lt\n      tag_110\n      jumpi\n      tag_110\n      tag_108\n      jump\t// in\n    tag_110:\n      0x20\n      add\n      add\n        /* \"@openzeppelin/contracts/utils/Strings.sol\":2000:2015   */\n      swap1\n      not(sub(shl(0xf8, 0x01), 0x01))\n      and\n      swap1\n      dup2\n      0x00\n      byte\n      swap1\n      mstore8\n      pop\n        /* \"@openzeppelin/contracts/utils/Strings.sol\":2030:2039   */\n      0x00\n        /* \"@openzeppelin/contracts/utils/Strings.sol\":2042:2052   */\n      tag_114\n        /* \"@openzeppelin/contracts/utils/Strings.sol\":2046:2052   */\n      dup5\n        /* \"@openzeppelin/contracts/utils/Strings.sol\":2042:2043   */\n      0x02\n        /* \"@openzeppelin/contracts/utils/Strings.sol\":2042:2052   */\n      tag_99\n      jump\t// in\n    tag_114:\n        /* \"@openzeppelin/contracts/utils/Strings.sol\":2042:2056   */\n      tag_115\n      swap1\n        /* \"@openzeppelin/contracts/utils/Strings.sol\":2055:2056   */\n      0x01\n        /* \"@openzeppelin/contracts/utils/Strings.sol\":2042:2056   */\n      tag_101\n      jump\t// in\n    tag_115:\n        /* \"@openzeppelin/contracts/utils/Strings.sol\":2030:2056   */\n      swap1\n      pop\n        /* \"@openzeppelin/contracts/utils/Strings.sol\":2025:2153   */\n    tag_111:\n        /* \"@openzeppelin/contracts/utils/Strings.sol\":2062:2063   */\n      0x01\n        /* \"@openzeppelin/contracts/utils/Strings.sol\":2058:2059   */\n      dup2\n        /* \"@openzeppelin/contracts/utils/Strings.sol\":2058:2063   */\n      gt\n        /* \"@openzeppelin/contracts/utils/Strings.sol\":2025:2153   */\n      iszero\n      tag_112\n      jumpi\n        /* \"@openzeppelin/contracts/utils/Strings.sol\":2096:2104   */\n      0x3031323334353637383961626364656600000000000000000000000000000000\n        /* \"@openzeppelin/contracts/utils/Strings.sol\":2105:2110   */\n      dup6\n        /* \"@openzeppelin/contracts/utils/Strings.sol\":2113:2116   */\n      0x0f\n        /* \"@openzeppelin/contracts/utils/Strings.sol\":2105:2116   */\n      and\n        /* \"@openzeppelin/contracts/utils/Strings.sol\":2096:2117   */\n      0x10\n      dup2\n      lt\n      tag_117\n      jumpi\n      tag_117\n      tag_108\n      jump\t// in\n    tag_117:\n      byte\n      0xf8\n      shl\n        /* \"@openzeppelin/contracts/utils/Strings.sol\":2084:2090   */\n      dup3\n        /* \"@openzeppelin/contracts/utils/Strings.sol\":2091:2092   */\n      dup3\n        /* \"@openzeppelin/contracts/utils/Strings.sol\":2084:2093   */\n      dup2\n      mload\n      dup2\n      lt\n      tag_119\n      jumpi\n      tag_119\n      tag_108\n      jump\t// in\n    tag_119:\n      0x20\n      add\n      add\n        /* \"@openzeppelin/contracts/utils/Strings.sol\":2084:2117   */\n      swap1\n      not(sub(shl(0xf8, 0x01), 0x01))\n      and\n      swap1\n      dup2\n      0x00\n      byte\n      swap1\n      mstore8\n      pop\n        /* \"@openzeppelin/contracts/utils/Strings.sol\":2141:2142   */\n      0x04\n        /* \"@openzeppelin/contracts/utils/Strings.sol\":2131:2142   */\n      swap5\n      swap1\n      swap5\n      shr\n      swap4\n        /* \"@openzeppelin/contracts/utils/Strings.sol\":2065:2068   */\n      tag_120\n      dup2\n      tag_121\n      jump\t// in\n    tag_120:\n      swap1\n      pop\n        /* \"@openzeppelin/contracts/utils/Strings.sol\":2025:2153   */\n      jump(tag_111)\n    tag_112:\n      pop\n        /* \"@openzeppelin/contracts/utils/Strings.sol\":2170:2180   */\n      dup4\n      iszero\n        /* \"@openzeppelin/contracts/utils/Strings.sol\":2162:2217   */\n      tag_122\n      jumpi\n      mload(0x40)\n      shl(0xe5, 0x461bcd)\n      dup2\n      mstore\n        /* \"#utility.yul\":3944:3946   */\n      0x20\n        /* \"@openzeppelin/contracts/utils/Strings.sol\":2162:2217   */\n      0x04\n      dup3\n      add\n        /* \"#utility.yul\":3926:3947   */\n      dup2\n      swap1\n      mstore\n        /* \"#utility.yul\":3963:3981   */\n      0x24\n      dup3\n      add\n        /* \"#utility.yul\":3956:3986   */\n      mstore\n        /* \"#utility.yul\":4022:4056   */\n      0x537472696e67733a20686578206c656e67746820696e73756666696369656e74\n        /* \"#utility.yul\":4002:4020   */\n      0x44\n      dup3\n      add\n        /* \"#utility.yul\":3995:4057   */\n      mstore\n        /* \"#utility.yul\":4074:4092   */\n      0x64\n      add\n        /* \"@openzeppelin/contracts/utils/Strings.sol\":2162:2217   */\n      tag_60\n        /* \"#utility.yul\":3742:4098   */\n      jump\n        /* \"@openzeppelin/contracts/utils/Strings.sol\":2162:2217   */\n    tag_122:\n        /* \"@openzeppelin/contracts/utils/Strings.sol\":2241:2247   */\n      swap4\n        /* \"@openzeppelin/contracts/utils/Strings.sol\":1818:2255   */\n      swap3\n      pop\n      pop\n      pop\n      jump\t// out\n        /* \"#utility.yul\":14:300   */\n    tag_14:\n        /* \"#utility.yul\":72:78   */\n      0x00\n        /* \"#utility.yul\":125:127   */\n      0x20\n        /* \"#utility.yul\":113:122   */\n      dup3\n        /* \"#utility.yul\":104:111   */\n      dup5\n        /* \"#utility.yul\":100:123   */\n      sub\n        /* \"#utility.yul\":96:128   */\n      slt\n        /* \"#utility.yul\":93:145   */\n      iszero\n      tag_129\n      jumpi\n        /* \"#utility.yul\":141:142   */\n      0x00\n        /* \"#utility.yul\":138:139   */\n      dup1\n        /* \"#utility.yul\":131:143   */\n      revert\n        /* \"#utility.yul\":93:145   */\n    tag_129:\n        /* \"#utility.yul\":167:190   */\n      dup2\n      calldataload\n      not(sub(shl(0xe0, 0x01), 0x01))\n        /* \"#utility.yul\":219:251   */\n      dup2\n      and\n        /* \"#utility.yul\":209:252   */\n      dup2\n      eq\n        /* \"#utility.yul\":199:270   */\n      tag_122\n      jumpi\n        /* \"#utility.yul\":266:267   */\n      0x00\n        /* \"#utility.yul\":263:264   */\n      dup1\n        /* \"#utility.yul\":256:268   */\n      revert\n        /* \"#utility.yul\":497:677   */\n    tag_20:\n        /* \"#utility.yul\":556:562   */\n      0x00\n        /* \"#utility.yul\":609:611   */\n      0x20\n        /* \"#utility.yul\":597:606   */\n      dup3\n        /* \"#utility.yul\":588:595   */\n      dup5\n        /* \"#utility.yul\":584:607   */\n      sub\n        /* \"#utility.yul\":580:612   */\n      slt\n        /* \"#utility.yul\":577:629   */\n      iszero\n      tag_133\n      jumpi\n        /* \"#utility.yul\":625:626   */\n      0x00\n        /* \"#utility.yul\":622:623   */\n      dup1\n        /* \"#utility.yul\":615:627   */\n      revert\n        /* \"#utility.yul\":577:629   */\n    tag_133:\n      pop\n        /* \"#utility.yul\":648:671   */\n      calldataload\n      swap2\n        /* \"#utility.yul\":497:677   */\n      swap1\n      pop\n      jump\t// out\n        /* \"#utility.yul\":864:1241   */\n    tag_26:\n        /* \"#utility.yul\":932:938   */\n      0x00\n        /* \"#utility.yul\":940:946   */\n      dup1\n        /* \"#utility.yul\":993:995   */\n      0x40\n        /* \"#utility.yul\":981:990   */\n      dup4\n        /* \"#utility.yul\":972:979   */\n      dup6\n        /* \"#utility.yul\":968:991   */\n      sub\n        /* \"#utility.yul\":964:996   */\n      slt\n        /* \"#utility.yul\":961:1013   */\n      iszero\n      tag_136\n      jumpi\n        /* \"#utility.yul\":1009:1010   */\n      0x00\n        /* \"#utility.yul\":1006:1007   */\n      dup1\n        /* \"#utility.yul\":999:1011   */\n      revert\n        /* \"#utility.yul\":961:1013   */\n    tag_136:\n        /* \"#utility.yul\":1045:1054   */\n      dup3\n        /* \"#utility.yul\":1032:1055   */\n      calldataload\n        /* \"#utility.yul\":1022:1055   */\n      swap2\n      pop\n        /* \"#utility.yul\":1105:1107   */\n      0x20\n        /* \"#utility.yul\":1094:1103   */\n      dup4\n        /* \"#utility.yul\":1090:1108   */\n      add\n        /* \"#utility.yul\":1077:1109   */\n      calldataload\n      sub(shl(0xa0, 0x01), 0x01)\n        /* \"#utility.yul\":1142:1147   */\n      dup2\n        /* \"#utility.yul\":1138:1192   */\n      and\n        /* \"#utility.yul\":1131:1136   */\n      dup2\n        /* \"#utility.yul\":1128:1193   */\n      eq\n        /* \"#utility.yul\":1118:1211   */\n      tag_137\n      jumpi\n        /* \"#utility.yul\":1207:1208   */\n      0x00\n        /* \"#utility.yul\":1204:1205   */\n      dup1\n        /* \"#utility.yul\":1197:1209   */\n      revert\n        /* \"#utility.yul\":1118:1211   */\n    tag_137:\n        /* \"#utility.yul\":1230:1235   */\n      dup1\n        /* \"#utility.yul\":1220:1235   */\n      swap2\n      pop\n      pop\n        /* \"#utility.yul\":864:1241   */\n      swap3\n      pop\n      swap3\n      swap1\n      pop\n      jump\t// out\n        /* \"#utility.yul\":1662:1874   */\n    tag_125:\n        /* \"#utility.yul\":1704:1707   */\n      0x00\n        /* \"#utility.yul\":1742:1747   */\n      dup2\n        /* \"#utility.yul\":1736:1748   */\n      mload\n        /* \"#utility.yul\":1786:1792   */\n      dup1\n        /* \"#utility.yul\":1779:1783   */\n      0x20\n        /* \"#utility.yul\":1772:1777   */\n      dup5\n        /* \"#utility.yul\":1768:1784   */\n      add\n        /* \"#utility.yul\":1763:1766   */\n      dup6\n        /* \"#utility.yul\":1757:1793   */\n      mcopy\n        /* \"#utility.yul\":1848:1849   */\n      0x00\n        /* \"#utility.yul\":1812:1828   */\n      swap4\n      add\n        /* \"#utility.yul\":1837:1850   */\n      swap3\n      dup4\n      mstore\n      pop\n        /* \"#utility.yul\":1812:1828   */\n      swap1\n      swap2\n        /* \"#utility.yul\":1662:1874   */\n      swap1\n      pop\n      jump\t// out\n        /* \"#utility.yul\":1879:2474   */\n    tag_92:\n        /* \"#utility.yul\":2290:2315   */\n      0x416363657373436f6e74726f6c3a206163636f756e7420000000000000000000\n        /* \"#utility.yul\":2285:2288   */\n      dup2\n        /* \"#utility.yul\":2278:2316   */\n      mstore\n        /* \"#utility.yul\":2260:2263   */\n      0x00\n        /* \"#utility.yul\":2335:2374   */\n      tag_141\n        /* \"#utility.yul\":2370:2372   */\n      0x17\n        /* \"#utility.yul\":2365:2368   */\n      dup4\n        /* \"#utility.yul\":2361:2373   */\n      add\n        /* \"#utility.yul\":2353:2359   */\n      dup6\n        /* \"#utility.yul\":2335:2374   */\n      tag_125\n      jump\t// in\n    tag_141:\n        /* \"#utility.yul\":2394:2413   */\n      0x206973206d697373696e6720726f6c6520000000000000000000000000000000\n        /* \"#utility.yul\":2390:2392   */\n      dup2\n        /* \"#utility.yul\":2383:2414   */\n      mstore\n        /* \"#utility.yul\":2430:2468   */\n      tag_142\n        /* \"#utility.yul\":2464:2466   */\n      0x11\n        /* \"#utility.yul\":2460:2462   */\n      dup3\n        /* \"#utility.yul\":2456:2467   */\n      add\n        /* \"#utility.yul\":2448:2454   */\n      dup6\n        /* \"#utility.yul\":2430:2468   */\n      tag_125\n      jump\t// in\n    tag_142:\n        /* \"#utility.yul\":2423:2468   */\n      swap6\n        /* \"#utility.yul\":1879:2474   */\n      swap5\n      pop\n      pop\n      pop\n      pop\n      pop\n      jump\t// out\n        /* \"#utility.yul\":2479:2897   */\n    tag_94:\n        /* \"#utility.yul\":2628:2630   */\n      0x20\n        /* \"#utility.yul\":2617:2626   */\n      dup2\n        /* \"#utility.yul\":2610:2631   */\n      mstore\n        /* \"#utility.yul\":2591:2595   */\n      0x00\n        /* \"#utility.yul\":2660:2666   */\n      dup3\n        /* \"#utility.yul\":2654:2667   */\n      mload\n        /* \"#utility.yul\":2703:2709   */\n      dup1\n        /* \"#utility.yul\":2698:2700   */\n      0x20\n        /* \"#utility.yul\":2687:2696   */\n      dup5\n        /* \"#utility.yul\":2683:2701   */\n      add\n        /* \"#utility.yul\":2676:2710   */\n      mstore\n        /* \"#utility.yul\":2762:2768   */\n      dup1\n        /* \"#utility.yul\":2757:2759   */\n      0x20\n        /* \"#utility.yul\":2749:2755   */\n      dup6\n        /* \"#utility.yul\":2745:2760   */\n      add\n        /* \"#utility.yul\":2740:2742   */\n      0x40\n        /* \"#utility.yul\":2729:2738   */\n      dup6\n        /* \"#utility.yul\":2725:2743   */\n      add\n        /* \"#utility.yul\":2719:2769   */\n      mcopy\n        /* \"#utility.yul\":2818:2819   */\n      0x00\n        /* \"#utility.yul\":2813:2815   */\n      0x40\n        /* \"#utility.yul\":2804:2810   */\n      dup3\n        /* \"#utility.yul\":2793:2802   */\n      dup6\n        /* \"#utility.yul\":2789:2811   */\n      add\n        /* \"#utility.yul\":2785:2816   */\n      add\n        /* \"#utility.yul\":2778:2820   */\n      mstore\n        /* \"#utility.yul\":2888:2890   */\n      0x40\n        /* \"#utility.yul\":2881:2883   */\n      0x1f\n        /* \"#utility.yul\":2877:2884   */\n      not\n        /* \"#utility.yul\":2872:2874   */\n      0x1f\n        /* \"#utility.yul\":2864:2870   */\n      dup4\n        /* \"#utility.yul\":2860:2875   */\n      add\n        /* \"#utility.yul\":2856:2885   */\n      and\n        /* \"#utility.yul\":2845:2854   */\n      dup5\n        /* \"#utility.yul\":2841:2886   */\n      add\n        /* \"#utility.yul\":2837:2891   */\n      add\n        /* \"#utility.yul\":2829:2891   */\n      swap2\n      pop\n      pop\n        /* \"#utility.yul\":2479:2897   */\n      swap3\n      swap2\n      pop\n      pop\n      jump\t// out\n        /* \"#utility.yul\":2902:3029   */\n    tag_126:\n        /* \"#utility.yul\":2963:2973   */\n      0x4e487b71\n        /* \"#utility.yul\":2958:2961   */\n      0xe0\n        /* \"#utility.yul\":2954:2974   */\n      shl\n        /* \"#utility.yul\":2951:2952   */\n      0x00\n        /* \"#utility.yul\":2944:2975   */\n      mstore\n        /* \"#utility.yul\":2994:2998   */\n      0x11\n        /* \"#utility.yul\":2991:2992   */\n      0x04\n        /* \"#utility.yul\":2984:2999   */\n      mstore\n        /* \"#utility.yul\":3018:3022   */\n      0x24\n        /* \"#utility.yul\":3015:3016   */\n      0x00\n        /* \"#utility.yul\":3008:3023   */\n      revert\n        /* \"#utility.yul\":3034:3202   */\n    tag_99:\n        /* \"#utility.yul\":3107:3116   */\n      dup1\n      dup3\n      mul\n        /* \"#utility.yul\":3138:3147   */\n      dup2\n      iszero\n        /* \"#utility.yul\":3155:3170   */\n      dup3\n      dup3\n      div\n        /* \"#utility.yul\":3149:3171   */\n      dup5\n      eq\n        /* \"#utility.yul\":3135:3172   */\n      or\n        /* \"#utility.yul\":3125:3196   */\n      tag_46\n      jumpi\n        /* \"#utility.yul\":3176:3194   */\n      tag_46\n      tag_126\n      jump\t// in\n        /* \"#utility.yul\":3207:3332   */\n    tag_101:\n        /* \"#utility.yul\":3272:3281   */\n      dup1\n      dup3\n      add\n        /* \"#utility.yul\":3293:3303   */\n      dup1\n      dup3\n      gt\n        /* \"#utility.yul\":3290:3326   */\n      iszero\n      tag_46\n      jumpi\n        /* \"#utility.yul\":3306:3324   */\n      tag_46\n      tag_126\n      jump\t// in\n        /* \"#utility.yul\":3337:3464   */\n    tag_104:\n        /* \"#utility.yul\":3398:3408   */\n      0x4e487b71\n        /* \"#utility.yul\":3393:3396   */\n      0xe0\n        /* \"#utility.yul\":3389:3409   */\n      shl\n        /* \"#utility.yul\":3386:3387   */\n      0x00\n        /* \"#utility.yul\":3379:3410   */\n      mstore\n        /* \"#utility.yul\":3429:3433   */\n      0x41\n        /* \"#utility.yul\":3426:3427   */\n      0x04\n        /* \"#utility.yul\":3419:3434   */\n      mstore\n        /* \"#utility.yul\":3453:3457   */\n      0x24\n        /* \"#utility.yul\":3450:3451   */\n      0x00\n        /* \"#utility.yul\":3443:3458   */\n      revert\n        /* \"#utility.yul\":3469:3596   */\n    tag_108:\n        /* \"#utility.yul\":3530:3540   */\n      0x4e487b71\n        /* \"#utility.yul\":3525:3528   */\n      0xe0\n        /* \"#utility.yul\":3521:3541   */\n      shl\n        /* \"#utility.yul\":3518:3519   */\n      0x00\n        /* \"#utility.yul\":3511:3542   */\n      mstore\n        /* \"#utility.yul\":3561:3565   */\n      0x32\n        /* \"#utility.yul\":3558:3559   */\n      0x04\n        /* \"#utility.yul\":3551:3566   */\n      mstore\n        /* \"#utility.yul\":3585:3589   */\n      0x24\n        /* \"#utility.yul\":3582:3583   */\n      0x00\n        /* \"#utility.yul\":3575:3590   */\n      revert\n        /* \"#utility.yul\":3601:3737   */\n    tag_121:\n        /* \"#utility.yul\":3640:3643   */\n      0x00\n        /* \"#utility.yul\":3668:3673   */\n      dup2\n        /* \"#utility.yul\":3658:3697   */\n      tag_155\n      jumpi\n        /* \"#utility.yul\":3677:3695   */\n      tag_155\n      tag_126\n      jump\t// in\n    tag_155:\n      pop\n      not(0x00)\n        /* \"#utility.yul\":3713:3731   */\n      add\n      swap1\n        /* \"#utility.yul\":3601:3737   */\n      jump\t// out\n\n    auxdata: 0xa264697066735822122020a86252ed7d8581dfe1142ee2f817d9c37ae97fee274b724eb65f06775e32e264736f6c63430008190033\n}\n",
    "bytecode": {
      "linkReferences": {},
      "object": "608060405234801561000f575f80fd5b5061001a5f33610049565b6100447fa49807205ce4d355092ef5a8a18f56e8913cf4a201fbe287825b095693c2177533610049565b6100f3565b6100538282610057565b5050565b5f828152602081815260408083206001600160a01b038516845290915290205460ff16610053575f828152602081815260408083206001600160a01b03851684529091529020805460ff191660011790556100af3390565b6001600160a01b0316816001600160a01b0316837f2f8788117e7eff1d82e926ec794901d17c78024a50270940304540a733656f0d60405160405180910390a45050565b6107c6806101005f395ff3fe608060405234801561000f575f80fd5b5060043610610085575f3560e01c806375b238fc1161005857806375b238fc1461010957806391d1485414610130578063a217fddf14610166578063d547741f1461016d575f80fd5b806301ffc9a714610089578063248a9ca3146100b15780632f2ff15d146100e157806336568abe146100f6575b5f80fd5b61009c6100973660046105e8565b610180565b60405190151581526020015b60405180910390f35b6100d36100bf36600461060f565b5f9081526020819052604090206001015490565b6040519081526020016100a8565b6100f46100ef366004610626565b6101b6565b005b6100f4610104366004610626565b6101df565b6100d37fa49807205ce4d355092ef5a8a18f56e8913cf4a201fbe287825b095693c2177581565b61009c61013e366004610626565b5f918252602082815260408084206001600160a01b0393909316845291905290205460ff1690565b6100d35f81565b6100f461017b366004610626565b610270565b5f6001600160e01b03198216637965db0b60e01b14806101b057506301ffc9a760e01b6001600160e01b03198316145b92915050565b5f828152602081905260409020600101546101d081610294565b6101da83836102a1565b505050565b6001600160a01b03811633146102625760405162461bcd60e51b815260206004820152602f60248201527f416363657373436f6e74726f6c3a2063616e206f6e6c792072656e6f756e636560448201527f20726f6c657320666f722073656c66000000000000000000000000000000000060648201526084015b60405180910390fd5b61026c828261033d565b5050565b5f8281526020819052604090206001015461028a81610294565b6101da838361033d565b61029e81336103ba565b50565b5f828152602081815260408083206001600160a01b038516845290915290205460ff1661026c575f828152602081815260408083206001600160a01b03851684529091529020805460ff191660011790556102f93390565b6001600160a01b0316816001600160a01b0316837f2f8788117e7eff1d82e926ec794901d17c78024a50270940304540a733656f0d60405160405180910390a45050565b5f828152602081815260408083206001600160a01b038516845290915290205460ff161561026c575f828152602081815260408083206001600160a01b0385168085529252808320805460ff1916905551339285917ff6391f5c32d9c69d2a47ea670b442974b53935d1edc7fd64eb21e047a839171b9190a45050565b5f828152602081815260408083206001600160a01b038516845290915290205460ff1661026c576103ea8161042c565b6103f583602061043e565b604051602001610406929190610676565b60408051601f198184030181529082905262461bcd60e51b8252610259916004016106e0565b60606101b06001600160a01b03831660145b60605f61044c836002610729565b610457906002610740565b67ffffffffffffffff81111561046f5761046f610753565b6040519080825280601f01601f191660200182016040528015610499576020820181803683370190505b509050600360fc1b815f815181106104b3576104b3610767565b60200101906001600160f81b03191690815f1a905350600f60fb1b816001815181106104e1576104e1610767565b60200101906001600160f81b03191690815f1a9053505f610503846002610729565b61050e906001610740565b90505b6001811115610592577f303132333435363738396162636465660000000000000000000000000000000085600f166010811061054f5761054f610767565b1a60f81b82828151811061056557610565610767565b60200101906001600160f81b03191690815f1a90535060049490941c9361058b8161077b565b9050610511565b5083156105e15760405162461bcd60e51b815260206004820181905260248201527f537472696e67733a20686578206c656e67746820696e73756666696369656e746044820152606401610259565b9392505050565b5f602082840312156105f8575f80fd5b81356001600160e01b0319811681146105e1575f80fd5b5f6020828403121561061f575f80fd5b5035919050565b5f8060408385031215610637575f80fd5b8235915060208301356001600160a01b0381168114610654575f80fd5b809150509250929050565b5f81518060208401855e5f93019283525090919050565b7f416363657373436f6e74726f6c3a206163636f756e742000000000000000000081525f6106a7601783018561065f565b7f206973206d697373696e6720726f6c652000000000000000000000000000000081526106d7601182018561065f565b95945050505050565b602081525f82518060208401528060208501604085015e5f604082850101526040601f19601f83011684010191505092915050565b634e487b7160e01b5f52601160045260245ffd5b80820281158282048414176101b0576101b0610715565b808201808211156101b0576101b0610715565b634e487b7160e01b5f52604160045260245ffd5b634e487b7160e01b5f52603260045260245ffd5b5f8161078957610789610715565b505f19019056fea264697066735822122020a86252ed7d8581dfe1142ee2f817d9c37ae97fee274b724eb65f06775e32e264736f6c63430008190033",
      "opcodes": "PUSH1 0x80 PUSH1 0x40 MSTORE CALLVALUE DUP1 ISZERO PUSH2 0xF JUMPI PUSH0 DUP1 REVERT JUMPDEST POP PUSH2 0x1A PUSH0 CALLER PUSH2 0x49 JUMP JUMPDEST PUSH2 0x44 PUSH32 0xA49807205CE4D355092EF5A8A18F56E8913CF4A201FBE287825B095693C21775 CALLER PUSH2 0x49 JUMP JUMPDEST PUSH2 0xF3 JUMP JUMPDEST PUSH2 0x53 DUP3 DUP3 PUSH2 0x57 JUMP JUMPDEST POP POP JUMP JUMPDEST PUSH0 DUP3 DUP2 MSTORE PUSH1 0x20 DUP2 DUP2 MSTORE PUSH1 0x40 DUP1 DUP4 KECCAK256 PUSH1 0x1 PUSH1 0x1 PUSH1 0xA0 SHL SUB DUP6 AND DUP5 MSTORE SWAP1 SWAP2 MSTORE SWAP1 KECCAK256 SLOAD PUSH1 0xFF AND PUSH2 0x53 JUMPI PUSH0 DUP3 DUP2 MSTORE PUSH1 0x20 DUP2 DUP2 MSTORE PUSH1 0x40 DUP1 DUP4 KECCAK256 PUSH1 0x1 PUSH1 0x1 PUSH1 0xA0 SHL SUB DUP6 AND DUP5 MSTORE SWAP1 SWAP2 MSTORE SWAP1 KECCAK256 DUP1 SLOAD PUSH1 0xFF NOT AND PUSH1 0x1 OR SWAP1 SSTORE PUSH2 0xAF CALLER SWAP1 JUMP JUMPDEST PUSH1 0x1 PUSH1 0x1 PUSH1 0xA0 SHL SUB AND DUP2 PUSH1 0x1 PUSH1 0x1 PUSH1 0xA0 SHL SUB AND DUP4 PUSH32 0x2F8788117E7EFF1D82E926EC794901D17C78024A50270940304540A733656F0D PUSH1 0x40 MLOAD PUSH1 0x40 MLOAD DUP1 SWAP2 SUB SWAP1 LOG4 POP POP JUMP JUMPDEST PUSH2 0x7C6 DUP1 PUSH2 0x100 PUSH0 CODECOPY PUSH0 RETURN INVALID PUSH1 0x80 PUSH1 0x40 MSTORE CALLVALUE DUP1 ISZERO PUSH2 0xF JUMPI PUSH0 DUP1 REVERT JUMPDEST POP PUSH1 0x4 CALLDATASIZE LT PUSH2 0x85 JUMPI PUSH0 CALLDATALOAD PUSH1 0xE0 SHR DUP1 PUSH4 0x75B238FC GT PUSH2 0x58 JUMPI DUP1 PUSH4 0x75B238FC EQ PUSH2 0x109 JUMPI DUP1 PUSH4 0x91D14854 EQ PUSH2 0x130 JUMPI DUP1 PUSH4 0xA217FDDF EQ PUSH2 0x166 JUMPI DUP1 PUSH4 0xD547741F EQ PUSH2 0x16D JUMPI PUSH0 DUP1 REVERT JUMPDEST DUP1 PUSH4 0x1FFC9A7 EQ PUSH2 0x89 JUMPI DUP1 PUSH4 0x248A9CA3 EQ PUSH2 0xB1 JUMPI DUP1 PUSH4 0x2F2FF15D EQ PUSH2 0xE1 JUMPI DUP1 PUSH4 0x36568ABE EQ PUSH2 0xF6 JUMPI JUMPDEST PUSH0 DUP1 REVERT JUMPDEST PUSH2 0x9C PUSH2 0x97 CALLDATASIZE PUSH1 0x4 PUSH2 0x5E8 JUMP JUMPDEST PUSH2 0x180 JUMP JUMPDEST PUSH1 0x40 MLOAD SWAP1 ISZERO ISZERO DUP2 MSTORE PUSH1 0x20 ADD JUMPDEST PUSH1 0x40 MLOAD DUP1 SWAP2 SUB SWAP1 RETURN JUMPDEST PUSH2 0xD3 PUSH2 0xBF CALLDATASIZE PUSH1 0x4 PUSH2 0x60F JUMP JUMPDEST PUSH0 SWAP1 DUP2 MSTORE PUSH1 0x20 DUP2 SWAP1 MSTORE PUSH1 0x40 SWAP1 KECCAK256 PUSH1 0x1 ADD SLOAD SWAP1 JUMP JUMPDEST PUSH1 0x40 MLOAD SWAP1 DUP2 MSTORE PUSH1 0x20 ADD PUSH2 0xA8 JUMP JUMPDEST PUSH2 0xF4 PUSH2 0xEF CALLDATASIZE PUSH1 0x4 PUSH2 0x626 JUMP JUMPDEST PUSH2 0x1B6 JUMP JUMPDEST STOP JUMPDEST PUSH2 0xF4 PUSH2 0x104 CALLDATASIZE PUSH1 0x4 PUSH2 0x626 JUMP JUMPDEST PUSH2 0x1DF JUMP JUMPDEST PUSH2 0xD3 PUSH32 0xA49807205CE4D355092EF5A8A18F56E8913CF4A201FBE287825B095693C21775 DUP2 JUMP JUMPDEST PUSH2 0x9C PUSH2 0x13E CALLDATASIZE PUSH1 0x4 PUSH2 0x626 JUMP JUMPDEST PUSH0 SWAP2 DUP3 MSTORE PUSH1 0x20 DUP3 DUP2 MSTORE PUSH1 0x40 DUP1 DUP5 KECCAK256 PUSH1 0x1 PUSH1 0x1 PUSH1 0xA0 SHL SUB SWAP4 SWAP1 SWAP4 AND DUP5 MSTORE SWAP2 SWAP1 MSTORE SWAP1 KECCAK256 SLOAD PUSH1 0xFF AND SWAP1 JUMP JUMPDEST PUSH2 0xD3 PUSH0 DUP2 JUMP JUMPDEST PUSH2 0xF4 PUSH2 0x17B CALLDATASIZE PUSH1 0x4 PUSH2 0x626 JUMP JUMPDEST PUSH2 0x270 JUMP JUMPDEST PUSH0 PUSH1 0x1 PUSH1 0x1 PUSH1 0xE0 SHL SUB NOT DUP3 AND PUSH4 0x7965DB0B PUSH1 0xE0 SHL EQ DUP1 PUSH2 0x1B0 JUMPI POP PUSH4 0x1FFC9A7 PUSH1 0xE0 SHL PUSH1 0x1 PUSH1 0x1 PUSH1 0xE0 SHL SUB NOT DUP4 AND EQ JUMPDEST SWAP3 SWAP2 POP POP JUMP JUMPDEST PUSH0 DUP3 DUP2 MSTORE PUSH1 0x20 DUP2 SWAP1 MSTORE PUSH1 0x40 SWAP1 KECCAK256 PUSH1 0x1 ADD SLOAD PUSH2 0x1D0 DUP2 PUSH2 0x294 JUMP JUMPDEST PUSH2 0x1DA DUP4 DUP4 PUSH2 0x2A1 JUMP JUMPDEST POP POP POP JUMP JUMPDEST PUSH1 0x1 PUSH1 0x1 PUSH1 0xA0 SHL SUB DUP2 AND CALLER EQ PUSH2 0x262 JUMPI PUSH1 0x40 MLOAD PUSH3 0x461BCD PUSH1 0xE5 SHL DUP2 MSTORE PUSH1 0x20 PUSH1 0x4 DUP3 ADD MSTORE PUSH1 0x2F PUSH1 0x24 DUP3 ADD MSTORE PUSH32 0x416363657373436F6E74726F6C3A2063616E206F6E6C792072656E6F756E6365 PUSH1 0x44 DUP3 ADD MSTORE PUSH32 0x20726F6C657320666F722073656C660000000000000000000000000000000000 PUSH1 0x64 DUP3 ADD MSTORE PUSH1 0x84 ADD JUMPDEST PUSH1 0x40 MLOAD DUP1 SWAP2 SUB SWAP1 REVERT JUMPDEST PUSH2 0x26C DUP3 DUP3 PUSH2 0x33D JUMP JUMPDEST POP POP JUMP JUMPDEST PUSH0 DUP3 DUP2 MSTORE PUSH1 0x20 DUP2 SWAP1 MSTORE PUSH1 0x40 SWAP1 KECCAK256 PUSH1 0x1 ADD SLOAD PUSH2 0x28A DUP2 PUSH2 0x294 JUMP JUMPDEST PUSH2 0x1DA DUP4 DUP4 PUSH2 0x33D JUMP JUMPDEST PUSH2 0x29E DUP2 CALLER PUSH2 0x3BA JUMP JUMPDEST POP JUMP JUMPDEST PUSH0 DUP3 DUP2 MSTORE PUSH1 0x20 DUP2 DUP2 MSTORE PUSH1 0x40 DUP1 DUP4 KECCAK256 PUSH1 0x1 PUSH1 0x1 PUSH1 0xA0 SHL SUB DUP6 AND DUP5 MSTORE SWAP1 SWAP2 MSTORE SWAP1 KECCAK256 SLOAD PUSH1 0xFF AND PUSH2 0x26C JUMPI PUSH0 DUP3 DUP2 MSTORE PUSH1 0x20 DUP2 DUP2 MSTORE PUSH1 0x40 DUP1 DUP4 KECCAK256 PUSH1 0x1 PUSH1 0x1 PUSH1 0xA0 SHL SUB DUP6 AND DUP5 MSTORE SWAP1 SWAP2 MSTORE SWAP1 KECCAK256 DUP1 SLOAD PUSH1 0xFF NOT AND PUSH1 0x1 OR SWAP1 SSTORE PUSH2 0x2F9 CALLER SWAP1 JUMP JUMPDEST PUSH1 0x1 PUSH1 0x1 PUSH1 0xA0 SHL SUB AND DUP2 PUSH1 0x1 PUSH1 0x1 PUSH1 0xA0 SHL SUB AND DUP4 PUSH32 0x2F8788117E7EFF1D82E926EC794901D17C78024A50270940304540A733656F0D PUSH1 0x40 MLOAD PUSH1 0x40 MLOAD DUP1 SWAP2 SUB SWAP1 LOG4 POP POP JUMP JUMPDEST PUSH0 DUP3 DUP2 MSTORE PUSH1 0x20 DUP2 DUP2 MSTORE PUSH1 0x40 DUP1 DUP4 KECCAK256 PUSH1 0x1 PUSH1 0x1 PUSH1 0xA0 SHL SUB DUP6 AND DUP5 MSTORE SWAP1 SWAP2 MSTORE SWAP1 KECCAK256 SLOAD PUSH1 0xFF AND ISZERO PUSH2 0x26C JUMPI PUSH0 DUP3 DUP2 MSTORE PUSH1 0x20 DUP2 DUP2 MSTORE PUSH1 0x40 DUP1 DUP4 KECCAK256 PUSH1 0x1 PUSH1 0x1 PUSH1 0xA0 SHL SUB DUP6 AND DUP1 DUP6 MSTORE SWAP3 MSTORE DUP1 DUP4 KECCAK256 DUP1 SLOAD PUSH1 0xFF NOT AND SWAP1 SSTORE MLOAD CALLER SWAP3 DUP6 SWAP2 PUSH32 0xF6391F5C32D9C69D2A47EA670B442974B53935D1EDC7FD64EB21E047A839171B SWAP2 SWAP1 LOG4 POP POP JUMP JUMPDEST PUSH0 DUP3 DUP2 MSTORE PUSH1 0x20 DUP2 DUP2 MSTORE PUSH1 0x40 DUP1 DUP4 KECCAK256 PUSH1 0x1 PUSH1 0x1 PUSH1 0xA0 SHL SUB DUP6 AND DUP5 MSTORE SWAP1 SWAP2 MSTORE SWAP1 KECCAK256 SLOAD PUSH1 0xFF AND PUSH2 0x26C JUMPI PUSH2 0x3EA DUP2 PUSH2 0x42C JUMP JUMPDEST PUSH2 0x3F5 DUP4 PUSH1 0x20 PUSH2 0x43E JUMP JUMPDEST PUSH1 0x40 MLOAD PUSH1 0x20 ADD PUSH2 0x406 SWAP3 SWAP2 SWAP1 PUSH2 0x676 JUMP JUMPDEST PUSH1 0x40 DUP1 MLOAD PUSH1 0x1F NOT DUP2 DUP5 SUB ADD DUP2 MSTORE SWAP1 DUP3 SWAP1 MSTORE PUSH3 0x461BCD PUSH1 0xE5 SHL DUP3 MSTORE PUSH2 0x259 SWAP2 PUSH1 0x4 ADD PUSH2 0x6E0 JUMP JUMPDEST PUSH1 0x60 PUSH2 0x1B0 PUSH1 0x1 PUSH1 0x1 PUSH1 0xA0 SHL SUB DUP4 AND PUSH1 0x14 JUMPDEST PUSH1 0x60 PUSH0 PUSH2 0x44C DUP4 PUSH1 0x2 PUSH2 0x729 JUMP JUMPDEST PUSH2 0x457 SWAP1 PUSH1 0x2 PUSH2 0x740 JUMP JUMPDEST PUSH8 0xFFFFFFFFFFFFFFFF DUP2 GT ISZERO PUSH2 0x46F JUMPI PUSH2 0x46F PUSH2 0x753 JUMP JUMPDEST PUSH1 0x40 MLOAD SWAP1 DUP1 DUP3 MSTORE DUP1 PUSH1 0x1F ADD PUSH1 0x1F NOT AND PUSH1 0x20 ADD DUP3 ADD PUSH1 0x40 MSTORE DUP1 ISZERO PUSH2 0x499 JUMPI PUSH1 0x20 DUP3 ADD DUP2 DUP1 CALLDATASIZE DUP4 CALLDATACOPY ADD SWAP1 POP JUMPDEST POP SWAP1 POP PUSH1 0x3 PUSH1 0xFC SHL DUP2 PUSH0 DUP2 MLOAD DUP2 LT PUSH2 0x4B3 JUMPI PUSH2 0x4B3 PUSH2 0x767 JUMP JUMPDEST PUSH1 0x20 ADD ADD SWAP1 PUSH1 0x1 PUSH1 0x1 PUSH1 0xF8 SHL SUB NOT AND SWAP1 DUP2 PUSH0 BYTE SWAP1 MSTORE8 POP PUSH1 0xF PUSH1 0xFB SHL DUP2 PUSH1 0x1 DUP2 MLOAD DUP2 LT PUSH2 0x4E1 JUMPI PUSH2 0x4E1 PUSH2 0x767 JUMP JUMPDEST PUSH1 0x20 ADD ADD SWAP1 PUSH1 0x1 PUSH1 0x1 PUSH1 0xF8 SHL SUB NOT AND SWAP1 DUP2 PUSH0 BYTE SWAP1 MSTORE8 POP PUSH0 PUSH2 0x503 DUP5 PUSH1 0x2 PUSH2 0x729 JUMP JUMPDEST PUSH2 0x50E SWAP1 PUSH1 0x1 PUSH2 0x740 JUMP JUMPDEST SWAP1 POP JUMPDEST PUSH1 0x1 DUP2 GT ISZERO PUSH2 0x592 JUMPI PUSH32 0x3031323334353637383961626364656600000000000000000000000000000000 DUP6 PUSH1 0xF AND PUSH1 0x10 DUP2 LT PUSH2 0x54F JUMPI PUSH2 0x54F PUSH2 0x767 JUMP JUMPDEST BYTE PUSH1 0xF8 SHL DUP3 DUP3 DUP2 MLOAD DUP2 LT PUSH2 0x565 JUMPI PUSH2 0x565 PUSH2 0x767 JUMP JUMPDEST PUSH1 0x20 ADD ADD SWAP1 PUSH1 0x1 PUSH1 0x1 PUSH1 0xF8 SHL SUB NOT AND SWAP1 DUP2 PUSH0 BYTE SWAP1 MSTORE8 POP PUSH1 0x4 SWAP5 SWAP1 SWAP5 SHR SWAP4 PUSH2 0x58B DUP2 PUSH2 0x77B JUMP JUMPDEST SWAP1 POP PUSH2 0x511 JUMP JUMPDEST POP DUP4 ISZERO PUSH2 0x5E1 JUMPI PUSH1 0x40 MLOAD PUSH3 0x461BCD PUSH1 0xE5 SHL DUP2 MSTORE PUSH1 0x20 PUSH1 0x4 DUP3 ADD DUP2 SWAP1 MSTORE PUSH1 0x24 DUP3 ADD MSTORE PUSH32 0x537472696E67733A20686578206C656E67746820696E73756666696369656E74 PUSH1 0x44 DUP3 ADD MSTORE PUSH1 0x64 ADD PUSH2 0x259 JUMP JUMPDEST SWAP4 SWAP3 POP POP POP JUMP JUMPDEST PUSH0 PUSH1 0x20 DUP3 DUP5 SUB SLT ISZERO PUSH2 0x5F8 JUMPI PUSH0 DUP1 REVERT JUMPDEST DUP2 CALLDATALOAD PUSH1 0x1 PUSH1 0x1 PUSH1 0xE0 SHL SUB NOT DUP2 AND DUP2 EQ PUSH2 0x5E1 JUMPI PUSH0 DUP1 REVERT JUMPDEST PUSH0 PUSH1 0x20 DUP3 DUP5 SUB SLT ISZERO PUSH2 0x61F JUMPI PUSH0 DUP1 REVERT JUMPDEST POP CALLDATALOAD SWAP2 SWAP1 POP JUMP JUMPDEST PUSH0 DUP1 PUSH1 0x40 DUP4 DUP6 SUB SLT ISZERO PUSH2 0x637 JUMPI PUSH0 DUP1 REVERT JUMPDEST DUP3 CALLDATALOAD SWAP2 POP PUSH1 0x20 DUP4 ADD CALLDATALOAD PUSH1 0x1 PUSH1 0x1 PUSH1 0xA0 SHL SUB DUP2 AND DUP2 EQ PUSH2 0x654 JUMPI PUSH0 DUP1 REVERT JUMPDEST DUP1 SWAP2 POP POP SWAP3 POP SWAP3 SWAP1 POP JUMP JUMPDEST PUSH0 DUP2 MLOAD DUP1 PUSH1 0x20 DUP5 ADD DUP6 MCOPY PUSH0 SWAP4 ADD SWAP3 DUP4 MSTORE POP SWAP1 SWAP2 SWAP1 POP JUMP JUMPDEST PUSH32 0x416363657373436F6E74726F6C3A206163636F756E7420000000000000000000 DUP2 MSTORE PUSH0 PUSH2 0x6A7 PUSH1 0x17 DUP4 ADD DUP6 PUSH2 0x65F JUMP JUMPDEST PUSH32 0x206973206D697373696E6720726F6C6520000000000000000000000000000000 DUP2 MSTORE PUSH2 0x6D7 PUSH1 0x11 DUP3 ADD DUP6 PUSH2 0x65F JUMP JUMPDEST SWAP6 SWAP5 POP POP POP POP POP JUMP JUMPDEST PUSH1 0x20 DUP2 MSTORE PUSH0 DUP3 MLOAD DUP1 PUSH1 0x20 DUP5 ADD MSTORE DUP1 PUSH1 0x20 DUP6 ADD PUSH1 0x40 DUP6 ADD MCOPY PUSH0 PUSH1 0x40 DUP3 DUP6 ADD ADD MSTORE PUSH1 0x40 PUSH1 0x1F NOT PUSH1 0x1F DUP4 ADD AND DUP5 ADD ADD SWAP2 POP POP SWAP3 SWAP2 POP POP JUMP JUMPDEST PUSH4 0x4E487B71 PUSH1 0xE0 SHL PUSH0 MSTORE PUSH1 0x11 PUSH1 0x4 MSTORE PUSH1 0x24 PUSH0 REVERT JUMPDEST DUP1 DUP3 MUL DUP2 ISZERO DUP3 DUP3 DIV DUP5 EQ OR PUSH2 0x1B0 JUMPI PUSH2 0x1B0 PUSH2 0x715 JUMP JUMPDEST DUP1 DUP3 ADD DUP1 DUP3 GT ISZERO PUSH2 0x1B0 JUMPI PUSH2 0x1B0 PUSH2 0x715 JUMP JUMPDEST PUSH4 0x4E487B71 PUSH1 0xE0 SHL PUSH0 MSTORE PUSH1 0x41 PUSH1 0x4 MSTORE PUSH1 0x24 PUSH0 REVERT JUMPDEST PUSH4 0x4E487B71 PUSH1 0xE0 SHL PUSH0 MSTORE PUSH1 0x32 PUSH1 0x4 MSTORE PUSH1 0x24 PUSH0 REVERT JUMPDEST PUSH0 DUP2 PUSH2 0x789 JUMPI PUSH2 0x789 PUSH2 0x715 JUMP JUMPDEST POP PUSH0 NOT ADD SWAP1 JUMP INVALID LOG2 PUSH5 0x6970667358 0x22 SLT KECCAK256 KECCAK256 0xA8 PUSH3 0x52ED7D DUP6 DUP2 0xDF 0xE1 EQ 0x2E 0xE2 0xF8 OR 0xD9 0xC3 PUSH27 0xE97FEE274B724EB65F06775E32E264736F6C634300081900330000 "
    },
    "gasEstimates": {
      "creation": {
        "codeDepositCost": "398000",
        "executionCost": "infinite",
        "totalCost": "infinite"
      },
      "external": {
        "ADMIN_ROLE()": "194",
        "DEFAULT_ADMIN_ROLE()": "237",
        "getRoleAdmin(bytes32)": "2467",
        "grantRole(bytes32,address)": "infinite",
        "hasRole(bytes32,address)": "2628",
        "renounceRole(bytes32,address)": "28989",
        "revokeRole(bytes32,address)": "infinite",
        "supportsInterface(bytes4)": "424"
      }
    },
    "methodIdentifiers": {
      "ADMIN_ROLE()": "75b238fc",
      "DEFAULT_ADMIN_ROLE()": "a217fddf",
      "getRoleAdmin(bytes32)": "248a9ca3",
      "grantRole(bytes32,address)": "2f2ff15d",
      "hasRole(bytes32,address)": "91d14854",
      "renounceRole(bytes32,address)": "36568abe",
      "revokeRole(bytes32,address)": "d547741f",
      "supportsInterface(bytes4)": "01ffc9a7"
    }
  },
  "storageLayout": {
    "storage": [
      {
        "astId": 746,
        "contract": "WPJK.sol:WPJK",
        "label": "_roles",
        "offset": 0,
        "slot": "0",
        "type": "t_mapping(t_bytes32,t_struct(RoleData)741_storage)"
      }
    ],
    "types": {
      "t_address": {
        "encoding": "inplace",
        "label": "address",
        "numberOfBytes": "20"
      },
      "t_bool": {
        "encoding": "inplace",
        "label": "bool",
        "numberOfBytes": "1"
      },
      "t_bytes32": {
        "encoding": "inplace",
        "label": "bytes32",
        "numberOfBytes": "32"
      },
      "t_mapping(t_address,t_bool)": {
        "encoding": "mapping",
        "key": "t_address",
        "label": "mapping(address => bool)",
        "numberOfBytes": "32",
        "value": "t_bool"
      },
      "t_mapping(t_bytes32,t_struct(RoleData)741_storage)": {
        "encoding": "mapping",
        "key": "t_bytes32",
        "label": "mapping(bytes32 => struct AccessControl.RoleData)",
        "numberOfBytes": "32",
        "value": "t_struct(RoleData)741_storage"
      },
      "t_struct(RoleData)741_storage": {
        "encoding": "inplace",
        "label": "struct AccessControl.RoleData",
        "members": [
          {
            "astId": 738,
            "contract": "WPJK.sol:WPJK",
            "label": "members",
            "offset": 0,
            "slot": "0",
            "type": "t_mapping(t_address,t_bool)"
          },
          {
            "astId": 740,
            "contract": "WPJK.sol:WPJK",
            "label": "adminRole",
            "offset": 0,
            "slot": "1",
            "type": "t_bytes32"
          }
        ],
        "numberOfBytes": "64"
      }
    }
  },
  "userdoc": {
    "kind": "user",
    "methods": {},
    "version": 1
  }
}