{
  "abi": [
    {
      "inputs": [
        {
          "internalType": "address",
          "name": "_initialOwner",
          "type": "address"
        }
      ],
      "stateMutability": "nonpayable",
      "type": "constructor"
    },
    {
      "inputs": [],
      "name": "ContractMetadataUnauthorized",
      "type": "error"
    },
    {
      "inputs": [],
      "name": "OwnableUnauthorized",
      "type": "error"
    },
    {
      "anonymous": false,
      "inputs": [
        {
          "indexed": true,
          "internalType": "address",
          "name": "owner",
          "type": "address"
        },
        {
          "indexed": true,
          "internalType": "address",
          "name": "spender",
          "type": "address"
        },
        {
          "indexed": false,
          "internalType": "uint256",
          "name": "value",
          "type": "uint256"
        }
      ],
      "name": "Approval",
      "type": "event"
    },
    {
      "anonymous": false,
      "inputs": [
        {
          "indexed": false,
          "internalType": "string",
          "name": "prevURI",
          "type": "string"
        },
        {
          "indexed": false,
          "internalType": "string",
          "name": "newURI",
          "type": "string"
        }
      ],
      "name": "ContractURIUpdated",
      "type": "event"
    },
    {
      "anonymous": false,
      "inputs": [
        {
          "indexed": true,
          "internalType": "bytes32",
          "name": "projectId",
          "type": "bytes32"
        },
        {
          "indexed": true,
          "internalType": "address",
          "name": "contributor",
          "type": "address"
        },
        {
          "indexed": false,
          "internalType": "enum Mojo.Role",
          "name": "role",
          "type": "uint8"
        },
        {
          "indexed": false,
          "internalType": "uint256",
          "name": "percentage",
          "type": "uint256"
        }
      ],
      "name": "ContributionRecorded",
      "type": "event"
    },
    {
      "anonymous": false,
      "inputs": [
        {
          "indexed": true,
          "internalType": "address",
          "name": "prevOwner",
          "type": "address"
        },
        {
          "indexed": true,
          "internalType": "address",
          "name": "newOwner",
          "type": "address"
        }
      ],
      "name": "OwnerUpdated",
      "type": "event"
    },
    {
      "anonymous": false,
      "inputs": [
        {
          "indexed": true,
          "internalType": "address",
          "name": "burner",
          "type": "address"
        },
        {
          "indexed": false,
          "internalType": "uint256",
          "name": "amount",
          "type": "uint256"
        }
      ],
      "name": "TokensBurned",
      "type": "event"
    },
    {
      "anonymous": false,
      "inputs": [
        {
          "indexed": true,
          "internalType": "address",
          "name": "mintedTo",
          "type": "address"
        },
        {
          "indexed": false,
          "internalType": "uint256",
          "name": "quantityMinted",
          "type": "uint256"
        }
      ],
      "name": "TokensMinted",
      "type": "event"
    },
    {
      "anonymous": false,
      "inputs": [
        {
          "indexed": true,
          "internalType": "address",
          "name": "user",
          "type": "address"
        },
        {
          "indexed": false,
          "internalType": "uint256",
          "name": "pjkAmount",
          "type": "uint256"
        },
        {
          "indexed": false,
          "internalType": "uint256",
          "name": "mojoAmount",
          "type": "uint256"
        }
      ],
      "name": "TokensMintedForSwap",
      "type": "event"
    },
    {
      "anonymous": false,
      "inputs": [
        {
          "indexed": true,
          "internalType": "address",
          "name": "from",
          "type": "address"
        },
        {
          "indexed": true,
          "internalType": "address",
          "name": "to",
          "type": "address"
        },
        {
          "indexed": false,
          "internalType": "uint256",
          "name": "value",
          "type": "uint256"
        }
      ],
      "name": "Transfer",
      "type": "event"
    },
    {
      "inputs": [],
      "name": "DESIGNATOR",
      "outputs": [
        {
          "internalType": "string",
          "name": "",
          "type": "string"
        }
      ],
      "stateMutability": "view",
      "type": "function"
    },
    {
      "inputs": [],
      "name": "DOMAIN_SEPARATOR",
      "outputs": [
        {
          "internalType": "bytes32",
          "name": "",
          "type": "bytes32"
        }
      ],
      "stateMutability": "view",
      "type": "function"
    },
    {
      "inputs": [
        {
          "internalType": "address",
          "name": "to",
          "type": "address"
        },
        {
          "internalType": "uint256",
          "name": "amount",
          "type": "uint256"
        },
        {
          "internalType": "bytes32",
          "name": "projectId",
          "type": "bytes32"
        },
        {
          "internalType": "enum Mojo.Role",
          "name": "role",
          "type": "uint8"
        },
        {
          "internalType": "uint256",
          "name": "percentage",
          "type": "uint256"
        }
      ],
      "name": "allocateContribution",
      "outputs": [],
      "stateMutability": "nonpayable",
      "type": "function"
    },
    {
      "inputs": [
        {
          "internalType": "address",
          "name": "owner",
          "type": "address"
        },
        {
          "internalType": "address",
          "name": "spender",
          "type": "address"
        }
      ],
      "name": "allowance",
      "outputs": [
        {
          "internalType": "uint256",
          "name": "",
          "type": "uint256"
        }
      ],
      "stateMutability": "view",
      "type": "function"
    },
    {
      "inputs": [
        {
          "internalType": "address",
          "name": "spender",
          "type": "address"
        },
        {
          "internalType": "uint256",
          "name": "amount",
          "type": "uint256"
        }
      ],
      "name": "approve",
      "outputs": [
        {
          "internalType": "bool",
          "name": "",
          "type": "bool"
        }
      ],
      "stateMutability": "nonpayable",
      "type": "function"
    },
    {
      "inputs": [
        {
          "internalType": "address",
          "name": "account",
          "type": "address"
        }
      ],
      "name": "balanceOf",
      "outputs": [
        {
          "internalType": "uint256",
          "name": "",
          "type": "uint256"
        }
      ],
      "stateMutability": "view",
      "type": "function"
    },
    {
      "inputs": [
        {
          "internalType": "uint256",
          "name": "amount",
          "type": "uint256"
        }
      ],
      "name": "burn",
      "outputs": [],
      "stateMutability": "nonpayable",
      "type": "function"
    },
    {
      "inputs": [
        {
          "internalType": "address",
          "name": "_account",
          "type": "address"
        },
        {
          "internalType": "uint256",
          "name": "_amount",
          "type": "uint256"
        }
      ],
      "name": "burnFrom",
      "outputs": [],
      "stateMutability": "nonpayable",
      "type": "function"
    },
    {
      "inputs": [],
      "name": "contractURI",
      "outputs": [
        {
          "internalType": "string",
          "name": "",
          "type": "string"
        }
      ],
      "stateMutability": "view",
      "type": "function"
    },
    {
      "inputs": [],
      "name": "decimals",
      "outputs": [
        {
          "internalType": "uint8",
          "name": "",
          "type": "uint8"
        }
      ],
      "stateMutability": "view",
      "type": "function"
    },
    {
      "inputs": [
        {
          "internalType": "address",
          "name": "spender",
          "type": "address"
        },
        {
          "internalType": "uint256",
          "name": "subtractedValue",
          "type": "uint256"
        }
      ],
      "name": "decreaseAllowance",
      "outputs": [
        {
          "internalType": "bool",
          "name": "",
          "type": "bool"
        }
      ],
      "stateMutability": "nonpayable",
      "type": "function"
    },
    {
      "inputs": [
        {
          "internalType": "address",
          "name": "spender",
          "type": "address"
        },
        {
          "internalType": "uint256",
          "name": "addedValue",
          "type": "uint256"
        }
      ],
      "name": "increaseAllowance",
      "outputs": [
        {
          "internalType": "bool",
          "name": "",
          "type": "bool"
        }
      ],
      "stateMutability": "nonpayable",
      "type": "function"
    },
    {
      "inputs": [
        {
          "internalType": "address",
          "name": "user",
          "type": "address"
        },
        {
          "internalType": "uint256",
          "name": "pjkAmount",
          "type": "uint256"
        }
      ],
      "name": "mintForSwap",
      "outputs": [],
      "stateMutability": "nonpayable",
      "type": "function"
    },
    {
      "inputs": [
        {
          "internalType": "address",
          "name": "_to",
          "type": "address"
        },
        {
          "internalType": "uint256",
          "name": "_amount",
          "type": "uint256"
        }
      ],
      "name": "mintTo",
      "outputs": [],
      "stateMutability": "nonpayable",
      "type": "function"
    },
    {
      "inputs": [
        {
          "internalType": "bytes[]",
          "name": "data",
          "type": "bytes[]"
        }
      ],
      "name": "multicall",
      "outputs": [
        {
          "internalType": "bytes[]",
          "name": "results",
          "type": "bytes[]"
        }
      ],
      "stateMutability": "nonpayable",
      "type": "function"
    },
    {
      "inputs": [],
      "name": "name",
      "outputs": [
        {
          "internalType": "string",
          "name": "",
          "type": "string"
        }
      ],
      "stateMutability": "view",
      "type": "function"
    },
    {
      "inputs": [
        {
          "internalType": "address",
          "name": "owner",
          "type": "address"
        }
      ],
      "name": "nonces",
      "outputs": [
        {
          "internalType": "uint256",
          "name": "",
          "type": "uint256"
        }
      ],
      "stateMutability": "view",
      "type": "function"
    },
    {
      "inputs": [],
      "name": "owner",
      "outputs": [
        {
          "internalType": "address",
          "name": "",
          "type": "address"
        }
      ],
      "stateMutability": "view",
      "type": "function"
    },
    {
      "inputs": [
        {
          "internalType": "address",
          "name": "owner",
          "type": "address"
        },
        {
          "internalType": "address",
          "name": "spender",
          "type": "address"
        },
        {
          "internalType": "uint256",
          "name": "value",
          "type": "uint256"
        },
        {
          "internalType": "uint256",
          "name": "deadline",
          "type": "uint256"
        },
        {
          "internalType": "uint8",
          "name": "v",
          "type": "uint8"
        },
        {
          "internalType": "bytes32",
          "name": "r",
          "type": "bytes32"
        },
        {
          "internalType": "bytes32",
          "name": "s",
          "type": "bytes32"
        }
      ],
      "name": "permit",
      "outputs": [],
      "stateMutability": "nonpayable",
      "type": "function"
    },
    {
      "inputs": [
        {
          "internalType": "bytes32",
          "name": "",
          "type": "bytes32"
        },
        {
          "internalType": "uint256",
          "name": "",
          "type": "uint256"
        }
      ],
      "name": "projectContributions",
      "outputs": [
        {
          "internalType": "address",
          "name": "contributor",
          "type": "address"
        },
        {
          "internalType": "enum Mojo.Role",
          "name": "role",
          "type": "uint8"
        },
        {
          "internalType": "uint256",
          "name": "percentage",
          "type": "uint256"
        },
        {
          "internalType": "uint256",
          "name": "timestamp",
          "type": "uint256"
        }
      ],
      "stateMutability": "view",
      "type": "function"
    },
    {
      "inputs": [
        {
          "internalType": "string",
          "name": "_uri",
          "type": "string"
        }
      ],
      "name": "setContractURI",
      "outputs": [],
      "stateMutability": "nonpayable",
      "type": "function"
    },
    {
      "inputs": [
        {
          "internalType": "address",
          "name": "_newOwner",
          "type": "address"
        }
      ],
      "name": "setOwner",
      "outputs": [],
      "stateMutability": "nonpayable",
      "type": "function"
    },
    {
      "inputs": [
        {
          "internalType": "address",
          "name": "_swapContract",
          "type": "address"
        }
      ],
      "name": "setSwapContract",
      "outputs": [],
      "stateMutability": "nonpayable",
      "type": "function"
    },
    {
      "inputs": [
        {
          "internalType": "uint256",
          "name": "_ratio",
          "type": "uint256"
        }
      ],
      "name": "setSwapRatio",
      "outputs": [],
      "stateMutability": "nonpayable",
      "type": "function"
    },
    {
      "inputs": [],
      "name": "swapContract",
      "outputs": [
        {
          "internalType": "address",
          "name": "",
          "type": "address"
        }
      ],
      "stateMutability": "view",
      "type": "function"
    },
    {
      "inputs": [],
      "name": "swapRatio",
      "outputs": [
        {
          "internalType": "uint256",
          "name": "",
          "type": "uint256"
        }
      ],
      "stateMutability": "view",
      "type": "function"
    },
    {
      "inputs": [],
      "name": "symbol",
      "outputs": [
        {
          "internalType": "string",
          "name": "",
          "type": "string"
        }
      ],
      "stateMutability": "view",
      "type": "function"
    },
    {
      "inputs": [],
      "name": "totalSupply",
      "outputs": [
        {
          "internalType": "uint256",
          "name": "",
          "type": "uint256"
        }
      ],
      "stateMutability": "view",
      "type": "function"
    },
    {
      "inputs": [
        {
          "internalType": "address",
          "name": "to",
          "type": "address"
        },
        {
          "internalType": "uint256",
          "name": "amount",
          "type": "uint256"
        }
      ],
      "name": "transfer",
      "outputs": [
        {
          "internalType": "bool",
          "name": "",
          "type": "bool"
        }
      ],
      "stateMutability": "nonpayable",
      "type": "function"
    },
    {
      "inputs": [
        {
          "internalType": "address",
          "name": "from",
          "type": "address"
        },
        {
          "internalType": "address",
          "name": "to",
          "type": "address"
        },
        {
          "internalType": "uint256",
          "name": "amount",
          "type": "uint256"
        }
      ],
      "name": "transferFrom",
      "outputs": [
        {
          "internalType": "bool",
          "name": "",
          "type": "bool"
        }
      ],
      "stateMutability": "nonpayable",
      "type": "function"
    }
  ],
  "devdoc": {
    "errors": {
      "ContractMetadataUnauthorized()": [
        {
          "details": "The sender is not authorized to perform the action"
        }
      ],
      "OwnableUnauthorized()": [
        {
          "details": "The sender is not authorized to perform the action"
        }
      ]
    },
    "events": {
      "ContractURIUpdated(string,string)": {
        "details": "Emitted when the contract URI is updated."
      },
      "OwnerUpdated(address,address)": {
        "details": "Emitted when a new Owner is set."
      },
      "TokensMinted(address,uint256)": {
        "details": "Emitted when tokens are minted with `mintTo`"
      }
    },
    "kind": "dev",
    "methods": {
      "DOMAIN_SEPARATOR()": {
        "details": "See {IERC20Permit-DOMAIN_SEPARATOR}."
      },
      "allowance(address,address)": {
        "details": "See {IERC20-allowance}."
      },
      "approve(address,uint256)": {
        "details": "See {IERC20-approve}. NOTE: If `amount` is the maximum `uint256`, the allowance is not updated on `transferFrom`. This is semantically equivalent to an infinite approval. Requirements: - `spender` cannot be the zero address."
      },
      "balanceOf(address)": {
        "details": "See {IERC20-balanceOf}."
      },
      "burnFrom(address,uint256)": {
        "details": "`_account` should own the `_amount` of tokens.",
        "params": {
          "_account": "The account to burn tokens from.",
          "_amount": "The number of tokens to burn."
        }
      },
      "constructor": {
        "params": {
          "_initialOwner": "Address with owner privileges (e.g., 0x2af17552f27021666BcD3E5Ba65f68CB5Ec217fc)."
        }
      },
      "decimals()": {
        "details": "Returns the number of decimals used to get its user representation. For example, if `decimals` equals `2`, a balance of `505` tokens should be displayed to a user as `5.05` (`505 / 10 ** 2`). Tokens usually opt for a value of 18, imitating the relationship between Ether and Wei. This is the value {ERC20} uses, unless this function is overridden; NOTE: This information is only used for _display_ purposes: it in no way affects any of the arithmetic of the contract, including {IERC20-balanceOf} and {IERC20-transfer}."
      },
      "decreaseAllowance(address,uint256)": {
        "details": "Atomically decreases the allowance granted to `spender` by the caller. This is an alternative to {approve} that can be used as a mitigation for problems described in {IERC20-approve}. Emits an {Approval} event indicating the updated allowance. Requirements: - `spender` cannot be the zero address. - `spender` must have allowance for the caller of at least `subtractedValue`."
      },
      "increaseAllowance(address,uint256)": {
        "details": "Atomically increases the allowance granted to `spender` by the caller. This is an alternative to {approve} that can be used as a mitigation for problems described in {IERC20-approve}. Emits an {Approval} event indicating the updated allowance. Requirements: - `spender` cannot be the zero address."
      },
      "mintForSwap(address,uint256)": {
        "params": {
          "pjkAmount": "Amount of PJK burned on Polygon.",
          "user": "Address receiving Mojo."
        }
      },
      "mintTo(address,uint256)": {
        "details": "The logic in the `_canMint` function determines whether the caller is authorized to mint tokens.",
        "params": {
          "_amount": "Quantity of tokens to mint.",
          "_to": "The recipient of the tokens to mint."
        }
      },
      "multicall(bytes[])": {
        "details": "Receives and executes a batch of function calls on this contract.",
        "params": {
          "data": "The bytes data that makes up the batch of function calls to execute."
        },
        "returns": {
          "results": "The bytes data that makes up the result of the batch of function calls executed."
        }
      },
      "name()": {
        "details": "Returns the name of the token."
      },
      "nonces(address)": {
        "details": "See {IERC20Permit-nonces}."
      },
      "permit(address,address,uint256,uint256,uint8,bytes32,bytes32)": {
        "details": "See {IERC20Permit-permit}."
      },
      "setContractURI(string)": {
        "details": "Caller should be authorized to setup contractURI, e.g. contract admin.                  See {_canSetContractURI}.                  Emits {ContractURIUpdated Event}.",
        "params": {
          "_uri": "keccak256 hash of the role. e.g. keccak256(\"TRANSFER_ROLE\")"
        }
      },
      "setOwner(address)": {
        "params": {
          "_newOwner": "The address to set as the new owner of the contract."
        }
      },
      "symbol()": {
        "details": "Returns the symbol of the token, usually a shorter version of the name."
      },
      "totalSupply()": {
        "details": "See {IERC20-totalSupply}."
      },
      "transfer(address,uint256)": {
        "details": "See {IERC20-transfer}. Requirements: - `to` cannot be the zero address. - the caller must have a balance of at least `amount`."
      },
      "transferFrom(address,address,uint256)": {
        "details": "See {IERC20-transferFrom}. Emits an {Approval} event indicating the updated allowance. This is not required by the EIP. See the note at the beginning of {ERC20}. NOTE: Does not update the allowance if the current allowance is the maximum `uint256`. Requirements: - `from` and `to` cannot be the zero address. - `from` must have a balance of at least `amount`. - the caller must have allowance for ``from``'s tokens of at least `amount`."
      }
    },
    "title": "Mojo Token",
    "version": 1
  },
  "evm": {
    "assembly": "    /* \"mojo.sol\":269:3386  contract Mojo is ERC20Base {... */\n  mstore(0x40, 0x0100)\n    /* \"@thirdweb-dev/contracts/external-deps/openzeppelin/token/ERC20/extensions/ERC20Permit.sol\":1443:1538   */\n  0x6e71edae12b1b97f4d1f60370fef10105fa2faae0126114a169c64845d6126c9\n    /* \"@thirdweb-dev/contracts/external-deps/openzeppelin/token/ERC20/extensions/ERC20Permit.sol\":1390:1538   */\n  0xe0\n  mstore\n    /* \"mojo.sol\":463:464  1 */\n  0x01\n    /* \"mojo.sol\":436:464  uint256 public swapRatio = 1 */\n  0x09\n  sstore\n    /* \"mojo.sol\":1205:1493  constructor(address _initialOwner) ... */\n  callvalue\n  dup1\n  iszero\n  tag_1\n  jumpi\n  0x00\n  dup1\n  revert\ntag_1:\n  pop\n  mload(0x40)\n  sub(codesize, bytecodeSize)\n  dup1\n  bytecodeSize\n  dup4\n  codecopy\n  dup2\n  add\n  0x40\n  dup2\n  swap1\n  mstore\n  tag_2\n  swap2\n  tag_3\n  jump\t// in\ntag_2:\n    /* \"mojo.sol\":1259:1272  _initialOwner */\n  dup1\n    /* \"@thirdweb-dev/contracts/base/ERC20Base.sol\":1312:1462   */\n  mload(0x40)\n  dup1\n  0x40\n  add\n  0x40\n  mstore\n  dup1\n  0x04\n  dup2\n  mstore\n  0x20\n  add\n  shl(0xe0, 0x4d6f6a6f)\n  dup2\n  mstore\n  pop\n  mload(0x40)\n  dup1\n  0x40\n  add\n  0x40\n  mstore\n  dup1\n  0x04\n  dup2\n  mstore\n  0x20\n  add\n  shl(0xe0, 0x4d4f4a4f)\n  dup2\n  mstore\n  pop\n    /* \"@thirdweb-dev/contracts/base/ERC20Base.sol\":1403:1408   */\n  dup2\n    /* \"@thirdweb-dev/contracts/base/ERC20Base.sol\":1410:1417   */\n  dup2\n    /* \"@thirdweb-dev/contracts/external-deps/openzeppelin/token/ERC20/extensions/ERC20Permit.sol\":1832:1837   */\n  dup2\n    /* \"@thirdweb-dev/contracts/external-deps/openzeppelin/token/ERC20/extensions/ERC20Permit.sol\":1839:1846   */\n  dup2\n    /* \"@thirdweb-dev/contracts/external-deps/openzeppelin/token/ERC20/ERC20.sol\":2089:2094   */\n  dup2\n    /* \"@thirdweb-dev/contracts/external-deps/openzeppelin/token/ERC20/ERC20.sol\":2081:2086   */\n  0x05\n    /* \"@thirdweb-dev/contracts/external-deps/openzeppelin/token/ERC20/ERC20.sol\":2081:2094   */\n  swap1\n  dup2\n  tag_9\n  swap2\n  swap1\n  tag_10\n  jump\t// in\ntag_9:\n  pop\n    /* \"@thirdweb-dev/contracts/external-deps/openzeppelin/token/ERC20/ERC20.sol\":2104:2111   */\n  0x06\n    /* \"@thirdweb-dev/contracts/external-deps/openzeppelin/token/ERC20/ERC20.sol\":2104:2121   */\n  tag_11\n    /* \"@thirdweb-dev/contracts/external-deps/openzeppelin/token/ERC20/ERC20.sol\":2114:2121   */\n  dup3\n    /* \"@thirdweb-dev/contracts/external-deps/openzeppelin/token/ERC20/ERC20.sol\":2104:2111   */\n  dup3\n    /* \"@thirdweb-dev/contracts/external-deps/openzeppelin/token/ERC20/ERC20.sol\":2104:2121   */\n  tag_10\n  jump\t// in\ntag_11:\n  pop\n  pop\n    /* \"@thirdweb-dev/contracts/external-deps/openzeppelin/token/ERC20/extensions/ERC20Permit.sol\":1877:1890   */\n  chainid\n    /* \"@thirdweb-dev/contracts/external-deps/openzeppelin/token/ERC20/extensions/ERC20Permit.sol\":1858:1890   */\n  0xa0\n  mstore\n  pop\n    /* \"@thirdweb-dev/contracts/external-deps/openzeppelin/token/ERC20/extensions/ERC20Permit.sol\":1923:1927   */\n  address\n    /* \"@thirdweb-dev/contracts/external-deps/openzeppelin/token/ERC20/extensions/ERC20Permit.sol\":1900:1928   */\n  0xc0\n  mstore\n    /* \"@thirdweb-dev/contracts/external-deps/openzeppelin/token/ERC20/extensions/ERC20Permit.sol\":1965:1988   */\n  tag_13\n    /* \"@thirdweb-dev/contracts/external-deps/openzeppelin/token/ERC20/extensions/ERC20Permit.sol\":1965:1986   */\n  tag_14\n    /* \"@thirdweb-dev/contracts/external-deps/openzeppelin/token/ERC20/extensions/ERC20Permit.sol\":1965:1988   */\n  jump\t// in\ntag_13:\n    /* \"@thirdweb-dev/contracts/external-deps/openzeppelin/token/ERC20/extensions/ERC20Permit.sol\":1938:1988   */\n  0x80\n  mstore\n  pop\n    /* \"@thirdweb-dev/contracts/base/ERC20Base.sol\":1429:1455   */\n  tag_16\n  swap1\n  pop\n    /* \"@thirdweb-dev/contracts/base/ERC20Base.sol\":1441:1454   */\n  dup4\n    /* \"@thirdweb-dev/contracts/base/ERC20Base.sol\":1429:1440   */\n  tag_17\n    /* \"@thirdweb-dev/contracts/base/ERC20Base.sol\":1429:1455   */\n  jump\t// in\ntag_16:\n  pop\n  pop\n  pop\n  sub(shl(0xa0, 0x01), 0x01)\n    /* \"mojo.sol\":1313:1372  _initialOwner == 0x2af17552f27021666BcD3E5Ba65f68CB5Ec217fc */\n  dup2\n  and\n    /* \"mojo.sol\":1330:1372  0x2af17552f27021666BcD3E5Ba65f68CB5Ec217fc */\n  0x2af17552f27021666bcd3e5ba65f68cb5ec217fc\n    /* \"mojo.sol\":1313:1372  _initialOwner == 0x2af17552f27021666BcD3E5Ba65f68CB5Ec217fc */\n  eq\n    /* \"mojo.sol\":1305:1398  require(_initialOwner == 0x2af17552f27021666BcD3E5Ba65f68CB5Ec217fc, \"Invalid initial owner\") */\n  tag_19\n  jumpi\n  mload(0x40)\n  shl(0xe5, 0x461bcd)\n  dup2\n  mstore\n    /* \"#utility.yul\":3198:3200   */\n  0x20\n    /* \"mojo.sol\":1305:1398  require(_initialOwner == 0x2af17552f27021666BcD3E5Ba65f68CB5Ec217fc, \"Invalid initial owner\") */\n  0x04\n  dup3\n  add\n    /* \"#utility.yul\":3180:3201   */\n  mstore\n    /* \"#utility.yul\":3237:3239   */\n  0x15\n    /* \"#utility.yul\":3217:3235   */\n  0x24\n  dup3\n  add\n    /* \"#utility.yul\":3210:3240   */\n  mstore\n    /* \"#utility.yul\":3276:3299   */\n  0x496e76616c696420696e697469616c206f776e65720000000000000000000000\n    /* \"#utility.yul\":3256:3274   */\n  0x44\n  dup3\n  add\n    /* \"#utility.yul\":3249:3300   */\n  mstore\n    /* \"#utility.yul\":3317:3335   */\n  0x64\n  add\n    /* \"mojo.sol\":1305:1398  require(_initialOwner == 0x2af17552f27021666BcD3E5Ba65f68CB5Ec217fc, \"Invalid initial owner\") */\n  mload(0x40)\n  dup1\n  swap2\n  sub\n  swap1\n  revert\ntag_19:\n    /* \"mojo.sol\":1408:1420  swapContract */\n  0x08\n    /* \"mojo.sol\":1408:1436  swapContract = _initialOwner */\n  dup1\n  sload\n  not(sub(shl(0xa0, 0x01), 0x01))\n  and\n  sub(shl(0xa0, 0x01), 0x01)\n  swap3\n  swap1\n  swap3\n  and\n  swap2\n  swap1\n  swap2\n  or\n  swap1\n  sstore\n    /* \"mojo.sol\":269:3386  contract Mojo is ERC20Base {... */\n  jump(tag_40)\n    /* \"@thirdweb-dev/contracts/external-deps/openzeppelin/token/ERC20/extensions/ERC20Permit.sol\":3296:3734   */\ntag_14:\n    /* \"@thirdweb-dev/contracts/external-deps/openzeppelin/token/ERC20/extensions/ERC20Permit.sol\":3351:3358   */\n  0x00\n    /* \"@thirdweb-dev/contracts/external-deps/openzeppelin/token/ERC20/extensions/ERC20Permit.sol\":3448:3543   */\n  0x8b73c3c69bb8fe3d512ecc4cf759cc79239f7b179b0ffacaa9a75d522b39400f\n    /* \"@thirdweb-dev/contracts/external-deps/openzeppelin/token/ERC20/extensions/ERC20Permit.sol\":3581:3587   */\n  tag_24\n    /* \"@thirdweb-dev/contracts/external-deps/openzeppelin/token/ERC20/extensions/ERC20Permit.sol\":3581:3585   */\n  tag_25\n    /* \"@thirdweb-dev/contracts/external-deps/openzeppelin/token/ERC20/extensions/ERC20Permit.sol\":3581:3587   */\n  jump\t// in\ntag_24:\n    /* \"@thirdweb-dev/contracts/external-deps/openzeppelin/token/ERC20/extensions/ERC20Permit.sol\":3565:3589   */\n  dup1\n  mload\n  0x20\n  swap2\n  dup3\n  add\n  keccak256\n    /* \"@thirdweb-dev/contracts/external-deps/openzeppelin/token/ERC20/extensions/ERC20Permit.sol\":3416:3713   */\n  0x40\n  dup1\n  mload\n  swap3\n  dup4\n  add\n    /* \"#utility.yul\":3605:3630   */\n  swap4\n  swap1\n  swap4\n  mstore\n    /* \"#utility.yul\":3646:3664   */\n  swap2\n  dup2\n  add\n    /* \"#utility.yul\":3639:3673   */\n  swap2\n  swap1\n  swap2\n  mstore\n    /* \"@thirdweb-dev/contracts/external-deps/openzeppelin/token/ERC20/extensions/ERC20Permit.sol\":3611:3625   */\n  0xc89efdaa54c0f20c7adf612882df0950f5a951637e0307cdcb4c672f298b8bc6\n    /* \"#utility.yul\":3689:3707   */\n  0x60\n  dup3\n  add\n    /* \"#utility.yul\":3682:3716   */\n  mstore\n    /* \"@thirdweb-dev/contracts/external-deps/openzeppelin/token/ERC20/extensions/ERC20Permit.sol\":3647:3660   */\n  chainid\n    /* \"#utility.yul\":3732:3750   */\n  0x80\n  dup3\n  add\n    /* \"#utility.yul\":3725:3759   */\n  mstore\n    /* \"@thirdweb-dev/contracts/external-deps/openzeppelin/token/ERC20/extensions/ERC20Permit.sol\":3690:3694   */\n  address\n    /* \"#utility.yul\":3775:3794   */\n  0xa0\n  dup3\n  add\n    /* \"#utility.yul\":3768:3829   */\n  mstore\n    /* \"#utility.yul\":3577:3596   */\n  0xc0\n  add\n    /* \"@thirdweb-dev/contracts/external-deps/openzeppelin/token/ERC20/extensions/ERC20Permit.sol\":3416:3713   */\n  mload(0x40)\n  0x20\n  dup2\n  dup4\n  sub\n  sub\n  dup2\n  mstore\n  swap1\n  0x40\n  mstore\n    /* \"@thirdweb-dev/contracts/external-deps/openzeppelin/token/ERC20/extensions/ERC20Permit.sol\":3389:3727   */\n  dup1\n  mload\n  swap1\n  0x20\n  add\n  keccak256\n    /* \"@thirdweb-dev/contracts/external-deps/openzeppelin/token/ERC20/extensions/ERC20Permit.sol\":3370:3727   */\n  swap1\n  pop\n    /* \"@thirdweb-dev/contracts/external-deps/openzeppelin/token/ERC20/extensions/ERC20Permit.sol\":3296:3734   */\n  swap1\n  jump\t// out\n    /* \"@thirdweb-dev/contracts/extension/Ownable.sol\":1527:1699   */\ntag_17:\n    /* \"@thirdweb-dev/contracts/extension/Ownable.sol\":1607:1613   */\n  0x01\n  dup1\n  sload\n  sub(shl(0xa0, 0x01), 0x01)\n    /* \"@thirdweb-dev/contracts/extension/Ownable.sol\":1623:1641   */\n  dup4\n  dup2\n  and\n  not(sub(shl(0xa0, 0x01), 0x01))\n  dup4\n  and\n  dup2\n  or\n  swap1\n  swap4\n  sstore\n    /* \"@thirdweb-dev/contracts/extension/Ownable.sol\":1657:1692   */\n  mload(0x40)\n    /* \"@thirdweb-dev/contracts/extension/Ownable.sol\":1607:1613   */\n  swap2\n  and\n  swap2\n    /* \"@thirdweb-dev/contracts/extension/Ownable.sol\":1623:1641   */\n  swap1\n    /* \"@thirdweb-dev/contracts/extension/Ownable.sol\":1607:1613   */\n  dup3\n  swap1\n    /* \"@thirdweb-dev/contracts/extension/Ownable.sol\":1657:1692   */\n  0x8292fce18fa69edf4db7b94ea2e58241df0ae57f97e0a6c9b29067028bf92d76\n  swap1\n    /* \"@thirdweb-dev/contracts/extension/Ownable.sol\":1586:1604   */\n  0x00\n  swap1\n    /* \"@thirdweb-dev/contracts/extension/Ownable.sol\":1657:1692   */\n  log3\n    /* \"@thirdweb-dev/contracts/extension/Ownable.sol\":1576:1699   */\n  pop\n    /* \"@thirdweb-dev/contracts/extension/Ownable.sol\":1527:1699   */\n  pop\n  jump\t// out\n    /* \"@thirdweb-dev/contracts/external-deps/openzeppelin/token/ERC20/ERC20.sol\":2193:2291   */\ntag_25:\n    /* \"@thirdweb-dev/contracts/external-deps/openzeppelin/token/ERC20/ERC20.sol\":2247:2260   */\n  0x60\n    /* \"@thirdweb-dev/contracts/external-deps/openzeppelin/token/ERC20/ERC20.sol\":2279:2284   */\n  0x05\n    /* \"@thirdweb-dev/contracts/external-deps/openzeppelin/token/ERC20/ERC20.sol\":2272:2284   */\n  dup1\n  sload\n  tag_30\n  swap1\n  tag_31\n  jump\t// in\ntag_30:\n  dup1\n  0x1f\n  add\n  0x20\n  dup1\n  swap2\n  div\n  mul\n  0x20\n  add\n  mload(0x40)\n  swap1\n  dup2\n  add\n  0x40\n  mstore\n  dup1\n  swap3\n  swap2\n  swap1\n  dup2\n  dup2\n  mstore\n  0x20\n  add\n  dup3\n  dup1\n  sload\n  tag_32\n  swap1\n  tag_31\n  jump\t// in\ntag_32:\n  dup1\n  iszero\n  tag_33\n  jumpi\n  dup1\n  0x1f\n  lt\n  tag_34\n  jumpi\n  0x0100\n  dup1\n  dup4\n  sload\n  div\n  mul\n  dup4\n  mstore\n  swap2\n  0x20\n  add\n  swap2\n  jump(tag_33)\ntag_34:\n  dup3\n  add\n  swap2\n  swap1\n  0x00\n  mstore\n  keccak256(0x00, 0x20)\n  swap1\ntag_35:\n  dup2\n  sload\n  dup2\n  mstore\n  swap1\n  0x01\n  add\n  swap1\n  0x20\n  add\n  dup1\n  dup4\n  gt\n  tag_35\n  jumpi\n  dup3\n  swap1\n  sub\n  0x1f\n  and\n  dup3\n  add\n  swap2\ntag_33:\n  pop\n  pop\n  pop\n  pop\n  pop\n  swap1\n  pop\n    /* \"@thirdweb-dev/contracts/external-deps/openzeppelin/token/ERC20/ERC20.sol\":2193:2291   */\n  swap1\n  jump\t// out\n    /* \"#utility.yul\":14:304   */\ntag_3:\n    /* \"#utility.yul\":84:90   */\n  0x00\n    /* \"#utility.yul\":137:139   */\n  0x20\n    /* \"#utility.yul\":125:134   */\n  dup3\n    /* \"#utility.yul\":116:123   */\n  dup5\n    /* \"#utility.yul\":112:135   */\n  sub\n    /* \"#utility.yul\":108:140   */\n  slt\n    /* \"#utility.yul\":105:157   */\n  iszero\n  tag_42\n  jumpi\n    /* \"#utility.yul\":153:154   */\n  0x00\n    /* \"#utility.yul\":150:151   */\n  dup1\n    /* \"#utility.yul\":143:155   */\n  revert\n    /* \"#utility.yul\":105:157   */\ntag_42:\n    /* \"#utility.yul\":179:195   */\n  dup2\n  mload\n  sub(shl(0xa0, 0x01), 0x01)\n    /* \"#utility.yul\":224:255   */\n  dup2\n  and\n    /* \"#utility.yul\":214:256   */\n  dup2\n  eq\n    /* \"#utility.yul\":204:274   */\n  tag_43\n  jumpi\n    /* \"#utility.yul\":270:271   */\n  0x00\n    /* \"#utility.yul\":267:268   */\n  dup1\n    /* \"#utility.yul\":260:272   */\n  revert\n    /* \"#utility.yul\":204:274   */\ntag_43:\n    /* \"#utility.yul\":293:298   */\n  swap4\n    /* \"#utility.yul\":14:304   */\n  swap3\n  pop\n  pop\n  pop\n  jump\t// out\n    /* \"#utility.yul\":309:436   */\ntag_36:\n    /* \"#utility.yul\":370:380   */\n  0x4e487b71\n    /* \"#utility.yul\":365:368   */\n  0xe0\n    /* \"#utility.yul\":361:381   */\n  shl\n    /* \"#utility.yul\":358:359   */\n  0x00\n    /* \"#utility.yul\":351:382   */\n  mstore\n    /* \"#utility.yul\":401:405   */\n  0x41\n    /* \"#utility.yul\":398:399   */\n  0x04\n    /* \"#utility.yul\":391:406   */\n  mstore\n    /* \"#utility.yul\":425:429   */\n  0x24\n    /* \"#utility.yul\":422:423   */\n  0x00\n    /* \"#utility.yul\":415:430   */\n  revert\n    /* \"#utility.yul\":441:821   */\ntag_31:\n    /* \"#utility.yul\":520:521   */\n  0x01\n    /* \"#utility.yul\":516:528   */\n  dup2\n  dup2\n  shr\n  swap1\n    /* \"#utility.yul\":563:575   */\n  dup3\n  and\n  dup1\n    /* \"#utility.yul\":584:645   */\n  tag_46\n  jumpi\n    /* \"#utility.yul\":638:642   */\n  0x7f\n    /* \"#utility.yul\":630:636   */\n  dup3\n    /* \"#utility.yul\":626:643   */\n  and\n    /* \"#utility.yul\":616:643   */\n  swap2\n  pop\n    /* \"#utility.yul\":584:645   */\ntag_46:\n    /* \"#utility.yul\":691:693   */\n  0x20\n    /* \"#utility.yul\":683:689   */\n  dup3\n    /* \"#utility.yul\":680:694   */\n  lt\n    /* \"#utility.yul\":660:678   */\n  dup2\n    /* \"#utility.yul\":657:695   */\n  sub\n    /* \"#utility.yul\":654:815   */\n  tag_47\n  jumpi\n    /* \"#utility.yul\":737:747   */\n  0x4e487b71\n    /* \"#utility.yul\":732:735   */\n  0xe0\n    /* \"#utility.yul\":728:748   */\n  shl\n    /* \"#utility.yul\":725:726   */\n  0x00\n    /* \"#utility.yul\":718:749   */\n  mstore\n    /* \"#utility.yul\":772:776   */\n  0x22\n    /* \"#utility.yul\":769:770   */\n  0x04\n    /* \"#utility.yul\":762:777   */\n  mstore\n    /* \"#utility.yul\":800:804   */\n  0x24\n    /* \"#utility.yul\":797:798   */\n  0x00\n    /* \"#utility.yul\":790:805   */\n  revert\n    /* \"#utility.yul\":654:815   */\ntag_47:\n  pop\n    /* \"#utility.yul\":441:821   */\n  swap2\n  swap1\n  pop\n  jump\t// out\n    /* \"#utility.yul\":952:1470   */\ntag_38:\n    /* \"#utility.yul\":1054:1056   */\n  0x1f\n    /* \"#utility.yul\":1049:1052   */\n  dup3\n    /* \"#utility.yul\":1046:1057   */\n  gt\n    /* \"#utility.yul\":1043:1464   */\n  iszero\n  tag_50\n  jumpi\n    /* \"#utility.yul\":1090:1095   */\n  dup1\n    /* \"#utility.yul\":1087:1088   */\n  0x00\n    /* \"#utility.yul\":1080:1096   */\n  mstore\n    /* \"#utility.yul\":1134:1138   */\n  0x20\n    /* \"#utility.yul\":1131:1132   */\n  0x00\n    /* \"#utility.yul\":1121:1139   */\n  keccak256\n    /* \"#utility.yul\":1204:1206   */\n  0x1f\n    /* \"#utility.yul\":1192:1202   */\n  dup5\n    /* \"#utility.yul\":1188:1207   */\n  add\n    /* \"#utility.yul\":1185:1186   */\n  0x05\n    /* \"#utility.yul\":1181:1208   */\n  shr\n    /* \"#utility.yul\":1175:1179   */\n  dup2\n    /* \"#utility.yul\":1171:1209   */\n  add\n    /* \"#utility.yul\":1240:1244   */\n  0x20\n    /* \"#utility.yul\":1228:1238   */\n  dup6\n    /* \"#utility.yul\":1225:1245   */\n  lt\n    /* \"#utility.yul\":1222:1269   */\n  iszero\n  tag_51\n  jumpi\n  pop\n    /* \"#utility.yul\":1263:1267   */\n  dup1\n    /* \"#utility.yul\":1222:1269   */\ntag_51:\n    /* \"#utility.yul\":1318:1320   */\n  0x1f\n    /* \"#utility.yul\":1313:1316   */\n  dup5\n    /* \"#utility.yul\":1309:1321   */\n  add\n    /* \"#utility.yul\":1306:1307   */\n  0x05\n    /* \"#utility.yul\":1302:1322   */\n  shr\n    /* \"#utility.yul\":1296:1300   */\n  dup3\n    /* \"#utility.yul\":1292:1323   */\n  add\n    /* \"#utility.yul\":1282:1323   */\n  swap2\n  pop\n    /* \"#utility.yul\":1373:1454   */\ntag_52:\n    /* \"#utility.yul\":1391:1393   */\n  dup2\n    /* \"#utility.yul\":1384:1389   */\n  dup2\n    /* \"#utility.yul\":1381:1394   */\n  lt\n    /* \"#utility.yul\":1373:1454   */\n  iszero\n  tag_54\n  jumpi\n    /* \"#utility.yul\":1450:1451   */\n  0x00\n    /* \"#utility.yul\":1436:1452   */\n  dup2\n  sstore\n    /* \"#utility.yul\":1417:1418   */\n  0x01\n    /* \"#utility.yul\":1406:1419   */\n  add\n    /* \"#utility.yul\":1373:1454   */\n  jump(tag_52)\ntag_54:\n    /* \"#utility.yul\":1377:1380   */\n  pop\n  pop\n    /* \"#utility.yul\":1043:1464   */\ntag_50:\n    /* \"#utility.yul\":952:1470   */\n  pop\n  pop\n  pop\n  jump\t// out\n    /* \"#utility.yul\":1646:2991   */\ntag_10:\n    /* \"#utility.yul\":1766:1776   */\n  dup2\n  mload\n  sub(shl(0x40, 0x01), 0x01)\n    /* \"#utility.yul\":1788:1818   */\n  dup2\n  gt\n    /* \"#utility.yul\":1785:1841   */\n  iszero\n  tag_58\n  jumpi\n    /* \"#utility.yul\":1821:1839   */\n  tag_58\n  tag_36\n  jump\t// in\ntag_58:\n    /* \"#utility.yul\":1850:1947   */\n  tag_59\n    /* \"#utility.yul\":1940:1946   */\n  dup2\n    /* \"#utility.yul\":1900:1938   */\n  tag_60\n    /* \"#utility.yul\":1932:1936   */\n  dup5\n    /* \"#utility.yul\":1926:1937   */\n  sload\n    /* \"#utility.yul\":1900:1938   */\n  tag_31\n  jump\t// in\ntag_60:\n    /* \"#utility.yul\":1894:1898   */\n  dup5\n    /* \"#utility.yul\":1850:1947   */\n  tag_38\n  jump\t// in\ntag_59:\n    /* \"#utility.yul\":2002:2006   */\n  0x20\n  dup1\n    /* \"#utility.yul\":2059:2061   */\n  0x1f\n    /* \"#utility.yul\":2048:2062   */\n  dup4\n  gt\n    /* \"#utility.yul\":2076:2077   */\n  0x01\n    /* \"#utility.yul\":2071:2734   */\n  dup2\n  eq\n  tag_62\n  jumpi\n    /* \"#utility.yul\":2778:2779   */\n  0x00\n    /* \"#utility.yul\":2795:2801   */\n  dup5\n    /* \"#utility.yul\":2792:2881   */\n  iszero\n  tag_63\n  jumpi\n  pop\n    /* \"#utility.yul\":2847:2866   */\n  dup6\n  dup4\n  add\n    /* \"#utility.yul\":2841:2867   */\n  mload\n    /* \"#utility.yul\":2792:2881   */\ntag_63:\n  not(0x00)\n    /* \"#utility.yul\":1603:1604   */\n  0x03\n    /* \"#utility.yul\":1599:1610   */\n  dup7\n  swap1\n  shl\n    /* \"#utility.yul\":1595:1619   */\n  shr\n    /* \"#utility.yul\":1591:1620   */\n  not\n    /* \"#utility.yul\":1581:1621   */\n  and\n    /* \"#utility.yul\":1627:1628   */\n  0x01\n    /* \"#utility.yul\":1623:1634   */\n  dup6\n  swap1\n  shl\n    /* \"#utility.yul\":1578:1635   */\n  or\n    /* \"#utility.yul\":2894:2975   */\n  dup6\n  sstore\n    /* \"#utility.yul\":2041:2985   */\n  jump(tag_61)\n    /* \"#utility.yul\":2071:2734   */\ntag_62:\n    /* \"#utility.yul\":899:900   */\n  0x00\n    /* \"#utility.yul\":892:906   */\n  dup6\n  dup2\n  mstore\n    /* \"#utility.yul\":936:940   */\n  0x20\n    /* \"#utility.yul\":923:941   */\n  dup2\n  keccak256\n  not(0x1f)\n    /* \"#utility.yul\":2107:2127   */\n  dup7\n  and\n  swap2\n    /* \"#utility.yul\":2225:2461   */\ntag_66:\n    /* \"#utility.yul\":2239:2246   */\n  dup3\n    /* \"#utility.yul\":2236:2237   */\n  dup2\n    /* \"#utility.yul\":2233:2247   */\n  lt\n    /* \"#utility.yul\":2225:2461   */\n  iszero\n  tag_68\n  jumpi\n    /* \"#utility.yul\":2328:2347   */\n  dup9\n  dup7\n  add\n    /* \"#utility.yul\":2322:2348   */\n  mload\n    /* \"#utility.yul\":2307:2349   */\n  dup3\n  sstore\n    /* \"#utility.yul\":2420:2447   */\n  swap5\n  dup5\n  add\n  swap5\n    /* \"#utility.yul\":2388:2389   */\n  0x01\n    /* \"#utility.yul\":2376:2390   */\n  swap1\n  swap2\n  add\n  swap1\n    /* \"#utility.yul\":2255:2274   */\n  dup5\n  add\n    /* \"#utility.yul\":2225:2461   */\n  jump(tag_66)\ntag_68:\n    /* \"#utility.yul\":2229:2232   */\n  pop\n    /* \"#utility.yul\":2489:2495   */\n  dup6\n    /* \"#utility.yul\":2480:2487   */\n  dup3\n    /* \"#utility.yul\":2477:2496   */\n  lt\n    /* \"#utility.yul\":2474:2675   */\n  iszero\n  tag_69\n  jumpi\n    /* \"#utility.yul\":2550:2569   */\n  dup8\n  dup6\n  add\n    /* \"#utility.yul\":2544:2570   */\n  mload\n  not(0x00)\n    /* \"#utility.yul\":2633:2634   */\n  0x03\n    /* \"#utility.yul\":2629:2643   */\n  dup9\n  swap1\n  shl\n    /* \"#utility.yul\":2645:2648   */\n  0xf8\n    /* \"#utility.yul\":2625:2649   */\n  and\n    /* \"#utility.yul\":2621:2658   */\n  shr\n    /* \"#utility.yul\":2617:2659   */\n  not\n    /* \"#utility.yul\":2602:2660   */\n  and\n    /* \"#utility.yul\":2587:2661   */\n  dup2\n  sstore\n    /* \"#utility.yul\":2474:2675   */\ntag_69:\n  pop\n  pop\n    /* \"#utility.yul\":2721:2722   */\n  0x01\n    /* \"#utility.yul\":2712:2718   */\n  dup5\n    /* \"#utility.yul\":2709:2710   */\n  0x01\n    /* \"#utility.yul\":2705:2719   */\n  shl\n    /* \"#utility.yul\":2701:2723   */\n  add\n    /* \"#utility.yul\":2695:2699   */\n  dup6\n    /* \"#utility.yul\":2688:2724   */\n  sstore\n    /* \"#utility.yul\":2041:2985   */\ntag_61:\n  pop\n  pop\n  pop\n  pop\n    /* \"#utility.yul\":1646:2991   */\n  pop\n  pop\n  jump\t// out\n    /* \"#utility.yul\":3346:3835   */\ntag_40:\n    /* \"mojo.sol\":269:3386  contract Mojo is ERC20Base {... */\n  mload(0x80)\n  mload(0xa0)\n  mload(0xc0)\n  mload(0xe0)\n  codecopy(0x00, dataOffset(sub_0), dataSize(sub_0))\n  0x00\n  assignImmutable(\"0x2ba9f8dd1e8c304051cf11ad9c333317e09a9b82f7883db7e425470ca7bf1b6b\")\n  0x00\n  assignImmutable(\"0xd63087bea9f1800eed943829fc1d61e7869764805baa3259078c1caf3d4f5a48\")\n  0x00\n  assignImmutable(\"0x2e7e6acb89239f8ba26320da12f91c349b6a390d18a9b6c8d2929da718f4275c\")\n  0x00\n  assignImmutable(\"0xaf13ca25efdbd9254ba3f4d4ad1a6c14aebb10c9ef64543eb4806b8d62a2c06d\")\n  return(0x00, dataSize(sub_0))\nstop\n\nsub_0: assembly {\n        /* \"mojo.sol\":269:3386  contract Mojo is ERC20Base {... */\n      mstore(0x40, 0x80)\n      callvalue\n      dup1\n      iszero\n      tag_1\n      jumpi\n      0x00\n      dup1\n      revert\n    tag_1:\n      pop\n      jumpi(tag_2, lt(calldatasize, 0x04))\n      shr(0xe0, calldataload(0x00))\n      dup1\n      0x79cc6790\n      gt\n      tag_33\n      jumpi\n      dup1\n      0xa9059cbb\n      gt\n      tag_34\n      jumpi\n      dup1\n      0xd505accf\n      gt\n      tag_35\n      jumpi\n      dup1\n      0xd505accf\n      eq\n      tag_29\n      jumpi\n      dup1\n      0xd9cdee0d\n      eq\n      tag_30\n      jumpi\n      dup1\n      0xdd62ed3e\n      eq\n      tag_31\n      jumpi\n      dup1\n      0xe8a3d485\n      eq\n      tag_32\n      jumpi\n      0x00\n      dup1\n      revert\n    tag_35:\n      dup1\n      0xa9059cbb\n      eq\n      tag_25\n      jumpi\n      dup1\n      0xac9650d8\n      eq\n      tag_26\n      jumpi\n      dup1\n      0xba2129b1\n      eq\n      tag_27\n      jumpi\n      dup1\n      0xd259ab42\n      eq\n      tag_28\n      jumpi\n      0x00\n      dup1\n      revert\n    tag_34:\n      dup1\n      0x8ea83031\n      gt\n      tag_36\n      jumpi\n      dup1\n      0x8ea83031\n      eq\n      tag_21\n      jumpi\n      dup1\n      0x938e3d7b\n      eq\n      tag_22\n      jumpi\n      dup1\n      0x95d89b41\n      eq\n      tag_23\n      jumpi\n      dup1\n      0xa457c2d7\n      eq\n      tag_24\n      jumpi\n      0x00\n      dup1\n      revert\n    tag_36:\n      dup1\n      0x79cc6790\n      eq\n      tag_18\n      jumpi\n      dup1\n      0x7ecebe00\n      eq\n      tag_19\n      jumpi\n      dup1\n      0x8da5cb5b\n      eq\n      tag_20\n      jumpi\n      0x00\n      dup1\n      revert\n    tag_33:\n      dup1\n      0x313ce567\n      gt\n      tag_37\n      jumpi\n      dup1\n      0x449a52f8\n      gt\n      tag_38\n      jumpi\n      dup1\n      0x449a52f8\n      eq\n      tag_14\n      jumpi\n      dup1\n      0x70a08231\n      eq\n      tag_15\n      jumpi\n      dup1\n      0x7261fa29\n      eq\n      tag_16\n      jumpi\n      dup1\n      0x7606329b\n      eq\n      tag_17\n      jumpi\n      0x00\n      dup1\n      revert\n    tag_38:\n      dup1\n      0x313ce567\n      eq\n      tag_10\n      jumpi\n      dup1\n      0x3644e515\n      eq\n      tag_11\n      jumpi\n      dup1\n      0x39509351\n      eq\n      tag_12\n      jumpi\n      dup1\n      0x42966c68\n      eq\n      tag_13\n      jumpi\n      0x00\n      dup1\n      revert\n    tag_37:\n      dup1\n      0x0e0bfb49\n      gt\n      tag_39\n      jumpi\n      dup1\n      0x0e0bfb49\n      eq\n      tag_6\n      jumpi\n      dup1\n      0x13af4035\n      eq\n      tag_7\n      jumpi\n      dup1\n      0x18160ddd\n      eq\n      tag_8\n      jumpi\n      dup1\n      0x23b872dd\n      eq\n      tag_9\n      jumpi\n      0x00\n      dup1\n      revert\n    tag_39:\n      dup1\n      0x06fdde03\n      eq\n      tag_3\n      jumpi\n      dup1\n      0x095ea7b3\n      eq\n      tag_4\n      jumpi\n      dup1\n      0x0b8b29e5\n      eq\n      tag_5\n      jumpi\n    tag_2:\n      0x00\n      dup1\n      revert\n        /* \"@thirdweb-dev/contracts/external-deps/openzeppelin/token/ERC20/ERC20.sol\":2193:2291   */\n    tag_3:\n      tag_40\n      tag_41\n      jump\t// in\n    tag_40:\n      mload(0x40)\n      tag_42\n      swap2\n      swap1\n      tag_43\n      jump\t// in\n    tag_42:\n      mload(0x40)\n      dup1\n      swap2\n      sub\n      swap1\n      return\n        /* \"@thirdweb-dev/contracts/external-deps/openzeppelin/token/ERC20/ERC20.sol\":4470:4667   */\n    tag_4:\n      tag_44\n      tag_45\n      calldatasize\n      0x04\n      tag_46\n      jump\t// in\n    tag_45:\n      tag_47\n      jump\t// in\n    tag_44:\n      mload(0x40)\n        /* \"#utility.yul\":1158:1172   */\n      swap1\n      iszero\n        /* \"#utility.yul\":1151:1173   */\n      iszero\n        /* \"#utility.yul\":1133:1174   */\n      dup2\n      mstore\n        /* \"#utility.yul\":1121:1123   */\n      0x20\n        /* \"#utility.yul\":1106:1124   */\n      add\n        /* \"@thirdweb-dev/contracts/external-deps/openzeppelin/token/ERC20/ERC20.sol\":4470:4667   */\n      tag_42\n        /* \"#utility.yul\":993:1180   */\n      jump\n        /* \"mojo.sol\":2392:2627  function mintForSwap(address user, uint256 pjkAmount) external onlySwapContract {... */\n    tag_5:\n      tag_50\n      tag_51\n      calldatasize\n      0x04\n      tag_46\n      jump\t// in\n    tag_51:\n      tag_52\n      jump\t// in\n    tag_50:\n      stop\n        /* \"mojo.sol\":436:464  uint256 public swapRatio = 1 */\n    tag_6:\n      tag_53\n      sload(0x09)\n      dup2\n      jump\n    tag_53:\n      mload(0x40)\n        /* \"#utility.yul\":1331:1356   */\n      swap1\n      dup2\n      mstore\n        /* \"#utility.yul\":1319:1321   */\n      0x20\n        /* \"#utility.yul\":1304:1322   */\n      add\n        /* \"mojo.sol\":436:464  uint256 public swapRatio = 1 */\n      tag_42\n        /* \"#utility.yul\":1185:1362   */\n      jump\n        /* \"@thirdweb-dev/contracts/extension/Ownable.sol\":1235:1412   */\n    tag_7:\n      tag_50\n      tag_58\n      calldatasize\n      0x04\n      tag_59\n      jump\t// in\n    tag_58:\n      tag_60\n      jump\t// in\n        /* \"@thirdweb-dev/contracts/external-deps/openzeppelin/token/ERC20/ERC20.sol\":3281:3387   */\n    tag_8:\n        /* \"@thirdweb-dev/contracts/external-deps/openzeppelin/token/ERC20/ERC20.sol\":3368:3380   */\n      sload(0x04)\n        /* \"@thirdweb-dev/contracts/external-deps/openzeppelin/token/ERC20/ERC20.sol\":3281:3387   */\n      jump(tag_53)\n        /* \"@thirdweb-dev/contracts/external-deps/openzeppelin/token/ERC20/ERC20.sol\":5229:5485   */\n    tag_9:\n      tag_44\n      tag_65\n      calldatasize\n      0x04\n      tag_66\n      jump\t// in\n    tag_65:\n      tag_67\n      jump\t// in\n        /* \"@thirdweb-dev/contracts/external-deps/openzeppelin/token/ERC20/ERC20.sol\":3130:3221   */\n    tag_10:\n      mload(0x40)\n        /* \"@thirdweb-dev/contracts/external-deps/openzeppelin/token/ERC20/ERC20.sol\":3212:3214   */\n      0x12\n        /* \"#utility.yul\":2033:2069   */\n      dup2\n      mstore\n        /* \"#utility.yul\":2021:2023   */\n      0x20\n        /* \"#utility.yul\":2006:2024   */\n      add\n        /* \"@thirdweb-dev/contracts/external-deps/openzeppelin/token/ERC20/ERC20.sol\":3130:3221   */\n      tag_42\n        /* \"#utility.yul\":1891:2075   */\n      jump\n        /* \"@thirdweb-dev/contracts/external-deps/openzeppelin/token/ERC20/extensions/ERC20Permit.sol\":3018:3290   */\n    tag_11:\n      tag_53\n      tag_74\n      jump\t// in\n        /* \"@thirdweb-dev/contracts/external-deps/openzeppelin/token/ERC20/ERC20.sol\":5880:6116   */\n    tag_12:\n      tag_44\n      tag_78\n      calldatasize\n      0x04\n      tag_46\n      jump\t// in\n    tag_78:\n      tag_79\n      jump\t// in\n        /* \"mojo.sol\":2682:2819  function burn(uint256 amount) external override {... */\n    tag_13:\n      tag_50\n      tag_82\n      calldatasize\n      0x04\n      tag_83\n      jump\t// in\n    tag_82:\n      tag_84\n      jump\t// in\n        /* \"@thirdweb-dev/contracts/base/ERC20Base.sol\":1989:2198   */\n    tag_14:\n      tag_50\n      tag_86\n      calldatasize\n      0x04\n      tag_46\n      jump\t// in\n    tag_86:\n      tag_87\n      jump\t// in\n        /* \"@thirdweb-dev/contracts/external-deps/openzeppelin/token/ERC20/ERC20.sol\":3445:3570   */\n    tag_15:\n      tag_53\n      tag_89\n      calldatasize\n      0x04\n      tag_59\n      jump\t// in\n    tag_89:\n      sub(shl(0xa0, 0x01), 0x01)\n        /* \"@thirdweb-dev/contracts/external-deps/openzeppelin/token/ERC20/ERC20.sol\":3545:3563   */\n      and\n        /* \"@thirdweb-dev/contracts/external-deps/openzeppelin/token/ERC20/ERC20.sol\":3519:3526   */\n      0x00\n        /* \"@thirdweb-dev/contracts/external-deps/openzeppelin/token/ERC20/ERC20.sol\":3545:3563   */\n      swap1\n      dup2\n      mstore\n        /* \"@thirdweb-dev/contracts/external-deps/openzeppelin/token/ERC20/ERC20.sol\":3545:3554   */\n      0x02\n        /* \"@thirdweb-dev/contracts/external-deps/openzeppelin/token/ERC20/ERC20.sol\":3545:3563   */\n      0x20\n      mstore\n      0x40\n      swap1\n      keccak256\n      sload\n      swap1\n        /* \"@thirdweb-dev/contracts/external-deps/openzeppelin/token/ERC20/ERC20.sol\":3445:3570   */\n      jump\n        /* \"mojo.sol\":669:731  mapping(bytes32 => Contribution[]) public projectContributions */\n    tag_16:\n      tag_92\n      tag_93\n      calldatasize\n      0x04\n      tag_94\n      jump\t// in\n    tag_93:\n      tag_95\n      jump\t// in\n    tag_92:\n      mload(0x40)\n      tag_42\n      swap5\n      swap4\n      swap3\n      swap2\n      swap1\n      tag_97\n      jump\t// in\n        /* \"mojo.sol\":302:365  string public constant DESIGNATOR = \"ProducerProtocolMainToken\" */\n    tag_17:\n      tag_40\n      mload(0x40)\n      dup1\n      0x40\n      add\n      0x40\n      mstore\n      dup1\n      0x19\n      dup2\n      mstore\n      0x20\n      add\n      0x50726f647563657250726f746f636f6c4d61696e546f6b656e00000000000000\n      dup2\n      mstore\n      pop\n      dup2\n      jump\n        /* \"@thirdweb-dev/contracts/base/ERC20Base.sol\":2882:3312   */\n    tag_18:\n      tag_50\n      tag_102\n      calldatasize\n      0x04\n      tag_46\n      jump\t// in\n    tag_102:\n      tag_103\n      jump\t// in\n        /* \"@thirdweb-dev/contracts/external-deps/openzeppelin/token/ERC20/extensions/ERC20Permit.sol\":2768:2894   */\n    tag_19:\n      tag_53\n      tag_105\n      calldatasize\n      0x04\n      tag_59\n      jump\t// in\n    tag_105:\n      tag_106\n      jump\t// in\n        /* \"@thirdweb-dev/contracts/extension/Ownable.sol\":973:1059   */\n    tag_20:\n        /* \"@thirdweb-dev/contracts/extension/Ownable.sol\":1046:1052   */\n      and(sub(shl(0xa0, 0x01), 0x01), sload(0x01))\n        /* \"@thirdweb-dev/contracts/extension/Ownable.sol\":973:1059   */\n    tag_108:\n      mload(0x40)\n      sub(shl(0xa0, 0x01), 0x01)\n        /* \"#utility.yul\":3697:3752   */\n      swap1\n      swap2\n      and\n        /* \"#utility.yul\":3679:3753   */\n      dup2\n      mstore\n        /* \"#utility.yul\":3667:3669   */\n      0x20\n        /* \"#utility.yul\":3652:3670   */\n      add\n        /* \"@thirdweb-dev/contracts/extension/Ownable.sol\":973:1059   */\n      tag_42\n        /* \"#utility.yul\":3533:3759   */\n      jump\n        /* \"mojo.sol\":371:398  address public swapContract */\n    tag_21:\n      sload(0x08)\n      tag_108\n      swap1\n      sub(shl(0xa0, 0x01), 0x01)\n      and\n      dup2\n      jump\n        /* \"@thirdweb-dev/contracts/extension/ContractMetadata.sol\":1110:1311   */\n    tag_22:\n      tag_50\n      tag_116\n      calldatasize\n      0x04\n      tag_117\n      jump\t// in\n    tag_116:\n      tag_118\n      jump\t// in\n        /* \"@thirdweb-dev/contracts/external-deps/openzeppelin/token/ERC20/ERC20.sol\":2404:2506   */\n    tag_23:\n      tag_40\n      tag_120\n      jump\t// in\n        /* \"@thirdweb-dev/contracts/external-deps/openzeppelin/token/ERC20/ERC20.sol\":6603:7032   */\n    tag_24:\n      tag_44\n      tag_123\n      calldatasize\n      0x04\n      tag_46\n      jump\t// in\n    tag_123:\n      tag_124\n      jump\t// in\n        /* \"@thirdweb-dev/contracts/external-deps/openzeppelin/token/ERC20/ERC20.sol\":3766:3955   */\n    tag_25:\n      tag_44\n      tag_127\n      calldatasize\n      0x04\n      tag_46\n      jump\t// in\n    tag_127:\n      tag_128\n      jump\t// in\n        /* \"@thirdweb-dev/contracts/extension/Multicall.sol\":696:1263   */\n    tag_26:\n      tag_130\n      tag_131\n      calldatasize\n      0x04\n      tag_132\n      jump\t// in\n    tag_131:\n      tag_133\n      jump\t// in\n    tag_130:\n      mload(0x40)\n      tag_42\n      swap2\n      swap1\n      tag_135\n      jump\t// in\n        /* \"mojo.sol\":3119:3257  function setSwapRatio(uint256 _ratio) external onlyOwner {... */\n    tag_27:\n      tag_50\n      tag_137\n      calldatasize\n      0x04\n      tag_83\n      jump\t// in\n    tag_137:\n      tag_138\n      jump\t// in\n        /* \"mojo.sol\":2886:3063  function setSwapContract(address _swapContract) external onlyOwner {... */\n    tag_28:\n      tag_50\n      tag_140\n      calldatasize\n      0x04\n      tag_59\n      jump\t// in\n    tag_140:\n      tag_141\n      jump\t// in\n        /* \"@thirdweb-dev/contracts/external-deps/openzeppelin/token/ERC20/extensions/ERC20Permit.sol\":2056:2707   */\n    tag_29:\n      tag_50\n      tag_143\n      calldatasize\n      0x04\n      tag_144\n      jump\t// in\n    tag_143:\n      tag_145\n      jump\t// in\n        /* \"mojo.sol\":1584:2195  function allocateContribution(... */\n    tag_30:\n      tag_50\n      tag_147\n      calldatasize\n      0x04\n      tag_148\n      jump\t// in\n    tag_147:\n      tag_149\n      jump\t// in\n        /* \"@thirdweb-dev/contracts/external-deps/openzeppelin/token/ERC20/ERC20.sol\":4013:4162   */\n    tag_31:\n      tag_53\n      tag_151\n      calldatasize\n      0x04\n      tag_152\n      jump\t// in\n    tag_151:\n      sub(shl(0xa0, 0x01), 0x01)\n        /* \"@thirdweb-dev/contracts/external-deps/openzeppelin/token/ERC20/ERC20.sol\":4128:4146   */\n      swap2\n      dup3\n      and\n        /* \"@thirdweb-dev/contracts/external-deps/openzeppelin/token/ERC20/ERC20.sol\":4102:4109   */\n      0x00\n        /* \"@thirdweb-dev/contracts/external-deps/openzeppelin/token/ERC20/ERC20.sol\":4128:4146   */\n      swap1\n      dup2\n      mstore\n        /* \"@thirdweb-dev/contracts/external-deps/openzeppelin/token/ERC20/ERC20.sol\":4128:4139   */\n      0x03\n        /* \"@thirdweb-dev/contracts/external-deps/openzeppelin/token/ERC20/ERC20.sol\":4128:4146   */\n      0x20\n      swap1\n      dup2\n      mstore\n      0x40\n      dup1\n      dup4\n      keccak256\n        /* \"@thirdweb-dev/contracts/external-deps/openzeppelin/token/ERC20/ERC20.sol\":4128:4155   */\n      swap4\n      swap1\n      swap5\n      and\n      dup3\n      mstore\n      swap2\n      swap1\n      swap2\n      mstore\n      keccak256\n      sload\n      swap1\n        /* \"@thirdweb-dev/contracts/external-deps/openzeppelin/token/ERC20/ERC20.sol\":4013:4162   */\n      jump\n        /* \"@thirdweb-dev/contracts/extension/ContractMetadata.sol\":672:706   */\n    tag_32:\n      tag_40\n      tag_156\n      jump\t// in\n        /* \"@thirdweb-dev/contracts/external-deps/openzeppelin/token/ERC20/ERC20.sol\":2193:2291   */\n    tag_41:\n        /* \"@thirdweb-dev/contracts/external-deps/openzeppelin/token/ERC20/ERC20.sol\":2247:2260   */\n      0x60\n        /* \"@thirdweb-dev/contracts/external-deps/openzeppelin/token/ERC20/ERC20.sol\":2279:2284   */\n      0x05\n        /* \"@thirdweb-dev/contracts/external-deps/openzeppelin/token/ERC20/ERC20.sol\":2272:2284   */\n      dup1\n      sload\n      tag_159\n      swap1\n      tag_160\n      jump\t// in\n    tag_159:\n      dup1\n      0x1f\n      add\n      0x20\n      dup1\n      swap2\n      div\n      mul\n      0x20\n      add\n      mload(0x40)\n      swap1\n      dup2\n      add\n      0x40\n      mstore\n      dup1\n      swap3\n      swap2\n      swap1\n      dup2\n      dup2\n      mstore\n      0x20\n      add\n      dup3\n      dup1\n      sload\n      tag_161\n      swap1\n      tag_160\n      jump\t// in\n    tag_161:\n      dup1\n      iszero\n      tag_162\n      jumpi\n      dup1\n      0x1f\n      lt\n      tag_163\n      jumpi\n      0x0100\n      dup1\n      dup4\n      sload\n      div\n      mul\n      dup4\n      mstore\n      swap2\n      0x20\n      add\n      swap2\n      jump(tag_162)\n    tag_163:\n      dup3\n      add\n      swap2\n      swap1\n      0x00\n      mstore\n      keccak256(0x00, 0x20)\n      swap1\n    tag_164:\n      dup2\n      sload\n      dup2\n      mstore\n      swap1\n      0x01\n      add\n      swap1\n      0x20\n      add\n      dup1\n      dup4\n      gt\n      tag_164\n      jumpi\n      dup3\n      swap1\n      sub\n      0x1f\n      and\n      dup3\n      add\n      swap2\n    tag_162:\n      pop\n      pop\n      pop\n      pop\n      pop\n      swap1\n      pop\n        /* \"@thirdweb-dev/contracts/external-deps/openzeppelin/token/ERC20/ERC20.sol\":2193:2291   */\n      swap1\n      jump\t// out\n        /* \"@thirdweb-dev/contracts/external-deps/openzeppelin/token/ERC20/ERC20.sol\":4470:4667   */\n    tag_47:\n        /* \"@thirdweb-dev/contracts/external-deps/openzeppelin/token/ERC20/ERC20.sol\":4553:4557   */\n      0x00\n        /* \"@thirdweb-dev/contracts/base/ERC20Base.sol\":4478:4488   */\n      caller\n        /* \"@thirdweb-dev/contracts/external-deps/openzeppelin/token/ERC20/ERC20.sol\":4607:4639   */\n      tag_168\n        /* \"@thirdweb-dev/contracts/base/ERC20Base.sol\":4478:4488   */\n      dup2\n        /* \"@thirdweb-dev/contracts/external-deps/openzeppelin/token/ERC20/ERC20.sol\":4623:4630   */\n      dup6\n        /* \"@thirdweb-dev/contracts/external-deps/openzeppelin/token/ERC20/ERC20.sol\":4632:4638   */\n      dup6\n        /* \"@thirdweb-dev/contracts/external-deps/openzeppelin/token/ERC20/ERC20.sol\":4607:4615   */\n      tag_169\n        /* \"@thirdweb-dev/contracts/external-deps/openzeppelin/token/ERC20/ERC20.sol\":4607:4639   */\n      jump\t// in\n    tag_168:\n        /* \"@thirdweb-dev/contracts/external-deps/openzeppelin/token/ERC20/ERC20.sol\":4656:4660   */\n      0x01\n        /* \"@thirdweb-dev/contracts/external-deps/openzeppelin/token/ERC20/ERC20.sol\":4649:4660   */\n      swap2\n      pop\n      pop\n        /* \"@thirdweb-dev/contracts/external-deps/openzeppelin/token/ERC20/ERC20.sol\":4470:4667   */\n    tag_165:\n      swap3\n      swap2\n      pop\n      pop\n      jump\t// out\n        /* \"mojo.sol\":2392:2627  function mintForSwap(address user, uint256 pjkAmount) external onlySwapContract {... */\n    tag_52:\n        /* \"mojo.sol\":3323:3335  swapContract */\n      and(sub(shl(0xa0, 0x01), 0x01), sload(0x08))\n        /* \"mojo.sol\":3309:3319  msg.sender */\n      caller\n        /* \"mojo.sol\":3309:3335  msg.sender == swapContract */\n      eq\n        /* \"mojo.sol\":3301:3366  require(msg.sender == swapContract, \"Only swap contract allowed\") */\n      tag_171\n      jumpi\n      mload(0x40)\n      shl(0xe5, 0x461bcd)\n      dup2\n      mstore\n        /* \"#utility.yul\":8358:8360   */\n      0x20\n        /* \"mojo.sol\":3301:3366  require(msg.sender == swapContract, \"Only swap contract allowed\") */\n      0x04\n      dup3\n      add\n        /* \"#utility.yul\":8340:8361   */\n      mstore\n        /* \"#utility.yul\":8397:8399   */\n      0x1a\n        /* \"#utility.yul\":8377:8395   */\n      0x24\n      dup3\n      add\n        /* \"#utility.yul\":8370:8400   */\n      mstore\n        /* \"#utility.yul\":8436:8464   */\n      0x4f6e6c79207377617020636f6e747261637420616c6c6f776564000000000000\n        /* \"#utility.yul\":8416:8434   */\n      0x44\n      dup3\n      add\n        /* \"#utility.yul\":8409:8465   */\n      mstore\n        /* \"#utility.yul\":8482:8500   */\n      0x64\n      add\n        /* \"mojo.sol\":3301:3366  require(msg.sender == swapContract, \"Only swap contract allowed\") */\n    tag_172:\n      mload(0x40)\n      dup1\n      swap2\n      sub\n      swap1\n      revert\n    tag_171:\n        /* \"mojo.sol\":2482:2500  uint256 mojoAmount */\n      0x00\n        /* \"mojo.sol\":2515:2524  swapRatio */\n      sload(0x09)\n        /* \"mojo.sol\":2503:2512  pjkAmount */\n      dup3\n        /* \"mojo.sol\":2503:2524  pjkAmount * swapRatio */\n      tag_175\n      swap2\n      swap1\n      tag_176\n      jump\t// in\n    tag_175:\n        /* \"mojo.sol\":2482:2524  uint256 mojoAmount = pjkAmount * swapRatio */\n      swap1\n      pop\n        /* \"mojo.sol\":2534:2557  _mint(user, mojoAmount) */\n      tag_177\n        /* \"mojo.sol\":2540:2544  user */\n      dup4\n        /* \"mojo.sol\":2546:2556  mojoAmount */\n      dup3\n        /* \"mojo.sol\":2534:2539  _mint */\n      tag_178\n        /* \"mojo.sol\":2534:2557  _mint(user, mojoAmount) */\n      jump\t// in\n    tag_177:\n        /* \"mojo.sol\":2572:2620  TokensMintedForSwap(user, pjkAmount, mojoAmount) */\n      0x40\n      dup1\n      mload\n        /* \"#utility.yul\":8990:9015   */\n      dup4\n      dup2\n      mstore\n        /* \"#utility.yul\":9046:9048   */\n      0x20\n        /* \"#utility.yul\":9031:9049   */\n      dup2\n      add\n        /* \"#utility.yul\":9024:9058   */\n      dup4\n      swap1\n      mstore\n      sub(shl(0xa0, 0x01), 0x01)\n        /* \"mojo.sol\":2572:2620  TokensMintedForSwap(user, pjkAmount, mojoAmount) */\n      dup6\n      and\n      swap2\n      0x0b4e964e267083888fc5842617dfbdedf343ac40fddd3a42bed80afeccd7dbbf\n      swap2\n        /* \"#utility.yul\":8963:8981   */\n      add\n        /* \"mojo.sol\":2572:2620  TokensMintedForSwap(user, pjkAmount, mojoAmount) */\n      mload(0x40)\n      dup1\n      swap2\n      sub\n      swap1\n      log2\n        /* \"mojo.sol\":2472:2627  {... */\n      pop\n        /* \"mojo.sol\":2392:2627  function mintForSwap(address user, uint256 pjkAmount) external onlySwapContract {... */\n      pop\n      pop\n      jump\t// out\n        /* \"@thirdweb-dev/contracts/extension/Ownable.sol\":1235:1412   */\n    tag_60:\n        /* \"@thirdweb-dev/contracts/extension/Ownable.sol\":1305:1319   */\n      tag_182\n        /* \"@thirdweb-dev/contracts/extension/Ownable.sol\":1305:1317   */\n      tag_183\n        /* \"@thirdweb-dev/contracts/extension/Ownable.sol\":1305:1319   */\n      jump\t// in\n    tag_182:\n        /* \"@thirdweb-dev/contracts/extension/Ownable.sol\":1300:1374   */\n      tag_184\n      jumpi\n        /* \"@thirdweb-dev/contracts/extension/Ownable.sol\":1342:1363   */\n      mload(0x40)\n      shl(0xe1, 0x16ccb9cb)\n      dup2\n      mstore\n      0x04\n      add\n      mload(0x40)\n      dup1\n      swap2\n      sub\n      swap1\n      revert\n        /* \"@thirdweb-dev/contracts/extension/Ownable.sol\":1300:1374   */\n    tag_184:\n        /* \"@thirdweb-dev/contracts/extension/Ownable.sol\":1383:1405   */\n      tag_185\n        /* \"@thirdweb-dev/contracts/extension/Ownable.sol\":1395:1404   */\n      dup2\n        /* \"@thirdweb-dev/contracts/extension/Ownable.sol\":1383:1394   */\n      tag_186\n        /* \"@thirdweb-dev/contracts/extension/Ownable.sol\":1383:1405   */\n      jump\t// in\n    tag_185:\n        /* \"@thirdweb-dev/contracts/extension/Ownable.sol\":1235:1412   */\n      pop\n      jump\t// out\n        /* \"@thirdweb-dev/contracts/external-deps/openzeppelin/token/ERC20/ERC20.sol\":5229:5485   */\n    tag_67:\n        /* \"@thirdweb-dev/contracts/external-deps/openzeppelin/token/ERC20/ERC20.sol\":5326:5330   */\n      0x00\n        /* \"@thirdweb-dev/contracts/base/ERC20Base.sol\":4478:4488   */\n      caller\n        /* \"@thirdweb-dev/contracts/external-deps/openzeppelin/token/ERC20/ERC20.sol\":5382:5420   */\n      tag_190\n        /* \"@thirdweb-dev/contracts/external-deps/openzeppelin/token/ERC20/ERC20.sol\":5398:5402   */\n      dup6\n        /* \"@thirdweb-dev/contracts/base/ERC20Base.sol\":4478:4488   */\n      dup3\n        /* \"@thirdweb-dev/contracts/external-deps/openzeppelin/token/ERC20/ERC20.sol\":5413:5419   */\n      dup6\n        /* \"@thirdweb-dev/contracts/external-deps/openzeppelin/token/ERC20/ERC20.sol\":5382:5397   */\n      tag_191\n        /* \"@thirdweb-dev/contracts/external-deps/openzeppelin/token/ERC20/ERC20.sol\":5382:5420   */\n      jump\t// in\n    tag_190:\n        /* \"@thirdweb-dev/contracts/external-deps/openzeppelin/token/ERC20/ERC20.sol\":5430:5457   */\n      tag_192\n        /* \"@thirdweb-dev/contracts/external-deps/openzeppelin/token/ERC20/ERC20.sol\":5440:5444   */\n      dup6\n        /* \"@thirdweb-dev/contracts/external-deps/openzeppelin/token/ERC20/ERC20.sol\":5446:5448   */\n      dup6\n        /* \"@thirdweb-dev/contracts/external-deps/openzeppelin/token/ERC20/ERC20.sol\":5450:5456   */\n      dup6\n        /* \"@thirdweb-dev/contracts/external-deps/openzeppelin/token/ERC20/ERC20.sol\":5430:5439   */\n      tag_193\n        /* \"@thirdweb-dev/contracts/external-deps/openzeppelin/token/ERC20/ERC20.sol\":5430:5457   */\n      jump\t// in\n    tag_192:\n      pop\n        /* \"@thirdweb-dev/contracts/external-deps/openzeppelin/token/ERC20/ERC20.sol\":5474:5478   */\n      0x01\n      swap5\n        /* \"@thirdweb-dev/contracts/external-deps/openzeppelin/token/ERC20/ERC20.sol\":5229:5485   */\n      swap4\n      pop\n      pop\n      pop\n      pop\n      jump\t// out\n        /* \"@thirdweb-dev/contracts/external-deps/openzeppelin/token/ERC20/extensions/ERC20Permit.sol\":3018:3290   */\n    tag_74:\n        /* \"@thirdweb-dev/contracts/external-deps/openzeppelin/token/ERC20/extensions/ERC20Permit.sol\":3076:3083   */\n      0x00\n        /* \"@thirdweb-dev/contracts/external-deps/openzeppelin/token/ERC20/extensions/ERC20Permit.sol\":3107:3111   */\n      address\n      sub(shl(0xa0, 0x01), 0x01)\n        /* \"@thirdweb-dev/contracts/external-deps/openzeppelin/token/ERC20/extensions/ERC20Permit.sol\":3116:3128   */\n      immutable(\"0xd63087bea9f1800eed943829fc1d61e7869764805baa3259078c1caf3d4f5a48\")\n        /* \"@thirdweb-dev/contracts/external-deps/openzeppelin/token/ERC20/extensions/ERC20Permit.sol\":3099:3128   */\n      and\n      eq\n        /* \"@thirdweb-dev/contracts/external-deps/openzeppelin/token/ERC20/extensions/ERC20Permit.sol\":3099:3165   */\n      dup1\n      iszero\n      tag_196\n      jumpi\n      pop\n        /* \"@thirdweb-dev/contracts/external-deps/openzeppelin/token/ERC20/extensions/ERC20Permit.sol\":3149:3165   */\n      immutable(\"0x2e7e6acb89239f8ba26320da12f91c349b6a390d18a9b6c8d2929da718f4275c\")\n        /* \"@thirdweb-dev/contracts/external-deps/openzeppelin/token/ERC20/extensions/ERC20Permit.sol\":3132:3145   */\n      chainid\n        /* \"@thirdweb-dev/contracts/external-deps/openzeppelin/token/ERC20/extensions/ERC20Permit.sol\":3132:3165   */\n      eq\n        /* \"@thirdweb-dev/contracts/external-deps/openzeppelin/token/ERC20/extensions/ERC20Permit.sol\":3099:3165   */\n    tag_196:\n        /* \"@thirdweb-dev/contracts/external-deps/openzeppelin/token/ERC20/extensions/ERC20Permit.sol\":3095:3284   */\n      iszero\n      tag_197\n      jumpi\n      pop\n        /* \"@thirdweb-dev/contracts/external-deps/openzeppelin/token/ERC20/extensions/ERC20Permit.sol\":3188:3212   */\n      immutable(\"0xaf13ca25efdbd9254ba3f4d4ad1a6c14aebb10c9ef64543eb4806b8d62a2c06d\")\n      swap1\n        /* \"@thirdweb-dev/contracts/external-deps/openzeppelin/token/ERC20/extensions/ERC20Permit.sol\":3018:3290   */\n      jump\t// out\n        /* \"@thirdweb-dev/contracts/external-deps/openzeppelin/token/ERC20/extensions/ERC20Permit.sol\":3095:3284   */\n    tag_197:\n        /* \"@thirdweb-dev/contracts/external-deps/openzeppelin/token/ERC20/extensions/ERC20Permit.sol\":3250:3273   */\n      tag_199\n        /* \"@thirdweb-dev/contracts/external-deps/openzeppelin/token/ERC20/extensions/ERC20Permit.sol\":3250:3271   */\n      tag_200\n        /* \"@thirdweb-dev/contracts/external-deps/openzeppelin/token/ERC20/extensions/ERC20Permit.sol\":3250:3273   */\n      jump\t// in\n    tag_199:\n        /* \"@thirdweb-dev/contracts/external-deps/openzeppelin/token/ERC20/extensions/ERC20Permit.sol\":3243:3273   */\n      swap1\n      pop\n        /* \"@thirdweb-dev/contracts/external-deps/openzeppelin/token/ERC20/extensions/ERC20Permit.sol\":3018:3290   */\n      swap1\n      jump\t// out\n        /* \"@thirdweb-dev/contracts/external-deps/openzeppelin/token/ERC20/ERC20.sol\":5880:6116   */\n    tag_79:\n        /* \"@thirdweb-dev/contracts/base/ERC20Base.sol\":4478:4488   */\n      caller\n        /* \"@thirdweb-dev/contracts/external-deps/openzeppelin/token/ERC20/ERC20.sol\":5968:5972   */\n      0x00\n        /* \"@thirdweb-dev/contracts/external-deps/openzeppelin/token/ERC20/ERC20.sol\":6047:6065   */\n      dup2\n      dup2\n      mstore\n        /* \"@thirdweb-dev/contracts/external-deps/openzeppelin/token/ERC20/ERC20.sol\":6047:6058   */\n      0x03\n        /* \"@thirdweb-dev/contracts/external-deps/openzeppelin/token/ERC20/ERC20.sol\":6047:6065   */\n      0x20\n      swap1\n      dup2\n      mstore\n      0x40\n      dup1\n      dup4\n      keccak256\n      sub(shl(0xa0, 0x01), 0x01)\n        /* \"@thirdweb-dev/contracts/external-deps/openzeppelin/token/ERC20/ERC20.sol\":6047:6074   */\n      dup8\n      and\n      dup5\n      mstore\n      swap1\n      swap2\n      mstore\n      dup2\n      keccak256\n      sload\n        /* \"@thirdweb-dev/contracts/external-deps/openzeppelin/token/ERC20/ERC20.sol\":5968:5972   */\n      swap1\n      swap2\n        /* \"@thirdweb-dev/contracts/base/ERC20Base.sol\":4478:4488   */\n      swap1\n        /* \"@thirdweb-dev/contracts/external-deps/openzeppelin/token/ERC20/ERC20.sol\":6022:6088   */\n      tag_168\n      swap1\n        /* \"@thirdweb-dev/contracts/base/ERC20Base.sol\":4478:4488   */\n      dup3\n      swap1\n        /* \"@thirdweb-dev/contracts/external-deps/openzeppelin/token/ERC20/ERC20.sol\":6047:6074   */\n      dup7\n      swap1\n        /* \"@thirdweb-dev/contracts/external-deps/openzeppelin/token/ERC20/ERC20.sol\":6047:6087   */\n      tag_204\n      swap1\n        /* \"@thirdweb-dev/contracts/external-deps/openzeppelin/token/ERC20/ERC20.sol\":6077:6087   */\n      dup8\n      swap1\n        /* \"@thirdweb-dev/contracts/external-deps/openzeppelin/token/ERC20/ERC20.sol\":6047:6087   */\n      tag_205\n      jump\t// in\n    tag_204:\n        /* \"@thirdweb-dev/contracts/external-deps/openzeppelin/token/ERC20/ERC20.sol\":6022:6030   */\n      tag_169\n        /* \"@thirdweb-dev/contracts/external-deps/openzeppelin/token/ERC20/ERC20.sol\":6022:6088   */\n      jump\t// in\n        /* \"mojo.sol\":2682:2819  function burn(uint256 amount) external override {... */\n    tag_84:\n        /* \"mojo.sol\":2740:2765  _burn(msg.sender, amount) */\n      tag_207\n        /* \"mojo.sol\":2746:2756  msg.sender */\n      caller\n        /* \"mojo.sol\":2758:2764  amount */\n      dup3\n        /* \"mojo.sol\":2740:2745  _burn */\n      tag_208\n        /* \"mojo.sol\":2740:2765  _burn(msg.sender, amount) */\n      jump\t// in\n    tag_207:\n        /* \"mojo.sol\":2780:2812  TokensBurned(msg.sender, amount) */\n      mload(0x40)\n        /* \"#utility.yul\":1331:1356   */\n      dup2\n      dup2\n      mstore\n        /* \"mojo.sol\":2793:2803  msg.sender */\n      caller\n      swap1\n        /* \"mojo.sol\":2780:2812  TokensBurned(msg.sender, amount) */\n      0xfd38818f5291bf0bb3a2a48aadc06ba8757865d1dabd804585338aab3009dcb6\n      swap1\n        /* \"#utility.yul\":1319:1321   */\n      0x20\n        /* \"#utility.yul\":1304:1322   */\n      add\n        /* \"mojo.sol\":2780:2812  TokensBurned(msg.sender, amount) */\n      mload(0x40)\n      dup1\n      swap2\n      sub\n      swap1\n      log2\n        /* \"mojo.sol\":2682:2819  function burn(uint256 amount) external override {... */\n      pop\n      jump\t// out\n        /* \"@thirdweb-dev/contracts/base/ERC20Base.sol\":1989:2198   */\n    tag_87:\n        /* \"@thirdweb-dev/contracts/base/ERC20Base.sol\":2068:2078   */\n      tag_211\n        /* \"@thirdweb-dev/contracts/base/ERC20Base.sol\":2068:2076   */\n      tag_183\n        /* \"@thirdweb-dev/contracts/base/ERC20Base.sol\":2068:2078   */\n      jump\t// in\n    tag_211:\n        /* \"@thirdweb-dev/contracts/base/ERC20Base.sol\":2060:2106   */\n      tag_213\n      jumpi\n      mload(0x40)\n      shl(0xe5, 0x461bcd)\n      dup2\n      mstore\n        /* \"#utility.yul\":9401:9403   */\n      0x20\n        /* \"@thirdweb-dev/contracts/base/ERC20Base.sol\":2060:2106   */\n      0x04\n      dup3\n      add\n        /* \"#utility.yul\":9383:9404   */\n      mstore\n        /* \"#utility.yul\":9440:9442   */\n      0x17\n        /* \"#utility.yul\":9420:9438   */\n      0x24\n      dup3\n      add\n        /* \"#utility.yul\":9413:9443   */\n      mstore\n        /* \"#utility.yul\":9479:9504   */\n      0x4e6f7420617574686f72697a656420746f206d696e742e000000000000000000\n        /* \"#utility.yul\":9459:9477   */\n      0x44\n      dup3\n      add\n        /* \"#utility.yul\":9452:9505   */\n      mstore\n        /* \"#utility.yul\":9522:9540   */\n      0x64\n      add\n        /* \"@thirdweb-dev/contracts/base/ERC20Base.sol\":2060:2106   */\n      tag_172\n        /* \"#utility.yul\":9199:9546   */\n      jump\n        /* \"@thirdweb-dev/contracts/base/ERC20Base.sol\":2060:2106   */\n    tag_213:\n        /* \"@thirdweb-dev/contracts/base/ERC20Base.sol\":2124:2131   */\n      dup1\n        /* \"@thirdweb-dev/contracts/base/ERC20Base.sol\":2135:2136   */\n      0x00\n        /* \"@thirdweb-dev/contracts/base/ERC20Base.sol\":2124:2136   */\n      sub\n        /* \"@thirdweb-dev/contracts/base/ERC20Base.sol\":2116:2161   */\n      tag_216\n      jumpi\n      mload(0x40)\n      shl(0xe5, 0x461bcd)\n      dup2\n      mstore\n        /* \"#utility.yul\":9753:9755   */\n      0x20\n        /* \"@thirdweb-dev/contracts/base/ERC20Base.sol\":2116:2161   */\n      0x04\n      dup3\n      add\n        /* \"#utility.yul\":9735:9756   */\n      mstore\n        /* \"#utility.yul\":9792:9794   */\n      0x14\n        /* \"#utility.yul\":9772:9790   */\n      0x24\n      dup3\n      add\n        /* \"#utility.yul\":9765:9795   */\n      mstore\n        /* \"#utility.yul\":9831:9853   */\n      0x4d696e74696e67207a65726f20746f6b656e732e000000000000000000000000\n        /* \"#utility.yul\":9811:9829   */\n      0x44\n      dup3\n      add\n        /* \"#utility.yul\":9804:9854   */\n      mstore\n        /* \"#utility.yul\":9871:9889   */\n      0x64\n      add\n        /* \"@thirdweb-dev/contracts/base/ERC20Base.sol\":2116:2161   */\n      tag_172\n        /* \"#utility.yul\":9551:9895   */\n      jump\n        /* \"@thirdweb-dev/contracts/base/ERC20Base.sol\":2116:2161   */\n    tag_216:\n        /* \"@thirdweb-dev/contracts/base/ERC20Base.sol\":2172:2191   */\n      tag_219\n        /* \"@thirdweb-dev/contracts/base/ERC20Base.sol\":2178:2181   */\n      dup3\n        /* \"@thirdweb-dev/contracts/base/ERC20Base.sol\":2183:2190   */\n      dup3\n        /* \"@thirdweb-dev/contracts/base/ERC20Base.sol\":2172:2177   */\n      tag_178\n        /* \"@thirdweb-dev/contracts/base/ERC20Base.sol\":2172:2191   */\n      jump\t// in\n    tag_219:\n        /* \"@thirdweb-dev/contracts/base/ERC20Base.sol\":1989:2198   */\n      pop\n      pop\n      jump\t// out\n        /* \"mojo.sol\":669:731  mapping(bytes32 => Contribution[]) public projectContributions */\n    tag_95:\n      mstore(0x20, 0x0a)\n      dup2\n      0x00\n      mstore\n      keccak256(0x00, 0x40)\n      dup2\n      dup2\n      sload\n      dup2\n      lt\n      tag_221\n      jumpi\n      0x00\n      dup1\n      revert\n    tag_221:\n      0x00\n      swap2\n      dup3\n      mstore\n      0x20\n      swap1\n      swap2\n      keccak256\n      0x03\n      swap1\n      swap2\n      mul\n      add\n      dup1\n      sload\n      0x01\n      dup3\n      add\n      sload\n      0x02\n      swap1\n      swap3\n      add\n      sload\n      sub(shl(0xa0, 0x01), 0x01)\n      dup3\n      and\n      swap5\n      pop\n      shl(0xa0, 0x01)\n      swap1\n      swap2\n      div\n      0xff\n      and\n      swap3\n      pop\n      dup5\n      jump\t// out\n        /* \"@thirdweb-dev/contracts/base/ERC20Base.sol\":2882:3312   */\n    tag_103:\n        /* \"@thirdweb-dev/contracts/base/ERC20Base.sol\":2979:2989   */\n      tag_224\n        /* \"@thirdweb-dev/contracts/base/ERC20Base.sol\":2979:2987   */\n      tag_183\n        /* \"@thirdweb-dev/contracts/base/ERC20Base.sol\":2979:2989   */\n      jump\t// in\n    tag_224:\n        /* \"@thirdweb-dev/contracts/base/ERC20Base.sol\":2971:3017   */\n      tag_226\n      jumpi\n      mload(0x40)\n      shl(0xe5, 0x461bcd)\n      dup2\n      mstore\n        /* \"#utility.yul\":10102:10104   */\n      0x20\n        /* \"@thirdweb-dev/contracts/base/ERC20Base.sol\":2971:3017   */\n      0x04\n      dup3\n      add\n        /* \"#utility.yul\":10084:10105   */\n      mstore\n        /* \"#utility.yul\":10141:10143   */\n      0x17\n        /* \"#utility.yul\":10121:10139   */\n      0x24\n      dup3\n      add\n        /* \"#utility.yul\":10114:10144   */\n      mstore\n        /* \"#utility.yul\":10180:10205   */\n      0x4e6f7420617574686f72697a656420746f206275726e2e000000000000000000\n        /* \"#utility.yul\":10160:10178   */\n      0x44\n      dup3\n      add\n        /* \"#utility.yul\":10153:10206   */\n      mstore\n        /* \"#utility.yul\":10223:10241   */\n      0x64\n      add\n        /* \"@thirdweb-dev/contracts/base/ERC20Base.sol\":2971:3017   */\n      tag_172\n        /* \"#utility.yul\":9900:10247   */\n      jump\n        /* \"@thirdweb-dev/contracts/base/ERC20Base.sol\":2971:3017   */\n    tag_226:\n        /* \"@thirdweb-dev/contracts/base/ERC20Base.sol\":3058:3065   */\n      dup1\n        /* \"@thirdweb-dev/contracts/base/ERC20Base.sol\":3035:3054   */\n      tag_229\n        /* \"@thirdweb-dev/contracts/base/ERC20Base.sol\":3045:3053   */\n      dup4\n      sub(shl(0xa0, 0x01), 0x01)\n        /* \"@thirdweb-dev/contracts/external-deps/openzeppelin/token/ERC20/ERC20.sol\":3545:3563   */\n      and\n        /* \"@thirdweb-dev/contracts/external-deps/openzeppelin/token/ERC20/ERC20.sol\":3519:3526   */\n      0x00\n        /* \"@thirdweb-dev/contracts/external-deps/openzeppelin/token/ERC20/ERC20.sol\":3545:3563   */\n      swap1\n      dup2\n      mstore\n        /* \"@thirdweb-dev/contracts/external-deps/openzeppelin/token/ERC20/ERC20.sol\":3545:3554   */\n      0x02\n        /* \"@thirdweb-dev/contracts/external-deps/openzeppelin/token/ERC20/ERC20.sol\":3545:3563   */\n      0x20\n      mstore\n      0x40\n      swap1\n      keccak256\n      sload\n      swap1\n        /* \"@thirdweb-dev/contracts/external-deps/openzeppelin/token/ERC20/ERC20.sol\":3445:3570   */\n      jump\n        /* \"@thirdweb-dev/contracts/base/ERC20Base.sol\":3035:3054   */\n    tag_229:\n        /* \"@thirdweb-dev/contracts/base/ERC20Base.sol\":3035:3065   */\n      lt\n      iszero\n        /* \"@thirdweb-dev/contracts/base/ERC20Base.sol\":3027:3088   */\n      tag_230\n      jumpi\n      mload(0x40)\n      shl(0xe5, 0x461bcd)\n      dup2\n      mstore\n        /* \"#utility.yul\":10454:10456   */\n      0x20\n        /* \"@thirdweb-dev/contracts/base/ERC20Base.sol\":3027:3088   */\n      0x04\n      dup3\n      add\n        /* \"#utility.yul\":10436:10457   */\n      mstore\n        /* \"#utility.yul\":10493:10495   */\n      0x12\n        /* \"#utility.yul\":10473:10491   */\n      0x24\n      dup3\n      add\n        /* \"#utility.yul\":10466:10496   */\n      mstore\n        /* \"#utility.yul\":10532:10552   */\n      0x6e6f7420656e6f7567682062616c616e63650000000000000000000000000000\n        /* \"#utility.yul\":10512:10530   */\n      0x44\n      dup3\n      add\n        /* \"#utility.yul\":10505:10553   */\n      mstore\n        /* \"#utility.yul\":10570:10588   */\n      0x64\n      add\n        /* \"@thirdweb-dev/contracts/base/ERC20Base.sol\":3027:3088   */\n      tag_172\n        /* \"#utility.yul\":10252:10594   */\n      jump\n        /* \"@thirdweb-dev/contracts/base/ERC20Base.sol\":3027:3088   */\n    tag_230:\n      sub(shl(0xa0, 0x01), 0x01)\n        /* \"@thirdweb-dev/contracts/external-deps/openzeppelin/token/ERC20/ERC20.sol\":4128:4146   */\n      dup3\n      and\n        /* \"@thirdweb-dev/contracts/base/ERC20Base.sol\":3098:3124   */\n      0x00\n        /* \"@thirdweb-dev/contracts/external-deps/openzeppelin/token/ERC20/ERC20.sol\":4128:4146   */\n      swap1\n      dup2\n      mstore\n        /* \"@thirdweb-dev/contracts/external-deps/openzeppelin/token/ERC20/ERC20.sol\":4128:4139   */\n      0x03\n        /* \"@thirdweb-dev/contracts/external-deps/openzeppelin/token/ERC20/ERC20.sol\":4128:4146   */\n      0x20\n      swap1\n      dup2\n      mstore\n      0x40\n      dup1\n      dup4\n      keccak256\n        /* \"@thirdweb-dev/contracts/base/ERC20Base.sol\":3147:3157   */\n      caller\n        /* \"@thirdweb-dev/contracts/external-deps/openzeppelin/token/ERC20/ERC20.sol\":4128:4155   */\n      dup5\n      mstore\n      swap1\n      swap2\n      mstore\n      dup2\n      keccak256\n      sload\n        /* \"@thirdweb-dev/contracts/base/ERC20Base.sol\":3127:3168   */\n      tag_234\n      swap1\n        /* \"@thirdweb-dev/contracts/base/ERC20Base.sol\":3161:3168   */\n      dup4\n      swap1\n        /* \"@thirdweb-dev/contracts/base/ERC20Base.sol\":3127:3168   */\n      tag_235\n      jump\t// in\n    tag_234:\n        /* \"@thirdweb-dev/contracts/base/ERC20Base.sol\":3098:3168   */\n      swap1\n      pop\n        /* \"@thirdweb-dev/contracts/base/ERC20Base.sol\":3178:3211   */\n      tag_236\n        /* \"@thirdweb-dev/contracts/base/ERC20Base.sol\":3187:3195   */\n      dup4\n        /* \"@thirdweb-dev/contracts/base/ERC20Base.sol\":3197:3207   */\n      caller\n        /* \"@thirdweb-dev/contracts/base/ERC20Base.sol\":3209:3210   */\n      0x00\n        /* \"@thirdweb-dev/contracts/base/ERC20Base.sol\":3178:3186   */\n      tag_169\n        /* \"@thirdweb-dev/contracts/base/ERC20Base.sol\":3178:3211   */\n      jump\t// in\n    tag_236:\n        /* \"@thirdweb-dev/contracts/base/ERC20Base.sol\":3221:3271   */\n      tag_237\n        /* \"@thirdweb-dev/contracts/base/ERC20Base.sol\":3230:3238   */\n      dup4\n        /* \"@thirdweb-dev/contracts/base/ERC20Base.sol\":3240:3250   */\n      caller\n        /* \"@thirdweb-dev/contracts/base/ERC20Base.sol\":3252:3270   */\n      dup4\n        /* \"@thirdweb-dev/contracts/base/ERC20Base.sol\":3221:3229   */\n      tag_169\n        /* \"@thirdweb-dev/contracts/base/ERC20Base.sol\":3221:3271   */\n      jump\t// in\n    tag_237:\n        /* \"@thirdweb-dev/contracts/base/ERC20Base.sol\":3281:3305   */\n      tag_238\n        /* \"@thirdweb-dev/contracts/base/ERC20Base.sol\":3287:3295   */\n      dup4\n        /* \"@thirdweb-dev/contracts/base/ERC20Base.sol\":3297:3304   */\n      dup4\n        /* \"@thirdweb-dev/contracts/base/ERC20Base.sol\":3281:3286   */\n      tag_208\n        /* \"@thirdweb-dev/contracts/base/ERC20Base.sol\":3281:3305   */\n      jump\t// in\n    tag_238:\n        /* \"@thirdweb-dev/contracts/base/ERC20Base.sol\":2961:3312   */\n      pop\n        /* \"@thirdweb-dev/contracts/base/ERC20Base.sol\":2882:3312   */\n      pop\n      pop\n      jump\t// out\n        /* \"@thirdweb-dev/contracts/external-deps/openzeppelin/token/ERC20/extensions/ERC20Permit.sol\":2768:2894   */\n    tag_106:\n      sub(shl(0xa0, 0x01), 0x01)\n        /* \"@thirdweb-dev/contracts/external-deps/openzeppelin/token/ERC20/extensions/ERC20Permit.sol\":2863:2877   */\n      dup2\n      and\n        /* \"@thirdweb-dev/contracts/external-deps/openzeppelin/token/ERC20/extensions/ERC20Permit.sol\":2837:2844   */\n      0x00\n        /* \"@thirdweb-dev/contracts/external-deps/openzeppelin/token/ERC20/extensions/ERC20Permit.sol\":2863:2877   */\n      swap1\n      dup2\n      mstore\n        /* \"@thirdweb-dev/contracts/external-deps/openzeppelin/token/ERC20/extensions/ERC20Permit.sol\":2863:2870   */\n      0x07\n        /* \"@thirdweb-dev/contracts/external-deps/openzeppelin/token/ERC20/extensions/ERC20Permit.sol\":2863:2877   */\n      0x20\n      mstore\n      0x40\n      dup2\n      keccak256\n        /* \"@thirdweb-dev/contracts/external-deps/openzeppelin/utils/Counters.sol\":918:932   */\n      sload\n        /* \"@thirdweb-dev/contracts/external-deps/openzeppelin/token/ERC20/extensions/ERC20Permit.sol\":2863:2887   */\n      tag_165\n        /* \"@thirdweb-dev/contracts/external-deps/openzeppelin/utils/Counters.sol\":827:939   */\n      jump\n        /* \"@thirdweb-dev/contracts/extension/ContractMetadata.sol\":1110:1311   */\n    tag_118:\n        /* \"@thirdweb-dev/contracts/extension/ContractMetadata.sol\":1187:1207   */\n      tag_244\n        /* \"@thirdweb-dev/contracts/extension/ContractMetadata.sol\":1187:1205   */\n      tag_183\n        /* \"@thirdweb-dev/contracts/extension/ContractMetadata.sol\":1187:1207   */\n      jump\t// in\n    tag_244:\n        /* \"@thirdweb-dev/contracts/extension/ContractMetadata.sol\":1182:1271   */\n      tag_246\n      jumpi\n        /* \"@thirdweb-dev/contracts/extension/ContractMetadata.sol\":1230:1260   */\n      mload(0x40)\n      shl(0xe0, 0x9f7f0925)\n      dup2\n      mstore\n      0x04\n      add\n      mload(0x40)\n      dup1\n      swap2\n      sub\n      swap1\n      revert\n        /* \"@thirdweb-dev/contracts/extension/ContractMetadata.sol\":1182:1271   */\n    tag_246:\n        /* \"@thirdweb-dev/contracts/extension/ContractMetadata.sol\":1281:1304   */\n      tag_185\n        /* \"@thirdweb-dev/contracts/extension/ContractMetadata.sol\":1299:1303   */\n      dup2\n        /* \"@thirdweb-dev/contracts/extension/ContractMetadata.sol\":1281:1298   */\n      tag_248\n        /* \"@thirdweb-dev/contracts/extension/ContractMetadata.sol\":1281:1304   */\n      jump\t// in\n        /* \"@thirdweb-dev/contracts/external-deps/openzeppelin/token/ERC20/ERC20.sol\":2404:2506   */\n    tag_120:\n        /* \"@thirdweb-dev/contracts/external-deps/openzeppelin/token/ERC20/ERC20.sol\":2460:2473   */\n      0x60\n        /* \"@thirdweb-dev/contracts/external-deps/openzeppelin/token/ERC20/ERC20.sol\":2492:2499   */\n      0x06\n        /* \"@thirdweb-dev/contracts/external-deps/openzeppelin/token/ERC20/ERC20.sol\":2485:2499   */\n      dup1\n      sload\n      tag_159\n      swap1\n      tag_160\n      jump\t// in\n        /* \"@thirdweb-dev/contracts/external-deps/openzeppelin/token/ERC20/ERC20.sol\":6603:7032   */\n    tag_124:\n        /* \"@thirdweb-dev/contracts/base/ERC20Base.sol\":4478:4488   */\n      caller\n        /* \"@thirdweb-dev/contracts/external-deps/openzeppelin/token/ERC20/ERC20.sol\":6696:6700   */\n      0x00\n        /* \"@thirdweb-dev/contracts/external-deps/openzeppelin/token/ERC20/ERC20.sol\":6777:6795   */\n      dup2\n      dup2\n      mstore\n        /* \"@thirdweb-dev/contracts/external-deps/openzeppelin/token/ERC20/ERC20.sol\":6777:6788   */\n      0x03\n        /* \"@thirdweb-dev/contracts/external-deps/openzeppelin/token/ERC20/ERC20.sol\":6777:6795   */\n      0x20\n      swap1\n      dup2\n      mstore\n      0x40\n      dup1\n      dup4\n      keccak256\n      sub(shl(0xa0, 0x01), 0x01)\n        /* \"@thirdweb-dev/contracts/external-deps/openzeppelin/token/ERC20/ERC20.sol\":6777:6804   */\n      dup8\n      and\n      dup5\n      mstore\n      swap1\n      swap2\n      mstore\n      dup2\n      keccak256\n      sload\n        /* \"@thirdweb-dev/contracts/external-deps/openzeppelin/token/ERC20/ERC20.sol\":6696:6700   */\n      swap1\n      swap2\n        /* \"@thirdweb-dev/contracts/base/ERC20Base.sol\":4478:4488   */\n      swap1\n        /* \"@thirdweb-dev/contracts/external-deps/openzeppelin/token/ERC20/ERC20.sol\":6822:6857   */\n      dup4\n      dup2\n      lt\n      iszero\n        /* \"@thirdweb-dev/contracts/external-deps/openzeppelin/token/ERC20/ERC20.sol\":6814:6899   */\n      tag_257\n      jumpi\n      mload(0x40)\n      shl(0xe5, 0x461bcd)\n      dup2\n      mstore\n        /* \"#utility.yul\":10934:10936   */\n      0x20\n        /* \"@thirdweb-dev/contracts/external-deps/openzeppelin/token/ERC20/ERC20.sol\":6814:6899   */\n      0x04\n      dup3\n      add\n        /* \"#utility.yul\":10916:10937   */\n      mstore\n        /* \"#utility.yul\":10973:10975   */\n      0x25\n        /* \"#utility.yul\":10953:10971   */\n      0x24\n      dup3\n      add\n        /* \"#utility.yul\":10946:10976   */\n      mstore\n        /* \"#utility.yul\":11012:11046   */\n      0x45524332303a2064656372656173656420616c6c6f77616e63652062656c6f77\n        /* \"#utility.yul\":10992:11010   */\n      0x44\n      dup3\n      add\n        /* \"#utility.yul\":10985:11047   */\n      mstore\n        /* \"#utility.yul\":11083:11090   */\n      0x207a65726f000000000000000000000000000000000000000000000000000000\n        /* \"#utility.yul\":11063:11081   */\n      0x64\n      dup3\n      add\n        /* \"#utility.yul\":11056:11091   */\n      mstore\n        /* \"#utility.yul\":11108:11127   */\n      0x84\n      add\n        /* \"@thirdweb-dev/contracts/external-deps/openzeppelin/token/ERC20/ERC20.sol\":6814:6899   */\n      tag_172\n        /* \"#utility.yul\":10732:11133   */\n      jump\n        /* \"@thirdweb-dev/contracts/external-deps/openzeppelin/token/ERC20/ERC20.sol\":6814:6899   */\n    tag_257:\n        /* \"@thirdweb-dev/contracts/external-deps/openzeppelin/token/ERC20/ERC20.sol\":6933:6993   */\n      tag_192\n        /* \"@thirdweb-dev/contracts/external-deps/openzeppelin/token/ERC20/ERC20.sol\":6942:6947   */\n      dup3\n        /* \"@thirdweb-dev/contracts/external-deps/openzeppelin/token/ERC20/ERC20.sol\":6949:6956   */\n      dup7\n        /* \"@thirdweb-dev/contracts/external-deps/openzeppelin/token/ERC20/ERC20.sol\":6977:6992   */\n      dup7\n        /* \"@thirdweb-dev/contracts/external-deps/openzeppelin/token/ERC20/ERC20.sol\":6958:6974   */\n      dup5\n        /* \"@thirdweb-dev/contracts/external-deps/openzeppelin/token/ERC20/ERC20.sol\":6958:6992   */\n      sub\n        /* \"@thirdweb-dev/contracts/external-deps/openzeppelin/token/ERC20/ERC20.sol\":6933:6941   */\n      tag_169\n        /* \"@thirdweb-dev/contracts/external-deps/openzeppelin/token/ERC20/ERC20.sol\":6933:6993   */\n      jump\t// in\n        /* \"@thirdweb-dev/contracts/external-deps/openzeppelin/token/ERC20/ERC20.sol\":3766:3955   */\n    tag_128:\n        /* \"@thirdweb-dev/contracts/external-deps/openzeppelin/token/ERC20/ERC20.sol\":3845:3849   */\n      0x00\n        /* \"@thirdweb-dev/contracts/base/ERC20Base.sol\":4478:4488   */\n      caller\n        /* \"@thirdweb-dev/contracts/external-deps/openzeppelin/token/ERC20/ERC20.sol\":3899:3927   */\n      tag_168\n        /* \"@thirdweb-dev/contracts/base/ERC20Base.sol\":4478:4488   */\n      dup2\n        /* \"@thirdweb-dev/contracts/external-deps/openzeppelin/token/ERC20/ERC20.sol\":3916:3918   */\n      dup6\n        /* \"@thirdweb-dev/contracts/external-deps/openzeppelin/token/ERC20/ERC20.sol\":3920:3926   */\n      dup6\n        /* \"@thirdweb-dev/contracts/external-deps/openzeppelin/token/ERC20/ERC20.sol\":3899:3908   */\n      tag_193\n        /* \"@thirdweb-dev/contracts/external-deps/openzeppelin/token/ERC20/ERC20.sol\":3899:3927   */\n      jump\t// in\n        /* \"@thirdweb-dev/contracts/extension/Multicall.sol\":696:1263   */\n    tag_133:\n        /* \"@thirdweb-dev/contracts/extension/Multicall.sol\":756:778   */\n      0x60\n        /* \"@thirdweb-dev/contracts/extension/Multicall.sol\":812:816   */\n      dup2\n        /* \"@thirdweb-dev/contracts/extension/Multicall.sol\":800:824   */\n      0xffffffffffffffff\n      dup2\n      gt\n      iszero\n      tag_266\n      jumpi\n      tag_266\n      tag_267\n      jump\t// in\n    tag_266:\n      mload(0x40)\n      swap1\n      dup1\n      dup3\n      mstore\n      dup1\n      0x20\n      mul\n      0x20\n      add\n      dup3\n      add\n      0x40\n      mstore\n      dup1\n      iszero\n      tag_268\n      jumpi\n      dup2\n      0x20\n      add\n    tag_269:\n      0x60\n      dup2\n      mstore\n      0x20\n      add\n      swap1\n      0x01\n      swap1\n      sub\n      swap1\n      dup2\n      tag_269\n      jumpi\n      swap1\n      pop\n    tag_268:\n      pop\n        /* \"@thirdweb-dev/contracts/extension/Multicall.sol\":790:824   */\n      swap1\n      pop\n        /* \"@thirdweb-dev/contracts/base/ERC20Base.sol\":4478:4488   */\n      caller\n        /* \"@thirdweb-dev/contracts/extension/Multicall.sol\":834:848   */\n      0x00\n      dup1\n        /* \"@thirdweb-dev/contracts/extension/Multicall.sol\":922:1233   */\n    tag_271:\n        /* \"@thirdweb-dev/contracts/extension/Multicall.sol\":942:957   */\n      dup5\n      dup2\n      lt\n        /* \"@thirdweb-dev/contracts/extension/Multicall.sol\":922:1233   */\n      iszero\n      tag_272\n      jumpi\n        /* \"@thirdweb-dev/contracts/extension/Multicall.sol\":982:993   */\n      dup2\n        /* \"@thirdweb-dev/contracts/extension/Multicall.sol\":978:1223   */\n      iszero\n      tag_274\n      jumpi\n        /* \"@thirdweb-dev/contracts/extension/Multicall.sol\":1026:1104   */\n      tag_275\n        /* \"@thirdweb-dev/contracts/extension/Multicall.sol\":1063:1067   */\n      address\n        /* \"@thirdweb-dev/contracts/extension/Multicall.sol\":1087:1091   */\n      dup8\n      dup8\n        /* \"@thirdweb-dev/contracts/extension/Multicall.sol\":1092:1093   */\n      dup5\n        /* \"@thirdweb-dev/contracts/extension/Multicall.sol\":1087:1094   */\n      dup2\n      dup2\n      lt\n      tag_277\n      jumpi\n      tag_277\n      tag_278\n      jump\t// in\n    tag_277:\n      swap1\n      pop\n      0x20\n      mul\n      dup2\n      add\n      swap1\n      tag_279\n      swap2\n      swap1\n      tag_280\n      jump\t// in\n    tag_279:\n        /* \"@thirdweb-dev/contracts/extension/Multicall.sol\":1096:1102   */\n      dup7\n        /* \"@thirdweb-dev/contracts/extension/Multicall.sol\":1070:1103   */\n      add(0x20, mload(0x40))\n      tag_281\n      swap4\n      swap3\n      swap2\n      swap1\n      tag_282\n      jump\t// in\n    tag_281:\n      mload(0x40)\n      0x20\n      dup2\n      dup4\n      sub\n      sub\n      dup2\n      mstore\n      swap1\n      0x40\n      mstore\n        /* \"@thirdweb-dev/contracts/extension/Multicall.sol\":1026:1054   */\n      tag_283\n        /* \"@thirdweb-dev/contracts/extension/Multicall.sol\":1026:1104   */\n      jump\t// in\n    tag_275:\n        /* \"@thirdweb-dev/contracts/extension/Multicall.sol\":1013:1020   */\n      dup5\n        /* \"@thirdweb-dev/contracts/extension/Multicall.sol\":1021:1022   */\n      dup3\n        /* \"@thirdweb-dev/contracts/extension/Multicall.sol\":1013:1023   */\n      dup2\n      mload\n      dup2\n      lt\n      tag_285\n      jumpi\n      tag_285\n      tag_278\n      jump\t// in\n    tag_285:\n      0x20\n      mul\n      0x20\n      add\n      add\n        /* \"@thirdweb-dev/contracts/extension/Multicall.sol\":1013:1104   */\n      dup2\n      swap1\n      mstore\n      pop\n        /* \"@thirdweb-dev/contracts/extension/Multicall.sol\":978:1223   */\n      jump(tag_286)\n    tag_274:\n        /* \"@thirdweb-dev/contracts/extension/Multicall.sol\":1156:1208   */\n      tag_287\n        /* \"@thirdweb-dev/contracts/extension/Multicall.sol\":1193:1197   */\n      address\n        /* \"@thirdweb-dev/contracts/extension/Multicall.sol\":1200:1204   */\n      dup8\n      dup8\n        /* \"@thirdweb-dev/contracts/extension/Multicall.sol\":1205:1206   */\n      dup5\n        /* \"@thirdweb-dev/contracts/extension/Multicall.sol\":1200:1207   */\n      dup2\n      dup2\n      lt\n      tag_289\n      jumpi\n      tag_289\n      tag_278\n      jump\t// in\n    tag_289:\n      swap1\n      pop\n      0x20\n      mul\n      dup2\n      add\n      swap1\n      tag_290\n      swap2\n      swap1\n      tag_280\n      jump\t// in\n    tag_290:\n        /* \"@thirdweb-dev/contracts/extension/Multicall.sol\":1156:1208   */\n      dup1\n      dup1\n      0x1f\n      add\n      0x20\n      dup1\n      swap2\n      div\n      mul\n      0x20\n      add\n      mload(0x40)\n      swap1\n      dup2\n      add\n      0x40\n      mstore\n      dup1\n      swap4\n      swap3\n      swap2\n      swap1\n      dup2\n      dup2\n      mstore\n      0x20\n      add\n      dup4\n      dup4\n      dup1\n      dup3\n      dup5\n      calldatacopy\n      0x00\n      swap3\n      add\n      swap2\n      swap1\n      swap2\n      mstore\n      pop\n        /* \"@thirdweb-dev/contracts/extension/Multicall.sol\":1156:1184   */\n      tag_283\n      swap3\n      pop\n      pop\n      pop\n        /* \"@thirdweb-dev/contracts/extension/Multicall.sol\":1156:1208   */\n      jump\t// in\n    tag_287:\n        /* \"@thirdweb-dev/contracts/extension/Multicall.sol\":1143:1150   */\n      dup5\n        /* \"@thirdweb-dev/contracts/extension/Multicall.sol\":1151:1152   */\n      dup3\n        /* \"@thirdweb-dev/contracts/extension/Multicall.sol\":1143:1153   */\n      dup2\n      mload\n      dup2\n      lt\n      tag_292\n      jumpi\n      tag_292\n      tag_278\n      jump\t// in\n    tag_292:\n      0x20\n      mul\n      0x20\n      add\n      add\n        /* \"@thirdweb-dev/contracts/extension/Multicall.sol\":1143:1208   */\n      dup2\n      swap1\n      mstore\n      pop\n        /* \"@thirdweb-dev/contracts/extension/Multicall.sol\":978:1223   */\n    tag_286:\n        /* \"@thirdweb-dev/contracts/extension/Multicall.sol\":959:962   */\n      0x01\n      add\n        /* \"@thirdweb-dev/contracts/extension/Multicall.sol\":922:1233   */\n      jump(tag_271)\n    tag_272:\n      pop\n        /* \"@thirdweb-dev/contracts/extension/Multicall.sol\":1242:1256   */\n      pop\n      pop\n        /* \"@thirdweb-dev/contracts/extension/Multicall.sol\":696:1263   */\n      swap3\n      swap2\n      pop\n      pop\n      jump\t// out\n        /* \"mojo.sol\":3119:3257  function setSwapRatio(uint256 _ratio) external onlyOwner {... */\n    tag_138:\n        /* \"@thirdweb-dev/contracts/extension/Ownable.sol\":822:828   */\n      and(sub(shl(0xa0, 0x01), 0x01), sload(0x01))\n        /* \"@thirdweb-dev/contracts/extension/Ownable.sol\":808:818   */\n      caller\n        /* \"@thirdweb-dev/contracts/extension/Ownable.sol\":808:828   */\n      eq\n        /* \"@thirdweb-dev/contracts/extension/Ownable.sol\":804:883   */\n      tag_294\n      jumpi\n        /* \"@thirdweb-dev/contracts/extension/Ownable.sol\":851:872   */\n      mload(0x40)\n      shl(0xe1, 0x16ccb9cb)\n      dup2\n      mstore\n      0x04\n      add\n      mload(0x40)\n      dup1\n      swap2\n      sub\n      swap1\n      revert\n        /* \"@thirdweb-dev/contracts/extension/Ownable.sol\":804:883   */\n    tag_294:\n        /* \"mojo.sol\":3203:3204  0 */\n      0x00\n        /* \"mojo.sol\":3194:3200  _ratio */\n      dup2\n        /* \"mojo.sol\":3194:3204  _ratio > 0 */\n      gt\n        /* \"mojo.sol\":3186:3222  require(_ratio > 0, \"Invalid ratio\") */\n      tag_296\n      jumpi\n      mload(0x40)\n      shl(0xe5, 0x461bcd)\n      dup2\n      mstore\n        /* \"#utility.yul\":12363:12365   */\n      0x20\n        /* \"mojo.sol\":3186:3222  require(_ratio > 0, \"Invalid ratio\") */\n      0x04\n      dup3\n      add\n        /* \"#utility.yul\":12345:12366   */\n      mstore\n        /* \"#utility.yul\":12402:12404   */\n      0x0d\n        /* \"#utility.yul\":12382:12400   */\n      0x24\n      dup3\n      add\n        /* \"#utility.yul\":12375:12405   */\n      mstore\n        /* \"#utility.yul\":12441:12456   */\n      0x496e76616c696420726174696f00000000000000000000000000000000000000\n        /* \"#utility.yul\":12421:12439   */\n      0x44\n      dup3\n      add\n        /* \"#utility.yul\":12414:12457   */\n      mstore\n        /* \"#utility.yul\":12474:12492   */\n      0x64\n      add\n        /* \"mojo.sol\":3186:3222  require(_ratio > 0, \"Invalid ratio\") */\n      tag_172\n        /* \"#utility.yul\":12161:12498   */\n      jump\n        /* \"mojo.sol\":3186:3222  require(_ratio > 0, \"Invalid ratio\") */\n    tag_296:\n        /* \"mojo.sol\":3232:3241  swapRatio */\n      0x09\n        /* \"mojo.sol\":3232:3250  swapRatio = _ratio */\n      sstore\n        /* \"mojo.sol\":3119:3257  function setSwapRatio(uint256 _ratio) external onlyOwner {... */\n      jump\t// out\n        /* \"mojo.sol\":2886:3063  function setSwapContract(address _swapContract) external onlyOwner {... */\n    tag_141:\n        /* \"@thirdweb-dev/contracts/extension/Ownable.sol\":822:828   */\n      and(sub(shl(0xa0, 0x01), 0x01), sload(0x01))\n        /* \"@thirdweb-dev/contracts/extension/Ownable.sol\":808:818   */\n      caller\n        /* \"@thirdweb-dev/contracts/extension/Ownable.sol\":808:828   */\n      eq\n        /* \"@thirdweb-dev/contracts/extension/Ownable.sol\":804:883   */\n      tag_300\n      jumpi\n        /* \"@thirdweb-dev/contracts/extension/Ownable.sol\":851:872   */\n      mload(0x40)\n      shl(0xe1, 0x16ccb9cb)\n      dup2\n      mstore\n      0x04\n      add\n      mload(0x40)\n      dup1\n      swap2\n      sub\n      swap1\n      revert\n        /* \"@thirdweb-dev/contracts/extension/Ownable.sol\":804:883   */\n    tag_300:\n      sub(shl(0xa0, 0x01), 0x01)\n        /* \"mojo.sol\":2971:2998  _swapContract != address(0) */\n      dup2\n      and\n        /* \"mojo.sol\":2963:3018  require(_swapContract != address(0), \"Invalid address\") */\n      tag_302\n      jumpi\n      mload(0x40)\n      shl(0xe5, 0x461bcd)\n      dup2\n      mstore\n        /* \"#utility.yul\":12705:12707   */\n      0x20\n        /* \"mojo.sol\":2963:3018  require(_swapContract != address(0), \"Invalid address\") */\n      0x04\n      dup3\n      add\n        /* \"#utility.yul\":12687:12708   */\n      mstore\n        /* \"#utility.yul\":12744:12746   */\n      0x0f\n        /* \"#utility.yul\":12724:12742   */\n      0x24\n      dup3\n      add\n        /* \"#utility.yul\":12717:12747   */\n      mstore\n        /* \"#utility.yul\":12783:12800   */\n      0x496e76616c696420616464726573730000000000000000000000000000000000\n        /* \"#utility.yul\":12763:12781   */\n      0x44\n      dup3\n      add\n        /* \"#utility.yul\":12756:12801   */\n      mstore\n        /* \"#utility.yul\":12818:12836   */\n      0x64\n      add\n        /* \"mojo.sol\":2963:3018  require(_swapContract != address(0), \"Invalid address\") */\n      tag_172\n        /* \"#utility.yul\":12503:12842   */\n      jump\n        /* \"mojo.sol\":2963:3018  require(_swapContract != address(0), \"Invalid address\") */\n    tag_302:\n        /* \"mojo.sol\":3028:3040  swapContract */\n      0x08\n        /* \"mojo.sol\":3028:3056  swapContract = _swapContract */\n      dup1\n      sload\n      not(0xffffffffffffffffffffffffffffffffffffffff)\n      and\n      sub(shl(0xa0, 0x01), 0x01)\n      swap3\n      swap1\n      swap3\n      and\n      swap2\n      swap1\n      swap2\n      or\n      swap1\n      sstore\n        /* \"mojo.sol\":2886:3063  function setSwapContract(address _swapContract) external onlyOwner {... */\n      jump\t// out\n        /* \"@thirdweb-dev/contracts/external-deps/openzeppelin/token/ERC20/extensions/ERC20Permit.sol\":2056:2707   */\n    tag_145:\n        /* \"@thirdweb-dev/contracts/external-deps/openzeppelin/token/ERC20/extensions/ERC20Permit.sol\":2291:2299   */\n      dup4\n        /* \"@thirdweb-dev/contracts/external-deps/openzeppelin/token/ERC20/extensions/ERC20Permit.sol\":2272:2287   */\n      timestamp\n        /* \"@thirdweb-dev/contracts/external-deps/openzeppelin/token/ERC20/extensions/ERC20Permit.sol\":2272:2299   */\n      gt\n      iszero\n        /* \"@thirdweb-dev/contracts/external-deps/openzeppelin/token/ERC20/extensions/ERC20Permit.sol\":2264:2333   */\n      tag_306\n      jumpi\n      mload(0x40)\n      shl(0xe5, 0x461bcd)\n      dup2\n      mstore\n        /* \"#utility.yul\":13049:13051   */\n      0x20\n        /* \"@thirdweb-dev/contracts/external-deps/openzeppelin/token/ERC20/extensions/ERC20Permit.sol\":2264:2333   */\n      0x04\n      dup3\n      add\n        /* \"#utility.yul\":13031:13052   */\n      mstore\n        /* \"#utility.yul\":13088:13090   */\n      0x1d\n        /* \"#utility.yul\":13068:13086   */\n      0x24\n      dup3\n      add\n        /* \"#utility.yul\":13061:13091   */\n      mstore\n        /* \"#utility.yul\":13127:13158   */\n      0x45524332305065726d69743a206578706972656420646561646c696e65000000\n        /* \"#utility.yul\":13107:13125   */\n      0x44\n      dup3\n      add\n        /* \"#utility.yul\":13100:13159   */\n      mstore\n        /* \"#utility.yul\":13176:13194   */\n      0x64\n      add\n        /* \"@thirdweb-dev/contracts/external-deps/openzeppelin/token/ERC20/extensions/ERC20Permit.sol\":2264:2333   */\n      tag_172\n        /* \"#utility.yul\":12847:13200   */\n      jump\n        /* \"@thirdweb-dev/contracts/external-deps/openzeppelin/token/ERC20/extensions/ERC20Permit.sol\":2264:2333   */\n    tag_306:\n        /* \"@thirdweb-dev/contracts/external-deps/openzeppelin/token/ERC20/extensions/ERC20Permit.sol\":2344:2362   */\n      0x00\n        /* \"@thirdweb-dev/contracts/external-deps/openzeppelin/token/ERC20/extensions/ERC20Permit.sol\":2386:2402   */\n      immutable(\"0x2ba9f8dd1e8c304051cf11ad9c333317e09a9b82f7883db7e425470ca7bf1b6b\")\n        /* \"@thirdweb-dev/contracts/external-deps/openzeppelin/token/ERC20/extensions/ERC20Permit.sol\":2404:2409   */\n      dup9\n        /* \"@thirdweb-dev/contracts/external-deps/openzeppelin/token/ERC20/extensions/ERC20Permit.sol\":2411:2418   */\n      dup9\n        /* \"@thirdweb-dev/contracts/external-deps/openzeppelin/token/ERC20/extensions/ERC20Permit.sol\":2420:2425   */\n      dup9\n        /* \"@thirdweb-dev/contracts/external-deps/openzeppelin/token/ERC20/extensions/ERC20Permit.sol\":2427:2443   */\n      tag_309\n        /* \"@thirdweb-dev/contracts/external-deps/openzeppelin/token/ERC20/extensions/ERC20Permit.sol\":2437:2442   */\n      dup13\n        /* \"@thirdweb-dev/contracts/external-deps/openzeppelin/token/ERC20/extensions/ERC20Permit.sol\":2427:2436   */\n      tag_310\n        /* \"@thirdweb-dev/contracts/external-deps/openzeppelin/token/ERC20/extensions/ERC20Permit.sol\":2427:2443   */\n      jump\t// in\n    tag_309:\n        /* \"@thirdweb-dev/contracts/external-deps/openzeppelin/token/ERC20/extensions/ERC20Permit.sol\":2375:2454   */\n      0x40\n      dup1\n      mload\n      0x20\n      dup2\n      add\n        /* \"#utility.yul\":13492:13517   */\n      swap7\n      swap1\n      swap7\n      mstore\n      sub(shl(0xa0, 0x01), 0x01)\n        /* \"#utility.yul\":13614:13629   */\n      swap5\n      dup6\n      and\n        /* \"#utility.yul\":13594:13612   */\n      swap1\n      dup7\n      add\n        /* \"#utility.yul\":13587:13630   */\n      mstore\n        /* \"#utility.yul\":13666:13681   */\n      swap3\n      swap1\n      swap2\n      and\n        /* \"#utility.yul\":13646:13664   */\n      0x60\n      dup5\n      add\n        /* \"#utility.yul\":13639:13682   */\n      mstore\n        /* \"#utility.yul\":13698:13716   */\n      0x80\n      dup4\n      add\n        /* \"#utility.yul\":13691:13725   */\n      mstore\n        /* \"#utility.yul\":13741:13760   */\n      0xa0\n      dup3\n      add\n        /* \"#utility.yul\":13734:13769   */\n      mstore\n        /* \"#utility.yul\":13785:13804   */\n      0xc0\n      dup2\n      add\n        /* \"#utility.yul\":13778:13813   */\n      dup7\n      swap1\n      mstore\n        /* \"#utility.yul\":13464:13483   */\n      0xe0\n      add\n        /* \"@thirdweb-dev/contracts/external-deps/openzeppelin/token/ERC20/extensions/ERC20Permit.sol\":2375:2454   */\n      mload(0x40)\n      0x20\n      dup2\n      dup4\n      sub\n      sub\n      dup2\n      mstore\n      swap1\n      0x40\n      mstore\n        /* \"@thirdweb-dev/contracts/external-deps/openzeppelin/token/ERC20/extensions/ERC20Permit.sol\":2365:2455   */\n      dup1\n      mload\n      swap1\n      0x20\n      add\n      keccak256\n        /* \"@thirdweb-dev/contracts/external-deps/openzeppelin/token/ERC20/extensions/ERC20Permit.sol\":2344:2455   */\n      swap1\n      pop\n        /* \"@thirdweb-dev/contracts/external-deps/openzeppelin/token/ERC20/extensions/ERC20Permit.sol\":2466:2478   */\n      0x00\n        /* \"@thirdweb-dev/contracts/external-deps/openzeppelin/token/ERC20/extensions/ERC20Permit.sol\":2481:2534   */\n      tag_313\n        /* \"@thirdweb-dev/contracts/external-deps/openzeppelin/token/ERC20/extensions/ERC20Permit.sol\":2503:2521   */\n      tag_314\n        /* \"@thirdweb-dev/contracts/external-deps/openzeppelin/token/ERC20/extensions/ERC20Permit.sol\":2503:2519   */\n      tag_74\n        /* \"@thirdweb-dev/contracts/external-deps/openzeppelin/token/ERC20/extensions/ERC20Permit.sol\":2503:2521   */\n      jump\t// in\n    tag_314:\n        /* \"@thirdweb-dev/contracts/external-deps/openzeppelin/token/ERC20/extensions/ERC20Permit.sol\":2523:2533   */\n      dup4\n        /* \"@thirdweb-dev/contracts/external-deps/openzeppelin/utils/cryptography/ECDSA.sol\":8549:8553   */\n      0x40\n        /* \"@thirdweb-dev/contracts/external-deps/openzeppelin/utils/cryptography/ECDSA.sol\":8543:8554   */\n      mload\n      shl(0xf0, 0x1901)\n        /* \"@thirdweb-dev/contracts/external-deps/openzeppelin/utils/cryptography/ECDSA.sol\":8567:8590   */\n      dup2\n      mstore\n        /* \"@thirdweb-dev/contracts/external-deps/openzeppelin/utils/cryptography/ECDSA.sol\":8619:8623   */\n      0x02\n        /* \"@thirdweb-dev/contracts/external-deps/openzeppelin/utils/cryptography/ECDSA.sol\":8610:8624   */\n      dup2\n      add\n        /* \"@thirdweb-dev/contracts/external-deps/openzeppelin/utils/cryptography/ECDSA.sol\":8603:8642   */\n      swap3\n      swap1\n      swap3\n      mstore\n        /* \"@thirdweb-dev/contracts/external-deps/openzeppelin/utils/cryptography/ECDSA.sol\":8671:8675   */\n      0x22\n        /* \"@thirdweb-dev/contracts/external-deps/openzeppelin/utils/cryptography/ECDSA.sol\":8662:8676   */\n      dup3\n      add\n        /* \"@thirdweb-dev/contracts/external-deps/openzeppelin/utils/cryptography/ECDSA.sol\":8655:8689   */\n      mstore\n        /* \"@thirdweb-dev/contracts/external-deps/openzeppelin/utils/cryptography/ECDSA.sol\":8725:8729   */\n      0x42\n        /* \"@thirdweb-dev/contracts/external-deps/openzeppelin/utils/cryptography/ECDSA.sol\":8710:8730   */\n      swap1\n      keccak256\n      swap1\n        /* \"@thirdweb-dev/contracts/external-deps/openzeppelin/utils/cryptography/ECDSA.sol\":8349:8746   */\n      jump\n        /* \"@thirdweb-dev/contracts/external-deps/openzeppelin/token/ERC20/extensions/ERC20Permit.sol\":2481:2534   */\n    tag_313:\n        /* \"@thirdweb-dev/contracts/external-deps/openzeppelin/token/ERC20/extensions/ERC20Permit.sol\":2466:2534   */\n      swap1\n      pop\n        /* \"@thirdweb-dev/contracts/external-deps/openzeppelin/token/ERC20/extensions/ERC20Permit.sol\":2545:2559   */\n      0x00\n        /* \"@thirdweb-dev/contracts/external-deps/openzeppelin/token/ERC20/extensions/ERC20Permit.sol\":2562:2590   */\n      tag_316\n        /* \"@thirdweb-dev/contracts/external-deps/openzeppelin/token/ERC20/extensions/ERC20Permit.sol\":2576:2580   */\n      dup3\n        /* \"@thirdweb-dev/contracts/external-deps/openzeppelin/token/ERC20/extensions/ERC20Permit.sol\":2582:2583   */\n      dup8\n        /* \"@thirdweb-dev/contracts/external-deps/openzeppelin/token/ERC20/extensions/ERC20Permit.sol\":2585:2586   */\n      dup8\n        /* \"@thirdweb-dev/contracts/external-deps/openzeppelin/token/ERC20/extensions/ERC20Permit.sol\":2588:2589   */\n      dup8\n        /* \"@thirdweb-dev/contracts/external-deps/openzeppelin/token/ERC20/extensions/ERC20Permit.sol\":2562:2575   */\n      tag_317\n        /* \"@thirdweb-dev/contracts/external-deps/openzeppelin/token/ERC20/extensions/ERC20Permit.sol\":2562:2590   */\n      jump\t// in\n    tag_316:\n        /* \"@thirdweb-dev/contracts/external-deps/openzeppelin/token/ERC20/extensions/ERC20Permit.sol\":2545:2590   */\n      swap1\n      pop\n        /* \"@thirdweb-dev/contracts/external-deps/openzeppelin/token/ERC20/extensions/ERC20Permit.sol\":2618:2623   */\n      dup10\n      sub(shl(0xa0, 0x01), 0x01)\n        /* \"@thirdweb-dev/contracts/external-deps/openzeppelin/token/ERC20/extensions/ERC20Permit.sol\":2608:2623   */\n      and\n        /* \"@thirdweb-dev/contracts/external-deps/openzeppelin/token/ERC20/extensions/ERC20Permit.sol\":2608:2614   */\n      dup2\n      sub(shl(0xa0, 0x01), 0x01)\n        /* \"@thirdweb-dev/contracts/external-deps/openzeppelin/token/ERC20/extensions/ERC20Permit.sol\":2608:2623   */\n      and\n      eq\n        /* \"@thirdweb-dev/contracts/external-deps/openzeppelin/token/ERC20/extensions/ERC20Permit.sol\":2600:2658   */\n      tag_318\n      jumpi\n      mload(0x40)\n      shl(0xe5, 0x461bcd)\n      dup2\n      mstore\n        /* \"#utility.yul\":14026:14028   */\n      0x20\n        /* \"@thirdweb-dev/contracts/external-deps/openzeppelin/token/ERC20/extensions/ERC20Permit.sol\":2600:2658   */\n      0x04\n      dup3\n      add\n        /* \"#utility.yul\":14008:14029   */\n      mstore\n        /* \"#utility.yul\":14065:14067   */\n      0x1e\n        /* \"#utility.yul\":14045:14063   */\n      0x24\n      dup3\n      add\n        /* \"#utility.yul\":14038:14068   */\n      mstore\n        /* \"#utility.yul\":14104:14136   */\n      0x45524332305065726d69743a20696e76616c6964207369676e61747572650000\n        /* \"#utility.yul\":14084:14102   */\n      0x44\n      dup3\n      add\n        /* \"#utility.yul\":14077:14137   */\n      mstore\n        /* \"#utility.yul\":14154:14172   */\n      0x64\n      add\n        /* \"@thirdweb-dev/contracts/external-deps/openzeppelin/token/ERC20/extensions/ERC20Permit.sol\":2600:2658   */\n      tag_172\n        /* \"#utility.yul\":13824:14178   */\n      jump\n        /* \"@thirdweb-dev/contracts/external-deps/openzeppelin/token/ERC20/extensions/ERC20Permit.sol\":2600:2658   */\n    tag_318:\n        /* \"@thirdweb-dev/contracts/external-deps/openzeppelin/token/ERC20/extensions/ERC20Permit.sol\":2669:2700   */\n      tag_321\n        /* \"@thirdweb-dev/contracts/external-deps/openzeppelin/token/ERC20/extensions/ERC20Permit.sol\":2678:2683   */\n      dup11\n        /* \"@thirdweb-dev/contracts/external-deps/openzeppelin/token/ERC20/extensions/ERC20Permit.sol\":2685:2692   */\n      dup11\n        /* \"@thirdweb-dev/contracts/external-deps/openzeppelin/token/ERC20/extensions/ERC20Permit.sol\":2694:2699   */\n      dup11\n        /* \"@thirdweb-dev/contracts/external-deps/openzeppelin/token/ERC20/extensions/ERC20Permit.sol\":2669:2677   */\n      tag_169\n        /* \"@thirdweb-dev/contracts/external-deps/openzeppelin/token/ERC20/extensions/ERC20Permit.sol\":2669:2700   */\n      jump\t// in\n    tag_321:\n        /* \"@thirdweb-dev/contracts/external-deps/openzeppelin/token/ERC20/extensions/ERC20Permit.sol\":2254:2707   */\n      pop\n      pop\n      pop\n        /* \"@thirdweb-dev/contracts/external-deps/openzeppelin/token/ERC20/extensions/ERC20Permit.sol\":2056:2707   */\n      pop\n      pop\n      pop\n      pop\n      pop\n      pop\n      pop\n      jump\t// out\n        /* \"mojo.sol\":1584:2195  function allocateContribution(... */\n    tag_149:\n        /* \"@thirdweb-dev/contracts/extension/Ownable.sol\":822:828   */\n      and(sub(shl(0xa0, 0x01), 0x01), sload(0x01))\n        /* \"@thirdweb-dev/contracts/extension/Ownable.sol\":808:818   */\n      caller\n        /* \"@thirdweb-dev/contracts/extension/Ownable.sol\":808:828   */\n      eq\n        /* \"@thirdweb-dev/contracts/extension/Ownable.sol\":804:883   */\n      tag_323\n      jumpi\n        /* \"@thirdweb-dev/contracts/extension/Ownable.sol\":851:872   */\n      mload(0x40)\n      shl(0xe1, 0x16ccb9cb)\n      dup2\n      mstore\n      0x04\n      add\n      mload(0x40)\n      dup1\n      swap2\n      sub\n      swap1\n      revert\n        /* \"@thirdweb-dev/contracts/extension/Ownable.sol\":804:883   */\n    tag_323:\n      sub(shl(0xa0, 0x01), 0x01)\n        /* \"mojo.sol\":1775:1791  to != address(0) */\n      dup6\n      and\n        /* \"mojo.sol\":1767:1813  require(to != address(0), \"Invalid recipient\") */\n      tag_325\n      jumpi\n      mload(0x40)\n      shl(0xe5, 0x461bcd)\n      dup2\n      mstore\n        /* \"#utility.yul\":14385:14387   */\n      0x20\n        /* \"mojo.sol\":1767:1813  require(to != address(0), \"Invalid recipient\") */\n      0x04\n      dup3\n      add\n        /* \"#utility.yul\":14367:14388   */\n      mstore\n        /* \"#utility.yul\":14424:14426   */\n      0x11\n        /* \"#utility.yul\":14404:14422   */\n      0x24\n      dup3\n      add\n        /* \"#utility.yul\":14397:14427   */\n      mstore\n        /* \"#utility.yul\":14463:14482   */\n      0x496e76616c696420726563697069656e74000000000000000000000000000000\n        /* \"#utility.yul\":14443:14461   */\n      0x44\n      dup3\n      add\n        /* \"#utility.yul\":14436:14483   */\n      mstore\n        /* \"#utility.yul\":14500:14518   */\n      0x64\n      add\n        /* \"mojo.sol\":1767:1813  require(to != address(0), \"Invalid recipient\") */\n      tag_172\n        /* \"#utility.yul\":14183:14524   */\n      jump\n        /* \"mojo.sol\":1767:1813  require(to != address(0), \"Invalid recipient\") */\n    tag_325:\n        /* \"mojo.sol\":1823:1840  _mint(to, amount) */\n      tag_328\n        /* \"mojo.sol\":1829:1831  to */\n      dup6\n        /* \"mojo.sol\":1833:1839  amount */\n      dup6\n        /* \"mojo.sol\":1823:1828  _mint */\n      tag_178\n        /* \"mojo.sol\":1823:1840  _mint(to, amount) */\n      jump\t// in\n    tag_328:\n        /* \"mojo.sol\":1887:1907  projectContributions */\n      0x0a\n        /* \"mojo.sol\":1887:1918  projectContributions[projectId] */\n      0x00\n        /* \"mojo.sol\":1908:1917  projectId */\n      dup5\n        /* \"mojo.sol\":1887:1918  projectContributions[projectId] */\n      dup2\n      mstore\n      0x20\n      add\n      swap1\n      dup2\n      mstore\n      0x20\n      add\n      0x00\n      keccak256\n        /* \"mojo.sol\":1937:2110  Contribution({... */\n      mload(0x40)\n      dup1\n      0x80\n      add\n      0x40\n      mstore\n      dup1\n        /* \"mojo.sol\":1981:1983  to */\n      dup8\n      sub(shl(0xa0, 0x01), 0x01)\n        /* \"mojo.sol\":1937:2110  Contribution({... */\n      and\n      dup2\n      mstore\n      0x20\n      add\n        /* \"mojo.sol\":2007:2011  role */\n      dup5\n        /* \"mojo.sol\":1937:2110  Contribution({... */\n      0x01\n      dup2\n      gt\n      iszero\n      tag_330\n      jumpi\n      tag_330\n      tag_331\n      jump\t// in\n    tag_330:\n      dup2\n      mstore\n      0x20\n      dup1\n      dup3\n      add\n      dup6\n      swap1\n      mstore\n        /* \"mojo.sol\":2080:2095  block.timestamp */\n      timestamp\n        /* \"mojo.sol\":1937:2110  Contribution({... */\n      0x40\n      swap1\n      swap3\n      add\n      swap2\n      swap1\n      swap2\n      mstore\n        /* \"mojo.sol\":1887:2120  projectContributions[projectId].push(... */\n      dup3\n      sload\n      0x01\n      dup2\n      dup2\n      add\n      dup6\n      sstore\n      0x00\n      swap5\n      dup6\n      mstore\n      swap4\n      dup3\n      swap1\n      keccak256\n      dup4\n      mload\n      0x03\n      swap1\n      swap3\n      mul\n      add\n      dup1\n      sload\n      sub(shl(0xa0, 0x01), 0x01)\n      swap1\n      swap3\n      and\n      not(0xffffffffffffffffffffffffffffffffffffffff)\n      dup4\n      and\n      dup2\n      or\n      dup3\n      sstore\n      swap3\n      dup5\n      add\n      mload\n      swap4\n      swap5\n      swap1\n      swap4\n      swap3\n      dup5\n      swap3\n      0xffffffffffffffffffffff000000000000000000000000000000000000000000\n      and\n      or\n      swap1\n      shl(0xa0, 0x01)\n      swap1\n      dup5\n      swap1\n      dup2\n      gt\n      iszero\n      tag_334\n      jumpi\n      tag_334\n      tag_331\n      jump\t// in\n    tag_334:\n      mul\n      or\n      swap1\n      sstore\n      pop\n      0x40\n      dup3\n      add\n      mload\n      dup2\n      0x01\n      add\n      sstore\n      0x60\n      dup3\n      add\n      mload\n      dup2\n      0x02\n      add\n      sstore\n      pop\n      pop\n        /* \"mojo.sol\":2167:2169  to */\n      dup5\n      sub(shl(0xa0, 0x01), 0x01)\n        /* \"mojo.sol\":2135:2188  ContributionRecorded(projectId, to, role, percentage) */\n      and\n        /* \"mojo.sol\":2156:2165  projectId */\n      dup4\n        /* \"mojo.sol\":2135:2188  ContributionRecorded(projectId, to, role, percentage) */\n      0xe61fff04519ec4968ac0495e2e80af6a9c688db045b5c00ab20ee392e0aa7383\n        /* \"mojo.sol\":2171:2175  role */\n      dup5\n        /* \"mojo.sol\":2177:2187  percentage */\n      dup5\n        /* \"mojo.sol\":2135:2188  ContributionRecorded(projectId, to, role, percentage) */\n      mload(0x40)\n      tag_335\n      swap3\n      swap2\n      swap1\n      tag_336\n      jump\t// in\n    tag_335:\n      mload(0x40)\n      dup1\n      swap2\n      sub\n      swap1\n      log3\n        /* \"mojo.sol\":1584:2195  function allocateContribution(... */\n      pop\n      pop\n      pop\n      pop\n      pop\n      jump\t// out\n        /* \"@thirdweb-dev/contracts/extension/ContractMetadata.sol\":672:706   */\n    tag_156:\n      0x00\n      dup1\n      sload\n      tag_338\n      swap1\n      tag_160\n      jump\t// in\n    tag_338:\n      dup1\n      0x1f\n      add\n      0x20\n      dup1\n      swap2\n      div\n      mul\n      0x20\n      add\n      mload(0x40)\n      swap1\n      dup2\n      add\n      0x40\n      mstore\n      dup1\n      swap3\n      swap2\n      swap1\n      dup2\n      dup2\n      mstore\n      0x20\n      add\n      dup3\n      dup1\n      sload\n      tag_339\n      swap1\n      tag_160\n      jump\t// in\n    tag_339:\n      dup1\n      iszero\n      tag_340\n      jumpi\n      dup1\n      0x1f\n      lt\n      tag_341\n      jumpi\n      0x0100\n      dup1\n      dup4\n      sload\n      div\n      mul\n      dup4\n      mstore\n      swap2\n      0x20\n      add\n      swap2\n      jump(tag_340)\n    tag_341:\n      dup3\n      add\n      swap2\n      swap1\n      0x00\n      mstore\n      keccak256(0x00, 0x20)\n      swap1\n    tag_342:\n      dup2\n      sload\n      dup2\n      mstore\n      swap1\n      0x01\n      add\n      swap1\n      0x20\n      add\n      dup1\n      dup4\n      gt\n      tag_342\n      jumpi\n      dup3\n      swap1\n      sub\n      0x1f\n      and\n      dup3\n      add\n      swap2\n    tag_340:\n      pop\n      pop\n      pop\n      pop\n      pop\n      dup2\n      jump\t// out\n        /* \"@thirdweb-dev/contracts/external-deps/openzeppelin/token/ERC20/ERC20.sol\":10100:10440   */\n    tag_169:\n      sub(shl(0xa0, 0x01), 0x01)\n        /* \"@thirdweb-dev/contracts/external-deps/openzeppelin/token/ERC20/ERC20.sol\":10201:10220   */\n      dup4\n      and\n        /* \"@thirdweb-dev/contracts/external-deps/openzeppelin/token/ERC20/ERC20.sol\":10193:10261   */\n      tag_345\n      jumpi\n      mload(0x40)\n      shl(0xe5, 0x461bcd)\n      dup2\n      mstore\n        /* \"#utility.yul\":15003:15005   */\n      0x20\n        /* \"@thirdweb-dev/contracts/external-deps/openzeppelin/token/ERC20/ERC20.sol\":10193:10261   */\n      0x04\n      dup3\n      add\n        /* \"#utility.yul\":14985:15006   */\n      mstore\n        /* \"#utility.yul\":15042:15044   */\n      0x24\n        /* \"#utility.yul\":15022:15040   */\n      dup1\n      dup3\n      add\n        /* \"#utility.yul\":15015:15045   */\n      mstore\n        /* \"#utility.yul\":15081:15115   */\n      0x45524332303a20617070726f76652066726f6d20746865207a65726f20616464\n        /* \"#utility.yul\":15061:15079   */\n      0x44\n      dup3\n      add\n        /* \"#utility.yul\":15054:15116   */\n      mstore\n      shl(0xe0, 0x72657373)\n        /* \"#utility.yul\":15132:15150   */\n      0x64\n      dup3\n      add\n        /* \"#utility.yul\":15125:15159   */\n      mstore\n        /* \"#utility.yul\":15176:15195   */\n      0x84\n      add\n        /* \"@thirdweb-dev/contracts/external-deps/openzeppelin/token/ERC20/ERC20.sol\":10193:10261   */\n      tag_172\n        /* \"#utility.yul\":14801:15201   */\n      jump\n        /* \"@thirdweb-dev/contracts/external-deps/openzeppelin/token/ERC20/ERC20.sol\":10193:10261   */\n    tag_345:\n      sub(shl(0xa0, 0x01), 0x01)\n        /* \"@thirdweb-dev/contracts/external-deps/openzeppelin/token/ERC20/ERC20.sol\":10279:10300   */\n      dup3\n      and\n        /* \"@thirdweb-dev/contracts/external-deps/openzeppelin/token/ERC20/ERC20.sol\":10271:10339   */\n      tag_348\n      jumpi\n      mload(0x40)\n      shl(0xe5, 0x461bcd)\n      dup2\n      mstore\n        /* \"#utility.yul\":15408:15410   */\n      0x20\n        /* \"@thirdweb-dev/contracts/external-deps/openzeppelin/token/ERC20/ERC20.sol\":10271:10339   */\n      0x04\n      dup3\n      add\n        /* \"#utility.yul\":15390:15411   */\n      mstore\n        /* \"#utility.yul\":15447:15449   */\n      0x22\n        /* \"#utility.yul\":15427:15445   */\n      0x24\n      dup3\n      add\n        /* \"#utility.yul\":15420:15450   */\n      mstore\n        /* \"#utility.yul\":15486:15520   */\n      0x45524332303a20617070726f766520746f20746865207a65726f206164647265\n        /* \"#utility.yul\":15466:15484   */\n      0x44\n      dup3\n      add\n        /* \"#utility.yul\":15459:15521   */\n      mstore\n      shl(0xf0, 0x7373)\n        /* \"#utility.yul\":15537:15555   */\n      0x64\n      dup3\n      add\n        /* \"#utility.yul\":15530:15562   */\n      mstore\n        /* \"#utility.yul\":15579:15598   */\n      0x84\n      add\n        /* \"@thirdweb-dev/contracts/external-deps/openzeppelin/token/ERC20/ERC20.sol\":10271:10339   */\n      tag_172\n        /* \"#utility.yul\":15206:15604   */\n      jump\n        /* \"@thirdweb-dev/contracts/external-deps/openzeppelin/token/ERC20/ERC20.sol\":10271:10339   */\n    tag_348:\n      sub(shl(0xa0, 0x01), 0x01)\n        /* \"@thirdweb-dev/contracts/external-deps/openzeppelin/token/ERC20/ERC20.sol\":10350:10368   */\n      dup4\n      dup2\n      and\n      0x00\n      dup2\n      dup2\n      mstore\n        /* \"@thirdweb-dev/contracts/external-deps/openzeppelin/token/ERC20/ERC20.sol\":10350:10361   */\n      0x03\n        /* \"@thirdweb-dev/contracts/external-deps/openzeppelin/token/ERC20/ERC20.sol\":10350:10368   */\n      0x20\n      swap1\n      dup2\n      mstore\n      0x40\n      dup1\n      dup4\n      keccak256\n        /* \"@thirdweb-dev/contracts/external-deps/openzeppelin/token/ERC20/ERC20.sol\":10350:10377   */\n      swap5\n      dup8\n      and\n      dup1\n      dup5\n      mstore\n      swap5\n      dup3\n      mstore\n      swap2\n      dup3\n      swap1\n      keccak256\n        /* \"@thirdweb-dev/contracts/external-deps/openzeppelin/token/ERC20/ERC20.sol\":10350:10386   */\n      dup6\n      swap1\n      sstore\n        /* \"@thirdweb-dev/contracts/external-deps/openzeppelin/token/ERC20/ERC20.sol\":10401:10433   */\n      swap1\n      mload\n        /* \"#utility.yul\":1331:1356   */\n      dup5\n      dup2\n      mstore\n        /* \"@thirdweb-dev/contracts/external-deps/openzeppelin/token/ERC20/ERC20.sol\":10401:10433   */\n      0x8c5be1e5ebec7d5bd14f71427d1e84f3dd0314c0f7b2291e5b200ac8c7c3b925\n      swap2\n        /* \"#utility.yul\":1304:1322   */\n      add\n        /* \"@thirdweb-dev/contracts/external-deps/openzeppelin/token/ERC20/ERC20.sol\":10401:10433   */\n      mload(0x40)\n      dup1\n      swap2\n      sub\n      swap1\n      log3\n        /* \"@thirdweb-dev/contracts/external-deps/openzeppelin/token/ERC20/ERC20.sol\":10100:10440   */\n      pop\n      pop\n      pop\n      jump\t// out\n        /* \"@thirdweb-dev/contracts/external-deps/openzeppelin/token/ERC20/ERC20.sol\":8392:8781   */\n    tag_178:\n      sub(shl(0xa0, 0x01), 0x01)\n        /* \"@thirdweb-dev/contracts/external-deps/openzeppelin/token/ERC20/ERC20.sol\":8475:8496   */\n      dup3\n      and\n        /* \"@thirdweb-dev/contracts/external-deps/openzeppelin/token/ERC20/ERC20.sol\":8467:8532   */\n      tag_353\n      jumpi\n      mload(0x40)\n      shl(0xe5, 0x461bcd)\n      dup2\n      mstore\n        /* \"#utility.yul\":15811:15813   */\n      0x20\n        /* \"@thirdweb-dev/contracts/external-deps/openzeppelin/token/ERC20/ERC20.sol\":8467:8532   */\n      0x04\n      dup3\n      add\n        /* \"#utility.yul\":15793:15814   */\n      mstore\n        /* \"#utility.yul\":15850:15852   */\n      0x1f\n        /* \"#utility.yul\":15830:15848   */\n      0x24\n      dup3\n      add\n        /* \"#utility.yul\":15823:15853   */\n      mstore\n        /* \"#utility.yul\":15889:15922   */\n      0x45524332303a206d696e7420746f20746865207a65726f206164647265737300\n        /* \"#utility.yul\":15869:15887   */\n      0x44\n      dup3\n      add\n        /* \"#utility.yul\":15862:15923   */\n      mstore\n        /* \"#utility.yul\":15940:15958   */\n      0x64\n      add\n        /* \"@thirdweb-dev/contracts/external-deps/openzeppelin/token/ERC20/ERC20.sol\":8467:8532   */\n      tag_172\n        /* \"#utility.yul\":15609:15964   */\n      jump\n        /* \"@thirdweb-dev/contracts/external-deps/openzeppelin/token/ERC20/ERC20.sol\":8467:8532   */\n    tag_353:\n        /* \"@thirdweb-dev/contracts/external-deps/openzeppelin/token/ERC20/ERC20.sol\":8619:8625   */\n      dup1\n        /* \"@thirdweb-dev/contracts/external-deps/openzeppelin/token/ERC20/ERC20.sol\":8603:8615   */\n      0x04\n      0x00\n        /* \"@thirdweb-dev/contracts/external-deps/openzeppelin/token/ERC20/ERC20.sol\":8603:8625   */\n      dup3\n      dup3\n      sload\n      tag_358\n      swap2\n      swap1\n      tag_205\n      jump\t// in\n    tag_358:\n      swap1\n      swap2\n      sstore\n      pop\n      pop\n      sub(shl(0xa0, 0x01), 0x01)\n        /* \"@thirdweb-dev/contracts/external-deps/openzeppelin/token/ERC20/ERC20.sol\":8635:8653   */\n      dup3\n      and\n      0x00\n      swap1\n      dup2\n      mstore\n        /* \"@thirdweb-dev/contracts/external-deps/openzeppelin/token/ERC20/ERC20.sol\":8635:8644   */\n      0x02\n        /* \"@thirdweb-dev/contracts/external-deps/openzeppelin/token/ERC20/ERC20.sol\":8635:8653   */\n      0x20\n      mstore\n      0x40\n      dup2\n      keccak256\n        /* \"@thirdweb-dev/contracts/external-deps/openzeppelin/token/ERC20/ERC20.sol\":8635:8663   */\n      dup1\n      sload\n        /* \"@thirdweb-dev/contracts/external-deps/openzeppelin/token/ERC20/ERC20.sol\":8657:8663   */\n      dup4\n      swap3\n        /* \"@thirdweb-dev/contracts/external-deps/openzeppelin/token/ERC20/ERC20.sol\":8635:8653   */\n      swap1\n        /* \"@thirdweb-dev/contracts/external-deps/openzeppelin/token/ERC20/ERC20.sol\":8635:8663   */\n      tag_359\n      swap1\n        /* \"@thirdweb-dev/contracts/external-deps/openzeppelin/token/ERC20/ERC20.sol\":8657:8663   */\n      dup5\n      swap1\n        /* \"@thirdweb-dev/contracts/external-deps/openzeppelin/token/ERC20/ERC20.sol\":8635:8663   */\n      tag_205\n      jump\t// in\n    tag_359:\n      swap1\n      swap2\n      sstore\n      pop\n      pop\n        /* \"@thirdweb-dev/contracts/external-deps/openzeppelin/token/ERC20/ERC20.sol\":8678:8715   */\n      mload(0x40)\n        /* \"#utility.yul\":1331:1356   */\n      dup2\n      dup2\n      mstore\n      sub(shl(0xa0, 0x01), 0x01)\n        /* \"@thirdweb-dev/contracts/external-deps/openzeppelin/token/ERC20/ERC20.sol\":8678:8715   */\n      dup4\n      and\n      swap1\n        /* \"@thirdweb-dev/contracts/external-deps/openzeppelin/token/ERC20/ERC20.sol\":8695:8696   */\n      0x00\n      swap1\n        /* \"@thirdweb-dev/contracts/external-deps/openzeppelin/token/ERC20/ERC20.sol\":8678:8715   */\n      0xddf252ad1be2c89b69c2b068fc378daa952ba7f163c4a11628f55a4df523b3ef\n      swap1\n        /* \"#utility.yul\":1319:1321   */\n      0x20\n        /* \"#utility.yul\":1304:1322   */\n      add\n        /* \"@thirdweb-dev/contracts/external-deps/openzeppelin/token/ERC20/ERC20.sol\":8678:8715   */\n      mload(0x40)\n      dup1\n      swap2\n      sub\n      swap1\n      log3\n        /* \"@thirdweb-dev/contracts/base/ERC20Base.sol\":1989:2198   */\n      pop\n      pop\n      jump\t// out\n        /* \"@thirdweb-dev/contracts/base/ERC20Base.sol\":4190:4305   */\n    tag_183:\n        /* \"@thirdweb-dev/contracts/base/ERC20Base.sol\":4254:4258   */\n      0x00\n        /* \"@thirdweb-dev/contracts/base/ERC20Base.sol\":4291:4298   */\n      tag_364\n        /* \"@thirdweb-dev/contracts/extension/Ownable.sol\":1046:1052   */\n      and(sub(shl(0xa0, 0x01), 0x01), sload(0x01))\n      swap1\n        /* \"@thirdweb-dev/contracts/extension/Ownable.sol\":973:1059   */\n      jump\n        /* \"@thirdweb-dev/contracts/base/ERC20Base.sol\":4291:4298   */\n    tag_364:\n      sub(shl(0xa0, 0x01), 0x01)\n        /* \"@thirdweb-dev/contracts/base/ERC20Base.sol\":4277:4298   */\n      and\n        /* \"@thirdweb-dev/contracts/base/ERC20Base.sol\":4277:4287   */\n      caller\n      sub(shl(0xa0, 0x01), 0x01)\n        /* \"@thirdweb-dev/contracts/base/ERC20Base.sol\":4277:4298   */\n      and\n      eq\n        /* \"@thirdweb-dev/contracts/base/ERC20Base.sol\":4270:4298   */\n      swap1\n      pop\n        /* \"@thirdweb-dev/contracts/base/ERC20Base.sol\":4190:4305   */\n      swap1\n      jump\t// out\n        /* \"@thirdweb-dev/contracts/extension/Ownable.sol\":1527:1699   */\n    tag_186:\n        /* \"@thirdweb-dev/contracts/extension/Ownable.sol\":1607:1613   */\n      0x01\n      dup1\n      sload\n      sub(shl(0xa0, 0x01), 0x01)\n        /* \"@thirdweb-dev/contracts/extension/Ownable.sol\":1623:1641   */\n      dup4\n      dup2\n      and\n      not(0xffffffffffffffffffffffffffffffffffffffff)\n      dup4\n      and\n      dup2\n      or\n      swap1\n      swap4\n      sstore\n        /* \"@thirdweb-dev/contracts/extension/Ownable.sol\":1657:1692   */\n      mload(0x40)\n        /* \"@thirdweb-dev/contracts/extension/Ownable.sol\":1607:1613   */\n      swap2\n      and\n      swap2\n        /* \"@thirdweb-dev/contracts/extension/Ownable.sol\":1623:1641   */\n      swap1\n        /* \"@thirdweb-dev/contracts/extension/Ownable.sol\":1607:1613   */\n      dup3\n      swap1\n        /* \"@thirdweb-dev/contracts/extension/Ownable.sol\":1657:1692   */\n      0x8292fce18fa69edf4db7b94ea2e58241df0ae57f97e0a6c9b29067028bf92d76\n      swap1\n        /* \"@thirdweb-dev/contracts/extension/Ownable.sol\":1586:1604   */\n      0x00\n      swap1\n        /* \"@thirdweb-dev/contracts/extension/Ownable.sol\":1657:1692   */\n      log3\n        /* \"@thirdweb-dev/contracts/extension/Ownable.sol\":1576:1699   */\n      pop\n        /* \"@thirdweb-dev/contracts/extension/Ownable.sol\":1527:1699   */\n      pop\n      jump\t// out\n        /* \"@thirdweb-dev/contracts/external-deps/openzeppelin/token/ERC20/ERC20.sol\":10717:11128   */\n    tag_191:\n      sub(shl(0xa0, 0x01), 0x01)\n        /* \"@thirdweb-dev/contracts/external-deps/openzeppelin/token/ERC20/ERC20.sol\":4128:4146   */\n      dup4\n      dup2\n      and\n        /* \"@thirdweb-dev/contracts/external-deps/openzeppelin/token/ERC20/ERC20.sol\":10817:10841   */\n      0x00\n        /* \"@thirdweb-dev/contracts/external-deps/openzeppelin/token/ERC20/ERC20.sol\":4128:4146   */\n      swap1\n      dup2\n      mstore\n        /* \"@thirdweb-dev/contracts/external-deps/openzeppelin/token/ERC20/ERC20.sol\":4128:4139   */\n      0x03\n        /* \"@thirdweb-dev/contracts/external-deps/openzeppelin/token/ERC20/ERC20.sol\":4128:4146   */\n      0x20\n      swap1\n      dup2\n      mstore\n      0x40\n      dup1\n      dup4\n      keccak256\n        /* \"@thirdweb-dev/contracts/external-deps/openzeppelin/token/ERC20/ERC20.sol\":4128:4155   */\n      swap4\n      dup7\n      and\n      dup4\n      mstore\n      swap3\n      swap1\n      mstore\n      keccak256\n      sload\n      not(0x00)\n        /* \"@thirdweb-dev/contracts/external-deps/openzeppelin/token/ERC20/ERC20.sol\":10883:10920   */\n      dup2\n      eq\n        /* \"@thirdweb-dev/contracts/external-deps/openzeppelin/token/ERC20/ERC20.sol\":10879:11122   */\n      tag_372\n      jumpi\n        /* \"@thirdweb-dev/contracts/external-deps/openzeppelin/token/ERC20/ERC20.sol\":10964:10970   */\n      dup2\n        /* \"@thirdweb-dev/contracts/external-deps/openzeppelin/token/ERC20/ERC20.sol\":10944:10960   */\n      dup2\n        /* \"@thirdweb-dev/contracts/external-deps/openzeppelin/token/ERC20/ERC20.sol\":10944:10970   */\n      lt\n      iszero\n        /* \"@thirdweb-dev/contracts/external-deps/openzeppelin/token/ERC20/ERC20.sol\":10936:11004   */\n      tag_369\n      jumpi\n      mload(0x40)\n      shl(0xe5, 0x461bcd)\n      dup2\n      mstore\n        /* \"#utility.yul\":16171:16173   */\n      0x20\n        /* \"@thirdweb-dev/contracts/external-deps/openzeppelin/token/ERC20/ERC20.sol\":10936:11004   */\n      0x04\n      dup3\n      add\n        /* \"#utility.yul\":16153:16174   */\n      mstore\n        /* \"#utility.yul\":16210:16212   */\n      0x1d\n        /* \"#utility.yul\":16190:16208   */\n      0x24\n      dup3\n      add\n        /* \"#utility.yul\":16183:16213   */\n      mstore\n        /* \"#utility.yul\":16249:16280   */\n      0x45524332303a20696e73756666696369656e7420616c6c6f77616e6365000000\n        /* \"#utility.yul\":16229:16247   */\n      0x44\n      dup3\n      add\n        /* \"#utility.yul\":16222:16281   */\n      mstore\n        /* \"#utility.yul\":16298:16316   */\n      0x64\n      add\n        /* \"@thirdweb-dev/contracts/external-deps/openzeppelin/token/ERC20/ERC20.sol\":10936:11004   */\n      tag_172\n        /* \"#utility.yul\":15969:16322   */\n      jump\n        /* \"@thirdweb-dev/contracts/external-deps/openzeppelin/token/ERC20/ERC20.sol\":10936:11004   */\n    tag_369:\n        /* \"@thirdweb-dev/contracts/external-deps/openzeppelin/token/ERC20/ERC20.sol\":11046:11097   */\n      tag_372\n        /* \"@thirdweb-dev/contracts/external-deps/openzeppelin/token/ERC20/ERC20.sol\":11055:11060   */\n      dup5\n        /* \"@thirdweb-dev/contracts/external-deps/openzeppelin/token/ERC20/ERC20.sol\":11062:11069   */\n      dup5\n        /* \"@thirdweb-dev/contracts/external-deps/openzeppelin/token/ERC20/ERC20.sol\":11090:11096   */\n      dup5\n        /* \"@thirdweb-dev/contracts/external-deps/openzeppelin/token/ERC20/ERC20.sol\":11071:11087   */\n      dup5\n        /* \"@thirdweb-dev/contracts/external-deps/openzeppelin/token/ERC20/ERC20.sol\":11071:11096   */\n      sub\n        /* \"@thirdweb-dev/contracts/external-deps/openzeppelin/token/ERC20/ERC20.sol\":11046:11054   */\n      tag_169\n        /* \"@thirdweb-dev/contracts/external-deps/openzeppelin/token/ERC20/ERC20.sol\":11046:11097   */\n      jump\t// in\n    tag_372:\n        /* \"@thirdweb-dev/contracts/external-deps/openzeppelin/token/ERC20/ERC20.sol\":10807:11128   */\n      pop\n        /* \"@thirdweb-dev/contracts/external-deps/openzeppelin/token/ERC20/ERC20.sol\":10717:11128   */\n      pop\n      pop\n      pop\n      jump\t// out\n        /* \"@thirdweb-dev/contracts/external-deps/openzeppelin/token/ERC20/ERC20.sol\":7495:8116   */\n    tag_193:\n      sub(shl(0xa0, 0x01), 0x01)\n        /* \"@thirdweb-dev/contracts/external-deps/openzeppelin/token/ERC20/ERC20.sol\":7591:7609   */\n      dup4\n      and\n        /* \"@thirdweb-dev/contracts/external-deps/openzeppelin/token/ERC20/ERC20.sol\":7583:7651   */\n      tag_374\n      jumpi\n      mload(0x40)\n      shl(0xe5, 0x461bcd)\n      dup2\n      mstore\n        /* \"#utility.yul\":16529:16531   */\n      0x20\n        /* \"@thirdweb-dev/contracts/external-deps/openzeppelin/token/ERC20/ERC20.sol\":7583:7651   */\n      0x04\n      dup3\n      add\n        /* \"#utility.yul\":16511:16532   */\n      mstore\n        /* \"#utility.yul\":16568:16570   */\n      0x25\n        /* \"#utility.yul\":16548:16566   */\n      0x24\n      dup3\n      add\n        /* \"#utility.yul\":16541:16571   */\n      mstore\n        /* \"#utility.yul\":16607:16641   */\n      0x45524332303a207472616e736665722066726f6d20746865207a65726f206164\n        /* \"#utility.yul\":16587:16605   */\n      0x44\n      dup3\n      add\n        /* \"#utility.yul\":16580:16642   */\n      mstore\n        /* \"#utility.yul\":16678:16685   */\n      0x6472657373000000000000000000000000000000000000000000000000000000\n        /* \"#utility.yul\":16658:16676   */\n      0x64\n      dup3\n      add\n        /* \"#utility.yul\":16651:16686   */\n      mstore\n        /* \"#utility.yul\":16703:16722   */\n      0x84\n      add\n        /* \"@thirdweb-dev/contracts/external-deps/openzeppelin/token/ERC20/ERC20.sol\":7583:7651   */\n      tag_172\n        /* \"#utility.yul\":16327:16728   */\n      jump\n        /* \"@thirdweb-dev/contracts/external-deps/openzeppelin/token/ERC20/ERC20.sol\":7583:7651   */\n    tag_374:\n      sub(shl(0xa0, 0x01), 0x01)\n        /* \"@thirdweb-dev/contracts/external-deps/openzeppelin/token/ERC20/ERC20.sol\":7669:7685   */\n      dup3\n      and\n        /* \"@thirdweb-dev/contracts/external-deps/openzeppelin/token/ERC20/ERC20.sol\":7661:7725   */\n      tag_377\n      jumpi\n      mload(0x40)\n      shl(0xe5, 0x461bcd)\n      dup2\n      mstore\n        /* \"#utility.yul\":16935:16937   */\n      0x20\n        /* \"@thirdweb-dev/contracts/external-deps/openzeppelin/token/ERC20/ERC20.sol\":7661:7725   */\n      0x04\n      dup3\n      add\n        /* \"#utility.yul\":16917:16938   */\n      mstore\n        /* \"#utility.yul\":16974:16976   */\n      0x23\n        /* \"#utility.yul\":16954:16972   */\n      0x24\n      dup3\n      add\n        /* \"#utility.yul\":16947:16977   */\n      mstore\n        /* \"#utility.yul\":17013:17047   */\n      0x45524332303a207472616e7366657220746f20746865207a65726f2061646472\n        /* \"#utility.yul\":16993:17011   */\n      0x44\n      dup3\n      add\n        /* \"#utility.yul\":16986:17048   */\n      mstore\n      shl(0xe8, 0x657373)\n        /* \"#utility.yul\":17064:17082   */\n      0x64\n      dup3\n      add\n        /* \"#utility.yul\":17057:17090   */\n      mstore\n        /* \"#utility.yul\":17107:17126   */\n      0x84\n      add\n        /* \"@thirdweb-dev/contracts/external-deps/openzeppelin/token/ERC20/ERC20.sol\":7661:7725   */\n      tag_172\n        /* \"#utility.yul\":16733:17132   */\n      jump\n        /* \"@thirdweb-dev/contracts/external-deps/openzeppelin/token/ERC20/ERC20.sol\":7661:7725   */\n    tag_377:\n      sub(shl(0xa0, 0x01), 0x01)\n        /* \"@thirdweb-dev/contracts/external-deps/openzeppelin/token/ERC20/ERC20.sol\":7807:7822   */\n      dup4\n      and\n        /* \"@thirdweb-dev/contracts/external-deps/openzeppelin/token/ERC20/ERC20.sol\":7785:7804   */\n      0x00\n        /* \"@thirdweb-dev/contracts/external-deps/openzeppelin/token/ERC20/ERC20.sol\":7807:7822   */\n      swap1\n      dup2\n      mstore\n        /* \"@thirdweb-dev/contracts/external-deps/openzeppelin/token/ERC20/ERC20.sol\":7807:7816   */\n      0x02\n        /* \"@thirdweb-dev/contracts/external-deps/openzeppelin/token/ERC20/ERC20.sol\":7807:7822   */\n      0x20\n      mstore\n      0x40\n      swap1\n      keccak256\n      sload\n        /* \"@thirdweb-dev/contracts/external-deps/openzeppelin/token/ERC20/ERC20.sol\":7840:7861   */\n      dup2\n      dup2\n      lt\n      iszero\n        /* \"@thirdweb-dev/contracts/external-deps/openzeppelin/token/ERC20/ERC20.sol\":7832:7904   */\n      tag_381\n      jumpi\n      mload(0x40)\n      shl(0xe5, 0x461bcd)\n      dup2\n      mstore\n        /* \"#utility.yul\":17339:17341   */\n      0x20\n        /* \"@thirdweb-dev/contracts/external-deps/openzeppelin/token/ERC20/ERC20.sol\":7832:7904   */\n      0x04\n      dup3\n      add\n        /* \"#utility.yul\":17321:17342   */\n      mstore\n        /* \"#utility.yul\":17378:17380   */\n      0x26\n        /* \"#utility.yul\":17358:17376   */\n      0x24\n      dup3\n      add\n        /* \"#utility.yul\":17351:17381   */\n      mstore\n        /* \"#utility.yul\":17417:17451   */\n      0x45524332303a207472616e7366657220616d6f756e7420657863656564732062\n        /* \"#utility.yul\":17397:17415   */\n      0x44\n      dup3\n      add\n        /* \"#utility.yul\":17390:17452   */\n      mstore\n        /* \"#utility.yul\":17488:17496   */\n      0x616c616e63650000000000000000000000000000000000000000000000000000\n        /* \"#utility.yul\":17468:17486   */\n      0x64\n      dup3\n      add\n        /* \"#utility.yul\":17461:17497   */\n      mstore\n        /* \"#utility.yul\":17514:17533   */\n      0x84\n      add\n        /* \"@thirdweb-dev/contracts/external-deps/openzeppelin/token/ERC20/ERC20.sol\":7832:7904   */\n      tag_172\n        /* \"#utility.yul\":17137:17539   */\n      jump\n        /* \"@thirdweb-dev/contracts/external-deps/openzeppelin/token/ERC20/ERC20.sol\":7832:7904   */\n    tag_381:\n      sub(shl(0xa0, 0x01), 0x01)\n        /* \"@thirdweb-dev/contracts/external-deps/openzeppelin/token/ERC20/ERC20.sol\":7938:7953   */\n      dup1\n      dup6\n      and\n      0x00\n      swap1\n      dup2\n      mstore\n        /* \"@thirdweb-dev/contracts/external-deps/openzeppelin/token/ERC20/ERC20.sol\":7938:7947   */\n      0x02\n        /* \"@thirdweb-dev/contracts/external-deps/openzeppelin/token/ERC20/ERC20.sol\":7938:7953   */\n      0x20\n      mstore\n      0x40\n      dup1\n      dup3\n      keccak256\n        /* \"@thirdweb-dev/contracts/external-deps/openzeppelin/token/ERC20/ERC20.sol\":7956:7976   */\n      dup6\n      dup6\n      sub\n        /* \"@thirdweb-dev/contracts/external-deps/openzeppelin/token/ERC20/ERC20.sol\":7938:7976   */\n      swap1\n      sstore\n        /* \"@thirdweb-dev/contracts/external-deps/openzeppelin/token/ERC20/ERC20.sol\":7996:8009   */\n      swap2\n      dup6\n      and\n      dup2\n      mstore\n      swap1\n      dup2\n      keccak256\n        /* \"@thirdweb-dev/contracts/external-deps/openzeppelin/token/ERC20/ERC20.sol\":7996:8019   */\n      dup1\n      sload\n        /* \"@thirdweb-dev/contracts/external-deps/openzeppelin/token/ERC20/ERC20.sol\":7970:7976   */\n      dup5\n      swap3\n        /* \"@thirdweb-dev/contracts/external-deps/openzeppelin/token/ERC20/ERC20.sol\":7938:7953   */\n      swap1\n        /* \"@thirdweb-dev/contracts/external-deps/openzeppelin/token/ERC20/ERC20.sol\":7996:8019   */\n      tag_384\n      swap1\n        /* \"@thirdweb-dev/contracts/external-deps/openzeppelin/token/ERC20/ERC20.sol\":7970:7976   */\n      dup5\n      swap1\n        /* \"@thirdweb-dev/contracts/external-deps/openzeppelin/token/ERC20/ERC20.sol\":7996:8019   */\n      tag_205\n      jump\t// in\n    tag_384:\n      swap3\n      pop\n      pop\n      dup2\n      swap1\n      sstore\n      pop\n        /* \"@thirdweb-dev/contracts/external-deps/openzeppelin/token/ERC20/ERC20.sol\":8050:8052   */\n      dup3\n      sub(shl(0xa0, 0x01), 0x01)\n        /* \"@thirdweb-dev/contracts/external-deps/openzeppelin/token/ERC20/ERC20.sol\":8035:8061   */\n      and\n        /* \"@thirdweb-dev/contracts/external-deps/openzeppelin/token/ERC20/ERC20.sol\":8044:8048   */\n      dup5\n      sub(shl(0xa0, 0x01), 0x01)\n        /* \"@thirdweb-dev/contracts/external-deps/openzeppelin/token/ERC20/ERC20.sol\":8035:8061   */\n      and\n      0xddf252ad1be2c89b69c2b068fc378daa952ba7f163c4a11628f55a4df523b3ef\n        /* \"@thirdweb-dev/contracts/external-deps/openzeppelin/token/ERC20/ERC20.sol\":8054:8060   */\n      dup5\n        /* \"@thirdweb-dev/contracts/external-deps/openzeppelin/token/ERC20/ERC20.sol\":8035:8061   */\n      mload(0x40)\n      tag_385\n      swap2\n        /* \"#utility.yul\":1331:1356   */\n      dup2\n      mstore\n        /* \"#utility.yul\":1319:1321   */\n      0x20\n        /* \"#utility.yul\":1304:1322   */\n      add\n      swap1\n        /* \"#utility.yul\":1185:1362   */\n      jump\n        /* \"@thirdweb-dev/contracts/external-deps/openzeppelin/token/ERC20/ERC20.sol\":8035:8061   */\n    tag_385:\n      mload(0x40)\n      dup1\n      swap2\n      sub\n      swap1\n      log3\n        /* \"@thirdweb-dev/contracts/external-deps/openzeppelin/token/ERC20/ERC20.sol\":8072:8109   */\n      tag_372\n        /* \"@thirdweb-dev/contracts/base/ERC20Base.sol\":2882:3312   */\n      jump\n        /* \"@thirdweb-dev/contracts/external-deps/openzeppelin/token/ERC20/extensions/ERC20Permit.sol\":3296:3734   */\n    tag_200:\n        /* \"@thirdweb-dev/contracts/external-deps/openzeppelin/token/ERC20/extensions/ERC20Permit.sol\":3351:3358   */\n      0x00\n        /* \"@thirdweb-dev/contracts/external-deps/openzeppelin/token/ERC20/extensions/ERC20Permit.sol\":3448:3543   */\n      0x8b73c3c69bb8fe3d512ecc4cf759cc79239f7b179b0ffacaa9a75d522b39400f\n        /* \"@thirdweb-dev/contracts/external-deps/openzeppelin/token/ERC20/extensions/ERC20Permit.sol\":3581:3587   */\n      tag_388\n        /* \"@thirdweb-dev/contracts/external-deps/openzeppelin/token/ERC20/extensions/ERC20Permit.sol\":3581:3585   */\n      tag_41\n        /* \"@thirdweb-dev/contracts/external-deps/openzeppelin/token/ERC20/extensions/ERC20Permit.sol\":3581:3587   */\n      jump\t// in\n    tag_388:\n        /* \"@thirdweb-dev/contracts/external-deps/openzeppelin/token/ERC20/extensions/ERC20Permit.sol\":3565:3589   */\n      dup1\n      mload\n      0x20\n      swap2\n      dup3\n      add\n      keccak256\n        /* \"@thirdweb-dev/contracts/external-deps/openzeppelin/token/ERC20/extensions/ERC20Permit.sol\":3416:3713   */\n      0x40\n      dup1\n      mload\n      swap3\n      dup4\n      add\n        /* \"#utility.yul\":17803:17828   */\n      swap4\n      swap1\n      swap4\n      mstore\n        /* \"#utility.yul\":17844:17862   */\n      swap2\n      dup2\n      add\n        /* \"#utility.yul\":17837:17871   */\n      swap2\n      swap1\n      swap2\n      mstore\n        /* \"@thirdweb-dev/contracts/external-deps/openzeppelin/token/ERC20/extensions/ERC20Permit.sol\":3611:3625   */\n      0xc89efdaa54c0f20c7adf612882df0950f5a951637e0307cdcb4c672f298b8bc6\n        /* \"#utility.yul\":17887:17905   */\n      0x60\n      dup3\n      add\n        /* \"#utility.yul\":17880:17914   */\n      mstore\n        /* \"@thirdweb-dev/contracts/external-deps/openzeppelin/token/ERC20/extensions/ERC20Permit.sol\":3647:3660   */\n      chainid\n        /* \"#utility.yul\":17930:17948   */\n      0x80\n      dup3\n      add\n        /* \"#utility.yul\":17923:17957   */\n      mstore\n        /* \"@thirdweb-dev/contracts/external-deps/openzeppelin/token/ERC20/extensions/ERC20Permit.sol\":3690:3694   */\n      address\n        /* \"#utility.yul\":17973:17992   */\n      0xa0\n      dup3\n      add\n        /* \"#utility.yul\":17966:18050   */\n      mstore\n        /* \"#utility.yul\":17775:17794   */\n      0xc0\n      add\n        /* \"@thirdweb-dev/contracts/external-deps/openzeppelin/token/ERC20/extensions/ERC20Permit.sol\":3416:3713   */\n      mload(0x40)\n      0x20\n      dup2\n      dup4\n      sub\n      sub\n      dup2\n      mstore\n      swap1\n      0x40\n      mstore\n        /* \"@thirdweb-dev/contracts/external-deps/openzeppelin/token/ERC20/extensions/ERC20Permit.sol\":3389:3727   */\n      dup1\n      mload\n      swap1\n      0x20\n      add\n      keccak256\n        /* \"@thirdweb-dev/contracts/external-deps/openzeppelin/token/ERC20/extensions/ERC20Permit.sol\":3370:3727   */\n      swap1\n      pop\n        /* \"@thirdweb-dev/contracts/external-deps/openzeppelin/token/ERC20/extensions/ERC20Permit.sol\":3296:3734   */\n      swap1\n      jump\t// out\n        /* \"@thirdweb-dev/contracts/external-deps/openzeppelin/token/ERC20/ERC20.sol\":9101:9677   */\n    tag_208:\n      sub(shl(0xa0, 0x01), 0x01)\n        /* \"@thirdweb-dev/contracts/external-deps/openzeppelin/token/ERC20/ERC20.sol\":9184:9205   */\n      dup3\n      and\n        /* \"@thirdweb-dev/contracts/external-deps/openzeppelin/token/ERC20/ERC20.sol\":9176:9243   */\n      tag_392\n      jumpi\n      mload(0x40)\n      shl(0xe5, 0x461bcd)\n      dup2\n      mstore\n        /* \"#utility.yul\":18263:18265   */\n      0x20\n        /* \"@thirdweb-dev/contracts/external-deps/openzeppelin/token/ERC20/ERC20.sol\":9176:9243   */\n      0x04\n      dup3\n      add\n        /* \"#utility.yul\":18245:18266   */\n      mstore\n        /* \"#utility.yul\":18302:18304   */\n      0x21\n        /* \"#utility.yul\":18282:18300   */\n      0x24\n      dup3\n      add\n        /* \"#utility.yul\":18275:18305   */\n      mstore\n        /* \"#utility.yul\":18341:18375   */\n      0x45524332303a206275726e2066726f6d20746865207a65726f20616464726573\n        /* \"#utility.yul\":18321:18339   */\n      0x44\n      dup3\n      add\n        /* \"#utility.yul\":18314:18376   */\n      mstore\n      shl(0xf8, 0x73)\n        /* \"#utility.yul\":18392:18410   */\n      0x64\n      dup3\n      add\n        /* \"#utility.yul\":18385:18416   */\n      mstore\n        /* \"#utility.yul\":18433:18452   */\n      0x84\n      add\n        /* \"@thirdweb-dev/contracts/external-deps/openzeppelin/token/ERC20/ERC20.sol\":9176:9243   */\n      tag_172\n        /* \"#utility.yul\":18061:18458   */\n      jump\n        /* \"@thirdweb-dev/contracts/external-deps/openzeppelin/token/ERC20/ERC20.sol\":9176:9243   */\n    tag_392:\n      sub(shl(0xa0, 0x01), 0x01)\n        /* \"@thirdweb-dev/contracts/external-deps/openzeppelin/token/ERC20/ERC20.sol\":9339:9357   */\n      dup3\n      and\n        /* \"@thirdweb-dev/contracts/external-deps/openzeppelin/token/ERC20/ERC20.sol\":9314:9336   */\n      0x00\n        /* \"@thirdweb-dev/contracts/external-deps/openzeppelin/token/ERC20/ERC20.sol\":9339:9357   */\n      swap1\n      dup2\n      mstore\n        /* \"@thirdweb-dev/contracts/external-deps/openzeppelin/token/ERC20/ERC20.sol\":9339:9348   */\n      0x02\n        /* \"@thirdweb-dev/contracts/external-deps/openzeppelin/token/ERC20/ERC20.sol\":9339:9357   */\n      0x20\n      mstore\n      0x40\n      swap1\n      keccak256\n      sload\n        /* \"@thirdweb-dev/contracts/external-deps/openzeppelin/token/ERC20/ERC20.sol\":9375:9399   */\n      dup2\n      dup2\n      lt\n      iszero\n        /* \"@thirdweb-dev/contracts/external-deps/openzeppelin/token/ERC20/ERC20.sol\":9367:9438   */\n      tag_396\n      jumpi\n      mload(0x40)\n      shl(0xe5, 0x461bcd)\n      dup2\n      mstore\n        /* \"#utility.yul\":18665:18667   */\n      0x20\n        /* \"@thirdweb-dev/contracts/external-deps/openzeppelin/token/ERC20/ERC20.sol\":9367:9438   */\n      0x04\n      dup3\n      add\n        /* \"#utility.yul\":18647:18668   */\n      mstore\n        /* \"#utility.yul\":18704:18706   */\n      0x22\n        /* \"#utility.yul\":18684:18702   */\n      0x24\n      dup3\n      add\n        /* \"#utility.yul\":18677:18707   */\n      mstore\n        /* \"#utility.yul\":18743:18777   */\n      0x45524332303a206275726e20616d6f756e7420657863656564732062616c616e\n        /* \"#utility.yul\":18723:18741   */\n      0x44\n      dup3\n      add\n        /* \"#utility.yul\":18716:18778   */\n      mstore\n      shl(0xf0, 0x6365)\n        /* \"#utility.yul\":18794:18812   */\n      0x64\n      dup3\n      add\n        /* \"#utility.yul\":18787:18819   */\n      mstore\n        /* \"#utility.yul\":18836:18855   */\n      0x84\n      add\n        /* \"@thirdweb-dev/contracts/external-deps/openzeppelin/token/ERC20/ERC20.sol\":9367:9438   */\n      tag_172\n        /* \"#utility.yul\":18463:18861   */\n      jump\n        /* \"@thirdweb-dev/contracts/external-deps/openzeppelin/token/ERC20/ERC20.sol\":9367:9438   */\n    tag_396:\n      sub(shl(0xa0, 0x01), 0x01)\n        /* \"@thirdweb-dev/contracts/external-deps/openzeppelin/token/ERC20/ERC20.sol\":9472:9490   */\n      dup4\n      and\n      0x00\n      swap1\n      dup2\n      mstore\n        /* \"@thirdweb-dev/contracts/external-deps/openzeppelin/token/ERC20/ERC20.sol\":9472:9481   */\n      0x02\n        /* \"@thirdweb-dev/contracts/external-deps/openzeppelin/token/ERC20/ERC20.sol\":9472:9490   */\n      0x20\n      mstore\n      0x40\n      dup2\n      keccak256\n        /* \"@thirdweb-dev/contracts/external-deps/openzeppelin/token/ERC20/ERC20.sol\":9493:9516   */\n      dup4\n      dup4\n      sub\n        /* \"@thirdweb-dev/contracts/external-deps/openzeppelin/token/ERC20/ERC20.sol\":9472:9516   */\n      swap1\n      sstore\n        /* \"@thirdweb-dev/contracts/external-deps/openzeppelin/token/ERC20/ERC20.sol\":9536:9548   */\n      0x04\n        /* \"@thirdweb-dev/contracts/external-deps/openzeppelin/token/ERC20/ERC20.sol\":9536:9558   */\n      dup1\n      sload\n        /* \"@thirdweb-dev/contracts/external-deps/openzeppelin/token/ERC20/ERC20.sol\":9510:9516   */\n      dup5\n      swap3\n        /* \"@thirdweb-dev/contracts/external-deps/openzeppelin/token/ERC20/ERC20.sol\":9472:9490   */\n      swap1\n        /* \"@thirdweb-dev/contracts/external-deps/openzeppelin/token/ERC20/ERC20.sol\":9536:9558   */\n      tag_399\n      swap1\n        /* \"@thirdweb-dev/contracts/external-deps/openzeppelin/token/ERC20/ERC20.sol\":9510:9516   */\n      dup5\n      swap1\n        /* \"@thirdweb-dev/contracts/external-deps/openzeppelin/token/ERC20/ERC20.sol\":9536:9558   */\n      tag_235\n      jump\t// in\n    tag_399:\n      swap1\n      swap2\n      sstore\n      pop\n      pop\n        /* \"@thirdweb-dev/contracts/external-deps/openzeppelin/token/ERC20/ERC20.sol\":9574:9611   */\n      mload(0x40)\n        /* \"#utility.yul\":1331:1356   */\n      dup3\n      dup2\n      mstore\n        /* \"@thirdweb-dev/contracts/external-deps/openzeppelin/token/ERC20/ERC20.sol\":9600:9601   */\n      0x00\n      swap1\n      sub(shl(0xa0, 0x01), 0x01)\n        /* \"@thirdweb-dev/contracts/external-deps/openzeppelin/token/ERC20/ERC20.sol\":9574:9611   */\n      dup6\n      and\n      swap1\n      0xddf252ad1be2c89b69c2b068fc378daa952ba7f163c4a11628f55a4df523b3ef\n      swap1\n        /* \"#utility.yul\":1319:1321   */\n      0x20\n        /* \"#utility.yul\":1304:1322   */\n      add\n        /* \"@thirdweb-dev/contracts/external-deps/openzeppelin/token/ERC20/ERC20.sol\":9574:9611   */\n      mload(0x40)\n      dup1\n      swap2\n      sub\n      swap1\n      log3\n        /* \"@thirdweb-dev/contracts/base/ERC20Base.sol\":2961:3312   */\n      pop\n        /* \"@thirdweb-dev/contracts/base/ERC20Base.sol\":2882:3312   */\n      pop\n      pop\n      jump\t// out\n        /* \"@thirdweb-dev/contracts/extension/ContractMetadata.sol\":1393:1578   */\n    tag_248:\n        /* \"@thirdweb-dev/contracts/extension/ContractMetadata.sol\":1459:1480   */\n      0x00\n        /* \"@thirdweb-dev/contracts/extension/ContractMetadata.sol\":1483:1494   */\n      dup1\n        /* \"@thirdweb-dev/contracts/extension/ContractMetadata.sol\":1459:1494   */\n      dup1\n      sload\n      tag_410\n      swap1\n      tag_160\n      jump\t// in\n    tag_410:\n      dup1\n      0x1f\n      add\n      0x20\n      dup1\n      swap2\n      div\n      mul\n      0x20\n      add\n      mload(0x40)\n      swap1\n      dup2\n      add\n      0x40\n      mstore\n      dup1\n      swap3\n      swap2\n      swap1\n      dup2\n      dup2\n      mstore\n      0x20\n      add\n      dup3\n      dup1\n      sload\n      tag_411\n      swap1\n      tag_160\n      jump\t// in\n    tag_411:\n      dup1\n      iszero\n      tag_412\n      jumpi\n      dup1\n      0x1f\n      lt\n      tag_413\n      jumpi\n      0x0100\n      dup1\n      dup4\n      sload\n      div\n      mul\n      dup4\n      mstore\n      swap2\n      0x20\n      add\n      swap2\n      jump(tag_412)\n    tag_413:\n      dup3\n      add\n      swap2\n      swap1\n      0x00\n      mstore\n      keccak256(0x00, 0x20)\n      swap1\n    tag_414:\n      dup2\n      sload\n      dup2\n      mstore\n      swap1\n      0x01\n      add\n      swap1\n      0x20\n      add\n      dup1\n      dup4\n      gt\n      tag_414\n      jumpi\n      dup3\n      swap1\n      sub\n      0x1f\n      and\n      dup3\n      add\n      swap2\n    tag_412:\n      pop\n      pop\n      pop\n      pop\n      pop\n      swap1\n      pop\n        /* \"@thirdweb-dev/contracts/extension/ContractMetadata.sol\":1518:1522   */\n      dup2\n        /* \"@thirdweb-dev/contracts/extension/ContractMetadata.sol\":1504:1515   */\n      0x00\n        /* \"@thirdweb-dev/contracts/extension/ContractMetadata.sol\":1504:1522   */\n      swap1\n      dup2\n      tag_415\n      swap2\n      swap1\n      tag_416\n      jump\t// in\n    tag_415:\n      pop\n        /* \"@thirdweb-dev/contracts/extension/ContractMetadata.sol\":1538:1571   */\n      0xc9c7c3fe08b88b4df9d4d47ef47d2c43d55c025a0ba88ca442580ed9e7348a16\n        /* \"@thirdweb-dev/contracts/extension/ContractMetadata.sol\":1557:1564   */\n      dup2\n        /* \"@thirdweb-dev/contracts/extension/ContractMetadata.sol\":1566:1570   */\n      dup4\n        /* \"@thirdweb-dev/contracts/extension/ContractMetadata.sol\":1538:1571   */\n      mload(0x40)\n      tag_417\n      swap3\n      swap2\n      swap1\n      tag_418\n      jump\t// in\n    tag_417:\n      mload(0x40)\n      dup1\n      swap2\n      sub\n      swap1\n      log1\n        /* \"@thirdweb-dev/contracts/extension/ContractMetadata.sol\":1449:1578   */\n      pop\n        /* \"@thirdweb-dev/contracts/extension/ContractMetadata.sol\":1393:1578   */\n      pop\n      jump\t// out\n        /* \"@thirdweb-dev/contracts/lib/Address.sol\":6671:6869   */\n    tag_283:\n        /* \"@thirdweb-dev/contracts/lib/Address.sol\":6754:6766   */\n      0x60\n        /* \"@thirdweb-dev/contracts/lib/Address.sol\":6785:6862   */\n      tag_420\n        /* \"@thirdweb-dev/contracts/lib/Address.sol\":6806:6812   */\n      dup4\n        /* \"@thirdweb-dev/contracts/lib/Address.sol\":6814:6818   */\n      dup4\n        /* \"@thirdweb-dev/contracts/lib/Address.sol\":6785:6862   */\n      mload(0x40)\n      dup1\n      0x60\n      add\n      0x40\n      mstore\n      dup1\n      0x27\n      dup2\n      mstore\n      0x20\n      add\n      data_9fdcd12e4b726339b32a442b0a448365d5d85c96b2d2cff917b4f66c63110398\n      0x27\n      swap2\n      codecopy\n        /* \"@thirdweb-dev/contracts/lib/Address.sol\":6785:6805   */\n      tag_421\n        /* \"@thirdweb-dev/contracts/lib/Address.sol\":6785:6862   */\n      jump\t// in\n    tag_420:\n        /* \"@thirdweb-dev/contracts/lib/Address.sol\":6778:6862   */\n      swap4\n        /* \"@thirdweb-dev/contracts/lib/Address.sol\":6671:6869   */\n      swap3\n      pop\n      pop\n      pop\n      jump\t// out\n        /* \"@thirdweb-dev/contracts/external-deps/openzeppelin/token/ERC20/extensions/ERC20Permit.sol\":3865:4068   */\n    tag_310:\n      sub(shl(0xa0, 0x01), 0x01)\n        /* \"@thirdweb-dev/contracts/external-deps/openzeppelin/token/ERC20/extensions/ERC20Permit.sol\":3985:3999   */\n      dup2\n      and\n        /* \"@thirdweb-dev/contracts/external-deps/openzeppelin/token/ERC20/extensions/ERC20Permit.sol\":3925:3940   */\n      0x00\n        /* \"@thirdweb-dev/contracts/external-deps/openzeppelin/token/ERC20/extensions/ERC20Permit.sol\":3985:3999   */\n      swap1\n      dup2\n      mstore\n        /* \"@thirdweb-dev/contracts/external-deps/openzeppelin/token/ERC20/extensions/ERC20Permit.sol\":3985:3992   */\n      0x07\n        /* \"@thirdweb-dev/contracts/external-deps/openzeppelin/token/ERC20/extensions/ERC20Permit.sol\":3985:3999   */\n      0x20\n      mstore\n      0x40\n      swap1\n      keccak256\n        /* \"@thirdweb-dev/contracts/external-deps/openzeppelin/utils/Counters.sol\":918:932   */\n      dup1\n      sload\n        /* \"@thirdweb-dev/contracts/external-deps/openzeppelin/utils/Counters.sol\":1050:1051   */\n      0x01\n        /* \"@thirdweb-dev/contracts/external-deps/openzeppelin/utils/Counters.sol\":1032:1051   */\n      dup2\n      add\n      dup3\n      sstore\n        /* \"@thirdweb-dev/contracts/external-deps/openzeppelin/utils/Counters.sol\":918:932   */\n      swap1\n        /* \"@thirdweb-dev/contracts/external-deps/openzeppelin/token/ERC20/extensions/ERC20Permit.sol\":4044:4061   */\n    tag_424:\n        /* \"@thirdweb-dev/contracts/external-deps/openzeppelin/token/ERC20/extensions/ERC20Permit.sol\":3942:4068   */\n      pop\n        /* \"@thirdweb-dev/contracts/external-deps/openzeppelin/token/ERC20/extensions/ERC20Permit.sol\":3865:4068   */\n      swap2\n      swap1\n      pop\n      jump\t// out\n        /* \"@thirdweb-dev/contracts/external-deps/openzeppelin/utils/cryptography/ECDSA.sol\":6611:6843   */\n    tag_317:\n        /* \"@thirdweb-dev/contracts/external-deps/openzeppelin/utils/cryptography/ECDSA.sol\":6696:6703   */\n      0x00\n        /* \"@thirdweb-dev/contracts/external-deps/openzeppelin/utils/cryptography/ECDSA.sol\":6716:6733   */\n      dup1\n        /* \"@thirdweb-dev/contracts/external-deps/openzeppelin/utils/cryptography/ECDSA.sol\":6735:6753   */\n      0x00\n        /* \"@thirdweb-dev/contracts/external-deps/openzeppelin/utils/cryptography/ECDSA.sol\":6757:6782   */\n      tag_428\n        /* \"@thirdweb-dev/contracts/external-deps/openzeppelin/utils/cryptography/ECDSA.sol\":6768:6772   */\n      dup8\n        /* \"@thirdweb-dev/contracts/external-deps/openzeppelin/utils/cryptography/ECDSA.sol\":6774:6775   */\n      dup8\n        /* \"@thirdweb-dev/contracts/external-deps/openzeppelin/utils/cryptography/ECDSA.sol\":6777:6778   */\n      dup8\n        /* \"@thirdweb-dev/contracts/external-deps/openzeppelin/utils/cryptography/ECDSA.sol\":6780:6781   */\n      dup8\n        /* \"@thirdweb-dev/contracts/external-deps/openzeppelin/utils/cryptography/ECDSA.sol\":6757:6767   */\n      tag_429\n        /* \"@thirdweb-dev/contracts/external-deps/openzeppelin/utils/cryptography/ECDSA.sol\":6757:6782   */\n      jump\t// in\n    tag_428:\n        /* \"@thirdweb-dev/contracts/external-deps/openzeppelin/utils/cryptography/ECDSA.sol\":6715:6782   */\n      swap2\n      pop\n      swap2\n      pop\n        /* \"@thirdweb-dev/contracts/external-deps/openzeppelin/utils/cryptography/ECDSA.sol\":6792:6810   */\n      tag_430\n        /* \"@thirdweb-dev/contracts/external-deps/openzeppelin/utils/cryptography/ECDSA.sol\":6804:6809   */\n      dup2\n        /* \"@thirdweb-dev/contracts/external-deps/openzeppelin/utils/cryptography/ECDSA.sol\":6792:6803   */\n      tag_431\n        /* \"@thirdweb-dev/contracts/external-deps/openzeppelin/utils/cryptography/ECDSA.sol\":6792:6810   */\n      jump\t// in\n    tag_430:\n      pop\n        /* \"@thirdweb-dev/contracts/external-deps/openzeppelin/utils/cryptography/ECDSA.sol\":6827:6836   */\n      swap1\n      pop\n        /* \"@thirdweb-dev/contracts/external-deps/openzeppelin/utils/cryptography/ECDSA.sol\":6611:6843   */\n    tag_427:\n      swap5\n      swap4\n      pop\n      pop\n      pop\n      pop\n      jump\t// out\n        /* \"@thirdweb-dev/contracts/lib/Address.sol\":7055:7380   */\n    tag_421:\n        /* \"@thirdweb-dev/contracts/lib/Address.sol\":7196:7208   */\n      0x60\n        /* \"@thirdweb-dev/contracts/lib/Address.sol\":7221:7233   */\n      0x00\n        /* \"@thirdweb-dev/contracts/lib/Address.sol\":7235:7258   */\n      dup1\n        /* \"@thirdweb-dev/contracts/lib/Address.sol\":7262:7268   */\n      dup6\n      sub(shl(0xa0, 0x01), 0x01)\n        /* \"@thirdweb-dev/contracts/lib/Address.sol\":7262:7281   */\n      and\n        /* \"@thirdweb-dev/contracts/lib/Address.sol\":7282:7286   */\n      dup6\n        /* \"@thirdweb-dev/contracts/lib/Address.sol\":7262:7287   */\n      mload(0x40)\n      tag_435\n      swap2\n      swap1\n      tag_436\n      jump\t// in\n    tag_435:\n      0x00\n      mload(0x40)\n      dup1\n      dup4\n      sub\n      dup2\n      dup6\n      gas\n      delegatecall\n      swap2\n      pop\n      pop\n      returndatasize\n      dup1\n      0x00\n      dup2\n      eq\n      tag_439\n      jumpi\n      mload(0x40)\n      swap2\n      pop\n      and(add(returndatasize, 0x3f), not(0x1f))\n      dup3\n      add\n      0x40\n      mstore\n      returndatasize\n      dup3\n      mstore\n      returndatasize\n      0x00\n      0x20\n      dup5\n      add\n      returndatacopy\n      jump(tag_438)\n    tag_439:\n      0x60\n      swap2\n      pop\n    tag_438:\n      pop\n        /* \"@thirdweb-dev/contracts/lib/Address.sol\":7220:7287   */\n      swap2\n      pop\n      swap2\n      pop\n        /* \"@thirdweb-dev/contracts/lib/Address.sol\":7304:7373   */\n      tag_440\n        /* \"@thirdweb-dev/contracts/lib/Address.sol\":7331:7337   */\n      dup7\n        /* \"@thirdweb-dev/contracts/lib/Address.sol\":7339:7346   */\n      dup4\n        /* \"@thirdweb-dev/contracts/lib/Address.sol\":7348:7358   */\n      dup4\n        /* \"@thirdweb-dev/contracts/lib/Address.sol\":7360:7372   */\n      dup8\n        /* \"@thirdweb-dev/contracts/lib/Address.sol\":7304:7330   */\n      tag_441\n        /* \"@thirdweb-dev/contracts/lib/Address.sol\":7304:7373   */\n      jump\t// in\n    tag_440:\n        /* \"@thirdweb-dev/contracts/lib/Address.sol\":7297:7373   */\n      swap7\n        /* \"@thirdweb-dev/contracts/lib/Address.sol\":7055:7380   */\n      swap6\n      pop\n      pop\n      pop\n      pop\n      pop\n      pop\n      jump\t// out\n        /* \"@thirdweb-dev/contracts/external-deps/openzeppelin/utils/cryptography/ECDSA.sol\":5022:6478   */\n    tag_429:\n        /* \"@thirdweb-dev/contracts/external-deps/openzeppelin/utils/cryptography/ECDSA.sol\":5110:5117   */\n      0x00\n      dup1\n        /* \"@thirdweb-dev/contracts/external-deps/openzeppelin/utils/cryptography/ECDSA.sol\":6034:6100   */\n      0x7fffffffffffffffffffffffffffffff5d576e7357a4501ddfe92f46681b20a0\n        /* \"@thirdweb-dev/contracts/external-deps/openzeppelin/utils/cryptography/ECDSA.sol\":6021:6100   */\n      dup4\n      gt\n        /* \"@thirdweb-dev/contracts/external-deps/openzeppelin/utils/cryptography/ECDSA.sol\":6017:6178   */\n      iszero\n      tag_444\n      jumpi\n      pop\n        /* \"@thirdweb-dev/contracts/external-deps/openzeppelin/utils/cryptography/ECDSA.sol\":6132:6133   */\n      0x00\n      swap1\n      pop\n        /* \"@thirdweb-dev/contracts/external-deps/openzeppelin/utils/cryptography/ECDSA.sol\":6136:6166   */\n      0x03\n        /* \"@thirdweb-dev/contracts/external-deps/openzeppelin/utils/cryptography/ECDSA.sol\":6116:6167   */\n      jump(tag_443)\n        /* \"@thirdweb-dev/contracts/external-deps/openzeppelin/utils/cryptography/ECDSA.sol\":6017:6178   */\n    tag_444:\n        /* \"@thirdweb-dev/contracts/external-deps/openzeppelin/utils/cryptography/ECDSA.sol\":6289:6313   */\n      0x40\n      dup1\n      mload\n        /* \"@thirdweb-dev/contracts/external-deps/openzeppelin/utils/cryptography/ECDSA.sol\":6272:6286   */\n      0x00\n        /* \"@thirdweb-dev/contracts/external-deps/openzeppelin/utils/cryptography/ECDSA.sol\":6289:6313   */\n      dup1\n      dup3\n      mstore\n      0x20\n      dup3\n      add\n      dup1\n      dup5\n      mstore\n        /* \"#utility.yul\":21957:21982   */\n      dup10\n      swap1\n      mstore\n        /* \"#utility.yul\":22030:22034   */\n      0xff\n        /* \"#utility.yul\":22018:22035   */\n      dup9\n      and\n        /* \"#utility.yul\":21998:22016   */\n      swap3\n      dup3\n      add\n        /* \"#utility.yul\":21991:22036   */\n      swap3\n      swap1\n      swap3\n      mstore\n        /* \"#utility.yul\":22052:22070   */\n      0x60\n      dup2\n      add\n        /* \"#utility.yul\":22045:22079   */\n      dup7\n      swap1\n      mstore\n        /* \"#utility.yul\":22095:22113   */\n      0x80\n      dup2\n      add\n        /* \"#utility.yul\":22088:22122   */\n      dup6\n      swap1\n      mstore\n        /* \"@thirdweb-dev/contracts/external-deps/openzeppelin/utils/cryptography/ECDSA.sol\":6289:6313   */\n      0x01\n      swap1\n        /* \"#utility.yul\":21929:21948   */\n      0xa0\n      add\n        /* \"@thirdweb-dev/contracts/external-deps/openzeppelin/utils/cryptography/ECDSA.sol\":6289:6313   */\n      0x20\n      mload(0x40)\n      0x20\n      dup2\n      sub\n      swap1\n      dup1\n      dup5\n      sub\n      swap1\n      dup6\n      gas\n      staticcall\n      iszero\n      dup1\n      iszero\n      tag_448\n      jumpi\n      returndatasize\n      0x00\n      dup1\n      returndatacopy\n      revert(0x00, returndatasize)\n    tag_448:\n      pop\n      pop\n      mload(add(not(0x1f), mload(0x40)))\n      swap2\n      pop\n      pop\n      sub(shl(0xa0, 0x01), 0x01)\n        /* \"@thirdweb-dev/contracts/external-deps/openzeppelin/utils/cryptography/ECDSA.sol\":6327:6347   */\n      dup2\n      and\n        /* \"@thirdweb-dev/contracts/external-deps/openzeppelin/utils/cryptography/ECDSA.sol\":6323:6424   */\n      tag_449\n      jumpi\n        /* \"@thirdweb-dev/contracts/external-deps/openzeppelin/utils/cryptography/ECDSA.sol\":6379:6380   */\n      0x00\n        /* \"@thirdweb-dev/contracts/external-deps/openzeppelin/utils/cryptography/ECDSA.sol\":6383:6412   */\n      0x01\n        /* \"@thirdweb-dev/contracts/external-deps/openzeppelin/utils/cryptography/ECDSA.sol\":6363:6413   */\n      swap3\n      pop\n      swap3\n      pop\n      pop\n      jump(tag_443)\n        /* \"@thirdweb-dev/contracts/external-deps/openzeppelin/utils/cryptography/ECDSA.sol\":6323:6424   */\n    tag_449:\n        /* \"@thirdweb-dev/contracts/external-deps/openzeppelin/utils/cryptography/ECDSA.sol\":6442:6448   */\n      swap2\n      pop\n        /* \"@thirdweb-dev/contracts/external-deps/openzeppelin/utils/cryptography/ECDSA.sol\":6450:6470   */\n      0x00\n      swap1\n      pop\n        /* \"@thirdweb-dev/contracts/external-deps/openzeppelin/utils/cryptography/ECDSA.sol\":5022:6478   */\n    tag_443:\n      swap5\n      pop\n      swap5\n      swap3\n      pop\n      pop\n      pop\n      jump\t// out\n        /* \"@thirdweb-dev/contracts/external-deps/openzeppelin/utils/cryptography/ECDSA.sol\":583:1094   */\n    tag_431:\n        /* \"@thirdweb-dev/contracts/external-deps/openzeppelin/utils/cryptography/ECDSA.sol\":660:680   */\n      0x00\n        /* \"@thirdweb-dev/contracts/external-deps/openzeppelin/utils/cryptography/ECDSA.sol\":651:656   */\n      dup2\n        /* \"@thirdweb-dev/contracts/external-deps/openzeppelin/utils/cryptography/ECDSA.sol\":651:680   */\n      0x04\n      dup2\n      gt\n      iszero\n      tag_454\n      jumpi\n      tag_454\n      tag_331\n      jump\t// in\n    tag_454:\n      sub\n        /* \"@thirdweb-dev/contracts/external-deps/openzeppelin/utils/cryptography/ECDSA.sol\":647:1088   */\n      tag_455\n      jumpi\n        /* \"@thirdweb-dev/contracts/external-deps/openzeppelin/utils/cryptography/ECDSA.sol\":583:1094   */\n      pop\n      jump\t// out\n        /* \"@thirdweb-dev/contracts/external-deps/openzeppelin/utils/cryptography/ECDSA.sol\":647:1088   */\n    tag_455:\n        /* \"@thirdweb-dev/contracts/external-deps/openzeppelin/utils/cryptography/ECDSA.sol\":756:785   */\n      0x01\n        /* \"@thirdweb-dev/contracts/external-deps/openzeppelin/utils/cryptography/ECDSA.sol\":747:752   */\n      dup2\n        /* \"@thirdweb-dev/contracts/external-deps/openzeppelin/utils/cryptography/ECDSA.sol\":747:785   */\n      0x04\n      dup2\n      gt\n      iszero\n      tag_460\n      jumpi\n      tag_460\n      tag_331\n      jump\t// in\n    tag_460:\n      sub\n        /* \"@thirdweb-dev/contracts/external-deps/openzeppelin/utils/cryptography/ECDSA.sol\":743:1088   */\n      tag_461\n      jumpi\n        /* \"@thirdweb-dev/contracts/external-deps/openzeppelin/utils/cryptography/ECDSA.sol\":801:835   */\n      mload(0x40)\n      shl(0xe5, 0x461bcd)\n      dup2\n      mstore\n        /* \"#utility.yul\":22335:22337   */\n      0x20\n        /* \"@thirdweb-dev/contracts/external-deps/openzeppelin/utils/cryptography/ECDSA.sol\":801:835   */\n      0x04\n      dup3\n      add\n        /* \"#utility.yul\":22317:22338   */\n      mstore\n        /* \"#utility.yul\":22374:22376   */\n      0x18\n        /* \"#utility.yul\":22354:22372   */\n      0x24\n      dup3\n      add\n        /* \"#utility.yul\":22347:22377   */\n      mstore\n        /* \"#utility.yul\":22413:22439   */\n      0x45434453413a20696e76616c6964207369676e61747572650000000000000000\n        /* \"#utility.yul\":22393:22411   */\n      0x44\n      dup3\n      add\n        /* \"#utility.yul\":22386:22440   */\n      mstore\n        /* \"#utility.yul\":22457:22475   */\n      0x64\n      add\n        /* \"@thirdweb-dev/contracts/external-deps/openzeppelin/utils/cryptography/ECDSA.sol\":801:835   */\n      tag_172\n        /* \"#utility.yul\":22133:22481   */\n      jump\n        /* \"@thirdweb-dev/contracts/external-deps/openzeppelin/utils/cryptography/ECDSA.sol\":743:1088   */\n    tag_461:\n        /* \"@thirdweb-dev/contracts/external-deps/openzeppelin/utils/cryptography/ECDSA.sol\":865:900   */\n      0x02\n        /* \"@thirdweb-dev/contracts/external-deps/openzeppelin/utils/cryptography/ECDSA.sol\":856:861   */\n      dup2\n        /* \"@thirdweb-dev/contracts/external-deps/openzeppelin/utils/cryptography/ECDSA.sol\":856:900   */\n      0x04\n      dup2\n      gt\n      iszero\n      tag_468\n      jumpi\n      tag_468\n      tag_331\n      jump\t// in\n    tag_468:\n      sub\n        /* \"@thirdweb-dev/contracts/external-deps/openzeppelin/utils/cryptography/ECDSA.sol\":852:1088   */\n      tag_469\n      jumpi\n        /* \"@thirdweb-dev/contracts/external-deps/openzeppelin/utils/cryptography/ECDSA.sol\":916:957   */\n      mload(0x40)\n      shl(0xe5, 0x461bcd)\n      dup2\n      mstore\n        /* \"#utility.yul\":22688:22690   */\n      0x20\n        /* \"@thirdweb-dev/contracts/external-deps/openzeppelin/utils/cryptography/ECDSA.sol\":916:957   */\n      0x04\n      dup3\n      add\n        /* \"#utility.yul\":22670:22691   */\n      mstore\n        /* \"#utility.yul\":22727:22729   */\n      0x1f\n        /* \"#utility.yul\":22707:22725   */\n      0x24\n      dup3\n      add\n        /* \"#utility.yul\":22700:22730   */\n      mstore\n        /* \"#utility.yul\":22766:22799   */\n      0x45434453413a20696e76616c6964207369676e6174757265206c656e67746800\n        /* \"#utility.yul\":22746:22764   */\n      0x44\n      dup3\n      add\n        /* \"#utility.yul\":22739:22800   */\n      mstore\n        /* \"#utility.yul\":22817:22835   */\n      0x64\n      add\n        /* \"@thirdweb-dev/contracts/external-deps/openzeppelin/utils/cryptography/ECDSA.sol\":916:957   */\n      tag_172\n        /* \"#utility.yul\":22486:22841   */\n      jump\n        /* \"@thirdweb-dev/contracts/external-deps/openzeppelin/utils/cryptography/ECDSA.sol\":852:1088   */\n    tag_469:\n        /* \"@thirdweb-dev/contracts/external-deps/openzeppelin/utils/cryptography/ECDSA.sol\":987:1017   */\n      0x03\n        /* \"@thirdweb-dev/contracts/external-deps/openzeppelin/utils/cryptography/ECDSA.sol\":978:983   */\n      dup2\n        /* \"@thirdweb-dev/contracts/external-deps/openzeppelin/utils/cryptography/ECDSA.sol\":978:1017   */\n      0x04\n      dup2\n      gt\n      iszero\n      tag_476\n      jumpi\n      tag_476\n      tag_331\n      jump\t// in\n    tag_476:\n      sub\n        /* \"@thirdweb-dev/contracts/external-deps/openzeppelin/utils/cryptography/ECDSA.sol\":974:1088   */\n      tag_185\n      jumpi\n        /* \"@thirdweb-dev/contracts/external-deps/openzeppelin/utils/cryptography/ECDSA.sol\":1033:1077   */\n      mload(0x40)\n      shl(0xe5, 0x461bcd)\n      dup2\n      mstore\n        /* \"#utility.yul\":23048:23050   */\n      0x20\n        /* \"@thirdweb-dev/contracts/external-deps/openzeppelin/utils/cryptography/ECDSA.sol\":1033:1077   */\n      0x04\n      dup3\n      add\n        /* \"#utility.yul\":23030:23051   */\n      mstore\n        /* \"#utility.yul\":23087:23089   */\n      0x22\n        /* \"#utility.yul\":23067:23085   */\n      0x24\n      dup3\n      add\n        /* \"#utility.yul\":23060:23090   */\n      mstore\n        /* \"#utility.yul\":23126:23160   */\n      0x45434453413a20696e76616c6964207369676e6174757265202773272076616c\n        /* \"#utility.yul\":23106:23124   */\n      0x44\n      dup3\n      add\n        /* \"#utility.yul\":23099:23161   */\n      mstore\n      shl(0xf0, 0x7565)\n        /* \"#utility.yul\":23177:23195   */\n      0x64\n      dup3\n      add\n        /* \"#utility.yul\":23170:23202   */\n      mstore\n        /* \"#utility.yul\":23219:23238   */\n      0x84\n      add\n        /* \"@thirdweb-dev/contracts/external-deps/openzeppelin/utils/cryptography/ECDSA.sol\":1033:1077   */\n      tag_172\n        /* \"#utility.yul\":22846:23244   */\n      jump\n        /* \"@thirdweb-dev/contracts/lib/Address.sol\":7668:8296   */\n    tag_441:\n        /* \"@thirdweb-dev/contracts/lib/Address.sol\":7848:7860   */\n      0x60\n        /* \"@thirdweb-dev/contracts/lib/Address.sol\":7876:7883   */\n      dup4\n        /* \"@thirdweb-dev/contracts/lib/Address.sol\":7872:8290   */\n      iszero\n      tag_481\n      jumpi\n        /* \"@thirdweb-dev/contracts/lib/Address.sol\":7903:7913   */\n      dup3\n        /* \"@thirdweb-dev/contracts/lib/Address.sol\":7903:7920   */\n      mload\n        /* \"@thirdweb-dev/contracts/lib/Address.sol\":7924:7925   */\n      0x00\n        /* \"@thirdweb-dev/contracts/lib/Address.sol\":7903:7925   */\n      sub\n        /* \"@thirdweb-dev/contracts/lib/Address.sol\":7899:8185   */\n      tag_485\n      jumpi\n      sub(shl(0xa0, 0x01), 0x01)\n        /* \"@thirdweb-dev/contracts/lib/Address.sol\":1695:1714   */\n      dup6\n      and\n      extcodesize\n        /* \"@thirdweb-dev/contracts/lib/Address.sol\":8110:8170   */\n      tag_485\n      jumpi\n      mload(0x40)\n      shl(0xe5, 0x461bcd)\n      dup2\n      mstore\n        /* \"#utility.yul\":23451:23453   */\n      0x20\n        /* \"@thirdweb-dev/contracts/lib/Address.sol\":8110:8170   */\n      0x04\n      dup3\n      add\n        /* \"#utility.yul\":23433:23454   */\n      mstore\n        /* \"#utility.yul\":23490:23492   */\n      0x1d\n        /* \"#utility.yul\":23470:23488   */\n      0x24\n      dup3\n      add\n        /* \"#utility.yul\":23463:23493   */\n      mstore\n        /* \"#utility.yul\":23529:23560   */\n      0x416464726573733a2063616c6c20746f206e6f6e2d636f6e7472616374000000\n        /* \"#utility.yul\":23509:23527   */\n      0x44\n      dup3\n      add\n        /* \"#utility.yul\":23502:23561   */\n      mstore\n        /* \"#utility.yul\":23578:23596   */\n      0x64\n      add\n        /* \"@thirdweb-dev/contracts/lib/Address.sol\":8110:8170   */\n      tag_172\n        /* \"#utility.yul\":23249:23602   */\n      jump\n        /* \"@thirdweb-dev/contracts/lib/Address.sol\":8110:8170   */\n    tag_485:\n      pop\n        /* \"@thirdweb-dev/contracts/lib/Address.sol\":8205:8215   */\n      dup2\n        /* \"@thirdweb-dev/contracts/lib/Address.sol\":8198:8215   */\n      jump(tag_427)\n        /* \"@thirdweb-dev/contracts/lib/Address.sol\":7872:8290   */\n    tag_481:\n        /* \"@thirdweb-dev/contracts/lib/Address.sol\":8246:8279   */\n      tag_427\n        /* \"@thirdweb-dev/contracts/lib/Address.sol\":8254:8264   */\n      dup4\n        /* \"@thirdweb-dev/contracts/lib/Address.sol\":8266:8278   */\n      dup4\n        /* \"@thirdweb-dev/contracts/lib/Address.sol\":8977:8994   */\n      dup2\n      mload\n        /* \"@thirdweb-dev/contracts/lib/Address.sol\":8977:8998   */\n      iszero\n        /* \"@thirdweb-dev/contracts/lib/Address.sol\":8973:9352   */\n      tag_493\n      jumpi\n        /* \"@thirdweb-dev/contracts/lib/Address.sol\":9205:9215   */\n      dup2\n        /* \"@thirdweb-dev/contracts/lib/Address.sol\":9199:9216   */\n      mload\n        /* \"@thirdweb-dev/contracts/lib/Address.sol\":9261:9276   */\n      dup1\n        /* \"@thirdweb-dev/contracts/lib/Address.sol\":9248:9258   */\n      dup4\n        /* \"@thirdweb-dev/contracts/lib/Address.sol\":9244:9246   */\n      0x20\n        /* \"@thirdweb-dev/contracts/lib/Address.sol\":9240:9259   */\n      add\n        /* \"@thirdweb-dev/contracts/lib/Address.sol\":9233:9277   */\n      revert\n        /* \"@thirdweb-dev/contracts/lib/Address.sol\":8973:9352   */\n    tag_493:\n        /* \"@thirdweb-dev/contracts/lib/Address.sol\":9328:9340   */\n      dup1\n        /* \"@thirdweb-dev/contracts/lib/Address.sol\":9321:9341   */\n      mload(0x40)\n      shl(0xe5, 0x461bcd)\n      dup2\n      mstore\n      0x04\n      add\n      tag_172\n      swap2\n      swap1\n      tag_43\n      jump\t// in\n        /* \"#utility.yul\":14:303   */\n    tag_496:\n        /* \"#utility.yul\":56:59   */\n      0x00\n        /* \"#utility.yul\":94:99   */\n      dup2\n        /* \"#utility.yul\":88:100   */\n      mload\n        /* \"#utility.yul\":121:127   */\n      dup1\n        /* \"#utility.yul\":116:119   */\n      dup5\n        /* \"#utility.yul\":109:128   */\n      mstore\n        /* \"#utility.yul\":177:183   */\n      dup1\n        /* \"#utility.yul\":170:174   */\n      0x20\n        /* \"#utility.yul\":163:168   */\n      dup5\n        /* \"#utility.yul\":159:175   */\n      add\n        /* \"#utility.yul\":152:156   */\n      0x20\n        /* \"#utility.yul\":147:150   */\n      dup7\n        /* \"#utility.yul\":143:157   */\n      add\n        /* \"#utility.yul\":137:184   */\n      mcopy\n        /* \"#utility.yul\":229:230   */\n      0x00\n        /* \"#utility.yul\":222:226   */\n      0x20\n        /* \"#utility.yul\":213:219   */\n      dup3\n        /* \"#utility.yul\":208:211   */\n      dup7\n        /* \"#utility.yul\":204:220   */\n      add\n        /* \"#utility.yul\":200:227   */\n      add\n        /* \"#utility.yul\":193:231   */\n      mstore\n        /* \"#utility.yul\":292:296   */\n      0x20\n        /* \"#utility.yul\":285:287   */\n      0x1f\n        /* \"#utility.yul\":281:288   */\n      not\n        /* \"#utility.yul\":276:278   */\n      0x1f\n        /* \"#utility.yul\":268:274   */\n      dup4\n        /* \"#utility.yul\":264:279   */\n      add\n        /* \"#utility.yul\":260:289   */\n      and\n        /* \"#utility.yul\":255:258   */\n      dup6\n        /* \"#utility.yul\":251:290   */\n      add\n        /* \"#utility.yul\":247:297   */\n      add\n        /* \"#utility.yul\":240:297   */\n      swap2\n      pop\n      pop\n        /* \"#utility.yul\":14:303   */\n      swap3\n      swap2\n      pop\n      pop\n      jump\t// out\n        /* \"#utility.yul\":308:528   */\n    tag_43:\n        /* \"#utility.yul\":457:459   */\n      0x20\n        /* \"#utility.yul\":446:455   */\n      dup2\n        /* \"#utility.yul\":439:460   */\n      mstore\n        /* \"#utility.yul\":420:424   */\n      0x00\n        /* \"#utility.yul\":477:522   */\n      tag_420\n        /* \"#utility.yul\":518:520   */\n      0x20\n        /* \"#utility.yul\":507:516   */\n      dup4\n        /* \"#utility.yul\":503:521   */\n      add\n        /* \"#utility.yul\":495:501   */\n      dup5\n        /* \"#utility.yul\":477:522   */\n      tag_496\n      jump\t// in\n        /* \"#utility.yul\":533:729   */\n    tag_497:\n        /* \"#utility.yul\":601:621   */\n      dup1\n      calldataload\n      sub(shl(0xa0, 0x01), 0x01)\n        /* \"#utility.yul\":650:704   */\n      dup2\n      and\n        /* \"#utility.yul\":640:705   */\n      dup2\n      eq\n        /* \"#utility.yul\":630:723   */\n      tag_508\n      jumpi\n        /* \"#utility.yul\":719:720   */\n      0x00\n        /* \"#utility.yul\":716:717   */\n      dup1\n        /* \"#utility.yul\":709:721   */\n      revert\n        /* \"#utility.yul\":630:723   */\n    tag_508:\n        /* \"#utility.yul\":533:729   */\n      swap2\n      swap1\n      pop\n      jump\t// out\n        /* \"#utility.yul\":734:988   */\n    tag_46:\n        /* \"#utility.yul\":802:808   */\n      0x00\n        /* \"#utility.yul\":810:816   */\n      dup1\n        /* \"#utility.yul\":863:865   */\n      0x40\n        /* \"#utility.yul\":851:860   */\n      dup4\n        /* \"#utility.yul\":842:849   */\n      dup6\n        /* \"#utility.yul\":838:861   */\n      sub\n        /* \"#utility.yul\":834:866   */\n      slt\n        /* \"#utility.yul\":831:883   */\n      iszero\n      tag_510\n      jumpi\n        /* \"#utility.yul\":879:880   */\n      0x00\n        /* \"#utility.yul\":876:877   */\n      dup1\n        /* \"#utility.yul\":869:881   */\n      revert\n        /* \"#utility.yul\":831:883   */\n    tag_510:\n        /* \"#utility.yul\":902:931   */\n      tag_511\n        /* \"#utility.yul\":921:930   */\n      dup4\n        /* \"#utility.yul\":902:931   */\n      tag_497\n      jump\t// in\n    tag_511:\n        /* \"#utility.yul\":892:931   */\n      swap5\n        /* \"#utility.yul\":978:980   */\n      0x20\n        /* \"#utility.yul\":963:981   */\n      swap4\n      swap1\n      swap4\n      add\n        /* \"#utility.yul\":950:982   */\n      calldataload\n      swap4\n      pop\n      pop\n      pop\n        /* \"#utility.yul\":734:988   */\n      jump\t// out\n        /* \"#utility.yul\":1367:1553   */\n    tag_59:\n        /* \"#utility.yul\":1426:1432   */\n      0x00\n        /* \"#utility.yul\":1479:1481   */\n      0x20\n        /* \"#utility.yul\":1467:1476   */\n      dup3\n        /* \"#utility.yul\":1458:1465   */\n      dup5\n        /* \"#utility.yul\":1454:1477   */\n      sub\n        /* \"#utility.yul\":1450:1482   */\n      slt\n        /* \"#utility.yul\":1447:1499   */\n      iszero\n      tag_515\n      jumpi\n        /* \"#utility.yul\":1495:1496   */\n      0x00\n        /* \"#utility.yul\":1492:1493   */\n      dup1\n        /* \"#utility.yul\":1485:1497   */\n      revert\n        /* \"#utility.yul\":1447:1499   */\n    tag_515:\n        /* \"#utility.yul\":1518:1547   */\n      tag_420\n        /* \"#utility.yul\":1537:1546   */\n      dup3\n        /* \"#utility.yul\":1518:1547   */\n      tag_497\n      jump\t// in\n        /* \"#utility.yul\":1558:1886   */\n    tag_66:\n        /* \"#utility.yul\":1635:1641   */\n      0x00\n        /* \"#utility.yul\":1643:1649   */\n      dup1\n        /* \"#utility.yul\":1651:1657   */\n      0x00\n        /* \"#utility.yul\":1704:1706   */\n      0x60\n        /* \"#utility.yul\":1692:1701   */\n      dup5\n        /* \"#utility.yul\":1683:1690   */\n      dup7\n        /* \"#utility.yul\":1679:1702   */\n      sub\n        /* \"#utility.yul\":1675:1707   */\n      slt\n        /* \"#utility.yul\":1672:1724   */\n      iszero\n      tag_518\n      jumpi\n        /* \"#utility.yul\":1720:1721   */\n      0x00\n        /* \"#utility.yul\":1717:1718   */\n      dup1\n        /* \"#utility.yul\":1710:1722   */\n      revert\n        /* \"#utility.yul\":1672:1724   */\n    tag_518:\n        /* \"#utility.yul\":1743:1772   */\n      tag_519\n        /* \"#utility.yul\":1762:1771   */\n      dup5\n        /* \"#utility.yul\":1743:1772   */\n      tag_497\n      jump\t// in\n    tag_519:\n        /* \"#utility.yul\":1733:1772   */\n      swap3\n      pop\n        /* \"#utility.yul\":1791:1829   */\n      tag_520\n        /* \"#utility.yul\":1825:1827   */\n      0x20\n        /* \"#utility.yul\":1814:1823   */\n      dup6\n        /* \"#utility.yul\":1810:1828   */\n      add\n        /* \"#utility.yul\":1791:1829   */\n      tag_497\n      jump\t// in\n    tag_520:\n        /* \"#utility.yul\":1781:1829   */\n      swap2\n      pop\n        /* \"#utility.yul\":1876:1878   */\n      0x40\n        /* \"#utility.yul\":1865:1874   */\n      dup5\n        /* \"#utility.yul\":1861:1879   */\n      add\n        /* \"#utility.yul\":1848:1880   */\n      calldataload\n        /* \"#utility.yul\":1838:1880   */\n      swap1\n      pop\n        /* \"#utility.yul\":1558:1886   */\n      swap3\n      pop\n      swap3\n      pop\n      swap3\n      jump\t// out\n        /* \"#utility.yul\":2262:2442   */\n    tag_83:\n        /* \"#utility.yul\":2321:2327   */\n      0x00\n        /* \"#utility.yul\":2374:2376   */\n      0x20\n        /* \"#utility.yul\":2362:2371   */\n      dup3\n        /* \"#utility.yul\":2353:2360   */\n      dup5\n        /* \"#utility.yul\":2349:2372   */\n      sub\n        /* \"#utility.yul\":2345:2377   */\n      slt\n        /* \"#utility.yul\":2342:2394   */\n      iszero\n      tag_524\n      jumpi\n        /* \"#utility.yul\":2390:2391   */\n      0x00\n        /* \"#utility.yul\":2387:2388   */\n      dup1\n        /* \"#utility.yul\":2380:2392   */\n      revert\n        /* \"#utility.yul\":2342:2394   */\n    tag_524:\n      pop\n        /* \"#utility.yul\":2413:2436   */\n      calldataload\n      swap2\n        /* \"#utility.yul\":2262:2442   */\n      swap1\n      pop\n      jump\t// out\n        /* \"#utility.yul\":2447:2695   */\n    tag_94:\n        /* \"#utility.yul\":2515:2521   */\n      0x00\n        /* \"#utility.yul\":2523:2529   */\n      dup1\n        /* \"#utility.yul\":2576:2578   */\n      0x40\n        /* \"#utility.yul\":2564:2573   */\n      dup4\n        /* \"#utility.yul\":2555:2562   */\n      dup6\n        /* \"#utility.yul\":2551:2574   */\n      sub\n        /* \"#utility.yul\":2547:2579   */\n      slt\n        /* \"#utility.yul\":2544:2596   */\n      iszero\n      tag_526\n      jumpi\n        /* \"#utility.yul\":2592:2593   */\n      0x00\n        /* \"#utility.yul\":2589:2590   */\n      dup1\n        /* \"#utility.yul\":2582:2594   */\n      revert\n        /* \"#utility.yul\":2544:2596   */\n    tag_526:\n      pop\n      pop\n        /* \"#utility.yul\":2615:2638   */\n      dup1\n      calldataload\n      swap3\n        /* \"#utility.yul\":2685:2687   */\n      0x20\n        /* \"#utility.yul\":2670:2688   */\n      swap1\n      swap2\n      add\n        /* \"#utility.yul\":2657:2689   */\n      calldataload\n      swap2\n      pop\n        /* \"#utility.yul\":2447:2695   */\n      jump\t// out\n        /* \"#utility.yul\":2700:2827   */\n    tag_331:\n        /* \"#utility.yul\":2761:2771   */\n      0x4e487b71\n        /* \"#utility.yul\":2756:2759   */\n      0xe0\n        /* \"#utility.yul\":2752:2772   */\n      shl\n        /* \"#utility.yul\":2749:2750   */\n      0x00\n        /* \"#utility.yul\":2742:2773   */\n      mstore\n        /* \"#utility.yul\":2792:2796   */\n      0x21\n        /* \"#utility.yul\":2789:2790   */\n      0x04\n        /* \"#utility.yul\":2782:2797   */\n      mstore\n        /* \"#utility.yul\":2816:2820   */\n      0x24\n        /* \"#utility.yul\":2813:2814   */\n      0x00\n        /* \"#utility.yul\":2806:2821   */\n      revert\n        /* \"#utility.yul\":2832:3064   */\n    tag_498:\n        /* \"#utility.yul\":2908:2909   */\n      0x02\n        /* \"#utility.yul\":2901:2906   */\n      dup2\n        /* \"#utility.yul\":2898:2910   */\n      lt\n        /* \"#utility.yul\":2888:3031   */\n      tag_529\n      jumpi\n        /* \"#utility.yul\":2953:2963   */\n      0x4e487b71\n        /* \"#utility.yul\":2948:2951   */\n      0xe0\n        /* \"#utility.yul\":2944:2964   */\n      shl\n        /* \"#utility.yul\":2941:2942   */\n      0x00\n        /* \"#utility.yul\":2934:2965   */\n      mstore\n        /* \"#utility.yul\":2988:2992   */\n      0x21\n        /* \"#utility.yul\":2985:2986   */\n      0x04\n        /* \"#utility.yul\":2978:2993   */\n      mstore\n        /* \"#utility.yul\":3016:3020   */\n      0x24\n        /* \"#utility.yul\":3013:3014   */\n      0x00\n        /* \"#utility.yul\":3006:3021   */\n      revert\n        /* \"#utility.yul\":2888:3031   */\n    tag_529:\n        /* \"#utility.yul\":3040:3058   */\n      swap1\n      mstore\n        /* \"#utility.yul\":2832:3064   */\n      jump\t// out\n        /* \"#utility.yul\":3069:3528   */\n    tag_97:\n      sub(shl(0xa0, 0x01), 0x01)\n        /* \"#utility.yul\":3323:3378   */\n      dup6\n      and\n        /* \"#utility.yul\":3305:3379   */\n      dup2\n      mstore\n        /* \"#utility.yul\":3292:3295   */\n      0x80\n        /* \"#utility.yul\":3277:3296   */\n      dup2\n      add\n        /* \"#utility.yul\":3388:3436   */\n      tag_531\n        /* \"#utility.yul\":3432:3434   */\n      0x20\n        /* \"#utility.yul\":3417:3435   */\n      dup4\n      add\n        /* \"#utility.yul\":3409:3415   */\n      dup7\n        /* \"#utility.yul\":3388:3436   */\n      tag_498\n      jump\t// in\n    tag_531:\n        /* \"#utility.yul\":3467:3469   */\n      0x40\n        /* \"#utility.yul\":3452:3470   */\n      dup3\n      add\n        /* \"#utility.yul\":3445:3479   */\n      swap4\n      swap1\n      swap4\n      mstore\n        /* \"#utility.yul\":3510:3512   */\n      0x60\n        /* \"#utility.yul\":3495:3513   */\n      add\n        /* \"#utility.yul\":3488:3522   */\n      mstore\n        /* \"#utility.yul\":3069:3528   */\n      swap3\n      swap2\n      pop\n      pop\n      jump\t// out\n        /* \"#utility.yul\":3764:3891   */\n    tag_267:\n        /* \"#utility.yul\":3825:3835   */\n      0x4e487b71\n        /* \"#utility.yul\":3820:3823   */\n      0xe0\n        /* \"#utility.yul\":3816:3836   */\n      shl\n        /* \"#utility.yul\":3813:3814   */\n      0x00\n        /* \"#utility.yul\":3806:3837   */\n      mstore\n        /* \"#utility.yul\":3856:3860   */\n      0x41\n        /* \"#utility.yul\":3853:3854   */\n      0x04\n        /* \"#utility.yul\":3846:3861   */\n      mstore\n        /* \"#utility.yul\":3880:3884   */\n      0x24\n        /* \"#utility.yul\":3877:3878   */\n      0x00\n        /* \"#utility.yul\":3870:3885   */\n      revert\n        /* \"#utility.yul\":3896:4818   */\n    tag_117:\n        /* \"#utility.yul\":3965:3971   */\n      0x00\n        /* \"#utility.yul\":4018:4020   */\n      0x20\n        /* \"#utility.yul\":4006:4015   */\n      dup3\n        /* \"#utility.yul\":3997:4004   */\n      dup5\n        /* \"#utility.yul\":3993:4016   */\n      sub\n        /* \"#utility.yul\":3989:4021   */\n      slt\n        /* \"#utility.yul\":3986:4038   */\n      iszero\n      tag_535\n      jumpi\n        /* \"#utility.yul\":4034:4035   */\n      0x00\n        /* \"#utility.yul\":4031:4032   */\n      dup1\n        /* \"#utility.yul\":4024:4036   */\n      revert\n        /* \"#utility.yul\":3986:4038   */\n    tag_535:\n        /* \"#utility.yul\":4074:4083   */\n      dup2\n        /* \"#utility.yul\":4061:4084   */\n      calldataload\n        /* \"#utility.yul\":4103:4121   */\n      0xffffffffffffffff\n        /* \"#utility.yul\":4144:4146   */\n      dup1\n        /* \"#utility.yul\":4136:4142   */\n      dup3\n        /* \"#utility.yul\":4133:4147   */\n      gt\n        /* \"#utility.yul\":4130:4164   */\n      iszero\n      tag_536\n      jumpi\n        /* \"#utility.yul\":4160:4161   */\n      0x00\n        /* \"#utility.yul\":4157:4158   */\n      dup1\n        /* \"#utility.yul\":4150:4162   */\n      revert\n        /* \"#utility.yul\":4130:4164   */\n    tag_536:\n        /* \"#utility.yul\":4198:4204   */\n      dup2\n        /* \"#utility.yul\":4187:4196   */\n      dup5\n        /* \"#utility.yul\":4183:4205   */\n      add\n        /* \"#utility.yul\":4173:4205   */\n      swap2\n      pop\n        /* \"#utility.yul\":4243:4250   */\n      dup5\n        /* \"#utility.yul\":4236:4240   */\n      0x1f\n        /* \"#utility.yul\":4232:4234   */\n      dup4\n        /* \"#utility.yul\":4228:4241   */\n      add\n        /* \"#utility.yul\":4224:4251   */\n      slt\n        /* \"#utility.yul\":4214:4269   */\n      tag_537\n      jumpi\n        /* \"#utility.yul\":4265:4266   */\n      0x00\n        /* \"#utility.yul\":4262:4263   */\n      dup1\n        /* \"#utility.yul\":4255:4267   */\n      revert\n        /* \"#utility.yul\":4214:4269   */\n    tag_537:\n        /* \"#utility.yul\":4301:4303   */\n      dup2\n        /* \"#utility.yul\":4288:4304   */\n      calldataload\n        /* \"#utility.yul\":4323:4325   */\n      dup2\n        /* \"#utility.yul\":4319:4321   */\n      dup2\n        /* \"#utility.yul\":4316:4326   */\n      gt\n        /* \"#utility.yul\":4313:4349   */\n      iszero\n      tag_539\n      jumpi\n        /* \"#utility.yul\":4329:4347   */\n      tag_539\n      tag_267\n      jump\t// in\n    tag_539:\n        /* \"#utility.yul\":4404:4406   */\n      0x40\n        /* \"#utility.yul\":4398:4407   */\n      mload\n        /* \"#utility.yul\":4372:4374   */\n      0x1f\n        /* \"#utility.yul\":4458:4471   */\n      dup3\n      add\n      not(0x1f)\n        /* \"#utility.yul\":4454:4476   */\n      swap1\n      dup2\n      and\n        /* \"#utility.yul\":4478:4480   */\n      0x3f\n        /* \"#utility.yul\":4450:4481   */\n      add\n        /* \"#utility.yul\":4446:4486   */\n      and\n        /* \"#utility.yul\":4434:4487   */\n      dup2\n      add\n      swap1\n        /* \"#utility.yul\":4502:4520   */\n      dup4\n      dup3\n      gt\n        /* \"#utility.yul\":4522:4544   */\n      dup2\n      dup4\n      lt\n        /* \"#utility.yul\":4499:4545   */\n      or\n        /* \"#utility.yul\":4496:4568   */\n      iszero\n      tag_541\n      jumpi\n        /* \"#utility.yul\":4548:4566   */\n      tag_541\n      tag_267\n      jump\t// in\n    tag_541:\n        /* \"#utility.yul\":4588:4598   */\n      dup2\n        /* \"#utility.yul\":4584:4586   */\n      0x40\n        /* \"#utility.yul\":4577:4599   */\n      mstore\n        /* \"#utility.yul\":4623:4625   */\n      dup3\n        /* \"#utility.yul\":4615:4621   */\n      dup2\n        /* \"#utility.yul\":4608:4626   */\n      mstore\n        /* \"#utility.yul\":4663:4670   */\n      dup8\n        /* \"#utility.yul\":4658:4660   */\n      0x20\n        /* \"#utility.yul\":4653:4655   */\n      dup5\n        /* \"#utility.yul\":4649:4651   */\n      dup8\n        /* \"#utility.yul\":4645:4656   */\n      add\n        /* \"#utility.yul\":4641:4661   */\n      add\n        /* \"#utility.yul\":4638:4671   */\n      gt\n        /* \"#utility.yul\":4635:4688   */\n      iszero\n      tag_542\n      jumpi\n        /* \"#utility.yul\":4684:4685   */\n      0x00\n        /* \"#utility.yul\":4681:4682   */\n      dup1\n        /* \"#utility.yul\":4674:4686   */\n      revert\n        /* \"#utility.yul\":4635:4688   */\n    tag_542:\n        /* \"#utility.yul\":4740:4742   */\n      dup3\n        /* \"#utility.yul\":4735:4737   */\n      0x20\n        /* \"#utility.yul\":4731:4733   */\n      dup7\n        /* \"#utility.yul\":4727:4738   */\n      add\n        /* \"#utility.yul\":4722:4724   */\n      0x20\n        /* \"#utility.yul\":4714:4720   */\n      dup4\n        /* \"#utility.yul\":4710:4725   */\n      add\n        /* \"#utility.yul\":4697:4743   */\n      calldatacopy\n        /* \"#utility.yul\":4785:4786   */\n      0x00\n        /* \"#utility.yul\":4763:4778   */\n      swap3\n      dup2\n      add\n        /* \"#utility.yul\":4780:4782   */\n      0x20\n        /* \"#utility.yul\":4759:4783   */\n      add\n        /* \"#utility.yul\":4752:4787   */\n      swap3\n      swap1\n      swap3\n      mstore\n      pop\n        /* \"#utility.yul\":4767:4773   */\n      swap6\n        /* \"#utility.yul\":3896:4818   */\n      swap5\n      pop\n      pop\n      pop\n      pop\n      pop\n      jump\t// out\n        /* \"#utility.yul\":4823:5449   */\n    tag_132:\n        /* \"#utility.yul\":4920:4926   */\n      0x00\n        /* \"#utility.yul\":4928:4934   */\n      dup1\n        /* \"#utility.yul\":4981:4983   */\n      0x20\n        /* \"#utility.yul\":4969:4978   */\n      dup4\n        /* \"#utility.yul\":4960:4967   */\n      dup6\n        /* \"#utility.yul\":4956:4979   */\n      sub\n        /* \"#utility.yul\":4952:4984   */\n      slt\n        /* \"#utility.yul\":4949:5001   */\n      iszero\n      tag_544\n      jumpi\n        /* \"#utility.yul\":4997:4998   */\n      0x00\n        /* \"#utility.yul\":4994:4995   */\n      dup1\n        /* \"#utility.yul\":4987:4999   */\n      revert\n        /* \"#utility.yul\":4949:5001   */\n    tag_544:\n        /* \"#utility.yul\":5037:5046   */\n      dup3\n        /* \"#utility.yul\":5024:5047   */\n      calldataload\n        /* \"#utility.yul\":5066:5084   */\n      0xffffffffffffffff\n        /* \"#utility.yul\":5107:5109   */\n      dup1\n        /* \"#utility.yul\":5099:5105   */\n      dup3\n        /* \"#utility.yul\":5096:5110   */\n      gt\n        /* \"#utility.yul\":5093:5127   */\n      iszero\n      tag_545\n      jumpi\n        /* \"#utility.yul\":5123:5124   */\n      0x00\n        /* \"#utility.yul\":5120:5121   */\n      dup1\n        /* \"#utility.yul\":5113:5125   */\n      revert\n        /* \"#utility.yul\":5093:5127   */\n    tag_545:\n        /* \"#utility.yul\":5161:5167   */\n      dup2\n        /* \"#utility.yul\":5150:5159   */\n      dup6\n        /* \"#utility.yul\":5146:5168   */\n      add\n        /* \"#utility.yul\":5136:5168   */\n      swap2\n      pop\n        /* \"#utility.yul\":5206:5213   */\n      dup6\n        /* \"#utility.yul\":5199:5203   */\n      0x1f\n        /* \"#utility.yul\":5195:5197   */\n      dup4\n        /* \"#utility.yul\":5191:5204   */\n      add\n        /* \"#utility.yul\":5187:5214   */\n      slt\n        /* \"#utility.yul\":5177:5232   */\n      tag_546\n      jumpi\n        /* \"#utility.yul\":5228:5229   */\n      0x00\n        /* \"#utility.yul\":5225:5226   */\n      dup1\n        /* \"#utility.yul\":5218:5230   */\n      revert\n        /* \"#utility.yul\":5177:5232   */\n    tag_546:\n        /* \"#utility.yul\":5268:5270   */\n      dup2\n        /* \"#utility.yul\":5255:5271   */\n      calldataload\n        /* \"#utility.yul\":5294:5296   */\n      dup2\n        /* \"#utility.yul\":5286:5292   */\n      dup2\n        /* \"#utility.yul\":5283:5297   */\n      gt\n        /* \"#utility.yul\":5280:5314   */\n      iszero\n      tag_547\n      jumpi\n        /* \"#utility.yul\":5310:5311   */\n      0x00\n        /* \"#utility.yul\":5307:5308   */\n      dup1\n        /* \"#utility.yul\":5300:5312   */\n      revert\n        /* \"#utility.yul\":5280:5314   */\n    tag_547:\n        /* \"#utility.yul\":5363:5370   */\n      dup7\n        /* \"#utility.yul\":5358:5360   */\n      0x20\n        /* \"#utility.yul\":5348:5354   */\n      dup3\n        /* \"#utility.yul\":5345:5346   */\n      0x05\n        /* \"#utility.yul\":5341:5355   */\n      shl\n        /* \"#utility.yul\":5337:5339   */\n      dup6\n        /* \"#utility.yul\":5333:5356   */\n      add\n        /* \"#utility.yul\":5329:5361   */\n      add\n        /* \"#utility.yul\":5326:5371   */\n      gt\n        /* \"#utility.yul\":5323:5388   */\n      iszero\n      tag_548\n      jumpi\n        /* \"#utility.yul\":5384:5385   */\n      0x00\n        /* \"#utility.yul\":5381:5382   */\n      dup1\n        /* \"#utility.yul\":5374:5386   */\n      revert\n        /* \"#utility.yul\":5323:5388   */\n    tag_548:\n        /* \"#utility.yul\":5415:5417   */\n      0x20\n        /* \"#utility.yul\":5407:5418   */\n      swap3\n      swap1\n      swap3\n      add\n      swap7\n        /* \"#utility.yul\":5437:5443   */\n      swap2\n      swap6\n      pop\n        /* \"#utility.yul\":4823:5449   */\n      swap1\n      swap4\n      pop\n      pop\n      pop\n      pop\n      jump\t// out\n        /* \"#utility.yul\":5454:6255   */\n    tag_135:\n        /* \"#utility.yul\":5614:5618   */\n      0x00\n        /* \"#utility.yul\":5643:5645   */\n      0x20\n        /* \"#utility.yul\":5683:5685   */\n      dup1\n        /* \"#utility.yul\":5672:5681   */\n      dup4\n        /* \"#utility.yul\":5668:5686   */\n      add\n        /* \"#utility.yul\":5713:5715   */\n      0x20\n        /* \"#utility.yul\":5702:5711   */\n      dup5\n        /* \"#utility.yul\":5695:5716   */\n      mstore\n        /* \"#utility.yul\":5736:5742   */\n      dup1\n        /* \"#utility.yul\":5771:5777   */\n      dup6\n        /* \"#utility.yul\":5765:5778   */\n      mload\n        /* \"#utility.yul\":5802:5808   */\n      dup1\n        /* \"#utility.yul\":5794:5800   */\n      dup4\n        /* \"#utility.yul\":5787:5809   */\n      mstore\n        /* \"#utility.yul\":5840:5842   */\n      0x40\n        /* \"#utility.yul\":5829:5838   */\n      dup7\n        /* \"#utility.yul\":5825:5843   */\n      add\n        /* \"#utility.yul\":5818:5843   */\n      swap2\n      pop\n        /* \"#utility.yul\":5902:5904   */\n      0x40\n        /* \"#utility.yul\":5892:5898   */\n      dup2\n        /* \"#utility.yul\":5889:5890   */\n      0x05\n        /* \"#utility.yul\":5885:5899   */\n      shl\n        /* \"#utility.yul\":5874:5883   */\n      dup8\n        /* \"#utility.yul\":5870:5900   */\n      add\n        /* \"#utility.yul\":5866:5905   */\n      add\n        /* \"#utility.yul\":5852:5905   */\n      swap3\n      pop\n        /* \"#utility.yul\":5940:5942   */\n      0x20\n        /* \"#utility.yul\":5932:5938   */\n      dup8\n        /* \"#utility.yul\":5928:5943   */\n      add\n        /* \"#utility.yul\":5961:5962   */\n      0x00\n        /* \"#utility.yul\":5971:6226   */\n    tag_550:\n        /* \"#utility.yul\":5985:5991   */\n      dup3\n        /* \"#utility.yul\":5982:5983   */\n      dup2\n        /* \"#utility.yul\":5979:5992   */\n      lt\n        /* \"#utility.yul\":5971:6226   */\n      iszero\n      tag_552\n      jumpi\n        /* \"#utility.yul\":6078:6080   */\n      0x3f\n        /* \"#utility.yul\":6074:6081   */\n      not\n        /* \"#utility.yul\":6062:6071   */\n      dup9\n        /* \"#utility.yul\":6054:6060   */\n      dup7\n        /* \"#utility.yul\":6050:6072   */\n      sub\n        /* \"#utility.yul\":6046:6082   */\n      add\n        /* \"#utility.yul\":6041:6044   */\n      dup5\n        /* \"#utility.yul\":6034:6083   */\n      mstore\n        /* \"#utility.yul\":6106:6146   */\n      tag_553\n        /* \"#utility.yul\":6139:6145   */\n      dup6\n        /* \"#utility.yul\":6130:6136   */\n      dup4\n        /* \"#utility.yul\":6124:6137   */\n      mload\n        /* \"#utility.yul\":6106:6146   */\n      tag_496\n      jump\t// in\n    tag_553:\n        /* \"#utility.yul\":6096:6146   */\n      swap5\n      pop\n        /* \"#utility.yul\":6204:6216   */\n      swap3\n      dup6\n      add\n      swap3\n        /* \"#utility.yul\":6169:6184   */\n      swap1\n      dup6\n      add\n      swap1\n        /* \"#utility.yul\":6007:6008   */\n      0x01\n        /* \"#utility.yul\":6000:6009   */\n      add\n        /* \"#utility.yul\":5971:6226   */\n      jump(tag_550)\n    tag_552:\n      pop\n        /* \"#utility.yul\":6243:6249   */\n      swap3\n      swap8\n        /* \"#utility.yul\":5454:6255   */\n      swap7\n      pop\n      pop\n      pop\n      pop\n      pop\n      pop\n      pop\n      jump\t// out\n        /* \"#utility.yul\":6260:6953   */\n    tag_144:\n        /* \"#utility.yul\":6371:6377   */\n      0x00\n        /* \"#utility.yul\":6379:6385   */\n      dup1\n        /* \"#utility.yul\":6387:6393   */\n      0x00\n        /* \"#utility.yul\":6395:6401   */\n      dup1\n        /* \"#utility.yul\":6403:6409   */\n      0x00\n        /* \"#utility.yul\":6411:6417   */\n      dup1\n        /* \"#utility.yul\":6419:6425   */\n      0x00\n        /* \"#utility.yul\":6472:6475   */\n      0xe0\n        /* \"#utility.yul\":6460:6469   */\n      dup9\n        /* \"#utility.yul\":6451:6458   */\n      dup11\n        /* \"#utility.yul\":6447:6470   */\n      sub\n        /* \"#utility.yul\":6443:6476   */\n      slt\n        /* \"#utility.yul\":6440:6493   */\n      iszero\n      tag_555\n      jumpi\n        /* \"#utility.yul\":6489:6490   */\n      0x00\n        /* \"#utility.yul\":6486:6487   */\n      dup1\n        /* \"#utility.yul\":6479:6491   */\n      revert\n        /* \"#utility.yul\":6440:6493   */\n    tag_555:\n        /* \"#utility.yul\":6512:6541   */\n      tag_556\n        /* \"#utility.yul\":6531:6540   */\n      dup9\n        /* \"#utility.yul\":6512:6541   */\n      tag_497\n      jump\t// in\n    tag_556:\n        /* \"#utility.yul\":6502:6541   */\n      swap7\n      pop\n        /* \"#utility.yul\":6560:6598   */\n      tag_557\n        /* \"#utility.yul\":6594:6596   */\n      0x20\n        /* \"#utility.yul\":6583:6592   */\n      dup10\n        /* \"#utility.yul\":6579:6597   */\n      add\n        /* \"#utility.yul\":6560:6598   */\n      tag_497\n      jump\t// in\n    tag_557:\n        /* \"#utility.yul\":6550:6598   */\n      swap6\n      pop\n        /* \"#utility.yul\":6645:6647   */\n      0x40\n        /* \"#utility.yul\":6634:6643   */\n      dup9\n        /* \"#utility.yul\":6630:6648   */\n      add\n        /* \"#utility.yul\":6617:6649   */\n      calldataload\n        /* \"#utility.yul\":6607:6649   */\n      swap5\n      pop\n        /* \"#utility.yul\":6696:6698   */\n      0x60\n        /* \"#utility.yul\":6685:6694   */\n      dup9\n        /* \"#utility.yul\":6681:6699   */\n      add\n        /* \"#utility.yul\":6668:6700   */\n      calldataload\n        /* \"#utility.yul\":6658:6700   */\n      swap4\n      pop\n        /* \"#utility.yul\":6750:6753   */\n      0x80\n        /* \"#utility.yul\":6739:6748   */\n      dup9\n        /* \"#utility.yul\":6735:6754   */\n      add\n        /* \"#utility.yul\":6722:6755   */\n      calldataload\n        /* \"#utility.yul\":6795:6799   */\n      0xff\n        /* \"#utility.yul\":6788:6793   */\n      dup2\n        /* \"#utility.yul\":6784:6800   */\n      and\n        /* \"#utility.yul\":6777:6782   */\n      dup2\n        /* \"#utility.yul\":6774:6801   */\n      eq\n        /* \"#utility.yul\":6764:6819   */\n      tag_558\n      jumpi\n        /* \"#utility.yul\":6815:6816   */\n      0x00\n        /* \"#utility.yul\":6812:6813   */\n      dup1\n        /* \"#utility.yul\":6805:6817   */\n      revert\n        /* \"#utility.yul\":6764:6819   */\n    tag_558:\n        /* \"#utility.yul\":6260:6953   */\n      swap7\n      swap10\n      swap6\n      swap9\n      pop\n      swap4\n      swap7\n      swap3\n      swap6\n        /* \"#utility.yul\":6838:6843   */\n      swap5\n        /* \"#utility.yul\":6890:6893   */\n      0xa0\n        /* \"#utility.yul\":6875:6894   */\n      dup5\n      add\n        /* \"#utility.yul\":6862:6895   */\n      calldataload\n      swap5\n      pop\n        /* \"#utility.yul\":6942:6945   */\n      0xc0\n        /* \"#utility.yul\":6927:6946   */\n      swap1\n      swap4\n      add\n        /* \"#utility.yul\":6914:6947   */\n      calldataload\n      swap3\n        /* \"#utility.yul\":6260:6953   */\n      swap2\n      pop\n      pop\n      jump\t// out\n        /* \"#utility.yul\":6958:7501   */\n    tag_148:\n        /* \"#utility.yul\":7060:7066   */\n      0x00\n        /* \"#utility.yul\":7068:7074   */\n      dup1\n        /* \"#utility.yul\":7076:7082   */\n      0x00\n        /* \"#utility.yul\":7084:7090   */\n      dup1\n        /* \"#utility.yul\":7092:7098   */\n      0x00\n        /* \"#utility.yul\":7145:7148   */\n      0xa0\n        /* \"#utility.yul\":7133:7142   */\n      dup7\n        /* \"#utility.yul\":7124:7131   */\n      dup9\n        /* \"#utility.yul\":7120:7143   */\n      sub\n        /* \"#utility.yul\":7116:7149   */\n      slt\n        /* \"#utility.yul\":7113:7166   */\n      iszero\n      tag_560\n      jumpi\n        /* \"#utility.yul\":7162:7163   */\n      0x00\n        /* \"#utility.yul\":7159:7160   */\n      dup1\n        /* \"#utility.yul\":7152:7164   */\n      revert\n        /* \"#utility.yul\":7113:7166   */\n    tag_560:\n        /* \"#utility.yul\":7185:7214   */\n      tag_561\n        /* \"#utility.yul\":7204:7213   */\n      dup7\n        /* \"#utility.yul\":7185:7214   */\n      tag_497\n      jump\t// in\n    tag_561:\n        /* \"#utility.yul\":7175:7214   */\n      swap5\n      pop\n        /* \"#utility.yul\":7261:7263   */\n      0x20\n        /* \"#utility.yul\":7250:7259   */\n      dup7\n        /* \"#utility.yul\":7246:7264   */\n      add\n        /* \"#utility.yul\":7233:7265   */\n      calldataload\n        /* \"#utility.yul\":7223:7265   */\n      swap4\n      pop\n        /* \"#utility.yul\":7312:7314   */\n      0x40\n        /* \"#utility.yul\":7301:7310   */\n      dup7\n        /* \"#utility.yul\":7297:7315   */\n      add\n        /* \"#utility.yul\":7284:7316   */\n      calldataload\n        /* \"#utility.yul\":7274:7316   */\n      swap3\n      pop\n        /* \"#utility.yul\":7366:7368   */\n      0x60\n        /* \"#utility.yul\":7355:7364   */\n      dup7\n        /* \"#utility.yul\":7351:7369   */\n      add\n        /* \"#utility.yul\":7338:7370   */\n      calldataload\n        /* \"#utility.yul\":7399:7400   */\n      0x02\n        /* \"#utility.yul\":7392:7397   */\n      dup2\n        /* \"#utility.yul\":7389:7401   */\n      lt\n        /* \"#utility.yul\":7379:7419   */\n      tag_562\n      jumpi\n        /* \"#utility.yul\":7415:7416   */\n      0x00\n        /* \"#utility.yul\":7412:7413   */\n      dup1\n        /* \"#utility.yul\":7405:7417   */\n      revert\n        /* \"#utility.yul\":7379:7419   */\n    tag_562:\n        /* \"#utility.yul\":6958:7501   */\n      swap5\n      swap8\n      swap4\n      swap7\n      pop\n      swap2\n      swap5\n        /* \"#utility.yul\":7490:7493   */\n      0x80\n        /* \"#utility.yul\":7475:7494   */\n      add\n        /* \"#utility.yul\":7462:7495   */\n      calldataload\n      swap3\n        /* \"#utility.yul\":6958:7501   */\n      swap2\n      pop\n      pop\n      jump\t// out\n        /* \"#utility.yul\":7506:7766   */\n    tag_152:\n        /* \"#utility.yul\":7574:7580   */\n      0x00\n        /* \"#utility.yul\":7582:7588   */\n      dup1\n        /* \"#utility.yul\":7635:7637   */\n      0x40\n        /* \"#utility.yul\":7623:7632   */\n      dup4\n        /* \"#utility.yul\":7614:7621   */\n      dup6\n        /* \"#utility.yul\":7610:7633   */\n      sub\n        /* \"#utility.yul\":7606:7638   */\n      slt\n        /* \"#utility.yul\":7603:7655   */\n      iszero\n      tag_564\n      jumpi\n        /* \"#utility.yul\":7651:7652   */\n      0x00\n        /* \"#utility.yul\":7648:7649   */\n      dup1\n        /* \"#utility.yul\":7641:7653   */\n      revert\n        /* \"#utility.yul\":7603:7655   */\n    tag_564:\n        /* \"#utility.yul\":7674:7703   */\n      tag_565\n        /* \"#utility.yul\":7693:7702   */\n      dup4\n        /* \"#utility.yul\":7674:7703   */\n      tag_497\n      jump\t// in\n    tag_565:\n        /* \"#utility.yul\":7664:7703   */\n      swap2\n      pop\n        /* \"#utility.yul\":7722:7760   */\n      tag_566\n        /* \"#utility.yul\":7756:7758   */\n      0x20\n        /* \"#utility.yul\":7745:7754   */\n      dup5\n        /* \"#utility.yul\":7741:7759   */\n      add\n        /* \"#utility.yul\":7722:7760   */\n      tag_497\n      jump\t// in\n    tag_566:\n        /* \"#utility.yul\":7712:7760   */\n      swap1\n      pop\n        /* \"#utility.yul\":7506:7766   */\n      swap3\n      pop\n      swap3\n      swap1\n      pop\n      jump\t// out\n        /* \"#utility.yul\":7771:8151   */\n    tag_160:\n        /* \"#utility.yul\":7850:7851   */\n      0x01\n        /* \"#utility.yul\":7846:7858   */\n      dup2\n      dup2\n      shr\n      swap1\n        /* \"#utility.yul\":7893:7905   */\n      dup3\n      and\n      dup1\n        /* \"#utility.yul\":7914:7975   */\n      tag_568\n      jumpi\n        /* \"#utility.yul\":7968:7972   */\n      0x7f\n        /* \"#utility.yul\":7960:7966   */\n      dup3\n        /* \"#utility.yul\":7956:7973   */\n      and\n        /* \"#utility.yul\":7946:7973   */\n      swap2\n      pop\n        /* \"#utility.yul\":7914:7975   */\n    tag_568:\n        /* \"#utility.yul\":8021:8023   */\n      0x20\n        /* \"#utility.yul\":8013:8019   */\n      dup3\n        /* \"#utility.yul\":8010:8024   */\n      lt\n        /* \"#utility.yul\":7990:8008   */\n      dup2\n        /* \"#utility.yul\":7987:8025   */\n      sub\n        /* \"#utility.yul\":7984:8145   */\n      tag_424\n      jumpi\n        /* \"#utility.yul\":8067:8077   */\n      0x4e487b71\n        /* \"#utility.yul\":8062:8065   */\n      0xe0\n        /* \"#utility.yul\":8058:8078   */\n      shl\n        /* \"#utility.yul\":8055:8056   */\n      0x00\n        /* \"#utility.yul\":8048:8079   */\n      mstore\n        /* \"#utility.yul\":8102:8106   */\n      0x22\n        /* \"#utility.yul\":8099:8100   */\n      0x04\n        /* \"#utility.yul\":8092:8107   */\n      mstore\n        /* \"#utility.yul\":8130:8134   */\n      0x24\n        /* \"#utility.yul\":8127:8128   */\n      0x00\n        /* \"#utility.yul\":8120:8135   */\n      revert\n        /* \"#utility.yul\":8511:8638   */\n    tag_499:\n        /* \"#utility.yul\":8572:8582   */\n      0x4e487b71\n        /* \"#utility.yul\":8567:8570   */\n      0xe0\n        /* \"#utility.yul\":8563:8583   */\n      shl\n        /* \"#utility.yul\":8560:8561   */\n      0x00\n        /* \"#utility.yul\":8553:8584   */\n      mstore\n        /* \"#utility.yul\":8603:8607   */\n      0x11\n        /* \"#utility.yul\":8600:8601   */\n      0x04\n        /* \"#utility.yul\":8593:8608   */\n      mstore\n        /* \"#utility.yul\":8627:8631   */\n      0x24\n        /* \"#utility.yul\":8624:8625   */\n      0x00\n        /* \"#utility.yul\":8617:8632   */\n      revert\n        /* \"#utility.yul\":8643:8811   */\n    tag_176:\n        /* \"#utility.yul\":8716:8725   */\n      dup1\n      dup3\n      mul\n        /* \"#utility.yul\":8747:8756   */\n      dup2\n      iszero\n        /* \"#utility.yul\":8764:8779   */\n      dup3\n      dup3\n      div\n        /* \"#utility.yul\":8758:8780   */\n      dup5\n      eq\n        /* \"#utility.yul\":8744:8781   */\n      or\n        /* \"#utility.yul\":8734:8805   */\n      tag_165\n      jumpi\n        /* \"#utility.yul\":8785:8803   */\n      tag_165\n      tag_499\n      jump\t// in\n        /* \"#utility.yul\":9069:9194   */\n    tag_205:\n        /* \"#utility.yul\":9134:9143   */\n      dup1\n      dup3\n      add\n        /* \"#utility.yul\":9155:9165   */\n      dup1\n      dup3\n      gt\n        /* \"#utility.yul\":9152:9188   */\n      iszero\n      tag_165\n      jumpi\n        /* \"#utility.yul\":9168:9186   */\n      tag_165\n      tag_499\n      jump\t// in\n        /* \"#utility.yul\":10599:10727   */\n    tag_235:\n        /* \"#utility.yul\":10666:10675   */\n      dup2\n      dup2\n      sub\n        /* \"#utility.yul\":10687:10698   */\n      dup2\n      dup2\n      gt\n        /* \"#utility.yul\":10684:10721   */\n      iszero\n      tag_165\n      jumpi\n        /* \"#utility.yul\":10701:10719   */\n      tag_165\n      tag_499\n      jump\t// in\n        /* \"#utility.yul\":11138:11265   */\n    tag_278:\n        /* \"#utility.yul\":11199:11209   */\n      0x4e487b71\n        /* \"#utility.yul\":11194:11197   */\n      0xe0\n        /* \"#utility.yul\":11190:11210   */\n      shl\n        /* \"#utility.yul\":11187:11188   */\n      0x00\n        /* \"#utility.yul\":11180:11211   */\n      mstore\n        /* \"#utility.yul\":11230:11234   */\n      0x32\n        /* \"#utility.yul\":11227:11228   */\n      0x04\n        /* \"#utility.yul\":11220:11235   */\n      mstore\n        /* \"#utility.yul\":11254:11258   */\n      0x24\n        /* \"#utility.yul\":11251:11252   */\n      0x00\n        /* \"#utility.yul\":11244:11259   */\n      revert\n        /* \"#utility.yul\":11270:11791   */\n    tag_280:\n        /* \"#utility.yul\":11347:11351   */\n      0x00\n        /* \"#utility.yul\":11353:11359   */\n      dup1\n        /* \"#utility.yul\":11413:11424   */\n      dup4\n        /* \"#utility.yul\":11400:11425   */\n      calldataload\n        /* \"#utility.yul\":11507:11509   */\n      0x1e\n        /* \"#utility.yul\":11503:11510   */\n      not\n        /* \"#utility.yul\":11492:11500   */\n      dup5\n        /* \"#utility.yul\":11476:11490   */\n      calldatasize\n        /* \"#utility.yul\":11472:11501   */\n      sub\n        /* \"#utility.yul\":11468:11511   */\n      add\n        /* \"#utility.yul\":11448:11466   */\n      dup2\n        /* \"#utility.yul\":11444:11512   */\n      slt\n        /* \"#utility.yul\":11434:11530   */\n      tag_589\n      jumpi\n        /* \"#utility.yul\":11526:11527   */\n      0x00\n        /* \"#utility.yul\":11523:11524   */\n      dup1\n        /* \"#utility.yul\":11516:11528   */\n      revert\n        /* \"#utility.yul\":11434:11530   */\n    tag_589:\n        /* \"#utility.yul\":11553:11586   */\n      dup4\n      add\n        /* \"#utility.yul\":11605:11625   */\n      dup1\n      calldataload\n      swap2\n      pop\n        /* \"#utility.yul\":11648:11666   */\n      0xffffffffffffffff\n        /* \"#utility.yul\":11637:11667   */\n      dup3\n      gt\n        /* \"#utility.yul\":11634:11684   */\n      iszero\n      tag_590\n      jumpi\n        /* \"#utility.yul\":11680:11681   */\n      0x00\n        /* \"#utility.yul\":11677:11678   */\n      dup1\n        /* \"#utility.yul\":11670:11682   */\n      revert\n        /* \"#utility.yul\":11634:11684   */\n    tag_590:\n        /* \"#utility.yul\":11713:11717   */\n      0x20\n        /* \"#utility.yul\":11701:11718   */\n      add\n      swap2\n      pop\n        /* \"#utility.yul\":11744:11758   */\n      calldatasize\n        /* \"#utility.yul\":11740:11767   */\n      dup2\n      swap1\n      sub\n        /* \"#utility.yul\":11730:11768   */\n      dup3\n      sgt\n        /* \"#utility.yul\":11727:11785   */\n      iszero\n      tag_591\n      jumpi\n        /* \"#utility.yul\":11781:11782   */\n      0x00\n        /* \"#utility.yul\":11778:11779   */\n      dup1\n        /* \"#utility.yul\":11771:11783   */\n      revert\n        /* \"#utility.yul\":11727:11785   */\n    tag_591:\n        /* \"#utility.yul\":11270:11791   */\n      swap3\n      pop\n      swap3\n      swap1\n      pop\n      jump\t// out\n        /* \"#utility.yul\":11796:12156   */\n    tag_282:\n        /* \"#utility.yul\":12007:12013   */\n      dup3\n        /* \"#utility.yul\":11999:12005   */\n      dup5\n        /* \"#utility.yul\":11994:11997   */\n      dup3\n        /* \"#utility.yul\":11981:12014   */\n      calldatacopy\n        /* \"#utility.yul\":12077:12079   */\n      0x60\n        /* \"#utility.yul\":12073:12088   */\n      swap2\n      swap1\n      swap2\n      shl\n      not(0xffffffffffffffffffffffff)\n        /* \"#utility.yul\":12069:12122   */\n      and\n        /* \"#utility.yul\":12033:12049   */\n      swap2\n      add\n        /* \"#utility.yul\":12058:12123   */\n      swap1\n      dup2\n      mstore\n        /* \"#utility.yul\":12147:12149   */\n      0x14\n        /* \"#utility.yul\":12139:12150   */\n      add\n      swap2\n        /* \"#utility.yul\":11796:12156   */\n      swap1\n      pop\n      jump\t// out\n        /* \"#utility.yul\":14529:14796   */\n    tag_336:\n        /* \"#utility.yul\":14696:14698   */\n      0x40\n        /* \"#utility.yul\":14681:14699   */\n      dup2\n      add\n        /* \"#utility.yul\":14708:14747   */\n      tag_600\n        /* \"#utility.yul\":14685:14694   */\n      dup3\n        /* \"#utility.yul\":14729:14735   */\n      dup6\n        /* \"#utility.yul\":14708:14747   */\n      tag_498\n      jump\t// in\n    tag_600:\n        /* \"#utility.yul\":14783:14789   */\n      dup3\n        /* \"#utility.yul\":14778:14780   */\n      0x20\n        /* \"#utility.yul\":14767:14776   */\n      dup4\n        /* \"#utility.yul\":14763:14781   */\n      add\n        /* \"#utility.yul\":14756:14790   */\n      mstore\n        /* \"#utility.yul\":14529:14796   */\n      swap4\n      swap3\n      pop\n      pop\n      pop\n      jump\t// out\n        /* \"#utility.yul\":18992:19510   */\n    tag_501:\n        /* \"#utility.yul\":19094:19096   */\n      0x1f\n        /* \"#utility.yul\":19089:19092   */\n      dup3\n        /* \"#utility.yul\":19086:19097   */\n      gt\n        /* \"#utility.yul\":19083:19504   */\n      iszero\n      tag_238\n      jumpi\n        /* \"#utility.yul\":19130:19135   */\n      dup1\n        /* \"#utility.yul\":19127:19128   */\n      0x00\n        /* \"#utility.yul\":19120:19136   */\n      mstore\n        /* \"#utility.yul\":19174:19178   */\n      0x20\n        /* \"#utility.yul\":19171:19172   */\n      0x00\n        /* \"#utility.yul\":19161:19179   */\n      keccak256\n        /* \"#utility.yul\":19244:19246   */\n      0x1f\n        /* \"#utility.yul\":19232:19242   */\n      dup5\n        /* \"#utility.yul\":19228:19247   */\n      add\n        /* \"#utility.yul\":19225:19226   */\n      0x05\n        /* \"#utility.yul\":19221:19248   */\n      shr\n        /* \"#utility.yul\":19215:19219   */\n      dup2\n        /* \"#utility.yul\":19211:19249   */\n      add\n        /* \"#utility.yul\":19280:19284   */\n      0x20\n        /* \"#utility.yul\":19268:19278   */\n      dup6\n        /* \"#utility.yul\":19265:19285   */\n      lt\n        /* \"#utility.yul\":19262:19309   */\n      iszero\n      tag_614\n      jumpi\n      pop\n        /* \"#utility.yul\":19303:19307   */\n      dup1\n        /* \"#utility.yul\":19262:19309   */\n    tag_614:\n        /* \"#utility.yul\":19358:19360   */\n      0x1f\n        /* \"#utility.yul\":19353:19356   */\n      dup5\n        /* \"#utility.yul\":19349:19361   */\n      add\n        /* \"#utility.yul\":19346:19347   */\n      0x05\n        /* \"#utility.yul\":19342:19362   */\n      shr\n        /* \"#utility.yul\":19336:19340   */\n      dup3\n        /* \"#utility.yul\":19332:19363   */\n      add\n        /* \"#utility.yul\":19322:19363   */\n      swap2\n      pop\n        /* \"#utility.yul\":19413:19494   */\n    tag_615:\n        /* \"#utility.yul\":19431:19433   */\n      dup2\n        /* \"#utility.yul\":19424:19429   */\n      dup2\n        /* \"#utility.yul\":19421:19434   */\n      lt\n        /* \"#utility.yul\":19413:19494   */\n      iszero\n      tag_617\n      jumpi\n        /* \"#utility.yul\":19490:19491   */\n      0x00\n        /* \"#utility.yul\":19476:19492   */\n      dup2\n      sstore\n        /* \"#utility.yul\":19457:19458   */\n      0x01\n        /* \"#utility.yul\":19446:19459   */\n      add\n        /* \"#utility.yul\":19413:19494   */\n      jump(tag_615)\n    tag_617:\n        /* \"#utility.yul\":19417:19420   */\n      pop\n      pop\n        /* \"#utility.yul\":18992:19510   */\n      pop\n      pop\n      pop\n      jump\t// out\n        /* \"#utility.yul\":19686:21031   */\n    tag_416:\n        /* \"#utility.yul\":19812:19815   */\n      dup2\n        /* \"#utility.yul\":19806:19816   */\n      mload\n        /* \"#utility.yul\":19839:19857   */\n      0xffffffffffffffff\n        /* \"#utility.yul\":19831:19837   */\n      dup2\n        /* \"#utility.yul\":19828:19858   */\n      gt\n        /* \"#utility.yul\":19825:19881   */\n      iszero\n      tag_621\n      jumpi\n        /* \"#utility.yul\":19861:19879   */\n      tag_621\n      tag_267\n      jump\t// in\n    tag_621:\n        /* \"#utility.yul\":19890:19987   */\n      tag_622\n        /* \"#utility.yul\":19980:19986   */\n      dup2\n        /* \"#utility.yul\":19940:19978   */\n      tag_623\n        /* \"#utility.yul\":19972:19976   */\n      dup5\n        /* \"#utility.yul\":19966:19977   */\n      sload\n        /* \"#utility.yul\":19940:19978   */\n      tag_160\n      jump\t// in\n    tag_623:\n        /* \"#utility.yul\":19934:19938   */\n      dup5\n        /* \"#utility.yul\":19890:19987   */\n      tag_501\n      jump\t// in\n    tag_622:\n        /* \"#utility.yul\":20042:20046   */\n      0x20\n      dup1\n        /* \"#utility.yul\":20099:20101   */\n      0x1f\n        /* \"#utility.yul\":20088:20102   */\n      dup4\n      gt\n        /* \"#utility.yul\":20116:20117   */\n      0x01\n        /* \"#utility.yul\":20111:20774   */\n      dup2\n      eq\n      tag_625\n      jumpi\n        /* \"#utility.yul\":20818:20819   */\n      0x00\n        /* \"#utility.yul\":20835:20841   */\n      dup5\n        /* \"#utility.yul\":20832:20921   */\n      iszero\n      tag_626\n      jumpi\n      pop\n        /* \"#utility.yul\":20887:20906   */\n      dup6\n      dup4\n      add\n        /* \"#utility.yul\":20881:20907   */\n      mload\n        /* \"#utility.yul\":20832:20921   */\n    tag_626:\n      not(0x00)\n        /* \"#utility.yul\":19643:19644   */\n      0x03\n        /* \"#utility.yul\":19639:19650   */\n      dup7\n      swap1\n      shl\n        /* \"#utility.yul\":19635:19659   */\n      shr\n        /* \"#utility.yul\":19631:19660   */\n      not\n        /* \"#utility.yul\":19621:19661   */\n      and\n        /* \"#utility.yul\":19667:19668   */\n      0x01\n        /* \"#utility.yul\":19663:19674   */\n      dup6\n      swap1\n      shl\n        /* \"#utility.yul\":19618:19675   */\n      or\n        /* \"#utility.yul\":20934:21015   */\n      dup6\n      sstore\n        /* \"#utility.yul\":20081:21025   */\n      jump(tag_624)\n        /* \"#utility.yul\":20111:20774   */\n    tag_625:\n        /* \"#utility.yul\":18939:18940   */\n      0x00\n        /* \"#utility.yul\":18932:18946   */\n      dup6\n      dup2\n      mstore\n        /* \"#utility.yul\":18976:18980   */\n      0x20\n        /* \"#utility.yul\":18963:18981   */\n      dup2\n      keccak256\n      not(0x1f)\n        /* \"#utility.yul\":20147:20167   */\n      dup7\n      and\n      swap2\n        /* \"#utility.yul\":20265:20501   */\n    tag_629:\n        /* \"#utility.yul\":20279:20286   */\n      dup3\n        /* \"#utility.yul\":20276:20277   */\n      dup2\n        /* \"#utility.yul\":20273:20287   */\n      lt\n        /* \"#utility.yul\":20265:20501   */\n      iszero\n      tag_631\n      jumpi\n        /* \"#utility.yul\":20368:20387   */\n      dup9\n      dup7\n      add\n        /* \"#utility.yul\":20362:20388   */\n      mload\n        /* \"#utility.yul\":20347:20389   */\n      dup3\n      sstore\n        /* \"#utility.yul\":20460:20487   */\n      swap5\n      dup5\n      add\n      swap5\n        /* \"#utility.yul\":20428:20429   */\n      0x01\n        /* \"#utility.yul\":20416:20430   */\n      swap1\n      swap2\n      add\n      swap1\n        /* \"#utility.yul\":20295:20314   */\n      dup5\n      add\n        /* \"#utility.yul\":20265:20501   */\n      jump(tag_629)\n    tag_631:\n        /* \"#utility.yul\":20269:20272   */\n      pop\n        /* \"#utility.yul\":20529:20535   */\n      dup6\n        /* \"#utility.yul\":20520:20527   */\n      dup3\n        /* \"#utility.yul\":20517:20536   */\n      lt\n        /* \"#utility.yul\":20514:20715   */\n      iszero\n      tag_632\n      jumpi\n        /* \"#utility.yul\":20590:20609   */\n      dup8\n      dup6\n      add\n        /* \"#utility.yul\":20584:20610   */\n      mload\n      not(0x00)\n        /* \"#utility.yul\":20673:20674   */\n      0x03\n        /* \"#utility.yul\":20669:20683   */\n      dup9\n      swap1\n      shl\n        /* \"#utility.yul\":20685:20688   */\n      0xf8\n        /* \"#utility.yul\":20665:20689   */\n      and\n        /* \"#utility.yul\":20661:20698   */\n      shr\n        /* \"#utility.yul\":20657:20699   */\n      not\n        /* \"#utility.yul\":20642:20700   */\n      and\n        /* \"#utility.yul\":20627:20701   */\n      dup2\n      sstore\n        /* \"#utility.yul\":20514:20715   */\n    tag_632:\n      pop\n      pop\n        /* \"#utility.yul\":20761:20762   */\n      0x01\n        /* \"#utility.yul\":20752:20758   */\n      dup5\n        /* \"#utility.yul\":20749:20750   */\n      0x01\n        /* \"#utility.yul\":20745:20759   */\n      shl\n        /* \"#utility.yul\":20741:20763   */\n      add\n        /* \"#utility.yul\":20735:20739   */\n      dup6\n        /* \"#utility.yul\":20728:20764   */\n      sstore\n        /* \"#utility.yul\":20081:21025   */\n    tag_624:\n      pop\n      pop\n      pop\n      pop\n        /* \"#utility.yul\":19686:21031   */\n      pop\n      pop\n      jump\t// out\n        /* \"#utility.yul\":21036:21419   */\n    tag_418:\n        /* \"#utility.yul\":21233:21235   */\n      0x40\n        /* \"#utility.yul\":21222:21231   */\n      dup2\n        /* \"#utility.yul\":21215:21236   */\n      mstore\n        /* \"#utility.yul\":21196:21200   */\n      0x00\n        /* \"#utility.yul\":21259:21304   */\n      tag_634\n        /* \"#utility.yul\":21300:21302   */\n      0x40\n        /* \"#utility.yul\":21289:21298   */\n      dup4\n        /* \"#utility.yul\":21285:21303   */\n      add\n        /* \"#utility.yul\":21277:21283   */\n      dup6\n        /* \"#utility.yul\":21259:21304   */\n      tag_496\n      jump\t// in\n    tag_634:\n        /* \"#utility.yul\":21352:21361   */\n      dup3\n        /* \"#utility.yul\":21344:21350   */\n      dup2\n        /* \"#utility.yul\":21340:21362   */\n      sub\n        /* \"#utility.yul\":21335:21337   */\n      0x20\n        /* \"#utility.yul\":21324:21333   */\n      dup5\n        /* \"#utility.yul\":21320:21338   */\n      add\n        /* \"#utility.yul\":21313:21363   */\n      mstore\n        /* \"#utility.yul\":21380:21413   */\n      tag_635\n        /* \"#utility.yul\":21406:21412   */\n      dup2\n        /* \"#utility.yul\":21398:21404   */\n      dup6\n        /* \"#utility.yul\":21380:21413   */\n      tag_496\n      jump\t// in\n    tag_635:\n        /* \"#utility.yul\":21372:21413   */\n      swap6\n        /* \"#utility.yul\":21036:21419   */\n      swap5\n      pop\n      pop\n      pop\n      pop\n      pop\n      jump\t// out\n        /* \"#utility.yul\":21424:21725   */\n    tag_436:\n        /* \"#utility.yul\":21553:21556   */\n      0x00\n        /* \"#utility.yul\":21591:21597   */\n      dup3\n        /* \"#utility.yul\":21585:21598   */\n      mload\n        /* \"#utility.yul\":21637:21643   */\n      dup1\n        /* \"#utility.yul\":21630:21634   */\n      0x20\n        /* \"#utility.yul\":21622:21628   */\n      dup6\n        /* \"#utility.yul\":21618:21635   */\n      add\n        /* \"#utility.yul\":21613:21616   */\n      dup5\n        /* \"#utility.yul\":21607:21644   */\n      mcopy\n        /* \"#utility.yul\":21699:21700   */\n      0x00\n        /* \"#utility.yul\":21663:21679   */\n      swap3\n      add\n        /* \"#utility.yul\":21688:21701   */\n      swap2\n      dup3\n      mstore\n      pop\n        /* \"#utility.yul\":21663:21679   */\n      swap2\n        /* \"#utility.yul\":21424:21725   */\n      swap1\n      pop\n      jump\t// out\n    stop\n    data_9fdcd12e4b726339b32a442b0a448365d5d85c96b2d2cff917b4f66c63110398 416464726573733a206c6f772d6c6576656c2064656c65676174652063616c6c206661696c6564\n\n    auxdata: 0xa26469706673582212209b840b4d45e637e9e37b425f1db7038ff226e3c2018ff808216158a0b37af6ab64736f6c63430008190033\n}\n",
    "bytecode": {
      "linkReferences": {},
      "object": "6101006040527f6e71edae12b1b97f4d1f60370fef10105fa2faae0126114a169c64845d6126c960e0526001600955348015610039575f80fd5b506040516127a23803806127a2833981016040819052610058916102e2565b80604051806040016040528060048152602001634d6f6a6f60e01b815250604051806040016040528060048152602001634d4f4a4f60e01b8152508181818181600590816100a691906103a7565b5060066100b382826103a7565b50504660a052503060c0526100c661016d565b608052506100d5905083610201565b5050506001600160a01b038116732af17552f27021666bcd3e5ba65f68cb5ec217fc146101485760405162461bcd60e51b815260206004820152601560248201527f496e76616c696420696e697469616c206f776e65720000000000000000000000604482015260640160405180910390fd5b600880546001600160a01b0319166001600160a01b0392909216919091179055610466565b5f7f8b73c3c69bb8fe3d512ecc4cf759cc79239f7b179b0ffacaa9a75d522b39400f610197610252565b80516020918201206040805192830193909352918101919091527fc89efdaa54c0f20c7adf612882df0950f5a951637e0307cdcb4c672f298b8bc660608201524660808201523060a082015260c00160405160208183030381529060405280519060200120905090565b600180546001600160a01b038381166001600160a01b0319831681179093556040519116919082907f8292fce18fa69edf4db7b94ea2e58241df0ae57f97e0a6c9b29067028bf92d76905f90a35050565b60606005805461026190610323565b80601f016020809104026020016040519081016040528092919081815260200182805461028d90610323565b80156102d85780601f106102af576101008083540402835291602001916102d8565b820191905f5260205f20905b8154815290600101906020018083116102bb57829003601f168201915b5050505050905090565b5f602082840312156102f2575f80fd5b81516001600160a01b0381168114610308575f80fd5b9392505050565b634e487b7160e01b5f52604160045260245ffd5b600181811c9082168061033757607f821691505b60208210810361035557634e487b7160e01b5f52602260045260245ffd5b50919050565b601f8211156103a257805f5260205f20601f840160051c810160208510156103805750805b601f840160051c820191505b8181101561039f575f815560010161038c565b50505b505050565b81516001600160401b038111156103c0576103c061030f565b6103d4816103ce8454610323565b8461035b565b602080601f831160018114610407575f84156103f05750858301515b5f19600386901b1c1916600185901b17855561045e565b5f85815260208120601f198616915b8281101561043557888601518255948401946001909101908401610416565b508582101561045257878501515f19600388901b60f8161c191681555b505060018460011b0185555b505050505050565b60805160a05160c05160e0516123096104995f395f610d6f01525f61065e01525f61068801525f6106b201526123095ff3fe608060405234801561000f575f80fd5b50600436106101d1575f3560e01c806379cc6790116100fe578063a9059cbb1161009e578063d505accf1161006e578063d505accf1461042c578063d9cdee0d1461043f578063dd62ed3e14610452578063e8a3d4851461048a575f80fd5b8063a9059cbb146103d3578063ac9650d8146103e6578063ba2129b114610406578063d259ab4214610419575f80fd5b80638ea83031116100d95780638ea8303114610392578063938e3d7b146103a557806395d89b41146103b8578063a457c2d7146103c0575f80fd5b806379cc6790146103475780637ecebe001461035a5780638da5cb5b1461036d575f80fd5b8063313ce56711610174578063449a52f811610144578063449a52f8146102ad57806370a08231146102c05780637261fa29146102e85780637606329b1461030b575f80fd5b8063313ce567146102705780633644e5151461027f578063395093511461028757806342966c681461029a575f80fd5b80630e0bfb49116101af5780630e0bfb491461022b57806313af40351461024257806318160ddd1461025557806323b872dd1461025d575f80fd5b806306fdde03146101d5578063095ea7b3146101f35780630b8b29e514610216575b5f80fd5b6101dd610492565b6040516101ea9190611c7e565b60405180910390f35b610206610201366004611cab565b610522565b60405190151581526020016101ea565b610229610224366004611cab565b61053b565b005b61023460095481565b6040519081526020016101ea565b610229610250366004611cd3565b6105fe565b600454610234565b61020661026b366004611cec565b61062f565b604051601281526020016101ea565b610234610652565b610206610295366004611cab565b6106e1565b6102296102a8366004611d25565b61071f565b6102296102bb366004611cab565b610761565b6102346102ce366004611cd3565b6001600160a01b03165f9081526002602052604090205490565b6102fb6102f6366004611d3c565b610812565b6040516101ea9493929190611d90565b6101dd6040518060400160405280601981526020017f50726f647563657250726f746f636f6c4d61696e546f6b656e0000000000000081525081565b610229610355366004611cab565b610863565b610234610368366004611cd3565b610979565b6001546001600160a01b03165b6040516001600160a01b0390911681526020016101ea565b60085461037a906001600160a01b031681565b6102296103b3366004611dd3565b610996565b6101dd6109c4565b6102066103ce366004611cab565b6109d3565b6102066103e1366004611cab565b610a7c565b6103f96103f4366004611e7e565b610a89565b6040516101ea9190611eed565b610229610414366004611d25565b610bed565b610229610427366004611cd3565b610c6c565b61022961043a366004611f4f565b610d1c565b61022961044d366004611fbc565b610e9f565b61023461046036600461200b565b6001600160a01b039182165f90815260036020908152604080832093909416825291909152205490565b6101dd611069565b6060600580546104a19061203c565b80601f01602080910402602001604051908101604052809291908181526020018280546104cd9061203c565b80156105185780601f106104ef57610100808354040283529160200191610518565b820191905f5260205f20905b8154815290600101906020018083116104fb57829003601f168201915b5050505050905090565b5f3361052f8185856110f4565b60019150505b92915050565b6008546001600160a01b0316331461059a5760405162461bcd60e51b815260206004820152601a60248201527f4f6e6c79207377617020636f6e747261637420616c6c6f77656400000000000060448201526064015b60405180910390fd5b5f600954826105a99190612082565b90506105b58382611217565b60408051838152602081018390526001600160a01b038516917f0b4e964e267083888fc5842617dfbdedf343ac40fddd3a42bed80afeccd7dbbf910160405180910390a2505050565b6106066112f3565b610623576040516316ccb9cb60e11b815260040160405180910390fd5b61062c8161131f565b50565b5f3361063c85828561137d565b61064785858561140d565b506001949350505050565b5f306001600160a01b037f0000000000000000000000000000000000000000000000000000000000000000161480156106aa57507f000000000000000000000000000000000000000000000000000000000000000046145b156106d457507f000000000000000000000000000000000000000000000000000000000000000090565b6106dc611608565b905090565b335f8181526003602090815260408083206001600160a01b038716845290915281205490919061052f908290869061071a908790612099565b6110f4565b610729338261169c565b60405181815233907ffd38818f5291bf0bb3a2a48aadc06ba8757865d1dabd804585338aab3009dcb69060200160405180910390a250565b6107696112f3565b6107b55760405162461bcd60e51b815260206004820152601760248201527f4e6f7420617574686f72697a656420746f206d696e742e0000000000000000006044820152606401610591565b805f036108045760405162461bcd60e51b815260206004820152601460248201527f4d696e74696e67207a65726f20746f6b656e732e0000000000000000000000006044820152606401610591565b61080e8282611217565b5050565b600a602052815f5260405f20818154811061082b575f80fd5b5f9182526020909120600390910201805460018201546002909201546001600160a01b0382169450600160a01b90910460ff16925084565b61086b6112f3565b6108b75760405162461bcd60e51b815260206004820152601760248201527f4e6f7420617574686f72697a656420746f206275726e2e0000000000000000006044820152606401610591565b806108d6836001600160a01b03165f9081526002602052604090205490565b10156109245760405162461bcd60e51b815260206004820152601260248201527f6e6f7420656e6f7567682062616c616e636500000000000000000000000000006044820152606401610591565b6001600160a01b0382165f9081526003602090815260408083203384529091528120546109529083906120ac565b905061095f83335f6110f4565b61096a8333836110f4565b610974838361169c565b505050565b6001600160a01b0381165f90815260076020526040812054610535565b61099e6112f3565b6109bb57604051639f7f092560e01b815260040160405180910390fd5b61062c816117e7565b6060600680546104a19061203c565b335f8181526003602090815260408083206001600160a01b038716845290915281205490919083811015610a6f5760405162461bcd60e51b815260206004820152602560248201527f45524332303a2064656372656173656420616c6c6f77616e63652062656c6f7760448201527f207a65726f0000000000000000000000000000000000000000000000000000006064820152608401610591565b61064782868684036110f4565b5f3361052f81858561140d565b60608167ffffffffffffffff811115610aa457610aa4611dbf565b604051908082528060200260200182016040528015610ad757816020015b6060815260200190600190039081610ac25790505b509050335f805b84811015610be4578115610b5d57610b3b30878784818110610b0257610b026120bf565b9050602002810190610b1491906120d3565b86604051602001610b279392919061211d565b6040516020818303038152906040526118be565b848281518110610b4d57610b4d6120bf565b6020026020010181905250610bdc565b610bbe30878784818110610b7357610b736120bf565b9050602002810190610b8591906120d3565b8080601f0160208091040260200160405190810160405280939291908181526020018383808284375f920191909152506118be92505050565b848281518110610bd057610bd06120bf565b60200260200101819052505b600101610ade565b50505092915050565b6001546001600160a01b03163314610c18576040516316ccb9cb60e11b815260040160405180910390fd5b5f8111610c675760405162461bcd60e51b815260206004820152600d60248201527f496e76616c696420726174696f000000000000000000000000000000000000006044820152606401610591565b600955565b6001546001600160a01b03163314610c97576040516316ccb9cb60e11b815260040160405180910390fd5b6001600160a01b038116610ced5760405162461bcd60e51b815260206004820152600f60248201527f496e76616c6964206164647265737300000000000000000000000000000000006044820152606401610591565b6008805473ffffffffffffffffffffffffffffffffffffffff19166001600160a01b0392909216919091179055565b83421115610d6c5760405162461bcd60e51b815260206004820152601d60248201527f45524332305065726d69743a206578706972656420646561646c696e650000006044820152606401610591565b5f7f0000000000000000000000000000000000000000000000000000000000000000888888610d9a8c6118ea565b6040805160208101969096526001600160a01b0394851690860152929091166060840152608083015260a082015260c0810186905260e0016040516020818303038152906040528051906020012090505f610e16610df6610652565b8360405161190160f01b8152600281019290925260228201526042902090565b90505f610e2582878787611911565b9050896001600160a01b0316816001600160a01b031614610e885760405162461bcd60e51b815260206004820152601e60248201527f45524332305065726d69743a20696e76616c6964207369676e617475726500006044820152606401610591565b610e938a8a8a6110f4565b50505050505050505050565b6001546001600160a01b03163314610eca576040516316ccb9cb60e11b815260040160405180910390fd5b6001600160a01b038516610f205760405162461bcd60e51b815260206004820152601160248201527f496e76616c696420726563697069656e740000000000000000000000000000006044820152606401610591565b610f2a8585611217565b600a5f8481526020019081526020015f206040518060800160405280876001600160a01b03168152602001846001811115610f6757610f67611d5c565b81526020808201859052426040909201919091528254600181810185555f94855293829020835160039092020180546001600160a01b0390921673ffffffffffffffffffffffffffffffffffffffff1983168117825592840151939490939284927fffffffffffffffffffffff000000000000000000000000000000000000000000161790600160a01b90849081111561100357611003611d5c565b021790555060408201518160010155606082015181600201555050846001600160a01b0316837fe61fff04519ec4968ac0495e2e80af6a9c688db045b5c00ab20ee392e0aa7383848460405161105a929190612143565b60405180910390a35050505050565b5f80546110759061203c565b80601f01602080910402602001604051908101604052809291908181526020018280546110a19061203c565b80156110ec5780601f106110c3576101008083540402835291602001916110ec565b820191905f5260205f20905b8154815290600101906020018083116110cf57829003601f168201915b505050505081565b6001600160a01b0383166111565760405162461bcd60e51b8152602060048201526024808201527f45524332303a20617070726f76652066726f6d20746865207a65726f206164646044820152637265737360e01b6064820152608401610591565b6001600160a01b0382166111b75760405162461bcd60e51b815260206004820152602260248201527f45524332303a20617070726f766520746f20746865207a65726f206164647265604482015261737360f01b6064820152608401610591565b6001600160a01b038381165f8181526003602090815260408083209487168084529482529182902085905590518481527f8c5be1e5ebec7d5bd14f71427d1e84f3dd0314c0f7b2291e5b200ac8c7c3b925910160405180910390a3505050565b6001600160a01b03821661126d5760405162461bcd60e51b815260206004820152601f60248201527f45524332303a206d696e7420746f20746865207a65726f2061646472657373006044820152606401610591565b8060045f82825461127e9190612099565b90915550506001600160a01b0382165f90815260026020526040812080548392906112aa908490612099565b90915550506040518181526001600160a01b038316905f907fddf252ad1be2c89b69c2b068fc378daa952ba7f163c4a11628f55a4df523b3ef9060200160405180910390a35050565b5f6113066001546001600160a01b031690565b6001600160a01b0316336001600160a01b031614905090565b600180546001600160a01b0383811673ffffffffffffffffffffffffffffffffffffffff19831681179093556040519116919082907f8292fce18fa69edf4db7b94ea2e58241df0ae57f97e0a6c9b29067028bf92d76905f90a35050565b6001600160a01b038381165f908152600360209081526040808320938616835292905220545f19811461140757818110156113fa5760405162461bcd60e51b815260206004820152601d60248201527f45524332303a20696e73756666696369656e7420616c6c6f77616e63650000006044820152606401610591565b61140784848484036110f4565b50505050565b6001600160a01b0383166114895760405162461bcd60e51b815260206004820152602560248201527f45524332303a207472616e736665722066726f6d20746865207a65726f20616460448201527f64726573730000000000000000000000000000000000000000000000000000006064820152608401610591565b6001600160a01b0382166114eb5760405162461bcd60e51b815260206004820152602360248201527f45524332303a207472616e7366657220746f20746865207a65726f206164647260448201526265737360e81b6064820152608401610591565b6001600160a01b0383165f90815260026020526040902054818110156115795760405162461bcd60e51b815260206004820152602660248201527f45524332303a207472616e7366657220616d6f756e742065786365656473206260448201527f616c616e636500000000000000000000000000000000000000000000000000006064820152608401610591565b6001600160a01b038085165f908152600260205260408082208585039055918516815290812080548492906115af908490612099565b92505081905550826001600160a01b0316846001600160a01b03167fddf252ad1be2c89b69c2b068fc378daa952ba7f163c4a11628f55a4df523b3ef846040516115fb91815260200190565b60405180910390a3611407565b5f7f8b73c3c69bb8fe3d512ecc4cf759cc79239f7b179b0ffacaa9a75d522b39400f611632610492565b80516020918201206040805192830193909352918101919091527fc89efdaa54c0f20c7adf612882df0950f5a951637e0307cdcb4c672f298b8bc660608201524660808201523060a082015260c00160405160208183030381529060405280519060200120905090565b6001600160a01b0382166116fc5760405162461bcd60e51b815260206004820152602160248201527f45524332303a206275726e2066726f6d20746865207a65726f206164647265736044820152607360f81b6064820152608401610591565b6001600160a01b0382165f908152600260205260409020548181101561176f5760405162461bcd60e51b815260206004820152602260248201527f45524332303a206275726e20616d6f756e7420657863656564732062616c616e604482015261636560f01b6064820152608401610591565b6001600160a01b0383165f90815260026020526040812083830390556004805484929061179d9084906120ac565b90915550506040518281525f906001600160a01b038516907fddf252ad1be2c89b69c2b068fc378daa952ba7f163c4a11628f55a4df523b3ef9060200160405180910390a3505050565b5f8080546117f49061203c565b80601f01602080910402602001604051908101604052809291908181526020018280546118209061203c565b801561186b5780601f106118425761010080835404028352916020019161186b565b820191905f5260205f20905b81548152906001019060200180831161184e57829003601f168201915b50505050509050815f908161188091906121a9565b507fc9c7c3fe08b88b4df9d4d47ef47d2c43d55c025a0ba88ca442580ed9e7348a1681836040516118b2929190612269565b60405180910390a15050565b60606118e383836040518060600160405280602781526020016122ad60279139611939565b9392505050565b6001600160a01b0381165f9081526007602052604090208054600181018255905b50919050565b5f805f611920878787876119ad565b9150915061192d81611a6a565b5090505b949350505050565b60605f80856001600160a01b0316856040516119559190612296565b5f60405180830381855af49150503d805f811461198d576040519150601f19603f3d011682016040523d82523d5f602084013e611992565b606091505b50915091506119a386838387611bb3565b9695505050505050565b5f807f7fffffffffffffffffffffffffffffff5d576e7357a4501ddfe92f46681b20a08311156119e257505f90506003611a61565b604080515f8082526020820180845289905260ff881692820192909252606081018690526080810185905260019060a0016020604051602081039080840390855afa158015611a33573d5f803e3d5ffd5b5050604051601f1901519150506001600160a01b038116611a5b575f60019250925050611a61565b91505f90505b94509492505050565b5f816004811115611a7d57611a7d611d5c565b03611a855750565b6001816004811115611a9957611a99611d5c565b03611ae65760405162461bcd60e51b815260206004820152601860248201527f45434453413a20696e76616c6964207369676e617475726500000000000000006044820152606401610591565b6002816004811115611afa57611afa611d5c565b03611b475760405162461bcd60e51b815260206004820152601f60248201527f45434453413a20696e76616c6964207369676e6174757265206c656e677468006044820152606401610591565b6003816004811115611b5b57611b5b611d5c565b0361062c5760405162461bcd60e51b815260206004820152602260248201527f45434453413a20696e76616c6964207369676e6174757265202773272076616c604482015261756560f01b6064820152608401610591565b60608315611c215782515f03611c1a576001600160a01b0385163b611c1a5760405162461bcd60e51b815260206004820152601d60248201527f416464726573733a2063616c6c20746f206e6f6e2d636f6e74726163740000006044820152606401610591565b5081611931565b6119318383815115611c365781518083602001fd5b8060405162461bcd60e51b81526004016105919190611c7e565b5f81518084528060208401602086015e5f602082860101526020601f19601f83011685010191505092915050565b602081525f6118e36020830184611c50565b80356001600160a01b0381168114611ca6575f80fd5b919050565b5f8060408385031215611cbc575f80fd5b611cc583611c90565b946020939093013593505050565b5f60208284031215611ce3575f80fd5b6118e382611c90565b5f805f60608486031215611cfe575f80fd5b611d0784611c90565b9250611d1560208501611c90565b9150604084013590509250925092565b5f60208284031215611d35575f80fd5b5035919050565b5f8060408385031215611d4d575f80fd5b50508035926020909101359150565b634e487b7160e01b5f52602160045260245ffd5b60028110611d8c57634e487b7160e01b5f52602160045260245ffd5b9052565b6001600160a01b038516815260808101611dad6020830186611d70565b60408201939093526060015292915050565b634e487b7160e01b5f52604160045260245ffd5b5f60208284031215611de3575f80fd5b813567ffffffffffffffff80821115611dfa575f80fd5b818401915084601f830112611e0d575f80fd5b813581811115611e1f57611e1f611dbf565b604051601f8201601f19908116603f01168101908382118183101715611e4757611e47611dbf565b81604052828152876020848701011115611e5f575f80fd5b826020860160208301375f928101602001929092525095945050505050565b5f8060208385031215611e8f575f80fd5b823567ffffffffffffffff80821115611ea6575f80fd5b818501915085601f830112611eb9575f80fd5b813581811115611ec7575f80fd5b8660208260051b8501011115611edb575f80fd5b60209290920196919550909350505050565b5f60208083016020845280855180835260408601915060408160051b8701019250602087015f5b82811015611f4257603f19888603018452611f30858351611c50565b94509285019290850190600101611f14565b5092979650505050505050565b5f805f805f805f60e0888a031215611f65575f80fd5b611f6e88611c90565b9650611f7c60208901611c90565b95506040880135945060608801359350608088013560ff81168114611f9f575f80fd5b9699959850939692959460a0840135945060c09093013592915050565b5f805f805f60a08688031215611fd0575f80fd5b611fd986611c90565b94506020860135935060408601359250606086013560028110611ffa575f80fd5b949793965091946080013592915050565b5f806040838503121561201c575f80fd5b61202583611c90565b915061203360208401611c90565b90509250929050565b600181811c9082168061205057607f821691505b60208210810361190b57634e487b7160e01b5f52602260045260245ffd5b634e487b7160e01b5f52601160045260245ffd5b80820281158282048414176105355761053561206e565b808201808211156105355761053561206e565b818103818111156105355761053561206e565b634e487b7160e01b5f52603260045260245ffd5b5f808335601e198436030181126120e8575f80fd5b83018035915067ffffffffffffffff821115612102575f80fd5b602001915036819003821315612116575f80fd5b9250929050565b8284823760609190911b6bffffffffffffffffffffffff19169101908152601401919050565b604081016121518285611d70565b8260208301529392505050565b601f82111561097457805f5260205f20601f840160051c810160208510156121835750805b601f840160051c820191505b818110156121a2575f815560010161218f565b5050505050565b815167ffffffffffffffff8111156121c3576121c3611dbf565b6121d7816121d1845461203c565b8461215e565b602080601f83116001811461220a575f84156121f35750858301515b5f19600386901b1c1916600185901b178555612261565b5f85815260208120601f198616915b8281101561223857888601518255948401946001909101908401612219565b508582101561225557878501515f19600388901b60f8161c191681555b505060018460011b0185555b505050505050565b604081525f61227b6040830185611c50565b828103602084015261228d8185611c50565b95945050505050565b5f82518060208501845e5f92019182525091905056fe416464726573733a206c6f772d6c6576656c2064656c65676174652063616c6c206661696c6564a26469706673582212209b840b4d45e637e9e37b425f1db7038ff226e3c2018ff808216158a0b37af6ab64736f6c63430008190033",
      "opcodes": "PUSH2 0x100 PUSH1 0x40 MSTORE PUSH32 0x6E71EDAE12B1B97F4D1F60370FEF10105FA2FAAE0126114A169C64845D6126C9 PUSH1 0xE0 MSTORE PUSH1 0x1 PUSH1 0x9 SSTORE CALLVALUE DUP1 ISZERO PUSH2 0x39 JUMPI PUSH0 DUP1 REVERT JUMPDEST POP PUSH1 0x40 MLOAD PUSH2 0x27A2 CODESIZE SUB DUP1 PUSH2 0x27A2 DUP4 CODECOPY DUP2 ADD PUSH1 0x40 DUP2 SWAP1 MSTORE PUSH2 0x58 SWAP2 PUSH2 0x2E2 JUMP JUMPDEST DUP1 PUSH1 0x40 MLOAD DUP1 PUSH1 0x40 ADD PUSH1 0x40 MSTORE DUP1 PUSH1 0x4 DUP2 MSTORE PUSH1 0x20 ADD PUSH4 0x4D6F6A6F PUSH1 0xE0 SHL DUP2 MSTORE POP PUSH1 0x40 MLOAD DUP1 PUSH1 0x40 ADD PUSH1 0x40 MSTORE DUP1 PUSH1 0x4 DUP2 MSTORE PUSH1 0x20 ADD PUSH4 0x4D4F4A4F PUSH1 0xE0 SHL DUP2 MSTORE POP DUP2 DUP2 DUP2 DUP2 DUP2 PUSH1 0x5 SWAP1 DUP2 PUSH2 0xA6 SWAP2 SWAP1 PUSH2 0x3A7 JUMP JUMPDEST POP PUSH1 0x6 PUSH2 0xB3 DUP3 DUP3 PUSH2 0x3A7 JUMP JUMPDEST POP POP CHAINID PUSH1 0xA0 MSTORE POP ADDRESS PUSH1 0xC0 MSTORE PUSH2 0xC6 PUSH2 0x16D JUMP JUMPDEST PUSH1 0x80 MSTORE POP PUSH2 0xD5 SWAP1 POP DUP4 PUSH2 0x201 JUMP JUMPDEST POP POP POP PUSH1 0x1 PUSH1 0x1 PUSH1 0xA0 SHL SUB DUP2 AND PUSH20 0x2AF17552F27021666BCD3E5BA65F68CB5EC217FC EQ PUSH2 0x148 JUMPI PUSH1 0x40 MLOAD PUSH3 0x461BCD PUSH1 0xE5 SHL DUP2 MSTORE PUSH1 0x20 PUSH1 0x4 DUP3 ADD MSTORE PUSH1 0x15 PUSH1 0x24 DUP3 ADD MSTORE PUSH32 0x496E76616C696420696E697469616C206F776E65720000000000000000000000 PUSH1 0x44 DUP3 ADD MSTORE PUSH1 0x64 ADD PUSH1 0x40 MLOAD DUP1 SWAP2 SUB SWAP1 REVERT JUMPDEST PUSH1 0x8 DUP1 SLOAD PUSH1 0x1 PUSH1 0x1 PUSH1 0xA0 SHL SUB NOT AND PUSH1 0x1 PUSH1 0x1 PUSH1 0xA0 SHL SUB SWAP3 SWAP1 SWAP3 AND SWAP2 SWAP1 SWAP2 OR SWAP1 SSTORE PUSH2 0x466 JUMP JUMPDEST PUSH0 PUSH32 0x8B73C3C69BB8FE3D512ECC4CF759CC79239F7B179B0FFACAA9A75D522B39400F PUSH2 0x197 PUSH2 0x252 JUMP JUMPDEST DUP1 MLOAD PUSH1 0x20 SWAP2 DUP3 ADD KECCAK256 PUSH1 0x40 DUP1 MLOAD SWAP3 DUP4 ADD SWAP4 SWAP1 SWAP4 MSTORE SWAP2 DUP2 ADD SWAP2 SWAP1 SWAP2 MSTORE PUSH32 0xC89EFDAA54C0F20C7ADF612882DF0950F5A951637E0307CDCB4C672F298B8BC6 PUSH1 0x60 DUP3 ADD MSTORE CHAINID PUSH1 0x80 DUP3 ADD MSTORE ADDRESS PUSH1 0xA0 DUP3 ADD MSTORE PUSH1 0xC0 ADD PUSH1 0x40 MLOAD PUSH1 0x20 DUP2 DUP4 SUB SUB DUP2 MSTORE SWAP1 PUSH1 0x40 MSTORE DUP1 MLOAD SWAP1 PUSH1 0x20 ADD KECCAK256 SWAP1 POP SWAP1 JUMP JUMPDEST PUSH1 0x1 DUP1 SLOAD PUSH1 0x1 PUSH1 0x1 PUSH1 0xA0 SHL SUB DUP4 DUP2 AND PUSH1 0x1 PUSH1 0x1 PUSH1 0xA0 SHL SUB NOT DUP4 AND DUP2 OR SWAP1 SWAP4 SSTORE PUSH1 0x40 MLOAD SWAP2 AND SWAP2 SWAP1 DUP3 SWAP1 PUSH32 0x8292FCE18FA69EDF4DB7B94EA2E58241DF0AE57F97E0A6C9B29067028BF92D76 SWAP1 PUSH0 SWAP1 LOG3 POP POP JUMP JUMPDEST PUSH1 0x60 PUSH1 0x5 DUP1 SLOAD PUSH2 0x261 SWAP1 PUSH2 0x323 JUMP JUMPDEST DUP1 PUSH1 0x1F ADD PUSH1 0x20 DUP1 SWAP2 DIV MUL PUSH1 0x20 ADD PUSH1 0x40 MLOAD SWAP1 DUP2 ADD PUSH1 0x40 MSTORE DUP1 SWAP3 SWAP2 SWAP1 DUP2 DUP2 MSTORE PUSH1 0x20 ADD DUP3 DUP1 SLOAD PUSH2 0x28D SWAP1 PUSH2 0x323 JUMP JUMPDEST DUP1 ISZERO PUSH2 0x2D8 JUMPI DUP1 PUSH1 0x1F LT PUSH2 0x2AF JUMPI PUSH2 0x100 DUP1 DUP4 SLOAD DIV MUL DUP4 MSTORE SWAP2 PUSH1 0x20 ADD SWAP2 PUSH2 0x2D8 JUMP JUMPDEST DUP3 ADD SWAP2 SWAP1 PUSH0 MSTORE PUSH1 0x20 PUSH0 KECCAK256 SWAP1 JUMPDEST DUP2 SLOAD DUP2 MSTORE SWAP1 PUSH1 0x1 ADD SWAP1 PUSH1 0x20 ADD DUP1 DUP4 GT PUSH2 0x2BB JUMPI DUP3 SWAP1 SUB PUSH1 0x1F AND DUP3 ADD SWAP2 JUMPDEST POP POP POP POP POP SWAP1 POP SWAP1 JUMP JUMPDEST PUSH0 PUSH1 0x20 DUP3 DUP5 SUB SLT ISZERO PUSH2 0x2F2 JUMPI PUSH0 DUP1 REVERT JUMPDEST DUP2 MLOAD PUSH1 0x1 PUSH1 0x1 PUSH1 0xA0 SHL SUB DUP2 AND DUP2 EQ PUSH2 0x308 JUMPI PUSH0 DUP1 REVERT JUMPDEST SWAP4 SWAP3 POP POP POP JUMP JUMPDEST PUSH4 0x4E487B71 PUSH1 0xE0 SHL PUSH0 MSTORE PUSH1 0x41 PUSH1 0x4 MSTORE PUSH1 0x24 PUSH0 REVERT JUMPDEST PUSH1 0x1 DUP2 DUP2 SHR SWAP1 DUP3 AND DUP1 PUSH2 0x337 JUMPI PUSH1 0x7F DUP3 AND SWAP2 POP JUMPDEST PUSH1 0x20 DUP3 LT DUP2 SUB PUSH2 0x355 JUMPI PUSH4 0x4E487B71 PUSH1 0xE0 SHL PUSH0 MSTORE PUSH1 0x22 PUSH1 0x4 MSTORE PUSH1 0x24 PUSH0 REVERT JUMPDEST POP SWAP2 SWAP1 POP JUMP JUMPDEST PUSH1 0x1F DUP3 GT ISZERO PUSH2 0x3A2 JUMPI DUP1 PUSH0 MSTORE PUSH1 0x20 PUSH0 KECCAK256 PUSH1 0x1F DUP5 ADD PUSH1 0x5 SHR DUP2 ADD PUSH1 0x20 DUP6 LT ISZERO PUSH2 0x380 JUMPI POP DUP1 JUMPDEST PUSH1 0x1F DUP5 ADD PUSH1 0x5 SHR DUP3 ADD SWAP2 POP JUMPDEST DUP2 DUP2 LT ISZERO PUSH2 0x39F JUMPI PUSH0 DUP2 SSTORE PUSH1 0x1 ADD PUSH2 0x38C JUMP JUMPDEST POP POP JUMPDEST POP POP POP JUMP JUMPDEST DUP2 MLOAD PUSH1 0x1 PUSH1 0x1 PUSH1 0x40 SHL SUB DUP2 GT ISZERO PUSH2 0x3C0 JUMPI PUSH2 0x3C0 PUSH2 0x30F JUMP JUMPDEST PUSH2 0x3D4 DUP2 PUSH2 0x3CE DUP5 SLOAD PUSH2 0x323 JUMP JUMPDEST DUP5 PUSH2 0x35B JUMP JUMPDEST PUSH1 0x20 DUP1 PUSH1 0x1F DUP4 GT PUSH1 0x1 DUP2 EQ PUSH2 0x407 JUMPI PUSH0 DUP5 ISZERO PUSH2 0x3F0 JUMPI POP DUP6 DUP4 ADD MLOAD JUMPDEST PUSH0 NOT PUSH1 0x3 DUP7 SWAP1 SHL SHR NOT AND PUSH1 0x1 DUP6 SWAP1 SHL OR DUP6 SSTORE PUSH2 0x45E JUMP JUMPDEST PUSH0 DUP6 DUP2 MSTORE PUSH1 0x20 DUP2 KECCAK256 PUSH1 0x1F NOT DUP7 AND SWAP2 JUMPDEST DUP3 DUP2 LT ISZERO PUSH2 0x435 JUMPI DUP9 DUP7 ADD MLOAD DUP3 SSTORE SWAP5 DUP5 ADD SWAP5 PUSH1 0x1 SWAP1 SWAP2 ADD SWAP1 DUP5 ADD PUSH2 0x416 JUMP JUMPDEST POP DUP6 DUP3 LT ISZERO PUSH2 0x452 JUMPI DUP8 DUP6 ADD MLOAD PUSH0 NOT PUSH1 0x3 DUP9 SWAP1 SHL PUSH1 0xF8 AND SHR NOT AND DUP2 SSTORE JUMPDEST POP POP PUSH1 0x1 DUP5 PUSH1 0x1 SHL ADD DUP6 SSTORE JUMPDEST POP POP POP POP POP POP JUMP JUMPDEST PUSH1 0x80 MLOAD PUSH1 0xA0 MLOAD PUSH1 0xC0 MLOAD PUSH1 0xE0 MLOAD PUSH2 0x2309 PUSH2 0x499 PUSH0 CODECOPY PUSH0 PUSH2 0xD6F ADD MSTORE PUSH0 PUSH2 0x65E ADD MSTORE PUSH0 PUSH2 0x688 ADD MSTORE PUSH0 PUSH2 0x6B2 ADD MSTORE PUSH2 0x2309 PUSH0 RETURN INVALID PUSH1 0x80 PUSH1 0x40 MSTORE CALLVALUE DUP1 ISZERO PUSH2 0xF JUMPI PUSH0 DUP1 REVERT JUMPDEST POP PUSH1 0x4 CALLDATASIZE LT PUSH2 0x1D1 JUMPI PUSH0 CALLDATALOAD PUSH1 0xE0 SHR DUP1 PUSH4 0x79CC6790 GT PUSH2 0xFE JUMPI DUP1 PUSH4 0xA9059CBB GT PUSH2 0x9E JUMPI DUP1 PUSH4 0xD505ACCF GT PUSH2 0x6E JUMPI DUP1 PUSH4 0xD505ACCF EQ PUSH2 0x42C JUMPI DUP1 PUSH4 0xD9CDEE0D EQ PUSH2 0x43F JUMPI DUP1 PUSH4 0xDD62ED3E EQ PUSH2 0x452 JUMPI DUP1 PUSH4 0xE8A3D485 EQ PUSH2 0x48A JUMPI PUSH0 DUP1 REVERT JUMPDEST DUP1 PUSH4 0xA9059CBB EQ PUSH2 0x3D3 JUMPI DUP1 PUSH4 0xAC9650D8 EQ PUSH2 0x3E6 JUMPI DUP1 PUSH4 0xBA2129B1 EQ PUSH2 0x406 JUMPI DUP1 PUSH4 0xD259AB42 EQ PUSH2 0x419 JUMPI PUSH0 DUP1 REVERT JUMPDEST DUP1 PUSH4 0x8EA83031 GT PUSH2 0xD9 JUMPI DUP1 PUSH4 0x8EA83031 EQ PUSH2 0x392 JUMPI DUP1 PUSH4 0x938E3D7B EQ PUSH2 0x3A5 JUMPI DUP1 PUSH4 0x95D89B41 EQ PUSH2 0x3B8 JUMPI DUP1 PUSH4 0xA457C2D7 EQ PUSH2 0x3C0 JUMPI PUSH0 DUP1 REVERT JUMPDEST DUP1 PUSH4 0x79CC6790 EQ PUSH2 0x347 JUMPI DUP1 PUSH4 0x7ECEBE00 EQ PUSH2 0x35A JUMPI DUP1 PUSH4 0x8DA5CB5B EQ PUSH2 0x36D JUMPI PUSH0 DUP1 REVERT JUMPDEST DUP1 PUSH4 0x313CE567 GT PUSH2 0x174 JUMPI DUP1 PUSH4 0x449A52F8 GT PUSH2 0x144 JUMPI DUP1 PUSH4 0x449A52F8 EQ PUSH2 0x2AD JUMPI DUP1 PUSH4 0x70A08231 EQ PUSH2 0x2C0 JUMPI DUP1 PUSH4 0x7261FA29 EQ PUSH2 0x2E8 JUMPI DUP1 PUSH4 0x7606329B EQ PUSH2 0x30B JUMPI PUSH0 DUP1 REVERT JUMPDEST DUP1 PUSH4 0x313CE567 EQ PUSH2 0x270 JUMPI DUP1 PUSH4 0x3644E515 EQ PUSH2 0x27F JUMPI DUP1 PUSH4 0x39509351 EQ PUSH2 0x287 JUMPI DUP1 PUSH4 0x42966C68 EQ PUSH2 0x29A JUMPI PUSH0 DUP1 REVERT JUMPDEST DUP1 PUSH4 0xE0BFB49 GT PUSH2 0x1AF JUMPI DUP1 PUSH4 0xE0BFB49 EQ PUSH2 0x22B JUMPI DUP1 PUSH4 0x13AF4035 EQ PUSH2 0x242 JUMPI DUP1 PUSH4 0x18160DDD EQ PUSH2 0x255 JUMPI DUP1 PUSH4 0x23B872DD EQ PUSH2 0x25D JUMPI PUSH0 DUP1 REVERT JUMPDEST DUP1 PUSH4 0x6FDDE03 EQ PUSH2 0x1D5 JUMPI DUP1 PUSH4 0x95EA7B3 EQ PUSH2 0x1F3 JUMPI DUP1 PUSH4 0xB8B29E5 EQ PUSH2 0x216 JUMPI JUMPDEST PUSH0 DUP1 REVERT JUMPDEST PUSH2 0x1DD PUSH2 0x492 JUMP JUMPDEST PUSH1 0x40 MLOAD PUSH2 0x1EA SWAP2 SWAP1 PUSH2 0x1C7E JUMP JUMPDEST PUSH1 0x40 MLOAD DUP1 SWAP2 SUB SWAP1 RETURN JUMPDEST PUSH2 0x206 PUSH2 0x201 CALLDATASIZE PUSH1 0x4 PUSH2 0x1CAB JUMP JUMPDEST PUSH2 0x522 JUMP JUMPDEST PUSH1 0x40 MLOAD SWAP1 ISZERO ISZERO DUP2 MSTORE PUSH1 0x20 ADD PUSH2 0x1EA JUMP JUMPDEST PUSH2 0x229 PUSH2 0x224 CALLDATASIZE PUSH1 0x4 PUSH2 0x1CAB JUMP JUMPDEST PUSH2 0x53B JUMP JUMPDEST STOP JUMPDEST PUSH2 0x234 PUSH1 0x9 SLOAD DUP2 JUMP JUMPDEST PUSH1 0x40 MLOAD SWAP1 DUP2 MSTORE PUSH1 0x20 ADD PUSH2 0x1EA JUMP JUMPDEST PUSH2 0x229 PUSH2 0x250 CALLDATASIZE PUSH1 0x4 PUSH2 0x1CD3 JUMP JUMPDEST PUSH2 0x5FE JUMP JUMPDEST PUSH1 0x4 SLOAD PUSH2 0x234 JUMP JUMPDEST PUSH2 0x206 PUSH2 0x26B CALLDATASIZE PUSH1 0x4 PUSH2 0x1CEC JUMP JUMPDEST PUSH2 0x62F JUMP JUMPDEST PUSH1 0x40 MLOAD PUSH1 0x12 DUP2 MSTORE PUSH1 0x20 ADD PUSH2 0x1EA JUMP JUMPDEST PUSH2 0x234 PUSH2 0x652 JUMP JUMPDEST PUSH2 0x206 PUSH2 0x295 CALLDATASIZE PUSH1 0x4 PUSH2 0x1CAB JUMP JUMPDEST PUSH2 0x6E1 JUMP JUMPDEST PUSH2 0x229 PUSH2 0x2A8 CALLDATASIZE PUSH1 0x4 PUSH2 0x1D25 JUMP JUMPDEST PUSH2 0x71F JUMP JUMPDEST PUSH2 0x229 PUSH2 0x2BB CALLDATASIZE PUSH1 0x4 PUSH2 0x1CAB JUMP JUMPDEST PUSH2 0x761 JUMP JUMPDEST PUSH2 0x234 PUSH2 0x2CE CALLDATASIZE PUSH1 0x4 PUSH2 0x1CD3 JUMP JUMPDEST PUSH1 0x1 PUSH1 0x1 PUSH1 0xA0 SHL SUB AND PUSH0 SWAP1 DUP2 MSTORE PUSH1 0x2 PUSH1 0x20 MSTORE PUSH1 0x40 SWAP1 KECCAK256 SLOAD SWAP1 JUMP JUMPDEST PUSH2 0x2FB PUSH2 0x2F6 CALLDATASIZE PUSH1 0x4 PUSH2 0x1D3C JUMP JUMPDEST PUSH2 0x812 JUMP JUMPDEST PUSH1 0x40 MLOAD PUSH2 0x1EA SWAP5 SWAP4 SWAP3 SWAP2 SWAP1 PUSH2 0x1D90 JUMP JUMPDEST PUSH2 0x1DD PUSH1 0x40 MLOAD DUP1 PUSH1 0x40 ADD PUSH1 0x40 MSTORE DUP1 PUSH1 0x19 DUP2 MSTORE PUSH1 0x20 ADD PUSH32 0x50726F647563657250726F746F636F6C4D61696E546F6B656E00000000000000 DUP2 MSTORE POP DUP2 JUMP JUMPDEST PUSH2 0x229 PUSH2 0x355 CALLDATASIZE PUSH1 0x4 PUSH2 0x1CAB JUMP JUMPDEST PUSH2 0x863 JUMP JUMPDEST PUSH2 0x234 PUSH2 0x368 CALLDATASIZE PUSH1 0x4 PUSH2 0x1CD3 JUMP JUMPDEST PUSH2 0x979 JUMP JUMPDEST PUSH1 0x1 SLOAD PUSH1 0x1 PUSH1 0x1 PUSH1 0xA0 SHL SUB AND JUMPDEST PUSH1 0x40 MLOAD PUSH1 0x1 PUSH1 0x1 PUSH1 0xA0 SHL SUB SWAP1 SWAP2 AND DUP2 MSTORE PUSH1 0x20 ADD PUSH2 0x1EA JUMP JUMPDEST PUSH1 0x8 SLOAD PUSH2 0x37A SWAP1 PUSH1 0x1 PUSH1 0x1 PUSH1 0xA0 SHL SUB AND DUP2 JUMP JUMPDEST PUSH2 0x229 PUSH2 0x3B3 CALLDATASIZE PUSH1 0x4 PUSH2 0x1DD3 JUMP JUMPDEST PUSH2 0x996 JUMP JUMPDEST PUSH2 0x1DD PUSH2 0x9C4 JUMP JUMPDEST PUSH2 0x206 PUSH2 0x3CE CALLDATASIZE PUSH1 0x4 PUSH2 0x1CAB JUMP JUMPDEST PUSH2 0x9D3 JUMP JUMPDEST PUSH2 0x206 PUSH2 0x3E1 CALLDATASIZE PUSH1 0x4 PUSH2 0x1CAB JUMP JUMPDEST PUSH2 0xA7C JUMP JUMPDEST PUSH2 0x3F9 PUSH2 0x3F4 CALLDATASIZE PUSH1 0x4 PUSH2 0x1E7E JUMP JUMPDEST PUSH2 0xA89 JUMP JUMPDEST PUSH1 0x40 MLOAD PUSH2 0x1EA SWAP2 SWAP1 PUSH2 0x1EED JUMP JUMPDEST PUSH2 0x229 PUSH2 0x414 CALLDATASIZE PUSH1 0x4 PUSH2 0x1D25 JUMP JUMPDEST PUSH2 0xBED JUMP JUMPDEST PUSH2 0x229 PUSH2 0x427 CALLDATASIZE PUSH1 0x4 PUSH2 0x1CD3 JUMP JUMPDEST PUSH2 0xC6C JUMP JUMPDEST PUSH2 0x229 PUSH2 0x43A CALLDATASIZE PUSH1 0x4 PUSH2 0x1F4F JUMP JUMPDEST PUSH2 0xD1C JUMP JUMPDEST PUSH2 0x229 PUSH2 0x44D CALLDATASIZE PUSH1 0x4 PUSH2 0x1FBC JUMP JUMPDEST PUSH2 0xE9F JUMP JUMPDEST PUSH2 0x234 PUSH2 0x460 CALLDATASIZE PUSH1 0x4 PUSH2 0x200B JUMP JUMPDEST PUSH1 0x1 PUSH1 0x1 PUSH1 0xA0 SHL SUB SWAP2 DUP3 AND PUSH0 SWAP1 DUP2 MSTORE PUSH1 0x3 PUSH1 0x20 SWAP1 DUP2 MSTORE PUSH1 0x40 DUP1 DUP4 KECCAK256 SWAP4 SWAP1 SWAP5 AND DUP3 MSTORE SWAP2 SWAP1 SWAP2 MSTORE KECCAK256 SLOAD SWAP1 JUMP JUMPDEST PUSH2 0x1DD PUSH2 0x1069 JUMP JUMPDEST PUSH1 0x60 PUSH1 0x5 DUP1 SLOAD PUSH2 0x4A1 SWAP1 PUSH2 0x203C JUMP JUMPDEST DUP1 PUSH1 0x1F ADD PUSH1 0x20 DUP1 SWAP2 DIV MUL PUSH1 0x20 ADD PUSH1 0x40 MLOAD SWAP1 DUP2 ADD PUSH1 0x40 MSTORE DUP1 SWAP3 SWAP2 SWAP1 DUP2 DUP2 MSTORE PUSH1 0x20 ADD DUP3 DUP1 SLOAD PUSH2 0x4CD SWAP1 PUSH2 0x203C JUMP JUMPDEST DUP1 ISZERO PUSH2 0x518 JUMPI DUP1 PUSH1 0x1F LT PUSH2 0x4EF JUMPI PUSH2 0x100 DUP1 DUP4 SLOAD DIV MUL DUP4 MSTORE SWAP2 PUSH1 0x20 ADD SWAP2 PUSH2 0x518 JUMP JUMPDEST DUP3 ADD SWAP2 SWAP1 PUSH0 MSTORE PUSH1 0x20 PUSH0 KECCAK256 SWAP1 JUMPDEST DUP2 SLOAD DUP2 MSTORE SWAP1 PUSH1 0x1 ADD SWAP1 PUSH1 0x20 ADD DUP1 DUP4 GT PUSH2 0x4FB JUMPI DUP3 SWAP1 SUB PUSH1 0x1F AND DUP3 ADD SWAP2 JUMPDEST POP POP POP POP POP SWAP1 POP SWAP1 JUMP JUMPDEST PUSH0 CALLER PUSH2 0x52F DUP2 DUP6 DUP6 PUSH2 0x10F4 JUMP JUMPDEST PUSH1 0x1 SWAP2 POP POP JUMPDEST SWAP3 SWAP2 POP POP JUMP JUMPDEST PUSH1 0x8 SLOAD PUSH1 0x1 PUSH1 0x1 PUSH1 0xA0 SHL SUB AND CALLER EQ PUSH2 0x59A JUMPI PUSH1 0x40 MLOAD PUSH3 0x461BCD PUSH1 0xE5 SHL DUP2 MSTORE PUSH1 0x20 PUSH1 0x4 DUP3 ADD MSTORE PUSH1 0x1A PUSH1 0x24 DUP3 ADD MSTORE PUSH32 0x4F6E6C79207377617020636F6E747261637420616C6C6F776564000000000000 PUSH1 0x44 DUP3 ADD MSTORE PUSH1 0x64 ADD JUMPDEST PUSH1 0x40 MLOAD DUP1 SWAP2 SUB SWAP1 REVERT JUMPDEST PUSH0 PUSH1 0x9 SLOAD DUP3 PUSH2 0x5A9 SWAP2 SWAP1 PUSH2 0x2082 JUMP JUMPDEST SWAP1 POP PUSH2 0x5B5 DUP4 DUP3 PUSH2 0x1217 JUMP JUMPDEST PUSH1 0x40 DUP1 MLOAD DUP4 DUP2 MSTORE PUSH1 0x20 DUP2 ADD DUP4 SWAP1 MSTORE PUSH1 0x1 PUSH1 0x1 PUSH1 0xA0 SHL SUB DUP6 AND SWAP2 PUSH32 0xB4E964E267083888FC5842617DFBDEDF343AC40FDDD3A42BED80AFECCD7DBBF SWAP2 ADD PUSH1 0x40 MLOAD DUP1 SWAP2 SUB SWAP1 LOG2 POP POP POP JUMP JUMPDEST PUSH2 0x606 PUSH2 0x12F3 JUMP JUMPDEST PUSH2 0x623 JUMPI PUSH1 0x40 MLOAD PUSH4 0x16CCB9CB PUSH1 0xE1 SHL DUP2 MSTORE PUSH1 0x4 ADD PUSH1 0x40 MLOAD DUP1 SWAP2 SUB SWAP1 REVERT JUMPDEST PUSH2 0x62C DUP2 PUSH2 0x131F JUMP JUMPDEST POP JUMP JUMPDEST PUSH0 CALLER PUSH2 0x63C DUP6 DUP3 DUP6 PUSH2 0x137D JUMP JUMPDEST PUSH2 0x647 DUP6 DUP6 DUP6 PUSH2 0x140D JUMP JUMPDEST POP PUSH1 0x1 SWAP5 SWAP4 POP POP POP POP JUMP JUMPDEST PUSH0 ADDRESS PUSH1 0x1 PUSH1 0x1 PUSH1 0xA0 SHL SUB PUSH32 0x0 AND EQ DUP1 ISZERO PUSH2 0x6AA JUMPI POP PUSH32 0x0 CHAINID EQ JUMPDEST ISZERO PUSH2 0x6D4 JUMPI POP PUSH32 0x0 SWAP1 JUMP JUMPDEST PUSH2 0x6DC PUSH2 0x1608 JUMP JUMPDEST SWAP1 POP SWAP1 JUMP JUMPDEST CALLER PUSH0 DUP2 DUP2 MSTORE PUSH1 0x3 PUSH1 0x20 SWAP1 DUP2 MSTORE PUSH1 0x40 DUP1 DUP4 KECCAK256 PUSH1 0x1 PUSH1 0x1 PUSH1 0xA0 SHL SUB DUP8 AND DUP5 MSTORE SWAP1 SWAP2 MSTORE DUP2 KECCAK256 SLOAD SWAP1 SWAP2 SWAP1 PUSH2 0x52F SWAP1 DUP3 SWAP1 DUP7 SWAP1 PUSH2 0x71A SWAP1 DUP8 SWAP1 PUSH2 0x2099 JUMP JUMPDEST PUSH2 0x10F4 JUMP JUMPDEST PUSH2 0x729 CALLER DUP3 PUSH2 0x169C JUMP JUMPDEST PUSH1 0x40 MLOAD DUP2 DUP2 MSTORE CALLER SWAP1 PUSH32 0xFD38818F5291BF0BB3A2A48AADC06BA8757865D1DABD804585338AAB3009DCB6 SWAP1 PUSH1 0x20 ADD PUSH1 0x40 MLOAD DUP1 SWAP2 SUB SWAP1 LOG2 POP JUMP JUMPDEST PUSH2 0x769 PUSH2 0x12F3 JUMP JUMPDEST PUSH2 0x7B5 JUMPI PUSH1 0x40 MLOAD PUSH3 0x461BCD PUSH1 0xE5 SHL DUP2 MSTORE PUSH1 0x20 PUSH1 0x4 DUP3 ADD MSTORE PUSH1 0x17 PUSH1 0x24 DUP3 ADD MSTORE PUSH32 0x4E6F7420617574686F72697A656420746F206D696E742E000000000000000000 PUSH1 0x44 DUP3 ADD MSTORE PUSH1 0x64 ADD PUSH2 0x591 JUMP JUMPDEST DUP1 PUSH0 SUB PUSH2 0x804 JUMPI PUSH1 0x40 MLOAD PUSH3 0x461BCD PUSH1 0xE5 SHL DUP2 MSTORE PUSH1 0x20 PUSH1 0x4 DUP3 ADD MSTORE PUSH1 0x14 PUSH1 0x24 DUP3 ADD MSTORE PUSH32 0x4D696E74696E67207A65726F20746F6B656E732E000000000000000000000000 PUSH1 0x44 DUP3 ADD MSTORE PUSH1 0x64 ADD PUSH2 0x591 JUMP JUMPDEST PUSH2 0x80E DUP3 DUP3 PUSH2 0x1217 JUMP JUMPDEST POP POP JUMP JUMPDEST PUSH1 0xA PUSH1 0x20 MSTORE DUP2 PUSH0 MSTORE PUSH1 0x40 PUSH0 KECCAK256 DUP2 DUP2 SLOAD DUP2 LT PUSH2 0x82B JUMPI PUSH0 DUP1 REVERT JUMPDEST PUSH0 SWAP2 DUP3 MSTORE PUSH1 0x20 SWAP1 SWAP2 KECCAK256 PUSH1 0x3 SWAP1 SWAP2 MUL ADD DUP1 SLOAD PUSH1 0x1 DUP3 ADD SLOAD PUSH1 0x2 SWAP1 SWAP3 ADD SLOAD PUSH1 0x1 PUSH1 0x1 PUSH1 0xA0 SHL SUB DUP3 AND SWAP5 POP PUSH1 0x1 PUSH1 0xA0 SHL SWAP1 SWAP2 DIV PUSH1 0xFF AND SWAP3 POP DUP5 JUMP JUMPDEST PUSH2 0x86B PUSH2 0x12F3 JUMP JUMPDEST PUSH2 0x8B7 JUMPI PUSH1 0x40 MLOAD PUSH3 0x461BCD PUSH1 0xE5 SHL DUP2 MSTORE PUSH1 0x20 PUSH1 0x4 DUP3 ADD MSTORE PUSH1 0x17 PUSH1 0x24 DUP3 ADD MSTORE PUSH32 0x4E6F7420617574686F72697A656420746F206275726E2E000000000000000000 PUSH1 0x44 DUP3 ADD MSTORE PUSH1 0x64 ADD PUSH2 0x591 JUMP JUMPDEST DUP1 PUSH2 0x8D6 DUP4 PUSH1 0x1 PUSH1 0x1 PUSH1 0xA0 SHL SUB AND PUSH0 SWAP1 DUP2 MSTORE PUSH1 0x2 PUSH1 0x20 MSTORE PUSH1 0x40 SWAP1 KECCAK256 SLOAD SWAP1 JUMP JUMPDEST LT ISZERO PUSH2 0x924 JUMPI PUSH1 0x40 MLOAD PUSH3 0x461BCD PUSH1 0xE5 SHL DUP2 MSTORE PUSH1 0x20 PUSH1 0x4 DUP3 ADD MSTORE PUSH1 0x12 PUSH1 0x24 DUP3 ADD MSTORE PUSH32 0x6E6F7420656E6F7567682062616C616E63650000000000000000000000000000 PUSH1 0x44 DUP3 ADD MSTORE PUSH1 0x64 ADD PUSH2 0x591 JUMP JUMPDEST PUSH1 0x1 PUSH1 0x1 PUSH1 0xA0 SHL SUB DUP3 AND PUSH0 SWAP1 DUP2 MSTORE PUSH1 0x3 PUSH1 0x20 SWAP1 DUP2 MSTORE PUSH1 0x40 DUP1 DUP4 KECCAK256 CALLER DUP5 MSTORE SWAP1 SWAP2 MSTORE DUP2 KECCAK256 SLOAD PUSH2 0x952 SWAP1 DUP4 SWAP1 PUSH2 0x20AC JUMP JUMPDEST SWAP1 POP PUSH2 0x95F DUP4 CALLER PUSH0 PUSH2 0x10F4 JUMP JUMPDEST PUSH2 0x96A DUP4 CALLER DUP4 PUSH2 0x10F4 JUMP JUMPDEST PUSH2 0x974 DUP4 DUP4 PUSH2 0x169C JUMP JUMPDEST POP POP POP JUMP JUMPDEST PUSH1 0x1 PUSH1 0x1 PUSH1 0xA0 SHL SUB DUP2 AND PUSH0 SWAP1 DUP2 MSTORE PUSH1 0x7 PUSH1 0x20 MSTORE PUSH1 0x40 DUP2 KECCAK256 SLOAD PUSH2 0x535 JUMP JUMPDEST PUSH2 0x99E PUSH2 0x12F3 JUMP JUMPDEST PUSH2 0x9BB JUMPI PUSH1 0x40 MLOAD PUSH4 0x9F7F0925 PUSH1 0xE0 SHL DUP2 MSTORE PUSH1 0x4 ADD PUSH1 0x40 MLOAD DUP1 SWAP2 SUB SWAP1 REVERT JUMPDEST PUSH2 0x62C DUP2 PUSH2 0x17E7 JUMP JUMPDEST PUSH1 0x60 PUSH1 0x6 DUP1 SLOAD PUSH2 0x4A1 SWAP1 PUSH2 0x203C JUMP JUMPDEST CALLER PUSH0 DUP2 DUP2 MSTORE PUSH1 0x3 PUSH1 0x20 SWAP1 DUP2 MSTORE PUSH1 0x40 DUP1 DUP4 KECCAK256 PUSH1 0x1 PUSH1 0x1 PUSH1 0xA0 SHL SUB DUP8 AND DUP5 MSTORE SWAP1 SWAP2 MSTORE DUP2 KECCAK256 SLOAD SWAP1 SWAP2 SWAP1 DUP4 DUP2 LT ISZERO PUSH2 0xA6F JUMPI PUSH1 0x40 MLOAD PUSH3 0x461BCD PUSH1 0xE5 SHL DUP2 MSTORE PUSH1 0x20 PUSH1 0x4 DUP3 ADD MSTORE PUSH1 0x25 PUSH1 0x24 DUP3 ADD MSTORE PUSH32 0x45524332303A2064656372656173656420616C6C6F77616E63652062656C6F77 PUSH1 0x44 DUP3 ADD MSTORE PUSH32 0x207A65726F000000000000000000000000000000000000000000000000000000 PUSH1 0x64 DUP3 ADD MSTORE PUSH1 0x84 ADD PUSH2 0x591 JUMP JUMPDEST PUSH2 0x647 DUP3 DUP7 DUP7 DUP5 SUB PUSH2 0x10F4 JUMP JUMPDEST PUSH0 CALLER PUSH2 0x52F DUP2 DUP6 DUP6 PUSH2 0x140D JUMP JUMPDEST PUSH1 0x60 DUP2 PUSH8 0xFFFFFFFFFFFFFFFF DUP2 GT ISZERO PUSH2 0xAA4 JUMPI PUSH2 0xAA4 PUSH2 0x1DBF JUMP JUMPDEST PUSH1 0x40 MLOAD SWAP1 DUP1 DUP3 MSTORE DUP1 PUSH1 0x20 MUL PUSH1 0x20 ADD DUP3 ADD PUSH1 0x40 MSTORE DUP1 ISZERO PUSH2 0xAD7 JUMPI DUP2 PUSH1 0x20 ADD JUMPDEST PUSH1 0x60 DUP2 MSTORE PUSH1 0x20 ADD SWAP1 PUSH1 0x1 SWAP1 SUB SWAP1 DUP2 PUSH2 0xAC2 JUMPI SWAP1 POP JUMPDEST POP SWAP1 POP CALLER PUSH0 DUP1 JUMPDEST DUP5 DUP2 LT ISZERO PUSH2 0xBE4 JUMPI DUP2 ISZERO PUSH2 0xB5D JUMPI PUSH2 0xB3B ADDRESS DUP8 DUP8 DUP5 DUP2 DUP2 LT PUSH2 0xB02 JUMPI PUSH2 0xB02 PUSH2 0x20BF JUMP JUMPDEST SWAP1 POP PUSH1 0x20 MUL DUP2 ADD SWAP1 PUSH2 0xB14 SWAP2 SWAP1 PUSH2 0x20D3 JUMP JUMPDEST DUP7 PUSH1 0x40 MLOAD PUSH1 0x20 ADD PUSH2 0xB27 SWAP4 SWAP3 SWAP2 SWAP1 PUSH2 0x211D JUMP JUMPDEST PUSH1 0x40 MLOAD PUSH1 0x20 DUP2 DUP4 SUB SUB DUP2 MSTORE SWAP1 PUSH1 0x40 MSTORE PUSH2 0x18BE JUMP JUMPDEST DUP5 DUP3 DUP2 MLOAD DUP2 LT PUSH2 0xB4D JUMPI PUSH2 0xB4D PUSH2 0x20BF JUMP JUMPDEST PUSH1 0x20 MUL PUSH1 0x20 ADD ADD DUP2 SWAP1 MSTORE POP PUSH2 0xBDC JUMP JUMPDEST PUSH2 0xBBE ADDRESS DUP8 DUP8 DUP5 DUP2 DUP2 LT PUSH2 0xB73 JUMPI PUSH2 0xB73 PUSH2 0x20BF JUMP JUMPDEST SWAP1 POP PUSH1 0x20 MUL DUP2 ADD SWAP1 PUSH2 0xB85 SWAP2 SWAP1 PUSH2 0x20D3 JUMP JUMPDEST DUP1 DUP1 PUSH1 0x1F ADD PUSH1 0x20 DUP1 SWAP2 DIV MUL PUSH1 0x20 ADD PUSH1 0x40 MLOAD SWAP1 DUP2 ADD PUSH1 0x40 MSTORE DUP1 SWAP4 SWAP3 SWAP2 SWAP1 DUP2 DUP2 MSTORE PUSH1 0x20 ADD DUP4 DUP4 DUP1 DUP3 DUP5 CALLDATACOPY PUSH0 SWAP3 ADD SWAP2 SWAP1 SWAP2 MSTORE POP PUSH2 0x18BE SWAP3 POP POP POP JUMP JUMPDEST DUP5 DUP3 DUP2 MLOAD DUP2 LT PUSH2 0xBD0 JUMPI PUSH2 0xBD0 PUSH2 0x20BF JUMP JUMPDEST PUSH1 0x20 MUL PUSH1 0x20 ADD ADD DUP2 SWAP1 MSTORE POP JUMPDEST PUSH1 0x1 ADD PUSH2 0xADE JUMP JUMPDEST POP POP POP SWAP3 SWAP2 POP POP JUMP JUMPDEST PUSH1 0x1 SLOAD PUSH1 0x1 PUSH1 0x1 PUSH1 0xA0 SHL SUB AND CALLER EQ PUSH2 0xC18 JUMPI PUSH1 0x40 MLOAD PUSH4 0x16CCB9CB PUSH1 0xE1 SHL DUP2 MSTORE PUSH1 0x4 ADD PUSH1 0x40 MLOAD DUP1 SWAP2 SUB SWAP1 REVERT JUMPDEST PUSH0 DUP2 GT PUSH2 0xC67 JUMPI PUSH1 0x40 MLOAD PUSH3 0x461BCD PUSH1 0xE5 SHL DUP2 MSTORE PUSH1 0x20 PUSH1 0x4 DUP3 ADD MSTORE PUSH1 0xD PUSH1 0x24 DUP3 ADD MSTORE PUSH32 0x496E76616C696420726174696F00000000000000000000000000000000000000 PUSH1 0x44 DUP3 ADD MSTORE PUSH1 0x64 ADD PUSH2 0x591 JUMP JUMPDEST PUSH1 0x9 SSTORE JUMP JUMPDEST PUSH1 0x1 SLOAD PUSH1 0x1 PUSH1 0x1 PUSH1 0xA0 SHL SUB AND CALLER EQ PUSH2 0xC97 JUMPI PUSH1 0x40 MLOAD PUSH4 0x16CCB9CB PUSH1 0xE1 SHL DUP2 MSTORE PUSH1 0x4 ADD PUSH1 0x40 MLOAD DUP1 SWAP2 SUB SWAP1 REVERT JUMPDEST PUSH1 0x1 PUSH1 0x1 PUSH1 0xA0 SHL SUB DUP2 AND PUSH2 0xCED JUMPI PUSH1 0x40 MLOAD PUSH3 0x461BCD PUSH1 0xE5 SHL DUP2 MSTORE PUSH1 0x20 PUSH1 0x4 DUP3 ADD MSTORE PUSH1 0xF PUSH1 0x24 DUP3 ADD MSTORE PUSH32 0x496E76616C696420616464726573730000000000000000000000000000000000 PUSH1 0x44 DUP3 ADD MSTORE PUSH1 0x64 ADD PUSH2 0x591 JUMP JUMPDEST PUSH1 0x8 DUP1 SLOAD PUSH20 0xFFFFFFFFFFFFFFFFFFFFFFFFFFFFFFFFFFFFFFFF NOT AND PUSH1 0x1 PUSH1 0x1 PUSH1 0xA0 SHL SUB SWAP3 SWAP1 SWAP3 AND SWAP2 SWAP1 SWAP2 OR SWAP1 SSTORE JUMP JUMPDEST DUP4 TIMESTAMP GT ISZERO PUSH2 0xD6C JUMPI PUSH1 0x40 MLOAD PUSH3 0x461BCD PUSH1 0xE5 SHL DUP2 MSTORE PUSH1 0x20 PUSH1 0x4 DUP3 ADD MSTORE PUSH1 0x1D PUSH1 0x24 DUP3 ADD MSTORE PUSH32 0x45524332305065726D69743A206578706972656420646561646C696E65000000 PUSH1 0x44 DUP3 ADD MSTORE PUSH1 0x64 ADD PUSH2 0x591 JUMP JUMPDEST PUSH0 PUSH32 0x0 DUP9 DUP9 DUP9 PUSH2 0xD9A DUP13 PUSH2 0x18EA JUMP JUMPDEST PUSH1 0x40 DUP1 MLOAD PUSH1 0x20 DUP2 ADD SWAP7 SWAP1 SWAP7 MSTORE PUSH1 0x1 PUSH1 0x1 PUSH1 0xA0 SHL SUB SWAP5 DUP6 AND SWAP1 DUP7 ADD MSTORE SWAP3 SWAP1 SWAP2 AND PUSH1 0x60 DUP5 ADD MSTORE PUSH1 0x80 DUP4 ADD MSTORE PUSH1 0xA0 DUP3 ADD MSTORE PUSH1 0xC0 DUP2 ADD DUP7 SWAP1 MSTORE PUSH1 0xE0 ADD PUSH1 0x40 MLOAD PUSH1 0x20 DUP2 DUP4 SUB SUB DUP2 MSTORE SWAP1 PUSH1 0x40 MSTORE DUP1 MLOAD SWAP1 PUSH1 0x20 ADD KECCAK256 SWAP1 POP PUSH0 PUSH2 0xE16 PUSH2 0xDF6 PUSH2 0x652 JUMP JUMPDEST DUP4 PUSH1 0x40 MLOAD PUSH2 0x1901 PUSH1 0xF0 SHL DUP2 MSTORE PUSH1 0x2 DUP2 ADD SWAP3 SWAP1 SWAP3 MSTORE PUSH1 0x22 DUP3 ADD MSTORE PUSH1 0x42 SWAP1 KECCAK256 SWAP1 JUMP JUMPDEST SWAP1 POP PUSH0 PUSH2 0xE25 DUP3 DUP8 DUP8 DUP8 PUSH2 0x1911 JUMP JUMPDEST SWAP1 POP DUP10 PUSH1 0x1 PUSH1 0x1 PUSH1 0xA0 SHL SUB AND DUP2 PUSH1 0x1 PUSH1 0x1 PUSH1 0xA0 SHL SUB AND EQ PUSH2 0xE88 JUMPI PUSH1 0x40 MLOAD PUSH3 0x461BCD PUSH1 0xE5 SHL DUP2 MSTORE PUSH1 0x20 PUSH1 0x4 DUP3 ADD MSTORE PUSH1 0x1E PUSH1 0x24 DUP3 ADD MSTORE PUSH32 0x45524332305065726D69743A20696E76616C6964207369676E61747572650000 PUSH1 0x44 DUP3 ADD MSTORE PUSH1 0x64 ADD PUSH2 0x591 JUMP JUMPDEST PUSH2 0xE93 DUP11 DUP11 DUP11 PUSH2 0x10F4 JUMP JUMPDEST POP POP POP POP POP POP POP POP POP POP JUMP JUMPDEST PUSH1 0x1 SLOAD PUSH1 0x1 PUSH1 0x1 PUSH1 0xA0 SHL SUB AND CALLER EQ PUSH2 0xECA JUMPI PUSH1 0x40 MLOAD PUSH4 0x16CCB9CB PUSH1 0xE1 SHL DUP2 MSTORE PUSH1 0x4 ADD PUSH1 0x40 MLOAD DUP1 SWAP2 SUB SWAP1 REVERT JUMPDEST PUSH1 0x1 PUSH1 0x1 PUSH1 0xA0 SHL SUB DUP6 AND PUSH2 0xF20 JUMPI PUSH1 0x40 MLOAD PUSH3 0x461BCD PUSH1 0xE5 SHL DUP2 MSTORE PUSH1 0x20 PUSH1 0x4 DUP3 ADD MSTORE PUSH1 0x11 PUSH1 0x24 DUP3 ADD MSTORE PUSH32 0x496E76616C696420726563697069656E74000000000000000000000000000000 PUSH1 0x44 DUP3 ADD MSTORE PUSH1 0x64 ADD PUSH2 0x591 JUMP JUMPDEST PUSH2 0xF2A DUP6 DUP6 PUSH2 0x1217 JUMP JUMPDEST PUSH1 0xA PUSH0 DUP5 DUP2 MSTORE PUSH1 0x20 ADD SWAP1 DUP2 MSTORE PUSH1 0x20 ADD PUSH0 KECCAK256 PUSH1 0x40 MLOAD DUP1 PUSH1 0x80 ADD PUSH1 0x40 MSTORE DUP1 DUP8 PUSH1 0x1 PUSH1 0x1 PUSH1 0xA0 SHL SUB AND DUP2 MSTORE PUSH1 0x20 ADD DUP5 PUSH1 0x1 DUP2 GT ISZERO PUSH2 0xF67 JUMPI PUSH2 0xF67 PUSH2 0x1D5C JUMP JUMPDEST DUP2 MSTORE PUSH1 0x20 DUP1 DUP3 ADD DUP6 SWAP1 MSTORE TIMESTAMP PUSH1 0x40 SWAP1 SWAP3 ADD SWAP2 SWAP1 SWAP2 MSTORE DUP3 SLOAD PUSH1 0x1 DUP2 DUP2 ADD DUP6 SSTORE PUSH0 SWAP5 DUP6 MSTORE SWAP4 DUP3 SWAP1 KECCAK256 DUP4 MLOAD PUSH1 0x3 SWAP1 SWAP3 MUL ADD DUP1 SLOAD PUSH1 0x1 PUSH1 0x1 PUSH1 0xA0 SHL SUB SWAP1 SWAP3 AND PUSH20 0xFFFFFFFFFFFFFFFFFFFFFFFFFFFFFFFFFFFFFFFF NOT DUP4 AND DUP2 OR DUP3 SSTORE SWAP3 DUP5 ADD MLOAD SWAP4 SWAP5 SWAP1 SWAP4 SWAP3 DUP5 SWAP3 PUSH32 0xFFFFFFFFFFFFFFFFFFFFFF000000000000000000000000000000000000000000 AND OR SWAP1 PUSH1 0x1 PUSH1 0xA0 SHL SWAP1 DUP5 SWAP1 DUP2 GT ISZERO PUSH2 0x1003 JUMPI PUSH2 0x1003 PUSH2 0x1D5C JUMP JUMPDEST MUL OR SWAP1 SSTORE POP PUSH1 0x40 DUP3 ADD MLOAD DUP2 PUSH1 0x1 ADD SSTORE PUSH1 0x60 DUP3 ADD MLOAD DUP2 PUSH1 0x2 ADD SSTORE POP POP DUP5 PUSH1 0x1 PUSH1 0x1 PUSH1 0xA0 SHL SUB AND DUP4 PUSH32 0xE61FFF04519EC4968AC0495E2E80AF6A9C688DB045B5C00AB20EE392E0AA7383 DUP5 DUP5 PUSH1 0x40 MLOAD PUSH2 0x105A SWAP3 SWAP2 SWAP1 PUSH2 0x2143 JUMP JUMPDEST PUSH1 0x40 MLOAD DUP1 SWAP2 SUB SWAP1 LOG3 POP POP POP POP POP JUMP JUMPDEST PUSH0 DUP1 SLOAD PUSH2 0x1075 SWAP1 PUSH2 0x203C JUMP JUMPDEST DUP1 PUSH1 0x1F ADD PUSH1 0x20 DUP1 SWAP2 DIV MUL PUSH1 0x20 ADD PUSH1 0x40 MLOAD SWAP1 DUP2 ADD PUSH1 0x40 MSTORE DUP1 SWAP3 SWAP2 SWAP1 DUP2 DUP2 MSTORE PUSH1 0x20 ADD DUP3 DUP1 SLOAD PUSH2 0x10A1 SWAP1 PUSH2 0x203C JUMP JUMPDEST DUP1 ISZERO PUSH2 0x10EC JUMPI DUP1 PUSH1 0x1F LT PUSH2 0x10C3 JUMPI PUSH2 0x100 DUP1 DUP4 SLOAD DIV MUL DUP4 MSTORE SWAP2 PUSH1 0x20 ADD SWAP2 PUSH2 0x10EC JUMP JUMPDEST DUP3 ADD SWAP2 SWAP1 PUSH0 MSTORE PUSH1 0x20 PUSH0 KECCAK256 SWAP1 JUMPDEST DUP2 SLOAD DUP2 MSTORE SWAP1 PUSH1 0x1 ADD SWAP1 PUSH1 0x20 ADD DUP1 DUP4 GT PUSH2 0x10CF JUMPI DUP3 SWAP1 SUB PUSH1 0x1F AND DUP3 ADD SWAP2 JUMPDEST POP POP POP POP POP DUP2 JUMP JUMPDEST PUSH1 0x1 PUSH1 0x1 PUSH1 0xA0 SHL SUB DUP4 AND PUSH2 0x1156 JUMPI PUSH1 0x40 MLOAD PUSH3 0x461BCD PUSH1 0xE5 SHL DUP2 MSTORE PUSH1 0x20 PUSH1 0x4 DUP3 ADD MSTORE PUSH1 0x24 DUP1 DUP3 ADD MSTORE PUSH32 0x45524332303A20617070726F76652066726F6D20746865207A65726F20616464 PUSH1 0x44 DUP3 ADD MSTORE PUSH4 0x72657373 PUSH1 0xE0 SHL PUSH1 0x64 DUP3 ADD MSTORE PUSH1 0x84 ADD PUSH2 0x591 JUMP JUMPDEST PUSH1 0x1 PUSH1 0x1 PUSH1 0xA0 SHL SUB DUP3 AND PUSH2 0x11B7 JUMPI PUSH1 0x40 MLOAD PUSH3 0x461BCD PUSH1 0xE5 SHL DUP2 MSTORE PUSH1 0x20 PUSH1 0x4 DUP3 ADD MSTORE PUSH1 0x22 PUSH1 0x24 DUP3 ADD MSTORE PUSH32 0x45524332303A20617070726F766520746F20746865207A65726F206164647265 PUSH1 0x44 DUP3 ADD MSTORE PUSH2 0x7373 PUSH1 0xF0 SHL PUSH1 0x64 DUP3 ADD MSTORE PUSH1 0x84 ADD PUSH2 0x591 JUMP JUMPDEST PUSH1 0x1 PUSH1 0x1 PUSH1 0xA0 SHL SUB DUP4 DUP2 AND PUSH0 DUP2 DUP2 MSTORE PUSH1 0x3 PUSH1 0x20 SWAP1 DUP2 MSTORE PUSH1 0x40 DUP1 DUP4 KECCAK256 SWAP5 DUP8 AND DUP1 DUP5 MSTORE SWAP5 DUP3 MSTORE SWAP2 DUP3 SWAP1 KECCAK256 DUP6 SWAP1 SSTORE SWAP1 MLOAD DUP5 DUP2 MSTORE PUSH32 0x8C5BE1E5EBEC7D5BD14F71427D1E84F3DD0314C0F7B2291E5B200AC8C7C3B925 SWAP2 ADD PUSH1 0x40 MLOAD DUP1 SWAP2 SUB SWAP1 LOG3 POP POP POP JUMP JUMPDEST PUSH1 0x1 PUSH1 0x1 PUSH1 0xA0 SHL SUB DUP3 AND PUSH2 0x126D JUMPI PUSH1 0x40 MLOAD PUSH3 0x461BCD PUSH1 0xE5 SHL DUP2 MSTORE PUSH1 0x20 PUSH1 0x4 DUP3 ADD MSTORE PUSH1 0x1F PUSH1 0x24 DUP3 ADD MSTORE PUSH32 0x45524332303A206D696E7420746F20746865207A65726F206164647265737300 PUSH1 0x44 DUP3 ADD MSTORE PUSH1 0x64 ADD PUSH2 0x591 JUMP JUMPDEST DUP1 PUSH1 0x4 PUSH0 DUP3 DUP3 SLOAD PUSH2 0x127E SWAP2 SWAP1 PUSH2 0x2099 JUMP JUMPDEST SWAP1 SWAP2 SSTORE POP POP PUSH1 0x1 PUSH1 0x1 PUSH1 0xA0 SHL SUB DUP3 AND PUSH0 SWAP1 DUP2 MSTORE PUSH1 0x2 PUSH1 0x20 MSTORE PUSH1 0x40 DUP2 KECCAK256 DUP1 SLOAD DUP4 SWAP3 SWAP1 PUSH2 0x12AA SWAP1 DUP5 SWAP1 PUSH2 0x2099 JUMP JUMPDEST SWAP1 SWAP2 SSTORE POP POP PUSH1 0x40 MLOAD DUP2 DUP2 MSTORE PUSH1 0x1 PUSH1 0x1 PUSH1 0xA0 SHL SUB DUP4 AND SWAP1 PUSH0 SWAP1 PUSH32 0xDDF252AD1BE2C89B69C2B068FC378DAA952BA7F163C4A11628F55A4DF523B3EF SWAP1 PUSH1 0x20 ADD PUSH1 0x40 MLOAD DUP1 SWAP2 SUB SWAP1 LOG3 POP POP JUMP JUMPDEST PUSH0 PUSH2 0x1306 PUSH1 0x1 SLOAD PUSH1 0x1 PUSH1 0x1 PUSH1 0xA0 SHL SUB AND SWAP1 JUMP JUMPDEST PUSH1 0x1 PUSH1 0x1 PUSH1 0xA0 SHL SUB AND CALLER PUSH1 0x1 PUSH1 0x1 PUSH1 0xA0 SHL SUB AND EQ SWAP1 POP SWAP1 JUMP JUMPDEST PUSH1 0x1 DUP1 SLOAD PUSH1 0x1 PUSH1 0x1 PUSH1 0xA0 SHL SUB DUP4 DUP2 AND PUSH20 0xFFFFFFFFFFFFFFFFFFFFFFFFFFFFFFFFFFFFFFFF NOT DUP4 AND DUP2 OR SWAP1 SWAP4 SSTORE PUSH1 0x40 MLOAD SWAP2 AND SWAP2 SWAP1 DUP3 SWAP1 PUSH32 0x8292FCE18FA69EDF4DB7B94EA2E58241DF0AE57F97E0A6C9B29067028BF92D76 SWAP1 PUSH0 SWAP1 LOG3 POP POP JUMP JUMPDEST PUSH1 0x1 PUSH1 0x1 PUSH1 0xA0 SHL SUB DUP4 DUP2 AND PUSH0 SWAP1 DUP2 MSTORE PUSH1 0x3 PUSH1 0x20 SWAP1 DUP2 MSTORE PUSH1 0x40 DUP1 DUP4 KECCAK256 SWAP4 DUP7 AND DUP4 MSTORE SWAP3 SWAP1 MSTORE KECCAK256 SLOAD PUSH0 NOT DUP2 EQ PUSH2 0x1407 JUMPI DUP2 DUP2 LT ISZERO PUSH2 0x13FA JUMPI PUSH1 0x40 MLOAD PUSH3 0x461BCD PUSH1 0xE5 SHL DUP2 MSTORE PUSH1 0x20 PUSH1 0x4 DUP3 ADD MSTORE PUSH1 0x1D PUSH1 0x24 DUP3 ADD MSTORE PUSH32 0x45524332303A20696E73756666696369656E7420616C6C6F77616E6365000000 PUSH1 0x44 DUP3 ADD MSTORE PUSH1 0x64 ADD PUSH2 0x591 JUMP JUMPDEST PUSH2 0x1407 DUP5 DUP5 DUP5 DUP5 SUB PUSH2 0x10F4 JUMP JUMPDEST POP POP POP POP JUMP JUMPDEST PUSH1 0x1 PUSH1 0x1 PUSH1 0xA0 SHL SUB DUP4 AND PUSH2 0x1489 JUMPI PUSH1 0x40 MLOAD PUSH3 0x461BCD PUSH1 0xE5 SHL DUP2 MSTORE PUSH1 0x20 PUSH1 0x4 DUP3 ADD MSTORE PUSH1 0x25 PUSH1 0x24 DUP3 ADD MSTORE PUSH32 0x45524332303A207472616E736665722066726F6D20746865207A65726F206164 PUSH1 0x44 DUP3 ADD MSTORE PUSH32 0x6472657373000000000000000000000000000000000000000000000000000000 PUSH1 0x64 DUP3 ADD MSTORE PUSH1 0x84 ADD PUSH2 0x591 JUMP JUMPDEST PUSH1 0x1 PUSH1 0x1 PUSH1 0xA0 SHL SUB DUP3 AND PUSH2 0x14EB JUMPI PUSH1 0x40 MLOAD PUSH3 0x461BCD PUSH1 0xE5 SHL DUP2 MSTORE PUSH1 0x20 PUSH1 0x4 DUP3 ADD MSTORE PUSH1 0x23 PUSH1 0x24 DUP3 ADD MSTORE PUSH32 0x45524332303A207472616E7366657220746F20746865207A65726F2061646472 PUSH1 0x44 DUP3 ADD MSTORE PUSH3 0x657373 PUSH1 0xE8 SHL PUSH1 0x64 DUP3 ADD MSTORE PUSH1 0x84 ADD PUSH2 0x591 JUMP JUMPDEST PUSH1 0x1 PUSH1 0x1 PUSH1 0xA0 SHL SUB DUP4 AND PUSH0 SWAP1 DUP2 MSTORE PUSH1 0x2 PUSH1 0x20 MSTORE PUSH1 0x40 SWAP1 KECCAK256 SLOAD DUP2 DUP2 LT ISZERO PUSH2 0x1579 JUMPI PUSH1 0x40 MLOAD PUSH3 0x461BCD PUSH1 0xE5 SHL DUP2 MSTORE PUSH1 0x20 PUSH1 0x4 DUP3 ADD MSTORE PUSH1 0x26 PUSH1 0x24 DUP3 ADD MSTORE PUSH32 0x45524332303A207472616E7366657220616D6F756E7420657863656564732062 PUSH1 0x44 DUP3 ADD MSTORE PUSH32 0x616C616E63650000000000000000000000000000000000000000000000000000 PUSH1 0x64 DUP3 ADD MSTORE PUSH1 0x84 ADD PUSH2 0x591 JUMP JUMPDEST PUSH1 0x1 PUSH1 0x1 PUSH1 0xA0 SHL SUB DUP1 DUP6 AND PUSH0 SWAP1 DUP2 MSTORE PUSH1 0x2 PUSH1 0x20 MSTORE PUSH1 0x40 DUP1 DUP3 KECCAK256 DUP6 DUP6 SUB SWAP1 SSTORE SWAP2 DUP6 AND DUP2 MSTORE SWAP1 DUP2 KECCAK256 DUP1 SLOAD DUP5 SWAP3 SWAP1 PUSH2 0x15AF SWAP1 DUP5 SWAP1 PUSH2 0x2099 JUMP JUMPDEST SWAP3 POP POP DUP2 SWAP1 SSTORE POP DUP3 PUSH1 0x1 PUSH1 0x1 PUSH1 0xA0 SHL SUB AND DUP5 PUSH1 0x1 PUSH1 0x1 PUSH1 0xA0 SHL SUB AND PUSH32 0xDDF252AD1BE2C89B69C2B068FC378DAA952BA7F163C4A11628F55A4DF523B3EF DUP5 PUSH1 0x40 MLOAD PUSH2 0x15FB SWAP2 DUP2 MSTORE PUSH1 0x20 ADD SWAP1 JUMP JUMPDEST PUSH1 0x40 MLOAD DUP1 SWAP2 SUB SWAP1 LOG3 PUSH2 0x1407 JUMP JUMPDEST PUSH0 PUSH32 0x8B73C3C69BB8FE3D512ECC4CF759CC79239F7B179B0FFACAA9A75D522B39400F PUSH2 0x1632 PUSH2 0x492 JUMP JUMPDEST DUP1 MLOAD PUSH1 0x20 SWAP2 DUP3 ADD KECCAK256 PUSH1 0x40 DUP1 MLOAD SWAP3 DUP4 ADD SWAP4 SWAP1 SWAP4 MSTORE SWAP2 DUP2 ADD SWAP2 SWAP1 SWAP2 MSTORE PUSH32 0xC89EFDAA54C0F20C7ADF612882DF0950F5A951637E0307CDCB4C672F298B8BC6 PUSH1 0x60 DUP3 ADD MSTORE CHAINID PUSH1 0x80 DUP3 ADD MSTORE ADDRESS PUSH1 0xA0 DUP3 ADD MSTORE PUSH1 0xC0 ADD PUSH1 0x40 MLOAD PUSH1 0x20 DUP2 DUP4 SUB SUB DUP2 MSTORE SWAP1 PUSH1 0x40 MSTORE DUP1 MLOAD SWAP1 PUSH1 0x20 ADD KECCAK256 SWAP1 POP SWAP1 JUMP JUMPDEST PUSH1 0x1 PUSH1 0x1 PUSH1 0xA0 SHL SUB DUP3 AND PUSH2 0x16FC JUMPI PUSH1 0x40 MLOAD PUSH3 0x461BCD PUSH1 0xE5 SHL DUP2 MSTORE PUSH1 0x20 PUSH1 0x4 DUP3 ADD MSTORE PUSH1 0x21 PUSH1 0x24 DUP3 ADD MSTORE PUSH32 0x45524332303A206275726E2066726F6D20746865207A65726F20616464726573 PUSH1 0x44 DUP3 ADD MSTORE PUSH1 0x73 PUSH1 0xF8 SHL PUSH1 0x64 DUP3 ADD MSTORE PUSH1 0x84 ADD PUSH2 0x591 JUMP JUMPDEST PUSH1 0x1 PUSH1 0x1 PUSH1 0xA0 SHL SUB DUP3 AND PUSH0 SWAP1 DUP2 MSTORE PUSH1 0x2 PUSH1 0x20 MSTORE PUSH1 0x40 SWAP1 KECCAK256 SLOAD DUP2 DUP2 LT ISZERO PUSH2 0x176F JUMPI PUSH1 0x40 MLOAD PUSH3 0x461BCD PUSH1 0xE5 SHL DUP2 MSTORE PUSH1 0x20 PUSH1 0x4 DUP3 ADD MSTORE PUSH1 0x22 PUSH1 0x24 DUP3 ADD MSTORE PUSH32 0x45524332303A206275726E20616D6F756E7420657863656564732062616C616E PUSH1 0x44 DUP3 ADD MSTORE PUSH2 0x6365 PUSH1 0xF0 SHL PUSH1 0x64 DUP3 ADD MSTORE PUSH1 0x84 ADD PUSH2 0x591 JUMP JUMPDEST PUSH1 0x1 PUSH1 0x1 PUSH1 0xA0 SHL SUB DUP4 AND PUSH0 SWAP1 DUP2 MSTORE PUSH1 0x2 PUSH1 0x20 MSTORE PUSH1 0x40 DUP2 KECCAK256 DUP4 DUP4 SUB SWAP1 SSTORE PUSH1 0x4 DUP1 SLOAD DUP5 SWAP3 SWAP1 PUSH2 0x179D SWAP1 DUP5 SWAP1 PUSH2 0x20AC JUMP JUMPDEST SWAP1 SWAP2 SSTORE POP POP PUSH1 0x40 MLOAD DUP3 DUP2 MSTORE PUSH0 SWAP1 PUSH1 0x1 PUSH1 0x1 PUSH1 0xA0 SHL SUB DUP6 AND SWAP1 PUSH32 0xDDF252AD1BE2C89B69C2B068FC378DAA952BA7F163C4A11628F55A4DF523B3EF SWAP1 PUSH1 0x20 ADD PUSH1 0x40 MLOAD DUP1 SWAP2 SUB SWAP1 LOG3 POP POP POP JUMP JUMPDEST PUSH0 DUP1 DUP1 SLOAD PUSH2 0x17F4 SWAP1 PUSH2 0x203C JUMP JUMPDEST DUP1 PUSH1 0x1F ADD PUSH1 0x20 DUP1 SWAP2 DIV MUL PUSH1 0x20 ADD PUSH1 0x40 MLOAD SWAP1 DUP2 ADD PUSH1 0x40 MSTORE DUP1 SWAP3 SWAP2 SWAP1 DUP2 DUP2 MSTORE PUSH1 0x20 ADD DUP3 DUP1 SLOAD PUSH2 0x1820 SWAP1 PUSH2 0x203C JUMP JUMPDEST DUP1 ISZERO PUSH2 0x186B JUMPI DUP1 PUSH1 0x1F LT PUSH2 0x1842 JUMPI PUSH2 0x100 DUP1 DUP4 SLOAD DIV MUL DUP4 MSTORE SWAP2 PUSH1 0x20 ADD SWAP2 PUSH2 0x186B JUMP JUMPDEST DUP3 ADD SWAP2 SWAP1 PUSH0 MSTORE PUSH1 0x20 PUSH0 KECCAK256 SWAP1 JUMPDEST DUP2 SLOAD DUP2 MSTORE SWAP1 PUSH1 0x1 ADD SWAP1 PUSH1 0x20 ADD DUP1 DUP4 GT PUSH2 0x184E JUMPI DUP3 SWAP1 SUB PUSH1 0x1F AND DUP3 ADD SWAP2 JUMPDEST POP POP POP POP POP SWAP1 POP DUP2 PUSH0 SWAP1 DUP2 PUSH2 0x1880 SWAP2 SWAP1 PUSH2 0x21A9 JUMP JUMPDEST POP PUSH32 0xC9C7C3FE08B88B4DF9D4D47EF47D2C43D55C025A0BA88CA442580ED9E7348A16 DUP2 DUP4 PUSH1 0x40 MLOAD PUSH2 0x18B2 SWAP3 SWAP2 SWAP1 PUSH2 0x2269 JUMP JUMPDEST PUSH1 0x40 MLOAD DUP1 SWAP2 SUB SWAP1 LOG1 POP POP JUMP JUMPDEST PUSH1 0x60 PUSH2 0x18E3 DUP4 DUP4 PUSH1 0x40 MLOAD DUP1 PUSH1 0x60 ADD PUSH1 0x40 MSTORE DUP1 PUSH1 0x27 DUP2 MSTORE PUSH1 0x20 ADD PUSH2 0x22AD PUSH1 0x27 SWAP2 CODECOPY PUSH2 0x1939 JUMP JUMPDEST SWAP4 SWAP3 POP POP POP JUMP JUMPDEST PUSH1 0x1 PUSH1 0x1 PUSH1 0xA0 SHL SUB DUP2 AND PUSH0 SWAP1 DUP2 MSTORE PUSH1 0x7 PUSH1 0x20 MSTORE PUSH1 0x40 SWAP1 KECCAK256 DUP1 SLOAD PUSH1 0x1 DUP2 ADD DUP3 SSTORE SWAP1 JUMPDEST POP SWAP2 SWAP1 POP JUMP JUMPDEST PUSH0 DUP1 PUSH0 PUSH2 0x1920 DUP8 DUP8 DUP8 DUP8 PUSH2 0x19AD JUMP JUMPDEST SWAP2 POP SWAP2 POP PUSH2 0x192D DUP2 PUSH2 0x1A6A JUMP JUMPDEST POP SWAP1 POP JUMPDEST SWAP5 SWAP4 POP POP POP POP JUMP JUMPDEST PUSH1 0x60 PUSH0 DUP1 DUP6 PUSH1 0x1 PUSH1 0x1 PUSH1 0xA0 SHL SUB AND DUP6 PUSH1 0x40 MLOAD PUSH2 0x1955 SWAP2 SWAP1 PUSH2 0x2296 JUMP JUMPDEST PUSH0 PUSH1 0x40 MLOAD DUP1 DUP4 SUB DUP2 DUP6 GAS DELEGATECALL SWAP2 POP POP RETURNDATASIZE DUP1 PUSH0 DUP2 EQ PUSH2 0x198D JUMPI PUSH1 0x40 MLOAD SWAP2 POP PUSH1 0x1F NOT PUSH1 0x3F RETURNDATASIZE ADD AND DUP3 ADD PUSH1 0x40 MSTORE RETURNDATASIZE DUP3 MSTORE RETURNDATASIZE PUSH0 PUSH1 0x20 DUP5 ADD RETURNDATACOPY PUSH2 0x1992 JUMP JUMPDEST PUSH1 0x60 SWAP2 POP JUMPDEST POP SWAP2 POP SWAP2 POP PUSH2 0x19A3 DUP7 DUP4 DUP4 DUP8 PUSH2 0x1BB3 JUMP JUMPDEST SWAP7 SWAP6 POP POP POP POP POP POP JUMP JUMPDEST PUSH0 DUP1 PUSH32 0x7FFFFFFFFFFFFFFFFFFFFFFFFFFFFFFF5D576E7357A4501DDFE92F46681B20A0 DUP4 GT ISZERO PUSH2 0x19E2 JUMPI POP PUSH0 SWAP1 POP PUSH1 0x3 PUSH2 0x1A61 JUMP JUMPDEST PUSH1 0x40 DUP1 MLOAD PUSH0 DUP1 DUP3 MSTORE PUSH1 0x20 DUP3 ADD DUP1 DUP5 MSTORE DUP10 SWAP1 MSTORE PUSH1 0xFF DUP9 AND SWAP3 DUP3 ADD SWAP3 SWAP1 SWAP3 MSTORE PUSH1 0x60 DUP2 ADD DUP7 SWAP1 MSTORE PUSH1 0x80 DUP2 ADD DUP6 SWAP1 MSTORE PUSH1 0x1 SWAP1 PUSH1 0xA0 ADD PUSH1 0x20 PUSH1 0x40 MLOAD PUSH1 0x20 DUP2 SUB SWAP1 DUP1 DUP5 SUB SWAP1 DUP6 GAS STATICCALL ISZERO DUP1 ISZERO PUSH2 0x1A33 JUMPI RETURNDATASIZE PUSH0 DUP1 RETURNDATACOPY RETURNDATASIZE PUSH0 REVERT JUMPDEST POP POP PUSH1 0x40 MLOAD PUSH1 0x1F NOT ADD MLOAD SWAP2 POP POP PUSH1 0x1 PUSH1 0x1 PUSH1 0xA0 SHL SUB DUP2 AND PUSH2 0x1A5B JUMPI PUSH0 PUSH1 0x1 SWAP3 POP SWAP3 POP POP PUSH2 0x1A61 JUMP JUMPDEST SWAP2 POP PUSH0 SWAP1 POP JUMPDEST SWAP5 POP SWAP5 SWAP3 POP POP POP JUMP JUMPDEST PUSH0 DUP2 PUSH1 0x4 DUP2 GT ISZERO PUSH2 0x1A7D JUMPI PUSH2 0x1A7D PUSH2 0x1D5C JUMP JUMPDEST SUB PUSH2 0x1A85 JUMPI POP JUMP JUMPDEST PUSH1 0x1 DUP2 PUSH1 0x4 DUP2 GT ISZERO PUSH2 0x1A99 JUMPI PUSH2 0x1A99 PUSH2 0x1D5C JUMP JUMPDEST SUB PUSH2 0x1AE6 JUMPI PUSH1 0x40 MLOAD PUSH3 0x461BCD PUSH1 0xE5 SHL DUP2 MSTORE PUSH1 0x20 PUSH1 0x4 DUP3 ADD MSTORE PUSH1 0x18 PUSH1 0x24 DUP3 ADD MSTORE PUSH32 0x45434453413A20696E76616C6964207369676E61747572650000000000000000 PUSH1 0x44 DUP3 ADD MSTORE PUSH1 0x64 ADD PUSH2 0x591 JUMP JUMPDEST PUSH1 0x2 DUP2 PUSH1 0x4 DUP2 GT ISZERO PUSH2 0x1AFA JUMPI PUSH2 0x1AFA PUSH2 0x1D5C JUMP JUMPDEST SUB PUSH2 0x1B47 JUMPI PUSH1 0x40 MLOAD PUSH3 0x461BCD PUSH1 0xE5 SHL DUP2 MSTORE PUSH1 0x20 PUSH1 0x4 DUP3 ADD MSTORE PUSH1 0x1F PUSH1 0x24 DUP3 ADD MSTORE PUSH32 0x45434453413A20696E76616C6964207369676E6174757265206C656E67746800 PUSH1 0x44 DUP3 ADD MSTORE PUSH1 0x64 ADD PUSH2 0x591 JUMP JUMPDEST PUSH1 0x3 DUP2 PUSH1 0x4 DUP2 GT ISZERO PUSH2 0x1B5B JUMPI PUSH2 0x1B5B PUSH2 0x1D5C JUMP JUMPDEST SUB PUSH2 0x62C JUMPI PUSH1 0x40 MLOAD PUSH3 0x461BCD PUSH1 0xE5 SHL DUP2 MSTORE PUSH1 0x20 PUSH1 0x4 DUP3 ADD MSTORE PUSH1 0x22 PUSH1 0x24 DUP3 ADD MSTORE PUSH32 0x45434453413A20696E76616C6964207369676E6174757265202773272076616C PUSH1 0x44 DUP3 ADD MSTORE PUSH2 0x7565 PUSH1 0xF0 SHL PUSH1 0x64 DUP3 ADD MSTORE PUSH1 0x84 ADD PUSH2 0x591 JUMP JUMPDEST PUSH1 0x60 DUP4 ISZERO PUSH2 0x1C21 JUMPI DUP3 MLOAD PUSH0 SUB PUSH2 0x1C1A JUMPI PUSH1 0x1 PUSH1 0x1 PUSH1 0xA0 SHL SUB DUP6 AND EXTCODESIZE PUSH2 0x1C1A JUMPI PUSH1 0x40 MLOAD PUSH3 0x461BCD PUSH1 0xE5 SHL DUP2 MSTORE PUSH1 0x20 PUSH1 0x4 DUP3 ADD MSTORE PUSH1 0x1D PUSH1 0x24 DUP3 ADD MSTORE PUSH32 0x416464726573733A2063616C6C20746F206E6F6E2D636F6E7472616374000000 PUSH1 0x44 DUP3 ADD MSTORE PUSH1 0x64 ADD PUSH2 0x591 JUMP JUMPDEST POP DUP2 PUSH2 0x1931 JUMP JUMPDEST PUSH2 0x1931 DUP4 DUP4 DUP2 MLOAD ISZERO PUSH2 0x1C36 JUMPI DUP2 MLOAD DUP1 DUP4 PUSH1 0x20 ADD REVERT JUMPDEST DUP1 PUSH1 0x40 MLOAD PUSH3 0x461BCD PUSH1 0xE5 SHL DUP2 MSTORE PUSH1 0x4 ADD PUSH2 0x591 SWAP2 SWAP1 PUSH2 0x1C7E JUMP JUMPDEST PUSH0 DUP2 MLOAD DUP1 DUP5 MSTORE DUP1 PUSH1 0x20 DUP5 ADD PUSH1 0x20 DUP7 ADD MCOPY PUSH0 PUSH1 0x20 DUP3 DUP7 ADD ADD MSTORE PUSH1 0x20 PUSH1 0x1F NOT PUSH1 0x1F DUP4 ADD AND DUP6 ADD ADD SWAP2 POP POP SWAP3 SWAP2 POP POP JUMP JUMPDEST PUSH1 0x20 DUP2 MSTORE PUSH0 PUSH2 0x18E3 PUSH1 0x20 DUP4 ADD DUP5 PUSH2 0x1C50 JUMP JUMPDEST DUP1 CALLDATALOAD PUSH1 0x1 PUSH1 0x1 PUSH1 0xA0 SHL SUB DUP2 AND DUP2 EQ PUSH2 0x1CA6 JUMPI PUSH0 DUP1 REVERT JUMPDEST SWAP2 SWAP1 POP JUMP JUMPDEST PUSH0 DUP1 PUSH1 0x40 DUP4 DUP6 SUB SLT ISZERO PUSH2 0x1CBC JUMPI PUSH0 DUP1 REVERT JUMPDEST PUSH2 0x1CC5 DUP4 PUSH2 0x1C90 JUMP JUMPDEST SWAP5 PUSH1 0x20 SWAP4 SWAP1 SWAP4 ADD CALLDATALOAD SWAP4 POP POP POP JUMP JUMPDEST PUSH0 PUSH1 0x20 DUP3 DUP5 SUB SLT ISZERO PUSH2 0x1CE3 JUMPI PUSH0 DUP1 REVERT JUMPDEST PUSH2 0x18E3 DUP3 PUSH2 0x1C90 JUMP JUMPDEST PUSH0 DUP1 PUSH0 PUSH1 0x60 DUP5 DUP7 SUB SLT ISZERO PUSH2 0x1CFE JUMPI PUSH0 DUP1 REVERT JUMPDEST PUSH2 0x1D07 DUP5 PUSH2 0x1C90 JUMP JUMPDEST SWAP3 POP PUSH2 0x1D15 PUSH1 0x20 DUP6 ADD PUSH2 0x1C90 JUMP JUMPDEST SWAP2 POP PUSH1 0x40 DUP5 ADD CALLDATALOAD SWAP1 POP SWAP3 POP SWAP3 POP SWAP3 JUMP JUMPDEST PUSH0 PUSH1 0x20 DUP3 DUP5 SUB SLT ISZERO PUSH2 0x1D35 JUMPI PUSH0 DUP1 REVERT JUMPDEST POP CALLDATALOAD SWAP2 SWAP1 POP JUMP JUMPDEST PUSH0 DUP1 PUSH1 0x40 DUP4 DUP6 SUB SLT ISZERO PUSH2 0x1D4D JUMPI PUSH0 DUP1 REVERT JUMPDEST POP POP DUP1 CALLDATALOAD SWAP3 PUSH1 0x20 SWAP1 SWAP2 ADD CALLDATALOAD SWAP2 POP JUMP JUMPDEST PUSH4 0x4E487B71 PUSH1 0xE0 SHL PUSH0 MSTORE PUSH1 0x21 PUSH1 0x4 MSTORE PUSH1 0x24 PUSH0 REVERT JUMPDEST PUSH1 0x2 DUP2 LT PUSH2 0x1D8C JUMPI PUSH4 0x4E487B71 PUSH1 0xE0 SHL PUSH0 MSTORE PUSH1 0x21 PUSH1 0x4 MSTORE PUSH1 0x24 PUSH0 REVERT JUMPDEST SWAP1 MSTORE JUMP JUMPDEST PUSH1 0x1 PUSH1 0x1 PUSH1 0xA0 SHL SUB DUP6 AND DUP2 MSTORE PUSH1 0x80 DUP2 ADD PUSH2 0x1DAD PUSH1 0x20 DUP4 ADD DUP7 PUSH2 0x1D70 JUMP JUMPDEST PUSH1 0x40 DUP3 ADD SWAP4 SWAP1 SWAP4 MSTORE PUSH1 0x60 ADD MSTORE SWAP3 SWAP2 POP POP JUMP JUMPDEST PUSH4 0x4E487B71 PUSH1 0xE0 SHL PUSH0 MSTORE PUSH1 0x41 PUSH1 0x4 MSTORE PUSH1 0x24 PUSH0 REVERT JUMPDEST PUSH0 PUSH1 0x20 DUP3 DUP5 SUB SLT ISZERO PUSH2 0x1DE3 JUMPI PUSH0 DUP1 REVERT JUMPDEST DUP2 CALLDATALOAD PUSH8 0xFFFFFFFFFFFFFFFF DUP1 DUP3 GT ISZERO PUSH2 0x1DFA JUMPI PUSH0 DUP1 REVERT JUMPDEST DUP2 DUP5 ADD SWAP2 POP DUP5 PUSH1 0x1F DUP4 ADD SLT PUSH2 0x1E0D JUMPI PUSH0 DUP1 REVERT JUMPDEST DUP2 CALLDATALOAD DUP2 DUP2 GT ISZERO PUSH2 0x1E1F JUMPI PUSH2 0x1E1F PUSH2 0x1DBF JUMP JUMPDEST PUSH1 0x40 MLOAD PUSH1 0x1F DUP3 ADD PUSH1 0x1F NOT SWAP1 DUP2 AND PUSH1 0x3F ADD AND DUP2 ADD SWAP1 DUP4 DUP3 GT DUP2 DUP4 LT OR ISZERO PUSH2 0x1E47 JUMPI PUSH2 0x1E47 PUSH2 0x1DBF JUMP JUMPDEST DUP2 PUSH1 0x40 MSTORE DUP3 DUP2 MSTORE DUP8 PUSH1 0x20 DUP5 DUP8 ADD ADD GT ISZERO PUSH2 0x1E5F JUMPI PUSH0 DUP1 REVERT JUMPDEST DUP3 PUSH1 0x20 DUP7 ADD PUSH1 0x20 DUP4 ADD CALLDATACOPY PUSH0 SWAP3 DUP2 ADD PUSH1 0x20 ADD SWAP3 SWAP1 SWAP3 MSTORE POP SWAP6 SWAP5 POP POP POP POP POP JUMP JUMPDEST PUSH0 DUP1 PUSH1 0x20 DUP4 DUP6 SUB SLT ISZERO PUSH2 0x1E8F JUMPI PUSH0 DUP1 REVERT JUMPDEST DUP3 CALLDATALOAD PUSH8 0xFFFFFFFFFFFFFFFF DUP1 DUP3 GT ISZERO PUSH2 0x1EA6 JUMPI PUSH0 DUP1 REVERT JUMPDEST DUP2 DUP6 ADD SWAP2 POP DUP6 PUSH1 0x1F DUP4 ADD SLT PUSH2 0x1EB9 JUMPI PUSH0 DUP1 REVERT JUMPDEST DUP2 CALLDATALOAD DUP2 DUP2 GT ISZERO PUSH2 0x1EC7 JUMPI PUSH0 DUP1 REVERT JUMPDEST DUP7 PUSH1 0x20 DUP3 PUSH1 0x5 SHL DUP6 ADD ADD GT ISZERO PUSH2 0x1EDB JUMPI PUSH0 DUP1 REVERT JUMPDEST PUSH1 0x20 SWAP3 SWAP1 SWAP3 ADD SWAP7 SWAP2 SWAP6 POP SWAP1 SWAP4 POP POP POP POP JUMP JUMPDEST PUSH0 PUSH1 0x20 DUP1 DUP4 ADD PUSH1 0x20 DUP5 MSTORE DUP1 DUP6 MLOAD DUP1 DUP4 MSTORE PUSH1 0x40 DUP7 ADD SWAP2 POP PUSH1 0x40 DUP2 PUSH1 0x5 SHL DUP8 ADD ADD SWAP3 POP PUSH1 0x20 DUP8 ADD PUSH0 JUMPDEST DUP3 DUP2 LT ISZERO PUSH2 0x1F42 JUMPI PUSH1 0x3F NOT DUP9 DUP7 SUB ADD DUP5 MSTORE PUSH2 0x1F30 DUP6 DUP4 MLOAD PUSH2 0x1C50 JUMP JUMPDEST SWAP5 POP SWAP3 DUP6 ADD SWAP3 SWAP1 DUP6 ADD SWAP1 PUSH1 0x1 ADD PUSH2 0x1F14 JUMP JUMPDEST POP SWAP3 SWAP8 SWAP7 POP POP POP POP POP POP POP JUMP JUMPDEST PUSH0 DUP1 PUSH0 DUP1 PUSH0 DUP1 PUSH0 PUSH1 0xE0 DUP9 DUP11 SUB SLT ISZERO PUSH2 0x1F65 JUMPI PUSH0 DUP1 REVERT JUMPDEST PUSH2 0x1F6E DUP9 PUSH2 0x1C90 JUMP JUMPDEST SWAP7 POP PUSH2 0x1F7C PUSH1 0x20 DUP10 ADD PUSH2 0x1C90 JUMP JUMPDEST SWAP6 POP PUSH1 0x40 DUP9 ADD CALLDATALOAD SWAP5 POP PUSH1 0x60 DUP9 ADD CALLDATALOAD SWAP4 POP PUSH1 0x80 DUP9 ADD CALLDATALOAD PUSH1 0xFF DUP2 AND DUP2 EQ PUSH2 0x1F9F JUMPI PUSH0 DUP1 REVERT JUMPDEST SWAP7 SWAP10 SWAP6 SWAP9 POP SWAP4 SWAP7 SWAP3 SWAP6 SWAP5 PUSH1 0xA0 DUP5 ADD CALLDATALOAD SWAP5 POP PUSH1 0xC0 SWAP1 SWAP4 ADD CALLDATALOAD SWAP3 SWAP2 POP POP JUMP JUMPDEST PUSH0 DUP1 PUSH0 DUP1 PUSH0 PUSH1 0xA0 DUP7 DUP9 SUB SLT ISZERO PUSH2 0x1FD0 JUMPI PUSH0 DUP1 REVERT JUMPDEST PUSH2 0x1FD9 DUP7 PUSH2 0x1C90 JUMP JUMPDEST SWAP5 POP PUSH1 0x20 DUP7 ADD CALLDATALOAD SWAP4 POP PUSH1 0x40 DUP7 ADD CALLDATALOAD SWAP3 POP PUSH1 0x60 DUP7 ADD CALLDATALOAD PUSH1 0x2 DUP2 LT PUSH2 0x1FFA JUMPI PUSH0 DUP1 REVERT JUMPDEST SWAP5 SWAP8 SWAP4 SWAP7 POP SWAP2 SWAP5 PUSH1 0x80 ADD CALLDATALOAD SWAP3 SWAP2 POP POP JUMP JUMPDEST PUSH0 DUP1 PUSH1 0x40 DUP4 DUP6 SUB SLT ISZERO PUSH2 0x201C JUMPI PUSH0 DUP1 REVERT JUMPDEST PUSH2 0x2025 DUP4 PUSH2 0x1C90 JUMP JUMPDEST SWAP2 POP PUSH2 0x2033 PUSH1 0x20 DUP5 ADD PUSH2 0x1C90 JUMP JUMPDEST SWAP1 POP SWAP3 POP SWAP3 SWAP1 POP JUMP JUMPDEST PUSH1 0x1 DUP2 DUP2 SHR SWAP1 DUP3 AND DUP1 PUSH2 0x2050 JUMPI PUSH1 0x7F DUP3 AND SWAP2 POP JUMPDEST PUSH1 0x20 DUP3 LT DUP2 SUB PUSH2 0x190B JUMPI PUSH4 0x4E487B71 PUSH1 0xE0 SHL PUSH0 MSTORE PUSH1 0x22 PUSH1 0x4 MSTORE PUSH1 0x24 PUSH0 REVERT JUMPDEST PUSH4 0x4E487B71 PUSH1 0xE0 SHL PUSH0 MSTORE PUSH1 0x11 PUSH1 0x4 MSTORE PUSH1 0x24 PUSH0 REVERT JUMPDEST DUP1 DUP3 MUL DUP2 ISZERO DUP3 DUP3 DIV DUP5 EQ OR PUSH2 0x535 JUMPI PUSH2 0x535 PUSH2 0x206E JUMP JUMPDEST DUP1 DUP3 ADD DUP1 DUP3 GT ISZERO PUSH2 0x535 JUMPI PUSH2 0x535 PUSH2 0x206E JUMP JUMPDEST DUP2 DUP2 SUB DUP2 DUP2 GT ISZERO PUSH2 0x535 JUMPI PUSH2 0x535 PUSH2 0x206E JUMP JUMPDEST PUSH4 0x4E487B71 PUSH1 0xE0 SHL PUSH0 MSTORE PUSH1 0x32 PUSH1 0x4 MSTORE PUSH1 0x24 PUSH0 REVERT JUMPDEST PUSH0 DUP1 DUP4 CALLDATALOAD PUSH1 0x1E NOT DUP5 CALLDATASIZE SUB ADD DUP2 SLT PUSH2 0x20E8 JUMPI PUSH0 DUP1 REVERT JUMPDEST DUP4 ADD DUP1 CALLDATALOAD SWAP2 POP PUSH8 0xFFFFFFFFFFFFFFFF DUP3 GT ISZERO PUSH2 0x2102 JUMPI PUSH0 DUP1 REVERT JUMPDEST PUSH1 0x20 ADD SWAP2 POP CALLDATASIZE DUP2 SWAP1 SUB DUP3 SGT ISZERO PUSH2 0x2116 JUMPI PUSH0 DUP1 REVERT JUMPDEST SWAP3 POP SWAP3 SWAP1 POP JUMP JUMPDEST DUP3 DUP5 DUP3 CALLDATACOPY PUSH1 0x60 SWAP2 SWAP1 SWAP2 SHL PUSH12 0xFFFFFFFFFFFFFFFFFFFFFFFF NOT AND SWAP2 ADD SWAP1 DUP2 MSTORE PUSH1 0x14 ADD SWAP2 SWAP1 POP JUMP JUMPDEST PUSH1 0x40 DUP2 ADD PUSH2 0x2151 DUP3 DUP6 PUSH2 0x1D70 JUMP JUMPDEST DUP3 PUSH1 0x20 DUP4 ADD MSTORE SWAP4 SWAP3 POP POP POP JUMP JUMPDEST PUSH1 0x1F DUP3 GT ISZERO PUSH2 0x974 JUMPI DUP1 PUSH0 MSTORE PUSH1 0x20 PUSH0 KECCAK256 PUSH1 0x1F DUP5 ADD PUSH1 0x5 SHR DUP2 ADD PUSH1 0x20 DUP6 LT ISZERO PUSH2 0x2183 JUMPI POP DUP1 JUMPDEST PUSH1 0x1F DUP5 ADD PUSH1 0x5 SHR DUP3 ADD SWAP2 POP JUMPDEST DUP2 DUP2 LT ISZERO PUSH2 0x21A2 JUMPI PUSH0 DUP2 SSTORE PUSH1 0x1 ADD PUSH2 0x218F JUMP JUMPDEST POP POP POP POP POP JUMP JUMPDEST DUP2 MLOAD PUSH8 0xFFFFFFFFFFFFFFFF DUP2 GT ISZERO PUSH2 0x21C3 JUMPI PUSH2 0x21C3 PUSH2 0x1DBF JUMP JUMPDEST PUSH2 0x21D7 DUP2 PUSH2 0x21D1 DUP5 SLOAD PUSH2 0x203C JUMP JUMPDEST DUP5 PUSH2 0x215E JUMP JUMPDEST PUSH1 0x20 DUP1 PUSH1 0x1F DUP4 GT PUSH1 0x1 DUP2 EQ PUSH2 0x220A JUMPI PUSH0 DUP5 ISZERO PUSH2 0x21F3 JUMPI POP DUP6 DUP4 ADD MLOAD JUMPDEST PUSH0 NOT PUSH1 0x3 DUP7 SWAP1 SHL SHR NOT AND PUSH1 0x1 DUP6 SWAP1 SHL OR DUP6 SSTORE PUSH2 0x2261 JUMP JUMPDEST PUSH0 DUP6 DUP2 MSTORE PUSH1 0x20 DUP2 KECCAK256 PUSH1 0x1F NOT DUP7 AND SWAP2 JUMPDEST DUP3 DUP2 LT ISZERO PUSH2 0x2238 JUMPI DUP9 DUP7 ADD MLOAD DUP3 SSTORE SWAP5 DUP5 ADD SWAP5 PUSH1 0x1 SWAP1 SWAP2 ADD SWAP1 DUP5 ADD PUSH2 0x2219 JUMP JUMPDEST POP DUP6 DUP3 LT ISZERO PUSH2 0x2255 JUMPI DUP8 DUP6 ADD MLOAD PUSH0 NOT PUSH1 0x3 DUP9 SWAP1 SHL PUSH1 0xF8 AND SHR NOT AND DUP2 SSTORE JUMPDEST POP POP PUSH1 0x1 DUP5 PUSH1 0x1 SHL ADD DUP6 SSTORE JUMPDEST POP POP POP POP POP POP JUMP JUMPDEST PUSH1 0x40 DUP2 MSTORE PUSH0 PUSH2 0x227B PUSH1 0x40 DUP4 ADD DUP6 PUSH2 0x1C50 JUMP JUMPDEST DUP3 DUP2 SUB PUSH1 0x20 DUP5 ADD MSTORE PUSH2 0x228D DUP2 DUP6 PUSH2 0x1C50 JUMP JUMPDEST SWAP6 SWAP5 POP POP POP POP POP JUMP JUMPDEST PUSH0 DUP3 MLOAD DUP1 PUSH1 0x20 DUP6 ADD DUP5 MCOPY PUSH0 SWAP3 ADD SWAP2 DUP3 MSTORE POP SWAP2 SWAP1 POP JUMP INVALID COINBASE PUSH5 0x6472657373 GASPRICE KECCAK256 PUSH13 0x6F772D6C6576656C2064656C65 PUSH8 0x6174652063616C6C KECCAK256 PUSH7 0x61696C6564A264 PUSH10 0x706673582212209B840B 0x4D GASLIMIT 0xE6 CALLDATACOPY 0xE9 0xE3 PUSH28 0x425F1DB7038FF226E3C2018FF808216158A0B37AF6AB64736F6C6343 STOP ADDMOD NOT STOP CALLER "
    },
    "gasEstimates": {
      "creation": {
        "codeDepositCost": "1793800",
        "executionCost": "infinite",
        "totalCost": "infinite"
      },
      "external": {
        "DESIGNATOR()": "infinite",
        "DOMAIN_SEPARATOR()": "infinite",
        "allocateContribution(address,uint256,bytes32,uint8,uint256)": "infinite",
        "allowance(address,address)": "infinite",
        "approve(address,uint256)": "24670",
        "balanceOf(address)": "2601",
        "burn(uint256)": "52389",
        "burnFrom(address,uint256)": "infinite",
        "contractURI()": "infinite",
        "decimals()": "222",
        "decreaseAllowance(address,uint256)": "27007",
        "increaseAllowance(address,uint256)": "infinite",
        "mintForSwap(address,uint256)": "infinite",
        "mintTo(address,uint256)": "infinite",
        "multicall(bytes[])": "infinite",
        "name()": "infinite",
        "nonces(address)": "2636",
        "owner()": "2409",
        "permit(address,address,uint256,uint256,uint8,bytes32,bytes32)": "infinite",
        "projectContributions(bytes32,uint256)": "9197",
        "setContractURI(string)": "infinite",
        "setOwner(address)": "28415",
        "setSwapContract(address)": "26843",
        "setSwapRatio(uint256)": "24573",
        "swapContract()": "2381",
        "swapRatio()": "2340",
        "symbol()": "infinite",
        "totalSupply()": "2381",
        "transfer(address,uint256)": "infinite",
        "transferFrom(address,address,uint256)": "infinite"
      }
    },
    "methodIdentifiers": {
      "DESIGNATOR()": "7606329b",
      "DOMAIN_SEPARATOR()": "3644e515",
      "allocateContribution(address,uint256,bytes32,uint8,uint256)": "d9cdee0d",
      "allowance(address,address)": "dd62ed3e",
      "approve(address,uint256)": "095ea7b3",
      "balanceOf(address)": "70a08231",
      "burn(uint256)": "42966c68",
      "burnFrom(address,uint256)": "79cc6790",
      "contractURI()": "e8a3d485",
      "decimals()": "313ce567",
      "decreaseAllowance(address,uint256)": "a457c2d7",
      "increaseAllowance(address,uint256)": "39509351",
      "mintForSwap(address,uint256)": "0b8b29e5",
      "mintTo(address,uint256)": "449a52f8",
      "multicall(bytes[])": "ac9650d8",
      "name()": "06fdde03",
      "nonces(address)": "7ecebe00",
      "owner()": "8da5cb5b",
      "permit(address,address,uint256,uint256,uint8,bytes32,bytes32)": "d505accf",
      "projectContributions(bytes32,uint256)": "7261fa29",
      "setContractURI(string)": "938e3d7b",
      "setOwner(address)": "13af4035",
      "setSwapContract(address)": "d259ab42",
      "setSwapRatio(uint256)": "ba2129b1",
      "swapContract()": "8ea83031",
      "swapRatio()": "0e0bfb49",
      "symbol()": "95d89b41",
      "totalSupply()": "18160ddd",
      "transfer(address,uint256)": "a9059cbb",
      "transferFrom(address,address,uint256)": "23b872dd"
    }
  },
  "storageLayout": {
    "storage": [
      {
        "astId": 703,
        "contract": "mojo.sol:Mojo",
        "label": "contractURI",
        "offset": 0,
        "slot": "0",
        "type": "t_string_storage"
      },
      {
        "astId": 865,
        "contract": "mojo.sol:Mojo",
        "label": "_owner",
        "offset": 0,
        "slot": "1",
        "type": "t_address"
      },
      {
        "astId": 1657,
        "contract": "mojo.sol:Mojo",
        "label": "_balances",
        "offset": 0,
        "slot": "2",
        "type": "t_mapping(t_address,t_uint256)"
      },
      {
        "astId": 1663,
        "contract": "mojo.sol:Mojo",
        "label": "_allowances",
        "offset": 0,
        "slot": "3",
        "type": "t_mapping(t_address,t_mapping(t_address,t_uint256))"
      },
      {
        "astId": 1665,
        "contract": "mojo.sol:Mojo",
        "label": "_totalSupply",
        "offset": 0,
        "slot": "4",
        "type": "t_uint256"
      },
      {
        "astId": 1667,
        "contract": "mojo.sol:Mojo",
        "label": "_name",
        "offset": 0,
        "slot": "5",
        "type": "t_string_storage"
      },
      {
        "astId": 1669,
        "contract": "mojo.sol:Mojo",
        "label": "_symbol",
        "offset": 0,
        "slot": "6",
        "type": "t_string_storage"
      },
      {
        "astId": 994,
        "contract": "mojo.sol:Mojo",
        "label": "_nonces",
        "offset": 0,
        "slot": "7",
        "type": "t_mapping(t_address,t_struct(Counter)2235_storage)"
      },
      {
        "astId": 10,
        "contract": "mojo.sol:Mojo",
        "label": "swapContract",
        "offset": 0,
        "slot": "8",
        "type": "t_address"
      },
      {
        "astId": 13,
        "contract": "mojo.sol:Mojo",
        "label": "swapRatio",
        "offset": 0,
        "slot": "9",
        "type": "t_uint256"
      },
      {
        "astId": 32,
        "contract": "mojo.sol:Mojo",
        "label": "projectContributions",
        "offset": 0,
        "slot": "10",
        "type": "t_mapping(t_bytes32,t_array(t_struct(Contribution)26_storage)dyn_storage)"
      }
    ],
    "types": {
      "t_address": {
        "encoding": "inplace",
        "label": "address",
        "numberOfBytes": "20"
      },
      "t_array(t_struct(Contribution)26_storage)dyn_storage": {
        "base": "t_struct(Contribution)26_storage",
        "encoding": "dynamic_array",
        "label": "struct Mojo.Contribution[]",
        "numberOfBytes": "32"
      },
      "t_bytes32": {
        "encoding": "inplace",
        "label": "bytes32",
        "numberOfBytes": "32"
      },
      "t_enum(Role)16": {
        "encoding": "inplace",
        "label": "enum Mojo.Role",
        "numberOfBytes": "1"
      },
      "t_mapping(t_address,t_mapping(t_address,t_uint256))": {
        "encoding": "mapping",
        "key": "t_address",
        "label": "mapping(address => mapping(address => uint256))",
        "numberOfBytes": "32",
        "value": "t_mapping(t_address,t_uint256)"
      },
      "t_mapping(t_address,t_struct(Counter)2235_storage)": {
        "encoding": "mapping",
        "key": "t_address",
        "label": "mapping(address => struct Counters.Counter)",
        "numberOfBytes": "32",
        "value": "t_struct(Counter)2235_storage"
      },
      "t_mapping(t_address,t_uint256)": {
        "encoding": "mapping",
        "key": "t_address",
        "label": "mapping(address => uint256)",
        "numberOfBytes": "32",
        "value": "t_uint256"
      },
      "t_mapping(t_bytes32,t_array(t_struct(Contribution)26_storage)dyn_storage)": {
        "encoding": "mapping",
        "key": "t_bytes32",
        "label": "mapping(bytes32 => struct Mojo.Contribution[])",
        "numberOfBytes": "32",
        "value": "t_array(t_struct(Contribution)26_storage)dyn_storage"
      },
      "t_string_storage": {
        "encoding": "bytes",
        "label": "string",
        "numberOfBytes": "32"
      },
      "t_struct(Contribution)26_storage": {
        "encoding": "inplace",
        "label": "struct Mojo.Contribution",
        "members": [
          {
            "astId": 18,
            "contract": "mojo.sol:Mojo",
            "label": "contributor",
            "offset": 0,
            "slot": "0",
            "type": "t_address"
          },
          {
            "astId": 21,
            "contract": "mojo.sol:Mojo",
            "label": "role",
            "offset": 20,
            "slot": "0",
            "type": "t_enum(Role)16"
          },
          {
            "astId": 23,
            "contract": "mojo.sol:Mojo",
            "label": "percentage",
            "offset": 0,
            "slot": "1",
            "type": "t_uint256"
          },
          {
            "astId": 25,
            "contract": "mojo.sol:Mojo",
            "label": "timestamp",
            "offset": 0,
            "slot": "2",
            "type": "t_uint256"
          }
        ],
        "numberOfBytes": "96"
      },
      "t_struct(Counter)2235_storage": {
        "encoding": "inplace",
        "label": "struct Counters.Counter",
        "members": [
          {
            "astId": 2234,
            "contract": "mojo.sol:Mojo",
            "label": "_value",
            "offset": 0,
            "slot": "0",
            "type": "t_uint256"
          }
        ],
        "numberOfBytes": "32"
      },
      "t_uint256": {
        "encoding": "inplace",
        "label": "uint256",
        "numberOfBytes": "32"
      }
    }
  },
  "userdoc": {
    "kind": "user",
    "methods": {
      "allocateContribution(address,uint256,bytes32,uint8,uint256)": {
        "notice": "Allocate tokens and record contribution (owner-only)."
      },
      "burn(uint256)": {
        "notice": "Burn Mojo tokens."
      },
      "burnFrom(address,uint256)": {
        "notice": "Lets an owner burn a given amount of an account's tokens."
      },
      "constructor": {
        "notice": "Constructor sets initial owner and swap contract."
      },
      "contractURI()": {
        "notice": "Returns the contract metadata URI."
      },
      "mintForSwap(address,uint256)": {
        "notice": "Mint Mojo for PJK swapped/burned (called by swap contract)."
      },
      "mintTo(address,uint256)": {
        "notice": "Lets an authorized address mint tokens to a recipient."
      },
      "multicall(bytes[])": {
        "notice": "Receives and executes a batch of function calls on this contract."
      },
      "owner()": {
        "notice": "Returns the owner of the contract."
      },
      "setContractURI(string)": {
        "notice": "Lets a contract admin set the URI for contract-level metadata."
      },
      "setOwner(address)": {
        "notice": "Lets an authorized wallet set a new owner for the contract."
      },
      "setSwapContract(address)": {
        "notice": "Update swap contract address."
      },
      "setSwapRatio(uint256)": {
        "notice": "Update swap ratio."
      }
    },
    "notice": "ERC20 token for Producer Protocol on Optimism with dynamic minting.         Replaces PJK via swap/burn mechanism.",
    "version": 1
  }
}