{
  "_format": "hh-sol-artifact-1",
  "contractName": "MojoSwap",
  "sourceName": "contracts/mojoswap.sol",
  "abi": [
    {
      "inputs": [
        {
          "internalType": "address",
          "name": "_mojoToken",
          "type": "address"
        }
      ],
      "stateMutability": "nonpayable",
      "type": "constructor"
    },
    {
      "anonymous": false,
      "inputs": [
        {
          "indexed": true,
          "internalType": "address",
          "name": "user",
          "type": "address"
        },
        {
          "indexed": false,
          "internalType": "uint256",
          "name": "pjkAmount",
          "type": "uint256"
        },
        {
          "indexed": false,
          "internalType": "uint256",
          "name": "mojoAmount",
          "type": "uint256"
        }
      ],
      "name": "SwapCompleted",
      "type": "event"
    },
    {
      "anonymous": false,
      "inputs": [
        {
          "indexed": true,
          "internalType": "address",
          "name": "user",
          "type": "address"
        },
        {
          "indexed": false,
          "internalType": "uint256",
          "name": "pjkAmount",
          "type": "uint256"
        }
      ],
      "name": "SwapRequested",
      "type": "event"
    },
    {
      "inputs": [
        {
          "internalType": "address",
          "name": "user",
          "type": "address"
        },
        {
          "internalType": "uint256",
          "name": "pjkAmount",
          "type": "uint256"
        }
      ],
      "name": "completeSwap",
      "outputs": [],
      "stateMutability": "nonpayable",
      "type": "function"
    },
    {
      "inputs": [],
      "name": "mojoToken",
      "outputs": [
        {
          "internalType": "contract Mojo",
          "name": "",
          "type": "address"
        }
      ],
      "stateMutability": "view",
      "type": "function"
    },
    {
      "inputs": [],
      "name": "owner",
      "outputs": [
        {
          "internalType": "address",
          "name": "",
          "type": "address"
        }
      ],
      "stateMutability": "view",
      "type": "function"
    },
    {
      "inputs": [
        {
          "internalType": "address",
          "name": "",
          "type": "address"
        }
      ],
      "name": "pendingSwaps",
      "outputs": [
        {
          "internalType": "uint256",
          "name": "",
          "type": "uint256"
        }
      ],
      "stateMutability": "view",
      "type": "function"
    },
    {
      "inputs": [
        {
          "internalType": "uint256",
          "name": "pjkAmount",
          "type": "uint256"
        }
      ],
      "name": "requestSwap",
      "outputs": [],
      "stateMutability": "nonpayable",
      "type": "function"
    }
  ],
  "bytecode": "0x608060405234801561001057600080fd5b50604051610ad0380380610ad08339818101604052810190610032919061011c565b806000806101000a81548173ffffffffffffffffffffffffffffffffffffffff021916908373ffffffffffffffffffffffffffffffffffffffff16021790555033600160006101000a81548173ffffffffffffffffffffffffffffffffffffffff021916908373ffffffffffffffffffffffffffffffffffffffff16021790555050610149565b600080fd5b600073ffffffffffffffffffffffffffffffffffffffff82169050919050565b60006100e9826100be565b9050919050565b6100f9816100de565b811461010457600080fd5b50565b600081519050610116816100f0565b92915050565b600060208284031215610132576101316100b9565b5b600061014084828501610107565b91505092915050565b610978806101586000396000f3fe608060405234801561001057600080fd5b50600436106100575760003560e01c80632217d4831461005c578063466ad01c146100785780638da5cb5b14610094578063d2174a6e146100b2578063d56fb4a9146100e2575b600080fd5b61007660048036038101906100719190610526565b610100565b005b610092600480360381019061008d91906105b1565b6101a7565b005b61009c610489565b6040516100a99190610600565b60405180910390f35b6100cc60048036038101906100c7919061061b565b6104af565b6040516100d99190610657565b60405180910390f35b6100ea6104c7565b6040516100f791906106d1565b60405180910390f35b80600260003373ffffffffffffffffffffffffffffffffffffffff1673ffffffffffffffffffffffffffffffffffffffff168152602001908152602001600020600082825461014f919061071b565b925050819055503373ffffffffffffffffffffffffffffffffffffffff167f6205ae3c63f3c2bef4746c34cd7df37c947b27bb74af5b30a55e095d9869e59b8260405161019c9190610657565b60405180910390a250565b600160009054906101000a900473ffffffffffffffffffffffffffffffffffffffff1673ffffffffffffffffffffffffffffffffffffffff163373ffffffffffffffffffffffffffffffffffffffff1614610237576040517f08c379a000000000000000000000000000000000000000000000000000000000815260040161022e906107ac565b60405180910390fd5b80600260008473ffffffffffffffffffffffffffffffffffffffff1673ffffffffffffffffffffffffffffffffffffffff1681526020019081526020016000205410156102b9576040517f08c379a00000000000000000000000000000000000000000000000000000000081526004016102b090610818565b60405180910390fd5b80600260008473ffffffffffffffffffffffffffffffffffffffff1673ffffffffffffffffffffffffffffffffffffffff16815260200190815260200160002060008282546103089190610838565b9250508190555060008054906101000a900473ffffffffffffffffffffffffffffffffffffffff1673ffffffffffffffffffffffffffffffffffffffff16630b8b29e583836040518363ffffffff1660e01b815260040161036a92919061086c565b600060405180830381600087803b15801561038457600080fd5b505af1158015610398573d6000803e3d6000fd5b505050508173ffffffffffffffffffffffffffffffffffffffff167f68c14902a77c0b779e8d12c5eadac21e74962f4e4efaa8a01582d13b3945ae7f8260008054906101000a900473ffffffffffffffffffffffffffffffffffffffff1673ffffffffffffffffffffffffffffffffffffffff16630e0bfb496040518163ffffffff1660e01b8152600401602060405180830381865afa158015610440573d6000803e3d6000fd5b505050506040513d601f19601f8201168201806040525081019061046491906108aa565b8461046f91906108d7565b60405161047d929190610919565b60405180910390a25050565b600160009054906101000a900473ffffffffffffffffffffffffffffffffffffffff1681565b60026020528060005260406000206000915090505481565b60008054906101000a900473ffffffffffffffffffffffffffffffffffffffff1681565b600080fd5b6000819050919050565b610503816104f0565b811461050e57600080fd5b50565b600081359050610520816104fa565b92915050565b60006020828403121561053c5761053b6104eb565b5b600061054a84828501610511565b91505092915050565b600073ffffffffffffffffffffffffffffffffffffffff82169050919050565b600061057e82610553565b9050919050565b61058e81610573565b811461059957600080fd5b50565b6000813590506105ab81610585565b92915050565b600080604083850312156105c8576105c76104eb565b5b60006105d68582860161059c565b92505060206105e785828601610511565b9150509250929050565b6105fa81610573565b82525050565b600060208201905061061560008301846105f1565b92915050565b600060208284031215610631576106306104eb565b5b600061063f8482850161059c565b91505092915050565b610651816104f0565b82525050565b600060208201905061066c6000830184610648565b92915050565b6000819050919050565b600061069761069261068d84610553565b610672565b610553565b9050919050565b60006106a98261067c565b9050919050565b60006106bb8261069e565b9050919050565b6106cb816106b0565b82525050565b60006020820190506106e660008301846106c2565b92915050565b7f4e487b7100000000000000000000000000000000000000000000000000000000600052601160045260246000fd5b6000610726826104f0565b9150610731836104f0565b9250828201905080821115610749576107486106ec565b5b92915050565b600082825260208201905092915050565b7f4e6f74206f776e65720000000000000000000000000000000000000000000000600082015250565b600061079660098361074f565b91506107a182610760565b602082019050919050565b600060208201905081810360008301526107c581610789565b9050919050565b7f496e73756666696369656e742070656e64696e6720616d6f756e740000000000600082015250565b6000610802601b8361074f565b915061080d826107cc565b602082019050919050565b60006020820190508181036000830152610831816107f5565b9050919050565b6000610843826104f0565b915061084e836104f0565b9250828203905081811115610866576108656106ec565b5b92915050565b600060408201905061088160008301856105f1565b61088e6020830184610648565b9392505050565b6000815190506108a4816104fa565b92915050565b6000602082840312156108c0576108bf6104eb565b5b60006108ce84828501610895565b91505092915050565b60006108e2826104f0565b91506108ed836104f0565b92508282026108fb816104f0565b91508282048414831517610912576109116106ec565b5b5092915050565b600060408201905061092e6000830185610648565b61093b6020830184610648565b939250505056fea264697066735822122060be8dc74a04668b5ff9d688ec0579c249dd0f93897c2b380e56c8e021e1ff8164736f6c63430008110033",
  "linkReferences": {},
  "deployedLinkReferences": {}
}