{
  "_format": "hh-sol-artifact-1",
  "contractName": "WPJK",
  "sourceName": "contracts/WPJK.sol",
  "abi": [
    {
      "inputs": [],
      "stateMutability": "nonpayable",
      "type": "constructor"
    },
    {
      "anonymous": false,
      "inputs": [
        {
          "indexed": true,
          "internalType": "bytes32",
          "name": "role",
          "type": "bytes32"
        },
        {
          "indexed": true,
          "internalType": "bytes32",
          "name": "previousAdminRole",
          "type": "bytes32"
        },
        {
          "indexed": true,
          "internalType": "bytes32",
          "name": "newAdminRole",
          "type": "bytes32"
        }
      ],
      "name": "RoleAdminChanged",
      "type": "event"
    },
    {
      "anonymous": false,
      "inputs": [
        {
          "indexed": true,
          "internalType": "bytes32",
          "name": "role",
          "type": "bytes32"
        },
        {
          "indexed": true,
          "internalType": "address",
          "name": "account",
          "type": "address"
        },
        {
          "indexed": true,
          "internalType": "address",
          "name": "sender",
          "type": "address"
        }
      ],
      "name": "RoleGranted",
      "type": "event"
    },
    {
      "anonymous": false,
      "inputs": [
        {
          "indexed": true,
          "internalType": "bytes32",
          "name": "role",
          "type": "bytes32"
        },
        {
          "indexed": true,
          "internalType": "address",
          "name": "account",
          "type": "address"
        },
        {
          "indexed": true,
          "internalType": "address",
          "name": "sender",
          "type": "address"
        }
      ],
      "name": "RoleRevoked",
      "type": "event"
    },
    {
      "inputs": [],
      "name": "ADMIN_ROLE",
      "outputs": [
        {
          "internalType": "bytes32",
          "name": "",
          "type": "bytes32"
        }
      ],
      "stateMutability": "view",
      "type": "function"
    },
    {
      "inputs": [],
      "name": "DEFAULT_ADMIN_ROLE",
      "outputs": [
        {
          "internalType": "bytes32",
          "name": "",
          "type": "bytes32"
        }
      ],
      "stateMutability": "view",
      "type": "function"
    },
    {
      "inputs": [
        {
          "internalType": "bytes32",
          "name": "role",
          "type": "bytes32"
        }
      ],
      "name": "getRoleAdmin",
      "outputs": [
        {
          "internalType": "bytes32",
          "name": "",
          "type": "bytes32"
        }
      ],
      "stateMutability": "view",
      "type": "function"
    },
    {
      "inputs": [
        {
          "internalType": "bytes32",
          "name": "role",
          "type": "bytes32"
        },
        {
          "internalType": "address",
          "name": "account",
          "type": "address"
        }
      ],
      "name": "grantRole",
      "outputs": [],
      "stateMutability": "nonpayable",
      "type": "function"
    },
    {
      "inputs": [
        {
          "internalType": "bytes32",
          "name": "role",
          "type": "bytes32"
        },
        {
          "internalType": "address",
          "name": "account",
          "type": "address"
        }
      ],
      "name": "hasRole",
      "outputs": [
        {
          "internalType": "bool",
          "name": "",
          "type": "bool"
        }
      ],
      "stateMutability": "view",
      "type": "function"
    },
    {
      "inputs": [
        {
          "internalType": "bytes32",
          "name": "role",
          "type": "bytes32"
        },
        {
          "internalType": "address",
          "name": "account",
          "type": "address"
        }
      ],
      "name": "renounceRole",
      "outputs": [],
      "stateMutability": "nonpayable",
      "type": "function"
    },
    {
      "inputs": [
        {
          "internalType": "bytes32",
          "name": "role",
          "type": "bytes32"
        },
        {
          "internalType": "address",
          "name": "account",
          "type": "address"
        }
      ],
      "name": "revokeRole",
      "outputs": [],
      "stateMutability": "nonpayable",
      "type": "function"
    },
    {
      "inputs": [
        {
          "internalType": "bytes4",
          "name": "interfaceId",
          "type": "bytes4"
        }
      ],
      "name": "supportsInterface",
      "outputs": [
        {
          "internalType": "bool",
          "name": "",
          "type": "bool"
        }
      ],
      "stateMutability": "view",
      "type": "function"
    }
  ],
  "bytecode": "0x608060405234801561001057600080fd5b506100246000801b3361005960201b60201c565b6100547fa49807205ce4d355092ef5a8a18f56e8913cf4a201fbe287825b095693c217753361005960201b60201c565b6101cb565b610069828261006d60201b60201c565b5050565b61007d828261015960201b60201c565b61015557600160008084815260200190815260200160002060000160008373ffffffffffffffffffffffffffffffffffffffff1673ffffffffffffffffffffffffffffffffffffffff16815260200190815260200160002060006101000a81548160ff0219169083151502179055506100fa6101c360201b60201c565b73ffffffffffffffffffffffffffffffffffffffff168173ffffffffffffffffffffffffffffffffffffffff16837f2f8788117e7eff1d82e926ec794901d17c78024a50270940304540a733656f0d60405160405180910390a45b5050565b600080600084815260200190815260200160002060000160008373ffffffffffffffffffffffffffffffffffffffff1673ffffffffffffffffffffffffffffffffffffffff16815260200190815260200160002060009054906101000a900460ff16905092915050565b600033905090565b610eea806101da6000396000f3fe608060405234801561001057600080fd5b50600436106100885760003560e01c806375b238fc1161005b57806375b238fc1461012557806391d1485414610143578063a217fddf14610173578063d547741f1461019157610088565b806301ffc9a71461008d578063248a9ca3146100bd5780632f2ff15d146100ed57806336568abe14610109575b600080fd5b6100a760048036038101906100a29190610932565b6101ad565b6040516100b4919061097a565b60405180910390f35b6100d760048036038101906100d291906109cb565b610227565b6040516100e49190610a07565b60405180910390f35b61010760048036038101906101029190610a80565b610246565b005b610123600480360381019061011e9190610a80565b610267565b005b61012d6102ea565b60405161013a9190610a07565b60405180910390f35b61015d60048036038101906101589190610a80565b61030e565b60405161016a919061097a565b60405180910390f35b61017b610378565b6040516101889190610a07565b60405180910390f35b6101ab60048036038101906101a69190610a80565b61037f565b005b60007f7965db0b000000000000000000000000000000000000000000000000000000007bffffffffffffffffffffffffffffffffffffffffffffffffffffffff1916827bffffffffffffffffffffffffffffffffffffffffffffffffffffffff19161480610220575061021f826103a0565b5b9050919050565b6000806000838152602001908152602001600020600101549050919050565b61024f82610227565b6102588161040a565b610262838361041e565b505050565b61026f6104fe565b73ffffffffffffffffffffffffffffffffffffffff168173ffffffffffffffffffffffffffffffffffffffff16146102dc576040517f08c379a00000000000000000000000000000000000000000000000000000000081526004016102d390610b43565b60405180910390fd5b6102e68282610506565b5050565b7fa49807205ce4d355092ef5a8a18f56e8913cf4a201fbe287825b095693c2177581565b600080600084815260200190815260200160002060000160008373ffffffffffffffffffffffffffffffffffffffff1673ffffffffffffffffffffffffffffffffffffffff16815260200190815260200160002060009054906101000a900460ff16905092915050565b6000801b81565b61038882610227565b6103918161040a565b61039b8383610506565b505050565b60007f01ffc9a7000000000000000000000000000000000000000000000000000000007bffffffffffffffffffffffffffffffffffffffffffffffffffffffff1916827bffffffffffffffffffffffffffffffffffffffffffffffffffffffff1916149050919050565b61041b816104166104fe565b6105e7565b50565b610428828261030e565b6104fa57600160008084815260200190815260200160002060000160008373ffffffffffffffffffffffffffffffffffffffff1673ffffffffffffffffffffffffffffffffffffffff16815260200190815260200160002060006101000a81548160ff02191690831515021790555061049f6104fe565b73ffffffffffffffffffffffffffffffffffffffff168173ffffffffffffffffffffffffffffffffffffffff16837f2f8788117e7eff1d82e926ec794901d17c78024a50270940304540a733656f0d60405160405180910390a45b5050565b600033905090565b610510828261030e565b156105e357600080600084815260200190815260200160002060000160008373ffffffffffffffffffffffffffffffffffffffff1673ffffffffffffffffffffffffffffffffffffffff16815260200190815260200160002060006101000a81548160ff0219169083151502179055506105886104fe565b73ffffffffffffffffffffffffffffffffffffffff168173ffffffffffffffffffffffffffffffffffffffff16837ff6391f5c32d9c69d2a47ea670b442974b53935d1edc7fd64eb21e047a839171b60405160405180910390a45b5050565b6105f1828261030e565b610668576105fe8161066c565b61060c8360001c6020610699565b60405160200161061d929190610c6c565b6040516020818303038152906040526040517f08c379a000000000000000000000000000000000000000000000000000000000815260040161065f9190610cf0565b60405180910390fd5b5050565b60606106928273ffffffffffffffffffffffffffffffffffffffff16601460ff16610699565b9050919050565b6060600060028360026106ac9190610d4b565b6106b69190610d8d565b67ffffffffffffffff8111156106cf576106ce610dc1565b5b6040519080825280601f01601f1916602001820160405280156107015781602001600182028036833780820191505090505b5090507f30000000000000000000000000000000000000000000000000000000000000008160008151811061073957610738610df0565b5b60200101907effffffffffffffffffffffffffffffffffffffffffffffffffffffffffffff1916908160001a9053507f78000000000000000000000000000000000000000000000000000000000000008160018151811061079d5761079c610df0565b5b60200101907effffffffffffffffffffffffffffffffffffffffffffffffffffffffffffff1916908160001a905350600060018460026107dd9190610d4b565b6107e79190610d8d565b90505b6001811115610887577f3031323334353637383961626364656600000000000000000000000000000000600f86166010811061082957610828610df0565b5b1a60f81b8282815181106108405761083f610df0565b5b60200101907effffffffffffffffffffffffffffffffffffffffffffffffffffffffffffff1916908160001a905350600485901c94508061088090610e1f565b90506107ea565b50600084146108cb576040517f08c379a00000000000000000000000000000000000000000000000000000000081526004016108c290610e94565b60405180910390fd5b8091505092915050565b600080fd5b60007fffffffff0000000000000000000000000000000000000000000000000000000082169050919050565b61090f816108da565b811461091a57600080fd5b50565b60008135905061092c81610906565b92915050565b600060208284031215610948576109476108d5565b5b60006109568482850161091d565b91505092915050565b60008115159050919050565b6109748161095f565b82525050565b600060208201905061098f600083018461096b565b92915050565b6000819050919050565b6109a881610995565b81146109b357600080fd5b50565b6000813590506109c58161099f565b92915050565b6000602082840312156109e1576109e06108d5565b5b60006109ef848285016109b6565b91505092915050565b610a0181610995565b82525050565b6000602082019050610a1c60008301846109f8565b92915050565b600073ffffffffffffffffffffffffffffffffffffffff82169050919050565b6000610a4d82610a22565b9050919050565b610a5d81610a42565b8114610a6857600080fd5b50565b600081359050610a7a81610a54565b92915050565b60008060408385031215610a9757610a966108d5565b5b6000610aa5858286016109b6565b9250506020610ab685828601610a6b565b9150509250929050565b600082825260208201905092915050565b7f416363657373436f6e74726f6c3a2063616e206f6e6c792072656e6f756e636560008201527f20726f6c657320666f722073656c660000000000000000000000000000000000602082015250565b6000610b2d602f83610ac0565b9150610b3882610ad1565b604082019050919050565b60006020820190508181036000830152610b5c81610b20565b9050919050565b600081905092915050565b7f416363657373436f6e74726f6c3a206163636f756e7420000000000000000000600082015250565b6000610ba4601783610b63565b9150610baf82610b6e565b601782019050919050565b600081519050919050565b60005b83811015610be3578082015181840152602081019050610bc8565b60008484015250505050565b6000610bfa82610bba565b610c048185610b63565b9350610c14818560208601610bc5565b80840191505092915050565b7f206973206d697373696e6720726f6c6520000000000000000000000000000000600082015250565b6000610c56601183610b63565b9150610c6182610c20565b601182019050919050565b6000610c7782610b97565b9150610c838285610bef565b9150610c8e82610c49565b9150610c9a8284610bef565b91508190509392505050565b6000601f19601f8301169050919050565b6000610cc282610bba565b610ccc8185610ac0565b9350610cdc818560208601610bc5565b610ce581610ca6565b840191505092915050565b60006020820190508181036000830152610d0a8184610cb7565b905092915050565b6000819050919050565b7f4e487b7100000000000000000000000000000000000000000000000000000000600052601160045260246000fd5b6000610d5682610d12565b9150610d6183610d12565b9250828202610d6f81610d12565b91508282048414831517610d8657610d85610d1c565b5b5092915050565b6000610d9882610d12565b9150610da383610d12565b9250828201905080821115610dbb57610dba610d1c565b5b92915050565b7f4e487b7100000000000000000000000000000000000000000000000000000000600052604160045260246000fd5b7f4e487b7100000000000000000000000000000000000000000000000000000000600052603260045260246000fd5b6000610e2a82610d12565b915060008203610e3d57610e3c610d1c565b5b600182039050919050565b7f537472696e67733a20686578206c656e67746820696e73756666696369656e74600082015250565b6000610e7e602083610ac0565b9150610e8982610e48565b602082019050919050565b60006020820190508181036000830152610ead81610e71565b905091905056fea2646970667358221220e171f841170ec03f8944e8fd942bd60a0294a02f7748ecf966029469344abcda64736f6c63430008110033",
  "linkReferences": {},
  "deployedLinkReferences": {}
}