{
  "_format": "hh-sol-artifact-1",
  "contractName": "DummyL1Bridge",
  "sourceName": "contracts/DummyL1Bridge.sol",
  "abi": [
    {
      "anonymous": false,
      "inputs": [
        {
          "indexed": false,
          "internalType": "uint256",
          "name": "tokenId",
          "type": "uint256"
        },
        {
          "indexed": false,
          "internalType": "address",
          "name": "l1Recipient",
          "type": "address"
        }
      ],
      "name": "BridgeOutCompleted",
      "type": "event"
    },
    {
      "inputs": [
        {
          "internalType": "uint256",
          "name": "tokenId",
          "type": "uint256"
        },
        {
          "internalType": "address",
          "name": "l1Recipient",
          "type": "address"
        }
      ],
      "name": "completeBridgeOut",
      "outputs": [],
      "stateMutability": "nonpayable",
      "type": "function"
    }
  ],
  "bytecode": "0x608060405234801561001057600080fd5b506101df806100206000396000f3fe608060405234801561001057600080fd5b506004361061002b5760003560e01c8063086877f214610030575b600080fd5b61004a60048036038101906100459190610122565b61004c565b005b7f32c699a6ec2834abca955774b4926afe50a18ad25e78aaa83f18e5d5525d7f5f828260405161007d929190610180565b60405180910390a15050565b600080fd5b6000819050919050565b6100a18161008e565b81146100ac57600080fd5b50565b6000813590506100be81610098565b92915050565b600073ffffffffffffffffffffffffffffffffffffffff82169050919050565b60006100ef826100c4565b9050919050565b6100ff816100e4565b811461010a57600080fd5b50565b60008135905061011c816100f6565b92915050565b6000806040838503121561013957610138610089565b5b6000610147858286016100af565b92505060206101588582860161010d565b9150509250929050565b61016b8161008e565b82525050565b61017a816100e4565b82525050565b60006040820190506101956000830185610162565b6101a26020830184610171565b939250505056fea2646970667358221220f40ea41ee45f8d1a80ca02d31eedf71a8213f8364d1f3358b541ba9b0c3cb68064736f6c63430008110033",
  "linkReferences": {},
  "deployedLinkReferences": {}
}