{
  "abi": [
    {
      "inputs": [
        {
          "internalType": "address",
          "name": "_crossDomainMessenger",
          "type": "address"
        },
        {
          "internalType": "address",
          "name": "_l1Contract",
          "type": "address"
        }
      ],
      "stateMutability": "nonpayable",
      "type": "constructor"
    },
    {
      "anonymous": false,
      "inputs": [
        {
          "indexed": true,
          "internalType": "address",
          "name": "owner",
          "type": "address"
        },
        {
          "indexed": true,
          "internalType": "address",
          "name": "approved",
          "type": "address"
        },
        {
          "indexed": true,
          "internalType": "uint256",
          "name": "tokenId",
          "type": "uint256"
        }
      ],
      "name": "Approval",
      "type": "event"
    },
    {
      "anonymous": false,
      "inputs": [
        {
          "indexed": true,
          "internalType": "address",
          "name": "owner",
          "type": "address"
        },
        {
          "indexed": true,
          "internalType": "address",
          "name": "operator",
          "type": "address"
        },
        {
          "indexed": false,
          "internalType": "bool",
          "name": "approved",
          "type": "bool"
        }
      ],
      "name": "ApprovalForAll",
      "type": "event"
    },
    {
      "anonymous": false,
      "inputs": [
        {
          "indexed": true,
          "internalType": "address",
          "name": "previousOwner",
          "type": "address"
        },
        {
          "indexed": true,
          "internalType": "address",
          "name": "newOwner",
          "type": "address"
        }
      ],
      "name": "OwnershipTransferred",
      "type": "event"
    },
    {
      "anonymous": false,
      "inputs": [
        {
          "indexed": true,
          "internalType": "uint256",
          "name": "tokenId",
          "type": "uint256"
        },
        {
          "indexed": true,
          "internalType": "address",
          "name": "recipient",
          "type": "address"
        }
      ],
      "name": "TokenBridgedIn",
      "type": "event"
    },
    {
      "anonymous": false,
      "inputs": [
        {
          "indexed": true,
          "internalType": "uint256",
          "name": "tokenId",
          "type": "uint256"
        },
        {
          "indexed": true,
          "internalType": "address",
          "name": "l1Recipient",
          "type": "address"
        }
      ],
      "name": "TokenBridgedOut",
      "type": "event"
    },
    {
      "anonymous": false,
      "inputs": [
        {
          "indexed": true,
          "internalType": "address",
          "name": "from",
          "type": "address"
        },
        {
          "indexed": true,
          "internalType": "address",
          "name": "to",
          "type": "address"
        },
        {
          "indexed": true,
          "internalType": "uint256",
          "name": "tokenId",
          "type": "uint256"
        }
      ],
      "name": "Transfer",
      "type": "event"
    },
    {
      "inputs": [],
      "name": "L1_GAS_LIMIT",
      "outputs": [
        {
          "internalType": "uint32",
          "name": "",
          "type": "uint32"
        }
      ],
      "stateMutability": "view",
      "type": "function"
    },
    {
      "inputs": [
        {
          "internalType": "address",
          "name": "recipient",
          "type": "address"
        }
      ],
      "name": "adminMint",
      "outputs": [],
      "stateMutability": "nonpayable",
      "type": "function"
    },
    {
      "inputs": [
        {
          "internalType": "address",
          "name": "to",
          "type": "address"
        },
        {
          "internalType": "uint256",
          "name": "tokenId",
          "type": "uint256"
        }
      ],
      "name": "approve",
      "outputs": [],
      "stateMutability": "nonpayable",
      "type": "function"
    },
    {
      "inputs": [
        {
          "internalType": "address",
          "name": "owner",
          "type": "address"
        }
      ],
      "name": "balanceOf",
      "outputs": [
        {
          "internalType": "uint256",
          "name": "",
          "type": "uint256"
        }
      ],
      "stateMutability": "view",
      "type": "function"
    },
    {
      "inputs": [
        {
          "internalType": "uint256",
          "name": "tokenId",
          "type": "uint256"
        },
        {
          "internalType": "address",
          "name": "recipient",
          "type": "address"
        }
      ],
      "name": "bridgeMint",
      "outputs": [],
      "stateMutability": "nonpayable",
      "type": "function"
    },
    {
      "inputs": [
        {
          "internalType": "uint256",
          "name": "tokenId",
          "type": "uint256"
        },
        {
          "internalType": "address",
          "name": "l1Recipient",
          "type": "address"
        }
      ],
      "name": "bridgeOut",
      "outputs": [],
      "stateMutability": "nonpayable",
      "type": "function"
    },
    {
      "inputs": [],
      "name": "crossDomainMessenger",
      "outputs": [
        {
          "internalType": "address",
          "name": "",
          "type": "address"
        }
      ],
      "stateMutability": "view",
      "type": "function"
    },
    {
      "inputs": [
        {
          "internalType": "uint256",
          "name": "tokenId",
          "type": "uint256"
        }
      ],
      "name": "getApproved",
      "outputs": [
        {
          "internalType": "address",
          "name": "",
          "type": "address"
        }
      ],
      "stateMutability": "view",
      "type": "function"
    },
    {
      "inputs": [
        {
          "internalType": "address",
          "name": "owner",
          "type": "address"
        },
        {
          "internalType": "address",
          "name": "operator",
          "type": "address"
        }
      ],
      "name": "isApprovedForAll",
      "outputs": [
        {
          "internalType": "bool",
          "name": "",
          "type": "bool"
        }
      ],
      "stateMutability": "view",
      "type": "function"
    },
    {
      "inputs": [],
      "name": "l1Contract",
      "outputs": [
        {
          "internalType": "address",
          "name": "",
          "type": "address"
        }
      ],
      "stateMutability": "view",
      "type": "function"
    },
    {
      "inputs": [],
      "name": "name",
      "outputs": [
        {
          "internalType": "string",
          "name": "",
          "type": "string"
        }
      ],
      "stateMutability": "view",
      "type": "function"
    },
    {
      "inputs": [],
      "name": "nextTokenId",
      "outputs": [
        {
          "internalType": "uint256",
          "name": "",
          "type": "uint256"
        }
      ],
      "stateMutability": "view",
      "type": "function"
    },
    {
      "inputs": [],
      "name": "owner",
      "outputs": [
        {
          "internalType": "address",
          "name": "",
          "type": "address"
        }
      ],
      "stateMutability": "view",
      "type": "function"
    },
    {
      "inputs": [
        {
          "internalType": "uint256",
          "name": "tokenId",
          "type": "uint256"
        }
      ],
      "name": "ownerOf",
      "outputs": [
        {
          "internalType": "address",
          "name": "",
          "type": "address"
        }
      ],
      "stateMutability": "view",
      "type": "function"
    },
    {
      "inputs": [],
      "name": "renounceOwnership",
      "outputs": [],
      "stateMutability": "nonpayable",
      "type": "function"
    },
    {
      "inputs": [
        {
          "internalType": "address",
          "name": "from",
          "type": "address"
        },
        {
          "internalType": "address",
          "name": "to",
          "type": "address"
        },
        {
          "internalType": "uint256",
          "name": "tokenId",
          "type": "uint256"
        }
      ],
      "name": "safeTransferFrom",
      "outputs": [],
      "stateMutability": "nonpayable",
      "type": "function"
    },
    {
      "inputs": [
        {
          "internalType": "address",
          "name": "from",
          "type": "address"
        },
        {
          "internalType": "address",
          "name": "to",
          "type": "address"
        },
        {
          "internalType": "uint256",
          "name": "tokenId",
          "type": "uint256"
        },
        {
          "internalType": "bytes",
          "name": "data",
          "type": "bytes"
        }
      ],
      "name": "safeTransferFrom",
      "outputs": [],
      "stateMutability": "nonpayable",
      "type": "function"
    },
    {
      "inputs": [
        {
          "internalType": "address",
          "name": "operator",
          "type": "address"
        },
        {
          "internalType": "bool",
          "name": "approved",
          "type": "bool"
        }
      ],
      "name": "setApprovalForAll",
      "outputs": [],
      "stateMutability": "nonpayable",
      "type": "function"
    },
    {
      "inputs": [
        {
          "internalType": "bytes4",
          "name": "interfaceId",
          "type": "bytes4"
        }
      ],
      "name": "supportsInterface",
      "outputs": [
        {
          "internalType": "bool",
          "name": "",
          "type": "bool"
        }
      ],
      "stateMutability": "view",
      "type": "function"
    },
    {
      "inputs": [],
      "name": "symbol",
      "outputs": [
        {
          "internalType": "string",
          "name": "",
          "type": "string"
        }
      ],
      "stateMutability": "view",
      "type": "function"
    },
    {
      "inputs": [
        {
          "internalType": "uint256",
          "name": "tokenId",
          "type": "uint256"
        }
      ],
      "name": "tokenURI",
      "outputs": [
        {
          "internalType": "string",
          "name": "",
          "type": "string"
        }
      ],
      "stateMutability": "view",
      "type": "function"
    },
    {
      "inputs": [
        {
          "internalType": "address",
          "name": "from",
          "type": "address"
        },
        {
          "internalType": "address",
          "name": "to",
          "type": "address"
        },
        {
          "internalType": "uint256",
          "name": "tokenId",
          "type": "uint256"
        }
      ],
      "name": "transferFrom",
      "outputs": [],
      "stateMutability": "nonpayable",
      "type": "function"
    },
    {
      "inputs": [
        {
          "internalType": "address",
          "name": "newOwner",
          "type": "address"
        }
      ],
      "name": "transferOwnership",
      "outputs": [],
      "stateMutability": "nonpayable",
      "type": "function"
    }
  ],
  "devdoc": {
    "events": {
      "Approval(address,address,uint256)": {
        "details": "Emitted when `owner` enables `approved` to manage the `tokenId` token."
      },
      "ApprovalForAll(address,address,bool)": {
        "details": "Emitted when `owner` enables or disables (`approved`) `operator` to manage all of its assets."
      },
      "Transfer(address,address,uint256)": {
        "details": "Emitted when `tokenId` token is transferred from `from` to `to`."
      }
    },
    "kind": "dev",
    "methods": {
      "adminMint(address)": {
        "params": {
          "recipient": "The address that receives the NFT."
        }
      },
      "approve(address,uint256)": {
        "details": "See {IERC721-approve}."
      },
      "balanceOf(address)": {
        "details": "See {IERC721-balanceOf}."
      },
      "bridgeMint(uint256,address)": {
        "params": {
          "recipient": "The address receiving the NFT. Requirements:   - Must be called by the cross-domain messenger.   - The originating L1 sender (via xDomainSender) must match our trusted l1Contract.",
          "tokenId": "The token ID (should match the L1 record)."
        }
      },
      "bridgeOut(uint256,address)": {
        "params": {
          "l1Recipient": "The recipient address on L1 to receive/unlock the token. Requirements:   - Caller must be the token owner or an approved operator.",
          "tokenId": "The token ID to bridge out."
        }
      },
      "getApproved(uint256)": {
        "details": "See {IERC721-getApproved}."
      },
      "isApprovedForAll(address,address)": {
        "details": "See {IERC721-isApprovedForAll}."
      },
      "name()": {
        "details": "See {IERC721Metadata-name}."
      },
      "owner()": {
        "details": "Returns the address of the current owner."
      },
      "ownerOf(uint256)": {
        "details": "See {IERC721-ownerOf}."
      },
      "renounceOwnership()": {
        "details": "Leaves the contract without owner. It will not be possible to call `onlyOwner` functions. Can only be called by the current owner. NOTE: Renouncing ownership will leave the contract without an owner, thereby disabling any functionality that is only available to the owner."
      },
      "safeTransferFrom(address,address,uint256)": {
        "details": "See {IERC721-safeTransferFrom}."
      },
      "safeTransferFrom(address,address,uint256,bytes)": {
        "details": "See {IERC721-safeTransferFrom}."
      },
      "setApprovalForAll(address,bool)": {
        "details": "See {IERC721-setApprovalForAll}."
      },
      "supportsInterface(bytes4)": {
        "details": "See {IERC165-supportsInterface}."
      },
      "symbol()": {
        "details": "See {IERC721Metadata-symbol}."
      },
      "tokenURI(uint256)": {
        "details": "See {IERC721Metadata-tokenURI}."
      },
      "transferFrom(address,address,uint256)": {
        "details": "See {IERC721-transferFrom}."
      },
      "transferOwnership(address)": {
        "details": "Transfers ownership of the contract to a new account (`newOwner`). Can only be called by the current owner."
      }
    },
    "version": 1
  },
  "evm": {
    "assembly": "    /* \"ProducerProtocolOptimism.sol\":1483:4330  contract ProducerProtocolOptimism is ERC721, Ownable, ReentrancyGuard {... */\n  mstore(0x40, 0x80)\n    /* \"ProducerProtocolOptimism.sol\":2077:2307  constructor(address _crossDomainMessenger, address _l1Contract)... */\n  callvalue\n  dup1\n  iszero\n  tag_1\n  jumpi\n  0x00\n  dup1\n  revert\ntag_1:\n  pop\n  mload(0x40)\n  sub(codesize, bytecodeSize)\n  dup1\n  bytecodeSize\n  dup4\n  codecopy\n  dup2\n  add\n  0x40\n  dup2\n  swap1\n  mstore\n  tag_2\n  swap2\n  tag_3\n  jump\t// in\ntag_2:\n    /* \"@openzeppelin/contracts/token/ERC721/ERC721.sol\":1390:1503   */\n  mload(0x40)\n  dup1\n  0x40\n  add\n  0x40\n  mstore\n  dup1\n  0x11\n  dup2\n  mstore\n  0x20\n  add\n  shl(0x7a, 0x141c9bd91d58d95c88141c9bdd1bd8dbdb)\n  dup2\n  mstore\n  pop\n  mload(0x40)\n  dup1\n  0x40\n  add\n  0x40\n  mstore\n  dup1\n  0x02\n  dup2\n  mstore\n  0x20\n  add\n  shl(0xf4, 0x0505)\n  dup2\n  mstore\n  pop\n    /* \"@openzeppelin/contracts/token/ERC721/ERC721.sol\":1464:1469   */\n  dup2\n    /* \"@openzeppelin/contracts/token/ERC721/ERC721.sol\":1456:1461   */\n  0x00\n    /* \"@openzeppelin/contracts/token/ERC721/ERC721.sol\":1456:1469   */\n  swap1\n  dup2\n  tag_9\n  swap2\n  swap1\n  tag_10\n  jump\t// in\ntag_9:\n  pop\n    /* \"@openzeppelin/contracts/token/ERC721/ERC721.sol\":1479:1486   */\n  0x01\n    /* \"@openzeppelin/contracts/token/ERC721/ERC721.sol\":1479:1496   */\n  tag_11\n    /* \"@openzeppelin/contracts/token/ERC721/ERC721.sol\":1489:1496   */\n  dup3\n    /* \"@openzeppelin/contracts/token/ERC721/ERC721.sol\":1479:1486   */\n  dup3\n    /* \"@openzeppelin/contracts/token/ERC721/ERC721.sol\":1479:1496   */\n  tag_10\n  jump\t// in\ntag_11:\n  pop\n    /* \"@openzeppelin/contracts/token/ERC721/ERC721.sol\":1390:1503   */\n  pop\n  pop\n    /* \"@openzeppelin/contracts/access/Ownable.sol\":936:968   */\n  tag_13\n    /* \"@openzeppelin/contracts/access/Ownable.sol\":955:967   */\n  tag_14\n    /* \"@openzeppelin/contracts/access/Ownable.sol\":955:965   */\n  shl(0x20, tag_15)\n    /* \"@openzeppelin/contracts/access/Ownable.sol\":955:967   */\n  0x20\n  shr\n  jump\t// in\ntag_14:\n    /* \"@openzeppelin/contracts/access/Ownable.sol\":936:954   */\n  tag_16\n    /* \"@openzeppelin/contracts/access/Ownable.sol\":936:968   */\n  jump\t// in\ntag_13:\n    /* \"ProducerProtocolOptimism.sol\":495:496  1 */\n  0x01\n    /* \"ProducerProtocolOptimism.sol\":599:606  _status */\n  0x07\n    /* \"ProducerProtocolOptimism.sol\":599:621  _status = _NOT_ENTERED */\n  dup2\n  swap1\n  sstore\n    /* \"ProducerProtocolOptimism.sol\":2197:2217  crossDomainMessenger */\n  0x08\n    /* \"ProducerProtocolOptimism.sol\":2197:2241  crossDomainMessenger = _crossDomainMessenger */\n  dup1\n  sload\n  sub(shl(0xa0, 0x01), 0x01)\n  swap5\n  dup6\n  and\n  not(sub(shl(0xa0, 0x01), 0x01))\n  swap2\n  dup3\n  and\n  or\n  swap1\n  swap2\n  sstore\n    /* \"ProducerProtocolOptimism.sol\":2251:2261  l1Contract */\n  0x09\n    /* \"ProducerProtocolOptimism.sol\":2251:2275  l1Contract = _l1Contract */\n  dup1\n  sload\n  swap4\n  swap1\n  swap5\n  and\n  swap3\n  and\n  swap2\n  swap1\n  swap2\n  or\n  swap1\n  swap2\n  sstore\n    /* \"ProducerProtocolOptimism.sol\":2285:2296  nextTokenId */\n  0x0a\n    /* \"ProducerProtocolOptimism.sol\":2285:2300  nextTokenId = 1 */\n  sstore\n    /* \"ProducerProtocolOptimism.sol\":1483:4330  contract ProducerProtocolOptimism is ERC721, Ownable, ReentrancyGuard {... */\n  jump(tag_28)\n    /* \"@openzeppelin/contracts/utils/Context.sol\":655:751   */\ntag_15:\n    /* \"@openzeppelin/contracts/utils/Context.sol\":734:744   */\n  caller\n  swap1\n    /* \"@openzeppelin/contracts/utils/Context.sol\":655:751   */\n  jump\t// out\n    /* \"@openzeppelin/contracts/access/Ownable.sol\":2426:2613   */\ntag_16:\n    /* \"@openzeppelin/contracts/access/Ownable.sol\":2518:2524   */\n  0x06\n  dup1\n  sload\n  sub(shl(0xa0, 0x01), 0x01)\n    /* \"@openzeppelin/contracts/access/Ownable.sol\":2534:2551   */\n  dup4\n  dup2\n  and\n  not(sub(shl(0xa0, 0x01), 0x01))\n  dup4\n  and\n  dup2\n  or\n  swap1\n  swap4\n  sstore\n    /* \"@openzeppelin/contracts/access/Ownable.sol\":2566:2606   */\n  mload(0x40)\n    /* \"@openzeppelin/contracts/access/Ownable.sol\":2518:2524   */\n  swap2\n  and\n  swap2\n    /* \"@openzeppelin/contracts/access/Ownable.sol\":2534:2551   */\n  swap1\n    /* \"@openzeppelin/contracts/access/Ownable.sol\":2518:2524   */\n  dup3\n  swap1\n    /* \"@openzeppelin/contracts/access/Ownable.sol\":2566:2606   */\n  0x8be0079c531659141344cd1fd0a4f28419497f9722a3daafe3b4186f6b6457e0\n  swap1\n    /* \"@openzeppelin/contracts/access/Ownable.sol\":2499:2515   */\n  0x00\n  swap1\n    /* \"@openzeppelin/contracts/access/Ownable.sol\":2566:2606   */\n  log3\n    /* \"@openzeppelin/contracts/access/Ownable.sol\":2489:2613   */\n  pop\n    /* \"@openzeppelin/contracts/access/Ownable.sol\":2426:2613   */\n  pop\n  jump\t// out\n    /* \"#utility.yul\":14:191   */\ntag_22:\n    /* \"#utility.yul\":93:106   */\n  dup1\n  mload\n  sub(shl(0xa0, 0x01), 0x01)\n    /* \"#utility.yul\":135:166   */\n  dup2\n  and\n    /* \"#utility.yul\":125:167   */\n  dup2\n  eq\n    /* \"#utility.yul\":115:185   */\n  tag_30\n  jumpi\n    /* \"#utility.yul\":181:182   */\n  0x00\n    /* \"#utility.yul\":178:179   */\n  dup1\n    /* \"#utility.yul\":171:183   */\n  revert\n    /* \"#utility.yul\":115:185   */\ntag_30:\n    /* \"#utility.yul\":14:191   */\n  swap2\n  swap1\n  pop\n  jump\t// out\n    /* \"#utility.yul\":196:489   */\ntag_3:\n    /* \"#utility.yul\":275:281   */\n  0x00\n    /* \"#utility.yul\":283:289   */\n  dup1\n    /* \"#utility.yul\":336:338   */\n  0x40\n    /* \"#utility.yul\":324:333   */\n  dup4\n    /* \"#utility.yul\":315:322   */\n  dup6\n    /* \"#utility.yul\":311:334   */\n  sub\n    /* \"#utility.yul\":307:339   */\n  slt\n    /* \"#utility.yul\":304:356   */\n  iszero\n  tag_32\n  jumpi\n    /* \"#utility.yul\":352:353   */\n  0x00\n    /* \"#utility.yul\":349:350   */\n  dup1\n    /* \"#utility.yul\":342:354   */\n  revert\n    /* \"#utility.yul\":304:356   */\ntag_32:\n    /* \"#utility.yul\":375:415   */\n  tag_33\n    /* \"#utility.yul\":405:414   */\n  dup4\n    /* \"#utility.yul\":375:415   */\n  tag_22\n  jump\t// in\ntag_33:\n    /* \"#utility.yul\":365:415   */\n  swap2\n  pop\n    /* \"#utility.yul\":434:483   */\n  tag_34\n    /* \"#utility.yul\":479:481   */\n  0x20\n    /* \"#utility.yul\":468:477   */\n  dup5\n    /* \"#utility.yul\":464:482   */\n  add\n    /* \"#utility.yul\":434:483   */\n  tag_22\n  jump\t// in\ntag_34:\n    /* \"#utility.yul\":424:483   */\n  swap1\n  pop\n    /* \"#utility.yul\":196:489   */\n  swap3\n  pop\n  swap3\n  swap1\n  pop\n  jump\t// out\n    /* \"#utility.yul\":494:621   */\ntag_23:\n    /* \"#utility.yul\":555:565   */\n  0x4e487b71\n    /* \"#utility.yul\":550:553   */\n  0xe0\n    /* \"#utility.yul\":546:566   */\n  shl\n    /* \"#utility.yul\":543:544   */\n  0x00\n    /* \"#utility.yul\":536:567   */\n  mstore\n    /* \"#utility.yul\":586:590   */\n  0x41\n    /* \"#utility.yul\":583:584   */\n  0x04\n    /* \"#utility.yul\":576:591   */\n  mstore\n    /* \"#utility.yul\":610:614   */\n  0x24\n    /* \"#utility.yul\":607:608   */\n  0x00\n    /* \"#utility.yul\":600:615   */\n  revert\n    /* \"#utility.yul\":626:1006   */\ntag_24:\n    /* \"#utility.yul\":705:706   */\n  0x01\n    /* \"#utility.yul\":701:713   */\n  dup2\n  dup2\n  shr\n  swap1\n    /* \"#utility.yul\":748:760   */\n  dup3\n  and\n  dup1\n    /* \"#utility.yul\":769:830   */\n  tag_37\n  jumpi\n    /* \"#utility.yul\":823:827   */\n  0x7f\n    /* \"#utility.yul\":815:821   */\n  dup3\n    /* \"#utility.yul\":811:828   */\n  and\n    /* \"#utility.yul\":801:828   */\n  swap2\n  pop\n    /* \"#utility.yul\":769:830   */\ntag_37:\n    /* \"#utility.yul\":876:878   */\n  0x20\n    /* \"#utility.yul\":868:874   */\n  dup3\n    /* \"#utility.yul\":865:879   */\n  lt\n    /* \"#utility.yul\":845:863   */\n  dup2\n    /* \"#utility.yul\":842:880   */\n  sub\n    /* \"#utility.yul\":839:1000   */\n  tag_38\n  jumpi\n    /* \"#utility.yul\":922:932   */\n  0x4e487b71\n    /* \"#utility.yul\":917:920   */\n  0xe0\n    /* \"#utility.yul\":913:933   */\n  shl\n    /* \"#utility.yul\":910:911   */\n  0x00\n    /* \"#utility.yul\":903:934   */\n  mstore\n    /* \"#utility.yul\":957:961   */\n  0x22\n    /* \"#utility.yul\":954:955   */\n  0x04\n    /* \"#utility.yul\":947:962   */\n  mstore\n    /* \"#utility.yul\":985:989   */\n  0x24\n    /* \"#utility.yul\":982:983   */\n  0x00\n    /* \"#utility.yul\":975:990   */\n  revert\n    /* \"#utility.yul\":839:1000   */\ntag_38:\n  pop\n    /* \"#utility.yul\":626:1006   */\n  swap2\n  swap1\n  pop\n  jump\t// out\n    /* \"#utility.yul\":1137:1655   */\ntag_26:\n    /* \"#utility.yul\":1239:1241   */\n  0x1f\n    /* \"#utility.yul\":1234:1237   */\n  dup3\n    /* \"#utility.yul\":1231:1242   */\n  gt\n    /* \"#utility.yul\":1228:1649   */\n  iszero\n  tag_41\n  jumpi\n    /* \"#utility.yul\":1275:1280   */\n  dup1\n    /* \"#utility.yul\":1272:1273   */\n  0x00\n    /* \"#utility.yul\":1265:1281   */\n  mstore\n    /* \"#utility.yul\":1319:1323   */\n  0x20\n    /* \"#utility.yul\":1316:1317   */\n  0x00\n    /* \"#utility.yul\":1306:1324   */\n  keccak256\n    /* \"#utility.yul\":1389:1391   */\n  0x1f\n    /* \"#utility.yul\":1377:1387   */\n  dup5\n    /* \"#utility.yul\":1373:1392   */\n  add\n    /* \"#utility.yul\":1370:1371   */\n  0x05\n    /* \"#utility.yul\":1366:1393   */\n  shr\n    /* \"#utility.yul\":1360:1364   */\n  dup2\n    /* \"#utility.yul\":1356:1394   */\n  add\n    /* \"#utility.yul\":1425:1429   */\n  0x20\n    /* \"#utility.yul\":1413:1423   */\n  dup6\n    /* \"#utility.yul\":1410:1430   */\n  lt\n    /* \"#utility.yul\":1407:1454   */\n  iszero\n  tag_42\n  jumpi\n  pop\n    /* \"#utility.yul\":1448:1452   */\n  dup1\n    /* \"#utility.yul\":1407:1454   */\ntag_42:\n    /* \"#utility.yul\":1503:1505   */\n  0x1f\n    /* \"#utility.yul\":1498:1501   */\n  dup5\n    /* \"#utility.yul\":1494:1506   */\n  add\n    /* \"#utility.yul\":1491:1492   */\n  0x05\n    /* \"#utility.yul\":1487:1507   */\n  shr\n    /* \"#utility.yul\":1481:1485   */\n  dup3\n    /* \"#utility.yul\":1477:1508   */\n  add\n    /* \"#utility.yul\":1467:1508   */\n  swap2\n  pop\n    /* \"#utility.yul\":1558:1639   */\ntag_43:\n    /* \"#utility.yul\":1576:1578   */\n  dup2\n    /* \"#utility.yul\":1569:1574   */\n  dup2\n    /* \"#utility.yul\":1566:1579   */\n  lt\n    /* \"#utility.yul\":1558:1639   */\n  iszero\n  tag_45\n  jumpi\n    /* \"#utility.yul\":1635:1636   */\n  0x00\n    /* \"#utility.yul\":1621:1637   */\n  dup2\n  sstore\n    /* \"#utility.yul\":1602:1603   */\n  0x01\n    /* \"#utility.yul\":1591:1604   */\n  add\n    /* \"#utility.yul\":1558:1639   */\n  jump(tag_43)\ntag_45:\n    /* \"#utility.yul\":1562:1565   */\n  pop\n  pop\n    /* \"#utility.yul\":1228:1649   */\ntag_41:\n    /* \"#utility.yul\":1137:1655   */\n  pop\n  pop\n  pop\n  jump\t// out\n    /* \"#utility.yul\":1831:3176   */\ntag_10:\n    /* \"#utility.yul\":1951:1961   */\n  dup2\n  mload\n  sub(shl(0x40, 0x01), 0x01)\n    /* \"#utility.yul\":1973:2003   */\n  dup2\n  gt\n    /* \"#utility.yul\":1970:2026   */\n  iszero\n  tag_49\n  jumpi\n    /* \"#utility.yul\":2006:2024   */\n  tag_49\n  tag_23\n  jump\t// in\ntag_49:\n    /* \"#utility.yul\":2035:2132   */\n  tag_50\n    /* \"#utility.yul\":2125:2131   */\n  dup2\n    /* \"#utility.yul\":2085:2123   */\n  tag_51\n    /* \"#utility.yul\":2117:2121   */\n  dup5\n    /* \"#utility.yul\":2111:2122   */\n  sload\n    /* \"#utility.yul\":2085:2123   */\n  tag_24\n  jump\t// in\ntag_51:\n    /* \"#utility.yul\":2079:2083   */\n  dup5\n    /* \"#utility.yul\":2035:2132   */\n  tag_26\n  jump\t// in\ntag_50:\n    /* \"#utility.yul\":2187:2191   */\n  0x20\n  dup1\n    /* \"#utility.yul\":2244:2246   */\n  0x1f\n    /* \"#utility.yul\":2233:2247   */\n  dup4\n  gt\n    /* \"#utility.yul\":2261:2262   */\n  0x01\n    /* \"#utility.yul\":2256:2919   */\n  dup2\n  eq\n  tag_53\n  jumpi\n    /* \"#utility.yul\":2963:2964   */\n  0x00\n    /* \"#utility.yul\":2980:2986   */\n  dup5\n    /* \"#utility.yul\":2977:3066   */\n  iszero\n  tag_54\n  jumpi\n  pop\n    /* \"#utility.yul\":3032:3051   */\n  dup6\n  dup4\n  add\n    /* \"#utility.yul\":3026:3052   */\n  mload\n    /* \"#utility.yul\":2977:3066   */\ntag_54:\n  not(0x00)\n    /* \"#utility.yul\":1788:1789   */\n  0x03\n    /* \"#utility.yul\":1784:1795   */\n  dup7\n  swap1\n  shl\n    /* \"#utility.yul\":1780:1804   */\n  shr\n    /* \"#utility.yul\":1776:1805   */\n  not\n    /* \"#utility.yul\":1766:1806   */\n  and\n    /* \"#utility.yul\":1812:1813   */\n  0x01\n    /* \"#utility.yul\":1808:1819   */\n  dup6\n  swap1\n  shl\n    /* \"#utility.yul\":1763:1820   */\n  or\n    /* \"#utility.yul\":3079:3160   */\n  dup6\n  sstore\n    /* \"#utility.yul\":2226:3170   */\n  jump(tag_52)\n    /* \"#utility.yul\":2256:2919   */\ntag_53:\n    /* \"#utility.yul\":1084:1085   */\n  0x00\n    /* \"#utility.yul\":1077:1091   */\n  dup6\n  dup2\n  mstore\n    /* \"#utility.yul\":1121:1125   */\n  0x20\n    /* \"#utility.yul\":1108:1126   */\n  dup2\n  keccak256\n  not(0x1f)\n    /* \"#utility.yul\":2292:2312   */\n  dup7\n  and\n  swap2\n    /* \"#utility.yul\":2410:2646   */\ntag_57:\n    /* \"#utility.yul\":2424:2431   */\n  dup3\n    /* \"#utility.yul\":2421:2422   */\n  dup2\n    /* \"#utility.yul\":2418:2432   */\n  lt\n    /* \"#utility.yul\":2410:2646   */\n  iszero\n  tag_59\n  jumpi\n    /* \"#utility.yul\":2513:2532   */\n  dup9\n  dup7\n  add\n    /* \"#utility.yul\":2507:2533   */\n  mload\n    /* \"#utility.yul\":2492:2534   */\n  dup3\n  sstore\n    /* \"#utility.yul\":2605:2632   */\n  swap5\n  dup5\n  add\n  swap5\n    /* \"#utility.yul\":2573:2574   */\n  0x01\n    /* \"#utility.yul\":2561:2575   */\n  swap1\n  swap2\n  add\n  swap1\n    /* \"#utility.yul\":2440:2459   */\n  dup5\n  add\n    /* \"#utility.yul\":2410:2646   */\n  jump(tag_57)\ntag_59:\n    /* \"#utility.yul\":2414:2417   */\n  pop\n    /* \"#utility.yul\":2674:2680   */\n  dup6\n    /* \"#utility.yul\":2665:2672   */\n  dup3\n    /* \"#utility.yul\":2662:2681   */\n  lt\n    /* \"#utility.yul\":2659:2860   */\n  iszero\n  tag_60\n  jumpi\n    /* \"#utility.yul\":2735:2754   */\n  dup8\n  dup6\n  add\n    /* \"#utility.yul\":2729:2755   */\n  mload\n  not(0x00)\n    /* \"#utility.yul\":2818:2819   */\n  0x03\n    /* \"#utility.yul\":2814:2828   */\n  dup9\n  swap1\n  shl\n    /* \"#utility.yul\":2830:2833   */\n  0xf8\n    /* \"#utility.yul\":2810:2834   */\n  and\n    /* \"#utility.yul\":2806:2843   */\n  shr\n    /* \"#utility.yul\":2802:2844   */\n  not\n    /* \"#utility.yul\":2787:2845   */\n  and\n    /* \"#utility.yul\":2772:2846   */\n  dup2\n  sstore\n    /* \"#utility.yul\":2659:2860   */\ntag_60:\n  pop\n  pop\n    /* \"#utility.yul\":2906:2907   */\n  0x01\n    /* \"#utility.yul\":2897:2903   */\n  dup5\n    /* \"#utility.yul\":2894:2895   */\n  0x01\n    /* \"#utility.yul\":2890:2904   */\n  shl\n    /* \"#utility.yul\":2886:2908   */\n  add\n    /* \"#utility.yul\":2880:2884   */\n  dup6\n    /* \"#utility.yul\":2873:2909   */\n  sstore\n    /* \"#utility.yul\":2226:3170   */\ntag_52:\n  pop\n  pop\n  pop\n  pop\n    /* \"#utility.yul\":1831:3176   */\n  pop\n  pop\n  jump\t// out\ntag_28:\n    /* \"ProducerProtocolOptimism.sol\":1483:4330  contract ProducerProtocolOptimism is ERC721, Ownable, ReentrancyGuard {... */\n  dataSize(sub_0)\n  dup1\n  dataOffset(sub_0)\n  0x00\n  codecopy\n  0x00\n  return\nstop\n\nsub_0: assembly {\n        /* \"ProducerProtocolOptimism.sol\":1483:4330  contract ProducerProtocolOptimism is ERC721, Ownable, ReentrancyGuard {... */\n      mstore(0x40, 0x80)\n      callvalue\n      dup1\n      iszero\n      tag_1\n      jumpi\n      0x00\n      dup1\n      revert\n    tag_1:\n      pop\n      jumpi(tag_2, lt(calldatasize, 0x04))\n      shr(0xe0, calldataload(0x00))\n      dup1\n      0x715018a6\n      gt\n      tag_26\n      jumpi\n      dup1\n      0xb88d4fde\n      gt\n      tag_27\n      jumpi\n      dup1\n      0xe985e9c5\n      gt\n      tag_28\n      jumpi\n      dup1\n      0xe985e9c5\n      eq\n      tag_23\n      jumpi\n      dup1\n      0xf2fde38b\n      eq\n      tag_24\n      jumpi\n      dup1\n      0xf43b3613\n      eq\n      tag_25\n      jumpi\n      0x00\n      dup1\n      revert\n    tag_28:\n      dup1\n      0xb88d4fde\n      eq\n      tag_20\n      jumpi\n      dup1\n      0xb9b3f691\n      eq\n      tag_21\n      jumpi\n      dup1\n      0xc87b56dd\n      eq\n      tag_22\n      jumpi\n      0x00\n      dup1\n      revert\n    tag_27:\n      dup1\n      0x95d89b41\n      gt\n      tag_29\n      jumpi\n      dup1\n      0x95d89b41\n      eq\n      tag_17\n      jumpi\n      dup1\n      0x9769dc0e\n      eq\n      tag_18\n      jumpi\n      dup1\n      0xa22cb465\n      eq\n      tag_19\n      jumpi\n      0x00\n      dup1\n      revert\n    tag_29:\n      dup1\n      0x715018a6\n      eq\n      tag_14\n      jumpi\n      dup1\n      0x75794a3c\n      eq\n      tag_15\n      jumpi\n      dup1\n      0x8da5cb5b\n      eq\n      tag_16\n      jumpi\n      0x00\n      dup1\n      revert\n    tag_26:\n      dup1\n      0x23b872dd\n      gt\n      tag_30\n      jumpi\n      dup1\n      0x663ab59d\n      gt\n      tag_31\n      jumpi\n      dup1\n      0x663ab59d\n      eq\n      tag_11\n      jumpi\n      dup1\n      0x6e71473b\n      eq\n      tag_12\n      jumpi\n      dup1\n      0x70a08231\n      eq\n      tag_13\n      jumpi\n      0x00\n      dup1\n      revert\n    tag_31:\n      dup1\n      0x23b872dd\n      eq\n      tag_8\n      jumpi\n      dup1\n      0x42842e0e\n      eq\n      tag_9\n      jumpi\n      dup1\n      0x6352211e\n      eq\n      tag_10\n      jumpi\n      0x00\n      dup1\n      revert\n    tag_30:\n      dup1\n      0x081812fc\n      gt\n      tag_32\n      jumpi\n      dup1\n      0x081812fc\n      eq\n      tag_5\n      jumpi\n      dup1\n      0x095ea7b3\n      eq\n      tag_6\n      jumpi\n      dup1\n      0x1b827671\n      eq\n      tag_7\n      jumpi\n      0x00\n      dup1\n      revert\n    tag_32:\n      dup1\n      0x01ffc9a7\n      eq\n      tag_3\n      jumpi\n      dup1\n      0x06fdde03\n      eq\n      tag_4\n      jumpi\n    tag_2:\n      0x00\n      dup1\n      revert\n        /* \"@openzeppelin/contracts/token/ERC721/ERC721.sol\":1570:1870   */\n    tag_3:\n      tag_33\n      tag_34\n      calldatasize\n      0x04\n      tag_35\n      jump\t// in\n    tag_34:\n      tag_36\n      jump\t// in\n    tag_33:\n      mload(0x40)\n        /* \"#utility.yul\":565:579   */\n      swap1\n      iszero\n        /* \"#utility.yul\":558:580   */\n      iszero\n        /* \"#utility.yul\":540:581   */\n      dup2\n      mstore\n        /* \"#utility.yul\":528:530   */\n      0x20\n        /* \"#utility.yul\":513:531   */\n      add\n        /* \"@openzeppelin/contracts/token/ERC721/ERC721.sol\":1570:1870   */\n    tag_37:\n      mload(0x40)\n      dup1\n      swap2\n      sub\n      swap1\n      return\n        /* \"@openzeppelin/contracts/token/ERC721/ERC721.sol\":2471:2569   */\n    tag_4:\n      tag_39\n      tag_40\n      jump\t// in\n    tag_39:\n      mload(0x40)\n      tag_37\n      swap2\n      swap1\n      tag_42\n      jump\t// in\n        /* \"@openzeppelin/contracts/token/ERC721/ERC721.sol\":3935:4102   */\n    tag_5:\n      tag_43\n      tag_44\n      calldatasize\n      0x04\n      tag_45\n      jump\t// in\n    tag_44:\n      tag_46\n      jump\t// in\n    tag_43:\n      mload(0x40)\n      sub(shl(0xa0, 0x01), 0x01)\n        /* \"#utility.yul\":1482:1537   */\n      swap1\n      swap2\n      and\n        /* \"#utility.yul\":1464:1538   */\n      dup2\n      mstore\n        /* \"#utility.yul\":1452:1454   */\n      0x20\n        /* \"#utility.yul\":1437:1455   */\n      add\n        /* \"@openzeppelin/contracts/token/ERC721/ERC721.sol\":3935:4102   */\n      tag_37\n        /* \"#utility.yul\":1318:1544   */\n      jump\n        /* \"@openzeppelin/contracts/token/ERC721/ERC721.sol\":3468:3874   */\n    tag_6:\n      tag_49\n      tag_50\n      calldatasize\n      0x04\n      tag_51\n      jump\t// in\n    tag_50:\n      tag_52\n      jump\t// in\n    tag_49:\n      stop\n        /* \"ProducerProtocolOptimism.sol\":2690:3149  function bridgeMint(uint256 tokenId, address recipient) external nonReentrant {... */\n    tag_7:\n      tag_49\n      tag_54\n      calldatasize\n      0x04\n      tag_55\n      jump\t// in\n    tag_54:\n      tag_56\n      jump\t// in\n        /* \"@openzeppelin/contracts/token/ERC721/ERC721.sol\":4612:4908   */\n    tag_8:\n      tag_49\n      tag_58\n      calldatasize\n      0x04\n      tag_59\n      jump\t// in\n    tag_58:\n      tag_60\n      jump\t// in\n        /* \"@openzeppelin/contracts/token/ERC721/ERC721.sol\":4974:5123   */\n    tag_9:\n      tag_49\n      tag_62\n      calldatasize\n      0x04\n      tag_59\n      jump\t// in\n    tag_62:\n      tag_63\n      jump\t// in\n        /* \"@openzeppelin/contracts/token/ERC721/ERC721.sol\":2190:2409   */\n    tag_10:\n      tag_43\n      tag_65\n      calldatasize\n      0x04\n      tag_45\n      jump\t// in\n    tag_65:\n      tag_66\n      jump\t// in\n        /* \"ProducerProtocolOptimism.sol\":1717:1742  address public l1Contract */\n    tag_11:\n      sload(0x09)\n      tag_43\n      swap1\n      sub(shl(0xa0, 0x01), 0x01)\n      and\n      dup2\n      jump\n        /* \"ProducerProtocolOptimism.sol\":3472:3997  function bridgeOut(uint256 tokenId, address l1Recipient) external nonReentrant {... */\n    tag_12:\n      tag_49\n      tag_72\n      calldatasize\n      0x04\n      tag_55\n      jump\t// in\n    tag_72:\n      tag_73\n      jump\t// in\n        /* \"@openzeppelin/contracts/token/ERC721/ERC721.sol\":1929:2133   */\n    tag_13:\n      tag_74\n      tag_75\n      calldatasize\n      0x04\n      tag_76\n      jump\t// in\n    tag_75:\n      tag_77\n      jump\t// in\n    tag_74:\n      mload(0x40)\n        /* \"#utility.yul\":3207:3232   */\n      swap1\n      dup2\n      mstore\n        /* \"#utility.yul\":3195:3197   */\n      0x20\n        /* \"#utility.yul\":3180:3198   */\n      add\n        /* \"@openzeppelin/contracts/token/ERC721/ERC721.sol\":1929:2133   */\n      tag_37\n        /* \"#utility.yul\":3061:3238   */\n      jump\n        /* \"@openzeppelin/contracts/access/Ownable.sol\":1824:1925   */\n    tag_14:\n      tag_49\n      tag_81\n      jump\t// in\n        /* \"ProducerProtocolOptimism.sol\":1788:1814  uint256 public nextTokenId */\n    tag_15:\n      tag_74\n      sload(0x0a)\n      dup2\n      jump\n        /* \"@openzeppelin/contracts/access/Ownable.sol\":1201:1286   */\n    tag_16:\n        /* \"@openzeppelin/contracts/access/Ownable.sol\":1273:1279   */\n      and(sub(shl(0xa0, 0x01), 0x01), sload(0x06))\n        /* \"@openzeppelin/contracts/access/Ownable.sol\":1201:1286   */\n      jump(tag_43)\n        /* \"@openzeppelin/contracts/token/ERC721/ERC721.sol\":2633:2735   */\n    tag_17:\n      tag_39\n      tag_89\n      jump\t// in\n        /* \"ProducerProtocolOptimism.sol\":4150:4328  function adminMint(address recipient) external onlyOwner nonReentrant {... */\n    tag_18:\n      tag_49\n      tag_92\n      calldatasize\n      0x04\n      tag_76\n      jump\t// in\n    tag_92:\n      tag_93\n      jump\t// in\n        /* \"@openzeppelin/contracts/token/ERC721/ERC721.sol\":4169:4322   */\n    tag_19:\n      tag_49\n      tag_95\n      calldatasize\n      0x04\n      tag_96\n      jump\t// in\n    tag_95:\n      tag_97\n      jump\t// in\n        /* \"@openzeppelin/contracts/token/ERC721/ERC721.sol\":5189:5465   */\n    tag_20:\n      tag_49\n      tag_99\n      calldatasize\n      0x04\n      tag_100\n      jump\t// in\n    tag_99:\n      tag_101\n      jump\t// in\n        /* \"ProducerProtocolOptimism.sol\":1865:1910  uint32 public constant L1_GAS_LIMIT = 1000000 */\n    tag_21:\n      tag_102\n        /* \"ProducerProtocolOptimism.sol\":1903:1910  1000000 */\n      0x0f4240\n        /* \"ProducerProtocolOptimism.sol\":1865:1910  uint32 public constant L1_GAS_LIMIT = 1000000 */\n      dup2\n      jump\n    tag_102:\n      mload(0x40)\n        /* \"#utility.yul\":5241:5251   */\n      0xffffffff\n        /* \"#utility.yul\":5229:5252   */\n      swap1\n      swap2\n      and\n        /* \"#utility.yul\":5211:5253   */\n      dup2\n      mstore\n        /* \"#utility.yul\":5199:5201   */\n      0x20\n        /* \"#utility.yul\":5184:5202   */\n      add\n        /* \"ProducerProtocolOptimism.sol\":1865:1910  uint32 public constant L1_GAS_LIMIT = 1000000 */\n      tag_37\n        /* \"#utility.yul\":5067:5259   */\n      jump\n        /* \"@openzeppelin/contracts/token/ERC721/ERC721.sol\":2801:3077   */\n    tag_22:\n      tag_39\n      tag_107\n      calldatasize\n      0x04\n      tag_45\n      jump\t// in\n    tag_107:\n      tag_108\n      jump\t// in\n        /* \"@openzeppelin/contracts/token/ERC721/ERC721.sol\":4388:4550   */\n    tag_23:\n      tag_33\n      tag_111\n      calldatasize\n      0x04\n      tag_112\n      jump\t// in\n    tag_111:\n      sub(shl(0xa0, 0x01), 0x01)\n        /* \"@openzeppelin/contracts/token/ERC721/ERC721.sol\":4508:4533   */\n      swap2\n      dup3\n      and\n        /* \"@openzeppelin/contracts/token/ERC721/ERC721.sol\":4485:4489   */\n      0x00\n        /* \"@openzeppelin/contracts/token/ERC721/ERC721.sol\":4508:4533   */\n      swap1\n      dup2\n      mstore\n        /* \"@openzeppelin/contracts/token/ERC721/ERC721.sol\":4508:4526   */\n      0x05\n        /* \"@openzeppelin/contracts/token/ERC721/ERC721.sol\":4508:4533   */\n      0x20\n      swap1\n      dup2\n      mstore\n      0x40\n      dup1\n      dup4\n      keccak256\n        /* \"@openzeppelin/contracts/token/ERC721/ERC721.sol\":4508:4543   */\n      swap4\n      swap1\n      swap5\n      and\n      dup3\n      mstore\n      swap2\n      swap1\n      swap2\n      mstore\n      keccak256\n      sload\n      0xff\n      and\n      swap1\n        /* \"@openzeppelin/contracts/token/ERC721/ERC721.sol\":4388:4550   */\n      jump\n        /* \"@openzeppelin/contracts/access/Ownable.sol\":2074:2272   */\n    tag_24:\n      tag_49\n      tag_116\n      calldatasize\n      0x04\n      tag_76\n      jump\t// in\n    tag_116:\n      tag_117\n      jump\t// in\n        /* \"ProducerProtocolOptimism.sol\":1614:1649  address public crossDomainMessenger */\n    tag_25:\n      sload(0x08)\n      tag_43\n      swap1\n      sub(shl(0xa0, 0x01), 0x01)\n      and\n      dup2\n      jump\n        /* \"@openzeppelin/contracts/token/ERC721/ERC721.sol\":1570:1870   */\n    tag_36:\n        /* \"@openzeppelin/contracts/token/ERC721/ERC721.sol\":1672:1676   */\n      0x00\n      not(sub(shl(0xe0, 0x01), 0x01))\n        /* \"@openzeppelin/contracts/token/ERC721/ERC721.sol\":1707:1747   */\n      dup3\n      and\n      shl(0xe0, 0x80ac58cd)\n      eq\n      dup1\n        /* \"@openzeppelin/contracts/token/ERC721/ERC721.sol\":1707:1811   */\n      tag_122\n      jumpi\n      pop\n      not(sub(shl(0xe0, 0x01), 0x01))\n        /* \"@openzeppelin/contracts/token/ERC721/ERC721.sol\":1763:1811   */\n      dup3\n      and\n      shl(0xe0, 0x5b5e139f)\n      eq\n        /* \"@openzeppelin/contracts/token/ERC721/ERC721.sol\":1707:1811   */\n    tag_122:\n        /* \"@openzeppelin/contracts/token/ERC721/ERC721.sol\":1707:1863   */\n      dup1\n      tag_124\n      jumpi\n      pop\n      shl(0xe0, 0x01ffc9a7)\n      not(sub(shl(0xe0, 0x01), 0x01))\n        /* \"@openzeppelin/contracts/utils/introspection/ERC165.sol\":937:977   */\n      dup4\n      and\n      eq\n        /* \"@openzeppelin/contracts/token/ERC721/ERC721.sol\":1827:1863   */\n    tag_124:\n        /* \"@openzeppelin/contracts/token/ERC721/ERC721.sol\":1688:1863   */\n      swap3\n        /* \"@openzeppelin/contracts/token/ERC721/ERC721.sol\":1570:1870   */\n      swap2\n      pop\n      pop\n      jump\t// out\n        /* \"@openzeppelin/contracts/token/ERC721/ERC721.sol\":2471:2569   */\n    tag_40:\n        /* \"@openzeppelin/contracts/token/ERC721/ERC721.sol\":2525:2538   */\n      0x60\n        /* \"@openzeppelin/contracts/token/ERC721/ERC721.sol\":2557:2562   */\n      0x00\n        /* \"@openzeppelin/contracts/token/ERC721/ERC721.sol\":2550:2562   */\n      dup1\n      sload\n      tag_127\n      swap1\n      tag_128\n      jump\t// in\n    tag_127:\n      dup1\n      0x1f\n      add\n      0x20\n      dup1\n      swap2\n      div\n      mul\n      0x20\n      add\n      mload(0x40)\n      swap1\n      dup2\n      add\n      0x40\n      mstore\n      dup1\n      swap3\n      swap2\n      swap1\n      dup2\n      dup2\n      mstore\n      0x20\n      add\n      dup3\n      dup1\n      sload\n      tag_129\n      swap1\n      tag_128\n      jump\t// in\n    tag_129:\n      dup1\n      iszero\n      tag_130\n      jumpi\n      dup1\n      0x1f\n      lt\n      tag_131\n      jumpi\n      0x0100\n      dup1\n      dup4\n      sload\n      div\n      mul\n      dup4\n      mstore\n      swap2\n      0x20\n      add\n      swap2\n      jump(tag_130)\n    tag_131:\n      dup3\n      add\n      swap2\n      swap1\n      0x00\n      mstore\n      keccak256(0x00, 0x20)\n      swap1\n    tag_132:\n      dup2\n      sload\n      dup2\n      mstore\n      swap1\n      0x01\n      add\n      swap1\n      0x20\n      add\n      dup1\n      dup4\n      gt\n      tag_132\n      jumpi\n      dup3\n      swap1\n      sub\n      0x1f\n      and\n      dup3\n      add\n      swap2\n    tag_130:\n      pop\n      pop\n      pop\n      pop\n      pop\n      swap1\n      pop\n        /* \"@openzeppelin/contracts/token/ERC721/ERC721.sol\":2471:2569   */\n      swap1\n      jump\t// out\n        /* \"@openzeppelin/contracts/token/ERC721/ERC721.sol\":3935:4102   */\n    tag_46:\n        /* \"@openzeppelin/contracts/token/ERC721/ERC721.sol\":4011:4018   */\n      0x00\n        /* \"@openzeppelin/contracts/token/ERC721/ERC721.sol\":4030:4053   */\n      tag_134\n        /* \"@openzeppelin/contracts/token/ERC721/ERC721.sol\":4045:4052   */\n      dup3\n        /* \"@openzeppelin/contracts/token/ERC721/ERC721.sol\":4030:4044   */\n      tag_135\n        /* \"@openzeppelin/contracts/token/ERC721/ERC721.sol\":4030:4053   */\n      jump\t// in\n    tag_134:\n      pop\n        /* \"@openzeppelin/contracts/token/ERC721/ERC721.sol\":4071:4095   */\n      0x00\n      swap1\n      dup2\n      mstore\n        /* \"@openzeppelin/contracts/token/ERC721/ERC721.sol\":4071:4086   */\n      0x04\n        /* \"@openzeppelin/contracts/token/ERC721/ERC721.sol\":4071:4095   */\n      0x20\n      mstore\n      0x40\n      swap1\n      keccak256\n      sload\n      sub(shl(0xa0, 0x01), 0x01)\n      and\n      swap1\n        /* \"@openzeppelin/contracts/token/ERC721/ERC721.sol\":3935:4102   */\n      jump\t// out\n        /* \"@openzeppelin/contracts/token/ERC721/ERC721.sol\":3468:3874   */\n    tag_52:\n        /* \"@openzeppelin/contracts/token/ERC721/ERC721.sol\":3548:3561   */\n      0x00\n        /* \"@openzeppelin/contracts/token/ERC721/ERC721.sol\":3564:3587   */\n      tag_137\n        /* \"@openzeppelin/contracts/token/ERC721/ERC721.sol\":3579:3586   */\n      dup3\n        /* \"@openzeppelin/contracts/token/ERC721/ERC721.sol\":3564:3578   */\n      tag_66\n        /* \"@openzeppelin/contracts/token/ERC721/ERC721.sol\":3564:3587   */\n      jump\t// in\n    tag_137:\n        /* \"@openzeppelin/contracts/token/ERC721/ERC721.sol\":3548:3587   */\n      swap1\n      pop\n        /* \"@openzeppelin/contracts/token/ERC721/ERC721.sol\":3611:3616   */\n      dup1\n      sub(shl(0xa0, 0x01), 0x01)\n        /* \"@openzeppelin/contracts/token/ERC721/ERC721.sol\":3605:3616   */\n      and\n        /* \"@openzeppelin/contracts/token/ERC721/ERC721.sol\":3605:3607   */\n      dup4\n      sub(shl(0xa0, 0x01), 0x01)\n        /* \"@openzeppelin/contracts/token/ERC721/ERC721.sol\":3605:3616   */\n      and\n      sub\n        /* \"@openzeppelin/contracts/token/ERC721/ERC721.sol\":3597:3654   */\n      tag_138\n      jumpi\n      mload(0x40)\n      shl(0xe5, 0x461bcd)\n      dup2\n      mstore\n        /* \"#utility.yul\":6244:6246   */\n      0x20\n        /* \"@openzeppelin/contracts/token/ERC721/ERC721.sol\":3597:3654   */\n      0x04\n      dup3\n      add\n        /* \"#utility.yul\":6226:6247   */\n      mstore\n        /* \"#utility.yul\":6283:6285   */\n      0x21\n        /* \"#utility.yul\":6263:6281   */\n      0x24\n      dup3\n      add\n        /* \"#utility.yul\":6256:6286   */\n      mstore\n        /* \"#utility.yul\":6322:6356   */\n      0x4552433732313a20617070726f76616c20746f2063757272656e74206f776e65\n        /* \"#utility.yul\":6302:6320   */\n      0x44\n      dup3\n      add\n        /* \"#utility.yul\":6295:6357   */\n      mstore\n      shl(0xf9, 0x39)\n        /* \"#utility.yul\":6373:6391   */\n      0x64\n      dup3\n      add\n        /* \"#utility.yul\":6366:6397   */\n      mstore\n        /* \"#utility.yul\":6414:6433   */\n      0x84\n      add\n        /* \"@openzeppelin/contracts/token/ERC721/ERC721.sol\":3597:3654   */\n    tag_139:\n      mload(0x40)\n      dup1\n      swap2\n      sub\n      swap1\n      revert\n    tag_138:\n        /* \"@openzeppelin/contracts/utils/Context.sol\":734:744   */\n      caller\n      sub(shl(0xa0, 0x01), 0x01)\n        /* \"@openzeppelin/contracts/token/ERC721/ERC721.sol\":3686:3707   */\n      dup3\n      and\n      eq\n      dup1\n        /* \"@openzeppelin/contracts/token/ERC721/ERC721.sol\":3686:3748   */\n      tag_144\n      jumpi\n      pop\n        /* \"@openzeppelin/contracts/token/ERC721/ERC721.sol\":3711:3748   */\n      tag_144\n        /* \"@openzeppelin/contracts/token/ERC721/ERC721.sol\":3728:3733   */\n      dup2\n        /* \"@openzeppelin/contracts/utils/Context.sol\":734:744   */\n      caller\n        /* \"@openzeppelin/contracts/token/ERC721/ERC721.sol\":4388:4550   */\n      tag_111\n      jump\t// in\n        /* \"@openzeppelin/contracts/token/ERC721/ERC721.sol\":3711:3748   */\n    tag_144:\n        /* \"@openzeppelin/contracts/token/ERC721/ERC721.sol\":3665:3835   */\n      tag_146\n      jumpi\n      mload(0x40)\n      shl(0xe5, 0x461bcd)\n      dup2\n      mstore\n        /* \"#utility.yul\":6646:6648   */\n      0x20\n        /* \"@openzeppelin/contracts/token/ERC721/ERC721.sol\":3665:3835   */\n      0x04\n      dup3\n      add\n        /* \"#utility.yul\":6628:6649   */\n      mstore\n        /* \"#utility.yul\":6685:6687   */\n      0x3d\n        /* \"#utility.yul\":6665:6683   */\n      0x24\n      dup3\n      add\n        /* \"#utility.yul\":6658:6688   */\n      mstore\n        /* \"#utility.yul\":6724:6758   */\n      0x4552433732313a20617070726f76652063616c6c6572206973206e6f7420746f\n        /* \"#utility.yul\":6704:6722   */\n      0x44\n      dup3\n      add\n        /* \"#utility.yul\":6697:6759   */\n      mstore\n        /* \"#utility.yul\":6795:6826   */\n      0x6b656e206f776e6572206f7220617070726f76656420666f7220616c6c000000\n        /* \"#utility.yul\":6775:6793   */\n      0x64\n      dup3\n      add\n        /* \"#utility.yul\":6768:6827   */\n      mstore\n        /* \"#utility.yul\":6844:6863   */\n      0x84\n      add\n        /* \"@openzeppelin/contracts/token/ERC721/ERC721.sol\":3665:3835   */\n      tag_139\n        /* \"#utility.yul\":6444:6869   */\n      jump\n        /* \"@openzeppelin/contracts/token/ERC721/ERC721.sol\":3665:3835   */\n    tag_146:\n        /* \"@openzeppelin/contracts/token/ERC721/ERC721.sol\":3846:3867   */\n      tag_149\n        /* \"@openzeppelin/contracts/token/ERC721/ERC721.sol\":3855:3857   */\n      dup4\n        /* \"@openzeppelin/contracts/token/ERC721/ERC721.sol\":3859:3866   */\n      dup4\n        /* \"@openzeppelin/contracts/token/ERC721/ERC721.sol\":3846:3854   */\n      tag_150\n        /* \"@openzeppelin/contracts/token/ERC721/ERC721.sol\":3846:3867   */\n      jump\t// in\n    tag_149:\n        /* \"@openzeppelin/contracts/token/ERC721/ERC721.sol\":3538:3874   */\n      pop\n        /* \"@openzeppelin/contracts/token/ERC721/ERC721.sol\":3468:3874   */\n      pop\n      pop\n      jump\t// out\n        /* \"ProducerProtocolOptimism.sol\":2690:3149  function bridgeMint(uint256 tokenId, address recipient) external nonReentrant {... */\n    tag_56:\n        /* \"ProducerProtocolOptimism.sol\":538:539  2 */\n      0x02\n        /* \"ProducerProtocolOptimism.sol\":676:683  _status */\n      sload(0x07)\n        /* \"ProducerProtocolOptimism.sol\":676:695  _status != _ENTERED */\n      sub\n        /* \"ProducerProtocolOptimism.sol\":668:731  require(_status != _ENTERED, \"ReentrancyGuard: reentrant call\") */\n      tag_152\n      jumpi\n      mload(0x40)\n      shl(0xe5, 0x461bcd)\n      dup2\n      mstore\n        /* \"#utility.yul\":7076:7078   */\n      0x20\n        /* \"ProducerProtocolOptimism.sol\":668:731  require(_status != _ENTERED, \"ReentrancyGuard: reentrant call\") */\n      0x04\n      dup3\n      add\n        /* \"#utility.yul\":7058:7079   */\n      mstore\n        /* \"#utility.yul\":7115:7117   */\n      0x1f\n        /* \"#utility.yul\":7095:7113   */\n      0x24\n      dup3\n      add\n        /* \"#utility.yul\":7088:7118   */\n      mstore\n        /* \"#utility.yul\":7154:7187   */\n      0x5265656e7472616e637947756172643a207265656e7472616e742063616c6c00\n        /* \"#utility.yul\":7134:7152   */\n      0x44\n      dup3\n      add\n        /* \"#utility.yul\":7127:7188   */\n      mstore\n        /* \"#utility.yul\":7205:7223   */\n      0x64\n      add\n        /* \"ProducerProtocolOptimism.sol\":668:731  require(_status != _ENTERED, \"ReentrancyGuard: reentrant call\") */\n      tag_139\n        /* \"#utility.yul\":6874:7229   */\n      jump\n        /* \"ProducerProtocolOptimism.sol\":668:731  require(_status != _ENTERED, \"ReentrancyGuard: reentrant call\") */\n    tag_152:\n        /* \"ProducerProtocolOptimism.sol\":538:539  2 */\n      0x02\n        /* \"ProducerProtocolOptimism.sol\":741:748  _status */\n      0x07\n        /* \"ProducerProtocolOptimism.sol\":741:759  _status = _ENTERED */\n      sstore\n        /* \"ProducerProtocolOptimism.sol\":2800:2820  crossDomainMessenger */\n      and(sub(shl(0xa0, 0x01), 0x01), sload(0x08))\n        /* \"ProducerProtocolOptimism.sol\":2786:2796  msg.sender */\n      caller\n        /* \"ProducerProtocolOptimism.sol\":2786:2820  msg.sender == crossDomainMessenger */\n      eq\n        /* \"ProducerProtocolOptimism.sol\":2778:2847  require(msg.sender == crossDomainMessenger, \"Unauthorized messenger\") */\n      tag_156\n      jumpi\n      mload(0x40)\n      shl(0xe5, 0x461bcd)\n      dup2\n      mstore\n        /* \"#utility.yul\":7436:7438   */\n      0x20\n        /* \"ProducerProtocolOptimism.sol\":2778:2847  require(msg.sender == crossDomainMessenger, \"Unauthorized messenger\") */\n      0x04\n      dup3\n      add\n        /* \"#utility.yul\":7418:7439   */\n      mstore\n        /* \"#utility.yul\":7475:7477   */\n      0x16\n        /* \"#utility.yul\":7455:7473   */\n      0x24\n      dup3\n      add\n        /* \"#utility.yul\":7448:7478   */\n      mstore\n        /* \"#utility.yul\":7514:7538   */\n      0x556e617574686f72697a6564206d657373656e67657200000000000000000000\n        /* \"#utility.yul\":7494:7512   */\n      0x44\n      dup3\n      add\n        /* \"#utility.yul\":7487:7539   */\n      mstore\n        /* \"#utility.yul\":7556:7574   */\n      0x64\n      add\n        /* \"ProducerProtocolOptimism.sol\":2778:2847  require(msg.sender == crossDomainMessenger, \"Unauthorized messenger\") */\n      tag_139\n        /* \"#utility.yul\":7234:7580   */\n      jump\n        /* \"ProducerProtocolOptimism.sol\":2778:2847  require(msg.sender == crossDomainMessenger, \"Unauthorized messenger\") */\n    tag_156:\n        /* \"ProducerProtocolOptimism.sol\":2941:2951  l1Contract */\n      sload(0x09)\n        /* \"ProducerProtocolOptimism.sol\":2900:2920  crossDomainMessenger */\n      sload(0x08)\n        /* \"ProducerProtocolOptimism.sol\":2878:2937  ICrossDomainMessenger(crossDomainMessenger).xDomainSender() */\n      0x40\n      dup1\n      mload\n      shl(0xe1, 0x33a6fb89)\n      dup2\n      mstore\n      swap1\n      mload\n      sub(shl(0xa0, 0x01), 0x01)\n        /* \"ProducerProtocolOptimism.sol\":2941:2951  l1Contract */\n      swap4\n      dup5\n      and\n      swap4\n        /* \"ProducerProtocolOptimism.sol\":2900:2920  crossDomainMessenger */\n      swap1\n      swap3\n      and\n      swap2\n        /* \"ProducerProtocolOptimism.sol\":2878:2935  ICrossDomainMessenger(crossDomainMessenger).xDomainSender */\n      0x674df712\n      swap2\n        /* \"ProducerProtocolOptimism.sol\":2878:2937  ICrossDomainMessenger(crossDomainMessenger).xDomainSender() */\n      0x04\n      dup1\n      dup3\n      add\n      swap3\n      0x20\n      swap3\n      swap1\n      swap2\n      swap1\n      dup3\n      swap1\n      sub\n      add\n      dup2\n        /* \"ProducerProtocolOptimism.sol\":2900:2920  crossDomainMessenger */\n      dup7\n        /* \"ProducerProtocolOptimism.sol\":2878:2937  ICrossDomainMessenger(crossDomainMessenger).xDomainSender() */\n      gas\n      staticcall\n      iszero\n      dup1\n      iszero\n      tag_160\n      jumpi\n      returndatasize\n      0x00\n      dup1\n      returndatacopy\n      revert(0x00, returndatasize)\n    tag_160:\n      pop\n      pop\n      pop\n      pop\n      mload(0x40)\n      returndatasize\n      not(0x1f)\n      0x1f\n      dup3\n      add\n      and\n      dup3\n      add\n      dup1\n      0x40\n      mstore\n      pop\n      dup2\n      add\n      swap1\n      tag_161\n      swap2\n      swap1\n      tag_162\n      jump\t// in\n    tag_161:\n      sub(shl(0xa0, 0x01), 0x01)\n        /* \"ProducerProtocolOptimism.sol\":2878:2951  ICrossDomainMessenger(crossDomainMessenger).xDomainSender() == l1Contract */\n      and\n      eq\n        /* \"ProducerProtocolOptimism.sol\":2857:2994  require(... */\n      tag_163\n      jumpi\n      mload(0x40)\n      shl(0xe5, 0x461bcd)\n      dup2\n      mstore\n        /* \"#utility.yul\":8043:8045   */\n      0x20\n        /* \"ProducerProtocolOptimism.sol\":2857:2994  require(... */\n      0x04\n      dup3\n      add\n        /* \"#utility.yul\":8025:8046   */\n      mstore\n        /* \"#utility.yul\":8082:8084   */\n      0x11\n        /* \"#utility.yul\":8062:8080   */\n      0x24\n      dup3\n      add\n        /* \"#utility.yul\":8055:8085   */\n      mstore\n        /* \"#utility.yul\":8121:8140   */\n      0x496e76616c6964204c312073656e646572000000000000000000000000000000\n        /* \"#utility.yul\":8101:8119   */\n      0x44\n      dup3\n      add\n        /* \"#utility.yul\":8094:8141   */\n      mstore\n        /* \"#utility.yul\":8158:8176   */\n      0x64\n      add\n        /* \"ProducerProtocolOptimism.sol\":2857:2994  require(... */\n      tag_139\n        /* \"#utility.yul\":7841:8182   */\n      jump\n        /* \"ProducerProtocolOptimism.sol\":2857:2994  require(... */\n    tag_163:\n        /* \"@openzeppelin/contracts/token/ERC721/ERC721.sol\":7185:7189   */\n      0x00\n        /* \"@openzeppelin/contracts/token/ERC721/ERC721.sol\":6794:6810   */\n      dup3\n      dup2\n      mstore\n        /* \"@openzeppelin/contracts/token/ERC721/ERC721.sol\":6794:6801   */\n      0x02\n        /* \"@openzeppelin/contracts/token/ERC721/ERC721.sol\":6794:6810   */\n      0x20\n      mstore\n      0x40\n      swap1\n      keccak256\n      sload\n      sub(shl(0xa0, 0x01), 0x01)\n      and\n        /* \"@openzeppelin/contracts/token/ERC721/ERC721.sol\":7208:7239   */\n      iszero\n        /* \"ProducerProtocolOptimism.sol\":3004:3054  require(!_exists(tokenId), \"Token already exists\") */\n      tag_168\n      jumpi\n      mload(0x40)\n      shl(0xe5, 0x461bcd)\n      dup2\n      mstore\n        /* \"#utility.yul\":8389:8391   */\n      0x20\n        /* \"ProducerProtocolOptimism.sol\":3004:3054  require(!_exists(tokenId), \"Token already exists\") */\n      0x04\n      dup3\n      add\n        /* \"#utility.yul\":8371:8392   */\n      mstore\n        /* \"#utility.yul\":8428:8430   */\n      0x14\n        /* \"#utility.yul\":8408:8426   */\n      0x24\n      dup3\n      add\n        /* \"#utility.yul\":8401:8431   */\n      mstore\n        /* \"#utility.yul\":8467:8489   */\n      0x546f6b656e20616c726561647920657869737473000000000000000000000000\n        /* \"#utility.yul\":8447:8465   */\n      0x44\n      dup3\n      add\n        /* \"#utility.yul\":8440:8490   */\n      mstore\n        /* \"#utility.yul\":8507:8525   */\n      0x64\n      add\n        /* \"ProducerProtocolOptimism.sol\":3004:3054  require(!_exists(tokenId), \"Token already exists\") */\n      tag_139\n        /* \"#utility.yul\":8187:8531   */\n      jump\n        /* \"ProducerProtocolOptimism.sol\":3004:3054  require(!_exists(tokenId), \"Token already exists\") */\n    tag_168:\n        /* \"ProducerProtocolOptimism.sol\":3064:3093  _safeMint(recipient, tokenId) */\n      tag_171\n        /* \"ProducerProtocolOptimism.sol\":3074:3083  recipient */\n      dup2\n        /* \"ProducerProtocolOptimism.sol\":3085:3092  tokenId */\n      dup4\n        /* \"ProducerProtocolOptimism.sol\":3064:3073  _safeMint */\n      tag_172\n        /* \"ProducerProtocolOptimism.sol\":3064:3093  _safeMint(recipient, tokenId) */\n      jump\t// in\n    tag_171:\n        /* \"ProducerProtocolOptimism.sol\":3108:3142  TokenBridgedIn(tokenId, recipient) */\n      mload(0x40)\n      sub(shl(0xa0, 0x01), 0x01)\n      dup3\n      and\n      swap1\n        /* \"ProducerProtocolOptimism.sol\":3123:3130  tokenId */\n      dup4\n      swap1\n        /* \"ProducerProtocolOptimism.sol\":3108:3142  TokenBridgedIn(tokenId, recipient) */\n      0xe7800c6d4262c7daa24e0ef4ec42df968eaeb6cdebd0e70a05ab4852742788d6\n      swap1\n      0x00\n      swap1\n      log3\n      pop\n      pop\n        /* \"ProducerProtocolOptimism.sol\":495:496  1 */\n      0x01\n        /* \"ProducerProtocolOptimism.sol\":780:787  _status */\n      0x07\n        /* \"ProducerProtocolOptimism.sol\":780:802  _status = _NOT_ENTERED */\n      sstore\n        /* \"ProducerProtocolOptimism.sol\":2690:3149  function bridgeMint(uint256 tokenId, address recipient) external nonReentrant {... */\n      jump\t// out\n        /* \"@openzeppelin/contracts/token/ERC721/ERC721.sol\":4612:4908   */\n    tag_60:\n        /* \"@openzeppelin/contracts/token/ERC721/ERC721.sol\":4771:4812   */\n      tag_174\n        /* \"@openzeppelin/contracts/utils/Context.sol\":734:744   */\n      caller\n        /* \"@openzeppelin/contracts/token/ERC721/ERC721.sol\":4804:4811   */\n      dup3\n        /* \"@openzeppelin/contracts/token/ERC721/ERC721.sol\":4771:4789   */\n      tag_176\n        /* \"@openzeppelin/contracts/token/ERC721/ERC721.sol\":4771:4812   */\n      jump\t// in\n    tag_174:\n        /* \"@openzeppelin/contracts/token/ERC721/ERC721.sol\":4763:4862   */\n      tag_177\n      jumpi\n      mload(0x40)\n      shl(0xe5, 0x461bcd)\n      dup2\n      mstore\n        /* \"#utility.yul\":8738:8740   */\n      0x20\n        /* \"@openzeppelin/contracts/token/ERC721/ERC721.sol\":4763:4862   */\n      0x04\n      dup3\n      add\n        /* \"#utility.yul\":8720:8741   */\n      mstore\n        /* \"#utility.yul\":8777:8779   */\n      0x2d\n        /* \"#utility.yul\":8757:8775   */\n      0x24\n      dup3\n      add\n        /* \"#utility.yul\":8750:8780   */\n      mstore\n        /* \"#utility.yul\":8816:8850   */\n      0x4552433732313a2063616c6c6572206973206e6f7420746f6b656e206f776e65\n        /* \"#utility.yul\":8796:8814   */\n      0x44\n      dup3\n      add\n        /* \"#utility.yul\":8789:8851   */\n      mstore\n      shl(0x9a, 0x1c881bdc88185c1c1c9bdd9959)\n        /* \"#utility.yul\":8867:8885   */\n      0x64\n      dup3\n      add\n        /* \"#utility.yul\":8860:8903   */\n      mstore\n        /* \"#utility.yul\":8920:8939   */\n      0x84\n      add\n        /* \"@openzeppelin/contracts/token/ERC721/ERC721.sol\":4763:4862   */\n      tag_139\n        /* \"#utility.yul\":8536:8945   */\n      jump\n        /* \"@openzeppelin/contracts/token/ERC721/ERC721.sol\":4763:4862   */\n    tag_177:\n        /* \"@openzeppelin/contracts/token/ERC721/ERC721.sol\":4873:4901   */\n      tag_149\n        /* \"@openzeppelin/contracts/token/ERC721/ERC721.sol\":4883:4887   */\n      dup4\n        /* \"@openzeppelin/contracts/token/ERC721/ERC721.sol\":4889:4891   */\n      dup4\n        /* \"@openzeppelin/contracts/token/ERC721/ERC721.sol\":4893:4900   */\n      dup4\n        /* \"@openzeppelin/contracts/token/ERC721/ERC721.sol\":4873:4882   */\n      tag_181\n        /* \"@openzeppelin/contracts/token/ERC721/ERC721.sol\":4873:4901   */\n      jump\t// in\n        /* \"@openzeppelin/contracts/token/ERC721/ERC721.sol\":4974:5123   */\n    tag_63:\n        /* \"@openzeppelin/contracts/token/ERC721/ERC721.sol\":5077:5116   */\n      tag_149\n        /* \"@openzeppelin/contracts/token/ERC721/ERC721.sol\":5094:5098   */\n      dup4\n        /* \"@openzeppelin/contracts/token/ERC721/ERC721.sol\":5100:5102   */\n      dup4\n        /* \"@openzeppelin/contracts/token/ERC721/ERC721.sol\":5104:5111   */\n      dup4\n        /* \"@openzeppelin/contracts/token/ERC721/ERC721.sol\":5077:5116   */\n      mload(0x40)\n      dup1\n      0x20\n      add\n      0x40\n      mstore\n      dup1\n      0x00\n      dup2\n      mstore\n      pop\n        /* \"@openzeppelin/contracts/token/ERC721/ERC721.sol\":5077:5093   */\n      tag_101\n        /* \"@openzeppelin/contracts/token/ERC721/ERC721.sol\":5077:5116   */\n      jump\t// in\n        /* \"@openzeppelin/contracts/token/ERC721/ERC721.sol\":2190:2409   */\n    tag_66:\n        /* \"@openzeppelin/contracts/token/ERC721/ERC721.sol\":2262:2269   */\n      0x00\n        /* \"@openzeppelin/contracts/token/ERC721/ERC721.sol\":6794:6810   */\n      dup2\n      dup2\n      mstore\n        /* \"@openzeppelin/contracts/token/ERC721/ERC721.sol\":6794:6801   */\n      0x02\n        /* \"@openzeppelin/contracts/token/ERC721/ERC721.sol\":6794:6810   */\n      0x20\n      mstore\n      0x40\n      dup2\n      keccak256\n      sload\n      sub(shl(0xa0, 0x01), 0x01)\n      and\n      dup1\n        /* \"@openzeppelin/contracts/token/ERC721/ERC721.sol\":2324:2380   */\n      tag_124\n      jumpi\n      mload(0x40)\n      shl(0xe5, 0x461bcd)\n      dup2\n      mstore\n        /* \"#utility.yul\":9152:9154   */\n      0x20\n        /* \"@openzeppelin/contracts/token/ERC721/ERC721.sol\":2324:2380   */\n      0x04\n      dup3\n      add\n        /* \"#utility.yul\":9134:9155   */\n      mstore\n        /* \"#utility.yul\":9191:9193   */\n      0x18\n        /* \"#utility.yul\":9171:9189   */\n      0x24\n      dup3\n      add\n        /* \"#utility.yul\":9164:9194   */\n      mstore\n        /* \"#utility.yul\":9230:9256   */\n      0x4552433732313a20696e76616c696420746f6b656e2049440000000000000000\n        /* \"#utility.yul\":9210:9228   */\n      0x44\n      dup3\n      add\n        /* \"#utility.yul\":9203:9257   */\n      mstore\n        /* \"#utility.yul\":9274:9292   */\n      0x64\n      add\n        /* \"@openzeppelin/contracts/token/ERC721/ERC721.sol\":2324:2380   */\n      tag_139\n        /* \"#utility.yul\":8950:9298   */\n      jump\n        /* \"ProducerProtocolOptimism.sol\":3472:3997  function bridgeOut(uint256 tokenId, address l1Recipient) external nonReentrant {... */\n    tag_73:\n        /* \"ProducerProtocolOptimism.sol\":538:539  2 */\n      0x02\n        /* \"ProducerProtocolOptimism.sol\":676:683  _status */\n      sload(0x07)\n        /* \"ProducerProtocolOptimism.sol\":676:695  _status != _ENTERED */\n      sub\n        /* \"ProducerProtocolOptimism.sol\":668:731  require(_status != _ENTERED, \"ReentrancyGuard: reentrant call\") */\n      tag_191\n      jumpi\n      mload(0x40)\n      shl(0xe5, 0x461bcd)\n      dup2\n      mstore\n        /* \"#utility.yul\":7076:7078   */\n      0x20\n        /* \"ProducerProtocolOptimism.sol\":668:731  require(_status != _ENTERED, \"ReentrancyGuard: reentrant call\") */\n      0x04\n      dup3\n      add\n        /* \"#utility.yul\":7058:7079   */\n      mstore\n        /* \"#utility.yul\":7115:7117   */\n      0x1f\n        /* \"#utility.yul\":7095:7113   */\n      0x24\n      dup3\n      add\n        /* \"#utility.yul\":7088:7118   */\n      mstore\n        /* \"#utility.yul\":7154:7187   */\n      0x5265656e7472616e637947756172643a207265656e7472616e742063616c6c00\n        /* \"#utility.yul\":7134:7152   */\n      0x44\n      dup3\n      add\n        /* \"#utility.yul\":7127:7188   */\n      mstore\n        /* \"#utility.yul\":7205:7223   */\n      0x64\n      add\n        /* \"ProducerProtocolOptimism.sol\":668:731  require(_status != _ENTERED, \"ReentrancyGuard: reentrant call\") */\n      tag_139\n        /* \"#utility.yul\":6874:7229   */\n      jump\n        /* \"ProducerProtocolOptimism.sol\":668:731  require(_status != _ENTERED, \"ReentrancyGuard: reentrant call\") */\n    tag_191:\n        /* \"ProducerProtocolOptimism.sol\":538:539  2 */\n      0x02\n        /* \"ProducerProtocolOptimism.sol\":741:748  _status */\n      0x07\n        /* \"ProducerProtocolOptimism.sol\":741:759  _status = _ENTERED */\n      sstore\n        /* \"ProducerProtocolOptimism.sol\":3569:3608  _isApprovedOrOwner(msg.sender, tokenId) */\n      tag_194\n        /* \"ProducerProtocolOptimism.sol\":3588:3598  msg.sender */\n      caller\n        /* \"ProducerProtocolOptimism.sol\":3600:3607  tokenId */\n      dup4\n        /* \"ProducerProtocolOptimism.sol\":3569:3587  _isApprovedOrOwner */\n      tag_176\n        /* \"ProducerProtocolOptimism.sol\":3569:3608  _isApprovedOrOwner(msg.sender, tokenId) */\n      jump\t// in\n    tag_194:\n        /* \"ProducerProtocolOptimism.sol\":3561:3645  require(_isApprovedOrOwner(msg.sender, tokenId), \"Caller is not owner nor approved\") */\n      tag_195\n      jumpi\n      mload(0x40)\n      shl(0xe5, 0x461bcd)\n      dup2\n      mstore\n        /* \"#utility.yul\":9505:9507   */\n      0x20\n        /* \"ProducerProtocolOptimism.sol\":3561:3645  require(_isApprovedOrOwner(msg.sender, tokenId), \"Caller is not owner nor approved\") */\n      0x04\n      dup3\n      add\n        /* \"#utility.yul\":9487:9508   */\n      dup2\n      swap1\n      mstore\n        /* \"#utility.yul\":9524:9542   */\n      0x24\n      dup3\n      add\n        /* \"#utility.yul\":9517:9547   */\n      mstore\n        /* \"#utility.yul\":9583:9617   */\n      0x43616c6c6572206973206e6f74206f776e6572206e6f7220617070726f766564\n        /* \"#utility.yul\":9563:9581   */\n      0x44\n      dup3\n      add\n        /* \"#utility.yul\":9556:9618   */\n      mstore\n        /* \"#utility.yul\":9635:9653   */\n      0x64\n      add\n        /* \"ProducerProtocolOptimism.sol\":3561:3645  require(_isApprovedOrOwner(msg.sender, tokenId), \"Caller is not owner nor approved\") */\n      tag_139\n        /* \"#utility.yul\":9303:9659   */\n      jump\n        /* \"ProducerProtocolOptimism.sol\":3561:3645  require(_isApprovedOrOwner(msg.sender, tokenId), \"Caller is not owner nor approved\") */\n    tag_195:\n        /* \"ProducerProtocolOptimism.sol\":3655:3669  _burn(tokenId) */\n      tag_198\n        /* \"ProducerProtocolOptimism.sol\":3661:3668  tokenId */\n      dup3\n        /* \"ProducerProtocolOptimism.sol\":3655:3660  _burn */\n      tag_199\n        /* \"ProducerProtocolOptimism.sol\":3655:3669  _burn(tokenId) */\n      jump\t// in\n    tag_198:\n        /* \"ProducerProtocolOptimism.sol\":3684:3721  TokenBridgedOut(tokenId, l1Recipient) */\n      mload(0x40)\n      sub(shl(0xa0, 0x01), 0x01)\n      dup3\n      and\n      swap1\n        /* \"ProducerProtocolOptimism.sol\":3700:3707  tokenId */\n      dup4\n      swap1\n        /* \"ProducerProtocolOptimism.sol\":3684:3721  TokenBridgedOut(tokenId, l1Recipient) */\n      0xd5df47bfe7b82577bf15be85e7a913251185a6f2d19b35211f8e2c060c995f05\n      swap1\n      0x00\n      swap1\n      log3\n        /* \"ProducerProtocolOptimism.sol\":3807:3890  abi.encodeWithSignature(\"completeBridgeOut(uint256,address)\", tokenId, l1Recipient) */\n      mload(0x40)\n      0x24\n      dup2\n      add\n        /* \"#utility.yul\":9838:9863   */\n      dup4\n      swap1\n      mstore\n      sub(shl(0xa0, 0x01), 0x01)\n        /* \"#utility.yul\":9899:9954   */\n      dup3\n      and\n        /* \"#utility.yul\":9879:9897   */\n      0x44\n      dup3\n      add\n        /* \"#utility.yul\":9872:9955   */\n      mstore\n        /* \"ProducerProtocolOptimism.sol\":3784:3804  bytes memory message */\n      0x00\n      swap1\n        /* \"#utility.yul\":9811:9829   */\n      0x64\n      add\n        /* \"ProducerProtocolOptimism.sol\":3807:3890  abi.encodeWithSignature(\"completeBridgeOut(uint256,address)\", tokenId, l1Recipient) */\n      0x40\n      dup1\n      mload\n      not(0x1f)\n      dup2\n      dup5\n      sub\n      add\n      dup2\n      mstore\n      swap2\n      dup2\n      mstore\n      0x20\n      dup3\n      add\n      dup1\n      mload\n      0xffffffffffffffffffffffffffffffffffffffffffffffffffffffff\n      and\n      shl(0xe1, 0x04343bf9)\n      or\n      swap1\n      mstore\n        /* \"ProducerProtocolOptimism.sol\":3922:3942  crossDomainMessenger */\n      sload(0x08)\n        /* \"ProducerProtocolOptimism.sol\":3956:3966  l1Contract */\n      sload(0x09)\n        /* \"ProducerProtocolOptimism.sol\":3900:3990  ICrossDomainMessenger(crossDomainMessenger).sendMessage(l1Contract, message, L1_GAS_LIMIT) */\n      swap2\n      mload\n      shl(0xe0, 0x3dbb202b)\n      dup2\n      mstore\n        /* \"ProducerProtocolOptimism.sol\":3807:3890  abi.encodeWithSignature(\"completeBridgeOut(uint256,address)\", tokenId, l1Recipient) */\n      swap3\n      swap4\n      pop\n      sub(shl(0xa0, 0x01), 0x01)\n        /* \"ProducerProtocolOptimism.sol\":3922:3942  crossDomainMessenger */\n      swap1\n      dup2\n      and\n      swap3\n        /* \"ProducerProtocolOptimism.sol\":3900:3955  ICrossDomainMessenger(crossDomainMessenger).sendMessage */\n      0x3dbb202b\n      swap3\n        /* \"ProducerProtocolOptimism.sol\":3900:3990  ICrossDomainMessenger(crossDomainMessenger).sendMessage(l1Contract, message, L1_GAS_LIMIT) */\n      tag_202\n      swap3\n        /* \"ProducerProtocolOptimism.sol\":3956:3966  l1Contract */\n      and\n      swap1\n        /* \"ProducerProtocolOptimism.sol\":3807:3890  abi.encodeWithSignature(\"completeBridgeOut(uint256,address)\", tokenId, l1Recipient) */\n      dup6\n      swap1\n        /* \"ProducerProtocolOptimism.sol\":1903:1910  1000000 */\n      0x0f4240\n      swap1\n        /* \"ProducerProtocolOptimism.sol\":3900:3990  ICrossDomainMessenger(crossDomainMessenger).sendMessage(l1Contract, message, L1_GAS_LIMIT) */\n      0x04\n      add\n      tag_203\n      jump\t// in\n    tag_202:\n      0x00\n      mload(0x40)\n      dup1\n      dup4\n      sub\n      dup2\n      0x00\n      dup8\n      dup1\n      extcodesize\n      iszero\n      dup1\n      iszero\n      tag_204\n      jumpi\n      0x00\n      dup1\n      revert\n    tag_204:\n      pop\n      gas\n      call\n      iszero\n      dup1\n      iszero\n      tag_206\n      jumpi\n      returndatasize\n      0x00\n      dup1\n      returndatacopy\n      revert(0x00, returndatasize)\n    tag_206:\n      pop\n      pop\n        /* \"ProducerProtocolOptimism.sol\":495:496  1 */\n      0x01\n        /* \"ProducerProtocolOptimism.sol\":780:787  _status */\n      0x07\n        /* \"ProducerProtocolOptimism.sol\":780:802  _status = _NOT_ENTERED */\n      sstore\n      pop\n      pop\n      pop\n      pop\n      pop\n        /* \"ProducerProtocolOptimism.sol\":3472:3997  function bridgeOut(uint256 tokenId, address l1Recipient) external nonReentrant {... */\n      jump\t// out\n        /* \"@openzeppelin/contracts/token/ERC721/ERC721.sol\":1929:2133   */\n    tag_77:\n        /* \"@openzeppelin/contracts/token/ERC721/ERC721.sol\":2001:2008   */\n      0x00\n      sub(shl(0xa0, 0x01), 0x01)\n        /* \"@openzeppelin/contracts/token/ERC721/ERC721.sol\":2028:2047   */\n      dup3\n      and\n        /* \"@openzeppelin/contracts/token/ERC721/ERC721.sol\":2020:2093   */\n      tag_208\n      jumpi\n      mload(0x40)\n      shl(0xe5, 0x461bcd)\n      dup2\n      mstore\n        /* \"#utility.yul\":10608:10610   */\n      0x20\n        /* \"@openzeppelin/contracts/token/ERC721/ERC721.sol\":2020:2093   */\n      0x04\n      dup3\n      add\n        /* \"#utility.yul\":10590:10611   */\n      mstore\n        /* \"#utility.yul\":10647:10649   */\n      0x29\n        /* \"#utility.yul\":10627:10645   */\n      0x24\n      dup3\n      add\n        /* \"#utility.yul\":10620:10650   */\n      mstore\n        /* \"#utility.yul\":10686:10720   */\n      0x4552433732313a2061646472657373207a65726f206973206e6f742061207661\n        /* \"#utility.yul\":10666:10684   */\n      0x44\n      dup3\n      add\n        /* \"#utility.yul\":10659:10721   */\n      mstore\n        /* \"#utility.yul\":10757:10768   */\n      0x6c6964206f776e65720000000000000000000000000000000000000000000000\n        /* \"#utility.yul\":10737:10755   */\n      0x64\n      dup3\n      add\n        /* \"#utility.yul\":10730:10769   */\n      mstore\n        /* \"#utility.yul\":10786:10805   */\n      0x84\n      add\n        /* \"@openzeppelin/contracts/token/ERC721/ERC721.sol\":2020:2093   */\n      tag_139\n        /* \"#utility.yul\":10406:10811   */\n      jump\n        /* \"@openzeppelin/contracts/token/ERC721/ERC721.sol\":2020:2093   */\n    tag_208:\n      pop\n      sub(shl(0xa0, 0x01), 0x01)\n        /* \"@openzeppelin/contracts/token/ERC721/ERC721.sol\":2110:2126   */\n      and\n      0x00\n      swap1\n      dup2\n      mstore\n        /* \"@openzeppelin/contracts/token/ERC721/ERC721.sol\":2110:2119   */\n      0x03\n        /* \"@openzeppelin/contracts/token/ERC721/ERC721.sol\":2110:2126   */\n      0x20\n      mstore\n      0x40\n      swap1\n      keccak256\n      sload\n      swap1\n        /* \"@openzeppelin/contracts/token/ERC721/ERC721.sol\":1929:2133   */\n      jump\t// out\n        /* \"@openzeppelin/contracts/access/Ownable.sol\":1824:1925   */\n    tag_81:\n        /* \"@openzeppelin/contracts/access/Ownable.sol\":1094:1107   */\n      tag_212\n        /* \"@openzeppelin/contracts/access/Ownable.sol\":1094:1105   */\n      tag_213\n        /* \"@openzeppelin/contracts/access/Ownable.sol\":1094:1107   */\n      jump\t// in\n    tag_212:\n        /* \"@openzeppelin/contracts/access/Ownable.sol\":1888:1918   */\n      tag_215\n        /* \"@openzeppelin/contracts/access/Ownable.sol\":1915:1916   */\n      0x00\n        /* \"@openzeppelin/contracts/access/Ownable.sol\":1888:1906   */\n      tag_216\n        /* \"@openzeppelin/contracts/access/Ownable.sol\":1888:1918   */\n      jump\t// in\n    tag_215:\n        /* \"@openzeppelin/contracts/access/Ownable.sol\":1824:1925   */\n      jump\t// out\n        /* \"@openzeppelin/contracts/token/ERC721/ERC721.sol\":2633:2735   */\n    tag_89:\n        /* \"@openzeppelin/contracts/token/ERC721/ERC721.sol\":2689:2702   */\n      0x60\n        /* \"@openzeppelin/contracts/token/ERC721/ERC721.sol\":2721:2728   */\n      0x01\n        /* \"@openzeppelin/contracts/token/ERC721/ERC721.sol\":2714:2728   */\n      dup1\n      sload\n      tag_127\n      swap1\n      tag_128\n      jump\t// in\n        /* \"ProducerProtocolOptimism.sol\":4150:4328  function adminMint(address recipient) external onlyOwner nonReentrant {... */\n    tag_93:\n        /* \"@openzeppelin/contracts/access/Ownable.sol\":1094:1107   */\n      tag_225\n        /* \"@openzeppelin/contracts/access/Ownable.sol\":1094:1105   */\n      tag_213\n        /* \"@openzeppelin/contracts/access/Ownable.sol\":1094:1107   */\n      jump\t// in\n    tag_225:\n        /* \"ProducerProtocolOptimism.sol\":538:539  2 */\n      0x02\n        /* \"ProducerProtocolOptimism.sol\":676:683  _status */\n      sload(0x07)\n        /* \"ProducerProtocolOptimism.sol\":676:695  _status != _ENTERED */\n      sub\n        /* \"ProducerProtocolOptimism.sol\":668:731  require(_status != _ENTERED, \"ReentrancyGuard: reentrant call\") */\n      tag_227\n      jumpi\n      mload(0x40)\n      shl(0xe5, 0x461bcd)\n      dup2\n      mstore\n        /* \"#utility.yul\":7076:7078   */\n      0x20\n        /* \"ProducerProtocolOptimism.sol\":668:731  require(_status != _ENTERED, \"ReentrancyGuard: reentrant call\") */\n      0x04\n      dup3\n      add\n        /* \"#utility.yul\":7058:7079   */\n      mstore\n        /* \"#utility.yul\":7115:7117   */\n      0x1f\n        /* \"#utility.yul\":7095:7113   */\n      0x24\n      dup3\n      add\n        /* \"#utility.yul\":7088:7118   */\n      mstore\n        /* \"#utility.yul\":7154:7187   */\n      0x5265656e7472616e637947756172643a207265656e7472616e742063616c6c00\n        /* \"#utility.yul\":7134:7152   */\n      0x44\n      dup3\n      add\n        /* \"#utility.yul\":7127:7188   */\n      mstore\n        /* \"#utility.yul\":7205:7223   */\n      0x64\n      add\n        /* \"ProducerProtocolOptimism.sol\":668:731  require(_status != _ENTERED, \"ReentrancyGuard: reentrant call\") */\n      tag_139\n        /* \"#utility.yul\":6874:7229   */\n      jump\n        /* \"ProducerProtocolOptimism.sol\":668:731  require(_status != _ENTERED, \"ReentrancyGuard: reentrant call\") */\n    tag_227:\n        /* \"ProducerProtocolOptimism.sol\":538:539  2 */\n      0x02\n        /* \"ProducerProtocolOptimism.sol\":741:748  _status */\n      0x07\n        /* \"ProducerProtocolOptimism.sol\":741:759  _status = _ENTERED */\n      sstore\n        /* \"ProducerProtocolOptimism.sol\":4248:4259  nextTokenId */\n      0x0a\n      dup1\n      sload\n      swap1\n      dup2\n      swap1\n        /* \"ProducerProtocolOptimism.sol\":4230:4245  uint256 tokenId */\n      0x00\n        /* \"ProducerProtocolOptimism.sol\":4269:4282  nextTokenId++ */\n      tag_230\n        /* \"ProducerProtocolOptimism.sol\":4248:4259  nextTokenId */\n      dup4\n        /* \"ProducerProtocolOptimism.sol\":4269:4282  nextTokenId++ */\n      tag_231\n      jump\t// in\n    tag_230:\n      swap2\n      swap1\n      pop\n      sstore\n      pop\n        /* \"ProducerProtocolOptimism.sol\":4292:4321  _safeMint(recipient, tokenId) */\n      tag_232\n        /* \"ProducerProtocolOptimism.sol\":4302:4311  recipient */\n      dup3\n        /* \"ProducerProtocolOptimism.sol\":4313:4320  tokenId */\n      dup3\n        /* \"ProducerProtocolOptimism.sol\":4292:4301  _safeMint */\n      tag_172\n        /* \"ProducerProtocolOptimism.sol\":4292:4321  _safeMint(recipient, tokenId) */\n      jump\t// in\n    tag_232:\n      pop\n      pop\n        /* \"ProducerProtocolOptimism.sol\":495:496  1 */\n      0x01\n        /* \"ProducerProtocolOptimism.sol\":780:787  _status */\n      0x07\n        /* \"ProducerProtocolOptimism.sol\":780:802  _status = _NOT_ENTERED */\n      sstore\n        /* \"ProducerProtocolOptimism.sol\":4150:4328  function adminMint(address recipient) external onlyOwner nonReentrant {... */\n      jump\t// out\n        /* \"@openzeppelin/contracts/token/ERC721/ERC721.sol\":4169:4322   */\n    tag_97:\n        /* \"@openzeppelin/contracts/token/ERC721/ERC721.sol\":4263:4315   */\n      tag_234\n        /* \"@openzeppelin/contracts/utils/Context.sol\":734:744   */\n      caller\n        /* \"@openzeppelin/contracts/token/ERC721/ERC721.sol\":4296:4304   */\n      dup4\n        /* \"@openzeppelin/contracts/token/ERC721/ERC721.sol\":4306:4314   */\n      dup4\n        /* \"@openzeppelin/contracts/token/ERC721/ERC721.sol\":4263:4281   */\n      tag_236\n        /* \"@openzeppelin/contracts/token/ERC721/ERC721.sol\":4263:4315   */\n      jump\t// in\n    tag_234:\n        /* \"@openzeppelin/contracts/token/ERC721/ERC721.sol\":4169:4322   */\n      pop\n      pop\n      jump\t// out\n        /* \"@openzeppelin/contracts/token/ERC721/ERC721.sol\":5189:5465   */\n    tag_101:\n        /* \"@openzeppelin/contracts/token/ERC721/ERC721.sol\":5319:5360   */\n      tag_238\n        /* \"@openzeppelin/contracts/utils/Context.sol\":734:744   */\n      caller\n        /* \"@openzeppelin/contracts/token/ERC721/ERC721.sol\":5352:5359   */\n      dup4\n        /* \"@openzeppelin/contracts/token/ERC721/ERC721.sol\":5319:5337   */\n      tag_176\n        /* \"@openzeppelin/contracts/token/ERC721/ERC721.sol\":5319:5360   */\n      jump\t// in\n    tag_238:\n        /* \"@openzeppelin/contracts/token/ERC721/ERC721.sol\":5311:5410   */\n      tag_240\n      jumpi\n      mload(0x40)\n      shl(0xe5, 0x461bcd)\n      dup2\n      mstore\n        /* \"#utility.yul\":8738:8740   */\n      0x20\n        /* \"@openzeppelin/contracts/token/ERC721/ERC721.sol\":5311:5410   */\n      0x04\n      dup3\n      add\n        /* \"#utility.yul\":8720:8741   */\n      mstore\n        /* \"#utility.yul\":8777:8779   */\n      0x2d\n        /* \"#utility.yul\":8757:8775   */\n      0x24\n      dup3\n      add\n        /* \"#utility.yul\":8750:8780   */\n      mstore\n        /* \"#utility.yul\":8816:8850   */\n      0x4552433732313a2063616c6c6572206973206e6f7420746f6b656e206f776e65\n        /* \"#utility.yul\":8796:8814   */\n      0x44\n      dup3\n      add\n        /* \"#utility.yul\":8789:8851   */\n      mstore\n      shl(0x9a, 0x1c881bdc88185c1c1c9bdd9959)\n        /* \"#utility.yul\":8867:8885   */\n      0x64\n      dup3\n      add\n        /* \"#utility.yul\":8860:8903   */\n      mstore\n        /* \"#utility.yul\":8920:8939   */\n      0x84\n      add\n        /* \"@openzeppelin/contracts/token/ERC721/ERC721.sol\":5311:5410   */\n      tag_139\n        /* \"#utility.yul\":8536:8945   */\n      jump\n        /* \"@openzeppelin/contracts/token/ERC721/ERC721.sol\":5311:5410   */\n    tag_240:\n        /* \"@openzeppelin/contracts/token/ERC721/ERC721.sol\":5420:5458   */\n      tag_242\n        /* \"@openzeppelin/contracts/token/ERC721/ERC721.sol\":5434:5438   */\n      dup5\n        /* \"@openzeppelin/contracts/token/ERC721/ERC721.sol\":5440:5442   */\n      dup5\n        /* \"@openzeppelin/contracts/token/ERC721/ERC721.sol\":5444:5451   */\n      dup5\n        /* \"@openzeppelin/contracts/token/ERC721/ERC721.sol\":5453:5457   */\n      dup5\n        /* \"@openzeppelin/contracts/token/ERC721/ERC721.sol\":5420:5433   */\n      tag_243\n        /* \"@openzeppelin/contracts/token/ERC721/ERC721.sol\":5420:5458   */\n      jump\t// in\n    tag_242:\n        /* \"@openzeppelin/contracts/token/ERC721/ERC721.sol\":5189:5465   */\n      pop\n      pop\n      pop\n      pop\n      jump\t// out\n        /* \"@openzeppelin/contracts/token/ERC721/ERC721.sol\":2801:3077   */\n    tag_108:\n        /* \"@openzeppelin/contracts/token/ERC721/ERC721.sol\":2874:2887   */\n      0x60\n        /* \"@openzeppelin/contracts/token/ERC721/ERC721.sol\":2899:2922   */\n      tag_245\n        /* \"@openzeppelin/contracts/token/ERC721/ERC721.sol\":2914:2921   */\n      dup3\n        /* \"@openzeppelin/contracts/token/ERC721/ERC721.sol\":2899:2913   */\n      tag_135\n        /* \"@openzeppelin/contracts/token/ERC721/ERC721.sol\":2899:2922   */\n      jump\t// in\n    tag_245:\n        /* \"@openzeppelin/contracts/token/ERC721/ERC721.sol\":2933:2954   */\n      0x00\n        /* \"@openzeppelin/contracts/token/ERC721/ERC721.sol\":2957:2967   */\n      tag_246\n        /* \"@openzeppelin/contracts/token/ERC721/ERC721.sol\":3395:3404   */\n      0x40\n      dup1\n      mload\n      0x20\n      dup2\n      add\n      swap1\n      swap2\n      mstore\n      0x00\n      dup2\n      mstore\n      swap1\n        /* \"@openzeppelin/contracts/token/ERC721/ERC721.sol\":3319:3411   */\n      jump\n        /* \"@openzeppelin/contracts/token/ERC721/ERC721.sol\":2957:2967   */\n    tag_246:\n        /* \"@openzeppelin/contracts/token/ERC721/ERC721.sol\":2933:2967   */\n      swap1\n      pop\n        /* \"@openzeppelin/contracts/token/ERC721/ERC721.sol\":3008:3009   */\n      0x00\n        /* \"@openzeppelin/contracts/token/ERC721/ERC721.sol\":2990:2997   */\n      dup2\n        /* \"@openzeppelin/contracts/token/ERC721/ERC721.sol\":2984:3005   */\n      mload\n        /* \"@openzeppelin/contracts/token/ERC721/ERC721.sol\":2984:3009   */\n      gt\n        /* \"@openzeppelin/contracts/token/ERC721/ERC721.sol\":2984:3070   */\n      tag_248\n      jumpi\n      mload(0x40)\n      dup1\n      0x20\n      add\n      0x40\n      mstore\n      dup1\n      0x00\n      dup2\n      mstore\n      pop\n      jump(tag_249)\n    tag_248:\n        /* \"@openzeppelin/contracts/token/ERC721/ERC721.sol\":3036:3043   */\n      dup1\n        /* \"@openzeppelin/contracts/token/ERC721/ERC721.sol\":3045:3063   */\n      tag_250\n        /* \"@openzeppelin/contracts/token/ERC721/ERC721.sol\":3045:3052   */\n      dup5\n        /* \"@openzeppelin/contracts/token/ERC721/ERC721.sol\":3045:3061   */\n      tag_251\n        /* \"@openzeppelin/contracts/token/ERC721/ERC721.sol\":3045:3063   */\n      jump\t// in\n    tag_250:\n        /* \"@openzeppelin/contracts/token/ERC721/ERC721.sol\":3019:3064   */\n      add(0x20, mload(0x40))\n      tag_252\n      swap3\n      swap2\n      swap1\n      tag_253\n      jump\t// in\n    tag_252:\n      mload(0x40)\n      0x20\n      dup2\n      dup4\n      sub\n      sub\n      dup2\n      mstore\n      swap1\n      0x40\n      mstore\n        /* \"@openzeppelin/contracts/token/ERC721/ERC721.sol\":2984:3070   */\n    tag_249:\n        /* \"@openzeppelin/contracts/token/ERC721/ERC721.sol\":2977:3070   */\n      swap4\n        /* \"@openzeppelin/contracts/token/ERC721/ERC721.sol\":2801:3077   */\n      swap3\n      pop\n      pop\n      pop\n      jump\t// out\n        /* \"@openzeppelin/contracts/access/Ownable.sol\":2074:2272   */\n    tag_117:\n        /* \"@openzeppelin/contracts/access/Ownable.sol\":1094:1107   */\n      tag_256\n        /* \"@openzeppelin/contracts/access/Ownable.sol\":1094:1105   */\n      tag_213\n        /* \"@openzeppelin/contracts/access/Ownable.sol\":1094:1107   */\n      jump\t// in\n    tag_256:\n      sub(shl(0xa0, 0x01), 0x01)\n        /* \"@openzeppelin/contracts/access/Ownable.sol\":2162:2184   */\n      dup2\n      and\n        /* \"@openzeppelin/contracts/access/Ownable.sol\":2154:2227   */\n      tag_258\n      jumpi\n      mload(0x40)\n      shl(0xe5, 0x461bcd)\n      dup2\n      mstore\n        /* \"#utility.yul\":11744:11746   */\n      0x20\n        /* \"@openzeppelin/contracts/access/Ownable.sol\":2154:2227   */\n      0x04\n      dup3\n      add\n        /* \"#utility.yul\":11726:11747   */\n      mstore\n        /* \"#utility.yul\":11783:11785   */\n      0x26\n        /* \"#utility.yul\":11763:11781   */\n      0x24\n      dup3\n      add\n        /* \"#utility.yul\":11756:11786   */\n      mstore\n        /* \"#utility.yul\":11822:11856   */\n      0x4f776e61626c653a206e6577206f776e657220697320746865207a65726f2061\n        /* \"#utility.yul\":11802:11820   */\n      0x44\n      dup3\n      add\n        /* \"#utility.yul\":11795:11857   */\n      mstore\n        /* \"#utility.yul\":11893:11901   */\n      0x6464726573730000000000000000000000000000000000000000000000000000\n        /* \"#utility.yul\":11873:11891   */\n      0x64\n      dup3\n      add\n        /* \"#utility.yul\":11866:11902   */\n      mstore\n        /* \"#utility.yul\":11919:11938   */\n      0x84\n      add\n        /* \"@openzeppelin/contracts/access/Ownable.sol\":2154:2227   */\n      tag_139\n        /* \"#utility.yul\":11542:11944   */\n      jump\n        /* \"@openzeppelin/contracts/access/Ownable.sol\":2154:2227   */\n    tag_258:\n        /* \"@openzeppelin/contracts/access/Ownable.sol\":2237:2265   */\n      tag_261\n        /* \"@openzeppelin/contracts/access/Ownable.sol\":2256:2264   */\n      dup2\n        /* \"@openzeppelin/contracts/access/Ownable.sol\":2237:2255   */\n      tag_216\n        /* \"@openzeppelin/contracts/access/Ownable.sol\":2237:2265   */\n      jump\t// in\n    tag_261:\n        /* \"@openzeppelin/contracts/access/Ownable.sol\":2074:2272   */\n      pop\n      jump\t// out\n        /* \"@openzeppelin/contracts/token/ERC721/ERC721.sol\":13240:13373   */\n    tag_135:\n        /* \"@openzeppelin/contracts/token/ERC721/ERC721.sol\":7185:7189   */\n      0x00\n        /* \"@openzeppelin/contracts/token/ERC721/ERC721.sol\":6794:6810   */\n      dup2\n      dup2\n      mstore\n        /* \"@openzeppelin/contracts/token/ERC721/ERC721.sol\":6794:6801   */\n      0x02\n        /* \"@openzeppelin/contracts/token/ERC721/ERC721.sol\":6794:6810   */\n      0x20\n      mstore\n      0x40\n      swap1\n      keccak256\n      sload\n      sub(shl(0xa0, 0x01), 0x01)\n      and\n        /* \"@openzeppelin/contracts/token/ERC721/ERC721.sol\":13313:13366   */\n      tag_261\n      jumpi\n      mload(0x40)\n      shl(0xe5, 0x461bcd)\n      dup2\n      mstore\n        /* \"#utility.yul\":9152:9154   */\n      0x20\n        /* \"@openzeppelin/contracts/token/ERC721/ERC721.sol\":13313:13366   */\n      0x04\n      dup3\n      add\n        /* \"#utility.yul\":9134:9155   */\n      mstore\n        /* \"#utility.yul\":9191:9193   */\n      0x18\n        /* \"#utility.yul\":9171:9189   */\n      0x24\n      dup3\n      add\n        /* \"#utility.yul\":9164:9194   */\n      mstore\n        /* \"#utility.yul\":9230:9256   */\n      0x4552433732313a20696e76616c696420746f6b656e2049440000000000000000\n        /* \"#utility.yul\":9210:9228   */\n      0x44\n      dup3\n      add\n        /* \"#utility.yul\":9203:9257   */\n      mstore\n        /* \"#utility.yul\":9274:9292   */\n      0x64\n      add\n        /* \"@openzeppelin/contracts/token/ERC721/ERC721.sol\":13313:13366   */\n      tag_139\n        /* \"#utility.yul\":8950:9298   */\n      jump\n        /* \"@openzeppelin/contracts/token/ERC721/ERC721.sol\":12572:12743   */\n    tag_150:\n        /* \"@openzeppelin/contracts/token/ERC721/ERC721.sol\":12646:12670   */\n      0x00\n      dup2\n      dup2\n      mstore\n        /* \"@openzeppelin/contracts/token/ERC721/ERC721.sol\":12646:12661   */\n      0x04\n        /* \"@openzeppelin/contracts/token/ERC721/ERC721.sol\":12646:12670   */\n      0x20\n      mstore\n      0x40\n      swap1\n      keccak256\n        /* \"@openzeppelin/contracts/token/ERC721/ERC721.sol\":12646:12675   */\n      dup1\n      sload\n      not(sub(shl(0xa0, 0x01), 0x01))\n      and\n      sub(shl(0xa0, 0x01), 0x01)\n      dup5\n      and\n      swap1\n      dup2\n      or\n      swap1\n      swap2\n      sstore\n        /* \"@openzeppelin/contracts/token/ERC721/ERC721.sol\":12646:12670   */\n      dup2\n      swap1\n        /* \"@openzeppelin/contracts/token/ERC721/ERC721.sol\":12699:12722   */\n      tag_269\n        /* \"@openzeppelin/contracts/token/ERC721/ERC721.sol\":12646:12670   */\n      dup3\n        /* \"@openzeppelin/contracts/token/ERC721/ERC721.sol\":12699:12713   */\n      tag_66\n        /* \"@openzeppelin/contracts/token/ERC721/ERC721.sol\":12699:12722   */\n      jump\t// in\n    tag_269:\n      sub(shl(0xa0, 0x01), 0x01)\n        /* \"@openzeppelin/contracts/token/ERC721/ERC721.sol\":12690:12736   */\n      and\n      0x8c5be1e5ebec7d5bd14f71427d1e84f3dd0314c0f7b2291e5b200ac8c7c3b925\n      mload(0x40)\n      mload(0x40)\n      dup1\n      swap2\n      sub\n      swap1\n      log4\n        /* \"@openzeppelin/contracts/token/ERC721/ERC721.sol\":12572:12743   */\n      pop\n      pop\n      jump\t// out\n        /* \"@openzeppelin/contracts/token/ERC721/ERC721.sol\":7995:8103   */\n    tag_172:\n        /* \"@openzeppelin/contracts/token/ERC721/ERC721.sol\":8070:8096   */\n      tag_234\n        /* \"@openzeppelin/contracts/token/ERC721/ERC721.sol\":8080:8082   */\n      dup3\n        /* \"@openzeppelin/contracts/token/ERC721/ERC721.sol\":8084:8091   */\n      dup3\n        /* \"@openzeppelin/contracts/token/ERC721/ERC721.sol\":8070:8096   */\n      mload(0x40)\n      dup1\n      0x20\n      add\n      0x40\n      mstore\n      dup1\n      0x00\n      dup2\n      mstore\n      pop\n        /* \"@openzeppelin/contracts/token/ERC721/ERC721.sol\":8070:8079   */\n      tag_274\n        /* \"@openzeppelin/contracts/token/ERC721/ERC721.sol\":8070:8096   */\n      jump\t// in\n        /* \"@openzeppelin/contracts/token/ERC721/ERC721.sol\":7404:7665   */\n    tag_176:\n        /* \"@openzeppelin/contracts/token/ERC721/ERC721.sol\":7497:7501   */\n      0x00\n        /* \"@openzeppelin/contracts/token/ERC721/ERC721.sol\":7513:7526   */\n      dup1\n        /* \"@openzeppelin/contracts/token/ERC721/ERC721.sol\":7529:7552   */\n      tag_276\n        /* \"@openzeppelin/contracts/token/ERC721/ERC721.sol\":7544:7551   */\n      dup4\n        /* \"@openzeppelin/contracts/token/ERC721/ERC721.sol\":7529:7543   */\n      tag_66\n        /* \"@openzeppelin/contracts/token/ERC721/ERC721.sol\":7529:7552   */\n      jump\t// in\n    tag_276:\n        /* \"@openzeppelin/contracts/token/ERC721/ERC721.sol\":7513:7552   */\n      swap1\n      pop\n        /* \"@openzeppelin/contracts/token/ERC721/ERC721.sol\":7581:7586   */\n      dup1\n      sub(shl(0xa0, 0x01), 0x01)\n        /* \"@openzeppelin/contracts/token/ERC721/ERC721.sol\":7570:7586   */\n      and\n        /* \"@openzeppelin/contracts/token/ERC721/ERC721.sol\":7570:7577   */\n      dup5\n      sub(shl(0xa0, 0x01), 0x01)\n        /* \"@openzeppelin/contracts/token/ERC721/ERC721.sol\":7570:7586   */\n      and\n      eq\n        /* \"@openzeppelin/contracts/token/ERC721/ERC721.sol\":7570:7622   */\n      dup1\n      tag_278\n      jumpi\n      pop\n      sub(shl(0xa0, 0x01), 0x01)\n        /* \"@openzeppelin/contracts/token/ERC721/ERC721.sol\":4508:4533   */\n      dup1\n      dup3\n      and\n        /* \"@openzeppelin/contracts/token/ERC721/ERC721.sol\":4485:4489   */\n      0x00\n        /* \"@openzeppelin/contracts/token/ERC721/ERC721.sol\":4508:4533   */\n      swap1\n      dup2\n      mstore\n        /* \"@openzeppelin/contracts/token/ERC721/ERC721.sol\":4508:4526   */\n      0x05\n        /* \"@openzeppelin/contracts/token/ERC721/ERC721.sol\":4508:4533   */\n      0x20\n      swap1\n      dup2\n      mstore\n      0x40\n      dup1\n      dup4\n      keccak256\n        /* \"@openzeppelin/contracts/token/ERC721/ERC721.sol\":4508:4543   */\n      swap4\n      dup9\n      and\n      dup4\n      mstore\n      swap3\n      swap1\n      mstore\n      keccak256\n      sload\n      0xff\n      and\n        /* \"@openzeppelin/contracts/token/ERC721/ERC721.sol\":7590:7622   */\n    tag_278:\n        /* \"@openzeppelin/contracts/token/ERC721/ERC721.sol\":7570:7657   */\n      dup1\n      tag_279\n      jumpi\n      pop\n        /* \"@openzeppelin/contracts/token/ERC721/ERC721.sol\":7650:7657   */\n      dup4\n      sub(shl(0xa0, 0x01), 0x01)\n        /* \"@openzeppelin/contracts/token/ERC721/ERC721.sol\":7626:7657   */\n      and\n        /* \"@openzeppelin/contracts/token/ERC721/ERC721.sol\":7626:7646   */\n      tag_280\n        /* \"@openzeppelin/contracts/token/ERC721/ERC721.sol\":7638:7645   */\n      dup5\n        /* \"@openzeppelin/contracts/token/ERC721/ERC721.sol\":7626:7637   */\n      tag_46\n        /* \"@openzeppelin/contracts/token/ERC721/ERC721.sol\":7626:7646   */\n      jump\t// in\n    tag_280:\n      sub(shl(0xa0, 0x01), 0x01)\n        /* \"@openzeppelin/contracts/token/ERC721/ERC721.sol\":7626:7657   */\n      and\n      eq\n        /* \"@openzeppelin/contracts/token/ERC721/ERC721.sol\":7570:7657   */\n    tag_279:\n        /* \"@openzeppelin/contracts/token/ERC721/ERC721.sol\":7562:7658   */\n      swap5\n        /* \"@openzeppelin/contracts/token/ERC721/ERC721.sol\":7404:7665   */\n      swap4\n      pop\n      pop\n      pop\n      pop\n      jump\t// out\n        /* \"@openzeppelin/contracts/token/ERC721/ERC721.sol\":11257:12460   */\n    tag_181:\n        /* \"@openzeppelin/contracts/token/ERC721/ERC721.sol\":11381:11385   */\n      dup3\n      sub(shl(0xa0, 0x01), 0x01)\n        /* \"@openzeppelin/contracts/token/ERC721/ERC721.sol\":11354:11385   */\n      and\n        /* \"@openzeppelin/contracts/token/ERC721/ERC721.sol\":11354:11377   */\n      tag_282\n        /* \"@openzeppelin/contracts/token/ERC721/ERC721.sol\":11369:11376   */\n      dup3\n        /* \"@openzeppelin/contracts/token/ERC721/ERC721.sol\":11354:11368   */\n      tag_66\n        /* \"@openzeppelin/contracts/token/ERC721/ERC721.sol\":11354:11377   */\n      jump\t// in\n    tag_282:\n      sub(shl(0xa0, 0x01), 0x01)\n        /* \"@openzeppelin/contracts/token/ERC721/ERC721.sol\":11354:11385   */\n      and\n      eq\n        /* \"@openzeppelin/contracts/token/ERC721/ERC721.sol\":11346:11427   */\n      tag_283\n      jumpi\n      mload(0x40)\n      shl(0xe5, 0x461bcd)\n      dup2\n      mstore\n        /* \"#utility.yul\":12151:12153   */\n      0x20\n        /* \"@openzeppelin/contracts/token/ERC721/ERC721.sol\":11346:11427   */\n      0x04\n      dup3\n      add\n        /* \"#utility.yul\":12133:12154   */\n      mstore\n        /* \"#utility.yul\":12190:12192   */\n      0x25\n        /* \"#utility.yul\":12170:12188   */\n      0x24\n      dup3\n      add\n        /* \"#utility.yul\":12163:12193   */\n      mstore\n        /* \"#utility.yul\":12229:12263   */\n      0x4552433732313a207472616e736665722066726f6d20696e636f727265637420\n        /* \"#utility.yul\":12209:12227   */\n      0x44\n      dup3\n      add\n        /* \"#utility.yul\":12202:12264   */\n      mstore\n      shl(0xd9, 0x37bbb732b9)\n        /* \"#utility.yul\":12280:12298   */\n      0x64\n      dup3\n      add\n        /* \"#utility.yul\":12273:12308   */\n      mstore\n        /* \"#utility.yul\":12325:12344   */\n      0x84\n      add\n        /* \"@openzeppelin/contracts/token/ERC721/ERC721.sol\":11346:11427   */\n      tag_139\n        /* \"#utility.yul\":11949:12350   */\n      jump\n        /* \"@openzeppelin/contracts/token/ERC721/ERC721.sol\":11346:11427   */\n    tag_283:\n      sub(shl(0xa0, 0x01), 0x01)\n        /* \"@openzeppelin/contracts/token/ERC721/ERC721.sol\":11445:11461   */\n      dup3\n      and\n        /* \"@openzeppelin/contracts/token/ERC721/ERC721.sol\":11437:11502   */\n      tag_286\n      jumpi\n      mload(0x40)\n      shl(0xe5, 0x461bcd)\n      dup2\n      mstore\n        /* \"#utility.yul\":12557:12559   */\n      0x20\n        /* \"@openzeppelin/contracts/token/ERC721/ERC721.sol\":11437:11502   */\n      0x04\n      dup3\n      add\n        /* \"#utility.yul\":12539:12560   */\n      mstore\n        /* \"#utility.yul\":12596:12598   */\n      0x24\n        /* \"#utility.yul\":12576:12594   */\n      dup1\n      dup3\n      add\n        /* \"#utility.yul\":12569:12599   */\n      mstore\n        /* \"#utility.yul\":12635:12669   */\n      0x4552433732313a207472616e7366657220746f20746865207a65726f20616464\n        /* \"#utility.yul\":12615:12633   */\n      0x44\n      dup3\n      add\n        /* \"#utility.yul\":12608:12670   */\n      mstore\n      shl(0xe0, 0x72657373)\n        /* \"#utility.yul\":12686:12704   */\n      0x64\n      dup3\n      add\n        /* \"#utility.yul\":12679:12713   */\n      mstore\n        /* \"#utility.yul\":12730:12749   */\n      0x84\n      add\n        /* \"@openzeppelin/contracts/token/ERC721/ERC721.sol\":11437:11502   */\n      tag_139\n        /* \"#utility.yul\":12355:12755   */\n      jump\n        /* \"@openzeppelin/contracts/token/ERC721/ERC721.sol\":11437:11502   */\n    tag_286:\n        /* \"@openzeppelin/contracts/token/ERC721/ERC721.sol\":11682:11686   */\n      dup3\n      sub(shl(0xa0, 0x01), 0x01)\n        /* \"@openzeppelin/contracts/token/ERC721/ERC721.sol\":11655:11686   */\n      and\n        /* \"@openzeppelin/contracts/token/ERC721/ERC721.sol\":11655:11678   */\n      tag_291\n        /* \"@openzeppelin/contracts/token/ERC721/ERC721.sol\":11670:11677   */\n      dup3\n        /* \"@openzeppelin/contracts/token/ERC721/ERC721.sol\":11655:11669   */\n      tag_66\n        /* \"@openzeppelin/contracts/token/ERC721/ERC721.sol\":11655:11678   */\n      jump\t// in\n    tag_291:\n      sub(shl(0xa0, 0x01), 0x01)\n        /* \"@openzeppelin/contracts/token/ERC721/ERC721.sol\":11655:11686   */\n      and\n      eq\n        /* \"@openzeppelin/contracts/token/ERC721/ERC721.sol\":11647:11728   */\n      tag_292\n      jumpi\n      mload(0x40)\n      shl(0xe5, 0x461bcd)\n      dup2\n      mstore\n        /* \"#utility.yul\":12151:12153   */\n      0x20\n        /* \"@openzeppelin/contracts/token/ERC721/ERC721.sol\":11647:11728   */\n      0x04\n      dup3\n      add\n        /* \"#utility.yul\":12133:12154   */\n      mstore\n        /* \"#utility.yul\":12190:12192   */\n      0x25\n        /* \"#utility.yul\":12170:12188   */\n      0x24\n      dup3\n      add\n        /* \"#utility.yul\":12163:12193   */\n      mstore\n        /* \"#utility.yul\":12229:12263   */\n      0x4552433732313a207472616e736665722066726f6d20696e636f727265637420\n        /* \"#utility.yul\":12209:12227   */\n      0x44\n      dup3\n      add\n        /* \"#utility.yul\":12202:12264   */\n      mstore\n      shl(0xd9, 0x37bbb732b9)\n        /* \"#utility.yul\":12280:12298   */\n      0x64\n      dup3\n      add\n        /* \"#utility.yul\":12273:12308   */\n      mstore\n        /* \"#utility.yul\":12325:12344   */\n      0x84\n      add\n        /* \"@openzeppelin/contracts/token/ERC721/ERC721.sol\":11647:11728   */\n      tag_139\n        /* \"#utility.yul\":11949:12350   */\n      jump\n        /* \"@openzeppelin/contracts/token/ERC721/ERC721.sol\":11647:11728   */\n    tag_292:\n        /* \"@openzeppelin/contracts/token/ERC721/ERC721.sol\":11797:11821   */\n      0x00\n      dup2\n      dup2\n      mstore\n        /* \"@openzeppelin/contracts/token/ERC721/ERC721.sol\":11797:11812   */\n      0x04\n        /* \"@openzeppelin/contracts/token/ERC721/ERC721.sol\":11797:11821   */\n      0x20\n      swap1\n      dup2\n      mstore\n      0x40\n      dup1\n      dup4\n      keccak256\n        /* \"@openzeppelin/contracts/token/ERC721/ERC721.sol\":11790:11821   */\n      dup1\n      sload\n      not(sub(shl(0xa0, 0x01), 0x01))\n      swap1\n      dup2\n      and\n      swap1\n      swap2\n      sstore\n      sub(shl(0xa0, 0x01), 0x01)\n        /* \"@openzeppelin/contracts/token/ERC721/ERC721.sol\":12265:12280   */\n      dup8\n      dup2\n      and\n      dup1\n      dup7\n      mstore\n        /* \"@openzeppelin/contracts/token/ERC721/ERC721.sol\":12265:12274   */\n      0x03\n        /* \"@openzeppelin/contracts/token/ERC721/ERC721.sol\":12265:12280   */\n      dup6\n      mstore\n      dup4\n      dup7\n      keccak256\n        /* \"@openzeppelin/contracts/token/ERC721/ERC721.sol\":12265:12285   */\n      dup1\n      sload\n      not(0x00)\n      add\n      swap1\n      sstore\n        /* \"@openzeppelin/contracts/token/ERC721/ERC721.sol\":12299:12312   */\n      swap1\n      dup8\n      and\n      dup1\n      dup7\n      mstore\n      dup4\n      dup7\n      keccak256\n        /* \"@openzeppelin/contracts/token/ERC721/ERC721.sol\":12299:12317   */\n      dup1\n      sload\n        /* \"@openzeppelin/contracts/token/ERC721/ERC721.sol\":11790:11821   */\n      0x01\n        /* \"@openzeppelin/contracts/token/ERC721/ERC721.sol\":12299:12317   */\n      add\n      swap1\n      sstore\n        /* \"@openzeppelin/contracts/token/ERC721/ERC721.sol\":12337:12353   */\n      dup7\n      dup7\n      mstore\n        /* \"@openzeppelin/contracts/token/ERC721/ERC721.sol\":12337:12344   */\n      0x02\n        /* \"@openzeppelin/contracts/token/ERC721/ERC721.sol\":12337:12353   */\n      swap1\n      swap5\n      mstore\n      dup3\n      dup6\n      keccak256\n        /* \"@openzeppelin/contracts/token/ERC721/ERC721.sol\":12337:12358   */\n      dup1\n      sload\n      swap1\n      swap3\n      and\n      dup5\n      or\n      swap1\n      swap2\n      sstore\n        /* \"@openzeppelin/contracts/token/ERC721/ERC721.sol\":12374:12401   */\n      swap1\n      mload\n        /* \"@openzeppelin/contracts/token/ERC721/ERC721.sol\":11813:11820   */\n      dup5\n      swap4\n        /* \"@openzeppelin/contracts/token/ERC721/ERC721.sol\":12374:12401   */\n      0xddf252ad1be2c89b69c2b068fc378daa952ba7f163c4a11628f55a4df523b3ef\n      swap2\n      log4\n        /* \"@openzeppelin/contracts/token/ERC721/ERC721.sol\":3538:3874   */\n      pop\n        /* \"@openzeppelin/contracts/token/ERC721/ERC721.sol\":3468:3874   */\n      pop\n      pop\n      jump\t// out\n        /* \"@openzeppelin/contracts/token/ERC721/ERC721.sol\":10171:10933   */\n    tag_199:\n        /* \"@openzeppelin/contracts/token/ERC721/ERC721.sol\":10230:10243   */\n      0x00\n        /* \"@openzeppelin/contracts/token/ERC721/ERC721.sol\":10246:10269   */\n      tag_298\n        /* \"@openzeppelin/contracts/token/ERC721/ERC721.sol\":10261:10268   */\n      dup3\n        /* \"@openzeppelin/contracts/token/ERC721/ERC721.sol\":10246:10260   */\n      tag_66\n        /* \"@openzeppelin/contracts/token/ERC721/ERC721.sol\":10246:10269   */\n      jump\t// in\n    tag_298:\n        /* \"@openzeppelin/contracts/token/ERC721/ERC721.sol\":10230:10269   */\n      swap1\n      pop\n        /* \"@openzeppelin/contracts/token/ERC721/ERC721.sol\":10441:10464   */\n      tag_300\n        /* \"@openzeppelin/contracts/token/ERC721/ERC721.sol\":10456:10463   */\n      dup3\n        /* \"@openzeppelin/contracts/token/ERC721/ERC721.sol\":10441:10455   */\n      tag_66\n        /* \"@openzeppelin/contracts/token/ERC721/ERC721.sol\":10441:10464   */\n      jump\t// in\n    tag_300:\n        /* \"@openzeppelin/contracts/token/ERC721/ERC721.sol\":10509:10533   */\n      0x00\n      dup4\n      dup2\n      mstore\n        /* \"@openzeppelin/contracts/token/ERC721/ERC721.sol\":10509:10524   */\n      0x04\n        /* \"@openzeppelin/contracts/token/ERC721/ERC721.sol\":10509:10533   */\n      0x20\n      swap1\n      dup2\n      mstore\n      0x40\n      dup1\n      dup4\n      keccak256\n        /* \"@openzeppelin/contracts/token/ERC721/ERC721.sol\":10502:10533   */\n      dup1\n      sload\n      not(sub(shl(0xa0, 0x01), 0x01))\n      swap1\n      dup2\n      and\n      swap1\n      swap2\n      sstore\n      sub(shl(0xa0, 0x01), 0x01)\n        /* \"@openzeppelin/contracts/token/ERC721/ERC721.sol\":10749:10765   */\n      dup6\n      and\n      dup1\n      dup6\n      mstore\n        /* \"@openzeppelin/contracts/token/ERC721/ERC721.sol\":10749:10758   */\n      0x03\n        /* \"@openzeppelin/contracts/token/ERC721/ERC721.sol\":10749:10765   */\n      dup5\n      mstore\n      dup3\n      dup6\n      keccak256\n        /* \"@openzeppelin/contracts/token/ERC721/ERC721.sol\":10749:10770   */\n      dup1\n      sload\n      not(0x00)\n      add\n      swap1\n      sstore\n        /* \"@openzeppelin/contracts/token/ERC721/ERC721.sol\":10797:10813   */\n      dup8\n      dup6\n      mstore\n        /* \"@openzeppelin/contracts/token/ERC721/ERC721.sol\":10797:10804   */\n      0x02\n        /* \"@openzeppelin/contracts/token/ERC721/ERC721.sol\":10797:10813   */\n      swap1\n      swap4\n      mstore\n      dup2\n      dup5\n      keccak256\n        /* \"@openzeppelin/contracts/token/ERC721/ERC721.sol\":10790:10813   */\n      dup1\n      sload\n      swap1\n      swap2\n      and\n      swap1\n      sstore\n        /* \"@openzeppelin/contracts/token/ERC721/ERC721.sol\":10829:10865   */\n      mload\n        /* \"@openzeppelin/contracts/token/ERC721/ERC721.sol\":10433:10464   */\n      swap3\n      swap4\n      pop\n        /* \"@openzeppelin/contracts/token/ERC721/ERC721.sol\":10525:10532   */\n      dup5\n      swap3\n        /* \"@openzeppelin/contracts/token/ERC721/ERC721.sol\":10829:10865   */\n      0xddf252ad1be2c89b69c2b068fc378daa952ba7f163c4a11628f55a4df523b3ef\n      swap1\n        /* \"@openzeppelin/contracts/token/ERC721/ERC721.sol\":10509:10533   */\n      dup4\n      swap1\n        /* \"@openzeppelin/contracts/token/ERC721/ERC721.sol\":10829:10865   */\n      log4\n        /* \"@openzeppelin/contracts/token/ERC721/ERC721.sol\":4169:4322   */\n      pop\n      pop\n      jump\t// out\n        /* \"@openzeppelin/contracts/access/Ownable.sol\":1359:1489   */\n    tag_213:\n        /* \"@openzeppelin/contracts/access/Ownable.sol\":1273:1279   */\n      and(sub(shl(0xa0, 0x01), 0x01), sload(0x06))\n        /* \"@openzeppelin/contracts/utils/Context.sol\":734:744   */\n      caller\n        /* \"@openzeppelin/contracts/access/Ownable.sol\":1422:1445   */\n      eq\n        /* \"@openzeppelin/contracts/access/Ownable.sol\":1414:1482   */\n      tag_215\n      jumpi\n      mload(0x40)\n      shl(0xe5, 0x461bcd)\n      dup2\n      mstore\n        /* \"#utility.yul\":12962:12964   */\n      0x20\n        /* \"@openzeppelin/contracts/access/Ownable.sol\":1414:1482   */\n      0x04\n      dup3\n      add\n        /* \"#utility.yul\":12944:12965   */\n      dup2\n      swap1\n      mstore\n        /* \"#utility.yul\":12981:12999   */\n      0x24\n      dup3\n      add\n        /* \"#utility.yul\":12974:13004   */\n      mstore\n        /* \"#utility.yul\":13040:13074   */\n      0x4f776e61626c653a2063616c6c6572206973206e6f7420746865206f776e6572\n        /* \"#utility.yul\":13020:13038   */\n      0x44\n      dup3\n      add\n        /* \"#utility.yul\":13013:13075   */\n      mstore\n        /* \"#utility.yul\":13092:13110   */\n      0x64\n      add\n        /* \"@openzeppelin/contracts/access/Ownable.sol\":1414:1482   */\n      tag_139\n        /* \"#utility.yul\":12760:13116   */\n      jump\n        /* \"@openzeppelin/contracts/access/Ownable.sol\":2426:2613   */\n    tag_216:\n        /* \"@openzeppelin/contracts/access/Ownable.sol\":2518:2524   */\n      0x06\n      dup1\n      sload\n      sub(shl(0xa0, 0x01), 0x01)\n        /* \"@openzeppelin/contracts/access/Ownable.sol\":2534:2551   */\n      dup4\n      dup2\n      and\n      not(sub(shl(0xa0, 0x01), 0x01))\n      dup4\n      and\n      dup2\n      or\n      swap1\n      swap4\n      sstore\n        /* \"@openzeppelin/contracts/access/Ownable.sol\":2566:2606   */\n      mload(0x40)\n        /* \"@openzeppelin/contracts/access/Ownable.sol\":2518:2524   */\n      swap2\n      and\n      swap2\n        /* \"@openzeppelin/contracts/access/Ownable.sol\":2534:2551   */\n      swap1\n        /* \"@openzeppelin/contracts/access/Ownable.sol\":2518:2524   */\n      dup3\n      swap1\n        /* \"@openzeppelin/contracts/access/Ownable.sol\":2566:2606   */\n      0x8be0079c531659141344cd1fd0a4f28419497f9722a3daafe3b4186f6b6457e0\n      swap1\n        /* \"@openzeppelin/contracts/access/Ownable.sol\":2499:2515   */\n      0x00\n      swap1\n        /* \"@openzeppelin/contracts/access/Ownable.sol\":2566:2606   */\n      log3\n        /* \"@openzeppelin/contracts/access/Ownable.sol\":2489:2613   */\n      pop\n        /* \"@openzeppelin/contracts/access/Ownable.sol\":2426:2613   */\n      pop\n      jump\t// out\n        /* \"@openzeppelin/contracts/token/ERC721/ERC721.sol\":12879:13156   */\n    tag_236:\n        /* \"@openzeppelin/contracts/token/ERC721/ERC721.sol\":12999:13007   */\n      dup2\n      sub(shl(0xa0, 0x01), 0x01)\n        /* \"@openzeppelin/contracts/token/ERC721/ERC721.sol\":12990:13007   */\n      and\n        /* \"@openzeppelin/contracts/token/ERC721/ERC721.sol\":12990:12995   */\n      dup4\n      sub(shl(0xa0, 0x01), 0x01)\n        /* \"@openzeppelin/contracts/token/ERC721/ERC721.sol\":12990:13007   */\n      and\n      sub\n        /* \"@openzeppelin/contracts/token/ERC721/ERC721.sol\":12982:13037   */\n      tag_310\n      jumpi\n      mload(0x40)\n      shl(0xe5, 0x461bcd)\n      dup2\n      mstore\n        /* \"#utility.yul\":13323:13325   */\n      0x20\n        /* \"@openzeppelin/contracts/token/ERC721/ERC721.sol\":12982:13037   */\n      0x04\n      dup3\n      add\n        /* \"#utility.yul\":13305:13326   */\n      mstore\n        /* \"#utility.yul\":13362:13364   */\n      0x19\n        /* \"#utility.yul\":13342:13360   */\n      0x24\n      dup3\n      add\n        /* \"#utility.yul\":13335:13365   */\n      mstore\n        /* \"#utility.yul\":13401:13428   */\n      0x4552433732313a20617070726f766520746f2063616c6c657200000000000000\n        /* \"#utility.yul\":13381:13399   */\n      0x44\n      dup3\n      add\n        /* \"#utility.yul\":13374:13429   */\n      mstore\n        /* \"#utility.yul\":13446:13464   */\n      0x64\n      add\n        /* \"@openzeppelin/contracts/token/ERC721/ERC721.sol\":12982:13037   */\n      tag_139\n        /* \"#utility.yul\":13121:13470   */\n      jump\n        /* \"@openzeppelin/contracts/token/ERC721/ERC721.sol\":12982:13037   */\n    tag_310:\n      sub(shl(0xa0, 0x01), 0x01)\n        /* \"@openzeppelin/contracts/token/ERC721/ERC721.sol\":13047:13072   */\n      dup4\n      dup2\n      and\n      0x00\n      dup2\n      dup2\n      mstore\n        /* \"@openzeppelin/contracts/token/ERC721/ERC721.sol\":13047:13065   */\n      0x05\n        /* \"@openzeppelin/contracts/token/ERC721/ERC721.sol\":13047:13072   */\n      0x20\n      swap1\n      dup2\n      mstore\n      0x40\n      dup1\n      dup4\n      keccak256\n        /* \"@openzeppelin/contracts/token/ERC721/ERC721.sol\":13047:13082   */\n      swap5\n      dup8\n      and\n      dup1\n      dup5\n      mstore\n      swap5\n      dup3\n      mstore\n      swap2\n      dup3\n      swap1\n      keccak256\n        /* \"@openzeppelin/contracts/token/ERC721/ERC721.sol\":13047:13093   */\n      dup1\n      sload\n      not(0xff)\n      and\n      dup7\n      iszero\n      iszero\n      swap1\n      dup2\n      or\n      swap1\n      swap2\n      sstore\n        /* \"@openzeppelin/contracts/token/ERC721/ERC721.sol\":13108:13149   */\n      swap2\n      mload\n        /* \"#utility.yul\":540:581   */\n      swap2\n      dup3\n      mstore\n        /* \"@openzeppelin/contracts/token/ERC721/ERC721.sol\":13108:13149   */\n      0x17307eab39ab6107e8899845ad3d59bd9653f200f220920489ca2b5937696c31\n      swap2\n        /* \"#utility.yul\":513:531   */\n      add\n        /* \"@openzeppelin/contracts/token/ERC721/ERC721.sol\":13108:13149   */\n      mload(0x40)\n      dup1\n      swap2\n      sub\n      swap1\n      log3\n        /* \"@openzeppelin/contracts/token/ERC721/ERC721.sol\":12879:13156   */\n      pop\n      pop\n      pop\n      jump\t// out\n        /* \"@openzeppelin/contracts/token/ERC721/ERC721.sol\":6326:6593   */\n    tag_243:\n        /* \"@openzeppelin/contracts/token/ERC721/ERC721.sol\":6438:6466   */\n      tag_315\n        /* \"@openzeppelin/contracts/token/ERC721/ERC721.sol\":6448:6452   */\n      dup5\n        /* \"@openzeppelin/contracts/token/ERC721/ERC721.sol\":6454:6456   */\n      dup5\n        /* \"@openzeppelin/contracts/token/ERC721/ERC721.sol\":6458:6465   */\n      dup5\n        /* \"@openzeppelin/contracts/token/ERC721/ERC721.sol\":6438:6447   */\n      tag_181\n        /* \"@openzeppelin/contracts/token/ERC721/ERC721.sol\":6438:6466   */\n      jump\t// in\n    tag_315:\n        /* \"@openzeppelin/contracts/token/ERC721/ERC721.sol\":6484:6531   */\n      tag_316\n        /* \"@openzeppelin/contracts/token/ERC721/ERC721.sol\":6507:6511   */\n      dup5\n        /* \"@openzeppelin/contracts/token/ERC721/ERC721.sol\":6513:6515   */\n      dup5\n        /* \"@openzeppelin/contracts/token/ERC721/ERC721.sol\":6517:6524   */\n      dup5\n        /* \"@openzeppelin/contracts/token/ERC721/ERC721.sol\":6526:6530   */\n      dup5\n        /* \"@openzeppelin/contracts/token/ERC721/ERC721.sol\":6484:6506   */\n      tag_317\n        /* \"@openzeppelin/contracts/token/ERC721/ERC721.sol\":6484:6531   */\n      jump\t// in\n    tag_316:\n        /* \"@openzeppelin/contracts/token/ERC721/ERC721.sol\":6476:6586   */\n      tag_242\n      jumpi\n      mload(0x40)\n      shl(0xe5, 0x461bcd)\n      dup2\n      mstore\n        /* \"#utility.yul\":13677:13679   */\n      0x20\n        /* \"@openzeppelin/contracts/token/ERC721/ERC721.sol\":6476:6586   */\n      0x04\n      dup3\n      add\n        /* \"#utility.yul\":13659:13680   */\n      mstore\n        /* \"#utility.yul\":13716:13718   */\n      0x32\n        /* \"#utility.yul\":13696:13714   */\n      0x24\n      dup3\n      add\n        /* \"#utility.yul\":13689:13719   */\n      mstore\n        /* \"#utility.yul\":13755:13789   */\n      0x4552433732313a207472616e7366657220746f206e6f6e204552433732315265\n        /* \"#utility.yul\":13735:13753   */\n      0x44\n      dup3\n      add\n        /* \"#utility.yul\":13728:13790   */\n      mstore\n      shl(0x71, 0x31b2b4bb32b91034b6b83632b6b2b73a32b9)\n        /* \"#utility.yul\":13806:13824   */\n      0x64\n      dup3\n      add\n        /* \"#utility.yul\":13799:13847   */\n      mstore\n        /* \"#utility.yul\":13864:13883   */\n      0x84\n      add\n        /* \"@openzeppelin/contracts/token/ERC721/ERC721.sol\":6476:6586   */\n      tag_139\n        /* \"#utility.yul\":13475:13889   */\n      jump\n        /* \"@openzeppelin/contracts/utils/Strings.sol\":447:1143   */\n    tag_251:\n        /* \"@openzeppelin/contracts/utils/Strings.sol\":503:516   */\n      0x60\n        /* \"@openzeppelin/contracts/utils/Strings.sol\":552:566   */\n      0x00\n        /* \"@openzeppelin/contracts/utils/Strings.sol\":569:586   */\n      tag_323\n        /* \"@openzeppelin/contracts/utils/Strings.sol\":580:585   */\n      dup4\n        /* \"@openzeppelin/contracts/utils/Strings.sol\":569:579   */\n      tag_324\n        /* \"@openzeppelin/contracts/utils/Strings.sol\":569:586   */\n      jump\t// in\n    tag_323:\n        /* \"@openzeppelin/contracts/utils/Strings.sol\":589:590   */\n      0x01\n        /* \"@openzeppelin/contracts/utils/Strings.sol\":569:590   */\n      add\n        /* \"@openzeppelin/contracts/utils/Strings.sol\":552:590   */\n      swap1\n      pop\n        /* \"@openzeppelin/contracts/utils/Strings.sol\":604:624   */\n      0x00\n        /* \"@openzeppelin/contracts/utils/Strings.sol\":638:644   */\n      dup2\n        /* \"@openzeppelin/contracts/utils/Strings.sol\":627:645   */\n      0xffffffffffffffff\n      dup2\n      gt\n      iszero\n      tag_326\n      jumpi\n      tag_326\n      tag_327\n      jump\t// in\n    tag_326:\n      mload(0x40)\n      swap1\n      dup1\n      dup3\n      mstore\n      dup1\n      0x1f\n      add\n      not(0x1f)\n      and\n      0x20\n      add\n      dup3\n      add\n      0x40\n      mstore\n      dup1\n      iszero\n      tag_328\n      jumpi\n      0x20\n      dup3\n      add\n      dup2\n      dup1\n      calldatasize\n      dup4\n      calldatacopy\n      add\n      swap1\n      pop\n    tag_328:\n      pop\n        /* \"@openzeppelin/contracts/utils/Strings.sol\":604:645   */\n      swap1\n      pop\n        /* \"@openzeppelin/contracts/utils/Strings.sol\":765:793   */\n      dup2\n      dup2\n      add\n        /* \"@openzeppelin/contracts/utils/Strings.sol\":781:783   */\n      0x20\n        /* \"@openzeppelin/contracts/utils/Strings.sol\":765:793   */\n      add\n        /* \"@openzeppelin/contracts/utils/Strings.sol\":820:1100   */\n    tag_329:\n      not(0x00)\n        /* \"@openzeppelin/contracts/utils/Strings.sol\":851:856   */\n      add\n        /* \"@openzeppelin/contracts/utils/Strings.sol\":990:998   */\n      0x3031323334353637383961626364656600000000000000000000000000000000\n        /* \"@openzeppelin/contracts/utils/Strings.sol\":985:987   */\n      0x0a\n        /* \"@openzeppelin/contracts/utils/Strings.sol\":974:988   */\n      dup7\n      mod\n        /* \"@openzeppelin/contracts/utils/Strings.sol\":969:999   */\n      byte\n        /* \"@openzeppelin/contracts/utils/Strings.sol\":851:856   */\n      dup2\n        /* \"@openzeppelin/contracts/utils/Strings.sol\":956:1000   */\n      mstore8\n        /* \"@openzeppelin/contracts/utils/Strings.sol\":1044:1046   */\n      0x0a\n        /* \"@openzeppelin/contracts/utils/Strings.sol\":1035:1046   */\n      dup6\n      div\n      swap5\n      pop\n        /* \"@openzeppelin/contracts/utils/Strings.sol\":1064:1085   */\n      dup5\n        /* \"@openzeppelin/contracts/utils/Strings.sol\":820:1100   */\n      tag_329\n        /* \"@openzeppelin/contracts/utils/Strings.sol\":1064:1085   */\n      jumpi\n      pop\n        /* \"@openzeppelin/contracts/utils/Strings.sol\":1120:1126   */\n      swap4\n        /* \"@openzeppelin/contracts/utils/Strings.sol\":447:1143   */\n      swap3\n      pop\n      pop\n      pop\n      jump\t// out\n        /* \"@openzeppelin/contracts/token/ERC721/ERC721.sol\":8324:8603   */\n    tag_274:\n        /* \"@openzeppelin/contracts/token/ERC721/ERC721.sol\":8418:8436   */\n      tag_336\n        /* \"@openzeppelin/contracts/token/ERC721/ERC721.sol\":8424:8426   */\n      dup4\n        /* \"@openzeppelin/contracts/token/ERC721/ERC721.sol\":8428:8435   */\n      dup4\n        /* \"@openzeppelin/contracts/token/ERC721/ERC721.sol\":8418:8423   */\n      tag_337\n        /* \"@openzeppelin/contracts/token/ERC721/ERC721.sol\":8418:8436   */\n      jump\t// in\n    tag_336:\n        /* \"@openzeppelin/contracts/token/ERC721/ERC721.sol\":8467:8520   */\n      tag_338\n        /* \"@openzeppelin/contracts/token/ERC721/ERC721.sol\":8498:8499   */\n      0x00\n        /* \"@openzeppelin/contracts/token/ERC721/ERC721.sol\":8502:8504   */\n      dup5\n        /* \"@openzeppelin/contracts/token/ERC721/ERC721.sol\":8506:8513   */\n      dup5\n        /* \"@openzeppelin/contracts/token/ERC721/ERC721.sol\":8515:8519   */\n      dup5\n        /* \"@openzeppelin/contracts/token/ERC721/ERC721.sol\":8467:8489   */\n      tag_317\n        /* \"@openzeppelin/contracts/token/ERC721/ERC721.sol\":8467:8520   */\n      jump\t// in\n    tag_338:\n        /* \"@openzeppelin/contracts/token/ERC721/ERC721.sol\":8446:8596   */\n      tag_149\n      jumpi\n      mload(0x40)\n      shl(0xe5, 0x461bcd)\n      dup2\n      mstore\n        /* \"#utility.yul\":13677:13679   */\n      0x20\n        /* \"@openzeppelin/contracts/token/ERC721/ERC721.sol\":8446:8596   */\n      0x04\n      dup3\n      add\n        /* \"#utility.yul\":13659:13680   */\n      mstore\n        /* \"#utility.yul\":13716:13718   */\n      0x32\n        /* \"#utility.yul\":13696:13714   */\n      0x24\n      dup3\n      add\n        /* \"#utility.yul\":13689:13719   */\n      mstore\n        /* \"#utility.yul\":13755:13789   */\n      0x4552433732313a207472616e7366657220746f206e6f6e204552433732315265\n        /* \"#utility.yul\":13735:13753   */\n      0x44\n      dup3\n      add\n        /* \"#utility.yul\":13728:13790   */\n      mstore\n      shl(0x71, 0x31b2b4bb32b91034b6b83632b6b2b73a32b9)\n        /* \"#utility.yul\":13806:13824   */\n      0x64\n      dup3\n      add\n        /* \"#utility.yul\":13799:13847   */\n      mstore\n        /* \"#utility.yul\":13864:13883   */\n      0x84\n      add\n        /* \"@openzeppelin/contracts/token/ERC721/ERC721.sol\":8446:8596   */\n      tag_139\n        /* \"#utility.yul\":13475:13889   */\n      jump\n        /* \"@openzeppelin/contracts/token/ERC721/ERC721.sol\":13925:14756   */\n    tag_317:\n        /* \"@openzeppelin/contracts/token/ERC721/ERC721.sol\":14074:14078   */\n      0x00\n      sub(shl(0xa0, 0x01), 0x01)\n        /* \"@openzeppelin/contracts/token/ERC721/ERC721.sol\":14094:14107   */\n      dup5\n      and\n        /* \"@openzeppelin/contracts/utils/Address.sol\":1702:1721   */\n      extcodesize\n        /* \"@openzeppelin/contracts/utils/Address.sol\":1702:1725   */\n      iszero\n        /* \"@openzeppelin/contracts/token/ERC721/ERC721.sol\":14090:14750   */\n      tag_346\n      jumpi\n        /* \"@openzeppelin/contracts/token/ERC721/ERC721.sol\":14129:14200   */\n      mload(0x40)\n      shl(0xe1, 0x0a85bd01)\n      dup2\n      mstore\n      sub(shl(0xa0, 0x01), 0x01)\n        /* \"@openzeppelin/contracts/token/ERC721/ERC721.sol\":14129:14165   */\n      dup6\n      and\n      swap1\n      0x150b7a02\n      swap1\n        /* \"@openzeppelin/contracts/token/ERC721/ERC721.sol\":14129:14200   */\n      tag_348\n      swap1\n        /* \"@openzeppelin/contracts/utils/Context.sol\":734:744   */\n      caller\n      swap1\n        /* \"@openzeppelin/contracts/token/ERC721/ERC721.sol\":14180:14184   */\n      dup10\n      swap1\n        /* \"@openzeppelin/contracts/token/ERC721/ERC721.sol\":14186:14193   */\n      dup9\n      swap1\n        /* \"@openzeppelin/contracts/token/ERC721/ERC721.sol\":14195:14199   */\n      dup9\n      swap1\n        /* \"@openzeppelin/contracts/token/ERC721/ERC721.sol\":14129:14200   */\n      0x04\n      add\n      tag_349\n      jump\t// in\n    tag_348:\n      0x20\n      mload(0x40)\n      dup1\n      dup4\n      sub\n      dup2\n      0x00\n      dup8\n      gas\n      call\n      swap3\n      pop\n      pop\n      pop\n      dup1\n      iszero\n      tag_350\n      jumpi\n      pop\n      0x40\n      dup1\n      mload\n      0x1f\n      returndatasize\n      swap1\n      dup2\n      add\n      not(0x1f)\n      and\n      dup3\n      add\n      swap1\n      swap3\n      mstore\n      tag_351\n      swap2\n      dup2\n      add\n      swap1\n      tag_352\n      jump\t// in\n    tag_351:\n      0x01\n    tag_350:\n        /* \"@openzeppelin/contracts/token/ERC721/ERC721.sol\":14125:14698   */\n      tag_353\n      jumpi\n      returndatasize\n      dup1\n      dup1\n      iszero\n      tag_358\n      jumpi\n      mload(0x40)\n      swap2\n      pop\n      and(add(returndatasize, 0x3f), not(0x1f))\n      dup3\n      add\n      0x40\n      mstore\n      returndatasize\n      dup3\n      mstore\n      returndatasize\n      0x00\n      0x20\n      dup5\n      add\n      returndatacopy\n      jump(tag_357)\n    tag_358:\n      0x60\n      swap2\n      pop\n    tag_357:\n      pop\n        /* \"@openzeppelin/contracts/token/ERC721/ERC721.sol\":14367:14373   */\n      dup1\n        /* \"@openzeppelin/contracts/token/ERC721/ERC721.sol\":14367:14380   */\n      mload\n        /* \"@openzeppelin/contracts/token/ERC721/ERC721.sol\":14384:14385   */\n      0x00\n        /* \"@openzeppelin/contracts/token/ERC721/ERC721.sol\":14367:14385   */\n      sub\n        /* \"@openzeppelin/contracts/token/ERC721/ERC721.sol\":14363:14684   */\n      tag_359\n      jumpi\n        /* \"@openzeppelin/contracts/token/ERC721/ERC721.sol\":14409:14469   */\n      mload(0x40)\n      shl(0xe5, 0x461bcd)\n      dup2\n      mstore\n        /* \"#utility.yul\":13677:13679   */\n      0x20\n        /* \"@openzeppelin/contracts/token/ERC721/ERC721.sol\":14409:14469   */\n      0x04\n      dup3\n      add\n        /* \"#utility.yul\":13659:13680   */\n      mstore\n        /* \"#utility.yul\":13716:13718   */\n      0x32\n        /* \"#utility.yul\":13696:13714   */\n      0x24\n      dup3\n      add\n        /* \"#utility.yul\":13689:13719   */\n      mstore\n        /* \"#utility.yul\":13755:13789   */\n      0x4552433732313a207472616e7366657220746f206e6f6e204552433732315265\n        /* \"#utility.yul\":13735:13753   */\n      0x44\n      dup3\n      add\n        /* \"#utility.yul\":13728:13790   */\n      mstore\n      shl(0x71, 0x31b2b4bb32b91034b6b83632b6b2b73a32b9)\n        /* \"#utility.yul\":13806:13824   */\n      0x64\n      dup3\n      add\n        /* \"#utility.yul\":13799:13847   */\n      mstore\n        /* \"#utility.yul\":13864:13883   */\n      0x84\n      add\n        /* \"@openzeppelin/contracts/token/ERC721/ERC721.sol\":14409:14469   */\n      tag_139\n        /* \"#utility.yul\":13475:13889   */\n      jump\n        /* \"@openzeppelin/contracts/token/ERC721/ERC721.sol\":14363:14684   */\n    tag_359:\n        /* \"@openzeppelin/contracts/token/ERC721/ERC721.sol\":14636:14642   */\n      dup1\n        /* \"@openzeppelin/contracts/token/ERC721/ERC721.sol\":14630:14643   */\n      mload\n        /* \"@openzeppelin/contracts/token/ERC721/ERC721.sol\":14621:14627   */\n      dup2\n        /* \"@openzeppelin/contracts/token/ERC721/ERC721.sol\":14617:14619   */\n      0x20\n        /* \"@openzeppelin/contracts/token/ERC721/ERC721.sol\":14613:14628   */\n      add\n        /* \"@openzeppelin/contracts/token/ERC721/ERC721.sol\":14606:14644   */\n      revert\n        /* \"@openzeppelin/contracts/token/ERC721/ERC721.sol\":14125:14698   */\n    tag_353:\n      not(sub(shl(0xe0, 0x01), 0x01))\n        /* \"@openzeppelin/contracts/token/ERC721/ERC721.sol\":14250:14301   */\n      and\n      shl(0xe1, 0x0a85bd01)\n      eq\n      swap1\n      pop\n        /* \"@openzeppelin/contracts/token/ERC721/ERC721.sol\":14243:14301   */\n      jump(tag_279)\n        /* \"@openzeppelin/contracts/token/ERC721/ERC721.sol\":14090:14750   */\n    tag_346:\n      pop\n        /* \"@openzeppelin/contracts/token/ERC721/ERC721.sol\":14735:14739   */\n      0x01\n        /* \"@openzeppelin/contracts/token/ERC721/ERC721.sol\":13925:14756   */\n      swap5\n      swap4\n      pop\n      pop\n      pop\n      pop\n      jump\t// out\n        /* \"@openzeppelin/contracts/utils/math/Math.sol\":10139:11055   */\n    tag_324:\n        /* \"@openzeppelin/contracts/utils/math/Math.sol\":10192:10199   */\n      0x00\n      dup1\n        /* \"@openzeppelin/contracts/utils/math/Math.sol\":10276:10284   */\n      0x184f03e93ff9f4daa797ed6e38ed64bf6a1f010000000000000000\n        /* \"@openzeppelin/contracts/utils/math/Math.sol\":10267:10284   */\n      dup4\n      lt\n        /* \"@openzeppelin/contracts/utils/math/Math.sol\":10263:10366   */\n      tag_365\n      jumpi\n        /* \"@openzeppelin/contracts/utils/math/Math.sol\":10313:10321   */\n      0x184f03e93ff9f4daa797ed6e38ed64bf6a1f010000000000000000\n        /* \"@openzeppelin/contracts/utils/math/Math.sol\":10304:10321   */\n      dup4\n      div\n      swap3\n      pop\n        /* \"@openzeppelin/contracts/utils/math/Math.sol\":10349:10351   */\n      0x40\n        /* \"@openzeppelin/contracts/utils/math/Math.sol\":10339:10351   */\n      add\n        /* \"@openzeppelin/contracts/utils/math/Math.sol\":10263:10366   */\n    tag_365:\n        /* \"@openzeppelin/contracts/utils/math/Math.sol\":10392:10400   */\n      0x04ee2d6d415b85acef8100000000\n        /* \"@openzeppelin/contracts/utils/math/Math.sol\":10383:10388   */\n      dup4\n        /* \"@openzeppelin/contracts/utils/math/Math.sol\":10383:10400   */\n      lt\n        /* \"@openzeppelin/contracts/utils/math/Math.sol\":10379:10482   */\n      tag_368\n      jumpi\n        /* \"@openzeppelin/contracts/utils/math/Math.sol\":10429:10437   */\n      0x04ee2d6d415b85acef8100000000\n        /* \"@openzeppelin/contracts/utils/math/Math.sol\":10420:10437   */\n      dup4\n      div\n      swap3\n      pop\n        /* \"@openzeppelin/contracts/utils/math/Math.sol\":10465:10467   */\n      0x20\n        /* \"@openzeppelin/contracts/utils/math/Math.sol\":10455:10467   */\n      add\n        /* \"@openzeppelin/contracts/utils/math/Math.sol\":10379:10482   */\n    tag_368:\n        /* \"@openzeppelin/contracts/utils/math/Math.sol\":10508:10516   */\n      0x2386f26fc10000\n        /* \"@openzeppelin/contracts/utils/math/Math.sol\":10499:10504   */\n      dup4\n        /* \"@openzeppelin/contracts/utils/math/Math.sol\":10499:10516   */\n      lt\n        /* \"@openzeppelin/contracts/utils/math/Math.sol\":10495:10598   */\n      tag_371\n      jumpi\n        /* \"@openzeppelin/contracts/utils/math/Math.sol\":10545:10553   */\n      0x2386f26fc10000\n        /* \"@openzeppelin/contracts/utils/math/Math.sol\":10536:10553   */\n      dup4\n      div\n      swap3\n      pop\n        /* \"@openzeppelin/contracts/utils/math/Math.sol\":10581:10583   */\n      0x10\n        /* \"@openzeppelin/contracts/utils/math/Math.sol\":10571:10583   */\n      add\n        /* \"@openzeppelin/contracts/utils/math/Math.sol\":10495:10598   */\n    tag_371:\n        /* \"@openzeppelin/contracts/utils/math/Math.sol\":10624:10631   */\n      0x05f5e100\n        /* \"@openzeppelin/contracts/utils/math/Math.sol\":10615:10620   */\n      dup4\n        /* \"@openzeppelin/contracts/utils/math/Math.sol\":10615:10631   */\n      lt\n        /* \"@openzeppelin/contracts/utils/math/Math.sol\":10611:10711   */\n      tag_374\n      jumpi\n        /* \"@openzeppelin/contracts/utils/math/Math.sol\":10660:10667   */\n      0x05f5e100\n        /* \"@openzeppelin/contracts/utils/math/Math.sol\":10651:10667   */\n      dup4\n      div\n      swap3\n      pop\n        /* \"@openzeppelin/contracts/utils/math/Math.sol\":10695:10696   */\n      0x08\n        /* \"@openzeppelin/contracts/utils/math/Math.sol\":10685:10696   */\n      add\n        /* \"@openzeppelin/contracts/utils/math/Math.sol\":10611:10711   */\n    tag_374:\n        /* \"@openzeppelin/contracts/utils/math/Math.sol\":10737:10744   */\n      0x2710\n        /* \"@openzeppelin/contracts/utils/math/Math.sol\":10728:10733   */\n      dup4\n        /* \"@openzeppelin/contracts/utils/math/Math.sol\":10728:10744   */\n      lt\n        /* \"@openzeppelin/contracts/utils/math/Math.sol\":10724:10824   */\n      tag_377\n      jumpi\n        /* \"@openzeppelin/contracts/utils/math/Math.sol\":10773:10780   */\n      0x2710\n        /* \"@openzeppelin/contracts/utils/math/Math.sol\":10764:10780   */\n      dup4\n      div\n      swap3\n      pop\n        /* \"@openzeppelin/contracts/utils/math/Math.sol\":10808:10809   */\n      0x04\n        /* \"@openzeppelin/contracts/utils/math/Math.sol\":10798:10809   */\n      add\n        /* \"@openzeppelin/contracts/utils/math/Math.sol\":10724:10824   */\n    tag_377:\n        /* \"@openzeppelin/contracts/utils/math/Math.sol\":10850:10857   */\n      0x64\n        /* \"@openzeppelin/contracts/utils/math/Math.sol\":10841:10846   */\n      dup4\n        /* \"@openzeppelin/contracts/utils/math/Math.sol\":10841:10857   */\n      lt\n        /* \"@openzeppelin/contracts/utils/math/Math.sol\":10837:10937   */\n      tag_380\n      jumpi\n        /* \"@openzeppelin/contracts/utils/math/Math.sol\":10886:10893   */\n      0x64\n        /* \"@openzeppelin/contracts/utils/math/Math.sol\":10877:10893   */\n      dup4\n      div\n      swap3\n      pop\n        /* \"@openzeppelin/contracts/utils/math/Math.sol\":10921:10922   */\n      0x02\n        /* \"@openzeppelin/contracts/utils/math/Math.sol\":10911:10922   */\n      add\n        /* \"@openzeppelin/contracts/utils/math/Math.sol\":10837:10937   */\n    tag_380:\n        /* \"@openzeppelin/contracts/utils/math/Math.sol\":10963:10970   */\n      0x0a\n        /* \"@openzeppelin/contracts/utils/math/Math.sol\":10954:10959   */\n      dup4\n        /* \"@openzeppelin/contracts/utils/math/Math.sol\":10954:10970   */\n      lt\n        /* \"@openzeppelin/contracts/utils/math/Math.sol\":10950:11016   */\n      tag_124\n      jumpi\n        /* \"@openzeppelin/contracts/utils/math/Math.sol\":11000:11001   */\n      0x01\n        /* \"@openzeppelin/contracts/utils/math/Math.sol\":10990:11001   */\n      add\n        /* \"@openzeppelin/contracts/utils/math/Math.sol\":11042:11048   */\n      swap3\n        /* \"@openzeppelin/contracts/utils/math/Math.sol\":10139:11055   */\n      swap2\n      pop\n      pop\n      jump\t// out\n        /* \"@openzeppelin/contracts/token/ERC721/ERC721.sol\":8925:9845   */\n    tag_337:\n      sub(shl(0xa0, 0x01), 0x01)\n        /* \"@openzeppelin/contracts/token/ERC721/ERC721.sol\":9004:9020   */\n      dup3\n      and\n        /* \"@openzeppelin/contracts/token/ERC721/ERC721.sol\":8996:9057   */\n      tag_385\n      jumpi\n      mload(0x40)\n      shl(0xe5, 0x461bcd)\n      dup2\n      mstore\n        /* \"#utility.yul\":15010:15012   */\n      0x20\n        /* \"@openzeppelin/contracts/token/ERC721/ERC721.sol\":8996:9057   */\n      0x04\n      dup3\n      add\n        /* \"#utility.yul\":14992:15013   */\n      dup2\n      swap1\n      mstore\n        /* \"#utility.yul\":15029:15047   */\n      0x24\n      dup3\n      add\n        /* \"#utility.yul\":15022:15052   */\n      mstore\n        /* \"#utility.yul\":15088:15122   */\n      0x4552433732313a206d696e7420746f20746865207a65726f2061646472657373\n        /* \"#utility.yul\":15068:15086   */\n      0x44\n      dup3\n      add\n        /* \"#utility.yul\":15061:15123   */\n      mstore\n        /* \"#utility.yul\":15140:15158   */\n      0x64\n      add\n        /* \"@openzeppelin/contracts/token/ERC721/ERC721.sol\":8996:9057   */\n      tag_139\n        /* \"#utility.yul\":14808:15164   */\n      jump\n        /* \"@openzeppelin/contracts/token/ERC721/ERC721.sol\":8996:9057   */\n    tag_385:\n        /* \"@openzeppelin/contracts/token/ERC721/ERC721.sol\":7185:7189   */\n      0x00\n        /* \"@openzeppelin/contracts/token/ERC721/ERC721.sol\":6794:6810   */\n      dup2\n      dup2\n      mstore\n        /* \"@openzeppelin/contracts/token/ERC721/ERC721.sol\":6794:6801   */\n      0x02\n        /* \"@openzeppelin/contracts/token/ERC721/ERC721.sol\":6794:6810   */\n      0x20\n      mstore\n      0x40\n      swap1\n      keccak256\n      sload\n      sub(shl(0xa0, 0x01), 0x01)\n      and\n        /* \"@openzeppelin/contracts/token/ERC721/ERC721.sol\":7208:7239   */\n      iszero\n        /* \"@openzeppelin/contracts/token/ERC721/ERC721.sol\":9067:9125   */\n      tag_389\n      jumpi\n      mload(0x40)\n      shl(0xe5, 0x461bcd)\n      dup2\n      mstore\n        /* \"#utility.yul\":15371:15373   */\n      0x20\n        /* \"@openzeppelin/contracts/token/ERC721/ERC721.sol\":9067:9125   */\n      0x04\n      dup3\n      add\n        /* \"#utility.yul\":15353:15374   */\n      mstore\n        /* \"#utility.yul\":15410:15412   */\n      0x1c\n        /* \"#utility.yul\":15390:15408   */\n      0x24\n      dup3\n      add\n        /* \"#utility.yul\":15383:15413   */\n      mstore\n        /* \"#utility.yul\":15449:15479   */\n      0x4552433732313a20746f6b656e20616c7265616479206d696e74656400000000\n        /* \"#utility.yul\":15429:15447   */\n      0x44\n      dup3\n      add\n        /* \"#utility.yul\":15422:15480   */\n      mstore\n        /* \"#utility.yul\":15497:15515   */\n      0x64\n      add\n        /* \"@openzeppelin/contracts/token/ERC721/ERC721.sol\":9067:9125   */\n      tag_139\n        /* \"#utility.yul\":15169:15521   */\n      jump\n        /* \"@openzeppelin/contracts/token/ERC721/ERC721.sol\":9067:9125   */\n    tag_389:\n        /* \"@openzeppelin/contracts/token/ERC721/ERC721.sol\":7185:7189   */\n      0x00\n        /* \"@openzeppelin/contracts/token/ERC721/ERC721.sol\":6794:6810   */\n      dup2\n      dup2\n      mstore\n        /* \"@openzeppelin/contracts/token/ERC721/ERC721.sol\":6794:6801   */\n      0x02\n        /* \"@openzeppelin/contracts/token/ERC721/ERC721.sol\":6794:6810   */\n      0x20\n      mstore\n      0x40\n      swap1\n      keccak256\n      sload\n      sub(shl(0xa0, 0x01), 0x01)\n      and\n        /* \"@openzeppelin/contracts/token/ERC721/ERC721.sol\":7208:7239   */\n      iszero\n        /* \"@openzeppelin/contracts/token/ERC721/ERC721.sol\":9271:9329   */\n      tag_394\n      jumpi\n      mload(0x40)\n      shl(0xe5, 0x461bcd)\n      dup2\n      mstore\n        /* \"#utility.yul\":15371:15373   */\n      0x20\n        /* \"@openzeppelin/contracts/token/ERC721/ERC721.sol\":9271:9329   */\n      0x04\n      dup3\n      add\n        /* \"#utility.yul\":15353:15374   */\n      mstore\n        /* \"#utility.yul\":15410:15412   */\n      0x1c\n        /* \"#utility.yul\":15390:15408   */\n      0x24\n      dup3\n      add\n        /* \"#utility.yul\":15383:15413   */\n      mstore\n        /* \"#utility.yul\":15449:15479   */\n      0x4552433732313a20746f6b656e20616c7265616479206d696e74656400000000\n        /* \"#utility.yul\":15429:15447   */\n      0x44\n      dup3\n      add\n        /* \"#utility.yul\":15422:15480   */\n      mstore\n        /* \"#utility.yul\":15497:15515   */\n      0x64\n      add\n        /* \"@openzeppelin/contracts/token/ERC721/ERC721.sol\":9271:9329   */\n      tag_139\n        /* \"#utility.yul\":15169:15521   */\n      jump\n        /* \"@openzeppelin/contracts/token/ERC721/ERC721.sol\":9271:9329   */\n    tag_394:\n      sub(shl(0xa0, 0x01), 0x01)\n        /* \"@openzeppelin/contracts/token/ERC721/ERC721.sol\":9671:9684   */\n      dup3\n      and\n      0x00\n      dup2\n      dup2\n      mstore\n        /* \"@openzeppelin/contracts/token/ERC721/ERC721.sol\":9671:9680   */\n      0x03\n        /* \"@openzeppelin/contracts/token/ERC721/ERC721.sol\":9671:9684   */\n      0x20\n      swap1\n      dup2\n      mstore\n      0x40\n      dup1\n      dup4\n      keccak256\n        /* \"@openzeppelin/contracts/token/ERC721/ERC721.sol\":9671:9689   */\n      dup1\n      sload\n        /* \"@openzeppelin/contracts/token/ERC721/ERC721.sol\":9688:9689   */\n      0x01\n        /* \"@openzeppelin/contracts/token/ERC721/ERC721.sol\":9671:9689   */\n      add\n      swap1\n      sstore\n        /* \"@openzeppelin/contracts/token/ERC721/ERC721.sol\":9710:9726   */\n      dup5\n      dup4\n      mstore\n        /* \"@openzeppelin/contracts/token/ERC721/ERC721.sol\":9710:9717   */\n      0x02\n        /* \"@openzeppelin/contracts/token/ERC721/ERC721.sol\":9710:9726   */\n      swap1\n      swap2\n      mstore\n      dup1\n      dup3\n      keccak256\n        /* \"@openzeppelin/contracts/token/ERC721/ERC721.sol\":9710:9731   */\n      dup1\n      sload\n      not(sub(shl(0xa0, 0x01), 0x01))\n      and\n      dup5\n      or\n      swap1\n      sstore\n        /* \"@openzeppelin/contracts/token/ERC721/ERC721.sol\":9747:9780   */\n      mload\n        /* \"@openzeppelin/contracts/token/ERC721/ERC721.sol\":9718:9725   */\n      dup4\n      swap3\n        /* \"@openzeppelin/contracts/token/ERC721/ERC721.sol\":9671:9684   */\n      swap2\n      swap1\n        /* \"@openzeppelin/contracts/token/ERC721/ERC721.sol\":9747:9780   */\n      0xddf252ad1be2c89b69c2b068fc378daa952ba7f163c4a11628f55a4df523b3ef\n      swap1\n        /* \"@openzeppelin/contracts/token/ERC721/ERC721.sol\":9671:9684   */\n      dup3\n      swap1\n        /* \"@openzeppelin/contracts/token/ERC721/ERC721.sol\":9747:9780   */\n      log4\n        /* \"@openzeppelin/contracts/token/ERC721/ERC721.sol\":4169:4322   */\n      pop\n      pop\n      jump\t// out\n        /* \"#utility.yul\":14:145   */\n    tag_398:\n      not(sub(shl(0xe0, 0x01), 0x01))\n        /* \"#utility.yul\":88:120   */\n      dup2\n      and\n        /* \"#utility.yul\":78:121   */\n      dup2\n      eq\n        /* \"#utility.yul\":68:139   */\n      tag_261\n      jumpi\n        /* \"#utility.yul\":135:136   */\n      0x00\n        /* \"#utility.yul\":132:133   */\n      dup1\n        /* \"#utility.yul\":125:137   */\n      revert\n        /* \"#utility.yul\":150:395   */\n    tag_35:\n        /* \"#utility.yul\":208:214   */\n      0x00\n        /* \"#utility.yul\":261:263   */\n      0x20\n        /* \"#utility.yul\":249:258   */\n      dup3\n        /* \"#utility.yul\":240:247   */\n      dup5\n        /* \"#utility.yul\":236:259   */\n      sub\n        /* \"#utility.yul\":232:264   */\n      slt\n        /* \"#utility.yul\":229:281   */\n      iszero\n      tag_406\n      jumpi\n        /* \"#utility.yul\":277:278   */\n      0x00\n        /* \"#utility.yul\":274:275   */\n      dup1\n        /* \"#utility.yul\":267:279   */\n      revert\n        /* \"#utility.yul\":229:281   */\n    tag_406:\n        /* \"#utility.yul\":316:325   */\n      dup2\n        /* \"#utility.yul\":303:326   */\n      calldataload\n        /* \"#utility.yul\":335:365   */\n      tag_249\n        /* \"#utility.yul\":359:364   */\n      dup2\n        /* \"#utility.yul\":335:365   */\n      tag_398\n      jump\t// in\n        /* \"#utility.yul\":592:892   */\n    tag_399:\n        /* \"#utility.yul\":645:648   */\n      0x00\n        /* \"#utility.yul\":683:688   */\n      dup2\n        /* \"#utility.yul\":677:689   */\n      mload\n        /* \"#utility.yul\":710:716   */\n      dup1\n        /* \"#utility.yul\":705:708   */\n      dup5\n        /* \"#utility.yul\":698:717   */\n      mstore\n        /* \"#utility.yul\":766:772   */\n      dup1\n        /* \"#utility.yul\":759:763   */\n      0x20\n        /* \"#utility.yul\":752:757   */\n      dup5\n        /* \"#utility.yul\":748:764   */\n      add\n        /* \"#utility.yul\":741:745   */\n      0x20\n        /* \"#utility.yul\":736:739   */\n      dup7\n        /* \"#utility.yul\":732:746   */\n      add\n        /* \"#utility.yul\":726:773   */\n      mcopy\n        /* \"#utility.yul\":818:819   */\n      0x00\n        /* \"#utility.yul\":811:815   */\n      0x20\n        /* \"#utility.yul\":802:808   */\n      dup3\n        /* \"#utility.yul\":797:800   */\n      dup7\n        /* \"#utility.yul\":793:809   */\n      add\n        /* \"#utility.yul\":789:816   */\n      add\n        /* \"#utility.yul\":782:820   */\n      mstore\n        /* \"#utility.yul\":881:885   */\n      0x20\n        /* \"#utility.yul\":874:876   */\n      0x1f\n        /* \"#utility.yul\":870:877   */\n      not\n        /* \"#utility.yul\":865:867   */\n      0x1f\n        /* \"#utility.yul\":857:863   */\n      dup4\n        /* \"#utility.yul\":853:868   */\n      add\n        /* \"#utility.yul\":849:878   */\n      and\n        /* \"#utility.yul\":844:847   */\n      dup6\n        /* \"#utility.yul\":840:879   */\n      add\n        /* \"#utility.yul\":836:886   */\n      add\n        /* \"#utility.yul\":829:886   */\n      swap2\n      pop\n      pop\n        /* \"#utility.yul\":592:892   */\n      swap3\n      swap2\n      pop\n      pop\n      jump\t// out\n        /* \"#utility.yul\":897:1128   */\n    tag_42:\n        /* \"#utility.yul\":1046:1048   */\n      0x20\n        /* \"#utility.yul\":1035:1044   */\n      dup2\n        /* \"#utility.yul\":1028:1049   */\n      mstore\n        /* \"#utility.yul\":1009:1013   */\n      0x00\n        /* \"#utility.yul\":1066:1122   */\n      tag_249\n        /* \"#utility.yul\":1118:1120   */\n      0x20\n        /* \"#utility.yul\":1107:1116   */\n      dup4\n        /* \"#utility.yul\":1103:1121   */\n      add\n        /* \"#utility.yul\":1095:1101   */\n      dup5\n        /* \"#utility.yul\":1066:1122   */\n      tag_399\n      jump\t// in\n        /* \"#utility.yul\":1133:1313   */\n    tag_45:\n        /* \"#utility.yul\":1192:1198   */\n      0x00\n        /* \"#utility.yul\":1245:1247   */\n      0x20\n        /* \"#utility.yul\":1233:1242   */\n      dup3\n        /* \"#utility.yul\":1224:1231   */\n      dup5\n        /* \"#utility.yul\":1220:1243   */\n      sub\n        /* \"#utility.yul\":1216:1248   */\n      slt\n        /* \"#utility.yul\":1213:1265   */\n      iszero\n      tag_413\n      jumpi\n        /* \"#utility.yul\":1261:1262   */\n      0x00\n        /* \"#utility.yul\":1258:1259   */\n      dup1\n        /* \"#utility.yul\":1251:1263   */\n      revert\n        /* \"#utility.yul\":1213:1265   */\n    tag_413:\n      pop\n        /* \"#utility.yul\":1284:1307   */\n      calldataload\n      swap2\n        /* \"#utility.yul\":1133:1313   */\n      swap1\n      pop\n      jump\t// out\n        /* \"#utility.yul\":1549:1703   */\n    tag_400:\n      sub(shl(0xa0, 0x01), 0x01)\n        /* \"#utility.yul\":1628:1633   */\n      dup2\n        /* \"#utility.yul\":1624:1678   */\n      and\n        /* \"#utility.yul\":1617:1622   */\n      dup2\n        /* \"#utility.yul\":1614:1679   */\n      eq\n        /* \"#utility.yul\":1604:1697   */\n      tag_261\n      jumpi\n        /* \"#utility.yul\":1693:1694   */\n      0x00\n        /* \"#utility.yul\":1690:1691   */\n      dup1\n        /* \"#utility.yul\":1683:1695   */\n      revert\n        /* \"#utility.yul\":1708:2023   */\n    tag_51:\n        /* \"#utility.yul\":1776:1782   */\n      0x00\n        /* \"#utility.yul\":1784:1790   */\n      dup1\n        /* \"#utility.yul\":1837:1839   */\n      0x40\n        /* \"#utility.yul\":1825:1834   */\n      dup4\n        /* \"#utility.yul\":1816:1823   */\n      dup6\n        /* \"#utility.yul\":1812:1835   */\n      sub\n        /* \"#utility.yul\":1808:1840   */\n      slt\n        /* \"#utility.yul\":1805:1857   */\n      iszero\n      tag_418\n      jumpi\n        /* \"#utility.yul\":1853:1854   */\n      0x00\n        /* \"#utility.yul\":1850:1851   */\n      dup1\n        /* \"#utility.yul\":1843:1855   */\n      revert\n        /* \"#utility.yul\":1805:1857   */\n    tag_418:\n        /* \"#utility.yul\":1892:1901   */\n      dup3\n        /* \"#utility.yul\":1879:1902   */\n      calldataload\n        /* \"#utility.yul\":1911:1942   */\n      tag_419\n        /* \"#utility.yul\":1936:1941   */\n      dup2\n        /* \"#utility.yul\":1911:1942   */\n      tag_400\n      jump\t// in\n    tag_419:\n        /* \"#utility.yul\":1961:1966   */\n      swap5\n        /* \"#utility.yul\":2013:2015   */\n      0x20\n        /* \"#utility.yul\":1998:2016   */\n      swap4\n      swap1\n      swap4\n      add\n        /* \"#utility.yul\":1985:2017   */\n      calldataload\n      swap4\n      pop\n      pop\n      pop\n        /* \"#utility.yul\":1708:2023   */\n      jump\t// out\n        /* \"#utility.yul\":2028:2343   */\n    tag_55:\n        /* \"#utility.yul\":2096:2102   */\n      0x00\n        /* \"#utility.yul\":2104:2110   */\n      dup1\n        /* \"#utility.yul\":2157:2159   */\n      0x40\n        /* \"#utility.yul\":2145:2154   */\n      dup4\n        /* \"#utility.yul\":2136:2143   */\n      dup6\n        /* \"#utility.yul\":2132:2155   */\n      sub\n        /* \"#utility.yul\":2128:2160   */\n      slt\n        /* \"#utility.yul\":2125:2177   */\n      iszero\n      tag_421\n      jumpi\n        /* \"#utility.yul\":2173:2174   */\n      0x00\n        /* \"#utility.yul\":2170:2171   */\n      dup1\n        /* \"#utility.yul\":2163:2175   */\n      revert\n        /* \"#utility.yul\":2125:2177   */\n    tag_421:\n        /* \"#utility.yul\":2209:2218   */\n      dup3\n        /* \"#utility.yul\":2196:2219   */\n      calldataload\n        /* \"#utility.yul\":2186:2219   */\n      swap2\n      pop\n        /* \"#utility.yul\":2269:2271   */\n      0x20\n        /* \"#utility.yul\":2258:2267   */\n      dup4\n        /* \"#utility.yul\":2254:2272   */\n      add\n        /* \"#utility.yul\":2241:2273   */\n      calldataload\n        /* \"#utility.yul\":2282:2313   */\n      tag_422\n        /* \"#utility.yul\":2307:2312   */\n      dup2\n        /* \"#utility.yul\":2282:2313   */\n      tag_400\n      jump\t// in\n    tag_422:\n        /* \"#utility.yul\":2332:2337   */\n      dup1\n        /* \"#utility.yul\":2322:2337   */\n      swap2\n      pop\n      pop\n        /* \"#utility.yul\":2028:2343   */\n      swap3\n      pop\n      swap3\n      swap1\n      pop\n      jump\t// out\n        /* \"#utility.yul\":2348:2804   */\n    tag_59:\n        /* \"#utility.yul\":2425:2431   */\n      0x00\n        /* \"#utility.yul\":2433:2439   */\n      dup1\n        /* \"#utility.yul\":2441:2447   */\n      0x00\n        /* \"#utility.yul\":2494:2496   */\n      0x60\n        /* \"#utility.yul\":2482:2491   */\n      dup5\n        /* \"#utility.yul\":2473:2480   */\n      dup7\n        /* \"#utility.yul\":2469:2492   */\n      sub\n        /* \"#utility.yul\":2465:2497   */\n      slt\n        /* \"#utility.yul\":2462:2514   */\n      iszero\n      tag_424\n      jumpi\n        /* \"#utility.yul\":2510:2511   */\n      0x00\n        /* \"#utility.yul\":2507:2508   */\n      dup1\n        /* \"#utility.yul\":2500:2512   */\n      revert\n        /* \"#utility.yul\":2462:2514   */\n    tag_424:\n        /* \"#utility.yul\":2549:2558   */\n      dup4\n        /* \"#utility.yul\":2536:2559   */\n      calldataload\n        /* \"#utility.yul\":2568:2599   */\n      tag_425\n        /* \"#utility.yul\":2593:2598   */\n      dup2\n        /* \"#utility.yul\":2568:2599   */\n      tag_400\n      jump\t// in\n    tag_425:\n        /* \"#utility.yul\":2618:2623   */\n      swap3\n      pop\n        /* \"#utility.yul\":2675:2677   */\n      0x20\n        /* \"#utility.yul\":2660:2678   */\n      dup5\n      add\n        /* \"#utility.yul\":2647:2679   */\n      calldataload\n        /* \"#utility.yul\":2688:2721   */\n      tag_426\n        /* \"#utility.yul\":2647:2679   */\n      dup2\n        /* \"#utility.yul\":2688:2721   */\n      tag_400\n      jump\t// in\n    tag_426:\n        /* \"#utility.yul\":2348:2804   */\n      swap3\n      swap6\n        /* \"#utility.yul\":2740:2747   */\n      swap3\n      swap5\n      pop\n      pop\n      pop\n        /* \"#utility.yul\":2794:2796   */\n      0x40\n        /* \"#utility.yul\":2779:2797   */\n      swap2\n      swap1\n      swap2\n      add\n        /* \"#utility.yul\":2766:2798   */\n      calldataload\n      swap1\n        /* \"#utility.yul\":2348:2804   */\n      jump\t// out\n        /* \"#utility.yul\":2809:3056   */\n    tag_76:\n        /* \"#utility.yul\":2868:2874   */\n      0x00\n        /* \"#utility.yul\":2921:2923   */\n      0x20\n        /* \"#utility.yul\":2909:2918   */\n      dup3\n        /* \"#utility.yul\":2900:2907   */\n      dup5\n        /* \"#utility.yul\":2896:2919   */\n      sub\n        /* \"#utility.yul\":2892:2924   */\n      slt\n        /* \"#utility.yul\":2889:2941   */\n      iszero\n      tag_428\n      jumpi\n        /* \"#utility.yul\":2937:2938   */\n      0x00\n        /* \"#utility.yul\":2934:2935   */\n      dup1\n        /* \"#utility.yul\":2927:2939   */\n      revert\n        /* \"#utility.yul\":2889:2941   */\n    tag_428:\n        /* \"#utility.yul\":2976:2985   */\n      dup2\n        /* \"#utility.yul\":2963:2986   */\n      calldataload\n        /* \"#utility.yul\":2995:3026   */\n      tag_249\n        /* \"#utility.yul\":3020:3025   */\n      dup2\n        /* \"#utility.yul\":2995:3026   */\n      tag_400\n      jump\t// in\n        /* \"#utility.yul\":3243:3659   */\n    tag_96:\n        /* \"#utility.yul\":3308:3314   */\n      0x00\n        /* \"#utility.yul\":3316:3322   */\n      dup1\n        /* \"#utility.yul\":3369:3371   */\n      0x40\n        /* \"#utility.yul\":3357:3366   */\n      dup4\n        /* \"#utility.yul\":3348:3355   */\n      dup6\n        /* \"#utility.yul\":3344:3367   */\n      sub\n        /* \"#utility.yul\":3340:3372   */\n      slt\n        /* \"#utility.yul\":3337:3389   */\n      iszero\n      tag_432\n      jumpi\n        /* \"#utility.yul\":3385:3386   */\n      0x00\n        /* \"#utility.yul\":3382:3383   */\n      dup1\n        /* \"#utility.yul\":3375:3387   */\n      revert\n        /* \"#utility.yul\":3337:3389   */\n    tag_432:\n        /* \"#utility.yul\":3424:3433   */\n      dup3\n        /* \"#utility.yul\":3411:3434   */\n      calldataload\n        /* \"#utility.yul\":3443:3474   */\n      tag_433\n        /* \"#utility.yul\":3468:3473   */\n      dup2\n        /* \"#utility.yul\":3443:3474   */\n      tag_400\n      jump\t// in\n    tag_433:\n        /* \"#utility.yul\":3493:3498   */\n      swap2\n      pop\n        /* \"#utility.yul\":3550:3552   */\n      0x20\n        /* \"#utility.yul\":3535:3553   */\n      dup4\n      add\n        /* \"#utility.yul\":3522:3554   */\n      calldataload\n        /* \"#utility.yul\":3592:3607   */\n      dup1\n      iszero\n        /* \"#utility.yul\":3585:3608   */\n      iszero\n        /* \"#utility.yul\":3573:3609   */\n      dup2\n      eq\n        /* \"#utility.yul\":3563:3627   */\n      tag_422\n      jumpi\n        /* \"#utility.yul\":3623:3624   */\n      0x00\n        /* \"#utility.yul\":3620:3621   */\n      dup1\n        /* \"#utility.yul\":3613:3625   */\n      revert\n        /* \"#utility.yul\":3664:3791   */\n    tag_327:\n        /* \"#utility.yul\":3725:3735   */\n      0x4e487b71\n        /* \"#utility.yul\":3720:3723   */\n      0xe0\n        /* \"#utility.yul\":3716:3736   */\n      shl\n        /* \"#utility.yul\":3713:3714   */\n      0x00\n        /* \"#utility.yul\":3706:3737   */\n      mstore\n        /* \"#utility.yul\":3756:3760   */\n      0x41\n        /* \"#utility.yul\":3753:3754   */\n      0x04\n        /* \"#utility.yul\":3746:3761   */\n      mstore\n        /* \"#utility.yul\":3780:3784   */\n      0x24\n        /* \"#utility.yul\":3777:3778   */\n      0x00\n        /* \"#utility.yul\":3770:3785   */\n      revert\n        /* \"#utility.yul\":3796:5062   */\n    tag_100:\n        /* \"#utility.yul\":3891:3897   */\n      0x00\n        /* \"#utility.yul\":3899:3905   */\n      dup1\n        /* \"#utility.yul\":3907:3913   */\n      0x00\n        /* \"#utility.yul\":3915:3921   */\n      dup1\n        /* \"#utility.yul\":3968:3971   */\n      0x80\n        /* \"#utility.yul\":3956:3965   */\n      dup6\n        /* \"#utility.yul\":3947:3954   */\n      dup8\n        /* \"#utility.yul\":3943:3966   */\n      sub\n        /* \"#utility.yul\":3939:3972   */\n      slt\n        /* \"#utility.yul\":3936:3989   */\n      iszero\n      tag_437\n      jumpi\n        /* \"#utility.yul\":3985:3986   */\n      0x00\n        /* \"#utility.yul\":3982:3983   */\n      dup1\n        /* \"#utility.yul\":3975:3987   */\n      revert\n        /* \"#utility.yul\":3936:3989   */\n    tag_437:\n        /* \"#utility.yul\":4024:4033   */\n      dup5\n        /* \"#utility.yul\":4011:4034   */\n      calldataload\n        /* \"#utility.yul\":4043:4074   */\n      tag_438\n        /* \"#utility.yul\":4068:4073   */\n      dup2\n        /* \"#utility.yul\":4043:4074   */\n      tag_400\n      jump\t// in\n    tag_438:\n        /* \"#utility.yul\":4093:4098   */\n      swap4\n      pop\n        /* \"#utility.yul\":4150:4152   */\n      0x20\n        /* \"#utility.yul\":4135:4153   */\n      dup6\n      add\n        /* \"#utility.yul\":4122:4154   */\n      calldataload\n        /* \"#utility.yul\":4163:4196   */\n      tag_439\n        /* \"#utility.yul\":4122:4154   */\n      dup2\n        /* \"#utility.yul\":4163:4196   */\n      tag_400\n      jump\t// in\n    tag_439:\n        /* \"#utility.yul\":4215:4222   */\n      swap3\n      pop\n        /* \"#utility.yul\":4269:4271   */\n      0x40\n        /* \"#utility.yul\":4254:4272   */\n      dup6\n      add\n        /* \"#utility.yul\":4241:4273   */\n      calldataload\n      swap2\n      pop\n        /* \"#utility.yul\":4324:4326   */\n      0x60\n        /* \"#utility.yul\":4309:4327   */\n      dup6\n      add\n        /* \"#utility.yul\":4296:4328   */\n      calldataload\n        /* \"#utility.yul\":4347:4365   */\n      0xffffffffffffffff\n        /* \"#utility.yul\":4377:4391   */\n      dup1\n      dup3\n      gt\n        /* \"#utility.yul\":4374:4408   */\n      iszero\n      tag_440\n      jumpi\n        /* \"#utility.yul\":4404:4405   */\n      0x00\n        /* \"#utility.yul\":4401:4402   */\n      dup1\n        /* \"#utility.yul\":4394:4406   */\n      revert\n        /* \"#utility.yul\":4374:4408   */\n    tag_440:\n        /* \"#utility.yul\":4442:4448   */\n      dup2\n        /* \"#utility.yul\":4431:4440   */\n      dup8\n        /* \"#utility.yul\":4427:4449   */\n      add\n        /* \"#utility.yul\":4417:4449   */\n      swap2\n      pop\n        /* \"#utility.yul\":4487:4494   */\n      dup8\n        /* \"#utility.yul\":4480:4484   */\n      0x1f\n        /* \"#utility.yul\":4476:4478   */\n      dup4\n        /* \"#utility.yul\":4472:4485   */\n      add\n        /* \"#utility.yul\":4468:4495   */\n      slt\n        /* \"#utility.yul\":4458:4513   */\n      tag_441\n      jumpi\n        /* \"#utility.yul\":4509:4510   */\n      0x00\n        /* \"#utility.yul\":4506:4507   */\n      dup1\n        /* \"#utility.yul\":4499:4511   */\n      revert\n        /* \"#utility.yul\":4458:4513   */\n    tag_441:\n        /* \"#utility.yul\":4545:4547   */\n      dup2\n        /* \"#utility.yul\":4532:4548   */\n      calldataload\n        /* \"#utility.yul\":4567:4569   */\n      dup2\n        /* \"#utility.yul\":4563:4565   */\n      dup2\n        /* \"#utility.yul\":4560:4570   */\n      gt\n        /* \"#utility.yul\":4557:4593   */\n      iszero\n      tag_443\n      jumpi\n        /* \"#utility.yul\":4573:4591   */\n      tag_443\n      tag_327\n      jump\t// in\n    tag_443:\n        /* \"#utility.yul\":4648:4650   */\n      0x40\n        /* \"#utility.yul\":4642:4651   */\n      mload\n        /* \"#utility.yul\":4616:4618   */\n      0x1f\n        /* \"#utility.yul\":4702:4715   */\n      dup3\n      add\n      not(0x1f)\n        /* \"#utility.yul\":4698:4720   */\n      swap1\n      dup2\n      and\n        /* \"#utility.yul\":4722:4724   */\n      0x3f\n        /* \"#utility.yul\":4694:4725   */\n      add\n        /* \"#utility.yul\":4690:4730   */\n      and\n        /* \"#utility.yul\":4678:4731   */\n      dup2\n      add\n      swap1\n        /* \"#utility.yul\":4746:4764   */\n      dup4\n      dup3\n      gt\n        /* \"#utility.yul\":4766:4788   */\n      dup2\n      dup4\n      lt\n        /* \"#utility.yul\":4743:4789   */\n      or\n        /* \"#utility.yul\":4740:4812   */\n      iszero\n      tag_445\n      jumpi\n        /* \"#utility.yul\":4792:4810   */\n      tag_445\n      tag_327\n      jump\t// in\n    tag_445:\n        /* \"#utility.yul\":4832:4842   */\n      dup2\n        /* \"#utility.yul\":4828:4830   */\n      0x40\n        /* \"#utility.yul\":4821:4843   */\n      mstore\n        /* \"#utility.yul\":4867:4869   */\n      dup3\n        /* \"#utility.yul\":4859:4865   */\n      dup2\n        /* \"#utility.yul\":4852:4870   */\n      mstore\n        /* \"#utility.yul\":4907:4914   */\n      dup11\n        /* \"#utility.yul\":4902:4904   */\n      0x20\n        /* \"#utility.yul\":4897:4899   */\n      dup5\n        /* \"#utility.yul\":4893:4895   */\n      dup8\n        /* \"#utility.yul\":4889:4900   */\n      add\n        /* \"#utility.yul\":4885:4905   */\n      add\n        /* \"#utility.yul\":4882:4915   */\n      gt\n        /* \"#utility.yul\":4879:4932   */\n      iszero\n      tag_446\n      jumpi\n        /* \"#utility.yul\":4928:4929   */\n      0x00\n        /* \"#utility.yul\":4925:4926   */\n      dup1\n        /* \"#utility.yul\":4918:4930   */\n      revert\n        /* \"#utility.yul\":4879:4932   */\n    tag_446:\n        /* \"#utility.yul\":4984:4986   */\n      dup3\n        /* \"#utility.yul\":4979:4981   */\n      0x20\n        /* \"#utility.yul\":4975:4977   */\n      dup7\n        /* \"#utility.yul\":4971:4982   */\n      add\n        /* \"#utility.yul\":4966:4968   */\n      0x20\n        /* \"#utility.yul\":4958:4964   */\n      dup4\n        /* \"#utility.yul\":4954:4969   */\n      add\n        /* \"#utility.yul\":4941:4987   */\n      calldatacopy\n        /* \"#utility.yul\":5029:5030   */\n      0x00\n        /* \"#utility.yul\":5024:5026   */\n      0x20\n        /* \"#utility.yul\":5019:5021   */\n      dup5\n        /* \"#utility.yul\":5011:5017   */\n      dup4\n        /* \"#utility.yul\":5007:5022   */\n      add\n        /* \"#utility.yul\":5003:5027   */\n      add\n        /* \"#utility.yul\":4996:5031   */\n      mstore\n        /* \"#utility.yul\":5050:5056   */\n      dup1\n        /* \"#utility.yul\":5040:5056   */\n      swap6\n      pop\n      pop\n      pop\n      pop\n      pop\n      pop\n        /* \"#utility.yul\":3796:5062   */\n      swap3\n      swap6\n      swap2\n      swap5\n      pop\n      swap3\n      pop\n      jump\t// out\n        /* \"#utility.yul\":5264:5652   */\n    tag_112:\n        /* \"#utility.yul\":5332:5338   */\n      0x00\n        /* \"#utility.yul\":5340:5346   */\n      dup1\n        /* \"#utility.yul\":5393:5395   */\n      0x40\n        /* \"#utility.yul\":5381:5390   */\n      dup4\n        /* \"#utility.yul\":5372:5379   */\n      dup6\n        /* \"#utility.yul\":5368:5391   */\n      sub\n        /* \"#utility.yul\":5364:5396   */\n      slt\n        /* \"#utility.yul\":5361:5413   */\n      iszero\n      tag_449\n      jumpi\n        /* \"#utility.yul\":5409:5410   */\n      0x00\n        /* \"#utility.yul\":5406:5407   */\n      dup1\n        /* \"#utility.yul\":5399:5411   */\n      revert\n        /* \"#utility.yul\":5361:5413   */\n    tag_449:\n        /* \"#utility.yul\":5448:5457   */\n      dup3\n        /* \"#utility.yul\":5435:5458   */\n      calldataload\n        /* \"#utility.yul\":5467:5498   */\n      tag_450\n        /* \"#utility.yul\":5492:5497   */\n      dup2\n        /* \"#utility.yul\":5467:5498   */\n      tag_400\n      jump\t// in\n    tag_450:\n        /* \"#utility.yul\":5517:5522   */\n      swap2\n      pop\n        /* \"#utility.yul\":5574:5576   */\n      0x20\n        /* \"#utility.yul\":5559:5577   */\n      dup4\n      add\n        /* \"#utility.yul\":5546:5578   */\n      calldataload\n        /* \"#utility.yul\":5587:5620   */\n      tag_422\n        /* \"#utility.yul\":5546:5578   */\n      dup2\n        /* \"#utility.yul\":5587:5620   */\n      tag_400\n      jump\t// in\n        /* \"#utility.yul\":5657:6037   */\n    tag_128:\n        /* \"#utility.yul\":5736:5737   */\n      0x01\n        /* \"#utility.yul\":5732:5744   */\n      dup2\n      dup2\n      shr\n      swap1\n        /* \"#utility.yul\":5779:5791   */\n      dup3\n      and\n      dup1\n        /* \"#utility.yul\":5800:5861   */\n      tag_453\n      jumpi\n        /* \"#utility.yul\":5854:5858   */\n      0x7f\n        /* \"#utility.yul\":5846:5852   */\n      dup3\n        /* \"#utility.yul\":5842:5859   */\n      and\n        /* \"#utility.yul\":5832:5859   */\n      swap2\n      pop\n        /* \"#utility.yul\":5800:5861   */\n    tag_453:\n        /* \"#utility.yul\":5907:5909   */\n      0x20\n        /* \"#utility.yul\":5899:5905   */\n      dup3\n        /* \"#utility.yul\":5896:5910   */\n      lt\n        /* \"#utility.yul\":5876:5894   */\n      dup2\n        /* \"#utility.yul\":5873:5911   */\n      sub\n        /* \"#utility.yul\":5870:6031   */\n      tag_454\n      jumpi\n        /* \"#utility.yul\":5953:5963   */\n      0x4e487b71\n        /* \"#utility.yul\":5948:5951   */\n      0xe0\n        /* \"#utility.yul\":5944:5964   */\n      shl\n        /* \"#utility.yul\":5941:5942   */\n      0x00\n        /* \"#utility.yul\":5934:5965   */\n      mstore\n        /* \"#utility.yul\":5988:5992   */\n      0x22\n        /* \"#utility.yul\":5985:5986   */\n      0x04\n        /* \"#utility.yul\":5978:5993   */\n      mstore\n        /* \"#utility.yul\":6016:6020   */\n      0x24\n        /* \"#utility.yul\":6013:6014   */\n      0x00\n        /* \"#utility.yul\":6006:6021   */\n      revert\n        /* \"#utility.yul\":5870:6031   */\n    tag_454:\n      pop\n        /* \"#utility.yul\":5657:6037   */\n      swap2\n      swap1\n      pop\n      jump\t// out\n        /* \"#utility.yul\":7585:7836   */\n    tag_162:\n        /* \"#utility.yul\":7655:7661   */\n      0x00\n        /* \"#utility.yul\":7708:7710   */\n      0x20\n        /* \"#utility.yul\":7696:7705   */\n      dup3\n        /* \"#utility.yul\":7687:7694   */\n      dup5\n        /* \"#utility.yul\":7683:7706   */\n      sub\n        /* \"#utility.yul\":7679:7711   */\n      slt\n        /* \"#utility.yul\":7676:7728   */\n      iszero\n      tag_460\n      jumpi\n        /* \"#utility.yul\":7724:7725   */\n      0x00\n        /* \"#utility.yul\":7721:7722   */\n      dup1\n        /* \"#utility.yul\":7714:7726   */\n      revert\n        /* \"#utility.yul\":7676:7728   */\n    tag_460:\n        /* \"#utility.yul\":7756:7765   */\n      dup2\n        /* \"#utility.yul\":7750:7766   */\n      mload\n        /* \"#utility.yul\":7775:7806   */\n      tag_249\n        /* \"#utility.yul\":7800:7805   */\n      dup2\n        /* \"#utility.yul\":7775:7806   */\n      tag_400\n      jump\t// in\n        /* \"#utility.yul\":9966:10401   */\n    tag_203:\n      sub(shl(0xa0, 0x01), 0x01)\n        /* \"#utility.yul\":10171:10177   */\n      dup5\n        /* \"#utility.yul\":10167:10222   */\n      and\n        /* \"#utility.yul\":10156:10165   */\n      dup2\n        /* \"#utility.yul\":10149:10223   */\n      mstore\n        /* \"#utility.yul\":10259:10261   */\n      0x60\n        /* \"#utility.yul\":10254:10256   */\n      0x20\n        /* \"#utility.yul\":10243:10252   */\n      dup3\n        /* \"#utility.yul\":10239:10257   */\n      add\n        /* \"#utility.yul\":10232:10262   */\n      mstore\n        /* \"#utility.yul\":10130:10134   */\n      0x00\n        /* \"#utility.yul\":10279:10335   */\n      tag_469\n        /* \"#utility.yul\":10331:10333   */\n      0x60\n        /* \"#utility.yul\":10320:10329   */\n      dup4\n        /* \"#utility.yul\":10316:10334   */\n      add\n        /* \"#utility.yul\":10308:10314   */\n      dup6\n        /* \"#utility.yul\":10279:10335   */\n      tag_399\n      jump\t// in\n    tag_469:\n        /* \"#utility.yul\":10271:10335   */\n      swap1\n      pop\n        /* \"#utility.yul\":10383:10393   */\n      0xffffffff\n        /* \"#utility.yul\":10375:10381   */\n      dup4\n        /* \"#utility.yul\":10371:10394   */\n      and\n        /* \"#utility.yul\":10366:10368   */\n      0x40\n        /* \"#utility.yul\":10355:10364   */\n      dup4\n        /* \"#utility.yul\":10351:10369   */\n      add\n        /* \"#utility.yul\":10344:10395   */\n      mstore\n        /* \"#utility.yul\":9966:10401   */\n      swap5\n      swap4\n      pop\n      pop\n      pop\n      pop\n      jump\t// out\n        /* \"#utility.yul\":10816:11048   */\n    tag_231:\n        /* \"#utility.yul\":10855:10858   */\n      0x00\n        /* \"#utility.yul\":10876:10893   */\n      0x01\n      dup3\n      add\n        /* \"#utility.yul\":10873:11013   */\n      tag_472\n      jumpi\n        /* \"#utility.yul\":10935:10945   */\n      0x4e487b71\n        /* \"#utility.yul\":10930:10933   */\n      0xe0\n        /* \"#utility.yul\":10926:10946   */\n      shl\n        /* \"#utility.yul\":10923:10924   */\n      0x00\n        /* \"#utility.yul\":10916:10947   */\n      mstore\n        /* \"#utility.yul\":10970:10974   */\n      0x11\n        /* \"#utility.yul\":10967:10968   */\n      0x04\n        /* \"#utility.yul\":10960:10975   */\n      mstore\n        /* \"#utility.yul\":10998:11002   */\n      0x24\n        /* \"#utility.yul\":10995:10996   */\n      0x00\n        /* \"#utility.yul\":10988:11003   */\n      revert\n        /* \"#utility.yul\":10873:11013   */\n    tag_472:\n      pop\n        /* \"#utility.yul\":11040:11041   */\n      0x01\n        /* \"#utility.yul\":11029:11042   */\n      add\n      swap1\n        /* \"#utility.yul\":10816:11048   */\n      jump\t// out\n        /* \"#utility.yul\":11053:11265   */\n    tag_401:\n        /* \"#utility.yul\":11095:11098   */\n      0x00\n        /* \"#utility.yul\":11133:11138   */\n      dup2\n        /* \"#utility.yul\":11127:11139   */\n      mload\n        /* \"#utility.yul\":11177:11183   */\n      dup1\n        /* \"#utility.yul\":11170:11174   */\n      0x20\n        /* \"#utility.yul\":11163:11168   */\n      dup5\n        /* \"#utility.yul\":11159:11175   */\n      add\n        /* \"#utility.yul\":11154:11157   */\n      dup6\n        /* \"#utility.yul\":11148:11184   */\n      mcopy\n        /* \"#utility.yul\":11239:11240   */\n      0x00\n        /* \"#utility.yul\":11203:11219   */\n      swap4\n      add\n        /* \"#utility.yul\":11228:11241   */\n      swap3\n      dup4\n      mstore\n      pop\n        /* \"#utility.yul\":11203:11219   */\n      swap1\n      swap2\n        /* \"#utility.yul\":11053:11265   */\n      swap1\n      pop\n      jump\t// out\n        /* \"#utility.yul\":11270:11537   */\n    tag_253:\n        /* \"#utility.yul\":11449:11452   */\n      0x00\n        /* \"#utility.yul\":11474:11531   */\n      tag_279\n        /* \"#utility.yul\":11500:11530   */\n      tag_476\n        /* \"#utility.yul\":11526:11529   */\n      dup4\n        /* \"#utility.yul\":11518:11524   */\n      dup7\n        /* \"#utility.yul\":11500:11530   */\n      tag_401\n      jump\t// in\n    tag_476:\n        /* \"#utility.yul\":11492:11498   */\n      dup5\n        /* \"#utility.yul\":11474:11531   */\n      tag_401\n      jump\t// in\n        /* \"#utility.yul\":14026:14549   */\n    tag_349:\n        /* \"#utility.yul\":14220:14224   */\n      0x00\n      sub(shl(0xa0, 0x01), 0x01)\n        /* \"#utility.yul\":14330:14332   */\n      dup1\n        /* \"#utility.yul\":14322:14328   */\n      dup8\n        /* \"#utility.yul\":14318:14333   */\n      and\n        /* \"#utility.yul\":14307:14316   */\n      dup4\n        /* \"#utility.yul\":14300:14334   */\n      mstore\n        /* \"#utility.yul\":14382:14384   */\n      dup1\n        /* \"#utility.yul\":14374:14380   */\n      dup7\n        /* \"#utility.yul\":14370:14385   */\n      and\n        /* \"#utility.yul\":14365:14367   */\n      0x20\n        /* \"#utility.yul\":14354:14363   */\n      dup5\n        /* \"#utility.yul\":14350:14368   */\n      add\n        /* \"#utility.yul\":14343:14386   */\n      mstore\n      pop\n        /* \"#utility.yul\":14422:14428   */\n      dup4\n        /* \"#utility.yul\":14417:14419   */\n      0x40\n        /* \"#utility.yul\":14406:14415   */\n      dup4\n        /* \"#utility.yul\":14402:14420   */\n      add\n        /* \"#utility.yul\":14395:14429   */\n      mstore\n        /* \"#utility.yul\":14465:14468   */\n      0x80\n        /* \"#utility.yul\":14460:14462   */\n      0x60\n        /* \"#utility.yul\":14449:14458   */\n      dup4\n        /* \"#utility.yul\":14445:14463   */\n      add\n        /* \"#utility.yul\":14438:14469   */\n      mstore\n        /* \"#utility.yul\":14486:14543   */\n      tag_485\n        /* \"#utility.yul\":14538:14541   */\n      0x80\n        /* \"#utility.yul\":14527:14536   */\n      dup4\n        /* \"#utility.yul\":14523:14542   */\n      add\n        /* \"#utility.yul\":14515:14521   */\n      dup5\n        /* \"#utility.yul\":14486:14543   */\n      tag_399\n      jump\t// in\n    tag_485:\n        /* \"#utility.yul\":14478:14543   */\n      swap7\n        /* \"#utility.yul\":14026:14549   */\n      swap6\n      pop\n      pop\n      pop\n      pop\n      pop\n      pop\n      jump\t// out\n        /* \"#utility.yul\":14554:14803   */\n    tag_352:\n        /* \"#utility.yul\":14623:14629   */\n      0x00\n        /* \"#utility.yul\":14676:14678   */\n      0x20\n        /* \"#utility.yul\":14664:14673   */\n      dup3\n        /* \"#utility.yul\":14655:14662   */\n      dup5\n        /* \"#utility.yul\":14651:14674   */\n      sub\n        /* \"#utility.yul\":14647:14679   */\n      slt\n        /* \"#utility.yul\":14644:14696   */\n      iszero\n      tag_487\n      jumpi\n        /* \"#utility.yul\":14692:14693   */\n      0x00\n        /* \"#utility.yul\":14689:14690   */\n      dup1\n        /* \"#utility.yul\":14682:14694   */\n      revert\n        /* \"#utility.yul\":14644:14696   */\n    tag_487:\n        /* \"#utility.yul\":14724:14733   */\n      dup2\n        /* \"#utility.yul\":14718:14734   */\n      mload\n        /* \"#utility.yul\":14743:14773   */\n      tag_249\n        /* \"#utility.yul\":14767:14772   */\n      dup2\n        /* \"#utility.yul\":14743:14773   */\n      tag_398\n      jump\t// in\n\n    auxdata: 0xa2646970667358221220485ec6e8bbdbeac36593533f5eda980a386119f79569fce45a54f982fede557264736f6c63430008190033\n}\n",
    "bytecode": {
      "linkReferences": {},
      "object": "608060405234801561000f575f80fd5b50604051611ecd380380611ecd83398101604081905261002e91610156565b60405180604001604052806011815260200170141c9bd91d58d95c88141c9bdd1bd8dbdb607a1b81525060405180604001604052806002815260200161050560f41b815250815f9081610081919061021f565b50600161008e828261021f565b5050506100a76100a26100e660201b60201c565b6100ea565b60016007819055600880546001600160a01b039485166001600160a01b0319918216179091556009805493909416921691909117909155600a556102de565b3390565b600680546001600160a01b038381166001600160a01b0319831681179093556040519116919082907f8be0079c531659141344cd1fd0a4f28419497f9722a3daafe3b4186f6b6457e0905f90a35050565b80516001600160a01b0381168114610151575f80fd5b919050565b5f8060408385031215610167575f80fd5b6101708361013b565b915061017e6020840161013b565b90509250929050565b634e487b7160e01b5f52604160045260245ffd5b600181811c908216806101af57607f821691505b6020821081036101cd57634e487b7160e01b5f52602260045260245ffd5b50919050565b601f82111561021a57805f5260205f20601f840160051c810160208510156101f85750805b601f840160051c820191505b81811015610217575f8155600101610204565b50505b505050565b81516001600160401b0381111561023857610238610187565b61024c81610246845461019b565b846101d3565b602080601f83116001811461027f575f84156102685750858301515b5f19600386901b1c1916600185901b1785556102d6565b5f85815260208120601f198616915b828110156102ad5788860151825594840194600190910190840161028e565b50858210156102ca57878501515f19600388901b60f8161c191681555b505060018460011b0185555b505050505050565b611be2806102eb5f395ff3fe608060405234801561000f575f80fd5b5060043610610184575f3560e01c8063715018a6116100dd578063b88d4fde11610088578063e985e9c511610063578063e985e9c51461032d578063f2fde38b14610368578063f43b36131461037b575f80fd5b8063b88d4fde146102e8578063b9b3f691146102fb578063c87b56dd1461031a575f80fd5b806395d89b41116100b857806395d89b41146102ba5780639769dc0e146102c2578063a22cb465146102d5575f80fd5b8063715018a61461029857806375794a3c146102a05780638da5cb5b146102a9575f80fd5b806323b872dd1161013d578063663ab59d11610118578063663ab59d146102515780636e71473b1461026457806370a0823114610277575f80fd5b806323b872dd1461021857806342842e0e1461022b5780636352211e1461023e575f80fd5b8063081812fc1161016d578063081812fc146101c5578063095ea7b3146101f05780631b82767114610205575f80fd5b806301ffc9a71461018857806306fdde03146101b0575b5f80fd5b61019b6101963660046117fd565b61038e565b60405190151581526020015b60405180910390f35b6101b86103df565b6040516101a79190611846565b6101d86101d3366004611858565b61046e565b6040516001600160a01b0390911681526020016101a7565b6102036101fe366004611883565b610493565b005b6102036102133660046118ad565b6105ac565b6102036102263660046118db565b6107d2565b6102036102393660046118db565b610849565b6101d861024c366004611858565b610863565b6009546101d8906001600160a01b031681565b6102036102723660046118ad565b6108c7565b61028a610285366004611919565b610a82565b6040519081526020016101a7565b610203610b1a565b61028a600a5481565b6006546001600160a01b03166101d8565b6101b8610b2d565b6102036102d0366004611919565b610b3c565b6102036102e3366004611934565b610bc4565b6102036102f6366004611978565b610bd3565b610305620f424081565b60405163ffffffff90911681526020016101a7565b6101b8610328366004611858565b610c51565b61019b61033b366004611a51565b6001600160a01b039182165f90815260056020908152604080832093909416825291909152205460ff1690565b610203610376366004611919565b610cc1565b6008546101d8906001600160a01b031681565b5f6001600160e01b031982166380ac58cd60e01b14806103be57506001600160e01b03198216635b5e139f60e01b145b806103d957506301ffc9a760e01b6001600160e01b03198316145b92915050565b60605f80546103ed90611a7d565b80601f016020809104026020016040519081016040528092919081815260200182805461041990611a7d565b80156104645780601f1061043b57610100808354040283529160200191610464565b820191905f5260205f20905b81548152906001019060200180831161044757829003601f168201915b5050505050905090565b5f61047882610d51565b505f908152600460205260409020546001600160a01b031690565b5f61049d82610863565b9050806001600160a01b0316836001600160a01b03160361050f5760405162461bcd60e51b815260206004820152602160248201527f4552433732313a20617070726f76616c20746f2063757272656e74206f776e656044820152603960f91b60648201526084015b60405180910390fd5b336001600160a01b038216148061052b575061052b813361033b565b61059d5760405162461bcd60e51b815260206004820152603d60248201527f4552433732313a20617070726f76652063616c6c6572206973206e6f7420746f60448201527f6b656e206f776e6572206f7220617070726f76656420666f7220616c6c0000006064820152608401610506565b6105a78383610db4565b505050565b6002600754036105fe5760405162461bcd60e51b815260206004820152601f60248201527f5265656e7472616e637947756172643a207265656e7472616e742063616c6c006044820152606401610506565b60026007556008546001600160a01b0316331461065d5760405162461bcd60e51b815260206004820152601660248201527f556e617574686f72697a6564206d657373656e676572000000000000000000006044820152606401610506565b600954600854604080516333a6fb8960e11b815290516001600160a01b03938416939092169163674df712916004808201926020929091908290030181865afa1580156106ac573d5f803e3d5ffd5b505050506040513d601f19601f820116820180604052508101906106d09190611ab5565b6001600160a01b0316146107265760405162461bcd60e51b815260206004820152601160248201527f496e76616c6964204c312073656e6465720000000000000000000000000000006044820152606401610506565b5f828152600260205260409020546001600160a01b03161561078a5760405162461bcd60e51b815260206004820152601460248201527f546f6b656e20616c7265616479206578697374730000000000000000000000006044820152606401610506565b6107948183610e21565b6040516001600160a01b0382169083907fe7800c6d4262c7daa24e0ef4ec42df968eaeb6cdebd0e70a05ab4852742788d6905f90a350506001600755565b6107dc3382610e3a565b61083e5760405162461bcd60e51b815260206004820152602d60248201527f4552433732313a2063616c6c6572206973206e6f7420746f6b656e206f776e6560448201526c1c881bdc88185c1c1c9bdd9959609a1b6064820152608401610506565b6105a7838383610eb7565b6105a783838360405180602001604052805f815250610bd3565b5f818152600260205260408120546001600160a01b0316806103d95760405162461bcd60e51b815260206004820152601860248201527f4552433732313a20696e76616c696420746f6b656e20494400000000000000006044820152606401610506565b6002600754036109195760405162461bcd60e51b815260206004820152601f60248201527f5265656e7472616e637947756172643a207265656e7472616e742063616c6c006044820152606401610506565b60026007556109283383610e3a565b6109745760405162461bcd60e51b815260206004820181905260248201527f43616c6c6572206973206e6f74206f776e6572206e6f7220617070726f7665646044820152606401610506565b61097d82611095565b6040516001600160a01b0382169083907fd5df47bfe7b82577bf15be85e7a913251185a6f2d19b35211f8e2c060c995f05905f90a3604051602481018390526001600160a01b03821660448201525f9060640160408051601f198184030181529181526020820180517bffffffffffffffffffffffffffffffffffffffffffffffffffffffff166304343bf960e11b1790526008546009549151633dbb202b60e01b81529293506001600160a01b0390811692633dbb202b92610a4b9216908590620f424090600401611ad0565b5f604051808303815f87803b158015610a62575f80fd5b505af1158015610a74573d5f803e3d5ffd5b505060016007555050505050565b5f6001600160a01b038216610aff5760405162461bcd60e51b815260206004820152602960248201527f4552433732313a2061646472657373207a65726f206973206e6f74206120766160448201527f6c6964206f776e657200000000000000000000000000000000000000000000006064820152608401610506565b506001600160a01b03165f9081526003602052604090205490565b610b22611127565b610b2b5f611181565b565b6060600180546103ed90611a7d565b610b44611127565b600260075403610b965760405162461bcd60e51b815260206004820152601f60248201527f5265656e7472616e637947756172643a207265656e7472616e742063616c6c006044820152606401610506565b6002600755600a80549081905f610bac83611b07565b9190505550610bbb8282610e21565b50506001600755565b610bcf3383836111d2565b5050565b610bdd3383610e3a565b610c3f5760405162461bcd60e51b815260206004820152602d60248201527f4552433732313a2063616c6c6572206973206e6f7420746f6b656e206f776e6560448201526c1c881bdc88185c1c1c9bdd9959609a1b6064820152608401610506565b610c4b8484848461129f565b50505050565b6060610c5c82610d51565b5f610c7160408051602081019091525f815290565b90505f815111610c8f5760405180602001604052805f815250610cba565b80610c998461131d565b604051602001610caa929190611b42565b6040516020818303038152906040525b9392505050565b610cc9611127565b6001600160a01b038116610d455760405162461bcd60e51b815260206004820152602660248201527f4f776e61626c653a206e6577206f776e657220697320746865207a65726f206160448201527f64647265737300000000000000000000000000000000000000000000000000006064820152608401610506565b610d4e81611181565b50565b5f818152600260205260409020546001600160a01b0316610d4e5760405162461bcd60e51b815260206004820152601860248201527f4552433732313a20696e76616c696420746f6b656e20494400000000000000006044820152606401610506565b5f81815260046020526040902080546001600160a01b0319166001600160a01b0384169081179091558190610de882610863565b6001600160a01b03167f8c5be1e5ebec7d5bd14f71427d1e84f3dd0314c0f7b2291e5b200ac8c7c3b92560405160405180910390a45050565b610bcf828260405180602001604052805f8152506113ba565b5f80610e4583610863565b9050806001600160a01b0316846001600160a01b03161480610e8b57506001600160a01b038082165f9081526005602090815260408083209388168352929052205460ff165b80610eaf5750836001600160a01b0316610ea48461046e565b6001600160a01b0316145b949350505050565b826001600160a01b0316610eca82610863565b6001600160a01b031614610f2e5760405162461bcd60e51b815260206004820152602560248201527f4552433732313a207472616e736665722066726f6d20696e636f72726563742060448201526437bbb732b960d91b6064820152608401610506565b6001600160a01b038216610f905760405162461bcd60e51b8152602060048201526024808201527f4552433732313a207472616e7366657220746f20746865207a65726f206164646044820152637265737360e01b6064820152608401610506565b826001600160a01b0316610fa382610863565b6001600160a01b0316146110075760405162461bcd60e51b815260206004820152602560248201527f4552433732313a207472616e736665722066726f6d20696e636f72726563742060448201526437bbb732b960d91b6064820152608401610506565b5f81815260046020908152604080832080546001600160a01b03199081169091556001600160a01b038781168086526003855283862080545f1901905590871680865283862080546001019055868652600290945282852080549092168417909155905184937fddf252ad1be2c89b69c2b068fc378daa952ba7f163c4a11628f55a4df523b3ef91a4505050565b5f61109f82610863565b90506110aa82610863565b5f83815260046020908152604080832080546001600160a01b03199081169091556001600160a01b0385168085526003845282852080545f190190558785526002909352818420805490911690555192935084927fddf252ad1be2c89b69c2b068fc378daa952ba7f163c4a11628f55a4df523b3ef908390a45050565b6006546001600160a01b03163314610b2b5760405162461bcd60e51b815260206004820181905260248201527f4f776e61626c653a2063616c6c6572206973206e6f7420746865206f776e65726044820152606401610506565b600680546001600160a01b038381166001600160a01b0319831681179093556040519116919082907f8be0079c531659141344cd1fd0a4f28419497f9722a3daafe3b4186f6b6457e0905f90a35050565b816001600160a01b0316836001600160a01b0316036112335760405162461bcd60e51b815260206004820152601960248201527f4552433732313a20617070726f766520746f2063616c6c6572000000000000006044820152606401610506565b6001600160a01b038381165f81815260056020908152604080832094871680845294825291829020805460ff191686151590811790915591519182527f17307eab39ab6107e8899845ad3d59bd9653f200f220920489ca2b5937696c31910160405180910390a3505050565b6112aa848484610eb7565b6112b684848484611437565b610c4b5760405162461bcd60e51b815260206004820152603260248201527f4552433732313a207472616e7366657220746f206e6f6e20455243373231526560448201527131b2b4bb32b91034b6b83632b6b2b73a32b960711b6064820152608401610506565b60605f6113298361157f565b60010190505f8167ffffffffffffffff81111561134857611348611964565b6040519080825280601f01601f191660200182016040528015611372576020820181803683370190505b5090508181016020015b5f19017f3031323334353637383961626364656600000000000000000000000000000000600a86061a8153600a850494508461137c57509392505050565b6113c48383611660565b6113d05f848484611437565b6105a75760405162461bcd60e51b815260206004820152603260248201527f4552433732313a207472616e7366657220746f206e6f6e20455243373231526560448201527131b2b4bb32b91034b6b83632b6b2b73a32b960711b6064820152608401610506565b5f6001600160a01b0384163b1561157457604051630a85bd0160e11b81526001600160a01b0385169063150b7a029061147a903390899088908890600401611b56565b6020604051808303815f875af19250505080156114b4575060408051601f3d908101601f191682019092526114b191810190611b91565b60015b61155a573d8080156114e1576040519150601f19603f3d011682016040523d82523d5f602084013e6114e6565b606091505b5080515f036115525760405162461bcd60e51b815260206004820152603260248201527f4552433732313a207472616e7366657220746f206e6f6e20455243373231526560448201527131b2b4bb32b91034b6b83632b6b2b73a32b960711b6064820152608401610506565b805181602001fd5b6001600160e01b031916630a85bd0160e11b149050610eaf565b506001949350505050565b5f807a184f03e93ff9f4daa797ed6e38ed64bf6a1f01000000000000000083106115c7577a184f03e93ff9f4daa797ed6e38ed64bf6a1f010000000000000000830492506040015b6d04ee2d6d415b85acef810000000083106115f3576d04ee2d6d415b85acef8100000000830492506020015b662386f26fc10000831061161157662386f26fc10000830492506010015b6305f5e1008310611629576305f5e100830492506008015b612710831061163d57612710830492506004015b6064831061164f576064830492506002015b600a83106103d95760010192915050565b6001600160a01b0382166116b65760405162461bcd60e51b815260206004820181905260248201527f4552433732313a206d696e7420746f20746865207a65726f20616464726573736044820152606401610506565b5f818152600260205260409020546001600160a01b03161561171a5760405162461bcd60e51b815260206004820152601c60248201527f4552433732313a20746f6b656e20616c7265616479206d696e746564000000006044820152606401610506565b5f818152600260205260409020546001600160a01b03161561177e5760405162461bcd60e51b815260206004820152601c60248201527f4552433732313a20746f6b656e20616c7265616479206d696e746564000000006044820152606401610506565b6001600160a01b0382165f81815260036020908152604080832080546001019055848352600290915280822080546001600160a01b0319168417905551839291907fddf252ad1be2c89b69c2b068fc378daa952ba7f163c4a11628f55a4df523b3ef908290a45050565b6001600160e01b031981168114610d4e575f80fd5b5f6020828403121561180d575f80fd5b8135610cba816117e8565b5f81518084528060208401602086015e5f602082860101526020601f19601f83011685010191505092915050565b602081525f610cba6020830184611818565b5f60208284031215611868575f80fd5b5035919050565b6001600160a01b0381168114610d4e575f80fd5b5f8060408385031215611894575f80fd5b823561189f8161186f565b946020939093013593505050565b5f80604083850312156118be575f80fd5b8235915060208301356118d08161186f565b809150509250929050565b5f805f606084860312156118ed575f80fd5b83356118f88161186f565b925060208401356119088161186f565b929592945050506040919091013590565b5f60208284031215611929575f80fd5b8135610cba8161186f565b5f8060408385031215611945575f80fd5b82356119508161186f565b9150602083013580151581146118d0575f80fd5b634e487b7160e01b5f52604160045260245ffd5b5f805f806080858703121561198b575f80fd5b84356119968161186f565b935060208501356119a68161186f565b925060408501359150606085013567ffffffffffffffff808211156119c9575f80fd5b818701915087601f8301126119dc575f80fd5b8135818111156119ee576119ee611964565b604051601f8201601f19908116603f01168101908382118183101715611a1657611a16611964565b816040528281528a6020848701011115611a2e575f80fd5b826020860160208301375f60208483010152809550505050505092959194509250565b5f8060408385031215611a62575f80fd5b8235611a6d8161186f565b915060208301356118d08161186f565b600181811c90821680611a9157607f821691505b602082108103611aaf57634e487b7160e01b5f52602260045260245ffd5b50919050565b5f60208284031215611ac5575f80fd5b8151610cba8161186f565b6001600160a01b0384168152606060208201525f611af16060830185611818565b905063ffffffff83166040830152949350505050565b5f60018201611b2457634e487b7160e01b5f52601160045260245ffd5b5060010190565b5f81518060208401855e5f93019283525090919050565b5f610eaf611b508386611b2b565b84611b2b565b5f6001600160a01b03808716835280861660208401525083604083015260806060830152611b876080830184611818565b9695505050505050565b5f60208284031215611ba1575f80fd5b8151610cba816117e856fea2646970667358221220485ec6e8bbdbeac36593533f5eda980a386119f79569fce45a54f982fede557264736f6c63430008190033",
      "opcodes": "PUSH1 0x80 PUSH1 0x40 MSTORE CALLVALUE DUP1 ISZERO PUSH2 0xF JUMPI PUSH0 DUP1 REVERT JUMPDEST POP PUSH1 0x40 MLOAD PUSH2 0x1ECD CODESIZE SUB DUP1 PUSH2 0x1ECD DUP4 CODECOPY DUP2 ADD PUSH1 0x40 DUP2 SWAP1 MSTORE PUSH2 0x2E SWAP2 PUSH2 0x156 JUMP JUMPDEST PUSH1 0x40 MLOAD DUP1 PUSH1 0x40 ADD PUSH1 0x40 MSTORE DUP1 PUSH1 0x11 DUP2 MSTORE PUSH1 0x20 ADD PUSH17 0x141C9BD91D58D95C88141C9BDD1BD8DBDB PUSH1 0x7A SHL DUP2 MSTORE POP PUSH1 0x40 MLOAD DUP1 PUSH1 0x40 ADD PUSH1 0x40 MSTORE DUP1 PUSH1 0x2 DUP2 MSTORE PUSH1 0x20 ADD PUSH2 0x505 PUSH1 0xF4 SHL DUP2 MSTORE POP DUP2 PUSH0 SWAP1 DUP2 PUSH2 0x81 SWAP2 SWAP1 PUSH2 0x21F JUMP JUMPDEST POP PUSH1 0x1 PUSH2 0x8E DUP3 DUP3 PUSH2 0x21F JUMP JUMPDEST POP POP POP PUSH2 0xA7 PUSH2 0xA2 PUSH2 0xE6 PUSH1 0x20 SHL PUSH1 0x20 SHR JUMP JUMPDEST PUSH2 0xEA JUMP JUMPDEST PUSH1 0x1 PUSH1 0x7 DUP2 SWAP1 SSTORE PUSH1 0x8 DUP1 SLOAD PUSH1 0x1 PUSH1 0x1 PUSH1 0xA0 SHL SUB SWAP5 DUP6 AND PUSH1 0x1 PUSH1 0x1 PUSH1 0xA0 SHL SUB NOT SWAP2 DUP3 AND OR SWAP1 SWAP2 SSTORE PUSH1 0x9 DUP1 SLOAD SWAP4 SWAP1 SWAP5 AND SWAP3 AND SWAP2 SWAP1 SWAP2 OR SWAP1 SWAP2 SSTORE PUSH1 0xA SSTORE PUSH2 0x2DE JUMP JUMPDEST CALLER SWAP1 JUMP JUMPDEST PUSH1 0x6 DUP1 SLOAD PUSH1 0x1 PUSH1 0x1 PUSH1 0xA0 SHL SUB DUP4 DUP2 AND PUSH1 0x1 PUSH1 0x1 PUSH1 0xA0 SHL SUB NOT DUP4 AND DUP2 OR SWAP1 SWAP4 SSTORE PUSH1 0x40 MLOAD SWAP2 AND SWAP2 SWAP1 DUP3 SWAP1 PUSH32 0x8BE0079C531659141344CD1FD0A4F28419497F9722A3DAAFE3B4186F6B6457E0 SWAP1 PUSH0 SWAP1 LOG3 POP POP JUMP JUMPDEST DUP1 MLOAD PUSH1 0x1 PUSH1 0x1 PUSH1 0xA0 SHL SUB DUP2 AND DUP2 EQ PUSH2 0x151 JUMPI PUSH0 DUP1 REVERT JUMPDEST SWAP2 SWAP1 POP JUMP JUMPDEST PUSH0 DUP1 PUSH1 0x40 DUP4 DUP6 SUB SLT ISZERO PUSH2 0x167 JUMPI PUSH0 DUP1 REVERT JUMPDEST PUSH2 0x170 DUP4 PUSH2 0x13B JUMP JUMPDEST SWAP2 POP PUSH2 0x17E PUSH1 0x20 DUP5 ADD PUSH2 0x13B JUMP JUMPDEST SWAP1 POP SWAP3 POP SWAP3 SWAP1 POP JUMP JUMPDEST PUSH4 0x4E487B71 PUSH1 0xE0 SHL PUSH0 MSTORE PUSH1 0x41 PUSH1 0x4 MSTORE PUSH1 0x24 PUSH0 REVERT JUMPDEST PUSH1 0x1 DUP2 DUP2 SHR SWAP1 DUP3 AND DUP1 PUSH2 0x1AF JUMPI PUSH1 0x7F DUP3 AND SWAP2 POP JUMPDEST PUSH1 0x20 DUP3 LT DUP2 SUB PUSH2 0x1CD JUMPI PUSH4 0x4E487B71 PUSH1 0xE0 SHL PUSH0 MSTORE PUSH1 0x22 PUSH1 0x4 MSTORE PUSH1 0x24 PUSH0 REVERT JUMPDEST POP SWAP2 SWAP1 POP JUMP JUMPDEST PUSH1 0x1F DUP3 GT ISZERO PUSH2 0x21A JUMPI DUP1 PUSH0 MSTORE PUSH1 0x20 PUSH0 KECCAK256 PUSH1 0x1F DUP5 ADD PUSH1 0x5 SHR DUP2 ADD PUSH1 0x20 DUP6 LT ISZERO PUSH2 0x1F8 JUMPI POP DUP1 JUMPDEST PUSH1 0x1F DUP5 ADD PUSH1 0x5 SHR DUP3 ADD SWAP2 POP JUMPDEST DUP2 DUP2 LT ISZERO PUSH2 0x217 JUMPI PUSH0 DUP2 SSTORE PUSH1 0x1 ADD PUSH2 0x204 JUMP JUMPDEST POP POP JUMPDEST POP POP POP JUMP JUMPDEST DUP2 MLOAD PUSH1 0x1 PUSH1 0x1 PUSH1 0x40 SHL SUB DUP2 GT ISZERO PUSH2 0x238 JUMPI PUSH2 0x238 PUSH2 0x187 JUMP JUMPDEST PUSH2 0x24C DUP2 PUSH2 0x246 DUP5 SLOAD PUSH2 0x19B JUMP JUMPDEST DUP5 PUSH2 0x1D3 JUMP JUMPDEST PUSH1 0x20 DUP1 PUSH1 0x1F DUP4 GT PUSH1 0x1 DUP2 EQ PUSH2 0x27F JUMPI PUSH0 DUP5 ISZERO PUSH2 0x268 JUMPI POP DUP6 DUP4 ADD MLOAD JUMPDEST PUSH0 NOT PUSH1 0x3 DUP7 SWAP1 SHL SHR NOT AND PUSH1 0x1 DUP6 SWAP1 SHL OR DUP6 SSTORE PUSH2 0x2D6 JUMP JUMPDEST PUSH0 DUP6 DUP2 MSTORE PUSH1 0x20 DUP2 KECCAK256 PUSH1 0x1F NOT DUP7 AND SWAP2 JUMPDEST DUP3 DUP2 LT ISZERO PUSH2 0x2AD JUMPI DUP9 DUP7 ADD MLOAD DUP3 SSTORE SWAP5 DUP5 ADD SWAP5 PUSH1 0x1 SWAP1 SWAP2 ADD SWAP1 DUP5 ADD PUSH2 0x28E JUMP JUMPDEST POP DUP6 DUP3 LT ISZERO PUSH2 0x2CA JUMPI DUP8 DUP6 ADD MLOAD PUSH0 NOT PUSH1 0x3 DUP9 SWAP1 SHL PUSH1 0xF8 AND SHR NOT AND DUP2 SSTORE JUMPDEST POP POP PUSH1 0x1 DUP5 PUSH1 0x1 SHL ADD DUP6 SSTORE JUMPDEST POP POP POP POP POP POP JUMP JUMPDEST PUSH2 0x1BE2 DUP1 PUSH2 0x2EB PUSH0 CODECOPY PUSH0 RETURN INVALID PUSH1 0x80 PUSH1 0x40 MSTORE CALLVALUE DUP1 ISZERO PUSH2 0xF JUMPI PUSH0 DUP1 REVERT JUMPDEST POP PUSH1 0x4 CALLDATASIZE LT PUSH2 0x184 JUMPI PUSH0 CALLDATALOAD PUSH1 0xE0 SHR DUP1 PUSH4 0x715018A6 GT PUSH2 0xDD JUMPI DUP1 PUSH4 0xB88D4FDE GT PUSH2 0x88 JUMPI DUP1 PUSH4 0xE985E9C5 GT PUSH2 0x63 JUMPI DUP1 PUSH4 0xE985E9C5 EQ PUSH2 0x32D JUMPI DUP1 PUSH4 0xF2FDE38B EQ PUSH2 0x368 JUMPI DUP1 PUSH4 0xF43B3613 EQ PUSH2 0x37B JUMPI PUSH0 DUP1 REVERT JUMPDEST DUP1 PUSH4 0xB88D4FDE EQ PUSH2 0x2E8 JUMPI DUP1 PUSH4 0xB9B3F691 EQ PUSH2 0x2FB JUMPI DUP1 PUSH4 0xC87B56DD EQ PUSH2 0x31A JUMPI PUSH0 DUP1 REVERT JUMPDEST DUP1 PUSH4 0x95D89B41 GT PUSH2 0xB8 JUMPI DUP1 PUSH4 0x95D89B41 EQ PUSH2 0x2BA JUMPI DUP1 PUSH4 0x9769DC0E EQ PUSH2 0x2C2 JUMPI DUP1 PUSH4 0xA22CB465 EQ PUSH2 0x2D5 JUMPI PUSH0 DUP1 REVERT JUMPDEST DUP1 PUSH4 0x715018A6 EQ PUSH2 0x298 JUMPI DUP1 PUSH4 0x75794A3C EQ PUSH2 0x2A0 JUMPI DUP1 PUSH4 0x8DA5CB5B EQ PUSH2 0x2A9 JUMPI PUSH0 DUP1 REVERT JUMPDEST DUP1 PUSH4 0x23B872DD GT PUSH2 0x13D JUMPI DUP1 PUSH4 0x663AB59D GT PUSH2 0x118 JUMPI DUP1 PUSH4 0x663AB59D EQ PUSH2 0x251 JUMPI DUP1 PUSH4 0x6E71473B EQ PUSH2 0x264 JUMPI DUP1 PUSH4 0x70A08231 EQ PUSH2 0x277 JUMPI PUSH0 DUP1 REVERT JUMPDEST DUP1 PUSH4 0x23B872DD EQ PUSH2 0x218 JUMPI DUP1 PUSH4 0x42842E0E EQ PUSH2 0x22B JUMPI DUP1 PUSH4 0x6352211E EQ PUSH2 0x23E JUMPI PUSH0 DUP1 REVERT JUMPDEST DUP1 PUSH4 0x81812FC GT PUSH2 0x16D JUMPI DUP1 PUSH4 0x81812FC EQ PUSH2 0x1C5 JUMPI DUP1 PUSH4 0x95EA7B3 EQ PUSH2 0x1F0 JUMPI DUP1 PUSH4 0x1B827671 EQ PUSH2 0x205 JUMPI PUSH0 DUP1 REVERT JUMPDEST DUP1 PUSH4 0x1FFC9A7 EQ PUSH2 0x188 JUMPI DUP1 PUSH4 0x6FDDE03 EQ PUSH2 0x1B0 JUMPI JUMPDEST PUSH0 DUP1 REVERT JUMPDEST PUSH2 0x19B PUSH2 0x196 CALLDATASIZE PUSH1 0x4 PUSH2 0x17FD JUMP JUMPDEST PUSH2 0x38E JUMP JUMPDEST PUSH1 0x40 MLOAD SWAP1 ISZERO ISZERO DUP2 MSTORE PUSH1 0x20 ADD JUMPDEST PUSH1 0x40 MLOAD DUP1 SWAP2 SUB SWAP1 RETURN JUMPDEST PUSH2 0x1B8 PUSH2 0x3DF JUMP JUMPDEST PUSH1 0x40 MLOAD PUSH2 0x1A7 SWAP2 SWAP1 PUSH2 0x1846 JUMP JUMPDEST PUSH2 0x1D8 PUSH2 0x1D3 CALLDATASIZE PUSH1 0x4 PUSH2 0x1858 JUMP JUMPDEST PUSH2 0x46E JUMP JUMPDEST PUSH1 0x40 MLOAD PUSH1 0x1 PUSH1 0x1 PUSH1 0xA0 SHL SUB SWAP1 SWAP2 AND DUP2 MSTORE PUSH1 0x20 ADD PUSH2 0x1A7 JUMP JUMPDEST PUSH2 0x203 PUSH2 0x1FE CALLDATASIZE PUSH1 0x4 PUSH2 0x1883 JUMP JUMPDEST PUSH2 0x493 JUMP JUMPDEST STOP JUMPDEST PUSH2 0x203 PUSH2 0x213 CALLDATASIZE PUSH1 0x4 PUSH2 0x18AD JUMP JUMPDEST PUSH2 0x5AC JUMP JUMPDEST PUSH2 0x203 PUSH2 0x226 CALLDATASIZE PUSH1 0x4 PUSH2 0x18DB JUMP JUMPDEST PUSH2 0x7D2 JUMP JUMPDEST PUSH2 0x203 PUSH2 0x239 CALLDATASIZE PUSH1 0x4 PUSH2 0x18DB JUMP JUMPDEST PUSH2 0x849 JUMP JUMPDEST PUSH2 0x1D8 PUSH2 0x24C CALLDATASIZE PUSH1 0x4 PUSH2 0x1858 JUMP JUMPDEST PUSH2 0x863 JUMP JUMPDEST PUSH1 0x9 SLOAD PUSH2 0x1D8 SWAP1 PUSH1 0x1 PUSH1 0x1 PUSH1 0xA0 SHL SUB AND DUP2 JUMP JUMPDEST PUSH2 0x203 PUSH2 0x272 CALLDATASIZE PUSH1 0x4 PUSH2 0x18AD JUMP JUMPDEST PUSH2 0x8C7 JUMP JUMPDEST PUSH2 0x28A PUSH2 0x285 CALLDATASIZE PUSH1 0x4 PUSH2 0x1919 JUMP JUMPDEST PUSH2 0xA82 JUMP JUMPDEST PUSH1 0x40 MLOAD SWAP1 DUP2 MSTORE PUSH1 0x20 ADD PUSH2 0x1A7 JUMP JUMPDEST PUSH2 0x203 PUSH2 0xB1A JUMP JUMPDEST PUSH2 0x28A PUSH1 0xA SLOAD DUP2 JUMP JUMPDEST PUSH1 0x6 SLOAD PUSH1 0x1 PUSH1 0x1 PUSH1 0xA0 SHL SUB AND PUSH2 0x1D8 JUMP JUMPDEST PUSH2 0x1B8 PUSH2 0xB2D JUMP JUMPDEST PUSH2 0x203 PUSH2 0x2D0 CALLDATASIZE PUSH1 0x4 PUSH2 0x1919 JUMP JUMPDEST PUSH2 0xB3C JUMP JUMPDEST PUSH2 0x203 PUSH2 0x2E3 CALLDATASIZE PUSH1 0x4 PUSH2 0x1934 JUMP JUMPDEST PUSH2 0xBC4 JUMP JUMPDEST PUSH2 0x203 PUSH2 0x2F6 CALLDATASIZE PUSH1 0x4 PUSH2 0x1978 JUMP JUMPDEST PUSH2 0xBD3 JUMP JUMPDEST PUSH2 0x305 PUSH3 0xF4240 DUP2 JUMP JUMPDEST PUSH1 0x40 MLOAD PUSH4 0xFFFFFFFF SWAP1 SWAP2 AND DUP2 MSTORE PUSH1 0x20 ADD PUSH2 0x1A7 JUMP JUMPDEST PUSH2 0x1B8 PUSH2 0x328 CALLDATASIZE PUSH1 0x4 PUSH2 0x1858 JUMP JUMPDEST PUSH2 0xC51 JUMP JUMPDEST PUSH2 0x19B PUSH2 0x33B CALLDATASIZE PUSH1 0x4 PUSH2 0x1A51 JUMP JUMPDEST PUSH1 0x1 PUSH1 0x1 PUSH1 0xA0 SHL SUB SWAP2 DUP3 AND PUSH0 SWAP1 DUP2 MSTORE PUSH1 0x5 PUSH1 0x20 SWAP1 DUP2 MSTORE PUSH1 0x40 DUP1 DUP4 KECCAK256 SWAP4 SWAP1 SWAP5 AND DUP3 MSTORE SWAP2 SWAP1 SWAP2 MSTORE KECCAK256 SLOAD PUSH1 0xFF AND SWAP1 JUMP JUMPDEST PUSH2 0x203 PUSH2 0x376 CALLDATASIZE PUSH1 0x4 PUSH2 0x1919 JUMP JUMPDEST PUSH2 0xCC1 JUMP JUMPDEST PUSH1 0x8 SLOAD PUSH2 0x1D8 SWAP1 PUSH1 0x1 PUSH1 0x1 PUSH1 0xA0 SHL SUB AND DUP2 JUMP JUMPDEST PUSH0 PUSH1 0x1 PUSH1 0x1 PUSH1 0xE0 SHL SUB NOT DUP3 AND PUSH4 0x80AC58CD PUSH1 0xE0 SHL EQ DUP1 PUSH2 0x3BE JUMPI POP PUSH1 0x1 PUSH1 0x1 PUSH1 0xE0 SHL SUB NOT DUP3 AND PUSH4 0x5B5E139F PUSH1 0xE0 SHL EQ JUMPDEST DUP1 PUSH2 0x3D9 JUMPI POP PUSH4 0x1FFC9A7 PUSH1 0xE0 SHL PUSH1 0x1 PUSH1 0x1 PUSH1 0xE0 SHL SUB NOT DUP4 AND EQ JUMPDEST SWAP3 SWAP2 POP POP JUMP JUMPDEST PUSH1 0x60 PUSH0 DUP1 SLOAD PUSH2 0x3ED SWAP1 PUSH2 0x1A7D JUMP JUMPDEST DUP1 PUSH1 0x1F ADD PUSH1 0x20 DUP1 SWAP2 DIV MUL PUSH1 0x20 ADD PUSH1 0x40 MLOAD SWAP1 DUP2 ADD PUSH1 0x40 MSTORE DUP1 SWAP3 SWAP2 SWAP1 DUP2 DUP2 MSTORE PUSH1 0x20 ADD DUP3 DUP1 SLOAD PUSH2 0x419 SWAP1 PUSH2 0x1A7D JUMP JUMPDEST DUP1 ISZERO PUSH2 0x464 JUMPI DUP1 PUSH1 0x1F LT PUSH2 0x43B JUMPI PUSH2 0x100 DUP1 DUP4 SLOAD DIV MUL DUP4 MSTORE SWAP2 PUSH1 0x20 ADD SWAP2 PUSH2 0x464 JUMP JUMPDEST DUP3 ADD SWAP2 SWAP1 PUSH0 MSTORE PUSH1 0x20 PUSH0 KECCAK256 SWAP1 JUMPDEST DUP2 SLOAD DUP2 MSTORE SWAP1 PUSH1 0x1 ADD SWAP1 PUSH1 0x20 ADD DUP1 DUP4 GT PUSH2 0x447 JUMPI DUP3 SWAP1 SUB PUSH1 0x1F AND DUP3 ADD SWAP2 JUMPDEST POP POP POP POP POP SWAP1 POP SWAP1 JUMP JUMPDEST PUSH0 PUSH2 0x478 DUP3 PUSH2 0xD51 JUMP JUMPDEST POP PUSH0 SWAP1 DUP2 MSTORE PUSH1 0x4 PUSH1 0x20 MSTORE PUSH1 0x40 SWAP1 KECCAK256 SLOAD PUSH1 0x1 PUSH1 0x1 PUSH1 0xA0 SHL SUB AND SWAP1 JUMP JUMPDEST PUSH0 PUSH2 0x49D DUP3 PUSH2 0x863 JUMP JUMPDEST SWAP1 POP DUP1 PUSH1 0x1 PUSH1 0x1 PUSH1 0xA0 SHL SUB AND DUP4 PUSH1 0x1 PUSH1 0x1 PUSH1 0xA0 SHL SUB AND SUB PUSH2 0x50F JUMPI PUSH1 0x40 MLOAD PUSH3 0x461BCD PUSH1 0xE5 SHL DUP2 MSTORE PUSH1 0x20 PUSH1 0x4 DUP3 ADD MSTORE PUSH1 0x21 PUSH1 0x24 DUP3 ADD MSTORE PUSH32 0x4552433732313A20617070726F76616C20746F2063757272656E74206F776E65 PUSH1 0x44 DUP3 ADD MSTORE PUSH1 0x39 PUSH1 0xF9 SHL PUSH1 0x64 DUP3 ADD MSTORE PUSH1 0x84 ADD JUMPDEST PUSH1 0x40 MLOAD DUP1 SWAP2 SUB SWAP1 REVERT JUMPDEST CALLER PUSH1 0x1 PUSH1 0x1 PUSH1 0xA0 SHL SUB DUP3 AND EQ DUP1 PUSH2 0x52B JUMPI POP PUSH2 0x52B DUP2 CALLER PUSH2 0x33B JUMP JUMPDEST PUSH2 0x59D JUMPI PUSH1 0x40 MLOAD PUSH3 0x461BCD PUSH1 0xE5 SHL DUP2 MSTORE PUSH1 0x20 PUSH1 0x4 DUP3 ADD MSTORE PUSH1 0x3D PUSH1 0x24 DUP3 ADD MSTORE PUSH32 0x4552433732313A20617070726F76652063616C6C6572206973206E6F7420746F PUSH1 0x44 DUP3 ADD MSTORE PUSH32 0x6B656E206F776E6572206F7220617070726F76656420666F7220616C6C000000 PUSH1 0x64 DUP3 ADD MSTORE PUSH1 0x84 ADD PUSH2 0x506 JUMP JUMPDEST PUSH2 0x5A7 DUP4 DUP4 PUSH2 0xDB4 JUMP JUMPDEST POP POP POP JUMP JUMPDEST PUSH1 0x2 PUSH1 0x7 SLOAD SUB PUSH2 0x5FE JUMPI PUSH1 0x40 MLOAD PUSH3 0x461BCD PUSH1 0xE5 SHL DUP2 MSTORE PUSH1 0x20 PUSH1 0x4 DUP3 ADD MSTORE PUSH1 0x1F PUSH1 0x24 DUP3 ADD MSTORE PUSH32 0x5265656E7472616E637947756172643A207265656E7472616E742063616C6C00 PUSH1 0x44 DUP3 ADD MSTORE PUSH1 0x64 ADD PUSH2 0x506 JUMP JUMPDEST PUSH1 0x2 PUSH1 0x7 SSTORE PUSH1 0x8 SLOAD PUSH1 0x1 PUSH1 0x1 PUSH1 0xA0 SHL SUB AND CALLER EQ PUSH2 0x65D JUMPI PUSH1 0x40 MLOAD PUSH3 0x461BCD PUSH1 0xE5 SHL DUP2 MSTORE PUSH1 0x20 PUSH1 0x4 DUP3 ADD MSTORE PUSH1 0x16 PUSH1 0x24 DUP3 ADD MSTORE PUSH32 0x556E617574686F72697A6564206D657373656E67657200000000000000000000 PUSH1 0x44 DUP3 ADD MSTORE PUSH1 0x64 ADD PUSH2 0x506 JUMP JUMPDEST PUSH1 0x9 SLOAD PUSH1 0x8 SLOAD PUSH1 0x40 DUP1 MLOAD PUSH4 0x33A6FB89 PUSH1 0xE1 SHL DUP2 MSTORE SWAP1 MLOAD PUSH1 0x1 PUSH1 0x1 PUSH1 0xA0 SHL SUB SWAP4 DUP5 AND SWAP4 SWAP1 SWAP3 AND SWAP2 PUSH4 0x674DF712 SWAP2 PUSH1 0x4 DUP1 DUP3 ADD SWAP3 PUSH1 0x20 SWAP3 SWAP1 SWAP2 SWAP1 DUP3 SWAP1 SUB ADD DUP2 DUP7 GAS STATICCALL ISZERO DUP1 ISZERO PUSH2 0x6AC JUMPI RETURNDATASIZE PUSH0 DUP1 RETURNDATACOPY RETURNDATASIZE PUSH0 REVERT JUMPDEST POP POP POP POP PUSH1 0x40 MLOAD RETURNDATASIZE PUSH1 0x1F NOT PUSH1 0x1F DUP3 ADD AND DUP3 ADD DUP1 PUSH1 0x40 MSTORE POP DUP2 ADD SWAP1 PUSH2 0x6D0 SWAP2 SWAP1 PUSH2 0x1AB5 JUMP JUMPDEST PUSH1 0x1 PUSH1 0x1 PUSH1 0xA0 SHL SUB AND EQ PUSH2 0x726 JUMPI PUSH1 0x40 MLOAD PUSH3 0x461BCD PUSH1 0xE5 SHL DUP2 MSTORE PUSH1 0x20 PUSH1 0x4 DUP3 ADD MSTORE PUSH1 0x11 PUSH1 0x24 DUP3 ADD MSTORE PUSH32 0x496E76616C6964204C312073656E646572000000000000000000000000000000 PUSH1 0x44 DUP3 ADD MSTORE PUSH1 0x64 ADD PUSH2 0x506 JUMP JUMPDEST PUSH0 DUP3 DUP2 MSTORE PUSH1 0x2 PUSH1 0x20 MSTORE PUSH1 0x40 SWAP1 KECCAK256 SLOAD PUSH1 0x1 PUSH1 0x1 PUSH1 0xA0 SHL SUB AND ISZERO PUSH2 0x78A JUMPI PUSH1 0x40 MLOAD PUSH3 0x461BCD PUSH1 0xE5 SHL DUP2 MSTORE PUSH1 0x20 PUSH1 0x4 DUP3 ADD MSTORE PUSH1 0x14 PUSH1 0x24 DUP3 ADD MSTORE PUSH32 0x546F6B656E20616C726561647920657869737473000000000000000000000000 PUSH1 0x44 DUP3 ADD MSTORE PUSH1 0x64 ADD PUSH2 0x506 JUMP JUMPDEST PUSH2 0x794 DUP2 DUP4 PUSH2 0xE21 JUMP JUMPDEST PUSH1 0x40 MLOAD PUSH1 0x1 PUSH1 0x1 PUSH1 0xA0 SHL SUB DUP3 AND SWAP1 DUP4 SWAP1 PUSH32 0xE7800C6D4262C7DAA24E0EF4EC42DF968EAEB6CDEBD0E70A05AB4852742788D6 SWAP1 PUSH0 SWAP1 LOG3 POP POP PUSH1 0x1 PUSH1 0x7 SSTORE JUMP JUMPDEST PUSH2 0x7DC CALLER DUP3 PUSH2 0xE3A JUMP JUMPDEST PUSH2 0x83E JUMPI PUSH1 0x40 MLOAD PUSH3 0x461BCD PUSH1 0xE5 SHL DUP2 MSTORE PUSH1 0x20 PUSH1 0x4 DUP3 ADD MSTORE PUSH1 0x2D PUSH1 0x24 DUP3 ADD MSTORE PUSH32 0x4552433732313A2063616C6C6572206973206E6F7420746F6B656E206F776E65 PUSH1 0x44 DUP3 ADD MSTORE PUSH13 0x1C881BDC88185C1C1C9BDD9959 PUSH1 0x9A SHL PUSH1 0x64 DUP3 ADD MSTORE PUSH1 0x84 ADD PUSH2 0x506 JUMP JUMPDEST PUSH2 0x5A7 DUP4 DUP4 DUP4 PUSH2 0xEB7 JUMP JUMPDEST PUSH2 0x5A7 DUP4 DUP4 DUP4 PUSH1 0x40 MLOAD DUP1 PUSH1 0x20 ADD PUSH1 0x40 MSTORE DUP1 PUSH0 DUP2 MSTORE POP PUSH2 0xBD3 JUMP JUMPDEST PUSH0 DUP2 DUP2 MSTORE PUSH1 0x2 PUSH1 0x20 MSTORE PUSH1 0x40 DUP2 KECCAK256 SLOAD PUSH1 0x1 PUSH1 0x1 PUSH1 0xA0 SHL SUB AND DUP1 PUSH2 0x3D9 JUMPI PUSH1 0x40 MLOAD PUSH3 0x461BCD PUSH1 0xE5 SHL DUP2 MSTORE PUSH1 0x20 PUSH1 0x4 DUP3 ADD MSTORE PUSH1 0x18 PUSH1 0x24 DUP3 ADD MSTORE PUSH32 0x4552433732313A20696E76616C696420746F6B656E2049440000000000000000 PUSH1 0x44 DUP3 ADD MSTORE PUSH1 0x64 ADD PUSH2 0x506 JUMP JUMPDEST PUSH1 0x2 PUSH1 0x7 SLOAD SUB PUSH2 0x919 JUMPI PUSH1 0x40 MLOAD PUSH3 0x461BCD PUSH1 0xE5 SHL DUP2 MSTORE PUSH1 0x20 PUSH1 0x4 DUP3 ADD MSTORE PUSH1 0x1F PUSH1 0x24 DUP3 ADD MSTORE PUSH32 0x5265656E7472616E637947756172643A207265656E7472616E742063616C6C00 PUSH1 0x44 DUP3 ADD MSTORE PUSH1 0x64 ADD PUSH2 0x506 JUMP JUMPDEST PUSH1 0x2 PUSH1 0x7 SSTORE PUSH2 0x928 CALLER DUP4 PUSH2 0xE3A JUMP JUMPDEST PUSH2 0x974 JUMPI PUSH1 0x40 MLOAD PUSH3 0x461BCD PUSH1 0xE5 SHL DUP2 MSTORE PUSH1 0x20 PUSH1 0x4 DUP3 ADD DUP2 SWAP1 MSTORE PUSH1 0x24 DUP3 ADD MSTORE PUSH32 0x43616C6C6572206973206E6F74206F776E6572206E6F7220617070726F766564 PUSH1 0x44 DUP3 ADD MSTORE PUSH1 0x64 ADD PUSH2 0x506 JUMP JUMPDEST PUSH2 0x97D DUP3 PUSH2 0x1095 JUMP JUMPDEST PUSH1 0x40 MLOAD PUSH1 0x1 PUSH1 0x1 PUSH1 0xA0 SHL SUB DUP3 AND SWAP1 DUP4 SWAP1 PUSH32 0xD5DF47BFE7B82577BF15BE85E7A913251185A6F2D19B35211F8E2C060C995F05 SWAP1 PUSH0 SWAP1 LOG3 PUSH1 0x40 MLOAD PUSH1 0x24 DUP2 ADD DUP4 SWAP1 MSTORE PUSH1 0x1 PUSH1 0x1 PUSH1 0xA0 SHL SUB DUP3 AND PUSH1 0x44 DUP3 ADD MSTORE PUSH0 SWAP1 PUSH1 0x64 ADD PUSH1 0x40 DUP1 MLOAD PUSH1 0x1F NOT DUP2 DUP5 SUB ADD DUP2 MSTORE SWAP2 DUP2 MSTORE PUSH1 0x20 DUP3 ADD DUP1 MLOAD PUSH28 0xFFFFFFFFFFFFFFFFFFFFFFFFFFFFFFFFFFFFFFFFFFFFFFFFFFFFFFFF AND PUSH4 0x4343BF9 PUSH1 0xE1 SHL OR SWAP1 MSTORE PUSH1 0x8 SLOAD PUSH1 0x9 SLOAD SWAP2 MLOAD PUSH4 0x3DBB202B PUSH1 0xE0 SHL DUP2 MSTORE SWAP3 SWAP4 POP PUSH1 0x1 PUSH1 0x1 PUSH1 0xA0 SHL SUB SWAP1 DUP2 AND SWAP3 PUSH4 0x3DBB202B SWAP3 PUSH2 0xA4B SWAP3 AND SWAP1 DUP6 SWAP1 PUSH3 0xF4240 SWAP1 PUSH1 0x4 ADD PUSH2 0x1AD0 JUMP JUMPDEST PUSH0 PUSH1 0x40 MLOAD DUP1 DUP4 SUB DUP2 PUSH0 DUP8 DUP1 EXTCODESIZE ISZERO DUP1 ISZERO PUSH2 0xA62 JUMPI PUSH0 DUP1 REVERT JUMPDEST POP GAS CALL ISZERO DUP1 ISZERO PUSH2 0xA74 JUMPI RETURNDATASIZE PUSH0 DUP1 RETURNDATACOPY RETURNDATASIZE PUSH0 REVERT JUMPDEST POP POP PUSH1 0x1 PUSH1 0x7 SSTORE POP POP POP POP POP JUMP JUMPDEST PUSH0 PUSH1 0x1 PUSH1 0x1 PUSH1 0xA0 SHL SUB DUP3 AND PUSH2 0xAFF JUMPI PUSH1 0x40 MLOAD PUSH3 0x461BCD PUSH1 0xE5 SHL DUP2 MSTORE PUSH1 0x20 PUSH1 0x4 DUP3 ADD MSTORE PUSH1 0x29 PUSH1 0x24 DUP3 ADD MSTORE PUSH32 0x4552433732313A2061646472657373207A65726F206973206E6F742061207661 PUSH1 0x44 DUP3 ADD MSTORE PUSH32 0x6C6964206F776E65720000000000000000000000000000000000000000000000 PUSH1 0x64 DUP3 ADD MSTORE PUSH1 0x84 ADD PUSH2 0x506 JUMP JUMPDEST POP PUSH1 0x1 PUSH1 0x1 PUSH1 0xA0 SHL SUB AND PUSH0 SWAP1 DUP2 MSTORE PUSH1 0x3 PUSH1 0x20 MSTORE PUSH1 0x40 SWAP1 KECCAK256 SLOAD SWAP1 JUMP JUMPDEST PUSH2 0xB22 PUSH2 0x1127 JUMP JUMPDEST PUSH2 0xB2B PUSH0 PUSH2 0x1181 JUMP JUMPDEST JUMP JUMPDEST PUSH1 0x60 PUSH1 0x1 DUP1 SLOAD PUSH2 0x3ED SWAP1 PUSH2 0x1A7D JUMP JUMPDEST PUSH2 0xB44 PUSH2 0x1127 JUMP JUMPDEST PUSH1 0x2 PUSH1 0x7 SLOAD SUB PUSH2 0xB96 JUMPI PUSH1 0x40 MLOAD PUSH3 0x461BCD PUSH1 0xE5 SHL DUP2 MSTORE PUSH1 0x20 PUSH1 0x4 DUP3 ADD MSTORE PUSH1 0x1F PUSH1 0x24 DUP3 ADD MSTORE PUSH32 0x5265656E7472616E637947756172643A207265656E7472616E742063616C6C00 PUSH1 0x44 DUP3 ADD MSTORE PUSH1 0x64 ADD PUSH2 0x506 JUMP JUMPDEST PUSH1 0x2 PUSH1 0x7 SSTORE PUSH1 0xA DUP1 SLOAD SWAP1 DUP2 SWAP1 PUSH0 PUSH2 0xBAC DUP4 PUSH2 0x1B07 JUMP JUMPDEST SWAP2 SWAP1 POP SSTORE POP PUSH2 0xBBB DUP3 DUP3 PUSH2 0xE21 JUMP JUMPDEST POP POP PUSH1 0x1 PUSH1 0x7 SSTORE JUMP JUMPDEST PUSH2 0xBCF CALLER DUP4 DUP4 PUSH2 0x11D2 JUMP JUMPDEST POP POP JUMP JUMPDEST PUSH2 0xBDD CALLER DUP4 PUSH2 0xE3A JUMP JUMPDEST PUSH2 0xC3F JUMPI PUSH1 0x40 MLOAD PUSH3 0x461BCD PUSH1 0xE5 SHL DUP2 MSTORE PUSH1 0x20 PUSH1 0x4 DUP3 ADD MSTORE PUSH1 0x2D PUSH1 0x24 DUP3 ADD MSTORE PUSH32 0x4552433732313A2063616C6C6572206973206E6F7420746F6B656E206F776E65 PUSH1 0x44 DUP3 ADD MSTORE PUSH13 0x1C881BDC88185C1C1C9BDD9959 PUSH1 0x9A SHL PUSH1 0x64 DUP3 ADD MSTORE PUSH1 0x84 ADD PUSH2 0x506 JUMP JUMPDEST PUSH2 0xC4B DUP5 DUP5 DUP5 DUP5 PUSH2 0x129F JUMP JUMPDEST POP POP POP POP JUMP JUMPDEST PUSH1 0x60 PUSH2 0xC5C DUP3 PUSH2 0xD51 JUMP JUMPDEST PUSH0 PUSH2 0xC71 PUSH1 0x40 DUP1 MLOAD PUSH1 0x20 DUP2 ADD SWAP1 SWAP2 MSTORE PUSH0 DUP2 MSTORE SWAP1 JUMP JUMPDEST SWAP1 POP PUSH0 DUP2 MLOAD GT PUSH2 0xC8F JUMPI PUSH1 0x40 MLOAD DUP1 PUSH1 0x20 ADD PUSH1 0x40 MSTORE DUP1 PUSH0 DUP2 MSTORE POP PUSH2 0xCBA JUMP JUMPDEST DUP1 PUSH2 0xC99 DUP5 PUSH2 0x131D JUMP JUMPDEST PUSH1 0x40 MLOAD PUSH1 0x20 ADD PUSH2 0xCAA SWAP3 SWAP2 SWAP1 PUSH2 0x1B42 JUMP JUMPDEST PUSH1 0x40 MLOAD PUSH1 0x20 DUP2 DUP4 SUB SUB DUP2 MSTORE SWAP1 PUSH1 0x40 MSTORE JUMPDEST SWAP4 SWAP3 POP POP POP JUMP JUMPDEST PUSH2 0xCC9 PUSH2 0x1127 JUMP JUMPDEST PUSH1 0x1 PUSH1 0x1 PUSH1 0xA0 SHL SUB DUP2 AND PUSH2 0xD45 JUMPI PUSH1 0x40 MLOAD PUSH3 0x461BCD PUSH1 0xE5 SHL DUP2 MSTORE PUSH1 0x20 PUSH1 0x4 DUP3 ADD MSTORE PUSH1 0x26 PUSH1 0x24 DUP3 ADD MSTORE PUSH32 0x4F776E61626C653A206E6577206F776E657220697320746865207A65726F2061 PUSH1 0x44 DUP3 ADD MSTORE PUSH32 0x6464726573730000000000000000000000000000000000000000000000000000 PUSH1 0x64 DUP3 ADD MSTORE PUSH1 0x84 ADD PUSH2 0x506 JUMP JUMPDEST PUSH2 0xD4E DUP2 PUSH2 0x1181 JUMP JUMPDEST POP JUMP JUMPDEST PUSH0 DUP2 DUP2 MSTORE PUSH1 0x2 PUSH1 0x20 MSTORE PUSH1 0x40 SWAP1 KECCAK256 SLOAD PUSH1 0x1 PUSH1 0x1 PUSH1 0xA0 SHL SUB AND PUSH2 0xD4E JUMPI PUSH1 0x40 MLOAD PUSH3 0x461BCD PUSH1 0xE5 SHL DUP2 MSTORE PUSH1 0x20 PUSH1 0x4 DUP3 ADD MSTORE PUSH1 0x18 PUSH1 0x24 DUP3 ADD MSTORE PUSH32 0x4552433732313A20696E76616C696420746F6B656E2049440000000000000000 PUSH1 0x44 DUP3 ADD MSTORE PUSH1 0x64 ADD PUSH2 0x506 JUMP JUMPDEST PUSH0 DUP2 DUP2 MSTORE PUSH1 0x4 PUSH1 0x20 MSTORE PUSH1 0x40 SWAP1 KECCAK256 DUP1 SLOAD PUSH1 0x1 PUSH1 0x1 PUSH1 0xA0 SHL SUB NOT AND PUSH1 0x1 PUSH1 0x1 PUSH1 0xA0 SHL SUB DUP5 AND SWAP1 DUP2 OR SWAP1 SWAP2 SSTORE DUP2 SWAP1 PUSH2 0xDE8 DUP3 PUSH2 0x863 JUMP JUMPDEST PUSH1 0x1 PUSH1 0x1 PUSH1 0xA0 SHL SUB AND PUSH32 0x8C5BE1E5EBEC7D5BD14F71427D1E84F3DD0314C0F7B2291E5B200AC8C7C3B925 PUSH1 0x40 MLOAD PUSH1 0x40 MLOAD DUP1 SWAP2 SUB SWAP1 LOG4 POP POP JUMP JUMPDEST PUSH2 0xBCF DUP3 DUP3 PUSH1 0x40 MLOAD DUP1 PUSH1 0x20 ADD PUSH1 0x40 MSTORE DUP1 PUSH0 DUP2 MSTORE POP PUSH2 0x13BA JUMP JUMPDEST PUSH0 DUP1 PUSH2 0xE45 DUP4 PUSH2 0x863 JUMP JUMPDEST SWAP1 POP DUP1 PUSH1 0x1 PUSH1 0x1 PUSH1 0xA0 SHL SUB AND DUP5 PUSH1 0x1 PUSH1 0x1 PUSH1 0xA0 SHL SUB AND EQ DUP1 PUSH2 0xE8B JUMPI POP PUSH1 0x1 PUSH1 0x1 PUSH1 0xA0 SHL SUB DUP1 DUP3 AND PUSH0 SWAP1 DUP2 MSTORE PUSH1 0x5 PUSH1 0x20 SWAP1 DUP2 MSTORE PUSH1 0x40 DUP1 DUP4 KECCAK256 SWAP4 DUP9 AND DUP4 MSTORE SWAP3 SWAP1 MSTORE KECCAK256 SLOAD PUSH1 0xFF AND JUMPDEST DUP1 PUSH2 0xEAF JUMPI POP DUP4 PUSH1 0x1 PUSH1 0x1 PUSH1 0xA0 SHL SUB AND PUSH2 0xEA4 DUP5 PUSH2 0x46E JUMP JUMPDEST PUSH1 0x1 PUSH1 0x1 PUSH1 0xA0 SHL SUB AND EQ JUMPDEST SWAP5 SWAP4 POP POP POP POP JUMP JUMPDEST DUP3 PUSH1 0x1 PUSH1 0x1 PUSH1 0xA0 SHL SUB AND PUSH2 0xECA DUP3 PUSH2 0x863 JUMP JUMPDEST PUSH1 0x1 PUSH1 0x1 PUSH1 0xA0 SHL SUB AND EQ PUSH2 0xF2E JUMPI PUSH1 0x40 MLOAD PUSH3 0x461BCD PUSH1 0xE5 SHL DUP2 MSTORE PUSH1 0x20 PUSH1 0x4 DUP3 ADD MSTORE PUSH1 0x25 PUSH1 0x24 DUP3 ADD MSTORE PUSH32 0x4552433732313A207472616E736665722066726F6D20696E636F727265637420 PUSH1 0x44 DUP3 ADD MSTORE PUSH5 0x37BBB732B9 PUSH1 0xD9 SHL PUSH1 0x64 DUP3 ADD MSTORE PUSH1 0x84 ADD PUSH2 0x506 JUMP JUMPDEST PUSH1 0x1 PUSH1 0x1 PUSH1 0xA0 SHL SUB DUP3 AND PUSH2 0xF90 JUMPI PUSH1 0x40 MLOAD PUSH3 0x461BCD PUSH1 0xE5 SHL DUP2 MSTORE PUSH1 0x20 PUSH1 0x4 DUP3 ADD MSTORE PUSH1 0x24 DUP1 DUP3 ADD MSTORE PUSH32 0x4552433732313A207472616E7366657220746F20746865207A65726F20616464 PUSH1 0x44 DUP3 ADD MSTORE PUSH4 0x72657373 PUSH1 0xE0 SHL PUSH1 0x64 DUP3 ADD MSTORE PUSH1 0x84 ADD PUSH2 0x506 JUMP JUMPDEST DUP3 PUSH1 0x1 PUSH1 0x1 PUSH1 0xA0 SHL SUB AND PUSH2 0xFA3 DUP3 PUSH2 0x863 JUMP JUMPDEST PUSH1 0x1 PUSH1 0x1 PUSH1 0xA0 SHL SUB AND EQ PUSH2 0x1007 JUMPI PUSH1 0x40 MLOAD PUSH3 0x461BCD PUSH1 0xE5 SHL DUP2 MSTORE PUSH1 0x20 PUSH1 0x4 DUP3 ADD MSTORE PUSH1 0x25 PUSH1 0x24 DUP3 ADD MSTORE PUSH32 0x4552433732313A207472616E736665722066726F6D20696E636F727265637420 PUSH1 0x44 DUP3 ADD MSTORE PUSH5 0x37BBB732B9 PUSH1 0xD9 SHL PUSH1 0x64 DUP3 ADD MSTORE PUSH1 0x84 ADD PUSH2 0x506 JUMP JUMPDEST PUSH0 DUP2 DUP2 MSTORE PUSH1 0x4 PUSH1 0x20 SWAP1 DUP2 MSTORE PUSH1 0x40 DUP1 DUP4 KECCAK256 DUP1 SLOAD PUSH1 0x1 PUSH1 0x1 PUSH1 0xA0 SHL SUB NOT SWAP1 DUP2 AND SWAP1 SWAP2 SSTORE PUSH1 0x1 PUSH1 0x1 PUSH1 0xA0 SHL SUB DUP8 DUP2 AND DUP1 DUP7 MSTORE PUSH1 0x3 DUP6 MSTORE DUP4 DUP7 KECCAK256 DUP1 SLOAD PUSH0 NOT ADD SWAP1 SSTORE SWAP1 DUP8 AND DUP1 DUP7 MSTORE DUP4 DUP7 KECCAK256 DUP1 SLOAD PUSH1 0x1 ADD SWAP1 SSTORE DUP7 DUP7 MSTORE PUSH1 0x2 SWAP1 SWAP5 MSTORE DUP3 DUP6 KECCAK256 DUP1 SLOAD SWAP1 SWAP3 AND DUP5 OR SWAP1 SWAP2 SSTORE SWAP1 MLOAD DUP5 SWAP4 PUSH32 0xDDF252AD1BE2C89B69C2B068FC378DAA952BA7F163C4A11628F55A4DF523B3EF SWAP2 LOG4 POP POP POP JUMP JUMPDEST PUSH0 PUSH2 0x109F DUP3 PUSH2 0x863 JUMP JUMPDEST SWAP1 POP PUSH2 0x10AA DUP3 PUSH2 0x863 JUMP JUMPDEST PUSH0 DUP4 DUP2 MSTORE PUSH1 0x4 PUSH1 0x20 SWAP1 DUP2 MSTORE PUSH1 0x40 DUP1 DUP4 KECCAK256 DUP1 SLOAD PUSH1 0x1 PUSH1 0x1 PUSH1 0xA0 SHL SUB NOT SWAP1 DUP2 AND SWAP1 SWAP2 SSTORE PUSH1 0x1 PUSH1 0x1 PUSH1 0xA0 SHL SUB DUP6 AND DUP1 DUP6 MSTORE PUSH1 0x3 DUP5 MSTORE DUP3 DUP6 KECCAK256 DUP1 SLOAD PUSH0 NOT ADD SWAP1 SSTORE DUP8 DUP6 MSTORE PUSH1 0x2 SWAP1 SWAP4 MSTORE DUP2 DUP5 KECCAK256 DUP1 SLOAD SWAP1 SWAP2 AND SWAP1 SSTORE MLOAD SWAP3 SWAP4 POP DUP5 SWAP3 PUSH32 0xDDF252AD1BE2C89B69C2B068FC378DAA952BA7F163C4A11628F55A4DF523B3EF SWAP1 DUP4 SWAP1 LOG4 POP POP JUMP JUMPDEST PUSH1 0x6 SLOAD PUSH1 0x1 PUSH1 0x1 PUSH1 0xA0 SHL SUB AND CALLER EQ PUSH2 0xB2B JUMPI PUSH1 0x40 MLOAD PUSH3 0x461BCD PUSH1 0xE5 SHL DUP2 MSTORE PUSH1 0x20 PUSH1 0x4 DUP3 ADD DUP2 SWAP1 MSTORE PUSH1 0x24 DUP3 ADD MSTORE PUSH32 0x4F776E61626C653A2063616C6C6572206973206E6F7420746865206F776E6572 PUSH1 0x44 DUP3 ADD MSTORE PUSH1 0x64 ADD PUSH2 0x506 JUMP JUMPDEST PUSH1 0x6 DUP1 SLOAD PUSH1 0x1 PUSH1 0x1 PUSH1 0xA0 SHL SUB DUP4 DUP2 AND PUSH1 0x1 PUSH1 0x1 PUSH1 0xA0 SHL SUB NOT DUP4 AND DUP2 OR SWAP1 SWAP4 SSTORE PUSH1 0x40 MLOAD SWAP2 AND SWAP2 SWAP1 DUP3 SWAP1 PUSH32 0x8BE0079C531659141344CD1FD0A4F28419497F9722A3DAAFE3B4186F6B6457E0 SWAP1 PUSH0 SWAP1 LOG3 POP POP JUMP JUMPDEST DUP2 PUSH1 0x1 PUSH1 0x1 PUSH1 0xA0 SHL SUB AND DUP4 PUSH1 0x1 PUSH1 0x1 PUSH1 0xA0 SHL SUB AND SUB PUSH2 0x1233 JUMPI PUSH1 0x40 MLOAD PUSH3 0x461BCD PUSH1 0xE5 SHL DUP2 MSTORE PUSH1 0x20 PUSH1 0x4 DUP3 ADD MSTORE PUSH1 0x19 PUSH1 0x24 DUP3 ADD MSTORE PUSH32 0x4552433732313A20617070726F766520746F2063616C6C657200000000000000 PUSH1 0x44 DUP3 ADD MSTORE PUSH1 0x64 ADD PUSH2 0x506 JUMP JUMPDEST PUSH1 0x1 PUSH1 0x1 PUSH1 0xA0 SHL SUB DUP4 DUP2 AND PUSH0 DUP2 DUP2 MSTORE PUSH1 0x5 PUSH1 0x20 SWAP1 DUP2 MSTORE PUSH1 0x40 DUP1 DUP4 KECCAK256 SWAP5 DUP8 AND DUP1 DUP5 MSTORE SWAP5 DUP3 MSTORE SWAP2 DUP3 SWAP1 KECCAK256 DUP1 SLOAD PUSH1 0xFF NOT AND DUP7 ISZERO ISZERO SWAP1 DUP2 OR SWAP1 SWAP2 SSTORE SWAP2 MLOAD SWAP2 DUP3 MSTORE PUSH32 0x17307EAB39AB6107E8899845AD3D59BD9653F200F220920489CA2B5937696C31 SWAP2 ADD PUSH1 0x40 MLOAD DUP1 SWAP2 SUB SWAP1 LOG3 POP POP POP JUMP JUMPDEST PUSH2 0x12AA DUP5 DUP5 DUP5 PUSH2 0xEB7 JUMP JUMPDEST PUSH2 0x12B6 DUP5 DUP5 DUP5 DUP5 PUSH2 0x1437 JUMP JUMPDEST PUSH2 0xC4B JUMPI PUSH1 0x40 MLOAD PUSH3 0x461BCD PUSH1 0xE5 SHL DUP2 MSTORE PUSH1 0x20 PUSH1 0x4 DUP3 ADD MSTORE PUSH1 0x32 PUSH1 0x24 DUP3 ADD MSTORE PUSH32 0x4552433732313A207472616E7366657220746F206E6F6E204552433732315265 PUSH1 0x44 DUP3 ADD MSTORE PUSH18 0x31B2B4BB32B91034B6B83632B6B2B73A32B9 PUSH1 0x71 SHL PUSH1 0x64 DUP3 ADD MSTORE PUSH1 0x84 ADD PUSH2 0x506 JUMP JUMPDEST PUSH1 0x60 PUSH0 PUSH2 0x1329 DUP4 PUSH2 0x157F JUMP JUMPDEST PUSH1 0x1 ADD SWAP1 POP PUSH0 DUP2 PUSH8 0xFFFFFFFFFFFFFFFF DUP2 GT ISZERO PUSH2 0x1348 JUMPI PUSH2 0x1348 PUSH2 0x1964 JUMP JUMPDEST PUSH1 0x40 MLOAD SWAP1 DUP1 DUP3 MSTORE DUP1 PUSH1 0x1F ADD PUSH1 0x1F NOT AND PUSH1 0x20 ADD DUP3 ADD PUSH1 0x40 MSTORE DUP1 ISZERO PUSH2 0x1372 JUMPI PUSH1 0x20 DUP3 ADD DUP2 DUP1 CALLDATASIZE DUP4 CALLDATACOPY ADD SWAP1 POP JUMPDEST POP SWAP1 POP DUP2 DUP2 ADD PUSH1 0x20 ADD JUMPDEST PUSH0 NOT ADD PUSH32 0x3031323334353637383961626364656600000000000000000000000000000000 PUSH1 0xA DUP7 MOD BYTE DUP2 MSTORE8 PUSH1 0xA DUP6 DIV SWAP5 POP DUP5 PUSH2 0x137C JUMPI POP SWAP4 SWAP3 POP POP POP JUMP JUMPDEST PUSH2 0x13C4 DUP4 DUP4 PUSH2 0x1660 JUMP JUMPDEST PUSH2 0x13D0 PUSH0 DUP5 DUP5 DUP5 PUSH2 0x1437 JUMP JUMPDEST PUSH2 0x5A7 JUMPI PUSH1 0x40 MLOAD PUSH3 0x461BCD PUSH1 0xE5 SHL DUP2 MSTORE PUSH1 0x20 PUSH1 0x4 DUP3 ADD MSTORE PUSH1 0x32 PUSH1 0x24 DUP3 ADD MSTORE PUSH32 0x4552433732313A207472616E7366657220746F206E6F6E204552433732315265 PUSH1 0x44 DUP3 ADD MSTORE PUSH18 0x31B2B4BB32B91034B6B83632B6B2B73A32B9 PUSH1 0x71 SHL PUSH1 0x64 DUP3 ADD MSTORE PUSH1 0x84 ADD PUSH2 0x506 JUMP JUMPDEST PUSH0 PUSH1 0x1 PUSH1 0x1 PUSH1 0xA0 SHL SUB DUP5 AND EXTCODESIZE ISZERO PUSH2 0x1574 JUMPI PUSH1 0x40 MLOAD PUSH4 0xA85BD01 PUSH1 0xE1 SHL DUP2 MSTORE PUSH1 0x1 PUSH1 0x1 PUSH1 0xA0 SHL SUB DUP6 AND SWAP1 PUSH4 0x150B7A02 SWAP1 PUSH2 0x147A SWAP1 CALLER SWAP1 DUP10 SWAP1 DUP9 SWAP1 DUP9 SWAP1 PUSH1 0x4 ADD PUSH2 0x1B56 JUMP JUMPDEST PUSH1 0x20 PUSH1 0x40 MLOAD DUP1 DUP4 SUB DUP2 PUSH0 DUP8 GAS CALL SWAP3 POP POP POP DUP1 ISZERO PUSH2 0x14B4 JUMPI POP PUSH1 0x40 DUP1 MLOAD PUSH1 0x1F RETURNDATASIZE SWAP1 DUP2 ADD PUSH1 0x1F NOT AND DUP3 ADD SWAP1 SWAP3 MSTORE PUSH2 0x14B1 SWAP2 DUP2 ADD SWAP1 PUSH2 0x1B91 JUMP JUMPDEST PUSH1 0x1 JUMPDEST PUSH2 0x155A JUMPI RETURNDATASIZE DUP1 DUP1 ISZERO PUSH2 0x14E1 JUMPI PUSH1 0x40 MLOAD SWAP2 POP PUSH1 0x1F NOT PUSH1 0x3F RETURNDATASIZE ADD AND DUP3 ADD PUSH1 0x40 MSTORE RETURNDATASIZE DUP3 MSTORE RETURNDATASIZE PUSH0 PUSH1 0x20 DUP5 ADD RETURNDATACOPY PUSH2 0x14E6 JUMP JUMPDEST PUSH1 0x60 SWAP2 POP JUMPDEST POP DUP1 MLOAD PUSH0 SUB PUSH2 0x1552 JUMPI PUSH1 0x40 MLOAD PUSH3 0x461BCD PUSH1 0xE5 SHL DUP2 MSTORE PUSH1 0x20 PUSH1 0x4 DUP3 ADD MSTORE PUSH1 0x32 PUSH1 0x24 DUP3 ADD MSTORE PUSH32 0x4552433732313A207472616E7366657220746F206E6F6E204552433732315265 PUSH1 0x44 DUP3 ADD MSTORE PUSH18 0x31B2B4BB32B91034B6B83632B6B2B73A32B9 PUSH1 0x71 SHL PUSH1 0x64 DUP3 ADD MSTORE PUSH1 0x84 ADD PUSH2 0x506 JUMP JUMPDEST DUP1 MLOAD DUP2 PUSH1 0x20 ADD REVERT JUMPDEST PUSH1 0x1 PUSH1 0x1 PUSH1 0xE0 SHL SUB NOT AND PUSH4 0xA85BD01 PUSH1 0xE1 SHL EQ SWAP1 POP PUSH2 0xEAF JUMP JUMPDEST POP PUSH1 0x1 SWAP5 SWAP4 POP POP POP POP JUMP JUMPDEST PUSH0 DUP1 PUSH27 0x184F03E93FF9F4DAA797ED6E38ED64BF6A1F010000000000000000 DUP4 LT PUSH2 0x15C7 JUMPI PUSH27 0x184F03E93FF9F4DAA797ED6E38ED64BF6A1F010000000000000000 DUP4 DIV SWAP3 POP PUSH1 0x40 ADD JUMPDEST PUSH14 0x4EE2D6D415B85ACEF8100000000 DUP4 LT PUSH2 0x15F3 JUMPI PUSH14 0x4EE2D6D415B85ACEF8100000000 DUP4 DIV SWAP3 POP PUSH1 0x20 ADD JUMPDEST PUSH7 0x2386F26FC10000 DUP4 LT PUSH2 0x1611 JUMPI PUSH7 0x2386F26FC10000 DUP4 DIV SWAP3 POP PUSH1 0x10 ADD JUMPDEST PUSH4 0x5F5E100 DUP4 LT PUSH2 0x1629 JUMPI PUSH4 0x5F5E100 DUP4 DIV SWAP3 POP PUSH1 0x8 ADD JUMPDEST PUSH2 0x2710 DUP4 LT PUSH2 0x163D JUMPI PUSH2 0x2710 DUP4 DIV SWAP3 POP PUSH1 0x4 ADD JUMPDEST PUSH1 0x64 DUP4 LT PUSH2 0x164F JUMPI PUSH1 0x64 DUP4 DIV SWAP3 POP PUSH1 0x2 ADD JUMPDEST PUSH1 0xA DUP4 LT PUSH2 0x3D9 JUMPI PUSH1 0x1 ADD SWAP3 SWAP2 POP POP JUMP JUMPDEST PUSH1 0x1 PUSH1 0x1 PUSH1 0xA0 SHL SUB DUP3 AND PUSH2 0x16B6 JUMPI PUSH1 0x40 MLOAD PUSH3 0x461BCD PUSH1 0xE5 SHL DUP2 MSTORE PUSH1 0x20 PUSH1 0x4 DUP3 ADD DUP2 SWAP1 MSTORE PUSH1 0x24 DUP3 ADD MSTORE PUSH32 0x4552433732313A206D696E7420746F20746865207A65726F2061646472657373 PUSH1 0x44 DUP3 ADD MSTORE PUSH1 0x64 ADD PUSH2 0x506 JUMP JUMPDEST PUSH0 DUP2 DUP2 MSTORE PUSH1 0x2 PUSH1 0x20 MSTORE PUSH1 0x40 SWAP1 KECCAK256 SLOAD PUSH1 0x1 PUSH1 0x1 PUSH1 0xA0 SHL SUB AND ISZERO PUSH2 0x171A JUMPI PUSH1 0x40 MLOAD PUSH3 0x461BCD PUSH1 0xE5 SHL DUP2 MSTORE PUSH1 0x20 PUSH1 0x4 DUP3 ADD MSTORE PUSH1 0x1C PUSH1 0x24 DUP3 ADD MSTORE PUSH32 0x4552433732313A20746F6B656E20616C7265616479206D696E74656400000000 PUSH1 0x44 DUP3 ADD MSTORE PUSH1 0x64 ADD PUSH2 0x506 JUMP JUMPDEST PUSH0 DUP2 DUP2 MSTORE PUSH1 0x2 PUSH1 0x20 MSTORE PUSH1 0x40 SWAP1 KECCAK256 SLOAD PUSH1 0x1 PUSH1 0x1 PUSH1 0xA0 SHL SUB AND ISZERO PUSH2 0x177E JUMPI PUSH1 0x40 MLOAD PUSH3 0x461BCD PUSH1 0xE5 SHL DUP2 MSTORE PUSH1 0x20 PUSH1 0x4 DUP3 ADD MSTORE PUSH1 0x1C PUSH1 0x24 DUP3 ADD MSTORE PUSH32 0x4552433732313A20746F6B656E20616C7265616479206D696E74656400000000 PUSH1 0x44 DUP3 ADD MSTORE PUSH1 0x64 ADD PUSH2 0x506 JUMP JUMPDEST PUSH1 0x1 PUSH1 0x1 PUSH1 0xA0 SHL SUB DUP3 AND PUSH0 DUP2 DUP2 MSTORE PUSH1 0x3 PUSH1 0x20 SWAP1 DUP2 MSTORE PUSH1 0x40 DUP1 DUP4 KECCAK256 DUP1 SLOAD PUSH1 0x1 ADD SWAP1 SSTORE DUP5 DUP4 MSTORE PUSH1 0x2 SWAP1 SWAP2 MSTORE DUP1 DUP3 KECCAK256 DUP1 SLOAD PUSH1 0x1 PUSH1 0x1 PUSH1 0xA0 SHL SUB NOT AND DUP5 OR SWAP1 SSTORE MLOAD DUP4 SWAP3 SWAP2 SWAP1 PUSH32 0xDDF252AD1BE2C89B69C2B068FC378DAA952BA7F163C4A11628F55A4DF523B3EF SWAP1 DUP3 SWAP1 LOG4 POP POP JUMP JUMPDEST PUSH1 0x1 PUSH1 0x1 PUSH1 0xE0 SHL SUB NOT DUP2 AND DUP2 EQ PUSH2 0xD4E JUMPI PUSH0 DUP1 REVERT JUMPDEST PUSH0 PUSH1 0x20 DUP3 DUP5 SUB SLT ISZERO PUSH2 0x180D JUMPI PUSH0 DUP1 REVERT JUMPDEST DUP2 CALLDATALOAD PUSH2 0xCBA DUP2 PUSH2 0x17E8 JUMP JUMPDEST PUSH0 DUP2 MLOAD DUP1 DUP5 MSTORE DUP1 PUSH1 0x20 DUP5 ADD PUSH1 0x20 DUP7 ADD MCOPY PUSH0 PUSH1 0x20 DUP3 DUP7 ADD ADD MSTORE PUSH1 0x20 PUSH1 0x1F NOT PUSH1 0x1F DUP4 ADD AND DUP6 ADD ADD SWAP2 POP POP SWAP3 SWAP2 POP POP JUMP JUMPDEST PUSH1 0x20 DUP2 MSTORE PUSH0 PUSH2 0xCBA PUSH1 0x20 DUP4 ADD DUP5 PUSH2 0x1818 JUMP JUMPDEST PUSH0 PUSH1 0x20 DUP3 DUP5 SUB SLT ISZERO PUSH2 0x1868 JUMPI PUSH0 DUP1 REVERT JUMPDEST POP CALLDATALOAD SWAP2 SWAP1 POP JUMP JUMPDEST PUSH1 0x1 PUSH1 0x1 PUSH1 0xA0 SHL SUB DUP2 AND DUP2 EQ PUSH2 0xD4E JUMPI PUSH0 DUP1 REVERT JUMPDEST PUSH0 DUP1 PUSH1 0x40 DUP4 DUP6 SUB SLT ISZERO PUSH2 0x1894 JUMPI PUSH0 DUP1 REVERT JUMPDEST DUP3 CALLDATALOAD PUSH2 0x189F DUP2 PUSH2 0x186F JUMP JUMPDEST SWAP5 PUSH1 0x20 SWAP4 SWAP1 SWAP4 ADD CALLDATALOAD SWAP4 POP POP POP JUMP JUMPDEST PUSH0 DUP1 PUSH1 0x40 DUP4 DUP6 SUB SLT ISZERO PUSH2 0x18BE JUMPI PUSH0 DUP1 REVERT JUMPDEST DUP3 CALLDATALOAD SWAP2 POP PUSH1 0x20 DUP4 ADD CALLDATALOAD PUSH2 0x18D0 DUP2 PUSH2 0x186F JUMP JUMPDEST DUP1 SWAP2 POP POP SWAP3 POP SWAP3 SWAP1 POP JUMP JUMPDEST PUSH0 DUP1 PUSH0 PUSH1 0x60 DUP5 DUP7 SUB SLT ISZERO PUSH2 0x18ED JUMPI PUSH0 DUP1 REVERT JUMPDEST DUP4 CALLDATALOAD PUSH2 0x18F8 DUP2 PUSH2 0x186F JUMP JUMPDEST SWAP3 POP PUSH1 0x20 DUP5 ADD CALLDATALOAD PUSH2 0x1908 DUP2 PUSH2 0x186F JUMP JUMPDEST SWAP3 SWAP6 SWAP3 SWAP5 POP POP POP PUSH1 0x40 SWAP2 SWAP1 SWAP2 ADD CALLDATALOAD SWAP1 JUMP JUMPDEST PUSH0 PUSH1 0x20 DUP3 DUP5 SUB SLT ISZERO PUSH2 0x1929 JUMPI PUSH0 DUP1 REVERT JUMPDEST DUP2 CALLDATALOAD PUSH2 0xCBA DUP2 PUSH2 0x186F JUMP JUMPDEST PUSH0 DUP1 PUSH1 0x40 DUP4 DUP6 SUB SLT ISZERO PUSH2 0x1945 JUMPI PUSH0 DUP1 REVERT JUMPDEST DUP3 CALLDATALOAD PUSH2 0x1950 DUP2 PUSH2 0x186F JUMP JUMPDEST SWAP2 POP PUSH1 0x20 DUP4 ADD CALLDATALOAD DUP1 ISZERO ISZERO DUP2 EQ PUSH2 0x18D0 JUMPI PUSH0 DUP1 REVERT JUMPDEST PUSH4 0x4E487B71 PUSH1 0xE0 SHL PUSH0 MSTORE PUSH1 0x41 PUSH1 0x4 MSTORE PUSH1 0x24 PUSH0 REVERT JUMPDEST PUSH0 DUP1 PUSH0 DUP1 PUSH1 0x80 DUP6 DUP8 SUB SLT ISZERO PUSH2 0x198B JUMPI PUSH0 DUP1 REVERT JUMPDEST DUP5 CALLDATALOAD PUSH2 0x1996 DUP2 PUSH2 0x186F JUMP JUMPDEST SWAP4 POP PUSH1 0x20 DUP6 ADD CALLDATALOAD PUSH2 0x19A6 DUP2 PUSH2 0x186F JUMP JUMPDEST SWAP3 POP PUSH1 0x40 DUP6 ADD CALLDATALOAD SWAP2 POP PUSH1 0x60 DUP6 ADD CALLDATALOAD PUSH8 0xFFFFFFFFFFFFFFFF DUP1 DUP3 GT ISZERO PUSH2 0x19C9 JUMPI PUSH0 DUP1 REVERT JUMPDEST DUP2 DUP8 ADD SWAP2 POP DUP8 PUSH1 0x1F DUP4 ADD SLT PUSH2 0x19DC JUMPI PUSH0 DUP1 REVERT JUMPDEST DUP2 CALLDATALOAD DUP2 DUP2 GT ISZERO PUSH2 0x19EE JUMPI PUSH2 0x19EE PUSH2 0x1964 JUMP JUMPDEST PUSH1 0x40 MLOAD PUSH1 0x1F DUP3 ADD PUSH1 0x1F NOT SWAP1 DUP2 AND PUSH1 0x3F ADD AND DUP2 ADD SWAP1 DUP4 DUP3 GT DUP2 DUP4 LT OR ISZERO PUSH2 0x1A16 JUMPI PUSH2 0x1A16 PUSH2 0x1964 JUMP JUMPDEST DUP2 PUSH1 0x40 MSTORE DUP3 DUP2 MSTORE DUP11 PUSH1 0x20 DUP5 DUP8 ADD ADD GT ISZERO PUSH2 0x1A2E JUMPI PUSH0 DUP1 REVERT JUMPDEST DUP3 PUSH1 0x20 DUP7 ADD PUSH1 0x20 DUP4 ADD CALLDATACOPY PUSH0 PUSH1 0x20 DUP5 DUP4 ADD ADD MSTORE DUP1 SWAP6 POP POP POP POP POP POP SWAP3 SWAP6 SWAP2 SWAP5 POP SWAP3 POP JUMP JUMPDEST PUSH0 DUP1 PUSH1 0x40 DUP4 DUP6 SUB SLT ISZERO PUSH2 0x1A62 JUMPI PUSH0 DUP1 REVERT JUMPDEST DUP3 CALLDATALOAD PUSH2 0x1A6D DUP2 PUSH2 0x186F JUMP JUMPDEST SWAP2 POP PUSH1 0x20 DUP4 ADD CALLDATALOAD PUSH2 0x18D0 DUP2 PUSH2 0x186F JUMP JUMPDEST PUSH1 0x1 DUP2 DUP2 SHR SWAP1 DUP3 AND DUP1 PUSH2 0x1A91 JUMPI PUSH1 0x7F DUP3 AND SWAP2 POP JUMPDEST PUSH1 0x20 DUP3 LT DUP2 SUB PUSH2 0x1AAF JUMPI PUSH4 0x4E487B71 PUSH1 0xE0 SHL PUSH0 MSTORE PUSH1 0x22 PUSH1 0x4 MSTORE PUSH1 0x24 PUSH0 REVERT JUMPDEST POP SWAP2 SWAP1 POP JUMP JUMPDEST PUSH0 PUSH1 0x20 DUP3 DUP5 SUB SLT ISZERO PUSH2 0x1AC5 JUMPI PUSH0 DUP1 REVERT JUMPDEST DUP2 MLOAD PUSH2 0xCBA DUP2 PUSH2 0x186F JUMP JUMPDEST PUSH1 0x1 PUSH1 0x1 PUSH1 0xA0 SHL SUB DUP5 AND DUP2 MSTORE PUSH1 0x60 PUSH1 0x20 DUP3 ADD MSTORE PUSH0 PUSH2 0x1AF1 PUSH1 0x60 DUP4 ADD DUP6 PUSH2 0x1818 JUMP JUMPDEST SWAP1 POP PUSH4 0xFFFFFFFF DUP4 AND PUSH1 0x40 DUP4 ADD MSTORE SWAP5 SWAP4 POP POP POP POP JUMP JUMPDEST PUSH0 PUSH1 0x1 DUP3 ADD PUSH2 0x1B24 JUMPI PUSH4 0x4E487B71 PUSH1 0xE0 SHL PUSH0 MSTORE PUSH1 0x11 PUSH1 0x4 MSTORE PUSH1 0x24 PUSH0 REVERT JUMPDEST POP PUSH1 0x1 ADD SWAP1 JUMP JUMPDEST PUSH0 DUP2 MLOAD DUP1 PUSH1 0x20 DUP5 ADD DUP6 MCOPY PUSH0 SWAP4 ADD SWAP3 DUP4 MSTORE POP SWAP1 SWAP2 SWAP1 POP JUMP JUMPDEST PUSH0 PUSH2 0xEAF PUSH2 0x1B50 DUP4 DUP7 PUSH2 0x1B2B JUMP JUMPDEST DUP5 PUSH2 0x1B2B JUMP JUMPDEST PUSH0 PUSH1 0x1 PUSH1 0x1 PUSH1 0xA0 SHL SUB DUP1 DUP8 AND DUP4 MSTORE DUP1 DUP7 AND PUSH1 0x20 DUP5 ADD MSTORE POP DUP4 PUSH1 0x40 DUP4 ADD MSTORE PUSH1 0x80 PUSH1 0x60 DUP4 ADD MSTORE PUSH2 0x1B87 PUSH1 0x80 DUP4 ADD DUP5 PUSH2 0x1818 JUMP JUMPDEST SWAP7 SWAP6 POP POP POP POP POP POP JUMP JUMPDEST PUSH0 PUSH1 0x20 DUP3 DUP5 SUB SLT ISZERO PUSH2 0x1BA1 JUMPI PUSH0 DUP1 REVERT JUMPDEST DUP2 MLOAD PUSH2 0xCBA DUP2 PUSH2 0x17E8 JUMP INVALID LOG2 PUSH5 0x6970667358 0x22 SLT KECCAK256 BASEFEE MCOPY 0xC6 0xE8 0xBB 0xDB 0xEA 0xC3 PUSH6 0x93533F5EDA98 EXP CODESIZE PUSH2 0x19F7 SWAP6 PUSH10 0xFCE45A54F982FEDE5572 PUSH5 0x736F6C6343 STOP ADDMOD NOT STOP CALLER "
    },
    "gasEstimates": {
      "creation": {
        "codeDepositCost": "1427600",
        "executionCost": "infinite",
        "totalCost": "infinite"
      },
      "external": {
        "L1_GAS_LIMIT()": "270",
        "adminMint(address)": "infinite",
        "approve(address,uint256)": "infinite",
        "balanceOf(address)": "2668",
        "bridgeMint(uint256,address)": "infinite",
        "bridgeOut(uint256,address)": "infinite",
        "crossDomainMessenger()": "2424",
        "getApproved(uint256)": "4765",
        "isApprovedForAll(address,address)": "infinite",
        "l1Contract()": "2381",
        "name()": "infinite",
        "nextTokenId()": "2362",
        "owner()": "2420",
        "ownerOf(uint256)": "2619",
        "renounceOwnership()": "infinite",
        "safeTransferFrom(address,address,uint256)": "infinite",
        "safeTransferFrom(address,address,uint256,bytes)": "infinite",
        "setApprovalForAll(address,bool)": "26763",
        "supportsInterface(bytes4)": "554",
        "symbol()": "infinite",
        "tokenURI(uint256)": "infinite",
        "transferFrom(address,address,uint256)": "infinite",
        "transferOwnership(address)": "infinite"
      }
    },
    "methodIdentifiers": {
      "L1_GAS_LIMIT()": "b9b3f691",
      "adminMint(address)": "9769dc0e",
      "approve(address,uint256)": "095ea7b3",
      "balanceOf(address)": "70a08231",
      "bridgeMint(uint256,address)": "1b827671",
      "bridgeOut(uint256,address)": "6e71473b",
      "crossDomainMessenger()": "f43b3613",
      "getApproved(uint256)": "081812fc",
      "isApprovedForAll(address,address)": "e985e9c5",
      "l1Contract()": "663ab59d",
      "name()": "06fdde03",
      "nextTokenId()": "75794a3c",
      "owner()": "8da5cb5b",
      "ownerOf(uint256)": "6352211e",
      "renounceOwnership()": "715018a6",
      "safeTransferFrom(address,address,uint256)": "42842e0e",
      "safeTransferFrom(address,address,uint256,bytes)": "b88d4fde",
      "setApprovalForAll(address,bool)": "a22cb465",
      "supportsInterface(bytes4)": "01ffc9a7",
      "symbol()": "95d89b41",
      "tokenURI(uint256)": "c87b56dd",
      "transferFrom(address,address,uint256)": "23b872dd",
      "transferOwnership(address)": "f2fde38b"
    }
  },
  "storageLayout": {
    "storage": [
      {
        "astId": 617,
        "contract": "ProducerProtocolOptimism.sol:ProducerProtocolOptimism",
        "label": "_name",
        "offset": 0,
        "slot": "0",
        "type": "t_string_storage"
      },
      {
        "astId": 619,
        "contract": "ProducerProtocolOptimism.sol:ProducerProtocolOptimism",
        "label": "_symbol",
        "offset": 0,
        "slot": "1",
        "type": "t_string_storage"
      },
      {
        "astId": 623,
        "contract": "ProducerProtocolOptimism.sol:ProducerProtocolOptimism",
        "label": "_owners",
        "offset": 0,
        "slot": "2",
        "type": "t_mapping(t_uint256,t_address)"
      },
      {
        "astId": 627,
        "contract": "ProducerProtocolOptimism.sol:ProducerProtocolOptimism",
        "label": "_balances",
        "offset": 0,
        "slot": "3",
        "type": "t_mapping(t_address,t_uint256)"
      },
      {
        "astId": 631,
        "contract": "ProducerProtocolOptimism.sol:ProducerProtocolOptimism",
        "label": "_tokenApprovals",
        "offset": 0,
        "slot": "4",
        "type": "t_mapping(t_uint256,t_address)"
      },
      {
        "astId": 637,
        "contract": "ProducerProtocolOptimism.sol:ProducerProtocolOptimism",
        "label": "_operatorApprovals",
        "offset": 0,
        "slot": "5",
        "type": "t_mapping(t_address,t_mapping(t_address,t_bool))"
      },
      {
        "astId": 486,
        "contract": "ProducerProtocolOptimism.sol:ProducerProtocolOptimism",
        "label": "_owner",
        "offset": 0,
        "slot": "6",
        "type": "t_address"
      },
      {
        "astId": 33,
        "contract": "ProducerProtocolOptimism.sol:ProducerProtocolOptimism",
        "label": "_status",
        "offset": 0,
        "slot": "7",
        "type": "t_uint256"
      },
      {
        "astId": 84,
        "contract": "ProducerProtocolOptimism.sol:ProducerProtocolOptimism",
        "label": "crossDomainMessenger",
        "offset": 0,
        "slot": "8",
        "type": "t_address"
      },
      {
        "astId": 86,
        "contract": "ProducerProtocolOptimism.sol:ProducerProtocolOptimism",
        "label": "l1Contract",
        "offset": 0,
        "slot": "9",
        "type": "t_address"
      },
      {
        "astId": 88,
        "contract": "ProducerProtocolOptimism.sol:ProducerProtocolOptimism",
        "label": "nextTokenId",
        "offset": 0,
        "slot": "10",
        "type": "t_uint256"
      }
    ],
    "types": {
      "t_address": {
        "encoding": "inplace",
        "label": "address",
        "numberOfBytes": "20"
      },
      "t_bool": {
        "encoding": "inplace",
        "label": "bool",
        "numberOfBytes": "1"
      },
      "t_mapping(t_address,t_bool)": {
        "encoding": "mapping",
        "key": "t_address",
        "label": "mapping(address => bool)",
        "numberOfBytes": "32",
        "value": "t_bool"
      },
      "t_mapping(t_address,t_mapping(t_address,t_bool))": {
        "encoding": "mapping",
        "key": "t_address",
        "label": "mapping(address => mapping(address => bool))",
        "numberOfBytes": "32",
        "value": "t_mapping(t_address,t_bool)"
      },
      "t_mapping(t_address,t_uint256)": {
        "encoding": "mapping",
        "key": "t_address",
        "label": "mapping(address => uint256)",
        "numberOfBytes": "32",
        "value": "t_uint256"
      },
      "t_mapping(t_uint256,t_address)": {
        "encoding": "mapping",
        "key": "t_uint256",
        "label": "mapping(uint256 => address)",
        "numberOfBytes": "32",
        "value": "t_address"
      },
      "t_string_storage": {
        "encoding": "bytes",
        "label": "string",
        "numberOfBytes": "32"
      },
      "t_uint256": {
        "encoding": "inplace",
        "label": "uint256",
        "numberOfBytes": "32"
      }
    }
  },
  "userdoc": {
    "kind": "user",
    "methods": {
      "adminMint(address)": {
        "notice": "Allows the owner to mint a new NFT directly on Optimism."
      },
      "bridgeMint(uint256,address)": {
        "notice": "Bridge mint an NFT on Optimism via a validated L1 call."
      },
      "bridgeOut(uint256,address)": {
        "notice": "Bridge out (burn) an NFT on Optimism and notify the L1 contract."
      }
    },
    "version": 1
  }
}