{
  "abi": [
    {
      "inputs": [
        {
          "internalType": "address",
          "name": "_crossDomainMessenger",
          "type": "address"
        },
        {
          "internalType": "address",
          "name": "_l1Contract",
          "type": "address"
        }
      ],
      "stateMutability": "nonpayable",
      "type": "constructor"
    },
    {
      "inputs": [],
      "name": "ApprovalCallerNotOwnerNorApproved",
      "type": "error"
    },
    {
      "inputs": [],
      "name": "ApprovalQueryForNonexistentToken",
      "type": "error"
    },
    {
      "inputs": [],
      "name": "ApprovalToCurrentOwner",
      "type": "error"
    },
    {
      "inputs": [],
      "name": "ApproveToCaller",
      "type": "error"
    },
    {
      "inputs": [],
      "name": "BalanceQueryForZeroAddress",
      "type": "error"
    },
    {
      "inputs": [
        {
          "internalType": "uint256",
          "name": "index",
          "type": "uint256"
        }
      ],
      "name": "BatchMintInvalidBatchId",
      "type": "error"
    },
    {
      "inputs": [
        {
          "internalType": "uint256",
          "name": "tokenId",
          "type": "uint256"
        }
      ],
      "name": "BatchMintInvalidTokenId",
      "type": "error"
    },
    {
      "inputs": [
        {
          "internalType": "uint256",
          "name": "batchId",
          "type": "uint256"
        }
      ],
      "name": "BatchMintMetadataFrozen",
      "type": "error"
    },
    {
      "inputs": [],
      "name": "ContractMetadataUnauthorized",
      "type": "error"
    },
    {
      "inputs": [],
      "name": "InvalidQueryRange",
      "type": "error"
    },
    {
      "inputs": [],
      "name": "MintToZeroAddress",
      "type": "error"
    },
    {
      "inputs": [],
      "name": "MintZeroQuantity",
      "type": "error"
    },
    {
      "inputs": [],
      "name": "OwnableUnauthorized",
      "type": "error"
    },
    {
      "inputs": [],
      "name": "OwnerQueryForNonexistentToken",
      "type": "error"
    },
    {
      "inputs": [
        {
          "internalType": "uint256",
          "name": "max",
          "type": "uint256"
        },
        {
          "internalType": "uint256",
          "name": "actual",
          "type": "uint256"
        }
      ],
      "name": "RoyaltyExceededMaxFeeBps",
      "type": "error"
    },
    {
      "inputs": [
        {
          "internalType": "address",
          "name": "recipient",
          "type": "address"
        }
      ],
      "name": "RoyaltyInvalidRecipient",
      "type": "error"
    },
    {
      "inputs": [],
      "name": "RoyaltyUnauthorized",
      "type": "error"
    },
    {
      "inputs": [],
      "name": "TransferCallerNotOwnerNorApproved",
      "type": "error"
    },
    {
      "inputs": [],
      "name": "TransferFromIncorrectOwner",
      "type": "error"
    },
    {
      "inputs": [],
      "name": "TransferToNonERC721ReceiverImplementer",
      "type": "error"
    },
    {
      "inputs": [],
      "name": "TransferToZeroAddress",
      "type": "error"
    },
    {
      "inputs": [],
      "name": "URIQueryForNonexistentToken",
      "type": "error"
    },
    {
      "anonymous": false,
      "inputs": [
        {
          "indexed": true,
          "internalType": "address",
          "name": "owner",
          "type": "address"
        },
        {
          "indexed": true,
          "internalType": "address",
          "name": "approved",
          "type": "address"
        },
        {
          "indexed": true,
          "internalType": "uint256",
          "name": "tokenId",
          "type": "uint256"
        }
      ],
      "name": "Approval",
      "type": "event"
    },
    {
      "anonymous": false,
      "inputs": [
        {
          "indexed": true,
          "internalType": "address",
          "name": "owner",
          "type": "address"
        },
        {
          "indexed": true,
          "internalType": "address",
          "name": "operator",
          "type": "address"
        },
        {
          "indexed": false,
          "internalType": "bool",
          "name": "approved",
          "type": "bool"
        }
      ],
      "name": "ApprovalForAll",
      "type": "event"
    },
    {
      "anonymous": false,
      "inputs": [
        {
          "indexed": false,
          "internalType": "uint256",
          "name": "_fromTokenId",
          "type": "uint256"
        },
        {
          "indexed": false,
          "internalType": "uint256",
          "name": "_toTokenId",
          "type": "uint256"
        }
      ],
      "name": "BatchMetadataUpdate",
      "type": "event"
    },
    {
      "anonymous": false,
      "inputs": [
        {
          "indexed": false,
          "internalType": "string",
          "name": "prevURI",
          "type": "string"
        },
        {
          "indexed": false,
          "internalType": "string",
          "name": "newURI",
          "type": "string"
        }
      ],
      "name": "ContractURIUpdated",
      "type": "event"
    },
    {
      "anonymous": false,
      "inputs": [
        {
          "indexed": true,
          "internalType": "address",
          "name": "newRoyaltyRecipient",
          "type": "address"
        },
        {
          "indexed": false,
          "internalType": "uint256",
          "name": "newRoyaltyBps",
          "type": "uint256"
        }
      ],
      "name": "DefaultRoyalty",
      "type": "event"
    },
    {
      "anonymous": false,
      "inputs": [],
      "name": "MetadataFrozen",
      "type": "event"
    },
    {
      "anonymous": false,
      "inputs": [
        {
          "indexed": true,
          "internalType": "address",
          "name": "prevOwner",
          "type": "address"
        },
        {
          "indexed": true,
          "internalType": "address",
          "name": "newOwner",
          "type": "address"
        }
      ],
      "name": "OwnerUpdated",
      "type": "event"
    },
    {
      "anonymous": false,
      "inputs": [
        {
          "indexed": true,
          "internalType": "uint256",
          "name": "tokenId",
          "type": "uint256"
        },
        {
          "indexed": true,
          "internalType": "address",
          "name": "royaltyRecipient",
          "type": "address"
        },
        {
          "indexed": false,
          "internalType": "uint256",
          "name": "royaltyBps",
          "type": "uint256"
        }
      ],
      "name": "RoyaltyForToken",
      "type": "event"
    },
    {
      "anonymous": false,
      "inputs": [
        {
          "indexed": true,
          "internalType": "uint256",
          "name": "tokenId",
          "type": "uint256"
        },
        {
          "indexed": true,
          "internalType": "address",
          "name": "recipient",
          "type": "address"
        }
      ],
      "name": "TokenBridgedIn",
      "type": "event"
    },
    {
      "anonymous": false,
      "inputs": [
        {
          "indexed": true,
          "internalType": "uint256",
          "name": "tokenId",
          "type": "uint256"
        },
        {
          "indexed": true,
          "internalType": "address",
          "name": "l1Recipient",
          "type": "address"
        }
      ],
      "name": "TokenBridgedOut",
      "type": "event"
    },
    {
      "anonymous": false,
      "inputs": [
        {
          "indexed": true,
          "internalType": "address",
          "name": "from",
          "type": "address"
        },
        {
          "indexed": true,
          "internalType": "address",
          "name": "to",
          "type": "address"
        },
        {
          "indexed": true,
          "internalType": "uint256",
          "name": "tokenId",
          "type": "uint256"
        }
      ],
      "name": "Transfer",
      "type": "event"
    },
    {
      "inputs": [],
      "name": "L1_GAS_LIMIT",
      "outputs": [
        {
          "internalType": "uint32",
          "name": "",
          "type": "uint32"
        }
      ],
      "stateMutability": "view",
      "type": "function"
    },
    {
      "inputs": [
        {
          "internalType": "address",
          "name": "recipient",
          "type": "address"
        }
      ],
      "name": "adminMint",
      "outputs": [],
      "stateMutability": "nonpayable",
      "type": "function"
    },
    {
      "inputs": [
        {
          "internalType": "address",
          "name": "to",
          "type": "address"
        },
        {
          "internalType": "uint256",
          "name": "tokenId",
          "type": "uint256"
        }
      ],
      "name": "approve",
      "outputs": [],
      "stateMutability": "nonpayable",
      "type": "function"
    },
    {
      "inputs": [
        {
          "internalType": "address",
          "name": "owner",
          "type": "address"
        }
      ],
      "name": "balanceOf",
      "outputs": [
        {
          "internalType": "uint256",
          "name": "",
          "type": "uint256"
        }
      ],
      "stateMutability": "view",
      "type": "function"
    },
    {
      "inputs": [
        {
          "internalType": "uint256",
          "name": "",
          "type": "uint256"
        }
      ],
      "name": "batchFrozen",
      "outputs": [
        {
          "internalType": "bool",
          "name": "",
          "type": "bool"
        }
      ],
      "stateMutability": "view",
      "type": "function"
    },
    {
      "inputs": [
        {
          "internalType": "address",
          "name": "_to",
          "type": "address"
        },
        {
          "internalType": "uint256",
          "name": "_quantity",
          "type": "uint256"
        },
        {
          "internalType": "string",
          "name": "_baseURI",
          "type": "string"
        },
        {
          "internalType": "bytes",
          "name": "_data",
          "type": "bytes"
        }
      ],
      "name": "batchMintTo",
      "outputs": [],
      "stateMutability": "nonpayable",
      "type": "function"
    },
    {
      "inputs": [
        {
          "internalType": "uint256",
          "name": "tokenId",
          "type": "uint256"
        },
        {
          "internalType": "address",
          "name": "recipient",
          "type": "address"
        }
      ],
      "name": "bridgeMint",
      "outputs": [],
      "stateMutability": "nonpayable",
      "type": "function"
    },
    {
      "inputs": [
        {
          "internalType": "uint256",
          "name": "tokenId",
          "type": "uint256"
        },
        {
          "internalType": "address",
          "name": "l1Recipient",
          "type": "address"
        }
      ],
      "name": "bridgeOut",
      "outputs": [],
      "stateMutability": "nonpayable",
      "type": "function"
    },
    {
      "inputs": [
        {
          "internalType": "uint256",
          "name": "_tokenId",
          "type": "uint256"
        }
      ],
      "name": "burn",
      "outputs": [],
      "stateMutability": "nonpayable",
      "type": "function"
    },
    {
      "inputs": [],
      "name": "contractURI",
      "outputs": [
        {
          "internalType": "string",
          "name": "",
          "type": "string"
        }
      ],
      "stateMutability": "view",
      "type": "function"
    },
    {
      "inputs": [],
      "name": "crossDomainMessenger",
      "outputs": [
        {
          "internalType": "address",
          "name": "",
          "type": "address"
        }
      ],
      "stateMutability": "view",
      "type": "function"
    },
    {
      "inputs": [
        {
          "internalType": "uint256",
          "name": "tokenId",
          "type": "uint256"
        }
      ],
      "name": "explicitOwnershipOf",
      "outputs": [
        {
          "components": [
            {
              "internalType": "address",
              "name": "addr",
              "type": "address"
            },
            {
              "internalType": "uint64",
              "name": "startTimestamp",
              "type": "uint64"
            },
            {
              "internalType": "bool",
              "name": "burned",
              "type": "bool"
            }
          ],
          "internalType": "struct IERC721A.TokenOwnership",
          "name": "",
          "type": "tuple"
        }
      ],
      "stateMutability": "view",
      "type": "function"
    },
    {
      "inputs": [
        {
          "internalType": "uint256[]",
          "name": "tokenIds",
          "type": "uint256[]"
        }
      ],
      "name": "explicitOwnershipsOf",
      "outputs": [
        {
          "components": [
            {
              "internalType": "address",
              "name": "addr",
              "type": "address"
            },
            {
              "internalType": "uint64",
              "name": "startTimestamp",
              "type": "uint64"
            },
            {
              "internalType": "bool",
              "name": "burned",
              "type": "bool"
            }
          ],
          "internalType": "struct IERC721A.TokenOwnership[]",
          "name": "",
          "type": "tuple[]"
        }
      ],
      "stateMutability": "view",
      "type": "function"
    },
    {
      "inputs": [
        {
          "internalType": "uint256",
          "name": "tokenId",
          "type": "uint256"
        }
      ],
      "name": "getApproved",
      "outputs": [
        {
          "internalType": "address",
          "name": "",
          "type": "address"
        }
      ],
      "stateMutability": "view",
      "type": "function"
    },
    {
      "inputs": [],
      "name": "getBaseURICount",
      "outputs": [
        {
          "internalType": "uint256",
          "name": "",
          "type": "uint256"
        }
      ],
      "stateMutability": "view",
      "type": "function"
    },
    {
      "inputs": [
        {
          "internalType": "uint256",
          "name": "_index",
          "type": "uint256"
        }
      ],
      "name": "getBatchIdAtIndex",
      "outputs": [
        {
          "internalType": "uint256",
          "name": "",
          "type": "uint256"
        }
      ],
      "stateMutability": "view",
      "type": "function"
    },
    {
      "inputs": [],
      "name": "getDefaultRoyaltyInfo",
      "outputs": [
        {
          "internalType": "address",
          "name": "",
          "type": "address"
        },
        {
          "internalType": "uint16",
          "name": "",
          "type": "uint16"
        }
      ],
      "stateMutability": "view",
      "type": "function"
    },
    {
      "inputs": [
        {
          "internalType": "uint256",
          "name": "_tokenId",
          "type": "uint256"
        }
      ],
      "name": "getRoyaltyInfoForToken",
      "outputs": [
        {
          "internalType": "address",
          "name": "",
          "type": "address"
        },
        {
          "internalType": "uint16",
          "name": "",
          "type": "uint16"
        }
      ],
      "stateMutability": "view",
      "type": "function"
    },
    {
      "inputs": [
        {
          "internalType": "address",
          "name": "owner",
          "type": "address"
        },
        {
          "internalType": "address",
          "name": "operator",
          "type": "address"
        }
      ],
      "name": "isApprovedForAll",
      "outputs": [
        {
          "internalType": "bool",
          "name": "",
          "type": "bool"
        }
      ],
      "stateMutability": "view",
      "type": "function"
    },
    {
      "inputs": [
        {
          "internalType": "address",
          "name": "_operator",
          "type": "address"
        },
        {
          "internalType": "uint256",
          "name": "_tokenId",
          "type": "uint256"
        }
      ],
      "name": "isApprovedOrOwner",
      "outputs": [
        {
          "internalType": "bool",
          "name": "isApprovedOrOwnerOf",
          "type": "bool"
        }
      ],
      "stateMutability": "view",
      "type": "function"
    },
    {
      "inputs": [],
      "name": "l1Contract",
      "outputs": [
        {
          "internalType": "address",
          "name": "",
          "type": "address"
        }
      ],
      "stateMutability": "view",
      "type": "function"
    },
    {
      "inputs": [
        {
          "internalType": "address",
          "name": "_to",
          "type": "address"
        },
        {
          "internalType": "string",
          "name": "_tokenURI",
          "type": "string"
        }
      ],
      "name": "mintTo",
      "outputs": [],
      "stateMutability": "nonpayable",
      "type": "function"
    },
    {
      "inputs": [
        {
          "internalType": "bytes[]",
          "name": "data",
          "type": "bytes[]"
        }
      ],
      "name": "multicall",
      "outputs": [
        {
          "internalType": "bytes[]",
          "name": "results",
          "type": "bytes[]"
        }
      ],
      "stateMutability": "nonpayable",
      "type": "function"
    },
    {
      "inputs": [],
      "name": "name",
      "outputs": [
        {
          "internalType": "string",
          "name": "",
          "type": "string"
        }
      ],
      "stateMutability": "view",
      "type": "function"
    },
    {
      "inputs": [],
      "name": "nextTokenId",
      "outputs": [
        {
          "internalType": "uint256",
          "name": "",
          "type": "uint256"
        }
      ],
      "stateMutability": "view",
      "type": "function"
    },
    {
      "inputs": [],
      "name": "nextTokenIdToMint",
      "outputs": [
        {
          "internalType": "uint256",
          "name": "",
          "type": "uint256"
        }
      ],
      "stateMutability": "view",
      "type": "function"
    },
    {
      "inputs": [],
      "name": "owner",
      "outputs": [
        {
          "internalType": "address",
          "name": "",
          "type": "address"
        }
      ],
      "stateMutability": "view",
      "type": "function"
    },
    {
      "inputs": [
        {
          "internalType": "uint256",
          "name": "tokenId",
          "type": "uint256"
        }
      ],
      "name": "ownerOf",
      "outputs": [
        {
          "internalType": "address",
          "name": "",
          "type": "address"
        }
      ],
      "stateMutability": "view",
      "type": "function"
    },
    {
      "inputs": [
        {
          "internalType": "uint256",
          "name": "tokenId",
          "type": "uint256"
        },
        {
          "internalType": "uint256",
          "name": "salePrice",
          "type": "uint256"
        }
      ],
      "name": "royaltyInfo",
      "outputs": [
        {
          "internalType": "address",
          "name": "receiver",
          "type": "address"
        },
        {
          "internalType": "uint256",
          "name": "royaltyAmount",
          "type": "uint256"
        }
      ],
      "stateMutability": "view",
      "type": "function"
    },
    {
      "inputs": [
        {
          "internalType": "address",
          "name": "from",
          "type": "address"
        },
        {
          "internalType": "address",
          "name": "to",
          "type": "address"
        },
        {
          "internalType": "uint256",
          "name": "tokenId",
          "type": "uint256"
        }
      ],
      "name": "safeTransferFrom",
      "outputs": [],
      "stateMutability": "nonpayable",
      "type": "function"
    },
    {
      "inputs": [
        {
          "internalType": "address",
          "name": "from",
          "type": "address"
        },
        {
          "internalType": "address",
          "name": "to",
          "type": "address"
        },
        {
          "internalType": "uint256",
          "name": "tokenId",
          "type": "uint256"
        },
        {
          "internalType": "bytes",
          "name": "_data",
          "type": "bytes"
        }
      ],
      "name": "safeTransferFrom",
      "outputs": [],
      "stateMutability": "nonpayable",
      "type": "function"
    },
    {
      "inputs": [
        {
          "internalType": "address",
          "name": "operator",
          "type": "address"
        },
        {
          "internalType": "bool",
          "name": "approved",
          "type": "bool"
        }
      ],
      "name": "setApprovalForAll",
      "outputs": [],
      "stateMutability": "nonpayable",
      "type": "function"
    },
    {
      "inputs": [
        {
          "internalType": "string",
          "name": "_uri",
          "type": "string"
        }
      ],
      "name": "setContractURI",
      "outputs": [],
      "stateMutability": "nonpayable",
      "type": "function"
    },
    {
      "inputs": [
        {
          "internalType": "address",
          "name": "_royaltyRecipient",
          "type": "address"
        },
        {
          "internalType": "uint256",
          "name": "_royaltyBps",
          "type": "uint256"
        }
      ],
      "name": "setDefaultRoyaltyInfo",
      "outputs": [],
      "stateMutability": "nonpayable",
      "type": "function"
    },
    {
      "inputs": [
        {
          "internalType": "address",
          "name": "_newOwner",
          "type": "address"
        }
      ],
      "name": "setOwner",
      "outputs": [],
      "stateMutability": "nonpayable",
      "type": "function"
    },
    {
      "inputs": [
        {
          "internalType": "uint256",
          "name": "_tokenId",
          "type": "uint256"
        },
        {
          "internalType": "address",
          "name": "_recipient",
          "type": "address"
        },
        {
          "internalType": "uint256",
          "name": "_bps",
          "type": "uint256"
        }
      ],
      "name": "setRoyaltyInfoForToken",
      "outputs": [],
      "stateMutability": "nonpayable",
      "type": "function"
    },
    {
      "inputs": [
        {
          "internalType": "bytes4",
          "name": "interfaceId",
          "type": "bytes4"
        }
      ],
      "name": "supportsInterface",
      "outputs": [
        {
          "internalType": "bool",
          "name": "",
          "type": "bool"
        }
      ],
      "stateMutability": "view",
      "type": "function"
    },
    {
      "inputs": [],
      "name": "symbol",
      "outputs": [
        {
          "internalType": "string",
          "name": "",
          "type": "string"
        }
      ],
      "stateMutability": "view",
      "type": "function"
    },
    {
      "inputs": [
        {
          "internalType": "uint256",
          "name": "_tokenId",
          "type": "uint256"
        }
      ],
      "name": "tokenURI",
      "outputs": [
        {
          "internalType": "string",
          "name": "",
          "type": "string"
        }
      ],
      "stateMutability": "view",
      "type": "function"
    },
    {
      "inputs": [
        {
          "internalType": "address",
          "name": "owner",
          "type": "address"
        }
      ],
      "name": "tokensOfOwner",
      "outputs": [
        {
          "internalType": "uint256[]",
          "name": "",
          "type": "uint256[]"
        }
      ],
      "stateMutability": "view",
      "type": "function"
    },
    {
      "inputs": [
        {
          "internalType": "address",
          "name": "owner",
          "type": "address"
        },
        {
          "internalType": "uint256",
          "name": "start",
          "type": "uint256"
        },
        {
          "internalType": "uint256",
          "name": "stop",
          "type": "uint256"
        }
      ],
      "name": "tokensOfOwnerIn",
      "outputs": [
        {
          "internalType": "uint256[]",
          "name": "",
          "type": "uint256[]"
        }
      ],
      "stateMutability": "view",
      "type": "function"
    },
    {
      "inputs": [],
      "name": "totalSupply",
      "outputs": [
        {
          "internalType": "uint256",
          "name": "",
          "type": "uint256"
        }
      ],
      "stateMutability": "view",
      "type": "function"
    },
    {
      "inputs": [
        {
          "internalType": "address",
          "name": "from",
          "type": "address"
        },
        {
          "internalType": "address",
          "name": "to",
          "type": "address"
        },
        {
          "internalType": "uint256",
          "name": "tokenId",
          "type": "uint256"
        }
      ],
      "name": "transferFrom",
      "outputs": [],
      "stateMutability": "nonpayable",
      "type": "function"
    }
  ],
  "devdoc": {
    "errors": {
      "BatchMintInvalidBatchId(uint256)": [
        {
          "details": "Invalid index for batch"
        }
      ],
      "BatchMintInvalidTokenId(uint256)": [
        {
          "details": "Invalid token"
        }
      ],
      "BatchMintMetadataFrozen(uint256)": [
        {
          "details": "Metadata frozen"
        }
      ],
      "ContractMetadataUnauthorized()": [
        {
          "details": "The sender is not authorized to perform the action"
        }
      ],
      "OwnableUnauthorized()": [
        {
          "details": "The sender is not authorized to perform the action"
        }
      ],
      "RoyaltyExceededMaxFeeBps(uint256,uint256)": [
        {
          "details": "The fee bps exceeded the max value"
        }
      ],
      "RoyaltyInvalidRecipient(address)": [
        {
          "details": "The recipient is invalid"
        }
      ],
      "RoyaltyUnauthorized()": [
        {
          "details": "The sender is not authorized to perform the action"
        }
      ]
    },
    "events": {
      "Approval(address,address,uint256)": {
        "details": "Emitted when `owner` enables `approved` to manage the `tokenId` token."
      },
      "ApprovalForAll(address,address,bool)": {
        "details": "Emitted when `owner` enables or disables (`approved`) `operator` to manage all of its assets."
      },
      "ContractURIUpdated(string,string)": {
        "details": "Emitted when the contract URI is updated."
      },
      "DefaultRoyalty(address,uint256)": {
        "details": "Emitted when royalty info is updated."
      },
      "MetadataFrozen()": {
        "details": "This event emits when the metadata of all tokens are frozen. While not currently supported by marketplaces, this event allows future indexing if desired."
      },
      "OwnerUpdated(address,address)": {
        "details": "Emitted when a new Owner is set."
      },
      "RoyaltyForToken(uint256,address,uint256)": {
        "details": "Emitted when royalty recipient for tokenId is set"
      },
      "Transfer(address,address,uint256)": {
        "details": "Emitted when `tokenId` token is transferred from `from` to `to`."
      }
    },
    "kind": "dev",
    "methods": {
      "approve(address,uint256)": {
        "details": "See {IERC721-approve}."
      },
      "balanceOf(address)": {
        "details": "See {IERC721-balanceOf}."
      },
      "batchMintTo(address,uint256,string,bytes)": {
        "details": "The logic in the `_canMint` function determines whether the caller is authorized to mint NFTs.",
        "params": {
          "_baseURI": "The baseURI for the `n` number of NFTs minted. The metadata for each NFT is `baseURI/tokenId`",
          "_data": "Additional data to pass along during the minting of the NFT.",
          "_quantity": "The number of NFTs to mint.",
          "_to": "The recipient of the NFT to mint."
        }
      },
      "burn(uint256)": {
        "details": "ERC721A's `_burn(uint256,bool)` internally checks for token approvals.",
        "params": {
          "_tokenId": "The tokenId of the NFT to burn."
        }
      },
      "explicitOwnershipOf(uint256)": {
        "details": "Returns the `TokenOwnership` struct at `tokenId` without reverting. If the `tokenId` is out of bounds:   - `addr` = `address(0)`   - `startTimestamp` = `0`   - `burned` = `false` If the `tokenId` is burned:   - `addr` = `<Address of owner before token was burned>`   - `startTimestamp` = `<Timestamp when token was burned>`   - `burned = `true` Otherwise:   - `addr` = `<Address of owner>`   - `startTimestamp` = `<Timestamp of start of ownership>`   - `burned = `false`"
      },
      "explicitOwnershipsOf(uint256[])": {
        "details": "Returns an array of `TokenOwnership` structs at `tokenIds` in order. See {ERC721AQueryable-explicitOwnershipOf}"
      },
      "getApproved(uint256)": {
        "details": "See {IERC721-getApproved}."
      },
      "getBaseURICount()": {
        "details": "Each batch of tokens has an in ID and an associated `baseURI`.                  See {batchIds}."
      },
      "getBatchIdAtIndex(uint256)": {
        "details": "See {getBaseURICount}.",
        "params": {
          "_index": "Index of the desired batch in batchIds array."
        }
      },
      "getRoyaltyInfoForToken(uint256)": {
        "details": "Returns royalty recipient and bps for `_tokenId`.",
        "params": {
          "_tokenId": "The tokenID of the NFT for which to query royalty info."
        }
      },
      "isApprovedForAll(address,address)": {
        "details": "See {IERC721-isApprovedForAll}."
      },
      "isApprovedOrOwner(address,uint256)": {
        "params": {
          "_operator": "The address to check.",
          "_tokenId": "The tokenId of the NFT to check."
        },
        "returns": {
          "isApprovedOrOwnerOf": "Whether the given address is approved to transfer the given NFT."
        }
      },
      "mintTo(address,string)": {
        "details": "The logic in the `_canMint` function determines whether the caller is authorized to mint NFTs.",
        "params": {
          "_to": "The recipient of the NFT to mint.",
          "_tokenURI": "The full metadata URI for the NFT minted."
        }
      },
      "multicall(bytes[])": {
        "details": "Receives and executes a batch of function calls on this contract.",
        "params": {
          "data": "The bytes data that makes up the batch of function calls to execute."
        },
        "returns": {
          "results": "The bytes data that makes up the result of the batch of function calls executed."
        }
      },
      "name()": {
        "details": "See {IERC721Metadata-name}."
      },
      "ownerOf(uint256)": {
        "details": "See {IERC721-ownerOf}."
      },
      "royaltyInfo(uint256,uint256)": {
        "details": "Returns royalty amount and recipient for `tokenId` and `salePrice`.",
        "params": {
          "salePrice": "Sale price of the token.",
          "tokenId": "The tokenID of the NFT for which to query royalty info."
        },
        "returns": {
          "receiver": "       Address of royalty recipient account.",
          "royaltyAmount": "  Royalty amount calculated at current royaltyBps value."
        }
      },
      "safeTransferFrom(address,address,uint256)": {
        "details": "See {IERC721-safeTransferFrom}."
      },
      "safeTransferFrom(address,address,uint256,bytes)": {
        "details": "See {IERC721-safeTransferFrom}."
      },
      "setApprovalForAll(address,bool)": {
        "details": "See {IERC721-setApprovalForAll}."
      },
      "setContractURI(string)": {
        "details": "Caller should be authorized to setup contractURI, e.g. contract admin.                  See {_canSetContractURI}.                  Emits {ContractURIUpdated Event}.",
        "params": {
          "_uri": "keccak256 hash of the role. e.g. keccak256(\"TRANSFER_ROLE\")"
        }
      },
      "setDefaultRoyaltyInfo(address,uint256)": {
        "details": "Caller should be authorized to set royalty info.                  See {_canSetRoyaltyInfo}.                  Emits {DefaultRoyalty Event}; See {_setupDefaultRoyaltyInfo}.",
        "params": {
          "_royaltyBps": "Updated royalty bps.",
          "_royaltyRecipient": "Address to be set as default royalty recipient."
        }
      },
      "setOwner(address)": {
        "params": {
          "_newOwner": "The address to set as the new owner of the contract."
        }
      },
      "setRoyaltyInfoForToken(uint256,address,uint256)": {
        "details": "Sets royalty info for `_tokenId`. Caller should be authorized to set royalty info.                  See {_canSetRoyaltyInfo}.                  Emits {RoyaltyForToken Event}; See {_setupRoyaltyInfoForToken}.",
        "params": {
          "_bps": "Updated royalty bps for the token Id.",
          "_recipient": "Address to be set as royalty recipient for given token Id."
        }
      },
      "supportsInterface(bytes4)": {
        "details": "See ERC165: https://eips.ethereum.org/EIPS/eip-165"
      },
      "symbol()": {
        "details": "See {IERC721Metadata-symbol}."
      },
      "tokenURI(uint256)": {
        "details": "See `BatchMintMetadata` for handling of metadata in this contract.",
        "params": {
          "_tokenId": "The tokenId of an NFT."
        }
      },
      "tokensOfOwner(address)": {
        "details": "Returns an array of token IDs owned by `owner`. This function scans the ownership mapping and is O(totalSupply) in complexity. It is meant to be called off-chain. See {ERC721AQueryable-tokensOfOwnerIn} for splitting the scan into multiple smaller scans if the collection is large enough to cause an out-of-gas error (10K pfp collections should be fine)."
      },
      "tokensOfOwnerIn(address,uint256,uint256)": {
        "details": "Returns an array of token IDs owned by `owner`, in the range [`start`, `stop`) (i.e. `start <= tokenId < stop`). This function allows for tokens to be queried if the collection grows too big for a single call of {ERC721AQueryable-tokensOfOwner}. Requirements: - `start` < `stop`"
      },
      "totalSupply()": {
        "details": "Burned tokens are calculated here, use _totalMinted() if you want to count just minted tokens."
      },
      "transferFrom(address,address,uint256)": {
        "details": "See {IERC721-transferFrom}."
      }
    },
    "version": 1
  },
  "evm": {
    "assembly": "    /* \"ProducerProtocolOptimism.sol\":113:2233  contract ProducerProtocolOptimism is ERC721Base {... */\n  mstore(0x40, 0xc0)\n    /* \"ProducerProtocolOptimism.sol\":505:950  constructor(... */\n  callvalue\n  dup1\n  iszero\n  tag_1\n  jumpi\n  0x00\n  dup1\n  revert\ntag_1:\n  pop\n  mload(0x40)\n  sub(codesize, bytecodeSize)\n  dup1\n  bytecodeSize\n  dup4\n  codecopy\n  dup2\n  add\n  0x40\n  dup2\n  swap1\n  mstore\n  tag_2\n  swap2\n  tag_3\n  jump\t// in\ntag_2:\n    /* \"ProducerProtocolOptimism.sol\":612:622  msg.sender */\n  caller\n    /* \"@thirdweb-dev/contracts/base/ERC721Base.sol\":2057:2363   */\n  mload(0x40)\n  dup1\n  0x40\n  add\n  0x40\n  mstore\n  dup1\n  0x11\n  dup2\n  mstore\n  0x20\n  add\n  shl(0x7a, 0x141c9bd91d58d95c88141c9bdd1bd8dbdb)\n  dup2\n  mstore\n  pop\n  mload(0x40)\n  dup1\n  0x40\n  add\n  0x40\n  mstore\n  dup1\n  0x02\n  dup2\n  mstore\n  0x20\n  add\n  shl(0xf4, 0x0505)\n  dup2\n  mstore\n  pop\n    /* \"ProducerProtocolOptimism.sol\":746:747  0 */\n  0x00\n    /* \"ProducerProtocolOptimism.sol\":788:789  0 */\n  dup1\n    /* \"@thirdweb-dev/contracts/base/ERC721Base.sol\":2238:2243   */\n  dup4\n    /* \"@thirdweb-dev/contracts/base/ERC721Base.sol\":2245:2252   */\n  dup4\n    /* \"@thirdweb-dev/contracts/eip/ERC721AVirtualApprove.sol\":1891:1896   */\n  dup2\n    /* \"@thirdweb-dev/contracts/eip/ERC721AVirtualApprove.sol\":1883:1888   */\n  0x02\n    /* \"@thirdweb-dev/contracts/eip/ERC721AVirtualApprove.sol\":1883:1896   */\n  swap1\n  dup2\n  tag_8\n  swap2\n  swap1\n  tag_9\n  jump\t// in\ntag_8:\n  pop\n    /* \"@thirdweb-dev/contracts/eip/ERC721AVirtualApprove.sol\":1906:1913   */\n  0x03\n    /* \"@thirdweb-dev/contracts/eip/ERC721AVirtualApprove.sol\":1906:1923   */\n  tag_10\n    /* \"@thirdweb-dev/contracts/eip/ERC721AVirtualApprove.sol\":1916:1923   */\n  dup3\n    /* \"@thirdweb-dev/contracts/eip/ERC721AVirtualApprove.sol\":1906:1913   */\n  dup3\n    /* \"@thirdweb-dev/contracts/eip/ERC721AVirtualApprove.sol\":1906:1923   */\n  tag_9\n  jump\t// in\ntag_10:\n  pop\n  pop\n    /* \"@thirdweb-dev/contracts/eip/ERC721AVirtualApprove.sol\":2119:2126   */\n  0x00\n    /* \"@thirdweb-dev/contracts/eip/ERC721AVirtualApprove.sol\":1933:1964   */\n  dup1\n  sstore\n  pop\n    /* \"@thirdweb-dev/contracts/base/ERC721Base.sol\":2264:2290   */\n  tag_14\n    /* \"@thirdweb-dev/contracts/base/ERC721Base.sol\":2276:2289   */\n  dup6\n    /* \"@thirdweb-dev/contracts/base/ERC721Base.sol\":2264:2275   */\n  tag_15\n    /* \"@thirdweb-dev/contracts/base/ERC721Base.sol\":2264:2290   */\n  jump\t// in\ntag_14:\n    /* \"@thirdweb-dev/contracts/base/ERC721Base.sol\":2300:2356   */\n  tag_16\n    /* \"@thirdweb-dev/contracts/base/ERC721Base.sol\":2325:2342   */\n  dup3\n  sub(shl(0x80, 0x01), 0x01)\n    /* \"@thirdweb-dev/contracts/base/ERC721Base.sol\":2300:2356   */\n  dup4\n  and\n    /* \"@thirdweb-dev/contracts/base/ERC721Base.sol\":2300:2324   */\n  tag_17\n    /* \"@thirdweb-dev/contracts/base/ERC721Base.sol\":2300:2356   */\n  jump\t// in\ntag_16:\n  pop\n  pop\n  pop\n  sub(shl(0xa0, 0x01), 0x01)\n    /* \"ProducerProtocolOptimism.sol\":840:884  crossDomainMessenger = _crossDomainMessenger */\n  swap4\n  dup5\n  and\n  0x80\n  mstore\n  pop\n  pop\n    /* \"ProducerProtocolOptimism.sol\":894:918  l1Contract = _l1Contract */\n  and\n  0xa0\n  mstore\n    /* \"ProducerProtocolOptimism.sol\":942:943  1 */\n  0x01\n    /* \"ProducerProtocolOptimism.sol\":928:939  nextTokenId */\n  0x10\n    /* \"ProducerProtocolOptimism.sol\":928:943  nextTokenId = 1 */\n  sstore\n    /* \"ProducerProtocolOptimism.sol\":113:2233  contract ProducerProtocolOptimism is ERC721Base {... */\n  jump(tag_34)\n    /* \"@thirdweb-dev/contracts/extension/Ownable.sol\":1527:1699   */\ntag_15:\n    /* \"@thirdweb-dev/contracts/extension/Ownable.sol\":1607:1613   */\n  0x09\n  dup1\n  sload\n  sub(shl(0xa0, 0x01), 0x01)\n    /* \"@thirdweb-dev/contracts/extension/Ownable.sol\":1623:1641   */\n  dup4\n  dup2\n  and\n  not(sub(shl(0xa0, 0x01), 0x01))\n  dup4\n  and\n  dup2\n  or\n  swap1\n  swap4\n  sstore\n    /* \"@thirdweb-dev/contracts/extension/Ownable.sol\":1657:1692   */\n  mload(0x40)\n    /* \"@thirdweb-dev/contracts/extension/Ownable.sol\":1607:1613   */\n  swap2\n  and\n  swap2\n    /* \"@thirdweb-dev/contracts/extension/Ownable.sol\":1623:1641   */\n  swap1\n    /* \"@thirdweb-dev/contracts/extension/Ownable.sol\":1607:1613   */\n  dup3\n  swap1\n    /* \"@thirdweb-dev/contracts/extension/Ownable.sol\":1657:1692   */\n  0x8292fce18fa69edf4db7b94ea2e58241df0ae57f97e0a6c9b29067028bf92d76\n  swap1\n    /* \"@thirdweb-dev/contracts/extension/Ownable.sol\":1586:1604   */\n  0x00\n  swap1\n    /* \"@thirdweb-dev/contracts/extension/Ownable.sol\":1657:1692   */\n  log3\n    /* \"@thirdweb-dev/contracts/extension/Ownable.sol\":1576:1699   */\n  pop\n    /* \"@thirdweb-dev/contracts/extension/Ownable.sol\":1527:1699   */\n  pop\n  jump\t// out\n    /* \"@thirdweb-dev/contracts/extension/Royalty.sol\":3717:4078   */\ntag_17:\n    /* \"@thirdweb-dev/contracts/extension/Royalty.sol\":3836:3842   */\n  0x2710\n    /* \"@thirdweb-dev/contracts/extension/Royalty.sol\":3822:3833   */\n  dup2\n    /* \"@thirdweb-dev/contracts/extension/Royalty.sol\":3822:3842   */\n  gt\n    /* \"@thirdweb-dev/contracts/extension/Royalty.sol\":3818:3921   */\n  iszero\n  tag_23\n  jumpi\n    /* \"@thirdweb-dev/contracts/extension/Royalty.sol\":3865:3910   */\n  mload(0x40)\n  shl(0xe3, 0x0a4930ad)\n  dup2\n  mstore\n    /* \"@thirdweb-dev/contracts/extension/Royalty.sol\":3890:3896   */\n  0x2710\n    /* \"@thirdweb-dev/contracts/extension/Royalty.sol\":3865:3910   */\n  0x04\n  dup3\n  add\n    /* \"#utility.yul\":3367:3392   */\n  mstore\n    /* \"#utility.yul\":3408:3426   */\n  0x24\n  dup2\n  add\n    /* \"#utility.yul\":3401:3435   */\n  dup3\n  swap1\n  mstore\n    /* \"#utility.yul\":3340:3358   */\n  0x44\n  add\n    /* \"@thirdweb-dev/contracts/extension/Royalty.sol\":3865:3910   */\n  mload(0x40)\n  dup1\n  swap2\n  sub\n  swap1\n  revert\n    /* \"@thirdweb-dev/contracts/extension/Royalty.sol\":3818:3921   */\ntag_23:\n    /* \"@thirdweb-dev/contracts/extension/Royalty.sol\":3931:3947   */\n  0x0a\n    /* \"@thirdweb-dev/contracts/extension/Royalty.sol\":3931:3967   */\n  dup1\n  sload\n  sub(shl(0xa0, 0x01), 0x01)\n  dup5\n  and\n  not(sub(shl(0xb0, 0x01), 0x01))\n    /* \"@thirdweb-dev/contracts/extension/Royalty.sol\":3977:4009   */\n  swap1\n  swap2\n  and\n  dup2\n  or\n  shl(0xa0, 0x01)\n  0xffff\n  dup6\n  and\n  mul\n  or\n  swap1\n  swap2\n  sstore\n    /* \"@thirdweb-dev/contracts/extension/Royalty.sol\":4025:4071   */\n  mload(0x40)\n    /* \"#utility.yul\":3592:3617   */\n  dup3\n  dup2\n  mstore\n    /* \"@thirdweb-dev/contracts/extension/Royalty.sol\":4025:4071   */\n  0x90d7ec04bcb8978719414f82e52e4cb651db41d0e6f8cea6118c2191e6183adb\n  swap1\n    /* \"#utility.yul\":3580:3582   */\n  0x20\n    /* \"#utility.yul\":3565:3583   */\n  add\n    /* \"@thirdweb-dev/contracts/extension/Royalty.sol\":4025:4071   */\n  mload(0x40)\n  dup1\n  swap2\n  sub\n  swap1\n  log2\n    /* \"@thirdweb-dev/contracts/extension/Royalty.sol\":3717:4078   */\n  pop\n  pop\n  jump\t// out\n    /* \"#utility.yul\":14:191   */\ntag_28:\n    /* \"#utility.yul\":93:106   */\n  dup1\n  mload\n  sub(shl(0xa0, 0x01), 0x01)\n    /* \"#utility.yul\":135:166   */\n  dup2\n  and\n    /* \"#utility.yul\":125:167   */\n  dup2\n  eq\n    /* \"#utility.yul\":115:185   */\n  tag_36\n  jumpi\n    /* \"#utility.yul\":181:182   */\n  0x00\n    /* \"#utility.yul\":178:179   */\n  dup1\n    /* \"#utility.yul\":171:183   */\n  revert\n    /* \"#utility.yul\":115:185   */\ntag_36:\n    /* \"#utility.yul\":14:191   */\n  swap2\n  swap1\n  pop\n  jump\t// out\n    /* \"#utility.yul\":196:489   */\ntag_3:\n    /* \"#utility.yul\":275:281   */\n  0x00\n    /* \"#utility.yul\":283:289   */\n  dup1\n    /* \"#utility.yul\":336:338   */\n  0x40\n    /* \"#utility.yul\":324:333   */\n  dup4\n    /* \"#utility.yul\":315:322   */\n  dup6\n    /* \"#utility.yul\":311:334   */\n  sub\n    /* \"#utility.yul\":307:339   */\n  slt\n    /* \"#utility.yul\":304:356   */\n  iszero\n  tag_38\n  jumpi\n    /* \"#utility.yul\":352:353   */\n  0x00\n    /* \"#utility.yul\":349:350   */\n  dup1\n    /* \"#utility.yul\":342:354   */\n  revert\n    /* \"#utility.yul\":304:356   */\ntag_38:\n    /* \"#utility.yul\":375:415   */\n  tag_39\n    /* \"#utility.yul\":405:414   */\n  dup4\n    /* \"#utility.yul\":375:415   */\n  tag_28\n  jump\t// in\ntag_39:\n    /* \"#utility.yul\":365:415   */\n  swap2\n  pop\n    /* \"#utility.yul\":434:483   */\n  tag_40\n    /* \"#utility.yul\":479:481   */\n  0x20\n    /* \"#utility.yul\":468:477   */\n  dup5\n    /* \"#utility.yul\":464:482   */\n  add\n    /* \"#utility.yul\":434:483   */\n  tag_28\n  jump\t// in\ntag_40:\n    /* \"#utility.yul\":424:483   */\n  swap1\n  pop\n    /* \"#utility.yul\":196:489   */\n  swap3\n  pop\n  swap3\n  swap1\n  pop\n  jump\t// out\n    /* \"#utility.yul\":494:621   */\ntag_29:\n    /* \"#utility.yul\":555:565   */\n  0x4e487b71\n    /* \"#utility.yul\":550:553   */\n  0xe0\n    /* \"#utility.yul\":546:566   */\n  shl\n    /* \"#utility.yul\":543:544   */\n  0x00\n    /* \"#utility.yul\":536:567   */\n  mstore\n    /* \"#utility.yul\":586:590   */\n  0x41\n    /* \"#utility.yul\":583:584   */\n  0x04\n    /* \"#utility.yul\":576:591   */\n  mstore\n    /* \"#utility.yul\":610:614   */\n  0x24\n    /* \"#utility.yul\":607:608   */\n  0x00\n    /* \"#utility.yul\":600:615   */\n  revert\n    /* \"#utility.yul\":626:1006   */\ntag_30:\n    /* \"#utility.yul\":705:706   */\n  0x01\n    /* \"#utility.yul\":701:713   */\n  dup2\n  dup2\n  shr\n  swap1\n    /* \"#utility.yul\":748:760   */\n  dup3\n  and\n  dup1\n    /* \"#utility.yul\":769:830   */\n  tag_43\n  jumpi\n    /* \"#utility.yul\":823:827   */\n  0x7f\n    /* \"#utility.yul\":815:821   */\n  dup3\n    /* \"#utility.yul\":811:828   */\n  and\n    /* \"#utility.yul\":801:828   */\n  swap2\n  pop\n    /* \"#utility.yul\":769:830   */\ntag_43:\n    /* \"#utility.yul\":876:878   */\n  0x20\n    /* \"#utility.yul\":868:874   */\n  dup3\n    /* \"#utility.yul\":865:879   */\n  lt\n    /* \"#utility.yul\":845:863   */\n  dup2\n    /* \"#utility.yul\":842:880   */\n  sub\n    /* \"#utility.yul\":839:1000   */\n  tag_44\n  jumpi\n    /* \"#utility.yul\":922:932   */\n  0x4e487b71\n    /* \"#utility.yul\":917:920   */\n  0xe0\n    /* \"#utility.yul\":913:933   */\n  shl\n    /* \"#utility.yul\":910:911   */\n  0x00\n    /* \"#utility.yul\":903:934   */\n  mstore\n    /* \"#utility.yul\":957:961   */\n  0x22\n    /* \"#utility.yul\":954:955   */\n  0x04\n    /* \"#utility.yul\":947:962   */\n  mstore\n    /* \"#utility.yul\":985:989   */\n  0x24\n    /* \"#utility.yul\":982:983   */\n  0x00\n    /* \"#utility.yul\":975:990   */\n  revert\n    /* \"#utility.yul\":839:1000   */\ntag_44:\n  pop\n    /* \"#utility.yul\":626:1006   */\n  swap2\n  swap1\n  pop\n  jump\t// out\n    /* \"#utility.yul\":1137:1655   */\ntag_32:\n    /* \"#utility.yul\":1239:1241   */\n  0x1f\n    /* \"#utility.yul\":1234:1237   */\n  dup3\n    /* \"#utility.yul\":1231:1242   */\n  gt\n    /* \"#utility.yul\":1228:1649   */\n  iszero\n  tag_47\n  jumpi\n    /* \"#utility.yul\":1275:1280   */\n  dup1\n    /* \"#utility.yul\":1272:1273   */\n  0x00\n    /* \"#utility.yul\":1265:1281   */\n  mstore\n    /* \"#utility.yul\":1319:1323   */\n  0x20\n    /* \"#utility.yul\":1316:1317   */\n  0x00\n    /* \"#utility.yul\":1306:1324   */\n  keccak256\n    /* \"#utility.yul\":1389:1391   */\n  0x1f\n    /* \"#utility.yul\":1377:1387   */\n  dup5\n    /* \"#utility.yul\":1373:1392   */\n  add\n    /* \"#utility.yul\":1370:1371   */\n  0x05\n    /* \"#utility.yul\":1366:1393   */\n  shr\n    /* \"#utility.yul\":1360:1364   */\n  dup2\n    /* \"#utility.yul\":1356:1394   */\n  add\n    /* \"#utility.yul\":1425:1429   */\n  0x20\n    /* \"#utility.yul\":1413:1423   */\n  dup6\n    /* \"#utility.yul\":1410:1430   */\n  lt\n    /* \"#utility.yul\":1407:1454   */\n  iszero\n  tag_48\n  jumpi\n  pop\n    /* \"#utility.yul\":1448:1452   */\n  dup1\n    /* \"#utility.yul\":1407:1454   */\ntag_48:\n    /* \"#utility.yul\":1503:1505   */\n  0x1f\n    /* \"#utility.yul\":1498:1501   */\n  dup5\n    /* \"#utility.yul\":1494:1506   */\n  add\n    /* \"#utility.yul\":1491:1492   */\n  0x05\n    /* \"#utility.yul\":1487:1507   */\n  shr\n    /* \"#utility.yul\":1481:1485   */\n  dup3\n    /* \"#utility.yul\":1477:1508   */\n  add\n    /* \"#utility.yul\":1467:1508   */\n  swap2\n  pop\n    /* \"#utility.yul\":1558:1639   */\ntag_49:\n    /* \"#utility.yul\":1576:1578   */\n  dup2\n    /* \"#utility.yul\":1569:1574   */\n  dup2\n    /* \"#utility.yul\":1566:1579   */\n  lt\n    /* \"#utility.yul\":1558:1639   */\n  iszero\n  tag_51\n  jumpi\n    /* \"#utility.yul\":1635:1636   */\n  0x00\n    /* \"#utility.yul\":1621:1637   */\n  dup2\n  sstore\n    /* \"#utility.yul\":1602:1603   */\n  0x01\n    /* \"#utility.yul\":1591:1604   */\n  add\n    /* \"#utility.yul\":1558:1639   */\n  jump(tag_49)\ntag_51:\n    /* \"#utility.yul\":1562:1565   */\n  pop\n  pop\n    /* \"#utility.yul\":1228:1649   */\ntag_47:\n    /* \"#utility.yul\":1137:1655   */\n  pop\n  pop\n  pop\n  jump\t// out\n    /* \"#utility.yul\":1831:3176   */\ntag_9:\n    /* \"#utility.yul\":1951:1961   */\n  dup2\n  mload\n  sub(shl(0x40, 0x01), 0x01)\n    /* \"#utility.yul\":1973:2003   */\n  dup2\n  gt\n    /* \"#utility.yul\":1970:2026   */\n  iszero\n  tag_55\n  jumpi\n    /* \"#utility.yul\":2006:2024   */\n  tag_55\n  tag_29\n  jump\t// in\ntag_55:\n    /* \"#utility.yul\":2035:2132   */\n  tag_56\n    /* \"#utility.yul\":2125:2131   */\n  dup2\n    /* \"#utility.yul\":2085:2123   */\n  tag_57\n    /* \"#utility.yul\":2117:2121   */\n  dup5\n    /* \"#utility.yul\":2111:2122   */\n  sload\n    /* \"#utility.yul\":2085:2123   */\n  tag_30\n  jump\t// in\ntag_57:\n    /* \"#utility.yul\":2079:2083   */\n  dup5\n    /* \"#utility.yul\":2035:2132   */\n  tag_32\n  jump\t// in\ntag_56:\n    /* \"#utility.yul\":2187:2191   */\n  0x20\n  dup1\n    /* \"#utility.yul\":2244:2246   */\n  0x1f\n    /* \"#utility.yul\":2233:2247   */\n  dup4\n  gt\n    /* \"#utility.yul\":2261:2262   */\n  0x01\n    /* \"#utility.yul\":2256:2919   */\n  dup2\n  eq\n  tag_59\n  jumpi\n    /* \"#utility.yul\":2963:2964   */\n  0x00\n    /* \"#utility.yul\":2980:2986   */\n  dup5\n    /* \"#utility.yul\":2977:3066   */\n  iszero\n  tag_60\n  jumpi\n  pop\n    /* \"#utility.yul\":3032:3051   */\n  dup6\n  dup4\n  add\n    /* \"#utility.yul\":3026:3052   */\n  mload\n    /* \"#utility.yul\":2977:3066   */\ntag_60:\n  not(0x00)\n    /* \"#utility.yul\":1788:1789   */\n  0x03\n    /* \"#utility.yul\":1784:1795   */\n  dup7\n  swap1\n  shl\n    /* \"#utility.yul\":1780:1804   */\n  shr\n    /* \"#utility.yul\":1776:1805   */\n  not\n    /* \"#utility.yul\":1766:1806   */\n  and\n    /* \"#utility.yul\":1812:1813   */\n  0x01\n    /* \"#utility.yul\":1808:1819   */\n  dup6\n  swap1\n  shl\n    /* \"#utility.yul\":1763:1820   */\n  or\n    /* \"#utility.yul\":3079:3160   */\n  dup6\n  sstore\n    /* \"#utility.yul\":2226:3170   */\n  jump(tag_58)\n    /* \"#utility.yul\":2256:2919   */\ntag_59:\n    /* \"#utility.yul\":1084:1085   */\n  0x00\n    /* \"#utility.yul\":1077:1091   */\n  dup6\n  dup2\n  mstore\n    /* \"#utility.yul\":1121:1125   */\n  0x20\n    /* \"#utility.yul\":1108:1126   */\n  dup2\n  keccak256\n  not(0x1f)\n    /* \"#utility.yul\":2292:2312   */\n  dup7\n  and\n  swap2\n    /* \"#utility.yul\":2410:2646   */\ntag_63:\n    /* \"#utility.yul\":2424:2431   */\n  dup3\n    /* \"#utility.yul\":2421:2422   */\n  dup2\n    /* \"#utility.yul\":2418:2432   */\n  lt\n    /* \"#utility.yul\":2410:2646   */\n  iszero\n  tag_65\n  jumpi\n    /* \"#utility.yul\":2513:2532   */\n  dup9\n  dup7\n  add\n    /* \"#utility.yul\":2507:2533   */\n  mload\n    /* \"#utility.yul\":2492:2534   */\n  dup3\n  sstore\n    /* \"#utility.yul\":2605:2632   */\n  swap5\n  dup5\n  add\n  swap5\n    /* \"#utility.yul\":2573:2574   */\n  0x01\n    /* \"#utility.yul\":2561:2575   */\n  swap1\n  swap2\n  add\n  swap1\n    /* \"#utility.yul\":2440:2459   */\n  dup5\n  add\n    /* \"#utility.yul\":2410:2646   */\n  jump(tag_63)\ntag_65:\n    /* \"#utility.yul\":2414:2417   */\n  pop\n    /* \"#utility.yul\":2674:2680   */\n  dup6\n    /* \"#utility.yul\":2665:2672   */\n  dup3\n    /* \"#utility.yul\":2662:2681   */\n  lt\n    /* \"#utility.yul\":2659:2860   */\n  iszero\n  tag_66\n  jumpi\n    /* \"#utility.yul\":2735:2754   */\n  dup8\n  dup6\n  add\n    /* \"#utility.yul\":2729:2755   */\n  mload\n  not(0x00)\n    /* \"#utility.yul\":2818:2819   */\n  0x03\n    /* \"#utility.yul\":2814:2828   */\n  dup9\n  swap1\n  shl\n    /* \"#utility.yul\":2830:2833   */\n  0xf8\n    /* \"#utility.yul\":2810:2834   */\n  and\n    /* \"#utility.yul\":2806:2843   */\n  shr\n    /* \"#utility.yul\":2802:2844   */\n  not\n    /* \"#utility.yul\":2787:2845   */\n  and\n    /* \"#utility.yul\":2772:2846   */\n  dup2\n  sstore\n    /* \"#utility.yul\":2659:2860   */\ntag_66:\n  pop\n  pop\n    /* \"#utility.yul\":2906:2907   */\n  0x01\n    /* \"#utility.yul\":2897:2903   */\n  dup5\n    /* \"#utility.yul\":2894:2895   */\n  0x01\n    /* \"#utility.yul\":2890:2904   */\n  shl\n    /* \"#utility.yul\":2886:2908   */\n  add\n    /* \"#utility.yul\":2880:2884   */\n  dup6\n    /* \"#utility.yul\":2873:2909   */\n  sstore\n    /* \"#utility.yul\":2226:3170   */\ntag_58:\n  pop\n  pop\n  pop\n  pop\n    /* \"#utility.yul\":1831:3176   */\n  pop\n  pop\n  jump\t// out\n    /* \"#utility.yul\":3446:3623   */\ntag_34:\n    /* \"ProducerProtocolOptimism.sol\":113:2233  contract ProducerProtocolOptimism is ERC721Base {... */\n  mload(0x80)\n  mload(0xa0)\n  codecopy(0x00, dataOffset(sub_0), dataSize(sub_0))\n  0x00\n  assignImmutable(\"0xbbf5a24880b10a5f9f601c4058e4771ddea17e7d765ceb3c903814e1c0d621e0\")\n  0x00\n  assignImmutable(\"0x9560168699514dcd528543d614e81b4f36adf182dc624d2f1eb91df8addd987e\")\n  return(0x00, dataSize(sub_0))\nstop\n\nsub_0: assembly {\n        /* \"ProducerProtocolOptimism.sol\":113:2233  contract ProducerProtocolOptimism is ERC721Base {... */\n      mstore(0x40, 0x80)\n      callvalue\n      dup1\n      iszero\n      tag_1\n      jumpi\n      0x00\n      dup1\n      revert\n    tag_1:\n      pop\n      jumpi(tag_2, lt(calldatasize, 0x04))\n      shr(0xe0, calldataload(0x00))\n      dup1\n      0x6e71473b\n      gt\n      tag_46\n      jumpi\n      dup1\n      0x9bcf7a15\n      gt\n      tag_47\n      jumpi\n      dup1\n      0xb9b3f691\n      gt\n      tag_48\n      jumpi\n      dup1\n      0xe8a3d485\n      gt\n      tag_49\n      jumpi\n      dup1\n      0xe8a3d485\n      eq\n      tag_43\n      jumpi\n      dup1\n      0xe985e9c5\n      eq\n      tag_44\n      jumpi\n      dup1\n      0xf43b3613\n      eq\n      tag_45\n      jumpi\n      0x00\n      dup1\n      revert\n    tag_49:\n      dup1\n      0xb9b3f691\n      eq\n      tag_40\n      jumpi\n      dup1\n      0xc23dc68f\n      eq\n      tag_41\n      jumpi\n      dup1\n      0xc87b56dd\n      eq\n      tag_42\n      jumpi\n      0x00\n      dup1\n      revert\n    tag_48:\n      dup1\n      0xac9650d8\n      gt\n      tag_50\n      jumpi\n      dup1\n      0xac9650d8\n      eq\n      tag_37\n      jumpi\n      dup1\n      0xb24f2d39\n      eq\n      tag_38\n      jumpi\n      dup1\n      0xb88d4fde\n      eq\n      tag_39\n      jumpi\n      0x00\n      dup1\n      revert\n    tag_50:\n      dup1\n      0x9bcf7a15\n      eq\n      tag_35\n      jumpi\n      dup1\n      0xa22cb465\n      eq\n      tag_36\n      jumpi\n      0x00\n      dup1\n      revert\n    tag_47:\n      dup1\n      0x8462151c\n      gt\n      tag_51\n      jumpi\n      dup1\n      0x95d89b41\n      gt\n      tag_52\n      jumpi\n      dup1\n      0x95d89b41\n      eq\n      tag_32\n      jumpi\n      dup1\n      0x9769dc0e\n      eq\n      tag_33\n      jumpi\n      dup1\n      0x99a2557a\n      eq\n      tag_34\n      jumpi\n      0x00\n      dup1\n      revert\n    tag_52:\n      dup1\n      0x8462151c\n      eq\n      tag_29\n      jumpi\n      dup1\n      0x8da5cb5b\n      eq\n      tag_30\n      jumpi\n      dup1\n      0x938e3d7b\n      eq\n      tag_31\n      jumpi\n      0x00\n      dup1\n      revert\n    tag_51:\n      dup1\n      0x754a81d9\n      gt\n      tag_53\n      jumpi\n      dup1\n      0x754a81d9\n      eq\n      tag_26\n      jumpi\n      dup1\n      0x75794a3c\n      eq\n      tag_27\n      jumpi\n      dup1\n      0x83040532\n      eq\n      tag_28\n      jumpi\n      0x00\n      dup1\n      revert\n    tag_53:\n      dup1\n      0x6e71473b\n      eq\n      tag_24\n      jumpi\n      dup1\n      0x70a08231\n      eq\n      tag_25\n      jumpi\n      0x00\n      dup1\n      revert\n    tag_46:\n      dup1\n      0x2a55205a\n      gt\n      tag_54\n      jumpi\n      dup1\n      0x4cc157df\n      gt\n      tag_55\n      jumpi\n      dup1\n      0x6352211e\n      gt\n      tag_56\n      jumpi\n      dup1\n      0x6352211e\n      eq\n      tag_21\n      jumpi\n      dup1\n      0x63b45e2d\n      eq\n      tag_22\n      jumpi\n      dup1\n      0x663ab59d\n      eq\n      tag_23\n      jumpi\n      0x00\n      dup1\n      revert\n    tag_56:\n      dup1\n      0x4cc157df\n      eq\n      tag_18\n      jumpi\n      dup1\n      0x5bbb2177\n      eq\n      tag_19\n      jumpi\n      dup1\n      0x600dd5ea\n      eq\n      tag_20\n      jumpi\n      0x00\n      dup1\n      revert\n    tag_55:\n      dup1\n      0x42842e0e\n      gt\n      tag_57\n      jumpi\n      dup1\n      0x42842e0e\n      eq\n      tag_15\n      jumpi\n      dup1\n      0x42966c68\n      eq\n      tag_16\n      jumpi\n      dup1\n      0x430c2081\n      eq\n      tag_17\n      jumpi\n      0x00\n      dup1\n      revert\n    tag_57:\n      dup1\n      0x2a55205a\n      eq\n      tag_13\n      jumpi\n      dup1\n      0x3b1475a7\n      eq\n      tag_14\n      jumpi\n      0x00\n      dup1\n      revert\n    tag_54:\n      dup1\n      0x13af4035\n      gt\n      tag_58\n      jumpi\n      dup1\n      0x1b827671\n      gt\n      tag_59\n      jumpi\n      dup1\n      0x1b827671\n      eq\n      tag_10\n      jumpi\n      dup1\n      0x23b872dd\n      eq\n      tag_11\n      jumpi\n      dup1\n      0x2419f51b\n      eq\n      tag_12\n      jumpi\n      0x00\n      dup1\n      revert\n    tag_59:\n      dup1\n      0x13af4035\n      eq\n      tag_8\n      jumpi\n      dup1\n      0x18160ddd\n      eq\n      tag_9\n      jumpi\n      0x00\n      dup1\n      revert\n    tag_58:\n      dup1\n      0x06fdde03\n      gt\n      tag_60\n      jumpi\n      dup1\n      0x06fdde03\n      eq\n      tag_5\n      jumpi\n      dup1\n      0x081812fc\n      eq\n      tag_6\n      jumpi\n      dup1\n      0x095ea7b3\n      eq\n      tag_7\n      jumpi\n      0x00\n      dup1\n      revert\n    tag_60:\n      dup1\n      0x75a317\n      eq\n      tag_3\n      jumpi\n      dup1\n      0x01ffc9a7\n      eq\n      tag_4\n      jumpi\n    tag_2:\n      0x00\n      dup1\n      revert\n        /* \"@thirdweb-dev/contracts/base/ERC721Base.sol\":4454:4671   */\n    tag_3:\n      tag_61\n      tag_62\n      calldatasize\n      0x04\n      tag_63\n      jump\t// in\n    tag_62:\n      tag_64\n      jump\t// in\n    tag_61:\n      stop\n        /* \"@thirdweb-dev/contracts/base/ERC721Base.sol\":2655:3099   */\n    tag_4:\n      tag_65\n      tag_66\n      calldatasize\n      0x04\n      tag_67\n      jump\t// in\n    tag_66:\n      tag_68\n      jump\t// in\n    tag_65:\n      mload(0x40)\n        /* \"#utility.yul\":2134:2148   */\n      swap1\n      iszero\n        /* \"#utility.yul\":2127:2149   */\n      iszero\n        /* \"#utility.yul\":2109:2150   */\n      dup2\n      mstore\n        /* \"#utility.yul\":2097:2099   */\n      0x20\n        /* \"#utility.yul\":2082:2100   */\n      add\n        /* \"@thirdweb-dev/contracts/base/ERC721Base.sol\":2655:3099   */\n    tag_69:\n      mload(0x40)\n      dup1\n      swap2\n      sub\n      swap1\n      return\n        /* \"@thirdweb-dev/contracts/eip/ERC721AVirtualApprove.sol\":6129:6227   */\n    tag_5:\n      tag_71\n      tag_72\n      jump\t// in\n    tag_71:\n      mload(0x40)\n      tag_69\n      swap2\n      swap1\n      tag_74\n      jump\t// in\n        /* \"@thirdweb-dev/contracts/eip/ERC721AVirtualApprove.sol\":7615:7815   */\n    tag_6:\n      tag_75\n      tag_76\n      calldatasize\n      0x04\n      tag_77\n      jump\t// in\n    tag_76:\n      tag_78\n      jump\t// in\n    tag_75:\n      mload(0x40)\n      sub(shl(0xa0, 0x01), 0x01)\n        /* \"#utility.yul\":3051:3106   */\n      swap1\n      swap2\n      and\n        /* \"#utility.yul\":3033:3107   */\n      dup2\n      mstore\n        /* \"#utility.yul\":3021:3023   */\n      0x20\n        /* \"#utility.yul\":3006:3024   */\n      add\n        /* \"@thirdweb-dev/contracts/eip/ERC721AVirtualApprove.sol\":7615:7815   */\n      tag_69\n        /* \"#utility.yul\":2887:3113   */\n      jump\n        /* \"@thirdweb-dev/contracts/eip/ERC721AVirtualApprove.sol\":7162:7554   */\n    tag_7:\n      tag_61\n      tag_82\n      calldatasize\n      0x04\n      tag_83\n      jump\t// in\n    tag_82:\n      tag_84\n      jump\t// in\n        /* \"@thirdweb-dev/contracts/extension/Ownable.sol\":1235:1412   */\n    tag_8:\n      tag_61\n      tag_86\n      calldatasize\n      0x04\n      tag_87\n      jump\t// in\n    tag_86:\n      tag_88\n      jump\t// in\n        /* \"@thirdweb-dev/contracts/eip/ERC721AVirtualApprove.sol\":2282:2588   */\n    tag_9:\n        /* \"@thirdweb-dev/contracts/eip/ERC721AVirtualApprove.sol\":2541:2553   */\n      sload(0x01)\n        /* \"@thirdweb-dev/contracts/eip/ERC721AVirtualApprove.sol\":2335:2342   */\n      0x00\n        /* \"@thirdweb-dev/contracts/eip/ERC721AVirtualApprove.sol\":2525:2538   */\n      sload\n        /* \"@thirdweb-dev/contracts/eip/ERC721AVirtualApprove.sol\":2525:2553   */\n      sub\n        /* \"@thirdweb-dev/contracts/eip/ERC721AVirtualApprove.sol\":2282:2588   */\n    tag_89:\n      mload(0x40)\n        /* \"#utility.yul\":3836:3861   */\n      swap1\n      dup2\n      mstore\n        /* \"#utility.yul\":3824:3826   */\n      0x20\n        /* \"#utility.yul\":3809:3827   */\n      add\n        /* \"@thirdweb-dev/contracts/eip/ERC721AVirtualApprove.sol\":2282:2588   */\n      tag_69\n        /* \"#utility.yul\":3690:3867   */\n      jump\n        /* \"ProducerProtocolOptimism.sol\":956:1469  function bridgeMint(... */\n    tag_10:\n      tag_61\n      tag_94\n      calldatasize\n      0x04\n      tag_95\n      jump\t// in\n    tag_94:\n      tag_96\n      jump\t// in\n        /* \"@thirdweb-dev/contracts/eip/ERC721AVirtualApprove.sol\":8454:8588   */\n    tag_11:\n      tag_61\n      tag_98\n      calldatasize\n      0x04\n      tag_99\n      jump\t// in\n    tag_98:\n      tag_100\n      jump\t// in\n        /* \"@thirdweb-dev/contracts/extension/BatchMintMetadata.sol\":2279:2497   */\n    tag_12:\n      tag_89\n      tag_102\n      calldatasize\n      0x04\n      tag_77\n      jump\t// in\n    tag_102:\n      tag_103\n      jump\t// in\n        /* \"@thirdweb-dev/contracts/extension/Royalty.sol\":1726:2051   */\n    tag_13:\n      tag_105\n      tag_106\n      calldatasize\n      0x04\n      tag_107\n      jump\t// in\n    tag_106:\n      tag_108\n      jump\t// in\n    tag_105:\n      0x40\n      dup1\n      mload\n      sub(shl(0xa0, 0x01), 0x01)\n        /* \"#utility.yul\":5098:5153   */\n      swap1\n      swap4\n      and\n        /* \"#utility.yul\":5080:5154   */\n      dup4\n      mstore\n        /* \"#utility.yul\":5185:5187   */\n      0x20\n        /* \"#utility.yul\":5170:5188   */\n      dup4\n      add\n        /* \"#utility.yul\":5163:5197   */\n      swap2\n      swap1\n      swap2\n      mstore\n        /* \"#utility.yul\":5053:5071   */\n      add\n        /* \"@thirdweb-dev/contracts/extension/Royalty.sol\":1726:2051   */\n      tag_69\n        /* \"#utility.yul\":4906:5203   */\n      jump\n        /* \"@thirdweb-dev/contracts/base/ERC721Base.sol\":6135:6239   */\n    tag_14:\n        /* \"@thirdweb-dev/contracts/base/ERC721Base.sol\":6193:6200   */\n      0x00\n        /* \"@thirdweb-dev/contracts/base/ERC721Base.sol\":6219:6232   */\n      sload\n        /* \"@thirdweb-dev/contracts/base/ERC721Base.sol\":6135:6239   */\n      jump(tag_89)\n        /* \"@thirdweb-dev/contracts/eip/ERC721AVirtualApprove.sol\":8654:8803   */\n    tag_15:\n      tag_61\n      tag_115\n      calldatasize\n      0x04\n      tag_99\n      jump\t// in\n    tag_115:\n      tag_116\n      jump\t// in\n        /* \"@thirdweb-dev/contracts/base/ERC721Base.sol\":5793:5880   */\n    tag_16:\n      tag_61\n      tag_118\n      calldatasize\n      0x04\n      tag_77\n      jump\t// in\n    tag_118:\n      tag_119\n      jump\t// in\n        /* \"@thirdweb-dev/contracts/base/ERC721Base.sol\":6571:6914   */\n    tag_17:\n      tag_65\n      tag_121\n      calldatasize\n      0x04\n      tag_83\n      jump\t// in\n    tag_121:\n      tag_122\n      jump\t// in\n        /* \"@thirdweb-dev/contracts/extension/Royalty.sol\":2291:2672   */\n    tag_18:\n      tag_124\n      tag_125\n      calldatasize\n      0x04\n      tag_77\n      jump\t// in\n    tag_125:\n      tag_126\n      jump\t// in\n    tag_124:\n      0x40\n      dup1\n      mload\n      sub(shl(0xa0, 0x01), 0x01)\n        /* \"#utility.yul\":5398:5453   */\n      swap1\n      swap4\n      and\n        /* \"#utility.yul\":5380:5454   */\n      dup4\n      mstore\n        /* \"#utility.yul\":5502:5508   */\n      0xffff\n        /* \"#utility.yul\":5490:5509   */\n      swap1\n      swap2\n      and\n        /* \"#utility.yul\":5485:5487   */\n      0x20\n        /* \"#utility.yul\":5470:5488   */\n      dup4\n      add\n        /* \"#utility.yul\":5463:5510   */\n      mstore\n        /* \"#utility.yul\":5353:5371   */\n      add\n        /* \"@thirdweb-dev/contracts/extension/Royalty.sol\":2291:2672   */\n      tag_69\n        /* \"#utility.yul\":5208:5516   */\n      jump\n        /* \"@thirdweb-dev/contracts/eip/queryable/ERC721AQueryable.sol\":1514:1973   */\n    tag_19:\n      tag_129\n      tag_130\n      calldatasize\n      0x04\n      tag_131\n      jump\t// in\n    tag_130:\n      tag_132\n      jump\t// in\n    tag_129:\n      mload(0x40)\n      tag_69\n      swap2\n      swap1\n      tag_134\n      jump\t// in\n        /* \"@thirdweb-dev/contracts/extension/Royalty.sol\":3370:3630   */\n    tag_20:\n      tag_61\n      tag_136\n      calldatasize\n      0x04\n      tag_83\n      jump\t// in\n    tag_136:\n      tag_137\n      jump\t// in\n        /* \"@thirdweb-dev/contracts/eip/ERC721AVirtualApprove.sol\":5944:6067   */\n    tag_21:\n      tag_75\n      tag_139\n      calldatasize\n      0x04\n      tag_77\n      jump\t// in\n    tag_139:\n      tag_140\n      jump\t// in\n        /* \"@thirdweb-dev/contracts/extension/BatchMintMetadata.sol\":1961:2057   */\n    tag_22:\n        /* \"@thirdweb-dev/contracts/extension/BatchMintMetadata.sol\":2035:2043   */\n      0x0c\n        /* \"@thirdweb-dev/contracts/extension/BatchMintMetadata.sol\":2035:2050   */\n      sload\n        /* \"@thirdweb-dev/contracts/extension/BatchMintMetadata.sol\":1961:2057   */\n      jump(tag_89)\n        /* \"ProducerProtocolOptimism.sol\":218:253  address public immutable l1Contract */\n    tag_23:\n      tag_75\n      immutable(\"0xbbf5a24880b10a5f9f601c4058e4771ddea17e7d765ceb3c903814e1c0d621e0\")\n      dup2\n      jump\n        /* \"ProducerProtocolOptimism.sol\":1475:2095  function bridgeOut(... */\n    tag_24:\n      tag_61\n      tag_149\n      calldatasize\n      0x04\n      tag_95\n      jump\t// in\n    tag_149:\n      tag_150\n      jump\t// in\n        /* \"@thirdweb-dev/contracts/eip/ERC721AVirtualApprove.sol\":3370:3573   */\n    tag_25:\n      tag_89\n      tag_152\n      calldatasize\n      0x04\n      tag_87\n      jump\t// in\n    tag_152:\n      tag_153\n      jump\t// in\n        /* \"@thirdweb-dev/contracts/base/ERC721Base.sol\":5232:5519   */\n    tag_26:\n      tag_61\n      tag_156\n      calldatasize\n      0x04\n      tag_157\n      jump\t// in\n    tag_156:\n      tag_158\n      jump\t// in\n        /* \"ProducerProtocolOptimism.sol\":259:285  uint256 public nextTokenId */\n    tag_27:\n      tag_89\n      sload(0x10)\n      dup2\n      jump\n        /* \"@thirdweb-dev/contracts/extension/BatchMintMetadata.sol\":1204:1247   */\n    tag_28:\n      tag_65\n      tag_163\n      calldatasize\n      0x04\n      tag_77\n      jump\t// in\n    tag_163:\n      mstore(0x20, 0x0e)\n      0x00\n      swap1\n      dup2\n      mstore\n      0x40\n      swap1\n      keccak256\n      sload\n      0xff\n      and\n      dup2\n      jump\n        /* \"@thirdweb-dev/contracts/eip/queryable/ERC721AQueryable.sol\":5285:6155   */\n    tag_29:\n      tag_166\n      tag_167\n      calldatasize\n      0x04\n      tag_87\n      jump\t// in\n    tag_167:\n      tag_168\n      jump\t// in\n    tag_166:\n      mload(0x40)\n      tag_69\n      swap2\n      swap1\n      tag_170\n      jump\t// in\n        /* \"@thirdweb-dev/contracts/extension/Ownable.sol\":973:1059   */\n    tag_30:\n        /* \"@thirdweb-dev/contracts/extension/Ownable.sol\":1046:1052   */\n      and(sub(shl(0xa0, 0x01), 0x01), sload(0x09))\n        /* \"@thirdweb-dev/contracts/extension/Ownable.sol\":973:1059   */\n      jump(tag_75)\n        /* \"@thirdweb-dev/contracts/extension/ContractMetadata.sol\":1110:1311   */\n    tag_31:\n      tag_61\n      tag_175\n      calldatasize\n      0x04\n      tag_176\n      jump\t// in\n    tag_175:\n      tag_177\n      jump\t// in\n        /* \"@thirdweb-dev/contracts/eip/ERC721AVirtualApprove.sol\":6291:6393   */\n    tag_32:\n      tag_71\n      tag_179\n      jump\t// in\n        /* \"ProducerProtocolOptimism.sol\":2101:2231  function adminMint(address recipient) external onlyOwner {... */\n    tag_33:\n      tag_61\n      tag_182\n      calldatasize\n      0x04\n      tag_87\n      jump\t// in\n    tag_182:\n      tag_183\n      jump\t// in\n        /* \"@thirdweb-dev/contracts/eip/queryable/ERC721AQueryable.sol\":2374:4822   */\n    tag_34:\n      tag_166\n      tag_185\n      calldatasize\n      0x04\n      tag_186\n      jump\t// in\n    tag_185:\n      tag_187\n      jump\t// in\n        /* \"@thirdweb-dev/contracts/extension/Royalty.sol\":4595:4857   */\n    tag_35:\n      tag_61\n      tag_190\n      calldatasize\n      0x04\n      tag_191\n      jump\t// in\n    tag_190:\n      tag_192\n      jump\t// in\n        /* \"@thirdweb-dev/contracts/eip/ERC721AVirtualApprove.sol\":7882:8164   */\n    tag_36:\n      tag_61\n      tag_194\n      calldatasize\n      0x04\n      tag_195\n      jump\t// in\n    tag_194:\n      tag_196\n      jump\t// in\n        /* \"@thirdweb-dev/contracts/extension/Multicall.sol\":696:1263   */\n    tag_37:\n      tag_197\n      tag_198\n      calldatasize\n      0x04\n      tag_199\n      jump\t// in\n    tag_198:\n      tag_200\n      jump\t// in\n    tag_197:\n      mload(0x40)\n      tag_69\n      swap2\n      swap1\n      tag_202\n      jump\t// in\n        /* \"@thirdweb-dev/contracts/extension/Royalty.sol\":2782:2926   */\n    tag_38:\n        /* \"@thirdweb-dev/contracts/extension/Royalty.sol\":2882:2898   */\n      sload(0x0a)\n      sub(shl(0xa0, 0x01), 0x01)\n      dup2\n      and\n      swap1\n      shl(0xa0, 0x01)\n        /* \"@thirdweb-dev/contracts/extension/Royalty.sol\":2907:2917   */\n      swap1\n      div\n      0xffff\n      and\n        /* \"@thirdweb-dev/contracts/extension/Royalty.sol\":2782:2926   */\n      jump(tag_124)\n        /* \"@thirdweb-dev/contracts/eip/ERC721AVirtualApprove.sol\":8869:9212   */\n    tag_39:\n      tag_61\n      tag_207\n      calldatasize\n      0x04\n      tag_208\n      jump\t// in\n    tag_207:\n      tag_209\n      jump\t// in\n        /* \"ProducerProtocolOptimism.sol\":291:338  uint32 public constant L1_GAS_LIMIT = 1_000_000 */\n    tag_40:\n      tag_210\n        /* \"ProducerProtocolOptimism.sol\":329:338  1_000_000 */\n      0x0f4240\n        /* \"ProducerProtocolOptimism.sol\":291:338  uint32 public constant L1_GAS_LIMIT = 1_000_000 */\n      dup2\n      jump\n    tag_210:\n      mload(0x40)\n        /* \"#utility.yul\":12712:12722   */\n      0xffffffff\n        /* \"#utility.yul\":12700:12723   */\n      swap1\n      swap2\n      and\n        /* \"#utility.yul\":12682:12724   */\n      dup2\n      mstore\n        /* \"#utility.yul\":12670:12672   */\n      0x20\n        /* \"#utility.yul\":12655:12673   */\n      add\n        /* \"ProducerProtocolOptimism.sol\":291:338  uint32 public constant L1_GAS_LIMIT = 1_000_000 */\n      tag_69\n        /* \"#utility.yul\":12538:12730   */\n      jump\n        /* \"@thirdweb-dev/contracts/eip/queryable/ERC721AQueryable.sol\":953:1361   */\n    tag_41:\n      tag_214\n      tag_215\n      calldatasize\n      0x04\n      tag_77\n      jump\t// in\n    tag_215:\n      tag_216\n      jump\t// in\n    tag_214:\n      mload(0x40)\n      tag_69\n      swap2\n      swap1\n      tag_218\n      jump\t// in\n        /* \"@thirdweb-dev/contracts/base/ERC721Base.sol\":3513:3918   */\n    tag_42:\n      tag_71\n      tag_220\n      calldatasize\n      0x04\n      tag_77\n      jump\t// in\n    tag_220:\n      tag_221\n      jump\t// in\n        /* \"@thirdweb-dev/contracts/extension/ContractMetadata.sol\":672:706   */\n    tag_43:\n      tag_71\n      tag_224\n      jump\t// in\n        /* \"@thirdweb-dev/contracts/eip/ERC721AVirtualApprove.sol\":8230:8392   */\n    tag_44:\n      tag_65\n      tag_227\n      calldatasize\n      0x04\n      tag_228\n      jump\t// in\n    tag_227:\n      sub(shl(0xa0, 0x01), 0x01)\n        /* \"@thirdweb-dev/contracts/eip/ERC721AVirtualApprove.sol\":8350:8375   */\n      swap2\n      dup3\n      and\n        /* \"@thirdweb-dev/contracts/eip/ERC721AVirtualApprove.sol\":8327:8331   */\n      0x00\n        /* \"@thirdweb-dev/contracts/eip/ERC721AVirtualApprove.sol\":8350:8375   */\n      swap1\n      dup2\n      mstore\n        /* \"@thirdweb-dev/contracts/eip/ERC721AVirtualApprove.sol\":8350:8368   */\n      0x07\n        /* \"@thirdweb-dev/contracts/eip/ERC721AVirtualApprove.sol\":8350:8375   */\n      0x20\n      swap1\n      dup2\n      mstore\n      0x40\n      dup1\n      dup4\n      keccak256\n        /* \"@thirdweb-dev/contracts/eip/ERC721AVirtualApprove.sol\":8350:8385   */\n      swap4\n      swap1\n      swap5\n      and\n      dup3\n      mstore\n      swap2\n      swap1\n      swap2\n      mstore\n      keccak256\n      sload\n      0xff\n      and\n      swap1\n        /* \"@thirdweb-dev/contracts/eip/ERC721AVirtualApprove.sol\":8230:8392   */\n      jump\n        /* \"ProducerProtocolOptimism.sol\":167:212  address public immutable crossDomainMessenger */\n    tag_45:\n      tag_75\n      immutable(\"0x9560168699514dcd528543d614e81b4f36adf182dc624d2f1eb91df8addd987e\")\n      dup2\n      jump\n        /* \"@thirdweb-dev/contracts/base/ERC721Base.sol\":4454:4671   */\n    tag_64:\n        /* \"@thirdweb-dev/contracts/base/ERC721Base.sol\":4541:4551   */\n      tag_235\n        /* \"@thirdweb-dev/contracts/base/ERC721Base.sol\":4541:4549   */\n      tag_236\n        /* \"@thirdweb-dev/contracts/base/ERC721Base.sol\":4541:4551   */\n      jump\t// in\n    tag_235:\n        /* \"@thirdweb-dev/contracts/base/ERC721Base.sol\":4533:4579   */\n      tag_237\n      jumpi\n      mload(0x40)\n      shl(0xe5, 0x461bcd)\n      dup2\n      mstore\n        /* \"#utility.yul\":13602:13604   */\n      0x20\n        /* \"@thirdweb-dev/contracts/base/ERC721Base.sol\":4533:4579   */\n      0x04\n      dup3\n      add\n        /* \"#utility.yul\":13584:13605   */\n      mstore\n        /* \"#utility.yul\":13641:13643   */\n      0x17\n        /* \"#utility.yul\":13621:13639   */\n      0x24\n      dup3\n      add\n        /* \"#utility.yul\":13614:13644   */\n      mstore\n        /* \"#utility.yul\":13680:13705   */\n      0x4e6f7420617574686f72697a656420746f206d696e742e000000000000000000\n        /* \"#utility.yul\":13660:13678   */\n      0x44\n      dup3\n      add\n        /* \"#utility.yul\":13653:13706   */\n      mstore\n        /* \"#utility.yul\":13723:13741   */\n      0x64\n      add\n        /* \"@thirdweb-dev/contracts/base/ERC721Base.sol\":4533:4579   */\n    tag_238:\n      mload(0x40)\n      dup1\n      swap2\n      sub\n      swap1\n      revert\n    tag_237:\n        /* \"@thirdweb-dev/contracts/base/ERC721Base.sol\":4589:4633   */\n      tag_240\n        /* \"@thirdweb-dev/contracts/base/ERC721Base.sol\":4602:4621   */\n      tag_241\n        /* \"@thirdweb-dev/contracts/base/ERC721Base.sol\":6193:6200   */\n      0x00\n        /* \"@thirdweb-dev/contracts/base/ERC721Base.sol\":6219:6232   */\n      sload\n      swap1\n        /* \"@thirdweb-dev/contracts/base/ERC721Base.sol\":6135:6239   */\n      jump\n        /* \"@thirdweb-dev/contracts/base/ERC721Base.sol\":4602:4621   */\n    tag_241:\n        /* \"@thirdweb-dev/contracts/base/ERC721Base.sol\":4623:4632   */\n      dup3\n        /* \"@thirdweb-dev/contracts/base/ERC721Base.sol\":4589:4601   */\n      tag_242\n        /* \"@thirdweb-dev/contracts/base/ERC721Base.sol\":4589:4633   */\n      jump\t// in\n    tag_240:\n        /* \"@thirdweb-dev/contracts/base/ERC721Base.sol\":4643:4664   */\n      tag_243\n        /* \"@thirdweb-dev/contracts/base/ERC721Base.sol\":4653:4656   */\n      dup3\n        /* \"@thirdweb-dev/contracts/base/ERC721Base.sol\":4658:4659   */\n      0x01\n        /* \"@thirdweb-dev/contracts/base/ERC721Base.sol\":4643:4664   */\n      mload(0x40)\n      dup1\n      0x20\n      add\n      0x40\n      mstore\n      dup1\n      0x00\n      dup2\n      mstore\n      pop\n        /* \"@thirdweb-dev/contracts/base/ERC721Base.sol\":4643:4652   */\n      tag_244\n        /* \"@thirdweb-dev/contracts/base/ERC721Base.sol\":4643:4664   */\n      jump\t// in\n    tag_243:\n        /* \"@thirdweb-dev/contracts/base/ERC721Base.sol\":4454:4671   */\n      pop\n      pop\n      jump\t// out\n        /* \"@thirdweb-dev/contracts/base/ERC721Base.sol\":2655:3099   */\n    tag_68:\n        /* \"@thirdweb-dev/contracts/base/ERC721Base.sol\":2758:2762   */\n      0x00\n      shl(0xe0, 0x01ffc9a7)\n      not(sub(shl(0xe0, 0x01), 0x01))\n        /* \"@thirdweb-dev/contracts/base/ERC721Base.sol\":2793:2818   */\n      dup4\n      and\n      eq\n      dup1\n        /* \"@thirdweb-dev/contracts/base/ERC721Base.sol\":2793:2893   */\n      tag_246\n      jumpi\n      pop\n      shl(0xe0, 0x80ac58cd)\n      not(sub(shl(0xe0, 0x01), 0x01))\n        /* \"@thirdweb-dev/contracts/base/ERC721Base.sol\":2868:2893   */\n      dup4\n      and\n      eq\n        /* \"@thirdweb-dev/contracts/base/ERC721Base.sol\":2793:2893   */\n    tag_246:\n        /* \"@thirdweb-dev/contracts/base/ERC721Base.sol\":2793:2968   */\n      dup1\n      tag_247\n      jumpi\n      pop\n      shl(0xe0, 0x5b5e139f)\n      not(sub(shl(0xe0, 0x01), 0x01))\n        /* \"@thirdweb-dev/contracts/base/ERC721Base.sol\":2943:2968   */\n      dup4\n      and\n      eq\n        /* \"@thirdweb-dev/contracts/base/ERC721Base.sol\":2793:2968   */\n    tag_247:\n        /* \"@thirdweb-dev/contracts/base/ERC721Base.sol\":2793:3067   */\n      dup1\n      tag_248\n      jumpi\n      pop\n      not(sub(shl(0xe0, 0x01), 0x01))\n        /* \"@thirdweb-dev/contracts/base/ERC721Base.sol\":3026:3067   */\n      dup3\n      and\n      shl(0xe1, 0x152a902d)\n      eq\n        /* \"@thirdweb-dev/contracts/base/ERC721Base.sol\":2793:3067   */\n    tag_248:\n        /* \"@thirdweb-dev/contracts/base/ERC721Base.sol\":2774:3067   */\n      swap3\n        /* \"@thirdweb-dev/contracts/base/ERC721Base.sol\":2655:3099   */\n      swap2\n      pop\n      pop\n      jump\t// out\n        /* \"@thirdweb-dev/contracts/eip/ERC721AVirtualApprove.sol\":6129:6227   */\n    tag_72:\n        /* \"@thirdweb-dev/contracts/eip/ERC721AVirtualApprove.sol\":6183:6196   */\n      0x60\n        /* \"@thirdweb-dev/contracts/eip/ERC721AVirtualApprove.sol\":6215:6220   */\n      0x02\n        /* \"@thirdweb-dev/contracts/eip/ERC721AVirtualApprove.sol\":6208:6220   */\n      dup1\n      sload\n      tag_250\n      swap1\n      tag_251\n      jump\t// in\n    tag_250:\n      dup1\n      0x1f\n      add\n      0x20\n      dup1\n      swap2\n      div\n      mul\n      0x20\n      add\n      mload(0x40)\n      swap1\n      dup2\n      add\n      0x40\n      mstore\n      dup1\n      swap3\n      swap2\n      swap1\n      dup2\n      dup2\n      mstore\n      0x20\n      add\n      dup3\n      dup1\n      sload\n      tag_252\n      swap1\n      tag_251\n      jump\t// in\n    tag_252:\n      dup1\n      iszero\n      tag_253\n      jumpi\n      dup1\n      0x1f\n      lt\n      tag_254\n      jumpi\n      0x0100\n      dup1\n      dup4\n      sload\n      div\n      mul\n      dup4\n      mstore\n      swap2\n      0x20\n      add\n      swap2\n      jump(tag_253)\n    tag_254:\n      dup3\n      add\n      swap2\n      swap1\n      0x00\n      mstore\n      keccak256(0x00, 0x20)\n      swap1\n    tag_255:\n      dup2\n      sload\n      dup2\n      mstore\n      swap1\n      0x01\n      add\n      swap1\n      0x20\n      add\n      dup1\n      dup4\n      gt\n      tag_255\n      jumpi\n      dup3\n      swap1\n      sub\n      0x1f\n      and\n      dup3\n      add\n      swap2\n    tag_253:\n      pop\n      pop\n      pop\n      pop\n      pop\n      swap1\n      pop\n        /* \"@thirdweb-dev/contracts/eip/ERC721AVirtualApprove.sol\":6129:6227   */\n      swap1\n      jump\t// out\n        /* \"@thirdweb-dev/contracts/eip/ERC721AVirtualApprove.sol\":7615:7815   */\n    tag_78:\n        /* \"@thirdweb-dev/contracts/eip/ERC721AVirtualApprove.sol\":7683:7690   */\n      0x00\n        /* \"@thirdweb-dev/contracts/eip/ERC721AVirtualApprove.sol\":7707:7723   */\n      tag_257\n        /* \"@thirdweb-dev/contracts/eip/ERC721AVirtualApprove.sol\":7715:7722   */\n      dup3\n        /* \"@thirdweb-dev/contracts/eip/ERC721AVirtualApprove.sol\":7707:7714   */\n      tag_258\n        /* \"@thirdweb-dev/contracts/eip/ERC721AVirtualApprove.sol\":7707:7723   */\n      jump\t// in\n    tag_257:\n        /* \"@thirdweb-dev/contracts/eip/ERC721AVirtualApprove.sol\":7702:7766   */\n      tag_259\n      jumpi\n        /* \"@thirdweb-dev/contracts/eip/ERC721AVirtualApprove.sol\":7732:7766   */\n      mload(0x40)\n      shl(0xe2, 0x33d1c039)\n      dup2\n      mstore\n      0x04\n      add\n      mload(0x40)\n      dup1\n      swap2\n      sub\n      swap1\n      revert\n        /* \"@thirdweb-dev/contracts/eip/ERC721AVirtualApprove.sol\":7702:7766   */\n    tag_259:\n      pop\n        /* \"@thirdweb-dev/contracts/eip/ERC721AVirtualApprove.sol\":7784:7808   */\n      0x00\n      swap1\n      dup2\n      mstore\n        /* \"@thirdweb-dev/contracts/eip/ERC721AVirtualApprove.sol\":7784:7799   */\n      0x06\n        /* \"@thirdweb-dev/contracts/eip/ERC721AVirtualApprove.sol\":7784:7808   */\n      0x20\n      mstore\n      0x40\n      swap1\n      keccak256\n      sload\n      sub(shl(0xa0, 0x01), 0x01)\n      and\n      swap1\n        /* \"@thirdweb-dev/contracts/eip/ERC721AVirtualApprove.sol\":7615:7815   */\n      jump\t// out\n        /* \"@thirdweb-dev/contracts/eip/ERC721AVirtualApprove.sol\":7162:7554   */\n    tag_84:\n        /* \"@thirdweb-dev/contracts/eip/ERC721AVirtualApprove.sol\":7242:7255   */\n      0x00\n        /* \"@thirdweb-dev/contracts/eip/ERC721AVirtualApprove.sol\":7258:7282   */\n      tag_261\n        /* \"@thirdweb-dev/contracts/eip/ERC721AVirtualApprove.sol\":7274:7281   */\n      dup3\n        /* \"@thirdweb-dev/contracts/eip/ERC721AVirtualApprove.sol\":7258:7273   */\n      tag_140\n        /* \"@thirdweb-dev/contracts/eip/ERC721AVirtualApprove.sol\":7258:7282   */\n      jump\t// in\n    tag_261:\n        /* \"@thirdweb-dev/contracts/eip/ERC721AVirtualApprove.sol\":7242:7282   */\n      swap1\n      pop\n        /* \"@thirdweb-dev/contracts/eip/ERC721AVirtualApprove.sol\":7302:7307   */\n      dup1\n      sub(shl(0xa0, 0x01), 0x01)\n        /* \"@thirdweb-dev/contracts/eip/ERC721AVirtualApprove.sol\":7296:7307   */\n      and\n        /* \"@thirdweb-dev/contracts/eip/ERC721AVirtualApprove.sol\":7296:7298   */\n      dup4\n      sub(shl(0xa0, 0x01), 0x01)\n        /* \"@thirdweb-dev/contracts/eip/ERC721AVirtualApprove.sol\":7296:7307   */\n      and\n      sub\n        /* \"@thirdweb-dev/contracts/eip/ERC721AVirtualApprove.sol\":7292:7340   */\n      tag_262\n      jumpi\n        /* \"@thirdweb-dev/contracts/eip/ERC721AVirtualApprove.sol\":7316:7340   */\n      mload(0x40)\n      shl(0xe2, 0x250fdee3)\n      dup2\n      mstore\n      0x04\n      add\n      mload(0x40)\n      dup1\n      swap2\n      sub\n      swap1\n      revert\n        /* \"@thirdweb-dev/contracts/eip/ERC721AVirtualApprove.sol\":7292:7340   */\n    tag_262:\n        /* \"@thirdweb-dev/contracts/base/ERC721Base.sol\":8521:8531   */\n      caller\n      sub(shl(0xa0, 0x01), 0x01)\n        /* \"@thirdweb-dev/contracts/eip/ERC721AVirtualApprove.sol\":7355:7376   */\n      dup3\n      and\n      eq\n        /* \"@thirdweb-dev/contracts/eip/ERC721AVirtualApprove.sol\":7351:7509   */\n      tag_268\n      jumpi\n        /* \"@thirdweb-dev/contracts/eip/ERC721AVirtualApprove.sol\":7395:7432   */\n      tag_266\n        /* \"@thirdweb-dev/contracts/eip/ERC721AVirtualApprove.sol\":7412:7417   */\n      dup2\n        /* \"@thirdweb-dev/contracts/base/ERC721Base.sol\":8521:8531   */\n      caller\n        /* \"@thirdweb-dev/contracts/eip/ERC721AVirtualApprove.sol\":8230:8392   */\n      tag_227\n      jump\t// in\n        /* \"@thirdweb-dev/contracts/eip/ERC721AVirtualApprove.sol\":7395:7432   */\n    tag_266:\n        /* \"@thirdweb-dev/contracts/eip/ERC721AVirtualApprove.sol\":7390:7509   */\n      tag_268\n      jumpi\n        /* \"@thirdweb-dev/contracts/eip/ERC721AVirtualApprove.sol\":7459:7494   */\n      mload(0x40)\n      shl(0xe1, 0x67d9dca1)\n      dup2\n      mstore\n      0x04\n      add\n      mload(0x40)\n      dup1\n      swap2\n      sub\n      swap1\n      revert\n        /* \"@thirdweb-dev/contracts/eip/ERC721AVirtualApprove.sol\":7390:7509   */\n    tag_268:\n        /* \"@thirdweb-dev/contracts/eip/ERC721AVirtualApprove.sol\":7519:7547   */\n      tag_269\n        /* \"@thirdweb-dev/contracts/eip/ERC721AVirtualApprove.sol\":7528:7530   */\n      dup4\n        /* \"@thirdweb-dev/contracts/eip/ERC721AVirtualApprove.sol\":7532:7539   */\n      dup4\n        /* \"@thirdweb-dev/contracts/eip/ERC721AVirtualApprove.sol\":7541:7546   */\n      dup4\n        /* \"@thirdweb-dev/contracts/eip/ERC721AVirtualApprove.sol\":7519:7527   */\n      tag_270\n        /* \"@thirdweb-dev/contracts/eip/ERC721AVirtualApprove.sol\":7519:7547   */\n      jump\t// in\n    tag_269:\n        /* \"@thirdweb-dev/contracts/eip/ERC721AVirtualApprove.sol\":7232:7554   */\n      pop\n        /* \"@thirdweb-dev/contracts/eip/ERC721AVirtualApprove.sol\":7162:7554   */\n      pop\n      pop\n      jump\t// out\n        /* \"@thirdweb-dev/contracts/extension/Ownable.sol\":1235:1412   */\n    tag_88:\n        /* \"@thirdweb-dev/contracts/extension/Ownable.sol\":1305:1319   */\n      tag_272\n        /* \"@thirdweb-dev/contracts/extension/Ownable.sol\":1305:1317   */\n      tag_236\n        /* \"@thirdweb-dev/contracts/extension/Ownable.sol\":1305:1319   */\n      jump\t// in\n    tag_272:\n        /* \"@thirdweb-dev/contracts/extension/Ownable.sol\":1300:1374   */\n      tag_274\n      jumpi\n        /* \"@thirdweb-dev/contracts/extension/Ownable.sol\":1342:1363   */\n      mload(0x40)\n      shl(0xe1, 0x16ccb9cb)\n      dup2\n      mstore\n      0x04\n      add\n      mload(0x40)\n      dup1\n      swap2\n      sub\n      swap1\n      revert\n        /* \"@thirdweb-dev/contracts/extension/Ownable.sol\":1300:1374   */\n    tag_274:\n        /* \"@thirdweb-dev/contracts/extension/Ownable.sol\":1383:1405   */\n      tag_275\n        /* \"@thirdweb-dev/contracts/extension/Ownable.sol\":1395:1404   */\n      dup2\n        /* \"@thirdweb-dev/contracts/extension/Ownable.sol\":1383:1394   */\n      tag_276\n        /* \"@thirdweb-dev/contracts/extension/Ownable.sol\":1383:1405   */\n      jump\t// in\n    tag_275:\n        /* \"@thirdweb-dev/contracts/extension/Ownable.sol\":1235:1412   */\n      pop\n      jump\t// out\n        /* \"ProducerProtocolOptimism.sol\":956:1469  function bridgeMint(... */\n    tag_96:\n        /* \"ProducerProtocolOptimism.sol\":1075:1085  msg.sender */\n      caller\n      sub(shl(0xa0, 0x01), 0x01)\n        /* \"ProducerProtocolOptimism.sol\":1089:1109  crossDomainMessenger */\n      immutable(\"0x9560168699514dcd528543d614e81b4f36adf182dc624d2f1eb91df8addd987e\")\n        /* \"ProducerProtocolOptimism.sol\":1075:1109  msg.sender == crossDomainMessenger */\n      and\n      eq\n        /* \"ProducerProtocolOptimism.sol\":1054:1158  require(... */\n      tag_281\n      jumpi\n      mload(0x40)\n      shl(0xe5, 0x461bcd)\n      dup2\n      mstore\n        /* \"#utility.yul\":14339:14341   */\n      0x20\n        /* \"ProducerProtocolOptimism.sol\":1054:1158  require(... */\n      0x04\n      dup3\n      add\n        /* \"#utility.yul\":14321:14342   */\n      mstore\n        /* \"#utility.yul\":14378:14380   */\n      0x16\n        /* \"#utility.yul\":14358:14376   */\n      0x24\n      dup3\n      add\n        /* \"#utility.yul\":14351:14381   */\n      mstore\n        /* \"#utility.yul\":14417:14441   */\n      0x556e617574686f72697a6564206d657373656e67657200000000000000000000\n        /* \"#utility.yul\":14397:14415   */\n      0x44\n      dup3\n      add\n        /* \"#utility.yul\":14390:14442   */\n      mstore\n        /* \"#utility.yul\":14459:14477   */\n      0x64\n      add\n        /* \"ProducerProtocolOptimism.sol\":1054:1158  require(... */\n      tag_238\n        /* \"#utility.yul\":14137:14483   */\n      jump\n        /* \"ProducerProtocolOptimism.sol\":1054:1158  require(... */\n    tag_281:\n        /* \"ProducerProtocolOptimism.sol\":1252:1262  l1Contract */\n      immutable(\"0xbbf5a24880b10a5f9f601c4058e4771ddea17e7d765ceb3c903814e1c0d621e0\")\n      sub(shl(0xa0, 0x01), 0x01)\n        /* \"ProducerProtocolOptimism.sol\":1189:1262  ICrossDomainMessenger(crossDomainMessenger).xDomainSender() == l1Contract */\n      and\n        /* \"ProducerProtocolOptimism.sol\":1211:1231  crossDomainMessenger */\n      immutable(\"0x9560168699514dcd528543d614e81b4f36adf182dc624d2f1eb91df8addd987e\")\n      sub(shl(0xa0, 0x01), 0x01)\n        /* \"ProducerProtocolOptimism.sol\":1189:1246  ICrossDomainMessenger(crossDomainMessenger).xDomainSender */\n      and\n      0x674df712\n        /* \"ProducerProtocolOptimism.sol\":1189:1248  ICrossDomainMessenger(crossDomainMessenger).xDomainSender() */\n      mload(0x40)\n      dup2\n      0xffffffff\n      and\n      0xe0\n      shl\n      dup2\n      mstore\n      0x04\n      add\n      0x20\n      mload(0x40)\n      dup1\n      dup4\n      sub\n      dup2\n      dup7\n      gas\n      staticcall\n      iszero\n      dup1\n      iszero\n      tag_285\n      jumpi\n      returndatasize\n      0x00\n      dup1\n      returndatacopy\n      revert(0x00, returndatasize)\n    tag_285:\n      pop\n      pop\n      pop\n      pop\n      mload(0x40)\n      returndatasize\n      not(0x1f)\n      0x1f\n      dup3\n      add\n      and\n      dup3\n      add\n      dup1\n      0x40\n      mstore\n      pop\n      dup2\n      add\n      swap1\n      tag_286\n      swap2\n      swap1\n      tag_287\n      jump\t// in\n    tag_286:\n      sub(shl(0xa0, 0x01), 0x01)\n        /* \"ProducerProtocolOptimism.sol\":1189:1262  ICrossDomainMessenger(crossDomainMessenger).xDomainSender() == l1Contract */\n      and\n      eq\n        /* \"ProducerProtocolOptimism.sol\":1168:1305  require(... */\n      tag_288\n      jumpi\n      mload(0x40)\n      shl(0xe5, 0x461bcd)\n      dup2\n      mstore\n        /* \"#utility.yul\":14946:14948   */\n      0x20\n        /* \"ProducerProtocolOptimism.sol\":1168:1305  require(... */\n      0x04\n      dup3\n      add\n        /* \"#utility.yul\":14928:14949   */\n      mstore\n        /* \"#utility.yul\":14985:14987   */\n      0x11\n        /* \"#utility.yul\":14965:14983   */\n      0x24\n      dup3\n      add\n        /* \"#utility.yul\":14958:14988   */\n      mstore\n        /* \"#utility.yul\":15024:15043   */\n      0x496e76616c6964204c312073656e646572000000000000000000000000000000\n        /* \"#utility.yul\":15004:15022   */\n      0x44\n      dup3\n      add\n        /* \"#utility.yul\":14997:15044   */\n      mstore\n        /* \"#utility.yul\":15061:15079   */\n      0x64\n      add\n        /* \"ProducerProtocolOptimism.sol\":1168:1305  require(... */\n      tag_238\n        /* \"#utility.yul\":14744:15085   */\n      jump\n        /* \"ProducerProtocolOptimism.sol\":1168:1305  require(... */\n    tag_288:\n        /* \"ProducerProtocolOptimism.sol\":1324:1340  _exists(tokenId) */\n      tag_291\n        /* \"ProducerProtocolOptimism.sol\":1332:1339  tokenId */\n      dup3\n        /* \"ProducerProtocolOptimism.sol\":1324:1331  _exists */\n      tag_258\n        /* \"ProducerProtocolOptimism.sol\":1324:1340  _exists(tokenId) */\n      jump\t// in\n    tag_291:\n        /* \"ProducerProtocolOptimism.sol\":1323:1340  !_exists(tokenId) */\n      iszero\n        /* \"ProducerProtocolOptimism.sol\":1315:1365  require(!_exists(tokenId), \"Token already exists\") */\n      tag_292\n      jumpi\n      mload(0x40)\n      shl(0xe5, 0x461bcd)\n      dup2\n      mstore\n        /* \"#utility.yul\":15292:15294   */\n      0x20\n        /* \"ProducerProtocolOptimism.sol\":1315:1365  require(!_exists(tokenId), \"Token already exists\") */\n      0x04\n      dup3\n      add\n        /* \"#utility.yul\":15274:15295   */\n      mstore\n        /* \"#utility.yul\":15331:15333   */\n      0x14\n        /* \"#utility.yul\":15311:15329   */\n      0x24\n      dup3\n      add\n        /* \"#utility.yul\":15304:15334   */\n      mstore\n        /* \"#utility.yul\":15370:15392   */\n      0x546f6b656e20616c726561647920657869737473000000000000000000000000\n        /* \"#utility.yul\":15350:15368   */\n      0x44\n      dup3\n      add\n        /* \"#utility.yul\":15343:15393   */\n      mstore\n        /* \"#utility.yul\":15410:15428   */\n      0x64\n      add\n        /* \"ProducerProtocolOptimism.sol\":1315:1365  require(!_exists(tokenId), \"Token already exists\") */\n      tag_238\n        /* \"#utility.yul\":15090:15434   */\n      jump\n        /* \"ProducerProtocolOptimism.sol\":1315:1365  require(!_exists(tokenId), \"Token already exists\") */\n    tag_292:\n        /* \"ProducerProtocolOptimism.sol\":1384:1413  _safeMint(recipient, tokenId) */\n      tag_295\n        /* \"ProducerProtocolOptimism.sol\":1394:1403  recipient */\n      dup2\n        /* \"ProducerProtocolOptimism.sol\":1405:1412  tokenId */\n      dup4\n        /* \"ProducerProtocolOptimism.sol\":1384:1393  _safeMint */\n      tag_296\n        /* \"ProducerProtocolOptimism.sol\":1384:1413  _safeMint(recipient, tokenId) */\n      jump\t// in\n    tag_295:\n        /* \"ProducerProtocolOptimism.sol\":1428:1462  TokenBridgedIn(tokenId, recipient) */\n      mload(0x40)\n      sub(shl(0xa0, 0x01), 0x01)\n      dup3\n      and\n      swap1\n        /* \"ProducerProtocolOptimism.sol\":1443:1450  tokenId */\n      dup4\n      swap1\n        /* \"ProducerProtocolOptimism.sol\":1428:1462  TokenBridgedIn(tokenId, recipient) */\n      0xe7800c6d4262c7daa24e0ef4ec42df968eaeb6cdebd0e70a05ab4852742788d6\n      swap1\n      0x00\n      swap1\n      log3\n        /* \"ProducerProtocolOptimism.sol\":956:1469  function bridgeMint(... */\n      pop\n      pop\n      jump\t// out\n        /* \"@thirdweb-dev/contracts/eip/ERC721AVirtualApprove.sol\":8454:8588   */\n    tag_100:\n        /* \"@thirdweb-dev/contracts/eip/ERC721AVirtualApprove.sol\":8553:8581   */\n      tag_269\n        /* \"@thirdweb-dev/contracts/eip/ERC721AVirtualApprove.sol\":8563:8567   */\n      dup4\n        /* \"@thirdweb-dev/contracts/eip/ERC721AVirtualApprove.sol\":8569:8571   */\n      dup4\n        /* \"@thirdweb-dev/contracts/eip/ERC721AVirtualApprove.sol\":8573:8580   */\n      dup4\n        /* \"@thirdweb-dev/contracts/eip/ERC721AVirtualApprove.sol\":8553:8562   */\n      tag_299\n        /* \"@thirdweb-dev/contracts/eip/ERC721AVirtualApprove.sol\":8553:8581   */\n      jump\t// in\n        /* \"@thirdweb-dev/contracts/extension/BatchMintMetadata.sol\":2279:2497   */\n    tag_103:\n        /* \"@thirdweb-dev/contracts/extension/BatchMintMetadata.sol\":2343:2350   */\n      0x00\n        /* \"@thirdweb-dev/contracts/extension/BatchMintMetadata.sol\":2376:2393   */\n      tag_301\n        /* \"@thirdweb-dev/contracts/extension/BatchMintMetadata.sol\":2035:2043   */\n      0x0c\n        /* \"@thirdweb-dev/contracts/extension/BatchMintMetadata.sol\":2035:2050   */\n      sload\n      swap1\n        /* \"@thirdweb-dev/contracts/extension/BatchMintMetadata.sol\":1961:2057   */\n      jump\n        /* \"@thirdweb-dev/contracts/extension/BatchMintMetadata.sol\":2376:2393   */\n    tag_301:\n        /* \"@thirdweb-dev/contracts/extension/BatchMintMetadata.sol\":2366:2372   */\n      dup3\n        /* \"@thirdweb-dev/contracts/extension/BatchMintMetadata.sol\":2366:2393   */\n      lt\n        /* \"@thirdweb-dev/contracts/extension/BatchMintMetadata.sol\":2362:2458   */\n      tag_302\n      jumpi\n        /* \"@thirdweb-dev/contracts/extension/BatchMintMetadata.sol\":2416:2447   */\n      mload(0x40)\n      shl(0xe1, 0x07931277)\n      dup2\n      mstore\n      0x04\n      dup2\n      add\n        /* \"#utility.yul\":3836:3861   */\n      dup4\n      swap1\n      mstore\n        /* \"#utility.yul\":3809:3827   */\n      0x24\n      add\n        /* \"@thirdweb-dev/contracts/extension/BatchMintMetadata.sol\":2416:2447   */\n      tag_238\n        /* \"#utility.yul\":3690:3867   */\n      jump\n        /* \"@thirdweb-dev/contracts/extension/BatchMintMetadata.sol\":2362:2458   */\n    tag_302:\n        /* \"@thirdweb-dev/contracts/extension/BatchMintMetadata.sol\":2474:2482   */\n      0x0c\n        /* \"@thirdweb-dev/contracts/extension/BatchMintMetadata.sol\":2483:2489   */\n      dup3\n        /* \"@thirdweb-dev/contracts/extension/BatchMintMetadata.sol\":2474:2490   */\n      dup2\n      sload\n      dup2\n      lt\n      tag_305\n      jumpi\n      tag_305\n      tag_306\n      jump\t// in\n    tag_305:\n      swap1\n      0x00\n      mstore\n      keccak256(0x00, 0x20)\n      add\n      sload\n        /* \"@thirdweb-dev/contracts/extension/BatchMintMetadata.sol\":2467:2490   */\n      swap1\n      pop\n        /* \"@thirdweb-dev/contracts/extension/BatchMintMetadata.sol\":2279:2497   */\n      swap2\n      swap1\n      pop\n      jump\t// out\n        /* \"@thirdweb-dev/contracts/extension/Royalty.sol\":1726:2051   */\n    tag_108:\n        /* \"@thirdweb-dev/contracts/extension/Royalty.sol\":1845:1861   */\n      0x00\n        /* \"@thirdweb-dev/contracts/extension/Royalty.sol\":1863:1884   */\n      dup1\n        /* \"@thirdweb-dev/contracts/extension/Royalty.sol\":1897:1914   */\n      0x00\n        /* \"@thirdweb-dev/contracts/extension/Royalty.sol\":1916:1927   */\n      dup1\n        /* \"@thirdweb-dev/contracts/extension/Royalty.sol\":1931:1962   */\n      tag_309\n        /* \"@thirdweb-dev/contracts/extension/Royalty.sol\":1954:1961   */\n      dup7\n        /* \"@thirdweb-dev/contracts/extension/Royalty.sol\":1931:1953   */\n      tag_126\n        /* \"@thirdweb-dev/contracts/extension/Royalty.sol\":1931:1962   */\n      jump\t// in\n    tag_309:\n        /* \"@thirdweb-dev/contracts/extension/Royalty.sol\":1896:1962   */\n      swap1\n      swap5\n      pop\n      dup5\n      swap3\n      pop\n      0xffff\n      and\n      swap1\n      pop\n        /* \"@thirdweb-dev/contracts/extension/Royalty.sol\":2038:2044   */\n      0x2710\n        /* \"@thirdweb-dev/contracts/extension/Royalty.sol\":2019:2034   */\n      tag_310\n        /* \"@thirdweb-dev/contracts/extension/Royalty.sol\":1896:1962   */\n      dup3\n        /* \"@thirdweb-dev/contracts/extension/Royalty.sol\":2019:2028   */\n      dup8\n        /* \"@thirdweb-dev/contracts/extension/Royalty.sol\":2019:2034   */\n      tag_311\n      jump\t// in\n    tag_310:\n        /* \"@thirdweb-dev/contracts/extension/Royalty.sol\":2018:2044   */\n      tag_312\n      swap2\n      swap1\n      tag_313\n      jump\t// in\n    tag_312:\n        /* \"@thirdweb-dev/contracts/extension/Royalty.sol\":2002:2044   */\n      swap3\n      pop\n        /* \"@thirdweb-dev/contracts/extension/Royalty.sol\":1886:2051   */\n      pop\n      pop\n        /* \"@thirdweb-dev/contracts/extension/Royalty.sol\":1726:2051   */\n      swap3\n      pop\n      swap3\n      swap1\n      pop\n      jump\t// out\n        /* \"@thirdweb-dev/contracts/eip/ERC721AVirtualApprove.sol\":8654:8803   */\n    tag_116:\n        /* \"@thirdweb-dev/contracts/eip/ERC721AVirtualApprove.sol\":8757:8796   */\n      tag_269\n        /* \"@thirdweb-dev/contracts/eip/ERC721AVirtualApprove.sol\":8774:8778   */\n      dup4\n        /* \"@thirdweb-dev/contracts/eip/ERC721AVirtualApprove.sol\":8780:8782   */\n      dup4\n        /* \"@thirdweb-dev/contracts/eip/ERC721AVirtualApprove.sol\":8784:8791   */\n      dup4\n        /* \"@thirdweb-dev/contracts/eip/ERC721AVirtualApprove.sol\":8757:8796   */\n      mload(0x40)\n      dup1\n      0x20\n      add\n      0x40\n      mstore\n      dup1\n      0x00\n      dup2\n      mstore\n      pop\n        /* \"@thirdweb-dev/contracts/eip/ERC721AVirtualApprove.sol\":8757:8773   */\n      tag_209\n        /* \"@thirdweb-dev/contracts/eip/ERC721AVirtualApprove.sol\":8757:8796   */\n      jump\t// in\n        /* \"@thirdweb-dev/contracts/base/ERC721Base.sol\":5793:5880   */\n    tag_119:\n        /* \"@thirdweb-dev/contracts/base/ERC721Base.sol\":5852:5873   */\n      tag_275\n        /* \"@thirdweb-dev/contracts/base/ERC721Base.sol\":5858:5866   */\n      dup2\n        /* \"@thirdweb-dev/contracts/base/ERC721Base.sol\":5868:5872   */\n      0x01\n        /* \"@thirdweb-dev/contracts/base/ERC721Base.sol\":5852:5857   */\n      tag_319\n        /* \"@thirdweb-dev/contracts/base/ERC721Base.sol\":5852:5873   */\n      jump\t// in\n        /* \"@thirdweb-dev/contracts/base/ERC721Base.sol\":6571:6914   */\n    tag_122:\n        /* \"@thirdweb-dev/contracts/base/ERC721Base.sol\":6686:6710   */\n      0x00\n        /* \"@thirdweb-dev/contracts/base/ERC721Base.sol\":6722:6735   */\n      dup1\n        /* \"@thirdweb-dev/contracts/base/ERC721Base.sol\":6738:6755   */\n      tag_321\n        /* \"@thirdweb-dev/contracts/base/ERC721Base.sol\":6746:6754   */\n      dup4\n        /* \"@thirdweb-dev/contracts/base/ERC721Base.sol\":6738:6745   */\n      tag_140\n        /* \"@thirdweb-dev/contracts/base/ERC721Base.sol\":6738:6755   */\n      jump\t// in\n    tag_321:\n        /* \"@thirdweb-dev/contracts/base/ERC721Base.sol\":6722:6755   */\n      swap1\n      pop\n        /* \"@thirdweb-dev/contracts/base/ERC721Base.sol\":6801:6806   */\n      dup1\n      sub(shl(0xa0, 0x01), 0x01)\n        /* \"@thirdweb-dev/contracts/base/ERC721Base.sol\":6788:6806   */\n      and\n        /* \"@thirdweb-dev/contracts/base/ERC721Base.sol\":6788:6797   */\n      dup5\n      sub(shl(0xa0, 0x01), 0x01)\n        /* \"@thirdweb-dev/contracts/base/ERC721Base.sol\":6788:6806   */\n      and\n      eq\n        /* \"@thirdweb-dev/contracts/base/ERC721Base.sol\":6788:6856   */\n      dup1\n      tag_323\n      jumpi\n      pop\n      sub(shl(0xa0, 0x01), 0x01)\n        /* \"@thirdweb-dev/contracts/eip/ERC721AVirtualApprove.sol\":8350:8375   */\n      dup1\n      dup3\n      and\n        /* \"@thirdweb-dev/contracts/eip/ERC721AVirtualApprove.sol\":8327:8331   */\n      0x00\n        /* \"@thirdweb-dev/contracts/eip/ERC721AVirtualApprove.sol\":8350:8375   */\n      swap1\n      dup2\n      mstore\n        /* \"@thirdweb-dev/contracts/eip/ERC721AVirtualApprove.sol\":8350:8368   */\n      0x07\n        /* \"@thirdweb-dev/contracts/eip/ERC721AVirtualApprove.sol\":8350:8375   */\n      0x20\n      swap1\n      dup2\n      mstore\n      0x40\n      dup1\n      dup4\n      keccak256\n        /* \"@thirdweb-dev/contracts/eip/ERC721AVirtualApprove.sol\":8350:8385   */\n      swap4\n      dup9\n      and\n      dup4\n      mstore\n      swap3\n      swap1\n      mstore\n      keccak256\n      sload\n      0xff\n      and\n        /* \"@thirdweb-dev/contracts/base/ERC721Base.sol\":6822:6856   */\n    tag_323:\n        /* \"@thirdweb-dev/contracts/base/ERC721Base.sol\":6788:6906   */\n      dup1\n      tag_324\n      jumpi\n      pop\n        /* \"@thirdweb-dev/contracts/base/ERC721Base.sol\":6897:6906   */\n      dup4\n      sub(shl(0xa0, 0x01), 0x01)\n        /* \"@thirdweb-dev/contracts/base/ERC721Base.sol\":6872:6906   */\n      and\n        /* \"@thirdweb-dev/contracts/base/ERC721Base.sol\":6872:6893   */\n      tag_325\n        /* \"@thirdweb-dev/contracts/base/ERC721Base.sol\":6884:6892   */\n      dup5\n        /* \"@thirdweb-dev/contracts/base/ERC721Base.sol\":6872:6883   */\n      tag_78\n        /* \"@thirdweb-dev/contracts/base/ERC721Base.sol\":6872:6893   */\n      jump\t// in\n    tag_325:\n      sub(shl(0xa0, 0x01), 0x01)\n        /* \"@thirdweb-dev/contracts/base/ERC721Base.sol\":6872:6906   */\n      and\n      eq\n        /* \"@thirdweb-dev/contracts/base/ERC721Base.sol\":6788:6906   */\n    tag_324:\n        /* \"@thirdweb-dev/contracts/base/ERC721Base.sol\":6765:6907   */\n      swap5\n        /* \"@thirdweb-dev/contracts/base/ERC721Base.sol\":6571:6914   */\n      swap4\n      pop\n      pop\n      pop\n      pop\n      jump\t// out\n        /* \"@thirdweb-dev/contracts/extension/Royalty.sol\":2291:2672   */\n    tag_126:\n        /* \"@thirdweb-dev/contracts/extension/Royalty.sol\":2371:2378   */\n      0x00\n        /* \"@thirdweb-dev/contracts/extension/Royalty.sol\":2435:2464   */\n      dup2\n      dup2\n      mstore\n        /* \"@thirdweb-dev/contracts/extension/Royalty.sol\":2435:2454   */\n      0x0b\n        /* \"@thirdweb-dev/contracts/extension/Royalty.sol\":2435:2464   */\n      0x20\n      swap1\n      dup2\n      mstore\n      0x40\n      dup1\n      dup4\n      keccak256\n        /* \"@thirdweb-dev/contracts/extension/Royalty.sol\":2398:2464   */\n      dup2\n      mload\n      dup1\n      dup4\n      add\n      swap1\n      swap3\n      mstore\n      dup1\n      sload\n      sub(shl(0xa0, 0x01), 0x01)\n      and\n      dup1\n      dup4\n      mstore\n      0x01\n      swap1\n      swap2\n      add\n      sload\n      swap3\n      dup3\n      add\n      swap3\n      swap1\n      swap3\n      mstore\n        /* \"@thirdweb-dev/contracts/extension/Royalty.sol\":2371:2378   */\n      dup3\n      swap2\n        /* \"@thirdweb-dev/contracts/extension/Royalty.sol\":2494:2533   */\n      iszero\n        /* \"@thirdweb-dev/contracts/extension/Royalty.sol\":2494:2665   */\n      tag_327\n      jumpi\n        /* \"@thirdweb-dev/contracts/extension/Royalty.sol\":2610:2635   */\n      dup1\n      mload\n        /* \"@thirdweb-dev/contracts/extension/Royalty.sol\":2644:2663   */\n      0x20\n      dup3\n      add\n      mload\n        /* \"@thirdweb-dev/contracts/extension/Royalty.sol\":2494:2665   */\n      jump(tag_328)\n    tag_327:\n        /* \"@thirdweb-dev/contracts/extension/Royalty.sol\":2553:2569   */\n      sload(0x0a)\n      sub(shl(0xa0, 0x01), 0x01)\n      dup2\n      and\n      swap1\n      shl(0xa0, 0x01)\n        /* \"@thirdweb-dev/contracts/extension/Royalty.sol\":2578:2588   */\n      swap1\n      div\n      0xffff\n      and\n        /* \"@thirdweb-dev/contracts/extension/Royalty.sol\":2494:2665   */\n    tag_328:\n        /* \"@thirdweb-dev/contracts/extension/Royalty.sol\":2475:2665   */\n      swap3\n      pop\n      swap3\n      pop\n      pop\n        /* \"@thirdweb-dev/contracts/extension/Royalty.sol\":2291:2672   */\n      swap2\n      pop\n      swap2\n      jump\t// out\n        /* \"@thirdweb-dev/contracts/eip/queryable/ERC721AQueryable.sol\":1514:1973   */\n    tag_132:\n        /* \"@thirdweb-dev/contracts/eip/queryable/ERC721AQueryable.sol\":1687:1702   */\n      dup1\n      mload\n        /* \"@thirdweb-dev/contracts/eip/queryable/ERC721AQueryable.sol\":1603:1626   */\n      0x60\n      swap1\n        /* \"@thirdweb-dev/contracts/eip/queryable/ERC721AQueryable.sol\":1662:1684   */\n      0x00\n        /* \"@thirdweb-dev/contracts/eip/queryable/ERC721AQueryable.sol\":1687:1702   */\n      dup2\n        /* \"@thirdweb-dev/contracts/eip/queryable/ERC721AQueryable.sol\":1753:1789   */\n      0xffffffffffffffff\n      dup2\n      gt\n      iszero\n      tag_331\n      jumpi\n      tag_331\n      tag_332\n      jump\t// in\n    tag_331:\n      mload(0x40)\n      swap1\n      dup1\n      dup3\n      mstore\n      dup1\n      0x20\n      mul\n      0x20\n      add\n      dup3\n      add\n      0x40\n      mstore\n      dup1\n      iszero\n      tag_333\n      jumpi\n      dup2\n      0x20\n      add\n    tag_334:\n      0x40\n      dup1\n      mload\n      0x60\n      dup2\n      add\n      dup3\n      mstore\n      0x00\n      dup1\n      dup3\n      mstore\n      0x20\n      dup1\n      dup4\n      add\n      dup3\n      swap1\n      mstore\n      swap3\n      dup3\n      add\n      mstore\n      dup3\n      mstore\n      not(0x00)\n      swap1\n      swap3\n      add\n      swap2\n      add\n      dup2\n      tag_334\n      jumpi\n      swap1\n      pop\n    tag_333:\n      pop\n        /* \"@thirdweb-dev/contracts/eip/queryable/ERC721AQueryable.sol\":1716:1789   */\n      swap1\n      pop\n        /* \"@thirdweb-dev/contracts/eip/queryable/ERC721AQueryable.sol\":1808:1817   */\n      0x00\n        /* \"@thirdweb-dev/contracts/eip/queryable/ERC721AQueryable.sol\":1803:1926   */\n    tag_337:\n        /* \"@thirdweb-dev/contracts/eip/queryable/ERC721AQueryable.sol\":1824:1838   */\n      dup3\n        /* \"@thirdweb-dev/contracts/eip/queryable/ERC721AQueryable.sol\":1819:1820   */\n      dup2\n        /* \"@thirdweb-dev/contracts/eip/queryable/ERC721AQueryable.sol\":1819:1838   */\n      eq\n        /* \"@thirdweb-dev/contracts/eip/queryable/ERC721AQueryable.sol\":1803:1926   */\n      tag_338\n      jumpi\n        /* \"@thirdweb-dev/contracts/eip/queryable/ERC721AQueryable.sol\":1879:1911   */\n      tag_340\n        /* \"@thirdweb-dev/contracts/eip/queryable/ERC721AQueryable.sol\":1899:1907   */\n      dup6\n        /* \"@thirdweb-dev/contracts/eip/queryable/ERC721AQueryable.sol\":1908:1909   */\n      dup3\n        /* \"@thirdweb-dev/contracts/eip/queryable/ERC721AQueryable.sol\":1899:1910   */\n      dup2\n      mload\n      dup2\n      lt\n      tag_342\n      jumpi\n      tag_342\n      tag_306\n      jump\t// in\n    tag_342:\n      0x20\n      mul\n      0x20\n      add\n      add\n      mload\n        /* \"@thirdweb-dev/contracts/eip/queryable/ERC721AQueryable.sol\":1879:1898   */\n      tag_216\n        /* \"@thirdweb-dev/contracts/eip/queryable/ERC721AQueryable.sol\":1879:1911   */\n      jump\t// in\n    tag_340:\n        /* \"@thirdweb-dev/contracts/eip/queryable/ERC721AQueryable.sol\":1863:1873   */\n      dup3\n        /* \"@thirdweb-dev/contracts/eip/queryable/ERC721AQueryable.sol\":1874:1875   */\n      dup3\n        /* \"@thirdweb-dev/contracts/eip/queryable/ERC721AQueryable.sol\":1863:1876   */\n      dup2\n      mload\n      dup2\n      lt\n      tag_344\n      jumpi\n      tag_344\n      tag_306\n      jump\t// in\n    tag_344:\n      0x20\n      swap1\n      dup2\n      mul\n      swap2\n      swap1\n      swap2\n      add\n      add\n        /* \"@thirdweb-dev/contracts/eip/queryable/ERC721AQueryable.sol\":1863:1911   */\n      mstore\n        /* \"@thirdweb-dev/contracts/eip/queryable/ERC721AQueryable.sol\":1840:1843   */\n      0x01\n      add\n        /* \"@thirdweb-dev/contracts/eip/queryable/ERC721AQueryable.sol\":1803:1926   */\n      jump(tag_337)\n    tag_338:\n      pop\n        /* \"@thirdweb-dev/contracts/eip/queryable/ERC721AQueryable.sol\":1946:1956   */\n      swap4\n        /* \"@thirdweb-dev/contracts/eip/queryable/ERC721AQueryable.sol\":1514:1973   */\n      swap3\n      pop\n      pop\n      pop\n      jump\t// out\n        /* \"@thirdweb-dev/contracts/extension/Royalty.sol\":3370:3630   */\n    tag_137:\n        /* \"@thirdweb-dev/contracts/extension/Royalty.sol\":3482:3502   */\n      tag_346\n        /* \"@thirdweb-dev/contracts/extension/Royalty.sol\":3482:3500   */\n      tag_236\n        /* \"@thirdweb-dev/contracts/extension/Royalty.sol\":3482:3502   */\n      jump\t// in\n    tag_346:\n        /* \"@thirdweb-dev/contracts/extension/Royalty.sol\":3477:3557   */\n      tag_348\n      jumpi\n        /* \"@thirdweb-dev/contracts/extension/Royalty.sol\":3525:3546   */\n      mload(0x40)\n      shl(0xe1, 0x6fae3581)\n      dup2\n      mstore\n      0x04\n      add\n      mload(0x40)\n      dup1\n      swap2\n      sub\n      swap1\n      revert\n        /* \"@thirdweb-dev/contracts/extension/Royalty.sol\":3477:3557   */\n    tag_348:\n        /* \"@thirdweb-dev/contracts/extension/Royalty.sol\":3567:3623   */\n      tag_243\n        /* \"@thirdweb-dev/contracts/extension/Royalty.sol\":3592:3609   */\n      dup3\n        /* \"@thirdweb-dev/contracts/extension/Royalty.sol\":3611:3622   */\n      dup3\n        /* \"@thirdweb-dev/contracts/extension/Royalty.sol\":3567:3591   */\n      tag_350\n        /* \"@thirdweb-dev/contracts/extension/Royalty.sol\":3567:3623   */\n      jump\t// in\n        /* \"@thirdweb-dev/contracts/eip/ERC721AVirtualApprove.sol\":5944:6067   */\n    tag_140:\n        /* \"@thirdweb-dev/contracts/eip/ERC721AVirtualApprove.sol\":6008:6015   */\n      0x00\n        /* \"@thirdweb-dev/contracts/eip/ERC721AVirtualApprove.sol\":6034:6055   */\n      tag_352\n        /* \"@thirdweb-dev/contracts/eip/ERC721AVirtualApprove.sol\":6047:6054   */\n      dup3\n        /* \"@thirdweb-dev/contracts/eip/ERC721AVirtualApprove.sol\":6034:6046   */\n      tag_353\n        /* \"@thirdweb-dev/contracts/eip/ERC721AVirtualApprove.sol\":6034:6055   */\n      jump\t// in\n    tag_352:\n        /* \"@thirdweb-dev/contracts/eip/ERC721AVirtualApprove.sol\":6034:6060   */\n      mload\n      swap3\n        /* \"@thirdweb-dev/contracts/eip/ERC721AVirtualApprove.sol\":5944:6067   */\n      swap2\n      pop\n      pop\n      jump\t// out\n        /* \"ProducerProtocolOptimism.sol\":1475:2095  function bridgeOut(... */\n    tag_150:\n        /* \"ProducerProtocolOptimism.sol\":1595:1633  isApprovedOrOwner(msg.sender, tokenId) */\n      tag_356\n        /* \"ProducerProtocolOptimism.sol\":1613:1623  msg.sender */\n      caller\n        /* \"ProducerProtocolOptimism.sol\":1625:1632  tokenId */\n      dup4\n        /* \"ProducerProtocolOptimism.sol\":1595:1612  isApprovedOrOwner */\n      tag_122\n        /* \"ProducerProtocolOptimism.sol\":1595:1633  isApprovedOrOwner(msg.sender, tokenId) */\n      jump\t// in\n    tag_356:\n        /* \"ProducerProtocolOptimism.sol\":1574:1681  require(... */\n      tag_357\n      jumpi\n      mload(0x40)\n      shl(0xe5, 0x461bcd)\n      dup2\n      mstore\n        /* \"#utility.yul\":16335:16337   */\n      0x20\n        /* \"ProducerProtocolOptimism.sol\":1574:1681  require(... */\n      0x04\n      dup3\n      add\n        /* \"#utility.yul\":16317:16338   */\n      mstore\n        /* \"#utility.yul\":16374:16376   */\n      0x15\n        /* \"#utility.yul\":16354:16372   */\n      0x24\n      dup3\n      add\n        /* \"#utility.yul\":16347:16377   */\n      mstore\n        /* \"#utility.yul\":16413:16436   */\n      0x4e6f74206f776e6572206f7220617070726f7665640000000000000000000000\n        /* \"#utility.yul\":16393:16411   */\n      0x44\n      dup3\n      add\n        /* \"#utility.yul\":16386:16437   */\n      mstore\n        /* \"#utility.yul\":16454:16472   */\n      0x64\n      add\n        /* \"ProducerProtocolOptimism.sol\":1574:1681  require(... */\n      tag_238\n        /* \"#utility.yul\":16133:16478   */\n      jump\n        /* \"ProducerProtocolOptimism.sol\":1574:1681  require(... */\n    tag_357:\n        /* \"ProducerProtocolOptimism.sol\":1700:1714  _burn(tokenId) */\n      tag_360\n        /* \"ProducerProtocolOptimism.sol\":1706:1713  tokenId */\n      dup3\n        /* \"ProducerProtocolOptimism.sol\":1700:1705  _burn */\n      tag_361\n        /* \"ProducerProtocolOptimism.sol\":1700:1714  _burn(tokenId) */\n      jump\t// in\n    tag_360:\n        /* \"ProducerProtocolOptimism.sol\":1729:1766  TokenBridgedOut(tokenId, l1Recipient) */\n      mload(0x40)\n      sub(shl(0xa0, 0x01), 0x01)\n      dup3\n      and\n      swap1\n        /* \"ProducerProtocolOptimism.sol\":1745:1752  tokenId */\n      dup4\n      swap1\n        /* \"ProducerProtocolOptimism.sol\":1729:1766  TokenBridgedOut(tokenId, l1Recipient) */\n      0xd5df47bfe7b82577bf15be85e7a913251185a6f2d19b35211f8e2c060c995f05\n      swap1\n      0x00\n      swap1\n      log3\n        /* \"ProducerProtocolOptimism.sol\":1800:1931  abi.encodeWithSignature(... */\n      mload(0x40)\n      0x24\n      dup2\n      add\n        /* \"#utility.yul\":16657:16682   */\n      dup4\n      swap1\n      mstore\n      sub(shl(0xa0, 0x01), 0x01)\n        /* \"#utility.yul\":16718:16773   */\n      dup3\n      and\n        /* \"#utility.yul\":16698:16716   */\n      0x44\n      dup3\n      add\n        /* \"#utility.yul\":16691:16774   */\n      mstore\n        /* \"ProducerProtocolOptimism.sol\":1777:1797  bytes memory message */\n      0x00\n      swap1\n        /* \"#utility.yul\":16630:16648   */\n      0x64\n      add\n        /* \"ProducerProtocolOptimism.sol\":1800:1931  abi.encodeWithSignature(... */\n      0x40\n      dup1\n      mload\n      not(0x1f)\n      dup2\n      dup5\n      sub\n      add\n      dup2\n      mstore\n      swap2\n      dup2\n      mstore\n      0x20\n      dup3\n      add\n      dup1\n      mload\n      0xffffffffffffffffffffffffffffffffffffffffffffffffffffffff\n      and\n      shl(0xe1, 0x04343bf9)\n      or\n      swap1\n      mstore\n        /* \"ProducerProtocolOptimism.sol\":1950:2088  ICrossDomainMessenger(crossDomainMessenger).sendMessage(... */\n      mload\n      shl(0xe0, 0x3dbb202b)\n      dup2\n      mstore\n        /* \"ProducerProtocolOptimism.sol\":1800:1931  abi.encodeWithSignature(... */\n      swap1\n      swap2\n      pop\n      sub(shl(0xa0, 0x01), 0x01)\n        /* \"ProducerProtocolOptimism.sol\":1972:1992  crossDomainMessenger */\n      immutable(\"0x9560168699514dcd528543d614e81b4f36adf182dc624d2f1eb91df8addd987e\")\n        /* \"ProducerProtocolOptimism.sol\":1950:2005  ICrossDomainMessenger(crossDomainMessenger).sendMessage */\n      and\n      swap1\n      0x3dbb202b\n      swap1\n        /* \"ProducerProtocolOptimism.sol\":1950:2088  ICrossDomainMessenger(crossDomainMessenger).sendMessage(... */\n      tag_364\n      swap1\n        /* \"ProducerProtocolOptimism.sol\":2019:2029  l1Contract */\n      immutable(\"0xbbf5a24880b10a5f9f601c4058e4771ddea17e7d765ceb3c903814e1c0d621e0\")\n      swap1\n        /* \"ProducerProtocolOptimism.sol\":1800:1931  abi.encodeWithSignature(... */\n      dup6\n      swap1\n        /* \"ProducerProtocolOptimism.sol\":329:338  1_000_000 */\n      0x0f4240\n      swap1\n        /* \"ProducerProtocolOptimism.sol\":1950:2088  ICrossDomainMessenger(crossDomainMessenger).sendMessage(... */\n      0x04\n      add\n      tag_365\n      jump\t// in\n    tag_364:\n      0x00\n      mload(0x40)\n      dup1\n      dup4\n      sub\n      dup2\n      0x00\n      dup8\n      dup1\n      extcodesize\n      iszero\n      dup1\n      iszero\n      tag_366\n      jumpi\n      0x00\n      dup1\n      revert\n    tag_366:\n      pop\n      gas\n      call\n      iszero\n      dup1\n      iszero\n      tag_368\n      jumpi\n      returndatasize\n      0x00\n      dup1\n      returndatacopy\n      revert(0x00, returndatasize)\n    tag_368:\n      pop\n      pop\n      pop\n      pop\n        /* \"ProducerProtocolOptimism.sol\":1564:2095  {... */\n      pop\n        /* \"ProducerProtocolOptimism.sol\":1475:2095  function bridgeOut(... */\n      pop\n      pop\n      jump\t// out\n        /* \"@thirdweb-dev/contracts/eip/ERC721AVirtualApprove.sol\":3370:3573   */\n    tag_153:\n        /* \"@thirdweb-dev/contracts/eip/ERC721AVirtualApprove.sol\":3434:3441   */\n      0x00\n      sub(shl(0xa0, 0x01), 0x01)\n        /* \"@thirdweb-dev/contracts/eip/ERC721AVirtualApprove.sol\":3457:3476   */\n      dup3\n      and\n        /* \"@thirdweb-dev/contracts/eip/ERC721AVirtualApprove.sol\":3453:3513   */\n      tag_370\n      jumpi\n        /* \"@thirdweb-dev/contracts/eip/ERC721AVirtualApprove.sol\":3485:3513   */\n      mload(0x40)\n      shl(0xe2, 0x23d3ad81)\n      dup2\n      mstore\n      0x04\n      add\n      mload(0x40)\n      dup1\n      swap2\n      sub\n      swap1\n      revert\n        /* \"@thirdweb-dev/contracts/eip/ERC721AVirtualApprove.sol\":3453:3513   */\n    tag_370:\n      pop\n      sub(shl(0xa0, 0x01), 0x01)\n        /* \"@thirdweb-dev/contracts/eip/ERC721AVirtualApprove.sol\":3538:3557   */\n      and\n      0x00\n      swap1\n      dup2\n      mstore\n        /* \"@thirdweb-dev/contracts/eip/ERC721AVirtualApprove.sol\":3538:3550   */\n      0x05\n        /* \"@thirdweb-dev/contracts/eip/ERC721AVirtualApprove.sol\":3538:3557   */\n      0x20\n      mstore\n      0x40\n      swap1\n      keccak256\n        /* \"@thirdweb-dev/contracts/eip/ERC721AVirtualApprove.sol\":3538:3565   */\n      sload\n      0xffffffffffffffff\n      and\n      swap1\n        /* \"@thirdweb-dev/contracts/eip/ERC721AVirtualApprove.sol\":3370:3573   */\n      jump\t// out\n        /* \"@thirdweb-dev/contracts/base/ERC721Base.sol\":5232:5519   */\n    tag_158:\n        /* \"@thirdweb-dev/contracts/base/ERC721Base.sol\":5362:5372   */\n      tag_372\n        /* \"@thirdweb-dev/contracts/base/ERC721Base.sol\":5362:5370   */\n      tag_236\n        /* \"@thirdweb-dev/contracts/base/ERC721Base.sol\":5362:5372   */\n      jump\t// in\n    tag_372:\n        /* \"@thirdweb-dev/contracts/base/ERC721Base.sol\":5354:5400   */\n      tag_373\n      jumpi\n      mload(0x40)\n      shl(0xe5, 0x461bcd)\n      dup2\n      mstore\n        /* \"#utility.yul\":13602:13604   */\n      0x20\n        /* \"@thirdweb-dev/contracts/base/ERC721Base.sol\":5354:5400   */\n      0x04\n      dup3\n      add\n        /* \"#utility.yul\":13584:13605   */\n      mstore\n        /* \"#utility.yul\":13641:13643   */\n      0x17\n        /* \"#utility.yul\":13621:13639   */\n      0x24\n      dup3\n      add\n        /* \"#utility.yul\":13614:13644   */\n      mstore\n        /* \"#utility.yul\":13680:13705   */\n      0x4e6f7420617574686f72697a656420746f206d696e742e000000000000000000\n        /* \"#utility.yul\":13660:13678   */\n      0x44\n      dup3\n      add\n        /* \"#utility.yul\":13653:13706   */\n      mstore\n        /* \"#utility.yul\":13723:13741   */\n      0x64\n      add\n        /* \"@thirdweb-dev/contracts/base/ERC721Base.sol\":5354:5400   */\n      tag_238\n        /* \"#utility.yul\":13400:13747   */\n      jump\n        /* \"@thirdweb-dev/contracts/base/ERC721Base.sol\":5354:5400   */\n    tag_373:\n        /* \"@thirdweb-dev/contracts/base/ERC721Base.sol\":5410:5470   */\n      tag_375\n        /* \"@thirdweb-dev/contracts/base/ERC721Base.sol\":5429:5448   */\n      tag_376\n        /* \"@thirdweb-dev/contracts/base/ERC721Base.sol\":6193:6200   */\n      0x00\n        /* \"@thirdweb-dev/contracts/base/ERC721Base.sol\":6219:6232   */\n      sload\n      swap1\n        /* \"@thirdweb-dev/contracts/base/ERC721Base.sol\":6135:6239   */\n      jump\n        /* \"@thirdweb-dev/contracts/base/ERC721Base.sol\":5429:5448   */\n    tag_376:\n        /* \"@thirdweb-dev/contracts/base/ERC721Base.sol\":5450:5459   */\n      dup5\n        /* \"@thirdweb-dev/contracts/base/ERC721Base.sol\":5461:5469   */\n      dup5\n        /* \"@thirdweb-dev/contracts/base/ERC721Base.sol\":5410:5428   */\n      tag_377\n        /* \"@thirdweb-dev/contracts/base/ERC721Base.sol\":5410:5470   */\n      jump\t// in\n    tag_375:\n      pop\n      pop\n        /* \"@thirdweb-dev/contracts/base/ERC721Base.sol\":5480:5512   */\n      tag_378\n        /* \"@thirdweb-dev/contracts/base/ERC721Base.sol\":5490:5493   */\n      dup5\n        /* \"@thirdweb-dev/contracts/base/ERC721Base.sol\":5495:5504   */\n      dup5\n        /* \"@thirdweb-dev/contracts/base/ERC721Base.sol\":5506:5511   */\n      dup4\n        /* \"@thirdweb-dev/contracts/base/ERC721Base.sol\":5480:5489   */\n      tag_244\n        /* \"@thirdweb-dev/contracts/base/ERC721Base.sol\":5480:5512   */\n      jump\t// in\n    tag_378:\n        /* \"@thirdweb-dev/contracts/base/ERC721Base.sol\":5232:5519   */\n      pop\n      pop\n      pop\n      pop\n      jump\t// out\n        /* \"@thirdweb-dev/contracts/eip/queryable/ERC721AQueryable.sol\":5285:6155   */\n    tag_168:\n        /* \"@thirdweb-dev/contracts/eip/queryable/ERC721AQueryable.sol\":5355:5371   */\n      0x60\n        /* \"@thirdweb-dev/contracts/eip/queryable/ERC721AQueryable.sol\":5407:5426   */\n      0x00\n        /* \"@thirdweb-dev/contracts/eip/queryable/ERC721AQueryable.sol\":5440:5465   */\n      dup1\n        /* \"@thirdweb-dev/contracts/eip/queryable/ERC721AQueryable.sol\":5479:5501   */\n      0x00\n        /* \"@thirdweb-dev/contracts/eip/queryable/ERC721AQueryable.sol\":5504:5520   */\n      tag_380\n        /* \"@thirdweb-dev/contracts/eip/queryable/ERC721AQueryable.sol\":5514:5519   */\n      dup6\n        /* \"@thirdweb-dev/contracts/eip/queryable/ERC721AQueryable.sol\":5504:5513   */\n      tag_153\n        /* \"@thirdweb-dev/contracts/eip/queryable/ERC721AQueryable.sol\":5504:5520   */\n      jump\t// in\n    tag_380:\n        /* \"@thirdweb-dev/contracts/eip/queryable/ERC721AQueryable.sol\":5479:5520   */\n      swap1\n      pop\n        /* \"@thirdweb-dev/contracts/eip/queryable/ERC721AQueryable.sol\":5534:5559   */\n      0x00\n        /* \"@thirdweb-dev/contracts/eip/queryable/ERC721AQueryable.sol\":5576:5590   */\n      dup2\n        /* \"@thirdweb-dev/contracts/eip/queryable/ERC721AQueryable.sol\":5562:5591   */\n      0xffffffffffffffff\n      dup2\n      gt\n      iszero\n      tag_382\n      jumpi\n      tag_382\n      tag_332\n      jump\t// in\n    tag_382:\n      mload(0x40)\n      swap1\n      dup1\n      dup3\n      mstore\n      dup1\n      0x20\n      mul\n      0x20\n      add\n      dup3\n      add\n      0x40\n      mstore\n      dup1\n      iszero\n      tag_383\n      jumpi\n      dup2\n      0x20\n      add\n      0x20\n      dup3\n      mul\n      dup1\n      calldatasize\n      dup4\n      calldatacopy\n      add\n      swap1\n      pop\n    tag_383:\n      pop\n      0x40\n      dup1\n      mload\n      0x60\n      dup2\n      add\n      dup3\n      mstore\n      0x00\n      dup1\n      dup3\n      mstore\n      0x20\n      dup3\n      add\n      dup2\n      swap1\n      mstore\n      swap2\n      dup2\n      add\n      dup3\n      swap1\n      mstore\n        /* \"@thirdweb-dev/contracts/eip/queryable/ERC721AQueryable.sol\":5534:5591   */\n      swap2\n      swap3\n      pop\n        /* \"@thirdweb-dev/contracts/eip/queryable/ERC721AQueryable.sol\":5650:6110   */\n    tag_385:\n        /* \"@thirdweb-dev/contracts/eip/queryable/ERC721AQueryable.sol\":5699:5713   */\n      dup4\n        /* \"@thirdweb-dev/contracts/eip/queryable/ERC721AQueryable.sol\":5684:5695   */\n      dup7\n        /* \"@thirdweb-dev/contracts/eip/queryable/ERC721AQueryable.sol\":5684:5713   */\n      eq\n        /* \"@thirdweb-dev/contracts/eip/queryable/ERC721AQueryable.sol\":5650:6110   */\n      tag_386\n      jumpi\n        /* \"@thirdweb-dev/contracts/eip/queryable/ERC721AQueryable.sol\":5750:5764   */\n      0x00\n      dup2\n      dup2\n      mstore\n        /* \"@thirdweb-dev/contracts/eip/queryable/ERC721AQueryable.sol\":5750:5761   */\n      0x04\n        /* \"@thirdweb-dev/contracts/eip/queryable/ERC721AQueryable.sol\":5750:5764   */\n      0x20\n      swap1\n      dup2\n      mstore\n      0x40\n      swap2\n      dup3\n      swap1\n      keccak256\n        /* \"@thirdweb-dev/contracts/eip/queryable/ERC721AQueryable.sol\":5738:5764   */\n      dup3\n      mload\n      0x60\n      dup2\n      add\n      dup5\n      mstore\n      swap1\n      sload\n      sub(shl(0xa0, 0x01), 0x01)\n      dup2\n      and\n      dup3\n      mstore\n      shl(0xa0, 0x01)\n      dup2\n      div\n      0xffffffffffffffff\n      and\n      swap3\n      dup3\n      add\n      swap3\n      swap1\n      swap3\n      mstore\n      shl(0xe0, 0x01)\n      swap1\n      swap2\n      div\n      0xff\n      and\n      iszero\n      iszero\n      swap2\n      dup2\n      add\n      dup3\n      swap1\n      mstore\n      swap3\n      pop\n        /* \"@thirdweb-dev/contracts/eip/queryable/ERC721AQueryable.sol\":5826:5834   */\n      tag_391\n        /* \"@thirdweb-dev/contracts/eip/queryable/ERC721AQueryable.sol\":5782:5853   */\n      jumpi\n        /* \"@thirdweb-dev/contracts/eip/queryable/ERC721AQueryable.sol\":5874:5888   */\n      dup2\n      mload\n      sub(shl(0xa0, 0x01), 0x01)\n        /* \"@thirdweb-dev/contracts/eip/queryable/ERC721AQueryable.sol\":5874:5902   */\n      and\n      iszero\n        /* \"@thirdweb-dev/contracts/eip/queryable/ERC721AQueryable.sol\":5870:5979   */\n      tag_390\n      jumpi\n        /* \"@thirdweb-dev/contracts/eip/queryable/ERC721AQueryable.sol\":5946:5960   */\n      dup2\n      mload\n      swap5\n      pop\n        /* \"@thirdweb-dev/contracts/eip/queryable/ERC721AQueryable.sol\":5870:5979   */\n    tag_390:\n        /* \"@thirdweb-dev/contracts/eip/queryable/ERC721AQueryable.sol\":6021:6026   */\n      dup8\n      sub(shl(0xa0, 0x01), 0x01)\n        /* \"@thirdweb-dev/contracts/eip/queryable/ERC721AQueryable.sol\":6000:6026   */\n      and\n        /* \"@thirdweb-dev/contracts/eip/queryable/ERC721AQueryable.sol\":6000:6017   */\n      dup6\n      sub(shl(0xa0, 0x01), 0x01)\n        /* \"@thirdweb-dev/contracts/eip/queryable/ERC721AQueryable.sol\":6000:6026   */\n      and\n      sub\n        /* \"@thirdweb-dev/contracts/eip/queryable/ERC721AQueryable.sol\":5996:6096   */\n      tag_391\n      jumpi\n        /* \"@thirdweb-dev/contracts/eip/queryable/ERC721AQueryable.sol\":6076:6077   */\n      dup1\n        /* \"@thirdweb-dev/contracts/eip/queryable/ERC721AQueryable.sol\":6050:6058   */\n      dup4\n        /* \"@thirdweb-dev/contracts/eip/queryable/ERC721AQueryable.sol\":6059:6072   */\n      dup8\n      dup1\n      0x01\n      add\n      swap9\n      pop\n        /* \"@thirdweb-dev/contracts/eip/queryable/ERC721AQueryable.sol\":6050:6073   */\n      dup2\n      mload\n      dup2\n      lt\n      tag_393\n      jumpi\n      tag_393\n      tag_306\n      jump\t// in\n    tag_393:\n      0x20\n      mul\n      0x20\n      add\n      add\n        /* \"@thirdweb-dev/contracts/eip/queryable/ERC721AQueryable.sol\":6050:6077   */\n      dup2\n      dup2\n      mstore\n      pop\n      pop\n        /* \"@thirdweb-dev/contracts/eip/queryable/ERC721AQueryable.sol\":5996:6096   */\n    tag_391:\n        /* \"@thirdweb-dev/contracts/eip/queryable/ERC721AQueryable.sol\":5715:5718   */\n      0x01\n      add\n        /* \"@thirdweb-dev/contracts/eip/queryable/ERC721AQueryable.sol\":5650:6110   */\n      jump(tag_385)\n    tag_386:\n      pop\n        /* \"@thirdweb-dev/contracts/eip/queryable/ERC721AQueryable.sol\":6130:6138   */\n      swap1\n      swap7\n        /* \"@thirdweb-dev/contracts/eip/queryable/ERC721AQueryable.sol\":5285:6155   */\n      swap6\n      pop\n      pop\n      pop\n      pop\n      pop\n      pop\n      jump\t// out\n        /* \"@thirdweb-dev/contracts/extension/ContractMetadata.sol\":1110:1311   */\n    tag_177:\n        /* \"@thirdweb-dev/contracts/extension/ContractMetadata.sol\":1187:1207   */\n      tag_396\n        /* \"@thirdweb-dev/contracts/extension/ContractMetadata.sol\":1187:1205   */\n      tag_236\n        /* \"@thirdweb-dev/contracts/extension/ContractMetadata.sol\":1187:1207   */\n      jump\t// in\n    tag_396:\n        /* \"@thirdweb-dev/contracts/extension/ContractMetadata.sol\":1182:1271   */\n      tag_398\n      jumpi\n        /* \"@thirdweb-dev/contracts/extension/ContractMetadata.sol\":1230:1260   */\n      mload(0x40)\n      shl(0xe0, 0x9f7f0925)\n      dup2\n      mstore\n      0x04\n      add\n      mload(0x40)\n      dup1\n      swap2\n      sub\n      swap1\n      revert\n        /* \"@thirdweb-dev/contracts/extension/ContractMetadata.sol\":1182:1271   */\n    tag_398:\n        /* \"@thirdweb-dev/contracts/extension/ContractMetadata.sol\":1281:1304   */\n      tag_275\n        /* \"@thirdweb-dev/contracts/extension/ContractMetadata.sol\":1299:1303   */\n      dup2\n        /* \"@thirdweb-dev/contracts/extension/ContractMetadata.sol\":1281:1298   */\n      tag_400\n        /* \"@thirdweb-dev/contracts/extension/ContractMetadata.sol\":1281:1304   */\n      jump\t// in\n        /* \"@thirdweb-dev/contracts/eip/ERC721AVirtualApprove.sol\":6291:6393   */\n    tag_179:\n        /* \"@thirdweb-dev/contracts/eip/ERC721AVirtualApprove.sol\":6347:6360   */\n      0x60\n        /* \"@thirdweb-dev/contracts/eip/ERC721AVirtualApprove.sol\":6379:6386   */\n      0x03\n        /* \"@thirdweb-dev/contracts/eip/ERC721AVirtualApprove.sol\":6372:6386   */\n      dup1\n      sload\n      tag_250\n      swap1\n      tag_251\n      jump\t// in\n        /* \"ProducerProtocolOptimism.sol\":2101:2231  function adminMint(address recipient) external onlyOwner {... */\n    tag_183:\n        /* \"@thirdweb-dev/contracts/extension/Ownable.sol\":822:828   */\n      and(sub(shl(0xa0, 0x01), 0x01), sload(0x09))\n        /* \"@thirdweb-dev/contracts/extension/Ownable.sol\":808:818   */\n      caller\n        /* \"@thirdweb-dev/contracts/extension/Ownable.sol\":808:828   */\n      eq\n        /* \"@thirdweb-dev/contracts/extension/Ownable.sol\":804:883   */\n      tag_408\n      jumpi\n        /* \"@thirdweb-dev/contracts/extension/Ownable.sol\":851:872   */\n      mload(0x40)\n      shl(0xe1, 0x16ccb9cb)\n      dup2\n      mstore\n      0x04\n      add\n      mload(0x40)\n      dup1\n      swap2\n      sub\n      swap1\n      revert\n        /* \"@thirdweb-dev/contracts/extension/Ownable.sol\":804:883   */\n    tag_408:\n        /* \"ProducerProtocolOptimism.sol\":2168:2201  _safeMint(recipient, nextTokenId) */\n      tag_410\n        /* \"ProducerProtocolOptimism.sol\":2178:2187  recipient */\n      dup2\n        /* \"ProducerProtocolOptimism.sol\":2189:2200  nextTokenId */\n      sload(0x10)\n        /* \"ProducerProtocolOptimism.sol\":2168:2177  _safeMint */\n      tag_296\n        /* \"ProducerProtocolOptimism.sol\":2168:2201  _safeMint(recipient, nextTokenId) */\n      jump\t// in\n    tag_410:\n        /* \"ProducerProtocolOptimism.sol\":2211:2222  nextTokenId */\n      0x10\n        /* \"ProducerProtocolOptimism.sol\":2211:2224  nextTokenId++ */\n      dup1\n      sload\n      swap1\n        /* \"ProducerProtocolOptimism.sol\":2211:2222  nextTokenId */\n      0x00\n        /* \"ProducerProtocolOptimism.sol\":2211:2224  nextTokenId++ */\n      tag_411\n      dup4\n      tag_412\n      jump\t// in\n    tag_411:\n      swap2\n      swap1\n      pop\n      sstore\n      pop\n        /* \"ProducerProtocolOptimism.sol\":2101:2231  function adminMint(address recipient) external onlyOwner {... */\n      pop\n      jump\t// out\n        /* \"@thirdweb-dev/contracts/eip/queryable/ERC721AQueryable.sol\":2374:4822   */\n    tag_187:\n        /* \"@thirdweb-dev/contracts/eip/queryable/ERC721AQueryable.sol\":2505:2521   */\n      0x60\n        /* \"@thirdweb-dev/contracts/eip/queryable/ERC721AQueryable.sol\":2570:2574   */\n      dup2\n        /* \"@thirdweb-dev/contracts/eip/queryable/ERC721AQueryable.sol\":2561:2566   */\n      dup4\n        /* \"@thirdweb-dev/contracts/eip/queryable/ERC721AQueryable.sol\":2561:2574   */\n      lt\n        /* \"@thirdweb-dev/contracts/eip/queryable/ERC721AQueryable.sol\":2557:2602   */\n      tag_414\n      jumpi\n        /* \"@thirdweb-dev/contracts/eip/queryable/ERC721AQueryable.sol\":2583:2602   */\n      mload(0x40)\n      shl(0xe1, 0x1960ccad)\n      dup2\n      mstore\n      0x04\n      add\n      mload(0x40)\n      dup1\n      swap2\n      sub\n      swap1\n      revert\n        /* \"@thirdweb-dev/contracts/eip/queryable/ERC721AQueryable.sol\":2557:2602   */\n    tag_414:\n        /* \"@thirdweb-dev/contracts/eip/queryable/ERC721AQueryable.sol\":2616:2635   */\n      0x00\n        /* \"@thirdweb-dev/contracts/eip/queryable/ERC721AQueryable.sol\":2669:2682   */\n      dup1\n      sload\n        /* \"@thirdweb-dev/contracts/eip/queryable/ERC721AQueryable.sol\":2917:2926   */\n      dup1\n        /* \"@thirdweb-dev/contracts/eip/queryable/ERC721AQueryable.sol\":2910:2914   */\n      dup5\n        /* \"@thirdweb-dev/contracts/eip/queryable/ERC721AQueryable.sol\":2910:2926   */\n      gt\n        /* \"@thirdweb-dev/contracts/eip/queryable/ERC721AQueryable.sol\":2906:2977   */\n      iszero\n      tag_418\n      jumpi\n        /* \"@thirdweb-dev/contracts/eip/queryable/ERC721AQueryable.sol\":2953:2962   */\n      dup1\n        /* \"@thirdweb-dev/contracts/eip/queryable/ERC721AQueryable.sol\":2946:2962   */\n      swap4\n      pop\n        /* \"@thirdweb-dev/contracts/eip/queryable/ERC721AQueryable.sol\":2906:2977   */\n    tag_418:\n        /* \"@thirdweb-dev/contracts/eip/queryable/ERC721AQueryable.sol\":2990:3015   */\n      0x00\n        /* \"@thirdweb-dev/contracts/eip/queryable/ERC721AQueryable.sol\":3018:3034   */\n      tag_419\n        /* \"@thirdweb-dev/contracts/eip/queryable/ERC721AQueryable.sol\":3028:3033   */\n      dup8\n        /* \"@thirdweb-dev/contracts/eip/queryable/ERC721AQueryable.sol\":3018:3027   */\n      tag_153\n        /* \"@thirdweb-dev/contracts/eip/queryable/ERC721AQueryable.sol\":3018:3034   */\n      jump\t// in\n    tag_419:\n        /* \"@thirdweb-dev/contracts/eip/queryable/ERC721AQueryable.sol\":2990:3034   */\n      swap1\n      pop\n        /* \"@thirdweb-dev/contracts/eip/queryable/ERC721AQueryable.sol\":3209:3213   */\n      dup5\n        /* \"@thirdweb-dev/contracts/eip/queryable/ERC721AQueryable.sol\":3201:3206   */\n      dup7\n        /* \"@thirdweb-dev/contracts/eip/queryable/ERC721AQueryable.sol\":3201:3213   */\n      lt\n        /* \"@thirdweb-dev/contracts/eip/queryable/ERC721AQueryable.sol\":3197:3468   */\n      iszero\n      tag_420\n      jumpi\n        /* \"@thirdweb-dev/contracts/eip/queryable/ERC721AQueryable.sol\":3255:3267   */\n      dup6\n      dup6\n      sub\n        /* \"@thirdweb-dev/contracts/eip/queryable/ERC721AQueryable.sol\":3289:3320   */\n      dup2\n      dup2\n      lt\n        /* \"@thirdweb-dev/contracts/eip/queryable/ERC721AQueryable.sol\":3285:3394   */\n      iszero\n      tag_421\n      jumpi\n        /* \"@thirdweb-dev/contracts/eip/queryable/ERC721AQueryable.sol\":3364:3375   */\n      dup1\n        /* \"@thirdweb-dev/contracts/eip/queryable/ERC721AQueryable.sol\":3344:3375   */\n      swap2\n      pop\n        /* \"@thirdweb-dev/contracts/eip/queryable/ERC721AQueryable.sol\":3285:3394   */\n    tag_421:\n        /* \"@thirdweb-dev/contracts/eip/queryable/ERC721AQueryable.sol\":3215:3408   */\n      pop\n        /* \"@thirdweb-dev/contracts/eip/queryable/ERC721AQueryable.sol\":3197:3468   */\n      jump(tag_422)\n    tag_420:\n      pop\n        /* \"@thirdweb-dev/contracts/eip/queryable/ERC721AQueryable.sol\":3452:3453   */\n      0x00\n        /* \"@thirdweb-dev/contracts/eip/queryable/ERC721AQueryable.sol\":3197:3468   */\n    tag_422:\n        /* \"@thirdweb-dev/contracts/eip/queryable/ERC721AQueryable.sol\":3481:3506   */\n      0x00\n        /* \"@thirdweb-dev/contracts/eip/queryable/ERC721AQueryable.sol\":3523:3540   */\n      dup2\n        /* \"@thirdweb-dev/contracts/eip/queryable/ERC721AQueryable.sol\":3509:3541   */\n      0xffffffffffffffff\n      dup2\n      gt\n      iszero\n      tag_424\n      jumpi\n      tag_424\n      tag_332\n      jump\t// in\n    tag_424:\n      mload(0x40)\n      swap1\n      dup1\n      dup3\n      mstore\n      dup1\n      0x20\n      mul\n      0x20\n      add\n      dup3\n      add\n      0x40\n      mstore\n      dup1\n      iszero\n      tag_425\n      jumpi\n      dup2\n      0x20\n      add\n      0x20\n      dup3\n      mul\n      dup1\n      calldatasize\n      dup4\n      calldatacopy\n      add\n      swap1\n      pop\n    tag_425:\n      pop\n        /* \"@thirdweb-dev/contracts/eip/queryable/ERC721AQueryable.sol\":3481:3541   */\n      swap1\n      pop\n        /* \"@thirdweb-dev/contracts/eip/queryable/ERC721AQueryable.sol\":3559:3576   */\n      dup2\n        /* \"@thirdweb-dev/contracts/eip/queryable/ERC721AQueryable.sol\":3580:3581   */\n      0x00\n        /* \"@thirdweb-dev/contracts/eip/queryable/ERC721AQueryable.sol\":3559:3581   */\n      sub\n        /* \"@thirdweb-dev/contracts/eip/queryable/ERC721AQueryable.sol\":3555:3631   */\n      tag_426\n      jumpi\n        /* \"@thirdweb-dev/contracts/eip/queryable/ERC721AQueryable.sol\":3608:3616   */\n      swap4\n      pop\n        /* \"@thirdweb-dev/contracts/eip/queryable/ERC721AQueryable.sol\":3601:3616   */\n      tag_413\n      swap3\n      pop\n      pop\n      pop\n      jump\n        /* \"@thirdweb-dev/contracts/eip/queryable/ERC721AQueryable.sol\":3555:3631   */\n    tag_426:\n        /* \"@thirdweb-dev/contracts/eip/queryable/ERC721AQueryable.sol\":3772:3803   */\n      0x00\n        /* \"@thirdweb-dev/contracts/eip/queryable/ERC721AQueryable.sol\":3806:3832   */\n      tag_427\n        /* \"@thirdweb-dev/contracts/eip/queryable/ERC721AQueryable.sol\":3826:3831   */\n      dup9\n        /* \"@thirdweb-dev/contracts/eip/queryable/ERC721AQueryable.sol\":3806:3825   */\n      tag_216\n        /* \"@thirdweb-dev/contracts/eip/queryable/ERC721AQueryable.sol\":3806:3832   */\n      jump\t// in\n    tag_427:\n        /* \"@thirdweb-dev/contracts/eip/queryable/ERC721AQueryable.sol\":3772:3832   */\n      swap1\n      pop\n        /* \"@thirdweb-dev/contracts/eip/queryable/ERC721AQueryable.sol\":3846:3871   */\n      0x00\n        /* \"@thirdweb-dev/contracts/eip/queryable/ERC721AQueryable.sol\":4088:4097   */\n      dup2\n        /* \"@thirdweb-dev/contracts/eip/queryable/ERC721AQueryable.sol\":4088:4104   */\n      0x40\n      add\n      mload\n        /* \"@thirdweb-dev/contracts/eip/queryable/ERC721AQueryable.sol\":4083:4173   */\n      tag_428\n      jumpi\n      pop\n        /* \"@thirdweb-dev/contracts/eip/queryable/ERC721AQueryable.sol\":4144:4158   */\n      dup1\n      mload\n        /* \"@thirdweb-dev/contracts/eip/queryable/ERC721AQueryable.sol\":4083:4173   */\n    tag_428:\n        /* \"@thirdweb-dev/contracts/eip/queryable/ERC721AQueryable.sol\":4203:4208   */\n      dup9\n        /* \"@thirdweb-dev/contracts/eip/queryable/ERC721AQueryable.sol\":4186:4652   */\n    tag_429:\n        /* \"@thirdweb-dev/contracts/eip/queryable/ERC721AQueryable.sol\":4215:4219   */\n      dup9\n        /* \"@thirdweb-dev/contracts/eip/queryable/ERC721AQueryable.sol\":4210:4211   */\n      dup2\n        /* \"@thirdweb-dev/contracts/eip/queryable/ERC721AQueryable.sol\":4210:4219   */\n      eq\n      iszero\n        /* \"@thirdweb-dev/contracts/eip/queryable/ERC721AQueryable.sol\":4210:4255   */\n      dup1\n      iszero\n      tag_432\n      jumpi\n      pop\n        /* \"@thirdweb-dev/contracts/eip/queryable/ERC721AQueryable.sol\":4238:4255   */\n      dup5\n        /* \"@thirdweb-dev/contracts/eip/queryable/ERC721AQueryable.sol\":4223:4234   */\n      dup8\n        /* \"@thirdweb-dev/contracts/eip/queryable/ERC721AQueryable.sol\":4223:4255   */\n      eq\n      iszero\n        /* \"@thirdweb-dev/contracts/eip/queryable/ERC721AQueryable.sol\":4210:4255   */\n    tag_432:\n        /* \"@thirdweb-dev/contracts/eip/queryable/ERC721AQueryable.sol\":4186:4652   */\n      iszero\n      tag_430\n      jumpi\n        /* \"@thirdweb-dev/contracts/eip/queryable/ERC721AQueryable.sol\":4292:4306   */\n      0x00\n      dup2\n      dup2\n      mstore\n        /* \"@thirdweb-dev/contracts/eip/queryable/ERC721AQueryable.sol\":4292:4303   */\n      0x04\n        /* \"@thirdweb-dev/contracts/eip/queryable/ERC721AQueryable.sol\":4292:4306   */\n      0x20\n      swap1\n      dup2\n      mstore\n      0x40\n      swap2\n      dup3\n      swap1\n      keccak256\n        /* \"@thirdweb-dev/contracts/eip/queryable/ERC721AQueryable.sol\":4280:4306   */\n      dup3\n      mload\n      0x60\n      dup2\n      add\n      dup5\n      mstore\n      swap1\n      sload\n      sub(shl(0xa0, 0x01), 0x01)\n      dup2\n      and\n      dup3\n      mstore\n      shl(0xa0, 0x01)\n      dup2\n      div\n      0xffffffffffffffff\n      and\n      swap3\n      dup3\n      add\n      swap3\n      swap1\n      swap3\n      mstore\n      shl(0xe0, 0x01)\n      swap1\n      swap2\n      div\n      0xff\n      and\n      iszero\n      iszero\n      swap2\n      dup2\n      add\n      dup3\n      swap1\n      mstore\n      swap4\n      pop\n        /* \"@thirdweb-dev/contracts/eip/queryable/ERC721AQueryable.sol\":4368:4376   */\n      tag_435\n        /* \"@thirdweb-dev/contracts/eip/queryable/ERC721AQueryable.sol\":4324:4395   */\n      jumpi\n        /* \"@thirdweb-dev/contracts/eip/queryable/ERC721AQueryable.sol\":4416:4430   */\n      dup3\n      mload\n      sub(shl(0xa0, 0x01), 0x01)\n        /* \"@thirdweb-dev/contracts/eip/queryable/ERC721AQueryable.sol\":4416:4444   */\n      and\n      iszero\n        /* \"@thirdweb-dev/contracts/eip/queryable/ERC721AQueryable.sol\":4412:4521   */\n      tag_434\n      jumpi\n        /* \"@thirdweb-dev/contracts/eip/queryable/ERC721AQueryable.sol\":4488:4502   */\n      dup3\n      mload\n      swap2\n      pop\n        /* \"@thirdweb-dev/contracts/eip/queryable/ERC721AQueryable.sol\":4412:4521   */\n    tag_434:\n        /* \"@thirdweb-dev/contracts/eip/queryable/ERC721AQueryable.sol\":4563:4568   */\n      dup11\n      sub(shl(0xa0, 0x01), 0x01)\n        /* \"@thirdweb-dev/contracts/eip/queryable/ERC721AQueryable.sol\":4542:4568   */\n      and\n        /* \"@thirdweb-dev/contracts/eip/queryable/ERC721AQueryable.sol\":4542:4559   */\n      dup3\n      sub(shl(0xa0, 0x01), 0x01)\n        /* \"@thirdweb-dev/contracts/eip/queryable/ERC721AQueryable.sol\":4542:4568   */\n      and\n      sub\n        /* \"@thirdweb-dev/contracts/eip/queryable/ERC721AQueryable.sol\":4538:4638   */\n      tag_435\n      jumpi\n        /* \"@thirdweb-dev/contracts/eip/queryable/ERC721AQueryable.sol\":4618:4619   */\n      dup1\n        /* \"@thirdweb-dev/contracts/eip/queryable/ERC721AQueryable.sol\":4592:4600   */\n      dup5\n        /* \"@thirdweb-dev/contracts/eip/queryable/ERC721AQueryable.sol\":4601:4614   */\n      dup9\n      dup1\n      0x01\n      add\n      swap10\n      pop\n        /* \"@thirdweb-dev/contracts/eip/queryable/ERC721AQueryable.sol\":4592:4615   */\n      dup2\n      mload\n      dup2\n      lt\n      tag_437\n      jumpi\n      tag_437\n      tag_306\n      jump\t// in\n    tag_437:\n      0x20\n      mul\n      0x20\n      add\n      add\n        /* \"@thirdweb-dev/contracts/eip/queryable/ERC721AQueryable.sol\":4592:4619   */\n      dup2\n      dup2\n      mstore\n      pop\n      pop\n        /* \"@thirdweb-dev/contracts/eip/queryable/ERC721AQueryable.sol\":4538:4638   */\n    tag_435:\n        /* \"@thirdweb-dev/contracts/eip/queryable/ERC721AQueryable.sol\":4257:4260   */\n      0x01\n      add\n        /* \"@thirdweb-dev/contracts/eip/queryable/ERC721AQueryable.sol\":4186:4652   */\n      jump(tag_429)\n    tag_430:\n      pop\n      pop\n      pop\n        /* \"@thirdweb-dev/contracts/eip/queryable/ERC721AQueryable.sol\":4734:4763   */\n      swap3\n      dup4\n      mstore\n      pop\n        /* \"@thirdweb-dev/contracts/eip/queryable/ERC721AQueryable.sol\":4741:4749   */\n      swap1\n      swap2\n      pop\n      pop\n        /* \"@thirdweb-dev/contracts/eip/queryable/ERC721AQueryable.sol\":2374:4822   */\n    tag_413:\n      swap4\n      swap3\n      pop\n      pop\n      pop\n      jump\t// out\n        /* \"@thirdweb-dev/contracts/extension/Royalty.sol\":4595:4857   */\n    tag_192:\n        /* \"@thirdweb-dev/contracts/extension/Royalty.sol\":4712:4732   */\n      tag_439\n        /* \"@thirdweb-dev/contracts/extension/Royalty.sol\":4712:4730   */\n      tag_236\n        /* \"@thirdweb-dev/contracts/extension/Royalty.sol\":4712:4732   */\n      jump\t// in\n    tag_439:\n        /* \"@thirdweb-dev/contracts/extension/Royalty.sol\":4707:4787   */\n      tag_440\n      jumpi\n        /* \"@thirdweb-dev/contracts/extension/Royalty.sol\":4755:4776   */\n      mload(0x40)\n      shl(0xe1, 0x6fae3581)\n      dup2\n      mstore\n      0x04\n      add\n      mload(0x40)\n      dup1\n      swap2\n      sub\n      swap1\n      revert\n        /* \"@thirdweb-dev/contracts/extension/Royalty.sol\":4707:4787   */\n    tag_440:\n        /* \"@thirdweb-dev/contracts/extension/Royalty.sol\":4797:4850   */\n      tag_269\n        /* \"@thirdweb-dev/contracts/extension/Royalty.sol\":4823:4831   */\n      dup4\n        /* \"@thirdweb-dev/contracts/extension/Royalty.sol\":4833:4843   */\n      dup4\n        /* \"@thirdweb-dev/contracts/extension/Royalty.sol\":4845:4849   */\n      dup4\n        /* \"@thirdweb-dev/contracts/extension/Royalty.sol\":4797:4822   */\n      tag_442\n        /* \"@thirdweb-dev/contracts/extension/Royalty.sol\":4797:4850   */\n      jump\t// in\n        /* \"@thirdweb-dev/contracts/eip/ERC721AVirtualApprove.sol\":7882:8164   */\n    tag_196:\n        /* \"@thirdweb-dev/contracts/base/ERC721Base.sol\":8521:8531   */\n      caller\n      sub(shl(0xa0, 0x01), 0x01)\n        /* \"@thirdweb-dev/contracts/eip/ERC721AVirtualApprove.sol\":7980:8004   */\n      dup4\n      and\n      sub\n        /* \"@thirdweb-dev/contracts/eip/ERC721AVirtualApprove.sol\":7976:8030   */\n      tag_445\n      jumpi\n        /* \"@thirdweb-dev/contracts/eip/ERC721AVirtualApprove.sol\":8013:8030   */\n      mload(0x40)\n      shl(0xe0, 0xb06307db)\n      dup2\n      mstore\n      0x04\n      add\n      mload(0x40)\n      dup1\n      swap2\n      sub\n      swap1\n      revert\n        /* \"@thirdweb-dev/contracts/eip/ERC721AVirtualApprove.sol\":7976:8030   */\n    tag_445:\n        /* \"@thirdweb-dev/contracts/base/ERC721Base.sol\":8521:8531   */\n      caller\n        /* \"@thirdweb-dev/contracts/eip/ERC721AVirtualApprove.sol\":8041:8073   */\n      0x00\n      dup2\n      dup2\n      mstore\n        /* \"@thirdweb-dev/contracts/eip/ERC721AVirtualApprove.sol\":8041:8059   */\n      0x07\n        /* \"@thirdweb-dev/contracts/eip/ERC721AVirtualApprove.sol\":8041:8073   */\n      0x20\n      swap1\n      dup2\n      mstore\n      0x40\n      dup1\n      dup4\n      keccak256\n      sub(shl(0xa0, 0x01), 0x01)\n        /* \"@thirdweb-dev/contracts/eip/ERC721AVirtualApprove.sol\":8041:8083   */\n      dup8\n      and\n      dup1\n      dup6\n      mstore\n      swap1\n      dup4\n      mstore\n      swap3\n      dup2\n      swap1\n      keccak256\n        /* \"@thirdweb-dev/contracts/eip/ERC721AVirtualApprove.sol\":8041:8094   */\n      dup1\n      sload\n      not(0xff)\n      and\n      dup7\n      iszero\n      iszero\n      swap1\n      dup2\n      or\n      swap1\n      swap2\n      sstore\n        /* \"@thirdweb-dev/contracts/eip/ERC721AVirtualApprove.sol\":8109:8157   */\n      swap1\n      mload\n        /* \"#utility.yul\":2109:2150   */\n      swap1\n      dup2\n      mstore\n        /* \"@thirdweb-dev/contracts/eip/ERC721AVirtualApprove.sol\":8041:8083   */\n      swap2\n      swap3\n        /* \"@thirdweb-dev/contracts/base/ERC721Base.sol\":8521:8531   */\n      swap2\n        /* \"@thirdweb-dev/contracts/eip/ERC721AVirtualApprove.sol\":8109:8157   */\n      0x17307eab39ab6107e8899845ad3d59bd9653f200f220920489ca2b5937696c31\n      swap2\n        /* \"#utility.yul\":2082:2100   */\n      add\n        /* \"@thirdweb-dev/contracts/eip/ERC721AVirtualApprove.sol\":8109:8157   */\n      mload(0x40)\n      dup1\n      swap2\n      sub\n      swap1\n      log3\n        /* \"@thirdweb-dev/contracts/eip/ERC721AVirtualApprove.sol\":7882:8164   */\n      pop\n      pop\n      jump\t// out\n        /* \"@thirdweb-dev/contracts/extension/Multicall.sol\":696:1263   */\n    tag_200:\n        /* \"@thirdweb-dev/contracts/extension/Multicall.sol\":756:778   */\n      0x60\n        /* \"@thirdweb-dev/contracts/extension/Multicall.sol\":812:816   */\n      dup2\n        /* \"@thirdweb-dev/contracts/extension/Multicall.sol\":800:824   */\n      0xffffffffffffffff\n      dup2\n      gt\n      iszero\n      tag_451\n      jumpi\n      tag_451\n      tag_332\n      jump\t// in\n    tag_451:\n      mload(0x40)\n      swap1\n      dup1\n      dup3\n      mstore\n      dup1\n      0x20\n      mul\n      0x20\n      add\n      dup3\n      add\n      0x40\n      mstore\n      dup1\n      iszero\n      tag_452\n      jumpi\n      dup2\n      0x20\n      add\n    tag_453:\n      0x60\n      dup2\n      mstore\n      0x20\n      add\n      swap1\n      0x01\n      swap1\n      sub\n      swap1\n      dup2\n      tag_453\n      jumpi\n      swap1\n      pop\n    tag_452:\n      pop\n        /* \"@thirdweb-dev/contracts/extension/Multicall.sol\":790:824   */\n      swap1\n      pop\n        /* \"@thirdweb-dev/contracts/base/ERC721Base.sol\":8521:8531   */\n      caller\n        /* \"@thirdweb-dev/contracts/extension/Multicall.sol\":834:848   */\n      0x00\n      dup1\n        /* \"@thirdweb-dev/contracts/extension/Multicall.sol\":922:1233   */\n    tag_455:\n        /* \"@thirdweb-dev/contracts/extension/Multicall.sol\":942:957   */\n      dup5\n      dup2\n      lt\n        /* \"@thirdweb-dev/contracts/extension/Multicall.sol\":922:1233   */\n      iszero\n      tag_456\n      jumpi\n        /* \"@thirdweb-dev/contracts/extension/Multicall.sol\":982:993   */\n      dup2\n        /* \"@thirdweb-dev/contracts/extension/Multicall.sol\":978:1223   */\n      iszero\n      tag_458\n      jumpi\n        /* \"@thirdweb-dev/contracts/extension/Multicall.sol\":1026:1104   */\n      tag_459\n        /* \"@thirdweb-dev/contracts/extension/Multicall.sol\":1063:1067   */\n      address\n        /* \"@thirdweb-dev/contracts/extension/Multicall.sol\":1087:1091   */\n      dup8\n      dup8\n        /* \"@thirdweb-dev/contracts/extension/Multicall.sol\":1092:1093   */\n      dup5\n        /* \"@thirdweb-dev/contracts/extension/Multicall.sol\":1087:1094   */\n      dup2\n      dup2\n      lt\n      tag_461\n      jumpi\n      tag_461\n      tag_306\n      jump\t// in\n    tag_461:\n      swap1\n      pop\n      0x20\n      mul\n      dup2\n      add\n      swap1\n      tag_462\n      swap2\n      swap1\n      tag_463\n      jump\t// in\n    tag_462:\n        /* \"@thirdweb-dev/contracts/extension/Multicall.sol\":1096:1102   */\n      dup7\n        /* \"@thirdweb-dev/contracts/extension/Multicall.sol\":1070:1103   */\n      add(0x20, mload(0x40))\n      tag_464\n      swap4\n      swap3\n      swap2\n      swap1\n      tag_465\n      jump\t// in\n    tag_464:\n      mload(0x40)\n      0x20\n      dup2\n      dup4\n      sub\n      sub\n      dup2\n      mstore\n      swap1\n      0x40\n      mstore\n        /* \"@thirdweb-dev/contracts/extension/Multicall.sol\":1026:1054   */\n      tag_466\n        /* \"@thirdweb-dev/contracts/extension/Multicall.sol\":1026:1104   */\n      jump\t// in\n    tag_459:\n        /* \"@thirdweb-dev/contracts/extension/Multicall.sol\":1013:1020   */\n      dup5\n        /* \"@thirdweb-dev/contracts/extension/Multicall.sol\":1021:1022   */\n      dup3\n        /* \"@thirdweb-dev/contracts/extension/Multicall.sol\":1013:1023   */\n      dup2\n      mload\n      dup2\n      lt\n      tag_468\n      jumpi\n      tag_468\n      tag_306\n      jump\t// in\n    tag_468:\n      0x20\n      mul\n      0x20\n      add\n      add\n        /* \"@thirdweb-dev/contracts/extension/Multicall.sol\":1013:1104   */\n      dup2\n      swap1\n      mstore\n      pop\n        /* \"@thirdweb-dev/contracts/extension/Multicall.sol\":978:1223   */\n      jump(tag_469)\n    tag_458:\n        /* \"@thirdweb-dev/contracts/extension/Multicall.sol\":1156:1208   */\n      tag_470\n        /* \"@thirdweb-dev/contracts/extension/Multicall.sol\":1193:1197   */\n      address\n        /* \"@thirdweb-dev/contracts/extension/Multicall.sol\":1200:1204   */\n      dup8\n      dup8\n        /* \"@thirdweb-dev/contracts/extension/Multicall.sol\":1205:1206   */\n      dup5\n        /* \"@thirdweb-dev/contracts/extension/Multicall.sol\":1200:1207   */\n      dup2\n      dup2\n      lt\n      tag_472\n      jumpi\n      tag_472\n      tag_306\n      jump\t// in\n    tag_472:\n      swap1\n      pop\n      0x20\n      mul\n      dup2\n      add\n      swap1\n      tag_473\n      swap2\n      swap1\n      tag_463\n      jump\t// in\n    tag_473:\n        /* \"@thirdweb-dev/contracts/extension/Multicall.sol\":1156:1208   */\n      dup1\n      dup1\n      0x1f\n      add\n      0x20\n      dup1\n      swap2\n      div\n      mul\n      0x20\n      add\n      mload(0x40)\n      swap1\n      dup2\n      add\n      0x40\n      mstore\n      dup1\n      swap4\n      swap3\n      swap2\n      swap1\n      dup2\n      dup2\n      mstore\n      0x20\n      add\n      dup4\n      dup4\n      dup1\n      dup3\n      dup5\n      calldatacopy\n      0x00\n      swap3\n      add\n      swap2\n      swap1\n      swap2\n      mstore\n      pop\n        /* \"@thirdweb-dev/contracts/extension/Multicall.sol\":1156:1184   */\n      tag_466\n      swap3\n      pop\n      pop\n      pop\n        /* \"@thirdweb-dev/contracts/extension/Multicall.sol\":1156:1208   */\n      jump\t// in\n    tag_470:\n        /* \"@thirdweb-dev/contracts/extension/Multicall.sol\":1143:1150   */\n      dup5\n        /* \"@thirdweb-dev/contracts/extension/Multicall.sol\":1151:1152   */\n      dup3\n        /* \"@thirdweb-dev/contracts/extension/Multicall.sol\":1143:1153   */\n      dup2\n      mload\n      dup2\n      lt\n      tag_475\n      jumpi\n      tag_475\n      tag_306\n      jump\t// in\n    tag_475:\n      0x20\n      mul\n      0x20\n      add\n      add\n        /* \"@thirdweb-dev/contracts/extension/Multicall.sol\":1143:1208   */\n      dup2\n      swap1\n      mstore\n      pop\n        /* \"@thirdweb-dev/contracts/extension/Multicall.sol\":978:1223   */\n    tag_469:\n        /* \"@thirdweb-dev/contracts/extension/Multicall.sol\":959:962   */\n      0x01\n      add\n        /* \"@thirdweb-dev/contracts/extension/Multicall.sol\":922:1233   */\n      jump(tag_455)\n    tag_456:\n      pop\n        /* \"@thirdweb-dev/contracts/extension/Multicall.sol\":1242:1256   */\n      pop\n      pop\n        /* \"@thirdweb-dev/contracts/extension/Multicall.sol\":696:1263   */\n      swap3\n      swap2\n      pop\n      pop\n      jump\t// out\n        /* \"@thirdweb-dev/contracts/eip/ERC721AVirtualApprove.sol\":8869:9212   */\n    tag_209:\n        /* \"@thirdweb-dev/contracts/eip/ERC721AVirtualApprove.sol\":8992:9020   */\n      tag_478\n        /* \"@thirdweb-dev/contracts/eip/ERC721AVirtualApprove.sol\":9002:9006   */\n      dup5\n        /* \"@thirdweb-dev/contracts/eip/ERC721AVirtualApprove.sol\":9008:9010   */\n      dup5\n        /* \"@thirdweb-dev/contracts/eip/ERC721AVirtualApprove.sol\":9012:9019   */\n      dup5\n        /* \"@thirdweb-dev/contracts/eip/ERC721AVirtualApprove.sol\":8992:9001   */\n      tag_299\n        /* \"@thirdweb-dev/contracts/eip/ERC721AVirtualApprove.sol\":8992:9020   */\n      jump\t// in\n    tag_478:\n      sub(shl(0xa0, 0x01), 0x01)\n        /* \"@thirdweb-dev/contracts/eip/ERC721AVirtualApprove.sol\":9034:9047   */\n      dup4\n      and\n        /* \"@thirdweb-dev/contracts/lib/Address.sol\":1695:1714   */\n      extcodesize\n        /* \"@thirdweb-dev/contracts/lib/Address.sol\":1695:1718   */\n      iszero\n        /* \"@thirdweb-dev/contracts/eip/ERC721AVirtualApprove.sol\":9030:9206   */\n      tag_378\n      jumpi\n        /* \"@thirdweb-dev/contracts/eip/ERC721AVirtualApprove.sol\":9068:9124   */\n      tag_482\n        /* \"@thirdweb-dev/contracts/eip/ERC721AVirtualApprove.sol\":9099:9103   */\n      dup5\n        /* \"@thirdweb-dev/contracts/eip/ERC721AVirtualApprove.sol\":9105:9107   */\n      dup5\n        /* \"@thirdweb-dev/contracts/eip/ERC721AVirtualApprove.sol\":9109:9116   */\n      dup5\n        /* \"@thirdweb-dev/contracts/eip/ERC721AVirtualApprove.sol\":9118:9123   */\n      dup5\n        /* \"@thirdweb-dev/contracts/eip/ERC721AVirtualApprove.sol\":9068:9098   */\n      tag_483\n        /* \"@thirdweb-dev/contracts/eip/ERC721AVirtualApprove.sol\":9068:9124   */\n      jump\t// in\n    tag_482:\n        /* \"@thirdweb-dev/contracts/eip/ERC721AVirtualApprove.sol\":9063:9206   */\n      tag_378\n      jumpi\n        /* \"@thirdweb-dev/contracts/eip/ERC721AVirtualApprove.sol\":9151:9191   */\n      mload(0x40)\n      shl(0xe1, 0x68d2bf6b)\n      dup2\n      mstore\n      0x04\n      add\n      mload(0x40)\n      dup1\n      swap2\n      sub\n      swap1\n      revert\n        /* \"@thirdweb-dev/contracts/eip/queryable/ERC721AQueryable.sol\":953:1361   */\n    tag_216:\n      0x40\n      dup1\n      mload\n      0x60\n      dup1\n      dup3\n      add\n      dup4\n      mstore\n      0x00\n      dup1\n      dup4\n      mstore\n      0x20\n      dup1\n      dup5\n      add\n      dup3\n      swap1\n      mstore\n      dup4\n      dup6\n      add\n      dup3\n      swap1\n      mstore\n      dup5\n      mload\n      swap3\n      dup4\n      add\n      dup6\n      mstore\n      dup2\n      dup4\n      mstore\n      dup3\n      add\n      dup2\n      swap1\n      mstore\n      swap3\n      dup2\n      add\n      dup4\n      swap1\n      mstore\n      swap1\n      swap2\n        /* \"@thirdweb-dev/contracts/eip/queryable/ERC721AQueryable.sol\":1107:1160   */\n      pop\n        /* \"@thirdweb-dev/contracts/eip/queryable/ERC721AQueryable.sol\":1147:1160   */\n      sload(0x00)\n        /* \"@thirdweb-dev/contracts/eip/queryable/ERC721AQueryable.sol\":1136:1143   */\n      dup4\n        /* \"@thirdweb-dev/contracts/eip/queryable/ERC721AQueryable.sol\":1136:1160   */\n      lt\n        /* \"@thirdweb-dev/contracts/eip/queryable/ERC721AQueryable.sol\":1103:1203   */\n      tag_490\n      jumpi\n        /* \"@thirdweb-dev/contracts/eip/queryable/ERC721AQueryable.sol\":1183:1192   */\n      swap3\n        /* \"@thirdweb-dev/contracts/eip/queryable/ERC721AQueryable.sol\":953:1361   */\n      swap2\n      pop\n      pop\n      jump\t// out\n        /* \"@thirdweb-dev/contracts/eip/queryable/ERC721AQueryable.sol\":1103:1203   */\n    tag_490:\n      pop\n        /* \"@thirdweb-dev/contracts/eip/queryable/ERC721AQueryable.sol\":1224:1244   */\n      0x00\n      dup3\n      dup2\n      mstore\n        /* \"@thirdweb-dev/contracts/eip/queryable/ERC721AQueryable.sol\":1224:1235   */\n      0x04\n        /* \"@thirdweb-dev/contracts/eip/queryable/ERC721AQueryable.sol\":1224:1244   */\n      0x20\n      swap1\n      dup2\n      mstore\n      0x40\n      swap2\n      dup3\n      swap1\n      keccak256\n        /* \"@thirdweb-dev/contracts/eip/queryable/ERC721AQueryable.sol\":1212:1244   */\n      dup3\n      mload\n      0x60\n      dup2\n      add\n      dup5\n      mstore\n      swap1\n      sload\n      sub(shl(0xa0, 0x01), 0x01)\n      dup2\n      and\n      dup3\n      mstore\n      shl(0xa0, 0x01)\n      dup2\n      div\n      0xffffffffffffffff\n      and\n      swap3\n      dup3\n      add\n      swap3\n      swap1\n      swap3\n      mstore\n      shl(0xe0, 0x01)\n      swap1\n      swap2\n      div\n      0xff\n      and\n      iszero\n      dup1\n      iszero\n      swap3\n      dup3\n      add\n      swap3\n      swap1\n      swap3\n      mstore\n      swap1\n        /* \"@thirdweb-dev/contracts/eip/queryable/ERC721AQueryable.sol\":1254:1317   */\n      tag_491\n      jumpi\n        /* \"@thirdweb-dev/contracts/eip/queryable/ERC721AQueryable.sol\":1297:1306   */\n      swap3\n        /* \"@thirdweb-dev/contracts/eip/queryable/ERC721AQueryable.sol\":953:1361   */\n      swap2\n      pop\n      pop\n      jump\t// out\n        /* \"@thirdweb-dev/contracts/eip/queryable/ERC721AQueryable.sol\":1254:1317   */\n    tag_491:\n        /* \"@thirdweb-dev/contracts/eip/queryable/ERC721AQueryable.sol\":1333:1354   */\n      tag_413\n        /* \"@thirdweb-dev/contracts/eip/queryable/ERC721AQueryable.sol\":1346:1353   */\n      dup4\n        /* \"@thirdweb-dev/contracts/eip/queryable/ERC721AQueryable.sol\":1333:1345   */\n      tag_353\n        /* \"@thirdweb-dev/contracts/eip/queryable/ERC721AQueryable.sol\":1333:1354   */\n      jump\t// in\n        /* \"@thirdweb-dev/contracts/base/ERC721Base.sol\":3513:3918   */\n    tag_221:\n        /* \"@thirdweb-dev/contracts/base/ERC721Base.sol\":3638:3667   */\n      0x00\n        /* \"@thirdweb-dev/contracts/base/ERC721Base.sol\":3670:3687   */\n      dup2\n      dup2\n      mstore\n        /* \"@thirdweb-dev/contracts/base/ERC721Base.sol\":3670:3677   */\n      0x0f\n        /* \"@thirdweb-dev/contracts/base/ERC721Base.sol\":3670:3687   */\n      0x20\n      mstore\n      0x40\n      dup2\n      keccak256\n        /* \"@thirdweb-dev/contracts/base/ERC721Base.sol\":3638:3687   */\n      dup1\n      sload\n        /* \"@thirdweb-dev/contracts/base/ERC721Base.sol\":3613:3626   */\n      0x60\n      swap3\n        /* \"@thirdweb-dev/contracts/base/ERC721Base.sol\":3638:3667   */\n      swap2\n        /* \"@thirdweb-dev/contracts/base/ERC721Base.sol\":3670:3687   */\n      swap1\n        /* \"@thirdweb-dev/contracts/base/ERC721Base.sol\":3638:3687   */\n      tag_494\n      swap1\n      tag_251\n      jump\t// in\n    tag_494:\n      dup1\n      0x1f\n      add\n      0x20\n      dup1\n      swap2\n      div\n      mul\n      0x20\n      add\n      mload(0x40)\n      swap1\n      dup2\n      add\n      0x40\n      mstore\n      dup1\n      swap3\n      swap2\n      swap1\n      dup2\n      dup2\n      mstore\n      0x20\n      add\n      dup3\n      dup1\n      sload\n      tag_495\n      swap1\n      tag_251\n      jump\t// in\n    tag_495:\n      dup1\n      iszero\n      tag_496\n      jumpi\n      dup1\n      0x1f\n      lt\n      tag_497\n      jumpi\n      0x0100\n      dup1\n      dup4\n      sload\n      div\n      mul\n      dup4\n      mstore\n      swap2\n      0x20\n      add\n      swap2\n      jump(tag_496)\n    tag_497:\n      dup3\n      add\n      swap2\n      swap1\n      0x00\n      mstore\n      keccak256(0x00, 0x20)\n      swap1\n    tag_498:\n      dup2\n      sload\n      dup2\n      mstore\n      swap1\n      0x01\n      add\n      swap1\n      0x20\n      add\n      dup1\n      dup4\n      gt\n      tag_498\n      jumpi\n      dup3\n      swap1\n      sub\n      0x1f\n      and\n      dup3\n      add\n      swap2\n    tag_496:\n      pop\n      pop\n      pop\n      pop\n      pop\n      swap1\n      pop\n        /* \"@thirdweb-dev/contracts/base/ERC721Base.sol\":3733:3734   */\n      0x00\n        /* \"@thirdweb-dev/contracts/base/ERC721Base.sol\":3707:3722   */\n      dup2\n        /* \"@thirdweb-dev/contracts/base/ERC721Base.sol\":3701:3730   */\n      mload\n        /* \"@thirdweb-dev/contracts/base/ERC721Base.sol\":3701:3734   */\n      gt\n        /* \"@thirdweb-dev/contracts/base/ERC721Base.sol\":3697:3783   */\n      iszero\n      tag_499\n      jumpi\n        /* \"@thirdweb-dev/contracts/base/ERC721Base.sol\":3757:3772   */\n      swap3\n        /* \"@thirdweb-dev/contracts/base/ERC721Base.sol\":3513:3918   */\n      swap2\n      pop\n      pop\n      jump\t// out\n        /* \"@thirdweb-dev/contracts/base/ERC721Base.sol\":3697:3783   */\n    tag_499:\n        /* \"@thirdweb-dev/contracts/base/ERC721Base.sol\":3793:3815   */\n      0x00\n        /* \"@thirdweb-dev/contracts/base/ERC721Base.sol\":3818:3839   */\n      tag_500\n        /* \"@thirdweb-dev/contracts/base/ERC721Base.sol\":3830:3838   */\n      dup5\n        /* \"@thirdweb-dev/contracts/base/ERC721Base.sol\":3818:3829   */\n      tag_501\n        /* \"@thirdweb-dev/contracts/base/ERC721Base.sol\":3818:3839   */\n      jump\t// in\n    tag_500:\n        /* \"@thirdweb-dev/contracts/base/ERC721Base.sol\":3793:3839   */\n      swap1\n      pop\n        /* \"@thirdweb-dev/contracts/base/ERC721Base.sol\":3880:3888   */\n      dup1\n        /* \"@thirdweb-dev/contracts/base/ERC721Base.sol\":3890:3909   */\n      tag_502\n        /* \"@thirdweb-dev/contracts/base/ERC721Base.sol\":3890:3898   */\n      dup6\n        /* \"@thirdweb-dev/contracts/base/ERC721Base.sol\":3890:3907   */\n      tag_503\n        /* \"@thirdweb-dev/contracts/base/ERC721Base.sol\":3890:3909   */\n      jump\t// in\n    tag_502:\n        /* \"@thirdweb-dev/contracts/base/ERC721Base.sol\":3863:3910   */\n      add(0x20, mload(0x40))\n      tag_504\n      swap3\n      swap2\n      swap1\n      tag_505\n      jump\t// in\n    tag_504:\n      mload(0x40)\n      0x20\n      dup2\n      dup4\n      sub\n      sub\n      dup2\n      mstore\n      swap1\n      0x40\n      mstore\n        /* \"@thirdweb-dev/contracts/base/ERC721Base.sol\":3849:3911   */\n      swap3\n      pop\n      pop\n      pop\n        /* \"@thirdweb-dev/contracts/base/ERC721Base.sol\":3513:3918   */\n      swap2\n      swap1\n      pop\n      jump\t// out\n        /* \"@thirdweb-dev/contracts/extension/ContractMetadata.sol\":672:706   */\n    tag_224:\n      0x08\n      dup1\n      sload\n      tag_506\n      swap1\n      tag_251\n      jump\t// in\n    tag_506:\n      dup1\n      0x1f\n      add\n      0x20\n      dup1\n      swap2\n      div\n      mul\n      0x20\n      add\n      mload(0x40)\n      swap1\n      dup2\n      add\n      0x40\n      mstore\n      dup1\n      swap3\n      swap2\n      swap1\n      dup2\n      dup2\n      mstore\n      0x20\n      add\n      dup3\n      dup1\n      sload\n      tag_507\n      swap1\n      tag_251\n      jump\t// in\n    tag_507:\n      dup1\n      iszero\n      tag_508\n      jumpi\n      dup1\n      0x1f\n      lt\n      tag_509\n      jumpi\n      0x0100\n      dup1\n      dup4\n      sload\n      div\n      mul\n      dup4\n      mstore\n      swap2\n      0x20\n      add\n      swap2\n      jump(tag_508)\n    tag_509:\n      dup3\n      add\n      swap2\n      swap1\n      0x00\n      mstore\n      keccak256(0x00, 0x20)\n      swap1\n    tag_510:\n      dup2\n      sload\n      dup2\n      mstore\n      swap1\n      0x01\n      add\n      swap1\n      0x20\n      add\n      dup1\n      dup4\n      gt\n      tag_510\n      jumpi\n      dup3\n      swap1\n      sub\n      0x1f\n      and\n      dup3\n      add\n      swap2\n    tag_508:\n      pop\n      pop\n      pop\n      pop\n      pop\n      dup2\n      jump\t// out\n        /* \"@thirdweb-dev/contracts/base/ERC721Base.sol\":7835:7937   */\n    tag_236:\n        /* \"@thirdweb-dev/contracts/base/ERC721Base.sol\":7886:7890   */\n      0x00\n        /* \"@thirdweb-dev/contracts/base/ERC721Base.sol\":7923:7930   */\n      tag_513\n        /* \"@thirdweb-dev/contracts/extension/Ownable.sol\":1046:1052   */\n      and(sub(shl(0xa0, 0x01), 0x01), sload(0x09))\n      swap1\n        /* \"@thirdweb-dev/contracts/extension/Ownable.sol\":973:1059   */\n      jump\n        /* \"@thirdweb-dev/contracts/base/ERC721Base.sol\":7923:7930   */\n    tag_513:\n      sub(shl(0xa0, 0x01), 0x01)\n        /* \"@thirdweb-dev/contracts/base/ERC721Base.sol\":7909:7930   */\n      and\n        /* \"@thirdweb-dev/contracts/base/ERC721Base.sol\":7909:7919   */\n      caller\n      sub(shl(0xa0, 0x01), 0x01)\n        /* \"@thirdweb-dev/contracts/base/ERC721Base.sol\":7909:7930   */\n      and\n      eq\n        /* \"@thirdweb-dev/contracts/base/ERC721Base.sol\":7902:7930   */\n      swap1\n      pop\n        /* \"@thirdweb-dev/contracts/base/ERC721Base.sol\":7835:7937   */\n      swap1\n      jump\t// out\n        /* \"@thirdweb-dev/contracts/base/ERC721Base.sol\":7327:7529   */\n    tag_242:\n        /* \"@thirdweb-dev/contracts/base/ERC721Base.sol\":7433:7450   */\n      0x00\n      dup3\n      dup2\n      mstore\n        /* \"@thirdweb-dev/contracts/base/ERC721Base.sol\":7433:7440   */\n      0x0f\n        /* \"@thirdweb-dev/contracts/base/ERC721Base.sol\":7433:7450   */\n      0x20\n      mstore\n      0x40\n      swap1\n      keccak256\n        /* \"@thirdweb-dev/contracts/base/ERC721Base.sol\":7427:7458   */\n      dup1\n      sload\n      tag_515\n      swap1\n      tag_251\n      jump\t// in\n    tag_515:\n        /* \"@thirdweb-dev/contracts/base/ERC721Base.sol\":7427:7463   */\n      iszero\n      swap1\n      pop\n        /* \"@thirdweb-dev/contracts/base/ERC721Base.sol\":7419:7483   */\n      tag_516\n      jumpi\n      mload(0x40)\n      shl(0xe5, 0x461bcd)\n      dup2\n      mstore\n        /* \"#utility.yul\":18947:18949   */\n      0x20\n        /* \"@thirdweb-dev/contracts/base/ERC721Base.sol\":7419:7483   */\n      0x04\n      dup3\n      add\n        /* \"#utility.yul\":18929:18950   */\n      mstore\n        /* \"#utility.yul\":18986:18988   */\n      0x0f\n        /* \"#utility.yul\":18966:18984   */\n      0x24\n      dup3\n      add\n        /* \"#utility.yul\":18959:18989   */\n      mstore\n        /* \"#utility.yul\":19025:19042   */\n      0x55524920616c7265616479207365740000000000000000000000000000000000\n        /* \"#utility.yul\":19005:19023   */\n      0x44\n      dup3\n      add\n        /* \"#utility.yul\":18998:19043   */\n      mstore\n        /* \"#utility.yul\":19060:19078   */\n      0x64\n      add\n        /* \"@thirdweb-dev/contracts/base/ERC721Base.sol\":7419:7483   */\n      tag_238\n        /* \"#utility.yul\":18745:19084   */\n      jump\n        /* \"@thirdweb-dev/contracts/base/ERC721Base.sol\":7419:7483   */\n    tag_516:\n        /* \"@thirdweb-dev/contracts/base/ERC721Base.sol\":7493:7510   */\n      0x00\n      dup3\n      dup2\n      mstore\n        /* \"@thirdweb-dev/contracts/base/ERC721Base.sol\":7493:7500   */\n      0x0f\n        /* \"@thirdweb-dev/contracts/base/ERC721Base.sol\":7493:7510   */\n      0x20\n      mstore\n      0x40\n      swap1\n      keccak256\n        /* \"@thirdweb-dev/contracts/base/ERC721Base.sol\":7493:7522   */\n      tag_269\n        /* \"@thirdweb-dev/contracts/base/ERC721Base.sol\":7513:7522   */\n      dup3\n        /* \"@thirdweb-dev/contracts/base/ERC721Base.sol\":7493:7510   */\n      dup3\n        /* \"@thirdweb-dev/contracts/base/ERC721Base.sol\":7493:7522   */\n      tag_520\n      jump\t// in\n        /* \"@thirdweb-dev/contracts/eip/ERC721AVirtualApprove.sol\":10171:11849   */\n    tag_244:\n        /* \"@thirdweb-dev/contracts/eip/ERC721AVirtualApprove.sol\":10259:10279   */\n      0x00\n        /* \"@thirdweb-dev/contracts/eip/ERC721AVirtualApprove.sol\":10282:10295   */\n      sload\n      sub(shl(0xa0, 0x01), 0x01)\n        /* \"@thirdweb-dev/contracts/eip/ERC721AVirtualApprove.sol\":10309:10325   */\n      dup5\n      and\n        /* \"@thirdweb-dev/contracts/eip/ERC721AVirtualApprove.sol\":10305:10353   */\n      tag_522\n      jumpi\n        /* \"@thirdweb-dev/contracts/eip/ERC721AVirtualApprove.sol\":10334:10353   */\n      mload(0x40)\n      shl(0xe8, 0x2e0763)\n      dup2\n      mstore\n      0x04\n      add\n      mload(0x40)\n      dup1\n      swap2\n      sub\n      swap1\n      revert\n        /* \"@thirdweb-dev/contracts/eip/ERC721AVirtualApprove.sol\":10305:10353   */\n    tag_522:\n        /* \"@thirdweb-dev/contracts/eip/ERC721AVirtualApprove.sol\":10367:10375   */\n      dup3\n        /* \"@thirdweb-dev/contracts/eip/ERC721AVirtualApprove.sol\":10379:10380   */\n      0x00\n        /* \"@thirdweb-dev/contracts/eip/ERC721AVirtualApprove.sol\":10367:10380   */\n      sub\n        /* \"@thirdweb-dev/contracts/eip/ERC721AVirtualApprove.sol\":10363:10407   */\n      tag_523\n      jumpi\n        /* \"@thirdweb-dev/contracts/eip/ERC721AVirtualApprove.sol\":10389:10407   */\n      mload(0x40)\n      shl(0xe0, 0xb562e8dd)\n      dup2\n      mstore\n      0x04\n      add\n      mload(0x40)\n      dup1\n      swap2\n      sub\n      swap1\n      revert\n        /* \"@thirdweb-dev/contracts/eip/ERC721AVirtualApprove.sol\":10363:10407   */\n    tag_523:\n      sub(shl(0xa0, 0x01), 0x01)\n        /* \"@thirdweb-dev/contracts/eip/ERC721AVirtualApprove.sol\":10750:10766   */\n      dup5\n      and\n      0x00\n      dup2\n      dup2\n      mstore\n        /* \"@thirdweb-dev/contracts/eip/ERC721AVirtualApprove.sol\":10750:10762   */\n      0x05\n        /* \"@thirdweb-dev/contracts/eip/ERC721AVirtualApprove.sol\":10750:10766   */\n      0x20\n      swap1\n      dup2\n      mstore\n      0x40\n      dup1\n      dup4\n      keccak256\n        /* \"@thirdweb-dev/contracts/eip/ERC721AVirtualApprove.sol\":10750:10794   */\n      dup1\n      sload\n      not(0xffffffffffffffffffffffffffffffff)\n        /* \"@thirdweb-dev/contracts/eip/ERC721AVirtualApprove.sol\":10808:10857   */\n      dup2\n      and\n        /* \"@thirdweb-dev/contracts/eip/ERC721AVirtualApprove.sol\":10750:10794   */\n      0xffffffffffffffff\n      dup1\n      dup4\n      and\n      dup12\n      add\n      dup2\n      and\n        /* \"@thirdweb-dev/contracts/eip/ERC721AVirtualApprove.sol\":10808:10857   */\n      swap2\n      dup3\n      or\n      0x010000000000000000\n      not(0xffffffffffffffff)\n        /* \"@thirdweb-dev/contracts/eip/ERC721AVirtualApprove.sol\":10750:10794   */\n      swap1\n      swap5\n      and\n      swap1\n      swap3\n      or\n        /* \"@thirdweb-dev/contracts/eip/ERC721AVirtualApprove.sol\":10808:10857   */\n      dup4\n      swap1\n      div\n      dup2\n      and\n      dup12\n      add\n      dup2\n      and\n      swap1\n      swap3\n      mul\n      or\n      swap1\n      swap2\n      sstore\n        /* \"@thirdweb-dev/contracts/eip/ERC721AVirtualApprove.sol\":10872:10897   */\n      dup6\n      dup5\n      mstore\n        /* \"@thirdweb-dev/contracts/eip/ERC721AVirtualApprove.sol\":10872:10883   */\n      0x04\n        /* \"@thirdweb-dev/contracts/eip/ERC721AVirtualApprove.sol\":10872:10897   */\n      swap1\n      swap3\n      mstore\n      swap1\n      swap2\n      keccak256\n        /* \"@thirdweb-dev/contracts/eip/ERC721AVirtualApprove.sol\":10872:10907   */\n      dup1\n      sload\n      not(sub(shl(0xe0, 0x01), 0x01))\n        /* \"@thirdweb-dev/contracts/eip/ERC721AVirtualApprove.sol\":10921:10987   */\n      and\n      dup4\n      or\n      shl(0xa0, 0x01)\n        /* \"@thirdweb-dev/contracts/eip/ERC721AVirtualApprove.sol\":10971:10986   */\n      timestamp\n        /* \"@thirdweb-dev/contracts/eip/ERC721AVirtualApprove.sol\":10921:10987   */\n      swap1\n      swap4\n      and\n      swap3\n      swap1\n      swap3\n      mul\n      swap2\n      swap1\n      swap2\n      or\n      swap1\n      sstore\n        /* \"@thirdweb-dev/contracts/eip/ERC721AVirtualApprove.sol\":10872:10897   */\n      dup2\n      swap1\n        /* \"@thirdweb-dev/contracts/eip/ERC721AVirtualApprove.sol\":11065:11088   */\n      dup2\n      dup6\n      add\n      swap1\n        /* \"@thirdweb-dev/contracts/lib/Address.sol\":1695:1714   */\n      extcodesize\n        /* \"@thirdweb-dev/contracts/lib/Address.sol\":1695:1718   */\n      iszero\n        /* \"@thirdweb-dev/contracts/eip/ERC721AVirtualApprove.sol\":11103:11721   */\n      tag_527\n      jumpi\n        /* \"@thirdweb-dev/contracts/eip/ERC721AVirtualApprove.sol\":11142:11450   */\n    tag_528:\n        /* \"@thirdweb-dev/contracts/eip/ERC721AVirtualApprove.sol\":11172:11210   */\n      mload(0x40)\n        /* \"@thirdweb-dev/contracts/eip/ERC721AVirtualApprove.sol\":11197:11209   */\n      dup3\n      swap1\n      sub(shl(0xa0, 0x01), 0x01)\n        /* \"@thirdweb-dev/contracts/eip/ERC721AVirtualApprove.sol\":11172:11210   */\n      dup9\n      and\n      swap1\n        /* \"@thirdweb-dev/contracts/eip/ERC721AVirtualApprove.sol\":11189:11190   */\n      0x00\n      swap1\n        /* \"@thirdweb-dev/contracts/eip/ERC721AVirtualApprove.sol\":11172:11210   */\n      0xddf252ad1be2c89b69c2b068fc378daa952ba7f163c4a11628f55a4df523b3ef\n      swap1\n        /* \"@thirdweb-dev/contracts/eip/ERC721AVirtualApprove.sol\":11189:11190   */\n      dup3\n      swap1\n        /* \"@thirdweb-dev/contracts/eip/ERC721AVirtualApprove.sol\":11172:11210   */\n      log4\n        /* \"@thirdweb-dev/contracts/eip/ERC721AVirtualApprove.sol\":11237:11306   */\n      tag_531\n        /* \"@thirdweb-dev/contracts/eip/ERC721AVirtualApprove.sol\":11276:11277   */\n      0x00\n        /* \"@thirdweb-dev/contracts/eip/ERC721AVirtualApprove.sol\":11280:11282   */\n      dup8\n        /* \"@thirdweb-dev/contracts/eip/ERC721AVirtualApprove.sol\":11284:11298   */\n      dup5\n      dup1\n      0x01\n      add\n      swap6\n      pop\n        /* \"@thirdweb-dev/contracts/eip/ERC721AVirtualApprove.sol\":11300:11305   */\n      dup8\n        /* \"@thirdweb-dev/contracts/eip/ERC721AVirtualApprove.sol\":11237:11267   */\n      tag_483\n        /* \"@thirdweb-dev/contracts/eip/ERC721AVirtualApprove.sol\":11237:11306   */\n      jump\t// in\n    tag_531:\n        /* \"@thirdweb-dev/contracts/eip/ERC721AVirtualApprove.sol\":11232:11404   */\n      tag_532\n      jumpi\n        /* \"@thirdweb-dev/contracts/eip/ERC721AVirtualApprove.sol\":11341:11381   */\n      mload(0x40)\n      shl(0xe1, 0x68d2bf6b)\n      dup2\n      mstore\n      0x04\n      add\n      mload(0x40)\n      dup1\n      swap2\n      sub\n      swap1\n      revert\n        /* \"@thirdweb-dev/contracts/eip/ERC721AVirtualApprove.sol\":11232:11404   */\n    tag_532:\n        /* \"@thirdweb-dev/contracts/eip/ERC721AVirtualApprove.sol\":11445:11448   */\n      dup1\n        /* \"@thirdweb-dev/contracts/eip/ERC721AVirtualApprove.sol\":11430:11442   */\n      dup3\n        /* \"@thirdweb-dev/contracts/eip/ERC721AVirtualApprove.sol\":11430:11448   */\n      lt\n        /* \"@thirdweb-dev/contracts/eip/ERC721AVirtualApprove.sol\":11142:11450   */\n      tag_528\n      jumpi\n        /* \"@thirdweb-dev/contracts/eip/ERC721AVirtualApprove.sol\":11529:11541   */\n      dup3\n        /* \"@thirdweb-dev/contracts/eip/ERC721AVirtualApprove.sol\":11512:11525   */\n      sload(0x00)\n        /* \"@thirdweb-dev/contracts/eip/ERC721AVirtualApprove.sol\":11512:11541   */\n      eq\n        /* \"@thirdweb-dev/contracts/eip/ERC721AVirtualApprove.sol\":11508:11551   */\n      tag_533\n      jumpi\n        /* \"@thirdweb-dev/contracts/eip/ERC721AVirtualApprove.sol\":11543:11551   */\n      0x00\n      dup1\n      revert\n        /* \"@thirdweb-dev/contracts/eip/ERC721AVirtualApprove.sol\":11508:11551   */\n    tag_533:\n        /* \"@thirdweb-dev/contracts/eip/ERC721AVirtualApprove.sol\":11103:11721   */\n      jump(tag_534)\n    tag_527:\n        /* \"@thirdweb-dev/contracts/eip/ERC721AVirtualApprove.sol\":11590:11707   */\n    tag_535:\n        /* \"@thirdweb-dev/contracts/eip/ERC721AVirtualApprove.sol\":11620:11660   */\n      mload(0x40)\n        /* \"@thirdweb-dev/contracts/eip/ERC721AVirtualApprove.sol\":11645:11659   */\n      0x01\n      dup4\n      add\n      swap3\n      swap1\n      sub(shl(0xa0, 0x01), 0x01)\n        /* \"@thirdweb-dev/contracts/eip/ERC721AVirtualApprove.sol\":11620:11660   */\n      dup9\n      and\n      swap1\n        /* \"@thirdweb-dev/contracts/eip/ERC721AVirtualApprove.sol\":11637:11638   */\n      0x00\n      swap1\n        /* \"@thirdweb-dev/contracts/eip/ERC721AVirtualApprove.sol\":11620:11660   */\n      0xddf252ad1be2c89b69c2b068fc378daa952ba7f163c4a11628f55a4df523b3ef\n      swap1\n        /* \"@thirdweb-dev/contracts/eip/ERC721AVirtualApprove.sol\":11637:11638   */\n      dup3\n      swap1\n        /* \"@thirdweb-dev/contracts/eip/ERC721AVirtualApprove.sol\":11620:11660   */\n      log4\n        /* \"@thirdweb-dev/contracts/eip/ERC721AVirtualApprove.sol\":11702:11705   */\n      dup1\n        /* \"@thirdweb-dev/contracts/eip/ERC721AVirtualApprove.sol\":11687:11699   */\n      dup3\n        /* \"@thirdweb-dev/contracts/eip/ERC721AVirtualApprove.sol\":11687:11705   */\n      lt\n        /* \"@thirdweb-dev/contracts/eip/ERC721AVirtualApprove.sol\":11590:11707   */\n      tag_535\n      jumpi\n        /* \"@thirdweb-dev/contracts/eip/ERC721AVirtualApprove.sol\":11103:11721   */\n    tag_534:\n      pop\n        /* \"@thirdweb-dev/contracts/eip/ERC721AVirtualApprove.sol\":11734:11747   */\n      0x00\n        /* \"@thirdweb-dev/contracts/eip/ERC721AVirtualApprove.sol\":11734:11762   */\n      swap1\n      dup2\n      sstore\n        /* \"@thirdweb-dev/contracts/eip/ERC721AVirtualApprove.sol\":11782:11842   */\n      tag_378\n      swap1\n        /* \"@thirdweb-dev/contracts/eip/ERC721AVirtualApprove.sol\":11815:11817   */\n      dup6\n        /* \"@thirdweb-dev/contracts/eip/ERC721AVirtualApprove.sol\":11819:11831   */\n      dup4\n        /* \"@thirdweb-dev/contracts/eip/ERC721AVirtualApprove.sol\":11833:11841   */\n      dup7\n        /* \"@thirdweb-dev/contracts/eip/ERC721AVirtualApprove.sol\":11782:11842   */\n      dup5\n      jump\t// in\n        /* \"@thirdweb-dev/contracts/eip/ERC721AVirtualApprove.sol\":9458:9630   */\n    tag_258:\n        /* \"@thirdweb-dev/contracts/eip/ERC721AVirtualApprove.sol\":9515:9519   */\n      0x00\n        /* \"@thirdweb-dev/contracts/eip/ERC721AVirtualApprove.sol\":9578:9591   */\n      dup1\n      sload\n        /* \"@thirdweb-dev/contracts/eip/ERC721AVirtualApprove.sol\":9568:9575   */\n      dup3\n        /* \"@thirdweb-dev/contracts/eip/ERC721AVirtualApprove.sol\":9568:9591   */\n      lt\n        /* \"@thirdweb-dev/contracts/eip/ERC721AVirtualApprove.sol\":9538:9623   */\n      dup1\n      iszero\n      tag_248\n      jumpi\n      pop\n      pop\n        /* \"@thirdweb-dev/contracts/eip/ERC721AVirtualApprove.sol\":9596:9616   */\n      0x00\n      swap1\n      dup2\n      mstore\n        /* \"@thirdweb-dev/contracts/eip/ERC721AVirtualApprove.sol\":9596:9607   */\n      0x04\n        /* \"@thirdweb-dev/contracts/eip/ERC721AVirtualApprove.sol\":9596:9616   */\n      0x20\n      mstore\n      0x40\n      swap1\n      keccak256\n        /* \"@thirdweb-dev/contracts/eip/ERC721AVirtualApprove.sol\":9596:9623   */\n      sload\n      shl(0xe0, 0x01)\n      swap1\n      div\n      0xff\n      and\n        /* \"@thirdweb-dev/contracts/eip/ERC721AVirtualApprove.sol\":9595:9623   */\n      iszero\n      swap1\n        /* \"@thirdweb-dev/contracts/eip/ERC721AVirtualApprove.sol\":9458:9630   */\n      jump\t// out\n        /* \"@thirdweb-dev/contracts/eip/ERC721AVirtualApprove.sol\":18379:18538   */\n    tag_270:\n        /* \"@thirdweb-dev/contracts/eip/ERC721AVirtualApprove.sol\":18459:18483   */\n      0x00\n      dup3\n      dup2\n      mstore\n        /* \"@thirdweb-dev/contracts/eip/ERC721AVirtualApprove.sol\":18459:18474   */\n      0x06\n        /* \"@thirdweb-dev/contracts/eip/ERC721AVirtualApprove.sol\":18459:18483   */\n      0x20\n      mstore\n      0x40\n      dup1\n      dup3\n      keccak256\n        /* \"@thirdweb-dev/contracts/eip/ERC721AVirtualApprove.sol\":18459:18488   */\n      dup1\n      sload\n      not(0xffffffffffffffffffffffffffffffffffffffff)\n      and\n      sub(shl(0xa0, 0x01), 0x01)\n      dup8\n      dup2\n      and\n      swap2\n      dup3\n      or\n      swap1\n      swap3\n      sstore\n        /* \"@thirdweb-dev/contracts/eip/ERC721AVirtualApprove.sol\":18503:18531   */\n      swap2\n      mload\n        /* \"@thirdweb-dev/contracts/eip/ERC721AVirtualApprove.sol\":18459:18483   */\n      dup6\n      swap4\n        /* \"@thirdweb-dev/contracts/eip/ERC721AVirtualApprove.sol\":18503:18531   */\n      swap2\n      dup6\n      and\n      swap2\n      0x8c5be1e5ebec7d5bd14f71427d1e84f3dd0314c0f7b2291e5b200ac8c7c3b925\n      swap2\n      log4\n        /* \"@thirdweb-dev/contracts/eip/ERC721AVirtualApprove.sol\":18379:18538   */\n      pop\n      pop\n      pop\n      jump\t// out\n        /* \"@thirdweb-dev/contracts/extension/Ownable.sol\":1527:1699   */\n    tag_276:\n        /* \"@thirdweb-dev/contracts/extension/Ownable.sol\":1607:1613   */\n      0x09\n      dup1\n      sload\n      sub(shl(0xa0, 0x01), 0x01)\n        /* \"@thirdweb-dev/contracts/extension/Ownable.sol\":1623:1641   */\n      dup4\n      dup2\n      and\n      not(0xffffffffffffffffffffffffffffffffffffffff)\n      dup4\n      and\n      dup2\n      or\n      swap1\n      swap4\n      sstore\n        /* \"@thirdweb-dev/contracts/extension/Ownable.sol\":1657:1692   */\n      mload(0x40)\n        /* \"@thirdweb-dev/contracts/extension/Ownable.sol\":1607:1613   */\n      swap2\n      and\n      swap2\n        /* \"@thirdweb-dev/contracts/extension/Ownable.sol\":1623:1641   */\n      swap1\n        /* \"@thirdweb-dev/contracts/extension/Ownable.sol\":1607:1613   */\n      dup3\n      swap1\n        /* \"@thirdweb-dev/contracts/extension/Ownable.sol\":1657:1692   */\n      0x8292fce18fa69edf4db7b94ea2e58241df0ae57f97e0a6c9b29067028bf92d76\n      swap1\n        /* \"@thirdweb-dev/contracts/extension/Ownable.sol\":1586:1604   */\n      0x00\n      swap1\n        /* \"@thirdweb-dev/contracts/extension/Ownable.sol\":1657:1692   */\n      log3\n        /* \"@thirdweb-dev/contracts/extension/Ownable.sol\":1576:1699   */\n      pop\n        /* \"@thirdweb-dev/contracts/extension/Ownable.sol\":1527:1699   */\n      pop\n      jump\t// out\n        /* \"@thirdweb-dev/contracts/eip/ERC721AVirtualApprove.sol\":9709:9811   */\n    tag_296:\n        /* \"@thirdweb-dev/contracts/eip/ERC721AVirtualApprove.sol\":9777:9804   */\n      tag_243\n        /* \"@thirdweb-dev/contracts/eip/ERC721AVirtualApprove.sol\":9787:9789   */\n      dup3\n        /* \"@thirdweb-dev/contracts/eip/ERC721AVirtualApprove.sol\":9791:9799   */\n      dup3\n        /* \"@thirdweb-dev/contracts/eip/ERC721AVirtualApprove.sol\":9777:9804   */\n      mload(0x40)\n      dup1\n      0x20\n      add\n      0x40\n      mstore\n      dup1\n      0x00\n      dup2\n      mstore\n      pop\n        /* \"@thirdweb-dev/contracts/eip/ERC721AVirtualApprove.sol\":9777:9786   */\n      tag_244\n        /* \"@thirdweb-dev/contracts/eip/ERC721AVirtualApprove.sol\":9777:9804   */\n      jump\t// in\n        /* \"@thirdweb-dev/contracts/eip/ERC721AVirtualApprove.sol\":13484:15536   */\n    tag_299:\n        /* \"@thirdweb-dev/contracts/eip/ERC721AVirtualApprove.sol\":13564:13599   */\n      0x00\n        /* \"@thirdweb-dev/contracts/eip/ERC721AVirtualApprove.sol\":13602:13623   */\n      tag_553\n        /* \"@thirdweb-dev/contracts/eip/ERC721AVirtualApprove.sol\":13615:13622   */\n      dup3\n        /* \"@thirdweb-dev/contracts/eip/ERC721AVirtualApprove.sol\":13602:13614   */\n      tag_353\n        /* \"@thirdweb-dev/contracts/eip/ERC721AVirtualApprove.sol\":13602:13623   */\n      jump\t// in\n    tag_553:\n        /* \"@thirdweb-dev/contracts/eip/ERC721AVirtualApprove.sol\":13564:13623   */\n      swap1\n      pop\n        /* \"@thirdweb-dev/contracts/eip/ERC721AVirtualApprove.sol\":13660:13664   */\n      dup4\n      sub(shl(0xa0, 0x01), 0x01)\n        /* \"@thirdweb-dev/contracts/eip/ERC721AVirtualApprove.sol\":13638:13664   */\n      and\n        /* \"@thirdweb-dev/contracts/eip/ERC721AVirtualApprove.sol\":13638:13651   */\n      dup2\n        /* \"@thirdweb-dev/contracts/eip/ERC721AVirtualApprove.sol\":13638:13656   */\n      0x00\n      add\n      mload\n      sub(shl(0xa0, 0x01), 0x01)\n        /* \"@thirdweb-dev/contracts/eip/ERC721AVirtualApprove.sol\":13638:13664   */\n      and\n      eq\n        /* \"@thirdweb-dev/contracts/eip/ERC721AVirtualApprove.sol\":13634:13701   */\n      tag_554\n      jumpi\n        /* \"@thirdweb-dev/contracts/eip/ERC721AVirtualApprove.sol\":13673:13701   */\n      mload(0x40)\n      shl(0xe8, 0xa11481)\n      dup2\n      mstore\n      0x04\n      add\n      mload(0x40)\n      dup1\n      swap2\n      sub\n      swap1\n      revert\n        /* \"@thirdweb-dev/contracts/eip/ERC721AVirtualApprove.sol\":13634:13701   */\n    tag_554:\n        /* \"@thirdweb-dev/contracts/eip/ERC721AVirtualApprove.sol\":13712:13734   */\n      0x00\n        /* \"@thirdweb-dev/contracts/base/ERC721Base.sol\":8521:8531   */\n      caller\n      sub(shl(0xa0, 0x01), 0x01)\n        /* \"@thirdweb-dev/contracts/eip/ERC721AVirtualApprove.sol\":13738:13758   */\n      dup7\n      and\n      eq\n      dup1\n        /* \"@thirdweb-dev/contracts/eip/ERC721AVirtualApprove.sol\":13738:13810   */\n      tag_557\n      jumpi\n      pop\n        /* \"@thirdweb-dev/contracts/eip/ERC721AVirtualApprove.sol\":13774:13810   */\n      tag_557\n        /* \"@thirdweb-dev/contracts/eip/ERC721AVirtualApprove.sol\":13791:13795   */\n      dup6\n        /* \"@thirdweb-dev/contracts/base/ERC721Base.sol\":8521:8531   */\n      caller\n        /* \"@thirdweb-dev/contracts/eip/ERC721AVirtualApprove.sol\":8230:8392   */\n      tag_227\n      jump\t// in\n        /* \"@thirdweb-dev/contracts/eip/ERC721AVirtualApprove.sol\":13774:13810   */\n    tag_557:\n        /* \"@thirdweb-dev/contracts/eip/ERC721AVirtualApprove.sol\":13738:13862   */\n      dup1\n      tag_559\n      jumpi\n      pop\n        /* \"@thirdweb-dev/contracts/base/ERC721Base.sol\":8521:8531   */\n      caller\n        /* \"@thirdweb-dev/contracts/eip/ERC721AVirtualApprove.sol\":13826:13846   */\n      tag_561\n        /* \"@thirdweb-dev/contracts/eip/ERC721AVirtualApprove.sol\":13838:13845   */\n      dup5\n        /* \"@thirdweb-dev/contracts/eip/ERC721AVirtualApprove.sol\":13826:13837   */\n      tag_78\n        /* \"@thirdweb-dev/contracts/eip/ERC721AVirtualApprove.sol\":13826:13846   */\n      jump\t// in\n    tag_561:\n      sub(shl(0xa0, 0x01), 0x01)\n        /* \"@thirdweb-dev/contracts/eip/ERC721AVirtualApprove.sol\":13826:13862   */\n      and\n      eq\n        /* \"@thirdweb-dev/contracts/eip/ERC721AVirtualApprove.sol\":13738:13862   */\n    tag_559:\n        /* \"@thirdweb-dev/contracts/eip/ERC721AVirtualApprove.sol\":13712:13863   */\n      swap1\n      pop\n        /* \"@thirdweb-dev/contracts/eip/ERC721AVirtualApprove.sol\":13879:13896   */\n      dup1\n        /* \"@thirdweb-dev/contracts/eip/ERC721AVirtualApprove.sol\":13874:13940   */\n      tag_562\n      jumpi\n        /* \"@thirdweb-dev/contracts/eip/ERC721AVirtualApprove.sol\":13905:13940   */\n      mload(0x40)\n      shl(0xe1, 0x2ce44b5f)\n      dup2\n      mstore\n      0x04\n      add\n      mload(0x40)\n      dup1\n      swap2\n      sub\n      swap1\n      revert\n        /* \"@thirdweb-dev/contracts/eip/ERC721AVirtualApprove.sol\":13874:13940   */\n    tag_562:\n      sub(shl(0xa0, 0x01), 0x01)\n        /* \"@thirdweb-dev/contracts/eip/ERC721AVirtualApprove.sol\":13954:13970   */\n      dup5\n      and\n        /* \"@thirdweb-dev/contracts/eip/ERC721AVirtualApprove.sol\":13950:14002   */\n      tag_563\n      jumpi\n        /* \"@thirdweb-dev/contracts/eip/ERC721AVirtualApprove.sol\":13979:14002   */\n      mload(0x40)\n      shl(0xe2, 0x3a954ecd)\n      dup2\n      mstore\n      0x04\n      add\n      mload(0x40)\n      dup1\n      swap2\n      sub\n      swap1\n      revert\n        /* \"@thirdweb-dev/contracts/eip/ERC721AVirtualApprove.sol\":13950:14002   */\n    tag_563:\n        /* \"@thirdweb-dev/contracts/eip/ERC721AVirtualApprove.sol\":14118:14153   */\n      tag_565\n        /* \"@thirdweb-dev/contracts/eip/ERC721AVirtualApprove.sol\":14135:14136   */\n      0x00\n        /* \"@thirdweb-dev/contracts/eip/ERC721AVirtualApprove.sol\":14139:14146   */\n      dup5\n        /* \"@thirdweb-dev/contracts/eip/ERC721AVirtualApprove.sol\":14148:14152   */\n      dup8\n        /* \"@thirdweb-dev/contracts/eip/ERC721AVirtualApprove.sol\":14118:14126   */\n      tag_270\n        /* \"@thirdweb-dev/contracts/eip/ERC721AVirtualApprove.sol\":14118:14153   */\n      jump\t// in\n    tag_565:\n      sub(shl(0xa0, 0x01), 0x01)\n        /* \"@thirdweb-dev/contracts/eip/ERC721AVirtualApprove.sol\":14443:14461   */\n      dup6\n      dup2\n      and\n      0x00\n      swap1\n      dup2\n      mstore\n        /* \"@thirdweb-dev/contracts/eip/ERC721AVirtualApprove.sol\":14443:14455   */\n      0x05\n        /* \"@thirdweb-dev/contracts/eip/ERC721AVirtualApprove.sol\":14443:14461   */\n      0x20\n      swap1\n      dup2\n      mstore\n      0x40\n      dup1\n      dup4\n      keccak256\n        /* \"@thirdweb-dev/contracts/eip/ERC721AVirtualApprove.sol\":14443:14474   */\n      dup1\n      sload\n      not(0xffffffffffffffff)\n      dup1\n      dup3\n      and\n      0xffffffffffffffff\n      swap3\n      dup4\n      and\n      not(0x00)\n      add\n      dup4\n      and\n      or\n      swap1\n      swap3\n      sstore\n        /* \"@thirdweb-dev/contracts/eip/ERC721AVirtualApprove.sol\":14488:14504   */\n      dup10\n      dup7\n      and\n      dup1\n      dup7\n      mstore\n      dup4\n      dup7\n      keccak256\n        /* \"@thirdweb-dev/contracts/eip/ERC721AVirtualApprove.sol\":14488:14517   */\n      dup1\n      sload\n      swap4\n      dup5\n      and\n      swap4\n      dup4\n      and\n      0x01\n      swap1\n      dup2\n      add\n      dup5\n      and\n      swap5\n      swap1\n      swap5\n      or\n      swap1\n      sstore\n        /* \"@thirdweb-dev/contracts/eip/ERC721AVirtualApprove.sol\":14566:14586   */\n      dup10\n      dup7\n      mstore\n        /* \"@thirdweb-dev/contracts/eip/ERC721AVirtualApprove.sol\":14566:14577   */\n      0x04\n        /* \"@thirdweb-dev/contracts/eip/ERC721AVirtualApprove.sol\":14566:14586   */\n      swap1\n      swap5\n      mstore\n      dup3\n      dup6\n      keccak256\n        /* \"@thirdweb-dev/contracts/eip/ERC721AVirtualApprove.sol\":14600:14618   */\n      dup1\n      sload\n      not(sub(shl(0xe0, 0x01), 0x01))\n        /* \"@thirdweb-dev/contracts/eip/ERC721AVirtualApprove.sol\":14632:14681   */\n      and\n      swap1\n      swap5\n      or\n      shl(0xa0, 0x01)\n        /* \"@thirdweb-dev/contracts/eip/ERC721AVirtualApprove.sol\":14665:14680   */\n      timestamp\n        /* \"@thirdweb-dev/contracts/eip/ERC721AVirtualApprove.sol\":14632:14681   */\n      swap1\n      swap3\n      and\n      swap2\n      swap1\n      swap2\n      mul\n      or\n      dup4\n      sstore\n        /* \"@thirdweb-dev/contracts/eip/ERC721AVirtualApprove.sol\":14951:14962   */\n      dup8\n      add\n        /* \"@thirdweb-dev/contracts/eip/ERC721AVirtualApprove.sol\":15010:15034   */\n      dup1\n      dup5\n      mstore\n      swap3\n      keccak256\n        /* \"@thirdweb-dev/contracts/eip/ERC721AVirtualApprove.sol\":15052:15065   */\n      dup1\n      sload\n        /* \"@thirdweb-dev/contracts/eip/ERC721AVirtualApprove.sol\":14566:14586   */\n      swap2\n      swap4\n        /* \"@thirdweb-dev/contracts/eip/ERC721AVirtualApprove.sol\":15010:15034   */\n      swap1\n      swap2\n        /* \"@thirdweb-dev/contracts/eip/ERC721AVirtualApprove.sol\":15052:15065   */\n      and\n        /* \"@thirdweb-dev/contracts/eip/ERC721AVirtualApprove.sol\":15048:15425   */\n      tag_567\n      jumpi\n        /* \"@thirdweb-dev/contracts/eip/ERC721AVirtualApprove.sol\":15259:15272   */\n      sload(0x00)\n        /* \"@thirdweb-dev/contracts/eip/ERC721AVirtualApprove.sol\":15244:15255   */\n      dup3\n        /* \"@thirdweb-dev/contracts/eip/ERC721AVirtualApprove.sol\":15244:15272   */\n      eq\n        /* \"@thirdweb-dev/contracts/eip/ERC721AVirtualApprove.sol\":15240:15411   */\n      tag_567\n      jumpi\n        /* \"@thirdweb-dev/contracts/eip/ERC721AVirtualApprove.sol\":15296:15316   */\n      dup1\n      sload\n        /* \"@thirdweb-dev/contracts/eip/ERC721AVirtualApprove.sol\":15364:15392   */\n      0x20\n      dup7\n      add\n      mload\n        /* \"@thirdweb-dev/contracts/eip/ERC721AVirtualApprove.sol\":15338:15392   */\n      0xffffffffffffffff\n      and\n      shl(0xa0, 0x01)\n      mul\n      not(sub(shl(0xe0, 0x01), 0x01))\n      swap1\n      swap2\n      and\n      sub(shl(0xa0, 0x01), 0x01)\n        /* \"@thirdweb-dev/contracts/eip/ERC721AVirtualApprove.sol\":15296:15316   */\n      dup11\n      and\n        /* \"@thirdweb-dev/contracts/eip/ERC721AVirtualApprove.sol\":15338:15392   */\n      or\n      or\n      dup2\n      sstore\n        /* \"@thirdweb-dev/contracts/eip/ERC721AVirtualApprove.sol\":15240:15411   */\n    tag_567:\n        /* \"@thirdweb-dev/contracts/eip/ERC721AVirtualApprove.sol\":14419:15435   */\n      pop\n      pop\n      pop\n        /* \"@thirdweb-dev/contracts/eip/ERC721AVirtualApprove.sol\":15469:15476   */\n      dup3\n        /* \"@thirdweb-dev/contracts/eip/ERC721AVirtualApprove.sol\":15465:15467   */\n      dup5\n      sub(shl(0xa0, 0x01), 0x01)\n        /* \"@thirdweb-dev/contracts/eip/ERC721AVirtualApprove.sol\":15450:15477   */\n      and\n        /* \"@thirdweb-dev/contracts/eip/ERC721AVirtualApprove.sol\":15459:15463   */\n      dup7\n      sub(shl(0xa0, 0x01), 0x01)\n        /* \"@thirdweb-dev/contracts/eip/ERC721AVirtualApprove.sol\":15450:15477   */\n      and\n      0xddf252ad1be2c89b69c2b068fc378daa952ba7f163c4a11628f55a4df523b3ef\n      mload(0x40)\n      mload(0x40)\n      dup1\n      swap2\n      sub\n      swap1\n      log4\n        /* \"@thirdweb-dev/contracts/eip/ERC721AVirtualApprove.sol\":15487:15529   */\n    tag_568:\n        /* \"@thirdweb-dev/contracts/eip/ERC721AVirtualApprove.sol\":13554:15536   */\n      pop\n      pop\n        /* \"@thirdweb-dev/contracts/eip/ERC721AVirtualApprove.sol\":13484:15536   */\n      pop\n      pop\n      pop\n      jump\t// out\n        /* \"@thirdweb-dev/contracts/eip/ERC721AVirtualApprove.sol\":15913:18268   */\n    tag_319:\n        /* \"@thirdweb-dev/contracts/eip/ERC721AVirtualApprove.sol\":15992:16027   */\n      0x00\n        /* \"@thirdweb-dev/contracts/eip/ERC721AVirtualApprove.sol\":16030:16051   */\n      tag_570\n        /* \"@thirdweb-dev/contracts/eip/ERC721AVirtualApprove.sol\":16043:16050   */\n      dup4\n        /* \"@thirdweb-dev/contracts/eip/ERC721AVirtualApprove.sol\":16030:16042   */\n      tag_353\n        /* \"@thirdweb-dev/contracts/eip/ERC721AVirtualApprove.sol\":16030:16051   */\n      jump\t// in\n    tag_570:\n        /* \"@thirdweb-dev/contracts/eip/ERC721AVirtualApprove.sol\":16077:16095   */\n      dup1\n      mload\n        /* \"@thirdweb-dev/contracts/eip/ERC721AVirtualApprove.sol\":15992:16051   */\n      swap1\n      swap2\n      pop\n        /* \"@thirdweb-dev/contracts/eip/ERC721AVirtualApprove.sol\":16106:16390   */\n      dup3\n      iszero\n      tag_571\n      jumpi\n        /* \"@thirdweb-dev/contracts/eip/ERC721AVirtualApprove.sol\":16139:16161   */\n      0x00\n        /* \"@thirdweb-dev/contracts/base/ERC721Base.sol\":8521:8531   */\n      caller\n      sub(shl(0xa0, 0x01), 0x01)\n        /* \"@thirdweb-dev/contracts/eip/ERC721AVirtualApprove.sol\":16165:16185   */\n      dup4\n      and\n      eq\n      dup1\n        /* \"@thirdweb-dev/contracts/eip/ERC721AVirtualApprove.sol\":16165:16241   */\n      tag_574\n      jumpi\n      pop\n        /* \"@thirdweb-dev/contracts/eip/ERC721AVirtualApprove.sol\":16205:16241   */\n      tag_574\n        /* \"@thirdweb-dev/contracts/eip/ERC721AVirtualApprove.sol\":16222:16226   */\n      dup3\n        /* \"@thirdweb-dev/contracts/base/ERC721Base.sol\":8521:8531   */\n      caller\n        /* \"@thirdweb-dev/contracts/eip/ERC721AVirtualApprove.sol\":8230:8392   */\n      tag_227\n      jump\t// in\n        /* \"@thirdweb-dev/contracts/eip/ERC721AVirtualApprove.sol\":16205:16241   */\n    tag_574:\n        /* \"@thirdweb-dev/contracts/eip/ERC721AVirtualApprove.sol\":16165:16297   */\n      dup1\n      tag_576\n      jumpi\n      pop\n        /* \"@thirdweb-dev/contracts/base/ERC721Base.sol\":8521:8531   */\n      caller\n        /* \"@thirdweb-dev/contracts/eip/ERC721AVirtualApprove.sol\":16261:16281   */\n      tag_578\n        /* \"@thirdweb-dev/contracts/eip/ERC721AVirtualApprove.sol\":16273:16280   */\n      dup7\n        /* \"@thirdweb-dev/contracts/eip/ERC721AVirtualApprove.sol\":16261:16272   */\n      tag_78\n        /* \"@thirdweb-dev/contracts/eip/ERC721AVirtualApprove.sol\":16261:16281   */\n      jump\t// in\n    tag_578:\n      sub(shl(0xa0, 0x01), 0x01)\n        /* \"@thirdweb-dev/contracts/eip/ERC721AVirtualApprove.sol\":16261:16297   */\n      and\n      eq\n        /* \"@thirdweb-dev/contracts/eip/ERC721AVirtualApprove.sol\":16165:16297   */\n    tag_576:\n        /* \"@thirdweb-dev/contracts/eip/ERC721AVirtualApprove.sol\":16139:16298   */\n      swap1\n      pop\n        /* \"@thirdweb-dev/contracts/eip/ERC721AVirtualApprove.sol\":16318:16335   */\n      dup1\n        /* \"@thirdweb-dev/contracts/eip/ERC721AVirtualApprove.sol\":16313:16379   */\n      tag_579\n      jumpi\n        /* \"@thirdweb-dev/contracts/eip/ERC721AVirtualApprove.sol\":16344:16379   */\n      mload(0x40)\n      shl(0xe1, 0x2ce44b5f)\n      dup2\n      mstore\n      0x04\n      add\n      mload(0x40)\n      dup1\n      swap2\n      sub\n      swap1\n      revert\n        /* \"@thirdweb-dev/contracts/eip/ERC721AVirtualApprove.sol\":16313:16379   */\n    tag_579:\n        /* \"@thirdweb-dev/contracts/eip/ERC721AVirtualApprove.sol\":16125:16390   */\n      pop\n        /* \"@thirdweb-dev/contracts/eip/ERC721AVirtualApprove.sol\":16106:16390   */\n    tag_571:\n        /* \"@thirdweb-dev/contracts/eip/ERC721AVirtualApprove.sol\":16513:16548   */\n      tag_581\n        /* \"@thirdweb-dev/contracts/eip/ERC721AVirtualApprove.sol\":16530:16531   */\n      0x00\n        /* \"@thirdweb-dev/contracts/eip/ERC721AVirtualApprove.sol\":16534:16541   */\n      dup6\n        /* \"@thirdweb-dev/contracts/eip/ERC721AVirtualApprove.sol\":16543:16547   */\n      dup4\n        /* \"@thirdweb-dev/contracts/eip/ERC721AVirtualApprove.sol\":16513:16521   */\n      tag_270\n        /* \"@thirdweb-dev/contracts/eip/ERC721AVirtualApprove.sol\":16513:16548   */\n      jump\t// in\n    tag_581:\n      sub(shl(0xa0, 0x01), 0x01)\n        /* \"@thirdweb-dev/contracts/eip/ERC721AVirtualApprove.sol\":16872:16890   */\n      dup1\n      dup3\n      and\n        /* \"@thirdweb-dev/contracts/eip/ERC721AVirtualApprove.sol\":16838:16869   */\n      0x00\n        /* \"@thirdweb-dev/contracts/eip/ERC721AVirtualApprove.sol\":16872:16890   */\n      dup2\n      dup2\n      mstore\n        /* \"@thirdweb-dev/contracts/eip/ERC721AVirtualApprove.sol\":16872:16884   */\n      0x05\n        /* \"@thirdweb-dev/contracts/eip/ERC721AVirtualApprove.sol\":16872:16890   */\n      0x20\n      swap1\n      dup2\n      mstore\n      0x40\n      dup1\n      dup4\n      keccak256\n        /* \"@thirdweb-dev/contracts/eip/ERC721AVirtualApprove.sol\":16904:16928   */\n      dup1\n      sload\n        /* \"@thirdweb-dev/contracts/eip/ERC721AVirtualApprove.sol\":16942:16971   */\n      0x0100000000000000000000000000000000\n      not(0x00)\n        /* \"@thirdweb-dev/contracts/eip/ERC721AVirtualApprove.sol\":16904:16928   */\n      0xffffffffffffffff\n      dup1\n      dup5\n      and\n      swap2\n      swap1\n      swap2\n      add\n      dup2\n      and\n      not(0xffffffffffffffff)\n      dup5\n      and\n      dup2\n      or\n        /* \"@thirdweb-dev/contracts/eip/ERC721AVirtualApprove.sol\":16942:16971   */\n      dup4\n      swap1\n      div\n      dup3\n      and\n        /* \"@thirdweb-dev/contracts/eip/ERC721AVirtualApprove.sol\":16927:16928   */\n      0x01\n        /* \"@thirdweb-dev/contracts/eip/ERC721AVirtualApprove.sol\":16942:16971   */\n      swap1\n      dup2\n      add\n      dup4\n      and\n      swap1\n      swap4\n      mul\n      0xffffffffffffffff0000000000000000ffffffffffffffff0000000000000000\n      swap1\n      swap5\n      and\n      or\n      swap3\n      swap1\n      swap3\n      or\n      dup4\n      sstore\n        /* \"@thirdweb-dev/contracts/eip/ERC721AVirtualApprove.sol\":17101:17121   */\n      dup12\n      dup7\n      mstore\n        /* \"@thirdweb-dev/contracts/eip/ERC721AVirtualApprove.sol\":17101:17112   */\n      0x04\n        /* \"@thirdweb-dev/contracts/eip/ERC721AVirtualApprove.sol\":17101:17121   */\n      swap1\n      swap5\n      mstore\n      dup3\n      dup6\n      keccak256\n        /* \"@thirdweb-dev/contracts/eip/ERC721AVirtualApprove.sol\":17135:17155   */\n      dup1\n      sload\n        /* \"@thirdweb-dev/contracts/eip/ERC721AVirtualApprove.sol\":17232:17254   */\n      0xffffff00ffffffffffffffffffffffffffffffffffffffffffffffffffffffff\n        /* \"@thirdweb-dev/contracts/eip/ERC721AVirtualApprove.sol\":17202:17217   */\n      timestamp\n        /* \"@thirdweb-dev/contracts/eip/ERC721AVirtualApprove.sol\":17169:17218   */\n      swap1\n      swap4\n      and\n      shl(0xa0, 0x01)\n      mul\n      not(sub(shl(0xe0, 0x01), 0x01))\n      swap1\n      swap2\n      and\n      swap1\n      swap8\n      or\n      swap7\n      swap1\n      swap7\n      or\n        /* \"@thirdweb-dev/contracts/eip/ERC721AVirtualApprove.sol\":17232:17254   */\n      and\n      shl(0xe0, 0x01)\n      or\n      dup6\n      sstore\n        /* \"@thirdweb-dev/contracts/eip/ERC721AVirtualApprove.sol\":17520:17531   */\n      swap2\n      dup10\n      add\n        /* \"@thirdweb-dev/contracts/eip/ERC721AVirtualApprove.sol\":17579:17603   */\n      dup1\n      dup5\n      mstore\n      swap3\n      keccak256\n        /* \"@thirdweb-dev/contracts/eip/ERC721AVirtualApprove.sol\":17621:17634   */\n      dup1\n      sload\n        /* \"@thirdweb-dev/contracts/eip/ERC721AVirtualApprove.sol\":16872:16890   */\n      swap2\n      swap5\n        /* \"@thirdweb-dev/contracts/eip/ERC721AVirtualApprove.sol\":17579:17603   */\n      swap1\n      swap2\n        /* \"@thirdweb-dev/contracts/eip/ERC721AVirtualApprove.sol\":17621:17634   */\n      and\n        /* \"@thirdweb-dev/contracts/eip/ERC721AVirtualApprove.sol\":17617:17994   */\n      tag_583\n      jumpi\n        /* \"@thirdweb-dev/contracts/eip/ERC721AVirtualApprove.sol\":17828:17841   */\n      sload(0x00)\n        /* \"@thirdweb-dev/contracts/eip/ERC721AVirtualApprove.sol\":17813:17824   */\n      dup3\n        /* \"@thirdweb-dev/contracts/eip/ERC721AVirtualApprove.sol\":17813:17841   */\n      eq\n        /* \"@thirdweb-dev/contracts/eip/ERC721AVirtualApprove.sol\":17809:17980   */\n      tag_583\n      jumpi\n        /* \"@thirdweb-dev/contracts/eip/ERC721AVirtualApprove.sol\":17865:17885   */\n      dup1\n      sload\n        /* \"@thirdweb-dev/contracts/eip/ERC721AVirtualApprove.sol\":17933:17961   */\n      0x20\n      dup8\n      add\n      mload\n        /* \"@thirdweb-dev/contracts/eip/ERC721AVirtualApprove.sol\":17907:17961   */\n      0xffffffffffffffff\n      and\n      shl(0xa0, 0x01)\n      mul\n      not(sub(shl(0xe0, 0x01), 0x01))\n      swap1\n      swap2\n      and\n      sub(shl(0xa0, 0x01), 0x01)\n        /* \"@thirdweb-dev/contracts/eip/ERC721AVirtualApprove.sol\":17865:17885   */\n      dup8\n      and\n        /* \"@thirdweb-dev/contracts/eip/ERC721AVirtualApprove.sol\":17907:17961   */\n      or\n      or\n      dup2\n      sstore\n        /* \"@thirdweb-dev/contracts/eip/ERC721AVirtualApprove.sol\":17809:17980   */\n    tag_583:\n      pop\n      pop\n        /* \"@thirdweb-dev/contracts/eip/ERC721AVirtualApprove.sol\":18019:18054   */\n      mload(0x40)\n        /* \"@thirdweb-dev/contracts/eip/ERC721AVirtualApprove.sol\":18046:18053   */\n      dup7\n      swap3\n      pop\n        /* \"@thirdweb-dev/contracts/eip/ERC721AVirtualApprove.sol\":18042:18043   */\n      0x00\n      swap2\n      pop\n      sub(shl(0xa0, 0x01), 0x01)\n        /* \"@thirdweb-dev/contracts/eip/ERC721AVirtualApprove.sol\":18019:18054   */\n      dup5\n      and\n      swap1\n      0xddf252ad1be2c89b69c2b068fc378daa952ba7f163c4a11628f55a4df523b3ef\n      swap1\n        /* \"@thirdweb-dev/contracts/eip/ERC721AVirtualApprove.sol\":18042:18043   */\n      dup4\n      swap1\n        /* \"@thirdweb-dev/contracts/eip/ERC721AVirtualApprove.sol\":18019:18054   */\n      log4\n      pop\n      pop\n        /* \"@thirdweb-dev/contracts/eip/ERC721AVirtualApprove.sol\":18237:18249   */\n      0x01\n        /* \"@thirdweb-dev/contracts/eip/ERC721AVirtualApprove.sol\":18237:18251   */\n      dup1\n      sload\n      dup2\n      add\n      swap1\n      sstore\n      pop\n      pop\n        /* \"@thirdweb-dev/contracts/eip/ERC721AVirtualApprove.sol\":15913:18268   */\n      jump\t// out\n        /* \"@thirdweb-dev/contracts/extension/Royalty.sol\":3717:4078   */\n    tag_350:\n        /* \"@thirdweb-dev/contracts/extension/Royalty.sol\":3836:3842   */\n      0x2710\n        /* \"@thirdweb-dev/contracts/extension/Royalty.sol\":3822:3833   */\n      dup2\n        /* \"@thirdweb-dev/contracts/extension/Royalty.sol\":3822:3842   */\n      gt\n        /* \"@thirdweb-dev/contracts/extension/Royalty.sol\":3818:3921   */\n      iszero\n      tag_588\n      jumpi\n        /* \"@thirdweb-dev/contracts/extension/Royalty.sol\":3865:3910   */\n      mload(0x40)\n      shl(0xe3, 0x0a4930ad)\n      dup2\n      mstore\n        /* \"@thirdweb-dev/contracts/extension/Royalty.sol\":3890:3896   */\n      0x2710\n        /* \"@thirdweb-dev/contracts/extension/Royalty.sol\":3865:3910   */\n      0x04\n      dup3\n      add\n        /* \"#utility.yul\":21445:21470   */\n      mstore\n        /* \"#utility.yul\":21486:21504   */\n      0x24\n      dup2\n      add\n        /* \"#utility.yul\":21479:21513   */\n      dup3\n      swap1\n      mstore\n        /* \"#utility.yul\":21418:21436   */\n      0x44\n      add\n        /* \"@thirdweb-dev/contracts/extension/Royalty.sol\":3865:3910   */\n      tag_238\n        /* \"#utility.yul\":21259:21519   */\n      jump\n        /* \"@thirdweb-dev/contracts/extension/Royalty.sol\":3818:3921   */\n    tag_588:\n        /* \"@thirdweb-dev/contracts/extension/Royalty.sol\":3931:3947   */\n      0x0a\n        /* \"@thirdweb-dev/contracts/extension/Royalty.sol\":3931:3967   */\n      dup1\n      sload\n      sub(shl(0xa0, 0x01), 0x01)\n      dup5\n      and\n        /* \"@thirdweb-dev/contracts/extension/Royalty.sol\":3977:4009   */\n      0xffffffffffffffffffff00000000000000000000000000000000000000000000\n      swap1\n      swap2\n      and\n      dup2\n      or\n      shl(0xa0, 0x01)\n      0xffff\n      dup6\n      and\n      mul\n      or\n      swap1\n      swap2\n      sstore\n        /* \"@thirdweb-dev/contracts/extension/Royalty.sol\":4025:4071   */\n      mload(0x40)\n        /* \"#utility.yul\":3836:3861   */\n      dup3\n      dup2\n      mstore\n        /* \"@thirdweb-dev/contracts/extension/Royalty.sol\":4025:4071   */\n      0x90d7ec04bcb8978719414f82e52e4cb651db41d0e6f8cea6118c2191e6183adb\n      swap1\n        /* \"#utility.yul\":3824:3826   */\n      0x20\n        /* \"#utility.yul\":3809:3827   */\n      add\n        /* \"@thirdweb-dev/contracts/extension/Royalty.sol\":4025:4071   */\n      mload(0x40)\n      dup1\n      swap2\n      sub\n      swap1\n      log2\n        /* \"@thirdweb-dev/contracts/extension/Royalty.sol\":3717:4078   */\n      pop\n      pop\n      jump\t// out\n        /* \"@thirdweb-dev/contracts/eip/ERC721AVirtualApprove.sol\":4713:5887   */\n    tag_353:\n      0x40\n      dup1\n      mload\n      0x60\n      dup2\n      add\n      dup3\n      mstore\n      0x00\n      dup1\n      dup3\n      mstore\n      0x20\n      dup3\n      add\n      dup2\n      swap1\n      mstore\n      swap2\n      dup2\n      add\n      swap2\n      swap1\n      swap2\n      mstore\n        /* \"@thirdweb-dev/contracts/eip/ERC721AVirtualApprove.sol\":4823:4830   */\n      dup2\n        /* \"@thirdweb-dev/contracts/eip/ERC721AVirtualApprove.sol\":4921:4934   */\n      sload(0x00)\n        /* \"@thirdweb-dev/contracts/eip/ERC721AVirtualApprove.sol\":4914:4918   */\n      dup2\n        /* \"@thirdweb-dev/contracts/eip/ERC721AVirtualApprove.sol\":4914:4934   */\n      lt\n        /* \"@thirdweb-dev/contracts/eip/ERC721AVirtualApprove.sol\":4910:5823   */\n      iszero\n      tag_596\n      jumpi\n        /* \"@thirdweb-dev/contracts/eip/ERC721AVirtualApprove.sol\":4958:4989   */\n      0x00\n        /* \"@thirdweb-dev/contracts/eip/ERC721AVirtualApprove.sol\":4992:5009   */\n      dup2\n      dup2\n      mstore\n        /* \"@thirdweb-dev/contracts/eip/ERC721AVirtualApprove.sol\":4992:5003   */\n      0x04\n        /* \"@thirdweb-dev/contracts/eip/ERC721AVirtualApprove.sol\":4992:5009   */\n      0x20\n      swap1\n      dup2\n      mstore\n      0x40\n      swap2\n      dup3\n      swap1\n      keccak256\n        /* \"@thirdweb-dev/contracts/eip/ERC721AVirtualApprove.sol\":4958:5009   */\n      dup3\n      mload\n      0x60\n      dup2\n      add\n      dup5\n      mstore\n      swap1\n      sload\n      sub(shl(0xa0, 0x01), 0x01)\n      dup2\n      and\n      dup3\n      mstore\n      shl(0xa0, 0x01)\n      dup2\n      div\n      0xffffffffffffffff\n      and\n      swap3\n      dup3\n      add\n      swap3\n      swap1\n      swap3\n      mstore\n      shl(0xe0, 0x01)\n      swap1\n      swap2\n      div\n      0xff\n      and\n      iszero\n      iszero\n      swap2\n      dup2\n      add\n      dup3\n      swap1\n      mstore\n      swap1\n        /* \"@thirdweb-dev/contracts/eip/ERC721AVirtualApprove.sol\":5031:5805   */\n      tag_600\n      jumpi\n        /* \"@thirdweb-dev/contracts/eip/ERC721AVirtualApprove.sol\":5084:5098   */\n      dup1\n      mload\n      sub(shl(0xa0, 0x01), 0x01)\n        /* \"@thirdweb-dev/contracts/eip/ERC721AVirtualApprove.sol\":5084:5112   */\n      and\n      iszero\n        /* \"@thirdweb-dev/contracts/eip/ERC721AVirtualApprove.sol\":5080:5187   */\n      tag_598\n      jumpi\n        /* \"@thirdweb-dev/contracts/eip/ERC721AVirtualApprove.sol\":5151:5160   */\n      swap4\n        /* \"@thirdweb-dev/contracts/eip/ERC721AVirtualApprove.sol\":4713:5887   */\n      swap3\n      pop\n      pop\n      pop\n      jump\t// out\n        /* \"@thirdweb-dev/contracts/eip/ERC721AVirtualApprove.sol\":5080:5187   */\n    tag_598:\n      pop\n      not(0x00)\n        /* \"@thirdweb-dev/contracts/eip/ERC721AVirtualApprove.sol\":5547:5553   */\n      add\n        /* \"@thirdweb-dev/contracts/eip/ERC721AVirtualApprove.sol\":5595:5612   */\n      0x00\n      dup2\n      dup2\n      mstore\n        /* \"@thirdweb-dev/contracts/eip/ERC721AVirtualApprove.sol\":5595:5606   */\n      0x04\n        /* \"@thirdweb-dev/contracts/eip/ERC721AVirtualApprove.sol\":5595:5612   */\n      0x20\n      swap1\n      dup2\n      mstore\n      0x40\n      swap2\n      dup3\n      swap1\n      keccak256\n        /* \"@thirdweb-dev/contracts/eip/ERC721AVirtualApprove.sol\":5583:5612   */\n      dup3\n      mload\n      0x60\n      dup2\n      add\n      dup5\n      mstore\n      swap1\n      sload\n      sub(shl(0xa0, 0x01), 0x01)\n      dup2\n      and\n      dup1\n      dup4\n      mstore\n      shl(0xa0, 0x01)\n      dup3\n      div\n      0xffffffffffffffff\n      and\n      swap4\n      dup4\n      add\n      swap4\n      swap1\n      swap4\n      mstore\n      shl(0xe0, 0x01)\n      swap1\n      div\n      0xff\n      and\n      iszero\n      iszero\n      swap3\n      dup2\n      add\n      swap3\n      swap1\n      swap3\n      mstore\n        /* \"@thirdweb-dev/contracts/eip/ERC721AVirtualApprove.sol\":5646:5674   */\n      iszero\n        /* \"@thirdweb-dev/contracts/eip/ERC721AVirtualApprove.sol\":5642:5757   */\n      tag_601\n      jumpi\n        /* \"@thirdweb-dev/contracts/eip/ERC721AVirtualApprove.sol\":5717:5726   */\n      swap4\n        /* \"@thirdweb-dev/contracts/eip/ERC721AVirtualApprove.sol\":4713:5887   */\n      swap3\n      pop\n      pop\n      pop\n      jump\t// out\n        /* \"@thirdweb-dev/contracts/eip/ERC721AVirtualApprove.sol\":5642:5757   */\n    tag_601:\n        /* \"@thirdweb-dev/contracts/eip/ERC721AVirtualApprove.sol\":5504:5783   */\n      jump(tag_598)\n    tag_600:\n        /* \"@thirdweb-dev/contracts/eip/ERC721AVirtualApprove.sol\":4936:5823   */\n      pop\n        /* \"@thirdweb-dev/contracts/eip/ERC721AVirtualApprove.sol\":4910:5823   */\n    tag_596:\n        /* \"@thirdweb-dev/contracts/eip/ERC721AVirtualApprove.sol\":5849:5880   */\n      mload(0x40)\n      shl(0xe1, 0x6f96cda1)\n      dup2\n      mstore\n      0x04\n      add\n      mload(0x40)\n      dup1\n      swap2\n      sub\n      swap1\n      revert\n        /* \"@thirdweb-dev/contracts/eip/ERC721AVirtualApprove.sol\":15609:15696   */\n    tag_361:\n        /* \"@thirdweb-dev/contracts/eip/ERC721AVirtualApprove.sol\":15668:15689   */\n      tag_275\n        /* \"@thirdweb-dev/contracts/eip/ERC721AVirtualApprove.sol\":15674:15681   */\n      dup2\n        /* \"@thirdweb-dev/contracts/eip/ERC721AVirtualApprove.sol\":15683:15688   */\n      0x00\n        /* \"@thirdweb-dev/contracts/eip/ERC721AVirtualApprove.sol\":15668:15673   */\n      tag_319\n        /* \"@thirdweb-dev/contracts/eip/ERC721AVirtualApprove.sol\":15668:15689   */\n      jump\t// in\n        /* \"@thirdweb-dev/contracts/extension/BatchMintMetadata.sol\":4992:5354   */\n    tag_377:\n        /* \"@thirdweb-dev/contracts/extension/BatchMintMetadata.sol\":5142:5167   */\n      0x00\n      dup1\n        /* \"@thirdweb-dev/contracts/extension/BatchMintMetadata.sol\":5206:5230   */\n      tag_605\n        /* \"@thirdweb-dev/contracts/extension/BatchMintMetadata.sol\":5217:5230   */\n      dup5\n        /* \"@thirdweb-dev/contracts/extension/BatchMintMetadata.sol\":5206:5214   */\n      dup7\n        /* \"@thirdweb-dev/contracts/extension/BatchMintMetadata.sol\":5206:5230   */\n      tag_606\n      jump\t// in\n    tag_605:\n        /* \"@thirdweb-dev/contracts/extension/BatchMintMetadata.sol\":5278:5286   */\n      0x0c\n        /* \"@thirdweb-dev/contracts/extension/BatchMintMetadata.sol\":5278:5300   */\n      dup1\n      sload\n      0x01\n      dup2\n      add\n      swap1\n      swap2\n      sstore\n      0xdf6966c971051c3d54ec59162606531493a51404a002842f56009d7e5cf4a8c7\n      add\n      dup2\n      swap1\n      sstore\n      0x00\n        /* \"@thirdweb-dev/contracts/extension/BatchMintMetadata.sol\":5311:5327   */\n      dup2\n      dup2\n      mstore\n        /* \"@thirdweb-dev/contracts/extension/BatchMintMetadata.sol\":5311:5318   */\n      0x0d\n        /* \"@thirdweb-dev/contracts/extension/BatchMintMetadata.sol\":5278:5300   */\n      0x20\n        /* \"@thirdweb-dev/contracts/extension/BatchMintMetadata.sol\":5311:5327   */\n      mstore\n      0x40\n      swap1\n      keccak256\n        /* \"@thirdweb-dev/contracts/extension/BatchMintMetadata.sol\":5196:5230   */\n      swap1\n      swap3\n      pop\n      dup3\n      swap2\n      pop\n        /* \"@thirdweb-dev/contracts/extension/BatchMintMetadata.sol\":5311:5347   */\n      tag_608\n        /* \"@thirdweb-dev/contracts/extension/BatchMintMetadata.sol\":5330:5347   */\n      dup5\n        /* \"@thirdweb-dev/contracts/extension/BatchMintMetadata.sol\":5311:5327   */\n      dup3\n        /* \"@thirdweb-dev/contracts/extension/BatchMintMetadata.sol\":5311:5347   */\n      tag_520\n      jump\t// in\n    tag_608:\n      pop\n        /* \"@thirdweb-dev/contracts/extension/BatchMintMetadata.sol\":4992:5354   */\n      swap4\n      pop\n      swap4\n      swap2\n      pop\n      pop\n      jump\t// out\n        /* \"@thirdweb-dev/contracts/extension/ContractMetadata.sol\":1393:1578   */\n    tag_400:\n        /* \"@thirdweb-dev/contracts/extension/ContractMetadata.sol\":1459:1480   */\n      0x00\n        /* \"@thirdweb-dev/contracts/extension/ContractMetadata.sol\":1483:1494   */\n      0x08\n        /* \"@thirdweb-dev/contracts/extension/ContractMetadata.sol\":1459:1494   */\n      dup1\n      sload\n      tag_612\n      swap1\n      tag_251\n      jump\t// in\n    tag_612:\n      dup1\n      0x1f\n      add\n      0x20\n      dup1\n      swap2\n      div\n      mul\n      0x20\n      add\n      mload(0x40)\n      swap1\n      dup2\n      add\n      0x40\n      mstore\n      dup1\n      swap3\n      swap2\n      swap1\n      dup2\n      dup2\n      mstore\n      0x20\n      add\n      dup3\n      dup1\n      sload\n      tag_613\n      swap1\n      tag_251\n      jump\t// in\n    tag_613:\n      dup1\n      iszero\n      tag_614\n      jumpi\n      dup1\n      0x1f\n      lt\n      tag_615\n      jumpi\n      0x0100\n      dup1\n      dup4\n      sload\n      div\n      mul\n      dup4\n      mstore\n      swap2\n      0x20\n      add\n      swap2\n      jump(tag_614)\n    tag_615:\n      dup3\n      add\n      swap2\n      swap1\n      0x00\n      mstore\n      keccak256(0x00, 0x20)\n      swap1\n    tag_616:\n      dup2\n      sload\n      dup2\n      mstore\n      swap1\n      0x01\n      add\n      swap1\n      0x20\n      add\n      dup1\n      dup4\n      gt\n      tag_616\n      jumpi\n      dup3\n      swap1\n      sub\n      0x1f\n      and\n      dup3\n      add\n      swap2\n    tag_614:\n      pop\n      pop\n      pop\n      pop\n      pop\n      swap1\n      pop\n        /* \"@thirdweb-dev/contracts/extension/ContractMetadata.sol\":1518:1522   */\n      dup2\n        /* \"@thirdweb-dev/contracts/extension/ContractMetadata.sol\":1504:1515   */\n      0x08\n        /* \"@thirdweb-dev/contracts/extension/ContractMetadata.sol\":1504:1522   */\n      swap1\n      dup2\n      tag_617\n      swap2\n      swap1\n      tag_520\n      jump\t// in\n    tag_617:\n      pop\n        /* \"@thirdweb-dev/contracts/extension/ContractMetadata.sol\":1538:1571   */\n      0xc9c7c3fe08b88b4df9d4d47ef47d2c43d55c025a0ba88ca442580ed9e7348a16\n        /* \"@thirdweb-dev/contracts/extension/ContractMetadata.sol\":1557:1564   */\n      dup2\n        /* \"@thirdweb-dev/contracts/extension/ContractMetadata.sol\":1566:1570   */\n      dup4\n        /* \"@thirdweb-dev/contracts/extension/ContractMetadata.sol\":1538:1571   */\n      mload(0x40)\n      tag_618\n      swap3\n      swap2\n      swap1\n      tag_619\n      jump\t// in\n    tag_618:\n      mload(0x40)\n      dup1\n      swap2\n      sub\n      swap1\n      log1\n        /* \"@thirdweb-dev/contracts/extension/ContractMetadata.sol\":1449:1578   */\n      pop\n        /* \"@thirdweb-dev/contracts/extension/ContractMetadata.sol\":1393:1578   */\n      pop\n      jump\t// out\n        /* \"@thirdweb-dev/contracts/extension/Royalty.sol\":4959:5311   */\n    tag_442:\n        /* \"@thirdweb-dev/contracts/extension/Royalty.sol\":5076:5082   */\n      0x2710\n        /* \"@thirdweb-dev/contracts/extension/Royalty.sol\":5069:5073   */\n      dup2\n        /* \"@thirdweb-dev/contracts/extension/Royalty.sol\":5069:5082   */\n      gt\n        /* \"@thirdweb-dev/contracts/extension/Royalty.sol\":5065:5154   */\n      iszero\n      tag_621\n      jumpi\n        /* \"@thirdweb-dev/contracts/extension/Royalty.sol\":5105:5143   */\n      mload(0x40)\n      shl(0xe3, 0x0a4930ad)\n      dup2\n      mstore\n        /* \"@thirdweb-dev/contracts/extension/Royalty.sol\":5130:5136   */\n      0x2710\n        /* \"@thirdweb-dev/contracts/extension/Royalty.sol\":5105:5143   */\n      0x04\n      dup3\n      add\n        /* \"#utility.yul\":21445:21470   */\n      mstore\n        /* \"#utility.yul\":21486:21504   */\n      0x24\n      dup2\n      add\n        /* \"#utility.yul\":21479:21513   */\n      dup3\n      swap1\n      mstore\n        /* \"#utility.yul\":21418:21436   */\n      0x44\n      add\n        /* \"@thirdweb-dev/contracts/extension/Royalty.sol\":5105:5143   */\n      tag_238\n        /* \"#utility.yul\":21259:21519   */\n      jump\n        /* \"@thirdweb-dev/contracts/extension/Royalty.sol\":5065:5154   */\n    tag_621:\n        /* \"@thirdweb-dev/contracts/extension/Royalty.sol\":5196:5245   */\n      0x40\n      dup1\n      mload\n      dup1\n      dup3\n      add\n      dup3\n      mstore\n      sub(shl(0xa0, 0x01), 0x01)\n      dup5\n      dup2\n      and\n      dup1\n      dup4\n      mstore\n      0x20\n      dup1\n      dup5\n      add\n      dup7\n      dup2\n      mstore\n      0x00\n        /* \"@thirdweb-dev/contracts/extension/Royalty.sol\":5164:5193   */\n      dup10\n      dup2\n      mstore\n        /* \"@thirdweb-dev/contracts/extension/Royalty.sol\":5164:5183   */\n      0x0b\n        /* \"@thirdweb-dev/contracts/extension/Royalty.sol\":5164:5193   */\n      dup4\n      mstore\n      dup7\n      swap1\n      keccak256\n        /* \"@thirdweb-dev/contracts/extension/Royalty.sol\":5164:5245   */\n      swap5\n      mload\n      dup6\n      sload\n      not(0xffffffffffffffffffffffffffffffffffffffff)\n      and\n      swap5\n      and\n      swap4\n      swap1\n      swap4\n      or\n      dup5\n      sstore\n      swap2\n      mload\n      0x01\n      swap1\n      swap4\n      add\n      swap3\n      swap1\n      swap3\n      sstore\n        /* \"@thirdweb-dev/contracts/extension/Royalty.sol\":5261:5304   */\n      swap2\n      mload\n        /* \"#utility.yul\":3836:3861   */\n      dup4\n      dup2\n      mstore\n        /* \"@thirdweb-dev/contracts/extension/Royalty.sol\":5196:5245   */\n      swap1\n      swap2\n        /* \"@thirdweb-dev/contracts/extension/Royalty.sol\":5164:5193   */\n      dup6\n      swap2\n        /* \"@thirdweb-dev/contracts/extension/Royalty.sol\":5261:5304   */\n      0x7365cf4122f072a3365c20d54eff9b38d73c096c28e1892ec8f5b0e403a0f12d\n      swap2\n        /* \"#utility.yul\":3809:3827   */\n      add\n        /* \"@thirdweb-dev/contracts/extension/Royalty.sol\":5261:5304   */\n      mload(0x40)\n      dup1\n      swap2\n      sub\n      swap1\n      log3\n        /* \"@thirdweb-dev/contracts/extension/Royalty.sol\":4959:5311   */\n      pop\n      pop\n      pop\n      jump\t// out\n        /* \"@thirdweb-dev/contracts/lib/Address.sol\":6671:6869   */\n    tag_466:\n        /* \"@thirdweb-dev/contracts/lib/Address.sol\":6754:6766   */\n      0x60\n        /* \"@thirdweb-dev/contracts/lib/Address.sol\":6785:6862   */\n      tag_413\n        /* \"@thirdweb-dev/contracts/lib/Address.sol\":6806:6812   */\n      dup4\n        /* \"@thirdweb-dev/contracts/lib/Address.sol\":6814:6818   */\n      dup4\n        /* \"@thirdweb-dev/contracts/lib/Address.sol\":6785:6862   */\n      mload(0x40)\n      dup1\n      0x60\n      add\n      0x40\n      mstore\n      dup1\n      0x27\n      dup2\n      mstore\n      0x20\n      add\n      data_9fdcd12e4b726339b32a442b0a448365d5d85c96b2d2cff917b4f66c63110398\n      0x27\n      swap2\n      codecopy\n        /* \"@thirdweb-dev/contracts/lib/Address.sol\":6785:6805   */\n      tag_626\n        /* \"@thirdweb-dev/contracts/lib/Address.sol\":6785:6862   */\n      jump\t// in\n        /* \"@thirdweb-dev/contracts/eip/ERC721AVirtualApprove.sol\":19019:19669   */\n    tag_483:\n        /* \"@thirdweb-dev/contracts/eip/ERC721AVirtualApprove.sol\":19197:19269   */\n      mload(0x40)\n      shl(0xe1, 0x0a85bd01)\n      dup2\n      mstore\n        /* \"@thirdweb-dev/contracts/eip/ERC721AVirtualApprove.sol\":19177:19181   */\n      0x00\n      swap1\n      sub(shl(0xa0, 0x01), 0x01)\n        /* \"@thirdweb-dev/contracts/eip/ERC721AVirtualApprove.sol\":19197:19233   */\n      dup6\n      and\n      swap1\n      0x150b7a02\n      swap1\n        /* \"@thirdweb-dev/contracts/eip/ERC721AVirtualApprove.sol\":19197:19269   */\n      tag_630\n      swap1\n        /* \"@thirdweb-dev/contracts/base/ERC721Base.sol\":8521:8531   */\n      caller\n      swap1\n        /* \"@thirdweb-dev/contracts/eip/ERC721AVirtualApprove.sol\":19248:19252   */\n      dup10\n      swap1\n        /* \"@thirdweb-dev/contracts/eip/ERC721AVirtualApprove.sol\":19254:19261   */\n      dup9\n      swap1\n        /* \"@thirdweb-dev/contracts/eip/ERC721AVirtualApprove.sol\":19263:19268   */\n      dup9\n      swap1\n        /* \"@thirdweb-dev/contracts/eip/ERC721AVirtualApprove.sol\":19197:19269   */\n      0x04\n      add\n      tag_631\n      jump\t// in\n    tag_630:\n      0x20\n      mload(0x40)\n      dup1\n      dup4\n      sub\n      dup2\n      0x00\n      dup8\n      gas\n      call\n      swap3\n      pop\n      pop\n      pop\n      dup1\n      iszero\n      tag_632\n      jumpi\n      pop\n      0x40\n      dup1\n      mload\n      0x1f\n      returndatasize\n      swap1\n      dup2\n      add\n      not(0x1f)\n      and\n      dup3\n      add\n      swap1\n      swap3\n      mstore\n      tag_633\n      swap2\n      dup2\n      add\n      swap1\n      tag_634\n      jump\t// in\n    tag_633:\n      0x01\n    tag_632:\n        /* \"@thirdweb-dev/contracts/eip/ERC721AVirtualApprove.sol\":19193:19663   */\n      tag_635\n      jumpi\n      returndatasize\n      dup1\n      dup1\n      iszero\n      tag_640\n      jumpi\n      mload(0x40)\n      swap2\n      pop\n      and(add(returndatasize, 0x3f), not(0x1f))\n      dup3\n      add\n      0x40\n      mstore\n      returndatasize\n      dup3\n      mstore\n      returndatasize\n      0x00\n      0x20\n      dup5\n      add\n      returndatacopy\n      jump(tag_639)\n    tag_640:\n      0x60\n      swap2\n      pop\n    tag_639:\n      pop\n        /* \"@thirdweb-dev/contracts/eip/ERC721AVirtualApprove.sol\":19428:19434   */\n      dup1\n        /* \"@thirdweb-dev/contracts/eip/ERC721AVirtualApprove.sol\":19428:19441   */\n      mload\n        /* \"@thirdweb-dev/contracts/eip/ERC721AVirtualApprove.sol\":19445:19446   */\n      0x00\n        /* \"@thirdweb-dev/contracts/eip/ERC721AVirtualApprove.sol\":19428:19446   */\n      sub\n        /* \"@thirdweb-dev/contracts/eip/ERC721AVirtualApprove.sol\":19424:19653   */\n      tag_641\n      jumpi\n        /* \"@thirdweb-dev/contracts/eip/ERC721AVirtualApprove.sol\":19473:19513   */\n      mload(0x40)\n      shl(0xe1, 0x68d2bf6b)\n      dup2\n      mstore\n      0x04\n      add\n      mload(0x40)\n      dup1\n      swap2\n      sub\n      swap1\n      revert\n        /* \"@thirdweb-dev/contracts/eip/ERC721AVirtualApprove.sol\":19424:19653   */\n    tag_641:\n        /* \"@thirdweb-dev/contracts/eip/ERC721AVirtualApprove.sol\":19613:19619   */\n      dup1\n        /* \"@thirdweb-dev/contracts/eip/ERC721AVirtualApprove.sol\":19607:19620   */\n      mload\n        /* \"@thirdweb-dev/contracts/eip/ERC721AVirtualApprove.sol\":19598:19604   */\n      dup2\n        /* \"@thirdweb-dev/contracts/eip/ERC721AVirtualApprove.sol\":19594:19596   */\n      0x20\n        /* \"@thirdweb-dev/contracts/eip/ERC721AVirtualApprove.sol\":19590:19605   */\n      add\n        /* \"@thirdweb-dev/contracts/eip/ERC721AVirtualApprove.sol\":19583:19621   */\n      revert\n        /* \"@thirdweb-dev/contracts/eip/ERC721AVirtualApprove.sol\":19193:19663   */\n    tag_635:\n      not(sub(shl(0xe0, 0x01), 0x01))\n        /* \"@thirdweb-dev/contracts/eip/ERC721AVirtualApprove.sol\":19315:19370   */\n      and\n      shl(0xe1, 0x0a85bd01)\n      eq\n      swap1\n      pop\n        /* \"@thirdweb-dev/contracts/eip/ERC721AVirtualApprove.sol\":19019:19669   */\n      swap5\n      swap4\n      pop\n      pop\n      pop\n      pop\n      jump\t// out\n        /* \"@thirdweb-dev/contracts/extension/BatchMintMetadata.sol\":3185:3591   */\n    tag_501:\n        /* \"@thirdweb-dev/contracts/extension/BatchMintMetadata.sol\":3247:3260   */\n      0x60\n        /* \"@thirdweb-dev/contracts/extension/BatchMintMetadata.sol\":3272:3297   */\n      0x00\n        /* \"@thirdweb-dev/contracts/extension/BatchMintMetadata.sol\":3300:3317   */\n      tag_645\n        /* \"@thirdweb-dev/contracts/extension/BatchMintMetadata.sol\":2035:2043   */\n      0x0c\n        /* \"@thirdweb-dev/contracts/extension/BatchMintMetadata.sol\":2035:2050   */\n      sload\n      swap1\n        /* \"@thirdweb-dev/contracts/extension/BatchMintMetadata.sol\":1961:2057   */\n      jump\n        /* \"@thirdweb-dev/contracts/extension/BatchMintMetadata.sol\":3300:3317   */\n    tag_645:\n        /* \"@thirdweb-dev/contracts/extension/BatchMintMetadata.sol\":3272:3317   */\n      swap1\n      pop\n        /* \"@thirdweb-dev/contracts/extension/BatchMintMetadata.sol\":3327:3351   */\n      0x00\n        /* \"@thirdweb-dev/contracts/extension/BatchMintMetadata.sol\":3354:3362   */\n      0x0c\n        /* \"@thirdweb-dev/contracts/extension/BatchMintMetadata.sol\":3327:3362   */\n      dup1\n      sload\n      dup1\n      0x20\n      mul\n      0x20\n      add\n      mload(0x40)\n      swap1\n      dup2\n      add\n      0x40\n      mstore\n      dup1\n      swap3\n      swap2\n      swap1\n      dup2\n      dup2\n      mstore\n      0x20\n      add\n      dup3\n      dup1\n      sload\n      dup1\n      iszero\n      tag_646\n      jumpi\n      0x20\n      mul\n      dup3\n      add\n      swap2\n      swap1\n      0x00\n      mstore\n      keccak256(0x00, 0x20)\n      swap1\n    tag_647:\n      dup2\n      sload\n      dup2\n      mstore\n      0x20\n      add\n      swap1\n      0x01\n      add\n      swap1\n      dup1\n      dup4\n      gt\n      tag_647\n      jumpi\n    tag_646:\n      pop\n      pop\n      pop\n      pop\n      pop\n      swap1\n      pop\n        /* \"@thirdweb-dev/contracts/extension/BatchMintMetadata.sol\":3378:3387   */\n      0x00\n        /* \"@thirdweb-dev/contracts/extension/BatchMintMetadata.sol\":3373:3534   */\n    tag_648:\n        /* \"@thirdweb-dev/contracts/extension/BatchMintMetadata.sol\":3397:3414   */\n      dup3\n        /* \"@thirdweb-dev/contracts/extension/BatchMintMetadata.sol\":3393:3394   */\n      dup2\n        /* \"@thirdweb-dev/contracts/extension/BatchMintMetadata.sol\":3393:3414   */\n      lt\n        /* \"@thirdweb-dev/contracts/extension/BatchMintMetadata.sol\":3373:3534   */\n      iszero\n      tag_649\n      jumpi\n        /* \"@thirdweb-dev/contracts/extension/BatchMintMetadata.sol\":3453:3460   */\n      dup2\n        /* \"@thirdweb-dev/contracts/extension/BatchMintMetadata.sol\":3461:3462   */\n      dup2\n        /* \"@thirdweb-dev/contracts/extension/BatchMintMetadata.sol\":3453:3463   */\n      dup2\n      mload\n      dup2\n      lt\n      tag_652\n      jumpi\n      tag_652\n      tag_306\n      jump\t// in\n    tag_652:\n      0x20\n      mul\n      0x20\n      add\n      add\n      mload\n        /* \"@thirdweb-dev/contracts/extension/BatchMintMetadata.sol\":3442:3450   */\n      dup6\n        /* \"@thirdweb-dev/contracts/extension/BatchMintMetadata.sol\":3442:3463   */\n      lt\n        /* \"@thirdweb-dev/contracts/extension/BatchMintMetadata.sol\":3438:3524   */\n      iszero\n      tag_653\n      jumpi\n        /* \"@thirdweb-dev/contracts/extension/BatchMintMetadata.sol\":3490:3497   */\n      0x0d\n        /* \"@thirdweb-dev/contracts/extension/BatchMintMetadata.sol\":3490:3509   */\n      0x00\n        /* \"@thirdweb-dev/contracts/extension/BatchMintMetadata.sol\":3498:3505   */\n      dup4\n        /* \"@thirdweb-dev/contracts/extension/BatchMintMetadata.sol\":3506:3507   */\n      dup4\n        /* \"@thirdweb-dev/contracts/extension/BatchMintMetadata.sol\":3498:3508   */\n      dup2\n      mload\n      dup2\n      lt\n      tag_655\n      jumpi\n      tag_655\n      tag_306\n      jump\t// in\n    tag_655:\n      0x20\n      mul\n      0x20\n      add\n      add\n      mload\n        /* \"@thirdweb-dev/contracts/extension/BatchMintMetadata.sol\":3490:3509   */\n      dup2\n      mstore\n      0x20\n      add\n      swap1\n      dup2\n      mstore\n      0x20\n      add\n      0x00\n      keccak256\n        /* \"@thirdweb-dev/contracts/extension/BatchMintMetadata.sol\":3483:3509   */\n      dup1\n      sload\n      tag_656\n      swap1\n      tag_251\n      jump\t// in\n    tag_656:\n      dup1\n      0x1f\n      add\n      0x20\n      dup1\n      swap2\n      div\n      mul\n      0x20\n      add\n      mload(0x40)\n      swap1\n      dup2\n      add\n      0x40\n      mstore\n      dup1\n      swap3\n      swap2\n      swap1\n      dup2\n      dup2\n      mstore\n      0x20\n      add\n      dup3\n      dup1\n      sload\n      tag_657\n      swap1\n      tag_251\n      jump\t// in\n    tag_657:\n      dup1\n      iszero\n      tag_658\n      jumpi\n      dup1\n      0x1f\n      lt\n      tag_659\n      jumpi\n      0x0100\n      dup1\n      dup4\n      sload\n      div\n      mul\n      dup4\n      mstore\n      swap2\n      0x20\n      add\n      swap2\n      jump(tag_658)\n    tag_659:\n      dup3\n      add\n      swap2\n      swap1\n      0x00\n      mstore\n      keccak256(0x00, 0x20)\n      swap1\n    tag_660:\n      dup2\n      sload\n      dup2\n      mstore\n      swap1\n      0x01\n      add\n      swap1\n      0x20\n      add\n      dup1\n      dup4\n      gt\n      tag_660\n      jumpi\n      dup3\n      swap1\n      sub\n      0x1f\n      and\n      dup3\n      add\n      swap2\n    tag_658:\n      pop\n      pop\n      pop\n      pop\n      pop\n      swap4\n      pop\n      pop\n      pop\n      pop\n        /* \"@thirdweb-dev/contracts/extension/BatchMintMetadata.sol\":3185:3591   */\n      swap2\n      swap1\n      pop\n      jump\t// out\n        /* \"@thirdweb-dev/contracts/extension/BatchMintMetadata.sol\":3438:3524   */\n    tag_653:\n        /* \"@thirdweb-dev/contracts/extension/BatchMintMetadata.sol\":3416:3422   */\n      tag_661\n        /* \"@thirdweb-dev/contracts/extension/BatchMintMetadata.sol\":3421:3422   */\n      0x01\n        /* \"@thirdweb-dev/contracts/extension/BatchMintMetadata.sol\":3416:3422   */\n      dup3\n      tag_606\n      jump\t// in\n    tag_661:\n      swap1\n      pop\n        /* \"@thirdweb-dev/contracts/extension/BatchMintMetadata.sol\":3373:3534   */\n      jump(tag_648)\n    tag_649:\n      pop\n        /* \"@thirdweb-dev/contracts/extension/BatchMintMetadata.sol\":3551:3584   */\n      mload(0x40)\n      shl(0xe2, 0x09797f69)\n      dup2\n      mstore\n      0x04\n      dup2\n      add\n        /* \"#utility.yul\":3836:3861   */\n      dup6\n      swap1\n      mstore\n        /* \"#utility.yul\":3809:3827   */\n      0x24\n      add\n        /* \"@thirdweb-dev/contracts/extension/BatchMintMetadata.sol\":3551:3584   */\n      tag_238\n        /* \"#utility.yul\":3690:3867   */\n      jump\n        /* \"@thirdweb-dev/contracts/lib/Strings.sol\":303:1006   */\n    tag_503:\n        /* \"@thirdweb-dev/contracts/lib/Strings.sol\":359:372   */\n      0x60\n        /* \"@thirdweb-dev/contracts/lib/Strings.sol\":576:581   */\n      dup2\n        /* \"@thirdweb-dev/contracts/lib/Strings.sol\":585:586   */\n      0x00\n        /* \"@thirdweb-dev/contracts/lib/Strings.sol\":576:586   */\n      sub\n        /* \"@thirdweb-dev/contracts/lib/Strings.sol\":572:623   */\n      tag_664\n      jumpi\n      pop\n      pop\n        /* \"@thirdweb-dev/contracts/lib/Strings.sol\":602:612   */\n      0x40\n      dup1\n      mload\n      dup1\n      dup3\n      add\n      swap1\n      swap2\n      mstore\n      0x01\n      dup2\n      mstore\n      shl(0xfc, 0x03)\n      0x20\n      dup3\n      add\n      mstore\n      swap1\n        /* \"@thirdweb-dev/contracts/lib/Strings.sol\":303:1006   */\n      jump\t// out\n        /* \"@thirdweb-dev/contracts/lib/Strings.sol\":572:623   */\n    tag_664:\n        /* \"@thirdweb-dev/contracts/lib/Strings.sol\":647:652   */\n      dup2\n        /* \"@thirdweb-dev/contracts/lib/Strings.sol\":632:644   */\n      0x00\n        /* \"@thirdweb-dev/contracts/lib/Strings.sol\":686:761   */\n    tag_665:\n        /* \"@thirdweb-dev/contracts/lib/Strings.sol\":693:702   */\n      dup2\n      iszero\n        /* \"@thirdweb-dev/contracts/lib/Strings.sol\":686:761   */\n      tag_666\n      jumpi\n        /* \"@thirdweb-dev/contracts/lib/Strings.sol\":718:726   */\n      dup1\n      tag_667\n      dup2\n      tag_412\n      jump\t// in\n    tag_667:\n      swap2\n      pop\n        /* \"@thirdweb-dev/contracts/lib/Strings.sol\":740:750   */\n      tag_668\n      swap1\n      pop\n        /* \"@thirdweb-dev/contracts/lib/Strings.sol\":748:750   */\n      0x0a\n        /* \"@thirdweb-dev/contracts/lib/Strings.sol\":740:750   */\n      dup4\n      tag_313\n      jump\t// in\n    tag_668:\n      swap2\n      pop\n        /* \"@thirdweb-dev/contracts/lib/Strings.sol\":686:761   */\n      jump(tag_665)\n    tag_666:\n        /* \"@thirdweb-dev/contracts/lib/Strings.sol\":770:789   */\n      0x00\n        /* \"@thirdweb-dev/contracts/lib/Strings.sol\":802:808   */\n      dup2\n        /* \"@thirdweb-dev/contracts/lib/Strings.sol\":792:809   */\n      0xffffffffffffffff\n      dup2\n      gt\n      iszero\n      tag_670\n      jumpi\n      tag_670\n      tag_332\n      jump\t// in\n    tag_670:\n      mload(0x40)\n      swap1\n      dup1\n      dup3\n      mstore\n      dup1\n      0x1f\n      add\n      not(0x1f)\n      and\n      0x20\n      add\n      dup3\n      add\n      0x40\n      mstore\n      dup1\n      iszero\n      tag_671\n      jumpi\n      0x20\n      dup3\n      add\n      dup2\n      dup1\n      calldatasize\n      dup4\n      calldatacopy\n      add\n      swap1\n      pop\n    tag_671:\n      pop\n        /* \"@thirdweb-dev/contracts/lib/Strings.sol\":770:809   */\n      swap1\n      pop\n        /* \"@thirdweb-dev/contracts/lib/Strings.sol\":819:969   */\n    tag_672:\n        /* \"@thirdweb-dev/contracts/lib/Strings.sol\":826:836   */\n      dup5\n      iszero\n        /* \"@thirdweb-dev/contracts/lib/Strings.sol\":819:969   */\n      tag_324\n      jumpi\n        /* \"@thirdweb-dev/contracts/lib/Strings.sol\":852:863   */\n      tag_674\n        /* \"@thirdweb-dev/contracts/lib/Strings.sol\":862:863   */\n      0x01\n        /* \"@thirdweb-dev/contracts/lib/Strings.sol\":852:863   */\n      dup4\n      tag_675\n      jump\t// in\n    tag_674:\n      swap2\n      pop\n        /* \"@thirdweb-dev/contracts/lib/Strings.sol\":920:930   */\n      tag_676\n        /* \"@thirdweb-dev/contracts/lib/Strings.sol\":928:930   */\n      0x0a\n        /* \"@thirdweb-dev/contracts/lib/Strings.sol\":920:925   */\n      dup7\n        /* \"@thirdweb-dev/contracts/lib/Strings.sol\":920:930   */\n      tag_677\n      jump\t// in\n    tag_676:\n        /* \"@thirdweb-dev/contracts/lib/Strings.sol\":907:931   */\n      tag_678\n      swap1\n        /* \"@thirdweb-dev/contracts/lib/Strings.sol\":907:909   */\n      0x30\n        /* \"@thirdweb-dev/contracts/lib/Strings.sol\":907:931   */\n      tag_606\n      jump\t// in\n    tag_678:\n        /* \"@thirdweb-dev/contracts/lib/Strings.sol\":894:933   */\n      0xf8\n      shl\n        /* \"@thirdweb-dev/contracts/lib/Strings.sol\":877:883   */\n      dup2\n        /* \"@thirdweb-dev/contracts/lib/Strings.sol\":884:890   */\n      dup4\n        /* \"@thirdweb-dev/contracts/lib/Strings.sol\":877:891   */\n      dup2\n      mload\n      dup2\n      lt\n      tag_680\n      jumpi\n      tag_680\n      tag_306\n      jump\t// in\n    tag_680:\n      0x20\n      add\n      add\n        /* \"@thirdweb-dev/contracts/lib/Strings.sol\":877:933   */\n      swap1\n      not(0xffffffffffffffffffffffffffffffffffffffffffffffffffffffffffffff)\n      and\n      swap1\n      dup2\n      0x00\n      byte\n      swap1\n      mstore8\n      pop\n        /* \"@thirdweb-dev/contracts/lib/Strings.sol\":947:958   */\n      tag_681\n        /* \"@thirdweb-dev/contracts/lib/Strings.sol\":956:958   */\n      0x0a\n        /* \"@thirdweb-dev/contracts/lib/Strings.sol\":947:958   */\n      dup7\n      tag_313\n      jump\t// in\n    tag_681:\n      swap5\n      pop\n        /* \"@thirdweb-dev/contracts/lib/Strings.sol\":819:969   */\n      jump(tag_672)\n        /* \"@thirdweb-dev/contracts/lib/Address.sol\":7055:7380   */\n    tag_626:\n        /* \"@thirdweb-dev/contracts/lib/Address.sol\":7196:7208   */\n      0x60\n        /* \"@thirdweb-dev/contracts/lib/Address.sol\":7221:7233   */\n      0x00\n        /* \"@thirdweb-dev/contracts/lib/Address.sol\":7235:7258   */\n      dup1\n        /* \"@thirdweb-dev/contracts/lib/Address.sol\":7262:7268   */\n      dup6\n      sub(shl(0xa0, 0x01), 0x01)\n        /* \"@thirdweb-dev/contracts/lib/Address.sol\":7262:7281   */\n      and\n        /* \"@thirdweb-dev/contracts/lib/Address.sol\":7282:7286   */\n      dup6\n        /* \"@thirdweb-dev/contracts/lib/Address.sol\":7262:7287   */\n      mload(0x40)\n      tag_685\n      swap2\n      swap1\n      tag_686\n      jump\t// in\n    tag_685:\n      0x00\n      mload(0x40)\n      dup1\n      dup4\n      sub\n      dup2\n      dup6\n      gas\n      delegatecall\n      swap2\n      pop\n      pop\n      returndatasize\n      dup1\n      0x00\n      dup2\n      eq\n      tag_689\n      jumpi\n      mload(0x40)\n      swap2\n      pop\n      and(add(returndatasize, 0x3f), not(0x1f))\n      dup3\n      add\n      0x40\n      mstore\n      returndatasize\n      dup3\n      mstore\n      returndatasize\n      0x00\n      0x20\n      dup5\n      add\n      returndatacopy\n      jump(tag_688)\n    tag_689:\n      0x60\n      swap2\n      pop\n    tag_688:\n      pop\n        /* \"@thirdweb-dev/contracts/lib/Address.sol\":7220:7287   */\n      swap2\n      pop\n      swap2\n      pop\n        /* \"@thirdweb-dev/contracts/lib/Address.sol\":7304:7373   */\n      tag_690\n        /* \"@thirdweb-dev/contracts/lib/Address.sol\":7331:7337   */\n      dup7\n        /* \"@thirdweb-dev/contracts/lib/Address.sol\":7339:7346   */\n      dup4\n        /* \"@thirdweb-dev/contracts/lib/Address.sol\":7348:7358   */\n      dup4\n        /* \"@thirdweb-dev/contracts/lib/Address.sol\":7360:7372   */\n      dup8\n        /* \"@thirdweb-dev/contracts/lib/Address.sol\":7304:7330   */\n      tag_691\n        /* \"@thirdweb-dev/contracts/lib/Address.sol\":7304:7373   */\n      jump\t// in\n    tag_690:\n        /* \"@thirdweb-dev/contracts/lib/Address.sol\":7297:7373   */\n      swap7\n        /* \"@thirdweb-dev/contracts/lib/Address.sol\":7055:7380   */\n      swap6\n      pop\n      pop\n      pop\n      pop\n      pop\n      pop\n      jump\t// out\n        /* \"@thirdweb-dev/contracts/lib/Address.sol\":7668:8296   */\n    tag_691:\n        /* \"@thirdweb-dev/contracts/lib/Address.sol\":7848:7860   */\n      0x60\n        /* \"@thirdweb-dev/contracts/lib/Address.sol\":7876:7883   */\n      dup4\n        /* \"@thirdweb-dev/contracts/lib/Address.sol\":7872:8290   */\n      iszero\n      tag_693\n      jumpi\n        /* \"@thirdweb-dev/contracts/lib/Address.sol\":7903:7913   */\n      dup3\n        /* \"@thirdweb-dev/contracts/lib/Address.sol\":7903:7920   */\n      mload\n        /* \"@thirdweb-dev/contracts/lib/Address.sol\":7924:7925   */\n      0x00\n        /* \"@thirdweb-dev/contracts/lib/Address.sol\":7903:7925   */\n      sub\n        /* \"@thirdweb-dev/contracts/lib/Address.sol\":7899:8185   */\n      tag_696\n      jumpi\n      sub(shl(0xa0, 0x01), 0x01)\n        /* \"@thirdweb-dev/contracts/lib/Address.sol\":1695:1714   */\n      dup6\n      and\n      extcodesize\n        /* \"@thirdweb-dev/contracts/lib/Address.sol\":8110:8170   */\n      tag_696\n      jumpi\n      mload(0x40)\n      shl(0xe5, 0x461bcd)\n      dup2\n      mstore\n        /* \"#utility.yul\":23493:23495   */\n      0x20\n        /* \"@thirdweb-dev/contracts/lib/Address.sol\":8110:8170   */\n      0x04\n      dup3\n      add\n        /* \"#utility.yul\":23475:23496   */\n      mstore\n        /* \"#utility.yul\":23532:23534   */\n      0x1d\n        /* \"#utility.yul\":23512:23530   */\n      0x24\n      dup3\n      add\n        /* \"#utility.yul\":23505:23535   */\n      mstore\n        /* \"#utility.yul\":23571:23602   */\n      0x416464726573733a2063616c6c20746f206e6f6e2d636f6e7472616374000000\n        /* \"#utility.yul\":23551:23569   */\n      0x44\n      dup3\n      add\n        /* \"#utility.yul\":23544:23603   */\n      mstore\n        /* \"#utility.yul\":23620:23638   */\n      0x64\n      add\n        /* \"@thirdweb-dev/contracts/lib/Address.sol\":8110:8170   */\n      tag_238\n        /* \"#utility.yul\":23291:23644   */\n      jump\n        /* \"@thirdweb-dev/contracts/lib/Address.sol\":8110:8170   */\n    tag_696:\n      pop\n        /* \"@thirdweb-dev/contracts/lib/Address.sol\":8205:8215   */\n      dup2\n        /* \"@thirdweb-dev/contracts/lib/Address.sol\":8198:8215   */\n      jump(tag_324)\n        /* \"@thirdweb-dev/contracts/lib/Address.sol\":7872:8290   */\n    tag_693:\n        /* \"@thirdweb-dev/contracts/lib/Address.sol\":8246:8279   */\n      tag_324\n        /* \"@thirdweb-dev/contracts/lib/Address.sol\":8254:8264   */\n      dup4\n        /* \"@thirdweb-dev/contracts/lib/Address.sol\":8266:8278   */\n      dup4\n        /* \"@thirdweb-dev/contracts/lib/Address.sol\":8977:8994   */\n      dup2\n      mload\n        /* \"@thirdweb-dev/contracts/lib/Address.sol\":8977:8998   */\n      iszero\n        /* \"@thirdweb-dev/contracts/lib/Address.sol\":8973:9352   */\n      tag_703\n      jumpi\n        /* \"@thirdweb-dev/contracts/lib/Address.sol\":9205:9215   */\n      dup2\n        /* \"@thirdweb-dev/contracts/lib/Address.sol\":9199:9216   */\n      mload\n        /* \"@thirdweb-dev/contracts/lib/Address.sol\":9261:9276   */\n      dup1\n        /* \"@thirdweb-dev/contracts/lib/Address.sol\":9248:9258   */\n      dup4\n        /* \"@thirdweb-dev/contracts/lib/Address.sol\":9244:9246   */\n      0x20\n        /* \"@thirdweb-dev/contracts/lib/Address.sol\":9240:9259   */\n      add\n        /* \"@thirdweb-dev/contracts/lib/Address.sol\":9233:9277   */\n      revert\n        /* \"@thirdweb-dev/contracts/lib/Address.sol\":8973:9352   */\n    tag_703:\n        /* \"@thirdweb-dev/contracts/lib/Address.sol\":9328:9340   */\n      dup1\n        /* \"@thirdweb-dev/contracts/lib/Address.sol\":9321:9341   */\n      mload(0x40)\n      shl(0xe5, 0x461bcd)\n      dup2\n      mstore\n      0x04\n      add\n      tag_238\n      swap2\n      swap1\n      tag_74\n      jump\t// in\n        /* \"#utility.yul\":14:168   */\n    tag_706:\n      sub(shl(0xa0, 0x01), 0x01)\n        /* \"#utility.yul\":93:98   */\n      dup2\n        /* \"#utility.yul\":89:143   */\n      and\n        /* \"#utility.yul\":82:87   */\n      dup2\n        /* \"#utility.yul\":79:144   */\n      eq\n        /* \"#utility.yul\":69:162   */\n      tag_275\n      jumpi\n        /* \"#utility.yul\":158:159   */\n      0x00\n        /* \"#utility.yul\":155:156   */\n      dup1\n        /* \"#utility.yul\":148:160   */\n      revert\n        /* \"#utility.yul\":173:300   */\n    tag_332:\n        /* \"#utility.yul\":234:244   */\n      0x4e487b71\n        /* \"#utility.yul\":229:232   */\n      0xe0\n        /* \"#utility.yul\":225:245   */\n      shl\n        /* \"#utility.yul\":222:223   */\n      0x00\n        /* \"#utility.yul\":215:246   */\n      mstore\n        /* \"#utility.yul\":265:269   */\n      0x41\n        /* \"#utility.yul\":262:263   */\n      0x04\n        /* \"#utility.yul\":255:270   */\n      mstore\n        /* \"#utility.yul\":289:293   */\n      0x24\n        /* \"#utility.yul\":286:287   */\n      0x00\n        /* \"#utility.yul\":279:294   */\n      revert\n        /* \"#utility.yul\":305:580   */\n    tag_707:\n        /* \"#utility.yul\":376:378   */\n      0x40\n        /* \"#utility.yul\":370:379   */\n      mload\n        /* \"#utility.yul\":441:443   */\n      0x1f\n        /* \"#utility.yul\":422:435   */\n      dup3\n      add\n      not(0x1f)\n        /* \"#utility.yul\":418:445   */\n      and\n        /* \"#utility.yul\":406:446   */\n      dup2\n      add\n        /* \"#utility.yul\":476:494   */\n      0xffffffffffffffff\n        /* \"#utility.yul\":461:495   */\n      dup2\n      gt\n        /* \"#utility.yul\":497:519   */\n      dup3\n      dup3\n      lt\n        /* \"#utility.yul\":458:520   */\n      or\n        /* \"#utility.yul\":455:543   */\n      iszero\n      tag_724\n      jumpi\n        /* \"#utility.yul\":523:541   */\n      tag_724\n      tag_332\n      jump\t// in\n    tag_724:\n        /* \"#utility.yul\":559:561   */\n      0x40\n        /* \"#utility.yul\":552:574   */\n      mstore\n        /* \"#utility.yul\":305:580   */\n      swap2\n      swap1\n      pop\n      jump\t// out\n        /* \"#utility.yul\":585:1116   */\n    tag_708:\n        /* \"#utility.yul\":628:633   */\n      0x00\n        /* \"#utility.yul\":681:684   */\n      dup3\n        /* \"#utility.yul\":674:678   */\n      0x1f\n        /* \"#utility.yul\":666:672   */\n      dup4\n        /* \"#utility.yul\":662:679   */\n      add\n        /* \"#utility.yul\":658:685   */\n      slt\n        /* \"#utility.yul\":648:703   */\n      tag_726\n      jumpi\n        /* \"#utility.yul\":699:700   */\n      0x00\n        /* \"#utility.yul\":696:697   */\n      dup1\n        /* \"#utility.yul\":689:701   */\n      revert\n        /* \"#utility.yul\":648:703   */\n    tag_726:\n        /* \"#utility.yul\":735:741   */\n      dup2\n        /* \"#utility.yul\":722:742   */\n      calldataload\n        /* \"#utility.yul\":761:779   */\n      0xffffffffffffffff\n        /* \"#utility.yul\":757:759   */\n      dup2\n        /* \"#utility.yul\":754:780   */\n      gt\n        /* \"#utility.yul\":751:803   */\n      iszero\n      tag_728\n      jumpi\n        /* \"#utility.yul\":783:801   */\n      tag_728\n      tag_332\n      jump\t// in\n    tag_728:\n        /* \"#utility.yul\":827:882   */\n      tag_729\n        /* \"#utility.yul\":870:872   */\n      0x1f\n        /* \"#utility.yul\":851:864   */\n      dup3\n      add\n      not(0x1f)\n        /* \"#utility.yul\":847:874   */\n      and\n        /* \"#utility.yul\":876:880   */\n      0x20\n        /* \"#utility.yul\":843:881   */\n      add\n        /* \"#utility.yul\":827:882   */\n      tag_707\n      jump\t// in\n    tag_729:\n        /* \"#utility.yul\":907:909   */\n      dup2\n        /* \"#utility.yul\":898:905   */\n      dup2\n        /* \"#utility.yul\":891:910   */\n      mstore\n        /* \"#utility.yul\":953:956   */\n      dup5\n        /* \"#utility.yul\":946:950   */\n      0x20\n        /* \"#utility.yul\":941:943   */\n      dup4\n        /* \"#utility.yul\":933:939   */\n      dup7\n        /* \"#utility.yul\":929:944   */\n      add\n        /* \"#utility.yul\":925:951   */\n      add\n        /* \"#utility.yul\":922:957   */\n      gt\n        /* \"#utility.yul\":919:974   */\n      iszero\n      tag_730\n      jumpi\n        /* \"#utility.yul\":970:971   */\n      0x00\n        /* \"#utility.yul\":967:968   */\n      dup1\n        /* \"#utility.yul\":960:972   */\n      revert\n        /* \"#utility.yul\":919:974   */\n    tag_730:\n        /* \"#utility.yul\":1035:1037   */\n      dup2\n        /* \"#utility.yul\":1028:1032   */\n      0x20\n        /* \"#utility.yul\":1020:1026   */\n      dup6\n        /* \"#utility.yul\":1016:1033   */\n      add\n        /* \"#utility.yul\":1009:1013   */\n      0x20\n        /* \"#utility.yul\":1000:1007   */\n      dup4\n        /* \"#utility.yul\":996:1014   */\n      add\n        /* \"#utility.yul\":983:1038   */\n      calldatacopy\n        /* \"#utility.yul\":1083:1084   */\n      0x00\n        /* \"#utility.yul\":1058:1074   */\n      swap2\n      dup2\n      add\n        /* \"#utility.yul\":1076:1080   */\n      0x20\n        /* \"#utility.yul\":1054:1081   */\n      add\n        /* \"#utility.yul\":1047:1085   */\n      swap2\n      swap1\n      swap2\n      mstore\n        /* \"#utility.yul\":1062:1069   */\n      swap4\n        /* \"#utility.yul\":585:1116   */\n      swap3\n      pop\n      pop\n      pop\n      jump\t// out\n        /* \"#utility.yul\":1121:1578   */\n    tag_63:\n        /* \"#utility.yul\":1199:1205   */\n      0x00\n        /* \"#utility.yul\":1207:1213   */\n      dup1\n        /* \"#utility.yul\":1260:1262   */\n      0x40\n        /* \"#utility.yul\":1248:1257   */\n      dup4\n        /* \"#utility.yul\":1239:1246   */\n      dup6\n        /* \"#utility.yul\":1235:1258   */\n      sub\n        /* \"#utility.yul\":1231:1263   */\n      slt\n        /* \"#utility.yul\":1228:1280   */\n      iszero\n      tag_732\n      jumpi\n        /* \"#utility.yul\":1276:1277   */\n      0x00\n        /* \"#utility.yul\":1273:1274   */\n      dup1\n        /* \"#utility.yul\":1266:1278   */\n      revert\n        /* \"#utility.yul\":1228:1280   */\n    tag_732:\n        /* \"#utility.yul\":1315:1324   */\n      dup3\n        /* \"#utility.yul\":1302:1325   */\n      calldataload\n        /* \"#utility.yul\":1334:1365   */\n      tag_733\n        /* \"#utility.yul\":1359:1364   */\n      dup2\n        /* \"#utility.yul\":1334:1365   */\n      tag_706\n      jump\t// in\n    tag_733:\n        /* \"#utility.yul\":1384:1389   */\n      swap2\n      pop\n        /* \"#utility.yul\":1440:1442   */\n      0x20\n        /* \"#utility.yul\":1425:1443   */\n      dup4\n      add\n        /* \"#utility.yul\":1412:1444   */\n      calldataload\n        /* \"#utility.yul\":1467:1485   */\n      0xffffffffffffffff\n        /* \"#utility.yul\":1456:1486   */\n      dup2\n      gt\n        /* \"#utility.yul\":1453:1503   */\n      iszero\n      tag_734\n      jumpi\n        /* \"#utility.yul\":1499:1500   */\n      0x00\n        /* \"#utility.yul\":1496:1497   */\n      dup1\n        /* \"#utility.yul\":1489:1501   */\n      revert\n        /* \"#utility.yul\":1453:1503   */\n    tag_734:\n        /* \"#utility.yul\":1522:1572   */\n      tag_735\n        /* \"#utility.yul\":1564:1571   */\n      dup6\n        /* \"#utility.yul\":1555:1561   */\n      dup3\n        /* \"#utility.yul\":1544:1553   */\n      dup7\n        /* \"#utility.yul\":1540:1562   */\n      add\n        /* \"#utility.yul\":1522:1572   */\n      tag_708\n      jump\t// in\n    tag_735:\n        /* \"#utility.yul\":1512:1572   */\n      swap2\n      pop\n      pop\n        /* \"#utility.yul\":1121:1578   */\n      swap3\n      pop\n      swap3\n      swap1\n      pop\n      jump\t// out\n        /* \"#utility.yul\":1583:1714   */\n    tag_709:\n      not(sub(shl(0xe0, 0x01), 0x01))\n        /* \"#utility.yul\":1657:1689   */\n      dup2\n      and\n        /* \"#utility.yul\":1647:1690   */\n      dup2\n      eq\n        /* \"#utility.yul\":1637:1708   */\n      tag_275\n      jumpi\n        /* \"#utility.yul\":1704:1705   */\n      0x00\n        /* \"#utility.yul\":1701:1702   */\n      dup1\n        /* \"#utility.yul\":1694:1706   */\n      revert\n        /* \"#utility.yul\":1719:1964   */\n    tag_67:\n        /* \"#utility.yul\":1777:1783   */\n      0x00\n        /* \"#utility.yul\":1830:1832   */\n      0x20\n        /* \"#utility.yul\":1818:1827   */\n      dup3\n        /* \"#utility.yul\":1809:1816   */\n      dup5\n        /* \"#utility.yul\":1805:1828   */\n      sub\n        /* \"#utility.yul\":1801:1833   */\n      slt\n        /* \"#utility.yul\":1798:1850   */\n      iszero\n      tag_739\n      jumpi\n        /* \"#utility.yul\":1846:1847   */\n      0x00\n        /* \"#utility.yul\":1843:1844   */\n      dup1\n        /* \"#utility.yul\":1836:1848   */\n      revert\n        /* \"#utility.yul\":1798:1850   */\n    tag_739:\n        /* \"#utility.yul\":1885:1894   */\n      dup2\n        /* \"#utility.yul\":1872:1895   */\n      calldataload\n        /* \"#utility.yul\":1904:1934   */\n      tag_413\n        /* \"#utility.yul\":1928:1933   */\n      dup2\n        /* \"#utility.yul\":1904:1934   */\n      tag_709\n      jump\t// in\n        /* \"#utility.yul\":2161:2461   */\n    tag_710:\n        /* \"#utility.yul\":2214:2217   */\n      0x00\n        /* \"#utility.yul\":2252:2257   */\n      dup2\n        /* \"#utility.yul\":2246:2258   */\n      mload\n        /* \"#utility.yul\":2279:2285   */\n      dup1\n        /* \"#utility.yul\":2274:2277   */\n      dup5\n        /* \"#utility.yul\":2267:2286   */\n      mstore\n        /* \"#utility.yul\":2335:2341   */\n      dup1\n        /* \"#utility.yul\":2328:2332   */\n      0x20\n        /* \"#utility.yul\":2321:2326   */\n      dup5\n        /* \"#utility.yul\":2317:2333   */\n      add\n        /* \"#utility.yul\":2310:2314   */\n      0x20\n        /* \"#utility.yul\":2305:2308   */\n      dup7\n        /* \"#utility.yul\":2301:2315   */\n      add\n        /* \"#utility.yul\":2295:2342   */\n      mcopy\n        /* \"#utility.yul\":2387:2388   */\n      0x00\n        /* \"#utility.yul\":2380:2384   */\n      0x20\n        /* \"#utility.yul\":2371:2377   */\n      dup3\n        /* \"#utility.yul\":2366:2369   */\n      dup7\n        /* \"#utility.yul\":2362:2378   */\n      add\n        /* \"#utility.yul\":2358:2385   */\n      add\n        /* \"#utility.yul\":2351:2389   */\n      mstore\n        /* \"#utility.yul\":2450:2454   */\n      0x20\n        /* \"#utility.yul\":2443:2445   */\n      0x1f\n        /* \"#utility.yul\":2439:2446   */\n      not\n        /* \"#utility.yul\":2434:2436   */\n      0x1f\n        /* \"#utility.yul\":2426:2432   */\n      dup4\n        /* \"#utility.yul\":2422:2437   */\n      add\n        /* \"#utility.yul\":2418:2447   */\n      and\n        /* \"#utility.yul\":2413:2416   */\n      dup6\n        /* \"#utility.yul\":2409:2448   */\n      add\n        /* \"#utility.yul\":2405:2455   */\n      add\n        /* \"#utility.yul\":2398:2455   */\n      swap2\n      pop\n      pop\n        /* \"#utility.yul\":2161:2461   */\n      swap3\n      swap2\n      pop\n      pop\n      jump\t// out\n        /* \"#utility.yul\":2466:2697   */\n    tag_74:\n        /* \"#utility.yul\":2615:2617   */\n      0x20\n        /* \"#utility.yul\":2604:2613   */\n      dup2\n        /* \"#utility.yul\":2597:2618   */\n      mstore\n        /* \"#utility.yul\":2578:2582   */\n      0x00\n        /* \"#utility.yul\":2635:2691   */\n      tag_413\n        /* \"#utility.yul\":2687:2689   */\n      0x20\n        /* \"#utility.yul\":2676:2685   */\n      dup4\n        /* \"#utility.yul\":2672:2690   */\n      add\n        /* \"#utility.yul\":2664:2670   */\n      dup5\n        /* \"#utility.yul\":2635:2691   */\n      tag_710\n      jump\t// in\n        /* \"#utility.yul\":2702:2882   */\n    tag_77:\n        /* \"#utility.yul\":2761:2767   */\n      0x00\n        /* \"#utility.yul\":2814:2816   */\n      0x20\n        /* \"#utility.yul\":2802:2811   */\n      dup3\n        /* \"#utility.yul\":2793:2800   */\n      dup5\n        /* \"#utility.yul\":2789:2812   */\n      sub\n        /* \"#utility.yul\":2785:2817   */\n      slt\n        /* \"#utility.yul\":2782:2834   */\n      iszero\n      tag_746\n      jumpi\n        /* \"#utility.yul\":2830:2831   */\n      0x00\n        /* \"#utility.yul\":2827:2828   */\n      dup1\n        /* \"#utility.yul\":2820:2832   */\n      revert\n        /* \"#utility.yul\":2782:2834   */\n    tag_746:\n      pop\n        /* \"#utility.yul\":2853:2876   */\n      calldataload\n      swap2\n        /* \"#utility.yul\":2702:2882   */\n      swap1\n      pop\n      jump\t// out\n        /* \"#utility.yul\":3118:3433   */\n    tag_83:\n        /* \"#utility.yul\":3186:3192   */\n      0x00\n        /* \"#utility.yul\":3194:3200   */\n      dup1\n        /* \"#utility.yul\":3247:3249   */\n      0x40\n        /* \"#utility.yul\":3235:3244   */\n      dup4\n        /* \"#utility.yul\":3226:3233   */\n      dup6\n        /* \"#utility.yul\":3222:3245   */\n      sub\n        /* \"#utility.yul\":3218:3250   */\n      slt\n        /* \"#utility.yul\":3215:3267   */\n      iszero\n      tag_749\n      jumpi\n        /* \"#utility.yul\":3263:3264   */\n      0x00\n        /* \"#utility.yul\":3260:3261   */\n      dup1\n        /* \"#utility.yul\":3253:3265   */\n      revert\n        /* \"#utility.yul\":3215:3267   */\n    tag_749:\n        /* \"#utility.yul\":3302:3311   */\n      dup3\n        /* \"#utility.yul\":3289:3312   */\n      calldataload\n        /* \"#utility.yul\":3321:3352   */\n      tag_750\n        /* \"#utility.yul\":3346:3351   */\n      dup2\n        /* \"#utility.yul\":3321:3352   */\n      tag_706\n      jump\t// in\n    tag_750:\n        /* \"#utility.yul\":3371:3376   */\n      swap5\n        /* \"#utility.yul\":3423:3425   */\n      0x20\n        /* \"#utility.yul\":3408:3426   */\n      swap4\n      swap1\n      swap4\n      add\n        /* \"#utility.yul\":3395:3427   */\n      calldataload\n      swap4\n      pop\n      pop\n      pop\n        /* \"#utility.yul\":3118:3433   */\n      jump\t// out\n        /* \"#utility.yul\":3438:3685   */\n    tag_87:\n        /* \"#utility.yul\":3497:3503   */\n      0x00\n        /* \"#utility.yul\":3550:3552   */\n      0x20\n        /* \"#utility.yul\":3538:3547   */\n      dup3\n        /* \"#utility.yul\":3529:3536   */\n      dup5\n        /* \"#utility.yul\":3525:3548   */\n      sub\n        /* \"#utility.yul\":3521:3553   */\n      slt\n        /* \"#utility.yul\":3518:3570   */\n      iszero\n      tag_752\n      jumpi\n        /* \"#utility.yul\":3566:3567   */\n      0x00\n        /* \"#utility.yul\":3563:3564   */\n      dup1\n        /* \"#utility.yul\":3556:3568   */\n      revert\n        /* \"#utility.yul\":3518:3570   */\n    tag_752:\n        /* \"#utility.yul\":3605:3614   */\n      dup2\n        /* \"#utility.yul\":3592:3615   */\n      calldataload\n        /* \"#utility.yul\":3624:3655   */\n      tag_413\n        /* \"#utility.yul\":3649:3654   */\n      dup2\n        /* \"#utility.yul\":3624:3655   */\n      tag_706\n      jump\t// in\n        /* \"#utility.yul\":3872:4187   */\n    tag_95:\n        /* \"#utility.yul\":3940:3946   */\n      0x00\n        /* \"#utility.yul\":3948:3954   */\n      dup1\n        /* \"#utility.yul\":4001:4003   */\n      0x40\n        /* \"#utility.yul\":3989:3998   */\n      dup4\n        /* \"#utility.yul\":3980:3987   */\n      dup6\n        /* \"#utility.yul\":3976:3999   */\n      sub\n        /* \"#utility.yul\":3972:4004   */\n      slt\n        /* \"#utility.yul\":3969:4021   */\n      iszero\n      tag_756\n      jumpi\n        /* \"#utility.yul\":4017:4018   */\n      0x00\n        /* \"#utility.yul\":4014:4015   */\n      dup1\n        /* \"#utility.yul\":4007:4019   */\n      revert\n        /* \"#utility.yul\":3969:4021   */\n    tag_756:\n        /* \"#utility.yul\":4053:4062   */\n      dup3\n        /* \"#utility.yul\":4040:4063   */\n      calldataload\n        /* \"#utility.yul\":4030:4063   */\n      swap2\n      pop\n        /* \"#utility.yul\":4113:4115   */\n      0x20\n        /* \"#utility.yul\":4102:4111   */\n      dup4\n        /* \"#utility.yul\":4098:4116   */\n      add\n        /* \"#utility.yul\":4085:4117   */\n      calldataload\n        /* \"#utility.yul\":4126:4157   */\n      tag_757\n        /* \"#utility.yul\":4151:4156   */\n      dup2\n        /* \"#utility.yul\":4126:4157   */\n      tag_706\n      jump\t// in\n    tag_757:\n        /* \"#utility.yul\":4176:4181   */\n      dup1\n        /* \"#utility.yul\":4166:4181   */\n      swap2\n      pop\n      pop\n        /* \"#utility.yul\":3872:4187   */\n      swap3\n      pop\n      swap3\n      swap1\n      pop\n      jump\t// out\n        /* \"#utility.yul\":4192:4648   */\n    tag_99:\n        /* \"#utility.yul\":4269:4275   */\n      0x00\n        /* \"#utility.yul\":4277:4283   */\n      dup1\n        /* \"#utility.yul\":4285:4291   */\n      0x00\n        /* \"#utility.yul\":4338:4340   */\n      0x60\n        /* \"#utility.yul\":4326:4335   */\n      dup5\n        /* \"#utility.yul\":4317:4324   */\n      dup7\n        /* \"#utility.yul\":4313:4336   */\n      sub\n        /* \"#utility.yul\":4309:4341   */\n      slt\n        /* \"#utility.yul\":4306:4358   */\n      iszero\n      tag_759\n      jumpi\n        /* \"#utility.yul\":4354:4355   */\n      0x00\n        /* \"#utility.yul\":4351:4352   */\n      dup1\n        /* \"#utility.yul\":4344:4356   */\n      revert\n        /* \"#utility.yul\":4306:4358   */\n    tag_759:\n        /* \"#utility.yul\":4393:4402   */\n      dup4\n        /* \"#utility.yul\":4380:4403   */\n      calldataload\n        /* \"#utility.yul\":4412:4443   */\n      tag_760\n        /* \"#utility.yul\":4437:4442   */\n      dup2\n        /* \"#utility.yul\":4412:4443   */\n      tag_706\n      jump\t// in\n    tag_760:\n        /* \"#utility.yul\":4462:4467   */\n      swap3\n      pop\n        /* \"#utility.yul\":4519:4521   */\n      0x20\n        /* \"#utility.yul\":4504:4522   */\n      dup5\n      add\n        /* \"#utility.yul\":4491:4523   */\n      calldataload\n        /* \"#utility.yul\":4532:4565   */\n      tag_761\n        /* \"#utility.yul\":4491:4523   */\n      dup2\n        /* \"#utility.yul\":4532:4565   */\n      tag_706\n      jump\t// in\n    tag_761:\n        /* \"#utility.yul\":4192:4648   */\n      swap3\n      swap6\n        /* \"#utility.yul\":4584:4591   */\n      swap3\n      swap5\n      pop\n      pop\n      pop\n        /* \"#utility.yul\":4638:4640   */\n      0x40\n        /* \"#utility.yul\":4623:4641   */\n      swap2\n      swap1\n      swap2\n      add\n        /* \"#utility.yul\":4610:4642   */\n      calldataload\n      swap1\n        /* \"#utility.yul\":4192:4648   */\n      jump\t// out\n        /* \"#utility.yul\":4653:4901   */\n    tag_107:\n        /* \"#utility.yul\":4721:4727   */\n      0x00\n        /* \"#utility.yul\":4729:4735   */\n      dup1\n        /* \"#utility.yul\":4782:4784   */\n      0x40\n        /* \"#utility.yul\":4770:4779   */\n      dup4\n        /* \"#utility.yul\":4761:4768   */\n      dup6\n        /* \"#utility.yul\":4757:4780   */\n      sub\n        /* \"#utility.yul\":4753:4785   */\n      slt\n        /* \"#utility.yul\":4750:4802   */\n      iszero\n      tag_763\n      jumpi\n        /* \"#utility.yul\":4798:4799   */\n      0x00\n        /* \"#utility.yul\":4795:4796   */\n      dup1\n        /* \"#utility.yul\":4788:4800   */\n      revert\n        /* \"#utility.yul\":4750:4802   */\n    tag_763:\n      pop\n      pop\n        /* \"#utility.yul\":4821:4844   */\n      dup1\n      calldataload\n      swap3\n        /* \"#utility.yul\":4891:4893   */\n      0x20\n        /* \"#utility.yul\":4876:4894   */\n      swap1\n      swap2\n      add\n        /* \"#utility.yul\":4863:4895   */\n      calldataload\n      swap2\n      pop\n        /* \"#utility.yul\":4653:4901   */\n      jump\t// out\n        /* \"#utility.yul\":5521:6467   */\n    tag_131:\n        /* \"#utility.yul\":5605:5611   */\n      0x00\n        /* \"#utility.yul\":5636:5638   */\n      0x20\n        /* \"#utility.yul\":5679:5681   */\n      dup1\n        /* \"#utility.yul\":5667:5676   */\n      dup4\n        /* \"#utility.yul\":5658:5665   */\n      dup6\n        /* \"#utility.yul\":5654:5677   */\n      sub\n        /* \"#utility.yul\":5650:5682   */\n      slt\n        /* \"#utility.yul\":5647:5699   */\n      iszero\n      tag_767\n      jumpi\n        /* \"#utility.yul\":5695:5696   */\n      0x00\n        /* \"#utility.yul\":5692:5693   */\n      dup1\n        /* \"#utility.yul\":5685:5697   */\n      revert\n        /* \"#utility.yul\":5647:5699   */\n    tag_767:\n        /* \"#utility.yul\":5735:5744   */\n      dup3\n        /* \"#utility.yul\":5722:5745   */\n      calldataload\n        /* \"#utility.yul\":5764:5782   */\n      0xffffffffffffffff\n        /* \"#utility.yul\":5805:5807   */\n      dup1\n        /* \"#utility.yul\":5797:5803   */\n      dup3\n        /* \"#utility.yul\":5794:5808   */\n      gt\n        /* \"#utility.yul\":5791:5825   */\n      iszero\n      tag_768\n      jumpi\n        /* \"#utility.yul\":5821:5822   */\n      0x00\n        /* \"#utility.yul\":5818:5819   */\n      dup1\n        /* \"#utility.yul\":5811:5823   */\n      revert\n        /* \"#utility.yul\":5791:5825   */\n    tag_768:\n        /* \"#utility.yul\":5859:5865   */\n      dup2\n        /* \"#utility.yul\":5848:5857   */\n      dup6\n        /* \"#utility.yul\":5844:5866   */\n      add\n        /* \"#utility.yul\":5834:5866   */\n      swap2\n      pop\n        /* \"#utility.yul\":5904:5911   */\n      dup6\n        /* \"#utility.yul\":5897:5901   */\n      0x1f\n        /* \"#utility.yul\":5893:5895   */\n      dup4\n        /* \"#utility.yul\":5889:5902   */\n      add\n        /* \"#utility.yul\":5885:5912   */\n      slt\n        /* \"#utility.yul\":5875:5930   */\n      tag_769\n      jumpi\n        /* \"#utility.yul\":5926:5927   */\n      0x00\n        /* \"#utility.yul\":5923:5924   */\n      dup1\n        /* \"#utility.yul\":5916:5928   */\n      revert\n        /* \"#utility.yul\":5875:5930   */\n    tag_769:\n        /* \"#utility.yul\":5962:5964   */\n      dup2\n        /* \"#utility.yul\":5949:5965   */\n      calldataload\n        /* \"#utility.yul\":5984:5986   */\n      dup2\n        /* \"#utility.yul\":5980:5982   */\n      dup2\n        /* \"#utility.yul\":5977:5987   */\n      gt\n        /* \"#utility.yul\":5974:6010   */\n      iszero\n      tag_771\n      jumpi\n        /* \"#utility.yul\":5990:6008   */\n      tag_771\n      tag_332\n      jump\t// in\n    tag_771:\n        /* \"#utility.yul\":6036:6038   */\n      dup1\n        /* \"#utility.yul\":6033:6034   */\n      0x05\n        /* \"#utility.yul\":6029:6039   */\n      shl\n        /* \"#utility.yul\":6019:6039   */\n      swap2\n      pop\n        /* \"#utility.yul\":6059:6087   */\n      tag_772\n        /* \"#utility.yul\":6083:6085   */\n      dup5\n        /* \"#utility.yul\":6079:6081   */\n      dup4\n        /* \"#utility.yul\":6075:6086   */\n      add\n        /* \"#utility.yul\":6059:6087   */\n      tag_707\n      jump\t// in\n    tag_772:\n        /* \"#utility.yul\":6121:6136   */\n      dup2\n      dup2\n      mstore\n        /* \"#utility.yul\":6191:6202   */\n      swap2\n      dup4\n      add\n        /* \"#utility.yul\":6187:6207   */\n      dup5\n      add\n      swap2\n        /* \"#utility.yul\":6152:6164   */\n      dup5\n      dup2\n      add\n      swap1\n        /* \"#utility.yul\":6219:6238   */\n      dup9\n      dup5\n      gt\n        /* \"#utility.yul\":6216:6255   */\n      iszero\n      tag_773\n      jumpi\n        /* \"#utility.yul\":6251:6252   */\n      0x00\n        /* \"#utility.yul\":6248:6249   */\n      dup1\n        /* \"#utility.yul\":6241:6253   */\n      revert\n        /* \"#utility.yul\":6216:6255   */\n    tag_773:\n        /* \"#utility.yul\":6275:6286   */\n      swap4\n      dup6\n      add\n      swap4\n        /* \"#utility.yul\":6295:6437   */\n    tag_774:\n        /* \"#utility.yul\":6311:6317   */\n      dup4\n        /* \"#utility.yul\":6306:6309   */\n      dup6\n        /* \"#utility.yul\":6303:6318   */\n      lt\n        /* \"#utility.yul\":6295:6437   */\n      iszero\n      tag_776\n      jumpi\n        /* \"#utility.yul\":6377:6394   */\n      dup5\n      calldataload\n        /* \"#utility.yul\":6365:6395   */\n      dup3\n      mstore\n        /* \"#utility.yul\":6328:6340   */\n      swap4\n      dup6\n      add\n      swap4\n        /* \"#utility.yul\":6415:6427   */\n      swap1\n      dup6\n      add\n      swap1\n        /* \"#utility.yul\":6295:6437   */\n      jump(tag_774)\n    tag_776:\n        /* \"#utility.yul\":6456:6461   */\n      swap9\n        /* \"#utility.yul\":5521:6467   */\n      swap8\n      pop\n      pop\n      pop\n      pop\n      pop\n      pop\n      pop\n      pop\n      jump\t// out\n        /* \"#utility.yul\":6778:7502   */\n    tag_134:\n        /* \"#utility.yul\":7013:7015   */\n      0x20\n        /* \"#utility.yul\":7065:7086   */\n      dup1\n      dup3\n      mstore\n        /* \"#utility.yul\":7135:7148   */\n      dup3\n      mload\n        /* \"#utility.yul\":7038:7056   */\n      dup3\n      dup3\n      add\n        /* \"#utility.yul\":7157:7179   */\n      dup2\n      swap1\n      mstore\n        /* \"#utility.yul\":6984:6988   */\n      0x00\n      swap2\n        /* \"#utility.yul\":7013:7015   */\n      swap1\n        /* \"#utility.yul\":7236:7251   */\n      dup5\n      dup3\n      add\n      swap1\n        /* \"#utility.yul\":7210:7212   */\n      0x40\n        /* \"#utility.yul\":7195:7213   */\n      dup6\n      add\n      swap1\n        /* \"#utility.yul\":6984:6988   */\n      dup5\n        /* \"#utility.yul\":7279:7476   */\n    tag_779:\n        /* \"#utility.yul\":7293:7299   */\n      dup2\n        /* \"#utility.yul\":7290:7291   */\n      dup2\n        /* \"#utility.yul\":7287:7300   */\n      lt\n        /* \"#utility.yul\":7279:7476   */\n      iszero\n      tag_386\n      jumpi\n        /* \"#utility.yul\":7342:7394   */\n      tag_782\n        /* \"#utility.yul\":7390:7393   */\n      dup4\n        /* \"#utility.yul\":7381:7387   */\n      dup6\n        /* \"#utility.yul\":7375:7388   */\n      mload\n        /* \"#utility.yul\":6556:6568   */\n      dup1\n      mload\n      sub(shl(0xa0, 0x01), 0x01)\n        /* \"#utility.yul\":6552:6613   */\n      and\n        /* \"#utility.yul\":6540:6614   */\n      dup3\n      mstore\n        /* \"#utility.yul\":6667:6671   */\n      0x20\n        /* \"#utility.yul\":6656:6672   */\n      dup1\n      dup3\n      add\n        /* \"#utility.yul\":6650:6673   */\n      mload\n        /* \"#utility.yul\":6675:6693   */\n      0xffffffffffffffff\n        /* \"#utility.yul\":6646:6694   */\n      and\n        /* \"#utility.yul\":6630:6644   */\n      swap1\n      dup4\n      add\n        /* \"#utility.yul\":6623:6695   */\n      mstore\n        /* \"#utility.yul\":6758:6762   */\n      0x40\n        /* \"#utility.yul\":6747:6763   */\n      swap1\n      dup2\n      add\n        /* \"#utility.yul\":6741:6764   */\n      mload\n        /* \"#utility.yul\":6734:6765   */\n      iszero\n        /* \"#utility.yul\":6727:6766   */\n      iszero\n        /* \"#utility.yul\":6711:6725   */\n      swap2\n      add\n        /* \"#utility.yul\":6704:6767   */\n      mstore\n        /* \"#utility.yul\":6472:6773   */\n      jump\n        /* \"#utility.yul\":7342:7394   */\n    tag_782:\n        /* \"#utility.yul\":7451:7466   */\n      swap3\n      dup5\n      add\n      swap3\n        /* \"#utility.yul\":7423:7427   */\n      0x60\n        /* \"#utility.yul\":7414:7428   */\n      swap3\n      swap1\n      swap3\n      add\n      swap2\n        /* \"#utility.yul\":7315:7316   */\n      0x01\n        /* \"#utility.yul\":7308:7317   */\n      add\n        /* \"#utility.yul\":7279:7476   */\n      jump(tag_779)\n        /* \"#utility.yul\":7507:8253   */\n    tag_157:\n        /* \"#utility.yul\":7612:7618   */\n      0x00\n        /* \"#utility.yul\":7620:7626   */\n      dup1\n        /* \"#utility.yul\":7628:7634   */\n      0x00\n        /* \"#utility.yul\":7636:7642   */\n      dup1\n        /* \"#utility.yul\":7689:7692   */\n      0x80\n        /* \"#utility.yul\":7677:7686   */\n      dup6\n        /* \"#utility.yul\":7668:7675   */\n      dup8\n        /* \"#utility.yul\":7664:7687   */\n      sub\n        /* \"#utility.yul\":7660:7693   */\n      slt\n        /* \"#utility.yul\":7657:7710   */\n      iszero\n      tag_784\n      jumpi\n        /* \"#utility.yul\":7706:7707   */\n      0x00\n        /* \"#utility.yul\":7703:7704   */\n      dup1\n        /* \"#utility.yul\":7696:7708   */\n      revert\n        /* \"#utility.yul\":7657:7710   */\n    tag_784:\n        /* \"#utility.yul\":7745:7754   */\n      dup5\n        /* \"#utility.yul\":7732:7755   */\n      calldataload\n        /* \"#utility.yul\":7764:7795   */\n      tag_785\n        /* \"#utility.yul\":7789:7794   */\n      dup2\n        /* \"#utility.yul\":7764:7795   */\n      tag_706\n      jump\t// in\n    tag_785:\n        /* \"#utility.yul\":7814:7819   */\n      swap4\n      pop\n        /* \"#utility.yul\":7866:7868   */\n      0x20\n        /* \"#utility.yul\":7851:7869   */\n      dup6\n      add\n        /* \"#utility.yul\":7838:7870   */\n      calldataload\n      swap3\n      pop\n        /* \"#utility.yul\":7921:7923   */\n      0x40\n        /* \"#utility.yul\":7906:7924   */\n      dup6\n      add\n        /* \"#utility.yul\":7893:7925   */\n      calldataload\n        /* \"#utility.yul\":7944:7962   */\n      0xffffffffffffffff\n        /* \"#utility.yul\":7974:7988   */\n      dup1\n      dup3\n      gt\n        /* \"#utility.yul\":7971:8005   */\n      iszero\n      tag_786\n      jumpi\n        /* \"#utility.yul\":8001:8002   */\n      0x00\n        /* \"#utility.yul\":7998:7999   */\n      dup1\n        /* \"#utility.yul\":7991:8003   */\n      revert\n        /* \"#utility.yul\":7971:8005   */\n    tag_786:\n        /* \"#utility.yul\":8024:8074   */\n      tag_787\n        /* \"#utility.yul\":8066:8073   */\n      dup9\n        /* \"#utility.yul\":8057:8063   */\n      dup4\n        /* \"#utility.yul\":8046:8055   */\n      dup10\n        /* \"#utility.yul\":8042:8064   */\n      add\n        /* \"#utility.yul\":8024:8074   */\n      tag_708\n      jump\t// in\n    tag_787:\n        /* \"#utility.yul\":8014:8074   */\n      swap4\n      pop\n        /* \"#utility.yul\":8127:8129   */\n      0x60\n        /* \"#utility.yul\":8116:8125   */\n      dup8\n        /* \"#utility.yul\":8112:8130   */\n      add\n        /* \"#utility.yul\":8099:8131   */\n      calldataload\n        /* \"#utility.yul\":8083:8131   */\n      swap2\n      pop\n        /* \"#utility.yul\":8156:8158   */\n      dup1\n        /* \"#utility.yul\":8146:8154   */\n      dup3\n        /* \"#utility.yul\":8143:8159   */\n      gt\n        /* \"#utility.yul\":8140:8176   */\n      iszero\n      tag_788\n      jumpi\n        /* \"#utility.yul\":8172:8173   */\n      0x00\n        /* \"#utility.yul\":8169:8170   */\n      dup1\n        /* \"#utility.yul\":8162:8174   */\n      revert\n        /* \"#utility.yul\":8140:8176   */\n    tag_788:\n      pop\n        /* \"#utility.yul\":8195:8247   */\n      tag_789\n        /* \"#utility.yul\":8239:8246   */\n      dup8\n        /* \"#utility.yul\":8228:8236   */\n      dup3\n        /* \"#utility.yul\":8217:8226   */\n      dup9\n        /* \"#utility.yul\":8213:8237   */\n      add\n        /* \"#utility.yul\":8195:8247   */\n      tag_708\n      jump\t// in\n    tag_789:\n        /* \"#utility.yul\":8185:8247   */\n      swap2\n      pop\n      pop\n        /* \"#utility.yul\":7507:8253   */\n      swap3\n      swap6\n      swap2\n      swap5\n      pop\n      swap3\n      pop\n      jump\t// out\n        /* \"#utility.yul\":8258:8890   */\n    tag_170:\n        /* \"#utility.yul\":8429:8431   */\n      0x20\n        /* \"#utility.yul\":8481:8502   */\n      dup1\n      dup3\n      mstore\n        /* \"#utility.yul\":8551:8564   */\n      dup3\n      mload\n        /* \"#utility.yul\":8454:8472   */\n      dup3\n      dup3\n      add\n        /* \"#utility.yul\":8573:8595   */\n      dup2\n      swap1\n      mstore\n        /* \"#utility.yul\":8400:8404   */\n      0x00\n      swap2\n        /* \"#utility.yul\":8429:8431   */\n      swap1\n        /* \"#utility.yul\":8652:8667   */\n      dup5\n      dup3\n      add\n      swap1\n        /* \"#utility.yul\":8626:8628   */\n      0x40\n        /* \"#utility.yul\":8611:8629   */\n      dup6\n      add\n      swap1\n        /* \"#utility.yul\":8400:8404   */\n      dup5\n        /* \"#utility.yul\":8695:8864   */\n    tag_791:\n        /* \"#utility.yul\":8709:8715   */\n      dup2\n        /* \"#utility.yul\":8706:8707   */\n      dup2\n        /* \"#utility.yul\":8703:8716   */\n      lt\n        /* \"#utility.yul\":8695:8864   */\n      iszero\n      tag_386\n      jumpi\n        /* \"#utility.yul\":8770:8783   */\n      dup4\n      mload\n        /* \"#utility.yul\":8758:8784   */\n      dup4\n      mstore\n        /* \"#utility.yul\":8839:8854   */\n      swap3\n      dup5\n      add\n      swap3\n        /* \"#utility.yul\":8804:8816   */\n      swap2\n      dup5\n      add\n      swap2\n        /* \"#utility.yul\":8731:8732   */\n      0x01\n        /* \"#utility.yul\":8724:8733   */\n      add\n        /* \"#utility.yul\":8695:8864   */\n      jump(tag_791)\n        /* \"#utility.yul\":8895:9217   */\n    tag_176:\n        /* \"#utility.yul\":8964:8970   */\n      0x00\n        /* \"#utility.yul\":9017:9019   */\n      0x20\n        /* \"#utility.yul\":9005:9014   */\n      dup3\n        /* \"#utility.yul\":8996:9003   */\n      dup5\n        /* \"#utility.yul\":8992:9015   */\n      sub\n        /* \"#utility.yul\":8988:9020   */\n      slt\n        /* \"#utility.yul\":8985:9037   */\n      iszero\n      tag_795\n      jumpi\n        /* \"#utility.yul\":9033:9034   */\n      0x00\n        /* \"#utility.yul\":9030:9031   */\n      dup1\n        /* \"#utility.yul\":9023:9035   */\n      revert\n        /* \"#utility.yul\":8985:9037   */\n    tag_795:\n        /* \"#utility.yul\":9073:9082   */\n      dup2\n        /* \"#utility.yul\":9060:9083   */\n      calldataload\n        /* \"#utility.yul\":9106:9124   */\n      0xffffffffffffffff\n        /* \"#utility.yul\":9098:9104   */\n      dup2\n        /* \"#utility.yul\":9095:9125   */\n      gt\n        /* \"#utility.yul\":9092:9142   */\n      iszero\n      tag_796\n      jumpi\n        /* \"#utility.yul\":9138:9139   */\n      0x00\n        /* \"#utility.yul\":9135:9136   */\n      dup1\n        /* \"#utility.yul\":9128:9140   */\n      revert\n        /* \"#utility.yul\":9092:9142   */\n    tag_796:\n        /* \"#utility.yul\":9161:9211   */\n      tag_324\n        /* \"#utility.yul\":9203:9210   */\n      dup5\n        /* \"#utility.yul\":9194:9200   */\n      dup3\n        /* \"#utility.yul\":9183:9192   */\n      dup6\n        /* \"#utility.yul\":9179:9201   */\n      add\n        /* \"#utility.yul\":9161:9211   */\n      tag_708\n      jump\t// in\n        /* \"#utility.yul\":9222:9605   */\n    tag_186:\n        /* \"#utility.yul\":9299:9305   */\n      0x00\n        /* \"#utility.yul\":9307:9313   */\n      dup1\n        /* \"#utility.yul\":9315:9321   */\n      0x00\n        /* \"#utility.yul\":9368:9370   */\n      0x60\n        /* \"#utility.yul\":9356:9365   */\n      dup5\n        /* \"#utility.yul\":9347:9354   */\n      dup7\n        /* \"#utility.yul\":9343:9366   */\n      sub\n        /* \"#utility.yul\":9339:9371   */\n      slt\n        /* \"#utility.yul\":9336:9388   */\n      iszero\n      tag_799\n      jumpi\n        /* \"#utility.yul\":9384:9385   */\n      0x00\n        /* \"#utility.yul\":9381:9382   */\n      dup1\n        /* \"#utility.yul\":9374:9386   */\n      revert\n        /* \"#utility.yul\":9336:9388   */\n    tag_799:\n        /* \"#utility.yul\":9423:9432   */\n      dup4\n        /* \"#utility.yul\":9410:9433   */\n      calldataload\n        /* \"#utility.yul\":9442:9473   */\n      tag_800\n        /* \"#utility.yul\":9467:9472   */\n      dup2\n        /* \"#utility.yul\":9442:9473   */\n      tag_706\n      jump\t// in\n    tag_800:\n        /* \"#utility.yul\":9492:9497   */\n      swap6\n        /* \"#utility.yul\":9544:9546   */\n      0x20\n        /* \"#utility.yul\":9529:9547   */\n      dup6\n      add\n        /* \"#utility.yul\":9516:9548   */\n      calldataload\n      swap6\n      pop\n        /* \"#utility.yul\":9595:9597   */\n      0x40\n        /* \"#utility.yul\":9580:9598   */\n      swap1\n      swap5\n      add\n        /* \"#utility.yul\":9567:9599   */\n      calldataload\n      swap4\n        /* \"#utility.yul\":9222:9605   */\n      swap3\n      pop\n      pop\n      pop\n      jump\t// out\n        /* \"#utility.yul\":9610:9993   */\n    tag_191:\n        /* \"#utility.yul\":9687:9693   */\n      0x00\n        /* \"#utility.yul\":9695:9701   */\n      dup1\n        /* \"#utility.yul\":9703:9709   */\n      0x00\n        /* \"#utility.yul\":9756:9758   */\n      0x60\n        /* \"#utility.yul\":9744:9753   */\n      dup5\n        /* \"#utility.yul\":9735:9742   */\n      dup7\n        /* \"#utility.yul\":9731:9754   */\n      sub\n        /* \"#utility.yul\":9727:9759   */\n      slt\n        /* \"#utility.yul\":9724:9776   */\n      iszero\n      tag_802\n      jumpi\n        /* \"#utility.yul\":9772:9773   */\n      0x00\n        /* \"#utility.yul\":9769:9770   */\n      dup1\n        /* \"#utility.yul\":9762:9774   */\n      revert\n        /* \"#utility.yul\":9724:9776   */\n    tag_802:\n        /* \"#utility.yul\":9808:9817   */\n      dup4\n        /* \"#utility.yul\":9795:9818   */\n      calldataload\n        /* \"#utility.yul\":9785:9818   */\n      swap3\n      pop\n        /* \"#utility.yul\":9868:9870   */\n      0x20\n        /* \"#utility.yul\":9857:9866   */\n      dup5\n        /* \"#utility.yul\":9853:9871   */\n      add\n        /* \"#utility.yul\":9840:9872   */\n      calldataload\n        /* \"#utility.yul\":9881:9912   */\n      tag_761\n        /* \"#utility.yul\":9906:9911   */\n      dup2\n        /* \"#utility.yul\":9881:9912   */\n      tag_706\n      jump\t// in\n        /* \"#utility.yul\":9998:10414   */\n    tag_195:\n        /* \"#utility.yul\":10063:10069   */\n      0x00\n        /* \"#utility.yul\":10071:10077   */\n      dup1\n        /* \"#utility.yul\":10124:10126   */\n      0x40\n        /* \"#utility.yul\":10112:10121   */\n      dup4\n        /* \"#utility.yul\":10103:10110   */\n      dup6\n        /* \"#utility.yul\":10099:10122   */\n      sub\n        /* \"#utility.yul\":10095:10127   */\n      slt\n        /* \"#utility.yul\":10092:10144   */\n      iszero\n      tag_805\n      jumpi\n        /* \"#utility.yul\":10140:10141   */\n      0x00\n        /* \"#utility.yul\":10137:10138   */\n      dup1\n        /* \"#utility.yul\":10130:10142   */\n      revert\n        /* \"#utility.yul\":10092:10144   */\n    tag_805:\n        /* \"#utility.yul\":10179:10188   */\n      dup3\n        /* \"#utility.yul\":10166:10189   */\n      calldataload\n        /* \"#utility.yul\":10198:10229   */\n      tag_806\n        /* \"#utility.yul\":10223:10228   */\n      dup2\n        /* \"#utility.yul\":10198:10229   */\n      tag_706\n      jump\t// in\n    tag_806:\n        /* \"#utility.yul\":10248:10253   */\n      swap2\n      pop\n        /* \"#utility.yul\":10305:10307   */\n      0x20\n        /* \"#utility.yul\":10290:10308   */\n      dup4\n      add\n        /* \"#utility.yul\":10277:10309   */\n      calldataload\n        /* \"#utility.yul\":10347:10362   */\n      dup1\n      iszero\n        /* \"#utility.yul\":10340:10363   */\n      iszero\n        /* \"#utility.yul\":10328:10364   */\n      dup2\n      eq\n        /* \"#utility.yul\":10318:10382   */\n      tag_757\n      jumpi\n        /* \"#utility.yul\":10378:10379   */\n      0x00\n        /* \"#utility.yul\":10375:10376   */\n      dup1\n        /* \"#utility.yul\":10368:10380   */\n      revert\n        /* \"#utility.yul\":10419:11045   */\n    tag_199:\n        /* \"#utility.yul\":10516:10522   */\n      0x00\n        /* \"#utility.yul\":10524:10530   */\n      dup1\n        /* \"#utility.yul\":10577:10579   */\n      0x20\n        /* \"#utility.yul\":10565:10574   */\n      dup4\n        /* \"#utility.yul\":10556:10563   */\n      dup6\n        /* \"#utility.yul\":10552:10575   */\n      sub\n        /* \"#utility.yul\":10548:10580   */\n      slt\n        /* \"#utility.yul\":10545:10597   */\n      iszero\n      tag_809\n      jumpi\n        /* \"#utility.yul\":10593:10594   */\n      0x00\n        /* \"#utility.yul\":10590:10591   */\n      dup1\n        /* \"#utility.yul\":10583:10595   */\n      revert\n        /* \"#utility.yul\":10545:10597   */\n    tag_809:\n        /* \"#utility.yul\":10633:10642   */\n      dup3\n        /* \"#utility.yul\":10620:10643   */\n      calldataload\n        /* \"#utility.yul\":10662:10680   */\n      0xffffffffffffffff\n        /* \"#utility.yul\":10703:10705   */\n      dup1\n        /* \"#utility.yul\":10695:10701   */\n      dup3\n        /* \"#utility.yul\":10692:10706   */\n      gt\n        /* \"#utility.yul\":10689:10723   */\n      iszero\n      tag_810\n      jumpi\n        /* \"#utility.yul\":10719:10720   */\n      0x00\n        /* \"#utility.yul\":10716:10717   */\n      dup1\n        /* \"#utility.yul\":10709:10721   */\n      revert\n        /* \"#utility.yul\":10689:10723   */\n    tag_810:\n        /* \"#utility.yul\":10757:10763   */\n      dup2\n        /* \"#utility.yul\":10746:10755   */\n      dup6\n        /* \"#utility.yul\":10742:10764   */\n      add\n        /* \"#utility.yul\":10732:10764   */\n      swap2\n      pop\n        /* \"#utility.yul\":10802:10809   */\n      dup6\n        /* \"#utility.yul\":10795:10799   */\n      0x1f\n        /* \"#utility.yul\":10791:10793   */\n      dup4\n        /* \"#utility.yul\":10787:10800   */\n      add\n        /* \"#utility.yul\":10783:10810   */\n      slt\n        /* \"#utility.yul\":10773:10828   */\n      tag_811\n      jumpi\n        /* \"#utility.yul\":10824:10825   */\n      0x00\n        /* \"#utility.yul\":10821:10822   */\n      dup1\n        /* \"#utility.yul\":10814:10826   */\n      revert\n        /* \"#utility.yul\":10773:10828   */\n    tag_811:\n        /* \"#utility.yul\":10864:10866   */\n      dup2\n        /* \"#utility.yul\":10851:10867   */\n      calldataload\n        /* \"#utility.yul\":10890:10892   */\n      dup2\n        /* \"#utility.yul\":10882:10888   */\n      dup2\n        /* \"#utility.yul\":10879:10893   */\n      gt\n        /* \"#utility.yul\":10876:10910   */\n      iszero\n      tag_812\n      jumpi\n        /* \"#utility.yul\":10906:10907   */\n      0x00\n        /* \"#utility.yul\":10903:10904   */\n      dup1\n        /* \"#utility.yul\":10896:10908   */\n      revert\n        /* \"#utility.yul\":10876:10910   */\n    tag_812:\n        /* \"#utility.yul\":10959:10966   */\n      dup7\n        /* \"#utility.yul\":10954:10956   */\n      0x20\n        /* \"#utility.yul\":10944:10950   */\n      dup3\n        /* \"#utility.yul\":10941:10942   */\n      0x05\n        /* \"#utility.yul\":10937:10951   */\n      shl\n        /* \"#utility.yul\":10933:10935   */\n      dup6\n        /* \"#utility.yul\":10929:10952   */\n      add\n        /* \"#utility.yul\":10925:10957   */\n      add\n        /* \"#utility.yul\":10922:10967   */\n      gt\n        /* \"#utility.yul\":10919:10984   */\n      iszero\n      tag_813\n      jumpi\n        /* \"#utility.yul\":10980:10981   */\n      0x00\n        /* \"#utility.yul\":10977:10978   */\n      dup1\n        /* \"#utility.yul\":10970:10982   */\n      revert\n        /* \"#utility.yul\":10919:10984   */\n    tag_813:\n        /* \"#utility.yul\":11011:11013   */\n      0x20\n        /* \"#utility.yul\":11003:11014   */\n      swap3\n      swap1\n      swap3\n      add\n      swap7\n        /* \"#utility.yul\":11033:11039   */\n      swap2\n      swap6\n      pop\n        /* \"#utility.yul\":10419:11045   */\n      swap1\n      swap4\n      pop\n      pop\n      pop\n      pop\n      jump\t// out\n        /* \"#utility.yul\":11050:11862   */\n    tag_202:\n        /* \"#utility.yul\":11210:11214   */\n      0x00\n        /* \"#utility.yul\":11239:11241   */\n      0x20\n        /* \"#utility.yul\":11279:11281   */\n      dup1\n        /* \"#utility.yul\":11268:11277   */\n      dup4\n        /* \"#utility.yul\":11264:11282   */\n      add\n        /* \"#utility.yul\":11309:11311   */\n      0x20\n        /* \"#utility.yul\":11298:11307   */\n      dup5\n        /* \"#utility.yul\":11291:11312   */\n      mstore\n        /* \"#utility.yul\":11332:11338   */\n      dup1\n        /* \"#utility.yul\":11367:11373   */\n      dup6\n        /* \"#utility.yul\":11361:11374   */\n      mload\n        /* \"#utility.yul\":11398:11404   */\n      dup1\n        /* \"#utility.yul\":11390:11396   */\n      dup4\n        /* \"#utility.yul\":11383:11405   */\n      mstore\n        /* \"#utility.yul\":11436:11438   */\n      0x40\n        /* \"#utility.yul\":11425:11434   */\n      dup7\n        /* \"#utility.yul\":11421:11439   */\n      add\n        /* \"#utility.yul\":11414:11439   */\n      swap2\n      pop\n        /* \"#utility.yul\":11498:11500   */\n      0x40\n        /* \"#utility.yul\":11488:11494   */\n      dup2\n        /* \"#utility.yul\":11485:11486   */\n      0x05\n        /* \"#utility.yul\":11481:11495   */\n      shl\n        /* \"#utility.yul\":11470:11479   */\n      dup8\n        /* \"#utility.yul\":11466:11496   */\n      add\n        /* \"#utility.yul\":11462:11501   */\n      add\n        /* \"#utility.yul\":11448:11501   */\n      swap3\n      pop\n        /* \"#utility.yul\":11536:11538   */\n      0x20\n        /* \"#utility.yul\":11528:11534   */\n      dup8\n        /* \"#utility.yul\":11524:11539   */\n      add\n        /* \"#utility.yul\":11557:11558   */\n      0x00\n        /* \"#utility.yul\":11567:11833   */\n    tag_815:\n        /* \"#utility.yul\":11581:11587   */\n      dup3\n        /* \"#utility.yul\":11578:11579   */\n      dup2\n        /* \"#utility.yul\":11575:11588   */\n      lt\n        /* \"#utility.yul\":11567:11833   */\n      iszero\n      tag_817\n      jumpi\n        /* \"#utility.yul\":11674:11676   */\n      0x3f\n        /* \"#utility.yul\":11670:11677   */\n      not\n        /* \"#utility.yul\":11658:11667   */\n      dup9\n        /* \"#utility.yul\":11650:11656   */\n      dup7\n        /* \"#utility.yul\":11646:11668   */\n      sub\n        /* \"#utility.yul\":11642:11678   */\n      add\n        /* \"#utility.yul\":11637:11640   */\n      dup5\n        /* \"#utility.yul\":11630:11679   */\n      mstore\n        /* \"#utility.yul\":11702:11753   */\n      tag_818\n        /* \"#utility.yul\":11746:11752   */\n      dup6\n        /* \"#utility.yul\":11737:11743   */\n      dup4\n        /* \"#utility.yul\":11731:11744   */\n      mload\n        /* \"#utility.yul\":11702:11753   */\n      tag_710\n      jump\t// in\n    tag_818:\n        /* \"#utility.yul\":11692:11753   */\n      swap5\n      pop\n        /* \"#utility.yul\":11811:11823   */\n      swap3\n      dup6\n      add\n      swap3\n        /* \"#utility.yul\":11776:11791   */\n      swap1\n      dup6\n      add\n      swap1\n        /* \"#utility.yul\":11603:11604   */\n      0x01\n        /* \"#utility.yul\":11596:11605   */\n      add\n        /* \"#utility.yul\":11567:11833   */\n      jump(tag_815)\n    tag_817:\n      pop\n        /* \"#utility.yul\":11850:11856   */\n      swap3\n      swap8\n        /* \"#utility.yul\":11050:11862   */\n      swap7\n      pop\n      pop\n      pop\n      pop\n      pop\n      pop\n      pop\n      jump\t// out\n        /* \"#utility.yul\":11867:12533   */\n    tag_208:\n        /* \"#utility.yul\":11962:11968   */\n      0x00\n        /* \"#utility.yul\":11970:11976   */\n      dup1\n        /* \"#utility.yul\":11978:11984   */\n      0x00\n        /* \"#utility.yul\":11986:11992   */\n      dup1\n        /* \"#utility.yul\":12039:12042   */\n      0x80\n        /* \"#utility.yul\":12027:12036   */\n      dup6\n        /* \"#utility.yul\":12018:12025   */\n      dup8\n        /* \"#utility.yul\":12014:12037   */\n      sub\n        /* \"#utility.yul\":12010:12043   */\n      slt\n        /* \"#utility.yul\":12007:12060   */\n      iszero\n      tag_820\n      jumpi\n        /* \"#utility.yul\":12056:12057   */\n      0x00\n        /* \"#utility.yul\":12053:12054   */\n      dup1\n        /* \"#utility.yul\":12046:12058   */\n      revert\n        /* \"#utility.yul\":12007:12060   */\n    tag_820:\n        /* \"#utility.yul\":12095:12104   */\n      dup5\n        /* \"#utility.yul\":12082:12105   */\n      calldataload\n        /* \"#utility.yul\":12114:12145   */\n      tag_821\n        /* \"#utility.yul\":12139:12144   */\n      dup2\n        /* \"#utility.yul\":12114:12145   */\n      tag_706\n      jump\t// in\n    tag_821:\n        /* \"#utility.yul\":12164:12169   */\n      swap4\n      pop\n        /* \"#utility.yul\":12221:12223   */\n      0x20\n        /* \"#utility.yul\":12206:12224   */\n      dup6\n      add\n        /* \"#utility.yul\":12193:12225   */\n      calldataload\n        /* \"#utility.yul\":12234:12267   */\n      tag_822\n        /* \"#utility.yul\":12193:12225   */\n      dup2\n        /* \"#utility.yul\":12234:12267   */\n      tag_706\n      jump\t// in\n    tag_822:\n        /* \"#utility.yul\":12286:12293   */\n      swap3\n      pop\n        /* \"#utility.yul\":12340:12342   */\n      0x40\n        /* \"#utility.yul\":12325:12343   */\n      dup6\n      add\n        /* \"#utility.yul\":12312:12344   */\n      calldataload\n      swap2\n      pop\n        /* \"#utility.yul\":12395:12397   */\n      0x60\n        /* \"#utility.yul\":12380:12398   */\n      dup6\n      add\n        /* \"#utility.yul\":12367:12399   */\n      calldataload\n        /* \"#utility.yul\":12422:12440   */\n      0xffffffffffffffff\n        /* \"#utility.yul\":12411:12441   */\n      dup2\n      gt\n        /* \"#utility.yul\":12408:12458   */\n      iszero\n      tag_823\n      jumpi\n        /* \"#utility.yul\":12454:12455   */\n      0x00\n        /* \"#utility.yul\":12451:12452   */\n      dup1\n        /* \"#utility.yul\":12444:12456   */\n      revert\n        /* \"#utility.yul\":12408:12458   */\n    tag_823:\n        /* \"#utility.yul\":12477:12527   */\n      tag_789\n        /* \"#utility.yul\":12519:12526   */\n      dup8\n        /* \"#utility.yul\":12510:12516   */\n      dup3\n        /* \"#utility.yul\":12499:12508   */\n      dup9\n        /* \"#utility.yul\":12495:12517   */\n      add\n        /* \"#utility.yul\":12477:12527   */\n      tag_708\n      jump\t// in\n        /* \"#utility.yul\":12735:13002   */\n    tag_218:\n        /* \"#utility.yul\":6556:6568   */\n      dup2\n      mload\n      sub(shl(0xa0, 0x01), 0x01)\n        /* \"#utility.yul\":6552:6613   */\n      and\n        /* \"#utility.yul\":6540:6614   */\n      dup2\n      mstore\n        /* \"#utility.yul\":6667:6671   */\n      0x20\n        /* \"#utility.yul\":6656:6672   */\n      dup1\n      dup4\n      add\n        /* \"#utility.yul\":6650:6673   */\n      mload\n        /* \"#utility.yul\":6675:6693   */\n      0xffffffffffffffff\n        /* \"#utility.yul\":6646:6694   */\n      and\n        /* \"#utility.yul\":6630:6644   */\n      swap1\n      dup3\n      add\n        /* \"#utility.yul\":6623:6695   */\n      mstore\n        /* \"#utility.yul\":6758:6762   */\n      0x40\n        /* \"#utility.yul\":6747:6763   */\n      dup1\n      dup4\n      add\n        /* \"#utility.yul\":6741:6764   */\n      mload\n        /* \"#utility.yul\":6734:6765   */\n      iszero\n        /* \"#utility.yul\":6727:6766   */\n      iszero\n        /* \"#utility.yul\":6711:6725   */\n      swap1\n      dup3\n      add\n        /* \"#utility.yul\":6704:6767   */\n      mstore\n        /* \"#utility.yul\":12933:12935   */\n      0x60\n        /* \"#utility.yul\":12918:12936   */\n      dup2\n      add\n        /* \"#utility.yul\":12945:12996   */\n      tag_248\n        /* \"#utility.yul\":6472:6773   */\n      jump\n        /* \"#utility.yul\":13007:13395   */\n    tag_228:\n        /* \"#utility.yul\":13075:13081   */\n      0x00\n        /* \"#utility.yul\":13083:13089   */\n      dup1\n        /* \"#utility.yul\":13136:13138   */\n      0x40\n        /* \"#utility.yul\":13124:13133   */\n      dup4\n        /* \"#utility.yul\":13115:13122   */\n      dup6\n        /* \"#utility.yul\":13111:13134   */\n      sub\n        /* \"#utility.yul\":13107:13139   */\n      slt\n        /* \"#utility.yul\":13104:13156   */\n      iszero\n      tag_829\n      jumpi\n        /* \"#utility.yul\":13152:13153   */\n      0x00\n        /* \"#utility.yul\":13149:13150   */\n      dup1\n        /* \"#utility.yul\":13142:13154   */\n      revert\n        /* \"#utility.yul\":13104:13156   */\n    tag_829:\n        /* \"#utility.yul\":13191:13200   */\n      dup3\n        /* \"#utility.yul\":13178:13201   */\n      calldataload\n        /* \"#utility.yul\":13210:13241   */\n      tag_830\n        /* \"#utility.yul\":13235:13240   */\n      dup2\n        /* \"#utility.yul\":13210:13241   */\n      tag_706\n      jump\t// in\n    tag_830:\n        /* \"#utility.yul\":13260:13265   */\n      swap2\n      pop\n        /* \"#utility.yul\":13317:13319   */\n      0x20\n        /* \"#utility.yul\":13302:13320   */\n      dup4\n      add\n        /* \"#utility.yul\":13289:13321   */\n      calldataload\n        /* \"#utility.yul\":13330:13363   */\n      tag_757\n        /* \"#utility.yul\":13289:13321   */\n      dup2\n        /* \"#utility.yul\":13330:13363   */\n      tag_706\n      jump\t// in\n        /* \"#utility.yul\":13752:14132   */\n    tag_251:\n        /* \"#utility.yul\":13831:13832   */\n      0x01\n        /* \"#utility.yul\":13827:13839   */\n      dup2\n      dup2\n      shr\n      swap1\n        /* \"#utility.yul\":13874:13886   */\n      dup3\n      and\n      dup1\n        /* \"#utility.yul\":13895:13956   */\n      tag_834\n      jumpi\n        /* \"#utility.yul\":13949:13953   */\n      0x7f\n        /* \"#utility.yul\":13941:13947   */\n      dup3\n        /* \"#utility.yul\":13937:13954   */\n      and\n        /* \"#utility.yul\":13927:13954   */\n      swap2\n      pop\n        /* \"#utility.yul\":13895:13956   */\n    tag_834:\n        /* \"#utility.yul\":14002:14004   */\n      0x20\n        /* \"#utility.yul\":13994:14000   */\n      dup3\n        /* \"#utility.yul\":13991:14005   */\n      lt\n        /* \"#utility.yul\":13971:13989   */\n      dup2\n        /* \"#utility.yul\":13968:14006   */\n      sub\n        /* \"#utility.yul\":13965:14126   */\n      tag_835\n      jumpi\n        /* \"#utility.yul\":14048:14058   */\n      0x4e487b71\n        /* \"#utility.yul\":14043:14046   */\n      0xe0\n        /* \"#utility.yul\":14039:14059   */\n      shl\n        /* \"#utility.yul\":14036:14037   */\n      0x00\n        /* \"#utility.yul\":14029:14060   */\n      mstore\n        /* \"#utility.yul\":14083:14087   */\n      0x22\n        /* \"#utility.yul\":14080:14081   */\n      0x04\n        /* \"#utility.yul\":14073:14088   */\n      mstore\n        /* \"#utility.yul\":14111:14115   */\n      0x24\n        /* \"#utility.yul\":14108:14109   */\n      0x00\n        /* \"#utility.yul\":14101:14116   */\n      revert\n        /* \"#utility.yul\":13965:14126   */\n    tag_835:\n      pop\n        /* \"#utility.yul\":13752:14132   */\n      swap2\n      swap1\n      pop\n      jump\t// out\n        /* \"#utility.yul\":14488:14739   */\n    tag_287:\n        /* \"#utility.yul\":14558:14564   */\n      0x00\n        /* \"#utility.yul\":14611:14613   */\n      0x20\n        /* \"#utility.yul\":14599:14608   */\n      dup3\n        /* \"#utility.yul\":14590:14597   */\n      dup5\n        /* \"#utility.yul\":14586:14609   */\n      sub\n        /* \"#utility.yul\":14582:14614   */\n      slt\n        /* \"#utility.yul\":14579:14631   */\n      iszero\n      tag_838\n      jumpi\n        /* \"#utility.yul\":14627:14628   */\n      0x00\n        /* \"#utility.yul\":14624:14625   */\n      dup1\n        /* \"#utility.yul\":14617:14629   */\n      revert\n        /* \"#utility.yul\":14579:14631   */\n    tag_838:\n        /* \"#utility.yul\":14659:14668   */\n      dup2\n        /* \"#utility.yul\":14653:14669   */\n      mload\n        /* \"#utility.yul\":14678:14709   */\n      tag_413\n        /* \"#utility.yul\":14703:14708   */\n      dup2\n        /* \"#utility.yul\":14678:14709   */\n      tag_706\n      jump\t// in\n        /* \"#utility.yul\":15439:15566   */\n    tag_306:\n        /* \"#utility.yul\":15500:15510   */\n      0x4e487b71\n        /* \"#utility.yul\":15495:15498   */\n      0xe0\n        /* \"#utility.yul\":15491:15511   */\n      shl\n        /* \"#utility.yul\":15488:15489   */\n      0x00\n        /* \"#utility.yul\":15481:15512   */\n      mstore\n        /* \"#utility.yul\":15531:15535   */\n      0x32\n        /* \"#utility.yul\":15528:15529   */\n      0x04\n        /* \"#utility.yul\":15521:15536   */\n      mstore\n        /* \"#utility.yul\":15555:15559   */\n      0x24\n        /* \"#utility.yul\":15552:15553   */\n      0x00\n        /* \"#utility.yul\":15545:15560   */\n      revert\n        /* \"#utility.yul\":15571:15698   */\n    tag_712:\n        /* \"#utility.yul\":15632:15642   */\n      0x4e487b71\n        /* \"#utility.yul\":15627:15630   */\n      0xe0\n        /* \"#utility.yul\":15623:15643   */\n      shl\n        /* \"#utility.yul\":15620:15621   */\n      0x00\n        /* \"#utility.yul\":15613:15644   */\n      mstore\n        /* \"#utility.yul\":15663:15667   */\n      0x11\n        /* \"#utility.yul\":15660:15661   */\n      0x04\n        /* \"#utility.yul\":15653:15668   */\n      mstore\n        /* \"#utility.yul\":15687:15691   */\n      0x24\n        /* \"#utility.yul\":15684:15685   */\n      0x00\n        /* \"#utility.yul\":15677:15692   */\n      revert\n        /* \"#utility.yul\":15703:15871   */\n    tag_311:\n        /* \"#utility.yul\":15776:15785   */\n      dup1\n      dup3\n      mul\n        /* \"#utility.yul\":15807:15816   */\n      dup2\n      iszero\n        /* \"#utility.yul\":15824:15839   */\n      dup3\n      dup3\n      div\n        /* \"#utility.yul\":15818:15840   */\n      dup5\n      eq\n        /* \"#utility.yul\":15804:15841   */\n      or\n        /* \"#utility.yul\":15794:15865   */\n      tag_248\n      jumpi\n        /* \"#utility.yul\":15845:15863   */\n      tag_248\n      tag_712\n      jump\t// in\n        /* \"#utility.yul\":15876:16003   */\n    tag_713:\n        /* \"#utility.yul\":15937:15947   */\n      0x4e487b71\n        /* \"#utility.yul\":15932:15935   */\n      0xe0\n        /* \"#utility.yul\":15928:15948   */\n      shl\n        /* \"#utility.yul\":15925:15926   */\n      0x00\n        /* \"#utility.yul\":15918:15949   */\n      mstore\n        /* \"#utility.yul\":15968:15972   */\n      0x12\n        /* \"#utility.yul\":15965:15966   */\n      0x04\n        /* \"#utility.yul\":15958:15973   */\n      mstore\n        /* \"#utility.yul\":15992:15996   */\n      0x24\n        /* \"#utility.yul\":15989:15990   */\n      0x00\n        /* \"#utility.yul\":15982:15997   */\n      revert\n        /* \"#utility.yul\":16008:16128   */\n    tag_313:\n        /* \"#utility.yul\":16048:16049   */\n      0x00\n        /* \"#utility.yul\":16074:16075   */\n      dup3\n        /* \"#utility.yul\":16064:16099   */\n      tag_850\n      jumpi\n        /* \"#utility.yul\":16079:16097   */\n      tag_850\n      tag_713\n      jump\t// in\n    tag_850:\n      pop\n        /* \"#utility.yul\":16113:16122   */\n      div\n      swap1\n        /* \"#utility.yul\":16008:16128   */\n      jump\t// out\n        /* \"#utility.yul\":16785:17220   */\n    tag_365:\n      sub(shl(0xa0, 0x01), 0x01)\n        /* \"#utility.yul\":16990:16996   */\n      dup5\n        /* \"#utility.yul\":16986:17041   */\n      and\n        /* \"#utility.yul\":16975:16984   */\n      dup2\n        /* \"#utility.yul\":16968:17042   */\n      mstore\n        /* \"#utility.yul\":17078:17080   */\n      0x60\n        /* \"#utility.yul\":17073:17075   */\n      0x20\n        /* \"#utility.yul\":17062:17071   */\n      dup3\n        /* \"#utility.yul\":17058:17076   */\n      add\n        /* \"#utility.yul\":17051:17081   */\n      mstore\n        /* \"#utility.yul\":16949:16953   */\n      0x00\n        /* \"#utility.yul\":17098:17154   */\n      tag_854\n        /* \"#utility.yul\":17150:17152   */\n      0x60\n        /* \"#utility.yul\":17139:17148   */\n      dup4\n        /* \"#utility.yul\":17135:17153   */\n      add\n        /* \"#utility.yul\":17127:17133   */\n      dup6\n        /* \"#utility.yul\":17098:17154   */\n      tag_710\n      jump\t// in\n    tag_854:\n        /* \"#utility.yul\":17090:17154   */\n      swap1\n      pop\n        /* \"#utility.yul\":17202:17212   */\n      0xffffffff\n        /* \"#utility.yul\":17194:17200   */\n      dup4\n        /* \"#utility.yul\":17190:17213   */\n      and\n        /* \"#utility.yul\":17185:17187   */\n      0x40\n        /* \"#utility.yul\":17174:17183   */\n      dup4\n        /* \"#utility.yul\":17170:17188   */\n      add\n        /* \"#utility.yul\":17163:17214   */\n      mstore\n        /* \"#utility.yul\":16785:17220   */\n      swap5\n      swap4\n      pop\n      pop\n      pop\n      pop\n      jump\t// out\n        /* \"#utility.yul\":17225:17360   */\n    tag_412:\n        /* \"#utility.yul\":17264:17267   */\n      0x00\n        /* \"#utility.yul\":17285:17302   */\n      0x01\n      dup3\n      add\n        /* \"#utility.yul\":17282:17325   */\n      tag_857\n      jumpi\n        /* \"#utility.yul\":17305:17323   */\n      tag_857\n      tag_712\n      jump\t// in\n    tag_857:\n      pop\n        /* \"#utility.yul\":17352:17353   */\n      0x01\n        /* \"#utility.yul\":17341:17354   */\n      add\n      swap1\n        /* \"#utility.yul\":17225:17360   */\n      jump\t// out\n        /* \"#utility.yul\":17365:17886   */\n    tag_463:\n        /* \"#utility.yul\":17442:17446   */\n      0x00\n        /* \"#utility.yul\":17448:17454   */\n      dup1\n        /* \"#utility.yul\":17508:17519   */\n      dup4\n        /* \"#utility.yul\":17495:17520   */\n      calldataload\n        /* \"#utility.yul\":17602:17604   */\n      0x1e\n        /* \"#utility.yul\":17598:17605   */\n      not\n        /* \"#utility.yul\":17587:17595   */\n      dup5\n        /* \"#utility.yul\":17571:17585   */\n      calldatasize\n        /* \"#utility.yul\":17567:17596   */\n      sub\n        /* \"#utility.yul\":17563:17606   */\n      add\n        /* \"#utility.yul\":17543:17561   */\n      dup2\n        /* \"#utility.yul\":17539:17607   */\n      slt\n        /* \"#utility.yul\":17529:17625   */\n      tag_859\n      jumpi\n        /* \"#utility.yul\":17621:17622   */\n      0x00\n        /* \"#utility.yul\":17618:17619   */\n      dup1\n        /* \"#utility.yul\":17611:17623   */\n      revert\n        /* \"#utility.yul\":17529:17625   */\n    tag_859:\n        /* \"#utility.yul\":17648:17681   */\n      dup4\n      add\n        /* \"#utility.yul\":17700:17720   */\n      dup1\n      calldataload\n      swap2\n      pop\n        /* \"#utility.yul\":17743:17761   */\n      0xffffffffffffffff\n        /* \"#utility.yul\":17732:17762   */\n      dup3\n      gt\n        /* \"#utility.yul\":17729:17779   */\n      iszero\n      tag_860\n      jumpi\n        /* \"#utility.yul\":17775:17776   */\n      0x00\n        /* \"#utility.yul\":17772:17773   */\n      dup1\n        /* \"#utility.yul\":17765:17777   */\n      revert\n        /* \"#utility.yul\":17729:17779   */\n    tag_860:\n        /* \"#utility.yul\":17808:17812   */\n      0x20\n        /* \"#utility.yul\":17796:17813   */\n      add\n      swap2\n      pop\n        /* \"#utility.yul\":17839:17853   */\n      calldatasize\n        /* \"#utility.yul\":17835:17862   */\n      dup2\n      swap1\n      sub\n        /* \"#utility.yul\":17825:17863   */\n      dup3\n      sgt\n        /* \"#utility.yul\":17822:17880   */\n      iszero\n      tag_861\n      jumpi\n        /* \"#utility.yul\":17876:17877   */\n      0x00\n        /* \"#utility.yul\":17873:17874   */\n      dup1\n        /* \"#utility.yul\":17866:17878   */\n      revert\n        /* \"#utility.yul\":17822:17880   */\n    tag_861:\n        /* \"#utility.yul\":17365:17886   */\n      swap3\n      pop\n      swap3\n      swap1\n      pop\n      jump\t// out\n        /* \"#utility.yul\":17891:18251   */\n    tag_465:\n        /* \"#utility.yul\":18102:18108   */\n      dup3\n        /* \"#utility.yul\":18094:18100   */\n      dup5\n        /* \"#utility.yul\":18089:18092   */\n      dup3\n        /* \"#utility.yul\":18076:18109   */\n      calldatacopy\n        /* \"#utility.yul\":18172:18174   */\n      0x60\n        /* \"#utility.yul\":18168:18183   */\n      swap2\n      swap1\n      swap2\n      shl\n      not(0xffffffffffffffffffffffff)\n        /* \"#utility.yul\":18164:18217   */\n      and\n        /* \"#utility.yul\":18128:18144   */\n      swap2\n      add\n        /* \"#utility.yul\":18153:18218   */\n      swap1\n      dup2\n      mstore\n        /* \"#utility.yul\":18242:18244   */\n      0x14\n        /* \"#utility.yul\":18234:18245   */\n      add\n      swap2\n        /* \"#utility.yul\":17891:18251   */\n      swap1\n      pop\n      jump\t// out\n        /* \"#utility.yul\":18256:18468   */\n    tag_714:\n        /* \"#utility.yul\":18298:18301   */\n      0x00\n        /* \"#utility.yul\":18336:18341   */\n      dup2\n        /* \"#utility.yul\":18330:18342   */\n      mload\n        /* \"#utility.yul\":18380:18386   */\n      dup1\n        /* \"#utility.yul\":18373:18377   */\n      0x20\n        /* \"#utility.yul\":18366:18371   */\n      dup5\n        /* \"#utility.yul\":18362:18378   */\n      add\n        /* \"#utility.yul\":18357:18360   */\n      dup6\n        /* \"#utility.yul\":18351:18387   */\n      mcopy\n        /* \"#utility.yul\":18442:18443   */\n      0x00\n        /* \"#utility.yul\":18406:18422   */\n      swap4\n      add\n        /* \"#utility.yul\":18431:18444   */\n      swap3\n      dup4\n      mstore\n      pop\n        /* \"#utility.yul\":18406:18422   */\n      swap1\n      swap2\n        /* \"#utility.yul\":18256:18468   */\n      swap1\n      pop\n      jump\t// out\n        /* \"#utility.yul\":18473:18740   */\n    tag_505:\n        /* \"#utility.yul\":18652:18655   */\n      0x00\n        /* \"#utility.yul\":18677:18734   */\n      tag_324\n        /* \"#utility.yul\":18703:18733   */\n      tag_866\n        /* \"#utility.yul\":18729:18732   */\n      dup4\n        /* \"#utility.yul\":18721:18727   */\n      dup7\n        /* \"#utility.yul\":18703:18733   */\n      tag_714\n      jump\t// in\n    tag_866:\n        /* \"#utility.yul\":18695:18701   */\n      dup5\n        /* \"#utility.yul\":18677:18734   */\n      tag_714\n      jump\t// in\n        /* \"#utility.yul\":19215:19733   */\n    tag_716:\n        /* \"#utility.yul\":19317:19319   */\n      0x1f\n        /* \"#utility.yul\":19312:19315   */\n      dup3\n        /* \"#utility.yul\":19309:19320   */\n      gt\n        /* \"#utility.yul\":19306:19727   */\n      iszero\n      tag_269\n      jumpi\n        /* \"#utility.yul\":19353:19358   */\n      dup1\n        /* \"#utility.yul\":19350:19351   */\n      0x00\n        /* \"#utility.yul\":19343:19359   */\n      mstore\n        /* \"#utility.yul\":19397:19401   */\n      0x20\n        /* \"#utility.yul\":19394:19395   */\n      0x00\n        /* \"#utility.yul\":19384:19402   */\n      keccak256\n        /* \"#utility.yul\":19467:19469   */\n      0x1f\n        /* \"#utility.yul\":19455:19465   */\n      dup5\n        /* \"#utility.yul\":19451:19470   */\n      add\n        /* \"#utility.yul\":19448:19449   */\n      0x05\n        /* \"#utility.yul\":19444:19471   */\n      shr\n        /* \"#utility.yul\":19438:19442   */\n      dup2\n        /* \"#utility.yul\":19434:19472   */\n      add\n        /* \"#utility.yul\":19503:19507   */\n      0x20\n        /* \"#utility.yul\":19491:19501   */\n      dup6\n        /* \"#utility.yul\":19488:19508   */\n      lt\n        /* \"#utility.yul\":19485:19532   */\n      iszero\n      tag_871\n      jumpi\n      pop\n        /* \"#utility.yul\":19526:19530   */\n      dup1\n        /* \"#utility.yul\":19485:19532   */\n    tag_871:\n        /* \"#utility.yul\":19581:19583   */\n      0x1f\n        /* \"#utility.yul\":19576:19579   */\n      dup5\n        /* \"#utility.yul\":19572:19584   */\n      add\n        /* \"#utility.yul\":19569:19570   */\n      0x05\n        /* \"#utility.yul\":19565:19585   */\n      shr\n        /* \"#utility.yul\":19559:19563   */\n      dup3\n        /* \"#utility.yul\":19555:19586   */\n      add\n        /* \"#utility.yul\":19545:19586   */\n      swap2\n      pop\n        /* \"#utility.yul\":19636:19717   */\n    tag_872:\n        /* \"#utility.yul\":19654:19656   */\n      dup2\n        /* \"#utility.yul\":19647:19652   */\n      dup2\n        /* \"#utility.yul\":19644:19657   */\n      lt\n        /* \"#utility.yul\":19636:19717   */\n      iszero\n      tag_568\n      jumpi\n        /* \"#utility.yul\":19713:19714   */\n      0x00\n        /* \"#utility.yul\":19699:19715   */\n      dup2\n      sstore\n        /* \"#utility.yul\":19680:19681   */\n      0x01\n        /* \"#utility.yul\":19669:19682   */\n      add\n        /* \"#utility.yul\":19636:19717   */\n      jump(tag_872)\n        /* \"#utility.yul\":19909:21254   */\n    tag_520:\n        /* \"#utility.yul\":20035:20038   */\n      dup2\n        /* \"#utility.yul\":20029:20039   */\n      mload\n        /* \"#utility.yul\":20062:20080   */\n      0xffffffffffffffff\n        /* \"#utility.yul\":20054:20060   */\n      dup2\n        /* \"#utility.yul\":20051:20081   */\n      gt\n        /* \"#utility.yul\":20048:20104   */\n      iszero\n      tag_878\n      jumpi\n        /* \"#utility.yul\":20084:20102   */\n      tag_878\n      tag_332\n      jump\t// in\n    tag_878:\n        /* \"#utility.yul\":20113:20210   */\n      tag_879\n        /* \"#utility.yul\":20203:20209   */\n      dup2\n        /* \"#utility.yul\":20163:20201   */\n      tag_880\n        /* \"#utility.yul\":20195:20199   */\n      dup5\n        /* \"#utility.yul\":20189:20200   */\n      sload\n        /* \"#utility.yul\":20163:20201   */\n      tag_251\n      jump\t// in\n    tag_880:\n        /* \"#utility.yul\":20157:20161   */\n      dup5\n        /* \"#utility.yul\":20113:20210   */\n      tag_716\n      jump\t// in\n    tag_879:\n        /* \"#utility.yul\":20265:20269   */\n      0x20\n      dup1\n        /* \"#utility.yul\":20322:20324   */\n      0x1f\n        /* \"#utility.yul\":20311:20325   */\n      dup4\n      gt\n        /* \"#utility.yul\":20339:20340   */\n      0x01\n        /* \"#utility.yul\":20334:20997   */\n      dup2\n      eq\n      tag_882\n      jumpi\n        /* \"#utility.yul\":21041:21042   */\n      0x00\n        /* \"#utility.yul\":21058:21064   */\n      dup5\n        /* \"#utility.yul\":21055:21144   */\n      iszero\n      tag_883\n      jumpi\n      pop\n        /* \"#utility.yul\":21110:21129   */\n      dup6\n      dup4\n      add\n        /* \"#utility.yul\":21104:21130   */\n      mload\n        /* \"#utility.yul\":21055:21144   */\n    tag_883:\n      not(0x00)\n        /* \"#utility.yul\":19866:19867   */\n      0x03\n        /* \"#utility.yul\":19862:19873   */\n      dup7\n      swap1\n      shl\n        /* \"#utility.yul\":19858:19882   */\n      shr\n        /* \"#utility.yul\":19854:19883   */\n      not\n        /* \"#utility.yul\":19844:19884   */\n      and\n        /* \"#utility.yul\":19890:19891   */\n      0x01\n        /* \"#utility.yul\":19886:19897   */\n      dup6\n      swap1\n      shl\n        /* \"#utility.yul\":19841:19898   */\n      or\n        /* \"#utility.yul\":21157:21238   */\n      dup6\n      sstore\n        /* \"#utility.yul\":20304:21248   */\n      jump(tag_881)\n        /* \"#utility.yul\":20334:20997   */\n    tag_882:\n        /* \"#utility.yul\":19162:19163   */\n      0x00\n        /* \"#utility.yul\":19155:19169   */\n      dup6\n      dup2\n      mstore\n        /* \"#utility.yul\":19199:19203   */\n      0x20\n        /* \"#utility.yul\":19186:19204   */\n      dup2\n      keccak256\n      not(0x1f)\n        /* \"#utility.yul\":20370:20390   */\n      dup7\n      and\n      swap2\n        /* \"#utility.yul\":20488:20724   */\n    tag_886:\n        /* \"#utility.yul\":20502:20509   */\n      dup3\n        /* \"#utility.yul\":20499:20500   */\n      dup2\n        /* \"#utility.yul\":20496:20510   */\n      lt\n        /* \"#utility.yul\":20488:20724   */\n      iszero\n      tag_888\n      jumpi\n        /* \"#utility.yul\":20591:20610   */\n      dup9\n      dup7\n      add\n        /* \"#utility.yul\":20585:20611   */\n      mload\n        /* \"#utility.yul\":20570:20612   */\n      dup3\n      sstore\n        /* \"#utility.yul\":20683:20710   */\n      swap5\n      dup5\n      add\n      swap5\n        /* \"#utility.yul\":20651:20652   */\n      0x01\n        /* \"#utility.yul\":20639:20653   */\n      swap1\n      swap2\n      add\n      swap1\n        /* \"#utility.yul\":20518:20537   */\n      dup5\n      add\n        /* \"#utility.yul\":20488:20724   */\n      jump(tag_886)\n    tag_888:\n        /* \"#utility.yul\":20492:20495   */\n      pop\n        /* \"#utility.yul\":20752:20758   */\n      dup6\n        /* \"#utility.yul\":20743:20750   */\n      dup3\n        /* \"#utility.yul\":20740:20759   */\n      lt\n        /* \"#utility.yul\":20737:20938   */\n      iszero\n      tag_889\n      jumpi\n        /* \"#utility.yul\":20813:20832   */\n      dup8\n      dup6\n      add\n        /* \"#utility.yul\":20807:20833   */\n      mload\n      not(0x00)\n        /* \"#utility.yul\":20896:20897   */\n      0x03\n        /* \"#utility.yul\":20892:20906   */\n      dup9\n      swap1\n      shl\n        /* \"#utility.yul\":20908:20911   */\n      0xf8\n        /* \"#utility.yul\":20888:20912   */\n      and\n        /* \"#utility.yul\":20884:20921   */\n      shr\n        /* \"#utility.yul\":20880:20922   */\n      not\n        /* \"#utility.yul\":20865:20923   */\n      and\n        /* \"#utility.yul\":20850:20924   */\n      dup2\n      sstore\n        /* \"#utility.yul\":20737:20938   */\n    tag_889:\n      pop\n      pop\n        /* \"#utility.yul\":20984:20985   */\n      0x01\n        /* \"#utility.yul\":20975:20981   */\n      dup5\n        /* \"#utility.yul\":20972:20973   */\n      0x01\n        /* \"#utility.yul\":20968:20982   */\n      shl\n        /* \"#utility.yul\":20964:20986   */\n      add\n        /* \"#utility.yul\":20958:20962   */\n      dup6\n        /* \"#utility.yul\":20951:20987   */\n      sstore\n        /* \"#utility.yul\":20304:21248   */\n    tag_881:\n      pop\n      pop\n      pop\n      pop\n        /* \"#utility.yul\":19909:21254   */\n      pop\n      pop\n      jump\t// out\n        /* \"#utility.yul\":21524:21649   */\n    tag_606:\n        /* \"#utility.yul\":21589:21598   */\n      dup1\n      dup3\n      add\n        /* \"#utility.yul\":21610:21620   */\n      dup1\n      dup3\n      gt\n        /* \"#utility.yul\":21607:21643   */\n      iszero\n      tag_248\n      jumpi\n        /* \"#utility.yul\":21623:21641   */\n      tag_248\n      tag_712\n      jump\t// in\n        /* \"#utility.yul\":21654:22059   */\n    tag_619:\n        /* \"#utility.yul\":21851:21853   */\n      0x40\n        /* \"#utility.yul\":21840:21849   */\n      dup2\n        /* \"#utility.yul\":21833:21854   */\n      mstore\n        /* \"#utility.yul\":21814:21818   */\n      0x00\n        /* \"#utility.yul\":21877:21933   */\n      tag_895\n        /* \"#utility.yul\":21929:21931   */\n      0x40\n        /* \"#utility.yul\":21918:21927   */\n      dup4\n        /* \"#utility.yul\":21914:21932   */\n      add\n        /* \"#utility.yul\":21906:21912   */\n      dup6\n        /* \"#utility.yul\":21877:21933   */\n      tag_710\n      jump\t// in\n    tag_895:\n        /* \"#utility.yul\":21981:21990   */\n      dup3\n        /* \"#utility.yul\":21973:21979   */\n      dup2\n        /* \"#utility.yul\":21969:21991   */\n      sub\n        /* \"#utility.yul\":21964:21966   */\n      0x20\n        /* \"#utility.yul\":21953:21962   */\n      dup5\n        /* \"#utility.yul\":21949:21967   */\n      add\n        /* \"#utility.yul\":21942:21992   */\n      mstore\n        /* \"#utility.yul\":22009:22053   */\n      tag_896\n        /* \"#utility.yul\":22046:22052   */\n      dup2\n        /* \"#utility.yul\":22038:22044   */\n      dup6\n        /* \"#utility.yul\":22009:22053   */\n      tag_710\n      jump\t// in\n    tag_896:\n        /* \"#utility.yul\":22001:22053   */\n      swap6\n        /* \"#utility.yul\":21654:22059   */\n      swap5\n      pop\n      pop\n      pop\n      pop\n      pop\n      jump\t// out\n        /* \"#utility.yul\":22064:22587   */\n    tag_631:\n        /* \"#utility.yul\":22258:22262   */\n      0x00\n      sub(shl(0xa0, 0x01), 0x01)\n        /* \"#utility.yul\":22368:22370   */\n      dup1\n        /* \"#utility.yul\":22360:22366   */\n      dup8\n        /* \"#utility.yul\":22356:22371   */\n      and\n        /* \"#utility.yul\":22345:22354   */\n      dup4\n        /* \"#utility.yul\":22338:22372   */\n      mstore\n        /* \"#utility.yul\":22420:22422   */\n      dup1\n        /* \"#utility.yul\":22412:22418   */\n      dup7\n        /* \"#utility.yul\":22408:22423   */\n      and\n        /* \"#utility.yul\":22403:22405   */\n      0x20\n        /* \"#utility.yul\":22392:22401   */\n      dup5\n        /* \"#utility.yul\":22388:22406   */\n      add\n        /* \"#utility.yul\":22381:22424   */\n      mstore\n      pop\n        /* \"#utility.yul\":22460:22466   */\n      dup4\n        /* \"#utility.yul\":22455:22457   */\n      0x40\n        /* \"#utility.yul\":22444:22453   */\n      dup4\n        /* \"#utility.yul\":22440:22458   */\n      add\n        /* \"#utility.yul\":22433:22467   */\n      mstore\n        /* \"#utility.yul\":22503:22506   */\n      0x80\n        /* \"#utility.yul\":22498:22500   */\n      0x60\n        /* \"#utility.yul\":22487:22496   */\n      dup4\n        /* \"#utility.yul\":22483:22501   */\n      add\n        /* \"#utility.yul\":22476:22507   */\n      mstore\n        /* \"#utility.yul\":22524:22581   */\n      tag_690\n        /* \"#utility.yul\":22576:22579   */\n      0x80\n        /* \"#utility.yul\":22565:22574   */\n      dup4\n        /* \"#utility.yul\":22561:22580   */\n      add\n        /* \"#utility.yul\":22553:22559   */\n      dup5\n        /* \"#utility.yul\":22524:22581   */\n      tag_710\n      jump\t// in\n        /* \"#utility.yul\":22592:22841   */\n    tag_634:\n        /* \"#utility.yul\":22661:22667   */\n      0x00\n        /* \"#utility.yul\":22714:22716   */\n      0x20\n        /* \"#utility.yul\":22702:22711   */\n      dup3\n        /* \"#utility.yul\":22693:22700   */\n      dup5\n        /* \"#utility.yul\":22689:22712   */\n      sub\n        /* \"#utility.yul\":22685:22717   */\n      slt\n        /* \"#utility.yul\":22682:22734   */\n      iszero\n      tag_900\n      jumpi\n        /* \"#utility.yul\":22730:22731   */\n      0x00\n        /* \"#utility.yul\":22727:22728   */\n      dup1\n        /* \"#utility.yul\":22720:22732   */\n      revert\n        /* \"#utility.yul\":22682:22734   */\n    tag_900:\n        /* \"#utility.yul\":22762:22771   */\n      dup2\n        /* \"#utility.yul\":22756:22772   */\n      mload\n        /* \"#utility.yul\":22781:22811   */\n      tag_413\n        /* \"#utility.yul\":22805:22810   */\n      dup2\n        /* \"#utility.yul\":22781:22811   */\n      tag_709\n      jump\t// in\n        /* \"#utility.yul\":22846:22974   */\n    tag_675:\n        /* \"#utility.yul\":22913:22922   */\n      dup2\n      dup2\n      sub\n        /* \"#utility.yul\":22934:22945   */\n      dup2\n      dup2\n      gt\n        /* \"#utility.yul\":22931:22968   */\n      iszero\n      tag_248\n      jumpi\n        /* \"#utility.yul\":22948:22966   */\n      tag_248\n      tag_712\n      jump\t// in\n        /* \"#utility.yul\":22979:23091   */\n    tag_677:\n        /* \"#utility.yul\":23011:23012   */\n      0x00\n        /* \"#utility.yul\":23037:23038   */\n      dup3\n        /* \"#utility.yul\":23027:23062   */\n      tag_907\n      jumpi\n        /* \"#utility.yul\":23042:23060   */\n      tag_907\n      tag_713\n      jump\t// in\n    tag_907:\n      pop\n        /* \"#utility.yul\":23076:23085   */\n      mod\n      swap1\n        /* \"#utility.yul\":22979:23091   */\n      jump\t// out\n        /* \"#utility.yul\":23096:23286   */\n    tag_686:\n        /* \"#utility.yul\":23225:23228   */\n      0x00\n        /* \"#utility.yul\":23250:23280   */\n      tag_413\n        /* \"#utility.yul\":23276:23279   */\n      dup3\n        /* \"#utility.yul\":23268:23274   */\n      dup5\n        /* \"#utility.yul\":23250:23280   */\n      tag_714\n      jump\t// in\n    stop\n    data_9fdcd12e4b726339b32a442b0a448365d5d85c96b2d2cff917b4f66c63110398 416464726573733a206c6f772d6c6576656c2064656c65676174652063616c6c206661696c6564\n\n    auxdata: 0xa26469706673582212203523a54f351b892197fefc789f44c4a40937ba40c729d64be7d03cf907af9d3864736f6c63430008190033\n}\n",
    "bytecode": {
      "linkReferences": {},
      "object": "60c060405234801561000f575f80fd5b5060405161360338038061360383398101604081905261002e916101d7565b3360405180604001604052806011815260200170141c9bd91d58d95c88141c9bdd1bd8dbdb607a1b81525060405180604001604052806002815260200161050560f41b8152505f808383816002908161008791906102a0565b50600361009482826102a0565b50505f8055506100a3856100d7565b6100b6826001600160801b038316610128565b5050506001600160a01b0393841660805250501660a052600160105561035f565b600980546001600160a01b038381166001600160a01b0319831681179093556040519116919082907f8292fce18fa69edf4db7b94ea2e58241df0ae57f97e0a6c9b29067028bf92d76905f90a35050565b61271081111561015a57604051630a4930ad60e31b815261271060048201526024810182905260440160405180910390fd5b600a80546001600160a01b0384166001600160b01b03199091168117600160a01b61ffff851602179091556040518281527f90d7ec04bcb8978719414f82e52e4cb651db41d0e6f8cea6118c2191e6183adb9060200160405180910390a25050565b80516001600160a01b03811681146101d2575f80fd5b919050565b5f80604083850312156101e8575f80fd5b6101f1836101bc565b91506101ff602084016101bc565b90509250929050565b634e487b7160e01b5f52604160045260245ffd5b600181811c9082168061023057607f821691505b60208210810361024e57634e487b7160e01b5f52602260045260245ffd5b50919050565b601f82111561029b57805f5260205f20601f840160051c810160208510156102795750805b601f840160051c820191505b81811015610298575f8155600101610285565b50505b505050565b81516001600160401b038111156102b9576102b9610208565b6102cd816102c7845461021c565b84610254565b602080601f831160018114610300575f84156102e95750858301515b5f19600386901b1c1916600185901b178555610357565b5f85815260208120601f198616915b8281101561032e5788860151825594840194600190910190840161030f565b508582101561034b57878501515f19600388901b60f8161c191681555b505060018460011b0185555b505050505050565b60805160a0516132606103a35f395f81816104c6015281816109e70152610f5801525f81816106cf0152818161097801528181610a110152610f2b01526132605ff3fe608060405234801561000f575f80fd5b50600436106102d7575f3560e01c80636e71473b116101875780639bcf7a15116100dd578063b9b3f69111610093578063e8a3d4851161006e578063e8a3d48514610687578063e985e9c51461068f578063f43b3613146106ca575f80fd5b8063b9b3f69114610635578063c23dc68f14610654578063c87b56dd14610674575f80fd5b8063ac9650d8116100c3578063ac9650d8146105e4578063b24f2d3914610604578063b88d4fde14610622575f80fd5b80639bcf7a15146105be578063a22cb465146105d1575f80fd5b80638462151c1161013d57806395d89b411161011857806395d89b41146105905780639769dc0e1461059857806399a2557a146105ab575f80fd5b80638462151c1461054c5780638da5cb5b1461056c578063938e3d7b1461057d575f80fd5b8063754a81d91161016d578063754a81d91461050e57806375794a3c14610521578063830405321461052a575f80fd5b80636e71473b146104e857806370a08231146104fb575f80fd5b80632a55205a1161023c5780634cc157df116101f25780636352211e116101cd5780636352211e146104a657806363b45e2d146104b9578063663ab59d146104c1575f80fd5b80634cc157df1461043e5780635bbb217714610473578063600dd5ea14610493575f80fd5b806342842e0e1161022257806342842e0e1461040557806342966c6814610418578063430c20811461042b575f80fd5b80632a55205a146103cc5780633b1475a7146103fe575f80fd5b806313af4035116102915780631b827671116102775780631b8276711461039357806323b872dd146103a65780632419f51b146103b9575f80fd5b806313af40351461036b57806318160ddd1461037e575f80fd5b806306fdde03116102c157806306fdde0314610318578063081812fc1461032d578063095ea7b314610358575f80fd5b806275a317146102db57806301ffc9a7146102f0575b5f80fd5b6102ee6102e93660046128f6565b6106f1565b005b6103036102fe366004612958565b610779565b60405190151581526020015b60405180910390f35b6103206107e5565b60405161030f91906129a1565b61034061033b3660046129b3565b610875565b6040516001600160a01b03909116815260200161030f565b6102ee6103663660046129ca565b6108b7565b6102ee6103793660046129f4565b61093c565b6001545f54035b60405190815260200161030f565b6102ee6103a1366004612a0f565b61096d565b6102ee6103b4366004612a3d565b610b7e565b6103856103c73660046129b3565b610b89565b6103df6103da366004612a7b565b610bd8565b604080516001600160a01b03909316835260208301919091520161030f565b5f54610385565b6102ee610413366004612a3d565b610c13565b6102ee6104263660046129b3565b610c2d565b6103036104393660046129ca565b610c38565b61045161044c3660046129b3565b610cb5565b604080516001600160a01b03909316835261ffff90911660208301520161030f565b610486610481366004612a9b565b610d1f565b60405161030f9190612b3c565b6102ee6104a13660046129ca565b610de2565b6103406104b43660046129b3565b610e11565b600c54610385565b6103407f000000000000000000000000000000000000000000000000000000000000000081565b6102ee6104f6366004612a0f565b610e22565b6103856105093660046129f4565b610fb9565b6102ee61051c366004612ba6565b611006565b61038560105481565b6103036105383660046129b3565b600e6020525f908152604090205460ff1681565b61055f61055a3660046129f4565b61107f565b60405161030f9190612c21565b6009546001600160a01b0316610340565b6102ee61058b366004612c58565b6111b9565b6103206111e7565b6102ee6105a63660046129f4565b6111f6565b61055f6105b9366004612c8a565b611244565b6102ee6105cc366004612cbc565b6113f1565b6102ee6105df366004612ce0565b611421565b6105f76105f2366004612d10565b6114b5565b60405161030f9190612d7f565b600a546001600160a01b03811690600160a01b900461ffff16610451565b6102ee610630366004612de1565b611619565b61063f620f424081565b60405163ffffffff909116815260200161030f565b6106676106623660046129b3565b61165d565b60405161030f9190612e3d565b6103206106823660046129b3565b611709565b6103206117f2565b61030361069d366004612e73565b6001600160a01b039182165f90815260076020908152604080832093909416825291909152205460ff1690565b6103407f000000000000000000000000000000000000000000000000000000000000000081565b6106f961187e565b61074a5760405162461bcd60e51b815260206004820152601760248201527f4e6f7420617574686f72697a656420746f206d696e742e00000000000000000060448201526064015b60405180910390fd5b61075b6107555f5490565b826118aa565b61077582600160405180602001604052805f815250611928565b5050565b5f6301ffc9a760e01b6001600160e01b0319831614806107a957506380ac58cd60e01b6001600160e01b03198316145b806107c45750635b5e139f60e01b6001600160e01b03198316145b806107df57506001600160e01b0319821663152a902d60e11b145b92915050565b6060600280546107f490612e9f565b80601f016020809104026020016040519081016040528092919081815260200182805461082090612e9f565b801561086b5780601f106108425761010080835404028352916020019161086b565b820191905f5260205f20905b81548152906001019060200180831161084e57829003601f168201915b5050505050905090565b5f61087f82611ae7565b61089c576040516333d1c03960e21b815260040160405180910390fd5b505f908152600660205260409020546001600160a01b031690565b5f6108c182610e11565b9050806001600160a01b0316836001600160a01b0316036108f55760405163250fdee360e21b815260040160405180910390fd5b336001600160a01b0382161461092c5761090f813361069d565b61092c576040516367d9dca160e11b815260040160405180910390fd5b610937838383611b10565b505050565b61094461187e565b610961576040516316ccb9cb60e11b815260040160405180910390fd5b61096a81611b78565b50565b336001600160a01b037f000000000000000000000000000000000000000000000000000000000000000016146109e55760405162461bcd60e51b815260206004820152601660248201527f556e617574686f72697a6564206d657373656e676572000000000000000000006044820152606401610741565b7f00000000000000000000000000000000000000000000000000000000000000006001600160a01b03167f00000000000000000000000000000000000000000000000000000000000000006001600160a01b031663674df7126040518163ffffffff1660e01b8152600401602060405180830381865afa158015610a6b573d5f803e3d5ffd5b505050506040513d601f19601f82011682018060405250810190610a8f9190612ed7565b6001600160a01b031614610ae55760405162461bcd60e51b815260206004820152601160248201527f496e76616c6964204c312073656e6465720000000000000000000000000000006044820152606401610741565b610aee82611ae7565b15610b3b5760405162461bcd60e51b815260206004820152601460248201527f546f6b656e20616c7265616479206578697374730000000000000000000000006044820152606401610741565b610b458183611bd6565b6040516001600160a01b0382169083907fe7800c6d4262c7daa24e0ef4ec42df968eaeb6cdebd0e70a05ab4852742788d6905f90a35050565b610937838383611bef565b5f610b93600c5490565b8210610bb557604051630793127760e11b815260048101839052602401610741565b600c8281548110610bc857610bc8612ef2565b905f5260205f2001549050919050565b5f805f80610be586610cb5565b90945084925061ffff169050612710610bfe8287612f1a565b610c089190612f45565b925050509250929050565b61093783838360405180602001604052805f815250611619565b61096a816001611dd8565b5f80610c4383610e11565b9050806001600160a01b0316846001600160a01b03161480610c8957506001600160a01b038082165f9081526007602090815260408083209388168352929052205460ff165b80610cad5750836001600160a01b0316610ca284610875565b6001600160a01b0316145b949350505050565b5f818152600b60209081526040808320815180830190925280546001600160a01b031680835260019091015492820192909252829115610cfb5780516020820151610d15565b600a546001600160a01b03811690600160a01b900461ffff165b9250925050915091565b80516060905f8167ffffffffffffffff811115610d3e57610d3e612845565b604051908082528060200260200182016040528015610d8757816020015b604080516060810182525f80825260208083018290529282015282525f19909201910181610d5c5790505b5090505f5b828114610dda57610db5858281518110610da857610da8612ef2565b602002602001015161165d565b828281518110610dc757610dc7612ef2565b6020908102919091010152600101610d8c565b509392505050565b610dea61187e565b610e0757604051636fae358160e11b815260040160405180910390fd5b6107758282611fc7565b5f610e1b8261206f565b5192915050565b610e2c3383610c38565b610e785760405162461bcd60e51b815260206004820152601560248201527f4e6f74206f776e6572206f7220617070726f76656400000000000000000000006044820152606401610741565b610e8182612186565b6040516001600160a01b0382169083907fd5df47bfe7b82577bf15be85e7a913251185a6f2d19b35211f8e2c060c995f05905f90a3604051602481018390526001600160a01b03821660448201525f9060640160408051601f198184030181529181526020820180517bffffffffffffffffffffffffffffffffffffffffffffffffffffffff166304343bf960e11b17905251633dbb202b60e01b81529091506001600160a01b037f00000000000000000000000000000000000000000000000000000000000000001690633dbb202b90610f87907f0000000000000000000000000000000000000000000000000000000000000000908590620f424090600401612f58565b5f604051808303815f87803b158015610f9e575f80fd5b505af1158015610fb0573d5f803e3d5ffd5b50505050505050565b5f6001600160a01b038216610fe1576040516323d3ad8160e21b815260040160405180910390fd5b506001600160a01b03165f9081526005602052604090205467ffffffffffffffff1690565b61100e61187e565b61105a5760405162461bcd60e51b815260206004820152601760248201527f4e6f7420617574686f72697a656420746f206d696e742e0000000000000000006044820152606401610741565b61106c6110655f5490565b8484612190565b5050611079848483611928565b50505050565b60605f805f61108d85610fb9565b90505f8167ffffffffffffffff8111156110a9576110a9612845565b6040519080825280602002602001820160405280156110d2578160200160208202803683370190505b50604080516060810182525f808252602082018190529181018290529192505b8386146111ad575f81815260046020908152604091829020825160608101845290546001600160a01b0381168252600160a01b810467ffffffffffffffff1692820192909252600160e01b90910460ff16151591810182905292506111a55781516001600160a01b03161561116657815194505b876001600160a01b0316856001600160a01b0316036111a5578083878060010198508151811061119857611198612ef2565b6020026020010181815250505b6001016110f2565b50909695505050505050565b6111c161187e565b6111de57604051639f7f092560e01b815260040160405180910390fd5b61096a816121f2565b6060600380546107f490612e9f565b6009546001600160a01b03163314611221576040516316ccb9cb60e11b815260040160405180910390fd5b61122d81601054611bd6565b60108054905f61123c83612f8f565b919050555050565b606081831061126657604051631960ccad60e11b815260040160405180910390fd5b5f805480841115611275578093505b5f61127f87610fb9565b90508486101561129e5785850381811015611298578091505b506112a1565b505f5b5f8167ffffffffffffffff8111156112bb576112bb612845565b6040519080825280602002602001820160405280156112e4578160200160208202803683370190505b509050815f036112f95793506113ea92505050565b5f6113038861165d565b90505f8160400151611313575080515b885b8881141580156113255750848714155b156113de575f81815260046020908152604091829020825160608101845290546001600160a01b0381168252600160a01b810467ffffffffffffffff1692820192909252600160e01b90910460ff16151591810182905293506113d65782516001600160a01b03161561139757825191505b8a6001600160a01b0316826001600160a01b0316036113d657808488806001019950815181106113c9576113c9612ef2565b6020026020010181815250505b600101611315565b50505092835250909150505b9392505050565b6113f961187e565b61141657604051636fae358160e11b815260040160405180910390fd5b6109378383836122cb565b336001600160a01b0383160361144a5760405163b06307db60e01b815260040160405180910390fd5b335f8181526007602090815260408083206001600160a01b03871680855290835292819020805460ff191686151590811790915590519081529192917f17307eab39ab6107e8899845ad3d59bd9653f200f220920489ca2b5937696c31910160405180910390a35050565b60608167ffffffffffffffff8111156114d0576114d0612845565b60405190808252806020026020018201604052801561150357816020015b60608152602001906001900390816114ee5790505b509050335f805b84811015611610578115611589576115673087878481811061152e5761152e612ef2565b90506020028101906115409190612fa7565b8660405160200161155393929190612ff1565b60405160208183030381529060405261238a565b84828151811061157957611579612ef2565b6020026020010181905250611608565b6115ea3087878481811061159f5761159f612ef2565b90506020028101906115b19190612fa7565b8080601f0160208091040260200160405190810160405280939291908181526020018383808284375f9201919091525061238a92505050565b8482815181106115fc576115fc612ef2565b60200260200101819052505b60010161150a565b50505092915050565b611624848484611bef565b6001600160a01b0383163b1561107957611640848484846123af565b611079576040516368d2bf6b60e11b815260040160405180910390fd5b60408051606080820183525f80835260208084018290528385018290528451928301855281835282018190529281018390529091505f5483106116a05792915050565b505f82815260046020908152604091829020825160608101845290546001600160a01b0381168252600160a01b810467ffffffffffffffff1692820192909252600160e01b90910460ff1615801592820192909252906117005792915050565b6113ea8361206f565b5f818152600f602052604081208054606092919061172690612e9f565b80601f016020809104026020016040519081016040528092919081815260200182805461175290612e9f565b801561179d5780601f106117745761010080835404028352916020019161179d565b820191905f5260205f20905b81548152906001019060200180831161178057829003601f168201915b505050505090505f815111156117b35792915050565b5f6117bd84612496565b9050806117c98561260b565b6040516020016117da92919061302e565b60405160208183030381529060405292505050919050565b600880546117ff90612e9f565b80601f016020809104026020016040519081016040528092919081815260200182805461182b90612e9f565b80156118765780601f1061184d57610100808354040283529160200191611876565b820191905f5260205f20905b81548152906001019060200180831161185957829003601f168201915b505050505081565b5f6118916009546001600160a01b031690565b6001600160a01b0316336001600160a01b031614905090565b5f828152600f6020526040902080546118c290612e9f565b1590506119115760405162461bcd60e51b815260206004820152600f60248201527f55524920616c72656164792073657400000000000000000000000000000000006044820152606401610741565b5f828152600f602052604090206109378282613086565b5f546001600160a01b03841661195057604051622e076360e81b815260040160405180910390fd5b825f036119705760405163b562e8dd60e01b815260040160405180910390fd5b6001600160a01b0384165f81815260056020908152604080832080546fffffffffffffffffffffffffffffffff19811667ffffffffffffffff8083168b0181169182176801000000000000000067ffffffffffffffff1990941690921783900481168b01811690920217909155858452600490925290912080546001600160e01b0319168317600160a01b42909316929092029190911790558190818501903b15611a94575b60405182906001600160a01b038816905f907fddf252ad1be2c89b69c2b068fc378daa952ba7f163c4a11628f55a4df523b3ef908290a4611a5f5f8784806001019550876123af565b611a7c576040516368d2bf6b60e11b815260040160405180910390fd5b808210611a1657825f5414611a8f575f80fd5b611ad8565b5b6040516001830192906001600160a01b038816905f907fddf252ad1be2c89b69c2b068fc378daa952ba7f163c4a11628f55a4df523b3ef908290a4808210611a95575b505f9081556110799085838684565b5f8054821080156107df5750505f90815260046020526040902054600160e01b900460ff161590565b5f82815260066020526040808220805473ffffffffffffffffffffffffffffffffffffffff19166001600160a01b0387811691821790925591518593918516917f8c5be1e5ebec7d5bd14f71427d1e84f3dd0314c0f7b2291e5b200ac8c7c3b92591a4505050565b600980546001600160a01b0383811673ffffffffffffffffffffffffffffffffffffffff19831681179093556040519116919082907f8292fce18fa69edf4db7b94ea2e58241df0ae57f97e0a6c9b29067028bf92d76905f90a35050565b610775828260405180602001604052805f815250611928565b5f611bf98261206f565b9050836001600160a01b0316815f01516001600160a01b031614611c2f5760405162a1148160e81b815260040160405180910390fd5b5f336001600160a01b0386161480611c4c5750611c4c853361069d565b80611c67575033611c5c84610875565b6001600160a01b0316145b905080611c8757604051632ce44b5f60e11b815260040160405180910390fd5b6001600160a01b038416611cae57604051633a954ecd60e21b815260040160405180910390fd5b611cb95f8487611b10565b6001600160a01b038581165f908152600560209081526040808320805467ffffffffffffffff1980821667ffffffffffffffff9283165f1901831617909255898616808652838620805493841693831660019081018416949094179055898652600490945282852080546001600160e01b031916909417600160a01b42909216919091021783558701808452922080549193909116611d8c575f548214611d8c578054602086015167ffffffffffffffff16600160a01b026001600160e01b03199091166001600160a01b038a16171781555b50505082846001600160a01b0316866001600160a01b03167fddf252ad1be2c89b69c2b068fc378daa952ba7f163c4a11628f55a4df523b3ef60405160405180910390a45b5050505050565b5f611de28361206f565b80519091508215611e47575f336001600160a01b0383161480611e0a5750611e0a823361069d565b80611e25575033611e1a86610875565b6001600160a01b0316145b905080611e4557604051632ce44b5f60e11b815260040160405180910390fd5b505b611e525f8583611b10565b6001600160a01b038082165f81815260056020908152604080832080547001000000000000000000000000000000005f1967ffffffffffffffff80841691909101811667ffffffffffffffff19841681178390048216600190810183169093027fffffffffffffffff0000000000000000ffffffffffffffff0000000000000000909416179290921783558b8652600490945282852080547fffffff00ffffffffffffffffffffffffffffffffffffffffffffffffffffffff42909316600160a01b026001600160e01b03199091169097179690961716600160e01b178555918901808452922080549194909116611f7e575f548214611f7e578054602087015167ffffffffffffffff16600160a01b026001600160e01b03199091166001600160a01b038716171781555b50506040518692505f91506001600160a01b038416907fddf252ad1be2c89b69c2b068fc378daa952ba7f163c4a11628f55a4df523b3ef908390a4505060018054810190555050565b612710811115611ff557604051630a4930ad60e31b8152612710600482015260248101829052604401610741565b600a80546001600160a01b0384167fffffffffffffffffffff000000000000000000000000000000000000000000009091168117600160a01b61ffff851602179091556040518281527f90d7ec04bcb8978719414f82e52e4cb651db41d0e6f8cea6118c2191e6183adb9060200160405180910390a25050565b604080516060810182525f8082526020820181905291810191909152815f5481101561216d575f81815260046020908152604091829020825160608101845290546001600160a01b0381168252600160a01b810467ffffffffffffffff1692820192909252600160e01b90910460ff1615159181018290529061216b5780516001600160a01b031615612103579392505050565b505f19015f81815260046020908152604091829020825160608101845290546001600160a01b038116808352600160a01b820467ffffffffffffffff1693830193909352600160e01b900460ff1615159281019290925215612166579392505050565b612103565b505b604051636f96cda160e11b815260040160405180910390fd5b61096a815f611dd8565b5f8061219c8486613146565b600c8054600181019091557fdf6966c971051c3d54ec59162606531493a51404a002842f56009d7e5cf4a8c7018190555f818152600d602052604090209092508291506121e98482613086565b50935093915050565b5f6008805461220090612e9f565b80601f016020809104026020016040519081016040528092919081815260200182805461222c90612e9f565b80156122775780601f1061224e57610100808354040283529160200191612277565b820191905f5260205f20905b81548152906001019060200180831161225a57829003601f168201915b50505050509050816008908161228d9190613086565b507fc9c7c3fe08b88b4df9d4d47ef47d2c43d55c025a0ba88ca442580ed9e7348a1681836040516122bf929190613159565b60405180910390a15050565b6127108111156122f957604051630a4930ad60e31b8152612710600482015260248101829052604401610741565b6040805180820182526001600160a01b0384811680835260208084018681525f898152600b83528690209451855473ffffffffffffffffffffffffffffffffffffffff1916941693909317845591516001909301929092559151838152909185917f7365cf4122f072a3365c20d54eff9b38d73c096c28e1892ec8f5b0e403a0f12d910160405180910390a3505050565b60606113ea838360405180606001604052806027815260200161320460279139612720565b604051630a85bd0160e11b81525f906001600160a01b0385169063150b7a02906123e3903390899088908890600401613186565b6020604051808303815f875af192505050801561241d575060408051601f3d908101601f1916820190925261241a918101906131b7565b60015b612479573d80801561244a576040519150601f19603f3d011682016040523d82523d5f602084013e61244f565b606091505b5080515f03612471576040516368d2bf6b60e11b815260040160405180910390fd5b805181602001fd5b6001600160e01b031916630a85bd0160e11b149050949350505050565b60605f6124a2600c5490565b90505f600c8054806020026020016040519081016040528092919081815260200182805480156124ef57602002820191905f5260205f20905b8154815260200190600101908083116124db575b505050505090505f5b828110156125ee5781818151811061251257612512612ef2565b60200260200101518510156125dc57600d5f83838151811061253657612536612ef2565b602002602001015181526020019081526020015f20805461255690612e9f565b80601f016020809104026020016040519081016040528092919081815260200182805461258290612e9f565b80156125cd5780601f106125a4576101008083540402835291602001916125cd565b820191905f5260205f20905b8154815290600101906020018083116125b057829003601f168201915b50505050509350505050919050565b6125e7600182613146565b90506124f8565b506040516309797f6960e21b815260048101859052602401610741565b6060815f036126315750506040805180820190915260018152600360fc1b602082015290565b815f5b811561265a578061264481612f8f565b91506126539050600a83612f45565b9150612634565b5f8167ffffffffffffffff81111561267457612674612845565b6040519080825280601f01601f19166020018201604052801561269e576020820181803683370190505b5090505b8415610cad576126b36001836131d2565b91506126c0600a866131e5565b6126cb906030613146565b60f81b8183815181106126e0576126e0612ef2565b60200101907effffffffffffffffffffffffffffffffffffffffffffffffffffffffffffff191690815f1a905350612719600a86612f45565b94506126a2565b60605f80856001600160a01b03168560405161273c91906131f8565b5f60405180830381855af49150503d805f8114612774576040519150601f19603f3d011682016040523d82523d5f602084013e612779565b606091505b509150915061278a86838387612794565b9695505050505050565b606083156128025782515f036127fb576001600160a01b0385163b6127fb5760405162461bcd60e51b815260206004820152601d60248201527f416464726573733a2063616c6c20746f206e6f6e2d636f6e74726163740000006044820152606401610741565b5081610cad565b610cad83838151156128175781518083602001fd5b8060405162461bcd60e51b815260040161074191906129a1565b6001600160a01b038116811461096a575f80fd5b634e487b7160e01b5f52604160045260245ffd5b604051601f8201601f1916810167ffffffffffffffff8111828210171561288257612882612845565b604052919050565b5f82601f830112612899575f80fd5b813567ffffffffffffffff8111156128b3576128b3612845565b6128c6601f8201601f1916602001612859565b8181528460208386010111156128da575f80fd5b816020850160208301375f918101602001919091529392505050565b5f8060408385031215612907575f80fd5b823561291281612831565b9150602083013567ffffffffffffffff81111561292d575f80fd5b6129398582860161288a565b9150509250929050565b6001600160e01b03198116811461096a575f80fd5b5f60208284031215612968575f80fd5b81356113ea81612943565b5f81518084528060208401602086015e5f602082860101526020601f19601f83011685010191505092915050565b602081525f6113ea6020830184612973565b5f602082840312156129c3575f80fd5b5035919050565b5f80604083850312156129db575f80fd5b82356129e681612831565b946020939093013593505050565b5f60208284031215612a04575f80fd5b81356113ea81612831565b5f8060408385031215612a20575f80fd5b823591506020830135612a3281612831565b809150509250929050565b5f805f60608486031215612a4f575f80fd5b8335612a5a81612831565b92506020840135612a6a81612831565b929592945050506040919091013590565b5f8060408385031215612a8c575f80fd5b50508035926020909101359150565b5f6020808385031215612aac575f80fd5b823567ffffffffffffffff80821115612ac3575f80fd5b818501915085601f830112612ad6575f80fd5b813581811115612ae857612ae8612845565b8060051b9150612af9848301612859565b8181529183018401918481019088841115612b12575f80fd5b938501935b83851015612b3057843582529385019390850190612b17565b98975050505050505050565b602080825282518282018190525f9190848201906040850190845b818110156111ad57612b9383855180516001600160a01b0316825260208082015167ffffffffffffffff16908301526040908101511515910152565b9284019260609290920191600101612b57565b5f805f8060808587031215612bb9575f80fd5b8435612bc481612831565b935060208501359250604085013567ffffffffffffffff80821115612be7575f80fd5b612bf38883890161288a565b93506060870135915080821115612c08575f80fd5b50612c158782880161288a565b91505092959194509250565b602080825282518282018190525f9190848201906040850190845b818110156111ad57835183529284019291840191600101612c3c565b5f60208284031215612c68575f80fd5b813567ffffffffffffffff811115612c7e575f80fd5b610cad8482850161288a565b5f805f60608486031215612c9c575f80fd5b8335612ca781612831565b95602085013595506040909401359392505050565b5f805f60608486031215612cce575f80fd5b833592506020840135612a6a81612831565b5f8060408385031215612cf1575f80fd5b8235612cfc81612831565b915060208301358015158114612a32575f80fd5b5f8060208385031215612d21575f80fd5b823567ffffffffffffffff80821115612d38575f80fd5b818501915085601f830112612d4b575f80fd5b813581811115612d59575f80fd5b8660208260051b8501011115612d6d575f80fd5b60209290920196919550909350505050565b5f60208083016020845280855180835260408601915060408160051b8701019250602087015f5b82811015612dd457603f19888603018452612dc2858351612973565b94509285019290850190600101612da6565b5092979650505050505050565b5f805f8060808587031215612df4575f80fd5b8435612dff81612831565b93506020850135612e0f81612831565b925060408501359150606085013567ffffffffffffffff811115612e31575f80fd5b612c158782880161288a565b81516001600160a01b0316815260208083015167ffffffffffffffff1690820152604080830151151590820152606081016107df565b5f8060408385031215612e84575f80fd5b8235612e8f81612831565b91506020830135612a3281612831565b600181811c90821680612eb357607f821691505b602082108103612ed157634e487b7160e01b5f52602260045260245ffd5b50919050565b5f60208284031215612ee7575f80fd5b81516113ea81612831565b634e487b7160e01b5f52603260045260245ffd5b634e487b7160e01b5f52601160045260245ffd5b80820281158282048414176107df576107df612f06565b634e487b7160e01b5f52601260045260245ffd5b5f82612f5357612f53612f31565b500490565b6001600160a01b0384168152606060208201525f612f796060830185612973565b905063ffffffff83166040830152949350505050565b5f60018201612fa057612fa0612f06565b5060010190565b5f808335601e19843603018112612fbc575f80fd5b83018035915067ffffffffffffffff821115612fd6575f80fd5b602001915036819003821315612fea575f80fd5b9250929050565b8284823760609190911b6bffffffffffffffffffffffff19169101908152601401919050565b5f81518060208401855e5f93019283525090919050565b5f610cad61303c8386613017565b84613017565b601f82111561093757805f5260205f20601f840160051c810160208510156130675750805b601f840160051c820191505b81811015611dd1575f8155600101613073565b815167ffffffffffffffff8111156130a0576130a0612845565b6130b4816130ae8454612e9f565b84613042565b602080601f8311600181146130e7575f84156130d05750858301515b5f19600386901b1c1916600185901b17855561313e565b5f85815260208120601f198616915b82811015613115578886015182559484019460019091019084016130f6565b508582101561313257878501515f19600388901b60f8161c191681555b505060018460011b0185555b505050505050565b808201808211156107df576107df612f06565b604081525f61316b6040830185612973565b828103602084015261317d8185612973565b95945050505050565b5f6001600160a01b0380871683528086166020840152508360408301526080606083015261278a6080830184612973565b5f602082840312156131c7575f80fd5b81516113ea81612943565b818103818111156107df576107df612f06565b5f826131f3576131f3612f31565b500690565b5f6113ea828461301756fe416464726573733a206c6f772d6c6576656c2064656c65676174652063616c6c206661696c6564a26469706673582212203523a54f351b892197fefc789f44c4a40937ba40c729d64be7d03cf907af9d3864736f6c63430008190033",
      "opcodes": "PUSH1 0xC0 PUSH1 0x40 MSTORE CALLVALUE DUP1 ISZERO PUSH2 0xF JUMPI PUSH0 DUP1 REVERT JUMPDEST POP PUSH1 0x40 MLOAD PUSH2 0x3603 CODESIZE SUB DUP1 PUSH2 0x3603 DUP4 CODECOPY DUP2 ADD PUSH1 0x40 DUP2 SWAP1 MSTORE PUSH2 0x2E SWAP2 PUSH2 0x1D7 JUMP JUMPDEST CALLER PUSH1 0x40 MLOAD DUP1 PUSH1 0x40 ADD PUSH1 0x40 MSTORE DUP1 PUSH1 0x11 DUP2 MSTORE PUSH1 0x20 ADD PUSH17 0x141C9BD91D58D95C88141C9BDD1BD8DBDB PUSH1 0x7A SHL DUP2 MSTORE POP PUSH1 0x40 MLOAD DUP1 PUSH1 0x40 ADD PUSH1 0x40 MSTORE DUP1 PUSH1 0x2 DUP2 MSTORE PUSH1 0x20 ADD PUSH2 0x505 PUSH1 0xF4 SHL DUP2 MSTORE POP PUSH0 DUP1 DUP4 DUP4 DUP2 PUSH1 0x2 SWAP1 DUP2 PUSH2 0x87 SWAP2 SWAP1 PUSH2 0x2A0 JUMP JUMPDEST POP PUSH1 0x3 PUSH2 0x94 DUP3 DUP3 PUSH2 0x2A0 JUMP JUMPDEST POP POP PUSH0 DUP1 SSTORE POP PUSH2 0xA3 DUP6 PUSH2 0xD7 JUMP JUMPDEST PUSH2 0xB6 DUP3 PUSH1 0x1 PUSH1 0x1 PUSH1 0x80 SHL SUB DUP4 AND PUSH2 0x128 JUMP JUMPDEST POP POP POP PUSH1 0x1 PUSH1 0x1 PUSH1 0xA0 SHL SUB SWAP4 DUP5 AND PUSH1 0x80 MSTORE POP POP AND PUSH1 0xA0 MSTORE PUSH1 0x1 PUSH1 0x10 SSTORE PUSH2 0x35F JUMP JUMPDEST PUSH1 0x9 DUP1 SLOAD PUSH1 0x1 PUSH1 0x1 PUSH1 0xA0 SHL SUB DUP4 DUP2 AND PUSH1 0x1 PUSH1 0x1 PUSH1 0xA0 SHL SUB NOT DUP4 AND DUP2 OR SWAP1 SWAP4 SSTORE PUSH1 0x40 MLOAD SWAP2 AND SWAP2 SWAP1 DUP3 SWAP1 PUSH32 0x8292FCE18FA69EDF4DB7B94EA2E58241DF0AE57F97E0A6C9B29067028BF92D76 SWAP1 PUSH0 SWAP1 LOG3 POP POP JUMP JUMPDEST PUSH2 0x2710 DUP2 GT ISZERO PUSH2 0x15A JUMPI PUSH1 0x40 MLOAD PUSH4 0xA4930AD PUSH1 0xE3 SHL DUP2 MSTORE PUSH2 0x2710 PUSH1 0x4 DUP3 ADD MSTORE PUSH1 0x24 DUP2 ADD DUP3 SWAP1 MSTORE PUSH1 0x44 ADD PUSH1 0x40 MLOAD DUP1 SWAP2 SUB SWAP1 REVERT JUMPDEST PUSH1 0xA DUP1 SLOAD PUSH1 0x1 PUSH1 0x1 PUSH1 0xA0 SHL SUB DUP5 AND PUSH1 0x1 PUSH1 0x1 PUSH1 0xB0 SHL SUB NOT SWAP1 SWAP2 AND DUP2 OR PUSH1 0x1 PUSH1 0xA0 SHL PUSH2 0xFFFF DUP6 AND MUL OR SWAP1 SWAP2 SSTORE PUSH1 0x40 MLOAD DUP3 DUP2 MSTORE PUSH32 0x90D7EC04BCB8978719414F82E52E4CB651DB41D0E6F8CEA6118C2191E6183ADB SWAP1 PUSH1 0x20 ADD PUSH1 0x40 MLOAD DUP1 SWAP2 SUB SWAP1 LOG2 POP POP JUMP JUMPDEST DUP1 MLOAD PUSH1 0x1 PUSH1 0x1 PUSH1 0xA0 SHL SUB DUP2 AND DUP2 EQ PUSH2 0x1D2 JUMPI PUSH0 DUP1 REVERT JUMPDEST SWAP2 SWAP1 POP JUMP JUMPDEST PUSH0 DUP1 PUSH1 0x40 DUP4 DUP6 SUB SLT ISZERO PUSH2 0x1E8 JUMPI PUSH0 DUP1 REVERT JUMPDEST PUSH2 0x1F1 DUP4 PUSH2 0x1BC JUMP JUMPDEST SWAP2 POP PUSH2 0x1FF PUSH1 0x20 DUP5 ADD PUSH2 0x1BC JUMP JUMPDEST SWAP1 POP SWAP3 POP SWAP3 SWAP1 POP JUMP JUMPDEST PUSH4 0x4E487B71 PUSH1 0xE0 SHL PUSH0 MSTORE PUSH1 0x41 PUSH1 0x4 MSTORE PUSH1 0x24 PUSH0 REVERT JUMPDEST PUSH1 0x1 DUP2 DUP2 SHR SWAP1 DUP3 AND DUP1 PUSH2 0x230 JUMPI PUSH1 0x7F DUP3 AND SWAP2 POP JUMPDEST PUSH1 0x20 DUP3 LT DUP2 SUB PUSH2 0x24E JUMPI PUSH4 0x4E487B71 PUSH1 0xE0 SHL PUSH0 MSTORE PUSH1 0x22 PUSH1 0x4 MSTORE PUSH1 0x24 PUSH0 REVERT JUMPDEST POP SWAP2 SWAP1 POP JUMP JUMPDEST PUSH1 0x1F DUP3 GT ISZERO PUSH2 0x29B JUMPI DUP1 PUSH0 MSTORE PUSH1 0x20 PUSH0 KECCAK256 PUSH1 0x1F DUP5 ADD PUSH1 0x5 SHR DUP2 ADD PUSH1 0x20 DUP6 LT ISZERO PUSH2 0x279 JUMPI POP DUP1 JUMPDEST PUSH1 0x1F DUP5 ADD PUSH1 0x5 SHR DUP3 ADD SWAP2 POP JUMPDEST DUP2 DUP2 LT ISZERO PUSH2 0x298 JUMPI PUSH0 DUP2 SSTORE PUSH1 0x1 ADD PUSH2 0x285 JUMP JUMPDEST POP POP JUMPDEST POP POP POP JUMP JUMPDEST DUP2 MLOAD PUSH1 0x1 PUSH1 0x1 PUSH1 0x40 SHL SUB DUP2 GT ISZERO PUSH2 0x2B9 JUMPI PUSH2 0x2B9 PUSH2 0x208 JUMP JUMPDEST PUSH2 0x2CD DUP2 PUSH2 0x2C7 DUP5 SLOAD PUSH2 0x21C JUMP JUMPDEST DUP5 PUSH2 0x254 JUMP JUMPDEST PUSH1 0x20 DUP1 PUSH1 0x1F DUP4 GT PUSH1 0x1 DUP2 EQ PUSH2 0x300 JUMPI PUSH0 DUP5 ISZERO PUSH2 0x2E9 JUMPI POP DUP6 DUP4 ADD MLOAD JUMPDEST PUSH0 NOT PUSH1 0x3 DUP7 SWAP1 SHL SHR NOT AND PUSH1 0x1 DUP6 SWAP1 SHL OR DUP6 SSTORE PUSH2 0x357 JUMP JUMPDEST PUSH0 DUP6 DUP2 MSTORE PUSH1 0x20 DUP2 KECCAK256 PUSH1 0x1F NOT DUP7 AND SWAP2 JUMPDEST DUP3 DUP2 LT ISZERO PUSH2 0x32E JUMPI DUP9 DUP7 ADD MLOAD DUP3 SSTORE SWAP5 DUP5 ADD SWAP5 PUSH1 0x1 SWAP1 SWAP2 ADD SWAP1 DUP5 ADD PUSH2 0x30F JUMP JUMPDEST POP DUP6 DUP3 LT ISZERO PUSH2 0x34B JUMPI DUP8 DUP6 ADD MLOAD PUSH0 NOT PUSH1 0x3 DUP9 SWAP1 SHL PUSH1 0xF8 AND SHR NOT AND DUP2 SSTORE JUMPDEST POP POP PUSH1 0x1 DUP5 PUSH1 0x1 SHL ADD DUP6 SSTORE JUMPDEST POP POP POP POP POP POP JUMP JUMPDEST PUSH1 0x80 MLOAD PUSH1 0xA0 MLOAD PUSH2 0x3260 PUSH2 0x3A3 PUSH0 CODECOPY PUSH0 DUP2 DUP2 PUSH2 0x4C6 ADD MSTORE DUP2 DUP2 PUSH2 0x9E7 ADD MSTORE PUSH2 0xF58 ADD MSTORE PUSH0 DUP2 DUP2 PUSH2 0x6CF ADD MSTORE DUP2 DUP2 PUSH2 0x978 ADD MSTORE DUP2 DUP2 PUSH2 0xA11 ADD MSTORE PUSH2 0xF2B ADD MSTORE PUSH2 0x3260 PUSH0 RETURN INVALID PUSH1 0x80 PUSH1 0x40 MSTORE CALLVALUE DUP1 ISZERO PUSH2 0xF JUMPI PUSH0 DUP1 REVERT JUMPDEST POP PUSH1 0x4 CALLDATASIZE LT PUSH2 0x2D7 JUMPI PUSH0 CALLDATALOAD PUSH1 0xE0 SHR DUP1 PUSH4 0x6E71473B GT PUSH2 0x187 JUMPI DUP1 PUSH4 0x9BCF7A15 GT PUSH2 0xDD JUMPI DUP1 PUSH4 0xB9B3F691 GT PUSH2 0x93 JUMPI DUP1 PUSH4 0xE8A3D485 GT PUSH2 0x6E JUMPI DUP1 PUSH4 0xE8A3D485 EQ PUSH2 0x687 JUMPI DUP1 PUSH4 0xE985E9C5 EQ PUSH2 0x68F JUMPI DUP1 PUSH4 0xF43B3613 EQ PUSH2 0x6CA JUMPI PUSH0 DUP1 REVERT JUMPDEST DUP1 PUSH4 0xB9B3F691 EQ PUSH2 0x635 JUMPI DUP1 PUSH4 0xC23DC68F EQ PUSH2 0x654 JUMPI DUP1 PUSH4 0xC87B56DD EQ PUSH2 0x674 JUMPI PUSH0 DUP1 REVERT JUMPDEST DUP1 PUSH4 0xAC9650D8 GT PUSH2 0xC3 JUMPI DUP1 PUSH4 0xAC9650D8 EQ PUSH2 0x5E4 JUMPI DUP1 PUSH4 0xB24F2D39 EQ PUSH2 0x604 JUMPI DUP1 PUSH4 0xB88D4FDE EQ PUSH2 0x622 JUMPI PUSH0 DUP1 REVERT JUMPDEST DUP1 PUSH4 0x9BCF7A15 EQ PUSH2 0x5BE JUMPI DUP1 PUSH4 0xA22CB465 EQ PUSH2 0x5D1 JUMPI PUSH0 DUP1 REVERT JUMPDEST DUP1 PUSH4 0x8462151C GT PUSH2 0x13D JUMPI DUP1 PUSH4 0x95D89B41 GT PUSH2 0x118 JUMPI DUP1 PUSH4 0x95D89B41 EQ PUSH2 0x590 JUMPI DUP1 PUSH4 0x9769DC0E EQ PUSH2 0x598 JUMPI DUP1 PUSH4 0x99A2557A EQ PUSH2 0x5AB JUMPI PUSH0 DUP1 REVERT JUMPDEST DUP1 PUSH4 0x8462151C EQ PUSH2 0x54C JUMPI DUP1 PUSH4 0x8DA5CB5B EQ PUSH2 0x56C JUMPI DUP1 PUSH4 0x938E3D7B EQ PUSH2 0x57D JUMPI PUSH0 DUP1 REVERT JUMPDEST DUP1 PUSH4 0x754A81D9 GT PUSH2 0x16D JUMPI DUP1 PUSH4 0x754A81D9 EQ PUSH2 0x50E JUMPI DUP1 PUSH4 0x75794A3C EQ PUSH2 0x521 JUMPI DUP1 PUSH4 0x83040532 EQ PUSH2 0x52A JUMPI PUSH0 DUP1 REVERT JUMPDEST DUP1 PUSH4 0x6E71473B EQ PUSH2 0x4E8 JUMPI DUP1 PUSH4 0x70A08231 EQ PUSH2 0x4FB JUMPI PUSH0 DUP1 REVERT JUMPDEST DUP1 PUSH4 0x2A55205A GT PUSH2 0x23C JUMPI DUP1 PUSH4 0x4CC157DF GT PUSH2 0x1F2 JUMPI DUP1 PUSH4 0x6352211E GT PUSH2 0x1CD JUMPI DUP1 PUSH4 0x6352211E EQ PUSH2 0x4A6 JUMPI DUP1 PUSH4 0x63B45E2D EQ PUSH2 0x4B9 JUMPI DUP1 PUSH4 0x663AB59D EQ PUSH2 0x4C1 JUMPI PUSH0 DUP1 REVERT JUMPDEST DUP1 PUSH4 0x4CC157DF EQ PUSH2 0x43E JUMPI DUP1 PUSH4 0x5BBB2177 EQ PUSH2 0x473 JUMPI DUP1 PUSH4 0x600DD5EA EQ PUSH2 0x493 JUMPI PUSH0 DUP1 REVERT JUMPDEST DUP1 PUSH4 0x42842E0E GT PUSH2 0x222 JUMPI DUP1 PUSH4 0x42842E0E EQ PUSH2 0x405 JUMPI DUP1 PUSH4 0x42966C68 EQ PUSH2 0x418 JUMPI DUP1 PUSH4 0x430C2081 EQ PUSH2 0x42B JUMPI PUSH0 DUP1 REVERT JUMPDEST DUP1 PUSH4 0x2A55205A EQ PUSH2 0x3CC JUMPI DUP1 PUSH4 0x3B1475A7 EQ PUSH2 0x3FE JUMPI PUSH0 DUP1 REVERT JUMPDEST DUP1 PUSH4 0x13AF4035 GT PUSH2 0x291 JUMPI DUP1 PUSH4 0x1B827671 GT PUSH2 0x277 JUMPI DUP1 PUSH4 0x1B827671 EQ PUSH2 0x393 JUMPI DUP1 PUSH4 0x23B872DD EQ PUSH2 0x3A6 JUMPI DUP1 PUSH4 0x2419F51B EQ PUSH2 0x3B9 JUMPI PUSH0 DUP1 REVERT JUMPDEST DUP1 PUSH4 0x13AF4035 EQ PUSH2 0x36B JUMPI DUP1 PUSH4 0x18160DDD EQ PUSH2 0x37E JUMPI PUSH0 DUP1 REVERT JUMPDEST DUP1 PUSH4 0x6FDDE03 GT PUSH2 0x2C1 JUMPI DUP1 PUSH4 0x6FDDE03 EQ PUSH2 0x318 JUMPI DUP1 PUSH4 0x81812FC EQ PUSH2 0x32D JUMPI DUP1 PUSH4 0x95EA7B3 EQ PUSH2 0x358 JUMPI PUSH0 DUP1 REVERT JUMPDEST DUP1 PUSH3 0x75A317 EQ PUSH2 0x2DB JUMPI DUP1 PUSH4 0x1FFC9A7 EQ PUSH2 0x2F0 JUMPI JUMPDEST PUSH0 DUP1 REVERT JUMPDEST PUSH2 0x2EE PUSH2 0x2E9 CALLDATASIZE PUSH1 0x4 PUSH2 0x28F6 JUMP JUMPDEST PUSH2 0x6F1 JUMP JUMPDEST STOP JUMPDEST PUSH2 0x303 PUSH2 0x2FE CALLDATASIZE PUSH1 0x4 PUSH2 0x2958 JUMP JUMPDEST PUSH2 0x779 JUMP JUMPDEST PUSH1 0x40 MLOAD SWAP1 ISZERO ISZERO DUP2 MSTORE PUSH1 0x20 ADD JUMPDEST PUSH1 0x40 MLOAD DUP1 SWAP2 SUB SWAP1 RETURN JUMPDEST PUSH2 0x320 PUSH2 0x7E5 JUMP JUMPDEST PUSH1 0x40 MLOAD PUSH2 0x30F SWAP2 SWAP1 PUSH2 0x29A1 JUMP JUMPDEST PUSH2 0x340 PUSH2 0x33B CALLDATASIZE PUSH1 0x4 PUSH2 0x29B3 JUMP JUMPDEST PUSH2 0x875 JUMP JUMPDEST PUSH1 0x40 MLOAD PUSH1 0x1 PUSH1 0x1 PUSH1 0xA0 SHL SUB SWAP1 SWAP2 AND DUP2 MSTORE PUSH1 0x20 ADD PUSH2 0x30F JUMP JUMPDEST PUSH2 0x2EE PUSH2 0x366 CALLDATASIZE PUSH1 0x4 PUSH2 0x29CA JUMP JUMPDEST PUSH2 0x8B7 JUMP JUMPDEST PUSH2 0x2EE PUSH2 0x379 CALLDATASIZE PUSH1 0x4 PUSH2 0x29F4 JUMP JUMPDEST PUSH2 0x93C JUMP JUMPDEST PUSH1 0x1 SLOAD PUSH0 SLOAD SUB JUMPDEST PUSH1 0x40 MLOAD SWAP1 DUP2 MSTORE PUSH1 0x20 ADD PUSH2 0x30F JUMP JUMPDEST PUSH2 0x2EE PUSH2 0x3A1 CALLDATASIZE PUSH1 0x4 PUSH2 0x2A0F JUMP JUMPDEST PUSH2 0x96D JUMP JUMPDEST PUSH2 0x2EE PUSH2 0x3B4 CALLDATASIZE PUSH1 0x4 PUSH2 0x2A3D JUMP JUMPDEST PUSH2 0xB7E JUMP JUMPDEST PUSH2 0x385 PUSH2 0x3C7 CALLDATASIZE PUSH1 0x4 PUSH2 0x29B3 JUMP JUMPDEST PUSH2 0xB89 JUMP JUMPDEST PUSH2 0x3DF PUSH2 0x3DA CALLDATASIZE PUSH1 0x4 PUSH2 0x2A7B JUMP JUMPDEST PUSH2 0xBD8 JUMP JUMPDEST PUSH1 0x40 DUP1 MLOAD PUSH1 0x1 PUSH1 0x1 PUSH1 0xA0 SHL SUB SWAP1 SWAP4 AND DUP4 MSTORE PUSH1 0x20 DUP4 ADD SWAP2 SWAP1 SWAP2 MSTORE ADD PUSH2 0x30F JUMP JUMPDEST PUSH0 SLOAD PUSH2 0x385 JUMP JUMPDEST PUSH2 0x2EE PUSH2 0x413 CALLDATASIZE PUSH1 0x4 PUSH2 0x2A3D JUMP JUMPDEST PUSH2 0xC13 JUMP JUMPDEST PUSH2 0x2EE PUSH2 0x426 CALLDATASIZE PUSH1 0x4 PUSH2 0x29B3 JUMP JUMPDEST PUSH2 0xC2D JUMP JUMPDEST PUSH2 0x303 PUSH2 0x439 CALLDATASIZE PUSH1 0x4 PUSH2 0x29CA JUMP JUMPDEST PUSH2 0xC38 JUMP JUMPDEST PUSH2 0x451 PUSH2 0x44C CALLDATASIZE PUSH1 0x4 PUSH2 0x29B3 JUMP JUMPDEST PUSH2 0xCB5 JUMP JUMPDEST PUSH1 0x40 DUP1 MLOAD PUSH1 0x1 PUSH1 0x1 PUSH1 0xA0 SHL SUB SWAP1 SWAP4 AND DUP4 MSTORE PUSH2 0xFFFF SWAP1 SWAP2 AND PUSH1 0x20 DUP4 ADD MSTORE ADD PUSH2 0x30F JUMP JUMPDEST PUSH2 0x486 PUSH2 0x481 CALLDATASIZE PUSH1 0x4 PUSH2 0x2A9B JUMP JUMPDEST PUSH2 0xD1F JUMP JUMPDEST PUSH1 0x40 MLOAD PUSH2 0x30F SWAP2 SWAP1 PUSH2 0x2B3C JUMP JUMPDEST PUSH2 0x2EE PUSH2 0x4A1 CALLDATASIZE PUSH1 0x4 PUSH2 0x29CA JUMP JUMPDEST PUSH2 0xDE2 JUMP JUMPDEST PUSH2 0x340 PUSH2 0x4B4 CALLDATASIZE PUSH1 0x4 PUSH2 0x29B3 JUMP JUMPDEST PUSH2 0xE11 JUMP JUMPDEST PUSH1 0xC SLOAD PUSH2 0x385 JUMP JUMPDEST PUSH2 0x340 PUSH32 0x0 DUP2 JUMP JUMPDEST PUSH2 0x2EE PUSH2 0x4F6 CALLDATASIZE PUSH1 0x4 PUSH2 0x2A0F JUMP JUMPDEST PUSH2 0xE22 JUMP JUMPDEST PUSH2 0x385 PUSH2 0x509 CALLDATASIZE PUSH1 0x4 PUSH2 0x29F4 JUMP JUMPDEST PUSH2 0xFB9 JUMP JUMPDEST PUSH2 0x2EE PUSH2 0x51C CALLDATASIZE PUSH1 0x4 PUSH2 0x2BA6 JUMP JUMPDEST PUSH2 0x1006 JUMP JUMPDEST PUSH2 0x385 PUSH1 0x10 SLOAD DUP2 JUMP JUMPDEST PUSH2 0x303 PUSH2 0x538 CALLDATASIZE PUSH1 0x4 PUSH2 0x29B3 JUMP JUMPDEST PUSH1 0xE PUSH1 0x20 MSTORE PUSH0 SWAP1 DUP2 MSTORE PUSH1 0x40 SWAP1 KECCAK256 SLOAD PUSH1 0xFF AND DUP2 JUMP JUMPDEST PUSH2 0x55F PUSH2 0x55A CALLDATASIZE PUSH1 0x4 PUSH2 0x29F4 JUMP JUMPDEST PUSH2 0x107F JUMP JUMPDEST PUSH1 0x40 MLOAD PUSH2 0x30F SWAP2 SWAP1 PUSH2 0x2C21 JUMP JUMPDEST PUSH1 0x9 SLOAD PUSH1 0x1 PUSH1 0x1 PUSH1 0xA0 SHL SUB AND PUSH2 0x340 JUMP JUMPDEST PUSH2 0x2EE PUSH2 0x58B CALLDATASIZE PUSH1 0x4 PUSH2 0x2C58 JUMP JUMPDEST PUSH2 0x11B9 JUMP JUMPDEST PUSH2 0x320 PUSH2 0x11E7 JUMP JUMPDEST PUSH2 0x2EE PUSH2 0x5A6 CALLDATASIZE PUSH1 0x4 PUSH2 0x29F4 JUMP JUMPDEST PUSH2 0x11F6 JUMP JUMPDEST PUSH2 0x55F PUSH2 0x5B9 CALLDATASIZE PUSH1 0x4 PUSH2 0x2C8A JUMP JUMPDEST PUSH2 0x1244 JUMP JUMPDEST PUSH2 0x2EE PUSH2 0x5CC CALLDATASIZE PUSH1 0x4 PUSH2 0x2CBC JUMP JUMPDEST PUSH2 0x13F1 JUMP JUMPDEST PUSH2 0x2EE PUSH2 0x5DF CALLDATASIZE PUSH1 0x4 PUSH2 0x2CE0 JUMP JUMPDEST PUSH2 0x1421 JUMP JUMPDEST PUSH2 0x5F7 PUSH2 0x5F2 CALLDATASIZE PUSH1 0x4 PUSH2 0x2D10 JUMP JUMPDEST PUSH2 0x14B5 JUMP JUMPDEST PUSH1 0x40 MLOAD PUSH2 0x30F SWAP2 SWAP1 PUSH2 0x2D7F JUMP JUMPDEST PUSH1 0xA SLOAD PUSH1 0x1 PUSH1 0x1 PUSH1 0xA0 SHL SUB DUP2 AND SWAP1 PUSH1 0x1 PUSH1 0xA0 SHL SWAP1 DIV PUSH2 0xFFFF AND PUSH2 0x451 JUMP JUMPDEST PUSH2 0x2EE PUSH2 0x630 CALLDATASIZE PUSH1 0x4 PUSH2 0x2DE1 JUMP JUMPDEST PUSH2 0x1619 JUMP JUMPDEST PUSH2 0x63F PUSH3 0xF4240 DUP2 JUMP JUMPDEST PUSH1 0x40 MLOAD PUSH4 0xFFFFFFFF SWAP1 SWAP2 AND DUP2 MSTORE PUSH1 0x20 ADD PUSH2 0x30F JUMP JUMPDEST PUSH2 0x667 PUSH2 0x662 CALLDATASIZE PUSH1 0x4 PUSH2 0x29B3 JUMP JUMPDEST PUSH2 0x165D JUMP JUMPDEST PUSH1 0x40 MLOAD PUSH2 0x30F SWAP2 SWAP1 PUSH2 0x2E3D JUMP JUMPDEST PUSH2 0x320 PUSH2 0x682 CALLDATASIZE PUSH1 0x4 PUSH2 0x29B3 JUMP JUMPDEST PUSH2 0x1709 JUMP JUMPDEST PUSH2 0x320 PUSH2 0x17F2 JUMP JUMPDEST PUSH2 0x303 PUSH2 0x69D CALLDATASIZE PUSH1 0x4 PUSH2 0x2E73 JUMP JUMPDEST PUSH1 0x1 PUSH1 0x1 PUSH1 0xA0 SHL SUB SWAP2 DUP3 AND PUSH0 SWAP1 DUP2 MSTORE PUSH1 0x7 PUSH1 0x20 SWAP1 DUP2 MSTORE PUSH1 0x40 DUP1 DUP4 KECCAK256 SWAP4 SWAP1 SWAP5 AND DUP3 MSTORE SWAP2 SWAP1 SWAP2 MSTORE KECCAK256 SLOAD PUSH1 0xFF AND SWAP1 JUMP JUMPDEST PUSH2 0x340 PUSH32 0x0 DUP2 JUMP JUMPDEST PUSH2 0x6F9 PUSH2 0x187E JUMP JUMPDEST PUSH2 0x74A JUMPI PUSH1 0x40 MLOAD PUSH3 0x461BCD PUSH1 0xE5 SHL DUP2 MSTORE PUSH1 0x20 PUSH1 0x4 DUP3 ADD MSTORE PUSH1 0x17 PUSH1 0x24 DUP3 ADD MSTORE PUSH32 0x4E6F7420617574686F72697A656420746F206D696E742E000000000000000000 PUSH1 0x44 DUP3 ADD MSTORE PUSH1 0x64 ADD JUMPDEST PUSH1 0x40 MLOAD DUP1 SWAP2 SUB SWAP1 REVERT JUMPDEST PUSH2 0x75B PUSH2 0x755 PUSH0 SLOAD SWAP1 JUMP JUMPDEST DUP3 PUSH2 0x18AA JUMP JUMPDEST PUSH2 0x775 DUP3 PUSH1 0x1 PUSH1 0x40 MLOAD DUP1 PUSH1 0x20 ADD PUSH1 0x40 MSTORE DUP1 PUSH0 DUP2 MSTORE POP PUSH2 0x1928 JUMP JUMPDEST POP POP JUMP JUMPDEST PUSH0 PUSH4 0x1FFC9A7 PUSH1 0xE0 SHL PUSH1 0x1 PUSH1 0x1 PUSH1 0xE0 SHL SUB NOT DUP4 AND EQ DUP1 PUSH2 0x7A9 JUMPI POP PUSH4 0x80AC58CD PUSH1 0xE0 SHL PUSH1 0x1 PUSH1 0x1 PUSH1 0xE0 SHL SUB NOT DUP4 AND EQ JUMPDEST DUP1 PUSH2 0x7C4 JUMPI POP PUSH4 0x5B5E139F PUSH1 0xE0 SHL PUSH1 0x1 PUSH1 0x1 PUSH1 0xE0 SHL SUB NOT DUP4 AND EQ JUMPDEST DUP1 PUSH2 0x7DF JUMPI POP PUSH1 0x1 PUSH1 0x1 PUSH1 0xE0 SHL SUB NOT DUP3 AND PUSH4 0x152A902D PUSH1 0xE1 SHL EQ JUMPDEST SWAP3 SWAP2 POP POP JUMP JUMPDEST PUSH1 0x60 PUSH1 0x2 DUP1 SLOAD PUSH2 0x7F4 SWAP1 PUSH2 0x2E9F JUMP JUMPDEST DUP1 PUSH1 0x1F ADD PUSH1 0x20 DUP1 SWAP2 DIV MUL PUSH1 0x20 ADD PUSH1 0x40 MLOAD SWAP1 DUP2 ADD PUSH1 0x40 MSTORE DUP1 SWAP3 SWAP2 SWAP1 DUP2 DUP2 MSTORE PUSH1 0x20 ADD DUP3 DUP1 SLOAD PUSH2 0x820 SWAP1 PUSH2 0x2E9F JUMP JUMPDEST DUP1 ISZERO PUSH2 0x86B JUMPI DUP1 PUSH1 0x1F LT PUSH2 0x842 JUMPI PUSH2 0x100 DUP1 DUP4 SLOAD DIV MUL DUP4 MSTORE SWAP2 PUSH1 0x20 ADD SWAP2 PUSH2 0x86B JUMP JUMPDEST DUP3 ADD SWAP2 SWAP1 PUSH0 MSTORE PUSH1 0x20 PUSH0 KECCAK256 SWAP1 JUMPDEST DUP2 SLOAD DUP2 MSTORE SWAP1 PUSH1 0x1 ADD SWAP1 PUSH1 0x20 ADD DUP1 DUP4 GT PUSH2 0x84E JUMPI DUP3 SWAP1 SUB PUSH1 0x1F AND DUP3 ADD SWAP2 JUMPDEST POP POP POP POP POP SWAP1 POP SWAP1 JUMP JUMPDEST PUSH0 PUSH2 0x87F DUP3 PUSH2 0x1AE7 JUMP JUMPDEST PUSH2 0x89C JUMPI PUSH1 0x40 MLOAD PUSH4 0x33D1C039 PUSH1 0xE2 SHL DUP2 MSTORE PUSH1 0x4 ADD PUSH1 0x40 MLOAD DUP1 SWAP2 SUB SWAP1 REVERT JUMPDEST POP PUSH0 SWAP1 DUP2 MSTORE PUSH1 0x6 PUSH1 0x20 MSTORE PUSH1 0x40 SWAP1 KECCAK256 SLOAD PUSH1 0x1 PUSH1 0x1 PUSH1 0xA0 SHL SUB AND SWAP1 JUMP JUMPDEST PUSH0 PUSH2 0x8C1 DUP3 PUSH2 0xE11 JUMP JUMPDEST SWAP1 POP DUP1 PUSH1 0x1 PUSH1 0x1 PUSH1 0xA0 SHL SUB AND DUP4 PUSH1 0x1 PUSH1 0x1 PUSH1 0xA0 SHL SUB AND SUB PUSH2 0x8F5 JUMPI PUSH1 0x40 MLOAD PUSH4 0x250FDEE3 PUSH1 0xE2 SHL DUP2 MSTORE PUSH1 0x4 ADD PUSH1 0x40 MLOAD DUP1 SWAP2 SUB SWAP1 REVERT JUMPDEST CALLER PUSH1 0x1 PUSH1 0x1 PUSH1 0xA0 SHL SUB DUP3 AND EQ PUSH2 0x92C JUMPI PUSH2 0x90F DUP2 CALLER PUSH2 0x69D JUMP JUMPDEST PUSH2 0x92C JUMPI PUSH1 0x40 MLOAD PUSH4 0x67D9DCA1 PUSH1 0xE1 SHL DUP2 MSTORE PUSH1 0x4 ADD PUSH1 0x40 MLOAD DUP1 SWAP2 SUB SWAP1 REVERT JUMPDEST PUSH2 0x937 DUP4 DUP4 DUP4 PUSH2 0x1B10 JUMP JUMPDEST POP POP POP JUMP JUMPDEST PUSH2 0x944 PUSH2 0x187E JUMP JUMPDEST PUSH2 0x961 JUMPI PUSH1 0x40 MLOAD PUSH4 0x16CCB9CB PUSH1 0xE1 SHL DUP2 MSTORE PUSH1 0x4 ADD PUSH1 0x40 MLOAD DUP1 SWAP2 SUB SWAP1 REVERT JUMPDEST PUSH2 0x96A DUP2 PUSH2 0x1B78 JUMP JUMPDEST POP JUMP JUMPDEST CALLER PUSH1 0x1 PUSH1 0x1 PUSH1 0xA0 SHL SUB PUSH32 0x0 AND EQ PUSH2 0x9E5 JUMPI PUSH1 0x40 MLOAD PUSH3 0x461BCD PUSH1 0xE5 SHL DUP2 MSTORE PUSH1 0x20 PUSH1 0x4 DUP3 ADD MSTORE PUSH1 0x16 PUSH1 0x24 DUP3 ADD MSTORE PUSH32 0x556E617574686F72697A6564206D657373656E67657200000000000000000000 PUSH1 0x44 DUP3 ADD MSTORE PUSH1 0x64 ADD PUSH2 0x741 JUMP JUMPDEST PUSH32 0x0 PUSH1 0x1 PUSH1 0x1 PUSH1 0xA0 SHL SUB AND PUSH32 0x0 PUSH1 0x1 PUSH1 0x1 PUSH1 0xA0 SHL SUB AND PUSH4 0x674DF712 PUSH1 0x40 MLOAD DUP2 PUSH4 0xFFFFFFFF AND PUSH1 0xE0 SHL DUP2 MSTORE PUSH1 0x4 ADD PUSH1 0x20 PUSH1 0x40 MLOAD DUP1 DUP4 SUB DUP2 DUP7 GAS STATICCALL ISZERO DUP1 ISZERO PUSH2 0xA6B JUMPI RETURNDATASIZE PUSH0 DUP1 RETURNDATACOPY RETURNDATASIZE PUSH0 REVERT JUMPDEST POP POP POP POP PUSH1 0x40 MLOAD RETURNDATASIZE PUSH1 0x1F NOT PUSH1 0x1F DUP3 ADD AND DUP3 ADD DUP1 PUSH1 0x40 MSTORE POP DUP2 ADD SWAP1 PUSH2 0xA8F SWAP2 SWAP1 PUSH2 0x2ED7 JUMP JUMPDEST PUSH1 0x1 PUSH1 0x1 PUSH1 0xA0 SHL SUB AND EQ PUSH2 0xAE5 JUMPI PUSH1 0x40 MLOAD PUSH3 0x461BCD PUSH1 0xE5 SHL DUP2 MSTORE PUSH1 0x20 PUSH1 0x4 DUP3 ADD MSTORE PUSH1 0x11 PUSH1 0x24 DUP3 ADD MSTORE PUSH32 0x496E76616C6964204C312073656E646572000000000000000000000000000000 PUSH1 0x44 DUP3 ADD MSTORE PUSH1 0x64 ADD PUSH2 0x741 JUMP JUMPDEST PUSH2 0xAEE DUP3 PUSH2 0x1AE7 JUMP JUMPDEST ISZERO PUSH2 0xB3B JUMPI PUSH1 0x40 MLOAD PUSH3 0x461BCD PUSH1 0xE5 SHL DUP2 MSTORE PUSH1 0x20 PUSH1 0x4 DUP3 ADD MSTORE PUSH1 0x14 PUSH1 0x24 DUP3 ADD MSTORE PUSH32 0x546F6B656E20616C726561647920657869737473000000000000000000000000 PUSH1 0x44 DUP3 ADD MSTORE PUSH1 0x64 ADD PUSH2 0x741 JUMP JUMPDEST PUSH2 0xB45 DUP2 DUP4 PUSH2 0x1BD6 JUMP JUMPDEST PUSH1 0x40 MLOAD PUSH1 0x1 PUSH1 0x1 PUSH1 0xA0 SHL SUB DUP3 AND SWAP1 DUP4 SWAP1 PUSH32 0xE7800C6D4262C7DAA24E0EF4EC42DF968EAEB6CDEBD0E70A05AB4852742788D6 SWAP1 PUSH0 SWAP1 LOG3 POP POP JUMP JUMPDEST PUSH2 0x937 DUP4 DUP4 DUP4 PUSH2 0x1BEF JUMP JUMPDEST PUSH0 PUSH2 0xB93 PUSH1 0xC SLOAD SWAP1 JUMP JUMPDEST DUP3 LT PUSH2 0xBB5 JUMPI PUSH1 0x40 MLOAD PUSH4 0x7931277 PUSH1 0xE1 SHL DUP2 MSTORE PUSH1 0x4 DUP2 ADD DUP4 SWAP1 MSTORE PUSH1 0x24 ADD PUSH2 0x741 JUMP JUMPDEST PUSH1 0xC DUP3 DUP2 SLOAD DUP2 LT PUSH2 0xBC8 JUMPI PUSH2 0xBC8 PUSH2 0x2EF2 JUMP JUMPDEST SWAP1 PUSH0 MSTORE PUSH1 0x20 PUSH0 KECCAK256 ADD SLOAD SWAP1 POP SWAP2 SWAP1 POP JUMP JUMPDEST PUSH0 DUP1 PUSH0 DUP1 PUSH2 0xBE5 DUP7 PUSH2 0xCB5 JUMP JUMPDEST SWAP1 SWAP5 POP DUP5 SWAP3 POP PUSH2 0xFFFF AND SWAP1 POP PUSH2 0x2710 PUSH2 0xBFE DUP3 DUP8 PUSH2 0x2F1A JUMP JUMPDEST PUSH2 0xC08 SWAP2 SWAP1 PUSH2 0x2F45 JUMP JUMPDEST SWAP3 POP POP POP SWAP3 POP SWAP3 SWAP1 POP JUMP JUMPDEST PUSH2 0x937 DUP4 DUP4 DUP4 PUSH1 0x40 MLOAD DUP1 PUSH1 0x20 ADD PUSH1 0x40 MSTORE DUP1 PUSH0 DUP2 MSTORE POP PUSH2 0x1619 JUMP JUMPDEST PUSH2 0x96A DUP2 PUSH1 0x1 PUSH2 0x1DD8 JUMP JUMPDEST PUSH0 DUP1 PUSH2 0xC43 DUP4 PUSH2 0xE11 JUMP JUMPDEST SWAP1 POP DUP1 PUSH1 0x1 PUSH1 0x1 PUSH1 0xA0 SHL SUB AND DUP5 PUSH1 0x1 PUSH1 0x1 PUSH1 0xA0 SHL SUB AND EQ DUP1 PUSH2 0xC89 JUMPI POP PUSH1 0x1 PUSH1 0x1 PUSH1 0xA0 SHL SUB DUP1 DUP3 AND PUSH0 SWAP1 DUP2 MSTORE PUSH1 0x7 PUSH1 0x20 SWAP1 DUP2 MSTORE PUSH1 0x40 DUP1 DUP4 KECCAK256 SWAP4 DUP9 AND DUP4 MSTORE SWAP3 SWAP1 MSTORE KECCAK256 SLOAD PUSH1 0xFF AND JUMPDEST DUP1 PUSH2 0xCAD JUMPI POP DUP4 PUSH1 0x1 PUSH1 0x1 PUSH1 0xA0 SHL SUB AND PUSH2 0xCA2 DUP5 PUSH2 0x875 JUMP JUMPDEST PUSH1 0x1 PUSH1 0x1 PUSH1 0xA0 SHL SUB AND EQ JUMPDEST SWAP5 SWAP4 POP POP POP POP JUMP JUMPDEST PUSH0 DUP2 DUP2 MSTORE PUSH1 0xB PUSH1 0x20 SWAP1 DUP2 MSTORE PUSH1 0x40 DUP1 DUP4 KECCAK256 DUP2 MLOAD DUP1 DUP4 ADD SWAP1 SWAP3 MSTORE DUP1 SLOAD PUSH1 0x1 PUSH1 0x1 PUSH1 0xA0 SHL SUB AND DUP1 DUP4 MSTORE PUSH1 0x1 SWAP1 SWAP2 ADD SLOAD SWAP3 DUP3 ADD SWAP3 SWAP1 SWAP3 MSTORE DUP3 SWAP2 ISZERO PUSH2 0xCFB JUMPI DUP1 MLOAD PUSH1 0x20 DUP3 ADD MLOAD PUSH2 0xD15 JUMP JUMPDEST PUSH1 0xA SLOAD PUSH1 0x1 PUSH1 0x1 PUSH1 0xA0 SHL SUB DUP2 AND SWAP1 PUSH1 0x1 PUSH1 0xA0 SHL SWAP1 DIV PUSH2 0xFFFF AND JUMPDEST SWAP3 POP SWAP3 POP POP SWAP2 POP SWAP2 JUMP JUMPDEST DUP1 MLOAD PUSH1 0x60 SWAP1 PUSH0 DUP2 PUSH8 0xFFFFFFFFFFFFFFFF DUP2 GT ISZERO PUSH2 0xD3E JUMPI PUSH2 0xD3E PUSH2 0x2845 JUMP JUMPDEST PUSH1 0x40 MLOAD SWAP1 DUP1 DUP3 MSTORE DUP1 PUSH1 0x20 MUL PUSH1 0x20 ADD DUP3 ADD PUSH1 0x40 MSTORE DUP1 ISZERO PUSH2 0xD87 JUMPI DUP2 PUSH1 0x20 ADD JUMPDEST PUSH1 0x40 DUP1 MLOAD PUSH1 0x60 DUP2 ADD DUP3 MSTORE PUSH0 DUP1 DUP3 MSTORE PUSH1 0x20 DUP1 DUP4 ADD DUP3 SWAP1 MSTORE SWAP3 DUP3 ADD MSTORE DUP3 MSTORE PUSH0 NOT SWAP1 SWAP3 ADD SWAP2 ADD DUP2 PUSH2 0xD5C JUMPI SWAP1 POP JUMPDEST POP SWAP1 POP PUSH0 JUMPDEST DUP3 DUP2 EQ PUSH2 0xDDA JUMPI PUSH2 0xDB5 DUP6 DUP3 DUP2 MLOAD DUP2 LT PUSH2 0xDA8 JUMPI PUSH2 0xDA8 PUSH2 0x2EF2 JUMP JUMPDEST PUSH1 0x20 MUL PUSH1 0x20 ADD ADD MLOAD PUSH2 0x165D JUMP JUMPDEST DUP3 DUP3 DUP2 MLOAD DUP2 LT PUSH2 0xDC7 JUMPI PUSH2 0xDC7 PUSH2 0x2EF2 JUMP JUMPDEST PUSH1 0x20 SWAP1 DUP2 MUL SWAP2 SWAP1 SWAP2 ADD ADD MSTORE PUSH1 0x1 ADD PUSH2 0xD8C JUMP JUMPDEST POP SWAP4 SWAP3 POP POP POP JUMP JUMPDEST PUSH2 0xDEA PUSH2 0x187E JUMP JUMPDEST PUSH2 0xE07 JUMPI PUSH1 0x40 MLOAD PUSH4 0x6FAE3581 PUSH1 0xE1 SHL DUP2 MSTORE PUSH1 0x4 ADD PUSH1 0x40 MLOAD DUP1 SWAP2 SUB SWAP1 REVERT JUMPDEST PUSH2 0x775 DUP3 DUP3 PUSH2 0x1FC7 JUMP JUMPDEST PUSH0 PUSH2 0xE1B DUP3 PUSH2 0x206F JUMP JUMPDEST MLOAD SWAP3 SWAP2 POP POP JUMP JUMPDEST PUSH2 0xE2C CALLER DUP4 PUSH2 0xC38 JUMP JUMPDEST PUSH2 0xE78 JUMPI PUSH1 0x40 MLOAD PUSH3 0x461BCD PUSH1 0xE5 SHL DUP2 MSTORE PUSH1 0x20 PUSH1 0x4 DUP3 ADD MSTORE PUSH1 0x15 PUSH1 0x24 DUP3 ADD MSTORE PUSH32 0x4E6F74206F776E6572206F7220617070726F7665640000000000000000000000 PUSH1 0x44 DUP3 ADD MSTORE PUSH1 0x64 ADD PUSH2 0x741 JUMP JUMPDEST PUSH2 0xE81 DUP3 PUSH2 0x2186 JUMP JUMPDEST PUSH1 0x40 MLOAD PUSH1 0x1 PUSH1 0x1 PUSH1 0xA0 SHL SUB DUP3 AND SWAP1 DUP4 SWAP1 PUSH32 0xD5DF47BFE7B82577BF15BE85E7A913251185A6F2D19B35211F8E2C060C995F05 SWAP1 PUSH0 SWAP1 LOG3 PUSH1 0x40 MLOAD PUSH1 0x24 DUP2 ADD DUP4 SWAP1 MSTORE PUSH1 0x1 PUSH1 0x1 PUSH1 0xA0 SHL SUB DUP3 AND PUSH1 0x44 DUP3 ADD MSTORE PUSH0 SWAP1 PUSH1 0x64 ADD PUSH1 0x40 DUP1 MLOAD PUSH1 0x1F NOT DUP2 DUP5 SUB ADD DUP2 MSTORE SWAP2 DUP2 MSTORE PUSH1 0x20 DUP3 ADD DUP1 MLOAD PUSH28 0xFFFFFFFFFFFFFFFFFFFFFFFFFFFFFFFFFFFFFFFFFFFFFFFFFFFFFFFF AND PUSH4 0x4343BF9 PUSH1 0xE1 SHL OR SWAP1 MSTORE MLOAD PUSH4 0x3DBB202B PUSH1 0xE0 SHL DUP2 MSTORE SWAP1 SWAP2 POP PUSH1 0x1 PUSH1 0x1 PUSH1 0xA0 SHL SUB PUSH32 0x0 AND SWAP1 PUSH4 0x3DBB202B SWAP1 PUSH2 0xF87 SWAP1 PUSH32 0x0 SWAP1 DUP6 SWAP1 PUSH3 0xF4240 SWAP1 PUSH1 0x4 ADD PUSH2 0x2F58 JUMP JUMPDEST PUSH0 PUSH1 0x40 MLOAD DUP1 DUP4 SUB DUP2 PUSH0 DUP8 DUP1 EXTCODESIZE ISZERO DUP1 ISZERO PUSH2 0xF9E JUMPI PUSH0 DUP1 REVERT JUMPDEST POP GAS CALL ISZERO DUP1 ISZERO PUSH2 0xFB0 JUMPI RETURNDATASIZE PUSH0 DUP1 RETURNDATACOPY RETURNDATASIZE PUSH0 REVERT JUMPDEST POP POP POP POP POP POP POP JUMP JUMPDEST PUSH0 PUSH1 0x1 PUSH1 0x1 PUSH1 0xA0 SHL SUB DUP3 AND PUSH2 0xFE1 JUMPI PUSH1 0x40 MLOAD PUSH4 0x23D3AD81 PUSH1 0xE2 SHL DUP2 MSTORE PUSH1 0x4 ADD PUSH1 0x40 MLOAD DUP1 SWAP2 SUB SWAP1 REVERT JUMPDEST POP PUSH1 0x1 PUSH1 0x1 PUSH1 0xA0 SHL SUB AND PUSH0 SWAP1 DUP2 MSTORE PUSH1 0x5 PUSH1 0x20 MSTORE PUSH1 0x40 SWAP1 KECCAK256 SLOAD PUSH8 0xFFFFFFFFFFFFFFFF AND SWAP1 JUMP JUMPDEST PUSH2 0x100E PUSH2 0x187E JUMP JUMPDEST PUSH2 0x105A JUMPI PUSH1 0x40 MLOAD PUSH3 0x461BCD PUSH1 0xE5 SHL DUP2 MSTORE PUSH1 0x20 PUSH1 0x4 DUP3 ADD MSTORE PUSH1 0x17 PUSH1 0x24 DUP3 ADD MSTORE PUSH32 0x4E6F7420617574686F72697A656420746F206D696E742E000000000000000000 PUSH1 0x44 DUP3 ADD MSTORE PUSH1 0x64 ADD PUSH2 0x741 JUMP JUMPDEST PUSH2 0x106C PUSH2 0x1065 PUSH0 SLOAD SWAP1 JUMP JUMPDEST DUP5 DUP5 PUSH2 0x2190 JUMP JUMPDEST POP POP PUSH2 0x1079 DUP5 DUP5 DUP4 PUSH2 0x1928 JUMP JUMPDEST POP POP POP POP JUMP JUMPDEST PUSH1 0x60 PUSH0 DUP1 PUSH0 PUSH2 0x108D DUP6 PUSH2 0xFB9 JUMP JUMPDEST SWAP1 POP PUSH0 DUP2 PUSH8 0xFFFFFFFFFFFFFFFF DUP2 GT ISZERO PUSH2 0x10A9 JUMPI PUSH2 0x10A9 PUSH2 0x2845 JUMP JUMPDEST PUSH1 0x40 MLOAD SWAP1 DUP1 DUP3 MSTORE DUP1 PUSH1 0x20 MUL PUSH1 0x20 ADD DUP3 ADD PUSH1 0x40 MSTORE DUP1 ISZERO PUSH2 0x10D2 JUMPI DUP2 PUSH1 0x20 ADD PUSH1 0x20 DUP3 MUL DUP1 CALLDATASIZE DUP4 CALLDATACOPY ADD SWAP1 POP JUMPDEST POP PUSH1 0x40 DUP1 MLOAD PUSH1 0x60 DUP2 ADD DUP3 MSTORE PUSH0 DUP1 DUP3 MSTORE PUSH1 0x20 DUP3 ADD DUP2 SWAP1 MSTORE SWAP2 DUP2 ADD DUP3 SWAP1 MSTORE SWAP2 SWAP3 POP JUMPDEST DUP4 DUP7 EQ PUSH2 0x11AD JUMPI PUSH0 DUP2 DUP2 MSTORE PUSH1 0x4 PUSH1 0x20 SWAP1 DUP2 MSTORE PUSH1 0x40 SWAP2 DUP3 SWAP1 KECCAK256 DUP3 MLOAD PUSH1 0x60 DUP2 ADD DUP5 MSTORE SWAP1 SLOAD PUSH1 0x1 PUSH1 0x1 PUSH1 0xA0 SHL SUB DUP2 AND DUP3 MSTORE PUSH1 0x1 PUSH1 0xA0 SHL DUP2 DIV PUSH8 0xFFFFFFFFFFFFFFFF AND SWAP3 DUP3 ADD SWAP3 SWAP1 SWAP3 MSTORE PUSH1 0x1 PUSH1 0xE0 SHL SWAP1 SWAP2 DIV PUSH1 0xFF AND ISZERO ISZERO SWAP2 DUP2 ADD DUP3 SWAP1 MSTORE SWAP3 POP PUSH2 0x11A5 JUMPI DUP2 MLOAD PUSH1 0x1 PUSH1 0x1 PUSH1 0xA0 SHL SUB AND ISZERO PUSH2 0x1166 JUMPI DUP2 MLOAD SWAP5 POP JUMPDEST DUP8 PUSH1 0x1 PUSH1 0x1 PUSH1 0xA0 SHL SUB AND DUP6 PUSH1 0x1 PUSH1 0x1 PUSH1 0xA0 SHL SUB AND SUB PUSH2 0x11A5 JUMPI DUP1 DUP4 DUP8 DUP1 PUSH1 0x1 ADD SWAP9 POP DUP2 MLOAD DUP2 LT PUSH2 0x1198 JUMPI PUSH2 0x1198 PUSH2 0x2EF2 JUMP JUMPDEST PUSH1 0x20 MUL PUSH1 0x20 ADD ADD DUP2 DUP2 MSTORE POP POP JUMPDEST PUSH1 0x1 ADD PUSH2 0x10F2 JUMP JUMPDEST POP SWAP1 SWAP7 SWAP6 POP POP POP POP POP POP JUMP JUMPDEST PUSH2 0x11C1 PUSH2 0x187E JUMP JUMPDEST PUSH2 0x11DE JUMPI PUSH1 0x40 MLOAD PUSH4 0x9F7F0925 PUSH1 0xE0 SHL DUP2 MSTORE PUSH1 0x4 ADD PUSH1 0x40 MLOAD DUP1 SWAP2 SUB SWAP1 REVERT JUMPDEST PUSH2 0x96A DUP2 PUSH2 0x21F2 JUMP JUMPDEST PUSH1 0x60 PUSH1 0x3 DUP1 SLOAD PUSH2 0x7F4 SWAP1 PUSH2 0x2E9F JUMP JUMPDEST PUSH1 0x9 SLOAD PUSH1 0x1 PUSH1 0x1 PUSH1 0xA0 SHL SUB AND CALLER EQ PUSH2 0x1221 JUMPI PUSH1 0x40 MLOAD PUSH4 0x16CCB9CB PUSH1 0xE1 SHL DUP2 MSTORE PUSH1 0x4 ADD PUSH1 0x40 MLOAD DUP1 SWAP2 SUB SWAP1 REVERT JUMPDEST PUSH2 0x122D DUP2 PUSH1 0x10 SLOAD PUSH2 0x1BD6 JUMP JUMPDEST PUSH1 0x10 DUP1 SLOAD SWAP1 PUSH0 PUSH2 0x123C DUP4 PUSH2 0x2F8F JUMP JUMPDEST SWAP2 SWAP1 POP SSTORE POP POP JUMP JUMPDEST PUSH1 0x60 DUP2 DUP4 LT PUSH2 0x1266 JUMPI PUSH1 0x40 MLOAD PUSH4 0x1960CCAD PUSH1 0xE1 SHL DUP2 MSTORE PUSH1 0x4 ADD PUSH1 0x40 MLOAD DUP1 SWAP2 SUB SWAP1 REVERT JUMPDEST PUSH0 DUP1 SLOAD DUP1 DUP5 GT ISZERO PUSH2 0x1275 JUMPI DUP1 SWAP4 POP JUMPDEST PUSH0 PUSH2 0x127F DUP8 PUSH2 0xFB9 JUMP JUMPDEST SWAP1 POP DUP5 DUP7 LT ISZERO PUSH2 0x129E JUMPI DUP6 DUP6 SUB DUP2 DUP2 LT ISZERO PUSH2 0x1298 JUMPI DUP1 SWAP2 POP JUMPDEST POP PUSH2 0x12A1 JUMP JUMPDEST POP PUSH0 JUMPDEST PUSH0 DUP2 PUSH8 0xFFFFFFFFFFFFFFFF DUP2 GT ISZERO PUSH2 0x12BB JUMPI PUSH2 0x12BB PUSH2 0x2845 JUMP JUMPDEST PUSH1 0x40 MLOAD SWAP1 DUP1 DUP3 MSTORE DUP1 PUSH1 0x20 MUL PUSH1 0x20 ADD DUP3 ADD PUSH1 0x40 MSTORE DUP1 ISZERO PUSH2 0x12E4 JUMPI DUP2 PUSH1 0x20 ADD PUSH1 0x20 DUP3 MUL DUP1 CALLDATASIZE DUP4 CALLDATACOPY ADD SWAP1 POP JUMPDEST POP SWAP1 POP DUP2 PUSH0 SUB PUSH2 0x12F9 JUMPI SWAP4 POP PUSH2 0x13EA SWAP3 POP POP POP JUMP JUMPDEST PUSH0 PUSH2 0x1303 DUP9 PUSH2 0x165D JUMP JUMPDEST SWAP1 POP PUSH0 DUP2 PUSH1 0x40 ADD MLOAD PUSH2 0x1313 JUMPI POP DUP1 MLOAD JUMPDEST DUP9 JUMPDEST DUP9 DUP2 EQ ISZERO DUP1 ISZERO PUSH2 0x1325 JUMPI POP DUP5 DUP8 EQ ISZERO JUMPDEST ISZERO PUSH2 0x13DE JUMPI PUSH0 DUP2 DUP2 MSTORE PUSH1 0x4 PUSH1 0x20 SWAP1 DUP2 MSTORE PUSH1 0x40 SWAP2 DUP3 SWAP1 KECCAK256 DUP3 MLOAD PUSH1 0x60 DUP2 ADD DUP5 MSTORE SWAP1 SLOAD PUSH1 0x1 PUSH1 0x1 PUSH1 0xA0 SHL SUB DUP2 AND DUP3 MSTORE PUSH1 0x1 PUSH1 0xA0 SHL DUP2 DIV PUSH8 0xFFFFFFFFFFFFFFFF AND SWAP3 DUP3 ADD SWAP3 SWAP1 SWAP3 MSTORE PUSH1 0x1 PUSH1 0xE0 SHL SWAP1 SWAP2 DIV PUSH1 0xFF AND ISZERO ISZERO SWAP2 DUP2 ADD DUP3 SWAP1 MSTORE SWAP4 POP PUSH2 0x13D6 JUMPI DUP3 MLOAD PUSH1 0x1 PUSH1 0x1 PUSH1 0xA0 SHL SUB AND ISZERO PUSH2 0x1397 JUMPI DUP3 MLOAD SWAP2 POP JUMPDEST DUP11 PUSH1 0x1 PUSH1 0x1 PUSH1 0xA0 SHL SUB AND DUP3 PUSH1 0x1 PUSH1 0x1 PUSH1 0xA0 SHL SUB AND SUB PUSH2 0x13D6 JUMPI DUP1 DUP5 DUP9 DUP1 PUSH1 0x1 ADD SWAP10 POP DUP2 MLOAD DUP2 LT PUSH2 0x13C9 JUMPI PUSH2 0x13C9 PUSH2 0x2EF2 JUMP JUMPDEST PUSH1 0x20 MUL PUSH1 0x20 ADD ADD DUP2 DUP2 MSTORE POP POP JUMPDEST PUSH1 0x1 ADD PUSH2 0x1315 JUMP JUMPDEST POP POP POP SWAP3 DUP4 MSTORE POP SWAP1 SWAP2 POP POP JUMPDEST SWAP4 SWAP3 POP POP POP JUMP JUMPDEST PUSH2 0x13F9 PUSH2 0x187E JUMP JUMPDEST PUSH2 0x1416 JUMPI PUSH1 0x40 MLOAD PUSH4 0x6FAE3581 PUSH1 0xE1 SHL DUP2 MSTORE PUSH1 0x4 ADD PUSH1 0x40 MLOAD DUP1 SWAP2 SUB SWAP1 REVERT JUMPDEST PUSH2 0x937 DUP4 DUP4 DUP4 PUSH2 0x22CB JUMP JUMPDEST CALLER PUSH1 0x1 PUSH1 0x1 PUSH1 0xA0 SHL SUB DUP4 AND SUB PUSH2 0x144A JUMPI PUSH1 0x40 MLOAD PUSH4 0xB06307DB PUSH1 0xE0 SHL DUP2 MSTORE PUSH1 0x4 ADD PUSH1 0x40 MLOAD DUP1 SWAP2 SUB SWAP1 REVERT JUMPDEST CALLER PUSH0 DUP2 DUP2 MSTORE PUSH1 0x7 PUSH1 0x20 SWAP1 DUP2 MSTORE PUSH1 0x40 DUP1 DUP4 KECCAK256 PUSH1 0x1 PUSH1 0x1 PUSH1 0xA0 SHL SUB DUP8 AND DUP1 DUP6 MSTORE SWAP1 DUP4 MSTORE SWAP3 DUP2 SWAP1 KECCAK256 DUP1 SLOAD PUSH1 0xFF NOT AND DUP7 ISZERO ISZERO SWAP1 DUP2 OR SWAP1 SWAP2 SSTORE SWAP1 MLOAD SWAP1 DUP2 MSTORE SWAP2 SWAP3 SWAP2 PUSH32 0x17307EAB39AB6107E8899845AD3D59BD9653F200F220920489CA2B5937696C31 SWAP2 ADD PUSH1 0x40 MLOAD DUP1 SWAP2 SUB SWAP1 LOG3 POP POP JUMP JUMPDEST PUSH1 0x60 DUP2 PUSH8 0xFFFFFFFFFFFFFFFF DUP2 GT ISZERO PUSH2 0x14D0 JUMPI PUSH2 0x14D0 PUSH2 0x2845 JUMP JUMPDEST PUSH1 0x40 MLOAD SWAP1 DUP1 DUP3 MSTORE DUP1 PUSH1 0x20 MUL PUSH1 0x20 ADD DUP3 ADD PUSH1 0x40 MSTORE DUP1 ISZERO PUSH2 0x1503 JUMPI DUP2 PUSH1 0x20 ADD JUMPDEST PUSH1 0x60 DUP2 MSTORE PUSH1 0x20 ADD SWAP1 PUSH1 0x1 SWAP1 SUB SWAP1 DUP2 PUSH2 0x14EE JUMPI SWAP1 POP JUMPDEST POP SWAP1 POP CALLER PUSH0 DUP1 JUMPDEST DUP5 DUP2 LT ISZERO PUSH2 0x1610 JUMPI DUP2 ISZERO PUSH2 0x1589 JUMPI PUSH2 0x1567 ADDRESS DUP8 DUP8 DUP5 DUP2 DUP2 LT PUSH2 0x152E JUMPI PUSH2 0x152E PUSH2 0x2EF2 JUMP JUMPDEST SWAP1 POP PUSH1 0x20 MUL DUP2 ADD SWAP1 PUSH2 0x1540 SWAP2 SWAP1 PUSH2 0x2FA7 JUMP JUMPDEST DUP7 PUSH1 0x40 MLOAD PUSH1 0x20 ADD PUSH2 0x1553 SWAP4 SWAP3 SWAP2 SWAP1 PUSH2 0x2FF1 JUMP JUMPDEST PUSH1 0x40 MLOAD PUSH1 0x20 DUP2 DUP4 SUB SUB DUP2 MSTORE SWAP1 PUSH1 0x40 MSTORE PUSH2 0x238A JUMP JUMPDEST DUP5 DUP3 DUP2 MLOAD DUP2 LT PUSH2 0x1579 JUMPI PUSH2 0x1579 PUSH2 0x2EF2 JUMP JUMPDEST PUSH1 0x20 MUL PUSH1 0x20 ADD ADD DUP2 SWAP1 MSTORE POP PUSH2 0x1608 JUMP JUMPDEST PUSH2 0x15EA ADDRESS DUP8 DUP8 DUP5 DUP2 DUP2 LT PUSH2 0x159F JUMPI PUSH2 0x159F PUSH2 0x2EF2 JUMP JUMPDEST SWAP1 POP PUSH1 0x20 MUL DUP2 ADD SWAP1 PUSH2 0x15B1 SWAP2 SWAP1 PUSH2 0x2FA7 JUMP JUMPDEST DUP1 DUP1 PUSH1 0x1F ADD PUSH1 0x20 DUP1 SWAP2 DIV MUL PUSH1 0x20 ADD PUSH1 0x40 MLOAD SWAP1 DUP2 ADD PUSH1 0x40 MSTORE DUP1 SWAP4 SWAP3 SWAP2 SWAP1 DUP2 DUP2 MSTORE PUSH1 0x20 ADD DUP4 DUP4 DUP1 DUP3 DUP5 CALLDATACOPY PUSH0 SWAP3 ADD SWAP2 SWAP1 SWAP2 MSTORE POP PUSH2 0x238A SWAP3 POP POP POP JUMP JUMPDEST DUP5 DUP3 DUP2 MLOAD DUP2 LT PUSH2 0x15FC JUMPI PUSH2 0x15FC PUSH2 0x2EF2 JUMP JUMPDEST PUSH1 0x20 MUL PUSH1 0x20 ADD ADD DUP2 SWAP1 MSTORE POP JUMPDEST PUSH1 0x1 ADD PUSH2 0x150A JUMP JUMPDEST POP POP POP SWAP3 SWAP2 POP POP JUMP JUMPDEST PUSH2 0x1624 DUP5 DUP5 DUP5 PUSH2 0x1BEF JUMP JUMPDEST PUSH1 0x1 PUSH1 0x1 PUSH1 0xA0 SHL SUB DUP4 AND EXTCODESIZE ISZERO PUSH2 0x1079 JUMPI PUSH2 0x1640 DUP5 DUP5 DUP5 DUP5 PUSH2 0x23AF JUMP JUMPDEST PUSH2 0x1079 JUMPI PUSH1 0x40 MLOAD PUSH4 0x68D2BF6B PUSH1 0xE1 SHL DUP2 MSTORE PUSH1 0x4 ADD PUSH1 0x40 MLOAD DUP1 SWAP2 SUB SWAP1 REVERT JUMPDEST PUSH1 0x40 DUP1 MLOAD PUSH1 0x60 DUP1 DUP3 ADD DUP4 MSTORE PUSH0 DUP1 DUP4 MSTORE PUSH1 0x20 DUP1 DUP5 ADD DUP3 SWAP1 MSTORE DUP4 DUP6 ADD DUP3 SWAP1 MSTORE DUP5 MLOAD SWAP3 DUP4 ADD DUP6 MSTORE DUP2 DUP4 MSTORE DUP3 ADD DUP2 SWAP1 MSTORE SWAP3 DUP2 ADD DUP4 SWAP1 MSTORE SWAP1 SWAP2 POP PUSH0 SLOAD DUP4 LT PUSH2 0x16A0 JUMPI SWAP3 SWAP2 POP POP JUMP JUMPDEST POP PUSH0 DUP3 DUP2 MSTORE PUSH1 0x4 PUSH1 0x20 SWAP1 DUP2 MSTORE PUSH1 0x40 SWAP2 DUP3 SWAP1 KECCAK256 DUP3 MLOAD PUSH1 0x60 DUP2 ADD DUP5 MSTORE SWAP1 SLOAD PUSH1 0x1 PUSH1 0x1 PUSH1 0xA0 SHL SUB DUP2 AND DUP3 MSTORE PUSH1 0x1 PUSH1 0xA0 SHL DUP2 DIV PUSH8 0xFFFFFFFFFFFFFFFF AND SWAP3 DUP3 ADD SWAP3 SWAP1 SWAP3 MSTORE PUSH1 0x1 PUSH1 0xE0 SHL SWAP1 SWAP2 DIV PUSH1 0xFF AND ISZERO DUP1 ISZERO SWAP3 DUP3 ADD SWAP3 SWAP1 SWAP3 MSTORE SWAP1 PUSH2 0x1700 JUMPI SWAP3 SWAP2 POP POP JUMP JUMPDEST PUSH2 0x13EA DUP4 PUSH2 0x206F JUMP JUMPDEST PUSH0 DUP2 DUP2 MSTORE PUSH1 0xF PUSH1 0x20 MSTORE PUSH1 0x40 DUP2 KECCAK256 DUP1 SLOAD PUSH1 0x60 SWAP3 SWAP2 SWAP1 PUSH2 0x1726 SWAP1 PUSH2 0x2E9F JUMP JUMPDEST DUP1 PUSH1 0x1F ADD PUSH1 0x20 DUP1 SWAP2 DIV MUL PUSH1 0x20 ADD PUSH1 0x40 MLOAD SWAP1 DUP2 ADD PUSH1 0x40 MSTORE DUP1 SWAP3 SWAP2 SWAP1 DUP2 DUP2 MSTORE PUSH1 0x20 ADD DUP3 DUP1 SLOAD PUSH2 0x1752 SWAP1 PUSH2 0x2E9F JUMP JUMPDEST DUP1 ISZERO PUSH2 0x179D JUMPI DUP1 PUSH1 0x1F LT PUSH2 0x1774 JUMPI PUSH2 0x100 DUP1 DUP4 SLOAD DIV MUL DUP4 MSTORE SWAP2 PUSH1 0x20 ADD SWAP2 PUSH2 0x179D JUMP JUMPDEST DUP3 ADD SWAP2 SWAP1 PUSH0 MSTORE PUSH1 0x20 PUSH0 KECCAK256 SWAP1 JUMPDEST DUP2 SLOAD DUP2 MSTORE SWAP1 PUSH1 0x1 ADD SWAP1 PUSH1 0x20 ADD DUP1 DUP4 GT PUSH2 0x1780 JUMPI DUP3 SWAP1 SUB PUSH1 0x1F AND DUP3 ADD SWAP2 JUMPDEST POP POP POP POP POP SWAP1 POP PUSH0 DUP2 MLOAD GT ISZERO PUSH2 0x17B3 JUMPI SWAP3 SWAP2 POP POP JUMP JUMPDEST PUSH0 PUSH2 0x17BD DUP5 PUSH2 0x2496 JUMP JUMPDEST SWAP1 POP DUP1 PUSH2 0x17C9 DUP6 PUSH2 0x260B JUMP JUMPDEST PUSH1 0x40 MLOAD PUSH1 0x20 ADD PUSH2 0x17DA SWAP3 SWAP2 SWAP1 PUSH2 0x302E JUMP JUMPDEST PUSH1 0x40 MLOAD PUSH1 0x20 DUP2 DUP4 SUB SUB DUP2 MSTORE SWAP1 PUSH1 0x40 MSTORE SWAP3 POP POP POP SWAP2 SWAP1 POP JUMP JUMPDEST PUSH1 0x8 DUP1 SLOAD PUSH2 0x17FF SWAP1 PUSH2 0x2E9F JUMP JUMPDEST DUP1 PUSH1 0x1F ADD PUSH1 0x20 DUP1 SWAP2 DIV MUL PUSH1 0x20 ADD PUSH1 0x40 MLOAD SWAP1 DUP2 ADD PUSH1 0x40 MSTORE DUP1 SWAP3 SWAP2 SWAP1 DUP2 DUP2 MSTORE PUSH1 0x20 ADD DUP3 DUP1 SLOAD PUSH2 0x182B SWAP1 PUSH2 0x2E9F JUMP JUMPDEST DUP1 ISZERO PUSH2 0x1876 JUMPI DUP1 PUSH1 0x1F LT PUSH2 0x184D JUMPI PUSH2 0x100 DUP1 DUP4 SLOAD DIV MUL DUP4 MSTORE SWAP2 PUSH1 0x20 ADD SWAP2 PUSH2 0x1876 JUMP JUMPDEST DUP3 ADD SWAP2 SWAP1 PUSH0 MSTORE PUSH1 0x20 PUSH0 KECCAK256 SWAP1 JUMPDEST DUP2 SLOAD DUP2 MSTORE SWAP1 PUSH1 0x1 ADD SWAP1 PUSH1 0x20 ADD DUP1 DUP4 GT PUSH2 0x1859 JUMPI DUP3 SWAP1 SUB PUSH1 0x1F AND DUP3 ADD SWAP2 JUMPDEST POP POP POP POP POP DUP2 JUMP JUMPDEST PUSH0 PUSH2 0x1891 PUSH1 0x9 SLOAD PUSH1 0x1 PUSH1 0x1 PUSH1 0xA0 SHL SUB AND SWAP1 JUMP JUMPDEST PUSH1 0x1 PUSH1 0x1 PUSH1 0xA0 SHL SUB AND CALLER PUSH1 0x1 PUSH1 0x1 PUSH1 0xA0 SHL SUB AND EQ SWAP1 POP SWAP1 JUMP JUMPDEST PUSH0 DUP3 DUP2 MSTORE PUSH1 0xF PUSH1 0x20 MSTORE PUSH1 0x40 SWAP1 KECCAK256 DUP1 SLOAD PUSH2 0x18C2 SWAP1 PUSH2 0x2E9F JUMP JUMPDEST ISZERO SWAP1 POP PUSH2 0x1911 JUMPI PUSH1 0x40 MLOAD PUSH3 0x461BCD PUSH1 0xE5 SHL DUP2 MSTORE PUSH1 0x20 PUSH1 0x4 DUP3 ADD MSTORE PUSH1 0xF PUSH1 0x24 DUP3 ADD MSTORE PUSH32 0x55524920616C7265616479207365740000000000000000000000000000000000 PUSH1 0x44 DUP3 ADD MSTORE PUSH1 0x64 ADD PUSH2 0x741 JUMP JUMPDEST PUSH0 DUP3 DUP2 MSTORE PUSH1 0xF PUSH1 0x20 MSTORE PUSH1 0x40 SWAP1 KECCAK256 PUSH2 0x937 DUP3 DUP3 PUSH2 0x3086 JUMP JUMPDEST PUSH0 SLOAD PUSH1 0x1 PUSH1 0x1 PUSH1 0xA0 SHL SUB DUP5 AND PUSH2 0x1950 JUMPI PUSH1 0x40 MLOAD PUSH3 0x2E0763 PUSH1 0xE8 SHL DUP2 MSTORE PUSH1 0x4 ADD PUSH1 0x40 MLOAD DUP1 SWAP2 SUB SWAP1 REVERT JUMPDEST DUP3 PUSH0 SUB PUSH2 0x1970 JUMPI PUSH1 0x40 MLOAD PUSH4 0xB562E8DD PUSH1 0xE0 SHL DUP2 MSTORE PUSH1 0x4 ADD PUSH1 0x40 MLOAD DUP1 SWAP2 SUB SWAP1 REVERT JUMPDEST PUSH1 0x1 PUSH1 0x1 PUSH1 0xA0 SHL SUB DUP5 AND PUSH0 DUP2 DUP2 MSTORE PUSH1 0x5 PUSH1 0x20 SWAP1 DUP2 MSTORE PUSH1 0x40 DUP1 DUP4 KECCAK256 DUP1 SLOAD PUSH16 0xFFFFFFFFFFFFFFFFFFFFFFFFFFFFFFFF NOT DUP2 AND PUSH8 0xFFFFFFFFFFFFFFFF DUP1 DUP4 AND DUP12 ADD DUP2 AND SWAP2 DUP3 OR PUSH9 0x10000000000000000 PUSH8 0xFFFFFFFFFFFFFFFF NOT SWAP1 SWAP5 AND SWAP1 SWAP3 OR DUP4 SWAP1 DIV DUP2 AND DUP12 ADD DUP2 AND SWAP1 SWAP3 MUL OR SWAP1 SWAP2 SSTORE DUP6 DUP5 MSTORE PUSH1 0x4 SWAP1 SWAP3 MSTORE SWAP1 SWAP2 KECCAK256 DUP1 SLOAD PUSH1 0x1 PUSH1 0x1 PUSH1 0xE0 SHL SUB NOT AND DUP4 OR PUSH1 0x1 PUSH1 0xA0 SHL TIMESTAMP SWAP1 SWAP4 AND SWAP3 SWAP1 SWAP3 MUL SWAP2 SWAP1 SWAP2 OR SWAP1 SSTORE DUP2 SWAP1 DUP2 DUP6 ADD SWAP1 EXTCODESIZE ISZERO PUSH2 0x1A94 JUMPI JUMPDEST PUSH1 0x40 MLOAD DUP3 SWAP1 PUSH1 0x1 PUSH1 0x1 PUSH1 0xA0 SHL SUB DUP9 AND SWAP1 PUSH0 SWAP1 PUSH32 0xDDF252AD1BE2C89B69C2B068FC378DAA952BA7F163C4A11628F55A4DF523B3EF SWAP1 DUP3 SWAP1 LOG4 PUSH2 0x1A5F PUSH0 DUP8 DUP5 DUP1 PUSH1 0x1 ADD SWAP6 POP DUP8 PUSH2 0x23AF JUMP JUMPDEST PUSH2 0x1A7C JUMPI PUSH1 0x40 MLOAD PUSH4 0x68D2BF6B PUSH1 0xE1 SHL DUP2 MSTORE PUSH1 0x4 ADD PUSH1 0x40 MLOAD DUP1 SWAP2 SUB SWAP1 REVERT JUMPDEST DUP1 DUP3 LT PUSH2 0x1A16 JUMPI DUP3 PUSH0 SLOAD EQ PUSH2 0x1A8F JUMPI PUSH0 DUP1 REVERT JUMPDEST PUSH2 0x1AD8 JUMP JUMPDEST JUMPDEST PUSH1 0x40 MLOAD PUSH1 0x1 DUP4 ADD SWAP3 SWAP1 PUSH1 0x1 PUSH1 0x1 PUSH1 0xA0 SHL SUB DUP9 AND SWAP1 PUSH0 SWAP1 PUSH32 0xDDF252AD1BE2C89B69C2B068FC378DAA952BA7F163C4A11628F55A4DF523B3EF SWAP1 DUP3 SWAP1 LOG4 DUP1 DUP3 LT PUSH2 0x1A95 JUMPI JUMPDEST POP PUSH0 SWAP1 DUP2 SSTORE PUSH2 0x1079 SWAP1 DUP6 DUP4 DUP7 DUP5 JUMP JUMPDEST PUSH0 DUP1 SLOAD DUP3 LT DUP1 ISZERO PUSH2 0x7DF JUMPI POP POP PUSH0 SWAP1 DUP2 MSTORE PUSH1 0x4 PUSH1 0x20 MSTORE PUSH1 0x40 SWAP1 KECCAK256 SLOAD PUSH1 0x1 PUSH1 0xE0 SHL SWAP1 DIV PUSH1 0xFF AND ISZERO SWAP1 JUMP JUMPDEST PUSH0 DUP3 DUP2 MSTORE PUSH1 0x6 PUSH1 0x20 MSTORE PUSH1 0x40 DUP1 DUP3 KECCAK256 DUP1 SLOAD PUSH20 0xFFFFFFFFFFFFFFFFFFFFFFFFFFFFFFFFFFFFFFFF NOT AND PUSH1 0x1 PUSH1 0x1 PUSH1 0xA0 SHL SUB DUP8 DUP2 AND SWAP2 DUP3 OR SWAP1 SWAP3 SSTORE SWAP2 MLOAD DUP6 SWAP4 SWAP2 DUP6 AND SWAP2 PUSH32 0x8C5BE1E5EBEC7D5BD14F71427D1E84F3DD0314C0F7B2291E5B200AC8C7C3B925 SWAP2 LOG4 POP POP POP JUMP JUMPDEST PUSH1 0x9 DUP1 SLOAD PUSH1 0x1 PUSH1 0x1 PUSH1 0xA0 SHL SUB DUP4 DUP2 AND PUSH20 0xFFFFFFFFFFFFFFFFFFFFFFFFFFFFFFFFFFFFFFFF NOT DUP4 AND DUP2 OR SWAP1 SWAP4 SSTORE PUSH1 0x40 MLOAD SWAP2 AND SWAP2 SWAP1 DUP3 SWAP1 PUSH32 0x8292FCE18FA69EDF4DB7B94EA2E58241DF0AE57F97E0A6C9B29067028BF92D76 SWAP1 PUSH0 SWAP1 LOG3 POP POP JUMP JUMPDEST PUSH2 0x775 DUP3 DUP3 PUSH1 0x40 MLOAD DUP1 PUSH1 0x20 ADD PUSH1 0x40 MSTORE DUP1 PUSH0 DUP2 MSTORE POP PUSH2 0x1928 JUMP JUMPDEST PUSH0 PUSH2 0x1BF9 DUP3 PUSH2 0x206F JUMP JUMPDEST SWAP1 POP DUP4 PUSH1 0x1 PUSH1 0x1 PUSH1 0xA0 SHL SUB AND DUP2 PUSH0 ADD MLOAD PUSH1 0x1 PUSH1 0x1 PUSH1 0xA0 SHL SUB AND EQ PUSH2 0x1C2F JUMPI PUSH1 0x40 MLOAD PUSH3 0xA11481 PUSH1 0xE8 SHL DUP2 MSTORE PUSH1 0x4 ADD PUSH1 0x40 MLOAD DUP1 SWAP2 SUB SWAP1 REVERT JUMPDEST PUSH0 CALLER PUSH1 0x1 PUSH1 0x1 PUSH1 0xA0 SHL SUB DUP7 AND EQ DUP1 PUSH2 0x1C4C JUMPI POP PUSH2 0x1C4C DUP6 CALLER PUSH2 0x69D JUMP JUMPDEST DUP1 PUSH2 0x1C67 JUMPI POP CALLER PUSH2 0x1C5C DUP5 PUSH2 0x875 JUMP JUMPDEST PUSH1 0x1 PUSH1 0x1 PUSH1 0xA0 SHL SUB AND EQ JUMPDEST SWAP1 POP DUP1 PUSH2 0x1C87 JUMPI PUSH1 0x40 MLOAD PUSH4 0x2CE44B5F PUSH1 0xE1 SHL DUP2 MSTORE PUSH1 0x4 ADD PUSH1 0x40 MLOAD DUP1 SWAP2 SUB SWAP1 REVERT JUMPDEST PUSH1 0x1 PUSH1 0x1 PUSH1 0xA0 SHL SUB DUP5 AND PUSH2 0x1CAE JUMPI PUSH1 0x40 MLOAD PUSH4 0x3A954ECD PUSH1 0xE2 SHL DUP2 MSTORE PUSH1 0x4 ADD PUSH1 0x40 MLOAD DUP1 SWAP2 SUB SWAP1 REVERT JUMPDEST PUSH2 0x1CB9 PUSH0 DUP5 DUP8 PUSH2 0x1B10 JUMP JUMPDEST PUSH1 0x1 PUSH1 0x1 PUSH1 0xA0 SHL SUB DUP6 DUP2 AND PUSH0 SWAP1 DUP2 MSTORE PUSH1 0x5 PUSH1 0x20 SWAP1 DUP2 MSTORE PUSH1 0x40 DUP1 DUP4 KECCAK256 DUP1 SLOAD PUSH8 0xFFFFFFFFFFFFFFFF NOT DUP1 DUP3 AND PUSH8 0xFFFFFFFFFFFFFFFF SWAP3 DUP4 AND PUSH0 NOT ADD DUP4 AND OR SWAP1 SWAP3 SSTORE DUP10 DUP7 AND DUP1 DUP7 MSTORE DUP4 DUP7 KECCAK256 DUP1 SLOAD SWAP4 DUP5 AND SWAP4 DUP4 AND PUSH1 0x1 SWAP1 DUP2 ADD DUP5 AND SWAP5 SWAP1 SWAP5 OR SWAP1 SSTORE DUP10 DUP7 MSTORE PUSH1 0x4 SWAP1 SWAP5 MSTORE DUP3 DUP6 KECCAK256 DUP1 SLOAD PUSH1 0x1 PUSH1 0x1 PUSH1 0xE0 SHL SUB NOT AND SWAP1 SWAP5 OR PUSH1 0x1 PUSH1 0xA0 SHL TIMESTAMP SWAP1 SWAP3 AND SWAP2 SWAP1 SWAP2 MUL OR DUP4 SSTORE DUP8 ADD DUP1 DUP5 MSTORE SWAP3 KECCAK256 DUP1 SLOAD SWAP2 SWAP4 SWAP1 SWAP2 AND PUSH2 0x1D8C JUMPI PUSH0 SLOAD DUP3 EQ PUSH2 0x1D8C JUMPI DUP1 SLOAD PUSH1 0x20 DUP7 ADD MLOAD PUSH8 0xFFFFFFFFFFFFFFFF AND PUSH1 0x1 PUSH1 0xA0 SHL MUL PUSH1 0x1 PUSH1 0x1 PUSH1 0xE0 SHL SUB NOT SWAP1 SWAP2 AND PUSH1 0x1 PUSH1 0x1 PUSH1 0xA0 SHL SUB DUP11 AND OR OR DUP2 SSTORE JUMPDEST POP POP POP DUP3 DUP5 PUSH1 0x1 PUSH1 0x1 PUSH1 0xA0 SHL SUB AND DUP7 PUSH1 0x1 PUSH1 0x1 PUSH1 0xA0 SHL SUB AND PUSH32 0xDDF252AD1BE2C89B69C2B068FC378DAA952BA7F163C4A11628F55A4DF523B3EF PUSH1 0x40 MLOAD PUSH1 0x40 MLOAD DUP1 SWAP2 SUB SWAP1 LOG4 JUMPDEST POP POP POP POP POP JUMP JUMPDEST PUSH0 PUSH2 0x1DE2 DUP4 PUSH2 0x206F JUMP JUMPDEST DUP1 MLOAD SWAP1 SWAP2 POP DUP3 ISZERO PUSH2 0x1E47 JUMPI PUSH0 CALLER PUSH1 0x1 PUSH1 0x1 PUSH1 0xA0 SHL SUB DUP4 AND EQ DUP1 PUSH2 0x1E0A JUMPI POP PUSH2 0x1E0A DUP3 CALLER PUSH2 0x69D JUMP JUMPDEST DUP1 PUSH2 0x1E25 JUMPI POP CALLER PUSH2 0x1E1A DUP7 PUSH2 0x875 JUMP JUMPDEST PUSH1 0x1 PUSH1 0x1 PUSH1 0xA0 SHL SUB AND EQ JUMPDEST SWAP1 POP DUP1 PUSH2 0x1E45 JUMPI PUSH1 0x40 MLOAD PUSH4 0x2CE44B5F PUSH1 0xE1 SHL DUP2 MSTORE PUSH1 0x4 ADD PUSH1 0x40 MLOAD DUP1 SWAP2 SUB SWAP1 REVERT JUMPDEST POP JUMPDEST PUSH2 0x1E52 PUSH0 DUP6 DUP4 PUSH2 0x1B10 JUMP JUMPDEST PUSH1 0x1 PUSH1 0x1 PUSH1 0xA0 SHL SUB DUP1 DUP3 AND PUSH0 DUP2 DUP2 MSTORE PUSH1 0x5 PUSH1 0x20 SWAP1 DUP2 MSTORE PUSH1 0x40 DUP1 DUP4 KECCAK256 DUP1 SLOAD PUSH17 0x100000000000000000000000000000000 PUSH0 NOT PUSH8 0xFFFFFFFFFFFFFFFF DUP1 DUP5 AND SWAP2 SWAP1 SWAP2 ADD DUP2 AND PUSH8 0xFFFFFFFFFFFFFFFF NOT DUP5 AND DUP2 OR DUP4 SWAP1 DIV DUP3 AND PUSH1 0x1 SWAP1 DUP2 ADD DUP4 AND SWAP1 SWAP4 MUL PUSH32 0xFFFFFFFFFFFFFFFF0000000000000000FFFFFFFFFFFFFFFF0000000000000000 SWAP1 SWAP5 AND OR SWAP3 SWAP1 SWAP3 OR DUP4 SSTORE DUP12 DUP7 MSTORE PUSH1 0x4 SWAP1 SWAP5 MSTORE DUP3 DUP6 KECCAK256 DUP1 SLOAD PUSH32 0xFFFFFF00FFFFFFFFFFFFFFFFFFFFFFFFFFFFFFFFFFFFFFFFFFFFFFFFFFFFFFFF TIMESTAMP SWAP1 SWAP4 AND PUSH1 0x1 PUSH1 0xA0 SHL MUL PUSH1 0x1 PUSH1 0x1 PUSH1 0xE0 SHL SUB NOT SWAP1 SWAP2 AND SWAP1 SWAP8 OR SWAP7 SWAP1 SWAP7 OR AND PUSH1 0x1 PUSH1 0xE0 SHL OR DUP6 SSTORE SWAP2 DUP10 ADD DUP1 DUP5 MSTORE SWAP3 KECCAK256 DUP1 SLOAD SWAP2 SWAP5 SWAP1 SWAP2 AND PUSH2 0x1F7E JUMPI PUSH0 SLOAD DUP3 EQ PUSH2 0x1F7E JUMPI DUP1 SLOAD PUSH1 0x20 DUP8 ADD MLOAD PUSH8 0xFFFFFFFFFFFFFFFF AND PUSH1 0x1 PUSH1 0xA0 SHL MUL PUSH1 0x1 PUSH1 0x1 PUSH1 0xE0 SHL SUB NOT SWAP1 SWAP2 AND PUSH1 0x1 PUSH1 0x1 PUSH1 0xA0 SHL SUB DUP8 AND OR OR DUP2 SSTORE JUMPDEST POP POP PUSH1 0x40 MLOAD DUP7 SWAP3 POP PUSH0 SWAP2 POP PUSH1 0x1 PUSH1 0x1 PUSH1 0xA0 SHL SUB DUP5 AND SWAP1 PUSH32 0xDDF252AD1BE2C89B69C2B068FC378DAA952BA7F163C4A11628F55A4DF523B3EF SWAP1 DUP4 SWAP1 LOG4 POP POP PUSH1 0x1 DUP1 SLOAD DUP2 ADD SWAP1 SSTORE POP POP JUMP JUMPDEST PUSH2 0x2710 DUP2 GT ISZERO PUSH2 0x1FF5 JUMPI PUSH1 0x40 MLOAD PUSH4 0xA4930AD PUSH1 0xE3 SHL DUP2 MSTORE PUSH2 0x2710 PUSH1 0x4 DUP3 ADD MSTORE PUSH1 0x24 DUP2 ADD DUP3 SWAP1 MSTORE PUSH1 0x44 ADD PUSH2 0x741 JUMP JUMPDEST PUSH1 0xA DUP1 SLOAD PUSH1 0x1 PUSH1 0x1 PUSH1 0xA0 SHL SUB DUP5 AND PUSH32 0xFFFFFFFFFFFFFFFFFFFF00000000000000000000000000000000000000000000 SWAP1 SWAP2 AND DUP2 OR PUSH1 0x1 PUSH1 0xA0 SHL PUSH2 0xFFFF DUP6 AND MUL OR SWAP1 SWAP2 SSTORE PUSH1 0x40 MLOAD DUP3 DUP2 MSTORE PUSH32 0x90D7EC04BCB8978719414F82E52E4CB651DB41D0E6F8CEA6118C2191E6183ADB SWAP1 PUSH1 0x20 ADD PUSH1 0x40 MLOAD DUP1 SWAP2 SUB SWAP1 LOG2 POP POP JUMP JUMPDEST PUSH1 0x40 DUP1 MLOAD PUSH1 0x60 DUP2 ADD DUP3 MSTORE PUSH0 DUP1 DUP3 MSTORE PUSH1 0x20 DUP3 ADD DUP2 SWAP1 MSTORE SWAP2 DUP2 ADD SWAP2 SWAP1 SWAP2 MSTORE DUP2 PUSH0 SLOAD DUP2 LT ISZERO PUSH2 0x216D JUMPI PUSH0 DUP2 DUP2 MSTORE PUSH1 0x4 PUSH1 0x20 SWAP1 DUP2 MSTORE PUSH1 0x40 SWAP2 DUP3 SWAP1 KECCAK256 DUP3 MLOAD PUSH1 0x60 DUP2 ADD DUP5 MSTORE SWAP1 SLOAD PUSH1 0x1 PUSH1 0x1 PUSH1 0xA0 SHL SUB DUP2 AND DUP3 MSTORE PUSH1 0x1 PUSH1 0xA0 SHL DUP2 DIV PUSH8 0xFFFFFFFFFFFFFFFF AND SWAP3 DUP3 ADD SWAP3 SWAP1 SWAP3 MSTORE PUSH1 0x1 PUSH1 0xE0 SHL SWAP1 SWAP2 DIV PUSH1 0xFF AND ISZERO ISZERO SWAP2 DUP2 ADD DUP3 SWAP1 MSTORE SWAP1 PUSH2 0x216B JUMPI DUP1 MLOAD PUSH1 0x1 PUSH1 0x1 PUSH1 0xA0 SHL SUB AND ISZERO PUSH2 0x2103 JUMPI SWAP4 SWAP3 POP POP POP JUMP JUMPDEST POP PUSH0 NOT ADD PUSH0 DUP2 DUP2 MSTORE PUSH1 0x4 PUSH1 0x20 SWAP1 DUP2 MSTORE PUSH1 0x40 SWAP2 DUP3 SWAP1 KECCAK256 DUP3 MLOAD PUSH1 0x60 DUP2 ADD DUP5 MSTORE SWAP1 SLOAD PUSH1 0x1 PUSH1 0x1 PUSH1 0xA0 SHL SUB DUP2 AND DUP1 DUP4 MSTORE PUSH1 0x1 PUSH1 0xA0 SHL DUP3 DIV PUSH8 0xFFFFFFFFFFFFFFFF AND SWAP4 DUP4 ADD SWAP4 SWAP1 SWAP4 MSTORE PUSH1 0x1 PUSH1 0xE0 SHL SWAP1 DIV PUSH1 0xFF AND ISZERO ISZERO SWAP3 DUP2 ADD SWAP3 SWAP1 SWAP3 MSTORE ISZERO PUSH2 0x2166 JUMPI SWAP4 SWAP3 POP POP POP JUMP JUMPDEST PUSH2 0x2103 JUMP JUMPDEST POP JUMPDEST PUSH1 0x40 MLOAD PUSH4 0x6F96CDA1 PUSH1 0xE1 SHL DUP2 MSTORE PUSH1 0x4 ADD PUSH1 0x40 MLOAD DUP1 SWAP2 SUB SWAP1 REVERT JUMPDEST PUSH2 0x96A DUP2 PUSH0 PUSH2 0x1DD8 JUMP JUMPDEST PUSH0 DUP1 PUSH2 0x219C DUP5 DUP7 PUSH2 0x3146 JUMP JUMPDEST PUSH1 0xC DUP1 SLOAD PUSH1 0x1 DUP2 ADD SWAP1 SWAP2 SSTORE PUSH32 0xDF6966C971051C3D54EC59162606531493A51404A002842F56009D7E5CF4A8C7 ADD DUP2 SWAP1 SSTORE PUSH0 DUP2 DUP2 MSTORE PUSH1 0xD PUSH1 0x20 MSTORE PUSH1 0x40 SWAP1 KECCAK256 SWAP1 SWAP3 POP DUP3 SWAP2 POP PUSH2 0x21E9 DUP5 DUP3 PUSH2 0x3086 JUMP JUMPDEST POP SWAP4 POP SWAP4 SWAP2 POP POP JUMP JUMPDEST PUSH0 PUSH1 0x8 DUP1 SLOAD PUSH2 0x2200 SWAP1 PUSH2 0x2E9F JUMP JUMPDEST DUP1 PUSH1 0x1F ADD PUSH1 0x20 DUP1 SWAP2 DIV MUL PUSH1 0x20 ADD PUSH1 0x40 MLOAD SWAP1 DUP2 ADD PUSH1 0x40 MSTORE DUP1 SWAP3 SWAP2 SWAP1 DUP2 DUP2 MSTORE PUSH1 0x20 ADD DUP3 DUP1 SLOAD PUSH2 0x222C SWAP1 PUSH2 0x2E9F JUMP JUMPDEST DUP1 ISZERO PUSH2 0x2277 JUMPI DUP1 PUSH1 0x1F LT PUSH2 0x224E JUMPI PUSH2 0x100 DUP1 DUP4 SLOAD DIV MUL DUP4 MSTORE SWAP2 PUSH1 0x20 ADD SWAP2 PUSH2 0x2277 JUMP JUMPDEST DUP3 ADD SWAP2 SWAP1 PUSH0 MSTORE PUSH1 0x20 PUSH0 KECCAK256 SWAP1 JUMPDEST DUP2 SLOAD DUP2 MSTORE SWAP1 PUSH1 0x1 ADD SWAP1 PUSH1 0x20 ADD DUP1 DUP4 GT PUSH2 0x225A JUMPI DUP3 SWAP1 SUB PUSH1 0x1F AND DUP3 ADD SWAP2 JUMPDEST POP POP POP POP POP SWAP1 POP DUP2 PUSH1 0x8 SWAP1 DUP2 PUSH2 0x228D SWAP2 SWAP1 PUSH2 0x3086 JUMP JUMPDEST POP PUSH32 0xC9C7C3FE08B88B4DF9D4D47EF47D2C43D55C025A0BA88CA442580ED9E7348A16 DUP2 DUP4 PUSH1 0x40 MLOAD PUSH2 0x22BF SWAP3 SWAP2 SWAP1 PUSH2 0x3159 JUMP JUMPDEST PUSH1 0x40 MLOAD DUP1 SWAP2 SUB SWAP1 LOG1 POP POP JUMP JUMPDEST PUSH2 0x2710 DUP2 GT ISZERO PUSH2 0x22F9 JUMPI PUSH1 0x40 MLOAD PUSH4 0xA4930AD PUSH1 0xE3 SHL DUP2 MSTORE PUSH2 0x2710 PUSH1 0x4 DUP3 ADD MSTORE PUSH1 0x24 DUP2 ADD DUP3 SWAP1 MSTORE PUSH1 0x44 ADD PUSH2 0x741 JUMP JUMPDEST PUSH1 0x40 DUP1 MLOAD DUP1 DUP3 ADD DUP3 MSTORE PUSH1 0x1 PUSH1 0x1 PUSH1 0xA0 SHL SUB DUP5 DUP2 AND DUP1 DUP4 MSTORE PUSH1 0x20 DUP1 DUP5 ADD DUP7 DUP2 MSTORE PUSH0 DUP10 DUP2 MSTORE PUSH1 0xB DUP4 MSTORE DUP7 SWAP1 KECCAK256 SWAP5 MLOAD DUP6 SLOAD PUSH20 0xFFFFFFFFFFFFFFFFFFFFFFFFFFFFFFFFFFFFFFFF NOT AND SWAP5 AND SWAP4 SWAP1 SWAP4 OR DUP5 SSTORE SWAP2 MLOAD PUSH1 0x1 SWAP1 SWAP4 ADD SWAP3 SWAP1 SWAP3 SSTORE SWAP2 MLOAD DUP4 DUP2 MSTORE SWAP1 SWAP2 DUP6 SWAP2 PUSH32 0x7365CF4122F072A3365C20D54EFF9B38D73C096C28E1892EC8F5B0E403A0F12D SWAP2 ADD PUSH1 0x40 MLOAD DUP1 SWAP2 SUB SWAP1 LOG3 POP POP POP JUMP JUMPDEST PUSH1 0x60 PUSH2 0x13EA DUP4 DUP4 PUSH1 0x40 MLOAD DUP1 PUSH1 0x60 ADD PUSH1 0x40 MSTORE DUP1 PUSH1 0x27 DUP2 MSTORE PUSH1 0x20 ADD PUSH2 0x3204 PUSH1 0x27 SWAP2 CODECOPY PUSH2 0x2720 JUMP JUMPDEST PUSH1 0x40 MLOAD PUSH4 0xA85BD01 PUSH1 0xE1 SHL DUP2 MSTORE PUSH0 SWAP1 PUSH1 0x1 PUSH1 0x1 PUSH1 0xA0 SHL SUB DUP6 AND SWAP1 PUSH4 0x150B7A02 SWAP1 PUSH2 0x23E3 SWAP1 CALLER SWAP1 DUP10 SWAP1 DUP9 SWAP1 DUP9 SWAP1 PUSH1 0x4 ADD PUSH2 0x3186 JUMP JUMPDEST PUSH1 0x20 PUSH1 0x40 MLOAD DUP1 DUP4 SUB DUP2 PUSH0 DUP8 GAS CALL SWAP3 POP POP POP DUP1 ISZERO PUSH2 0x241D JUMPI POP PUSH1 0x40 DUP1 MLOAD PUSH1 0x1F RETURNDATASIZE SWAP1 DUP2 ADD PUSH1 0x1F NOT AND DUP3 ADD SWAP1 SWAP3 MSTORE PUSH2 0x241A SWAP2 DUP2 ADD SWAP1 PUSH2 0x31B7 JUMP JUMPDEST PUSH1 0x1 JUMPDEST PUSH2 0x2479 JUMPI RETURNDATASIZE DUP1 DUP1 ISZERO PUSH2 0x244A JUMPI PUSH1 0x40 MLOAD SWAP2 POP PUSH1 0x1F NOT PUSH1 0x3F RETURNDATASIZE ADD AND DUP3 ADD PUSH1 0x40 MSTORE RETURNDATASIZE DUP3 MSTORE RETURNDATASIZE PUSH0 PUSH1 0x20 DUP5 ADD RETURNDATACOPY PUSH2 0x244F JUMP JUMPDEST PUSH1 0x60 SWAP2 POP JUMPDEST POP DUP1 MLOAD PUSH0 SUB PUSH2 0x2471 JUMPI PUSH1 0x40 MLOAD PUSH4 0x68D2BF6B PUSH1 0xE1 SHL DUP2 MSTORE PUSH1 0x4 ADD PUSH1 0x40 MLOAD DUP1 SWAP2 SUB SWAP1 REVERT JUMPDEST DUP1 MLOAD DUP2 PUSH1 0x20 ADD REVERT JUMPDEST PUSH1 0x1 PUSH1 0x1 PUSH1 0xE0 SHL SUB NOT AND PUSH4 0xA85BD01 PUSH1 0xE1 SHL EQ SWAP1 POP SWAP5 SWAP4 POP POP POP POP JUMP JUMPDEST PUSH1 0x60 PUSH0 PUSH2 0x24A2 PUSH1 0xC SLOAD SWAP1 JUMP JUMPDEST SWAP1 POP PUSH0 PUSH1 0xC DUP1 SLOAD DUP1 PUSH1 0x20 MUL PUSH1 0x20 ADD PUSH1 0x40 MLOAD SWAP1 DUP2 ADD PUSH1 0x40 MSTORE DUP1 SWAP3 SWAP2 SWAP1 DUP2 DUP2 MSTORE PUSH1 0x20 ADD DUP3 DUP1 SLOAD DUP1 ISZERO PUSH2 0x24EF JUMPI PUSH1 0x20 MUL DUP3 ADD SWAP2 SWAP1 PUSH0 MSTORE PUSH1 0x20 PUSH0 KECCAK256 SWAP1 JUMPDEST DUP2 SLOAD DUP2 MSTORE PUSH1 0x20 ADD SWAP1 PUSH1 0x1 ADD SWAP1 DUP1 DUP4 GT PUSH2 0x24DB JUMPI JUMPDEST POP POP POP POP POP SWAP1 POP PUSH0 JUMPDEST DUP3 DUP2 LT ISZERO PUSH2 0x25EE JUMPI DUP2 DUP2 DUP2 MLOAD DUP2 LT PUSH2 0x2512 JUMPI PUSH2 0x2512 PUSH2 0x2EF2 JUMP JUMPDEST PUSH1 0x20 MUL PUSH1 0x20 ADD ADD MLOAD DUP6 LT ISZERO PUSH2 0x25DC JUMPI PUSH1 0xD PUSH0 DUP4 DUP4 DUP2 MLOAD DUP2 LT PUSH2 0x2536 JUMPI PUSH2 0x2536 PUSH2 0x2EF2 JUMP JUMPDEST PUSH1 0x20 MUL PUSH1 0x20 ADD ADD MLOAD DUP2 MSTORE PUSH1 0x20 ADD SWAP1 DUP2 MSTORE PUSH1 0x20 ADD PUSH0 KECCAK256 DUP1 SLOAD PUSH2 0x2556 SWAP1 PUSH2 0x2E9F JUMP JUMPDEST DUP1 PUSH1 0x1F ADD PUSH1 0x20 DUP1 SWAP2 DIV MUL PUSH1 0x20 ADD PUSH1 0x40 MLOAD SWAP1 DUP2 ADD PUSH1 0x40 MSTORE DUP1 SWAP3 SWAP2 SWAP1 DUP2 DUP2 MSTORE PUSH1 0x20 ADD DUP3 DUP1 SLOAD PUSH2 0x2582 SWAP1 PUSH2 0x2E9F JUMP JUMPDEST DUP1 ISZERO PUSH2 0x25CD JUMPI DUP1 PUSH1 0x1F LT PUSH2 0x25A4 JUMPI PUSH2 0x100 DUP1 DUP4 SLOAD DIV MUL DUP4 MSTORE SWAP2 PUSH1 0x20 ADD SWAP2 PUSH2 0x25CD JUMP JUMPDEST DUP3 ADD SWAP2 SWAP1 PUSH0 MSTORE PUSH1 0x20 PUSH0 KECCAK256 SWAP1 JUMPDEST DUP2 SLOAD DUP2 MSTORE SWAP1 PUSH1 0x1 ADD SWAP1 PUSH1 0x20 ADD DUP1 DUP4 GT PUSH2 0x25B0 JUMPI DUP3 SWAP1 SUB PUSH1 0x1F AND DUP3 ADD SWAP2 JUMPDEST POP POP POP POP POP SWAP4 POP POP POP POP SWAP2 SWAP1 POP JUMP JUMPDEST PUSH2 0x25E7 PUSH1 0x1 DUP3 PUSH2 0x3146 JUMP JUMPDEST SWAP1 POP PUSH2 0x24F8 JUMP JUMPDEST POP PUSH1 0x40 MLOAD PUSH4 0x9797F69 PUSH1 0xE2 SHL DUP2 MSTORE PUSH1 0x4 DUP2 ADD DUP6 SWAP1 MSTORE PUSH1 0x24 ADD PUSH2 0x741 JUMP JUMPDEST PUSH1 0x60 DUP2 PUSH0 SUB PUSH2 0x2631 JUMPI POP POP PUSH1 0x40 DUP1 MLOAD DUP1 DUP3 ADD SWAP1 SWAP2 MSTORE PUSH1 0x1 DUP2 MSTORE PUSH1 0x3 PUSH1 0xFC SHL PUSH1 0x20 DUP3 ADD MSTORE SWAP1 JUMP JUMPDEST DUP2 PUSH0 JUMPDEST DUP2 ISZERO PUSH2 0x265A JUMPI DUP1 PUSH2 0x2644 DUP2 PUSH2 0x2F8F JUMP JUMPDEST SWAP2 POP PUSH2 0x2653 SWAP1 POP PUSH1 0xA DUP4 PUSH2 0x2F45 JUMP JUMPDEST SWAP2 POP PUSH2 0x2634 JUMP JUMPDEST PUSH0 DUP2 PUSH8 0xFFFFFFFFFFFFFFFF DUP2 GT ISZERO PUSH2 0x2674 JUMPI PUSH2 0x2674 PUSH2 0x2845 JUMP JUMPDEST PUSH1 0x40 MLOAD SWAP1 DUP1 DUP3 MSTORE DUP1 PUSH1 0x1F ADD PUSH1 0x1F NOT AND PUSH1 0x20 ADD DUP3 ADD PUSH1 0x40 MSTORE DUP1 ISZERO PUSH2 0x269E JUMPI PUSH1 0x20 DUP3 ADD DUP2 DUP1 CALLDATASIZE DUP4 CALLDATACOPY ADD SWAP1 POP JUMPDEST POP SWAP1 POP JUMPDEST DUP5 ISZERO PUSH2 0xCAD JUMPI PUSH2 0x26B3 PUSH1 0x1 DUP4 PUSH2 0x31D2 JUMP JUMPDEST SWAP2 POP PUSH2 0x26C0 PUSH1 0xA DUP7 PUSH2 0x31E5 JUMP JUMPDEST PUSH2 0x26CB SWAP1 PUSH1 0x30 PUSH2 0x3146 JUMP JUMPDEST PUSH1 0xF8 SHL DUP2 DUP4 DUP2 MLOAD DUP2 LT PUSH2 0x26E0 JUMPI PUSH2 0x26E0 PUSH2 0x2EF2 JUMP JUMPDEST PUSH1 0x20 ADD ADD SWAP1 PUSH31 0xFFFFFFFFFFFFFFFFFFFFFFFFFFFFFFFFFFFFFFFFFFFFFFFFFFFFFFFFFFFFFF NOT AND SWAP1 DUP2 PUSH0 BYTE SWAP1 MSTORE8 POP PUSH2 0x2719 PUSH1 0xA DUP7 PUSH2 0x2F45 JUMP JUMPDEST SWAP5 POP PUSH2 0x26A2 JUMP JUMPDEST PUSH1 0x60 PUSH0 DUP1 DUP6 PUSH1 0x1 PUSH1 0x1 PUSH1 0xA0 SHL SUB AND DUP6 PUSH1 0x40 MLOAD PUSH2 0x273C SWAP2 SWAP1 PUSH2 0x31F8 JUMP JUMPDEST PUSH0 PUSH1 0x40 MLOAD DUP1 DUP4 SUB DUP2 DUP6 GAS DELEGATECALL SWAP2 POP POP RETURNDATASIZE DUP1 PUSH0 DUP2 EQ PUSH2 0x2774 JUMPI PUSH1 0x40 MLOAD SWAP2 POP PUSH1 0x1F NOT PUSH1 0x3F RETURNDATASIZE ADD AND DUP3 ADD PUSH1 0x40 MSTORE RETURNDATASIZE DUP3 MSTORE RETURNDATASIZE PUSH0 PUSH1 0x20 DUP5 ADD RETURNDATACOPY PUSH2 0x2779 JUMP JUMPDEST PUSH1 0x60 SWAP2 POP JUMPDEST POP SWAP2 POP SWAP2 POP PUSH2 0x278A DUP7 DUP4 DUP4 DUP8 PUSH2 0x2794 JUMP JUMPDEST SWAP7 SWAP6 POP POP POP POP POP POP JUMP JUMPDEST PUSH1 0x60 DUP4 ISZERO PUSH2 0x2802 JUMPI DUP3 MLOAD PUSH0 SUB PUSH2 0x27FB JUMPI PUSH1 0x1 PUSH1 0x1 PUSH1 0xA0 SHL SUB DUP6 AND EXTCODESIZE PUSH2 0x27FB JUMPI PUSH1 0x40 MLOAD PUSH3 0x461BCD PUSH1 0xE5 SHL DUP2 MSTORE PUSH1 0x20 PUSH1 0x4 DUP3 ADD MSTORE PUSH1 0x1D PUSH1 0x24 DUP3 ADD MSTORE PUSH32 0x416464726573733A2063616C6C20746F206E6F6E2D636F6E7472616374000000 PUSH1 0x44 DUP3 ADD MSTORE PUSH1 0x64 ADD PUSH2 0x741 JUMP JUMPDEST POP DUP2 PUSH2 0xCAD JUMP JUMPDEST PUSH2 0xCAD DUP4 DUP4 DUP2 MLOAD ISZERO PUSH2 0x2817 JUMPI DUP2 MLOAD DUP1 DUP4 PUSH1 0x20 ADD REVERT JUMPDEST DUP1 PUSH1 0x40 MLOAD PUSH3 0x461BCD PUSH1 0xE5 SHL DUP2 MSTORE PUSH1 0x4 ADD PUSH2 0x741 SWAP2 SWAP1 PUSH2 0x29A1 JUMP JUMPDEST PUSH1 0x1 PUSH1 0x1 PUSH1 0xA0 SHL SUB DUP2 AND DUP2 EQ PUSH2 0x96A JUMPI PUSH0 DUP1 REVERT JUMPDEST PUSH4 0x4E487B71 PUSH1 0xE0 SHL PUSH0 MSTORE PUSH1 0x41 PUSH1 0x4 MSTORE PUSH1 0x24 PUSH0 REVERT JUMPDEST PUSH1 0x40 MLOAD PUSH1 0x1F DUP3 ADD PUSH1 0x1F NOT AND DUP2 ADD PUSH8 0xFFFFFFFFFFFFFFFF DUP2 GT DUP3 DUP3 LT OR ISZERO PUSH2 0x2882 JUMPI PUSH2 0x2882 PUSH2 0x2845 JUMP JUMPDEST PUSH1 0x40 MSTORE SWAP2 SWAP1 POP JUMP JUMPDEST PUSH0 DUP3 PUSH1 0x1F DUP4 ADD SLT PUSH2 0x2899 JUMPI PUSH0 DUP1 REVERT JUMPDEST DUP2 CALLDATALOAD PUSH8 0xFFFFFFFFFFFFFFFF DUP2 GT ISZERO PUSH2 0x28B3 JUMPI PUSH2 0x28B3 PUSH2 0x2845 JUMP JUMPDEST PUSH2 0x28C6 PUSH1 0x1F DUP3 ADD PUSH1 0x1F NOT AND PUSH1 0x20 ADD PUSH2 0x2859 JUMP JUMPDEST DUP2 DUP2 MSTORE DUP5 PUSH1 0x20 DUP4 DUP7 ADD ADD GT ISZERO PUSH2 0x28DA JUMPI PUSH0 DUP1 REVERT JUMPDEST DUP2 PUSH1 0x20 DUP6 ADD PUSH1 0x20 DUP4 ADD CALLDATACOPY PUSH0 SWAP2 DUP2 ADD PUSH1 0x20 ADD SWAP2 SWAP1 SWAP2 MSTORE SWAP4 SWAP3 POP POP POP JUMP JUMPDEST PUSH0 DUP1 PUSH1 0x40 DUP4 DUP6 SUB SLT ISZERO PUSH2 0x2907 JUMPI PUSH0 DUP1 REVERT JUMPDEST DUP3 CALLDATALOAD PUSH2 0x2912 DUP2 PUSH2 0x2831 JUMP JUMPDEST SWAP2 POP PUSH1 0x20 DUP4 ADD CALLDATALOAD PUSH8 0xFFFFFFFFFFFFFFFF DUP2 GT ISZERO PUSH2 0x292D JUMPI PUSH0 DUP1 REVERT JUMPDEST PUSH2 0x2939 DUP6 DUP3 DUP7 ADD PUSH2 0x288A JUMP JUMPDEST SWAP2 POP POP SWAP3 POP SWAP3 SWAP1 POP JUMP JUMPDEST PUSH1 0x1 PUSH1 0x1 PUSH1 0xE0 SHL SUB NOT DUP2 AND DUP2 EQ PUSH2 0x96A JUMPI PUSH0 DUP1 REVERT JUMPDEST PUSH0 PUSH1 0x20 DUP3 DUP5 SUB SLT ISZERO PUSH2 0x2968 JUMPI PUSH0 DUP1 REVERT JUMPDEST DUP2 CALLDATALOAD PUSH2 0x13EA DUP2 PUSH2 0x2943 JUMP JUMPDEST PUSH0 DUP2 MLOAD DUP1 DUP5 MSTORE DUP1 PUSH1 0x20 DUP5 ADD PUSH1 0x20 DUP7 ADD MCOPY PUSH0 PUSH1 0x20 DUP3 DUP7 ADD ADD MSTORE PUSH1 0x20 PUSH1 0x1F NOT PUSH1 0x1F DUP4 ADD AND DUP6 ADD ADD SWAP2 POP POP SWAP3 SWAP2 POP POP JUMP JUMPDEST PUSH1 0x20 DUP2 MSTORE PUSH0 PUSH2 0x13EA PUSH1 0x20 DUP4 ADD DUP5 PUSH2 0x2973 JUMP JUMPDEST PUSH0 PUSH1 0x20 DUP3 DUP5 SUB SLT ISZERO PUSH2 0x29C3 JUMPI PUSH0 DUP1 REVERT JUMPDEST POP CALLDATALOAD SWAP2 SWAP1 POP JUMP JUMPDEST PUSH0 DUP1 PUSH1 0x40 DUP4 DUP6 SUB SLT ISZERO PUSH2 0x29DB JUMPI PUSH0 DUP1 REVERT JUMPDEST DUP3 CALLDATALOAD PUSH2 0x29E6 DUP2 PUSH2 0x2831 JUMP JUMPDEST SWAP5 PUSH1 0x20 SWAP4 SWAP1 SWAP4 ADD CALLDATALOAD SWAP4 POP POP POP JUMP JUMPDEST PUSH0 PUSH1 0x20 DUP3 DUP5 SUB SLT ISZERO PUSH2 0x2A04 JUMPI PUSH0 DUP1 REVERT JUMPDEST DUP2 CALLDATALOAD PUSH2 0x13EA DUP2 PUSH2 0x2831 JUMP JUMPDEST PUSH0 DUP1 PUSH1 0x40 DUP4 DUP6 SUB SLT ISZERO PUSH2 0x2A20 JUMPI PUSH0 DUP1 REVERT JUMPDEST DUP3 CALLDATALOAD SWAP2 POP PUSH1 0x20 DUP4 ADD CALLDATALOAD PUSH2 0x2A32 DUP2 PUSH2 0x2831 JUMP JUMPDEST DUP1 SWAP2 POP POP SWAP3 POP SWAP3 SWAP1 POP JUMP JUMPDEST PUSH0 DUP1 PUSH0 PUSH1 0x60 DUP5 DUP7 SUB SLT ISZERO PUSH2 0x2A4F JUMPI PUSH0 DUP1 REVERT JUMPDEST DUP4 CALLDATALOAD PUSH2 0x2A5A DUP2 PUSH2 0x2831 JUMP JUMPDEST SWAP3 POP PUSH1 0x20 DUP5 ADD CALLDATALOAD PUSH2 0x2A6A DUP2 PUSH2 0x2831 JUMP JUMPDEST SWAP3 SWAP6 SWAP3 SWAP5 POP POP POP PUSH1 0x40 SWAP2 SWAP1 SWAP2 ADD CALLDATALOAD SWAP1 JUMP JUMPDEST PUSH0 DUP1 PUSH1 0x40 DUP4 DUP6 SUB SLT ISZERO PUSH2 0x2A8C JUMPI PUSH0 DUP1 REVERT JUMPDEST POP POP DUP1 CALLDATALOAD SWAP3 PUSH1 0x20 SWAP1 SWAP2 ADD CALLDATALOAD SWAP2 POP JUMP JUMPDEST PUSH0 PUSH1 0x20 DUP1 DUP4 DUP6 SUB SLT ISZERO PUSH2 0x2AAC JUMPI PUSH0 DUP1 REVERT JUMPDEST DUP3 CALLDATALOAD PUSH8 0xFFFFFFFFFFFFFFFF DUP1 DUP3 GT ISZERO PUSH2 0x2AC3 JUMPI PUSH0 DUP1 REVERT JUMPDEST DUP2 DUP6 ADD SWAP2 POP DUP6 PUSH1 0x1F DUP4 ADD SLT PUSH2 0x2AD6 JUMPI PUSH0 DUP1 REVERT JUMPDEST DUP2 CALLDATALOAD DUP2 DUP2 GT ISZERO PUSH2 0x2AE8 JUMPI PUSH2 0x2AE8 PUSH2 0x2845 JUMP JUMPDEST DUP1 PUSH1 0x5 SHL SWAP2 POP PUSH2 0x2AF9 DUP5 DUP4 ADD PUSH2 0x2859 JUMP JUMPDEST DUP2 DUP2 MSTORE SWAP2 DUP4 ADD DUP5 ADD SWAP2 DUP5 DUP2 ADD SWAP1 DUP9 DUP5 GT ISZERO PUSH2 0x2B12 JUMPI PUSH0 DUP1 REVERT JUMPDEST SWAP4 DUP6 ADD SWAP4 JUMPDEST DUP4 DUP6 LT ISZERO PUSH2 0x2B30 JUMPI DUP5 CALLDATALOAD DUP3 MSTORE SWAP4 DUP6 ADD SWAP4 SWAP1 DUP6 ADD SWAP1 PUSH2 0x2B17 JUMP JUMPDEST SWAP9 SWAP8 POP POP POP POP POP POP POP POP JUMP JUMPDEST PUSH1 0x20 DUP1 DUP3 MSTORE DUP3 MLOAD DUP3 DUP3 ADD DUP2 SWAP1 MSTORE PUSH0 SWAP2 SWAP1 DUP5 DUP3 ADD SWAP1 PUSH1 0x40 DUP6 ADD SWAP1 DUP5 JUMPDEST DUP2 DUP2 LT ISZERO PUSH2 0x11AD JUMPI PUSH2 0x2B93 DUP4 DUP6 MLOAD DUP1 MLOAD PUSH1 0x1 PUSH1 0x1 PUSH1 0xA0 SHL SUB AND DUP3 MSTORE PUSH1 0x20 DUP1 DUP3 ADD MLOAD PUSH8 0xFFFFFFFFFFFFFFFF AND SWAP1 DUP4 ADD MSTORE PUSH1 0x40 SWAP1 DUP2 ADD MLOAD ISZERO ISZERO SWAP2 ADD MSTORE JUMP JUMPDEST SWAP3 DUP5 ADD SWAP3 PUSH1 0x60 SWAP3 SWAP1 SWAP3 ADD SWAP2 PUSH1 0x1 ADD PUSH2 0x2B57 JUMP JUMPDEST PUSH0 DUP1 PUSH0 DUP1 PUSH1 0x80 DUP6 DUP8 SUB SLT ISZERO PUSH2 0x2BB9 JUMPI PUSH0 DUP1 REVERT JUMPDEST DUP5 CALLDATALOAD PUSH2 0x2BC4 DUP2 PUSH2 0x2831 JUMP JUMPDEST SWAP4 POP PUSH1 0x20 DUP6 ADD CALLDATALOAD SWAP3 POP PUSH1 0x40 DUP6 ADD CALLDATALOAD PUSH8 0xFFFFFFFFFFFFFFFF DUP1 DUP3 GT ISZERO PUSH2 0x2BE7 JUMPI PUSH0 DUP1 REVERT JUMPDEST PUSH2 0x2BF3 DUP9 DUP4 DUP10 ADD PUSH2 0x288A JUMP JUMPDEST SWAP4 POP PUSH1 0x60 DUP8 ADD CALLDATALOAD SWAP2 POP DUP1 DUP3 GT ISZERO PUSH2 0x2C08 JUMPI PUSH0 DUP1 REVERT JUMPDEST POP PUSH2 0x2C15 DUP8 DUP3 DUP9 ADD PUSH2 0x288A JUMP JUMPDEST SWAP2 POP POP SWAP3 SWAP6 SWAP2 SWAP5 POP SWAP3 POP JUMP JUMPDEST PUSH1 0x20 DUP1 DUP3 MSTORE DUP3 MLOAD DUP3 DUP3 ADD DUP2 SWAP1 MSTORE PUSH0 SWAP2 SWAP1 DUP5 DUP3 ADD SWAP1 PUSH1 0x40 DUP6 ADD SWAP1 DUP5 JUMPDEST DUP2 DUP2 LT ISZERO PUSH2 0x11AD JUMPI DUP4 MLOAD DUP4 MSTORE SWAP3 DUP5 ADD SWAP3 SWAP2 DUP5 ADD SWAP2 PUSH1 0x1 ADD PUSH2 0x2C3C JUMP JUMPDEST PUSH0 PUSH1 0x20 DUP3 DUP5 SUB SLT ISZERO PUSH2 0x2C68 JUMPI PUSH0 DUP1 REVERT JUMPDEST DUP2 CALLDATALOAD PUSH8 0xFFFFFFFFFFFFFFFF DUP2 GT ISZERO PUSH2 0x2C7E JUMPI PUSH0 DUP1 REVERT JUMPDEST PUSH2 0xCAD DUP5 DUP3 DUP6 ADD PUSH2 0x288A JUMP JUMPDEST PUSH0 DUP1 PUSH0 PUSH1 0x60 DUP5 DUP7 SUB SLT ISZERO PUSH2 0x2C9C JUMPI PUSH0 DUP1 REVERT JUMPDEST DUP4 CALLDATALOAD PUSH2 0x2CA7 DUP2 PUSH2 0x2831 JUMP JUMPDEST SWAP6 PUSH1 0x20 DUP6 ADD CALLDATALOAD SWAP6 POP PUSH1 0x40 SWAP1 SWAP5 ADD CALLDATALOAD SWAP4 SWAP3 POP POP POP JUMP JUMPDEST PUSH0 DUP1 PUSH0 PUSH1 0x60 DUP5 DUP7 SUB SLT ISZERO PUSH2 0x2CCE JUMPI PUSH0 DUP1 REVERT JUMPDEST DUP4 CALLDATALOAD SWAP3 POP PUSH1 0x20 DUP5 ADD CALLDATALOAD PUSH2 0x2A6A DUP2 PUSH2 0x2831 JUMP JUMPDEST PUSH0 DUP1 PUSH1 0x40 DUP4 DUP6 SUB SLT ISZERO PUSH2 0x2CF1 JUMPI PUSH0 DUP1 REVERT JUMPDEST DUP3 CALLDATALOAD PUSH2 0x2CFC DUP2 PUSH2 0x2831 JUMP JUMPDEST SWAP2 POP PUSH1 0x20 DUP4 ADD CALLDATALOAD DUP1 ISZERO ISZERO DUP2 EQ PUSH2 0x2A32 JUMPI PUSH0 DUP1 REVERT JUMPDEST PUSH0 DUP1 PUSH1 0x20 DUP4 DUP6 SUB SLT ISZERO PUSH2 0x2D21 JUMPI PUSH0 DUP1 REVERT JUMPDEST DUP3 CALLDATALOAD PUSH8 0xFFFFFFFFFFFFFFFF DUP1 DUP3 GT ISZERO PUSH2 0x2D38 JUMPI PUSH0 DUP1 REVERT JUMPDEST DUP2 DUP6 ADD SWAP2 POP DUP6 PUSH1 0x1F DUP4 ADD SLT PUSH2 0x2D4B JUMPI PUSH0 DUP1 REVERT JUMPDEST DUP2 CALLDATALOAD DUP2 DUP2 GT ISZERO PUSH2 0x2D59 JUMPI PUSH0 DUP1 REVERT JUMPDEST DUP7 PUSH1 0x20 DUP3 PUSH1 0x5 SHL DUP6 ADD ADD GT ISZERO PUSH2 0x2D6D JUMPI PUSH0 DUP1 REVERT JUMPDEST PUSH1 0x20 SWAP3 SWAP1 SWAP3 ADD SWAP7 SWAP2 SWAP6 POP SWAP1 SWAP4 POP POP POP POP JUMP JUMPDEST PUSH0 PUSH1 0x20 DUP1 DUP4 ADD PUSH1 0x20 DUP5 MSTORE DUP1 DUP6 MLOAD DUP1 DUP4 MSTORE PUSH1 0x40 DUP7 ADD SWAP2 POP PUSH1 0x40 DUP2 PUSH1 0x5 SHL DUP8 ADD ADD SWAP3 POP PUSH1 0x20 DUP8 ADD PUSH0 JUMPDEST DUP3 DUP2 LT ISZERO PUSH2 0x2DD4 JUMPI PUSH1 0x3F NOT DUP9 DUP7 SUB ADD DUP5 MSTORE PUSH2 0x2DC2 DUP6 DUP4 MLOAD PUSH2 0x2973 JUMP JUMPDEST SWAP5 POP SWAP3 DUP6 ADD SWAP3 SWAP1 DUP6 ADD SWAP1 PUSH1 0x1 ADD PUSH2 0x2DA6 JUMP JUMPDEST POP SWAP3 SWAP8 SWAP7 POP POP POP POP POP POP POP JUMP JUMPDEST PUSH0 DUP1 PUSH0 DUP1 PUSH1 0x80 DUP6 DUP8 SUB SLT ISZERO PUSH2 0x2DF4 JUMPI PUSH0 DUP1 REVERT JUMPDEST DUP5 CALLDATALOAD PUSH2 0x2DFF DUP2 PUSH2 0x2831 JUMP JUMPDEST SWAP4 POP PUSH1 0x20 DUP6 ADD CALLDATALOAD PUSH2 0x2E0F DUP2 PUSH2 0x2831 JUMP JUMPDEST SWAP3 POP PUSH1 0x40 DUP6 ADD CALLDATALOAD SWAP2 POP PUSH1 0x60 DUP6 ADD CALLDATALOAD PUSH8 0xFFFFFFFFFFFFFFFF DUP2 GT ISZERO PUSH2 0x2E31 JUMPI PUSH0 DUP1 REVERT JUMPDEST PUSH2 0x2C15 DUP8 DUP3 DUP9 ADD PUSH2 0x288A JUMP JUMPDEST DUP2 MLOAD PUSH1 0x1 PUSH1 0x1 PUSH1 0xA0 SHL SUB AND DUP2 MSTORE PUSH1 0x20 DUP1 DUP4 ADD MLOAD PUSH8 0xFFFFFFFFFFFFFFFF AND SWAP1 DUP3 ADD MSTORE PUSH1 0x40 DUP1 DUP4 ADD MLOAD ISZERO ISZERO SWAP1 DUP3 ADD MSTORE PUSH1 0x60 DUP2 ADD PUSH2 0x7DF JUMP JUMPDEST PUSH0 DUP1 PUSH1 0x40 DUP4 DUP6 SUB SLT ISZERO PUSH2 0x2E84 JUMPI PUSH0 DUP1 REVERT JUMPDEST DUP3 CALLDATALOAD PUSH2 0x2E8F DUP2 PUSH2 0x2831 JUMP JUMPDEST SWAP2 POP PUSH1 0x20 DUP4 ADD CALLDATALOAD PUSH2 0x2A32 DUP2 PUSH2 0x2831 JUMP JUMPDEST PUSH1 0x1 DUP2 DUP2 SHR SWAP1 DUP3 AND DUP1 PUSH2 0x2EB3 JUMPI PUSH1 0x7F DUP3 AND SWAP2 POP JUMPDEST PUSH1 0x20 DUP3 LT DUP2 SUB PUSH2 0x2ED1 JUMPI PUSH4 0x4E487B71 PUSH1 0xE0 SHL PUSH0 MSTORE PUSH1 0x22 PUSH1 0x4 MSTORE PUSH1 0x24 PUSH0 REVERT JUMPDEST POP SWAP2 SWAP1 POP JUMP JUMPDEST PUSH0 PUSH1 0x20 DUP3 DUP5 SUB SLT ISZERO PUSH2 0x2EE7 JUMPI PUSH0 DUP1 REVERT JUMPDEST DUP2 MLOAD PUSH2 0x13EA DUP2 PUSH2 0x2831 JUMP JUMPDEST PUSH4 0x4E487B71 PUSH1 0xE0 SHL PUSH0 MSTORE PUSH1 0x32 PUSH1 0x4 MSTORE PUSH1 0x24 PUSH0 REVERT JUMPDEST PUSH4 0x4E487B71 PUSH1 0xE0 SHL PUSH0 MSTORE PUSH1 0x11 PUSH1 0x4 MSTORE PUSH1 0x24 PUSH0 REVERT JUMPDEST DUP1 DUP3 MUL DUP2 ISZERO DUP3 DUP3 DIV DUP5 EQ OR PUSH2 0x7DF JUMPI PUSH2 0x7DF PUSH2 0x2F06 JUMP JUMPDEST PUSH4 0x4E487B71 PUSH1 0xE0 SHL PUSH0 MSTORE PUSH1 0x12 PUSH1 0x4 MSTORE PUSH1 0x24 PUSH0 REVERT JUMPDEST PUSH0 DUP3 PUSH2 0x2F53 JUMPI PUSH2 0x2F53 PUSH2 0x2F31 JUMP JUMPDEST POP DIV SWAP1 JUMP JUMPDEST PUSH1 0x1 PUSH1 0x1 PUSH1 0xA0 SHL SUB DUP5 AND DUP2 MSTORE PUSH1 0x60 PUSH1 0x20 DUP3 ADD MSTORE PUSH0 PUSH2 0x2F79 PUSH1 0x60 DUP4 ADD DUP6 PUSH2 0x2973 JUMP JUMPDEST SWAP1 POP PUSH4 0xFFFFFFFF DUP4 AND PUSH1 0x40 DUP4 ADD MSTORE SWAP5 SWAP4 POP POP POP POP JUMP JUMPDEST PUSH0 PUSH1 0x1 DUP3 ADD PUSH2 0x2FA0 JUMPI PUSH2 0x2FA0 PUSH2 0x2F06 JUMP JUMPDEST POP PUSH1 0x1 ADD SWAP1 JUMP JUMPDEST PUSH0 DUP1 DUP4 CALLDATALOAD PUSH1 0x1E NOT DUP5 CALLDATASIZE SUB ADD DUP2 SLT PUSH2 0x2FBC JUMPI PUSH0 DUP1 REVERT JUMPDEST DUP4 ADD DUP1 CALLDATALOAD SWAP2 POP PUSH8 0xFFFFFFFFFFFFFFFF DUP3 GT ISZERO PUSH2 0x2FD6 JUMPI PUSH0 DUP1 REVERT JUMPDEST PUSH1 0x20 ADD SWAP2 POP CALLDATASIZE DUP2 SWAP1 SUB DUP3 SGT ISZERO PUSH2 0x2FEA JUMPI PUSH0 DUP1 REVERT JUMPDEST SWAP3 POP SWAP3 SWAP1 POP JUMP JUMPDEST DUP3 DUP5 DUP3 CALLDATACOPY PUSH1 0x60 SWAP2 SWAP1 SWAP2 SHL PUSH12 0xFFFFFFFFFFFFFFFFFFFFFFFF NOT AND SWAP2 ADD SWAP1 DUP2 MSTORE PUSH1 0x14 ADD SWAP2 SWAP1 POP JUMP JUMPDEST PUSH0 DUP2 MLOAD DUP1 PUSH1 0x20 DUP5 ADD DUP6 MCOPY PUSH0 SWAP4 ADD SWAP3 DUP4 MSTORE POP SWAP1 SWAP2 SWAP1 POP JUMP JUMPDEST PUSH0 PUSH2 0xCAD PUSH2 0x303C DUP4 DUP7 PUSH2 0x3017 JUMP JUMPDEST DUP5 PUSH2 0x3017 JUMP JUMPDEST PUSH1 0x1F DUP3 GT ISZERO PUSH2 0x937 JUMPI DUP1 PUSH0 MSTORE PUSH1 0x20 PUSH0 KECCAK256 PUSH1 0x1F DUP5 ADD PUSH1 0x5 SHR DUP2 ADD PUSH1 0x20 DUP6 LT ISZERO PUSH2 0x3067 JUMPI POP DUP1 JUMPDEST PUSH1 0x1F DUP5 ADD PUSH1 0x5 SHR DUP3 ADD SWAP2 POP JUMPDEST DUP2 DUP2 LT ISZERO PUSH2 0x1DD1 JUMPI PUSH0 DUP2 SSTORE PUSH1 0x1 ADD PUSH2 0x3073 JUMP JUMPDEST DUP2 MLOAD PUSH8 0xFFFFFFFFFFFFFFFF DUP2 GT ISZERO PUSH2 0x30A0 JUMPI PUSH2 0x30A0 PUSH2 0x2845 JUMP JUMPDEST PUSH2 0x30B4 DUP2 PUSH2 0x30AE DUP5 SLOAD PUSH2 0x2E9F JUMP JUMPDEST DUP5 PUSH2 0x3042 JUMP JUMPDEST PUSH1 0x20 DUP1 PUSH1 0x1F DUP4 GT PUSH1 0x1 DUP2 EQ PUSH2 0x30E7 JUMPI PUSH0 DUP5 ISZERO PUSH2 0x30D0 JUMPI POP DUP6 DUP4 ADD MLOAD JUMPDEST PUSH0 NOT PUSH1 0x3 DUP7 SWAP1 SHL SHR NOT AND PUSH1 0x1 DUP6 SWAP1 SHL OR DUP6 SSTORE PUSH2 0x313E JUMP JUMPDEST PUSH0 DUP6 DUP2 MSTORE PUSH1 0x20 DUP2 KECCAK256 PUSH1 0x1F NOT DUP7 AND SWAP2 JUMPDEST DUP3 DUP2 LT ISZERO PUSH2 0x3115 JUMPI DUP9 DUP7 ADD MLOAD DUP3 SSTORE SWAP5 DUP5 ADD SWAP5 PUSH1 0x1 SWAP1 SWAP2 ADD SWAP1 DUP5 ADD PUSH2 0x30F6 JUMP JUMPDEST POP DUP6 DUP3 LT ISZERO PUSH2 0x3132 JUMPI DUP8 DUP6 ADD MLOAD PUSH0 NOT PUSH1 0x3 DUP9 SWAP1 SHL PUSH1 0xF8 AND SHR NOT AND DUP2 SSTORE JUMPDEST POP POP PUSH1 0x1 DUP5 PUSH1 0x1 SHL ADD DUP6 SSTORE JUMPDEST POP POP POP POP POP POP JUMP JUMPDEST DUP1 DUP3 ADD DUP1 DUP3 GT ISZERO PUSH2 0x7DF JUMPI PUSH2 0x7DF PUSH2 0x2F06 JUMP JUMPDEST PUSH1 0x40 DUP2 MSTORE PUSH0 PUSH2 0x316B PUSH1 0x40 DUP4 ADD DUP6 PUSH2 0x2973 JUMP JUMPDEST DUP3 DUP2 SUB PUSH1 0x20 DUP5 ADD MSTORE PUSH2 0x317D DUP2 DUP6 PUSH2 0x2973 JUMP JUMPDEST SWAP6 SWAP5 POP POP POP POP POP JUMP JUMPDEST PUSH0 PUSH1 0x1 PUSH1 0x1 PUSH1 0xA0 SHL SUB DUP1 DUP8 AND DUP4 MSTORE DUP1 DUP7 AND PUSH1 0x20 DUP5 ADD MSTORE POP DUP4 PUSH1 0x40 DUP4 ADD MSTORE PUSH1 0x80 PUSH1 0x60 DUP4 ADD MSTORE PUSH2 0x278A PUSH1 0x80 DUP4 ADD DUP5 PUSH2 0x2973 JUMP JUMPDEST PUSH0 PUSH1 0x20 DUP3 DUP5 SUB SLT ISZERO PUSH2 0x31C7 JUMPI PUSH0 DUP1 REVERT JUMPDEST DUP2 MLOAD PUSH2 0x13EA DUP2 PUSH2 0x2943 JUMP JUMPDEST DUP2 DUP2 SUB DUP2 DUP2 GT ISZERO PUSH2 0x7DF JUMPI PUSH2 0x7DF PUSH2 0x2F06 JUMP JUMPDEST PUSH0 DUP3 PUSH2 0x31F3 JUMPI PUSH2 0x31F3 PUSH2 0x2F31 JUMP JUMPDEST POP MOD SWAP1 JUMP JUMPDEST PUSH0 PUSH2 0x13EA DUP3 DUP5 PUSH2 0x3017 JUMP INVALID COINBASE PUSH5 0x6472657373 GASPRICE KECCAK256 PUSH13 0x6F772D6C6576656C2064656C65 PUSH8 0x6174652063616C6C KECCAK256 PUSH7 0x61696C6564A264 PUSH10 0x706673582212203523A5 0x4F CALLDATALOAD SHL DUP10 0x21 SWAP8 INVALID 0xFC PUSH25 0x9F44C4A40937BA40C729D64BE7D03CF907AF9D3864736F6C63 NUMBER STOP ADDMOD NOT STOP CALLER "
    },
    "gasEstimates": {
      "creation": {
        "codeDepositCost": "2579200",
        "executionCost": "infinite",
        "totalCost": "infinite"
      },
      "external": {
        "L1_GAS_LIMIT()": "270",
        "adminMint(address)": "infinite",
        "approve(address,uint256)": "infinite",
        "balanceOf(address)": "2676",
        "batchFrozen(uint256)": "2548",
        "batchMintTo(address,uint256,string,bytes)": "infinite",
        "bridgeMint(uint256,address)": "infinite",
        "bridgeOut(uint256,address)": "infinite",
        "burn(uint256)": "infinite",
        "contractURI()": "infinite",
        "crossDomainMessenger()": "infinite",
        "explicitOwnershipOf(uint256)": "infinite",
        "explicitOwnershipsOf(uint256[])": "infinite",
        "getApproved(uint256)": "6953",
        "getBaseURICount()": "2380",
        "getBatchIdAtIndex(uint256)": "6822",
        "getDefaultRoyaltyInfo()": "2475",
        "getRoyaltyInfoForToken(uint256)": "6956",
        "isApprovedForAll(address,address)": "infinite",
        "isApprovedOrOwner(address,uint256)": "infinite",
        "l1Contract()": "infinite",
        "mintTo(address,string)": "infinite",
        "multicall(bytes[])": "infinite",
        "name()": "infinite",
        "nextTokenId()": "2384",
        "nextTokenIdToMint()": "2381",
        "owner()": "2420",
        "ownerOf(uint256)": "infinite",
        "royaltyInfo(uint256,uint256)": "7216",
        "safeTransferFrom(address,address,uint256)": "infinite",
        "safeTransferFrom(address,address,uint256,bytes)": "infinite",
        "setApprovalForAll(address,bool)": "26706",
        "setContractURI(string)": "infinite",
        "setDefaultRoyaltyInfo(address,uint256)": "28425",
        "setOwner(address)": "infinite",
        "setRoyaltyInfoForToken(uint256,address,uint256)": "51041",
        "supportsInterface(bytes4)": "654",
        "symbol()": "infinite",
        "tokenURI(uint256)": "infinite",
        "tokensOfOwner(address)": "infinite",
        "tokensOfOwnerIn(address,uint256,uint256)": "infinite",
        "totalSupply()": "4476",
        "transferFrom(address,address,uint256)": "infinite"
      }
    },
    "methodIdentifiers": {
      "L1_GAS_LIMIT()": "b9b3f691",
      "adminMint(address)": "9769dc0e",
      "approve(address,uint256)": "095ea7b3",
      "balanceOf(address)": "70a08231",
      "batchFrozen(uint256)": "83040532",
      "batchMintTo(address,uint256,string,bytes)": "754a81d9",
      "bridgeMint(uint256,address)": "1b827671",
      "bridgeOut(uint256,address)": "6e71473b",
      "burn(uint256)": "42966c68",
      "contractURI()": "e8a3d485",
      "crossDomainMessenger()": "f43b3613",
      "explicitOwnershipOf(uint256)": "c23dc68f",
      "explicitOwnershipsOf(uint256[])": "5bbb2177",
      "getApproved(uint256)": "081812fc",
      "getBaseURICount()": "63b45e2d",
      "getBatchIdAtIndex(uint256)": "2419f51b",
      "getDefaultRoyaltyInfo()": "b24f2d39",
      "getRoyaltyInfoForToken(uint256)": "4cc157df",
      "isApprovedForAll(address,address)": "e985e9c5",
      "isApprovedOrOwner(address,uint256)": "430c2081",
      "l1Contract()": "663ab59d",
      "mintTo(address,string)": "0075a317",
      "multicall(bytes[])": "ac9650d8",
      "name()": "06fdde03",
      "nextTokenId()": "75794a3c",
      "nextTokenIdToMint()": "3b1475a7",
      "owner()": "8da5cb5b",
      "ownerOf(uint256)": "6352211e",
      "royaltyInfo(uint256,uint256)": "2a55205a",
      "safeTransferFrom(address,address,uint256)": "42842e0e",
      "safeTransferFrom(address,address,uint256,bytes)": "b88d4fde",
      "setApprovalForAll(address,bool)": "a22cb465",
      "setContractURI(string)": "938e3d7b",
      "setDefaultRoyaltyInfo(address,uint256)": "600dd5ea",
      "setOwner(address)": "13af4035",
      "setRoyaltyInfoForToken(uint256,address,uint256)": "9bcf7a15",
      "supportsInterface(bytes4)": "01ffc9a7",
      "symbol()": "95d89b41",
      "tokenURI(uint256)": "c87b56dd",
      "tokensOfOwner(address)": "8462151c",
      "tokensOfOwnerIn(address,uint256,uint256)": "99a2557a",
      "totalSupply()": "18160ddd",
      "transferFrom(address,address,uint256)": "23b872dd"
    }
  },
  "storageLayout": {
    "storage": [
      {
        "astId": 3398,
        "contract": "ProducerProtocolOptimism.sol:ProducerProtocolOptimism",
        "label": "_currentIndex",
        "offset": 0,
        "slot": "0",
        "type": "t_uint256"
      },
      {
        "astId": 3400,
        "contract": "ProducerProtocolOptimism.sol:ProducerProtocolOptimism",
        "label": "_burnCounter",
        "offset": 0,
        "slot": "1",
        "type": "t_uint256"
      },
      {
        "astId": 3402,
        "contract": "ProducerProtocolOptimism.sol:ProducerProtocolOptimism",
        "label": "_name",
        "offset": 0,
        "slot": "2",
        "type": "t_string_storage"
      },
      {
        "astId": 3404,
        "contract": "ProducerProtocolOptimism.sol:ProducerProtocolOptimism",
        "label": "_symbol",
        "offset": 0,
        "slot": "3",
        "type": "t_string_storage"
      },
      {
        "astId": 3409,
        "contract": "ProducerProtocolOptimism.sol:ProducerProtocolOptimism",
        "label": "_ownerships",
        "offset": 0,
        "slot": "4",
        "type": "t_mapping(t_uint256,t_struct(TokenOwnership)7534_storage)"
      },
      {
        "astId": 3414,
        "contract": "ProducerProtocolOptimism.sol:ProducerProtocolOptimism",
        "label": "_addressData",
        "offset": 0,
        "slot": "5",
        "type": "t_mapping(t_address,t_struct(AddressData)7543_storage)"
      },
      {
        "astId": 3418,
        "contract": "ProducerProtocolOptimism.sol:ProducerProtocolOptimism",
        "label": "_tokenApprovals",
        "offset": 0,
        "slot": "6",
        "type": "t_mapping(t_uint256,t_address)"
      },
      {
        "astId": 3424,
        "contract": "ProducerProtocolOptimism.sol:ProducerProtocolOptimism",
        "label": "_operatorApprovals",
        "offset": 0,
        "slot": "7",
        "type": "t_mapping(t_address,t_mapping(t_address,t_bool))"
      },
      {
        "astId": 1982,
        "contract": "ProducerProtocolOptimism.sol:ProducerProtocolOptimism",
        "label": "contractURI",
        "offset": 0,
        "slot": "8",
        "type": "t_string_storage"
      },
      {
        "astId": 2144,
        "contract": "ProducerProtocolOptimism.sol:ProducerProtocolOptimism",
        "label": "_owner",
        "offset": 0,
        "slot": "9",
        "type": "t_address"
      },
      {
        "astId": 2239,
        "contract": "ProducerProtocolOptimism.sol:ProducerProtocolOptimism",
        "label": "royaltyRecipient",
        "offset": 0,
        "slot": "10",
        "type": "t_address"
      },
      {
        "astId": 2242,
        "contract": "ProducerProtocolOptimism.sol:ProducerProtocolOptimism",
        "label": "royaltyBps",
        "offset": 20,
        "slot": "10",
        "type": "t_uint16"
      },
      {
        "astId": 2248,
        "contract": "ProducerProtocolOptimism.sol:ProducerProtocolOptimism",
        "label": "royaltyInfoForToken",
        "offset": 0,
        "slot": "11",
        "type": "t_mapping(t_uint256,t_struct(RoyaltyInfo)5201_storage)"
      },
      {
        "astId": 1643,
        "contract": "ProducerProtocolOptimism.sol:ProducerProtocolOptimism",
        "label": "batchIds",
        "offset": 0,
        "slot": "12",
        "type": "t_array(t_uint256)dyn_storage"
      },
      {
        "astId": 1648,
        "contract": "ProducerProtocolOptimism.sol:ProducerProtocolOptimism",
        "label": "baseURI",
        "offset": 0,
        "slot": "13",
        "type": "t_mapping(t_uint256,t_string_storage)"
      },
      {
        "astId": 1653,
        "contract": "ProducerProtocolOptimism.sol:ProducerProtocolOptimism",
        "label": "batchFrozen",
        "offset": 0,
        "slot": "14",
        "type": "t_mapping(t_uint256,t_bool)"
      },
      {
        "astId": 404,
        "contract": "ProducerProtocolOptimism.sol:ProducerProtocolOptimism",
        "label": "fullURI",
        "offset": 0,
        "slot": "15",
        "type": "t_mapping(t_uint256,t_string_storage)"
      },
      {
        "astId": 32,
        "contract": "ProducerProtocolOptimism.sol:ProducerProtocolOptimism",
        "label": "nextTokenId",
        "offset": 0,
        "slot": "16",
        "type": "t_uint256"
      }
    ],
    "types": {
      "t_address": {
        "encoding": "inplace",
        "label": "address",
        "numberOfBytes": "20"
      },
      "t_array(t_uint256)dyn_storage": {
        "base": "t_uint256",
        "encoding": "dynamic_array",
        "label": "uint256[]",
        "numberOfBytes": "32"
      },
      "t_bool": {
        "encoding": "inplace",
        "label": "bool",
        "numberOfBytes": "1"
      },
      "t_mapping(t_address,t_bool)": {
        "encoding": "mapping",
        "key": "t_address",
        "label": "mapping(address => bool)",
        "numberOfBytes": "32",
        "value": "t_bool"
      },
      "t_mapping(t_address,t_mapping(t_address,t_bool))": {
        "encoding": "mapping",
        "key": "t_address",
        "label": "mapping(address => mapping(address => bool))",
        "numberOfBytes": "32",
        "value": "t_mapping(t_address,t_bool)"
      },
      "t_mapping(t_address,t_struct(AddressData)7543_storage)": {
        "encoding": "mapping",
        "key": "t_address",
        "label": "mapping(address => struct IERC721A.AddressData)",
        "numberOfBytes": "32",
        "value": "t_struct(AddressData)7543_storage"
      },
      "t_mapping(t_uint256,t_address)": {
        "encoding": "mapping",
        "key": "t_uint256",
        "label": "mapping(uint256 => address)",
        "numberOfBytes": "32",
        "value": "t_address"
      },
      "t_mapping(t_uint256,t_bool)": {
        "encoding": "mapping",
        "key": "t_uint256",
        "label": "mapping(uint256 => bool)",
        "numberOfBytes": "32",
        "value": "t_bool"
      },
      "t_mapping(t_uint256,t_string_storage)": {
        "encoding": "mapping",
        "key": "t_uint256",
        "label": "mapping(uint256 => string)",
        "numberOfBytes": "32",
        "value": "t_string_storage"
      },
      "t_mapping(t_uint256,t_struct(RoyaltyInfo)5201_storage)": {
        "encoding": "mapping",
        "key": "t_uint256",
        "label": "mapping(uint256 => struct IRoyalty.RoyaltyInfo)",
        "numberOfBytes": "32",
        "value": "t_struct(RoyaltyInfo)5201_storage"
      },
      "t_mapping(t_uint256,t_struct(TokenOwnership)7534_storage)": {
        "encoding": "mapping",
        "key": "t_uint256",
        "label": "mapping(uint256 => struct IERC721A.TokenOwnership)",
        "numberOfBytes": "32",
        "value": "t_struct(TokenOwnership)7534_storage"
      },
      "t_string_storage": {
        "encoding": "bytes",
        "label": "string",
        "numberOfBytes": "32"
      },
      "t_struct(AddressData)7543_storage": {
        "encoding": "inplace",
        "label": "struct IERC721A.AddressData",
        "members": [
          {
            "astId": 7536,
            "contract": "ProducerProtocolOptimism.sol:ProducerProtocolOptimism",
            "label": "balance",
            "offset": 0,
            "slot": "0",
            "type": "t_uint64"
          },
          {
            "astId": 7538,
            "contract": "ProducerProtocolOptimism.sol:ProducerProtocolOptimism",
            "label": "numberMinted",
            "offset": 8,
            "slot": "0",
            "type": "t_uint64"
          },
          {
            "astId": 7540,
            "contract": "ProducerProtocolOptimism.sol:ProducerProtocolOptimism",
            "label": "numberBurned",
            "offset": 16,
            "slot": "0",
            "type": "t_uint64"
          },
          {
            "astId": 7542,
            "contract": "ProducerProtocolOptimism.sol:ProducerProtocolOptimism",
            "label": "aux",
            "offset": 24,
            "slot": "0",
            "type": "t_uint64"
          }
        ],
        "numberOfBytes": "32"
      },
      "t_struct(RoyaltyInfo)5201_storage": {
        "encoding": "inplace",
        "label": "struct IRoyalty.RoyaltyInfo",
        "members": [
          {
            "astId": 5198,
            "contract": "ProducerProtocolOptimism.sol:ProducerProtocolOptimism",
            "label": "recipient",
            "offset": 0,
            "slot": "0",
            "type": "t_address"
          },
          {
            "astId": 5200,
            "contract": "ProducerProtocolOptimism.sol:ProducerProtocolOptimism",
            "label": "bps",
            "offset": 0,
            "slot": "1",
            "type": "t_uint256"
          }
        ],
        "numberOfBytes": "64"
      },
      "t_struct(TokenOwnership)7534_storage": {
        "encoding": "inplace",
        "label": "struct IERC721A.TokenOwnership",
        "members": [
          {
            "astId": 7529,
            "contract": "ProducerProtocolOptimism.sol:ProducerProtocolOptimism",
            "label": "addr",
            "offset": 0,
            "slot": "0",
            "type": "t_address"
          },
          {
            "astId": 7531,
            "contract": "ProducerProtocolOptimism.sol:ProducerProtocolOptimism",
            "label": "startTimestamp",
            "offset": 20,
            "slot": "0",
            "type": "t_uint64"
          },
          {
            "astId": 7533,
            "contract": "ProducerProtocolOptimism.sol:ProducerProtocolOptimism",
            "label": "burned",
            "offset": 28,
            "slot": "0",
            "type": "t_bool"
          }
        ],
        "numberOfBytes": "32"
      },
      "t_uint16": {
        "encoding": "inplace",
        "label": "uint16",
        "numberOfBytes": "2"
      },
      "t_uint256": {
        "encoding": "inplace",
        "label": "uint256",
        "numberOfBytes": "32"
      },
      "t_uint64": {
        "encoding": "inplace",
        "label": "uint64",
        "numberOfBytes": "8"
      }
    }
  },
  "userdoc": {
    "errors": {
      "ApprovalCallerNotOwnerNorApproved()": [
        {
          "notice": "The caller must own the token or be an approved operator."
        }
      ],
      "ApprovalQueryForNonexistentToken()": [
        {
          "notice": "The token does not exist."
        }
      ],
      "ApprovalToCurrentOwner()": [
        {
          "notice": "The caller cannot approve to the current owner."
        }
      ],
      "ApproveToCaller()": [
        {
          "notice": "The caller cannot approve to their own address."
        }
      ],
      "BalanceQueryForZeroAddress()": [
        {
          "notice": "Cannot query the balance for the zero address."
        }
      ],
      "InvalidQueryRange()": [
        {
          "notice": "Invalid query range (`start` >= `stop`)."
        }
      ],
      "MintToZeroAddress()": [
        {
          "notice": "Cannot mint to the zero address."
        }
      ],
      "MintZeroQuantity()": [
        {
          "notice": "The quantity of tokens minted must be more than zero."
        }
      ],
      "OwnerQueryForNonexistentToken()": [
        {
          "notice": "The token does not exist."
        }
      ],
      "TransferCallerNotOwnerNorApproved()": [
        {
          "notice": "The caller must own the token or be an approved operator."
        }
      ],
      "TransferFromIncorrectOwner()": [
        {
          "notice": "The token must be owned by `from`."
        }
      ],
      "TransferToNonERC721ReceiverImplementer()": [
        {
          "notice": "Cannot safely transfer to a contract that does not implement the ERC721Receiver interface."
        }
      ],
      "TransferToZeroAddress()": [
        {
          "notice": "Cannot transfer to the zero address."
        }
      ],
      "URIQueryForNonexistentToken()": [
        {
          "notice": "The token does not exist."
        }
      ]
    },
    "events": {
      "BatchMetadataUpdate(uint256,uint256)": {
        "notice": "So that the third-party platforms such as NFT market could timely update the images and related attributes of the NFTs."
      }
    },
    "kind": "user",
    "methods": {
      "batchMintTo(address,uint256,string,bytes)": {
        "notice": "Lets an authorized address mint multiple NFTs at once to a recipient."
      },
      "burn(uint256)": {
        "notice": "Lets an owner or approved operator burn the NFT of the given tokenId."
      },
      "contractURI()": {
        "notice": "Returns the contract metadata URI."
      },
      "getBaseURICount()": {
        "notice": "Returns the count of batches of NFTs."
      },
      "getBatchIdAtIndex(uint256)": {
        "notice": "Returns the ID for the batch of tokens at the given index."
      },
      "getDefaultRoyaltyInfo()": {
        "notice": "Returns the defualt royalty recipient and BPS for this contract's NFTs."
      },
      "getRoyaltyInfoForToken(uint256)": {
        "notice": "View royalty info for a given token."
      },
      "isApprovedOrOwner(address,uint256)": {
        "notice": "Returns whether a given address is the owner, or approved to transfer an NFT."
      },
      "mintTo(address,string)": {
        "notice": "Lets an authorized address mint an NFT to a recipient."
      },
      "multicall(bytes[])": {
        "notice": "Receives and executes a batch of function calls on this contract."
      },
      "nextTokenIdToMint()": {
        "notice": "The tokenId assigned to the next new NFT to be minted."
      },
      "owner()": {
        "notice": "Returns the owner of the contract."
      },
      "royaltyInfo(uint256,uint256)": {
        "notice": "View royalty info for a given token and sale price."
      },
      "setContractURI(string)": {
        "notice": "Lets a contract admin set the URI for contract-level metadata."
      },
      "setDefaultRoyaltyInfo(address,uint256)": {
        "notice": "Updates default royalty recipient and bps."
      },
      "setOwner(address)": {
        "notice": "Lets an authorized wallet set a new owner for the contract."
      },
      "setRoyaltyInfoForToken(uint256,address,uint256)": {
        "notice": "Updates default royalty recipient and bps for a particular token."
      },
      "tokenURI(uint256)": {
        "notice": "Returns the metadata URI for an NFT."
      }
    },
    "version": 1
  }
}